{
  "address": "0xE85eFa7EBFDd70301EDc17D3c1CC24AAC8781D77",
  "abi": [
    {
      "inputs": [],
      "name": "Forbidden",
      "type": "error"
    },
    {
      "inputs": [],
      "name": "WrongParams",
      "type": "error"
    },
    {
      "anonymous": false,
      "inputs": [
        {
          "indexed": true,
          "internalType": "address",
          "name": "trader",
          "type": "address"
        },
        {
          "indexed": false,
          "internalType": "uint256",
          "name": "tradeValueWETH",
          "type": "uint256"
        },
        {
          "indexed": false,
          "internalType": "uint256",
          "name": "feeValueWETH",
          "type": "uint256"
        }
      ],
      "name": "BorrowingFeeCharged",
      "type": "event"
    },
    {
      "anonymous": false,
      "inputs": [
        {
          "indexed": false,
          "internalType": "uint256",
          "name": "newValue",
          "type": "uint256"
        }
      ],
      "name": "CanExecuteTimeoutUpdated",
      "type": "event"
    },
    {
      "anonymous": false,
      "inputs": [
        {
          "indexed": false,
          "internalType": "uint256",
          "name": "WETHVaultFeeP",
          "type": "uint256"
        },
        {
          "indexed": false,
          "internalType": "uint256",
          "name": "lpFeeP",
          "type": "uint256"
        },
        {
          "indexed": false,
          "internalType": "uint256",
          "name": "sssFeeP",
          "type": "uint256"
        }
      ],
      "name": "ClosingFeeSharesPUpdated",
      "type": "event"
    },
    {
      "anonymous": false,
      "inputs": [
        {
          "indexed": true,
          "internalType": "address",
          "name": "trader",
          "type": "address"
        },
        {
          "indexed": false,
          "internalType": "uint256",
          "name": "valueWETH",
          "type": "uint256"
        }
      ],
      "name": "DevGovFeeCharged",
      "type": "event"
    },
    {
      "anonymous": false,
      "inputs": [
        {
          "indexed": false,
          "internalType": "bool",
          "name": "done",
          "type": "bool"
        }
      ],
      "name": "Done",
      "type": "event"
    },
    {
      "anonymous": false,
      "inputs": [
        {
          "indexed": false,
          "internalType": "uint8",
          "name": "version",
          "type": "uint8"
        }
      ],
      "name": "Initialized",
      "type": "event"
    },
    {
      "anonymous": false,
      "inputs": [
        {
          "indexed": true,
          "internalType": "uint256",
          "name": "orderId",
          "type": "uint256"
        },
        {
          "indexed": false,
          "internalType": "uint256",
          "name": "limitIndex",
          "type": "uint256"
        },
        {
          "components": [
            {
              "internalType": "address",
              "name": "trader",
              "type": "address"
            },
            {
              "internalType": "uint256",
              "name": "pairIndex",
              "type": "uint256"
            },
            {
              "internalType": "uint256",
              "name": "index",
              "type": "uint256"
            },
            {
              "internalType": "uint256",
              "name": "initialPosToken",
              "type": "uint256"
            },
            {
              "internalType": "uint256",
              "name": "positionSizeWETH",
              "type": "uint256"
            },
            {
              "internalType": "uint256",
              "name": "openPrice",
              "type": "uint256"
            },
            {
              "internalType": "bool",
              "name": "buy",
              "type": "bool"
            },
            {
              "internalType": "uint256",
              "name": "leverage",
              "type": "uint256"
            },
            {
              "internalType": "uint256",
              "name": "tp",
              "type": "uint256"
            },
            {
              "internalType": "uint256",
              "name": "sl",
              "type": "uint256"
            }
          ],
          "indexed": false,
          "internalType": "struct StorageInterface.Trade",
          "name": "t",
          "type": "tuple"
        },
        {
          "indexed": true,
          "internalType": "address",
          "name": "nftHolder",
          "type": "address"
        },
        {
          "indexed": false,
          "internalType": "enum StorageInterface.LimitOrder",
          "name": "orderType",
          "type": "uint8"
        },
        {
          "indexed": false,
          "internalType": "uint256",
          "name": "price",
          "type": "uint256"
        },
        {
          "indexed": false,
          "internalType": "uint256",
          "name": "priceImpactP",
          "type": "uint256"
        },
        {
          "indexed": false,
          "internalType": "uint256",
          "name": "positionSizeWETH",
          "type": "uint256"
        },
        {
          "indexed": false,
          "internalType": "int256",
          "name": "percentProfit",
          "type": "int256"
        },
        {
          "indexed": false,
          "internalType": "uint256",
          "name": "WETHSentToTrader",
          "type": "uint256"
        },
        {
          "indexed": false,
          "internalType": "bool",
          "name": "exactExecution",
          "type": "bool"
        }
      ],
      "name": "LimitExecuted",
      "type": "event"
    },
    {
      "anonymous": false,
      "inputs": [
        {
          "indexed": true,
          "internalType": "uint256",
          "name": "orderId",
          "type": "uint256"
        },
        {
          "components": [
            {
              "internalType": "address",
              "name": "trader",
              "type": "address"
            },
            {
              "internalType": "uint256",
              "name": "pairIndex",
              "type": "uint256"
            },
            {
              "internalType": "uint256",
              "name": "index",
              "type": "uint256"
            },
            {
              "internalType": "uint256",
              "name": "initialPosToken",
              "type": "uint256"
            },
            {
              "internalType": "uint256",
              "name": "positionSizeWETH",
              "type": "uint256"
            },
            {
              "internalType": "uint256",
              "name": "openPrice",
              "type": "uint256"
            },
            {
              "internalType": "bool",
              "name": "buy",
              "type": "bool"
            },
            {
              "internalType": "uint256",
              "name": "leverage",
              "type": "uint256"
            },
            {
              "internalType": "uint256",
              "name": "tp",
              "type": "uint256"
            },
            {
              "internalType": "uint256",
              "name": "sl",
              "type": "uint256"
            }
          ],
          "indexed": false,
          "internalType": "struct StorageInterface.Trade",
          "name": "t",
          "type": "tuple"
        },
        {
          "indexed": false,
          "internalType": "uint256",
          "name": "liqPrice",
          "type": "uint256"
        },
        {
          "indexed": false,
          "internalType": "bool",
          "name": "isPartial",
          "type": "bool"
        }
      ],
      "name": "LiquidationExecuted",
      "type": "event"
    },
    {
      "anonymous": false,
      "inputs": [
        {
          "indexed": true,
          "internalType": "uint256",
          "name": "orderId",
          "type": "uint256"
        },
        {
          "indexed": true,
          "internalType": "address",
          "name": "trader",
          "type": "address"
        },
        {
          "indexed": true,
          "internalType": "uint256",
          "name": "pairIndex",
          "type": "uint256"
        },
        {
          "indexed": false,
          "internalType": "uint256",
          "name": "index",
          "type": "uint256"
        },
        {
          "indexed": false,
          "internalType": "enum TradingCallbacks.CancelReason",
          "name": "cancelReason",
          "type": "uint8"
        }
      ],
      "name": "MarketCloseCanceled",
      "type": "event"
    },
    {
      "anonymous": false,
      "inputs": [
        {
          "indexed": true,
          "internalType": "uint256",
          "name": "orderId",
          "type": "uint256"
        },
        {
          "components": [
            {
              "internalType": "address",
              "name": "trader",
              "type": "address"
            },
            {
              "internalType": "uint256",
              "name": "pairIndex",
              "type": "uint256"
            },
            {
              "internalType": "uint256",
              "name": "index",
              "type": "uint256"
            },
            {
              "internalType": "uint256",
              "name": "initialPosToken",
              "type": "uint256"
            },
            {
              "internalType": "uint256",
              "name": "positionSizeWETH",
              "type": "uint256"
            },
            {
              "internalType": "uint256",
              "name": "openPrice",
              "type": "uint256"
            },
            {
              "internalType": "bool",
              "name": "buy",
              "type": "bool"
            },
            {
              "internalType": "uint256",
              "name": "leverage",
              "type": "uint256"
            },
            {
              "internalType": "uint256",
              "name": "tp",
              "type": "uint256"
            },
            {
              "internalType": "uint256",
              "name": "sl",
              "type": "uint256"
            }
          ],
          "indexed": false,
          "internalType": "struct StorageInterface.Trade",
          "name": "t",
          "type": "tuple"
        },
        {
          "indexed": false,
          "internalType": "bool",
          "name": "open",
          "type": "bool"
        },
        {
          "indexed": false,
          "internalType": "uint256",
          "name": "price",
          "type": "uint256"
        },
        {
          "indexed": false,
          "internalType": "uint256",
          "name": "priceImpactP",
          "type": "uint256"
        },
        {
          "indexed": false,
          "internalType": "uint256",
          "name": "positionSizeWETH",
          "type": "uint256"
        },
        {
          "indexed": false,
          "internalType": "int256",
          "name": "percentProfit",
          "type": "int256"
        },
        {
          "indexed": false,
          "internalType": "uint256",
          "name": "WETHSentToTrader",
          "type": "uint256"
        }
      ],
      "name": "MarketExecuted",
      "type": "event"
    },
    {
      "anonymous": false,
      "inputs": [
        {
          "indexed": true,
          "internalType": "uint256",
          "name": "orderId",
          "type": "uint256"
        },
        {
          "indexed": true,
          "internalType": "address",
          "name": "trader",
          "type": "address"
        },
        {
          "indexed": true,
          "internalType": "uint256",
          "name": "pairIndex",
          "type": "uint256"
        },
        {
          "indexed": false,
          "internalType": "enum TradingCallbacks.CancelReason",
          "name": "cancelReason",
          "type": "uint8"
        }
      ],
      "name": "MarketOpenCanceled",
      "type": "event"
    },
    {
      "anonymous": false,
      "inputs": [
        {
          "indexed": true,
          "internalType": "address",
          "name": "trader",
          "type": "address"
        },
        {
          "indexed": false,
          "internalType": "uint256",
          "name": "valueWETH",
          "type": "uint256"
        }
      ],
      "name": "NftBotFeeCharged",
      "type": "event"
    },
    {
      "anonymous": false,
      "inputs": [
        {
          "indexed": true,
          "internalType": "uint256",
          "name": "orderId",
          "type": "uint256"
        },
        {
          "indexed": true,
          "internalType": "address",
          "name": "nftHolder",
          "type": "address"
        },
        {
          "indexed": false,
          "internalType": "enum StorageInterface.LimitOrder",
          "name": "orderType",
          "type": "uint8"
        },
        {
          "indexed": false,
          "internalType": "enum TradingCallbacks.CancelReason",
          "name": "cancelReason",
          "type": "uint8"
        }
      ],
      "name": "NftOrderCanceled",
      "type": "event"
    },
    {
      "anonymous": false,
      "inputs": [
        {
          "indexed": true,
          "internalType": "uint256",
          "name": "pairIndex",
          "type": "uint256"
        },
        {
          "indexed": false,
          "internalType": "uint256",
          "name": "maxLeverage",
          "type": "uint256"
        }
      ],
      "name": "PairMaxLeverageUpdated",
      "type": "event"
    },
    {
      "anonymous": false,
      "inputs": [
        {
          "indexed": false,
          "internalType": "bool",
          "name": "paused",
          "type": "bool"
        }
      ],
      "name": "Pause",
      "type": "event"
    },
    {
      "anonymous": false,
      "inputs": [
        {
          "indexed": true,
          "internalType": "address",
          "name": "trader",
          "type": "address"
        },
        {
          "indexed": false,
          "internalType": "uint256",
          "name": "valueWETH",
          "type": "uint256"
        }
      ],
      "name": "ReferralFeeCharged",
      "type": "event"
    },
    {
      "anonymous": false,
      "inputs": [
        {
          "indexed": true,
          "internalType": "address",
          "name": "trader",
          "type": "address"
        },
        {
          "indexed": false,
          "internalType": "uint256",
          "name": "valueWETH",
          "type": "uint256"
        }
      ],
      "name": "SssFeeCharged",
      "type": "event"
    },
    {
      "anonymous": false,
      "inputs": [
        {
          "indexed": false,
          "internalType": "uint256",
          "name": "_closingFeeP",
          "type": "uint256"
        }
      ],
      "name": "UpdatedClosingFeeP",
      "type": "event"
    },
    {
      "anonymous": false,
      "inputs": [
        {
          "indexed": false,
          "internalType": "uint256",
          "name": "_openingFeeP",
          "type": "uint256"
        }
      ],
      "name": "UpdatedOpeningFeeP",
      "type": "event"
    },
    {
      "anonymous": false,
      "inputs": [
        {
          "indexed": true,
          "internalType": "address",
          "name": "trader",
          "type": "address"
        },
        {
          "indexed": false,
          "internalType": "uint256",
          "name": "valueWETH",
          "type": "uint256"
        }
      ],
      "name": "VaultRewardDistributed",
      "type": "event"
    },
    {
      "anonymous": false,
      "inputs": [
        {
          "indexed": true,
          "internalType": "address",
          "name": "trader",
          "type": "address"
        },
        {
          "indexed": false,
          "internalType": "uint256",
          "name": "valueWETH",
          "type": "uint256"
        }
      ],
      "name": "WETHVaultFeeCharged",
      "type": "event"
    },
    {
      "inputs": [],
      "name": "WETHVaultFeeP",
      "outputs": [
        {
          "internalType": "uint256",
          "name": "",
          "type": "uint256"
        }
      ],
      "stateMutability": "view",
      "type": "function"
    },
    {
      "inputs": [],
      "name": "borrowingFees",
      "outputs": [
        {
          "internalType": "contract BorrowingFeesInterface",
          "name": "",
          "type": "address"
        }
      ],
      "stateMutability": "view",
      "type": "function"
    },
    {
      "inputs": [],
      "name": "canExecuteTimeout",
      "outputs": [
        {
          "internalType": "uint256",
          "name": "",
          "type": "uint256"
        }
      ],
      "stateMutability": "view",
      "type": "function"
    },
    {
      "inputs": [
        {
          "components": [
            {
              "internalType": "uint256",
              "name": "orderId",
              "type": "uint256"
            },
            {
              "internalType": "uint256",
              "name": "price",
              "type": "uint256"
            },
            {
              "internalType": "uint256",
              "name": "spreadP",
              "type": "uint256"
            },
            {
              "internalType": "uint256",
              "name": "open",
              "type": "uint256"
            },
            {
              "internalType": "uint256",
              "name": "high",
              "type": "uint256"
            },
            {
              "internalType": "uint256",
              "name": "low",
              "type": "uint256"
            }
          ],
          "internalType": "struct TradingCallbacks.AggregatorAnswer",
          "name": "a",
          "type": "tuple"
        },
        {
          "components": [
            {
              "components": [
                {
                  "internalType": "address",
                  "name": "trader",
                  "type": "address"
                },
                {
                  "internalType": "uint256",
                  "name": "pairIndex",
                  "type": "uint256"
                },
                {
                  "internalType": "uint256",
                  "name": "index",
                  "type": "uint256"
                },
                {
                  "internalType": "uint256",
                  "name": "initialPosToken",
                  "type": "uint256"
                },
                {
                  "internalType": "uint256",
                  "name": "positionSizeWETH",
                  "type": "uint256"
                },
                {
                  "internalType": "uint256",
                  "name": "openPrice",
                  "type": "uint256"
                },
                {
                  "internalType": "bool",
                  "name": "buy",
                  "type": "bool"
                },
                {
                  "internalType": "uint256",
                  "name": "leverage",
                  "type": "uint256"
                },
                {
                  "internalType": "uint256",
                  "name": "tp",
                  "type": "uint256"
                },
                {
                  "internalType": "uint256",
                  "name": "sl",
                  "type": "uint256"
                }
              ],
              "internalType": "struct StorageInterface.Trade",
              "name": "trade",
              "type": "tuple"
            },
            {
              "internalType": "uint256",
              "name": "block",
              "type": "uint256"
            },
            {
              "internalType": "uint256",
              "name": "wantedPrice",
              "type": "uint256"
            },
            {
              "internalType": "uint256",
              "name": "slippageP",
              "type": "uint256"
            },
            {
              "internalType": "uint256",
              "name": "spreadReductionP",
              "type": "uint256"
            },
            {
              "internalType": "uint256",
              "name": "tokenId",
              "type": "uint256"
            }
          ],
          "internalType": "struct StorageInterface.PendingMarketOrder",
          "name": "o",
          "type": "tuple"
        }
      ],
      "name": "closeTradeMarketCallback",
      "outputs": [],
      "stateMutability": "nonpayable",
      "type": "function"
    },
    {
      "inputs": [],
      "name": "closingFeeP",
      "outputs": [
        {
          "internalType": "uint256",
          "name": "",
          "type": "uint256"
        }
      ],
      "stateMutability": "view",
      "type": "function"
    },
    {
      "inputs": [],
      "name": "done",
      "outputs": [],
      "stateMutability": "nonpayable",
      "type": "function"
    },
    {
      "inputs": [
        {
          "components": [
            {
              "internalType": "uint256",
              "name": "orderId",
              "type": "uint256"
            },
            {
              "internalType": "uint256",
              "name": "price",
              "type": "uint256"
            },
            {
              "internalType": "uint256",
              "name": "spreadP",
              "type": "uint256"
            },
            {
              "internalType": "uint256",
              "name": "open",
              "type": "uint256"
            },
            {
              "internalType": "uint256",
              "name": "high",
              "type": "uint256"
            },
            {
              "internalType": "uint256",
              "name": "low",
              "type": "uint256"
            }
          ],
          "internalType": "struct TradingCallbacks.AggregatorAnswer",
          "name": "a",
          "type": "tuple"
        },
        {
          "components": [
            {
              "internalType": "address",
              "name": "nftHolder",
              "type": "address"
            },
            {
              "internalType": "uint256",
              "name": "nftId",
              "type": "uint256"
            },
            {
              "internalType": "address",
              "name": "trader",
              "type": "address"
            },
            {
              "internalType": "uint256",
              "name": "pairIndex",
              "type": "uint256"
            },
            {
              "internalType": "uint256",
              "name": "index",
              "type": "uint256"
            },
            {
              "internalType": "enum StorageInterface.LimitOrder",
              "name": "orderType",
              "type": "uint8"
            }
          ],
          "internalType": "struct StorageInterface.PendingNftOrder",
          "name": "o",
          "type": "tuple"
        }
      ],
      "name": "executeNftCloseOrderCallback",
      "outputs": [],
      "stateMutability": "nonpayable",
      "type": "function"
    },
    {
      "inputs": [],
      "name": "getAllPairsMaxLeverage",
      "outputs": [
        {
          "internalType": "uint256[]",
          "name": "",
          "type": "uint256[]"
        }
      ],
      "stateMutability": "view",
      "type": "function"
    },
    {
      "inputs": [
        {
          "internalType": "address",
          "name": "trader",
          "type": "address"
        },
        {
          "internalType": "uint256",
          "name": "pairIndex",
          "type": "uint256"
        },
        {
          "internalType": "uint256",
          "name": "index",
          "type": "uint256"
        }
      ],
      "name": "getTradePnl",
      "outputs": [
        {
          "internalType": "int256",
          "name": "pnl",
          "type": "int256"
        }
      ],
      "stateMutability": "view",
      "type": "function"
    },
    {
      "inputs": [],
      "name": "giveApproval",
      "outputs": [],
      "stateMutability": "nonpayable",
      "type": "function"
    },
    {
      "inputs": [
        {
          "internalType": "contract StorageInterface",
          "name": "_storageT",
          "type": "address"
        },
        {
          "internalType": "contract NftRewardsInterfaceV6_3_1",
          "name": "_nftRewards",
          "type": "address"
        },
        {
          "internalType": "contract PairInfosInterface",
          "name": "_pairInfos",
          "type": "address"
        },
        {
          "internalType": "contract ReferralsInterface",
          "name": "_referrals",
          "type": "address"
        },
        {
          "internalType": "contract StakingInterface",
          "name": "_staking",
          "type": "address"
        },
        {
          "internalType": "contract BorrowingFeesInterface",
          "name": "_borrowingFees",
          "type": "address"
        },
        {
          "internalType": "address",
          "name": "vaultToApprove",
          "type": "address"
        },
        {
          "internalType": "uint256",
          "name": "_WETHVaultFeeP",
          "type": "uint256"
        },
        {
          "internalType": "uint256",
          "name": "_lpFeeP",
          "type": "uint256"
        },
        {
          "internalType": "uint256",
          "name": "_sssFeeP",
          "type": "uint256"
        },
        {
          "internalType": "uint256",
          "name": "_canExecuteTimeout",
          "type": "uint256"
        },
        {
          "components": [
            {
              "internalType": "uint256",
              "name": "_vaultFeeP",
              "type": "uint256"
            },
            {
              "internalType": "uint256",
              "name": "_liquidatorFeeP",
              "type": "uint256"
            },
            {
              "internalType": "uint256",
              "name": "_liquidationFeeP",
              "type": "uint256"
            },
            {
              "internalType": "uint256",
              "name": "_parLiquidationFeeP",
              "type": "uint256"
            },
            {
              "internalType": "uint256",
              "name": "_openingFeeP",
              "type": "uint256"
            },
            {
              "internalType": "uint256",
              "name": "_closingFeeP",
              "type": "uint256"
            }
          ],
          "internalType": "struct TradingCallbacks.feeConfig",
          "name": "data",
          "type": "tuple"
        }
      ],
      "name": "initialize",
      "outputs": [],
      "stateMutability": "nonpayable",
      "type": "function"
    },
    {
      "inputs": [],
      "name": "isDone",
      "outputs": [
        {
          "internalType": "bool",
          "name": "",
          "type": "bool"
        }
      ],
      "stateMutability": "view",
      "type": "function"
    },
    {
      "inputs": [],
      "name": "isPaused",
      "outputs": [
        {
          "internalType": "bool",
          "name": "",
          "type": "bool"
        }
      ],
      "stateMutability": "view",
      "type": "function"
    },
    {
      "inputs": [],
      "name": "liquidationFeeP",
      "outputs": [
        {
          "internalType": "uint256",
          "name": "",
          "type": "uint256"
        }
      ],
      "stateMutability": "view",
      "type": "function"
    },
    {
      "inputs": [],
      "name": "liquidatorFeeP",
      "outputs": [
        {
          "internalType": "uint256",
          "name": "",
          "type": "uint256"
        }
      ],
      "stateMutability": "view",
      "type": "function"
    },
    {
      "inputs": [],
      "name": "lpFeeP",
      "outputs": [
        {
          "internalType": "uint256",
          "name": "",
          "type": "uint256"
        }
      ],
      "stateMutability": "view",
      "type": "function"
    },
    {
      "inputs": [],
      "name": "nftRewards",
      "outputs": [
        {
          "internalType": "contract NftRewardsInterfaceV6_3_1",
          "name": "",
          "type": "address"
        }
      ],
      "stateMutability": "view",
      "type": "function"
    },
    {
      "inputs": [
        {
          "components": [
            {
              "internalType": "uint256",
              "name": "orderId",
              "type": "uint256"
            },
            {
              "internalType": "uint256",
              "name": "price",
              "type": "uint256"
            },
            {
              "internalType": "uint256",
              "name": "spreadP",
              "type": "uint256"
            },
            {
              "internalType": "uint256",
              "name": "open",
              "type": "uint256"
            },
            {
              "internalType": "uint256",
              "name": "high",
              "type": "uint256"
            },
            {
              "internalType": "uint256",
              "name": "low",
              "type": "uint256"
            }
          ],
          "internalType": "struct TradingCallbacks.AggregatorAnswer",
          "name": "a",
          "type": "tuple"
        },
        {
          "components": [
            {
              "components": [
                {
                  "internalType": "address",
                  "name": "trader",
                  "type": "address"
                },
                {
                  "internalType": "uint256",
                  "name": "pairIndex",
                  "type": "uint256"
                },
                {
                  "internalType": "uint256",
                  "name": "index",
                  "type": "uint256"
                },
                {
                  "internalType": "uint256",
                  "name": "initialPosToken",
                  "type": "uint256"
                },
                {
                  "internalType": "uint256",
                  "name": "positionSizeWETH",
                  "type": "uint256"
                },
                {
                  "internalType": "uint256",
                  "name": "openPrice",
                  "type": "uint256"
                },
                {
                  "internalType": "bool",
                  "name": "buy",
                  "type": "bool"
                },
                {
                  "internalType": "uint256",
                  "name": "leverage",
                  "type": "uint256"
                },
                {
                  "internalType": "uint256",
                  "name": "tp",
                  "type": "uint256"
                },
                {
                  "internalType": "uint256",
                  "name": "sl",
                  "type": "uint256"
                }
              ],
              "internalType": "struct StorageInterface.Trade",
              "name": "trade",
              "type": "tuple"
            },
            {
              "internalType": "uint256",
              "name": "block",
              "type": "uint256"
            },
            {
              "internalType": "uint256",
              "name": "wantedPrice",
              "type": "uint256"
            },
            {
              "internalType": "uint256",
              "name": "slippageP",
              "type": "uint256"
            },
            {
              "internalType": "uint256",
              "name": "spreadReductionP",
              "type": "uint256"
            },
            {
              "internalType": "uint256",
              "name": "tokenId",
              "type": "uint256"
            }
          ],
          "internalType": "struct StorageInterface.PendingMarketOrder",
          "name": "o",
          "type": "tuple"
        }
      ],
      "name": "openTradeMarketCallback",
      "outputs": [],
      "stateMutability": "nonpayable",
      "type": "function"
    },
    {
      "inputs": [],
      "name": "openingFeeP",
      "outputs": [
        {
          "internalType": "uint256",
          "name": "",
          "type": "uint256"
        }
      ],
      "stateMutability": "view",
      "type": "function"
    },
    {
      "inputs": [],
      "name": "pairInfos",
      "outputs": [
        {
          "internalType": "contract PairInfosInterface",
          "name": "",
          "type": "address"
        }
      ],
      "stateMutability": "view",
      "type": "function"
    },
    {
      "inputs": [
        {
          "internalType": "uint256",
          "name": "",
          "type": "uint256"
        }
      ],
      "name": "pairMaxLeverage",
      "outputs": [
        {
          "internalType": "uint256",
          "name": "",
          "type": "uint256"
        }
      ],
      "stateMutability": "view",
      "type": "function"
    },
    {
      "inputs": [],
      "name": "parLiquidationFeeP",
      "outputs": [
        {
          "internalType": "uint256",
          "name": "",
          "type": "uint256"
        }
      ],
      "stateMutability": "view",
      "type": "function"
    },
    {
      "inputs": [],
      "name": "pause",
      "outputs": [],
      "stateMutability": "nonpayable",
      "type": "function"
    },
    {
      "inputs": [],
      "name": "referrals",
      "outputs": [
        {
          "internalType": "contract ReferralsInterface",
          "name": "",
          "type": "address"
        }
      ],
      "stateMutability": "view",
      "type": "function"
    },
    {
      "inputs": [
        {
          "internalType": "uint256",
          "name": "_canExecuteTimeout",
          "type": "uint256"
        }
      ],
      "name": "setCanExecuteTimeout",
      "outputs": [],
      "stateMutability": "nonpayable",
      "type": "function"
    },
    {
      "inputs": [
        {
          "internalType": "uint256",
          "name": "_closingFeeP",
          "type": "uint256"
        }
      ],
      "name": "setClosingFee",
      "outputs": [],
      "stateMutability": "nonpayable",
      "type": "function"
    },
    {
      "inputs": [
        {
          "internalType": "uint256",
          "name": "_WETHVaultFeeP",
          "type": "uint256"
        },
        {
          "internalType": "uint256",
          "name": "_lpFeeP",
          "type": "uint256"
        },
        {
          "internalType": "uint256",
          "name": "_sssFeeP",
          "type": "uint256"
        }
      ],
      "name": "setClosingFeeSharesP",
      "outputs": [],
      "stateMutability": "nonpayable",
      "type": "function"
    },
    {
      "inputs": [
        {
          "internalType": "uint256",
          "name": "_feeP",
          "type": "uint256"
        }
      ],
      "name": "setLiquidationFeeP",
      "outputs": [],
      "stateMutability": "nonpayable",
      "type": "function"
    },
    {
      "inputs": [
        {
          "internalType": "uint256",
          "name": "_feeP",
          "type": "uint256"
        }
      ],
      "name": "setLiquidatorFeeP",
      "outputs": [],
      "stateMutability": "nonpayable",
      "type": "function"
    },
    {
      "inputs": [
        {
          "internalType": "uint256",
          "name": "_openingFeeP",
          "type": "uint256"
        }
      ],
      "name": "setOpeningFee",
      "outputs": [],
      "stateMutability": "nonpayable",
      "type": "function"
    },
    {
      "inputs": [
        {
          "internalType": "uint256",
          "name": "pairIndex",
          "type": "uint256"
        },
        {
          "internalType": "uint256",
          "name": "maxLeverage",
          "type": "uint256"
        }
      ],
      "name": "setPairMaxLeverage",
      "outputs": [],
      "stateMutability": "nonpayable",
      "type": "function"
    },
    {
      "inputs": [
        {
          "internalType": "uint256[]",
          "name": "indices",
          "type": "uint256[]"
        },
        {
          "internalType": "uint256[]",
          "name": "values",
          "type": "uint256[]"
        }
      ],
      "name": "setPairMaxLeverageArray",
      "outputs": [],
      "stateMutability": "nonpayable",
      "type": "function"
    },
    {
      "inputs": [
        {
          "internalType": "uint256",
          "name": "_feeP",
          "type": "uint256"
        }
      ],
      "name": "setParLiquidationFeeP",
      "outputs": [],
      "stateMutability": "nonpayable",
      "type": "function"
    },
    {
      "inputs": [
        {
          "components": [
            {
              "internalType": "address",
              "name": "trader",
              "type": "address"
            },
            {
              "internalType": "uint256",
              "name": "pairIndex",
              "type": "uint256"
            },
            {
              "internalType": "uint256",
              "name": "index",
              "type": "uint256"
            },
            {
              "internalType": "enum TradingCallbacks.TradeType",
              "name": "tradeType",
              "type": "uint8"
            }
          ],
          "internalType": "struct TradingCallbacks.SimplifiedTradeId",
          "name": "_id",
          "type": "tuple"
        },
        {
          "components": [
            {
              "internalType": "uint40",
              "name": "maxSlippageP",
              "type": "uint40"
            },
            {
              "internalType": "uint216",
              "name": "_placeholder",
              "type": "uint216"
            }
          ],
          "internalType": "struct TradingCallbacks.TradeData",
          "name": "_tradeData",
          "type": "tuple"
        }
      ],
      "name": "setTradeData",
      "outputs": [],
      "stateMutability": "nonpayable",
      "type": "function"
    },
    {
      "inputs": [
        {
          "components": [
            {
              "internalType": "address",
              "name": "trader",
              "type": "address"
            },
            {
              "internalType": "uint256",
              "name": "pairIndex",
              "type": "uint256"
            },
            {
              "internalType": "uint256",
              "name": "index",
              "type": "uint256"
            },
            {
              "internalType": "enum TradingCallbacks.TradeType",
              "name": "tradeType",
              "type": "uint8"
            }
          ],
          "internalType": "struct TradingCallbacks.SimplifiedTradeId",
          "name": "_id",
          "type": "tuple"
        },
        {
          "components": [
            {
              "internalType": "uint32",
              "name": "tp",
              "type": "uint32"
            },
            {
              "internalType": "uint32",
              "name": "sl",
              "type": "uint32"
            },
            {
              "internalType": "uint32",
              "name": "limit",
              "type": "uint32"
            },
            {
              "internalType": "uint32",
              "name": "created",
              "type": "uint32"
            }
          ],
          "internalType": "struct TradingCallbacks.LastUpdated",
          "name": "_lastUpdated",
          "type": "tuple"
        }
      ],
      "name": "setTradeLastUpdated",
      "outputs": [],
      "stateMutability": "nonpayable",
      "type": "function"
    },
    {
      "inputs": [
        {
          "internalType": "uint256",
          "name": "_feeP",
          "type": "uint256"
        }
      ],
      "name": "setVaultFeeP",
      "outputs": [],
      "stateMutability": "nonpayable",
      "type": "function"
    },
    {
      "inputs": [],
      "name": "sssFeeP",
      "outputs": [
        {
          "internalType": "uint256",
          "name": "",
          "type": "uint256"
        }
      ],
      "stateMutability": "view",
      "type": "function"
    },
    {
      "inputs": [],
      "name": "staking",
      "outputs": [
        {
          "internalType": "contract StakingInterface",
          "name": "",
          "type": "address"
        }
      ],
      "stateMutability": "view",
      "type": "function"
    },
    {
      "inputs": [],
      "name": "storageT",
      "outputs": [
        {
          "internalType": "contract StorageInterface",
          "name": "",
          "type": "address"
        }
      ],
      "stateMutability": "view",
      "type": "function"
    },
    {
      "inputs": [
        {
          "internalType": "address",
          "name": "",
          "type": "address"
        },
        {
          "internalType": "uint256",
          "name": "",
          "type": "uint256"
        },
        {
          "internalType": "uint256",
          "name": "",
          "type": "uint256"
        },
        {
          "internalType": "enum TradingCallbacks.TradeType",
          "name": "",
          "type": "uint8"
        }
      ],
      "name": "tradeData",
      "outputs": [
        {
          "internalType": "uint40",
          "name": "maxSlippageP",
          "type": "uint40"
        },
        {
          "internalType": "uint216",
          "name": "_placeholder",
          "type": "uint216"
        }
      ],
      "stateMutability": "view",
      "type": "function"
    },
    {
      "inputs": [
        {
          "internalType": "address",
          "name": "",
          "type": "address"
        },
        {
          "internalType": "uint256",
          "name": "",
          "type": "uint256"
        },
        {
          "internalType": "uint256",
          "name": "",
          "type": "uint256"
        },
        {
          "internalType": "enum TradingCallbacks.TradeType",
          "name": "",
          "type": "uint8"
        }
      ],
      "name": "tradeLastUpdated",
      "outputs": [
        {
          "internalType": "uint32",
          "name": "tp",
          "type": "uint32"
        },
        {
          "internalType": "uint32",
          "name": "sl",
          "type": "uint32"
        },
        {
          "internalType": "uint32",
          "name": "limit",
          "type": "uint32"
        },
        {
          "internalType": "uint32",
          "name": "created",
          "type": "uint32"
        }
      ],
      "stateMutability": "view",
      "type": "function"
    },
    {
      "inputs": [],
      "name": "vaultFeeP",
      "outputs": [
        {
          "internalType": "uint256",
          "name": "",
          "type": "uint256"
        }
      ],
      "stateMutability": "view",
      "type": "function"
    }
  ],
  "transactionHash": "0x315c747e164da946e6ce287f3ae6a210c5ff5d669b15d3d32d9dc723a254299b",
  "args": [],
  "numDeployments": 1,
  "solcInputHash": "9756a12d280fed6aff88664453c242a3",
  "bytecode": "0x6080604052603260085560326009556005600a556003600b5534801561002457600080fd5b5061548f806100346000396000f3fe608060405234801561001057600080fd5b506004361061025d5760003560e01c80637bb6c11c116101465780639bd24d83116100c3578063c4493e3711610087578063c4493e37146105d3578063c68078b9146105dc578063c68365df146105ef578063d3dc7539146105f8578063eda1f5821461060b578063ef9fdb081461061e57600080fd5b80639bd24d8314610513578063a2ae5262146105a2578063ae8421e1146105ab578063b187bd26146105b3578063b3f2f4d6146105c057600080fd5b80638b2638781161010a5780638b263878146104b05780638c00bd5a146104b85780638f062227146104cb57806390b913f2146104ed57806397f030831461050057600080fd5b80637bb6c11c146104665780637da345d61461046f5780637e09ae8a146104825780638456cb5914610495578063863759941461049d57600080fd5b806331158155116101df57806348829122116101a357806348829122146104085780634cf088d91461041b578063531cc9651461042e5780635ad9f9931461044157806365122c6114610454578063676c51641461045d57600080fd5b8063311581551461034c57806337edb1381461035f5780633db99177146103745780633fda6c571461038757806346f93a631461039057600080fd5b80631a4200e8116102265780631a4200e8146102ea57806321c86196146102f3578063257dd85214610306578063281b693c146103195780632e905d6e1461033957600080fd5b8062e0fa89146102625780631346b0ff1461027757806313b06504146102a757806316fff074146102c8578063178623a7146102e1575b600080fd5b610275610270366004614761565b610627565b005b60025461028a906001600160a01b031681565b6040516001600160a01b0390911681526020015b60405180910390f35b6102ba6102b53660046147f2565b6106a5565b60405190815260200161029e565b60005461028a906201000090046001600160a01b031681565b6102ba60055481565b6102ba600b5481565b6102756103013660046148be565b61099d565b610275610314366004614969565b600b55565b6102ba610327366004614969565b60126020526000908152604090205481565b610275610347366004614969565b600855565b61027561035a3660046149f3565b610a58565b610367610c41565b60405161029e9190614b06565b610275610382366004614969565b610d3f565b6102ba600c5481565b6103e361039e366004614b59565b601360209081526000948552604080862082529385528385208152918452828420909152825290205464ffffffffff811690600160281b90046001600160d81b031682565b6040805164ffffffffff90931683526001600160d81b0390911660208301520161029e565b610275610416366004614ba1565b610d83565b60045461028a906001600160a01b031681565b60115461028a906001600160a01b031681565b60015461028a906001600160a01b031681565b6102ba600a5481565b6102ba600f5481565b6102ba60075481565b61027561047d366004614969565b600a55565b610275610490366004614bd7565b610d91565b610275610e99565b6102756104ab366004614969565b610eef565b610275610f2c565b6102756104c6366004614969565b600955565b600e546104dd90610100900460ff1681565b604051901515815260200161029e565b6102756104fb3660046149f3565b61108e565b61027561050e366004614c8b565b6113b6565b610572610521366004614b59565b601060209081526000948552604080862082529385528385208152918452828420909152825290205463ffffffff80821691600160201b8104821691600160401b8204811691600160601b90041684565b6040805163ffffffff9586168152938516602085015291841691830191909152909116606082015260800161029e565b6102ba60095481565b61027561182a565b600e546104dd9060ff1681565b6102756105ce366004614969565b61188a565b6102ba60085481565b6102756105ea366004614d58565b6118e9565b6102ba60065481565b60035461028a906001600160a01b031681565b610275610619366004614d84565b61197b565b6102ba600d5481565b61062f612458565b8281811461065057604051635863f78960e01b815260040160405180910390fd5b60005b8181101561069d5761069586868381811061067057610670614e27565b9050602002013585858481811061068957610689614e27565b90506020020135612502565b600101610653565b505050505050565b600080546040516302a0a1cb60e41b815282916201000090046001600160a01b031690632a0a1cb0906106e090889088908890600401614e3d565b61014060405180830381865afa1580156106fe573d6000803e3d6000fd5b505050506040513d601f19601f820116820180604052508101906107229190614e74565b905060008060029054906101000a90046001600160a01b03166001600160a01b0316637dc0d1d06040518163ffffffff1660e01b8152600401602060405180830381865afa158015610778573d6000803e3d6000fd5b505050506040513d601f19601f8201168201806040525081019061079c9190614f06565b6001600160a01b031663e7572230866040518263ffffffff1660e01b81526004016107c991815260200190565b6040805180830381865afa1580156107e5573d6000803e3d6000fd5b505050506040513d601f19601f820116820180604052508101906108099190614f23565b50905060006108268360a00151838560c001518660e00151612553565b90506000610839848560800151846125e2565b506002548551602087015160408089015160c08a015160808b015160e08c01519351637b62877f60e11b81526001600160a01b0396871660048201526024810195909552604485019290925215156064840152608483015260a482015292935060009291169063f6c50efe9060c401602060405180830381865afa1580156108c5573d6000803e3d6000fd5b505050506040513d601f19601f820116820180604052508101906108e99190614f47565b600254608087015160405163c22ff7bf60e01b815260048101919091526024810185905260006044820181905260648201849052608482018190529293506001600160a01b039091169063c22ff7bf9060a401602060405180830381865afa158015610959573d6000803e3d6000fd5b505050506040513d601f19601f8201168201806040525081019061097d9190614f47565b905085608001518161098f9190614f76565b9a9950505050505050505050565b6109a56126fc565b80601360006109b76020860186614f96565b6001600160a01b031681526020808201929092526040908101600090812086840135825283528181208683013582529092528120906109fc6080860160608701614fb3565b6001811115610a0d57610a0d614fce565b6001811115610a1e57610a1e614fce565b8152602080820192909252604001600020825192909101516001600160d81b0316600160281b0264ffffffffff9092169190911790555050565b610a6061274f565b610a686127a2565b6000816000015190506000806000610b0460405180610180016040528088602001518152602001876040015181526020018860200151815260200188604001518152602001876080015181526020018660c001511515815260200186602001518152602001866080015181526020018660e0015181526020018760600151815260200186610100015181526020018661012001518152506127cb565b60a0870182905291945092509050600081600b811115610b2657610b26614fce565b03610ba5576000610b3b856105dc6000612ab0565b50905086600001517f2739a12dffae5d66bd9e126a286078ed771840f2288f0afa5709ce38c33309978260018460a00151888660e001518760800151610b819190614fe4565b600080604051610b97979695949392919061506f565b60405180910390a25061069d565b836020015184600001516001600160a01b031687600001517f1dc3532663e5566091476fb5aba1e514ef733714c83d4feec5723de6f16c326984604051610bec91906150c8565b60405180910390a460405162461bcd60e51b815260206004820152601a60248201527f4d61726b6574206f70656e206f726465722063616e63656c656400000000000060448201526064015b60405180910390fd5b60606000610c4d612fa8565b6001600160a01b031663b81b2b716040518163ffffffff1660e01b8152600401602060405180830381865afa158015610c8a573d6000803e3d6000fd5b505050506040513d601f19601f82011682018060405250810190610cae9190614f47565b905060008167ffffffffffffffff811115610ccb57610ccb61483f565b604051908082528060200260200182016040528015610cf4578160200160208202803683370190505b50905060005b82811015610d38576000818152601260205260409020548251839083908110610d2557610d25614e27565b6020908102919091010152600101610cfa565b5092915050565b610d47613086565b600d8190556040518181527fc75f5686bbe6603a45b5a7511ccac18cded4c9a821d01fd4f467bc9a6ca50b99906020015b60405180910390a150565b610d8d8282612502565b5050565b610d996126fc565b8060106000610dab6020860186614f96565b6001600160a01b03168152602080820192909252604090810160009081208684013582528352818120868301358252909252812090610df06080860160608701614fb3565b6001811115610e0157610e01614fce565b6001811115610e1257610e12614fce565b8152602080820192909252604090810160002083518154938501519285015160609095015163ffffffff908116600160601b0263ffffffff60601b19968216600160401b029690961667ffffffffffffffff60401b19948216600160201b0267ffffffffffffffff1990961691909216179390931791909116919091179190911790555050565b610ea1613086565b600e805460ff8082161560ff1990921682179092556040519116151581527f9422424b175dda897495a07b091ef74a3ef715cf6d866fc972954c1c7f459304906020015b60405180910390a1565b610ef7613086565b600c8190556040518181527fc31b16ad251301eaee3161a1e5a04f88c50907e7a3597977d04890832a6551b990602001610d78565b600060029054906101000a90046001600160a01b03166001600160a01b031663ad5c46486040518163ffffffff1660e01b8152600401602060405180830381865afa158015610f7f573d6000803e3d6000fd5b505050506040513d601f19601f82011682018060405250810190610fa39190614f06565b6001600160a01b031663095ea7b3600060029054906101000a90046001600160a01b03166001600160a01b031663fbfa77cf6040518163ffffffff1660e01b8152600401602060405180830381865afa158015611004573d6000803e3d6000fd5b505050506040513d601f19601f820116820180604052508101906110289190614f06565b6000196040518363ffffffff1660e01b81526004016110489291906150d6565b6020604051808303816000875af1158015611067573d6000803e3d6000fd5b505050506040513d601f19601f8201168201806040525081019061108b91906150ef565b50565b61109661274f565b61109e6127a2565b8051805160208201516040909201516000926110ba92916130d9565b905060008160e001516000146110e2576020840151156110db5760006110e5565b60026110e5565b60095b9050600981600b8111156110fb576110fb614fce565b146112f6576000611119836000015184602001518560400151613166565b905060008060029054906101000a90046001600160a01b03166001600160a01b0316633078fff56040518163ffffffff1660e01b8152600401602060405180830381865afa15801561116f573d6000803e3d6000fd5b505050506040513d601f19601f820116820180604052508101906111939190614f06565b905061119d61465b565b8460e0015185608001516111b19190614fe4565b6020820152600084600b8111156111ca576111ca614fce565b036112a6576111eb8560a0015188602001518760c001518860e00151612553565b606082015260e085015160208201516112049190615122565b816000018181525050611248856001836060015184600001518760400151612710600d5488602001516112379190614fe4565b6112419190615122565b600061321b565b60c08201819052875160208901518351606085015160405193947f2739a12dffae5d66bd9e126a286078ed771840f2288f0afa5709ce38c333099794611299948c946000949193859391929161506f565b60405180910390a26112f2565b84600001516001600160a01b03167f4628f3d38f72d5f9e077d3965e10cd3242ff1316aa2bf81f054c0dfb254084068260e001516040516112e991815260200190565b60405180910390a25b5050505b600081600b81111561130a5761130a614fce565b146113b0578251602081015181518651604093840151935192936001600160a01b039092169290917f293df767d6749666902026d2f6a2cc4e5f15cdede46402226c42ef4fdf27a17c9161136091908790615136565b60405180910390a460405162461bcd60e51b815260206004820152601b60248201527f4d61726b657420636c6f7365206f726465722063616e63656c656400000000006044820152606401610c38565b50505050565b600054610100900460ff16158080156113d65750600054600160ff909116105b806113f05750303b1580156113f0575060005460ff166001145b6114535760405162461bcd60e51b815260206004820152602e60248201527f496e697469616c697a61626c653a20636f6e747261637420697320616c72656160448201526d191e481a5b9a5d1a585b1a5e995960921b6064820152608401610c38565b6000805460ff191660011790558015611476576000805461ff0019166101001790555b6001600160a01b038d16158061149357506001600160a01b038c16155b806114a557506001600160a01b038b16155b806114b757506001600160a01b038a16155b806114c957506001600160a01b038916155b806114db57506001600160a01b038716155b806114fb5750836114ec868861514a565b6114f6919061514a565b606414155b806115065750600583115b1561152457604051635863f78960e01b815260040160405180910390fd5b8c600060026101000a8154816001600160a01b0302191690836001600160a01b031602179055508b600160006101000a8154816001600160a01b0302191690836001600160a01b031602179055508a600260006101000a8154816001600160a01b0302191690836001600160a01b0316021790555089600360006101000a8154816001600160a01b0302191690836001600160a01b0316021790555088600460006101000a8154816001600160a01b0302191690836001600160a01b0316021790555087601160006101000a8154816001600160a01b0302191690836001600160a01b03160217905550856005819055508460068190555083600781905550816000015160088190555081602001516009819055508160400151600a819055508160600151600b819055508160800151600c819055508160a00151600d8190555082600f8190555060008060029054906101000a90046001600160a01b03166001600160a01b031663ad5c46486040518163ffffffff1660e01b8152600401602060405180830381865afa1580156116c0573d6000803e3d6000fd5b505050506040513d601f19601f820116820180604052508101906116e49190614f06565b6004805460405163095ea7b360e01b81529293506001600160a01b038085169363095ea7b39361171c939092169160001991016150d6565b6020604051808303816000875af115801561173b573d6000803e3d6000fd5b505050506040513d601f19601f8201168201806040525081019061175f91906150ef565b5060405163095ea7b360e01b81526001600160a01b0382169063095ea7b390611790908b90600019906004016150d6565b6020604051808303816000875af11580156117af573d6000803e3d6000fd5b505050506040513d601f19601f820116820180604052508101906117d391906150ef565b5050801561181b576000805461ff0019169055604051600181527f7f26b83ff96e1f2b6a682f133852f6798a09c465da95921460cefb38474024989060200160405180910390a15b50505050505050505050505050565b611832613086565b600e805460ff610100808304821615810261ff001990931692909217928390556040517fc3a6f986261de9467c2838c6df8ef74f9107855159205600c0bc7a14cdfd388893610ee59390049091161515815260200190565b611892613086565b60058111156118b457604051635863f78960e01b815260040160405180910390fd5b600f8190556040518181527fa57398db99aea3c2cd0d30f5b4e8f597539206c95b9c5b73e84962d8b565bbeb90602001610d78565b6118f1613086565b806118fc838561514a565b611906919061514a565b60641461192657604051635863f78960e01b815260040160405180910390fd5b60058390556006829055600781905560408051848152602081018490529081018290527f0caa98ed9a1605da290817d1f67b1b83c63f9229abeca5123df5d90581c495589060600160405180910390a1505050565b61198361274f565b61198b6127a2565b60006119a48260400151836060015184608001516130d9565b905060008060029054906101000a90046001600160a01b03166001600160a01b0316633078fff56040518163ffffffff1660e01b8152600401602060405180830381865afa1580156119fa573d6000803e3d6000fd5b505050506040513d601f19601f82011682018060405250810190611a1e9190614f06565b905060008460200151600014611a465760e083015115611a3f576000611a49565b6009611a49565b60025b9050600081600b811115611a5f57611a5f614fce565b03612384576000611a7d846000015185602001518660400151613166565b90506000836001600160a01b03166335b03c176040518163ffffffff1660e01b8152600401602060405180830381865afa158015611abf573d6000803e3d6000fd5b505050506040513d601f19601f82011682018060405250810190611ae39190614f06565b9050611aed61465b565b8560e001518660800151611b019190614fe4565b6020820181905260e0870151611b1691615122565b815260028760a001516004811115611b3057611b30614fce565b03611bfb576011546040805160e0808201835289516001600160a01b0390811683526020808c0151908401528a8401518385015260a0808c0151606085015260c0808d015115156080860152875191850191909152918b0151918301919091529151633837d79d60e11b8152919092169163706faf3a91611bb4919060040161515d565b602060405180830381865afa158015611bd1573d6000803e3d6000fd5b505050506040513d601f19601f82011682018060405250810190611bf59190614f47565b60a08201525b60048760a001516004811115611c1357611c13614fce565b03611cde576011546040805160e0808201835289516001600160a01b0390811683526020808c0151908401528a8401518385015260a0808c0151606085015260c0808d015115156080860152875191850191909152918b0151918301919091529151633269b96360e11b815291909216916364d372c691611c97919060040161515d565b602060405180830381865afa158015611cb4573d6000803e3d6000fd5b505050506040513d601f19601f82011682018060405250810190611cd89190614f47565b60a08201525b60008760a001516004811115611cf657611cf6614fce565b14611d2d5760018760a001516004811115611d1357611d13614fce565b14611d22578060a00151611d34565b856101200151611d34565b8561010001515b60808201819052602089015114610140820181905215611e615760028760a001516004811115611d6657611d66614fce565b14611e3c5760048760a001516004811115611d8357611d83614fce565b14611e2b576402540be4006064836001600160a01b0316639c8dd2fa89602001516040518263ffffffff1660e01b8152600401611dc291815260200190565b602060405180830381865afa158015611ddf573d6000803e3d6000fd5b505050506040513d601f19601f82011682018060405250810190611e039190614f47565b8360200151611e129190614fe4565b611e1c9190615122565b611e269190615122565b611e57565b600b548151606491611e1c91614fe4565b600a548151606491611e4d91614fe4565b611e579190615122565b60e08201526120a3565b6020880151608082015260028760a001516004811115611e8357611e83614fce565b146120505760048760a001516004811115611ea057611ea0614fce565b1461200d5760008760a001516004811115611ebd57611ebd614fce565b148015611ecf57506000866101000151115b8015611eff57508560c00151611ef15785610100015188606001511115611eff565b856101000151886060015110155b80611f5f575060018760a001516004811115611f1d57611f1d614fce565b148015611f2f57506000866101200151115b8015611f5f57508560c00151611f515785610120015188606001511015611f5f565b856101200151886060015111155b611f6a57600061209d565b6402540be4006064836001600160a01b0316639c8dd2fa89602001516040518263ffffffff1660e01b8152600401611fa491815260200190565b602060405180830381865afa158015611fc1573d6000803e3d6000fd5b505050506040513d601f19601f82011682018060405250810190611fe59190614f47565b8360200151611ff49190614fe4565b611ffe9190615122565b6120089190615122565b61209d565b8560c00151612027578060a0015188606001511015612034565b8060a00151886060015111155b61203f57600061209d565b600b548151606491611ffe91614fe4565b8560c0015161206a578060a0015188606001511015612077565b8060a00151886060015111155b61208257600061209d565b600a54815160649161209391614fe4565b61209d9190615122565b60e08201525b60e0810151156120b45760006120b7565b600b5b9350600084600b8111156120cd576120cd614fce565b03612380576120ee8660a0015182608001518860c001518960e00151612553565b606082015260048760a00151600481111561210b5761210b614fce565b0361213c57612137868260600151836000015186604001518560e001518660e001518e6020015161364e565b61221d565b60608101518151604085015161221d92899260009260028d60a00151600481111561216957612169614fce565b14612211576402540be4006064896001600160a01b031663836a341a8f602001516040518263ffffffff1660e01b81526004016121a891815260200190565b602060405180830381865afa1580156121c5573d6000803e3d6000fd5b505050506040513d601f19601f820116820180604052508101906121e99190614f47565b89602001516121f89190614fe4565b6122029190615122565b61220c9190615122565b611241565b8660e00151600061321b565b60c082015260028760a00151600481111561223a5761223a614fce565b148061225b575060048760a00151600481111561225957612259614fce565b145b156122bc57875160808201517faeefb4131e9c16aed5d272d7c0dd13a9a1015c8ba68226ca46ccb278ded96ee890889060028b60a0015160048111156122a3576122a3614fce565b146040516122b3939291906151b1565b60405180910390a25b85600001516001600160a01b03167fcada75418f444febbe725c87360b063440c54e00e82d578010de1ed009d756c58260e001516040516122ff91815260200190565b60405180910390a286600001516001600160a01b031688600001517f1ab0771256522e5114b583b488c490436d6f8fe02b1e1c9697443e8704c4e8408960800151898b60a0015186608001516000886000015189606001518a60c001518b6101400151604051612377999897969594939291906151e8565b60405180910390a35b5050505b600081600b81111561239857612398614fce565b146123eb578351855160a08601516040516001600160a01b03909316927fe9681b5336d843735c62e93114e5a0f45912a84ae83fa3f3ed80ca5ad933dfc3916123e2918690615245565b60405180910390a35b600054855160405163201d8bdb60e01b81526004810191909152620100009091046001600160a01b03169063201d8bdb90602401600060405180830381600087803b15801561243957600080fd5b505af115801561244d573d6000803e3d6000fd5b505050505050505050565b600260009054906101000a90046001600160a01b03166001600160a01b031663481c6a756040518163ffffffff1660e01b8152600401602060405180830381865afa1580156124ab573d6000803e3d6000fd5b505050506040513d601f19601f820116820180604052508101906124cf9190614f06565b6001600160a01b0316336001600160a01b03161461250057604051631dd2188d60e31b815260040160405180910390fd5b565b600082815260126020526040908190208290555182907f95924bc10431f9a625a06fe5a27d55f4348510b2da42a18fe3bf2a6f2c4eab67906125479084815260200190565b60405180910390a25050565b6000806125676402540be400610384615260565b9050600086116125785760006125c7565b85836402540be400866125945761258f888a614f76565b61259e565b61259e8989614f76565b6125a9906064615260565b6125b39190615260565b6125bd9190615260565b6125c79190615290565b91508082136125d657816125d8565b805b9695505050505050565b6011546040805160c0808201835286516001600160a01b03908116835260208089015190840190815288850151848601908152928901511515606085019081526080850189815260e08b015160a087019081529651632d28a81760e01b8152955184166004870152915160248601529251604485015291511515606484015290516084830152915160a482015260009283921690632d28a8179060c401602060405180830381865afa15801561269c573d6000803e3d6000fd5b505050506040513d601f19601f820116820180604052508101906126c09190614f47565b9050836402540be4006126d4836064614fe4565b6126de9190614fe4565b6126e89190615122565b6126f29084614f76565b9150935093915050565b600060029054906101000a90046001600160a01b03166001600160a01b031663ec44acf26040518163ffffffff1660e01b8152600401602060405180830381865afa1580156124ab573d6000803e3d6000fd5b600060029054906101000a90046001600160a01b03166001600160a01b0316633078fff56040518163ffffffff1660e01b8152600401602060405180830381865afa1580156124ab573d6000803e3d6000fd5b600e54610100900460ff161561250057604051631dd2188d60e31b815260040160405180910390fd5b60025481516060830151608084015160a0850151600094859485946001600160a01b0390921693637ea95f3293612803939190613c66565b8660c001518760a001518861010001518960e001516128229190614fe4565b6040516001600160e01b031960e087901b168152600481019490945260248401929092521515604483015260648201526084016040805180830381865afa158015612871573d6000803e3d6000fd5b505050506040513d601f19601f820116820180604052508101906128959190614f23565b61012086015191945092506000906128bd57606485602001516128b89190615122565b6128ee565b6402540be400606486610120015187602001516128da9190614fe4565b6128e49190615122565b6128ee9190615122565b600e5490915060ff16612aa457604085015115612a9d578460a001516129255780856020015161291e91906152be565b8310612938565b808560200151612935919061514a565b83115b612a9657600085610140015111801561296d57508460a001516129635784610140015183111561296d565b8461014001518310155b612a8f5760008561016001511180156129a257508460a00151612998578461016001518310156129a2565b8461016001518311155b612a88576129c38560c001518660a001518760e00151886101000151613cd6565b15612a8157600260009054906101000a90046001600160a01b03166001600160a01b03166380f6cfc26040518163ffffffff1660e01b8152600401602060405180830381865afa158015612a1b573d6000803e3d6000fd5b505050506040513d601f19601f82011682018060405250810190612a3f9190614f47565b610100860151612a4f9086614fe4565b11612a7a57612a678560c00151866101000151613e7f565b15612a73576000612aa7565b6008612aa7565b6007612aa7565b6006612aa7565b6005612aa7565b6004612aa7565b6003612aa7565b6002612aa7565b60015b93959294505050565b612ab86146b7565b600080600060029054906101000a90046001600160a01b03166001600160a01b0316633078fff56040518163ffffffff1660e01b8152600401602060405180830381865afa158015612b0e573d6000803e3d6000fd5b505050506040513d601f19601f82011682018060405250810190612b329190614f06565b90506000816001600160a01b03166335b03c176040518163ffffffff1660e01b8152600401602060405180830381865afa158015612b74573d6000803e3d6000fd5b505050506040513d601f19601f82011682018060405250810190612b989190614f06565b9050612ba261465b565b8760e001518860800151612bb69190614fe4565b60208201819052600c5461271091612bce9190614fe4565b612bd89190615122565b60e082018190528851612bea91613f21565b8060e001518860800151612bfe91906152be565b6080890152600054885160208a015160405163292c161760e01b8152620100009093046001600160a01b03169263292c161792612c3f9290916004016150d6565b602060405180830381865afa158015612c5c573d6000803e3d6000fd5b505050506040513d601f19601f82011682018060405250810190612c809190614f47565b886040018181525050612ca68860a001518960e001518a61010001518b60c0015161403c565b88610100018181525050612ccd8860a001518960e001518a61012001518b60c001516140cf565b610120890152600254885160208a01516040808c015160c08d01519151630735e1cd60e11b81526001600160a01b0390951694630e6bc39a94612d179490939092916004016152d1565b600060405180830381600087803b158015612d3157600080fd5b505af1158015612d45573d6000803e3d6000fd5b505050506020880151608089015160c08a01516040516310787e2f60e11b81526004810193909352602483019190915215156044820152600160648201526001600160a01b038316906320f0fc5e90608401600060405180830381600087803b158015612db157600080fd5b505af1158015612dc5573d6000803e3d6000fd5b50506011548a5160208c015160408d015160e08e015160808f01516001600160a01b03909516965063ce67edfb9550929391929091612e049190614fe4565b60018e60c001516040518763ffffffff1660e01b8152600401612e2c969594939291906152f9565b600060405180830381600087803b158015612e4657600080fd5b505af1158015612e5a573d6000803e3d6000fd5b50505050600060029054906101000a90046001600160a01b03166001600160a01b031663c311ab31896040518060c0016040528060008152602001856040015181526020018c60e001518d60800151612eb39190614fe4565b81526020016000815260200160008152602001600015158152506040518363ffffffff1660e01b8152600401612eea929190615330565b600060405180830381600087803b158015612f0457600080fd5b505af1158015612f18573d6000803e3d6000fd5b505089516001600160a01b03166000908152601060209081526040808320828e015184528252808320818e015184528252808320838052909152812092509050612f60614149565b825467ffffffffffffffff191663ffffffff91909116908117600160201b82021763ffffffff60601b1916600160601b91909102179091555060400151969795505050505050565b60008060029054906101000a90046001600160a01b03166001600160a01b0316633078fff56040518163ffffffff1660e01b8152600401602060405180830381865afa158015612ffc573d6000803e3d6000fd5b505050506040513d601f19601f820116820180604052508101906130209190614f06565b6001600160a01b03166335b03c176040518163ffffffff1660e01b8152600401602060405180830381865afa15801561305d573d6000803e3d6000fd5b505050506040513d601f19601f820116820180604052508101906130819190614f06565b905090565b600060029054906101000a90046001600160a01b03166001600160a01b03166312d43a516040518163ffffffff1660e01b8152600401602060405180830381865afa1580156124ab573d6000803e3d6000fd5b6130e16146b7565b6000546040516302a0a1cb60e41b8152620100009091046001600160a01b031690632a0a1cb09061311a90879087908790600401614e3d565b61014060405180830381865afa158015613138573d6000803e3d6000fd5b505050506040513d601f19601f8201168201806040525081019061315c9190614e74565b90505b9392505050565b6131a16040518060c0016040528060008152602001600081526020016000815260200160008152602001600081526020016000151581525090565b600054604051637728fb1b60e11b8152620100009091046001600160a01b03169063ee51f636906131da90879087908790600401614e3d565b60c060405180830381865afa1580156131f7573d6000803e3d6000fd5b505050506040513d601f19601f8201168201806040525081019061315c9190615387565b600080600060029054906101000a90046001600160a01b03166001600160a01b031663fbfa77cf6040518163ffffffff1660e01b8152600401602060405180830381865afa158015613271573d6000803e3d6000fd5b505050506040513d601f19601f820116820180604052508101906132959190614f06565b90506132ac8987896132a7878961514a565b6141ca565b506011548a5160208c01516040808e015160c08f0151915163ce67edfb60e01b81529597506001600160a01b039094169463ce67edfb946132f894939290918c916000916004016152f9565b600060405180830381600087803b15801561331257600080fd5b505af1158015613326573d6000803e3d6000fd5b50505050613332612fa8565b6001600160a01b03166320f0fc5e8a602001518b60e00151886133559190615122565b60c08d01516040516001600160e01b031960e086901b168152600481019390935260248301919091521515604482015260006064820152608401600060405180830381600087803b1580156133a957600080fd5b505af11580156133bd573d6000803e3d6000fd5b50506000548b5160208d01516040808f015190516390d112b960e01b8152620100009094046001600160a01b031695506390d112b9945061340093600401614e3d565b600060405180830381600087803b15801561341a57600080fd5b505af115801561342e573d6000803e3d6000fd5b505050506080890151156135dc5761344461465b565b8960e001518a608001516134589190614fe4565b60208201819052600d54612710916134709190614fe4565b61347a9190615122565b60e082018190528a5161348c91613f21565b886134ec576064600854856134a19190614fe4565b6134ab9190615122565b61010082018190528a516134bf91906142ed565b6064600954856134cf9190614fe4565b6134d99190615122565b61012082018190526134ec9033906143cf565b60008160e001518261010001518361012001518a61350a91906152be565b61351491906152be565b61351e91906152be565b9050808411156135b5576001600160a01b03831663e66a6e3b61354183876152be565b8d5160405160e084901b6001600160e01b031916815260048101929092526001600160a01b03166024820152604401600060405180830381600087803b15801561358a57600080fd5b505af115801561359e573d6000803e3d6000fd5b505050506135b08b60000151826143cf565b6135d5565b6135c96135c285836152be565b8c516142ed565b8a516135d590856143cf565b5050613642565b885160405163e66a6e3b60e01b8152600481018490526001600160a01b0391821660248201529082169063e66a6e3b90604401600060405180830381600087803b15801561362957600080fd5b505af115801561363d573d6000803e3d6000fd5b505050505b50979650505050505050565b600061365d88878960006141ca565b50809150506136906040518060400160405280600d81526020016c1c195c98d95b9d141c9bd99a5d609a1b815250614414565b61369987614457565b6136cf88608001516040518060400160405280601081526020016f0e0dee6d2e8d2dedca6d2f4caae8aa8960831b81525061449c565b613701816040518060400160405280601081526020016f2ba2aa2429b2b73a2a37aa3930b232b960811b81525061449c565b601154885160208a01516040808c015160c08d0151915163ce67edfb60e01b81526001600160a01b039095169463ce67edfb9461374a9490939092918c916001916004016152f9565b600060405180830381600087803b15801561376457600080fd5b505af1158015613778573d6000803e3d6000fd5b50505050613784612fa8565b6001600160a01b03166320f0fc5e8960200151838b60e00151896137a89190615122565b6137b291906152be565b60c08c01516040516001600160e01b031960e086901b168152600481019390935260248301919091521515604482015260006064820152608401600060405180830381600087803b15801561380657600080fd5b505af115801561381a573d6000803e3d6000fd5b5050505060006064600854856138309190614fe4565b61383a9190615122565b905061384a818a600001516142ed565b600060646009548661385c9190614fe4565b6138669190615122565b905061387233826143cf565b6000548a5160208c01516040808e015190516390d112b960e01b8152620100009094046001600160a01b0316936390d112b9936138b59390929091600401614e3d565b600060405180830381600087803b1580156138cf57600080fd5b505af11580156138e3573d6000803e3d6000fd5b505050506138ef6146b7565b8a516001600160a01b03908116825260e0808d0151908301526020808d0180519184019190915260c0808e01511515908401526080830186905260a083018790526000548d51915160405163292c161760e01b8152620100009092049093169263292c161792613964929091906004016150d6565b602060405180830381865afa158015613981573d6000803e3d6000fd5b505050506040513d601f19601f820116820180604052508101906139a59190614f47565b60408201526101008b01516139bb5760006139d9565b6139d98b60a001518c6101000151878e60c001518f60e001516144e1565b6101008201526101208b01516139f0576000613a0e565b613a0e8b60a001518c6101200151878e60c001518f60e00151614594565b6101208201526002548151602083015160408085015160c08601519151630735e1cd60e11b81526001600160a01b0390951694630e6bc39a94613a589490939092916004016152d1565b600060405180830381600087803b158015613a7257600080fd5b505af1158015613a86573d6000803e3d6000fd5b505060115483516020850151604086015160e087015160808801516001600160a01b03909516965063ce67edfb9550929391929091613ac59190614fe4565b60018760c001516040518763ffffffff1660e01b8152600401613aed969594939291906152f9565b600060405180830381600087803b158015613b0757600080fd5b505af1158015613b1b573d6000803e3d6000fd5b50505050600060029054906101000a90046001600160a01b03166001600160a01b031663c311ab31826040518060c0016040528060008152602001600081526020018560e001518660800151613b719190614fe4565b81526020016000815260200160008152602001600015158152506040518363ffffffff1660e01b8152600401613ba8929190615330565b600060405180830381600087803b158015613bc257600080fd5b505af1158015613bd6573d6000803e3d6000fd5b505082516001600160a01b0316600090815260106020908152604080832082870151845282528083208187015184528252808320838052909152812092509050613c1e614149565b825467ffffffffffffffff191663ffffffff91909116908117600160201b82021763ffffffff60601b1916600160601b919091021790915550929a9950505050505050505050565b6000806402540be400606480613c7c8789614fe4565b613c869190615122565b613c9090886152be565b613c9a9089614fe4565b613ca49190615122565b613cae9190615122565b905082613cc457613cbf81876152be565b6125d8565b6125d8818761514a565b949350505050565b600080613ce38385614fe4565b601154604051632e53fe8760e21b8152600481018990529192506001600160a01b03169063b94ffa1c90602401602060405180830381865afa158015613d2d573d6000803e3d6000fd5b505050506040513d601f19601f82011682018060405250810190613d519190614f47565b613d5f906305f5e100614fe4565b60005482906201000090046001600160a01b03166377a9fdcf8989613d85576001613d88565b60005b6040516001600160e01b031960e085901b168152600481019290925260ff166024820152604401602060405180830381865afa158015613dcc573d6000803e3d6000fd5b505050506040513d601f19601f82011682018060405250810190613df09190614f47565b613dfa919061514a565b111580156125d8575060115460405163d627450560e01b8152600481018890528615156024820152604481018390526001600160a01b039091169063d627450590606401602060405180830381865afa158015613e5b573d6000803e3d6000fd5b505050506040513d601f19601f820116820180604052508101906125d891906150ef565b6000828152601260205260408120548015613e9d5780831115613f17565b613ea5612fa8565b6001600160a01b031663281b693c856040518263ffffffff1660e01b8152600401613ed291815260200190565b602060405180830381865afa158015613eef573d6000803e3d6000fd5b505050506040513d601f19601f82011682018060405250810190613f139190614f47565b8311155b9150505b92915050565b613f2b30826143cf565b600060029054906101000a90046001600160a01b03166001600160a01b031663fbfa77cf6040518163ffffffff1660e01b8152600401602060405180830381865afa158015613f7e573d6000803e3d6000fd5b505050506040513d601f19601f82011682018060405250810190613fa29190614f06565b6001600160a01b031663940a4e45826040518263ffffffff1660e01b8152600401613fcf91815260200190565b600060405180830381600087803b158015613fe957600080fd5b505af1158015613ffd573d6000803e3d6000fd5b50505050816001600160a01b03167f19ffdf6391d49bb1730b3f4d19c279b1275dddf2a4e981af93b1099c111369e68260405161254791815260200190565b600082158061406557506140576402540be400610384615260565b61406386858588612553565b145b156140c657600060648561407b61038489614fe4565b6140859190615122565b61408f9190615122565b9050826140b457858111156140a55760006140be565b6140af81876152be565b6140be565b6140be818761514a565b915050613cce565b50909392505050565b6000808311801561410557506140eb6402540be400604b615260565b6140f790600019615260565b61410386858588612553565b125b156140c657600060648561411a604b89614fe4565b6141249190615122565b61412e9190615122565b90508261413f576140af818761514a565b6140be81876152be565b600061a4b146148061415d575062066eed46145b156141c55760646001600160a01b031663a3b1b31d6040518163ffffffff1660e01b8152600401602060405180830381865afa1580156141a1573d6000803e3d6000fd5b505050506040513d601f19601f820116820180604052508101906130819190614f47565b504390565b60008060006141da8787876125e2565b600254895160208b01516040808d015160c08e015160e08f01519251636ceaca6760e01b81526001600160a01b0395861660048201526024810194909452604484019190915215156064830152608482018c905260a482015260c4810185905260e481018990529295509293509190911690636ceaca6790610104016020604051808303816000875af1158015614275573d6000803e3d6000fd5b505050506040513d601f19601f820116820180604052508101906142999190614f47565b875160408051838152602081018690529295506001600160a01b03909116917fe7d34775bf6fd7b34e703a903ef79ab16166ebdffce96a66f4d2f84b6263bb29910160405180910390a25094509492505050565b6142f730836143cf565b600060029054906101000a90046001600160a01b03166001600160a01b031663fbfa77cf6040518163ffffffff1660e01b8152600401602060405180830381865afa15801561434a573d6000803e3d6000fd5b505050506040513d601f19601f8201168201806040525081019061436e9190614f06565b60405163a481c14b60e01b8152600481018490526001600160a01b038381166024830152919091169063a481c14b906044015b600060405180830381600087803b1580156143bb57600080fd5b505af115801561069d573d6000803e3d6000fd5b600054604051638a238ae560e01b81526001600160a01b0362010000909204821660048201819052918416602482015260448101839052638a238ae5906064016143a1565b61108b81604051602401614428919061542d565b60408051601f198184030181529190526020810180516001600160e01b031663104c13eb60e21b179052614636565b61108b8160405160240161446d91815260200190565b60408051601f198184030181529190526020810180516001600160e01b0316632d5b6cb960e01b179052614636565b610d8d82826040516024016144b2929190615440565b60408051601f198184030181529190526020810180516001600160e01b031663643fd0df60e01b179052614636565b60008086836402540be40086614500576144fb898b614f76565b61450a565b61450a8a8a614f76565b614515906064615260565b61451f9190615260565b6145299190615260565b6145339190615290565b90506000836402540be400606461454a8986615260565b6145549190615290565b61455e9190615290565b6145689190615290565b90508461457e5761457981876152be565b614588565b614588818761514a565b98975050505050505050565b60008086836402540be400866145b3576145ae898b614f76565b6145bd565b6145bd8a8a614f76565b6145c8906064615260565b6145d29190615260565b6145dc9190615260565b6145e69190615290565b90506000836402540be40060646145fd8986615260565b6146079190615290565b6146119190615290565b61461b9190615290565b90508461462c57614579818761514a565b61458881876152be565b61108b8160006a636f6e736f6c652e6c6f679050600080835160208501845afa505050565b604051806101600160405280600081526020016000815260200160008152602001600081526020016000815260200160008152602001600081526020016000815260200160008152602001600081526020016000151581525090565b60405180610140016040528060006001600160a01b0316815260200160008152602001600081526020016000815260200160008152602001600081526020016000151581526020016000815260200160008152602001600081525090565b60008083601f84011261472757600080fd5b50813567ffffffffffffffff81111561473f57600080fd5b6020830191508360208260051b850101111561475a57600080fd5b9250929050565b6000806000806040858703121561477757600080fd5b843567ffffffffffffffff8082111561478f57600080fd5b61479b88838901614715565b909650945060208701359150808211156147b457600080fd5b506147c187828801614715565b95989497509550505050565b6001600160a01b038116811461108b57600080fd5b80356147ed816147cd565b919050565b60008060006060848603121561480757600080fd5b8335614812816147cd565b95602085013595506040909401359392505050565b60006080828403121561483957600080fd5b50919050565b634e487b7160e01b600052604160045260246000fd5b60405160c0810167ffffffffffffffff8111828210171561488657634e487b7160e01b600052604160045260246000fd5b60405290565b604051610140810167ffffffffffffffff8111828210171561488657634e487b7160e01b600052604160045260246000fd5b60008082840360c08112156148d257600080fd5b6148dc8585614827565b92506040607f19820112156148f057600080fd5b506040516040810181811067ffffffffffffffff8211171561492257634e487b7160e01b600052604160045260246000fd5b604052608084013564ffffffffff8116811461493d57600080fd5b815260a08401356001600160d81b038116811461495957600080fd5b6020820152919491935090915050565b60006020828403121561497b57600080fd5b5035919050565b600060c0828403121561499457600080fd5b61499c614855565b9050813581526020820135602082015260408201356040820152606082013560608201526080820135608082015260a082013560a082015292915050565b801515811461108b57600080fd5b80356147ed816149da565b6000808284036102a0811215614a0857600080fd5b614a128585614982565b925060bf19016101e080821215614a2857600080fd5b614a30614855565b61014080841215614a4057600080fd5b614a4861488c565b9350614a5660c088016147e2565b845260e0870135602085015261010080880135604086015261012080890135606087015282890135608087015261016089013560a0870152614a9b6101808a016149e8565b60c08701526101a089013560e08701526101c08901359186019190915292870135928401929092529182525061020084013560208201526102208401356040820152610240840135606082015261026084013560808201526102809093013560a08401525092909150565b6020808252825182820181905260009190848201906040850190845b81811015614b3e57835183529284019291840191600101614b22565b50909695505050505050565b8035600281106147ed57600080fd5b60008060008060808587031215614b6f57600080fd5b8435614b7a816147cd565b93506020850135925060408501359150614b9660608601614b4a565b905092959194509250565b60008060408385031215614bb457600080fd5b50508035926020909101359150565b803563ffffffff811681146147ed57600080fd5b600080828403610100811215614bec57600080fd5b614bf68585614827565b92506080607f1982011215614c0a57600080fd5b506040516080810181811067ffffffffffffffff82111715614c3c57634e487b7160e01b600052604160045260246000fd5b604052614c4b60808501614bc3565b8152614c5960a08501614bc3565b6020820152614c6a60c08501614bc3565b6040820152614c7b60e08501614bc3565b6060820152809150509250929050565b6000806000806000806000806000806000806102208d8f031215614cae57600080fd5b8c35614cb9816147cd565b9b5060208d0135614cc9816147cd565b9a5060408d0135614cd9816147cd565b995060608d0135614ce9816147cd565b985060808d0135614cf9816147cd565b975060a08d0135614d09816147cd565b9650614d1760c08e016147e2565b955060e08d013594506101008d013593506101208d013592506101408d01359150614d468e6101608f01614982565b90509295989b509295989b509295989b565b600080600060608486031215614d6d57600080fd5b505081359360208301359350604090920135919050565b600080828403610180811215614d9957600080fd5b614da38585614982565b925060c060bf1982011215614db757600080fd5b50614dc0614855565b60c0840135614dce816147cd565b815260e08401356020820152610100840135614de9816147cd565b60408201526101208401356060820152610140840135608082015261016084013560058110614e1757600080fd5b60a0820152919491935090915050565b634e487b7160e01b600052603260045260246000fd5b6001600160a01b039390931683526020830191909152604082015260600190565b80516147ed816147cd565b80516147ed816149da565b60006101408284031215614e8757600080fd5b614e8f61488c565b614e9883614e5e565b81526020830151602082015260408301516040820152606083015160608201526080830151608082015260a083015160a0820152614ed860c08401614e69565b60c082015260e083810151908201526101008084015190820152610120928301519281019290925250919050565b600060208284031215614f1857600080fd5b815161315f816147cd565b60008060408385031215614f3657600080fd5b505080516020909101519092909150565b600060208284031215614f5957600080fd5b5051919050565b634e487b7160e01b600052601160045260246000fd5b8181036000831280158383131683831282161715610d3857610d38614f60565b600060208284031215614fa857600080fd5b813561315f816147cd565b600060208284031215614fc557600080fd5b61315f82614b4a565b634e487b7160e01b600052602160045260246000fd5b8082028115828204841417613f1b57613f1b614f60565b80516001600160a01b031682526020810151602083015260408101516040830152606081015160608301526080810151608083015260a081015160a083015260c081015161504d60c084018215159052565b5060e08181015190830152610100808201519083015261012090810151910152565b610200810161507e828a614ffb565b9615156101408201526101608101959095526101808501939093526101a08401919091526101c08301526101e090910152919050565b600c81106150c4576150c4614fce565b9052565b60208101613f1b82846150b4565b6001600160a01b03929092168252602082015260400190565b60006020828403121561510157600080fd5b815161315f816149da565b634e487b7160e01b600052601260045260246000fd5b6000826151315761513161510c565b500490565b8281526040810161315f60208301846150b4565b80820180821115613f1b57613f1b614f60565b81516001600160a01b0316815260208083015190820152604080830151908201526060808301519082015260808083015115159082015260a0828101519082015260c0918201519181019190915260e00190565b61018081016151c08286614ffb565b83610140830152821515610160830152949350505050565b600581106150c4576150c4614fce565b89815261024081016151fd602083018b614ffb565b61520b61016083018a6151d8565b87610180830152866101a0830152856101c0830152846101e0830152836102008301528215156102208301529a9950505050505050505050565b6040810161525382856151d8565b61315f60208301846150b4565b80820260008212600160ff1b8414161561527c5761527c614f60565b8181058314821517613f1b57613f1b614f60565b60008261529f5761529f61510c565b600160ff1b8214600019841416156152b9576152b9614f60565b500590565b81810381811115613f1b57613f1b614f60565b6001600160a01b03949094168452602084019290925260408301521515606082015260800190565b6001600160a01b0396909616865260208601949094526040850192909252606084015215156080830152151560a082015260c00190565b610200810161533f8285614ffb565b82516101408301526020830151610160830152604083015161018083015260608301516101a083015260808301516101c083015260a083015115156101e08301529392505050565b600060c0828403121561539957600080fd5b6153a1614855565b825181526020830151602082015260408301516040820152606083015160608201526080830151608082015260a08301516153db816149da565b60a08201529392505050565b6000815180845260005b8181101561540d576020818501810151868301820152016153f1565b506000602082860101526020601f19601f83011685010191505092915050565b60208152600061315f60208301846153e7565b82815260406020820152600061315c60408301846153e756fea2646970667358221220b51041519612331abd04cd0247b041348e182a60e20706fc8151bf6a477d944b64736f6c63430008170033",
  "devdoc": {
    "events": {
      "Initialized(uint8)": {
        "details": "Triggered when the contract has been initialized or reinitialized."
      }
    },
    "kind": "dev",
    "methods": {},
    "version": 1
  },
  "userdoc": {
    "kind": "user",
    "methods": {},
    "version": 1
  },
  "storageLayout": {
    "storage": [
      {
        "astId": 6,
        "contract": "contracts/TradingCallbacks.sol:TradingCallbacks",
        "label": "_initialized",
        "offset": 0,
        "slot": "0",
        "type": "t_uint8"
      },
      {
        "astId": 9,
        "contract": "contracts/TradingCallbacks.sol:TradingCallbacks",
        "label": "_initializing",
        "offset": 1,
        "slot": "0",
        "type": "t_bool"
      },
      {
        "astId": 3349,
        "contract": "contracts/TradingCallbacks.sol:TradingCallbacks",
        "label": "storageT",
        "offset": 2,
        "slot": "0",
        "type": "t_contract(StorageInterface)9097"
      },
      {
        "astId": 3352,
        "contract": "contracts/TradingCallbacks.sol:TradingCallbacks",
        "label": "nftRewards",
        "offset": 0,
        "slot": "1",
        "type": "t_contract(NftRewardsInterfaceV6_3_1)8087"
      },
      {
        "astId": 3355,
        "contract": "contracts/TradingCallbacks.sol:TradingCallbacks",
        "label": "pairInfos",
        "offset": 0,
        "slot": "2",
        "type": "t_contract(PairInfosInterface)8299"
      },
      {
        "astId": 3358,
        "contract": "contracts/TradingCallbacks.sol:TradingCallbacks",
        "label": "referrals",
        "offset": 0,
        "slot": "3",
        "type": "t_contract(ReferralsInterface)8540"
      },
      {
        "astId": 3361,
        "contract": "contracts/TradingCallbacks.sol:TradingCallbacks",
        "label": "staking",
        "offset": 0,
        "slot": "4",
        "type": "t_contract(StakingInterface)8548"
      },
      {
        "astId": 3375,
        "contract": "contracts/TradingCallbacks.sol:TradingCallbacks",
        "label": "WETHVaultFeeP",
        "offset": 0,
        "slot": "5",
        "type": "t_uint256"
      },
      {
        "astId": 3377,
        "contract": "contracts/TradingCallbacks.sol:TradingCallbacks",
        "label": "lpFeeP",
        "offset": 0,
        "slot": "6",
        "type": "t_uint256"
      },
      {
        "astId": 3379,
        "contract": "contracts/TradingCallbacks.sol:TradingCallbacks",
        "label": "sssFeeP",
        "offset": 0,
        "slot": "7",
        "type": "t_uint256"
      },
      {
        "astId": 3382,
        "contract": "contracts/TradingCallbacks.sol:TradingCallbacks",
        "label": "vaultFeeP",
        "offset": 0,
        "slot": "8",
        "type": "t_uint256"
      },
      {
        "astId": 3385,
        "contract": "contracts/TradingCallbacks.sol:TradingCallbacks",
        "label": "liquidatorFeeP",
        "offset": 0,
        "slot": "9",
        "type": "t_uint256"
      },
      {
        "astId": 3388,
        "contract": "contracts/TradingCallbacks.sol:TradingCallbacks",
        "label": "liquidationFeeP",
        "offset": 0,
        "slot": "10",
        "type": "t_uint256"
      },
      {
        "astId": 3391,
        "contract": "contracts/TradingCallbacks.sol:TradingCallbacks",
        "label": "parLiquidationFeeP",
        "offset": 0,
        "slot": "11",
        "type": "t_uint256"
      },
      {
        "astId": 3393,
        "contract": "contracts/TradingCallbacks.sol:TradingCallbacks",
        "label": "openingFeeP",
        "offset": 0,
        "slot": "12",
        "type": "t_uint256"
      },
      {
        "astId": 3395,
        "contract": "contracts/TradingCallbacks.sol:TradingCallbacks",
        "label": "closingFeeP",
        "offset": 0,
        "slot": "13",
        "type": "t_uint256"
      },
      {
        "astId": 3397,
        "contract": "contracts/TradingCallbacks.sol:TradingCallbacks",
        "label": "isPaused",
        "offset": 0,
        "slot": "14",
        "type": "t_bool"
      },
      {
        "astId": 3399,
        "contract": "contracts/TradingCallbacks.sol:TradingCallbacks",
        "label": "isDone",
        "offset": 1,
        "slot": "14",
        "type": "t_bool"
      },
      {
        "astId": 3401,
        "contract": "contracts/TradingCallbacks.sol:TradingCallbacks",
        "label": "canExecuteTimeout",
        "offset": 0,
        "slot": "15",
        "type": "t_uint256"
      },
      {
        "astId": 3413,
        "contract": "contracts/TradingCallbacks.sol:TradingCallbacks",
        "label": "tradeLastUpdated",
        "offset": 0,
        "slot": "16",
        "type": "t_mapping(t_address,t_mapping(t_uint256,t_mapping(t_uint256,t_mapping(t_enum(TradeType)3568,t_struct(LastUpdated)3522_storage))))"
      },
      {
        "astId": 3416,
        "contract": "contracts/TradingCallbacks.sol:TradingCallbacks",
        "label": "borrowingFees",
        "offset": 0,
        "slot": "17",
        "type": "t_contract(BorrowingFeesInterface)7697"
      },
      {
        "astId": 3420,
        "contract": "contracts/TradingCallbacks.sol:TradingCallbacks",
        "label": "pairMaxLeverage",
        "offset": 0,
        "slot": "18",
        "type": "t_mapping(t_uint256,t_uint256)"
      },
      {
        "astId": 3432,
        "contract": "contracts/TradingCallbacks.sol:TradingCallbacks",
        "label": "tradeData",
        "offset": 0,
        "slot": "19",
        "type": "t_mapping(t_address,t_mapping(t_uint256,t_mapping(t_uint256,t_mapping(t_enum(TradeType)3568,t_struct(TradeData)3527_storage))))"
      }
    ],
    "types": {
      "t_address": {
        "encoding": "inplace",
        "label": "address",
        "numberOfBytes": "20"
      },
      "t_bool": {
        "encoding": "inplace",
        "label": "bool",
        "numberOfBytes": "1"
      },
      "t_contract(BorrowingFeesInterface)7697": {
        "encoding": "inplace",
        "label": "contract BorrowingFeesInterface",
        "numberOfBytes": "20"
      },
      "t_contract(NftRewardsInterfaceV6_3_1)8087": {
        "encoding": "inplace",
        "label": "contract NftRewardsInterfaceV6_3_1",
        "numberOfBytes": "20"
      },
      "t_contract(PairInfosInterface)8299": {
        "encoding": "inplace",
        "label": "contract PairInfosInterface",
        "numberOfBytes": "20"
      },
      "t_contract(ReferralsInterface)8540": {
        "encoding": "inplace",
        "label": "contract ReferralsInterface",
        "numberOfBytes": "20"
      },
      "t_contract(StakingInterface)8548": {
        "encoding": "inplace",
        "label": "contract StakingInterface",
        "numberOfBytes": "20"
      },
      "t_contract(StorageInterface)9097": {
        "encoding": "inplace",
        "label": "contract StorageInterface",
        "numberOfBytes": "20"
      },
      "t_enum(TradeType)3568": {
        "encoding": "inplace",
        "label": "enum TradingCallbacks.TradeType",
        "numberOfBytes": "1"
      },
      "t_mapping(t_address,t_mapping(t_uint256,t_mapping(t_uint256,t_mapping(t_enum(TradeType)3568,t_struct(LastUpdated)3522_storage))))": {
        "encoding": "mapping",
        "key": "t_address",
        "label": "mapping(address => mapping(uint256 => mapping(uint256 => mapping(enum TradingCallbacks.TradeType => struct TradingCallbacks.LastUpdated))))",
        "numberOfBytes": "32",
        "value": "t_mapping(t_uint256,t_mapping(t_uint256,t_mapping(t_enum(TradeType)3568,t_struct(LastUpdated)3522_storage)))"
      },
      "t_mapping(t_address,t_mapping(t_uint256,t_mapping(t_uint256,t_mapping(t_enum(TradeType)3568,t_struct(TradeData)3527_storage))))": {
        "encoding": "mapping",
        "key": "t_address",
        "label": "mapping(address => mapping(uint256 => mapping(uint256 => mapping(enum TradingCallbacks.TradeType => struct TradingCallbacks.TradeData))))",
        "numberOfBytes": "32",
        "value": "t_mapping(t_uint256,t_mapping(t_uint256,t_mapping(t_enum(TradeType)3568,t_struct(TradeData)3527_storage)))"
      },
      "t_mapping(t_enum(TradeType)3568,t_struct(LastUpdated)3522_storage)": {
        "encoding": "mapping",
        "key": "t_enum(TradeType)3568",
        "label": "mapping(enum TradingCallbacks.TradeType => struct TradingCallbacks.LastUpdated)",
        "numberOfBytes": "32",
        "value": "t_struct(LastUpdated)3522_storage"
      },
      "t_mapping(t_enum(TradeType)3568,t_struct(TradeData)3527_storage)": {
        "encoding": "mapping",
        "key": "t_enum(TradeType)3568",
        "label": "mapping(enum TradingCallbacks.TradeType => struct TradingCallbacks.TradeData)",
        "numberOfBytes": "32",
        "value": "t_struct(TradeData)3527_storage"
      },
      "t_mapping(t_uint256,t_mapping(t_enum(TradeType)3568,t_struct(LastUpdated)3522_storage))": {
        "encoding": "mapping",
        "key": "t_uint256",
        "label": "mapping(uint256 => mapping(enum TradingCallbacks.TradeType => struct TradingCallbacks.LastUpdated))",
        "numberOfBytes": "32",
        "value": "t_mapping(t_enum(TradeType)3568,t_struct(LastUpdated)3522_storage)"
      },
      "t_mapping(t_uint256,t_mapping(t_enum(TradeType)3568,t_struct(TradeData)3527_storage))": {
        "encoding": "mapping",
        "key": "t_uint256",
        "label": "mapping(uint256 => mapping(enum TradingCallbacks.TradeType => struct TradingCallbacks.TradeData))",
        "numberOfBytes": "32",
        "value": "t_mapping(t_enum(TradeType)3568,t_struct(TradeData)3527_storage)"
      },
      "t_mapping(t_uint256,t_mapping(t_uint256,t_mapping(t_enum(TradeType)3568,t_struct(LastUpdated)3522_storage)))": {
        "encoding": "mapping",
        "key": "t_uint256",
        "label": "mapping(uint256 => mapping(uint256 => mapping(enum TradingCallbacks.TradeType => struct TradingCallbacks.LastUpdated)))",
        "numberOfBytes": "32",
        "value": "t_mapping(t_uint256,t_mapping(t_enum(TradeType)3568,t_struct(LastUpdated)3522_storage))"
      },
      "t_mapping(t_uint256,t_mapping(t_uint256,t_mapping(t_enum(TradeType)3568,t_struct(TradeData)3527_storage)))": {
        "encoding": "mapping",
        "key": "t_uint256",
        "label": "mapping(uint256 => mapping(uint256 => mapping(enum TradingCallbacks.TradeType => struct TradingCallbacks.TradeData)))",
        "numberOfBytes": "32",
        "value": "t_mapping(t_uint256,t_mapping(t_enum(TradeType)3568,t_struct(TradeData)3527_storage))"
      },
      "t_mapping(t_uint256,t_uint256)": {
        "encoding": "mapping",
        "key": "t_uint256",
        "label": "mapping(uint256 => uint256)",
        "numberOfBytes": "32",
        "value": "t_uint256"
      },
      "t_struct(LastUpdated)3522_storage": {
        "encoding": "inplace",
        "label": "struct TradingCallbacks.LastUpdated",
        "members": [
          {
            "astId": 3515,
            "contract": "contracts/TradingCallbacks.sol:TradingCallbacks",
            "label": "tp",
            "offset": 0,
            "slot": "0",
            "type": "t_uint32"
          },
          {
            "astId": 3517,
            "contract": "contracts/TradingCallbacks.sol:TradingCallbacks",
            "label": "sl",
            "offset": 4,
            "slot": "0",
            "type": "t_uint32"
          },
          {
            "astId": 3519,
            "contract": "contracts/TradingCallbacks.sol:TradingCallbacks",
            "label": "limit",
            "offset": 8,
            "slot": "0",
            "type": "t_uint32"
          },
          {
            "astId": 3521,
            "contract": "contracts/TradingCallbacks.sol:TradingCallbacks",
            "label": "created",
            "offset": 12,
            "slot": "0",
            "type": "t_uint32"
          }
        ],
        "numberOfBytes": "32"
      },
      "t_struct(TradeData)3527_storage": {
        "encoding": "inplace",
        "label": "struct TradingCallbacks.TradeData",
        "members": [
          {
            "astId": 3524,
            "contract": "contracts/TradingCallbacks.sol:TradingCallbacks",
            "label": "maxSlippageP",
            "offset": 0,
            "slot": "0",
            "type": "t_uint40"
          },
          {
            "astId": 3526,
            "contract": "contracts/TradingCallbacks.sol:TradingCallbacks",
            "label": "_placeholder",
            "offset": 5,
            "slot": "0",
            "type": "t_uint216"
          }
        ],
        "numberOfBytes": "32"
      },
      "t_uint216": {
        "encoding": "inplace",
        "label": "uint216",
        "numberOfBytes": "27"
      },
      "t_uint256": {
        "encoding": "inplace",
        "label": "uint256",
        "numberOfBytes": "32"
      },
      "t_uint32": {
        "encoding": "inplace",
        "label": "uint32",
        "numberOfBytes": "4"
      },
      "t_uint40": {
        "encoding": "inplace",
        "label": "uint40",
        "numberOfBytes": "5"
      },
      "t_uint8": {
        "encoding": "inplace",
        "label": "uint8",
        "numberOfBytes": "1"
      }
    }
  }
}