{
  "address": "0xD13E9f1BeBFe1A60d6fd132a08d945D3B5cB4d4A",
  "abi": [
    {
      "inputs": [],
      "name": "Forbidden",
      "type": "error"
    },
    {
      "inputs": [],
      "name": "WrongParams",
      "type": "error"
    },
    {
      "anonymous": false,
      "inputs": [
        {
          "indexed": true,
          "internalType": "address",
          "name": "trader",
          "type": "address"
        },
        {
          "indexed": false,
          "internalType": "uint256",
          "name": "tradeValueWETH",
          "type": "uint256"
        },
        {
          "indexed": false,
          "internalType": "uint256",
          "name": "feeValueWETH",
          "type": "uint256"
        }
      ],
      "name": "BorrowingFeeCharged",
      "type": "event"
    },
    {
      "anonymous": false,
      "inputs": [
        {
          "indexed": false,
          "internalType": "uint256",
          "name": "newValue",
          "type": "uint256"
        }
      ],
      "name": "CanExecuteTimeoutUpdated",
      "type": "event"
    },
    {
      "anonymous": false,
      "inputs": [
        {
          "indexed": true,
          "internalType": "address",
          "name": "trader",
          "type": "address"
        },
        {
          "indexed": false,
          "internalType": "uint256",
          "name": "fee",
          "type": "uint256"
        }
      ],
      "name": "ClosigFeeDeduced",
      "type": "event"
    },
    {
      "anonymous": false,
      "inputs": [
        {
          "indexed": false,
          "internalType": "uint256",
          "name": "WETHVaultFeeP",
          "type": "uint256"
        },
        {
          "indexed": false,
          "internalType": "uint256",
          "name": "lpFeeP",
          "type": "uint256"
        },
        {
          "indexed": false,
          "internalType": "uint256",
          "name": "sssFeeP",
          "type": "uint256"
        }
      ],
      "name": "ClosingFeeSharesPUpdated",
      "type": "event"
    },
    {
      "anonymous": false,
      "inputs": [
        {
          "indexed": true,
          "internalType": "address",
          "name": "trader",
          "type": "address"
        },
        {
          "indexed": false,
          "internalType": "uint256",
          "name": "valueWETH",
          "type": "uint256"
        }
      ],
      "name": "DevGovFeeCharged",
      "type": "event"
    },
    {
      "anonymous": false,
      "inputs": [
        {
          "indexed": false,
          "internalType": "bool",
          "name": "done",
          "type": "bool"
        }
      ],
      "name": "Done",
      "type": "event"
    },
    {
      "anonymous": false,
      "inputs": [
        {
          "indexed": false,
          "internalType": "uint8",
          "name": "version",
          "type": "uint8"
        }
      ],
      "name": "Initialized",
      "type": "event"
    },
    {
      "anonymous": false,
      "inputs": [
        {
          "indexed": true,
          "internalType": "uint256",
          "name": "orderId",
          "type": "uint256"
        },
        {
          "indexed": false,
          "internalType": "uint256",
          "name": "limitIndex",
          "type": "uint256"
        },
        {
          "components": [
            {
              "internalType": "address",
              "name": "trader",
              "type": "address"
            },
            {
              "internalType": "uint256",
              "name": "pairIndex",
              "type": "uint256"
            },
            {
              "internalType": "uint256",
              "name": "index",
              "type": "uint256"
            },
            {
              "internalType": "uint256",
              "name": "initialPosToken",
              "type": "uint256"
            },
            {
              "internalType": "uint256",
              "name": "positionSizeWETH",
              "type": "uint256"
            },
            {
              "internalType": "uint256",
              "name": "openPrice",
              "type": "uint256"
            },
            {
              "internalType": "bool",
              "name": "buy",
              "type": "bool"
            },
            {
              "internalType": "uint256",
              "name": "leverage",
              "type": "uint256"
            },
            {
              "internalType": "uint256",
              "name": "tp",
              "type": "uint256"
            },
            {
              "internalType": "uint256",
              "name": "sl",
              "type": "uint256"
            }
          ],
          "indexed": false,
          "internalType": "struct StorageInterface.Trade",
          "name": "t",
          "type": "tuple"
        },
        {
          "indexed": true,
          "internalType": "address",
          "name": "nftHolder",
          "type": "address"
        },
        {
          "indexed": false,
          "internalType": "enum StorageInterface.LimitOrder",
          "name": "orderType",
          "type": "uint8"
        },
        {
          "indexed": false,
          "internalType": "uint256",
          "name": "price",
          "type": "uint256"
        },
        {
          "indexed": false,
          "internalType": "uint256",
          "name": "priceImpactP",
          "type": "uint256"
        },
        {
          "indexed": false,
          "internalType": "uint256",
          "name": "positionSizeWETH",
          "type": "uint256"
        },
        {
          "indexed": false,
          "internalType": "int256",
          "name": "percentProfit",
          "type": "int256"
        },
        {
          "indexed": false,
          "internalType": "uint256",
          "name": "WETHSentToTrader",
          "type": "uint256"
        },
        {
          "indexed": false,
          "internalType": "bool",
          "name": "exactExecution",
          "type": "bool"
        }
      ],
      "name": "LimitExecuted",
      "type": "event"
    },
    {
      "anonymous": false,
      "inputs": [
        {
          "indexed": true,
          "internalType": "uint256",
          "name": "orderId",
          "type": "uint256"
        },
        {
          "components": [
            {
              "internalType": "address",
              "name": "trader",
              "type": "address"
            },
            {
              "internalType": "uint256",
              "name": "pairIndex",
              "type": "uint256"
            },
            {
              "internalType": "uint256",
              "name": "index",
              "type": "uint256"
            },
            {
              "internalType": "uint256",
              "name": "initialPosToken",
              "type": "uint256"
            },
            {
              "internalType": "uint256",
              "name": "positionSizeWETH",
              "type": "uint256"
            },
            {
              "internalType": "uint256",
              "name": "openPrice",
              "type": "uint256"
            },
            {
              "internalType": "bool",
              "name": "buy",
              "type": "bool"
            },
            {
              "internalType": "uint256",
              "name": "leverage",
              "type": "uint256"
            },
            {
              "internalType": "uint256",
              "name": "tp",
              "type": "uint256"
            },
            {
              "internalType": "uint256",
              "name": "sl",
              "type": "uint256"
            }
          ],
          "indexed": false,
          "internalType": "struct StorageInterface.Trade",
          "name": "t",
          "type": "tuple"
        },
        {
          "indexed": false,
          "internalType": "uint256",
          "name": "liqPrice",
          "type": "uint256"
        },
        {
          "indexed": false,
          "internalType": "bool",
          "name": "isPartial",
          "type": "bool"
        }
      ],
      "name": "LiquidationExecuted",
      "type": "event"
    },
    {
      "anonymous": false,
      "inputs": [
        {
          "indexed": false,
          "internalType": "uint256",
          "name": "_vaultFee",
          "type": "uint256"
        },
        {
          "indexed": false,
          "internalType": "uint256",
          "name": "_liquidatorFee",
          "type": "uint256"
        },
        {
          "indexed": false,
          "internalType": "address",
          "name": "liquidator",
          "type": "address"
        }
      ],
      "name": "LiquidationFeeDeduced",
      "type": "event"
    },
    {
      "anonymous": false,
      "inputs": [
        {
          "indexed": true,
          "internalType": "uint256",
          "name": "orderId",
          "type": "uint256"
        },
        {
          "indexed": true,
          "internalType": "address",
          "name": "trader",
          "type": "address"
        },
        {
          "indexed": true,
          "internalType": "uint256",
          "name": "pairIndex",
          "type": "uint256"
        },
        {
          "indexed": false,
          "internalType": "uint256",
          "name": "index",
          "type": "uint256"
        },
        {
          "indexed": false,
          "internalType": "enum TradingCallbacks.CancelReason",
          "name": "cancelReason",
          "type": "uint8"
        }
      ],
      "name": "MarketCloseCanceled",
      "type": "event"
    },
    {
      "anonymous": false,
      "inputs": [
        {
          "indexed": true,
          "internalType": "uint256",
          "name": "orderId",
          "type": "uint256"
        },
        {
          "components": [
            {
              "internalType": "address",
              "name": "trader",
              "type": "address"
            },
            {
              "internalType": "uint256",
              "name": "pairIndex",
              "type": "uint256"
            },
            {
              "internalType": "uint256",
              "name": "index",
              "type": "uint256"
            },
            {
              "internalType": "uint256",
              "name": "initialPosToken",
              "type": "uint256"
            },
            {
              "internalType": "uint256",
              "name": "positionSizeWETH",
              "type": "uint256"
            },
            {
              "internalType": "uint256",
              "name": "openPrice",
              "type": "uint256"
            },
            {
              "internalType": "bool",
              "name": "buy",
              "type": "bool"
            },
            {
              "internalType": "uint256",
              "name": "leverage",
              "type": "uint256"
            },
            {
              "internalType": "uint256",
              "name": "tp",
              "type": "uint256"
            },
            {
              "internalType": "uint256",
              "name": "sl",
              "type": "uint256"
            }
          ],
          "indexed": false,
          "internalType": "struct StorageInterface.Trade",
          "name": "t",
          "type": "tuple"
        },
        {
          "indexed": false,
          "internalType": "bool",
          "name": "open",
          "type": "bool"
        },
        {
          "indexed": false,
          "internalType": "uint256",
          "name": "price",
          "type": "uint256"
        },
        {
          "indexed": false,
          "internalType": "uint256",
          "name": "priceImpactP",
          "type": "uint256"
        },
        {
          "indexed": false,
          "internalType": "uint256",
          "name": "positionSizeWETH",
          "type": "uint256"
        },
        {
          "indexed": false,
          "internalType": "int256",
          "name": "percentProfit",
          "type": "int256"
        },
        {
          "indexed": false,
          "internalType": "uint256",
          "name": "WETHSentToTrader",
          "type": "uint256"
        }
      ],
      "name": "MarketExecuted",
      "type": "event"
    },
    {
      "anonymous": false,
      "inputs": [
        {
          "indexed": true,
          "internalType": "uint256",
          "name": "orderId",
          "type": "uint256"
        },
        {
          "indexed": true,
          "internalType": "address",
          "name": "trader",
          "type": "address"
        },
        {
          "indexed": true,
          "internalType": "uint256",
          "name": "pairIndex",
          "type": "uint256"
        },
        {
          "indexed": false,
          "internalType": "enum TradingCallbacks.CancelReason",
          "name": "cancelReason",
          "type": "uint8"
        }
      ],
      "name": "MarketOpenCanceled",
      "type": "event"
    },
    {
      "anonymous": false,
      "inputs": [
        {
          "indexed": true,
          "internalType": "address",
          "name": "trader",
          "type": "address"
        },
        {
          "indexed": false,
          "internalType": "uint256",
          "name": "valueWETH",
          "type": "uint256"
        }
      ],
      "name": "NftBotFeeCharged",
      "type": "event"
    },
    {
      "anonymous": false,
      "inputs": [
        {
          "indexed": true,
          "internalType": "uint256",
          "name": "orderId",
          "type": "uint256"
        },
        {
          "indexed": true,
          "internalType": "address",
          "name": "nftHolder",
          "type": "address"
        },
        {
          "indexed": false,
          "internalType": "enum StorageInterface.LimitOrder",
          "name": "orderType",
          "type": "uint8"
        },
        {
          "indexed": false,
          "internalType": "enum TradingCallbacks.CancelReason",
          "name": "cancelReason",
          "type": "uint8"
        }
      ],
      "name": "NftOrderCanceled",
      "type": "event"
    },
    {
      "anonymous": false,
      "inputs": [
        {
          "indexed": true,
          "internalType": "address",
          "name": "trader",
          "type": "address"
        },
        {
          "indexed": false,
          "internalType": "uint256",
          "name": "fee",
          "type": "uint256"
        }
      ],
      "name": "OpeningFeeDeduced",
      "type": "event"
    },
    {
      "anonymous": false,
      "inputs": [
        {
          "indexed": true,
          "internalType": "uint256",
          "name": "pairIndex",
          "type": "uint256"
        },
        {
          "indexed": false,
          "internalType": "uint256",
          "name": "maxLeverage",
          "type": "uint256"
        }
      ],
      "name": "PairMaxLeverageUpdated",
      "type": "event"
    },
    {
      "anonymous": false,
      "inputs": [
        {
          "indexed": false,
          "internalType": "uint256",
          "name": "_vaultFee",
          "type": "uint256"
        },
        {
          "indexed": false,
          "internalType": "uint256",
          "name": "_liquidatorFee",
          "type": "uint256"
        },
        {
          "indexed": false,
          "internalType": "address",
          "name": "liquidator",
          "type": "address"
        }
      ],
      "name": "ParLiquidationFeeDeduced",
      "type": "event"
    },
    {
      "anonymous": false,
      "inputs": [
        {
          "indexed": false,
          "internalType": "bool",
          "name": "paused",
          "type": "bool"
        }
      ],
      "name": "Pause",
      "type": "event"
    },
    {
      "anonymous": false,
      "inputs": [
        {
          "indexed": true,
          "internalType": "address",
          "name": "trader",
          "type": "address"
        },
        {
          "indexed": false,
          "internalType": "uint256",
          "name": "valueWETH",
          "type": "uint256"
        }
      ],
      "name": "ReferralFeeCharged",
      "type": "event"
    },
    {
      "anonymous": false,
      "inputs": [
        {
          "indexed": true,
          "internalType": "address",
          "name": "trader",
          "type": "address"
        },
        {
          "indexed": false,
          "internalType": "uint256",
          "name": "valueWETH",
          "type": "uint256"
        }
      ],
      "name": "SssFeeCharged",
      "type": "event"
    },
    {
      "anonymous": false,
      "inputs": [
        {
          "indexed": false,
          "internalType": "uint256",
          "name": "_closingFeeP",
          "type": "uint256"
        }
      ],
      "name": "UpdatedClosingFeeP",
      "type": "event"
    },
    {
      "anonymous": false,
      "inputs": [
        {
          "indexed": false,
          "internalType": "uint256",
          "name": "_openingFeeP",
          "type": "uint256"
        }
      ],
      "name": "UpdatedOpeningFeeP",
      "type": "event"
    },
    {
      "anonymous": false,
      "inputs": [
        {
          "indexed": true,
          "internalType": "address",
          "name": "trader",
          "type": "address"
        },
        {
          "indexed": false,
          "internalType": "uint256",
          "name": "valueWETH",
          "type": "uint256"
        }
      ],
      "name": "VaultRewardDistributed",
      "type": "event"
    },
    {
      "anonymous": false,
      "inputs": [
        {
          "indexed": true,
          "internalType": "address",
          "name": "trader",
          "type": "address"
        },
        {
          "indexed": false,
          "internalType": "uint256",
          "name": "valueWETH",
          "type": "uint256"
        }
      ],
      "name": "WETHVaultFeeCharged",
      "type": "event"
    },
    {
      "inputs": [],
      "name": "WETHVaultFeeP",
      "outputs": [
        {
          "internalType": "uint256",
          "name": "",
          "type": "uint256"
        }
      ],
      "stateMutability": "view",
      "type": "function"
    },
    {
      "inputs": [],
      "name": "borrowingFees",
      "outputs": [
        {
          "internalType": "contract BorrowingFeesInterface",
          "name": "",
          "type": "address"
        }
      ],
      "stateMutability": "view",
      "type": "function"
    },
    {
      "inputs": [],
      "name": "canExecuteTimeout",
      "outputs": [
        {
          "internalType": "uint256",
          "name": "",
          "type": "uint256"
        }
      ],
      "stateMutability": "view",
      "type": "function"
    },
    {
      "inputs": [
        {
          "components": [
            {
              "internalType": "uint256",
              "name": "orderId",
              "type": "uint256"
            },
            {
              "internalType": "uint256",
              "name": "price",
              "type": "uint256"
            },
            {
              "internalType": "uint256",
              "name": "spreadP",
              "type": "uint256"
            },
            {
              "internalType": "uint256",
              "name": "open",
              "type": "uint256"
            },
            {
              "internalType": "uint256",
              "name": "high",
              "type": "uint256"
            },
            {
              "internalType": "uint256",
              "name": "low",
              "type": "uint256"
            }
          ],
          "internalType": "struct TradingCallbacks.AggregatorAnswer",
          "name": "a",
          "type": "tuple"
        },
        {
          "components": [
            {
              "components": [
                {
                  "internalType": "address",
                  "name": "trader",
                  "type": "address"
                },
                {
                  "internalType": "uint256",
                  "name": "pairIndex",
                  "type": "uint256"
                },
                {
                  "internalType": "uint256",
                  "name": "index",
                  "type": "uint256"
                },
                {
                  "internalType": "uint256",
                  "name": "initialPosToken",
                  "type": "uint256"
                },
                {
                  "internalType": "uint256",
                  "name": "positionSizeWETH",
                  "type": "uint256"
                },
                {
                  "internalType": "uint256",
                  "name": "openPrice",
                  "type": "uint256"
                },
                {
                  "internalType": "bool",
                  "name": "buy",
                  "type": "bool"
                },
                {
                  "internalType": "uint256",
                  "name": "leverage",
                  "type": "uint256"
                },
                {
                  "internalType": "uint256",
                  "name": "tp",
                  "type": "uint256"
                },
                {
                  "internalType": "uint256",
                  "name": "sl",
                  "type": "uint256"
                }
              ],
              "internalType": "struct StorageInterface.Trade",
              "name": "trade",
              "type": "tuple"
            },
            {
              "internalType": "uint256",
              "name": "block",
              "type": "uint256"
            },
            {
              "internalType": "uint256",
              "name": "wantedPrice",
              "type": "uint256"
            },
            {
              "internalType": "uint256",
              "name": "slippageP",
              "type": "uint256"
            },
            {
              "internalType": "uint256",
              "name": "spreadReductionP",
              "type": "uint256"
            },
            {
              "internalType": "uint256",
              "name": "tokenId",
              "type": "uint256"
            }
          ],
          "internalType": "struct StorageInterface.PendingMarketOrder",
          "name": "o",
          "type": "tuple"
        }
      ],
      "name": "closeTradeMarketCallback",
      "outputs": [],
      "stateMutability": "nonpayable",
      "type": "function"
    },
    {
      "inputs": [],
      "name": "closingFeeP",
      "outputs": [
        {
          "internalType": "uint256",
          "name": "",
          "type": "uint256"
        }
      ],
      "stateMutability": "view",
      "type": "function"
    },
    {
      "inputs": [],
      "name": "done",
      "outputs": [],
      "stateMutability": "nonpayable",
      "type": "function"
    },
    {
      "inputs": [
        {
          "components": [
            {
              "internalType": "uint256",
              "name": "orderId",
              "type": "uint256"
            },
            {
              "internalType": "uint256",
              "name": "price",
              "type": "uint256"
            },
            {
              "internalType": "uint256",
              "name": "spreadP",
              "type": "uint256"
            },
            {
              "internalType": "uint256",
              "name": "open",
              "type": "uint256"
            },
            {
              "internalType": "uint256",
              "name": "high",
              "type": "uint256"
            },
            {
              "internalType": "uint256",
              "name": "low",
              "type": "uint256"
            }
          ],
          "internalType": "struct TradingCallbacks.AggregatorAnswer",
          "name": "a",
          "type": "tuple"
        },
        {
          "components": [
            {
              "internalType": "address",
              "name": "nftHolder",
              "type": "address"
            },
            {
              "internalType": "uint256",
              "name": "nftId",
              "type": "uint256"
            },
            {
              "internalType": "address",
              "name": "trader",
              "type": "address"
            },
            {
              "internalType": "uint256",
              "name": "pairIndex",
              "type": "uint256"
            },
            {
              "internalType": "uint256",
              "name": "index",
              "type": "uint256"
            },
            {
              "internalType": "enum StorageInterface.LimitOrder",
              "name": "orderType",
              "type": "uint8"
            }
          ],
          "internalType": "struct StorageInterface.PendingNftOrder",
          "name": "o",
          "type": "tuple"
        }
      ],
      "name": "executeNftCloseOrderCallback",
      "outputs": [],
      "stateMutability": "nonpayable",
      "type": "function"
    },
    {
      "inputs": [],
      "name": "getAllPairsMaxLeverage",
      "outputs": [
        {
          "internalType": "uint256[]",
          "name": "",
          "type": "uint256[]"
        }
      ],
      "stateMutability": "view",
      "type": "function"
    },
    {
      "inputs": [
        {
          "internalType": "address",
          "name": "trader",
          "type": "address"
        },
        {
          "internalType": "uint256",
          "name": "pairIndex",
          "type": "uint256"
        },
        {
          "internalType": "uint256",
          "name": "index",
          "type": "uint256"
        }
      ],
      "name": "getTradePnl",
      "outputs": [
        {
          "internalType": "int256",
          "name": "pnl",
          "type": "int256"
        }
      ],
      "stateMutability": "view",
      "type": "function"
    },
    {
      "inputs": [],
      "name": "giveApproval",
      "outputs": [],
      "stateMutability": "nonpayable",
      "type": "function"
    },
    {
      "inputs": [
        {
          "internalType": "contract StorageInterface",
          "name": "_storageT",
          "type": "address"
        },
        {
          "internalType": "contract NftRewardsInterfaceV6_3_1",
          "name": "_nftRewards",
          "type": "address"
        },
        {
          "internalType": "contract PairInfosInterface",
          "name": "_pairInfos",
          "type": "address"
        },
        {
          "internalType": "contract ReferralsInterface",
          "name": "_referrals",
          "type": "address"
        },
        {
          "internalType": "contract StakingInterface",
          "name": "_staking",
          "type": "address"
        },
        {
          "internalType": "contract BorrowingFeesInterface",
          "name": "_borrowingFees",
          "type": "address"
        },
        {
          "internalType": "address",
          "name": "vaultToApprove",
          "type": "address"
        },
        {
          "internalType": "uint256",
          "name": "_WETHVaultFeeP",
          "type": "uint256"
        },
        {
          "internalType": "uint256",
          "name": "_lpFeeP",
          "type": "uint256"
        },
        {
          "internalType": "uint256",
          "name": "_sssFeeP",
          "type": "uint256"
        },
        {
          "internalType": "uint256",
          "name": "_canExecuteTimeout",
          "type": "uint256"
        },
        {
          "components": [
            {
              "internalType": "uint256",
              "name": "_vaultFeeP",
              "type": "uint256"
            },
            {
              "internalType": "uint256",
              "name": "_liquidatorFeeP",
              "type": "uint256"
            },
            {
              "internalType": "uint256",
              "name": "_liquidationFeeP",
              "type": "uint256"
            },
            {
              "internalType": "uint256",
              "name": "_parLiquidationFeeP",
              "type": "uint256"
            },
            {
              "internalType": "uint256",
              "name": "_openingFeeP",
              "type": "uint256"
            },
            {
              "internalType": "uint256",
              "name": "_closingFeeP",
              "type": "uint256"
            }
          ],
          "internalType": "struct TradingCallbacks.feeConfig",
          "name": "data",
          "type": "tuple"
        }
      ],
      "name": "initialize",
      "outputs": [],
      "stateMutability": "nonpayable",
      "type": "function"
    },
    {
      "inputs": [],
      "name": "isDone",
      "outputs": [
        {
          "internalType": "bool",
          "name": "",
          "type": "bool"
        }
      ],
      "stateMutability": "view",
      "type": "function"
    },
    {
      "inputs": [],
      "name": "isPaused",
      "outputs": [
        {
          "internalType": "bool",
          "name": "",
          "type": "bool"
        }
      ],
      "stateMutability": "view",
      "type": "function"
    },
    {
      "inputs": [],
      "name": "liquidationFeeP",
      "outputs": [
        {
          "internalType": "uint256",
          "name": "",
          "type": "uint256"
        }
      ],
      "stateMutability": "view",
      "type": "function"
    },
    {
      "inputs": [],
      "name": "liquidatorFeeP",
      "outputs": [
        {
          "internalType": "uint256",
          "name": "",
          "type": "uint256"
        }
      ],
      "stateMutability": "view",
      "type": "function"
    },
    {
      "inputs": [],
      "name": "lpFeeP",
      "outputs": [
        {
          "internalType": "uint256",
          "name": "",
          "type": "uint256"
        }
      ],
      "stateMutability": "view",
      "type": "function"
    },
    {
      "inputs": [],
      "name": "nftRewards",
      "outputs": [
        {
          "internalType": "contract NftRewardsInterfaceV6_3_1",
          "name": "",
          "type": "address"
        }
      ],
      "stateMutability": "view",
      "type": "function"
    },
    {
      "inputs": [
        {
          "components": [
            {
              "internalType": "uint256",
              "name": "orderId",
              "type": "uint256"
            },
            {
              "internalType": "uint256",
              "name": "price",
              "type": "uint256"
            },
            {
              "internalType": "uint256",
              "name": "spreadP",
              "type": "uint256"
            },
            {
              "internalType": "uint256",
              "name": "open",
              "type": "uint256"
            },
            {
              "internalType": "uint256",
              "name": "high",
              "type": "uint256"
            },
            {
              "internalType": "uint256",
              "name": "low",
              "type": "uint256"
            }
          ],
          "internalType": "struct TradingCallbacks.AggregatorAnswer",
          "name": "a",
          "type": "tuple"
        },
        {
          "components": [
            {
              "components": [
                {
                  "internalType": "address",
                  "name": "trader",
                  "type": "address"
                },
                {
                  "internalType": "uint256",
                  "name": "pairIndex",
                  "type": "uint256"
                },
                {
                  "internalType": "uint256",
                  "name": "index",
                  "type": "uint256"
                },
                {
                  "internalType": "uint256",
                  "name": "initialPosToken",
                  "type": "uint256"
                },
                {
                  "internalType": "uint256",
                  "name": "positionSizeWETH",
                  "type": "uint256"
                },
                {
                  "internalType": "uint256",
                  "name": "openPrice",
                  "type": "uint256"
                },
                {
                  "internalType": "bool",
                  "name": "buy",
                  "type": "bool"
                },
                {
                  "internalType": "uint256",
                  "name": "leverage",
                  "type": "uint256"
                },
                {
                  "internalType": "uint256",
                  "name": "tp",
                  "type": "uint256"
                },
                {
                  "internalType": "uint256",
                  "name": "sl",
                  "type": "uint256"
                }
              ],
              "internalType": "struct StorageInterface.Trade",
              "name": "trade",
              "type": "tuple"
            },
            {
              "internalType": "uint256",
              "name": "block",
              "type": "uint256"
            },
            {
              "internalType": "uint256",
              "name": "wantedPrice",
              "type": "uint256"
            },
            {
              "internalType": "uint256",
              "name": "slippageP",
              "type": "uint256"
            },
            {
              "internalType": "uint256",
              "name": "spreadReductionP",
              "type": "uint256"
            },
            {
              "internalType": "uint256",
              "name": "tokenId",
              "type": "uint256"
            }
          ],
          "internalType": "struct StorageInterface.PendingMarketOrder",
          "name": "o",
          "type": "tuple"
        }
      ],
      "name": "openTradeMarketCallback",
      "outputs": [],
      "stateMutability": "nonpayable",
      "type": "function"
    },
    {
      "inputs": [],
      "name": "openingFeeP",
      "outputs": [
        {
          "internalType": "uint256",
          "name": "",
          "type": "uint256"
        }
      ],
      "stateMutability": "view",
      "type": "function"
    },
    {
      "inputs": [],
      "name": "pairInfos",
      "outputs": [
        {
          "internalType": "contract PairInfosInterface",
          "name": "",
          "type": "address"
        }
      ],
      "stateMutability": "view",
      "type": "function"
    },
    {
      "inputs": [
        {
          "internalType": "uint256",
          "name": "",
          "type": "uint256"
        }
      ],
      "name": "pairMaxLeverage",
      "outputs": [
        {
          "internalType": "uint256",
          "name": "",
          "type": "uint256"
        }
      ],
      "stateMutability": "view",
      "type": "function"
    },
    {
      "inputs": [],
      "name": "parLiquidationFeeP",
      "outputs": [
        {
          "internalType": "uint256",
          "name": "",
          "type": "uint256"
        }
      ],
      "stateMutability": "view",
      "type": "function"
    },
    {
      "inputs": [],
      "name": "pause",
      "outputs": [],
      "stateMutability": "nonpayable",
      "type": "function"
    },
    {
      "inputs": [],
      "name": "referrals",
      "outputs": [
        {
          "internalType": "contract ReferralsInterface",
          "name": "",
          "type": "address"
        }
      ],
      "stateMutability": "view",
      "type": "function"
    },
    {
      "inputs": [
        {
          "internalType": "uint256",
          "name": "_canExecuteTimeout",
          "type": "uint256"
        }
      ],
      "name": "setCanExecuteTimeout",
      "outputs": [],
      "stateMutability": "nonpayable",
      "type": "function"
    },
    {
      "inputs": [
        {
          "internalType": "uint256",
          "name": "_closingFeeP",
          "type": "uint256"
        }
      ],
      "name": "setClosingFee",
      "outputs": [],
      "stateMutability": "nonpayable",
      "type": "function"
    },
    {
      "inputs": [
        {
          "internalType": "uint256",
          "name": "_WETHVaultFeeP",
          "type": "uint256"
        },
        {
          "internalType": "uint256",
          "name": "_lpFeeP",
          "type": "uint256"
        },
        {
          "internalType": "uint256",
          "name": "_sssFeeP",
          "type": "uint256"
        }
      ],
      "name": "setClosingFeeSharesP",
      "outputs": [],
      "stateMutability": "nonpayable",
      "type": "function"
    },
    {
      "inputs": [
        {
          "internalType": "uint256",
          "name": "_feeP",
          "type": "uint256"
        }
      ],
      "name": "setLiquidationFeeP",
      "outputs": [],
      "stateMutability": "nonpayable",
      "type": "function"
    },
    {
      "inputs": [
        {
          "internalType": "uint256",
          "name": "_feeP",
          "type": "uint256"
        }
      ],
      "name": "setLiquidatorFeeP",
      "outputs": [],
      "stateMutability": "nonpayable",
      "type": "function"
    },
    {
      "inputs": [
        {
          "internalType": "uint256",
          "name": "_openingFeeP",
          "type": "uint256"
        }
      ],
      "name": "setOpeningFee",
      "outputs": [],
      "stateMutability": "nonpayable",
      "type": "function"
    },
    {
      "inputs": [
        {
          "internalType": "uint256",
          "name": "pairIndex",
          "type": "uint256"
        },
        {
          "internalType": "uint256",
          "name": "maxLeverage",
          "type": "uint256"
        }
      ],
      "name": "setPairMaxLeverage",
      "outputs": [],
      "stateMutability": "nonpayable",
      "type": "function"
    },
    {
      "inputs": [
        {
          "internalType": "uint256[]",
          "name": "indices",
          "type": "uint256[]"
        },
        {
          "internalType": "uint256[]",
          "name": "values",
          "type": "uint256[]"
        }
      ],
      "name": "setPairMaxLeverageArray",
      "outputs": [],
      "stateMutability": "nonpayable",
      "type": "function"
    },
    {
      "inputs": [
        {
          "internalType": "uint256",
          "name": "_feeP",
          "type": "uint256"
        }
      ],
      "name": "setParLiquidationFeeP",
      "outputs": [],
      "stateMutability": "nonpayable",
      "type": "function"
    },
    {
      "inputs": [
        {
          "components": [
            {
              "internalType": "address",
              "name": "trader",
              "type": "address"
            },
            {
              "internalType": "uint256",
              "name": "pairIndex",
              "type": "uint256"
            },
            {
              "internalType": "uint256",
              "name": "index",
              "type": "uint256"
            },
            {
              "internalType": "enum TradingCallbacks.TradeType",
              "name": "tradeType",
              "type": "uint8"
            }
          ],
          "internalType": "struct TradingCallbacks.SimplifiedTradeId",
          "name": "_id",
          "type": "tuple"
        },
        {
          "components": [
            {
              "internalType": "uint40",
              "name": "maxSlippageP",
              "type": "uint40"
            },
            {
              "internalType": "uint216",
              "name": "_placeholder",
              "type": "uint216"
            }
          ],
          "internalType": "struct TradingCallbacks.TradeData",
          "name": "_tradeData",
          "type": "tuple"
        }
      ],
      "name": "setTradeData",
      "outputs": [],
      "stateMutability": "nonpayable",
      "type": "function"
    },
    {
      "inputs": [
        {
          "components": [
            {
              "internalType": "address",
              "name": "trader",
              "type": "address"
            },
            {
              "internalType": "uint256",
              "name": "pairIndex",
              "type": "uint256"
            },
            {
              "internalType": "uint256",
              "name": "index",
              "type": "uint256"
            },
            {
              "internalType": "enum TradingCallbacks.TradeType",
              "name": "tradeType",
              "type": "uint8"
            }
          ],
          "internalType": "struct TradingCallbacks.SimplifiedTradeId",
          "name": "_id",
          "type": "tuple"
        },
        {
          "components": [
            {
              "internalType": "uint32",
              "name": "tp",
              "type": "uint32"
            },
            {
              "internalType": "uint32",
              "name": "sl",
              "type": "uint32"
            },
            {
              "internalType": "uint32",
              "name": "limit",
              "type": "uint32"
            },
            {
              "internalType": "uint32",
              "name": "created",
              "type": "uint32"
            }
          ],
          "internalType": "struct TradingCallbacks.LastUpdated",
          "name": "_lastUpdated",
          "type": "tuple"
        }
      ],
      "name": "setTradeLastUpdated",
      "outputs": [],
      "stateMutability": "nonpayable",
      "type": "function"
    },
    {
      "inputs": [
        {
          "internalType": "uint256",
          "name": "_feeP",
          "type": "uint256"
        }
      ],
      "name": "setVaultFeeP",
      "outputs": [],
      "stateMutability": "nonpayable",
      "type": "function"
    },
    {
      "inputs": [],
      "name": "sssFeeP",
      "outputs": [
        {
          "internalType": "uint256",
          "name": "",
          "type": "uint256"
        }
      ],
      "stateMutability": "view",
      "type": "function"
    },
    {
      "inputs": [],
      "name": "staking",
      "outputs": [
        {
          "internalType": "contract StakingInterface",
          "name": "",
          "type": "address"
        }
      ],
      "stateMutability": "view",
      "type": "function"
    },
    {
      "inputs": [],
      "name": "storageT",
      "outputs": [
        {
          "internalType": "contract StorageInterface",
          "name": "",
          "type": "address"
        }
      ],
      "stateMutability": "view",
      "type": "function"
    },
    {
      "inputs": [
        {
          "internalType": "address",
          "name": "",
          "type": "address"
        },
        {
          "internalType": "uint256",
          "name": "",
          "type": "uint256"
        },
        {
          "internalType": "uint256",
          "name": "",
          "type": "uint256"
        },
        {
          "internalType": "enum TradingCallbacks.TradeType",
          "name": "",
          "type": "uint8"
        }
      ],
      "name": "tradeData",
      "outputs": [
        {
          "internalType": "uint40",
          "name": "maxSlippageP",
          "type": "uint40"
        },
        {
          "internalType": "uint216",
          "name": "_placeholder",
          "type": "uint216"
        }
      ],
      "stateMutability": "view",
      "type": "function"
    },
    {
      "inputs": [
        {
          "internalType": "address",
          "name": "",
          "type": "address"
        },
        {
          "internalType": "uint256",
          "name": "",
          "type": "uint256"
        },
        {
          "internalType": "uint256",
          "name": "",
          "type": "uint256"
        },
        {
          "internalType": "enum TradingCallbacks.TradeType",
          "name": "",
          "type": "uint8"
        }
      ],
      "name": "tradeLastUpdated",
      "outputs": [
        {
          "internalType": "uint32",
          "name": "tp",
          "type": "uint32"
        },
        {
          "internalType": "uint32",
          "name": "sl",
          "type": "uint32"
        },
        {
          "internalType": "uint32",
          "name": "limit",
          "type": "uint32"
        },
        {
          "internalType": "uint32",
          "name": "created",
          "type": "uint32"
        }
      ],
      "stateMutability": "view",
      "type": "function"
    },
    {
      "inputs": [],
      "name": "vaultFeeP",
      "outputs": [
        {
          "internalType": "uint256",
          "name": "",
          "type": "uint256"
        }
      ],
      "stateMutability": "view",
      "type": "function"
    }
  ],
  "transactionHash": "0xd1467446367729f1bf3499a7d082eb45bc01e092f77e23fff7983bfdcf9134a8",
  "args": [],
  "numDeployments": 4,
  "solcInputHash": "f9e74ed46d9c3384910af870de48cf0a",
  "bytecode": "0x6080604052603260085560326009556005600a556003600b5534801561002457600080fd5b506153d3806100346000396000f3fe608060405234801561001057600080fd5b506004361061025d5760003560e01c80637bb6c11c116101465780639bd24d83116100c3578063c4493e3711610087578063c4493e37146105d3578063c68078b9146105dc578063c68365df146105ef578063d3dc7539146105f8578063eda1f5821461060b578063ef9fdb081461061e57600080fd5b80639bd24d8314610513578063a2ae5262146105a2578063ae8421e1146105ab578063b187bd26146105b3578063b3f2f4d6146105c057600080fd5b80638b2638781161010a5780638b263878146104b05780638c00bd5a146104b85780638f062227146104cb57806390b913f2146104ed57806397f030831461050057600080fd5b80637bb6c11c146104665780637da345d61461046f5780637e09ae8a146104825780638456cb5914610495578063863759941461049d57600080fd5b806331158155116101df57806348829122116101a357806348829122146104085780634cf088d91461041b578063531cc9651461042e5780635ad9f9931461044157806365122c6114610454578063676c51641461045d57600080fd5b8063311581551461034c57806337edb1381461035f5780633db99177146103745780633fda6c571461038757806346f93a631461039057600080fd5b80631a4200e8116102265780631a4200e8146102ea57806321c86196146102f3578063257dd85214610306578063281b693c146103195780632e905d6e1461033957600080fd5b8062e0fa89146102625780631346b0ff1461027757806313b06504146102a757806316fff074146102c8578063178623a7146102e1575b600080fd5b610275610270366004614717565b610627565b005b60025461028a906001600160a01b031681565b6040516001600160a01b0390911681526020015b60405180910390f35b6102ba6102b53660046147a8565b6106a5565b60405190815260200161029e565b60005461028a906201000090046001600160a01b031681565b6102ba60055481565b6102ba600b5481565b610275610301366004614874565b61099d565b61027561031436600461491f565b600b55565b6102ba61032736600461491f565b60126020526000908152604090205481565b61027561034736600461491f565b600855565b61027561035a3660046149a9565b610a58565b610367610c41565b60405161029e9190614abc565b61027561038236600461491f565b610d3f565b6102ba600c5481565b6103e361039e366004614b0f565b601360209081526000948552604080862082529385528385208152918452828420909152825290205464ffffffffff811690600160281b90046001600160d81b031682565b6040805164ffffffffff90931683526001600160d81b0390911660208301520161029e565b610275610416366004614b57565b610d83565b60045461028a906001600160a01b031681565b60115461028a906001600160a01b031681565b60015461028a906001600160a01b031681565b6102ba600a5481565b6102ba600f5481565b6102ba60075481565b61027561047d36600461491f565b600a55565b610275610490366004614b8d565b610d91565b610275610e99565b6102756104ab36600461491f565b610eef565b610275610f2c565b6102756104c636600461491f565b600955565b600e546104dd90610100900460ff1681565b604051901515815260200161029e565b6102756104fb3660046149a9565b61108e565b61027561050e366004614c41565b6113b6565b610572610521366004614b0f565b601060209081526000948552604080862082529385528385208152918452828420909152825290205463ffffffff80821691600160201b8104821691600160401b8204811691600160601b90041684565b6040805163ffffffff9586168152938516602085015291841691830191909152909116606082015260800161029e565b6102ba60095481565b61027561182a565b600e546104dd9060ff1681565b6102756105ce36600461491f565b61188a565b6102ba60085481565b6102756105ea366004614d0e565b6118e9565b6102ba60065481565b60035461028a906001600160a01b031681565b610275610619366004614d3a565b61197b565b6102ba600d5481565b61062f612459565b8281811461065057604051635863f78960e01b815260040160405180910390fd5b60005b8181101561069d5761069586868381811061067057610670614ddd565b9050602002013585858481811061068957610689614ddd565b90506020020135612503565b600101610653565b505050505050565b600080546040516302a0a1cb60e41b815282916201000090046001600160a01b031690632a0a1cb0906106e090889088908890600401614df3565b61014060405180830381865afa1580156106fe573d6000803e3d6000fd5b505050506040513d601f19601f820116820180604052508101906107229190614e2a565b905060008060029054906101000a90046001600160a01b03166001600160a01b0316637dc0d1d06040518163ffffffff1660e01b8152600401602060405180830381865afa158015610778573d6000803e3d6000fd5b505050506040513d601f19601f8201168201806040525081019061079c9190614ebc565b6001600160a01b031663e7572230866040518263ffffffff1660e01b81526004016107c991815260200190565b6040805180830381865afa1580156107e5573d6000803e3d6000fd5b505050506040513d601f19601f820116820180604052508101906108099190614ed9565b50905060006108268360a00151838560c001518660e00151612554565b90506000610839848560800151846125e3565b506002548551602087015160408089015160c08a015160808b015160e08c01519351637b62877f60e11b81526001600160a01b0396871660048201526024810195909552604485019290925215156064840152608483015260a482015292935060009291169063f6c50efe9060c401602060405180830381865afa1580156108c5573d6000803e3d6000fd5b505050506040513d601f19601f820116820180604052508101906108e99190614efd565b600254608087015160405163c22ff7bf60e01b815260048101919091526024810185905260006044820181905260648201849052608482018190529293506001600160a01b039091169063c22ff7bf9060a401602060405180830381865afa158015610959573d6000803e3d6000fd5b505050506040513d601f19601f8201168201806040525081019061097d9190614efd565b905085608001518161098f9190614f2c565b9a9950505050505050505050565b6109a56126fd565b80601360006109b76020860186614f4c565b6001600160a01b031681526020808201929092526040908101600090812086840135825283528181208683013582529092528120906109fc6080860160608701614f69565b6001811115610a0d57610a0d614f84565b6001811115610a1e57610a1e614f84565b8152602080820192909252604001600020825192909101516001600160d81b0316600160281b0264ffffffffff9092169190911790555050565b610a60612750565b610a686127a3565b6000816000015190506000806000610b0460405180610180016040528088602001518152602001876040015181526020018860200151815260200188604001518152602001876080015181526020018660c001511515815260200186602001518152602001866080015181526020018660e0015181526020018760600151815260200186610100015181526020018661012001518152506127cc565b60a0870182905291945092509050600081600b811115610b2657610b26614f84565b03610ba5576000610b3b856105dc6000612ab1565b50905086600001517f2739a12dffae5d66bd9e126a286078ed771840f2288f0afa5709ce38c33309978260018460a00151888660e001518760800151610b819190614f9a565b600080604051610b979796959493929190615025565b60405180910390a25061069d565b836020015184600001516001600160a01b031687600001517f1dc3532663e5566091476fb5aba1e514ef733714c83d4feec5723de6f16c326984604051610bec919061507e565b60405180910390a460405162461bcd60e51b815260206004820152601a60248201527f4d61726b6574206f70656e206f726465722063616e63656c656400000000000060448201526064015b60405180910390fd5b60606000610c4d612ff4565b6001600160a01b031663b81b2b716040518163ffffffff1660e01b8152600401602060405180830381865afa158015610c8a573d6000803e3d6000fd5b505050506040513d601f19601f82011682018060405250810190610cae9190614efd565b905060008167ffffffffffffffff811115610ccb57610ccb6147f5565b604051908082528060200260200182016040528015610cf4578160200160208202803683370190505b50905060005b82811015610d38576000818152601260205260409020548251839083908110610d2557610d25614ddd565b6020908102919091010152600101610cfa565b5092915050565b610d476130d2565b600d8190556040518181527fc75f5686bbe6603a45b5a7511ccac18cded4c9a821d01fd4f467bc9a6ca50b99906020015b60405180910390a150565b610d8d8282612503565b5050565b610d996126fd565b8060106000610dab6020860186614f4c565b6001600160a01b03168152602080820192909252604090810160009081208684013582528352818120868301358252909252812090610df06080860160608701614f69565b6001811115610e0157610e01614f84565b6001811115610e1257610e12614f84565b8152602080820192909252604090810160002083518154938501519285015160609095015163ffffffff908116600160601b0263ffffffff60601b19968216600160401b029690961667ffffffffffffffff60401b19948216600160201b0267ffffffffffffffff1990961691909216179390931791909116919091179190911790555050565b610ea16130d2565b600e805460ff8082161560ff1990921682179092556040519116151581527f9422424b175dda897495a07b091ef74a3ef715cf6d866fc972954c1c7f459304906020015b60405180910390a1565b610ef76130d2565b600c8190556040518181527fc31b16ad251301eaee3161a1e5a04f88c50907e7a3597977d04890832a6551b990602001610d78565b600060029054906101000a90046001600160a01b03166001600160a01b031663ad5c46486040518163ffffffff1660e01b8152600401602060405180830381865afa158015610f7f573d6000803e3d6000fd5b505050506040513d601f19601f82011682018060405250810190610fa39190614ebc565b6001600160a01b031663095ea7b3600060029054906101000a90046001600160a01b03166001600160a01b031663fbfa77cf6040518163ffffffff1660e01b8152600401602060405180830381865afa158015611004573d6000803e3d6000fd5b505050506040513d601f19601f820116820180604052508101906110289190614ebc565b6000196040518363ffffffff1660e01b815260040161104892919061508c565b6020604051808303816000875af1158015611067573d6000803e3d6000fd5b505050506040513d601f19601f8201168201806040525081019061108b91906150a5565b50565b611096612750565b61109e6127a3565b8051805160208201516040909201516000926110ba9291613125565b905060008160e001516000146110e2576020840151156110db5760006110e5565b60026110e5565b60095b9050600981600b8111156110fb576110fb614f84565b146112f65760006111198360000151846020015185604001516131b2565b905060008060029054906101000a90046001600160a01b03166001600160a01b0316633078fff56040518163ffffffff1660e01b8152600401602060405180830381865afa15801561116f573d6000803e3d6000fd5b505050506040513d601f19601f820116820180604052508101906111939190614ebc565b905061119d614611565b8460e0015185608001516111b19190614f9a565b6020820152600084600b8111156111ca576111ca614f84565b036112a6576111eb8560a0015188602001518760c001518860e00151612554565b606082015260e0850151602082015161120491906150d8565b816000018181525050611248856001836060015184600001518760400151612710600d5488602001516112379190614f9a565b61124191906150d8565b6000613267565b60c08201819052875160208901518351606085015160405193947f2739a12dffae5d66bd9e126a286078ed771840f2288f0afa5709ce38c333099794611299948c9460009491938593919291615025565b60405180910390a26112f2565b84600001516001600160a01b03167f4628f3d38f72d5f9e077d3965e10cd3242ff1316aa2bf81f054c0dfb254084068260e001516040516112e991815260200190565b60405180910390a25b5050505b600081600b81111561130a5761130a614f84565b146113b0578251602081015181518651604093840151935192936001600160a01b039092169290917f293df767d6749666902026d2f6a2cc4e5f15cdede46402226c42ef4fdf27a17c91611360919087906150ec565b60405180910390a460405162461bcd60e51b815260206004820152601b60248201527f4d61726b657420636c6f7365206f726465722063616e63656c656400000000006044820152606401610c38565b50505050565b600054610100900460ff16158080156113d65750600054600160ff909116105b806113f05750303b1580156113f0575060005460ff166001145b6114535760405162461bcd60e51b815260206004820152602e60248201527f496e697469616c697a61626c653a20636f6e747261637420697320616c72656160448201526d191e481a5b9a5d1a585b1a5e995960921b6064820152608401610c38565b6000805460ff191660011790558015611476576000805461ff0019166101001790555b6001600160a01b038d16158061149357506001600160a01b038c16155b806114a557506001600160a01b038b16155b806114b757506001600160a01b038a16155b806114c957506001600160a01b038916155b806114db57506001600160a01b038716155b806114fb5750836114ec8688615100565b6114f69190615100565b606414155b806115065750600583115b1561152457604051635863f78960e01b815260040160405180910390fd5b8c600060026101000a8154816001600160a01b0302191690836001600160a01b031602179055508b600160006101000a8154816001600160a01b0302191690836001600160a01b031602179055508a600260006101000a8154816001600160a01b0302191690836001600160a01b0316021790555089600360006101000a8154816001600160a01b0302191690836001600160a01b0316021790555088600460006101000a8154816001600160a01b0302191690836001600160a01b0316021790555087601160006101000a8154816001600160a01b0302191690836001600160a01b03160217905550856005819055508460068190555083600781905550816000015160088190555081602001516009819055508160400151600a819055508160600151600b819055508160800151600c819055508160a00151600d8190555082600f8190555060008060029054906101000a90046001600160a01b03166001600160a01b031663ad5c46486040518163ffffffff1660e01b8152600401602060405180830381865afa1580156116c0573d6000803e3d6000fd5b505050506040513d601f19601f820116820180604052508101906116e49190614ebc565b6004805460405163095ea7b360e01b81529293506001600160a01b038085169363095ea7b39361171c9390921691600019910161508c565b6020604051808303816000875af115801561173b573d6000803e3d6000fd5b505050506040513d601f19601f8201168201806040525081019061175f91906150a5565b5060405163095ea7b360e01b81526001600160a01b0382169063095ea7b390611790908b906000199060040161508c565b6020604051808303816000875af11580156117af573d6000803e3d6000fd5b505050506040513d601f19601f820116820180604052508101906117d391906150a5565b5050801561181b576000805461ff0019169055604051600181527f7f26b83ff96e1f2b6a682f133852f6798a09c465da95921460cefb38474024989060200160405180910390a15b50505050505050505050505050565b6118326130d2565b600e805460ff610100808304821615810261ff001990931692909217928390556040517fc3a6f986261de9467c2838c6df8ef74f9107855159205600c0bc7a14cdfd388893610ee59390049091161515815260200190565b6118926130d2565b60058111156118b457604051635863f78960e01b815260040160405180910390fd5b600f8190556040518181527fa57398db99aea3c2cd0d30f5b4e8f597539206c95b9c5b73e84962d8b565bbeb90602001610d78565b6118f16130d2565b806118fc8385615100565b6119069190615100565b60641461192657604051635863f78960e01b815260040160405180910390fd5b60058390556006829055600781905560408051848152602081018490529081018290527f0caa98ed9a1605da290817d1f67b1b83c63f9229abeca5123df5d90581c495589060600160405180910390a1505050565b611983612750565b61198b6127a3565b60006119a4826040015183606001518460800151613125565b905060008060029054906101000a90046001600160a01b03166001600160a01b0316633078fff56040518163ffffffff1660e01b8152600401602060405180830381865afa1580156119fa573d6000803e3d6000fd5b505050506040513d601f19601f82011682018060405250810190611a1e9190614ebc565b905060008460200151600014611a465760e083015115611a3f576000611a49565b6009611a49565b60025b9050600081600b811115611a5f57611a5f614f84565b03612385576000611a7d8460000151856020015186604001516131b2565b90506000836001600160a01b03166335b03c176040518163ffffffff1660e01b8152600401602060405180830381865afa158015611abf573d6000803e3d6000fd5b505050506040513d601f19601f82011682018060405250810190611ae39190614ebc565b9050611aed614611565b8560e001518660800151611b019190614f9a565b6020820181905260e0870151611b16916150d8565b815260028760a001516004811115611b3057611b30614f84565b03611bfb576011546040805160e0808201835289516001600160a01b0390811683526020808c0151908401528a8401518385015260a0808c0151606085015260c0808d015115156080860152875191850191909152918b0151918301919091529151633837d79d60e11b8152919092169163706faf3a91611bb49190600401615113565b602060405180830381865afa158015611bd1573d6000803e3d6000fd5b505050506040513d601f19601f82011682018060405250810190611bf59190614efd565b60a08201525b60048760a001516004811115611c1357611c13614f84565b03611cde576011546040805160e0808201835289516001600160a01b0390811683526020808c0151908401528a8401518385015260a0808c0151606085015260c0808d015115156080860152875191850191909152918b0151918301919091529151633269b96360e11b815291909216916364d372c691611c979190600401615113565b602060405180830381865afa158015611cb4573d6000803e3d6000fd5b505050506040513d601f19601f82011682018060405250810190611cd89190614efd565b60a08201525b60008760a001516004811115611cf657611cf6614f84565b14611d2d5760018760a001516004811115611d1357611d13614f84565b14611d22578060a00151611d34565b856101200151611d34565b8561010001515b60808201819052602089015114610140820181905215611e615760028760a001516004811115611d6657611d66614f84565b14611e3c5760048760a001516004811115611d8357611d83614f84565b14611e2b576402540be4006064836001600160a01b0316639c8dd2fa89602001516040518263ffffffff1660e01b8152600401611dc291815260200190565b602060405180830381865afa158015611ddf573d6000803e3d6000fd5b505050506040513d601f19601f82011682018060405250810190611e039190614efd565b8360200151611e129190614f9a565b611e1c91906150d8565b611e2691906150d8565b611e57565b600b548151606491611e1c91614f9a565b600a548151606491611e4d91614f9a565b611e5791906150d8565b60e08201526120a3565b6020880151608082015260028760a001516004811115611e8357611e83614f84565b146120505760048760a001516004811115611ea057611ea0614f84565b1461200d5760008760a001516004811115611ebd57611ebd614f84565b148015611ecf57506000866101000151115b8015611eff57508560c00151611ef15785610100015188606001511115611eff565b856101000151886060015110155b80611f5f575060018760a001516004811115611f1d57611f1d614f84565b148015611f2f57506000866101200151115b8015611f5f57508560c00151611f515785610120015188606001511015611f5f565b856101200151886060015111155b611f6a57600061209d565b6402540be4006064836001600160a01b0316639c8dd2fa89602001516040518263ffffffff1660e01b8152600401611fa491815260200190565b602060405180830381865afa158015611fc1573d6000803e3d6000fd5b505050506040513d601f19601f82011682018060405250810190611fe59190614efd565b8360200151611ff49190614f9a565b611ffe91906150d8565b61200891906150d8565b61209d565b8560c00151612027578060a0015188602001511015612034565b8060a00151886020015111155b61203f57600061209d565b600b548151606491611ffe91614f9a565b8560c0015161206a578060a0015188602001511015612077565b8060a00151886020015111155b61208257600061209d565b600a54815160649161209391614f9a565b61209d91906150d8565b60e08201525b60e0810151156120b45760006120b7565b600b5b9350600084600b8111156120cd576120cd614f84565b03612381576120ee8660a0015182608001518860c001518960e00151612554565b606082015260048760a00151600481111561210b5761210b614f84565b0361213c57612137868260600151836000015186604001518560e001518660e001518e60200151613731565b61221d565b60608101518151604085015161221d92899260009260028d60a00151600481111561216957612169614f84565b14612211576402540be4006064896001600160a01b031663836a341a8f602001516040518263ffffffff1660e01b81526004016121a891815260200190565b602060405180830381865afa1580156121c5573d6000803e3d6000fd5b505050506040513d601f19601f820116820180604052508101906121e99190614efd565b89602001516121f89190614f9a565b61220291906150d8565b61220c91906150d8565b611241565b8660e001516000613267565b60c082015260028760a00151600481111561223a5761223a614f84565b148061225b575060048760a00151600481111561225957612259614f84565b145b156122bd57875160808201517faeefb4131e9c16aed5d272d7c0dd13a9a1015c8ba68226ca46ccb278ded96ee890889060028b60a0015160048111156122a3576122a3614f84565b14156040516122b493929190615167565b60405180910390a25b85600001516001600160a01b03167fcada75418f444febbe725c87360b063440c54e00e82d578010de1ed009d756c58260e0015160405161230091815260200190565b60405180910390a286600001516001600160a01b031688600001517f1ab0771256522e5114b583b488c490436d6f8fe02b1e1c9697443e8704c4e8408960800151898b60a0015186608001516000886000015189606001518a60c001518b61014001516040516123789998979695949392919061519e565b60405180910390a35b5050505b600081600b81111561239957612399614f84565b146123ec578351855160a08601516040516001600160a01b03909316927fe9681b5336d843735c62e93114e5a0f45912a84ae83fa3f3ed80ca5ad933dfc3916123e39186906151fb565b60405180910390a35b600054855160405163201d8bdb60e01b81526004810191909152620100009091046001600160a01b03169063201d8bdb90602401600060405180830381600087803b15801561243a57600080fd5b505af115801561244e573d6000803e3d6000fd5b505050505050505050565b600260009054906101000a90046001600160a01b03166001600160a01b031663481c6a756040518163ffffffff1660e01b8152600401602060405180830381865afa1580156124ac573d6000803e3d6000fd5b505050506040513d601f19601f820116820180604052508101906124d09190614ebc565b6001600160a01b0316336001600160a01b03161461250157604051631dd2188d60e31b815260040160405180910390fd5b565b600082815260126020526040908190208290555182907f95924bc10431f9a625a06fe5a27d55f4348510b2da42a18fe3bf2a6f2c4eab67906125489084815260200190565b60405180910390a25050565b6000806125686402540be400610384615216565b9050600086116125795760006125c8565b85836402540be4008661259557612590888a614f2c565b61259f565b61259f8989614f2c565b6125aa906064615216565b6125b49190615216565b6125be9190615216565b6125c89190615246565b91508082136125d757816125d9565b805b9695505050505050565b6011546040805160c0808201835286516001600160a01b03908116835260208089015190840190815288850151848601908152928901511515606085019081526080850189815260e08b015160a087019081529651632d28a81760e01b8152955184166004870152915160248601529251604485015291511515606484015290516084830152915160a482015260009283921690632d28a8179060c401602060405180830381865afa15801561269d573d6000803e3d6000fd5b505050506040513d601f19601f820116820180604052508101906126c19190614efd565b9050836402540be4006126d5836064614f9a565b6126df9190614f9a565b6126e991906150d8565b6126f39084614f2c565b9150935093915050565b600060029054906101000a90046001600160a01b03166001600160a01b031663ec44acf26040518163ffffffff1660e01b8152600401602060405180830381865afa1580156124ac573d6000803e3d6000fd5b600060029054906101000a90046001600160a01b03166001600160a01b0316633078fff56040518163ffffffff1660e01b8152600401602060405180830381865afa1580156124ac573d6000803e3d6000fd5b600e54610100900460ff161561250157604051631dd2188d60e31b815260040160405180910390fd5b60025481516060830151608084015160a0850151600094859485946001600160a01b0390921693637ea95f3293612804939190613d0e565b8660c001518760a001518861010001518960e001516128239190614f9a565b6040516001600160e01b031960e087901b168152600481019490945260248401929092521515604483015260648201526084016040805180830381865afa158015612872573d6000803e3d6000fd5b505050506040513d601f19601f820116820180604052508101906128969190614ed9565b61012086015191945092506000906128be57606485602001516128b991906150d8565b6128ef565b6402540be400606486610120015187602001516128db9190614f9a565b6128e591906150d8565b6128ef91906150d8565b600e5490915060ff16612aa557604085015115612a9e578460a001516129265780856020015161291f9190615274565b8310612939565b8085602001516129369190615100565b83115b612a9757600085610140015111801561296e57508460a001516129645784610140015183111561296e565b8461014001518310155b612a905760008561016001511180156129a357508460a00151612999578461016001518310156129a3565b8461016001518311155b612a89576129c48560c001518660a001518760e00151886101000151613d7e565b15612a8257600260009054906101000a90046001600160a01b03166001600160a01b03166380f6cfc26040518163ffffffff1660e01b8152600401602060405180830381865afa158015612a1c573d6000803e3d6000fd5b505050506040513d601f19601f82011682018060405250810190612a409190614efd565b610100860151612a509086614f9a565b11612a7b57612a688560c00151866101000151613f27565b15612a74576000612aa8565b6008612aa8565b6007612aa8565b6006612aa8565b6005612aa8565b6004612aa8565b6003612aa8565b6002612aa8565b60015b93959294505050565b612ab961466d565b600080600060029054906101000a90046001600160a01b03166001600160a01b0316633078fff56040518163ffffffff1660e01b8152600401602060405180830381865afa158015612b0f573d6000803e3d6000fd5b505050506040513d601f19601f82011682018060405250810190612b339190614ebc565b90506000816001600160a01b03166335b03c176040518163ffffffff1660e01b8152600401602060405180830381865afa158015612b75573d6000803e3d6000fd5b505050506040513d601f19601f82011682018060405250810190612b999190614ebc565b9050612ba3614611565b8760e001518860800151612bb79190614f9a565b60208201819052600c5461271091612bcf9190614f9a565b612bd991906150d8565b60e082018190528851612beb91613fc9565b87600001516001600160a01b03167ffbe3ff5da3e10d2c0ceb72c54a36fddd296ae010c11c2c2165d5b2a32278db058260e00151604051612c2e91815260200190565b60405180910390a28060e001518860800151612c4a9190615274565b6080890152600054885160208a015160405163292c161760e01b8152620100009093046001600160a01b03169263292c161792612c8b92909160040161508c565b602060405180830381865afa158015612ca8573d6000803e3d6000fd5b505050506040513d601f19601f82011682018060405250810190612ccc9190614efd565b886040018181525050612cf28860a001518960e001518a61010001518b60c001516140e4565b88610100018181525050612d198860a001518960e001518a61012001518b60c00151614177565b610120890152600254885160208a01516040808c015160c08d01519151630735e1cd60e11b81526001600160a01b0390951694630e6bc39a94612d63949093909291600401615287565b600060405180830381600087803b158015612d7d57600080fd5b505af1158015612d91573d6000803e3d6000fd5b505050506020880151608089015160c08a01516040516310787e2f60e11b81526004810193909352602483019190915215156044820152600160648201526001600160a01b038316906320f0fc5e90608401600060405180830381600087803b158015612dfd57600080fd5b505af1158015612e11573d6000803e3d6000fd5b50506011548a5160208c015160408d015160e08e015160808f01516001600160a01b03909516965063ce67edfb9550929391929091612e509190614f9a565b60018e60c001516040518763ffffffff1660e01b8152600401612e78969594939291906152af565b600060405180830381600087803b158015612e9257600080fd5b505af1158015612ea6573d6000803e3d6000fd5b50505050600060029054906101000a90046001600160a01b03166001600160a01b031663c311ab31896040518060c0016040528060008152602001856040015181526020018c60e001518d60800151612eff9190614f9a565b81526020016000815260200160008152602001600015158152506040518363ffffffff1660e01b8152600401612f369291906152e6565b600060405180830381600087803b158015612f5057600080fd5b505af1158015612f64573d6000803e3d6000fd5b505089516001600160a01b03166000908152601060209081526040808320828e015184528252808320818e015184528252808320838052909152812092509050612fac6141f1565b825467ffffffffffffffff191663ffffffff91909116908117600160201b82021763ffffffff60601b1916600160601b91909102179091555060400151969795505050505050565b60008060029054906101000a90046001600160a01b03166001600160a01b0316633078fff56040518163ffffffff1660e01b8152600401602060405180830381865afa158015613048573d6000803e3d6000fd5b505050506040513d601f19601f8201168201806040525081019061306c9190614ebc565b6001600160a01b03166335b03c176040518163ffffffff1660e01b8152600401602060405180830381865afa1580156130a9573d6000803e3d6000fd5b505050506040513d601f19601f820116820180604052508101906130cd9190614ebc565b905090565b600060029054906101000a90046001600160a01b03166001600160a01b03166312d43a516040518163ffffffff1660e01b8152600401602060405180830381865afa1580156124ac573d6000803e3d6000fd5b61312d61466d565b6000546040516302a0a1cb60e41b8152620100009091046001600160a01b031690632a0a1cb09061316690879087908790600401614df3565b61014060405180830381865afa158015613184573d6000803e3d6000fd5b505050506040513d601f19601f820116820180604052508101906131a89190614e2a565b90505b9392505050565b6131ed6040518060c0016040528060008152602001600081526020016000815260200160008152602001600081526020016000151581525090565b600054604051637728fb1b60e11b8152620100009091046001600160a01b03169063ee51f6369061322690879087908790600401614df3565b60c060405180830381865afa158015613243573d6000803e3d6000fd5b505050506040513d601f19601f820116820180604052508101906131a8919061533d565b600080600060029054906101000a90046001600160a01b03166001600160a01b031663fbfa77cf6040518163ffffffff1660e01b8152600401602060405180830381865afa1580156132bd573d6000803e3d6000fd5b505050506040513d601f19601f820116820180604052508101906132e19190614ebc565b90506132f88987896132f38789615100565b614272565b506011548a5160208c01516040808e015160c08f0151915163ce67edfb60e01b81529597506001600160a01b039094169463ce67edfb9461334494939290918c916000916004016152af565b600060405180830381600087803b15801561335e57600080fd5b505af1158015613372573d6000803e3d6000fd5b5050505061337e612ff4565b6001600160a01b03166320f0fc5e8a602001518b60e00151886133a191906150d8565b60c08d01516040516001600160e01b031960e086901b168152600481019390935260248301919091521515604482015260006064820152608401600060405180830381600087803b1580156133f557600080fd5b505af1158015613409573d6000803e3d6000fd5b50506000548b5160208d01516040808f015190516390d112b960e01b8152620100009094046001600160a01b031695506390d112b9945061344c93600401614df3565b600060405180830381600087803b15801561346657600080fd5b505af115801561347a573d6000803e3d6000fd5b505050506080890151156136bf57613490614611565b8960e001518a608001516134a49190614f9a565b60208201819052600d54612710916134bc9190614f9a565b6134c691906150d8565b60e082018190528a516134d891613fc9565b89600001516001600160a01b03167f80ad17e9192446ad511669b1174f9341887a83a1111ff6a03bc9f6d27ee5173f8260e0015160405161351b91815260200190565b60405180910390a2886135cf576064600854856135389190614f9a565b61354291906150d8565b61010082018190528a516135569190614395565b6064600954856135669190614f9a565b61357091906150d8565b6101208201819052613583903390614477565b6101008101516101208201516040805192835260208301919091523382820152517f13584113fa48eb270a087eb09597fac4b2abbff64a03674f40a59230282d40699181900360600190a15b60008160e001518261010001518361012001518a6135ed9190615274565b6135f79190615274565b6136019190615274565b905080841115613698576001600160a01b03831663e66a6e3b6136248387615274565b8d5160405160e084901b6001600160e01b031916815260048101929092526001600160a01b03166024820152604401600060405180830381600087803b15801561366d57600080fd5b505af1158015613681573d6000803e3d6000fd5b505050506136938b6000015182614477565b6136b8565b6136ac6136a58583615274565b8c51614395565b8a516136b89085614477565b5050613725565b885160405163e66a6e3b60e01b8152600481018490526001600160a01b0391821660248201529082169063e66a6e3b90604401600060405180830381600087803b15801561370c57600080fd5b505af1158015613720573d6000803e3d6000fd5b505050505b50979650505050505050565b60006137408887896000614272565b50601154895160208b01516040808d015160c08e0151915163ce67edfb60e01b81529596506001600160a01b039094169463ce67edfb9461378c94939290918c916001916004016152af565b600060405180830381600087803b1580156137a657600080fd5b505af11580156137ba573d6000803e3d6000fd5b505050506000818960e00151876137d191906150d8565b6137db9190615274565b90506137e5612ff4565b60208a015160c08b01516040516310787e2f60e11b815260048101929092526024820184905215156044820152600060648201526001600160a01b0391909116906320f0fc5e90608401600060405180830381600087803b15801561384957600080fd5b505af115801561385d573d6000803e3d6000fd5b5050505060006064600854866138739190614f9a565b61387d91906150d8565b905061388d818b60000151614395565b600060646009548761389f9190614f9a565b6138a991906150d8565b90506138b53382614477565b6040805183815260208101839052338183015290517f5454955828d6f902a97ed0e4c551fd86c3a5735cdf62bc12f2a659999d0203999181900360600190a1806138ff8385615274565b6139099190615274565b9250613919838c60000151614395565b5050600054895160208b01516040808d015190516390d112b960e01b8152620100009094046001600160a01b0316936390d112b99361395e9390929091600401614df3565b600060405180830381600087803b15801561397857600080fd5b505af115801561398c573d6000803e3d6000fd5b5050505061399861466d565b89516001600160a01b03908116825260e0808c0151908301526020808c0180519184019190915260c0808d01511515908401526080830185905260a083018690526000548c51915160405163292c161760e01b8152620100009092049093169263292c161792613a0d9290919060040161508c565b602060405180830381865afa158015613a2a573d6000803e3d6000fd5b505050506040513d601f19601f82011682018060405250810190613a4e9190614efd565b60408201526101008a0151613a64576000613a82565b613a828a60a001518b6101000151868d60c001518e60e001516144bc565b6101008201526101208a0151613a99576000613ab7565b613ab78a60a001518b6101200151868d60c001518e60e0015161456f565b6101208201526002548151602083015160408085015160c08601519151630735e1cd60e11b81526001600160a01b0390951694630e6bc39a94613b01949093909291600401615287565b600060405180830381600087803b158015613b1b57600080fd5b505af1158015613b2f573d6000803e3d6000fd5b505060115483516020850151604086015160e087015160808801516001600160a01b03909516965063ce67edfb9550929391929091613b6e9190614f9a565b60018760c001516040518763ffffffff1660e01b8152600401613b96969594939291906152af565b600060405180830381600087803b158015613bb057600080fd5b505af1158015613bc4573d6000803e3d6000fd5b50505050600060029054906101000a90046001600160a01b03166001600160a01b031663c311ab31826040518060c0016040528060008152602001600081526020018560e001518660800151613c1a9190614f9a565b81526020016000815260200160008152602001600015158152506040518363ffffffff1660e01b8152600401613c519291906152e6565b600060405180830381600087803b158015613c6b57600080fd5b505af1158015613c7f573d6000803e3d6000fd5b505082516001600160a01b0316600090815260106020908152604080832082870151845282528083208187015184528252808320838052909152812092509050613cc76141f1565b825467ffffffffffffffff191663ffffffff91909116908117600160201b82021763ffffffff60601b1916600160601b919091021790915550919998505050505050505050565b6000806402540be400606480613d248789614f9a565b613d2e91906150d8565b613d389088615274565b613d429089614f9a565b613d4c91906150d8565b613d5691906150d8565b905082613d6c57613d678187615274565b6125d9565b6125d98187615100565b949350505050565b600080613d8b8385614f9a565b601154604051632e53fe8760e21b8152600481018990529192506001600160a01b03169063b94ffa1c90602401602060405180830381865afa158015613dd5573d6000803e3d6000fd5b505050506040513d601f19601f82011682018060405250810190613df99190614efd565b613e07906305f5e100614f9a565b60005482906201000090046001600160a01b03166377a9fdcf8989613e2d576001613e30565b60005b6040516001600160e01b031960e085901b168152600481019290925260ff166024820152604401602060405180830381865afa158015613e74573d6000803e3d6000fd5b505050506040513d601f19601f82011682018060405250810190613e989190614efd565b613ea29190615100565b111580156125d9575060115460405163d627450560e01b8152600481018890528615156024820152604481018390526001600160a01b039091169063d627450590606401602060405180830381865afa158015613f03573d6000803e3d6000fd5b505050506040513d601f19601f820116820180604052508101906125d991906150a5565b6000828152601260205260408120548015613f455780831115613fbf565b613f4d612ff4565b6001600160a01b031663281b693c856040518263ffffffff1660e01b8152600401613f7a91815260200190565b602060405180830381865afa158015613f97573d6000803e3d6000fd5b505050506040513d601f19601f82011682018060405250810190613fbb9190614efd565b8311155b9150505b92915050565b613fd33082614477565b600060029054906101000a90046001600160a01b03166001600160a01b031663fbfa77cf6040518163ffffffff1660e01b8152600401602060405180830381865afa158015614026573d6000803e3d6000fd5b505050506040513d601f19601f8201168201806040525081019061404a9190614ebc565b6001600160a01b031663940a4e45826040518263ffffffff1660e01b815260040161407791815260200190565b600060405180830381600087803b15801561409157600080fd5b505af11580156140a5573d6000803e3d6000fd5b50505050816001600160a01b03167f19ffdf6391d49bb1730b3f4d19c279b1275dddf2a4e981af93b1099c111369e68260405161254891815260200190565b600082158061410d57506140ff6402540be400610384615216565b61410b86858588612554565b145b1561416e57600060648561412361038489614f9a565b61412d91906150d8565b61413791906150d8565b90508261415c578581111561414d576000614166565b6141578187615274565b614166565b6141668187615100565b915050613d76565b50909392505050565b600080831180156141ad57506141936402540be400604b615216565b61419f90600019615216565b6141ab86858588612554565b125b1561416e5760006064856141c2604b89614f9a565b6141cc91906150d8565b6141d691906150d8565b9050826141e7576141578187615100565b6141668187615274565b600061a4b1461480614205575062066eed46145b1561426d5760646001600160a01b031663a3b1b31d6040518163ffffffff1660e01b8152600401602060405180830381865afa158015614249573d6000803e3d6000fd5b505050506040513d601f19601f820116820180604052508101906130cd9190614efd565b504390565b60008060006142828787876125e3565b600254895160208b01516040808d015160c08e015160e08f01519251636ceaca6760e01b81526001600160a01b0395861660048201526024810194909452604484019190915215156064830152608482018c905260a482015260c4810185905260e481018990529295509293509190911690636ceaca6790610104016020604051808303816000875af115801561431d573d6000803e3d6000fd5b505050506040513d601f19601f820116820180604052508101906143419190614efd565b875160408051838152602081018690529295506001600160a01b03909116917fe7d34775bf6fd7b34e703a903ef79ab16166ebdffce96a66f4d2f84b6263bb29910160405180910390a25094509492505050565b61439f3083614477565b600060029054906101000a90046001600160a01b03166001600160a01b031663fbfa77cf6040518163ffffffff1660e01b8152600401602060405180830381865afa1580156143f2573d6000803e3d6000fd5b505050506040513d601f19601f820116820180604052508101906144169190614ebc565b60405163a481c14b60e01b8152600481018490526001600160a01b038381166024830152919091169063a481c14b906044015b600060405180830381600087803b15801561446357600080fd5b505af115801561069d573d6000803e3d6000fd5b600054604051638a238ae560e01b81526001600160a01b0362010000909204821660048201819052918416602482015260448101839052638a238ae590606401614449565b60008086836402540be400866144db576144d6898b614f2c565b6144e5565b6144e58a8a614f2c565b6144f0906064615216565b6144fa9190615216565b6145049190615216565b61450e9190615246565b90506000836402540be40060646145258986615216565b61452f9190615246565b6145399190615246565b6145439190615246565b905084614559576145548187615274565b614563565b6145638187615100565b98975050505050505050565b60008086836402540be4008661458e57614589898b614f2c565b614598565b6145988a8a614f2c565b6145a3906064615216565b6145ad9190615216565b6145b79190615216565b6145c19190615246565b90506000836402540be40060646145d88986615216565b6145e29190615246565b6145ec9190615246565b6145f69190615246565b905084614607576145548187615100565b6145638187615274565b604051806101600160405280600081526020016000815260200160008152602001600081526020016000815260200160008152602001600081526020016000815260200160008152602001600081526020016000151581525090565b60405180610140016040528060006001600160a01b0316815260200160008152602001600081526020016000815260200160008152602001600081526020016000151581526020016000815260200160008152602001600081525090565b60008083601f8401126146dd57600080fd5b50813567ffffffffffffffff8111156146f557600080fd5b6020830191508360208260051b850101111561471057600080fd5b9250929050565b6000806000806040858703121561472d57600080fd5b843567ffffffffffffffff8082111561474557600080fd5b614751888389016146cb565b9096509450602087013591508082111561476a57600080fd5b50614777878288016146cb565b95989497509550505050565b6001600160a01b038116811461108b57600080fd5b80356147a381614783565b919050565b6000806000606084860312156147bd57600080fd5b83356147c881614783565b95602085013595506040909401359392505050565b6000608082840312156147ef57600080fd5b50919050565b634e487b7160e01b600052604160045260246000fd5b60405160c0810167ffffffffffffffff8111828210171561483c57634e487b7160e01b600052604160045260246000fd5b60405290565b604051610140810167ffffffffffffffff8111828210171561483c57634e487b7160e01b600052604160045260246000fd5b60008082840360c081121561488857600080fd5b61489285856147dd565b92506040607f19820112156148a657600080fd5b506040516040810181811067ffffffffffffffff821117156148d857634e487b7160e01b600052604160045260246000fd5b604052608084013564ffffffffff811681146148f357600080fd5b815260a08401356001600160d81b038116811461490f57600080fd5b6020820152919491935090915050565b60006020828403121561493157600080fd5b5035919050565b600060c0828403121561494a57600080fd5b61495261480b565b9050813581526020820135602082015260408201356040820152606082013560608201526080820135608082015260a082013560a082015292915050565b801515811461108b57600080fd5b80356147a381614990565b6000808284036102a08112156149be57600080fd5b6149c88585614938565b925060bf19016101e0808212156149de57600080fd5b6149e661480b565b610140808412156149f657600080fd5b6149fe614842565b9350614a0c60c08801614798565b845260e0870135602085015261010080880135604086015261012080890135606087015282890135608087015261016089013560a0870152614a516101808a0161499e565b60c08701526101a089013560e08701526101c08901359186019190915292870135928401929092529182525061020084013560208201526102208401356040820152610240840135606082015261026084013560808201526102809093013560a08401525092909150565b6020808252825182820181905260009190848201906040850190845b81811015614af457835183529284019291840191600101614ad8565b50909695505050505050565b8035600281106147a357600080fd5b60008060008060808587031215614b2557600080fd5b8435614b3081614783565b93506020850135925060408501359150614b4c60608601614b00565b905092959194509250565b60008060408385031215614b6a57600080fd5b50508035926020909101359150565b803563ffffffff811681146147a357600080fd5b600080828403610100811215614ba257600080fd5b614bac85856147dd565b92506080607f1982011215614bc057600080fd5b506040516080810181811067ffffffffffffffff82111715614bf257634e487b7160e01b600052604160045260246000fd5b604052614c0160808501614b79565b8152614c0f60a08501614b79565b6020820152614c2060c08501614b79565b6040820152614c3160e08501614b79565b6060820152809150509250929050565b6000806000806000806000806000806000806102208d8f031215614c6457600080fd5b8c35614c6f81614783565b9b5060208d0135614c7f81614783565b9a5060408d0135614c8f81614783565b995060608d0135614c9f81614783565b985060808d0135614caf81614783565b975060a08d0135614cbf81614783565b9650614ccd60c08e01614798565b955060e08d013594506101008d013593506101208d013592506101408d01359150614cfc8e6101608f01614938565b90509295989b509295989b509295989b565b600080600060608486031215614d2357600080fd5b505081359360208301359350604090920135919050565b600080828403610180811215614d4f57600080fd5b614d598585614938565b925060c060bf1982011215614d6d57600080fd5b50614d7661480b565b60c0840135614d8481614783565b815260e08401356020820152610100840135614d9f81614783565b60408201526101208401356060820152610140840135608082015261016084013560058110614dcd57600080fd5b60a0820152919491935090915050565b634e487b7160e01b600052603260045260246000fd5b6001600160a01b039390931683526020830191909152604082015260600190565b80516147a381614783565b80516147a381614990565b60006101408284031215614e3d57600080fd5b614e45614842565b614e4e83614e14565b81526020830151602082015260408301516040820152606083015160608201526080830151608082015260a083015160a0820152614e8e60c08401614e1f565b60c082015260e083810151908201526101008084015190820152610120928301519281019290925250919050565b600060208284031215614ece57600080fd5b81516131ab81614783565b60008060408385031215614eec57600080fd5b505080516020909101519092909150565b600060208284031215614f0f57600080fd5b5051919050565b634e487b7160e01b600052601160045260246000fd5b8181036000831280158383131683831282161715610d3857610d38614f16565b600060208284031215614f5e57600080fd5b81356131ab81614783565b600060208284031215614f7b57600080fd5b6131ab82614b00565b634e487b7160e01b600052602160045260246000fd5b8082028115828204841417613fc357613fc3614f16565b80516001600160a01b031682526020810151602083015260408101516040830152606081015160608301526080810151608083015260a081015160a083015260c081015161500360c084018215159052565b5060e08181015190830152610100808201519083015261012090810151910152565b6102008101615034828a614fb1565b9615156101408201526101608101959095526101808501939093526101a08401919091526101c08301526101e090910152919050565b600c811061507a5761507a614f84565b9052565b60208101613fc3828461506a565b6001600160a01b03929092168252602082015260400190565b6000602082840312156150b757600080fd5b81516131ab81614990565b634e487b7160e01b600052601260045260246000fd5b6000826150e7576150e76150c2565b500490565b828152604081016131ab602083018461506a565b80820180821115613fc357613fc3614f16565b81516001600160a01b0316815260208083015190820152604080830151908201526060808301519082015260808083015115159082015260a0828101519082015260c0918201519181019190915260e00190565b61018081016151768286614fb1565b83610140830152821515610160830152949350505050565b6005811061507a5761507a614f84565b89815261024081016151b3602083018b614fb1565b6151c161016083018a61518e565b87610180830152866101a0830152856101c0830152846101e0830152836102008301528215156102208301529a9950505050505050505050565b60408101615209828561518e565b6131ab602083018461506a565b80820260008212600160ff1b8414161561523257615232614f16565b8181058314821517613fc357613fc3614f16565b600082615255576152556150c2565b600160ff1b82146000198414161561526f5761526f614f16565b500590565b81810381811115613fc357613fc3614f16565b6001600160a01b03949094168452602084019290925260408301521515606082015260800190565b6001600160a01b0396909616865260208601949094526040850192909252606084015215156080830152151560a082015260c00190565b61020081016152f58285614fb1565b82516101408301526020830151610160830152604083015161018083015260608301516101a083015260808301516101c083015260a083015115156101e08301529392505050565b600060c0828403121561534f57600080fd5b61535761480b565b825181526020830151602082015260408301516040820152606083015160608201526080830151608082015260a083015161539181614990565b60a0820152939250505056fea26469706673582212209d167625e3fe4597a1ed538af2393891a0847111a1b50f17d9df176a3f7a740064736f6c63430008170033",
  "devdoc": {
    "events": {
      "Initialized(uint8)": {
        "details": "Triggered when the contract has been initialized or reinitialized."
      }
    },
    "kind": "dev",
    "methods": {},
    "version": 1
  },
  "userdoc": {
    "kind": "user",
    "methods": {},
    "version": 1
  },
  "storageLayout": {
    "storage": [
      {
        "astId": 6,
        "contract": "contracts/TradingCallbacks.sol:TradingCallbacks",
        "label": "_initialized",
        "offset": 0,
        "slot": "0",
        "type": "t_uint8"
      },
      {
        "astId": 9,
        "contract": "contracts/TradingCallbacks.sol:TradingCallbacks",
        "label": "_initializing",
        "offset": 1,
        "slot": "0",
        "type": "t_bool"
      },
      {
        "astId": 3356,
        "contract": "contracts/TradingCallbacks.sol:TradingCallbacks",
        "label": "storageT",
        "offset": 2,
        "slot": "0",
        "type": "t_contract(StorageInterface)9154"
      },
      {
        "astId": 3359,
        "contract": "contracts/TradingCallbacks.sol:TradingCallbacks",
        "label": "nftRewards",
        "offset": 0,
        "slot": "1",
        "type": "t_contract(NftRewardsInterfaceV6_3_1)8144"
      },
      {
        "astId": 3362,
        "contract": "contracts/TradingCallbacks.sol:TradingCallbacks",
        "label": "pairInfos",
        "offset": 0,
        "slot": "2",
        "type": "t_contract(PairInfosInterface)8356"
      },
      {
        "astId": 3365,
        "contract": "contracts/TradingCallbacks.sol:TradingCallbacks",
        "label": "referrals",
        "offset": 0,
        "slot": "3",
        "type": "t_contract(ReferralsInterface)8597"
      },
      {
        "astId": 3368,
        "contract": "contracts/TradingCallbacks.sol:TradingCallbacks",
        "label": "staking",
        "offset": 0,
        "slot": "4",
        "type": "t_contract(StakingInterface)8605"
      },
      {
        "astId": 3382,
        "contract": "contracts/TradingCallbacks.sol:TradingCallbacks",
        "label": "WETHVaultFeeP",
        "offset": 0,
        "slot": "5",
        "type": "t_uint256"
      },
      {
        "astId": 3384,
        "contract": "contracts/TradingCallbacks.sol:TradingCallbacks",
        "label": "lpFeeP",
        "offset": 0,
        "slot": "6",
        "type": "t_uint256"
      },
      {
        "astId": 3386,
        "contract": "contracts/TradingCallbacks.sol:TradingCallbacks",
        "label": "sssFeeP",
        "offset": 0,
        "slot": "7",
        "type": "t_uint256"
      },
      {
        "astId": 3389,
        "contract": "contracts/TradingCallbacks.sol:TradingCallbacks",
        "label": "vaultFeeP",
        "offset": 0,
        "slot": "8",
        "type": "t_uint256"
      },
      {
        "astId": 3392,
        "contract": "contracts/TradingCallbacks.sol:TradingCallbacks",
        "label": "liquidatorFeeP",
        "offset": 0,
        "slot": "9",
        "type": "t_uint256"
      },
      {
        "astId": 3395,
        "contract": "contracts/TradingCallbacks.sol:TradingCallbacks",
        "label": "liquidationFeeP",
        "offset": 0,
        "slot": "10",
        "type": "t_uint256"
      },
      {
        "astId": 3398,
        "contract": "contracts/TradingCallbacks.sol:TradingCallbacks",
        "label": "parLiquidationFeeP",
        "offset": 0,
        "slot": "11",
        "type": "t_uint256"
      },
      {
        "astId": 3400,
        "contract": "contracts/TradingCallbacks.sol:TradingCallbacks",
        "label": "openingFeeP",
        "offset": 0,
        "slot": "12",
        "type": "t_uint256"
      },
      {
        "astId": 3402,
        "contract": "contracts/TradingCallbacks.sol:TradingCallbacks",
        "label": "closingFeeP",
        "offset": 0,
        "slot": "13",
        "type": "t_uint256"
      },
      {
        "astId": 3404,
        "contract": "contracts/TradingCallbacks.sol:TradingCallbacks",
        "label": "isPaused",
        "offset": 0,
        "slot": "14",
        "type": "t_bool"
      },
      {
        "astId": 3406,
        "contract": "contracts/TradingCallbacks.sol:TradingCallbacks",
        "label": "isDone",
        "offset": 1,
        "slot": "14",
        "type": "t_bool"
      },
      {
        "astId": 3408,
        "contract": "contracts/TradingCallbacks.sol:TradingCallbacks",
        "label": "canExecuteTimeout",
        "offset": 0,
        "slot": "15",
        "type": "t_uint256"
      },
      {
        "astId": 3420,
        "contract": "contracts/TradingCallbacks.sol:TradingCallbacks",
        "label": "tradeLastUpdated",
        "offset": 0,
        "slot": "16",
        "type": "t_mapping(t_address,t_mapping(t_uint256,t_mapping(t_uint256,t_mapping(t_enum(TradeType)3575,t_struct(LastUpdated)3529_storage))))"
      },
      {
        "astId": 3423,
        "contract": "contracts/TradingCallbacks.sol:TradingCallbacks",
        "label": "borrowingFees",
        "offset": 0,
        "slot": "17",
        "type": "t_contract(BorrowingFeesInterface)7754"
      },
      {
        "astId": 3427,
        "contract": "contracts/TradingCallbacks.sol:TradingCallbacks",
        "label": "pairMaxLeverage",
        "offset": 0,
        "slot": "18",
        "type": "t_mapping(t_uint256,t_uint256)"
      },
      {
        "astId": 3439,
        "contract": "contracts/TradingCallbacks.sol:TradingCallbacks",
        "label": "tradeData",
        "offset": 0,
        "slot": "19",
        "type": "t_mapping(t_address,t_mapping(t_uint256,t_mapping(t_uint256,t_mapping(t_enum(TradeType)3575,t_struct(TradeData)3534_storage))))"
      }
    ],
    "types": {
      "t_address": {
        "encoding": "inplace",
        "label": "address",
        "numberOfBytes": "20"
      },
      "t_bool": {
        "encoding": "inplace",
        "label": "bool",
        "numberOfBytes": "1"
      },
      "t_contract(BorrowingFeesInterface)7754": {
        "encoding": "inplace",
        "label": "contract BorrowingFeesInterface",
        "numberOfBytes": "20"
      },
      "t_contract(NftRewardsInterfaceV6_3_1)8144": {
        "encoding": "inplace",
        "label": "contract NftRewardsInterfaceV6_3_1",
        "numberOfBytes": "20"
      },
      "t_contract(PairInfosInterface)8356": {
        "encoding": "inplace",
        "label": "contract PairInfosInterface",
        "numberOfBytes": "20"
      },
      "t_contract(ReferralsInterface)8597": {
        "encoding": "inplace",
        "label": "contract ReferralsInterface",
        "numberOfBytes": "20"
      },
      "t_contract(StakingInterface)8605": {
        "encoding": "inplace",
        "label": "contract StakingInterface",
        "numberOfBytes": "20"
      },
      "t_contract(StorageInterface)9154": {
        "encoding": "inplace",
        "label": "contract StorageInterface",
        "numberOfBytes": "20"
      },
      "t_enum(TradeType)3575": {
        "encoding": "inplace",
        "label": "enum TradingCallbacks.TradeType",
        "numberOfBytes": "1"
      },
      "t_mapping(t_address,t_mapping(t_uint256,t_mapping(t_uint256,t_mapping(t_enum(TradeType)3575,t_struct(LastUpdated)3529_storage))))": {
        "encoding": "mapping",
        "key": "t_address",
        "label": "mapping(address => mapping(uint256 => mapping(uint256 => mapping(enum TradingCallbacks.TradeType => struct TradingCallbacks.LastUpdated))))",
        "numberOfBytes": "32",
        "value": "t_mapping(t_uint256,t_mapping(t_uint256,t_mapping(t_enum(TradeType)3575,t_struct(LastUpdated)3529_storage)))"
      },
      "t_mapping(t_address,t_mapping(t_uint256,t_mapping(t_uint256,t_mapping(t_enum(TradeType)3575,t_struct(TradeData)3534_storage))))": {
        "encoding": "mapping",
        "key": "t_address",
        "label": "mapping(address => mapping(uint256 => mapping(uint256 => mapping(enum TradingCallbacks.TradeType => struct TradingCallbacks.TradeData))))",
        "numberOfBytes": "32",
        "value": "t_mapping(t_uint256,t_mapping(t_uint256,t_mapping(t_enum(TradeType)3575,t_struct(TradeData)3534_storage)))"
      },
      "t_mapping(t_enum(TradeType)3575,t_struct(LastUpdated)3529_storage)": {
        "encoding": "mapping",
        "key": "t_enum(TradeType)3575",
        "label": "mapping(enum TradingCallbacks.TradeType => struct TradingCallbacks.LastUpdated)",
        "numberOfBytes": "32",
        "value": "t_struct(LastUpdated)3529_storage"
      },
      "t_mapping(t_enum(TradeType)3575,t_struct(TradeData)3534_storage)": {
        "encoding": "mapping",
        "key": "t_enum(TradeType)3575",
        "label": "mapping(enum TradingCallbacks.TradeType => struct TradingCallbacks.TradeData)",
        "numberOfBytes": "32",
        "value": "t_struct(TradeData)3534_storage"
      },
      "t_mapping(t_uint256,t_mapping(t_enum(TradeType)3575,t_struct(LastUpdated)3529_storage))": {
        "encoding": "mapping",
        "key": "t_uint256",
        "label": "mapping(uint256 => mapping(enum TradingCallbacks.TradeType => struct TradingCallbacks.LastUpdated))",
        "numberOfBytes": "32",
        "value": "t_mapping(t_enum(TradeType)3575,t_struct(LastUpdated)3529_storage)"
      },
      "t_mapping(t_uint256,t_mapping(t_enum(TradeType)3575,t_struct(TradeData)3534_storage))": {
        "encoding": "mapping",
        "key": "t_uint256",
        "label": "mapping(uint256 => mapping(enum TradingCallbacks.TradeType => struct TradingCallbacks.TradeData))",
        "numberOfBytes": "32",
        "value": "t_mapping(t_enum(TradeType)3575,t_struct(TradeData)3534_storage)"
      },
      "t_mapping(t_uint256,t_mapping(t_uint256,t_mapping(t_enum(TradeType)3575,t_struct(LastUpdated)3529_storage)))": {
        "encoding": "mapping",
        "key": "t_uint256",
        "label": "mapping(uint256 => mapping(uint256 => mapping(enum TradingCallbacks.TradeType => struct TradingCallbacks.LastUpdated)))",
        "numberOfBytes": "32",
        "value": "t_mapping(t_uint256,t_mapping(t_enum(TradeType)3575,t_struct(LastUpdated)3529_storage))"
      },
      "t_mapping(t_uint256,t_mapping(t_uint256,t_mapping(t_enum(TradeType)3575,t_struct(TradeData)3534_storage)))": {
        "encoding": "mapping",
        "key": "t_uint256",
        "label": "mapping(uint256 => mapping(uint256 => mapping(enum TradingCallbacks.TradeType => struct TradingCallbacks.TradeData)))",
        "numberOfBytes": "32",
        "value": "t_mapping(t_uint256,t_mapping(t_enum(TradeType)3575,t_struct(TradeData)3534_storage))"
      },
      "t_mapping(t_uint256,t_uint256)": {
        "encoding": "mapping",
        "key": "t_uint256",
        "label": "mapping(uint256 => uint256)",
        "numberOfBytes": "32",
        "value": "t_uint256"
      },
      "t_struct(LastUpdated)3529_storage": {
        "encoding": "inplace",
        "label": "struct TradingCallbacks.LastUpdated",
        "members": [
          {
            "astId": 3522,
            "contract": "contracts/TradingCallbacks.sol:TradingCallbacks",
            "label": "tp",
            "offset": 0,
            "slot": "0",
            "type": "t_uint32"
          },
          {
            "astId": 3524,
            "contract": "contracts/TradingCallbacks.sol:TradingCallbacks",
            "label": "sl",
            "offset": 4,
            "slot": "0",
            "type": "t_uint32"
          },
          {
            "astId": 3526,
            "contract": "contracts/TradingCallbacks.sol:TradingCallbacks",
            "label": "limit",
            "offset": 8,
            "slot": "0",
            "type": "t_uint32"
          },
          {
            "astId": 3528,
            "contract": "contracts/TradingCallbacks.sol:TradingCallbacks",
            "label": "created",
            "offset": 12,
            "slot": "0",
            "type": "t_uint32"
          }
        ],
        "numberOfBytes": "32"
      },
      "t_struct(TradeData)3534_storage": {
        "encoding": "inplace",
        "label": "struct TradingCallbacks.TradeData",
        "members": [
          {
            "astId": 3531,
            "contract": "contracts/TradingCallbacks.sol:TradingCallbacks",
            "label": "maxSlippageP",
            "offset": 0,
            "slot": "0",
            "type": "t_uint40"
          },
          {
            "astId": 3533,
            "contract": "contracts/TradingCallbacks.sol:TradingCallbacks",
            "label": "_placeholder",
            "offset": 5,
            "slot": "0",
            "type": "t_uint216"
          }
        ],
        "numberOfBytes": "32"
      },
      "t_uint216": {
        "encoding": "inplace",
        "label": "uint216",
        "numberOfBytes": "27"
      },
      "t_uint256": {
        "encoding": "inplace",
        "label": "uint256",
        "numberOfBytes": "32"
      },
      "t_uint32": {
        "encoding": "inplace",
        "label": "uint32",
        "numberOfBytes": "4"
      },
      "t_uint40": {
        "encoding": "inplace",
        "label": "uint40",
        "numberOfBytes": "5"
      },
      "t_uint8": {
        "encoding": "inplace",
        "label": "uint8",
        "numberOfBytes": "1"
      }
    }
  }
}