{
  "address": "0xC113D810aF85239A3d723dB6fF239B37b127b990",
  "abi": [
    {
      "inputs": [
        {
          "internalType": "address",
          "name": "_govFund",
          "type": "address"
        },
        {
          "internalType": "contract TokenInterface",
          "name": "_token",
          "type": "address"
        },
        {
          "internalType": "contract TokenInterface",
          "name": "_WETH",
          "type": "address"
        },
        {
          "internalType": "contract NftInterfaceV5[5]",
          "name": "_nfts",
          "type": "address[5]"
        },
        {
          "internalType": "uint256[5]",
          "name": "_boostsP",
          "type": "uint256[5]"
        },
        {
          "internalType": "uint256",
          "name": "_maxNftsStaked",
          "type": "uint256"
        }
      ],
      "stateMutability": "nonpayable",
      "type": "constructor"
    },
    {
      "anonymous": false,
      "inputs": [
        {
          "indexed": false,
          "internalType": "uint256[5]",
          "name": "boosts",
          "type": "uint256[5]"
        }
      ],
      "name": "BoostsUpdated",
      "type": "event"
    },
    {
      "anonymous": false,
      "inputs": [
        {
          "indexed": false,
          "internalType": "address",
          "name": "value",
          "type": "address"
        }
      ],
      "name": "GovFundUpdated",
      "type": "event"
    },
    {
      "anonymous": false,
      "inputs": [
        {
          "indexed": false,
          "internalType": "uint256",
          "name": "value",
          "type": "uint256"
        }
      ],
      "name": "MaxNftsStakedUpdated",
      "type": "event"
    },
    {
      "anonymous": false,
      "inputs": [
        {
          "indexed": true,
          "internalType": "address",
          "name": "user",
          "type": "address"
        },
        {
          "indexed": true,
          "internalType": "uint256",
          "name": "nftType",
          "type": "uint256"
        },
        {
          "indexed": false,
          "internalType": "uint256",
          "name": "nftId",
          "type": "uint256"
        }
      ],
      "name": "NftStaked",
      "type": "event"
    },
    {
      "anonymous": false,
      "inputs": [
        {
          "indexed": true,
          "internalType": "address",
          "name": "user",
          "type": "address"
        },
        {
          "indexed": true,
          "internalType": "uint256",
          "name": "nftType",
          "type": "uint256"
        },
        {
          "indexed": false,
          "internalType": "uint256",
          "name": "nftId",
          "type": "uint256"
        }
      ],
      "name": "NftUnstaked",
      "type": "event"
    },
    {
      "anonymous": false,
      "inputs": [
        {
          "indexed": true,
          "internalType": "address",
          "name": "user",
          "type": "address"
        },
        {
          "indexed": false,
          "internalType": "uint256",
          "name": "amount",
          "type": "uint256"
        }
      ],
      "name": "TokensStaked",
      "type": "event"
    },
    {
      "anonymous": false,
      "inputs": [
        {
          "indexed": true,
          "internalType": "address",
          "name": "user",
          "type": "address"
        },
        {
          "indexed": false,
          "internalType": "uint256",
          "name": "amount",
          "type": "uint256"
        }
      ],
      "name": "TokensUnstaked",
      "type": "event"
    },
    {
      "anonymous": false,
      "inputs": [
        {
          "indexed": false,
          "internalType": "uint256",
          "name": "amount",
          "type": "uint256"
        }
      ],
      "name": "WETHDistributed",
      "type": "event"
    },
    {
      "anonymous": false,
      "inputs": [
        {
          "indexed": true,
          "internalType": "address",
          "name": "user",
          "type": "address"
        },
        {
          "indexed": false,
          "internalType": "uint256",
          "name": "amount",
          "type": "uint256"
        }
      ],
      "name": "WETHHarvested",
      "type": "event"
    },
    {
      "inputs": [],
      "name": "WETH",
      "outputs": [
        {
          "internalType": "contract TokenInterface",
          "name": "",
          "type": "address"
        }
      ],
      "stateMutability": "view",
      "type": "function"
    },
    {
      "inputs": [],
      "name": "accWETHPerToken",
      "outputs": [
        {
          "internalType": "uint256",
          "name": "",
          "type": "uint256"
        }
      ],
      "stateMutability": "view",
      "type": "function"
    },
    {
      "inputs": [
        {
          "internalType": "uint256",
          "name": "",
          "type": "uint256"
        }
      ],
      "name": "boostsP",
      "outputs": [
        {
          "internalType": "uint256",
          "name": "",
          "type": "uint256"
        }
      ],
      "stateMutability": "view",
      "type": "function"
    },
    {
      "inputs": [
        {
          "internalType": "uint256[5]",
          "name": "value",
          "type": "uint256[5]"
        }
      ],
      "name": "checkBoostsP",
      "outputs": [],
      "stateMutability": "pure",
      "type": "function"
    },
    {
      "inputs": [
        {
          "internalType": "uint256",
          "name": "amount",
          "type": "uint256"
        }
      ],
      "name": "distributeRewardWETH",
      "outputs": [],
      "stateMutability": "nonpayable",
      "type": "function"
    },
    {
      "inputs": [],
      "name": "govFund",
      "outputs": [
        {
          "internalType": "address",
          "name": "",
          "type": "address"
        }
      ],
      "stateMutability": "view",
      "type": "function"
    },
    {
      "inputs": [],
      "name": "harvest",
      "outputs": [],
      "stateMutability": "nonpayable",
      "type": "function"
    },
    {
      "inputs": [],
      "name": "maxNftsStaked",
      "outputs": [
        {
          "internalType": "uint256",
          "name": "",
          "type": "uint256"
        }
      ],
      "stateMutability": "view",
      "type": "function"
    },
    {
      "inputs": [
        {
          "internalType": "uint256",
          "name": "",
          "type": "uint256"
        }
      ],
      "name": "nfts",
      "outputs": [
        {
          "internalType": "contract NftInterfaceV5",
          "name": "",
          "type": "address"
        }
      ],
      "stateMutability": "view",
      "type": "function"
    },
    {
      "inputs": [],
      "name": "pendingRewardWETH",
      "outputs": [
        {
          "internalType": "uint256",
          "name": "",
          "type": "uint256"
        }
      ],
      "stateMutability": "view",
      "type": "function"
    },
    {
      "inputs": [
        {
          "internalType": "uint256[5]",
          "name": "value",
          "type": "uint256[5]"
        }
      ],
      "name": "setBoostsP",
      "outputs": [],
      "stateMutability": "nonpayable",
      "type": "function"
    },
    {
      "inputs": [
        {
          "internalType": "address",
          "name": "value",
          "type": "address"
        }
      ],
      "name": "setGovFund",
      "outputs": [],
      "stateMutability": "nonpayable",
      "type": "function"
    },
    {
      "inputs": [
        {
          "internalType": "uint256",
          "name": "value",
          "type": "uint256"
        }
      ],
      "name": "setMaxNftsStaked",
      "outputs": [],
      "stateMutability": "nonpayable",
      "type": "function"
    },
    {
      "inputs": [
        {
          "internalType": "uint256",
          "name": "nftType",
          "type": "uint256"
        },
        {
          "internalType": "uint256",
          "name": "nftId",
          "type": "uint256"
        }
      ],
      "name": "stakeNft",
      "outputs": [],
      "stateMutability": "nonpayable",
      "type": "function"
    },
    {
      "inputs": [
        {
          "internalType": "uint256",
          "name": "amount",
          "type": "uint256"
        }
      ],
      "name": "stakeTokens",
      "outputs": [],
      "stateMutability": "nonpayable",
      "type": "function"
    },
    {
      "inputs": [],
      "name": "token",
      "outputs": [
        {
          "internalType": "contract TokenInterface",
          "name": "",
          "type": "address"
        }
      ],
      "stateMutability": "view",
      "type": "function"
    },
    {
      "inputs": [],
      "name": "tokenBalance",
      "outputs": [
        {
          "internalType": "uint256",
          "name": "",
          "type": "uint256"
        }
      ],
      "stateMutability": "view",
      "type": "function"
    },
    {
      "inputs": [],
      "name": "totalRewardsDistributedWETH",
      "outputs": [
        {
          "internalType": "uint256",
          "name": "",
          "type": "uint256"
        }
      ],
      "stateMutability": "view",
      "type": "function"
    },
    {
      "inputs": [
        {
          "internalType": "uint256",
          "name": "nftIndex",
          "type": "uint256"
        }
      ],
      "name": "unstakeNft",
      "outputs": [],
      "stateMutability": "nonpayable",
      "type": "function"
    },
    {
      "inputs": [
        {
          "internalType": "uint256",
          "name": "amount",
          "type": "uint256"
        }
      ],
      "name": "unstakeTokens",
      "outputs": [],
      "stateMutability": "nonpayable",
      "type": "function"
    },
    {
      "inputs": [
        {
          "internalType": "address",
          "name": "",
          "type": "address"
        },
        {
          "internalType": "uint256",
          "name": "",
          "type": "uint256"
        }
      ],
      "name": "userNfts",
      "outputs": [
        {
          "internalType": "uint256",
          "name": "nftId",
          "type": "uint256"
        },
        {
          "internalType": "uint256",
          "name": "nftType",
          "type": "uint256"
        }
      ],
      "stateMutability": "view",
      "type": "function"
    },
    {
      "inputs": [
        {
          "internalType": "address",
          "name": "",
          "type": "address"
        }
      ],
      "name": "users",
      "outputs": [
        {
          "internalType": "uint256",
          "name": "stakedTokens",
          "type": "uint256"
        },
        {
          "internalType": "uint256",
          "name": "debtWETH",
          "type": "uint256"
        },
        {
          "internalType": "uint256",
          "name": "stakedNftsCount",
          "type": "uint256"
        },
        {
          "internalType": "uint256",
          "name": "totalBoostTokens",
          "type": "uint256"
        },
        {
          "internalType": "uint256",
          "name": "harvestedRewardsWETH",
          "type": "uint256"
        }
      ],
      "stateMutability": "view",
      "type": "function"
    }
  ],
  "transactionHash": "0xeb8ddceb0d0fd7c1fc662e99832a39d6489db692fd333e212cb0b9adbcc86cb3",
  "args": [
    "0xa667403454F483dE81A0363Af7FcEE563819D910",
    "0xF9b033D9BF2B2a8CC5eD9eD8ba5daeE6834a62c1",
    "0xB8F7B665ABa71B40C1e2ab3BAd36640A44CDE5E6",
    [
      "0x00000000219ab540356cbb839cbe05303d7705fa",
      "0xc02aaa39b223fe8d0a0e5c4f27ead9083c756cc2",
      "0xbe0eb53f46cd790cd13851d5eff43d12404d33e8",
      "0xda9dfa130df4de4673b89022ee50ff26f6ea73cf",
      "0x40b38765696e3d5d8d9d834d8aad4bb6e418e489"
    ],
    [
      1,
      2,
      3,
      4,
      5
    ],
    25
  ],
  "numDeployments": 1,
  "solcInputHash": "988ef56db206df3adb44e87e8540bd4d",
  "bytecode": "0x60c06040523480156200001157600080fd5b50604051620016fb380380620016fb8339810160408190526200003491620002f5565b6001600160a01b038616158015906200005557506001600160a01b03851615155b80156200006a57506001600160a01b03841615155b801562000083575060808301516001600160a01b031615155b620000c45760405162461bcd60e51b815260206004820152600c60248201526b57524f4e475f504152414d5360a01b60448201526064015b60405180910390fd5b620000cf8262000129565b600080546001600160a01b0319166001600160a01b0388811691909117909155858116608052841660a052620001096001846005620001ad565b506200011960088360056200020a565b50600d5550620003c69350505050565b6020810151815110801562000145575060408101516020820151105b801562000159575060608101516040820151105b80156200016d575060808101516060820151105b620001aa5760405162461bcd60e51b815260206004820152600c60248201526b57524f4e475f56414c55455360a01b6044820152606401620000bb565b50565b8260058101928215620001f8579160200282015b82811115620001f857825182546001600160a01b0319166001600160a01b03909116178255602090920191600190910190620001c1565b50620002069291506200023b565b5090565b8260058101928215620001f8579160200282015b82811115620001f85782518255916020019190600101906200021e565b5b808211156200020657600081556001016200023c565b6001600160a01b0381168114620001aa57600080fd5b60405160a081016001600160401b03811182821017156200029957634e487b7160e01b600052604160045260246000fd5b60405290565b600082601f830112620002b157600080fd5b620002bb62000268565b8060a0840185811115620002ce57600080fd5b845b81811015620002ea578051845260209384019301620002d0565b509095945050505050565b6000806000806000806101c087890312156200031057600080fd5b86516200031d8162000252565b80965050602080880151620003328162000252565b6040890151909650620003458162000252565b9450607f880189136200035757600080fd5b6200036162000268565b806101008a018b8111156200037557600080fd5b60608b015b818110156200039e578051620003908162000252565b84529284019284016200037a565b50819650620003ae8c826200029f565b9550505050506101a087015190509295509295509295565b60805160a0516112f362000408600039600081816102e8015281816104880152610d9001526000818161035b0152818161065f015261092601526112f36000f3fe608060405234801561001057600080fd5b50600436106101425760003560e01c8063865f12e8116100b8578063ae7d610f1161007c578063ae7d610f1461030a578063b79b23dd1461031d578063e09cc52f14610330578063e6d5c00314610343578063fc0c546a14610356578063fe2fb7701461037d57600080fd5b8063865f12e8146102595780639ae9b1641461026c5780639e1a4d1914610275578063a87430ba1461027e578063ad5c4648146102e357600080fd5b8063608e4dd01161010a578063608e4dd0146101b357806369b262b6146101c65780636b4260001461020d5780637547c7a31461022057806379cbeb2d146102335780637c74f1af1461024657600080fd5b80630bfe2071146101475780630df0961c14610162578063265aa6211461016b5780634641257d1461019657806348ec5271146101a0575b600080fd5b61014f610386565b6040519081526020015b60405180910390f35b61014f600d5481565b61017e610179366004611034565b6103dc565b6040516001600160a01b039091168152602001610159565b61019e6103fc565b005b61019e6101ae36600461104d565b610538565b61019e6101c1366004611034565b6105bc565b6101f86101d43660046110f5565b60106020908152600092835260408084209091529082529020805460019091015482565b60408051928352602083019190915201610159565b61019e61021b366004611034565b610707565b61019e61022e366004611034565b610905565b61019e61024136600461111f565b610a53565b61019e610254366004611141565b610c48565b60005461017e906001600160a01b031681565b61014f600e5481565b61014f60075481565b6102bb61028c366004611141565b600f60205260009081526040902080546001820154600283015460038401546004909401549293919290919085565b604080519586526020860194909452928401919091526060830152608082015260a001610159565b61017e7f000000000000000000000000000000000000000000000000000000000000000081565b61019e61031836600461104d565b610d09565b61019e61032b366004611034565b610d79565b61014f61033e366004611034565b610e94565b61019e610351366004611034565b610eab565b61017e7f000000000000000000000000000000000000000000000000000000000000000081565b61014f60065481565b336000908152600f60205260408120600181015460065460038301548354670de0b6b3a764000092916103b891611179565b6103c29190611192565b6103cc91906111a9565b6103d691906111cb565b91505090565b600181600581106103ec57600080fd5b01546001600160a01b0316905081565b6000610406610386565b336000908152600f60205260409020600654600382015482549394509192670de0b6b3a76400009261043791611179565b6104419190611192565b61044b91906111a9565b8160010181905550818160040160008282546104679190611179565b909155505060405163a9059cbb60e01b8152336004820152602481018390527f00000000000000000000000000000000000000000000000000000000000000006001600160a01b03169063a9059cbb906044016020604051808303816000875af11580156104d9573d6000803e3d6000fd5b505050506040513d601f19601f820116820180604052508101906104fd91906111de565b5060405182815233907fb48929331f6a270daa3aebb2b4ce66bb359949a9aa2ec1d6f22faf31f87b3713906020015b60405180910390a25050565b60208101518151108015610553575060408101516020820151105b8015610566575060608101516040820151105b8015610579575060808101516060820151105b6105b95760405162461bcd60e51b815260206004820152600c60248201526b57524f4e475f56414c55455360a01b60448201526064015b60405180910390fd5b50565b336000908152600f602052604090206105d36103fc565b600381015481546105e49190611179565b600760008282546105f591906111cb565b909155505080548290829060009061060e9084906111cb565b9091555061061c9050610f0a565b6003810154815461062d9190611179565b6007600082825461063e9190611179565b909155505060405163a9059cbb60e01b8152336004820152602481018390527f00000000000000000000000000000000000000000000000000000000000000006001600160a01b03169063a9059cbb906044016020604051808303816000875af11580156106b0573d6000803e3d6000fd5b505050506040513d601f19601f820116820180604052508101906106d491906111de565b5060405182815233907f9845e367b683334e5c0b12d7b81721ac518e649376fa65e3d68324e8f34f26799060200161052c565b336000908152600f602090815260408083206010835281842085855283529281902081518083019092528054825260010154918101919091526107486103fc565b600382015482546107599190611179565b6007600082825461076a91906111cb565b90915550503360009081526010602052604081206002840154909190610792906001906111cb565b81526020808201929092526040908101600090812033808352601080865284842089855280875294842083548155600193840154908401559083529093526002850180549293919290836107e583611216565b919050556107f391906111cb565b81526020810191909152604001600090812081815560010155610814610f0a565b600382015482546108259190611179565b600760008282546108369190611179565b9091555050602081015160019061084e9082906111cb565b6005811061085e5761085e611200565b015481516040516323b872dd60e01b81526001600160a01b03909216916323b872dd91610891913091339160040161122d565b600060405180830381600087803b1580156108ab57600080fd5b505af11580156108bf573d6000803e3d6000fd5b505050506020818101518251604051908152909133917f15c9f2a25f2a9d7f192995bce8ee67ef354a0dc0f7b82b3ad471a4bfe879fee8910160405180910390a3505050565b336000818152600f60205260409081902090516323b872dd60e01b815290917f00000000000000000000000000000000000000000000000000000000000000006001600160a01b0316916323b872dd91610965913090879060040161122d565b6020604051808303816000875af1158015610984573d6000803e3d6000fd5b505050506040513d601f19601f820116820180604052508101906109a891906111de565b506109b16103fc565b600381015481546109c29190611179565b600760008282546109d391906111cb565b90915550508054829082906000906109ec908490611179565b909155506109fa9050610f0a565b60038101548154610a0b9190611179565b60076000828254610a1c9190611179565b909155505060405182815233907fb539ca1e5c8d398ddf1c41c30166f33404941683be4683319b57669a93dad4ef9060200161052c565b323314610a8d5760405162461bcd60e51b815260206004820152600860248201526710d3d395149050d560c21b60448201526064016105b0565b336000908152600f60205260409020600d54600282015410610aeb5760405162461bcd60e51b815260206004820152601760248201527613505617d3919514d7d053149150511657d4d51052d151604a1b60448201526064016105b0565b6001610af781856111cb565b60058110610b0757610b07611200565b01546040516323b872dd60e01b81526001600160a01b03909116906323b872dd90610b3a9033903090879060040161122d565b600060405180830381600087803b158015610b5457600080fd5b505af1158015610b68573d6000803e3d6000fd5b50505050610b746103fc565b60038101548154610b859190611179565b60076000828254610b9691906111cb565b9091555050336000908152601060205260408120600283018054839182610bbc83611251565b9091555081526020810191909152604001600020600181018590558381559050610be4610f0a565b60038201548254610bf59190611179565b60076000828254610c069190611179565b9091555050604051838152849033907f2209f5ab1e50b2a6cab82d8f63686a6991f8d51072e1c8c6e752570697c29c469060200160405180910390a350505050565b6000546001600160a01b03163314610c725760405162461bcd60e51b81526004016105b09061126a565b6001600160a01b038116610cb45760405162461bcd60e51b81526020600482015260096024820152680414444524553535f360bc1b60448201526064016105b0565b600080546001600160a01b0319166001600160a01b0383169081179091556040519081527f82ed90f787d49d0a2409d828dce36f3138f9c04e46a59446f7564352cc9dd526906020015b60405180910390a150565b6000546001600160a01b03163314610d335760405162461bcd60e51b81526004016105b09061126a565b610d3c81610538565b610d496008826005610fe1565b507fd4f83e5841eed0062f973ea6c98ae700fab452a244757ca90231c5c53dd9f3d181604051610cfe919061128c565b6040516323b872dd60e01b81526001600160a01b037f000000000000000000000000000000000000000000000000000000000000000016906323b872dd90610dc99033903090869060040161122d565b6020604051808303816000875af1158015610de8573d6000803e3d6000fd5b505050506040513d601f19601f82011682018060405250810190610e0c91906111de565b5060075415610e6457600754610e2a82670de0b6b3a7640000611192565b610e3491906111a9565b60066000828254610e459190611179565b9250508190555080600e6000828254610e5e9190611179565b90915550505b6040518181527f7a172d05242b68ed283e6759f5cdd393ca33461637fb6ab68617d0eedbb94c4e90602001610cfe565b60088160058110610ea457600080fd5b0154905081565b6000546001600160a01b03163314610ed55760405162461bcd60e51b81526004016105b09061126a565b600d8190556040518181527f9cfc27c994d2896c1aae1fc9f8dc5cbf2579adaa768a984531fecab197b03f7990602001610cfe565b336000908152600f6020526040812060038101829055905b8160020154811015610fa6573360009081526010602090815260408083208484529091529020600190810154606491600891610f5e91906111cb565b60058110610f6e57610f6e611200565b01548354610f7c9190611192565b610f8691906111a9565b826003016000828254610f999190611179565b9091555050600101610f22565b5060065460038201548254670de0b6b3a76400009291610fc591611179565b610fcf9190611192565b610fd991906111a9565b600190910155565b826005810192821561100f579160200282015b8281111561100f578251825591602001919060010190610ff4565b5061101b92915061101f565b5090565b5b8082111561101b5760008155600101611020565b60006020828403121561104657600080fd5b5035919050565b600060a0828403121561105f57600080fd5b82601f83011261106e57600080fd5b60405160a0810181811067ffffffffffffffff8211171561109f57634e487b7160e01b600052604160045260246000fd5b6040528060a08401858111156110b457600080fd5b845b818110156110ce5780358352602092830192016110b6565b509195945050505050565b80356001600160a01b03811681146110f057600080fd5b919050565b6000806040838503121561110857600080fd5b611111836110d9565b946020939093013593505050565b6000806040838503121561113257600080fd5b50508035926020909101359150565b60006020828403121561115357600080fd5b61115c826110d9565b9392505050565b634e487b7160e01b600052601160045260246000fd5b8082018082111561118c5761118c611163565b92915050565b808202811582820484141761118c5761118c611163565b6000826111c657634e487b7160e01b600052601260045260246000fd5b500490565b8181038181111561118c5761118c611163565b6000602082840312156111f057600080fd5b8151801515811461115c57600080fd5b634e487b7160e01b600052603260045260246000fd5b60008161122557611225611163565b506000190190565b6001600160a01b039384168152919092166020820152604081019190915260600190565b60006001820161126357611263611163565b5060010190565b602080825260089082015267474f565f4f4e4c5960c01b604082015260600190565b60a08101818360005b60058110156112b4578151835260209283019290910190600101611295565b5050509291505056fea2646970667358221220e8b3b1f5068445dfbd7053d6efcb0018a1f5c8157662a983fca4b3b50506481964736f6c63430008170033",
  "devdoc": {
    "kind": "dev",
    "methods": {},
    "version": 1
  },
  "userdoc": {
    "kind": "user",
    "methods": {},
    "version": 1
  },
  "storageLayout": {
    "storage": [
      {
        "astId": 18315,
        "contract": "contracts/Staking.sol:Staking",
        "label": "govFund",
        "offset": 0,
        "slot": "0",
        "type": "t_address"
      },
      {
        "astId": 18326,
        "contract": "contracts/Staking.sol:Staking",
        "label": "nfts",
        "offset": 0,
        "slot": "1",
        "type": "t_array(t_contract(NftInterfaceV5)32172)5_storage"
      },
      {
        "astId": 18328,
        "contract": "contracts/Staking.sol:Staking",
        "label": "accWETHPerToken",
        "offset": 0,
        "slot": "6",
        "type": "t_uint256"
      },
      {
        "astId": 18330,
        "contract": "contracts/Staking.sol:Staking",
        "label": "tokenBalance",
        "offset": 0,
        "slot": "7",
        "type": "t_uint256"
      },
      {
        "astId": 18334,
        "contract": "contracts/Staking.sol:Staking",
        "label": "boostsP",
        "offset": 0,
        "slot": "8",
        "type": "t_array(t_uint256)5_storage"
      },
      {
        "astId": 18336,
        "contract": "contracts/Staking.sol:Staking",
        "label": "maxNftsStaked",
        "offset": 0,
        "slot": "13",
        "type": "t_uint256"
      },
      {
        "astId": 18338,
        "contract": "contracts/Staking.sol:Staking",
        "label": "totalRewardsDistributedWETH",
        "offset": 0,
        "slot": "14",
        "type": "t_uint256"
      },
      {
        "astId": 18343,
        "contract": "contracts/Staking.sol:Staking",
        "label": "users",
        "offset": 0,
        "slot": "15",
        "type": "t_mapping(t_address,t_struct(User)18366_storage)"
      },
      {
        "astId": 18350,
        "contract": "contracts/Staking.sol:Staking",
        "label": "userNfts",
        "offset": 0,
        "slot": "16",
        "type": "t_mapping(t_address,t_mapping(t_uint256,t_struct(StakedNft)18355_storage))"
      }
    ],
    "types": {
      "t_address": {
        "encoding": "inplace",
        "label": "address",
        "numberOfBytes": "20"
      },
      "t_array(t_contract(NftInterfaceV5)32172)5_storage": {
        "base": "t_contract(NftInterfaceV5)32172",
        "encoding": "inplace",
        "label": "contract NftInterfaceV5[5]",
        "numberOfBytes": "160"
      },
      "t_array(t_uint256)5_storage": {
        "base": "t_uint256",
        "encoding": "inplace",
        "label": "uint256[5]",
        "numberOfBytes": "160"
      },
      "t_contract(NftInterfaceV5)32172": {
        "encoding": "inplace",
        "label": "contract NftInterfaceV5",
        "numberOfBytes": "20"
      },
      "t_mapping(t_address,t_mapping(t_uint256,t_struct(StakedNft)18355_storage))": {
        "encoding": "mapping",
        "key": "t_address",
        "label": "mapping(address => mapping(uint256 => struct Staking.StakedNft))",
        "numberOfBytes": "32",
        "value": "t_mapping(t_uint256,t_struct(StakedNft)18355_storage)"
      },
      "t_mapping(t_address,t_struct(User)18366_storage)": {
        "encoding": "mapping",
        "key": "t_address",
        "label": "mapping(address => struct Staking.User)",
        "numberOfBytes": "32",
        "value": "t_struct(User)18366_storage"
      },
      "t_mapping(t_uint256,t_struct(StakedNft)18355_storage)": {
        "encoding": "mapping",
        "key": "t_uint256",
        "label": "mapping(uint256 => struct Staking.StakedNft)",
        "numberOfBytes": "32",
        "value": "t_struct(StakedNft)18355_storage"
      },
      "t_struct(StakedNft)18355_storage": {
        "encoding": "inplace",
        "label": "struct Staking.StakedNft",
        "members": [
          {
            "astId": 18352,
            "contract": "contracts/Staking.sol:Staking",
            "label": "nftId",
            "offset": 0,
            "slot": "0",
            "type": "t_uint256"
          },
          {
            "astId": 18354,
            "contract": "contracts/Staking.sol:Staking",
            "label": "nftType",
            "offset": 0,
            "slot": "1",
            "type": "t_uint256"
          }
        ],
        "numberOfBytes": "64"
      },
      "t_struct(User)18366_storage": {
        "encoding": "inplace",
        "label": "struct Staking.User",
        "members": [
          {
            "astId": 18357,
            "contract": "contracts/Staking.sol:Staking",
            "label": "stakedTokens",
            "offset": 0,
            "slot": "0",
            "type": "t_uint256"
          },
          {
            "astId": 18359,
            "contract": "contracts/Staking.sol:Staking",
            "label": "debtWETH",
            "offset": 0,
            "slot": "1",
            "type": "t_uint256"
          },
          {
            "astId": 18361,
            "contract": "contracts/Staking.sol:Staking",
            "label": "stakedNftsCount",
            "offset": 0,
            "slot": "2",
            "type": "t_uint256"
          },
          {
            "astId": 18363,
            "contract": "contracts/Staking.sol:Staking",
            "label": "totalBoostTokens",
            "offset": 0,
            "slot": "3",
            "type": "t_uint256"
          },
          {
            "astId": 18365,
            "contract": "contracts/Staking.sol:Staking",
            "label": "harvestedRewardsWETH",
            "offset": 0,
            "slot": "4",
            "type": "t_uint256"
          }
        ],
        "numberOfBytes": "160"
      },
      "t_uint256": {
        "encoding": "inplace",
        "label": "uint256",
        "numberOfBytes": "32"
      }
    }
  }
}