{
  "address": "0xFD0da7d4eDFD3575CF9F5084a2AB453D3caF287e",
  "abi": [
    {
      "anonymous": false,
      "inputs": [
        {
          "indexed": true,
          "internalType": "uint256",
          "name": "orderId",
          "type": "uint256"
        },
        {
          "components": [
            {
              "components": [
                {
                  "internalType": "address",
                  "name": "trader",
                  "type": "address"
                },
                {
                  "internalType": "uint256",
                  "name": "pairIndex",
                  "type": "uint256"
                },
                {
                  "internalType": "uint256",
                  "name": "index",
                  "type": "uint256"
                },
                {
                  "internalType": "uint256",
                  "name": "initialPosToken",
                  "type": "uint256"
                },
                {
                  "internalType": "uint256",
                  "name": "positionSizeWETH",
                  "type": "uint256"
                },
                {
                  "internalType": "uint256",
                  "name": "openPrice",
                  "type": "uint256"
                },
                {
                  "internalType": "bool",
                  "name": "buy",
                  "type": "bool"
                },
                {
                  "internalType": "uint256",
                  "name": "leverage",
                  "type": "uint256"
                },
                {
                  "internalType": "uint256",
                  "name": "tp",
                  "type": "uint256"
                },
                {
                  "internalType": "uint256",
                  "name": "sl",
                  "type": "uint256"
                }
              ],
              "internalType": "struct StorageInterface.Trade",
              "name": "trade",
              "type": "tuple"
            },
            {
              "internalType": "uint256",
              "name": "block",
              "type": "uint256"
            },
            {
              "internalType": "uint256",
              "name": "wantedPrice",
              "type": "uint256"
            },
            {
              "internalType": "uint256",
              "name": "slippageP",
              "type": "uint256"
            },
            {
              "internalType": "uint256",
              "name": "spreadReductionP",
              "type": "uint256"
            },
            {
              "internalType": "uint256",
              "name": "tokenId",
              "type": "uint256"
            }
          ],
          "indexed": false,
          "internalType": "struct StorageInterface.PendingMarketOrder",
          "name": "order",
          "type": "tuple"
        }
      ],
      "name": "ChainlinkCallbackTimeout",
      "type": "event"
    },
    {
      "anonymous": false,
      "inputs": [
        {
          "indexed": true,
          "internalType": "address",
          "name": "trader",
          "type": "address"
        },
        {
          "indexed": true,
          "internalType": "uint256",
          "name": "pairIndex",
          "type": "uint256"
        },
        {
          "indexed": false,
          "internalType": "uint256",
          "name": "index",
          "type": "uint256"
        }
      ],
      "name": "CouldNotCloseTrade",
      "type": "event"
    },
    {
      "anonymous": false,
      "inputs": [
        {
          "indexed": false,
          "internalType": "bool",
          "name": "done",
          "type": "bool"
        }
      ],
      "name": "Done",
      "type": "event"
    },
    {
      "anonymous": false,
      "inputs": [
        {
          "indexed": false,
          "internalType": "uint8",
          "name": "version",
          "type": "uint8"
        }
      ],
      "name": "Initialized",
      "type": "event"
    },
    {
      "anonymous": false,
      "inputs": [
        {
          "indexed": true,
          "internalType": "uint256",
          "name": "orderId",
          "type": "uint256"
        },
        {
          "indexed": true,
          "internalType": "address",
          "name": "trader",
          "type": "address"
        },
        {
          "indexed": true,
          "internalType": "uint256",
          "name": "pairIndex",
          "type": "uint256"
        },
        {
          "indexed": false,
          "internalType": "bool",
          "name": "open",
          "type": "bool"
        }
      ],
      "name": "MarketOrderInitiated",
      "type": "event"
    },
    {
      "anonymous": false,
      "inputs": [
        {
          "indexed": false,
          "internalType": "uint256",
          "name": "orderId",
          "type": "uint256"
        },
        {
          "indexed": true,
          "internalType": "address",
          "name": "nftHolder",
          "type": "address"
        },
        {
          "indexed": true,
          "internalType": "address",
          "name": "trader",
          "type": "address"
        },
        {
          "indexed": true,
          "internalType": "uint256",
          "name": "pairIndex",
          "type": "uint256"
        }
      ],
      "name": "NftOrderInitiated",
      "type": "event"
    },
    {
      "anonymous": false,
      "inputs": [
        {
          "indexed": true,
          "internalType": "address",
          "name": "nftHolder",
          "type": "address"
        },
        {
          "indexed": true,
          "internalType": "address",
          "name": "trader",
          "type": "address"
        },
        {
          "indexed": true,
          "internalType": "uint256",
          "name": "pairIndex",
          "type": "uint256"
        }
      ],
      "name": "NftOrderSameBlock",
      "type": "event"
    },
    {
      "anonymous": false,
      "inputs": [
        {
          "indexed": false,
          "internalType": "string",
          "name": "name",
          "type": "string"
        },
        {
          "indexed": false,
          "internalType": "uint256",
          "name": "value",
          "type": "uint256"
        }
      ],
      "name": "NumberUpdated",
      "type": "event"
    },
    {
      "anonymous": false,
      "inputs": [
        {
          "indexed": true,
          "internalType": "address",
          "name": "trader",
          "type": "address"
        },
        {
          "indexed": true,
          "internalType": "uint256",
          "name": "pairIndex",
          "type": "uint256"
        },
        {
          "indexed": false,
          "internalType": "uint256",
          "name": "index",
          "type": "uint256"
        }
      ],
      "name": "OpenLimitCanceled",
      "type": "event"
    },
    {
      "anonymous": false,
      "inputs": [
        {
          "indexed": true,
          "internalType": "address",
          "name": "trader",
          "type": "address"
        },
        {
          "indexed": true,
          "internalType": "uint256",
          "name": "pairIndex",
          "type": "uint256"
        },
        {
          "indexed": false,
          "internalType": "uint256",
          "name": "index",
          "type": "uint256"
        }
      ],
      "name": "OpenLimitPlaced",
      "type": "event"
    },
    {
      "anonymous": false,
      "inputs": [
        {
          "indexed": true,
          "internalType": "address",
          "name": "trader",
          "type": "address"
        },
        {
          "indexed": true,
          "internalType": "uint256",
          "name": "pairIndex",
          "type": "uint256"
        },
        {
          "indexed": false,
          "internalType": "uint256",
          "name": "index",
          "type": "uint256"
        },
        {
          "indexed": false,
          "internalType": "uint256",
          "name": "newPrice",
          "type": "uint256"
        },
        {
          "indexed": false,
          "internalType": "uint256",
          "name": "newTp",
          "type": "uint256"
        },
        {
          "indexed": false,
          "internalType": "uint256",
          "name": "newSl",
          "type": "uint256"
        },
        {
          "indexed": false,
          "internalType": "uint256",
          "name": "maxSlippageP",
          "type": "uint256"
        }
      ],
      "name": "OpenLimitUpdated",
      "type": "event"
    },
    {
      "anonymous": false,
      "inputs": [
        {
          "indexed": false,
          "internalType": "bool",
          "name": "paused",
          "type": "bool"
        }
      ],
      "name": "Paused",
      "type": "event"
    },
    {
      "anonymous": false,
      "inputs": [
        {
          "indexed": true,
          "internalType": "address",
          "name": "trader",
          "type": "address"
        },
        {
          "indexed": true,
          "internalType": "uint256",
          "name": "pairIndex",
          "type": "uint256"
        },
        {
          "indexed": false,
          "internalType": "uint256",
          "name": "index",
          "type": "uint256"
        },
        {
          "indexed": false,
          "internalType": "uint256",
          "name": "newSl",
          "type": "uint256"
        }
      ],
      "name": "SlUpdated",
      "type": "event"
    },
    {
      "anonymous": false,
      "inputs": [
        {
          "indexed": true,
          "internalType": "address",
          "name": "trader",
          "type": "address"
        },
        {
          "indexed": true,
          "internalType": "uint256",
          "name": "pairIndex",
          "type": "uint256"
        },
        {
          "indexed": false,
          "internalType": "uint256",
          "name": "index",
          "type": "uint256"
        },
        {
          "indexed": false,
          "internalType": "uint256",
          "name": "newTp",
          "type": "uint256"
        }
      ],
      "name": "TpUpdated",
      "type": "event"
    },
    {
      "inputs": [],
      "name": "_msgSender",
      "outputs": [
        {
          "internalType": "address",
          "name": "",
          "type": "address"
        }
      ],
      "stateMutability": "view",
      "type": "function"
    },
    {
      "inputs": [],
      "name": "borrowingFees",
      "outputs": [
        {
          "internalType": "contract BorrowingFeesInterface",
          "name": "",
          "type": "address"
        }
      ],
      "stateMutability": "view",
      "type": "function"
    },
    {
      "inputs": [],
      "name": "callbacks",
      "outputs": [
        {
          "internalType": "contract CallbacksInterface",
          "name": "",
          "type": "address"
        }
      ],
      "stateMutability": "view",
      "type": "function"
    },
    {
      "inputs": [
        {
          "internalType": "uint256",
          "name": "pairIndex",
          "type": "uint256"
        },
        {
          "internalType": "uint256",
          "name": "index",
          "type": "uint256"
        }
      ],
      "name": "closeTradeMarket",
      "outputs": [],
      "stateMutability": "nonpayable",
      "type": "function"
    },
    {
      "inputs": [
        {
          "internalType": "address",
          "name": "trader",
          "type": "address"
        },
        {
          "internalType": "bytes",
          "name": "call_data",
          "type": "bytes"
        }
      ],
      "name": "delegatedAction",
      "outputs": [
        {
          "internalType": "bytes",
          "name": "",
          "type": "bytes"
        }
      ],
      "stateMutability": "nonpayable",
      "type": "function"
    },
    {
      "inputs": [
        {
          "internalType": "address",
          "name": "",
          "type": "address"
        }
      ],
      "name": "delegations",
      "outputs": [
        {
          "internalType": "address",
          "name": "",
          "type": "address"
        }
      ],
      "stateMutability": "view",
      "type": "function"
    },
    {
      "inputs": [],
      "name": "done",
      "outputs": [],
      "stateMutability": "nonpayable",
      "type": "function"
    },
    {
      "inputs": [
        {
          "internalType": "uint256",
          "name": "_orderType",
          "type": "uint256"
        },
        {
          "internalType": "address",
          "name": "trader",
          "type": "address"
        },
        {
          "internalType": "uint256",
          "name": "pairIndex",
          "type": "uint256"
        },
        {
          "internalType": "uint256",
          "name": "index",
          "type": "uint256"
        },
        {
          "internalType": "uint256",
          "name": "nftId",
          "type": "uint256"
        },
        {
          "internalType": "uint256",
          "name": "nftType",
          "type": "uint256"
        }
      ],
      "name": "executeLiquidation",
      "outputs": [],
      "stateMutability": "nonpayable",
      "type": "function"
    },
    {
      "inputs": [
        {
          "internalType": "uint256[100]",
          "name": "_orderTypes",
          "type": "uint256[100]"
        },
        {
          "internalType": "address[100]",
          "name": "traders",
          "type": "address[100]"
        },
        {
          "internalType": "uint256[100]",
          "name": "pairIndexs",
          "type": "uint256[100]"
        },
        {
          "internalType": "uint256[100]",
          "name": "indexs",
          "type": "uint256[100]"
        },
        {
          "internalType": "uint256",
          "name": "index",
          "type": "uint256"
        }
      ],
      "name": "executeLiquidations",
      "outputs": [],
      "stateMutability": "nonpayable",
      "type": "function"
    },
    {
      "inputs": [
        {
          "internalType": "contract StorageInterface",
          "name": "_storageT",
          "type": "address"
        },
        {
          "internalType": "contract NftRewardsInterfaceV6_3_1",
          "name": "_nftRewards",
          "type": "address"
        },
        {
          "internalType": "contract PairInfosInterface",
          "name": "_pairInfos",
          "type": "address"
        },
        {
          "internalType": "contract ReferralsInterface",
          "name": "_referrals",
          "type": "address"
        },
        {
          "internalType": "contract BorrowingFeesInterface",
          "name": "_borrowingFees",
          "type": "address"
        },
        {
          "internalType": "contract CallbacksInterface",
          "name": "_callbacks",
          "type": "address"
        },
        {
          "internalType": "uint256",
          "name": "_maxPosWETH",
          "type": "uint256"
        },
        {
          "internalType": "uint256",
          "name": "_marketOrdersTimeout",
          "type": "uint256"
        }
      ],
      "name": "initialize",
      "outputs": [],
      "stateMutability": "nonpayable",
      "type": "function"
    },
    {
      "inputs": [],
      "name": "isDone",
      "outputs": [
        {
          "internalType": "bool",
          "name": "",
          "type": "bool"
        }
      ],
      "stateMutability": "view",
      "type": "function"
    },
    {
      "inputs": [],
      "name": "isPaused",
      "outputs": [
        {
          "internalType": "bool",
          "name": "",
          "type": "bool"
        }
      ],
      "stateMutability": "view",
      "type": "function"
    },
    {
      "inputs": [
        {
          "internalType": "address",
          "name": "trader",
          "type": "address"
        },
        {
          "internalType": "uint256",
          "name": "pairIndex",
          "type": "uint256"
        },
        {
          "internalType": "uint256",
          "name": "index",
          "type": "uint256"
        }
      ],
      "name": "isTradeLiquidatable",
      "outputs": [
        {
          "internalType": "bool",
          "name": "",
          "type": "bool"
        }
      ],
      "stateMutability": "view",
      "type": "function"
    },
    {
      "inputs": [
        {
          "components": [
            {
              "internalType": "address",
              "name": "trader",
              "type": "address"
            },
            {
              "internalType": "uint256",
              "name": "pairIndex",
              "type": "uint256"
            },
            {
              "internalType": "uint256",
              "name": "index",
              "type": "uint256"
            },
            {
              "internalType": "uint256",
              "name": "initialPosToken",
              "type": "uint256"
            },
            {
              "internalType": "uint256",
              "name": "positionSizeWETH",
              "type": "uint256"
            },
            {
              "internalType": "uint256",
              "name": "openPrice",
              "type": "uint256"
            },
            {
              "internalType": "bool",
              "name": "buy",
              "type": "bool"
            },
            {
              "internalType": "uint256",
              "name": "leverage",
              "type": "uint256"
            },
            {
              "internalType": "uint256",
              "name": "tp",
              "type": "uint256"
            },
            {
              "internalType": "uint256",
              "name": "sl",
              "type": "uint256"
            }
          ],
          "internalType": "struct StorageInterface.Trade",
          "name": "t",
          "type": "tuple"
        }
      ],
      "name": "isTradeLiquidatablePure",
      "outputs": [
        {
          "internalType": "bool",
          "name": "",
          "type": "bool"
        },
        {
          "internalType": "bool",
          "name": "",
          "type": "bool"
        }
      ],
      "stateMutability": "view",
      "type": "function"
    },
    {
      "inputs": [
        {
          "internalType": "address",
          "name": "trader",
          "type": "address"
        },
        {
          "internalType": "uint256",
          "name": "pairIndex",
          "type": "uint256"
        },
        {
          "internalType": "uint256",
          "name": "index",
          "type": "uint256"
        }
      ],
      "name": "isTradeParLiquidatable",
      "outputs": [
        {
          "internalType": "bool",
          "name": "",
          "type": "bool"
        }
      ],
      "stateMutability": "view",
      "type": "function"
    },
    {
      "inputs": [
        {
          "components": [
            {
              "internalType": "address",
              "name": "trader",
              "type": "address"
            },
            {
              "internalType": "uint256",
              "name": "pairIndex",
              "type": "uint256"
            },
            {
              "internalType": "uint256",
              "name": "index",
              "type": "uint256"
            },
            {
              "internalType": "uint256",
              "name": "initialPosToken",
              "type": "uint256"
            },
            {
              "internalType": "uint256",
              "name": "positionSizeWETH",
              "type": "uint256"
            },
            {
              "internalType": "uint256",
              "name": "openPrice",
              "type": "uint256"
            },
            {
              "internalType": "bool",
              "name": "buy",
              "type": "bool"
            },
            {
              "internalType": "uint256",
              "name": "leverage",
              "type": "uint256"
            },
            {
              "internalType": "uint256",
              "name": "tp",
              "type": "uint256"
            },
            {
              "internalType": "uint256",
              "name": "sl",
              "type": "uint256"
            }
          ],
          "internalType": "struct StorageInterface.Trade",
          "name": "t",
          "type": "tuple"
        }
      ],
      "name": "isTradeParLiquidatablePure",
      "outputs": [
        {
          "internalType": "bool",
          "name": "",
          "type": "bool"
        },
        {
          "internalType": "bool",
          "name": "",
          "type": "bool"
        }
      ],
      "stateMutability": "view",
      "type": "function"
    },
    {
      "inputs": [],
      "name": "marketOrdersTimeout",
      "outputs": [
        {
          "internalType": "uint256",
          "name": "",
          "type": "uint256"
        }
      ],
      "stateMutability": "view",
      "type": "function"
    },
    {
      "inputs": [],
      "name": "maxPosWETH",
      "outputs": [
        {
          "internalType": "uint256",
          "name": "",
          "type": "uint256"
        }
      ],
      "stateMutability": "view",
      "type": "function"
    },
    {
      "inputs": [],
      "name": "minLeveragedPosWETH",
      "outputs": [
        {
          "internalType": "int256",
          "name": "",
          "type": "int256"
        }
      ],
      "stateMutability": "view",
      "type": "function"
    },
    {
      "inputs": [],
      "name": "nftRewards",
      "outputs": [
        {
          "internalType": "contract NftRewardsInterfaceV6_3_1",
          "name": "",
          "type": "address"
        }
      ],
      "stateMutability": "view",
      "type": "function"
    },
    {
      "inputs": [
        {
          "components": [
            {
              "internalType": "address",
              "name": "trader",
              "type": "address"
            },
            {
              "internalType": "uint256",
              "name": "pairIndex",
              "type": "uint256"
            },
            {
              "internalType": "uint256",
              "name": "index",
              "type": "uint256"
            },
            {
              "internalType": "uint256",
              "name": "initialPosToken",
              "type": "uint256"
            },
            {
              "internalType": "uint256",
              "name": "positionSizeWETH",
              "type": "uint256"
            },
            {
              "internalType": "uint256",
              "name": "openPrice",
              "type": "uint256"
            },
            {
              "internalType": "bool",
              "name": "buy",
              "type": "bool"
            },
            {
              "internalType": "uint256",
              "name": "leverage",
              "type": "uint256"
            },
            {
              "internalType": "uint256",
              "name": "tp",
              "type": "uint256"
            },
            {
              "internalType": "uint256",
              "name": "sl",
              "type": "uint256"
            }
          ],
          "internalType": "struct StorageInterface.Trade",
          "name": "t",
          "type": "tuple"
        },
        {
          "internalType": "enum NftRewardsInterfaceV6_3_1.OpenLimitOrderType",
          "name": "orderType",
          "type": "uint8"
        },
        {
          "internalType": "uint256",
          "name": "spreadReductionId",
          "type": "uint256"
        },
        {
          "internalType": "uint256",
          "name": "slippageP",
          "type": "uint256"
        }
      ],
      "name": "openTrade",
      "outputs": [],
      "stateMutability": "nonpayable",
      "type": "function"
    },
    {
      "inputs": [],
      "name": "pairInfos",
      "outputs": [
        {
          "internalType": "contract PairInfosInterface",
          "name": "",
          "type": "address"
        }
      ],
      "stateMutability": "view",
      "type": "function"
    },
    {
      "inputs": [],
      "name": "pause",
      "outputs": [],
      "stateMutability": "nonpayable",
      "type": "function"
    },
    {
      "inputs": [],
      "name": "referrals",
      "outputs": [
        {
          "internalType": "contract ReferralsInterface",
          "name": "",
          "type": "address"
        }
      ],
      "stateMutability": "view",
      "type": "function"
    },
    {
      "inputs": [],
      "name": "removeDelegate",
      "outputs": [],
      "stateMutability": "nonpayable",
      "type": "function"
    },
    {
      "inputs": [
        {
          "internalType": "address",
          "name": "delegate",
          "type": "address"
        }
      ],
      "name": "setDelegate",
      "outputs": [],
      "stateMutability": "nonpayable",
      "type": "function"
    },
    {
      "inputs": [
        {
          "internalType": "uint256",
          "name": "value",
          "type": "uint256"
        }
      ],
      "name": "setMarketOrdersTimeout",
      "outputs": [],
      "stateMutability": "nonpayable",
      "type": "function"
    },
    {
      "inputs": [
        {
          "internalType": "uint256",
          "name": "value",
          "type": "uint256"
        }
      ],
      "name": "setMaxPosWETH",
      "outputs": [],
      "stateMutability": "nonpayable",
      "type": "function"
    },
    {
      "inputs": [],
      "name": "storageT",
      "outputs": [
        {
          "internalType": "contract StorageInterface",
          "name": "",
          "type": "address"
        }
      ],
      "stateMutability": "view",
      "type": "function"
    },
    {
      "inputs": [
        {
          "internalType": "uint256",
          "name": "pairIndex",
          "type": "uint256"
        },
        {
          "internalType": "uint256",
          "name": "index",
          "type": "uint256"
        },
        {
          "internalType": "uint256",
          "name": "newSl",
          "type": "uint256"
        }
      ],
      "name": "updateSl",
      "outputs": [],
      "stateMutability": "nonpayable",
      "type": "function"
    },
    {
      "inputs": [
        {
          "internalType": "uint256",
          "name": "pairIndex",
          "type": "uint256"
        },
        {
          "internalType": "uint256",
          "name": "index",
          "type": "uint256"
        },
        {
          "internalType": "uint256",
          "name": "newTp",
          "type": "uint256"
        }
      ],
      "name": "updateTp",
      "outputs": [],
      "stateMutability": "nonpayable",
      "type": "function"
    }
  ],
  "transactionHash": "0x52503c93ce1034160367fb99f295f6e37588f7b96092dd759d31174415054c4f",
  "args": [],
  "numDeployments": 2,
  "solcInputHash": "5e28ac8f4e0ba9fb55d9b76e74607fb0",
  "bytecode": "0x6080604052678ac7230489e80000600a5534801561001c57600080fd5b506141368061002c6000396000f3fe608060405234801561001057600080fd5b50600436106101a45760003560e01c80638f062227116100ef578063b81bfa0511610092578063b81bfa0514610388578063be73fb991461039b578063bffe3486146103ae578063c740671f146103d7578063ca5eb5e1146103ea578063d3dc7539146103fd578063d8defd1514610410578063ff22dcac1461042357600080fd5b80638f062227146103095780639a10cc321461031b5780639a54adba1461033b578063a2a3c0cb14610344578063ae8421e114610357578063b187bd261461035f578063b1dfd5301461036c578063b35416991461037557600080fd5b806340b615971161015757806340b6159714610251578063410c0b7c1461027b578063531cc965146102925780635ad9f993146102a557806368cd5088146102b85780636b5bd974146102cb5780638456cb59146102de578063870f91d9146102e657600080fd5b8062b12783146101a9578063119df25f146101d95780631346b0ff146101e157806316fff074146101f4578063192a48f5146102075780632c1e4e551461021c57806336fb8b151461022f575b600080fd5b6007546101bc906001600160a01b031681565b6040516001600160a01b0390911681526020015b60405180910390f35b6101bc610436565b6004546101bc906001600160a01b031681565b6002546101bc906001600160a01b031681565b61021a6102153660046134be565b61045e565b005b61021a61022a36600461350e565b610cb5565b61021a33600090815260208190526040902080546001600160a01b0319169055565b61026461025f366004613637565b610d3d565b6040805192151583529015156020830152016101d0565b61028460095481565b6040519081526020016101d0565b6006546101bc906001600160a01b031681565b6003546101bc906001600160a01b031681565b61021a6102c6366004613654565b610f7e565b6102646102d9366004613637565b611ba2565b61021a611c58565b6102f96102f43660046136a1565b611cae565b60405190151581526020016101d0565b600b546102f990610100900460ff1681565b61032e6103293660046136d6565b611e51565b6040516101d091906137ab565b610284600a5481565b61021a6103523660046137be565b611f8c565b61021a6124da565b600b546102f99060ff1681565b61028460085481565b61021a610383366004613831565b61253a565b61021a61039636600461350e565b6125c4565b61021a6103a93660046138db565b61264e565b6101bc6103bc366004613907565b6000602081905290815260409020546001600160a01b031681565b61021a6103e5366004613924565b61295f565b61021a6103f8366004613907565b612bb6565b6005546101bc906001600160a01b031681565b61021a61041e3660046138db565b612c22565b6102f96104313660046136a1565b612e8c565b6001546000906001600160a01b031661044e57503390565b506001546001600160a01b031690565b610466612f40565b600086600481111561047a5761047a6139b9565b90506000610486610436565b90506000600383600481111561049e5761049e6139b9565b1490506000816104af5760006104b2565b60015b905061051560405180610140016040528060006001600160a01b0316815260200160008152602001600081526020016000815260200160008152602001600081526020016000151581526020016000815260200160008152602001600081525090565b82156105745760405162461bcd60e51b815260206004820152602360248201527f4f70656e204c696d6974206f7264657273206e6f7420737570706f72746564206044820152621e595d60ea1b60648201526084015b60405180910390fd5b6002546040516302a0a1cb60e41b81526001600160a01b0390911690632a0a1cb0906105a8908d908d908d906004016139cf565b61014060405180830381865afa1580156105c6573d6000803e3d6000fd5b505050506040513d601f19601f820116820180604052508101906105ea9190613a06565b905060008160e00151116106105760405162461bcd60e51b815260040161056b90613a98565b6002856004811115610624576106246139b9565b03610758576000600660009054906101000a90046001600160a01b03166001600160a01b031663706faf3a6040518060e0016040528085600001516001600160a01b0316815260200185602001518152602001856040015181526020018560a0015181526020018560c0015115158152602001856080015181526020018560e001518152506040518263ffffffff1660e01b81526004016106c59190613aba565b602060405180830381865afa1580156106e2573d6000803e3d6000fd5b505050506040513d601f19601f820116820180604052508101906107069190613b0e565b90508161012001516000148061073657508160c0015161072d578161012001518110610736565b81610120015181115b6107525760405162461bcd60e51b815260040161056b90613b27565b50610a60565b600485600481111561076c5761076c6139b9565b036109ac576000600660009054906101000a90046001600160a01b03166001600160a01b03166364d372c66040518060e0016040528085600001516001600160a01b0316815260200185602001518152602001856040015181526020018560a0015181526020018560c0015115158152602001856080015181526020018560e001518152506040518263ffffffff1660e01b815260040161080d9190613aba565b602060405180830381865afa15801561082a573d6000803e3d6000fd5b505050506040513d601f19601f8201168201806040525081019061084e9190613b0e565b90508161012001516000148061087e57508160c0015161087557816101200151811061087e565b81610120015181115b61089a5760405162461bcd60e51b815260040161056b90613b27565b6007548251602084015160408086015190516304ec194160e21b81526000946001600160a01b0316936313b06504936108da9391929091906004016139cf565b602060405180830381865afa1580156108f7573d6000803e3d6000fd5b505050506040513d601f19601f8201168201806040525081019061091b9190613b0e565b9050600081846080015161092f9190613b5d565b9050600a548460e00151826109449190613b85565b12156109a45760405162461bcd60e51b815260206004820152602960248201527f706f736974696f6e20746f20736d616c6c20666f72207061727469616c206c6960448201526838bab4b230ba34b7b760b91b606482015260840161056b565b505050610a60565b60018560048111156109c0576109c06139b9565b1415806109d257506000816101200151115b610a065760405162461bcd60e51b81526020600482015260056024820152641393d7d4d360da1b604482015260640161056b565b6000856004811115610a1a57610a1a6139b9565b141580610a2c57506000816101000151115b610a605760405162461bcd60e51b815260206004820152600560248201526404e4f5f54560dc1b604482015260640161056b565b600083610a7e578160e001518260800151610a7b9190613bb5565b90505b6000610a8f858d8d8d888c88612f83565b509050610ac86040805160c08101825260008082526020820181905291810182905260608101829052608081018290529060a082015290565b6001600160a01b038088168252602082018b90528d166040820152606081018c9052608081018b905260a08101886004811115610b0757610b076139b9565b90816004811115610b1a57610b1a6139b9565b90525060025460405163205fe86960e21b81526001600160a01b039091169063817fa1a490610b4f9084908690600401613c24565b600060405180830381600087803b158015610b6957600080fd5b505af1158015610b7d573d6000803e3d6000fd5b50505050600260009054906101000a90046001600160a01b03166001600160a01b0316633078fff56040518163ffffffff1660e01b8152600401602060405180830381865afa158015610bd4573d6000803e3d6000fd5b505050506040513d601f19601f82011682018060405250810190610bf89190613c3f565b6001600160a01b03166339fe9fd283836040518363ffffffff1660e01b8152600401610c25929190613c5c565b600060405180830381600087803b158015610c3f57600080fd5b505af1158015610c53573d6000803e3d6000fd5b505050508b8d6001600160a01b0316886001600160a01b03167f6d87222414c5850caf1d385b1e080a771b505825b082a2162d0f4af5ffc86c0085604051610c9d91815260200190565b60405180910390a45050505050505050505050505050565b610cbd6131d7565b60008111610cdd5760405162461bcd60e51b815260040161056b90613c70565b600881905560408051818152600a91810191909152690dac2f0a0dee6ae8aa8960b31b6060820152602081018290527f8cf3e35f6221b16e1670a3413180c9484bf5aa71787905909fa82a6a2662e9ab906080015b60405180910390a150565b6000808260e00151600003610d5757506000928392509050565b6000600660009054906101000a90046001600160a01b03166001600160a01b03166364d372c66040518060e0016040528087600001516001600160a01b0316815260200187602001518152602001876040015181526020018760a0015181526020018760c0015115158152602001876080015181526020018760e001518152506040518263ffffffff1660e01b8152600401610df39190613aba565b602060405180830381865afa158015610e10573d6000803e3d6000fd5b505050506040513d601f19601f82011682018060405250810190610e349190613b0e565b9050600080600260009054906101000a90046001600160a01b03166001600160a01b0316637dc0d1d06040518163ffffffff1660e01b8152600401602060405180830381865afa158015610e8c573d6000803e3d6000fd5b505050506040513d601f19601f82011682018060405250810190610eb09190613c3f565b6001600160a01b031663e757223087602001516040518263ffffffff1660e01b8152600401610ee191815260200190565b6040805180830381865afa158015610efd573d6000803e3d6000fd5b505050506040513d601f19601f82011682018060405250810190610f219190613c91565b91509150600086610120015160001480610f5557508660c00151610f4c578661012001518410610f55565b86610120015184115b905060008760c00151610f6b5784841015610f70565b848411155b989197509095505050505050565b610f86613299565b610f8e612f40565b600b5460ff1615610fca5760405162461bcd60e51b815260206004820152600660248201526514105554d15160d21b604482015260640161056b565b600019818560a00151610fdd9190613bb5565b106110155760405162461bcd60e51b81526020600482015260086024820152674f564552464c4f5760c01b604482015260640161056b565b60008460a00151116110565760405162461bcd60e51b815260206004820152600a60248201526950524943455f5a45524f60b01b604482015260640161056b565b60025460408051633078fff560e01b815290516000926001600160a01b031691633078fff59160048083019260209291908290030181865afa1580156110a0573d6000803e3d6000fd5b505050506040513d601f19601f820116820180604052508101906110c49190613c3f565b90506000816001600160a01b03166335b03c176040518163ffffffff1660e01b8152600401602060405180830381865afa158015611106573d6000803e3d6000fd5b505050506040513d601f19601f8201168201806040525081019061112a9190613c3f565b90506000611136610436565b9050600260009054906101000a90046001600160a01b03166001600160a01b031663f65d9dbe6040518163ffffffff1660e01b8152600401602060405180830381865afa15801561118b573d6000803e3d6000fd5b505050506040513d601f19601f820116820180604052508101906111af9190613b0e565b6002546020890151604051634bf3ccad60e11b81526001600160a01b03909216916397e7995a916111e591869190600401613cb5565b602060405180830381865afa158015611202573d6000803e3d6000fd5b505050506040513d601f19601f820116820180604052508101906112269190613b0e565b60025460208a0151604051639c8912f160e01b81526001600160a01b0390921691639c8912f19161125c91879190600401613cb5565b602060405180830381865afa158015611279573d6000803e3d6000fd5b505050506040513d601f19601f8201168201806040525081019061129d9190613b0e565b60025460208b01516040516307218dad60e21b81526001600160a01b0390921691631c8636b4916112d391889190600401613cb5565b602060405180830381865afa1580156112f0573d6000803e3d6000fd5b505050506040513d601f19601f820116820180604052508101906113149190613b0e565b61131e9190613cce565b6113289190613cce565b1061136b5760405162461bcd60e51b815260206004820152601360248201527226a0ac2faa2920a222a9afa822a92fa820a4a960691b604482015260640161056b565b600260009054906101000a90046001600160a01b03166001600160a01b0316638049fde76040518163ffffffff1660e01b8152600401602060405180830381865afa1580156113be573d6000803e3d6000fd5b505050506040513d601f19601f820116820180604052508101906113e29190613b0e565b60025460405163f7b3c6fd60e01b81526001600160a01b0384811660048301529091169063f7b3c6fd90602401602060405180830381865afa15801561142c573d6000803e3d6000fd5b505050506040513d601f19601f820116820180604052508101906114509190613b0e565b1061146d5760405162461bcd60e51b815260040161056b90613ce1565b600854876080015111156114b35760405162461bcd60e51b815260206004820152600d60248201526c41424f56455f4d41585f504f5360981b604482015260640161056b565b602087015160405163601e3b6b60e11b815260048101919091526001600160a01b0383169063c03c76d690602401602060405180830381865afa1580156114fe573d6000803e3d6000fd5b505050506040513d601f19601f820116820180604052508101906115229190613b0e565b8760e0015188608001516115369190613bb5565b10156115745760405162461bcd60e51b815260206004820152600d60248201526c42454c4f575f4d494e5f504f5360981b604482015260640161056b565b60008760e001511180156115fa5750602087015160405163059a992d60e41b815260048101919091526001600160a01b038316906359a992d090602401602060405180830381865afa1580156115ce573d6000803e3d6000fd5b505050506040513d601f19601f820116820180604052508101906115f29190613b0e565b8760e0015110155b8015611617575061160f8288602001516132a5565b8760e0015111155b6116585760405162461bcd60e51b815260206004820152601260248201527113115591549051d157d25390d3d4949150d560721b604482015260640161056b565b610100870151158061168c57508660c0015161167f578660a001518761010001511061168c565b8660a00151876101000151115b6116c35760405162461bcd60e51b8152602060048201526008602482015267057524f4e475f54560c41b604482015260640161056b565b61012087015115806116f757508660c001516116ea578660a00151876101200151116116f7565b8660a00151876101200151105b61172e5760405162461bcd60e51b815260206004820152600860248201526715d493d391d7d4d360c21b604482015260640161056b565b600454602088015160c089015160e08a015160808b01516000946001600160a01b031693637ea95f329386939192909161176791613bb5565b6040516001600160e01b031960e087901b168152600481019490945260248401929092521515604483015260648201526084016040805180830381865afa1580156117b6573d6000803e3d6000fd5b505050506040513d601f19601f820116820180604052508101906117da9190613c91565b509050600460009054906101000a90046001600160a01b03166001600160a01b03166380f6cfc26040518163ffffffff1660e01b8152600401602060405180830381865afa158015611830573d6000803e3d6000fd5b505050506040513d601f19601f820116820180604052508101906118549190613b0e565b60e08901516118639083613bb5565b11156118a95760405162461bcd60e51b81526020600482015260156024820152740a0a492868abe929aa08286a8bea89e9ebe90928e9605b1b604482015260640161056b565b6002546080890151604051638a238ae560e01b81526001600160a01b03858116600483015290921660248301819052604483019190915290638a238ae590606401600060405180830381600087803b15801561190457600080fd5b505af1158015611918573d6000803e3d6000fd5b5060009250611925915050565b876002811115611937576119376139b9565b03611b98576000846001600160a01b0316636938c05d8a6020015160008c60e001518d608001516119689190613bb5565b611970613410565b6040518563ffffffff1660e01b815260040161198f9493929190613d21565b6020604051808303816000875af11580156119ae573d6000803e3d6000fd5b505050506040513d601f19601f820116820180604052508101906119d29190613b0e565b9050600260009054906101000a90046001600160a01b03166001600160a01b0316633078fff56040518163ffffffff1660e01b8152600401602060405180830381865afa158015611a27573d6000803e3d6000fd5b505050506040513d601f19601f82011682018060405250810190611a4b9190613c3f565b6001600160a01b0316638f93b660826040518060c00160405280604051806101400160405280896001600160a01b031681526020018f60200151815260200160008152602001600081526020018f608001518152602001600081526020018f60c00151151581526020018f60e0015181526020018f610100015181526020018f61012001518152508152602001600081526020018d60a0015181526020018a81526020016000815260200160008152506040518363ffffffff1660e01b8152600401611b18929190613d47565b600060405180830381600087803b158015611b3257600080fd5b505af1158015611b46573d6000803e3d6000fd5b505050508860200151836001600160a01b0316827f3e544118c04e3bb18b669475695cd270ba0e41fb13177483f01c14222de62a866001604051611b8e911515815260200190565b60405180910390a4505b5050505050505050565b6000808260e00151600003611bbc57506000928392509050565b6000600660009054906101000a90046001600160a01b03166001600160a01b031663706faf3a6040518060e0016040528087600001516001600160a01b0316815260200187602001518152602001876040015181526020018760a0015181526020018760c0015115158152602001876080015181526020018760e001518152506040518263ffffffff1660e01b8152600401610df39190613aba565b611c606131d7565b600b805460ff8082161560ff1990921682179092556040519116151581527f0e2fb031ee032dc02d8011dc50b816eb450cf856abd8261680dac74f72165bd2906020015b60405180910390a1565b6002546040516302a0a1cb60e41b815260009182916001600160a01b0390911690632a0a1cb090611ce7908890889088906004016139cf565b61014060405180830381865afa158015611d05573d6000803e3d6000fd5b505050506040513d601f19601f82011682018060405250810190611d299190613a06565b9050600080600260009054906101000a90046001600160a01b03166001600160a01b0316637dc0d1d06040518163ffffffff1660e01b8152600401602060405180830381865afa158015611d81573d6000803e3d6000fd5b505050506040513d601f19601f82011682018060405250810190611da59190613c3f565b6001600160a01b031663e7572230876040518263ffffffff1660e01b8152600401611dd291815260200190565b6040805180830381865afa158015611dee573d6000803e3d6000fd5b505050506040513d601f19601f82011682018060405250810190611e129190613c91565b91509150600080611e2285610d3d565b9150915080611e435760405162461bcd60e51b815260040161056b90613b27565b5093505050505b9392505050565b6001600160a01b03838116600090815260208190526040902054606091163314611eb55760405162461bcd60e51b81526020600482015260156024820152741111531151d0551157d393d517d054141493d59151605a1b604482015260640161056b565b600180546001600160a01b0319166001600160a01b03861617905560405160009081903090611ee79087908790613e0a565b600060405180830381855af49150503d8060008114611f22576040519150601f19603f3d011682016040523d82523d6000602084013e611f27565b606091505b509150915081611f7357604481511015611f4057600080fd5b60048101905080806020019051810190611f5a9190613e1a565b60405162461bcd60e51b815260040161056b91906137ab565b600180546001600160a01b031916905595945050505050565b611f94613299565b611f9c612f40565b6000611fa6610436565b6002546040516302a0a1cb60e41b81529192506000916001600160a01b0390911690632a0a1cb090611fe0908590889088906004016139cf565b61014060405180830381865afa158015611ffe573d6000803e3d6000fd5b505050506040513d601f19601f820116820180604052508101906120229190613a06565b600254604051637728fb1b60e11b81529192506000916001600160a01b039091169063ee51f6369061205c908690899089906004016139cf565b60c060405180830381865afa158015612079573d6000803e3d6000fd5b505050506040513d601f19601f8201168201806040525081019061209d9190613ec7565b9050600260009054906101000a90046001600160a01b03166001600160a01b0316638049fde76040518163ffffffff1660e01b8152600401602060405180830381865afa1580156120f2573d6000803e3d6000fd5b505050506040513d601f19601f820116820180604052508101906121169190613b0e565b60025460405163f7b3c6fd60e01b81526001600160a01b0386811660048301529091169063f7b3c6fd90602401602060405180830381865afa158015612160573d6000803e3d6000fd5b505050506040513d601f19601f820116820180604052508101906121849190613b0e565b106121a15760405162461bcd60e51b815260040161056b90613ce1565b8060a00151156121ea5760405162461bcd60e51b81526020600482015260146024820152731053149150511657d091525391d7d0d313d4d15160621b604482015260640161056b565b60008260e001511161220e5760405162461bcd60e51b815260040161056b90613a98565b60025460408051633078fff560e01b815290516000926001600160a01b031691633078fff59160048083019260209291908290030181865afa158015612258573d6000803e3d6000fd5b505050506040513d601f19601f8201168201806040525081019061227c9190613c3f565b6001600160a01b0316636938c05d8760016402540be4008760e00151876020015189606001516122ac9190613bb5565b6122b69190613bb5565b6122c09190613f47565b6122c8613410565b6040518563ffffffff1660e01b81526004016122e79493929190613d21565b6020604051808303816000875af1158015612306573d6000803e3d6000fd5b505050506040513d601f19601f8201168201806040525081019061232a9190613b0e565b9050600260009054906101000a90046001600160a01b03166001600160a01b0316633078fff56040518163ffffffff1660e01b8152600401602060405180830381865afa15801561237f573d6000803e3d6000fd5b505050506040513d601f19601f820116820180604052508101906123a39190613c3f565b6001600160a01b0316638f93b660826040518060c001604052806040518061014001604052808a6001600160a01b031681526020018c81526020018b81526020016000815260200160008152602001600081526020016000151581526020016000815260200160008152602001600081525081526020016000815260200160008152602001600081526020016000815260200160008152506040518363ffffffff1660e01b8152600401612458929190613d47565b600060405180830381600087803b15801561247257600080fd5b505af1158015612486573d6000803e3d6000fd5b5050505085846001600160a01b0316827f3e544118c04e3bb18b669475695cd270ba0e41fb13177483f01c14222de62a8660006040516124ca911515815260200190565b60405180910390a4505050505050565b6124e26131d7565b600b805460ff610100808304821615810261ff001990931692909217928390556040517fc3a6f986261de9467c2838c6df8ef74f9107855159205600c0bc7a14cdfd388893611ca49390049091161515815260200190565b612542612f40565b60005b818110156125bc576125b486826064811061256257612562613f69565b602002015186836064811061257957612579613f69565b602002015186846064811061259057612590613f69565b60200201518685606481106125a7576125a7613f69565b602002015160018061045e565b600101612545565b505050505050565b6125cc6131d7565b600081116125ec5760405162461bcd60e51b815260040161056b90613c70565b600981905560408051818152601391810191909152721b585c9ad95d13dc99195c9cd51a5b595bdd5d606a1b6060820152602081018290527f8cf3e35f6221b16e1670a3413180c9484bf5aa71787905909fa82a6a2662e9ab90608001610d32565b612656613299565b61265e612f40565b6000612668610436565b6002546040516302a0a1cb60e41b81529192506000916001600160a01b0390911690632a0a1cb0906126a2908590899089906004016139cf565b61014060405180830381865afa1580156126c0573d6000803e3d6000fd5b505050506040513d601f19601f820116820180604052508101906126e49190613a06565b905060008160e001511161270a5760405162461bcd60e51b815260040161056b90613a98565b60008160e001516064604b8460a001516127249190613bb5565b61272e9190613f47565b6127389190613f47565b905083158061277757508160c0015161276357808260a0015161275b9190613cce565b841115612777565b808260a001516127739190613f7f565b8410155b6127b05760405162461bcd60e51b815260206004820152600a602482015269534c5f544f4f5f42494760b01b604482015260640161056b565b60025460405163a354418160e01b81526001600160a01b039091169063a3544181906127e69086908a908a908a90600401613f92565b600060405180830381600087803b15801561280057600080fd5b505af1158015612814573d6000803e3d6000fd5b50505050600260009054906101000a90046001600160a01b03166001600160a01b031662b127836040518163ffffffff1660e01b8152600401602060405180830381865afa15801561286a573d6000803e3d6000fd5b505050506040513d601f19601f8201168201806040525081019061288e9190613c3f565b6001600160a01b0316737AF7e5081CeB3fE631d1B011ffeb22a9E5111260633c63a7d0909185898960006128c0613410565b6040518763ffffffff1660e01b81526004016128e196959493929190613fc8565b60006040518083038186803b1580156128f957600080fd5b505af415801561290d573d6000803e3d6000fd5b505060408051888152602081018890528993506001600160a01b03871692507f1fc4a6c7ffe506697979b8ed54dc4135cd1ecd26a2745f70b760a2492222b316910160405180910390a3505050505050565b600154600160a81b900460ff1615808015612985575060018054600160a01b900460ff16105b806129a55750303b1580156129a5575060018054600160a01b900460ff16145b612a085760405162461bcd60e51b815260206004820152602e60248201527f496e697469616c697a61626c653a20636f6e747261637420697320616c72656160448201526d191e481a5b9a5d1a585b1a5e995960921b606482015260840161056b565b6001805460ff60a01b1916600160a01b1790558015612a35576001805460ff60a81b1916600160a81b1790555b6001600160a01b03891615801590612a5557506001600160a01b03881615155b8015612a6957506001600160a01b03871615155b8015612a7d57506001600160a01b03861615155b8015612a9157506001600160a01b03851615155b8015612aa557506001600160a01b03841615155b8015612ab15750600083115b8015612abd5750600082115b612af85760405162461bcd60e51b815260206004820152600c60248201526b57524f4e475f504152414d5360a01b604482015260640161056b565b600280546001600160a01b03199081166001600160a01b038c8116919091179092556003805482168b84161790556004805482168a841617905560058054821689841617905560068054821688841617905560088590556009849055600780549091169186169190911790558015612bab576001805460ff60a81b191681556040519081527f7f26b83ff96e1f2b6a682f133852f6798a09c465da95921460cefb38474024989060200160405180910390a15b505050505050505050565b323314612bf35760405162461bcd60e51b815260206004820152600b60248201526a1393d7d0d3d395149050d560aa1b604482015260640161056b565b33600090815260208190526040902080546001600160a01b0319166001600160a01b0392909216919091179055565b612c2a613299565b612c32612f40565b6000612c3c610436565b6002546040516302a0a1cb60e41b81529192506000916001600160a01b0390911690632a0a1cb090612c76908590899089906004016139cf565b61014060405180830381865afa158015612c94573d6000803e3d6000fd5b505050506040513d601f19601f82011682018060405250810190612cb89190613a06565b905060008160e0015111612cde5760405162461bcd60e51b815260040161056b90613a98565b600254604051637fdb96f360e01b81526001600160a01b0390911690637fdb96f390612d14908590899089908990600401613f92565b600060405180830381600087803b158015612d2e57600080fd5b505af1158015612d42573d6000803e3d6000fd5b50505050600260009054906101000a90046001600160a01b03166001600160a01b031662b127836040518163ffffffff1660e01b8152600401602060405180830381865afa158015612d98573d6000803e3d6000fd5b505050506040513d601f19601f82011682018060405250810190612dbc9190613c3f565b6001600160a01b0316737AF7e5081CeB3fE631d1B011ffeb22a9E5111260638fff7d8290918488886000612dee613410565b6040518763ffffffff1660e01b8152600401612e0f96959493929190613fc8565b60006040518083038186803b158015612e2757600080fd5b505af4158015612e3b573d6000803e3d6000fd5b505060408051878152602081018790528893506001600160a01b03861692507f7e06a81c7a47891ccc7455b5ccb2ed850e32bb655ccda67eb3ebaaeed83242a4910160405180910390a35050505050565b6002546040516302a0a1cb60e41b815260009182916001600160a01b0390911690632a0a1cb090612ec5908890889088906004016139cf565b61014060405180830381865afa158015612ee3573d6000803e3d6000fd5b505050506040513d601f19601f82011682018060405250810190612f079190613a06565b9050600080612f1583611ba2565b9150915080612f365760405162461bcd60e51b815260040161056b90613b27565b5095945050505050565b600b54610100900460ff1615612f815760405162461bcd60e51b815260040161056b90602080825260049082015263444f4e4560e01b604082015260600190565b565b6000806000600260009054906101000a90046001600160a01b03166001600160a01b031662b127836040518163ffffffff1660e01b8152600401602060405180830381865afa158015612fda573d6000803e3d6000fd5b505050506040513d601f19601f82011682018060405250810190612ffe9190613c3f565b6001600160a01b0316639bd24d838a8a8a8a6040518563ffffffff1660e01b815260040161302f949392919061400c565b608060405180830381865afa15801561304c573d6000803e3d6000fd5b505050506040513d601f19601f820116820180604052508101906130709190614054565b90506000600260009054906101000a90046001600160a01b03166001600160a01b0316633078fff56040518163ffffffff1660e01b8152600401602060405180830381865afa1580156130c7573d6000803e3d6000fd5b505050506040513d601f19601f820116820180604052508101906130eb9190613c3f565b9050806001600160a01b0316636938c05d8a8d61310957600361310c565b60025b888f61315f5760018b6004811115613126576131266139b9565b146131555760008b600481111561313f5761313f6139b9565b1461314e578660600151613165565b8651613165565b8660200151613165565b86604001515b6040518563ffffffff1660e01b815260040161318494939291906140d1565b6020604051808303816000875af11580156131a3573d6000803e3d6000fd5b505050506040513d601f19601f820116820180604052508101906131c79190613b0e565b9350505097509795505050505050565b600260009054906101000a90046001600160a01b03166001600160a01b03166312d43a516040518163ffffffff1660e01b8152600401602060405180830381865afa15801561322a573d6000803e3d6000fd5b505050506040513d601f19601f8201168201806040525081019061324e9190613c3f565b6001600160a01b0316336001600160a01b031614612f815760405162461bcd60e51b8152602060048201526008602482015267474f565f4f4e4c5960c01b604482015260640161056b565b323314612f8157600080fd5b600080600260009054906101000a90046001600160a01b03166001600160a01b031662b127836040518163ffffffff1660e01b8152600401602060405180830381865afa1580156132fa573d6000803e3d6000fd5b505050506040513d601f19601f8201168201806040525081019061331e9190613c3f565b6001600160a01b031663281b693c846040518263ffffffff1660e01b815260040161334b91815260200190565b602060405180830381865afa158015613368573d6000803e3d6000fd5b505050506040513d601f19601f8201168201806040525081019061338c9190613b0e565b90506000811161340457604051630a06da4f60e21b8152600481018490526001600160a01b0385169063281b693c90602401602060405180830381865afa1580156133db573d6000803e3d6000fd5b505050506040513d601f19601f820116820180604052508101906133ff9190613b0e565b613406565b805b9150505b92915050565b600061a4b1461480613424575062066eed46145b156134915760646001600160a01b031663a3b1b31d6040518163ffffffff1660e01b8152600401602060405180830381865afa158015613468573d6000803e3d6000fd5b505050506040513d601f19601f8201168201806040525081019061348c9190613b0e565b905090565b504390565b6001600160a01b03811681146134ab57600080fd5b50565b80356134b981613496565b919050565b60008060008060008060c087890312156134d757600080fd5b8635955060208701356134e981613496565b95989597505050506040840135936060810135936080820135935060a0909101359150565b60006020828403121561352057600080fd5b5035919050565b634e487b7160e01b600052604160045260246000fd5b604051610140810167ffffffffffffffff8111828210171561356157613561613527565b60405290565b604051610c80810167ffffffffffffffff8111828210171561356157613561613527565b80151581146134ab57600080fd5b80356134b98161358b565b600061014082840312156135b757600080fd5b6135bf61353d565b90506135ca826134ae565b81526020820135602082015260408201356040820152606082013560608201526080820135608082015260a082013560a082015261360a60c08301613599565b60c082015260e082013560e082015261010080830135818301525061012080830135818301525092915050565b6000610140828403121561364a57600080fd5b611e4a83836135a4565b6000806000806101a0858703121561366b57600080fd5b61367586866135a4565b93506101408501356003811061368a57600080fd5b939693955050505061016082013591610180013590565b6000806000606084860312156136b657600080fd5b83356136c181613496565b95602085013595506040909401359392505050565b6000806000604084860312156136eb57600080fd5b83356136f681613496565b9250602084013567ffffffffffffffff8082111561371357600080fd5b818601915086601f83011261372757600080fd5b81358181111561373657600080fd5b87602082850101111561374857600080fd5b6020830194508093505050509250925092565b60005b8381101561377657818101518382015260200161375e565b50506000910152565b6000815180845261379781602086016020860161375b565b601f01601f19169290920160200192915050565b602081526000611e4a602083018461377f565b600080604083850312156137d157600080fd5b50508035926020909101359150565b600082601f8301126137f157600080fd5b6137f9613567565b80610c8084018581111561380c57600080fd5b845b8181101561382657803584526020938401930161380e565b509095945050505050565b6000806000806000613220868803121561384a57600080fd5b61385487876137e0565b945086610c9f87011261386657600080fd5b61386e613567565b8061190088018981111561388157600080fd5b610c8089015b818110156138a857803561389a81613496565b845260209384019301613887565b508196506138b68a826137e0565b95505050506138c98761258088016137e0565b94979396509194613200013592915050565b6000806000606084860312156138f057600080fd5b505081359360208301359350604090920135919050565b60006020828403121561391957600080fd5b813561340481613496565b600080600080600080600080610100898b03121561394157600080fd5b883561394c81613496565b9750602089013561395c81613496565b9650604089013561396c81613496565b9550606089013561397c81613496565b9450608089013561398c81613496565b935060a089013561399c81613496565b979a969950949793969295929450505060c08201359160e0013590565b634e487b7160e01b600052602160045260246000fd5b6001600160a01b039390931683526020830191909152604082015260600190565b80516134b981613496565b80516134b98161358b565b60006101408284031215613a1957600080fd5b613a2161353d565b613a2a836139f0565b81526020830151602082015260408301516040820152606083015160608201526080830151608082015260a083015160a0820152613a6a60c084016139fb565b60c082015260e083810151908201526101008084015190820152610120928301519281019290925250919050565b6020808252600890820152674e4f5f545241444560c01b604082015260600190565b81516001600160a01b0316815260208083015190820152604080830151908201526060808301519082015260808083015115159082015260a0828101519082015260c0918201519181019190915260e00190565b600060208284031215613b2057600080fd5b5051919050565b602080825260069082015265121054d7d4d360d21b604082015260600190565b634e487b7160e01b600052601160045260246000fd5b8082018281126000831280158216821582161715613b7d57613b7d613b47565b505092915050565b80820260008212600160ff1b84141615613ba157613ba1613b47565b818105831482151761340a5761340a613b47565b808202811582820484141761340a5761340a613b47565b60018060a01b038082511683526020820151602084015280604083015116604084015250606081015160608301526080810151608083015260a081015160058110613c1957613c196139b9565b8060a0840152505050565b60e08101613c328285613bcc565b8260c08301529392505050565b600060208284031215613c5157600080fd5b815161340481613496565b82815260e08101611e4a6020830184613bcc565b602080825260079082015266056414c55455f360cc1b604082015260600190565b60008060408385031215613ca457600080fd5b505080516020909101519092909150565b6001600160a01b03929092168252602082015260400190565b8082018082111561340a5761340a613b47565b6020808252601290820152714d41585f50454e44494e475f4f524445525360701b604082015260600190565b60048110613d1d57613d1d6139b9565b9052565b84815260808101613d356020830186613d0d565b60408201939093526060015292915050565b828152815180516001600160a01b03166020830152610200820190602081015160408401526040810151606084015260608101516080840152608081015160a084015260a081015160c084015260c0810151613da760e085018215159052565b5060e0810151610100848101919091528101516101208085019190915201516101408301526020830151610160830152604083015161018083015260608301516101a083015260808301516101c083015260a0909201516101e090910152919050565b8183823760009101908152919050565b600060208284031215613e2c57600080fd5b815167ffffffffffffffff80821115613e4457600080fd5b818401915084601f830112613e5857600080fd5b815181811115613e6a57613e6a613527565b604051601f8201601f19908116603f01168101908382118183101715613e9257613e92613527565b81604052828152876020848701011115613eab57600080fd5b613ebc83602083016020880161375b565b979650505050505050565b600060c08284031215613ed957600080fd5b60405160c0810181811067ffffffffffffffff82111715613efc57613efc613527565b8060405250825181526020830151602082015260408301516040820152606083015160608201526080830151608082015260a0830151613f3b8161358b565b60a08201529392505050565b600082613f6457634e487b7160e01b600052601260045260246000fd5b500490565b634e487b7160e01b600052603260045260246000fd5b8181038181111561340a5761340a613b47565b6001600160a01b0394909416845260208401929092526040830152606082015260800190565b60028110613d1d57613d1d6139b9565b6001600160a01b03878116825286166020820152604081018590526060810184905260c08101613ffb6080830185613fb8565b8260a0830152979650505050505050565b6001600160a01b03851681526020810184905260408101839052608081016140376060830184613fb8565b95945050505050565b805163ffffffff811681146134b957600080fd5b60006080828403121561406657600080fd5b6040516080810181811067ffffffffffffffff8211171561408957614089613527565b60405261409583614040565b81526140a360208401614040565b60208201526140b460408401614040565b60408201526140c560608401614040565b60608201529392505050565b848152608081016140e56020830186613d0d565b83604083015263ffffffff831660608301529594505050505056fea2646970667358221220a26b47e7aaac5fa386f1a76d5a7cde3b319207426fcf198f77b83dde099b5b0c64736f6c63430008170033",
  "deployedBytecode": "0x608060405234801561001057600080fd5b50600436106101a45760003560e01c80638f062227116100ef578063b81bfa0511610092578063b81bfa0514610388578063be73fb991461039b578063bffe3486146103ae578063c740671f146103d7578063ca5eb5e1146103ea578063d3dc7539146103fd578063d8defd1514610410578063ff22dcac1461042357600080fd5b80638f062227146103095780639a10cc321461031b5780639a54adba1461033b578063a2a3c0cb14610344578063ae8421e114610357578063b187bd261461035f578063b1dfd5301461036c578063b35416991461037557600080fd5b806340b615971161015757806340b6159714610251578063410c0b7c1461027b578063531cc965146102925780635ad9f993146102a557806368cd5088146102b85780636b5bd974146102cb5780638456cb59146102de578063870f91d9146102e657600080fd5b8062b12783146101a9578063119df25f146101d95780631346b0ff146101e157806316fff074146101f4578063192a48f5146102075780632c1e4e551461021c57806336fb8b151461022f575b600080fd5b6007546101bc906001600160a01b031681565b6040516001600160a01b0390911681526020015b60405180910390f35b6101bc610436565b6004546101bc906001600160a01b031681565b6002546101bc906001600160a01b031681565b61021a6102153660046134be565b61045e565b005b61021a61022a36600461350e565b610cb5565b61021a33600090815260208190526040902080546001600160a01b0319169055565b61026461025f366004613637565b610d3d565b6040805192151583529015156020830152016101d0565b61028460095481565b6040519081526020016101d0565b6006546101bc906001600160a01b031681565b6003546101bc906001600160a01b031681565b61021a6102c6366004613654565b610f7e565b6102646102d9366004613637565b611ba2565b61021a611c58565b6102f96102f43660046136a1565b611cae565b60405190151581526020016101d0565b600b546102f990610100900460ff1681565b61032e6103293660046136d6565b611e51565b6040516101d091906137ab565b610284600a5481565b61021a6103523660046137be565b611f8c565b61021a6124da565b600b546102f99060ff1681565b61028460085481565b61021a610383366004613831565b61253a565b61021a61039636600461350e565b6125c4565b61021a6103a93660046138db565b61264e565b6101bc6103bc366004613907565b6000602081905290815260409020546001600160a01b031681565b61021a6103e5366004613924565b61295f565b61021a6103f8366004613907565b612bb6565b6005546101bc906001600160a01b031681565b61021a61041e3660046138db565b612c22565b6102f96104313660046136a1565b612e8c565b6001546000906001600160a01b031661044e57503390565b506001546001600160a01b031690565b610466612f40565b600086600481111561047a5761047a6139b9565b90506000610486610436565b90506000600383600481111561049e5761049e6139b9565b1490506000816104af5760006104b2565b60015b905061051560405180610140016040528060006001600160a01b0316815260200160008152602001600081526020016000815260200160008152602001600081526020016000151581526020016000815260200160008152602001600081525090565b82156105745760405162461bcd60e51b815260206004820152602360248201527f4f70656e204c696d6974206f7264657273206e6f7420737570706f72746564206044820152621e595d60ea1b60648201526084015b60405180910390fd5b6002546040516302a0a1cb60e41b81526001600160a01b0390911690632a0a1cb0906105a8908d908d908d906004016139cf565b61014060405180830381865afa1580156105c6573d6000803e3d6000fd5b505050506040513d601f19601f820116820180604052508101906105ea9190613a06565b905060008160e00151116106105760405162461bcd60e51b815260040161056b90613a98565b6002856004811115610624576106246139b9565b03610758576000600660009054906101000a90046001600160a01b03166001600160a01b031663706faf3a6040518060e0016040528085600001516001600160a01b0316815260200185602001518152602001856040015181526020018560a0015181526020018560c0015115158152602001856080015181526020018560e001518152506040518263ffffffff1660e01b81526004016106c59190613aba565b602060405180830381865afa1580156106e2573d6000803e3d6000fd5b505050506040513d601f19601f820116820180604052508101906107069190613b0e565b90508161012001516000148061073657508160c0015161072d578161012001518110610736565b81610120015181115b6107525760405162461bcd60e51b815260040161056b90613b27565b50610a60565b600485600481111561076c5761076c6139b9565b036109ac576000600660009054906101000a90046001600160a01b03166001600160a01b03166364d372c66040518060e0016040528085600001516001600160a01b0316815260200185602001518152602001856040015181526020018560a0015181526020018560c0015115158152602001856080015181526020018560e001518152506040518263ffffffff1660e01b815260040161080d9190613aba565b602060405180830381865afa15801561082a573d6000803e3d6000fd5b505050506040513d601f19601f8201168201806040525081019061084e9190613b0e565b90508161012001516000148061087e57508160c0015161087557816101200151811061087e565b81610120015181115b61089a5760405162461bcd60e51b815260040161056b90613b27565b6007548251602084015160408086015190516304ec194160e21b81526000946001600160a01b0316936313b06504936108da9391929091906004016139cf565b602060405180830381865afa1580156108f7573d6000803e3d6000fd5b505050506040513d601f19601f8201168201806040525081019061091b9190613b0e565b9050600081846080015161092f9190613b5d565b9050600a548460e00151826109449190613b85565b12156109a45760405162461bcd60e51b815260206004820152602960248201527f706f736974696f6e20746f20736d616c6c20666f72207061727469616c206c6960448201526838bab4b230ba34b7b760b91b606482015260840161056b565b505050610a60565b60018560048111156109c0576109c06139b9565b1415806109d257506000816101200151115b610a065760405162461bcd60e51b81526020600482015260056024820152641393d7d4d360da1b604482015260640161056b565b6000856004811115610a1a57610a1a6139b9565b141580610a2c57506000816101000151115b610a605760405162461bcd60e51b815260206004820152600560248201526404e4f5f54560dc1b604482015260640161056b565b600083610a7e578160e001518260800151610a7b9190613bb5565b90505b6000610a8f858d8d8d888c88612f83565b509050610ac86040805160c08101825260008082526020820181905291810182905260608101829052608081018290529060a082015290565b6001600160a01b038088168252602082018b90528d166040820152606081018c9052608081018b905260a08101886004811115610b0757610b076139b9565b90816004811115610b1a57610b1a6139b9565b90525060025460405163205fe86960e21b81526001600160a01b039091169063817fa1a490610b4f9084908690600401613c24565b600060405180830381600087803b158015610b6957600080fd5b505af1158015610b7d573d6000803e3d6000fd5b50505050600260009054906101000a90046001600160a01b03166001600160a01b0316633078fff56040518163ffffffff1660e01b8152600401602060405180830381865afa158015610bd4573d6000803e3d6000fd5b505050506040513d601f19601f82011682018060405250810190610bf89190613c3f565b6001600160a01b03166339fe9fd283836040518363ffffffff1660e01b8152600401610c25929190613c5c565b600060405180830381600087803b158015610c3f57600080fd5b505af1158015610c53573d6000803e3d6000fd5b505050508b8d6001600160a01b0316886001600160a01b03167f6d87222414c5850caf1d385b1e080a771b505825b082a2162d0f4af5ffc86c0085604051610c9d91815260200190565b60405180910390a45050505050505050505050505050565b610cbd6131d7565b60008111610cdd5760405162461bcd60e51b815260040161056b90613c70565b600881905560408051818152600a91810191909152690dac2f0a0dee6ae8aa8960b31b6060820152602081018290527f8cf3e35f6221b16e1670a3413180c9484bf5aa71787905909fa82a6a2662e9ab906080015b60405180910390a150565b6000808260e00151600003610d5757506000928392509050565b6000600660009054906101000a90046001600160a01b03166001600160a01b03166364d372c66040518060e0016040528087600001516001600160a01b0316815260200187602001518152602001876040015181526020018760a0015181526020018760c0015115158152602001876080015181526020018760e001518152506040518263ffffffff1660e01b8152600401610df39190613aba565b602060405180830381865afa158015610e10573d6000803e3d6000fd5b505050506040513d601f19601f82011682018060405250810190610e349190613b0e565b9050600080600260009054906101000a90046001600160a01b03166001600160a01b0316637dc0d1d06040518163ffffffff1660e01b8152600401602060405180830381865afa158015610e8c573d6000803e3d6000fd5b505050506040513d601f19601f82011682018060405250810190610eb09190613c3f565b6001600160a01b031663e757223087602001516040518263ffffffff1660e01b8152600401610ee191815260200190565b6040805180830381865afa158015610efd573d6000803e3d6000fd5b505050506040513d601f19601f82011682018060405250810190610f219190613c91565b91509150600086610120015160001480610f5557508660c00151610f4c578661012001518410610f55565b86610120015184115b905060008760c00151610f6b5784841015610f70565b848411155b989197509095505050505050565b610f86613299565b610f8e612f40565b600b5460ff1615610fca5760405162461bcd60e51b815260206004820152600660248201526514105554d15160d21b604482015260640161056b565b600019818560a00151610fdd9190613bb5565b106110155760405162461bcd60e51b81526020600482015260086024820152674f564552464c4f5760c01b604482015260640161056b565b60008460a00151116110565760405162461bcd60e51b815260206004820152600a60248201526950524943455f5a45524f60b01b604482015260640161056b565b60025460408051633078fff560e01b815290516000926001600160a01b031691633078fff59160048083019260209291908290030181865afa1580156110a0573d6000803e3d6000fd5b505050506040513d601f19601f820116820180604052508101906110c49190613c3f565b90506000816001600160a01b03166335b03c176040518163ffffffff1660e01b8152600401602060405180830381865afa158015611106573d6000803e3d6000fd5b505050506040513d601f19601f8201168201806040525081019061112a9190613c3f565b90506000611136610436565b9050600260009054906101000a90046001600160a01b03166001600160a01b031663f65d9dbe6040518163ffffffff1660e01b8152600401602060405180830381865afa15801561118b573d6000803e3d6000fd5b505050506040513d601f19601f820116820180604052508101906111af9190613b0e565b6002546020890151604051634bf3ccad60e11b81526001600160a01b03909216916397e7995a916111e591869190600401613cb5565b602060405180830381865afa158015611202573d6000803e3d6000fd5b505050506040513d601f19601f820116820180604052508101906112269190613b0e565b60025460208a0151604051639c8912f160e01b81526001600160a01b0390921691639c8912f19161125c91879190600401613cb5565b602060405180830381865afa158015611279573d6000803e3d6000fd5b505050506040513d601f19601f8201168201806040525081019061129d9190613b0e565b60025460208b01516040516307218dad60e21b81526001600160a01b0390921691631c8636b4916112d391889190600401613cb5565b602060405180830381865afa1580156112f0573d6000803e3d6000fd5b505050506040513d601f19601f820116820180604052508101906113149190613b0e565b61131e9190613cce565b6113289190613cce565b1061136b5760405162461bcd60e51b815260206004820152601360248201527226a0ac2faa2920a222a9afa822a92fa820a4a960691b604482015260640161056b565b600260009054906101000a90046001600160a01b03166001600160a01b0316638049fde76040518163ffffffff1660e01b8152600401602060405180830381865afa1580156113be573d6000803e3d6000fd5b505050506040513d601f19601f820116820180604052508101906113e29190613b0e565b60025460405163f7b3c6fd60e01b81526001600160a01b0384811660048301529091169063f7b3c6fd90602401602060405180830381865afa15801561142c573d6000803e3d6000fd5b505050506040513d601f19601f820116820180604052508101906114509190613b0e565b1061146d5760405162461bcd60e51b815260040161056b90613ce1565b600854876080015111156114b35760405162461bcd60e51b815260206004820152600d60248201526c41424f56455f4d41585f504f5360981b604482015260640161056b565b602087015160405163601e3b6b60e11b815260048101919091526001600160a01b0383169063c03c76d690602401602060405180830381865afa1580156114fe573d6000803e3d6000fd5b505050506040513d601f19601f820116820180604052508101906115229190613b0e565b8760e0015188608001516115369190613bb5565b10156115745760405162461bcd60e51b815260206004820152600d60248201526c42454c4f575f4d494e5f504f5360981b604482015260640161056b565b60008760e001511180156115fa5750602087015160405163059a992d60e41b815260048101919091526001600160a01b038316906359a992d090602401602060405180830381865afa1580156115ce573d6000803e3d6000fd5b505050506040513d601f19601f820116820180604052508101906115f29190613b0e565b8760e0015110155b8015611617575061160f8288602001516132a5565b8760e0015111155b6116585760405162461bcd60e51b815260206004820152601260248201527113115591549051d157d25390d3d4949150d560721b604482015260640161056b565b610100870151158061168c57508660c0015161167f578660a001518761010001511061168c565b8660a00151876101000151115b6116c35760405162461bcd60e51b8152602060048201526008602482015267057524f4e475f54560c41b604482015260640161056b565b61012087015115806116f757508660c001516116ea578660a00151876101200151116116f7565b8660a00151876101200151105b61172e5760405162461bcd60e51b815260206004820152600860248201526715d493d391d7d4d360c21b604482015260640161056b565b600454602088015160c089015160e08a015160808b01516000946001600160a01b031693637ea95f329386939192909161176791613bb5565b6040516001600160e01b031960e087901b168152600481019490945260248401929092521515604483015260648201526084016040805180830381865afa1580156117b6573d6000803e3d6000fd5b505050506040513d601f19601f820116820180604052508101906117da9190613c91565b509050600460009054906101000a90046001600160a01b03166001600160a01b03166380f6cfc26040518163ffffffff1660e01b8152600401602060405180830381865afa158015611830573d6000803e3d6000fd5b505050506040513d601f19601f820116820180604052508101906118549190613b0e565b60e08901516118639083613bb5565b11156118a95760405162461bcd60e51b81526020600482015260156024820152740a0a492868abe929aa08286a8bea89e9ebe90928e9605b1b604482015260640161056b565b6002546080890151604051638a238ae560e01b81526001600160a01b03858116600483015290921660248301819052604483019190915290638a238ae590606401600060405180830381600087803b15801561190457600080fd5b505af1158015611918573d6000803e3d6000fd5b5060009250611925915050565b876002811115611937576119376139b9565b03611b98576000846001600160a01b0316636938c05d8a6020015160008c60e001518d608001516119689190613bb5565b611970613410565b6040518563ffffffff1660e01b815260040161198f9493929190613d21565b6020604051808303816000875af11580156119ae573d6000803e3d6000fd5b505050506040513d601f19601f820116820180604052508101906119d29190613b0e565b9050600260009054906101000a90046001600160a01b03166001600160a01b0316633078fff56040518163ffffffff1660e01b8152600401602060405180830381865afa158015611a27573d6000803e3d6000fd5b505050506040513d601f19601f82011682018060405250810190611a4b9190613c3f565b6001600160a01b0316638f93b660826040518060c00160405280604051806101400160405280896001600160a01b031681526020018f60200151815260200160008152602001600081526020018f608001518152602001600081526020018f60c00151151581526020018f60e0015181526020018f610100015181526020018f61012001518152508152602001600081526020018d60a0015181526020018a81526020016000815260200160008152506040518363ffffffff1660e01b8152600401611b18929190613d47565b600060405180830381600087803b158015611b3257600080fd5b505af1158015611b46573d6000803e3d6000fd5b505050508860200151836001600160a01b0316827f3e544118c04e3bb18b669475695cd270ba0e41fb13177483f01c14222de62a866001604051611b8e911515815260200190565b60405180910390a4505b5050505050505050565b6000808260e00151600003611bbc57506000928392509050565b6000600660009054906101000a90046001600160a01b03166001600160a01b031663706faf3a6040518060e0016040528087600001516001600160a01b0316815260200187602001518152602001876040015181526020018760a0015181526020018760c0015115158152602001876080015181526020018760e001518152506040518263ffffffff1660e01b8152600401610df39190613aba565b611c606131d7565b600b805460ff8082161560ff1990921682179092556040519116151581527f0e2fb031ee032dc02d8011dc50b816eb450cf856abd8261680dac74f72165bd2906020015b60405180910390a1565b6002546040516302a0a1cb60e41b815260009182916001600160a01b0390911690632a0a1cb090611ce7908890889088906004016139cf565b61014060405180830381865afa158015611d05573d6000803e3d6000fd5b505050506040513d601f19601f82011682018060405250810190611d299190613a06565b9050600080600260009054906101000a90046001600160a01b03166001600160a01b0316637dc0d1d06040518163ffffffff1660e01b8152600401602060405180830381865afa158015611d81573d6000803e3d6000fd5b505050506040513d601f19601f82011682018060405250810190611da59190613c3f565b6001600160a01b031663e7572230876040518263ffffffff1660e01b8152600401611dd291815260200190565b6040805180830381865afa158015611dee573d6000803e3d6000fd5b505050506040513d601f19601f82011682018060405250810190611e129190613c91565b91509150600080611e2285610d3d565b9150915080611e435760405162461bcd60e51b815260040161056b90613b27565b5093505050505b9392505050565b6001600160a01b03838116600090815260208190526040902054606091163314611eb55760405162461bcd60e51b81526020600482015260156024820152741111531151d0551157d393d517d054141493d59151605a1b604482015260640161056b565b600180546001600160a01b0319166001600160a01b03861617905560405160009081903090611ee79087908790613e0a565b600060405180830381855af49150503d8060008114611f22576040519150601f19603f3d011682016040523d82523d6000602084013e611f27565b606091505b509150915081611f7357604481511015611f4057600080fd5b60048101905080806020019051810190611f5a9190613e1a565b60405162461bcd60e51b815260040161056b91906137ab565b600180546001600160a01b031916905595945050505050565b611f94613299565b611f9c612f40565b6000611fa6610436565b6002546040516302a0a1cb60e41b81529192506000916001600160a01b0390911690632a0a1cb090611fe0908590889088906004016139cf565b61014060405180830381865afa158015611ffe573d6000803e3d6000fd5b505050506040513d601f19601f820116820180604052508101906120229190613a06565b600254604051637728fb1b60e11b81529192506000916001600160a01b039091169063ee51f6369061205c908690899089906004016139cf565b60c060405180830381865afa158015612079573d6000803e3d6000fd5b505050506040513d601f19601f8201168201806040525081019061209d9190613ec7565b9050600260009054906101000a90046001600160a01b03166001600160a01b0316638049fde76040518163ffffffff1660e01b8152600401602060405180830381865afa1580156120f2573d6000803e3d6000fd5b505050506040513d601f19601f820116820180604052508101906121169190613b0e565b60025460405163f7b3c6fd60e01b81526001600160a01b0386811660048301529091169063f7b3c6fd90602401602060405180830381865afa158015612160573d6000803e3d6000fd5b505050506040513d601f19601f820116820180604052508101906121849190613b0e565b106121a15760405162461bcd60e51b815260040161056b90613ce1565b8060a00151156121ea5760405162461bcd60e51b81526020600482015260146024820152731053149150511657d091525391d7d0d313d4d15160621b604482015260640161056b565b60008260e001511161220e5760405162461bcd60e51b815260040161056b90613a98565b60025460408051633078fff560e01b815290516000926001600160a01b031691633078fff59160048083019260209291908290030181865afa158015612258573d6000803e3d6000fd5b505050506040513d601f19601f8201168201806040525081019061227c9190613c3f565b6001600160a01b0316636938c05d8760016402540be4008760e00151876020015189606001516122ac9190613bb5565b6122b69190613bb5565b6122c09190613f47565b6122c8613410565b6040518563ffffffff1660e01b81526004016122e79493929190613d21565b6020604051808303816000875af1158015612306573d6000803e3d6000fd5b505050506040513d601f19601f8201168201806040525081019061232a9190613b0e565b9050600260009054906101000a90046001600160a01b03166001600160a01b0316633078fff56040518163ffffffff1660e01b8152600401602060405180830381865afa15801561237f573d6000803e3d6000fd5b505050506040513d601f19601f820116820180604052508101906123a39190613c3f565b6001600160a01b0316638f93b660826040518060c001604052806040518061014001604052808a6001600160a01b031681526020018c81526020018b81526020016000815260200160008152602001600081526020016000151581526020016000815260200160008152602001600081525081526020016000815260200160008152602001600081526020016000815260200160008152506040518363ffffffff1660e01b8152600401612458929190613d47565b600060405180830381600087803b15801561247257600080fd5b505af1158015612486573d6000803e3d6000fd5b5050505085846001600160a01b0316827f3e544118c04e3bb18b669475695cd270ba0e41fb13177483f01c14222de62a8660006040516124ca911515815260200190565b60405180910390a4505050505050565b6124e26131d7565b600b805460ff610100808304821615810261ff001990931692909217928390556040517fc3a6f986261de9467c2838c6df8ef74f9107855159205600c0bc7a14cdfd388893611ca49390049091161515815260200190565b612542612f40565b60005b818110156125bc576125b486826064811061256257612562613f69565b602002015186836064811061257957612579613f69565b602002015186846064811061259057612590613f69565b60200201518685606481106125a7576125a7613f69565b602002015160018061045e565b600101612545565b505050505050565b6125cc6131d7565b600081116125ec5760405162461bcd60e51b815260040161056b90613c70565b600981905560408051818152601391810191909152721b585c9ad95d13dc99195c9cd51a5b595bdd5d606a1b6060820152602081018290527f8cf3e35f6221b16e1670a3413180c9484bf5aa71787905909fa82a6a2662e9ab90608001610d32565b612656613299565b61265e612f40565b6000612668610436565b6002546040516302a0a1cb60e41b81529192506000916001600160a01b0390911690632a0a1cb0906126a2908590899089906004016139cf565b61014060405180830381865afa1580156126c0573d6000803e3d6000fd5b505050506040513d601f19601f820116820180604052508101906126e49190613a06565b905060008160e001511161270a5760405162461bcd60e51b815260040161056b90613a98565b60008160e001516064604b8460a001516127249190613bb5565b61272e9190613f47565b6127389190613f47565b905083158061277757508160c0015161276357808260a0015161275b9190613cce565b841115612777565b808260a001516127739190613f7f565b8410155b6127b05760405162461bcd60e51b815260206004820152600a602482015269534c5f544f4f5f42494760b01b604482015260640161056b565b60025460405163a354418160e01b81526001600160a01b039091169063a3544181906127e69086908a908a908a90600401613f92565b600060405180830381600087803b15801561280057600080fd5b505af1158015612814573d6000803e3d6000fd5b50505050600260009054906101000a90046001600160a01b03166001600160a01b031662b127836040518163ffffffff1660e01b8152600401602060405180830381865afa15801561286a573d6000803e3d6000fd5b505050506040513d601f19601f8201168201806040525081019061288e9190613c3f565b6001600160a01b031673__$f600c6c046224cd62da9c8e7a0d00fc8b2$__633c63a7d0909185898960006128c0613410565b6040518763ffffffff1660e01b81526004016128e196959493929190613fc8565b60006040518083038186803b1580156128f957600080fd5b505af415801561290d573d6000803e3d6000fd5b505060408051888152602081018890528993506001600160a01b03871692507f1fc4a6c7ffe506697979b8ed54dc4135cd1ecd26a2745f70b760a2492222b316910160405180910390a3505050505050565b600154600160a81b900460ff1615808015612985575060018054600160a01b900460ff16105b806129a55750303b1580156129a5575060018054600160a01b900460ff16145b612a085760405162461bcd60e51b815260206004820152602e60248201527f496e697469616c697a61626c653a20636f6e747261637420697320616c72656160448201526d191e481a5b9a5d1a585b1a5e995960921b606482015260840161056b565b6001805460ff60a01b1916600160a01b1790558015612a35576001805460ff60a81b1916600160a81b1790555b6001600160a01b03891615801590612a5557506001600160a01b03881615155b8015612a6957506001600160a01b03871615155b8015612a7d57506001600160a01b03861615155b8015612a9157506001600160a01b03851615155b8015612aa557506001600160a01b03841615155b8015612ab15750600083115b8015612abd5750600082115b612af85760405162461bcd60e51b815260206004820152600c60248201526b57524f4e475f504152414d5360a01b604482015260640161056b565b600280546001600160a01b03199081166001600160a01b038c8116919091179092556003805482168b84161790556004805482168a841617905560058054821689841617905560068054821688841617905560088590556009849055600780549091169186169190911790558015612bab576001805460ff60a81b191681556040519081527f7f26b83ff96e1f2b6a682f133852f6798a09c465da95921460cefb38474024989060200160405180910390a15b505050505050505050565b323314612bf35760405162461bcd60e51b815260206004820152600b60248201526a1393d7d0d3d395149050d560aa1b604482015260640161056b565b33600090815260208190526040902080546001600160a01b0319166001600160a01b0392909216919091179055565b612c2a613299565b612c32612f40565b6000612c3c610436565b6002546040516302a0a1cb60e41b81529192506000916001600160a01b0390911690632a0a1cb090612c76908590899089906004016139cf565b61014060405180830381865afa158015612c94573d6000803e3d6000fd5b505050506040513d601f19601f82011682018060405250810190612cb89190613a06565b905060008160e0015111612cde5760405162461bcd60e51b815260040161056b90613a98565b600254604051637fdb96f360e01b81526001600160a01b0390911690637fdb96f390612d14908590899089908990600401613f92565b600060405180830381600087803b158015612d2e57600080fd5b505af1158015612d42573d6000803e3d6000fd5b50505050600260009054906101000a90046001600160a01b03166001600160a01b031662b127836040518163ffffffff1660e01b8152600401602060405180830381865afa158015612d98573d6000803e3d6000fd5b505050506040513d601f19601f82011682018060405250810190612dbc9190613c3f565b6001600160a01b031673__$f600c6c046224cd62da9c8e7a0d00fc8b2$__638fff7d8290918488886000612dee613410565b6040518763ffffffff1660e01b8152600401612e0f96959493929190613fc8565b60006040518083038186803b158015612e2757600080fd5b505af4158015612e3b573d6000803e3d6000fd5b505060408051878152602081018790528893506001600160a01b03861692507f7e06a81c7a47891ccc7455b5ccb2ed850e32bb655ccda67eb3ebaaeed83242a4910160405180910390a35050505050565b6002546040516302a0a1cb60e41b815260009182916001600160a01b0390911690632a0a1cb090612ec5908890889088906004016139cf565b61014060405180830381865afa158015612ee3573d6000803e3d6000fd5b505050506040513d601f19601f82011682018060405250810190612f079190613a06565b9050600080612f1583611ba2565b9150915080612f365760405162461bcd60e51b815260040161056b90613b27565b5095945050505050565b600b54610100900460ff1615612f815760405162461bcd60e51b815260040161056b90602080825260049082015263444f4e4560e01b604082015260600190565b565b6000806000600260009054906101000a90046001600160a01b03166001600160a01b031662b127836040518163ffffffff1660e01b8152600401602060405180830381865afa158015612fda573d6000803e3d6000fd5b505050506040513d601f19601f82011682018060405250810190612ffe9190613c3f565b6001600160a01b0316639bd24d838a8a8a8a6040518563ffffffff1660e01b815260040161302f949392919061400c565b608060405180830381865afa15801561304c573d6000803e3d6000fd5b505050506040513d601f19601f820116820180604052508101906130709190614054565b90506000600260009054906101000a90046001600160a01b03166001600160a01b0316633078fff56040518163ffffffff1660e01b8152600401602060405180830381865afa1580156130c7573d6000803e3d6000fd5b505050506040513d601f19601f820116820180604052508101906130eb9190613c3f565b9050806001600160a01b0316636938c05d8a8d61310957600361310c565b60025b888f61315f5760018b6004811115613126576131266139b9565b146131555760008b600481111561313f5761313f6139b9565b1461314e578660600151613165565b8651613165565b8660200151613165565b86604001515b6040518563ffffffff1660e01b815260040161318494939291906140d1565b6020604051808303816000875af11580156131a3573d6000803e3d6000fd5b505050506040513d601f19601f820116820180604052508101906131c79190613b0e565b9350505097509795505050505050565b600260009054906101000a90046001600160a01b03166001600160a01b03166312d43a516040518163ffffffff1660e01b8152600401602060405180830381865afa15801561322a573d6000803e3d6000fd5b505050506040513d601f19601f8201168201806040525081019061324e9190613c3f565b6001600160a01b0316336001600160a01b031614612f815760405162461bcd60e51b8152602060048201526008602482015267474f565f4f4e4c5960c01b604482015260640161056b565b323314612f8157600080fd5b600080600260009054906101000a90046001600160a01b03166001600160a01b031662b127836040518163ffffffff1660e01b8152600401602060405180830381865afa1580156132fa573d6000803e3d6000fd5b505050506040513d601f19601f8201168201806040525081019061331e9190613c3f565b6001600160a01b031663281b693c846040518263ffffffff1660e01b815260040161334b91815260200190565b602060405180830381865afa158015613368573d6000803e3d6000fd5b505050506040513d601f19601f8201168201806040525081019061338c9190613b0e565b90506000811161340457604051630a06da4f60e21b8152600481018490526001600160a01b0385169063281b693c90602401602060405180830381865afa1580156133db573d6000803e3d6000fd5b505050506040513d601f19601f820116820180604052508101906133ff9190613b0e565b613406565b805b9150505b92915050565b600061a4b1461480613424575062066eed46145b156134915760646001600160a01b031663a3b1b31d6040518163ffffffff1660e01b8152600401602060405180830381865afa158015613468573d6000803e3d6000fd5b505050506040513d601f19601f8201168201806040525081019061348c9190613b0e565b905090565b504390565b6001600160a01b03811681146134ab57600080fd5b50565b80356134b981613496565b919050565b60008060008060008060c087890312156134d757600080fd5b8635955060208701356134e981613496565b95989597505050506040840135936060810135936080820135935060a0909101359150565b60006020828403121561352057600080fd5b5035919050565b634e487b7160e01b600052604160045260246000fd5b604051610140810167ffffffffffffffff8111828210171561356157613561613527565b60405290565b604051610c80810167ffffffffffffffff8111828210171561356157613561613527565b80151581146134ab57600080fd5b80356134b98161358b565b600061014082840312156135b757600080fd5b6135bf61353d565b90506135ca826134ae565b81526020820135602082015260408201356040820152606082013560608201526080820135608082015260a082013560a082015261360a60c08301613599565b60c082015260e082013560e082015261010080830135818301525061012080830135818301525092915050565b6000610140828403121561364a57600080fd5b611e4a83836135a4565b6000806000806101a0858703121561366b57600080fd5b61367586866135a4565b93506101408501356003811061368a57600080fd5b939693955050505061016082013591610180013590565b6000806000606084860312156136b657600080fd5b83356136c181613496565b95602085013595506040909401359392505050565b6000806000604084860312156136eb57600080fd5b83356136f681613496565b9250602084013567ffffffffffffffff8082111561371357600080fd5b818601915086601f83011261372757600080fd5b81358181111561373657600080fd5b87602082850101111561374857600080fd5b6020830194508093505050509250925092565b60005b8381101561377657818101518382015260200161375e565b50506000910152565b6000815180845261379781602086016020860161375b565b601f01601f19169290920160200192915050565b602081526000611e4a602083018461377f565b600080604083850312156137d157600080fd5b50508035926020909101359150565b600082601f8301126137f157600080fd5b6137f9613567565b80610c8084018581111561380c57600080fd5b845b8181101561382657803584526020938401930161380e565b509095945050505050565b6000806000806000613220868803121561384a57600080fd5b61385487876137e0565b945086610c9f87011261386657600080fd5b61386e613567565b8061190088018981111561388157600080fd5b610c8089015b818110156138a857803561389a81613496565b845260209384019301613887565b508196506138b68a826137e0565b95505050506138c98761258088016137e0565b94979396509194613200013592915050565b6000806000606084860312156138f057600080fd5b505081359360208301359350604090920135919050565b60006020828403121561391957600080fd5b813561340481613496565b600080600080600080600080610100898b03121561394157600080fd5b883561394c81613496565b9750602089013561395c81613496565b9650604089013561396c81613496565b9550606089013561397c81613496565b9450608089013561398c81613496565b935060a089013561399c81613496565b979a969950949793969295929450505060c08201359160e0013590565b634e487b7160e01b600052602160045260246000fd5b6001600160a01b039390931683526020830191909152604082015260600190565b80516134b981613496565b80516134b98161358b565b60006101408284031215613a1957600080fd5b613a2161353d565b613a2a836139f0565b81526020830151602082015260408301516040820152606083015160608201526080830151608082015260a083015160a0820152613a6a60c084016139fb565b60c082015260e083810151908201526101008084015190820152610120928301519281019290925250919050565b6020808252600890820152674e4f5f545241444560c01b604082015260600190565b81516001600160a01b0316815260208083015190820152604080830151908201526060808301519082015260808083015115159082015260a0828101519082015260c0918201519181019190915260e00190565b600060208284031215613b2057600080fd5b5051919050565b602080825260069082015265121054d7d4d360d21b604082015260600190565b634e487b7160e01b600052601160045260246000fd5b8082018281126000831280158216821582161715613b7d57613b7d613b47565b505092915050565b80820260008212600160ff1b84141615613ba157613ba1613b47565b818105831482151761340a5761340a613b47565b808202811582820484141761340a5761340a613b47565b60018060a01b038082511683526020820151602084015280604083015116604084015250606081015160608301526080810151608083015260a081015160058110613c1957613c196139b9565b8060a0840152505050565b60e08101613c328285613bcc565b8260c08301529392505050565b600060208284031215613c5157600080fd5b815161340481613496565b82815260e08101611e4a6020830184613bcc565b602080825260079082015266056414c55455f360cc1b604082015260600190565b60008060408385031215613ca457600080fd5b505080516020909101519092909150565b6001600160a01b03929092168252602082015260400190565b8082018082111561340a5761340a613b47565b6020808252601290820152714d41585f50454e44494e475f4f524445525360701b604082015260600190565b60048110613d1d57613d1d6139b9565b9052565b84815260808101613d356020830186613d0d565b60408201939093526060015292915050565b828152815180516001600160a01b03166020830152610200820190602081015160408401526040810151606084015260608101516080840152608081015160a084015260a081015160c084015260c0810151613da760e085018215159052565b5060e0810151610100848101919091528101516101208085019190915201516101408301526020830151610160830152604083015161018083015260608301516101a083015260808301516101c083015260a0909201516101e090910152919050565b8183823760009101908152919050565b600060208284031215613e2c57600080fd5b815167ffffffffffffffff80821115613e4457600080fd5b818401915084601f830112613e5857600080fd5b815181811115613e6a57613e6a613527565b604051601f8201601f19908116603f01168101908382118183101715613e9257613e92613527565b81604052828152876020848701011115613eab57600080fd5b613ebc83602083016020880161375b565b979650505050505050565b600060c08284031215613ed957600080fd5b60405160c0810181811067ffffffffffffffff82111715613efc57613efc613527565b8060405250825181526020830151602082015260408301516040820152606083015160608201526080830151608082015260a0830151613f3b8161358b565b60a08201529392505050565b600082613f6457634e487b7160e01b600052601260045260246000fd5b500490565b634e487b7160e01b600052603260045260246000fd5b8181038181111561340a5761340a613b47565b6001600160a01b0394909416845260208401929092526040830152606082015260800190565b60028110613d1d57613d1d6139b9565b6001600160a01b03878116825286166020820152604081018590526060810184905260c08101613ffb6080830185613fb8565b8260a0830152979650505050505050565b6001600160a01b03851681526020810184905260408101839052608081016140376060830184613fb8565b95945050505050565b805163ffffffff811681146134b957600080fd5b60006080828403121561406657600080fd5b6040516080810181811067ffffffffffffffff8211171561408957614089613527565b60405261409583614040565b81526140a360208401614040565b60208201526140b460408401614040565b60408201526140c560608401614040565b60608201529392505050565b848152608081016140e56020830186613d0d565b83604083015263ffffffff831660608301529594505050505056fea2646970667358221220a26b47e7aaac5fa386f1a76d5a7cde3b319207426fcf198f77b83dde099b5b0c64736f6c63430008170033",
  "libraries": {
    "TradeUtils": "0x7AF7e5081CeB3fE631d1B011ffeb22a9E5111260",
    "PackingUtils": "0xD04694bd45f3B0b7f69472Ec82a8aB22Bac00a8c"
  },
  "devdoc": {
    "events": {
      "Initialized(uint8)": {
        "details": "Triggered when the contract has been initialized or reinitialized."
      }
    },
    "kind": "dev",
    "methods": {},
    "version": 1
  },
  "userdoc": {
    "kind": "user",
    "methods": {},
    "version": 1
  },
  "storageLayout": {
    "storage": [
      {
        "astId": 504,
        "contract": "contracts/Trading.sol:Trading",
        "label": "delegations",
        "offset": 0,
        "slot": "0",
        "type": "t_mapping(t_address,t_address)"
      },
      {
        "astId": 506,
        "contract": "contracts/Trading.sol:Trading",
        "label": "senderOverride",
        "offset": 0,
        "slot": "1",
        "type": "t_address"
      },
      {
        "astId": 6,
        "contract": "contracts/Trading.sol:Trading",
        "label": "_initialized",
        "offset": 20,
        "slot": "1",
        "type": "t_uint8"
      },
      {
        "astId": 9,
        "contract": "contracts/Trading.sol:Trading",
        "label": "_initializing",
        "offset": 21,
        "slot": "1",
        "type": "t_bool"
      },
      {
        "astId": 3503,
        "contract": "contracts/Trading.sol:Trading",
        "label": "storageT",
        "offset": 0,
        "slot": "2",
        "type": "t_contract(StorageInterface)11245"
      },
      {
        "astId": 3506,
        "contract": "contracts/Trading.sol:Trading",
        "label": "nftRewards",
        "offset": 0,
        "slot": "3",
        "type": "t_contract(NftRewardsInterfaceV6_3_1)10235"
      },
      {
        "astId": 3509,
        "contract": "contracts/Trading.sol:Trading",
        "label": "pairInfos",
        "offset": 0,
        "slot": "4",
        "type": "t_contract(PairInfosInterface)10447"
      },
      {
        "astId": 3512,
        "contract": "contracts/Trading.sol:Trading",
        "label": "referrals",
        "offset": 0,
        "slot": "5",
        "type": "t_contract(ReferralsInterface)10688"
      },
      {
        "astId": 3515,
        "contract": "contracts/Trading.sol:Trading",
        "label": "borrowingFees",
        "offset": 0,
        "slot": "6",
        "type": "t_contract(BorrowingFeesInterface)9781"
      },
      {
        "astId": 3518,
        "contract": "contracts/Trading.sol:Trading",
        "label": "callbacks",
        "offset": 0,
        "slot": "7",
        "type": "t_contract(CallbacksInterface)9845"
      },
      {
        "astId": 3526,
        "contract": "contracts/Trading.sol:Trading",
        "label": "maxPosWETH",
        "offset": 0,
        "slot": "8",
        "type": "t_uint256"
      },
      {
        "astId": 3528,
        "contract": "contracts/Trading.sol:Trading",
        "label": "marketOrdersTimeout",
        "offset": 0,
        "slot": "9",
        "type": "t_uint256"
      },
      {
        "astId": 3531,
        "contract": "contracts/Trading.sol:Trading",
        "label": "minLeveragedPosWETH",
        "offset": 0,
        "slot": "10",
        "type": "t_int256"
      },
      {
        "astId": 3533,
        "contract": "contracts/Trading.sol:Trading",
        "label": "isPaused",
        "offset": 0,
        "slot": "11",
        "type": "t_bool"
      },
      {
        "astId": 3535,
        "contract": "contracts/Trading.sol:Trading",
        "label": "isDone",
        "offset": 1,
        "slot": "11",
        "type": "t_bool"
      }
    ],
    "types": {
      "t_address": {
        "encoding": "inplace",
        "label": "address",
        "numberOfBytes": "20"
      },
      "t_bool": {
        "encoding": "inplace",
        "label": "bool",
        "numberOfBytes": "1"
      },
      "t_contract(BorrowingFeesInterface)9781": {
        "encoding": "inplace",
        "label": "contract BorrowingFeesInterface",
        "numberOfBytes": "20"
      },
      "t_contract(CallbacksInterface)9845": {
        "encoding": "inplace",
        "label": "contract CallbacksInterface",
        "numberOfBytes": "20"
      },
      "t_contract(NftRewardsInterfaceV6_3_1)10235": {
        "encoding": "inplace",
        "label": "contract NftRewardsInterfaceV6_3_1",
        "numberOfBytes": "20"
      },
      "t_contract(PairInfosInterface)10447": {
        "encoding": "inplace",
        "label": "contract PairInfosInterface",
        "numberOfBytes": "20"
      },
      "t_contract(ReferralsInterface)10688": {
        "encoding": "inplace",
        "label": "contract ReferralsInterface",
        "numberOfBytes": "20"
      },
      "t_contract(StorageInterface)11245": {
        "encoding": "inplace",
        "label": "contract StorageInterface",
        "numberOfBytes": "20"
      },
      "t_int256": {
        "encoding": "inplace",
        "label": "int256",
        "numberOfBytes": "32"
      },
      "t_mapping(t_address,t_address)": {
        "encoding": "mapping",
        "key": "t_address",
        "label": "mapping(address => address)",
        "numberOfBytes": "32",
        "value": "t_address"
      },
      "t_uint256": {
        "encoding": "inplace",
        "label": "uint256",
        "numberOfBytes": "32"
      },
      "t_uint8": {
        "encoding": "inplace",
        "label": "uint8",
        "numberOfBytes": "1"
      }
    }
  }
}