{
  "address": "0xba63702A252cCeCECA803DCD1bB499298D9B6134",
  "abi": [
    {
      "anonymous": false,
      "inputs": [
        {
          "indexed": false,
          "internalType": "uint256",
          "name": "newAccValue",
          "type": "uint256"
        }
      ],
      "name": "AccBlockWeightedMarketCapStored",
      "type": "event"
    },
    {
      "anonymous": false,
      "inputs": [
        {
          "indexed": true,
          "internalType": "address",
          "name": "sender",
          "type": "address"
        },
        {
          "indexed": true,
          "internalType": "uint256",
          "name": "newEpoch",
          "type": "uint256"
        },
        {
          "indexed": false,
          "internalType": "uint256",
          "name": "prevPositiveOpenPnl",
          "type": "uint256"
        },
        {
          "indexed": false,
          "internalType": "uint256",
          "name": "newPositiveOpenPnl",
          "type": "uint256"
        },
        {
          "indexed": false,
          "internalType": "uint256",
          "name": "newEpochPositiveOpenPnl",
          "type": "uint256"
        },
        {
          "indexed": false,
          "internalType": "int256",
          "name": "newAccPnlPerTokenUsed",
          "type": "int256"
        }
      ],
      "name": "AccPnlPerTokenUsedUpdated",
      "type": "event"
    },
    {
      "anonymous": false,
      "inputs": [
        {
          "indexed": false,
          "internalType": "string",
          "name": "name",
          "type": "string"
        },
        {
          "indexed": false,
          "internalType": "address",
          "name": "newValue",
          "type": "address"
        }
      ],
      "name": "AddressParamUpdated",
      "type": "event"
    },
    {
      "anonymous": false,
      "inputs": [
        {
          "indexed": true,
          "internalType": "address",
          "name": "owner",
          "type": "address"
        },
        {
          "indexed": true,
          "internalType": "address",
          "name": "spender",
          "type": "address"
        },
        {
          "indexed": false,
          "internalType": "uint256",
          "name": "value",
          "type": "uint256"
        }
      ],
      "name": "Approval",
      "type": "event"
    },
    {
      "anonymous": false,
      "inputs": [
        {
          "indexed": true,
          "internalType": "address",
          "name": "sender",
          "type": "address"
        },
        {
          "indexed": true,
          "internalType": "address",
          "name": "user",
          "type": "address"
        },
        {
          "indexed": false,
          "internalType": "uint256",
          "name": "assets",
          "type": "uint256"
        },
        {
          "indexed": false,
          "internalType": "uint256",
          "name": "assetsLessDeplete",
          "type": "uint256"
        }
      ],
      "name": "AssetsReceived",
      "type": "event"
    },
    {
      "anonymous": false,
      "inputs": [
        {
          "indexed": true,
          "internalType": "address",
          "name": "sender",
          "type": "address"
        },
        {
          "indexed": true,
          "internalType": "address",
          "name": "receiver",
          "type": "address"
        },
        {
          "indexed": false,
          "internalType": "uint256",
          "name": "assets",
          "type": "uint256"
        }
      ],
      "name": "AssetsSent",
      "type": "event"
    },
    {
      "anonymous": false,
      "inputs": [
        {
          "indexed": false,
          "internalType": "uint256",
          "name": "newValue",
          "type": "uint256"
        }
      ],
      "name": "CurrentMaxSupplyUpdated",
      "type": "event"
    },
    {
      "anonymous": false,
      "inputs": [
        {
          "indexed": true,
          "internalType": "address",
          "name": "sender",
          "type": "address"
        },
        {
          "indexed": false,
          "internalType": "uint256",
          "name": "assets",
          "type": "uint256"
        },
        {
          "indexed": false,
          "internalType": "uint256",
          "name": "amount",
          "type": "uint256"
        }
      ],
      "name": "Depleted",
      "type": "event"
    },
    {
      "anonymous": false,
      "inputs": [
        {
          "indexed": true,
          "internalType": "address",
          "name": "sender",
          "type": "address"
        },
        {
          "indexed": true,
          "internalType": "address",
          "name": "owner",
          "type": "address"
        },
        {
          "indexed": false,
          "internalType": "uint256",
          "name": "assets",
          "type": "uint256"
        },
        {
          "indexed": false,
          "internalType": "uint256",
          "name": "shares",
          "type": "uint256"
        }
      ],
      "name": "Deposit",
      "type": "event"
    },
    {
      "anonymous": false,
      "inputs": [
        {
          "indexed": true,
          "internalType": "address",
          "name": "sender",
          "type": "address"
        },
        {
          "indexed": true,
          "internalType": "address",
          "name": "owner",
          "type": "address"
        },
        {
          "indexed": false,
          "internalType": "uint256",
          "name": "depositId",
          "type": "uint256"
        },
        {
          "components": [
            {
              "internalType": "address",
              "name": "owner",
              "type": "address"
            },
            {
              "internalType": "uint256",
              "name": "shares",
              "type": "uint256"
            },
            {
              "internalType": "uint256",
              "name": "assetsDeposited",
              "type": "uint256"
            },
            {
              "internalType": "uint256",
              "name": "assetsDiscount",
              "type": "uint256"
            },
            {
              "internalType": "uint256",
              "name": "atTimestamp",
              "type": "uint256"
            },
            {
              "internalType": "uint256",
              "name": "lockDuration",
              "type": "uint256"
            }
          ],
          "indexed": false,
          "internalType": "struct IToken.LockedDeposit",
          "name": "d",
          "type": "tuple"
        }
      ],
      "name": "DepositLocked",
      "type": "event"
    },
    {
      "anonymous": false,
      "inputs": [
        {
          "indexed": true,
          "internalType": "address",
          "name": "sender",
          "type": "address"
        },
        {
          "indexed": true,
          "internalType": "address",
          "name": "receiver",
          "type": "address"
        },
        {
          "indexed": true,
          "internalType": "address",
          "name": "owner",
          "type": "address"
        },
        {
          "indexed": false,
          "internalType": "uint256",
          "name": "depositId",
          "type": "uint256"
        },
        {
          "components": [
            {
              "internalType": "address",
              "name": "owner",
              "type": "address"
            },
            {
              "internalType": "uint256",
              "name": "shares",
              "type": "uint256"
            },
            {
              "internalType": "uint256",
              "name": "assetsDeposited",
              "type": "uint256"
            },
            {
              "internalType": "uint256",
              "name": "assetsDiscount",
              "type": "uint256"
            },
            {
              "internalType": "uint256",
              "name": "atTimestamp",
              "type": "uint256"
            },
            {
              "internalType": "uint256",
              "name": "lockDuration",
              "type": "uint256"
            }
          ],
          "indexed": false,
          "internalType": "struct IToken.LockedDeposit",
          "name": "d",
          "type": "tuple"
        }
      ],
      "name": "DepositUnlocked",
      "type": "event"
    },
    {
      "anonymous": false,
      "inputs": [
        {
          "indexed": false,
          "internalType": "uint8",
          "name": "version",
          "type": "uint8"
        }
      ],
      "name": "Initialized",
      "type": "event"
    },
    {
      "anonymous": false,
      "inputs": [
        {
          "indexed": false,
          "internalType": "string",
          "name": "name",
          "type": "string"
        },
        {
          "indexed": false,
          "internalType": "uint256",
          "name": "newValue",
          "type": "uint256"
        }
      ],
      "name": "NumberParamUpdated",
      "type": "event"
    },
    {
      "anonymous": false,
      "inputs": [],
      "name": "OpenTradesPnlFeedCallFailed",
      "type": "event"
    },
    {
      "anonymous": false,
      "inputs": [
        {
          "indexed": true,
          "internalType": "address",
          "name": "previousOwner",
          "type": "address"
        },
        {
          "indexed": true,
          "internalType": "address",
          "name": "newOwner",
          "type": "address"
        }
      ],
      "name": "OwnershipTransferred",
      "type": "event"
    },
    {
      "anonymous": false,
      "inputs": [
        {
          "indexed": true,
          "internalType": "address",
          "name": "sender",
          "type": "address"
        },
        {
          "indexed": false,
          "internalType": "uint256",
          "name": "assets",
          "type": "uint256"
        },
        {
          "indexed": false,
          "internalType": "uint256",
          "name": "amount",
          "type": "uint256"
        }
      ],
      "name": "Refilled",
      "type": "event"
    },
    {
      "anonymous": false,
      "inputs": [
        {
          "indexed": true,
          "internalType": "address",
          "name": "sender",
          "type": "address"
        },
        {
          "indexed": false,
          "internalType": "uint256",
          "name": "assets",
          "type": "uint256"
        }
      ],
      "name": "RewardDistributed",
      "type": "event"
    },
    {
      "anonymous": false,
      "inputs": [
        {
          "indexed": false,
          "internalType": "uint256",
          "name": "newValue",
          "type": "uint256"
        }
      ],
      "name": "ShareToAssetsPriceUpdated",
      "type": "event"
    },
    {
      "anonymous": false,
      "inputs": [
        {
          "indexed": true,
          "internalType": "address",
          "name": "from",
          "type": "address"
        },
        {
          "indexed": true,
          "internalType": "address",
          "name": "to",
          "type": "address"
        },
        {
          "indexed": false,
          "internalType": "uint256",
          "name": "value",
          "type": "uint256"
        }
      ],
      "name": "Transfer",
      "type": "event"
    },
    {
      "anonymous": false,
      "inputs": [
        {
          "indexed": true,
          "internalType": "address",
          "name": "sender",
          "type": "address"
        },
        {
          "indexed": true,
          "internalType": "address",
          "name": "receiver",
          "type": "address"
        },
        {
          "indexed": true,
          "internalType": "address",
          "name": "owner",
          "type": "address"
        },
        {
          "indexed": false,
          "internalType": "uint256",
          "name": "assets",
          "type": "uint256"
        },
        {
          "indexed": false,
          "internalType": "uint256",
          "name": "shares",
          "type": "uint256"
        }
      ],
      "name": "Withdraw",
      "type": "event"
    },
    {
      "anonymous": false,
      "inputs": [
        {
          "indexed": true,
          "internalType": "address",
          "name": "sender",
          "type": "address"
        },
        {
          "indexed": true,
          "internalType": "address",
          "name": "owner",
          "type": "address"
        },
        {
          "indexed": false,
          "internalType": "uint256",
          "name": "shares",
          "type": "uint256"
        },
        {
          "indexed": false,
          "internalType": "uint256",
          "name": "currEpoch",
          "type": "uint256"
        },
        {
          "indexed": true,
          "internalType": "uint256",
          "name": "unlockEpoch",
          "type": "uint256"
        }
      ],
      "name": "WithdrawCanceled",
      "type": "event"
    },
    {
      "anonymous": false,
      "inputs": [
        {
          "indexed": false,
          "internalType": "uint256[2]",
          "name": "newValue",
          "type": "uint256[2]"
        }
      ],
      "name": "WithdrawLockThresholdsPUpdated",
      "type": "event"
    },
    {
      "anonymous": false,
      "inputs": [
        {
          "indexed": true,
          "internalType": "address",
          "name": "sender",
          "type": "address"
        },
        {
          "indexed": true,
          "internalType": "address",
          "name": "owner",
          "type": "address"
        },
        {
          "indexed": false,
          "internalType": "uint256",
          "name": "shares",
          "type": "uint256"
        },
        {
          "indexed": false,
          "internalType": "uint256",
          "name": "currEpoch",
          "type": "uint256"
        },
        {
          "indexed": true,
          "internalType": "uint256",
          "name": "unlockEpoch",
          "type": "uint256"
        }
      ],
      "name": "WithdrawRequested",
      "type": "event"
    },
    {
      "anonymous": false,
      "inputs": [],
      "name": "dailyAccPnlDeltaReset",
      "type": "event"
    },
    {
      "inputs": [],
      "name": "MIN_LOCK_DURATION",
      "outputs": [
        {
          "internalType": "uint256",
          "name": "",
          "type": "uint256"
        }
      ],
      "stateMutability": "view",
      "type": "function"
    },
    {
      "inputs": [],
      "name": "accBlockWeightedMarketCap",
      "outputs": [
        {
          "internalType": "uint256",
          "name": "",
          "type": "uint256"
        }
      ],
      "stateMutability": "view",
      "type": "function"
    },
    {
      "inputs": [],
      "name": "accBlockWeightedMarketCapLastStored",
      "outputs": [
        {
          "internalType": "uint256",
          "name": "",
          "type": "uint256"
        }
      ],
      "stateMutability": "view",
      "type": "function"
    },
    {
      "inputs": [],
      "name": "accPnlPerToken",
      "outputs": [
        {
          "internalType": "int256",
          "name": "",
          "type": "int256"
        }
      ],
      "stateMutability": "view",
      "type": "function"
    },
    {
      "inputs": [],
      "name": "accPnlPerTokenUsed",
      "outputs": [
        {
          "internalType": "int256",
          "name": "",
          "type": "int256"
        }
      ],
      "stateMutability": "view",
      "type": "function"
    },
    {
      "inputs": [],
      "name": "accRewardsPerToken",
      "outputs": [
        {
          "internalType": "uint256",
          "name": "",
          "type": "uint256"
        }
      ],
      "stateMutability": "view",
      "type": "function"
    },
    {
      "inputs": [],
      "name": "admin",
      "outputs": [
        {
          "internalType": "address",
          "name": "",
          "type": "address"
        }
      ],
      "stateMutability": "view",
      "type": "function"
    },
    {
      "inputs": [
        {
          "internalType": "address",
          "name": "owner",
          "type": "address"
        },
        {
          "internalType": "address",
          "name": "spender",
          "type": "address"
        }
      ],
      "name": "allowance",
      "outputs": [
        {
          "internalType": "uint256",
          "name": "",
          "type": "uint256"
        }
      ],
      "stateMutability": "view",
      "type": "function"
    },
    {
      "inputs": [
        {
          "internalType": "address",
          "name": "spender",
          "type": "address"
        },
        {
          "internalType": "uint256",
          "name": "amount",
          "type": "uint256"
        }
      ],
      "name": "approve",
      "outputs": [
        {
          "internalType": "bool",
          "name": "",
          "type": "bool"
        }
      ],
      "stateMutability": "nonpayable",
      "type": "function"
    },
    {
      "inputs": [],
      "name": "asset",
      "outputs": [
        {
          "internalType": "address",
          "name": "",
          "type": "address"
        }
      ],
      "stateMutability": "view",
      "type": "function"
    },
    {
      "inputs": [],
      "name": "assetsToDeplete",
      "outputs": [
        {
          "internalType": "uint256",
          "name": "",
          "type": "uint256"
        }
      ],
      "stateMutability": "view",
      "type": "function"
    },
    {
      "inputs": [],
      "name": "availableAssets",
      "outputs": [
        {
          "internalType": "uint256",
          "name": "",
          "type": "uint256"
        }
      ],
      "stateMutability": "view",
      "type": "function"
    },
    {
      "inputs": [
        {
          "internalType": "address",
          "name": "account",
          "type": "address"
        }
      ],
      "name": "balanceOf",
      "outputs": [
        {
          "internalType": "uint256",
          "name": "",
          "type": "uint256"
        }
      ],
      "stateMutability": "view",
      "type": "function"
    },
    {
      "inputs": [
        {
          "internalType": "uint256",
          "name": "shares",
          "type": "uint256"
        },
        {
          "internalType": "address",
          "name": "owner",
          "type": "address"
        },
        {
          "internalType": "uint256",
          "name": "unlockEpoch",
          "type": "uint256"
        }
      ],
      "name": "cancelWithdrawRequest",
      "outputs": [],
      "stateMutability": "nonpayable",
      "type": "function"
    },
    {
      "inputs": [],
      "name": "collateralizationP",
      "outputs": [
        {
          "internalType": "uint256",
          "name": "",
          "type": "uint256"
        }
      ],
      "stateMutability": "view",
      "type": "function"
    },
    {
      "inputs": [
        {
          "internalType": "uint256",
          "name": "shares",
          "type": "uint256"
        }
      ],
      "name": "convertToAssets",
      "outputs": [
        {
          "internalType": "uint256",
          "name": "",
          "type": "uint256"
        }
      ],
      "stateMutability": "view",
      "type": "function"
    },
    {
      "inputs": [
        {
          "internalType": "uint256",
          "name": "assets",
          "type": "uint256"
        }
      ],
      "name": "convertToShares",
      "outputs": [
        {
          "internalType": "uint256",
          "name": "",
          "type": "uint256"
        }
      ],
      "stateMutability": "view",
      "type": "function"
    },
    {
      "inputs": [],
      "name": "currentBalanceWETH",
      "outputs": [
        {
          "internalType": "uint256",
          "name": "",
          "type": "uint256"
        }
      ],
      "stateMutability": "view",
      "type": "function"
    },
    {
      "inputs": [],
      "name": "currentEpoch",
      "outputs": [
        {
          "internalType": "uint256",
          "name": "",
          "type": "uint256"
        }
      ],
      "stateMutability": "view",
      "type": "function"
    },
    {
      "inputs": [],
      "name": "currentEpochPositiveOpenPnl",
      "outputs": [
        {
          "internalType": "uint256",
          "name": "",
          "type": "uint256"
        }
      ],
      "stateMutability": "view",
      "type": "function"
    },
    {
      "inputs": [],
      "name": "currentEpochStart",
      "outputs": [
        {
          "internalType": "uint256",
          "name": "",
          "type": "uint256"
        }
      ],
      "stateMutability": "view",
      "type": "function"
    },
    {
      "inputs": [],
      "name": "currentMaxSupply",
      "outputs": [
        {
          "internalType": "uint256",
          "name": "",
          "type": "uint256"
        }
      ],
      "stateMutability": "view",
      "type": "function"
    },
    {
      "inputs": [],
      "name": "dailyAccPnlDelta",
      "outputs": [
        {
          "internalType": "int256",
          "name": "",
          "type": "int256"
        }
      ],
      "stateMutability": "view",
      "type": "function"
    },
    {
      "inputs": [],
      "name": "dailyMinted",
      "outputs": [
        {
          "internalType": "uint256",
          "name": "",
          "type": "uint256"
        }
      ],
      "stateMutability": "view",
      "type": "function"
    },
    {
      "inputs": [],
      "name": "decimals",
      "outputs": [
        {
          "internalType": "uint8",
          "name": "",
          "type": "uint8"
        }
      ],
      "stateMutability": "view",
      "type": "function"
    },
    {
      "inputs": [
        {
          "internalType": "address",
          "name": "spender",
          "type": "address"
        },
        {
          "internalType": "uint256",
          "name": "subtractedValue",
          "type": "uint256"
        }
      ],
      "name": "decreaseAllowance",
      "outputs": [
        {
          "internalType": "bool",
          "name": "",
          "type": "bool"
        }
      ],
      "stateMutability": "nonpayable",
      "type": "function"
    },
    {
      "inputs": [
        {
          "internalType": "uint256",
          "name": "assets",
          "type": "uint256"
        },
        {
          "internalType": "address",
          "name": "receiver",
          "type": "address"
        }
      ],
      "name": "deposit",
      "outputs": [
        {
          "internalType": "uint256",
          "name": "",
          "type": "uint256"
        }
      ],
      "stateMutability": "nonpayable",
      "type": "function"
    },
    {
      "inputs": [
        {
          "internalType": "uint256",
          "name": "assets",
          "type": "uint256"
        },
        {
          "internalType": "uint256",
          "name": "lockDuration",
          "type": "uint256"
        },
        {
          "internalType": "address",
          "name": "receiver",
          "type": "address"
        }
      ],
      "name": "depositWithDiscountAndLock",
      "outputs": [
        {
          "internalType": "uint256",
          "name": "",
          "type": "uint256"
        }
      ],
      "stateMutability": "nonpayable",
      "type": "function"
    },
    {
      "inputs": [
        {
          "internalType": "uint256",
          "name": "assets",
          "type": "uint256"
        }
      ],
      "name": "distributeReward",
      "outputs": [],
      "stateMutability": "nonpayable",
      "type": "function"
    },
    {
      "inputs": [
        {
          "internalType": "uint256",
          "name": "depositId",
          "type": "uint256"
        }
      ],
      "name": "getLockedDeposit",
      "outputs": [
        {
          "components": [
            {
              "internalType": "address",
              "name": "owner",
              "type": "address"
            },
            {
              "internalType": "uint256",
              "name": "shares",
              "type": "uint256"
            },
            {
              "internalType": "uint256",
              "name": "assetsDeposited",
              "type": "uint256"
            },
            {
              "internalType": "uint256",
              "name": "assetsDiscount",
              "type": "uint256"
            },
            {
              "internalType": "uint256",
              "name": "atTimestamp",
              "type": "uint256"
            },
            {
              "internalType": "uint256",
              "name": "lockDuration",
              "type": "uint256"
            }
          ],
          "internalType": "struct IToken.LockedDeposit",
          "name": "",
          "type": "tuple"
        }
      ],
      "stateMutability": "view",
      "type": "function"
    },
    {
      "inputs": [
        {
          "internalType": "uint256",
          "name": "currentBlock",
          "type": "uint256"
        }
      ],
      "name": "getPendingAccBlockWeightedMarketCap",
      "outputs": [
        {
          "internalType": "uint256",
          "name": "",
          "type": "uint256"
        }
      ],
      "stateMutability": "view",
      "type": "function"
    },
    {
      "inputs": [
        {
          "internalType": "address",
          "name": "spender",
          "type": "address"
        },
        {
          "internalType": "uint256",
          "name": "addedValue",
          "type": "uint256"
        }
      ],
      "name": "increaseAllowance",
      "outputs": [
        {
          "internalType": "bool",
          "name": "",
          "type": "bool"
        }
      ],
      "stateMutability": "nonpayable",
      "type": "function"
    },
    {
      "inputs": [
        {
          "internalType": "string",
          "name": "_name",
          "type": "string"
        },
        {
          "internalType": "string",
          "name": "_symbol",
          "type": "string"
        },
        {
          "components": [
            {
              "internalType": "address",
              "name": "asset",
              "type": "address"
            },
            {
              "internalType": "address",
              "name": "owner",
              "type": "address"
            },
            {
              "internalType": "address",
              "name": "manager",
              "type": "address"
            },
            {
              "internalType": "address",
              "name": "admin",
              "type": "address"
            },
            {
              "internalType": "address",
              "name": "lockedDepositNft",
              "type": "address"
            },
            {
              "internalType": "address",
              "name": "pnlHandler",
              "type": "address"
            },
            {
              "internalType": "address",
              "name": "openTradesPnlFeed",
              "type": "address"
            }
          ],
          "internalType": "struct Vault.ContractAddresses",
          "name": "_contractAddresses",
          "type": "tuple"
        },
        {
          "internalType": "uint256",
          "name": "_MIN_LOCK_DURATION",
          "type": "uint256"
        },
        {
          "internalType": "uint256",
          "name": "_maxAccOpenPnlDelta",
          "type": "uint256"
        },
        {
          "internalType": "uint256",
          "name": "_maxdailyAccPnlDelta",
          "type": "uint256"
        },
        {
          "internalType": "uint256[2]",
          "name": "_withdrawLockThresholdsP",
          "type": "uint256[2]"
        },
        {
          "internalType": "uint256",
          "name": "_maxSupplyIncreaseDailyP",
          "type": "uint256"
        },
        {
          "internalType": "uint256",
          "name": "_lossesBurnP",
          "type": "uint256"
        },
        {
          "internalType": "uint256",
          "name": "_maxSupplyMintDailyP",
          "type": "uint256"
        },
        {
          "internalType": "uint256",
          "name": "_maxDiscountP",
          "type": "uint256"
        },
        {
          "internalType": "uint256",
          "name": "_maxDiscountThresholdP",
          "type": "uint256"
        }
      ],
      "name": "initialize",
      "outputs": [],
      "stateMutability": "nonpayable",
      "type": "function"
    },
    {
      "inputs": [],
      "name": "initializeV2",
      "outputs": [],
      "stateMutability": "nonpayable",
      "type": "function"
    },
    {
      "inputs": [],
      "name": "lastDailyAccPnlDeltaReset",
      "outputs": [
        {
          "internalType": "uint256",
          "name": "",
          "type": "uint256"
        }
      ],
      "stateMutability": "view",
      "type": "function"
    },
    {
      "inputs": [],
      "name": "lastMaxSupplyUpdate",
      "outputs": [
        {
          "internalType": "uint256",
          "name": "",
          "type": "uint256"
        }
      ],
      "stateMutability": "view",
      "type": "function"
    },
    {
      "inputs": [],
      "name": "lastdailyMintedReset",
      "outputs": [
        {
          "internalType": "uint256",
          "name": "",
          "type": "uint256"
        }
      ],
      "stateMutability": "view",
      "type": "function"
    },
    {
      "inputs": [
        {
          "internalType": "uint256",
          "name": "collatP",
          "type": "uint256"
        },
        {
          "internalType": "uint256",
          "name": "lockDuration",
          "type": "uint256"
        }
      ],
      "name": "lockDiscountP",
      "outputs": [
        {
          "internalType": "uint256",
          "name": "",
          "type": "uint256"
        }
      ],
      "stateMutability": "view",
      "type": "function"
    },
    {
      "inputs": [],
      "name": "lockedDepositNft",
      "outputs": [
        {
          "internalType": "contract INft",
          "name": "",
          "type": "address"
        }
      ],
      "stateMutability": "view",
      "type": "function"
    },
    {
      "inputs": [
        {
          "internalType": "uint256",
          "name": "",
          "type": "uint256"
        }
      ],
      "name": "lockedDeposits",
      "outputs": [
        {
          "internalType": "address",
          "name": "owner",
          "type": "address"
        },
        {
          "internalType": "uint256",
          "name": "shares",
          "type": "uint256"
        },
        {
          "internalType": "uint256",
          "name": "assetsDeposited",
          "type": "uint256"
        },
        {
          "internalType": "uint256",
          "name": "assetsDiscount",
          "type": "uint256"
        },
        {
          "internalType": "uint256",
          "name": "atTimestamp",
          "type": "uint256"
        },
        {
          "internalType": "uint256",
          "name": "lockDuration",
          "type": "uint256"
        }
      ],
      "stateMutability": "view",
      "type": "function"
    },
    {
      "inputs": [],
      "name": "lockedDepositsCount",
      "outputs": [
        {
          "internalType": "uint256",
          "name": "",
          "type": "uint256"
        }
      ],
      "stateMutability": "view",
      "type": "function"
    },
    {
      "inputs": [],
      "name": "lossesBurnP",
      "outputs": [
        {
          "internalType": "uint256",
          "name": "",
          "type": "uint256"
        }
      ],
      "stateMutability": "view",
      "type": "function"
    },
    {
      "inputs": [
        {
          "internalType": "uint256",
          "name": "shares",
          "type": "uint256"
        },
        {
          "internalType": "address",
          "name": "owner",
          "type": "address"
        }
      ],
      "name": "makeWithdrawRequest",
      "outputs": [],
      "stateMutability": "nonpayable",
      "type": "function"
    },
    {
      "inputs": [],
      "name": "manager",
      "outputs": [
        {
          "internalType": "address",
          "name": "",
          "type": "address"
        }
      ],
      "stateMutability": "view",
      "type": "function"
    },
    {
      "inputs": [],
      "name": "marketCap",
      "outputs": [
        {
          "internalType": "uint256",
          "name": "",
          "type": "uint256"
        }
      ],
      "stateMutability": "view",
      "type": "function"
    },
    {
      "inputs": [],
      "name": "maxAccOpenPnlDelta",
      "outputs": [
        {
          "internalType": "uint256",
          "name": "",
          "type": "uint256"
        }
      ],
      "stateMutability": "view",
      "type": "function"
    },
    {
      "inputs": [],
      "name": "maxAccPnlPerToken",
      "outputs": [
        {
          "internalType": "uint256",
          "name": "",
          "type": "uint256"
        }
      ],
      "stateMutability": "view",
      "type": "function"
    },
    {
      "inputs": [
        {
          "internalType": "address",
          "name": "owner",
          "type": "address"
        }
      ],
      "name": "maxDeposit",
      "outputs": [
        {
          "internalType": "uint256",
          "name": "",
          "type": "uint256"
        }
      ],
      "stateMutability": "view",
      "type": "function"
    },
    {
      "inputs": [],
      "name": "maxDiscountP",
      "outputs": [
        {
          "internalType": "uint256",
          "name": "",
          "type": "uint256"
        }
      ],
      "stateMutability": "view",
      "type": "function"
    },
    {
      "inputs": [],
      "name": "maxDiscountThresholdP",
      "outputs": [
        {
          "internalType": "uint256",
          "name": "",
          "type": "uint256"
        }
      ],
      "stateMutability": "view",
      "type": "function"
    },
    {
      "inputs": [
        {
          "internalType": "address",
          "name": "",
          "type": "address"
        }
      ],
      "name": "maxMint",
      "outputs": [
        {
          "internalType": "uint256",
          "name": "",
          "type": "uint256"
        }
      ],
      "stateMutability": "view",
      "type": "function"
    },
    {
      "inputs": [
        {
          "internalType": "address",
          "name": "owner",
          "type": "address"
        }
      ],
      "name": "maxRedeem",
      "outputs": [
        {
          "internalType": "uint256",
          "name": "",
          "type": "uint256"
        }
      ],
      "stateMutability": "view",
      "type": "function"
    },
    {
      "inputs": [],
      "name": "maxSupplyIncreaseDailyP",
      "outputs": [
        {
          "internalType": "uint256",
          "name": "",
          "type": "uint256"
        }
      ],
      "stateMutability": "view",
      "type": "function"
    },
    {
      "inputs": [],
      "name": "maxSupplyMintDailyP",
      "outputs": [
        {
          "internalType": "uint256",
          "name": "",
          "type": "uint256"
        }
      ],
      "stateMutability": "view",
      "type": "function"
    },
    {
      "inputs": [
        {
          "internalType": "address",
          "name": "owner",
          "type": "address"
        }
      ],
      "name": "maxWithdraw",
      "outputs": [
        {
          "internalType": "uint256",
          "name": "",
          "type": "uint256"
        }
      ],
      "stateMutability": "view",
      "type": "function"
    },
    {
      "inputs": [],
      "name": "maxdailyAccPnlDelta",
      "outputs": [
        {
          "internalType": "uint256",
          "name": "",
          "type": "uint256"
        }
      ],
      "stateMutability": "view",
      "type": "function"
    },
    {
      "inputs": [
        {
          "internalType": "uint256",
          "name": "shares",
          "type": "uint256"
        },
        {
          "internalType": "address",
          "name": "receiver",
          "type": "address"
        }
      ],
      "name": "mint",
      "outputs": [
        {
          "internalType": "uint256",
          "name": "",
          "type": "uint256"
        }
      ],
      "stateMutability": "nonpayable",
      "type": "function"
    },
    {
      "inputs": [
        {
          "internalType": "uint256",
          "name": "shares",
          "type": "uint256"
        },
        {
          "internalType": "uint256",
          "name": "lockDuration",
          "type": "uint256"
        },
        {
          "internalType": "address",
          "name": "receiver",
          "type": "address"
        }
      ],
      "name": "mintWithDiscountAndLock",
      "outputs": [
        {
          "internalType": "uint256",
          "name": "",
          "type": "uint256"
        }
      ],
      "stateMutability": "nonpayable",
      "type": "function"
    },
    {
      "inputs": [],
      "name": "name",
      "outputs": [
        {
          "internalType": "string",
          "name": "",
          "type": "string"
        }
      ],
      "stateMutability": "view",
      "type": "function"
    },
    {
      "inputs": [],
      "name": "openTradesPnlFeed",
      "outputs": [
        {
          "internalType": "contract IOpenTradesPnlFeed",
          "name": "",
          "type": "address"
        }
      ],
      "stateMutability": "view",
      "type": "function"
    },
    {
      "inputs": [],
      "name": "owner",
      "outputs": [
        {
          "internalType": "address",
          "name": "",
          "type": "address"
        }
      ],
      "stateMutability": "view",
      "type": "function"
    },
    {
      "inputs": [],
      "name": "pnlHandler",
      "outputs": [
        {
          "internalType": "address",
          "name": "",
          "type": "address"
        }
      ],
      "stateMutability": "view",
      "type": "function"
    },
    {
      "inputs": [
        {
          "internalType": "uint256",
          "name": "assets",
          "type": "uint256"
        }
      ],
      "name": "previewDeposit",
      "outputs": [
        {
          "internalType": "uint256",
          "name": "",
          "type": "uint256"
        }
      ],
      "stateMutability": "view",
      "type": "function"
    },
    {
      "inputs": [
        {
          "internalType": "uint256",
          "name": "shares",
          "type": "uint256"
        }
      ],
      "name": "previewMint",
      "outputs": [
        {
          "internalType": "uint256",
          "name": "",
          "type": "uint256"
        }
      ],
      "stateMutability": "view",
      "type": "function"
    },
    {
      "inputs": [
        {
          "internalType": "uint256",
          "name": "shares",
          "type": "uint256"
        }
      ],
      "name": "previewRedeem",
      "outputs": [
        {
          "internalType": "uint256",
          "name": "",
          "type": "uint256"
        }
      ],
      "stateMutability": "view",
      "type": "function"
    },
    {
      "inputs": [
        {
          "internalType": "uint256",
          "name": "assets",
          "type": "uint256"
        }
      ],
      "name": "previewWithdraw",
      "outputs": [
        {
          "internalType": "uint256",
          "name": "",
          "type": "uint256"
        }
      ],
      "stateMutability": "view",
      "type": "function"
    },
    {
      "inputs": [
        {
          "internalType": "uint256",
          "name": "assets",
          "type": "uint256"
        },
        {
          "internalType": "address",
          "name": "user",
          "type": "address"
        }
      ],
      "name": "receiveAssets",
      "outputs": [],
      "stateMutability": "nonpayable",
      "type": "function"
    },
    {
      "inputs": [
        {
          "internalType": "uint256",
          "name": "shares",
          "type": "uint256"
        },
        {
          "internalType": "address",
          "name": "receiver",
          "type": "address"
        },
        {
          "internalType": "address",
          "name": "owner",
          "type": "address"
        }
      ],
      "name": "redeem",
      "outputs": [
        {
          "internalType": "uint256",
          "name": "",
          "type": "uint256"
        }
      ],
      "stateMutability": "nonpayable",
      "type": "function"
    },
    {
      "inputs": [],
      "name": "renounceOwnership",
      "outputs": [],
      "stateMutability": "nonpayable",
      "type": "function"
    },
    {
      "inputs": [
        {
          "internalType": "uint256",
          "name": "assets",
          "type": "uint256"
        },
        {
          "internalType": "address",
          "name": "receiver",
          "type": "address"
        }
      ],
      "name": "sendAssets",
      "outputs": [],
      "stateMutability": "nonpayable",
      "type": "function"
    },
    {
      "inputs": [],
      "name": "shareToAssetsPrice",
      "outputs": [
        {
          "internalType": "uint256",
          "name": "",
          "type": "uint256"
        }
      ],
      "stateMutability": "view",
      "type": "function"
    },
    {
      "inputs": [],
      "name": "storeAccBlockWeightedMarketCap",
      "outputs": [],
      "stateMutability": "nonpayable",
      "type": "function"
    },
    {
      "inputs": [],
      "name": "symbol",
      "outputs": [
        {
          "internalType": "string",
          "name": "",
          "type": "string"
        }
      ],
      "stateMutability": "view",
      "type": "function"
    },
    {
      "inputs": [],
      "name": "totalAssets",
      "outputs": [
        {
          "internalType": "uint256",
          "name": "",
          "type": "uint256"
        }
      ],
      "stateMutability": "view",
      "type": "function"
    },
    {
      "inputs": [],
      "name": "totalClosedPnl",
      "outputs": [
        {
          "internalType": "int256",
          "name": "",
          "type": "int256"
        }
      ],
      "stateMutability": "view",
      "type": "function"
    },
    {
      "inputs": [],
      "name": "totalDeposited",
      "outputs": [
        {
          "internalType": "uint256",
          "name": "",
          "type": "uint256"
        }
      ],
      "stateMutability": "view",
      "type": "function"
    },
    {
      "inputs": [],
      "name": "totalDiscounts",
      "outputs": [
        {
          "internalType": "uint256",
          "name": "",
          "type": "uint256"
        }
      ],
      "stateMutability": "view",
      "type": "function"
    },
    {
      "inputs": [],
      "name": "totalLiability",
      "outputs": [
        {
          "internalType": "int256",
          "name": "",
          "type": "int256"
        }
      ],
      "stateMutability": "view",
      "type": "function"
    },
    {
      "inputs": [],
      "name": "totalLockedDiscounts",
      "outputs": [
        {
          "internalType": "uint256",
          "name": "",
          "type": "uint256"
        }
      ],
      "stateMutability": "view",
      "type": "function"
    },
    {
      "inputs": [],
      "name": "totalRewards",
      "outputs": [
        {
          "internalType": "uint256",
          "name": "",
          "type": "uint256"
        }
      ],
      "stateMutability": "view",
      "type": "function"
    },
    {
      "inputs": [
        {
          "internalType": "address",
          "name": "owner",
          "type": "address"
        }
      ],
      "name": "totalSharesBeingWithdrawn",
      "outputs": [
        {
          "internalType": "uint256",
          "name": "shares",
          "type": "uint256"
        }
      ],
      "stateMutability": "view",
      "type": "function"
    },
    {
      "inputs": [],
      "name": "totalSupply",
      "outputs": [
        {
          "internalType": "uint256",
          "name": "",
          "type": "uint256"
        }
      ],
      "stateMutability": "view",
      "type": "function"
    },
    {
      "inputs": [
        {
          "internalType": "address",
          "name": "to",
          "type": "address"
        },
        {
          "internalType": "uint256",
          "name": "amount",
          "type": "uint256"
        }
      ],
      "name": "transfer",
      "outputs": [
        {
          "internalType": "bool",
          "name": "",
          "type": "bool"
        }
      ],
      "stateMutability": "nonpayable",
      "type": "function"
    },
    {
      "inputs": [
        {
          "internalType": "address",
          "name": "from",
          "type": "address"
        },
        {
          "internalType": "address",
          "name": "to",
          "type": "address"
        },
        {
          "internalType": "uint256",
          "name": "amount",
          "type": "uint256"
        }
      ],
      "name": "transferFrom",
      "outputs": [
        {
          "internalType": "bool",
          "name": "",
          "type": "bool"
        }
      ],
      "stateMutability": "nonpayable",
      "type": "function"
    },
    {
      "inputs": [
        {
          "internalType": "address",
          "name": "newOwner",
          "type": "address"
        }
      ],
      "name": "transferOwnership",
      "outputs": [],
      "stateMutability": "nonpayable",
      "type": "function"
    },
    {
      "inputs": [],
      "name": "tryNewOpenPnlRequestOrEpoch",
      "outputs": [],
      "stateMutability": "nonpayable",
      "type": "function"
    },
    {
      "inputs": [],
      "name": "tryResetdailyAccPnlDelta",
      "outputs": [],
      "stateMutability": "nonpayable",
      "type": "function"
    },
    {
      "inputs": [],
      "name": "tryUpdateCurrentMaxSupply",
      "outputs": [],
      "stateMutability": "nonpayable",
      "type": "function"
    },
    {
      "inputs": [],
      "name": "tvl",
      "outputs": [
        {
          "internalType": "uint256",
          "name": "",
          "type": "uint256"
        }
      ],
      "stateMutability": "view",
      "type": "function"
    },
    {
      "inputs": [
        {
          "internalType": "uint256",
          "name": "depositId",
          "type": "uint256"
        },
        {
          "internalType": "address",
          "name": "receiver",
          "type": "address"
        }
      ],
      "name": "unlockDeposit",
      "outputs": [],
      "stateMutability": "nonpayable",
      "type": "function"
    },
    {
      "inputs": [
        {
          "internalType": "uint256",
          "name": "prevPositiveOpenPnl",
          "type": "uint256"
        },
        {
          "internalType": "uint256",
          "name": "newPositiveOpenPnl",
          "type": "uint256"
        }
      ],
      "name": "updateAccPnlPerTokenUsed",
      "outputs": [
        {
          "internalType": "uint256",
          "name": "",
          "type": "uint256"
        }
      ],
      "stateMutability": "nonpayable",
      "type": "function"
    },
    {
      "inputs": [
        {
          "internalType": "address",
          "name": "newValue",
          "type": "address"
        }
      ],
      "name": "updateAdmin",
      "outputs": [],
      "stateMutability": "nonpayable",
      "type": "function"
    },
    {
      "inputs": [
        {
          "internalType": "uint256",
          "name": "newValue",
          "type": "uint256"
        }
      ],
      "name": "updateLossesBurnP",
      "outputs": [],
      "stateMutability": "nonpayable",
      "type": "function"
    },
    {
      "inputs": [
        {
          "internalType": "address",
          "name": "newValue",
          "type": "address"
        }
      ],
      "name": "updateManager",
      "outputs": [],
      "stateMutability": "nonpayable",
      "type": "function"
    },
    {
      "inputs": [
        {
          "internalType": "uint256",
          "name": "newValue",
          "type": "uint256"
        }
      ],
      "name": "updateMaxAccOpenPnlDelta",
      "outputs": [],
      "stateMutability": "nonpayable",
      "type": "function"
    },
    {
      "inputs": [
        {
          "internalType": "uint256",
          "name": "newValue",
          "type": "uint256"
        }
      ],
      "name": "updateMaxDiscountP",
      "outputs": [],
      "stateMutability": "nonpayable",
      "type": "function"
    },
    {
      "inputs": [
        {
          "internalType": "uint256",
          "name": "newValue",
          "type": "uint256"
        }
      ],
      "name": "updateMaxDiscountThresholdP",
      "outputs": [],
      "stateMutability": "nonpayable",
      "type": "function"
    },
    {
      "inputs": [
        {
          "internalType": "uint256",
          "name": "newValue",
          "type": "uint256"
        }
      ],
      "name": "updateMaxdailyAccPnlDelta",
      "outputs": [],
      "stateMutability": "nonpayable",
      "type": "function"
    },
    {
      "inputs": [
        {
          "internalType": "address",
          "name": "newValue",
          "type": "address"
        }
      ],
      "name": "updateOpenTradesPnlFeed",
      "outputs": [],
      "stateMutability": "nonpayable",
      "type": "function"
    },
    {
      "inputs": [
        {
          "internalType": "address",
          "name": "newValue",
          "type": "address"
        }
      ],
      "name": "updatePnlHandler",
      "outputs": [],
      "stateMutability": "nonpayable",
      "type": "function"
    },
    {
      "inputs": [
        {
          "internalType": "uint256[2]",
          "name": "newValue",
          "type": "uint256[2]"
        }
      ],
      "name": "updateWithdrawLockThresholdsP",
      "outputs": [],
      "stateMutability": "nonpayable",
      "type": "function"
    },
    {
      "inputs": [
        {
          "internalType": "uint256",
          "name": "newValue",
          "type": "uint256"
        }
      ],
      "name": "updatemaxSupplyIncreaseDailyP",
      "outputs": [],
      "stateMutability": "nonpayable",
      "type": "function"
    },
    {
      "inputs": [
        {
          "internalType": "uint256",
          "name": "newValue",
          "type": "uint256"
        }
      ],
      "name": "updatemaxSupplyMintDailyP",
      "outputs": [],
      "stateMutability": "nonpayable",
      "type": "function"
    },
    {
      "inputs": [
        {
          "internalType": "uint256",
          "name": "assets",
          "type": "uint256"
        },
        {
          "internalType": "address",
          "name": "receiver",
          "type": "address"
        },
        {
          "internalType": "address",
          "name": "owner",
          "type": "address"
        }
      ],
      "name": "withdraw",
      "outputs": [
        {
          "internalType": "uint256",
          "name": "",
          "type": "uint256"
        }
      ],
      "stateMutability": "nonpayable",
      "type": "function"
    },
    {
      "inputs": [],
      "name": "withdrawEpochsTimelock",
      "outputs": [
        {
          "internalType": "uint256",
          "name": "",
          "type": "uint256"
        }
      ],
      "stateMutability": "view",
      "type": "function"
    },
    {
      "inputs": [
        {
          "internalType": "uint256",
          "name": "",
          "type": "uint256"
        }
      ],
      "name": "withdrawLockThresholdsP",
      "outputs": [
        {
          "internalType": "uint256",
          "name": "",
          "type": "uint256"
        }
      ],
      "stateMutability": "view",
      "type": "function"
    },
    {
      "inputs": [
        {
          "internalType": "address",
          "name": "",
          "type": "address"
        },
        {
          "internalType": "uint256",
          "name": "",
          "type": "uint256"
        }
      ],
      "name": "withdrawRequests",
      "outputs": [
        {
          "internalType": "uint256",
          "name": "",
          "type": "uint256"
        }
      ],
      "stateMutability": "view",
      "type": "function"
    }
  ],
  "transactionHash": "0x39e0f0e3152448f51c91fe56eb6db1061b1c02ab718f020adf4c1af8fbe22cb0",
  "args": [],
  "numDeployments": 3,
  "solcInputHash": "435950a4e58c69db3af120deb50e79f1",
  "bytecode": "0x608060405234801561001057600080fd5b50615459806100206000396000f3fe608060405234801561001057600080fd5b50600436106105a85760003560e01c806379431d9c116102f1578063ce96cb7711610193578063e5328e06116100ef578063f2fde38b1161009d578063f2fde38b14610c51578063f457fa9a14610c64578063f5521eaa14610c6c578063f851a44014610c7f578063f8fb10f714610c92578063faf33f2914610c9b578063ff50abdc14610ca457600080fd5b8063e5328e0614610bae578063e66a6e3b14610bb6578063e783967614610bc9578063e8e4311014610c2c578063ea5f2bba14610c3f578063ef8b30f714610acd578063f0a7744614610c4857600080fd5b8063d8bdfd481161014c578063d8bdfd4814610b52578063d905777e14610b5a578063db0447d514610b6d578063dd62ed3e14610b76578063ddd65e3114610b89578063e255cfa314610b92578063e2f273bd14610b9b57600080fd5b8063ce96cb7714610ae0578063ce9e1b2114610af3578063cf39c2db14610b06578063d1e08c2014610b19578063d229b2dd14610b2c578063d272df1014610b3f57600080fd5b8063a50043a01161024d578063b460af94116101fb578063b460af9414610a00578063b82c589914610a13578063ba08765214610a97578063be216e8314610aaa578063c63384ab14610ab2578063c63d75b614610aba578063c6e6f59214610acd57600080fd5b8063a50043a014610985578063a8abe90514610998578063a9059cbb146109ab578063ad00a5a4146109be578063b224e735146109d1578063b3c4850a146109da578063b3d7f6b9146109ed57600080fd5b806394bf804d116102aa57806394bf804d1461091557806395d89b4114610928578063979abb2514610930578063979b0895146109435780639aca06dc14610956578063a457c2d71461095f578063a481c14b1461097257600080fd5b806379431d9c146108c35780637dfc6922146108d65780637fcff2af146108df5780638d6cb288146108e85780638da5cb5b146108f1578063940a4e451461090257600080fd5b8063395093511161045a578063600d4c26116103b65780636ee432f2116103645780636ee432f21461086757806370a082311461087a578063715018a61461088d5780637361a5441461089557806375cd9da9146108a857806376671808146108b157806378b4330f146108ba57600080fd5b8063600d4c26146107f357806361a8c8c4146108065780636445ec001461080f57806366d8ecf11461081757806369994255146108205780636d6ca319146108295780636e553f651461085457600080fd5b80634cdad506116104135780634cdad506146106215780634ea0ddf7146107aa57806353409be2146107b357806358aba00f146107bc5780635a6953d3146107cf5780635cd8a76b146107e25780635e93f860146107ea57600080fd5b8063395093511461074d5780633d1c8013146107605780633d7e458714610773578063402d267d1461077b578063449957c11461078e578063481c6a751461079757600080fd5b80630fcc6f3111610509578063215e2fae116104c2578063215e2fae146106ed57806322b2ef85146106f657806323b872dd146106ff5780632c135b9314610712578063313ce5671461071a5780633623fa361461073457806338d52e0f1461073c57600080fd5b80630fcc6f311461068d578063104aeef81461069657806318160ddd1461069f5780631f91f287146106a757806320124bce146106d257806320e70a56146106da57600080fd5b806307a2d13a1161056657806307a2d13a14610621578063095ea7b3146106345780630a28a477146106575780630d5c44301461066a5780630dfb5287146106735780630e15561a1461067b5780630fc293491461068457600080fd5b8062d21ba5146105ad57806301e1d114146105c25780630287c573146105dd5780630307604f146105f05780630344e8a3146105f957806306fdde031461060c575b600080fd5b6105c06105bb366004614a67565b610cad565b005b6105ca611079565b6040519081526020015b60405180910390f35b6105c06105eb366004614b49565b6110eb565b6105ca60f05481565b6105c0610607366004614b62565b6111ab565b61061461153c565b6040516105d49190614bb6565b6105ca61062f366004614b49565b6115ce565b610647610642366004614be9565b6115e1565b60405190151581526020016105d4565b6105ca610665366004614b49565b6115f9565b6105ca60e85481565b6105c0611606565b6105ca60ec5481565b6105ca60ed5481565b6105ca60eb5481565b6105ca60e25481565b6035546105ca565b60cd546106ba906001600160a01b031681565b6040516001600160a01b0390911681526020016105d4565b6105ca6116c1565b6105c06106e8366004614c15565b6116fe565b6105ca60e55481565b6105ca60e35481565b61064761070d366004614c32565b611794565b6105ca6117ee565b610722611805565b60405160ff90911681526020016105d4565b6105c061180f565b6065546001600160a01b03166106ba565b61064761075b366004614be9565b61185b565b6105c061076e366004614b49565b61187d565b6105c0611932565b6105ca610789366004614c15565b611981565b6105ca60d15481565b60ca546106ba906001600160a01b031681565b6105ca60db5481565b6105ca60ee5481565b6105c06107ca366004614c15565b611996565b60cc546106ba906001600160a01b031681565b6105c0611a6a565b6105ca60dd5481565b6105c0610801366004614b49565b611b1b565b6105ca60e05481565b6105c0611bd0565b6105ca60e75481565b6105ca60e95481565b6105ca610837366004614be9565b60e460209081526000928352604080842090915290825290205481565b6105ca610862366004614b62565b611c70565b6105ca610875366004614b49565b611d3c565b6105ca610888366004614c15565b611d53565b6105c0611d6e565b6105ca6108a3366004614c73565b611d80565b6105ca60d55481565b6105ca60df5481565b6105ca60ce5481565b60c9546106ba906001600160a01b031681565b6105ca60d85481565b6105ca60dc5481565b6105ca60f15481565b6097546001600160a01b03166106ba565b6105c0610910366004614b49565b611f4c565b6105ca610923366004614b62565b612010565b6106146120d2565b6105c061093e366004614b49565b6120e1565b6105ca610951366004614b49565b6121b4565b6105ca60ef5481565b61064761096d366004614be9565b612209565b6105c0610980366004614b62565b61228f565b6105c0610993366004614c95565b612415565b6105c06109a6366004614b62565b612574565b6106476109b9366004614be9565b612783565b6105ca6109cc366004614c15565b6127cc565b6105ca60de5481565b6105ca6109e8366004614cbc565b61284d565b6105ca6109fb366004614b49565b6129c1565b6105ca610a0e366004614cf5565b6129ce565b610a60610a21366004614b49565b60e6602052600090815260409020805460018201546002830154600384015460048501546005909501546001600160a01b039094169492939192909186565b604080516001600160a01b0390971687526020870195909552938501929092526060840152608083015260a082015260c0016105d4565b6105ca610aa5366004614cf5565b612ad8565b6105ca612bd6565b6105ca612bee565b6105ca610ac8366004614c15565b612c5f565b6105ca610adb366004614b49565b612c8e565b6105ca610aee366004614c15565b612c9b565b6105c0610b01366004614b49565b612ca9565b6105c0610b14366004614b49565b612d56565b6105ca610b27366004614c73565b612e0d565b6105c0610b3a366004614c15565b612ea2565b6105c0610b4d366004614b49565b612f31565b6105ca612f88565b6105ca610b68366004614c15565b61302c565b6105ca60d45481565b6105ca610b84366004614d2c565b6130e5565b6105ca60da5481565b6105ca60d65481565b6105c0610ba9366004614c15565b613110565b6105ca61320d565b6105c0610bc4366004614b62565b613229565b610bdc610bd7366004614b49565b6133ee565b6040516105d4919081516001600160a01b031681526020808301519082015260408083015190820152606080830151908201526080808301519082015260a0918201519181019190915260c00190565b6105ca610c3a366004614cbc565b613492565b6105ca60d95481565b6105ca60d05481565b6105c0610c5f366004614c15565b6135fe565b6105ca6136bc565b6105c0610c7a366004614d5a565b6136c6565b60cb546106ba906001600160a01b031681565b6105ca60d75481565b6105ca60e15481565b6105ca60ea5481565b600054610100900460ff1615808015610ccd5750600054600160ff909116105b80610ce75750303b158015610ce7575060005460ff166001145b610d0c5760405162461bcd60e51b8152600401610d0390614d76565b60405180910390fd5b6000805460ff191660011790558015610d2f576000805461ff0019166101001790555b8a516001600160a01b031615801590610d54575060208b01516001600160a01b031615155b8015610d6c575060408b01516001600160a01b031615155b8015610d84575060608b01516001600160a01b031615155b8015610daa57508a604001516001600160a01b03168b602001516001600160a01b031614155b8015610dd057508a606001516001600160a01b03168b604001516001600160a01b031614155b8015610de8575060808b01516001600160a01b031615155b8015610e00575060a08b01516001600160a01b031615155b8015610e18575060c08b01516001600160a01b031615155b8015610e365750610e32600a670de0b6b3a7640000614df0565b8810155b8015610e46575086516020880151115b8015610e645750610e60670de0b6b3a76400006032614e1a565b8611155b8015610e825750610e7e670de0b6b3a76400006019614e1a565b8511155b8015610ea05750610e9c6014670de0b6b3a7640000614df0565b8411155b8015610ebe5750610eba670de0b6b3a7640000600a614e1a565b8311155b8015610edc5750610ed8670de0b6b3a76400006064614e1a565b8210155b610f175760405162461bcd60e51b815260206004820152600c60248201526b57524f4e475f504152414d5360a01b6044820152606401610d03565b610f218d8d61374e565b8a51610f2c90613783565b610f398b602001516137b3565b60808b015160c980546001600160a01b03199081166001600160a01b039384161790915560408d015160ca8054831691841691909117905560608d015160cb8054831691841691909117905560a08d015160cc8054831691841691909117905560c08d015160cd8054909216921691909117905560ce8a905560d089905560d1889055610fc960d28860026147e1565b5060d486905560d585905560d684905560d783905560d8829055670de0b6b3a764000060d955600160df8190554260e05560408051606081018252600380825260026020830152918101929092526110239160cf9161481f565b50801561106a576000805461ff0019169055604051600181527f7f26b83ff96e1f2b6a682f133852f6798a09c465da95921460cefb38474024989060200160405180910390a15b50505050505050505050505050565b6065546040516370a0823160e01b81523060048201526000916001600160a01b0316906370a0823190602401602060405180830381865afa1580156110c2573d6000803e3d6000fd5b505050506040513d601f19601f820116820180604052508101906110e69190614e31565b905090565b60ca546001600160a01b0316336001600160a01b03161461111e5760405162461bcd60e51b8152600401610d0390614e4a565b611131670de0b6b3a76400006032614e1a565b8111156111505760405162461bcd60e51b8152600401610d0390614e70565b60d4819055604080518181526017918101919091527606d6178537570706c79496e6372656173654461696c795604c1b6060820152602081018290526000805160206153c4833981519152906080015b60405180910390a150565b600082815260e660205260408120903360c9546040516331a9108f60e11b8152600481018790529192506000916001600160a01b0390911690636352211e90602401602060405180830381865afa15801561120a573d6000803e3d6000fd5b505050506040513d601f19601f8201168201806040525081019061122e9190614e93565b9050816001600160a01b0316816001600160a01b031614806112c5575060c95460405163020604bf60e21b8152600481018790526001600160a01b0384811692169063081812fc90602401602060405180830381865afa158015611296573d6000803e3d6000fd5b505050506040513d601f19601f820116820180604052508101906112ba9190614e93565b6001600160a01b0316145b80611341575060c95460405163e985e9c560e01b81526001600160a01b03838116600483015284811660248301529091169063e985e9c590604401602060405180830381865afa15801561131d573d6000803e3d6000fd5b505050506040513d601f19601f820116820180604052508101906113419190614eb0565b61135d5760405162461bcd60e51b8152600401610d0390614ed2565b826005015483600401546113719190614ef7565b4210156113af5760405162461bcd60e51b815260206004820152600c60248201526b1393d517d5539313d0d2d15160a21b6044820152606401610d03565b60006113d4670de0b6b3a76400006113c660355490565b600387015491906001613805565b90508060db60008282546113e89190614f0a565b909155506113f69050612bd6565b60db5413156114175760405162461bcd60e51b8152600401610d0390614f32565b60c954604051630852cd8d60e31b8152600481018890526001600160a01b03909116906342966c6890602401600060405180830381600087803b15801561145d57600080fd5b505af1158015611471573d6000803e3d6000fd5b505050508060da60008282546114879190614f0a565b909155506114959050613864565b836003015460ed60008282546114ab9190614f0a565b9091555050600384015460ee80546000906114c7908490614f5d565b925050819055506114dd308686600101546138c8565b816001600160a01b0316856001600160a01b0316846001600160a01b03167fe37405a4f414fe3119839681cc26ea3462fc575fd2f81734417e52144d3f34b9898860405161152c929190614f70565b60405180910390a4505050505050565b60606036805461154b90614fba565b80601f016020809104026020016040519081016040528092919081815260200182805461157790614fba565b80156115c45780601f10611599576101008083540402835291602001916115c4565b820191906000526020600020905b8154815290600101906020018083116115a757829003601f168201915b5050505050905090565b60006115db826000613a5a565b92915050565b6000336115ef818585613a9b565b5060019392505050565b60006115db826001613bbf565b60cd5460408051600481526024810182526020810180516001600160e01b031663bef35b7960e01b17905290516000926001600160a01b03169161164991614fee565b6000604051808303816000865af19150503d8060008114611686576040519150601f19603f3d011682016040523d82523d6000602084013e61168b565b606091505b50509050806116be576040517f46f2d6138acb3be39ad6ae5c9279b648c2a2c68743d0ddc18cc3a81cedecebd590600090a15b50565b6000670de0b6b3a76400006116d560355490565b60da546116e0612bd6565b6116ea919061500a565b6116f49190614e1a565b6110e69190614df0565b611706613bdb565b6001600160a01b03811661172c5760405162461bcd60e51b8152600401610d039061502a565b60cd80546001600160a01b0319166001600160a01b03831690811790915560408051818152601191810191909152701bdc195b951c9859195cd41b9b11995959607a1b60608201526020810191909152600080516020615404833981519152906080016111a0565b6000816117a085611d53565b6117aa9190614f5d565b6117b3856127cc565b11156117d15760405162461bcd60e51b8152600401610d039061504d565b6117dc843384613c35565b6115ef8484846138c8565b9392505050565b6000670de0b6b3a764000060d9546116ea60355490565b60006110e6613ca9565b6201518060de54426118219190614f5d565b1061185957600060dd8190554260de556040517f27496921ae2aa4b5647b6540dbd476c9929dcf0a56ab8a3e529eb38dba384db19190a15b565b6000336115ef81858561186e83836130e5565b6118789190614ef7565b613a9b565b60ca546001600160a01b0316336001600160a01b0316146118b05760405162461bcd60e51b8152600401610d0390614e4a565b6118c3600a670de0b6b3a7640000614df0565b8110156118e25760405162461bcd60e51b8152600401610d0390615079565b60d181905560408051818152601391810191909152726d61786461696c79416363506e6c44656c746160681b6060820152602081018290526000805160206153c4833981519152906080016111a0565b600061193c613cc3565b9050611947816121b4565b60f081905560f18290556040519081527f9551c7fda0233728a7b7eae3d388b53a068086c3f7d613bdf74e6e58dd6b41ec906020016111a0565b60006115db61198f83612c5f565b6000613a5a565b61199e613bdb565b6001600160a01b0381166119c45760405162461bcd60e51b8152600401610d039061502a565b6097546001600160a01b038281169116148015906119f0575060cb546001600160a01b03828116911614155b611a0c5760405162461bcd60e51b8152600401610d039061509c565b60ca80546001600160a01b0319166001600160a01b038316908117909155604080518181526007918101919091526636b0b730b3b2b960c91b60608201526020810191909152600080516020615404833981519152906080016111a0565b600054600290610100900460ff16158015611a8c575060005460ff8083169116105b611aa85760405162461bcd60e51b8152600401610d0390614d76565b6000805461ffff191660ff831617610100179055611ac4611932565b60ec5460ea6000828254611ad89190614ef7565b90915550506000805461ff001916905560405160ff821681527f7f26b83ff96e1f2b6a682f133852f6798a09c465da95921460cefb3847402498906020016111a0565b60ca546001600160a01b0316336001600160a01b031614611b4e5760405162461bcd60e51b8152600401610d0390614e4a565b611b616014670de0b6b3a7640000614df0565b811115611b805760405162461bcd60e51b8152600401610d0390614e70565b60d6819055604080518181526013918101919091527206d6178537570706c794d696e744461696c795606c1b6060820152602081018290526000805160206153c4833981519152906080016111a0565b6201518060e35442611be29190614f5d565b1061185957611bfa670de0b6b3a76400006064614e1a565b60d454611c10670de0b6b3a76400006064614e1a565b611c1a9190614ef7565b603554611c279190614e1a565b611c319190614df0565b60e28190554260e3556040519081527fd103db6eec024592fa6d47db028ec6408076ac4762eb021a6e52b525828bab9b906020015b60405180910390a1565b600082600060d95411611c955760405162461bcd60e51b8152600401610d03906150c1565b60008111611cb55760405162461bcd60e51b8152600401610d03906150e2565b611cbe83611981565b841115611d0d5760405162461bcd60e51b815260206004820152601e60248201527f455243343632363a206465706f736974206d6f7265207468616e206d617800006044820152606401610d03565b6000611d1885612c8e565b9050611d2681866001613d20565b611d3233858784613dfc565b91505b5092915050565b60d28160028110611d4c57600080fd5b0154905081565b6001600160a01b031660009081526033602052604090205490565b611d76613bdb565b61185960006137b3565b60cd5460009033906001600160a01b03168114611dcf5760405162461bcd60e51b815260206004820152600d60248201526c13d3931657d4139317d1915151609a1b6044820152606401610d03565b6000611ddb858561500a565b90506000611de860355490565b90506000611e48670de0b6b3a76400008360db54611e04612bd6565b611e0e919061500a565b611e189190614e1a565b611e229190614df0565b670de0b6b3a76400008460d054611e399190614e1a565b611e439190614df0565b613e6c565b9050808313611e575782611e59565b805b925081611e6e670de0b6b3a764000085615103565b611e789190615133565b60db6000828254611e899190614f0a565b925050819055508260ed6000828254611ea29190614f0a565b909155505060db5460da55611eb5613864565b60df8054906000611ec583615161565b90915550504260e055611ed88388614f0a565b60e155611ee3611bd0565b60df5460e15460da54604080518b8152602081018b90529081019290925260608201526001600160a01b038616907f115621a72d6f59323a1d752b116219634bc004cadb85d6bdc8e7eb254905722d9060800160405180910390a3505060e15495945050505050565b33611f60611f58613e82565b823085613e96565b603554611f75670de0b6b3a764000084614e1a565b611f7f9190614df0565b60dc6000828254611f909190614ef7565b90915550611f9e9050613864565b8160ec6000828254611fb09190614ef7565b925050819055508160ea6000828254611fc99190614ef7565b90915550506040518281526001600160a01b038216907fe34918ff1c7084970068b53fd71ad6d8b04e9f15d3886cbf006443e6cdc52ea69060200160405180910390a25050565b600082600060d954116120355760405162461bcd60e51b8152600401610d03906150c1565b600081116120555760405162461bcd60e51b8152600401610d03906150e2565b61205e83612c5f565b8411156120ad5760405162461bcd60e51b815260206004820152601b60248201527f455243343632363a206d696e74206d6f7265207468616e206d617800000000006044820152606401610d03565b60006120b8856129c1565b90506120c685826001613d20565b611d3233858388613dfc565b60606037805461154b90614fba565b60ca546001600160a01b0316336001600160a01b0316146121145760405162461bcd60e51b8152600401610d0390614e4a565b612127670de0b6b3a7640000600a614e1a565b81111561216b5760405162461bcd60e51b8152602060048201526012602482015271105093d59157d3505617d11254d0d3d5539560721b6044820152606401610d03565b60d781905560408051818152600c918101919091526b06d6178446973636f756e74560a41b6060820152602081018290526000805160206153c4833981519152906080016111a0565b60006121c86121c16117ee565b6001613f01565b701d6329f1c35ca4bfabb9f561000000000060f154846121e89190614f5d565b6121f29190614e1a565b6121fc9190614df0565b60f0546115db9190614ef7565b6000338161221782866130e5565b9050838110156122775760405162461bcd60e51b815260206004820152602560248201527f45524332303a2064656372656173656420616c6c6f77616e63652062656c6f77604482015264207a65726f60d81b6064820152608401610d03565b6122848286868403613a9b565b506001949350505050565b336122a361229b613e82565b823086613e96565b60da54839060001380156122b95750600060db54125b156123155760006064670de0b6b3a764000060d554876122d99190614e1a565b6122e39190614df0565b6122ed9190614df0565b90508060e760008282546123019190614ef7565b9091555061231190508183614f5d565b9150505b600061232060355490565b612332670de0b6b3a764000084614e1a565b61233c9190614df0565b90508060db6000828254612350919061500a565b9091555061235e905061180f565b8060dd6000828254612370919061500a565b925050819055508160ed6000828254612389919061500a565b925050819055508160eb60008282546123a2919061500a565b909155506123b09050611606565b6123b8611bd0565b836001600160a01b0316836001600160a01b03167f2083893e39f8ae736fed502f7e149cc5bfe6159878615fae685a9a98bc452d5a8785604051612406929190918252602082015260400190565b60405180910390a35050505050565b6001600160a01b038216600090815260e4602090815260408083208484529091529020548311156124845760405162461bcd60e51b81526020600482015260196024820152781353d49157d512105397d5d2551211149055d7d05353d55395603a1b6044820152606401610d03565b33600061249184836130e5565b9050836001600160a01b0316826001600160a01b031614806124be57506000811180156124be5750848110155b6124da5760405162461bcd60e51b8152600401610d0390614ed2565b6001600160a01b038416600090815260e4602090815260408083208684529091528120805487929061250d908490614f5d565b9250508190555082846001600160a01b0316836001600160a01b03167f443ccdbbbde35bd48740a9ea14c47318b735db4631ed1ebcdaaaa9f4636c84ea8860df54604051612565929190918252602082015260400190565b60405180910390a45050505050565b60cd60009054906101000a90046001600160a01b03166001600160a01b031663b8feee646040518163ffffffff1660e01b8152600401602060405180830381865afa1580156125c7573d6000803e3d6000fd5b505050506040513d601f19601f820116820180604052508101906125eb9190614e31565b156126275760405162461bcd60e51b815260206004820152600c60248201526b08a9c88be9e8cbe8aa09e86960a31b6044820152606401610d03565b33600061263483836130e5565b9050826001600160a01b0316826001600160a01b0316148061266157506000811180156126615750838110155b61267d5760405162461bcd60e51b8152600401610d0390614ed2565b61268683611d53565b84612690856127cc565b61269a9190614ef7565b11156126dc5760405162461bcd60e51b81526020600482015260116024820152704d4f52455f5448414e5f42414c414e434560781b6044820152606401610d03565b60006126e6612f88565b60df546126f39190614ef7565b6001600160a01b038516600090815260e46020908152604080832084845290915281208054929350879290919061272b908490614ef7565b9250508190555080846001600160a01b0316846001600160a01b03167f21b8e5e36008677ea26efbbc967e568e01b127f731ed0fda0a8685fda37d0d5f8860df54604051612565929190918252602082015260400190565b6000338261279082611d53565b61279a9190614f5d565b6127a3826127cc565b11156127c15760405162461bcd60e51b8152600401610d039061504d565b6115ef8185856138c8565b60df546000905b60cf6000815481106127e7576127e7614e04565b906000526020600020015460df546127ff9190614ef7565b8111612847576001600160a01b038316600090815260e4602090815260408083208484529091529020546128339083614ef7565b91508061283f81615161565b9150506127d3565b50919050565b600083600060d954116128725760405162461bcd60e51b8152600401610d03906150c1565b600081116128925760405162461bcd60e51b8152600401610d03906150e2565b83600060d754116128b55760405162461bcd60e51b8152600401610d039061517a565b60ce548110156128d75760405162461bcd60e51b8152600401610d03906151a6565b6301e133808111156128fb5760405162461bcd60e51b8152600401610d03906151d7565b61290484612c5f565b8611156129485760405162461bcd60e51b815260206004820152601260248201527109a929ca8be9a9ea48abea890829cbe9a82b60731b6044820152606401610d03565b6000612953876129c1565b90506129b68161296a612964612bee565b89612e0d565b61297d670de0b6b3a76400006064614e1a565b6129879190614ef7565b61299a670de0b6b3a76400006064614e1a565b6129a49085614e1a565b6129ae9190614df0565b898989613f10565b979650505050505050565b60006115db826001613a5a565b600083600060d954116129f35760405162461bcd60e51b8152600401610d03906150c1565b60008111612a135760405162461bcd60e51b8152600401610d03906150e2565b612a1c83612c9b565b851115612a6b5760405162461bcd60e51b815260206004820152601f60248201527f455243343632363a207769746864726177206d6f7265207468616e206d6178006044820152606401610d03565b6000612a76866115f9565b6001600160a01b038516600090815260e46020908152604080832060df548452909152812080549293508392909190612ab0908490614f5d565b90915550612ac2905081876000613d20565b612acf33868689856140cb565b95945050505050565b600083600060d95411612afd5760405162461bcd60e51b8152600401610d03906150c1565b60008111612b1d5760405162461bcd60e51b8152600401610d03906150e2565b612b268361302c565b851115612b755760405162461bcd60e51b815260206004820152601d60248201527f455243343632363a2072656465656d206d6f7265207468616e206d61780000006044820152606401610d03565b6001600160a01b038316600090815260e46020908152604080832060df54845290915281208054879290612baa908490614f5d565b9091555060009050612bbb866115ce565b9050612bc986826000613d20565b612acf338686848a6140cb565b600060dc54670de0b6b3a76400006110e69190614ef7565b600080612bf9612bd6565b905080670de0b6b3a7640000600060da5413612c2d5760da54612c1e90600019615103565b612c289084614ef7565b612c3a565b60da54612c3a9084614f5d565b612c45906064614e1a565b612c4f9190614e1a565b612c599190614df0565b91505090565b60008060da5413612c72576000196115db565b612c8160e254611e4360355490565b60e2546115db9190614f5d565b60006115db826000613bbf565b60006115db61198f8361302c565b60ca546001600160a01b0316336001600160a01b031614612cdc5760405162461bcd60e51b8152600401610d0390614e4a565b612cef670de0b6b3a76400006019614e1a565b811115612d0e5760405162461bcd60e51b8152600401610d0390614e70565b60d581905560408051818152600b918101919091526a06c6f737365734275726e560ac1b6060820152602081018290526000805160206153c4833981519152906080016111a0565b60ca546001600160a01b0316336001600160a01b031614612d895760405162461bcd60e51b8152600401610d0390614e4a565b612d9c670de0b6b3a76400006064614e1a565b811015612dbb5760405162461bcd60e51b8152600401610d0390615079565b60d8819055604080518181526015918101919091527406d6178446973636f756e745468726573686f6c645605c1b6060820152602081018290526000805160206153c4833981519152906080016111a0565b60006301e1338082612e28670de0b6b3a76400006064614e1a565b851115612e8a5760d854851115612e40576000612e8e565b612e53670de0b6b3a76400006064614e1a565b60d854612e609190614f5d565b8560d854612e6e9190614f5d565b60d754612e7b9190614e1a565b612e859190614df0565b612e8e565b60d7545b612e989190614e1a565b6117e79190614df0565b612eaa613bdb565b6001600160a01b038116612ed05760405162461bcd60e51b8152600401610d039061502a565b60cc80546001600160a01b0319166001600160a01b03831690811790915560408051818152600a91810191909152693837362430b7323632b960b11b60608201526020810191909152600080516020615404833981519152906080016111a0565b612f39613bdb565b60d081905560408051818152601291810191909152716d61784163634f70656e506e6c44656c746160701b6060820152602081018290526000805160206153c4833981519152906080016111a0565b600080612f93612bee565b90506000612fae82611e43670de0b6b3a76400006064614e1a565b612fb89083614f5d565b60d35490915081116130055760d2548111612ff15760cf600081548110612fe157612fe1614e04565b9060005260206000200154613025565b60cf600181548110612fe157612fe1614e04565b60cf60028154811061301957613019614e04565b90600052602060002001545b9250505090565b60cd5460408051632e3fbb9960e21b815290516000926001600160a01b03169163b8feee649160048083019260209291908290030181865afa158015613076573d6000803e3d6000fd5b505050506040513d601f19601f8201168201806040525081019061309a9190614e31565b156130a65760006115db565b6001600160a01b038216600090815260e46020908152604080832060df5484529091529020546115db9060016130db60355490565b611e439190614f5d565b6001600160a01b03918216600090815260346020908152604080832093909416825291909152205490565b60ca546001600160a01b0316336001600160a01b0316146131435760405162461bcd60e51b8152600401610d0390614e4a565b6001600160a01b0381166131695760405162461bcd60e51b8152600401610d039061502a565b6097546001600160a01b03828116911614801590613195575060ca546001600160a01b03828116911614155b6131b15760405162461bcd60e51b8152600401610d039061509c565b60cb80546001600160a01b0319166001600160a01b038316908117909155604080518181526005918101919091526430b236b4b760d91b60608201526020810191909152600080516020615404833981519152906080016111a0565b6000670de0b6b3a764000061322160355490565b6116ea612bd6565b60cc5433906001600160a01b031681146132805760405162461bcd60e51b815260206004820152601860248201527727a7262cafaa2920a224a723afa827262fa420a7222622a960411b6044820152606401610d03565b60006132a1670de0b6b3a764000061329760355490565b8691906001613805565b90508060db60008282546132b59190614f0a565b909155506132c39050612bd6565b60db5413156132e45760405162461bcd60e51b8152600401610d0390614f32565b6132ec61180f565b8060dd60008282546132fe9190614f0a565b909155505060d15460dd5413156133485760405162461bcd60e51b815260206004820152600e60248201526d13505617d5d15512131657d4139360921b6044820152606401610d03565b8360ed600082825461335a9190614f0a565b925050819055508360eb60008282546133739190614f0a565b909155506133819050611606565b613389611bd0565b61339b613394613e82565b8486614168565b826001600160a01b0316826001600160a01b03167f17ffe64fb2212f31d60284d6471e06abb7db8d66f0a60f9b884b29f1597d05da866040516133e091815260200190565b60405180910390a350505050565b6134306040518060c0016040528060006001600160a01b0316815260200160008152602001600081526020016000815260200160008152602001600081525090565b50600090815260e66020908152604091829020825160c08101845281546001600160a01b03168152600182015492810192909252600281015492820192909252600382015460608201526004820154608082015260059091015460a082015290565b600083600060d954116134b75760405162461bcd60e51b8152600401610d03906150c1565b600081116134d75760405162461bcd60e51b8152600401610d03906150e2565b83600060d754116134fa5760405162461bcd60e51b8152600401610d039061517a565b60ce5481101561351c5760405162461bcd60e51b8152600401610d03906151a6565b6301e133808111156135405760405162461bcd60e51b8152600401610d03906151d7565b6000613555670de0b6b3a76400006064614e1a565b613566613560612bee565b88612e0d565b613579670de0b6b3a76400006064614e1a565b6135839190614ef7565b61358d9089614e1a565b6135979190614df0565b90506135a285611981565b8111156135e95760405162461bcd60e51b81526020600482015260156024820152740888aa09ea692a8be9a9ea48abea890829cbe9a82b605b1b6044820152606401610d03565b6129b681886135f784612c8e565b8989613f10565b613606613bdb565b6001600160a01b03811661366b5760405162461bcd60e51b815260206004820152602660248201527f4f776e61626c653a206e6577206f776e657220697320746865207a65726f206160448201526564647265737360d01b6064820152608401610d03565b60ca546001600160a01b03828116911614801590613697575060cb546001600160a01b03828116911614155b6136b35760405162461bcd60e51b8152600401610d039061509c565b6116be816137b3565b60006110e66116c1565b6136ce613bdb565b80516020820151116137115760405162461bcd60e51b815260206004820152600c60248201526b57524f4e475f56414c55455360a01b6044820152606401610d03565b61371e60d28260026147e1565b507f8472b50e25b52d8de564f9719bd793b18d83cf59ce4d309e211fb6a4fdc14811816040516111a09190615208565b600054610100900460ff166137755760405162461bcd60e51b8152600401610d0390615239565b61377f828261419d565b5050565b600054610100900460ff166137aa5760405162461bcd60e51b8152600401610d0390615239565b6116be816141dd565b609780546001600160a01b038381166001600160a01b0319831681179093556040519116919082907f8be0079c531659141344cd1fd0a4f28419497f9722a3daafe3b4186f6b6457e090600090a35050565b600080613813868686614262565b9050600183600281111561382957613829615284565b14801561384657506000848061384157613841614dc4565b868809115b1561385957613856600182614ef7565b90505b90505b949350505050565b61386c611932565b600060da541361387d576000613881565b60da545b613889612bd6565b6138939190614f5d565b60d98190556040519081527f547c25b7a5677a006ff044a0e4b5e699598339825e7b42d3dc645117ceee805090602001611c66565b6001600160a01b03831661392c5760405162461bcd60e51b815260206004820152602560248201527f45524332303a207472616e736665722066726f6d20746865207a65726f206164604482015264647265737360d81b6064820152608401610d03565b6001600160a01b03821661398e5760405162461bcd60e51b815260206004820152602360248201527f45524332303a207472616e7366657220746f20746865207a65726f206164647260448201526265737360e81b6064820152608401610d03565b6001600160a01b03831660009081526033602052604090205481811015613a065760405162461bcd60e51b815260206004820152602660248201527f45524332303a207472616e7366657220616d6f756e7420657863656564732062604482015265616c616e636560d01b6064820152608401610d03565b6001600160a01b0380851660008181526033602052604080822086860390559286168082529083902080548601905591516000805160206153e4833981519152906133e09086815260200190565b50505050565b600060001983148015613a775750670de0b6b3a764000060d95410155b15613a835750816115db565b60d9546117e7908490670de0b6b3a764000085613805565b6001600160a01b038316613afd5760405162461bcd60e51b8152602060048201526024808201527f45524332303a20617070726f76652066726f6d20746865207a65726f206164646044820152637265737360e01b6064820152608401610d03565b6001600160a01b038216613b5e5760405162461bcd60e51b815260206004820152602260248201527f45524332303a20617070726f766520746f20746865207a65726f206164647265604482015261737360f01b6064820152608401610d03565b6001600160a01b0383811660008181526034602090815260408083209487168084529482529182902085905590518481527f8c5be1e5ebec7d5bd14f71427d1e84f3dd0314c0f7b2291e5b200ac8c7c3b925910160405180910390a3505050565b60d9546000906117e7908490670de0b6b3a76400009085613805565b6097546001600160a01b031633146118595760405162461bcd60e51b815260206004820181905260248201527f4f776e61626c653a2063616c6c6572206973206e6f7420746865206f776e65726044820152606401610d03565b6000613c4184846130e5565b90506000198114613a545781811015613c9c5760405162461bcd60e51b815260206004820152601d60248201527f45524332303a20696e73756666696369656e7420616c6c6f77616e63650000006044820152606401610d03565b613a548484848403613a9b565b6000806065546110e69190600160a01b900460ff1661529a565b600061a4b1461480613cd7575062066eed46145b15613d1b5760646001600160a01b031663a3b1b31d6040518163ffffffff1660e01b8152600401602060405180830381865afa1580156110c2573d6000803e3d6000fd5b504390565b6000613d2b60355490565b9050600060db541215613d765781613d4c57613d478482614f5d565b613d56565b613d568482614ef7565b8160db54613d649190615103565b613d6e9190615133565b60db55613dcb565b600060db541315613dcb5781613d8e57600019613d91565b60015b8160ed5486613da09190615103565b613daa9190615133565b613db49190615103565b60ed6000828254613dc59190614f0a565b90915550505b81613de3578260ea54613dde9190614f5d565b613df1565b8260ea54613df19190614ef7565b60ea55613a54611932565b606554613e14906001600160a01b0316853085613e96565b613e1e838261434c565b826001600160a01b0316846001600160a01b03167fdcbc1c05240f31ff3ad067ef1ee35ce4997762752e3a095284754544f4c709d784846040516133e0929190918252602082015260400190565b6000818310613e7b57816117e7565b5090919050565b60006110e66065546001600160a01b031690565b6040516001600160a01b0380851660248301528316604482015260648101829052613a549085906323b872dd60e01b906084015b60408051601f198184030181529190526020810180516001600160e01b03166001600160e01b0319909316929092179091526143fb565b6000818311613e7b57816117e7565b6000848611613f4f5760405162461bcd60e51b815260206004820152600b60248201526a1393d7d11254d0d3d5539560aa1b6044820152606401610d03565b600060e560008154613f6090615161565b918290555090506000613f738789614f5d565b600083815260e66020526040902080546001600160a01b0319166001600160a01b0387161781556001808201899055600282018a9055600382018390554260048301556005820188905591925090613fce9088908a90613d20565b33613fdb81308b8b613dfc565b8260ef6000828254613fed9190614ef7565b925050819055508260ee60008282546140069190614ef7565b909155505060c9546040516340c10f1960e01b81526001600160a01b03888116600483015260248201879052909116906340c10f1990604401600060405180830381600087803b15801561405957600080fd5b505af115801561406d573d6000803e3d6000fd5b505083546040516001600160a01b03918216935090841691507f5d26cdffbd8401ba2a961d2094f7f008ee7bd735ac02a949721ee0fd0f0d5afc906140b59088908790614f70565b60405180910390a3509198975050505050505050565b826001600160a01b0316856001600160a01b0316146140ef576140ef838683613c35565b6140f983826144d0565b606554614110906001600160a01b03168584614168565b826001600160a01b0316846001600160a01b0316866001600160a01b03167ffbde797d201c681b91056529119e0b02407c7bb96a4a2c75c01fc9667232c8db8585604051612565929190918252602082015260400190565b6040516001600160a01b03831660248201526044810182905261419890849063a9059cbb60e01b90606401613eca565b505050565b600054610100900460ff166141c45760405162461bcd60e51b8152600401610d0390615239565b60366141d08382615303565b5060376141988282615303565b600054610100900460ff166142045760405162461bcd60e51b8152600401610d0390615239565b600080614210836145f2565b9150915081614220576012614222565b805b606580546001600160a01b039095166001600160a01b031960ff93909316600160a01b02929092166001600160a81b031990951694909417179092555050565b600080806000198587098587029250828110838203039150508060000361429c5783828161429257614292614dc4565b04925050506117e7565b8084116142e35760405162461bcd60e51b81526020600482015260156024820152744d6174683a206d756c446976206f766572666c6f7760581b6044820152606401610d03565b60008486880960026001871981018816978890046003810283188082028403028082028403028082028403028082028403028082028403029081029092039091026000889003889004909101858311909403939093029303949094049190911702949350505050565b6001600160a01b0382166143a25760405162461bcd60e51b815260206004820152601f60248201527f45524332303a206d696e7420746f20746865207a65726f2061646472657373006044820152606401610d03565b80603560008282546143b49190614ef7565b90915550506001600160a01b0382166000818152603360209081526040808320805486019055518481526000805160206153e4833981519152910160405180910390a35050565b6000614450826040518060400160405280602081526020017f5361666545524332303a206c6f772d6c6576656c2063616c6c206661696c6564815250856001600160a01b03166146ce9092919063ffffffff16565b90508051600014806144715750808060200190518101906144719190614eb0565b6141985760405162461bcd60e51b815260206004820152602a60248201527f5361666545524332303a204552433230206f7065726174696f6e20646964206e6044820152691bdd081cdd58d8d9595960b21b6064820152608401610d03565b6001600160a01b0382166145305760405162461bcd60e51b815260206004820152602160248201527f45524332303a206275726e2066726f6d20746865207a65726f206164647265736044820152607360f81b6064820152608401610d03565b6001600160a01b038216600090815260336020526040902054818110156145a45760405162461bcd60e51b815260206004820152602260248201527f45524332303a206275726e20616d6f756e7420657863656564732062616c616e604482015261636560f01b6064820152608401610d03565b6001600160a01b03831660008181526033602090815260408083208686039055603580548790039055518581529192916000805160206153e4833981519152910160405180910390a3505050565b60408051600481526024810182526020810180516001600160e01b031663313ce56760e01b17905290516000918291829182916001600160a01b0387169161463991614fee565b600060405180830381855afa9150503d8060008114614674576040519150601f19603f3d011682016040523d82523d6000602084013e614679565b606091505b509150915081801561468d57506020815110155b156146c1576000818060200190518101906146a89190614e31565b905060ff81116146bf576001969095509350505050565b505b5060009485945092505050565b606061385c848460008585600080866001600160a01b031685876040516146f59190614fee565b60006040518083038185875af1925050503d8060008114614732576040519150601f19603f3d011682016040523d82523d6000602084013e614737565b606091505b50915091506129b687838387606083156147b25782516000036147ab576001600160a01b0385163b6147ab5760405162461bcd60e51b815260206004820152601d60248201527f416464726573733a2063616c6c20746f206e6f6e2d636f6e74726163740000006044820152606401610d03565b508161385c565b61385c83838151156147c75781518083602001fd5b8060405162461bcd60e51b8152600401610d039190614bb6565b826002810192821561480f579160200282015b8281111561480f5782518255916020019190600101906147f4565b5061481b92915061485f565b5090565b82805482825590600052602060002090810192821561480f579160200282015b8281111561480f578251829060ff1690559160200191906001019061483f565b5b8082111561481b5760008155600101614860565b634e487b7160e01b600052604160045260246000fd5b600082601f83011261489b57600080fd5b813567ffffffffffffffff808211156148b6576148b6614874565b604051601f8301601f19908116603f011681019082821181831017156148de576148de614874565b816040528381528660208588010111156148f757600080fd5b836020870160208301376000602085830101528094505050505092915050565b6001600160a01b03811681146116be57600080fd5b803561493781614917565b919050565b600060e0828403121561494e57600080fd5b60405160e0810181811067ffffffffffffffff8211171561497157614971614874565b604052905080823561498281614917565b8152602083013561499281614917565b602082015260408301356149a581614917565b604082015260608301356149b881614917565b60608201526149c96080840161492c565b60808201526149da60a0840161492c565b60a08201526149eb60c0840161492c565b60c08201525092915050565b600082601f830112614a0857600080fd5b6040516040810181811067ffffffffffffffff82111715614a2b57614a2b614874565b8060405250806040840185811115614a4257600080fd5b845b81811015614a5c578035835260209283019201614a44565b509195945050505050565b6000806000806000806000806000806000806102608d8f031215614a8a57600080fd5b67ffffffffffffffff8d351115614aa057600080fd5b614aad8e8e358f0161488a565b9b5067ffffffffffffffff60208e01351115614ac857600080fd5b614ad88e60208f01358f0161488a565b9a50614ae78e60408f0161493c565b99506101208d013598506101408d013597506101608d01359650614b0f8e6101808f016149f7565b95506101c08d013594506101e08d013593506102008d013592506102208d013591506102408d013590509295989b509295989b509295989b565b600060208284031215614b5b57600080fd5b5035919050565b60008060408385031215614b7557600080fd5b823591506020830135614b8781614917565b809150509250929050565b60005b83811015614bad578181015183820152602001614b95565b50506000910152565b6020815260008251806020840152614bd5816040850160208701614b92565b601f01601f19169190910160400192915050565b60008060408385031215614bfc57600080fd5b8235614c0781614917565b946020939093013593505050565b600060208284031215614c2757600080fd5b81356117e781614917565b600080600060608486031215614c4757600080fd5b8335614c5281614917565b92506020840135614c6281614917565b929592945050506040919091013590565b60008060408385031215614c8657600080fd5b50508035926020909101359150565b600080600060608486031215614caa57600080fd5b833592506020840135614c6281614917565b600080600060608486031215614cd157600080fd5b83359250602084013591506040840135614cea81614917565b809150509250925092565b600080600060608486031215614d0a57600080fd5b833592506020840135614d1c81614917565b91506040840135614cea81614917565b60008060408385031215614d3f57600080fd5b8235614d4a81614917565b91506020830135614b8781614917565b600060408284031215614d6c57600080fd5b6117e783836149f7565b6020808252602e908201527f496e697469616c697a61626c653a20636f6e747261637420697320616c72656160408201526d191e481a5b9a5d1a585b1a5e995960921b606082015260800190565b634e487b7160e01b600052601260045260246000fd5b634e487b7160e01b600052601160045260246000fd5b600082614dff57614dff614dc4565b500490565b634e487b7160e01b600052603260045260246000fd5b80820281158282048414176115db576115db614dda565b600060208284031215614e4357600080fd5b5051919050565b6020808252600c908201526b27a7262cafa6a0a720a3a2a960a11b604082015260600190565b602080825260099082015268082849eac8abe9a82b60bb1b604082015260600190565b600060208284031215614ea557600080fd5b81516117e781614917565b600060208284031215614ec257600080fd5b815180151581146117e757600080fd5b6020808252600b908201526a1393d517d0531313d5d15160aa1b604082015260600190565b808201808211156115db576115db614dda565b8082018281126000831280158216821582161715614f2a57614f2a614dda565b505092915050565b6020808252601190820152704e4f545f454e4f5547485f41535345545360781b604082015260600190565b818103818111156115db576115db614dda565b91825280546001600160a01b03166020830152600181015460408301526002810154606083015260038101546080830152600481015460a08301526005015460c082015260e00190565b600181811c90821680614fce57607f821691505b60208210810361284757634e487b7160e01b600052602260045260246000fd5b60008251615000818460208701614b92565b9190910192915050565b8181036000831280158383131683831282161715611d3557611d35614dda565b6020808252600990820152680414444524553535f360bc1b604082015260600190565b60208082526012908201527114115391125391d7d5d2551211149055d05360721b604082015260600190565b6020808252600990820152682122a627abafa6a4a760b91b604082015260600190565b6020808252600b908201526a57524f4e475f56414c554560a81b604082015260600190565b602080825260079082015266050524943455f360cc1b604082015260600190565b602080825260079082015266056414c55455f360cc1b604082015260600190565b80820260008212600160ff1b8414161561511f5761511f614dda565b81810583148215176115db576115db614dda565b60008261514257615142614dc4565b600160ff1b82146000198414161561515c5761515c614dda565b500590565b60006001820161517357615173614dda565b5060010190565b6020808252601290820152711393d7d050d512559157d11254d0d3d5539560721b604082015260600190565b6020808252601790820152762122a627abafa6a4a72fa627a1a5afa22aa920aa24a7a760491b604082015260600190565b60208082526017908201527620a127ab22afa6a0ac2fa627a1a5afa22aa920aa24a7a760491b604082015260600190565b60408101818360005b6002811015615230578151835260209283019290910190600101615211565b50505092915050565b6020808252602b908201527f496e697469616c697a61626c653a20636f6e7472616374206973206e6f74206960408201526a6e697469616c697a696e6760a81b606082015260800190565b634e487b7160e01b600052602160045260246000fd5b60ff81811683821601908111156115db576115db614dda565b601f821115614198576000816000526020600020601f850160051c810160208610156152dc5750805b601f850160051c820191505b818110156152fb578281556001016152e8565b505050505050565b815167ffffffffffffffff81111561531d5761531d614874565b6153318161532b8454614fba565b846152b3565b602080601f831160018114615366576000841561534e5750858301515b600019600386901b1c1916600185901b1785556152fb565b600085815260208120601f198616915b8281101561539557888601518255948401946001909101908401615376565b50858210156153b35787850151600019600388901b60f8161c191681555b5050505050600190811b0190555056fe127735ae9d047cae55da37db2c8ee184c735aacd68cef068d4e70be6a41661d9ddf252ad1be2c89b69c2b068fc378daa952ba7f163c4a11628f55a4df523b3ef60f89fdb372abe626eac485ef96b2a09f1cfbd7f225dd1e2b491a2b4069c2376a2646970667358221220e343fcef127e5a7782fc33e9f0bae55d7969c9a0ff9c1955e6b4326a6d568bd364736f6c63430008170033",
  "devdoc": {
    "events": {
      "Approval(address,address,uint256)": {
        "details": "Emitted when the allowance of a `spender` for an `owner` is set by a call to {approve}. `value` is the new allowance."
      },
      "Initialized(uint8)": {
        "details": "Triggered when the contract has been initialized or reinitialized."
      },
      "Transfer(address,address,uint256)": {
        "details": "Emitted when `value` tokens are moved from one account (`from`) to another (`to`). Note that `value` may be zero."
      }
    },
    "kind": "dev",
    "methods": {
      "allowance(address,address)": {
        "details": "See {IERC20-allowance}."
      },
      "approve(address,uint256)": {
        "details": "See {IERC20-approve}. NOTE: If `amount` is the maximum `uint256`, the allowance is not updated on `transferFrom`. This is semantically equivalent to an infinite approval. Requirements: - `spender` cannot be the zero address."
      },
      "asset()": {
        "details": "See {IERC4626-asset}. "
      },
      "balanceOf(address)": {
        "details": "See {IERC20-balanceOf}."
      },
      "convertToAssets(uint256)": {
        "details": "See {IERC4626-convertToAssets}. "
      },
      "convertToShares(uint256)": {
        "details": "See {IERC4626-convertToShares}. "
      },
      "decreaseAllowance(address,uint256)": {
        "details": "Atomically decreases the allowance granted to `spender` by the caller. This is an alternative to {approve} that can be used as a mitigation for problems described in {IERC20-approve}. Emits an {Approval} event indicating the updated allowance. Requirements: - `spender` cannot be the zero address. - `spender` must have allowance for the caller of at least `subtractedValue`."
      },
      "deposit(uint256,address)": {
        "details": "See {IERC4626-deposit}. "
      },
      "increaseAllowance(address,uint256)": {
        "details": "Atomically increases the allowance granted to `spender` by the caller. This is an alternative to {approve} that can be used as a mitigation for problems described in {IERC20-approve}. Emits an {Approval} event indicating the updated allowance. Requirements: - `spender` cannot be the zero address."
      },
      "maxMint(address)": {
        "details": "See {IERC4626-maxMint}. "
      },
      "maxRedeem(address)": {
        "details": "See {IERC4626-maxRedeem}. "
      },
      "maxWithdraw(address)": {
        "details": "See {IERC4626-maxWithdraw}. "
      },
      "mint(uint256,address)": {
        "details": "See {IERC4626-mint}. As opposed to {deposit}, minting is allowed even if the vault is in a state where the price of a share is zero. In this case, the shares will be minted without requiring any assets to be deposited."
      },
      "name()": {
        "details": "Returns the name of the token."
      },
      "owner()": {
        "details": "Returns the address of the current owner."
      },
      "previewDeposit(uint256)": {
        "details": "See {IERC4626-previewDeposit}. "
      },
      "previewMint(uint256)": {
        "details": "See {IERC4626-previewMint}. "
      },
      "previewRedeem(uint256)": {
        "details": "See {IERC4626-previewRedeem}. "
      },
      "previewWithdraw(uint256)": {
        "details": "See {IERC4626-previewWithdraw}. "
      },
      "redeem(uint256,address,address)": {
        "details": "See {IERC4626-redeem}. "
      },
      "renounceOwnership()": {
        "details": "Leaves the contract without owner. It will not be possible to call `onlyOwner` functions. Can only be called by the current owner. NOTE: Renouncing ownership will leave the contract without an owner, thereby disabling any functionality that is only available to the owner."
      },
      "symbol()": {
        "details": "Returns the symbol of the token, usually a shorter version of the name."
      },
      "totalAssets()": {
        "details": "See {IERC4626-totalAssets}. "
      },
      "totalSupply()": {
        "details": "See {IERC20-totalSupply}."
      },
      "transferOwnership(address)": {
        "details": "Transfers ownership of the contract to a new account (`newOwner`). Can only be called by the current owner."
      },
      "withdraw(uint256,address,address)": {
        "details": "See {IERC4626-withdraw}. "
      }
    },
    "version": 1
  },
  "userdoc": {
    "kind": "user",
    "methods": {},
    "version": 1
  },
  "storageLayout": {
    "storage": [
      {
        "astId": 306,
        "contract": "contracts/Vault.sol:Vault",
        "label": "_initialized",
        "offset": 0,
        "slot": "0",
        "type": "t_uint8"
      },
      {
        "astId": 309,
        "contract": "contracts/Vault.sol:Vault",
        "label": "_initializing",
        "offset": 1,
        "slot": "0",
        "type": "t_bool"
      },
      {
        "astId": 2626,
        "contract": "contracts/Vault.sol:Vault",
        "label": "__gap",
        "offset": 0,
        "slot": "1",
        "type": "t_array(t_uint256)50_storage"
      },
      {
        "astId": 487,
        "contract": "contracts/Vault.sol:Vault",
        "label": "_balances",
        "offset": 0,
        "slot": "51",
        "type": "t_mapping(t_address,t_uint256)"
      },
      {
        "astId": 493,
        "contract": "contracts/Vault.sol:Vault",
        "label": "_allowances",
        "offset": 0,
        "slot": "52",
        "type": "t_mapping(t_address,t_mapping(t_address,t_uint256))"
      },
      {
        "astId": 495,
        "contract": "contracts/Vault.sol:Vault",
        "label": "_totalSupply",
        "offset": 0,
        "slot": "53",
        "type": "t_uint256"
      },
      {
        "astId": 497,
        "contract": "contracts/Vault.sol:Vault",
        "label": "_name",
        "offset": 0,
        "slot": "54",
        "type": "t_string_storage"
      },
      {
        "astId": 499,
        "contract": "contracts/Vault.sol:Vault",
        "label": "_symbol",
        "offset": 0,
        "slot": "55",
        "type": "t_string_storage"
      },
      {
        "astId": 1079,
        "contract": "contracts/Vault.sol:Vault",
        "label": "__gap",
        "offset": 0,
        "slot": "56",
        "type": "t_array(t_uint256)45_storage"
      },
      {
        "astId": 1179,
        "contract": "contracts/Vault.sol:Vault",
        "label": "_asset",
        "offset": 0,
        "slot": "101",
        "type": "t_contract(IERC20Upgradeable)1158"
      },
      {
        "astId": 1181,
        "contract": "contracts/Vault.sol:Vault",
        "label": "_underlyingDecimals",
        "offset": 20,
        "slot": "101",
        "type": "t_uint8"
      },
      {
        "astId": 1817,
        "contract": "contracts/Vault.sol:Vault",
        "label": "__gap",
        "offset": 0,
        "slot": "102",
        "type": "t_array(t_uint256)49_storage"
      },
      {
        "astId": 10,
        "contract": "contracts/Vault.sol:Vault",
        "label": "_owner",
        "offset": 0,
        "slot": "151",
        "type": "t_address"
      },
      {
        "astId": 130,
        "contract": "contracts/Vault.sol:Vault",
        "label": "__gap",
        "offset": 0,
        "slot": "152",
        "type": "t_array(t_uint256)49_storage"
      },
      {
        "astId": 3645,
        "contract": "contracts/Vault.sol:Vault",
        "label": "lockedDepositNft",
        "offset": 0,
        "slot": "201",
        "type": "t_contract(INft)6612"
      },
      {
        "astId": 3647,
        "contract": "contracts/Vault.sol:Vault",
        "label": "manager",
        "offset": 0,
        "slot": "202",
        "type": "t_address"
      },
      {
        "astId": 3649,
        "contract": "contracts/Vault.sol:Vault",
        "label": "admin",
        "offset": 0,
        "slot": "203",
        "type": "t_address"
      },
      {
        "astId": 3651,
        "contract": "contracts/Vault.sol:Vault",
        "label": "pnlHandler",
        "offset": 0,
        "slot": "204",
        "type": "t_address"
      },
      {
        "astId": 3654,
        "contract": "contracts/Vault.sol:Vault",
        "label": "openTradesPnlFeed",
        "offset": 0,
        "slot": "205",
        "type": "t_contract(IOpenTradesPnlFeed)6623"
      },
      {
        "astId": 3690,
        "contract": "contracts/Vault.sol:Vault",
        "label": "MIN_LOCK_DURATION",
        "offset": 0,
        "slot": "206",
        "type": "t_uint256"
      },
      {
        "astId": 3696,
        "contract": "contracts/Vault.sol:Vault",
        "label": "WITHDRAW_EPOCHS_LOCKS",
        "offset": 0,
        "slot": "207",
        "type": "t_array(t_uint256)dyn_storage"
      },
      {
        "astId": 3698,
        "contract": "contracts/Vault.sol:Vault",
        "label": "maxAccOpenPnlDelta",
        "offset": 0,
        "slot": "208",
        "type": "t_uint256"
      },
      {
        "astId": 3700,
        "contract": "contracts/Vault.sol:Vault",
        "label": "maxdailyAccPnlDelta",
        "offset": 0,
        "slot": "209",
        "type": "t_uint256"
      },
      {
        "astId": 3704,
        "contract": "contracts/Vault.sol:Vault",
        "label": "withdrawLockThresholdsP",
        "offset": 0,
        "slot": "210",
        "type": "t_array(t_uint256)2_storage"
      },
      {
        "astId": 3706,
        "contract": "contracts/Vault.sol:Vault",
        "label": "maxSupplyIncreaseDailyP",
        "offset": 0,
        "slot": "212",
        "type": "t_uint256"
      },
      {
        "astId": 3708,
        "contract": "contracts/Vault.sol:Vault",
        "label": "lossesBurnP",
        "offset": 0,
        "slot": "213",
        "type": "t_uint256"
      },
      {
        "astId": 3710,
        "contract": "contracts/Vault.sol:Vault",
        "label": "maxSupplyMintDailyP",
        "offset": 0,
        "slot": "214",
        "type": "t_uint256"
      },
      {
        "astId": 3712,
        "contract": "contracts/Vault.sol:Vault",
        "label": "maxDiscountP",
        "offset": 0,
        "slot": "215",
        "type": "t_uint256"
      },
      {
        "astId": 3714,
        "contract": "contracts/Vault.sol:Vault",
        "label": "maxDiscountThresholdP",
        "offset": 0,
        "slot": "216",
        "type": "t_uint256"
      },
      {
        "astId": 3716,
        "contract": "contracts/Vault.sol:Vault",
        "label": "shareToAssetsPrice",
        "offset": 0,
        "slot": "217",
        "type": "t_uint256"
      },
      {
        "astId": 3718,
        "contract": "contracts/Vault.sol:Vault",
        "label": "accPnlPerTokenUsed",
        "offset": 0,
        "slot": "218",
        "type": "t_int256"
      },
      {
        "astId": 3720,
        "contract": "contracts/Vault.sol:Vault",
        "label": "accPnlPerToken",
        "offset": 0,
        "slot": "219",
        "type": "t_int256"
      },
      {
        "astId": 3722,
        "contract": "contracts/Vault.sol:Vault",
        "label": "accRewardsPerToken",
        "offset": 0,
        "slot": "220",
        "type": "t_uint256"
      },
      {
        "astId": 3724,
        "contract": "contracts/Vault.sol:Vault",
        "label": "dailyAccPnlDelta",
        "offset": 0,
        "slot": "221",
        "type": "t_int256"
      },
      {
        "astId": 3726,
        "contract": "contracts/Vault.sol:Vault",
        "label": "lastDailyAccPnlDeltaReset",
        "offset": 0,
        "slot": "222",
        "type": "t_uint256"
      },
      {
        "astId": 3728,
        "contract": "contracts/Vault.sol:Vault",
        "label": "currentEpoch",
        "offset": 0,
        "slot": "223",
        "type": "t_uint256"
      },
      {
        "astId": 3730,
        "contract": "contracts/Vault.sol:Vault",
        "label": "currentEpochStart",
        "offset": 0,
        "slot": "224",
        "type": "t_uint256"
      },
      {
        "astId": 3732,
        "contract": "contracts/Vault.sol:Vault",
        "label": "currentEpochPositiveOpenPnl",
        "offset": 0,
        "slot": "225",
        "type": "t_uint256"
      },
      {
        "astId": 3734,
        "contract": "contracts/Vault.sol:Vault",
        "label": "currentMaxSupply",
        "offset": 0,
        "slot": "226",
        "type": "t_uint256"
      },
      {
        "astId": 3736,
        "contract": "contracts/Vault.sol:Vault",
        "label": "lastMaxSupplyUpdate",
        "offset": 0,
        "slot": "227",
        "type": "t_uint256"
      },
      {
        "astId": 3742,
        "contract": "contracts/Vault.sol:Vault",
        "label": "withdrawRequests",
        "offset": 0,
        "slot": "228",
        "type": "t_mapping(t_address,t_mapping(t_uint256,t_uint256))"
      },
      {
        "astId": 3744,
        "contract": "contracts/Vault.sol:Vault",
        "label": "lockedDepositsCount",
        "offset": 0,
        "slot": "229",
        "type": "t_uint256"
      },
      {
        "astId": 3749,
        "contract": "contracts/Vault.sol:Vault",
        "label": "lockedDeposits",
        "offset": 0,
        "slot": "230",
        "type": "t_mapping(t_uint256,t_struct(LockedDeposit)6672_storage)"
      },
      {
        "astId": 3751,
        "contract": "contracts/Vault.sol:Vault",
        "label": "assetsToDeplete",
        "offset": 0,
        "slot": "231",
        "type": "t_uint256"
      },
      {
        "astId": 3753,
        "contract": "contracts/Vault.sol:Vault",
        "label": "dailyMinted",
        "offset": 0,
        "slot": "232",
        "type": "t_uint256"
      },
      {
        "astId": 3755,
        "contract": "contracts/Vault.sol:Vault",
        "label": "lastdailyMintedReset",
        "offset": 0,
        "slot": "233",
        "type": "t_uint256"
      },
      {
        "astId": 3757,
        "contract": "contracts/Vault.sol:Vault",
        "label": "totalDeposited",
        "offset": 0,
        "slot": "234",
        "type": "t_uint256"
      },
      {
        "astId": 3759,
        "contract": "contracts/Vault.sol:Vault",
        "label": "totalClosedPnl",
        "offset": 0,
        "slot": "235",
        "type": "t_int256"
      },
      {
        "astId": 3761,
        "contract": "contracts/Vault.sol:Vault",
        "label": "totalRewards",
        "offset": 0,
        "slot": "236",
        "type": "t_uint256"
      },
      {
        "astId": 3763,
        "contract": "contracts/Vault.sol:Vault",
        "label": "totalLiability",
        "offset": 0,
        "slot": "237",
        "type": "t_int256"
      },
      {
        "astId": 3765,
        "contract": "contracts/Vault.sol:Vault",
        "label": "totalLockedDiscounts",
        "offset": 0,
        "slot": "238",
        "type": "t_uint256"
      },
      {
        "astId": 3767,
        "contract": "contracts/Vault.sol:Vault",
        "label": "totalDiscounts",
        "offset": 0,
        "slot": "239",
        "type": "t_uint256"
      },
      {
        "astId": 3769,
        "contract": "contracts/Vault.sol:Vault",
        "label": "accBlockWeightedMarketCap",
        "offset": 0,
        "slot": "240",
        "type": "t_uint256"
      },
      {
        "astId": 3771,
        "contract": "contracts/Vault.sol:Vault",
        "label": "accBlockWeightedMarketCapLastStored",
        "offset": 0,
        "slot": "241",
        "type": "t_uint256"
      }
    ],
    "types": {
      "t_address": {
        "encoding": "inplace",
        "label": "address",
        "numberOfBytes": "20"
      },
      "t_array(t_uint256)2_storage": {
        "base": "t_uint256",
        "encoding": "inplace",
        "label": "uint256[2]",
        "numberOfBytes": "64"
      },
      "t_array(t_uint256)45_storage": {
        "base": "t_uint256",
        "encoding": "inplace",
        "label": "uint256[45]",
        "numberOfBytes": "1440"
      },
      "t_array(t_uint256)49_storage": {
        "base": "t_uint256",
        "encoding": "inplace",
        "label": "uint256[49]",
        "numberOfBytes": "1568"
      },
      "t_array(t_uint256)50_storage": {
        "base": "t_uint256",
        "encoding": "inplace",
        "label": "uint256[50]",
        "numberOfBytes": "1600"
      },
      "t_array(t_uint256)dyn_storage": {
        "base": "t_uint256",
        "encoding": "dynamic_array",
        "label": "uint256[]",
        "numberOfBytes": "32"
      },
      "t_bool": {
        "encoding": "inplace",
        "label": "bool",
        "numberOfBytes": "1"
      },
      "t_contract(IERC20Upgradeable)1158": {
        "encoding": "inplace",
        "label": "contract IERC20Upgradeable",
        "numberOfBytes": "20"
      },
      "t_contract(INft)6612": {
        "encoding": "inplace",
        "label": "contract INft",
        "numberOfBytes": "20"
      },
      "t_contract(IOpenTradesPnlFeed)6623": {
        "encoding": "inplace",
        "label": "contract IOpenTradesPnlFeed",
        "numberOfBytes": "20"
      },
      "t_int256": {
        "encoding": "inplace",
        "label": "int256",
        "numberOfBytes": "32"
      },
      "t_mapping(t_address,t_mapping(t_address,t_uint256))": {
        "encoding": "mapping",
        "key": "t_address",
        "label": "mapping(address => mapping(address => uint256))",
        "numberOfBytes": "32",
        "value": "t_mapping(t_address,t_uint256)"
      },
      "t_mapping(t_address,t_mapping(t_uint256,t_uint256))": {
        "encoding": "mapping",
        "key": "t_address",
        "label": "mapping(address => mapping(uint256 => uint256))",
        "numberOfBytes": "32",
        "value": "t_mapping(t_uint256,t_uint256)"
      },
      "t_mapping(t_address,t_uint256)": {
        "encoding": "mapping",
        "key": "t_address",
        "label": "mapping(address => uint256)",
        "numberOfBytes": "32",
        "value": "t_uint256"
      },
      "t_mapping(t_uint256,t_struct(LockedDeposit)6672_storage)": {
        "encoding": "mapping",
        "key": "t_uint256",
        "label": "mapping(uint256 => struct IToken.LockedDeposit)",
        "numberOfBytes": "32",
        "value": "t_struct(LockedDeposit)6672_storage"
      },
      "t_mapping(t_uint256,t_uint256)": {
        "encoding": "mapping",
        "key": "t_uint256",
        "label": "mapping(uint256 => uint256)",
        "numberOfBytes": "32",
        "value": "t_uint256"
      },
      "t_string_storage": {
        "encoding": "bytes",
        "label": "string",
        "numberOfBytes": "32"
      },
      "t_struct(LockedDeposit)6672_storage": {
        "encoding": "inplace",
        "label": "struct IToken.LockedDeposit",
        "members": [
          {
            "astId": 6661,
            "contract": "contracts/Vault.sol:Vault",
            "label": "owner",
            "offset": 0,
            "slot": "0",
            "type": "t_address"
          },
          {
            "astId": 6663,
            "contract": "contracts/Vault.sol:Vault",
            "label": "shares",
            "offset": 0,
            "slot": "1",
            "type": "t_uint256"
          },
          {
            "astId": 6665,
            "contract": "contracts/Vault.sol:Vault",
            "label": "assetsDeposited",
            "offset": 0,
            "slot": "2",
            "type": "t_uint256"
          },
          {
            "astId": 6667,
            "contract": "contracts/Vault.sol:Vault",
            "label": "assetsDiscount",
            "offset": 0,
            "slot": "3",
            "type": "t_uint256"
          },
          {
            "astId": 6669,
            "contract": "contracts/Vault.sol:Vault",
            "label": "atTimestamp",
            "offset": 0,
            "slot": "4",
            "type": "t_uint256"
          },
          {
            "astId": 6671,
            "contract": "contracts/Vault.sol:Vault",
            "label": "lockDuration",
            "offset": 0,
            "slot": "5",
            "type": "t_uint256"
          }
        ],
        "numberOfBytes": "192"
      },
      "t_uint256": {
        "encoding": "inplace",
        "label": "uint256",
        "numberOfBytes": "32"
      },
      "t_uint8": {
        "encoding": "inplace",
        "label": "uint8",
        "numberOfBytes": "1"
      }
    }
  }
}