{
  "address": "0xD6137576d9eEd92e0c76Fec1F46acd538E56963F",
  "abi": [
    {
      "inputs": [],
      "name": "Forbidden",
      "type": "error"
    },
    {
      "inputs": [],
      "name": "WrongParams",
      "type": "error"
    },
    {
      "anonymous": false,
      "inputs": [
        {
          "indexed": true,
          "internalType": "address",
          "name": "trader",
          "type": "address"
        },
        {
          "indexed": false,
          "internalType": "uint256",
          "name": "tradeValueWETH",
          "type": "uint256"
        },
        {
          "indexed": false,
          "internalType": "uint256",
          "name": "feeValueWETH",
          "type": "uint256"
        }
      ],
      "name": "BorrowingFeeCharged",
      "type": "event"
    },
    {
      "anonymous": false,
      "inputs": [
        {
          "indexed": false,
          "internalType": "uint256",
          "name": "newValue",
          "type": "uint256"
        }
      ],
      "name": "CanExecuteTimeoutUpdated",
      "type": "event"
    },
    {
      "anonymous": false,
      "inputs": [
        {
          "indexed": false,
          "internalType": "uint256",
          "name": "WETHVaultFeeP",
          "type": "uint256"
        },
        {
          "indexed": false,
          "internalType": "uint256",
          "name": "lpFeeP",
          "type": "uint256"
        },
        {
          "indexed": false,
          "internalType": "uint256",
          "name": "sssFeeP",
          "type": "uint256"
        }
      ],
      "name": "ClosingFeeSharesPUpdated",
      "type": "event"
    },
    {
      "anonymous": false,
      "inputs": [
        {
          "indexed": true,
          "internalType": "address",
          "name": "trader",
          "type": "address"
        },
        {
          "indexed": false,
          "internalType": "uint256",
          "name": "valueWETH",
          "type": "uint256"
        }
      ],
      "name": "DevGovFeeCharged",
      "type": "event"
    },
    {
      "anonymous": false,
      "inputs": [
        {
          "indexed": false,
          "internalType": "bool",
          "name": "done",
          "type": "bool"
        }
      ],
      "name": "Done",
      "type": "event"
    },
    {
      "anonymous": false,
      "inputs": [
        {
          "indexed": false,
          "internalType": "uint8",
          "name": "version",
          "type": "uint8"
        }
      ],
      "name": "Initialized",
      "type": "event"
    },
    {
      "anonymous": false,
      "inputs": [
        {
          "indexed": true,
          "internalType": "uint256",
          "name": "orderId",
          "type": "uint256"
        },
        {
          "indexed": false,
          "internalType": "uint256",
          "name": "limitIndex",
          "type": "uint256"
        },
        {
          "components": [
            {
              "internalType": "address",
              "name": "trader",
              "type": "address"
            },
            {
              "internalType": "uint256",
              "name": "pairIndex",
              "type": "uint256"
            },
            {
              "internalType": "uint256",
              "name": "index",
              "type": "uint256"
            },
            {
              "internalType": "uint256",
              "name": "initialPosToken",
              "type": "uint256"
            },
            {
              "internalType": "uint256",
              "name": "positionSizeWETH",
              "type": "uint256"
            },
            {
              "internalType": "uint256",
              "name": "openPrice",
              "type": "uint256"
            },
            {
              "internalType": "bool",
              "name": "buy",
              "type": "bool"
            },
            {
              "internalType": "uint256",
              "name": "leverage",
              "type": "uint256"
            },
            {
              "internalType": "uint256",
              "name": "tp",
              "type": "uint256"
            },
            {
              "internalType": "uint256",
              "name": "sl",
              "type": "uint256"
            }
          ],
          "indexed": false,
          "internalType": "struct StorageInterface.Trade",
          "name": "t",
          "type": "tuple"
        },
        {
          "indexed": true,
          "internalType": "address",
          "name": "nftHolder",
          "type": "address"
        },
        {
          "indexed": false,
          "internalType": "enum StorageInterface.LimitOrder",
          "name": "orderType",
          "type": "uint8"
        },
        {
          "indexed": false,
          "internalType": "uint256",
          "name": "price",
          "type": "uint256"
        },
        {
          "indexed": false,
          "internalType": "uint256",
          "name": "priceImpactP",
          "type": "uint256"
        },
        {
          "indexed": false,
          "internalType": "uint256",
          "name": "positionSizeWETH",
          "type": "uint256"
        },
        {
          "indexed": false,
          "internalType": "int256",
          "name": "percentProfit",
          "type": "int256"
        },
        {
          "indexed": false,
          "internalType": "uint256",
          "name": "WETHSentToTrader",
          "type": "uint256"
        },
        {
          "indexed": false,
          "internalType": "bool",
          "name": "exactExecution",
          "type": "bool"
        }
      ],
      "name": "LimitExecuted",
      "type": "event"
    },
    {
      "anonymous": false,
      "inputs": [
        {
          "indexed": true,
          "internalType": "uint256",
          "name": "orderId",
          "type": "uint256"
        },
        {
          "indexed": true,
          "internalType": "address",
          "name": "trader",
          "type": "address"
        },
        {
          "indexed": true,
          "internalType": "uint256",
          "name": "pairIndex",
          "type": "uint256"
        },
        {
          "indexed": false,
          "internalType": "uint256",
          "name": "index",
          "type": "uint256"
        },
        {
          "indexed": false,
          "internalType": "enum TradingCallbacks.CancelReason",
          "name": "cancelReason",
          "type": "uint8"
        }
      ],
      "name": "MarketCloseCanceled",
      "type": "event"
    },
    {
      "anonymous": false,
      "inputs": [
        {
          "indexed": true,
          "internalType": "uint256",
          "name": "orderId",
          "type": "uint256"
        },
        {
          "components": [
            {
              "internalType": "address",
              "name": "trader",
              "type": "address"
            },
            {
              "internalType": "uint256",
              "name": "pairIndex",
              "type": "uint256"
            },
            {
              "internalType": "uint256",
              "name": "index",
              "type": "uint256"
            },
            {
              "internalType": "uint256",
              "name": "initialPosToken",
              "type": "uint256"
            },
            {
              "internalType": "uint256",
              "name": "positionSizeWETH",
              "type": "uint256"
            },
            {
              "internalType": "uint256",
              "name": "openPrice",
              "type": "uint256"
            },
            {
              "internalType": "bool",
              "name": "buy",
              "type": "bool"
            },
            {
              "internalType": "uint256",
              "name": "leverage",
              "type": "uint256"
            },
            {
              "internalType": "uint256",
              "name": "tp",
              "type": "uint256"
            },
            {
              "internalType": "uint256",
              "name": "sl",
              "type": "uint256"
            }
          ],
          "indexed": false,
          "internalType": "struct StorageInterface.Trade",
          "name": "t",
          "type": "tuple"
        },
        {
          "indexed": false,
          "internalType": "bool",
          "name": "open",
          "type": "bool"
        },
        {
          "indexed": false,
          "internalType": "uint256",
          "name": "price",
          "type": "uint256"
        },
        {
          "indexed": false,
          "internalType": "uint256",
          "name": "priceImpactP",
          "type": "uint256"
        },
        {
          "indexed": false,
          "internalType": "uint256",
          "name": "positionSizeWETH",
          "type": "uint256"
        },
        {
          "indexed": false,
          "internalType": "int256",
          "name": "percentProfit",
          "type": "int256"
        },
        {
          "indexed": false,
          "internalType": "uint256",
          "name": "WETHSentToTrader",
          "type": "uint256"
        }
      ],
      "name": "MarketExecuted",
      "type": "event"
    },
    {
      "anonymous": false,
      "inputs": [
        {
          "indexed": true,
          "internalType": "uint256",
          "name": "orderId",
          "type": "uint256"
        },
        {
          "indexed": true,
          "internalType": "address",
          "name": "trader",
          "type": "address"
        },
        {
          "indexed": true,
          "internalType": "uint256",
          "name": "pairIndex",
          "type": "uint256"
        },
        {
          "indexed": false,
          "internalType": "enum TradingCallbacks.CancelReason",
          "name": "cancelReason",
          "type": "uint8"
        }
      ],
      "name": "MarketOpenCanceled",
      "type": "event"
    },
    {
      "anonymous": false,
      "inputs": [
        {
          "indexed": true,
          "internalType": "address",
          "name": "trader",
          "type": "address"
        },
        {
          "indexed": false,
          "internalType": "uint256",
          "name": "valueWETH",
          "type": "uint256"
        }
      ],
      "name": "NftBotFeeCharged",
      "type": "event"
    },
    {
      "anonymous": false,
      "inputs": [
        {
          "indexed": true,
          "internalType": "uint256",
          "name": "orderId",
          "type": "uint256"
        },
        {
          "indexed": true,
          "internalType": "address",
          "name": "nftHolder",
          "type": "address"
        },
        {
          "indexed": false,
          "internalType": "enum StorageInterface.LimitOrder",
          "name": "orderType",
          "type": "uint8"
        },
        {
          "indexed": false,
          "internalType": "enum TradingCallbacks.CancelReason",
          "name": "cancelReason",
          "type": "uint8"
        }
      ],
      "name": "NftOrderCanceled",
      "type": "event"
    },
    {
      "anonymous": false,
      "inputs": [
        {
          "indexed": true,
          "internalType": "uint256",
          "name": "pairIndex",
          "type": "uint256"
        },
        {
          "indexed": false,
          "internalType": "uint256",
          "name": "maxLeverage",
          "type": "uint256"
        }
      ],
      "name": "PairMaxLeverageUpdated",
      "type": "event"
    },
    {
      "anonymous": false,
      "inputs": [
        {
          "indexed": false,
          "internalType": "bool",
          "name": "paused",
          "type": "bool"
        }
      ],
      "name": "Pause",
      "type": "event"
    },
    {
      "anonymous": false,
      "inputs": [
        {
          "indexed": true,
          "internalType": "address",
          "name": "trader",
          "type": "address"
        },
        {
          "indexed": false,
          "internalType": "uint256",
          "name": "valueWETH",
          "type": "uint256"
        }
      ],
      "name": "ReferralFeeCharged",
      "type": "event"
    },
    {
      "anonymous": false,
      "inputs": [
        {
          "indexed": true,
          "internalType": "address",
          "name": "trader",
          "type": "address"
        },
        {
          "indexed": false,
          "internalType": "uint256",
          "name": "valueWETH",
          "type": "uint256"
        }
      ],
      "name": "SssFeeCharged",
      "type": "event"
    },
    {
      "anonymous": false,
      "inputs": [
        {
          "indexed": true,
          "internalType": "address",
          "name": "trader",
          "type": "address"
        },
        {
          "indexed": false,
          "internalType": "uint256",
          "name": "valueWETH",
          "type": "uint256"
        }
      ],
      "name": "WETHVaultFeeCharged",
      "type": "event"
    },
    {
      "inputs": [],
      "name": "WETHVaultFeeP",
      "outputs": [
        {
          "internalType": "uint256",
          "name": "",
          "type": "uint256"
        }
      ],
      "stateMutability": "view",
      "type": "function"
    },
    {
      "inputs": [],
      "name": "borrowingFees",
      "outputs": [
        {
          "internalType": "contract BorrowingFeesInterface",
          "name": "",
          "type": "address"
        }
      ],
      "stateMutability": "view",
      "type": "function"
    },
    {
      "inputs": [],
      "name": "canExecuteTimeout",
      "outputs": [
        {
          "internalType": "uint256",
          "name": "",
          "type": "uint256"
        }
      ],
      "stateMutability": "view",
      "type": "function"
    },
    {
      "inputs": [
        {
          "components": [
            {
              "internalType": "uint256",
              "name": "orderId",
              "type": "uint256"
            },
            {
              "internalType": "uint256",
              "name": "price",
              "type": "uint256"
            },
            {
              "internalType": "uint256",
              "name": "spreadP",
              "type": "uint256"
            },
            {
              "internalType": "uint256",
              "name": "open",
              "type": "uint256"
            },
            {
              "internalType": "uint256",
              "name": "high",
              "type": "uint256"
            },
            {
              "internalType": "uint256",
              "name": "low",
              "type": "uint256"
            }
          ],
          "internalType": "struct TradingCallbacks.AggregatorAnswer",
          "name": "a",
          "type": "tuple"
        },
        {
          "components": [
            {
              "components": [
                {
                  "internalType": "address",
                  "name": "trader",
                  "type": "address"
                },
                {
                  "internalType": "uint256",
                  "name": "pairIndex",
                  "type": "uint256"
                },
                {
                  "internalType": "uint256",
                  "name": "index",
                  "type": "uint256"
                },
                {
                  "internalType": "uint256",
                  "name": "initialPosToken",
                  "type": "uint256"
                },
                {
                  "internalType": "uint256",
                  "name": "positionSizeWETH",
                  "type": "uint256"
                },
                {
                  "internalType": "uint256",
                  "name": "openPrice",
                  "type": "uint256"
                },
                {
                  "internalType": "bool",
                  "name": "buy",
                  "type": "bool"
                },
                {
                  "internalType": "uint256",
                  "name": "leverage",
                  "type": "uint256"
                },
                {
                  "internalType": "uint256",
                  "name": "tp",
                  "type": "uint256"
                },
                {
                  "internalType": "uint256",
                  "name": "sl",
                  "type": "uint256"
                }
              ],
              "internalType": "struct StorageInterface.Trade",
              "name": "trade",
              "type": "tuple"
            },
            {
              "internalType": "uint256",
              "name": "block",
              "type": "uint256"
            },
            {
              "internalType": "uint256",
              "name": "wantedPrice",
              "type": "uint256"
            },
            {
              "internalType": "uint256",
              "name": "slippageP",
              "type": "uint256"
            },
            {
              "internalType": "uint256",
              "name": "spreadReductionP",
              "type": "uint256"
            },
            {
              "internalType": "uint256",
              "name": "tokenId",
              "type": "uint256"
            }
          ],
          "internalType": "struct StorageInterface.PendingMarketOrder",
          "name": "o",
          "type": "tuple"
        }
      ],
      "name": "closeTradeMarketCallback",
      "outputs": [],
      "stateMutability": "nonpayable",
      "type": "function"
    },
    {
      "inputs": [],
      "name": "done",
      "outputs": [],
      "stateMutability": "nonpayable",
      "type": "function"
    },
    {
      "inputs": [
        {
          "components": [
            {
              "internalType": "uint256",
              "name": "orderId",
              "type": "uint256"
            },
            {
              "internalType": "uint256",
              "name": "price",
              "type": "uint256"
            },
            {
              "internalType": "uint256",
              "name": "spreadP",
              "type": "uint256"
            },
            {
              "internalType": "uint256",
              "name": "open",
              "type": "uint256"
            },
            {
              "internalType": "uint256",
              "name": "high",
              "type": "uint256"
            },
            {
              "internalType": "uint256",
              "name": "low",
              "type": "uint256"
            }
          ],
          "internalType": "struct TradingCallbacks.AggregatorAnswer",
          "name": "a",
          "type": "tuple"
        },
        {
          "components": [
            {
              "internalType": "address",
              "name": "nftHolder",
              "type": "address"
            },
            {
              "internalType": "uint256",
              "name": "nftId",
              "type": "uint256"
            },
            {
              "internalType": "address",
              "name": "trader",
              "type": "address"
            },
            {
              "internalType": "uint256",
              "name": "pairIndex",
              "type": "uint256"
            },
            {
              "internalType": "uint256",
              "name": "index",
              "type": "uint256"
            },
            {
              "internalType": "enum StorageInterface.LimitOrder",
              "name": "orderType",
              "type": "uint8"
            }
          ],
          "internalType": "struct StorageInterface.PendingNftOrder",
          "name": "o",
          "type": "tuple"
        }
      ],
      "name": "executeNftCloseOrderCallback",
      "outputs": [],
      "stateMutability": "nonpayable",
      "type": "function"
    },
    {
      "inputs": [
        {
          "components": [
            {
              "internalType": "uint256",
              "name": "orderId",
              "type": "uint256"
            },
            {
              "internalType": "uint256",
              "name": "price",
              "type": "uint256"
            },
            {
              "internalType": "uint256",
              "name": "spreadP",
              "type": "uint256"
            },
            {
              "internalType": "uint256",
              "name": "open",
              "type": "uint256"
            },
            {
              "internalType": "uint256",
              "name": "high",
              "type": "uint256"
            },
            {
              "internalType": "uint256",
              "name": "low",
              "type": "uint256"
            }
          ],
          "internalType": "struct TradingCallbacks.AggregatorAnswer",
          "name": "a",
          "type": "tuple"
        }
      ],
      "name": "executeNftOpenOrderCallback",
      "outputs": [],
      "stateMutability": "nonpayable",
      "type": "function"
    },
    {
      "inputs": [],
      "name": "getAllPairsMaxLeverage",
      "outputs": [
        {
          "internalType": "uint256[]",
          "name": "",
          "type": "uint256[]"
        }
      ],
      "stateMutability": "view",
      "type": "function"
    },
    {
      "inputs": [
        {
          "internalType": "address",
          "name": "trader",
          "type": "address"
        },
        {
          "internalType": "uint256",
          "name": "pairIndex",
          "type": "uint256"
        },
        {
          "internalType": "uint256",
          "name": "index",
          "type": "uint256"
        }
      ],
      "name": "getTradePnl",
      "outputs": [
        {
          "internalType": "int256",
          "name": "pnl",
          "type": "int256"
        }
      ],
      "stateMutability": "view",
      "type": "function"
    },
    {
      "inputs": [],
      "name": "giveApproval",
      "outputs": [],
      "stateMutability": "nonpayable",
      "type": "function"
    },
    {
      "inputs": [
        {
          "internalType": "contract StorageInterface",
          "name": "_storageT",
          "type": "address"
        },
        {
          "internalType": "contract NftRewardsInterfaceV6_3_1",
          "name": "_nftRewards",
          "type": "address"
        },
        {
          "internalType": "contract PairInfosInterface",
          "name": "_pairInfos",
          "type": "address"
        },
        {
          "internalType": "contract ReferralsInterface",
          "name": "_referrals",
          "type": "address"
        },
        {
          "internalType": "contract StakingInterface",
          "name": "_staking",
          "type": "address"
        },
        {
          "internalType": "contract BorrowingFeesInterface",
          "name": "_borrowingFees",
          "type": "address"
        },
        {
          "internalType": "address",
          "name": "vaultToApprove",
          "type": "address"
        },
        {
          "internalType": "uint256",
          "name": "_WETHVaultFeeP",
          "type": "uint256"
        },
        {
          "internalType": "uint256",
          "name": "_lpFeeP",
          "type": "uint256"
        },
        {
          "internalType": "uint256",
          "name": "_sssFeeP",
          "type": "uint256"
        },
        {
          "internalType": "uint256",
          "name": "_canExecuteTimeout",
          "type": "uint256"
        }
      ],
      "name": "initialize",
      "outputs": [],
      "stateMutability": "nonpayable",
      "type": "function"
    },
    {
      "inputs": [],
      "name": "isDone",
      "outputs": [
        {
          "internalType": "bool",
          "name": "",
          "type": "bool"
        }
      ],
      "stateMutability": "view",
      "type": "function"
    },
    {
      "inputs": [],
      "name": "isPaused",
      "outputs": [
        {
          "internalType": "bool",
          "name": "",
          "type": "bool"
        }
      ],
      "stateMutability": "view",
      "type": "function"
    },
    {
      "inputs": [],
      "name": "lpFeeP",
      "outputs": [
        {
          "internalType": "uint256",
          "name": "",
          "type": "uint256"
        }
      ],
      "stateMutability": "view",
      "type": "function"
    },
    {
      "inputs": [],
      "name": "nftRewards",
      "outputs": [
        {
          "internalType": "contract NftRewardsInterfaceV6_3_1",
          "name": "",
          "type": "address"
        }
      ],
      "stateMutability": "view",
      "type": "function"
    },
    {
      "inputs": [
        {
          "components": [
            {
              "internalType": "uint256",
              "name": "orderId",
              "type": "uint256"
            },
            {
              "internalType": "uint256",
              "name": "price",
              "type": "uint256"
            },
            {
              "internalType": "uint256",
              "name": "spreadP",
              "type": "uint256"
            },
            {
              "internalType": "uint256",
              "name": "open",
              "type": "uint256"
            },
            {
              "internalType": "uint256",
              "name": "high",
              "type": "uint256"
            },
            {
              "internalType": "uint256",
              "name": "low",
              "type": "uint256"
            }
          ],
          "internalType": "struct TradingCallbacks.AggregatorAnswer",
          "name": "a",
          "type": "tuple"
        },
        {
          "components": [
            {
              "components": [
                {
                  "internalType": "address",
                  "name": "trader",
                  "type": "address"
                },
                {
                  "internalType": "uint256",
                  "name": "pairIndex",
                  "type": "uint256"
                },
                {
                  "internalType": "uint256",
                  "name": "index",
                  "type": "uint256"
                },
                {
                  "internalType": "uint256",
                  "name": "initialPosToken",
                  "type": "uint256"
                },
                {
                  "internalType": "uint256",
                  "name": "positionSizeWETH",
                  "type": "uint256"
                },
                {
                  "internalType": "uint256",
                  "name": "openPrice",
                  "type": "uint256"
                },
                {
                  "internalType": "bool",
                  "name": "buy",
                  "type": "bool"
                },
                {
                  "internalType": "uint256",
                  "name": "leverage",
                  "type": "uint256"
                },
                {
                  "internalType": "uint256",
                  "name": "tp",
                  "type": "uint256"
                },
                {
                  "internalType": "uint256",
                  "name": "sl",
                  "type": "uint256"
                }
              ],
              "internalType": "struct StorageInterface.Trade",
              "name": "trade",
              "type": "tuple"
            },
            {
              "internalType": "uint256",
              "name": "block",
              "type": "uint256"
            },
            {
              "internalType": "uint256",
              "name": "wantedPrice",
              "type": "uint256"
            },
            {
              "internalType": "uint256",
              "name": "slippageP",
              "type": "uint256"
            },
            {
              "internalType": "uint256",
              "name": "spreadReductionP",
              "type": "uint256"
            },
            {
              "internalType": "uint256",
              "name": "tokenId",
              "type": "uint256"
            }
          ],
          "internalType": "struct StorageInterface.PendingMarketOrder",
          "name": "o",
          "type": "tuple"
        }
      ],
      "name": "openTradeMarketCallback",
      "outputs": [],
      "stateMutability": "nonpayable",
      "type": "function"
    },
    {
      "inputs": [],
      "name": "pairInfos",
      "outputs": [
        {
          "internalType": "contract PairInfosInterface",
          "name": "",
          "type": "address"
        }
      ],
      "stateMutability": "view",
      "type": "function"
    },
    {
      "inputs": [
        {
          "internalType": "uint256",
          "name": "",
          "type": "uint256"
        }
      ],
      "name": "pairMaxLeverage",
      "outputs": [
        {
          "internalType": "uint256",
          "name": "",
          "type": "uint256"
        }
      ],
      "stateMutability": "view",
      "type": "function"
    },
    {
      "inputs": [],
      "name": "pause",
      "outputs": [],
      "stateMutability": "nonpayable",
      "type": "function"
    },
    {
      "inputs": [],
      "name": "referrals",
      "outputs": [
        {
          "internalType": "contract ReferralsInterface",
          "name": "",
          "type": "address"
        }
      ],
      "stateMutability": "view",
      "type": "function"
    },
    {
      "inputs": [
        {
          "internalType": "uint256",
          "name": "_canExecuteTimeout",
          "type": "uint256"
        }
      ],
      "name": "setCanExecuteTimeout",
      "outputs": [],
      "stateMutability": "nonpayable",
      "type": "function"
    },
    {
      "inputs": [
        {
          "internalType": "uint256",
          "name": "_WETHVaultFeeP",
          "type": "uint256"
        },
        {
          "internalType": "uint256",
          "name": "_lpFeeP",
          "type": "uint256"
        },
        {
          "internalType": "uint256",
          "name": "_sssFeeP",
          "type": "uint256"
        }
      ],
      "name": "setClosingFeeSharesP",
      "outputs": [],
      "stateMutability": "nonpayable",
      "type": "function"
    },
    {
      "inputs": [
        {
          "internalType": "uint256",
          "name": "pairIndex",
          "type": "uint256"
        },
        {
          "internalType": "uint256",
          "name": "maxLeverage",
          "type": "uint256"
        }
      ],
      "name": "setPairMaxLeverage",
      "outputs": [],
      "stateMutability": "nonpayable",
      "type": "function"
    },
    {
      "inputs": [
        {
          "internalType": "uint256[]",
          "name": "indices",
          "type": "uint256[]"
        },
        {
          "internalType": "uint256[]",
          "name": "values",
          "type": "uint256[]"
        }
      ],
      "name": "setPairMaxLeverageArray",
      "outputs": [],
      "stateMutability": "nonpayable",
      "type": "function"
    },
    {
      "inputs": [
        {
          "components": [
            {
              "internalType": "address",
              "name": "trader",
              "type": "address"
            },
            {
              "internalType": "uint256",
              "name": "pairIndex",
              "type": "uint256"
            },
            {
              "internalType": "uint256",
              "name": "index",
              "type": "uint256"
            },
            {
              "internalType": "enum TradingCallbacks.TradeType",
              "name": "tradeType",
              "type": "uint8"
            }
          ],
          "internalType": "struct TradingCallbacks.SimplifiedTradeId",
          "name": "_id",
          "type": "tuple"
        },
        {
          "components": [
            {
              "internalType": "uint40",
              "name": "maxSlippageP",
              "type": "uint40"
            },
            {
              "internalType": "uint216",
              "name": "_placeholder",
              "type": "uint216"
            }
          ],
          "internalType": "struct TradingCallbacks.TradeData",
          "name": "_tradeData",
          "type": "tuple"
        }
      ],
      "name": "setTradeData",
      "outputs": [],
      "stateMutability": "nonpayable",
      "type": "function"
    },
    {
      "inputs": [
        {
          "components": [
            {
              "internalType": "address",
              "name": "trader",
              "type": "address"
            },
            {
              "internalType": "uint256",
              "name": "pairIndex",
              "type": "uint256"
            },
            {
              "internalType": "uint256",
              "name": "index",
              "type": "uint256"
            },
            {
              "internalType": "enum TradingCallbacks.TradeType",
              "name": "tradeType",
              "type": "uint8"
            }
          ],
          "internalType": "struct TradingCallbacks.SimplifiedTradeId",
          "name": "_id",
          "type": "tuple"
        },
        {
          "components": [
            {
              "internalType": "uint32",
              "name": "tp",
              "type": "uint32"
            },
            {
              "internalType": "uint32",
              "name": "sl",
              "type": "uint32"
            },
            {
              "internalType": "uint32",
              "name": "limit",
              "type": "uint32"
            },
            {
              "internalType": "uint32",
              "name": "created",
              "type": "uint32"
            }
          ],
          "internalType": "struct TradingCallbacks.LastUpdated",
          "name": "_lastUpdated",
          "type": "tuple"
        }
      ],
      "name": "setTradeLastUpdated",
      "outputs": [],
      "stateMutability": "nonpayable",
      "type": "function"
    },
    {
      "inputs": [],
      "name": "sssFeeP",
      "outputs": [
        {
          "internalType": "uint256",
          "name": "",
          "type": "uint256"
        }
      ],
      "stateMutability": "view",
      "type": "function"
    },
    {
      "inputs": [],
      "name": "staking",
      "outputs": [
        {
          "internalType": "contract StakingInterface",
          "name": "",
          "type": "address"
        }
      ],
      "stateMutability": "view",
      "type": "function"
    },
    {
      "inputs": [],
      "name": "storageT",
      "outputs": [
        {
          "internalType": "contract StorageInterface",
          "name": "",
          "type": "address"
        }
      ],
      "stateMutability": "view",
      "type": "function"
    },
    {
      "inputs": [
        {
          "internalType": "address",
          "name": "",
          "type": "address"
        },
        {
          "internalType": "uint256",
          "name": "",
          "type": "uint256"
        },
        {
          "internalType": "uint256",
          "name": "",
          "type": "uint256"
        },
        {
          "internalType": "enum TradingCallbacks.TradeType",
          "name": "",
          "type": "uint8"
        }
      ],
      "name": "tradeData",
      "outputs": [
        {
          "internalType": "uint40",
          "name": "maxSlippageP",
          "type": "uint40"
        },
        {
          "internalType": "uint216",
          "name": "_placeholder",
          "type": "uint216"
        }
      ],
      "stateMutability": "view",
      "type": "function"
    },
    {
      "inputs": [
        {
          "internalType": "address",
          "name": "",
          "type": "address"
        },
        {
          "internalType": "uint256",
          "name": "",
          "type": "uint256"
        },
        {
          "internalType": "uint256",
          "name": "",
          "type": "uint256"
        },
        {
          "internalType": "enum TradingCallbacks.TradeType",
          "name": "",
          "type": "uint8"
        }
      ],
      "name": "tradeLastUpdated",
      "outputs": [
        {
          "internalType": "uint32",
          "name": "tp",
          "type": "uint32"
        },
        {
          "internalType": "uint32",
          "name": "sl",
          "type": "uint32"
        },
        {
          "internalType": "uint32",
          "name": "limit",
          "type": "uint32"
        },
        {
          "internalType": "uint32",
          "name": "created",
          "type": "uint32"
        }
      ],
      "stateMutability": "view",
      "type": "function"
    }
  ],
  "transactionHash": "0x95be3220a4fae8abae202b909ab8111a0dbb94d1fbafb373a03397f8d7fbf41b",
  "args": [],
  "numDeployments": 1,
  "solcInputHash": "9202591871ae01290749796d8850a598",
  "bytecode": "0x608060405234801561001057600080fd5b50614f1e806100206000396000f3fe608060405234801561001057600080fd5b50600436106101a45760003560e01c80637bb6c11c116100ef578063b187bd2611610092578063b187bd2614610452578063b3f2f4d61461045f578063b47ee40814610472578063b736ca8214610485578063c68078b914610498578063c68365df146104ab578063d3dc7539146104b4578063eda1f582146104c757600080fd5b80637bb6c11c146103595780637e09ae8a146103625780638456cb59146103755780638b2638781461037d5780638f0622271461038557806390b913f2146103a75780639bd24d83146103ba578063ae8421e11461044a57600080fd5b80633115815511610157578063311581551461026457806337edb1381461027757806346f93a631461028c57806348829122146103045780634cf088d914610317578063531cc9651461032a5780635ad9f9931461033d578063676c51641461035057600080fd5b8062e0fa89146101a95780631346b0ff146101be57806313b06504146101ee57806316fff0741461020f578063178623a71461022857806321c8619614610231578063281b693c14610244575b600080fd5b6101bc6101b736600461414d565b6104da565b005b6002546101d1906001600160a01b031681565b6040516001600160a01b0390911681526020015b60405180910390f35b6102016101fc3660046141dd565b610558565b6040519081526020016101e5565b6000546101d1906201000090046001600160a01b031681565b61020160055481565b6101bc61023f3660046142d8565b61078b565b610201610252366004614382565b600c6020526000908152604090205481565b6101bc61027236600461440c565b610846565b61027f6109ea565b6040516101e5919061451f565b6102df61029a366004614572565b600d60209081526000948552604080862082529385528385208152918452828420909152825290205464ffffffffff811690600160281b90046001600160d81b031682565b6040805164ffffffffff90931683526001600160d81b039091166020830152016101e5565b6101bc6103123660046145ba565b610ae7565b6004546101d1906001600160a01b031681565b600b546101d1906001600160a01b031681565b6001546101d1906001600160a01b031681565b61020160095481565b61020160075481565b6101bc6103703660046145f0565b610af5565b6101bc610bfe565b6101bc610c54565b60085461039790610100900460ff1681565b60405190151581526020016101e5565b6101bc6103b536600461440c565b610db6565b61041a6103c8366004614572565b600a60209081526000948552604080862082529385528385208152918452828420909152825290205463ffffffff808216916401000000008104821691600160401b8204811691600160601b90041684565b6040805163ffffffff958616815293851660208501529184169183019190915290911660608201526080016101e5565b6101bc6112e2565b6008546103979060ff1681565b6101bc61046d366004614382565b611342565b6101bc6104803660046146a3565b6113a7565b6101bc6104933660046146bf565b611b15565b6101bc6104a636600461477f565b611f4a565b61020160065481565b6003546101d1906001600160a01b031681565b6101bc6104d53660046147b8565b611fdc565b6104e26128ae565b8281811461050357604051635863f78960e01b815260040160405180910390fd5b60005b818110156105505761054886868381811061052357610523614857565b9050602002013585858481811061053c5761053c614857565b90506020020135612958565b600101610506565b505050505050565b600080546040516351d407ff60e11b815282916201000090046001600160a01b03169063a3a80ffe906105939088908890889060040161486d565b61014060405180830381865afa1580156105b1573d6000803e3d6000fd5b505050506040513d601f19601f820116820180604052508101906105d591906148a4565b905060008060029054906101000a90046001600160a01b03166001600160a01b0316637dc0d1d06040518163ffffffff1660e01b8152600401602060405180830381865afa15801561062b573d6000803e3d6000fd5b505050506040513d601f19601f8201168201806040525081019061064f9190614936565b6001600160a01b031663e7572230866040518263ffffffff1660e01b815260040161067c91815260200190565b6040805180830381865afa158015610698573d6000803e3d6000fd5b505050506040513d601f19601f820116820180604052508101906106bc9190614953565b50905060006106d98360a00151838560c001518660e001516129a9565b600254608085015160405163c22ff7bf60e01b815260048101919091526024810183905260006044820181905260648201819052608482018190529293506001600160a01b039091169063c22ff7bf9060a401602060405180830381865afa158015610749573d6000803e3d6000fd5b505050506040513d601f19601f8201168201806040525081019061076d9190614977565b905083608001518161077f91906149a6565b98975050505050505050565b610793612a38565b80600d60006107a560208601866149c6565b6001600160a01b031681526020808201929092526040908101600090812086840135825283528181208683013582529092528120906107ea60808601606087016149e3565b60018111156107fb576107fb6149fe565b600181111561080c5761080c6149fe565b8152602080820192909252604001600020825192909101516001600160d81b0316600160281b0264ffffffffff9092169190911790555050565b61084e612a8b565b610856612ade565b60008160000151905060008060006108f260405180610180016040528088602001518152602001876040015181526020018860200151815260200188604001518152602001876080015181526020018660c001511515815260200186602001518152602001866080015181526020018660e001518152602001876060015181526020018661010001518152602001866101200151815250612b07565b60a0870182905291945092509050600081600b811115610914576109146149fe565b03610993576000610929856105dc6000612dec565b50905086600001517f2739a12dffae5d66bd9e126a286078ed771840f2288f0afa5709ce38c33309978260018460a00151888660e00151876080015161096f9190614a14565b6000806040516109859796959493929190614a9f565b60405180910390a250610550565b836020015184600001516001600160a01b031687600001517f1dc3532663e5566091476fb5aba1e514ef733714c83d4feec5723de6f16c3269846040516109da9190614af8565b60405180910390a4505050505050565b606060006109f66132ac565b6001600160a01b031663b81b2b716040518163ffffffff1660e01b8152600401602060405180830381865afa158015610a33573d6000803e3d6000fd5b505050506040513d601f19601f82011682018060405250810190610a579190614977565b90506000816001600160401b03811115610a7357610a7361422a565b604051908082528060200260200182016040528015610a9c578160200160208202803683370190505b50905060005b82811015610ae0576000818152600c60205260409020548251839083908110610acd57610acd614857565b6020908102919091010152600101610aa2565b5092915050565b610af18282612958565b5050565b610afd612a38565b80600a6000610b0f60208601866149c6565b6001600160a01b03168152602080820192909252604090810160009081208684013582528352818120868301358252909252812090610b5460808601606087016149e3565b6001811115610b6557610b656149fe565b6001811115610b7657610b766149fe565b8152602080820192909252604090810160002083518154938501519285015160609095015163ffffffff908116600160601b0263ffffffff60601b19968216600160401b029690961667ffffffffffffffff60401b199482166401000000000267ffffffffffffffff1990961691909216179390931791909116919091179190911790555050565b610c0661338a565b6008805460ff8082161560ff1990921682179092556040519116151581527f9422424b175dda897495a07b091ef74a3ef715cf6d866fc972954c1c7f459304906020015b60405180910390a1565b600060029054906101000a90046001600160a01b03166001600160a01b031663ad5c46486040518163ffffffff1660e01b8152600401602060405180830381865afa158015610ca7573d6000803e3d6000fd5b505050506040513d601f19601f82011682018060405250810190610ccb9190614936565b6001600160a01b031663095ea7b3600060029054906101000a90046001600160a01b03166001600160a01b031663fbfa77cf6040518163ffffffff1660e01b8152600401602060405180830381865afa158015610d2c573d6000803e3d6000fd5b505050506040513d601f19601f82011682018060405250810190610d509190614936565b6000196040518363ffffffff1660e01b8152600401610d70929190614b06565b6020604051808303816000875af1158015610d8f573d6000803e3d6000fd5b505050506040513d601f19601f82011682018060405250810190610db39190614b1f565b50565b610dbe612a8b565b610dc6612ade565b805180516020820151604090920151600092610de292916133dd565b905060008160e00151600014610e0a57602084015115610e03576000610e0d565b6002610e0d565b60095b9050600981600b811115610e2357610e236149fe565b146111fb576000610e4183600001518460200151856040015161346a565b905060008060029054906101000a90046001600160a01b03166001600160a01b0316633078fff56040518163ffffffff1660e01b8152600401602060405180830381865afa158015610e97573d6000803e3d6000fd5b505050506040513d601f19601f82011682018060405250810190610ebb9190614936565b9050610ec5614048565b8460e001518560800151610ed99190614a14565b6020820152600084600b811115610ef257610ef26149fe565b036111ab57610f138560a0015188602001518760c001518860e001516129a9565b606082015260e08501516020820151610f2c9190614b52565b81600001818152505061114d8560018360600151846000015187604001516402540be4006064896001600160a01b03166335b03c176040518163ffffffff1660e01b8152600401602060405180830381865afa158015610f90573d6000803e3d6000fd5b505050506040513d601f19601f82011682018060405250810190610fb49190614936565b6001600160a01b031663836a341a8e602001516040518263ffffffff1660e01b8152600401610fe591815260200190565b602060405180830381865afa158015611002573d6000803e3d6000fd5b505050506040513d601f19601f820116820180604052508101906110269190614977565b89602001516110359190614a14565b61103f9190614b52565b6110499190614b52565b6402540be40060648a6001600160a01b03166335b03c176040518163ffffffff1660e01b8152600401602060405180830381865afa15801561108f573d6000803e3d6000fd5b505050506040513d601f19601f820116820180604052508101906110b39190614936565b6001600160a01b0316639c8dd2fa8f602001516040518263ffffffff1660e01b81526004016110e491815260200190565b602060405180830381865afa158015611101573d6000803e3d6000fd5b505050506040513d601f19601f820116820180604052508101906111259190614977565b8a602001516111349190614a14565b61113e9190614b52565b6111489190614b52565b61351f565b60c08201819052875160208901518351606085015160405193947f2739a12dffae5d66bd9e126a286078ed771840f2288f0afa5709ce38c33309979461119e948c9460009491938593919291614a9f565b60405180910390a26111f7565b84600001516001600160a01b03167f4628f3d38f72d5f9e077d3965e10cd3242ff1316aa2bf81f054c0dfb254084068260e001516040516111ee91815260200190565b60405180910390a25b5050505b600081600b81111561120f5761120f6149fe565b1461126e578251602081015181518651604093840151935192936001600160a01b039092169290917f293df767d6749666902026d2f6a2cc4e5f15cdede46402226c42ef4fdf27a17c9161126591908790614b66565b60405180910390a45b600080548551604051630195728b60e71b8152600481019190915260248101929092526201000090046001600160a01b03169063cab9458090604401600060405180830381600087803b1580156112c457600080fd5b505af11580156112d8573d6000803e3d6000fd5b5050505050505050565b6112ea61338a565b6008805460ff610100808304821615810261ff001990931692909217928390556040517fc3a6f986261de9467c2838c6df8ef74f9107855159205600c0bc7a14cdfd388893610c4a9390049091161515815260200190565b61134a61338a565b600581111561136c57604051635863f78960e01b815260040160405180910390fd5b60098190556040518181527fa57398db99aea3c2cd0d30f5b4e8f597539206c95b9c5b73e84962d8b565bbeb9060200160405180910390a150565b6113af612a8b565b6113b7612ade565b6000805482516040516399794d3560e01b81526004810191909152620100009091046001600160a01b0316906399794d359060240160c060405180830381865afa158015611409573d6000803e3d6000fd5b505050506040513d601f19601f8201168201806040525081019061142d9190614b7a565b60008054604083810151606085015160808601519251636e6f99cd60e11b81529596509394620100009093046001600160a01b03169363dcdf339a93611476939060040161486d565b602060405180830381865afa158015611493573d6000803e3d6000fd5b505050506040513d601f19601f820116820180604052508101906114b79190614b1f565b156114c35760006114c6565b60095b9050600081600b8111156114dc576114dc6149fe565b036119865760008054604084810151606086015160808701519251632e21e28b60e21b8152620100009094046001600160a01b03169363b8878a2c9361152693929160040161486d565b6101a060405180830381865afa158015611544573d6000803e3d6000fd5b505050506040513d601f19601f820116820180604052508101906115689190614bee565b600154604080860151606087015160808801519251636a6f32f560e11b81529495506000946001600160a01b039094169363d4de65ea936115ad93929160040161486d565b602060405180830381865afa1580156115ca573d6000803e3d6000fd5b505050506040513d601f19601f820116820180604052508101906115ee9190614ca1565b905081610140015185608001511015801561161257508161014001518560a0015111155b61161d57600b611620565b60005b925060008060006117346040518061018001604052806000600b811115611649576116496149fe565b89600b81111561165b5761165b6149fe565b1461166a578a60600151611671565b8761014001515b81526101408881015160208084019190915260608d810151604080860191909152808f0151828601526080808d01519086015260a0808d0151151590860152828c01805160c080880191909152928d015160e080880191909152928d0151610100808801919091528d516001600160a01b03166000908152600d865283812092518152918552828220838f01518352855282822060018352909452205464ffffffffff166101208501528a01519183019190915288015161016090910152612b07565b9194509250905060008087600b811115611750576117506149fe565b1490508015816117d45750610140860151158061177e5750600285600281111561177c5761177c6149fe565b145b6117ad578560a0015161179c578561014001518960600151106117d4565b8561014001518960600151116117d4565b8560a001516117c7578561014001518960600151116117d4565b8561014001518960600151105b6117de57816117e1565b600b5b9650600087600b8111156117f7576117f76149fe565b0361197f576000806118816040518061014001604052808a600001516001600160a01b031681526020018a60200151815260200160008152602001600081526020018a6060015181526020018781526020018a60a00151151581526020018a60c0015181526020018a60e0015181526020018a61010001518152508b602001518c60800151612dec565b6000548a5160208c01516040808e0151905163b4b0f56760e01b8152959750939550620100009092046001600160a01b03169363b4b0f567936118c7939160040161486d565b600060405180830381600087803b1580156118e157600080fd5b505af11580156118f5573d6000803e3d6000fd5b5050505089600001516001600160a01b03168b600001517f1ab0771256522e5114b583b488c490436d6f8fe02b1e1c9697443e8704c4e8408c608001518560038760a001518c6402540be400898b606001516119519190614a14565b61195b9190614b52565b6000808d60405161197499989796959493929190614cd2565b60405180910390a350505b5050505050505b600081600b81111561199a5761199a6149fe565b146119ed5781600001516001600160a01b031683600001517fe9681b5336d843735c62e93114e5a0f45912a84ae83fa3f3ed80ca5ad933dfc36003846040516119e4929190614d2f565b60405180910390a35b600160009054906101000a90046001600160a01b03166001600160a01b031663bf654d2b604051806080016040528085604001516001600160a01b0316815260200185606001518152602001856080015181526020018560a001516003811115611a5957611a596149fe565b8152506040518263ffffffff1660e01b8152600401611a789190614d4a565b600060405180830381600087803b158015611a9257600080fd5b505af1158015611aa6573d6000803e3d6000fd5b5050600054855160405163201d8bdb60e01b81526004810191909152620100009091046001600160a01b0316925063201d8bdb9150602401600060405180830381600087803b158015611af857600080fd5b505af1158015611b0c573d6000803e3d6000fd5b50505050505050565b600054610100900460ff1615808015611b355750600054600160ff909116105b80611b4f5750303b158015611b4f575060005460ff166001145b611bb65760405162461bcd60e51b815260206004820152602e60248201527f496e697469616c697a61626c653a20636f6e747261637420697320616c72656160448201526d191e481a5b9a5d1a585b1a5e995960921b606482015260840160405180910390fd5b6000805460ff191660011790558015611bd9576000805461ff0019166101001790555b6001600160a01b038c161580611bf657506001600160a01b038b16155b80611c0857506001600160a01b038a16155b80611c1a57506001600160a01b038916155b80611c2c57506001600160a01b038816155b80611c3e57506001600160a01b038616155b80611c5e575082611c4f8587614d82565b611c599190614d82565b606414155b80611c695750600582115b15611c8757604051635863f78960e01b815260040160405180910390fd5b8b600060026101000a8154816001600160a01b0302191690836001600160a01b031602179055508a600160006101000a8154816001600160a01b0302191690836001600160a01b0316021790555089600260006101000a8154816001600160a01b0302191690836001600160a01b0316021790555088600360006101000a8154816001600160a01b0302191690836001600160a01b0316021790555087600460006101000a8154816001600160a01b0302191690836001600160a01b0316021790555086600b60006101000a8154816001600160a01b0302191690836001600160a01b031602179055508460058190555083600681905550826007819055508160098190555060008060029054906101000a90046001600160a01b03166001600160a01b031663ad5c46486040518163ffffffff1660e01b8152600401602060405180830381865afa158015611de1573d6000803e3d6000fd5b505050506040513d601f19601f82011682018060405250810190611e059190614936565b6004805460405163095ea7b360e01b81529293506001600160a01b038085169363095ea7b393611e3d93909216916000199101614b06565b6020604051808303816000875af1158015611e5c573d6000803e3d6000fd5b505050506040513d601f19601f82011682018060405250810190611e809190614b1f565b5060405163095ea7b360e01b81526001600160a01b0382169063095ea7b390611eb1908a9060001990600401614b06565b6020604051808303816000875af1158015611ed0573d6000803e3d6000fd5b505050506040513d601f19601f82011682018060405250810190611ef49190614b1f565b50508015611f3c576000805461ff0019169055604051600181527f7f26b83ff96e1f2b6a682f133852f6798a09c465da95921460cefb38474024989060200160405180910390a15b505050505050505050505050565b611f5261338a565b80611f5d8385614d82565b611f679190614d82565b606414611f8757604051635863f78960e01b815260040160405180910390fd5b60058390556006829055600781905560408051848152602081018490529081018290527f0caa98ed9a1605da290817d1f67b1b83c63f9229abeca5123df5d90581c495589060600160405180910390a1505050565b611fe4612a8b565b611fec612ade565b60006120058260400151836060015184608001516133dd565b905060008060029054906101000a90046001600160a01b03166001600160a01b0316633078fff56040518163ffffffff1660e01b8152600401602060405180830381865afa15801561205b573d6000803e3d6000fd5b505050506040513d601f19601f8201168201806040525081019061207f9190614936565b9050600084602001516000146120a75760e0830151156120a05760006120aa565b60096120aa565b60025b9050600081600b8111156120c0576120c06149fe565b036127da5760006120de84600001518560200151866040015161346a565b90506000836001600160a01b03166335b03c176040518163ffffffff1660e01b8152600401602060405180830381865afa158015612120573d6000803e3d6000fd5b505050506040513d601f19601f820116820180604052508101906121449190614936565b905061214e614048565b8560e0015186608001516121629190614a14565b6020820181905260e087015161217791614b52565b815260028760a001516003811115612191576121916149fe565b036122ab57600b546040805160e0808201835289516001600160a01b0390811683526020808c0151908401528a8401518385015260a0808c0151606085015260c0808d015115156080860152875191850191909152918b0151918301919091529151633837d79d60e11b8152919092169163706faf3a91612264919060040181516001600160a01b0316815260208083015190820152604080830151908201526060808301519082015260808083015115159082015260a0828101519082015260c0918201519181019190915260e00190565b602060405180830381865afa158015612281573d6000803e3d6000fd5b505050506040513d601f19601f820116820180604052508101906122a59190614977565b60a08201525b60008760a0015160038111156122c3576122c36149fe565b146122fa5760018760a0015160038111156122e0576122e06149fe565b146122ef578060a00151612301565b856101200151612301565b8561010001515b608082018190526020890151146101408201819052156123ff5760028760a001516003811115612333576123336149fe565b146123db576402540be4006064836001600160a01b0316639c8dd2fa89602001516040518263ffffffff1660e01b815260040161237291815260200190565b602060405180830381865afa15801561238f573d6000803e3d6000fd5b505050506040513d601f19601f820116820180604052508101906123b39190614977565b83602001516123c29190614a14565b6123cc9190614b52565b6123d69190614b52565b6123f5565b80516064906123eb906005614a14565b6123f59190614b52565b60e08201526125e0565b6060880151608082015260028760a001516003811115612421576124216149fe565b1461258e5760008760a00151600381111561243e5761243e6149fe565b14801561245057506000866101000151115b801561248057508560c001516124725785610100015188606001511115612480565b856101000151886060015110155b806124e0575060018760a00151600381111561249e5761249e6149fe565b1480156124b057506000866101200151115b80156124e057508560c001516124d257856101200151886060015110156124e0565b856101200151886060015111155b6124eb5760006125da565b6402540be4006064836001600160a01b0316639c8dd2fa89602001516040518263ffffffff1660e01b815260040161252591815260200190565b602060405180830381865afa158015612542573d6000803e3d6000fd5b505050506040513d601f19601f820116820180604052508101906125669190614977565b83602001516125759190614a14565b61257f9190614b52565b6125899190614b52565b6125da565b8560c001516125a8578060a00151886060015110156125b5565b8060a00151886060015111155b6125c05760006125da565b80516064906125d0906005614a14565b6125da9190614b52565b60e08201525b60e0810151156125f15760006125f4565b600b5b9350600084600b81111561260a5761260a6149fe565b036127d65761262b8660a0015182608001518860c001518960e001516129a9565b606082018190528151604085015161271292899260009260028d60a00151600381111561265a5761265a6149fe565b14612702576402540be4006064896001600160a01b031663836a341a8f602001516040518263ffffffff1660e01b815260040161269991815260200190565b602060405180830381865afa1580156126b6573d6000803e3d6000fd5b505050506040513d601f19601f820116820180604052508101906126da9190614977565b89602001516126e99190614a14565b6126f39190614b52565b6126fd9190614b52565b612708565b8660e001515b8760e0015161351f565b60c0820152855160e08201516040519081526001600160a01b03909116907fcada75418f444febbe725c87360b063440c54e00e82d578010de1ed009d756c59060200160405180910390a286600001516001600160a01b031688600001517f1ab0771256522e5114b583b488c490436d6f8fe02b1e1c9697443e8704c4e8408960800151898b60a0015186608001516000886000015189606001518a60c001518b61014001516040516127cd99989796959493929190614cd2565b60405180910390a35b5050505b600081600b8111156127ee576127ee6149fe565b14612841578351855160a08601516040516001600160a01b03909316927fe9681b5336d843735c62e93114e5a0f45912a84ae83fa3f3ed80ca5ad933dfc391612838918690614d2f565b60405180910390a35b600054855160405163201d8bdb60e01b81526004810191909152620100009091046001600160a01b03169063201d8bdb90602401600060405180830381600087803b15801561288f57600080fd5b505af11580156128a3573d6000803e3d6000fd5b505050505050505050565b600260009054906101000a90046001600160a01b03166001600160a01b031663481c6a756040518163ffffffff1660e01b8152600401602060405180830381865afa158015612901573d6000803e3d6000fd5b505050506040513d601f19601f820116820180604052508101906129259190614936565b6001600160a01b0316336001600160a01b03161461295657604051631dd2188d60e31b815260040160405180910390fd5b565b6000828152600c6020526040908190208290555182907f95924bc10431f9a625a06fe5a27d55f4348510b2da42a18fe3bf2a6f2c4eab679061299d9084815260200190565b60405180910390a25050565b6000806129bd6402540be400610384614d95565b9050600086116129ce576000612a1d565b85836402540be400866129ea576129e5888a6149a6565b6129f4565b6129f489896149a6565b6129ff906064614d95565b612a099190614d95565b612a139190614d95565b612a1d9190614dc5565b9150808213612a2c5781612a2e565b805b9695505050505050565b600060029054906101000a90046001600160a01b03166001600160a01b031663ec44acf26040518163ffffffff1660e01b8152600401602060405180830381865afa158015612901573d6000803e3d6000fd5b600060029054906101000a90046001600160a01b03166001600160a01b0316633078fff56040518163ffffffff1660e01b8152600401602060405180830381865afa158015612901573d6000803e3d6000fd5b600854610100900460ff161561295657604051631dd2188d60e31b815260040160405180910390fd5b60025481516060830151608084015160a0850151600094859485946001600160a01b0390921693637ea95f3293612b3f93919061389b565b8660c001518760a001518861010001518960e00151612b5e9190614a14565b6040516001600160e01b031960e087901b168152600481019490945260248401929092521515604483015260648201526084016040805180830381865afa158015612bad573d6000803e3d6000fd5b505050506040513d601f19601f82011682018060405250810190612bd19190614953565b6101208601519194509250600090612bf95760648560200151612bf49190614b52565b612c2a565b6402540be40060648661012001518760200151612c169190614a14565b612c209190614b52565b612c2a9190614b52565b60085490915060ff16612de057604085015115612dd9578460a00151612c6157808560200151612c5a9190614df3565b8310612c74565b808560200151612c719190614d82565b83115b612dd2576000856101400151118015612ca957508460a00151612c9f57846101400151831115612ca9565b8461014001518310155b612dcb576000856101600151118015612cde57508460a00151612cd457846101600151831015612cde565b8461016001518311155b612dc457612cff8560c001518660a001518760e0015188610100015161390b565b15612dbd57600260009054906101000a90046001600160a01b03166001600160a01b03166380f6cfc26040518163ffffffff1660e01b8152600401602060405180830381865afa158015612d57573d6000803e3d6000fd5b505050506040513d601f19601f82011682018060405250810190612d7b9190614977565b610100860151612d8b9086614a14565b11612db657612da38560c00151866101000151613ab4565b15612daf576000612de3565b6008612de3565b6007612de3565b6006612de3565b6005612de3565b6004612de3565b6003612de3565b6002612de3565b60015b93959294505050565b612df46140a4565b600080600060029054906101000a90046001600160a01b03166001600160a01b0316633078fff56040518163ffffffff1660e01b8152600401602060405180830381865afa158015612e4a573d6000803e3d6000fd5b505050506040513d601f19601f82011682018060405250810190612e6e9190614936565b90506000816001600160a01b03166335b03c176040518163ffffffff1660e01b8152600401602060405180830381865afa158015612eb0573d6000803e3d6000fd5b505050506040513d601f19601f82011682018060405250810190612ed49190614936565b9050612ede614048565b8760e001518860800151612ef29190614a14565b6020828101919091526000548951918a015160405163292c161760e01b8152620100009092046001600160a01b03169263292c161792612f359290600401614b06565b602060405180830381865afa158015612f52573d6000803e3d6000fd5b505050506040513d601f19601f82011682018060405250810190612f769190614977565b886040018181525050612f9c8860a001518960e001518a61010001518b60c00151613b56565b88610100018181525050612fc38860a001518960e001518a61012001518b60c00151613be9565b610120890152600254885160208a01516040808c015160c08d01519151630735e1cd60e11b81526001600160a01b0394851660048201526024810193909352604483015215156064820152911690630e6bc39a90608401600060405180830381600087803b15801561303457600080fd5b505af1158015613048573d6000803e3d6000fd5b505050506020880151608089015160c08a01516040516310787e2f60e11b81526004810193909352602483019190915215156044820152600160648201526001600160a01b038316906320f0fc5e90608401600060405180830381600087803b1580156130b457600080fd5b505af11580156130c8573d6000803e3d6000fd5b5050600b548a5160208c015160408d015160e08e015160808f01516001600160a01b03909516965063ce67edfb95509293919290916131079190614a14565b60018e60c001516040518763ffffffff1660e01b815260040161312f96959493929190614e06565b600060405180830381600087803b15801561314957600080fd5b505af115801561315d573d6000803e3d6000fd5b50505050600060029054906101000a90046001600160a01b03166001600160a01b031663c311ab31896040518060c0016040528060008152602001856040015181526020018c60e001518d608001516131b69190614a14565b81526020016000815260200160008152602001600015158152506040518363ffffffff1660e01b81526004016131ed929190614e3d565b600060405180830381600087803b15801561320757600080fd5b505af115801561321b573d6000803e3d6000fd5b505089516001600160a01b03166000908152600a60209081526040808320828e015184528252808320818e015184528252808320838052909152812092509050613263613c63565b825467ffffffffffffffff191663ffffffff9190911690811764010000000082021763ffffffff60601b1916600160601b91909102179091555060400151969795505050505050565b60008060029054906101000a90046001600160a01b03166001600160a01b0316633078fff56040518163ffffffff1660e01b8152600401602060405180830381865afa158015613300573d6000803e3d6000fd5b505050506040513d601f19601f820116820180604052508101906133249190614936565b6001600160a01b03166335b03c176040518163ffffffff1660e01b8152600401602060405180830381865afa158015613361573d6000803e3d6000fd5b505050506040513d601f19601f820116820180604052508101906133859190614936565b905090565b600060029054906101000a90046001600160a01b03166001600160a01b03166312d43a516040518163ffffffff1660e01b8152600401602060405180830381865afa158015612901573d6000803e3d6000fd5b6133e56140a4565b6000546040516351d407ff60e11b8152620100009091046001600160a01b03169063a3a80ffe9061341e9087908790879060040161486d565b61014060405180830381865afa15801561343c573d6000803e3d6000fd5b505050506040513d601f19601f8201168201806040525081019061346091906148a4565b90505b9392505050565b6134a56040518060c0016040528060008152602001600081526020016000815260200160008152602001600081526020016000151581525090565b600054604051638c8ff1d560e01b8152620100009091046001600160a01b031690638c8ff1d5906134de9087908790879060040161486d565b60c060405180830381865afa1580156134fb573d6000803e3d6000fd5b505050506040513d601f19601f820116820180604052508101906134609190614e94565b600080600060029054906101000a90046001600160a01b03166001600160a01b031663fbfa77cf6040518163ffffffff1660e01b8152600401602060405180830381865afa158015613575573d6000803e3d6000fd5b505050506040513d601f19601f820116820180604052508101906135999190614936565b90506135b08987896135ab8789614d82565b613ce4565b50600b548a5160208c01516040808e015160c08f0151915163ce67edfb60e01b81529597506001600160a01b039094169463ce67edfb946135fc94939290918c91600091600401614e06565b600060405180830381600087803b15801561361657600080fd5b505af115801561362a573d6000803e3d6000fd5b505050506136366132ac565b6001600160a01b03166320f0fc5e8a602001518b60e00151886136599190614b52565b60c08d01516040516001600160e01b031960e086901b168152600481019390935260248301919091521515604482015260006064820152608401600060405180830381600087803b1580156136ad57600080fd5b505af11580156136c1573d6000803e3d6000fd5b50506000548b5160208d01516040808f015190516390d112b960e01b8152620100009094046001600160a01b031695506390d112b994506137049360040161486d565b600060405180830381600087803b15801561371e57600080fd5b505af1158015613732573d6000803e3d6000fd5b5050505060808901511561382957613748614048565b6000816101000151826101200151896137619190614df3565b61376b9190614df3565b905080841115613802576001600160a01b03831663e66a6e3b61378e8387614df3565b8d5160405160e084901b6001600160e01b031916815260048101929092526001600160a01b03166024820152604401600060405180830381600087803b1580156137d757600080fd5b505af11580156137eb573d6000803e3d6000fd5b505050506137fd8b6000015182613e07565b613822565b61381661380f8583614df3565b8c51613e76565b8a516138229085613e07565b505061388f565b885160405163e66a6e3b60e01b8152600481018490526001600160a01b0391821660248201529082169063e66a6e3b90604401600060405180830381600087803b15801561387657600080fd5b505af115801561388a573d6000803e3d6000fd5b505050505b50979650505050505050565b6000806402540be4006064806138b18789614a14565b6138bb9190614b52565b6138c59088614df3565b6138cf9089614a14565b6138d99190614b52565b6138e39190614b52565b9050826138f9576138f48187614df3565b612a2e565b612a2e8187614d82565b949350505050565b6000806139188385614a14565b600b54604051632e53fe8760e21b8152600481018990529192506001600160a01b03169063b94ffa1c90602401602060405180830381865afa158015613962573d6000803e3d6000fd5b505050506040513d601f19601f820116820180604052508101906139869190614977565b613994906305f5e100614a14565b60005482906201000090046001600160a01b03166377a9fdcf89896139ba5760016139bd565b60005b6040516001600160e01b031960e085901b168152600481019290925260ff166024820152604401602060405180830381865afa158015613a01573d6000803e3d6000fd5b505050506040513d601f19601f82011682018060405250810190613a259190614977565b613a2f9190614d82565b11158015612a2e5750600b5460405163d627450560e01b8152600481018890528615156024820152604481018390526001600160a01b039091169063d627450590606401602060405180830381865afa158015613a90573d6000803e3d6000fd5b505050506040513d601f19601f82011682018060405250810190612a2e9190614b1f565b6000828152600c60205260408120548015613ad25780831115613b4c565b613ada6132ac565b6001600160a01b031663281b693c856040518263ffffffff1660e01b8152600401613b0791815260200190565b602060405180830381865afa158015613b24573d6000803e3d6000fd5b505050506040513d601f19601f82011682018060405250810190613b489190614977565b8311155b9150505b92915050565b6000821580613b7f5750613b716402540be400610384614d95565b613b7d868585886129a9565b145b15613be0576000606485613b9561038489614a14565b613b9f9190614b52565b613ba99190614b52565b905082613bce5785811115613bbf576000613bd8565b613bc98187614df3565b613bd8565b613bd88187614d82565b915050613903565b50909392505050565b60008083118015613c1f5750613c056402540be400604b614d95565b613c1190600019614d95565b613c1d868585886129a9565b125b15613be0576000606485613c34604b89614a14565b613c3e9190614b52565b613c489190614b52565b905082613c5957613bc98187614d82565b613bd88187614df3565b600061a4b1461480613c77575062066eed46145b15613cdf5760646001600160a01b031663a3b1b31d6040518163ffffffff1660e01b8152600401602060405180830381865afa158015613cbb573d6000803e3d6000fd5b505050506040513d601f19601f820116820180604052508101906133859190614977565b504390565b6000806000613cf4878787613f2e565b600254895160208b01516040808d015160c08e015160e08f01519251636ceaca6760e01b81526001600160a01b0395861660048201526024810194909452604484019190915215156064830152608482018c905260a482015260c4810185905260e481018990529295509293509190911690636ceaca6790610104016020604051808303816000875af1158015613d8f573d6000803e3d6000fd5b505050506040513d601f19601f82011682018060405250810190613db39190614977565b875160408051838152602081018690529295506001600160a01b03909116917fe7d34775bf6fd7b34e703a903ef79ab16166ebdffce96a66f4d2f84b6263bb29910160405180910390a25094509492505050565b600054604051638a238ae560e01b81526001600160a01b0362010000909204821660048201819052918416602482015260448101839052638a238ae5906064015b600060405180830381600087803b158015613e6257600080fd5b505af1158015610550573d6000803e3d6000fd5b613e803083613e07565b600060029054906101000a90046001600160a01b03166001600160a01b031663fbfa77cf6040518163ffffffff1660e01b8152600401602060405180830381865afa158015613ed3573d6000803e3d6000fd5b505050506040513d601f19601f82011682018060405250810190613ef79190614936565b60405163a481c14b60e01b8152600481018490526001600160a01b038381166024830152919091169063a481c14b90604401613e48565b600b546040805160c0808201835286516001600160a01b03908116835260208089015190840190815288850151848601908152928901511515606085019081526080850189815260e08b015160a087019081529651632d28a81760e01b8152955184166004870152915160248601529251604485015291511515606484015290516084830152915160a482015260009283921690632d28a8179060c401602060405180830381865afa158015613fe8573d6000803e3d6000fd5b505050506040513d601f19601f8201168201806040525081019061400c9190614977565b9050836402540be400614020836064614a14565b61402a9190614a14565b6140349190614b52565b61403e90846149a6565b9150935093915050565b604051806101600160405280600081526020016000815260200160008152602001600081526020016000815260200160008152602001600081526020016000815260200160008152602001600081526020016000151581525090565b60405180610140016040528060006001600160a01b0316815260200160008152602001600081526020016000815260200160008152602001600081526020016000151581526020016000815260200160008152602001600081525090565b60008083601f84011261411457600080fd5b5081356001600160401b0381111561412b57600080fd5b6020830191508360208260051b850101111561414657600080fd5b9250929050565b6000806000806040858703121561416357600080fd5b84356001600160401b038082111561417a57600080fd5b61418688838901614102565b9096509450602087013591508082111561419f57600080fd5b506141ac87828801614102565b95989497509550505050565b6001600160a01b0381168114610db357600080fd5b80356141d8816141b8565b919050565b6000806000606084860312156141f257600080fd5b83356141fd816141b8565b95602085013595506040909401359392505050565b60006080828403121561422457600080fd5b50919050565b634e487b7160e01b600052604160045260246000fd5b60405160c081016001600160401b038111828210171561427057634e487b7160e01b600052604160045260246000fd5b60405290565b60405161014081016001600160401b038111828210171561427057634e487b7160e01b600052604160045260246000fd5b6040516101a081016001600160401b038111828210171561427057634e487b7160e01b600052604160045260246000fd5b60008082840360c08112156142ec57600080fd5b6142f68585614212565b92506040607f198201121561430a57600080fd5b50604051604081018181106001600160401b038211171561433b57634e487b7160e01b600052604160045260246000fd5b604052608084013564ffffffffff8116811461435657600080fd5b815260a08401356001600160d81b038116811461437257600080fd5b6020820152919491935090915050565b60006020828403121561439457600080fd5b5035919050565b600060c082840312156143ad57600080fd5b6143b5614240565b9050813581526020820135602082015260408201356040820152606082013560608201526080820135608082015260a082013560a082015292915050565b8015158114610db357600080fd5b80356141d8816143f3565b6000808284036102a081121561442157600080fd5b61442b858561439b565b925060bf19016101e08082121561444157600080fd5b614449614240565b6101408084121561445957600080fd5b614461614276565b935061446f60c088016141cd565b845260e0870135602085015261010080880135604086015261012080890135606087015282890135608087015261016089013560a08701526144b46101808a01614401565b60c08701526101a089013560e08701526101c08901359186019190915292870135928401929092529182525061020084013560208201526102208401356040820152610240840135606082015261026084013560808201526102809093013560a08401525092909150565b6020808252825182820181905260009190848201906040850190845b818110156145575783518352928401929184019160010161453b565b50909695505050505050565b8035600281106141d857600080fd5b6000806000806080858703121561458857600080fd5b8435614593816141b8565b935060208501359250604085013591506145af60608601614563565b905092959194509250565b600080604083850312156145cd57600080fd5b50508035926020909101359150565b803563ffffffff811681146141d857600080fd5b60008082840361010081121561460557600080fd5b61460f8585614212565b92506080607f198201121561462357600080fd5b50604051608081018181106001600160401b038211171561465457634e487b7160e01b600052604160045260246000fd5b604052614663608085016145dc565b815261467160a085016145dc565b602082015261468260c085016145dc565b604082015261469360e085016145dc565b6060820152809150509250929050565b600060c082840312156146b557600080fd5b613463838361439b565b60008060008060008060008060008060006101608c8e0312156146e157600080fd5b8b356146ec816141b8565b9a5060208c01356146fc816141b8565b995060408c013561470c816141b8565b985060608c013561471c816141b8565b975060808c013561472c816141b8565b965060a08c013561473c816141b8565b955060c08c013561474c816141b8565b8095505060e08c013593506101008c013592506101208c013591506101408c013590509295989b509295989b9093969950565b60008060006060848603121561479457600080fd5b505081359360208301359350604090920135919050565b60048110610db357600080fd5b6000808284036101808112156147cd57600080fd5b6147d7858561439b565b925060c060bf19820112156147eb57600080fd5b506147f4614240565b60c0840135614802816141b8565b815260e0840135602082015261010084013561481d816141b8565b604082015261012084013560608201526101408401356080820152610160840135614847816147ab565b60a0820152919491935090915050565b634e487b7160e01b600052603260045260246000fd5b6001600160a01b039390931683526020830191909152604082015260600190565b80516141d8816141b8565b80516141d8816143f3565b600061014082840312156148b757600080fd5b6148bf614276565b6148c88361488e565b81526020830151602082015260408301516040820152606083015160608201526080830151608082015260a083015160a082015261490860c08401614899565b60c082015260e083810151908201526101008084015190820152610120928301519281019290925250919050565b60006020828403121561494857600080fd5b8151613463816141b8565b6000806040838503121561496657600080fd5b505080516020909101519092909150565b60006020828403121561498957600080fd5b5051919050565b634e487b7160e01b600052601160045260246000fd5b8181036000831280158383131683831282161715610ae057610ae0614990565b6000602082840312156149d857600080fd5b8135613463816141b8565b6000602082840312156149f557600080fd5b61346382614563565b634e487b7160e01b600052602160045260246000fd5b8082028115828204841417613b5057613b50614990565b80516001600160a01b031682526020810151602083015260408101516040830152606081015160608301526080810151608083015260a081015160a083015260c0810151614a7d60c084018215159052565b5060e08181015190830152610100808201519083015261012090810151910152565b6102008101614aae828a614a2b565b9615156101408201526101608101959095526101808501939093526101a08401919091526101c08301526101e090910152919050565b600c8110614af457614af46149fe565b9052565b60208101613b508284614ae4565b6001600160a01b03929092168252602082015260400190565b600060208284031215614b3157600080fd5b8151613463816143f3565b634e487b7160e01b600052601260045260246000fd5b600082614b6157614b61614b3c565b500490565b828152604081016134636020830184614ae4565b600060c08284031215614b8c57600080fd5b614b94614240565b8251614b9f816141b8565b8152602083810151908201526040830151614bb9816141b8565b80604083015250606083015160608201526080830151608082015260a0830151614be2816147ab565b60a08201529392505050565b60006101a08284031215614c0157600080fd5b614c096142a7565b614c128361488e565b815260208301516020820152604083015160408201526060830151606082015260808301516080820152614c4860a08401614899565b60a082015260c0838101519082015260e080840151908201526101008084015190820152610120808401519082015261014080840151908201526101608084015190820152610180928301519281019290925250919050565b600060208284031215614cb357600080fd5b81516003811061346357600080fd5b60048110614af457614af46149fe565b8981526102408101614ce7602083018b614a2b565b614cf561016083018a614cc2565b87610180830152866101a0830152856101c0830152846101e0830152836102008301528215156102208301529a9950505050505050505050565b60408101614d3d8285614cc2565b6134636020830184614ae4565b81516001600160a01b0316815260208083015190820152604080830151908201526060808301516080830191610ae090840182614cc2565b80820180821115613b5057613b50614990565b80820260008212600160ff1b84141615614db157614db1614990565b8181058314821517613b5057613b50614990565b600082614dd457614dd4614b3c565b600160ff1b821460001984141615614dee57614dee614990565b500590565b81810381811115613b5057613b50614990565b6001600160a01b0396909616865260208601949094526040850192909252606084015215156080830152151560a082015260c00190565b6102008101614e4c8285614a2b565b82516101408301526020830151610160830152604083015161018083015260608301516101a083015260808301516101c083015260a083015115156101e08301529392505050565b600060c08284031215614ea657600080fd5b614eae614240565b825181526020830151602082015260408301516040820152606083015160608201526080830151608082015260a0830151614be2816143f356fea2646970667358221220246287a467c03b90a63ec215ce2151b2852d43e164da748675eafcfcf306ec1664736f6c63430008140033",
  "devdoc": {
    "events": {
      "Initialized(uint8)": {
        "details": "Triggered when the contract has been initialized or reinitialized."
      }
    },
    "kind": "dev",
    "methods": {},
    "version": 1
  },
  "userdoc": {
    "kind": "user",
    "methods": {},
    "version": 1
  },
  "storageLayout": {
    "storage": [
      {
        "astId": 6,
        "contract": "contracts/TradingCallbacks.sol:TradingCallbacks",
        "label": "_initialized",
        "offset": 0,
        "slot": "0",
        "type": "t_uint8"
      },
      {
        "astId": 9,
        "contract": "contracts/TradingCallbacks.sol:TradingCallbacks",
        "label": "_initializing",
        "offset": 1,
        "slot": "0",
        "type": "t_bool"
      },
      {
        "astId": 513,
        "contract": "contracts/TradingCallbacks.sol:TradingCallbacks",
        "label": "storageT",
        "offset": 2,
        "slot": "0",
        "type": "t_contract(StorageInterface)5354"
      },
      {
        "astId": 516,
        "contract": "contracts/TradingCallbacks.sol:TradingCallbacks",
        "label": "nftRewards",
        "offset": 0,
        "slot": "1",
        "type": "t_contract(NftRewardsInterfaceV6_3_1)4462"
      },
      {
        "astId": 519,
        "contract": "contracts/TradingCallbacks.sol:TradingCallbacks",
        "label": "pairInfos",
        "offset": 0,
        "slot": "2",
        "type": "t_contract(PairInfosInterface)4657"
      },
      {
        "astId": 522,
        "contract": "contracts/TradingCallbacks.sol:TradingCallbacks",
        "label": "referrals",
        "offset": 0,
        "slot": "3",
        "type": "t_contract(ReferralsInterface)4839"
      },
      {
        "astId": 525,
        "contract": "contracts/TradingCallbacks.sol:TradingCallbacks",
        "label": "staking",
        "offset": 0,
        "slot": "4",
        "type": "t_contract(StakingInterface)4847"
      },
      {
        "astId": 539,
        "contract": "contracts/TradingCallbacks.sol:TradingCallbacks",
        "label": "WETHVaultFeeP",
        "offset": 0,
        "slot": "5",
        "type": "t_uint256"
      },
      {
        "astId": 541,
        "contract": "contracts/TradingCallbacks.sol:TradingCallbacks",
        "label": "lpFeeP",
        "offset": 0,
        "slot": "6",
        "type": "t_uint256"
      },
      {
        "astId": 543,
        "contract": "contracts/TradingCallbacks.sol:TradingCallbacks",
        "label": "sssFeeP",
        "offset": 0,
        "slot": "7",
        "type": "t_uint256"
      },
      {
        "astId": 545,
        "contract": "contracts/TradingCallbacks.sol:TradingCallbacks",
        "label": "isPaused",
        "offset": 0,
        "slot": "8",
        "type": "t_bool"
      },
      {
        "astId": 547,
        "contract": "contracts/TradingCallbacks.sol:TradingCallbacks",
        "label": "isDone",
        "offset": 1,
        "slot": "8",
        "type": "t_bool"
      },
      {
        "astId": 549,
        "contract": "contracts/TradingCallbacks.sol:TradingCallbacks",
        "label": "canExecuteTimeout",
        "offset": 0,
        "slot": "9",
        "type": "t_uint256"
      },
      {
        "astId": 561,
        "contract": "contracts/TradingCallbacks.sol:TradingCallbacks",
        "label": "tradeLastUpdated",
        "offset": 0,
        "slot": "10",
        "type": "t_mapping(t_address,t_mapping(t_uint256,t_mapping(t_uint256,t_mapping(t_enum(TradeType)703,t_struct(LastUpdated)670_storage))))"
      },
      {
        "astId": 564,
        "contract": "contracts/TradingCallbacks.sol:TradingCallbacks",
        "label": "borrowingFees",
        "offset": 0,
        "slot": "11",
        "type": "t_contract(BorrowingFeesInterface)4079"
      },
      {
        "astId": 568,
        "contract": "contracts/TradingCallbacks.sol:TradingCallbacks",
        "label": "pairMaxLeverage",
        "offset": 0,
        "slot": "12",
        "type": "t_mapping(t_uint256,t_uint256)"
      },
      {
        "astId": 580,
        "contract": "contracts/TradingCallbacks.sol:TradingCallbacks",
        "label": "tradeData",
        "offset": 0,
        "slot": "13",
        "type": "t_mapping(t_address,t_mapping(t_uint256,t_mapping(t_uint256,t_mapping(t_enum(TradeType)703,t_struct(TradeData)675_storage))))"
      }
    ],
    "types": {
      "t_address": {
        "encoding": "inplace",
        "label": "address",
        "numberOfBytes": "20"
      },
      "t_bool": {
        "encoding": "inplace",
        "label": "bool",
        "numberOfBytes": "1"
      },
      "t_contract(BorrowingFeesInterface)4079": {
        "encoding": "inplace",
        "label": "contract BorrowingFeesInterface",
        "numberOfBytes": "20"
      },
      "t_contract(NftRewardsInterfaceV6_3_1)4462": {
        "encoding": "inplace",
        "label": "contract NftRewardsInterfaceV6_3_1",
        "numberOfBytes": "20"
      },
      "t_contract(PairInfosInterface)4657": {
        "encoding": "inplace",
        "label": "contract PairInfosInterface",
        "numberOfBytes": "20"
      },
      "t_contract(ReferralsInterface)4839": {
        "encoding": "inplace",
        "label": "contract ReferralsInterface",
        "numberOfBytes": "20"
      },
      "t_contract(StakingInterface)4847": {
        "encoding": "inplace",
        "label": "contract StakingInterface",
        "numberOfBytes": "20"
      },
      "t_contract(StorageInterface)5354": {
        "encoding": "inplace",
        "label": "contract StorageInterface",
        "numberOfBytes": "20"
      },
      "t_enum(TradeType)703": {
        "encoding": "inplace",
        "label": "enum TradingCallbacks.TradeType",
        "numberOfBytes": "1"
      },
      "t_mapping(t_address,t_mapping(t_uint256,t_mapping(t_uint256,t_mapping(t_enum(TradeType)703,t_struct(LastUpdated)670_storage))))": {
        "encoding": "mapping",
        "key": "t_address",
        "label": "mapping(address => mapping(uint256 => mapping(uint256 => mapping(enum TradingCallbacks.TradeType => struct TradingCallbacks.LastUpdated))))",
        "numberOfBytes": "32",
        "value": "t_mapping(t_uint256,t_mapping(t_uint256,t_mapping(t_enum(TradeType)703,t_struct(LastUpdated)670_storage)))"
      },
      "t_mapping(t_address,t_mapping(t_uint256,t_mapping(t_uint256,t_mapping(t_enum(TradeType)703,t_struct(TradeData)675_storage))))": {
        "encoding": "mapping",
        "key": "t_address",
        "label": "mapping(address => mapping(uint256 => mapping(uint256 => mapping(enum TradingCallbacks.TradeType => struct TradingCallbacks.TradeData))))",
        "numberOfBytes": "32",
        "value": "t_mapping(t_uint256,t_mapping(t_uint256,t_mapping(t_enum(TradeType)703,t_struct(TradeData)675_storage)))"
      },
      "t_mapping(t_enum(TradeType)703,t_struct(LastUpdated)670_storage)": {
        "encoding": "mapping",
        "key": "t_enum(TradeType)703",
        "label": "mapping(enum TradingCallbacks.TradeType => struct TradingCallbacks.LastUpdated)",
        "numberOfBytes": "32",
        "value": "t_struct(LastUpdated)670_storage"
      },
      "t_mapping(t_enum(TradeType)703,t_struct(TradeData)675_storage)": {
        "encoding": "mapping",
        "key": "t_enum(TradeType)703",
        "label": "mapping(enum TradingCallbacks.TradeType => struct TradingCallbacks.TradeData)",
        "numberOfBytes": "32",
        "value": "t_struct(TradeData)675_storage"
      },
      "t_mapping(t_uint256,t_mapping(t_enum(TradeType)703,t_struct(LastUpdated)670_storage))": {
        "encoding": "mapping",
        "key": "t_uint256",
        "label": "mapping(uint256 => mapping(enum TradingCallbacks.TradeType => struct TradingCallbacks.LastUpdated))",
        "numberOfBytes": "32",
        "value": "t_mapping(t_enum(TradeType)703,t_struct(LastUpdated)670_storage)"
      },
      "t_mapping(t_uint256,t_mapping(t_enum(TradeType)703,t_struct(TradeData)675_storage))": {
        "encoding": "mapping",
        "key": "t_uint256",
        "label": "mapping(uint256 => mapping(enum TradingCallbacks.TradeType => struct TradingCallbacks.TradeData))",
        "numberOfBytes": "32",
        "value": "t_mapping(t_enum(TradeType)703,t_struct(TradeData)675_storage)"
      },
      "t_mapping(t_uint256,t_mapping(t_uint256,t_mapping(t_enum(TradeType)703,t_struct(LastUpdated)670_storage)))": {
        "encoding": "mapping",
        "key": "t_uint256",
        "label": "mapping(uint256 => mapping(uint256 => mapping(enum TradingCallbacks.TradeType => struct TradingCallbacks.LastUpdated)))",
        "numberOfBytes": "32",
        "value": "t_mapping(t_uint256,t_mapping(t_enum(TradeType)703,t_struct(LastUpdated)670_storage))"
      },
      "t_mapping(t_uint256,t_mapping(t_uint256,t_mapping(t_enum(TradeType)703,t_struct(TradeData)675_storage)))": {
        "encoding": "mapping",
        "key": "t_uint256",
        "label": "mapping(uint256 => mapping(uint256 => mapping(enum TradingCallbacks.TradeType => struct TradingCallbacks.TradeData)))",
        "numberOfBytes": "32",
        "value": "t_mapping(t_uint256,t_mapping(t_enum(TradeType)703,t_struct(TradeData)675_storage))"
      },
      "t_mapping(t_uint256,t_uint256)": {
        "encoding": "mapping",
        "key": "t_uint256",
        "label": "mapping(uint256 => uint256)",
        "numberOfBytes": "32",
        "value": "t_uint256"
      },
      "t_struct(LastUpdated)670_storage": {
        "encoding": "inplace",
        "label": "struct TradingCallbacks.LastUpdated",
        "members": [
          {
            "astId": 663,
            "contract": "contracts/TradingCallbacks.sol:TradingCallbacks",
            "label": "tp",
            "offset": 0,
            "slot": "0",
            "type": "t_uint32"
          },
          {
            "astId": 665,
            "contract": "contracts/TradingCallbacks.sol:TradingCallbacks",
            "label": "sl",
            "offset": 4,
            "slot": "0",
            "type": "t_uint32"
          },
          {
            "astId": 667,
            "contract": "contracts/TradingCallbacks.sol:TradingCallbacks",
            "label": "limit",
            "offset": 8,
            "slot": "0",
            "type": "t_uint32"
          },
          {
            "astId": 669,
            "contract": "contracts/TradingCallbacks.sol:TradingCallbacks",
            "label": "created",
            "offset": 12,
            "slot": "0",
            "type": "t_uint32"
          }
        ],
        "numberOfBytes": "32"
      },
      "t_struct(TradeData)675_storage": {
        "encoding": "inplace",
        "label": "struct TradingCallbacks.TradeData",
        "members": [
          {
            "astId": 672,
            "contract": "contracts/TradingCallbacks.sol:TradingCallbacks",
            "label": "maxSlippageP",
            "offset": 0,
            "slot": "0",
            "type": "t_uint40"
          },
          {
            "astId": 674,
            "contract": "contracts/TradingCallbacks.sol:TradingCallbacks",
            "label": "_placeholder",
            "offset": 5,
            "slot": "0",
            "type": "t_uint216"
          }
        ],
        "numberOfBytes": "32"
      },
      "t_uint216": {
        "encoding": "inplace",
        "label": "uint216",
        "numberOfBytes": "27"
      },
      "t_uint256": {
        "encoding": "inplace",
        "label": "uint256",
        "numberOfBytes": "32"
      },
      "t_uint32": {
        "encoding": "inplace",
        "label": "uint32",
        "numberOfBytes": "4"
      },
      "t_uint40": {
        "encoding": "inplace",
        "label": "uint40",
        "numberOfBytes": "5"
      },
      "t_uint8": {
        "encoding": "inplace",
        "label": "uint8",
        "numberOfBytes": "1"
      }
    }
  }
}