{
  "address": "0xa697455eEbceb0Ec98A00b0187D66c87DC7e5aA6",
  "abi": [
    {
      "inputs": [],
      "name": "Forbidden",
      "type": "error"
    },
    {
      "inputs": [],
      "name": "WrongParams",
      "type": "error"
    },
    {
      "anonymous": false,
      "inputs": [
        {
          "indexed": true,
          "internalType": "address",
          "name": "trader",
          "type": "address"
        },
        {
          "indexed": false,
          "internalType": "uint256",
          "name": "tradeValueWETH",
          "type": "uint256"
        },
        {
          "indexed": false,
          "internalType": "uint256",
          "name": "feeValueWETH",
          "type": "uint256"
        }
      ],
      "name": "BorrowingFeeCharged",
      "type": "event"
    },
    {
      "anonymous": false,
      "inputs": [
        {
          "indexed": false,
          "internalType": "uint256",
          "name": "newValue",
          "type": "uint256"
        }
      ],
      "name": "CanExecuteTimeoutUpdated",
      "type": "event"
    },
    {
      "anonymous": false,
      "inputs": [
        {
          "indexed": false,
          "internalType": "uint256",
          "name": "WETHVaultFeeP",
          "type": "uint256"
        },
        {
          "indexed": false,
          "internalType": "uint256",
          "name": "lpFeeP",
          "type": "uint256"
        },
        {
          "indexed": false,
          "internalType": "uint256",
          "name": "sssFeeP",
          "type": "uint256"
        }
      ],
      "name": "ClosingFeeSharesPUpdated",
      "type": "event"
    },
    {
      "anonymous": false,
      "inputs": [
        {
          "indexed": true,
          "internalType": "address",
          "name": "trader",
          "type": "address"
        },
        {
          "indexed": false,
          "internalType": "uint256",
          "name": "valueWETH",
          "type": "uint256"
        }
      ],
      "name": "DevGovFeeCharged",
      "type": "event"
    },
    {
      "anonymous": false,
      "inputs": [
        {
          "indexed": false,
          "internalType": "bool",
          "name": "done",
          "type": "bool"
        }
      ],
      "name": "Done",
      "type": "event"
    },
    {
      "anonymous": false,
      "inputs": [
        {
          "indexed": false,
          "internalType": "uint8",
          "name": "version",
          "type": "uint8"
        }
      ],
      "name": "Initialized",
      "type": "event"
    },
    {
      "anonymous": false,
      "inputs": [
        {
          "indexed": true,
          "internalType": "uint256",
          "name": "orderId",
          "type": "uint256"
        },
        {
          "indexed": false,
          "internalType": "uint256",
          "name": "limitIndex",
          "type": "uint256"
        },
        {
          "components": [
            {
              "internalType": "address",
              "name": "trader",
              "type": "address"
            },
            {
              "internalType": "uint256",
              "name": "pairIndex",
              "type": "uint256"
            },
            {
              "internalType": "uint256",
              "name": "index",
              "type": "uint256"
            },
            {
              "internalType": "uint256",
              "name": "initialPosToken",
              "type": "uint256"
            },
            {
              "internalType": "uint256",
              "name": "positionSizeWETH",
              "type": "uint256"
            },
            {
              "internalType": "uint256",
              "name": "openPrice",
              "type": "uint256"
            },
            {
              "internalType": "bool",
              "name": "buy",
              "type": "bool"
            },
            {
              "internalType": "uint256",
              "name": "leverage",
              "type": "uint256"
            },
            {
              "internalType": "uint256",
              "name": "tp",
              "type": "uint256"
            },
            {
              "internalType": "uint256",
              "name": "sl",
              "type": "uint256"
            }
          ],
          "indexed": false,
          "internalType": "struct StorageInterface.Trade",
          "name": "t",
          "type": "tuple"
        },
        {
          "indexed": true,
          "internalType": "address",
          "name": "nftHolder",
          "type": "address"
        },
        {
          "indexed": false,
          "internalType": "enum StorageInterface.LimitOrder",
          "name": "orderType",
          "type": "uint8"
        },
        {
          "indexed": false,
          "internalType": "uint256",
          "name": "price",
          "type": "uint256"
        },
        {
          "indexed": false,
          "internalType": "uint256",
          "name": "priceImpactP",
          "type": "uint256"
        },
        {
          "indexed": false,
          "internalType": "uint256",
          "name": "positionSizeWETH",
          "type": "uint256"
        },
        {
          "indexed": false,
          "internalType": "int256",
          "name": "percentProfit",
          "type": "int256"
        },
        {
          "indexed": false,
          "internalType": "uint256",
          "name": "WETHSentToTrader",
          "type": "uint256"
        },
        {
          "indexed": false,
          "internalType": "bool",
          "name": "exactExecution",
          "type": "bool"
        }
      ],
      "name": "LimitExecuted",
      "type": "event"
    },
    {
      "anonymous": false,
      "inputs": [
        {
          "indexed": true,
          "internalType": "uint256",
          "name": "orderId",
          "type": "uint256"
        },
        {
          "indexed": true,
          "internalType": "address",
          "name": "trader",
          "type": "address"
        },
        {
          "indexed": true,
          "internalType": "uint256",
          "name": "pairIndex",
          "type": "uint256"
        },
        {
          "indexed": false,
          "internalType": "uint256",
          "name": "index",
          "type": "uint256"
        },
        {
          "indexed": false,
          "internalType": "enum TradingCallbacks.CancelReason",
          "name": "cancelReason",
          "type": "uint8"
        }
      ],
      "name": "MarketCloseCanceled",
      "type": "event"
    },
    {
      "anonymous": false,
      "inputs": [
        {
          "indexed": true,
          "internalType": "uint256",
          "name": "orderId",
          "type": "uint256"
        },
        {
          "components": [
            {
              "internalType": "address",
              "name": "trader",
              "type": "address"
            },
            {
              "internalType": "uint256",
              "name": "pairIndex",
              "type": "uint256"
            },
            {
              "internalType": "uint256",
              "name": "index",
              "type": "uint256"
            },
            {
              "internalType": "uint256",
              "name": "initialPosToken",
              "type": "uint256"
            },
            {
              "internalType": "uint256",
              "name": "positionSizeWETH",
              "type": "uint256"
            },
            {
              "internalType": "uint256",
              "name": "openPrice",
              "type": "uint256"
            },
            {
              "internalType": "bool",
              "name": "buy",
              "type": "bool"
            },
            {
              "internalType": "uint256",
              "name": "leverage",
              "type": "uint256"
            },
            {
              "internalType": "uint256",
              "name": "tp",
              "type": "uint256"
            },
            {
              "internalType": "uint256",
              "name": "sl",
              "type": "uint256"
            }
          ],
          "indexed": false,
          "internalType": "struct StorageInterface.Trade",
          "name": "t",
          "type": "tuple"
        },
        {
          "indexed": false,
          "internalType": "bool",
          "name": "open",
          "type": "bool"
        },
        {
          "indexed": false,
          "internalType": "uint256",
          "name": "price",
          "type": "uint256"
        },
        {
          "indexed": false,
          "internalType": "uint256",
          "name": "priceImpactP",
          "type": "uint256"
        },
        {
          "indexed": false,
          "internalType": "uint256",
          "name": "positionSizeWETH",
          "type": "uint256"
        },
        {
          "indexed": false,
          "internalType": "int256",
          "name": "percentProfit",
          "type": "int256"
        },
        {
          "indexed": false,
          "internalType": "uint256",
          "name": "WETHSentToTrader",
          "type": "uint256"
        }
      ],
      "name": "MarketExecuted",
      "type": "event"
    },
    {
      "anonymous": false,
      "inputs": [
        {
          "indexed": true,
          "internalType": "uint256",
          "name": "orderId",
          "type": "uint256"
        },
        {
          "indexed": true,
          "internalType": "address",
          "name": "trader",
          "type": "address"
        },
        {
          "indexed": true,
          "internalType": "uint256",
          "name": "pairIndex",
          "type": "uint256"
        },
        {
          "indexed": false,
          "internalType": "enum TradingCallbacks.CancelReason",
          "name": "cancelReason",
          "type": "uint8"
        }
      ],
      "name": "MarketOpenCanceled",
      "type": "event"
    },
    {
      "anonymous": false,
      "inputs": [
        {
          "indexed": true,
          "internalType": "address",
          "name": "trader",
          "type": "address"
        },
        {
          "indexed": false,
          "internalType": "uint256",
          "name": "valueWETH",
          "type": "uint256"
        }
      ],
      "name": "NftBotFeeCharged",
      "type": "event"
    },
    {
      "anonymous": false,
      "inputs": [
        {
          "indexed": true,
          "internalType": "uint256",
          "name": "orderId",
          "type": "uint256"
        },
        {
          "indexed": true,
          "internalType": "address",
          "name": "nftHolder",
          "type": "address"
        },
        {
          "indexed": false,
          "internalType": "enum StorageInterface.LimitOrder",
          "name": "orderType",
          "type": "uint8"
        },
        {
          "indexed": false,
          "internalType": "enum TradingCallbacks.CancelReason",
          "name": "cancelReason",
          "type": "uint8"
        }
      ],
      "name": "NftOrderCanceled",
      "type": "event"
    },
    {
      "anonymous": false,
      "inputs": [
        {
          "indexed": true,
          "internalType": "uint256",
          "name": "pairIndex",
          "type": "uint256"
        },
        {
          "indexed": false,
          "internalType": "uint256",
          "name": "maxLeverage",
          "type": "uint256"
        }
      ],
      "name": "PairMaxLeverageUpdated",
      "type": "event"
    },
    {
      "anonymous": false,
      "inputs": [
        {
          "indexed": false,
          "internalType": "bool",
          "name": "paused",
          "type": "bool"
        }
      ],
      "name": "Pause",
      "type": "event"
    },
    {
      "anonymous": false,
      "inputs": [
        {
          "indexed": true,
          "internalType": "address",
          "name": "trader",
          "type": "address"
        },
        {
          "indexed": false,
          "internalType": "uint256",
          "name": "valueWETH",
          "type": "uint256"
        }
      ],
      "name": "ReferralFeeCharged",
      "type": "event"
    },
    {
      "anonymous": false,
      "inputs": [
        {
          "indexed": true,
          "internalType": "address",
          "name": "trader",
          "type": "address"
        },
        {
          "indexed": false,
          "internalType": "uint256",
          "name": "valueWETH",
          "type": "uint256"
        }
      ],
      "name": "SssFeeCharged",
      "type": "event"
    },
    {
      "anonymous": false,
      "inputs": [
        {
          "indexed": true,
          "internalType": "address",
          "name": "trader",
          "type": "address"
        },
        {
          "indexed": false,
          "internalType": "uint256",
          "name": "valueWETH",
          "type": "uint256"
        }
      ],
      "name": "WETHVaultFeeCharged",
      "type": "event"
    },
    {
      "inputs": [],
      "name": "WETHVaultFeeP",
      "outputs": [
        {
          "internalType": "uint256",
          "name": "",
          "type": "uint256"
        }
      ],
      "stateMutability": "view",
      "type": "function"
    },
    {
      "inputs": [],
      "name": "borrowingFees",
      "outputs": [
        {
          "internalType": "contract BorrowingFeesInterface",
          "name": "",
          "type": "address"
        }
      ],
      "stateMutability": "view",
      "type": "function"
    },
    {
      "inputs": [],
      "name": "canExecuteTimeout",
      "outputs": [
        {
          "internalType": "uint256",
          "name": "",
          "type": "uint256"
        }
      ],
      "stateMutability": "view",
      "type": "function"
    },
    {
      "inputs": [
        {
          "components": [
            {
              "internalType": "uint256",
              "name": "orderId",
              "type": "uint256"
            },
            {
              "internalType": "uint256",
              "name": "price",
              "type": "uint256"
            },
            {
              "internalType": "uint256",
              "name": "spreadP",
              "type": "uint256"
            },
            {
              "internalType": "uint256",
              "name": "open",
              "type": "uint256"
            },
            {
              "internalType": "uint256",
              "name": "high",
              "type": "uint256"
            },
            {
              "internalType": "uint256",
              "name": "low",
              "type": "uint256"
            }
          ],
          "internalType": "struct TradingCallbacks.AggregatorAnswer",
          "name": "a",
          "type": "tuple"
        }
      ],
      "name": "closeTradeMarketCallback",
      "outputs": [],
      "stateMutability": "nonpayable",
      "type": "function"
    },
    {
      "inputs": [],
      "name": "done",
      "outputs": [],
      "stateMutability": "nonpayable",
      "type": "function"
    },
    {
      "inputs": [
        {
          "components": [
            {
              "internalType": "uint256",
              "name": "orderId",
              "type": "uint256"
            },
            {
              "internalType": "uint256",
              "name": "price",
              "type": "uint256"
            },
            {
              "internalType": "uint256",
              "name": "spreadP",
              "type": "uint256"
            },
            {
              "internalType": "uint256",
              "name": "open",
              "type": "uint256"
            },
            {
              "internalType": "uint256",
              "name": "high",
              "type": "uint256"
            },
            {
              "internalType": "uint256",
              "name": "low",
              "type": "uint256"
            }
          ],
          "internalType": "struct TradingCallbacks.AggregatorAnswer",
          "name": "a",
          "type": "tuple"
        }
      ],
      "name": "executeNftCloseOrderCallback",
      "outputs": [],
      "stateMutability": "nonpayable",
      "type": "function"
    },
    {
      "inputs": [
        {
          "components": [
            {
              "internalType": "uint256",
              "name": "orderId",
              "type": "uint256"
            },
            {
              "internalType": "uint256",
              "name": "price",
              "type": "uint256"
            },
            {
              "internalType": "uint256",
              "name": "spreadP",
              "type": "uint256"
            },
            {
              "internalType": "uint256",
              "name": "open",
              "type": "uint256"
            },
            {
              "internalType": "uint256",
              "name": "high",
              "type": "uint256"
            },
            {
              "internalType": "uint256",
              "name": "low",
              "type": "uint256"
            }
          ],
          "internalType": "struct TradingCallbacks.AggregatorAnswer",
          "name": "a",
          "type": "tuple"
        }
      ],
      "name": "executeNftOpenOrderCallback",
      "outputs": [],
      "stateMutability": "nonpayable",
      "type": "function"
    },
    {
      "inputs": [],
      "name": "getAllPairsMaxLeverage",
      "outputs": [
        {
          "internalType": "uint256[]",
          "name": "",
          "type": "uint256[]"
        }
      ],
      "stateMutability": "view",
      "type": "function"
    },
    {
      "inputs": [
        {
          "internalType": "contract StorageInterface",
          "name": "_storageT",
          "type": "address"
        },
        {
          "internalType": "contract NftRewardsInterfaceV6_3_1",
          "name": "_nftRewards",
          "type": "address"
        },
        {
          "internalType": "contract PairInfosInterface",
          "name": "_pairInfos",
          "type": "address"
        },
        {
          "internalType": "contract ReferralsInterface",
          "name": "_referrals",
          "type": "address"
        },
        {
          "internalType": "contract StakingInterface",
          "name": "_staking",
          "type": "address"
        },
        {
          "internalType": "address",
          "name": "vaultToApprove",
          "type": "address"
        },
        {
          "internalType": "uint256",
          "name": "_WETHVaultFeeP",
          "type": "uint256"
        },
        {
          "internalType": "uint256",
          "name": "_lpFeeP",
          "type": "uint256"
        },
        {
          "internalType": "uint256",
          "name": "_sssFeeP",
          "type": "uint256"
        },
        {
          "internalType": "uint256",
          "name": "_canExecuteTimeout",
          "type": "uint256"
        }
      ],
      "name": "initialize",
      "outputs": [],
      "stateMutability": "nonpayable",
      "type": "function"
    },
    {
      "inputs": [
        {
          "internalType": "contract BorrowingFeesInterface",
          "name": "_borrowingFees",
          "type": "address"
        }
      ],
      "name": "initializeV2",
      "outputs": [],
      "stateMutability": "nonpayable",
      "type": "function"
    },
    {
      "inputs": [],
      "name": "isDone",
      "outputs": [
        {
          "internalType": "bool",
          "name": "",
          "type": "bool"
        }
      ],
      "stateMutability": "view",
      "type": "function"
    },
    {
      "inputs": [],
      "name": "isPaused",
      "outputs": [
        {
          "internalType": "bool",
          "name": "",
          "type": "bool"
        }
      ],
      "stateMutability": "view",
      "type": "function"
    },
    {
      "inputs": [],
      "name": "lpFeeP",
      "outputs": [
        {
          "internalType": "uint256",
          "name": "",
          "type": "uint256"
        }
      ],
      "stateMutability": "view",
      "type": "function"
    },
    {
      "inputs": [],
      "name": "nftRewards",
      "outputs": [
        {
          "internalType": "contract NftRewardsInterfaceV6_3_1",
          "name": "",
          "type": "address"
        }
      ],
      "stateMutability": "view",
      "type": "function"
    },
    {
      "inputs": [
        {
          "components": [
            {
              "internalType": "uint256",
              "name": "orderId",
              "type": "uint256"
            },
            {
              "internalType": "uint256",
              "name": "price",
              "type": "uint256"
            },
            {
              "internalType": "uint256",
              "name": "spreadP",
              "type": "uint256"
            },
            {
              "internalType": "uint256",
              "name": "open",
              "type": "uint256"
            },
            {
              "internalType": "uint256",
              "name": "high",
              "type": "uint256"
            },
            {
              "internalType": "uint256",
              "name": "low",
              "type": "uint256"
            }
          ],
          "internalType": "struct TradingCallbacks.AggregatorAnswer",
          "name": "a",
          "type": "tuple"
        }
      ],
      "name": "openTradeMarketCallback",
      "outputs": [],
      "stateMutability": "nonpayable",
      "type": "function"
    },
    {
      "inputs": [],
      "name": "pairInfos",
      "outputs": [
        {
          "internalType": "contract PairInfosInterface",
          "name": "",
          "type": "address"
        }
      ],
      "stateMutability": "view",
      "type": "function"
    },
    {
      "inputs": [
        {
          "internalType": "uint256",
          "name": "",
          "type": "uint256"
        }
      ],
      "name": "pairMaxLeverage",
      "outputs": [
        {
          "internalType": "uint256",
          "name": "",
          "type": "uint256"
        }
      ],
      "stateMutability": "view",
      "type": "function"
    },
    {
      "inputs": [],
      "name": "pause",
      "outputs": [],
      "stateMutability": "nonpayable",
      "type": "function"
    },
    {
      "inputs": [],
      "name": "referrals",
      "outputs": [
        {
          "internalType": "contract ReferralsInterface",
          "name": "",
          "type": "address"
        }
      ],
      "stateMutability": "view",
      "type": "function"
    },
    {
      "inputs": [
        {
          "internalType": "uint256",
          "name": "_canExecuteTimeout",
          "type": "uint256"
        }
      ],
      "name": "setCanExecuteTimeout",
      "outputs": [],
      "stateMutability": "nonpayable",
      "type": "function"
    },
    {
      "inputs": [
        {
          "internalType": "uint256",
          "name": "_WETHVaultFeeP",
          "type": "uint256"
        },
        {
          "internalType": "uint256",
          "name": "_lpFeeP",
          "type": "uint256"
        },
        {
          "internalType": "uint256",
          "name": "_sssFeeP",
          "type": "uint256"
        }
      ],
      "name": "setClosingFeeSharesP",
      "outputs": [],
      "stateMutability": "nonpayable",
      "type": "function"
    },
    {
      "inputs": [
        {
          "internalType": "uint256",
          "name": "pairIndex",
          "type": "uint256"
        },
        {
          "internalType": "uint256",
          "name": "maxLeverage",
          "type": "uint256"
        }
      ],
      "name": "setPairMaxLeverage",
      "outputs": [],
      "stateMutability": "nonpayable",
      "type": "function"
    },
    {
      "inputs": [
        {
          "internalType": "uint256[]",
          "name": "indices",
          "type": "uint256[]"
        },
        {
          "internalType": "uint256[]",
          "name": "values",
          "type": "uint256[]"
        }
      ],
      "name": "setPairMaxLeverageArray",
      "outputs": [],
      "stateMutability": "nonpayable",
      "type": "function"
    },
    {
      "inputs": [
        {
          "components": [
            {
              "internalType": "address",
              "name": "trader",
              "type": "address"
            },
            {
              "internalType": "uint256",
              "name": "pairIndex",
              "type": "uint256"
            },
            {
              "internalType": "uint256",
              "name": "index",
              "type": "uint256"
            },
            {
              "internalType": "enum TradingCallbacks.TradeType",
              "name": "tradeType",
              "type": "uint8"
            }
          ],
          "internalType": "struct TradingCallbacks.SimplifiedTradeId",
          "name": "_id",
          "type": "tuple"
        },
        {
          "components": [
            {
              "internalType": "uint40",
              "name": "maxSlippageP",
              "type": "uint40"
            },
            {
              "internalType": "uint216",
              "name": "_placeholder",
              "type": "uint216"
            }
          ],
          "internalType": "struct TradingCallbacks.TradeData",
          "name": "_tradeData",
          "type": "tuple"
        }
      ],
      "name": "setTradeData",
      "outputs": [],
      "stateMutability": "nonpayable",
      "type": "function"
    },
    {
      "inputs": [
        {
          "components": [
            {
              "internalType": "address",
              "name": "trader",
              "type": "address"
            },
            {
              "internalType": "uint256",
              "name": "pairIndex",
              "type": "uint256"
            },
            {
              "internalType": "uint256",
              "name": "index",
              "type": "uint256"
            },
            {
              "internalType": "enum TradingCallbacks.TradeType",
              "name": "tradeType",
              "type": "uint8"
            }
          ],
          "internalType": "struct TradingCallbacks.SimplifiedTradeId",
          "name": "_id",
          "type": "tuple"
        },
        {
          "components": [
            {
              "internalType": "uint32",
              "name": "tp",
              "type": "uint32"
            },
            {
              "internalType": "uint32",
              "name": "sl",
              "type": "uint32"
            },
            {
              "internalType": "uint32",
              "name": "limit",
              "type": "uint32"
            },
            {
              "internalType": "uint32",
              "name": "created",
              "type": "uint32"
            }
          ],
          "internalType": "struct TradingCallbacks.LastUpdated",
          "name": "_lastUpdated",
          "type": "tuple"
        }
      ],
      "name": "setTradeLastUpdated",
      "outputs": [],
      "stateMutability": "nonpayable",
      "type": "function"
    },
    {
      "inputs": [],
      "name": "sssFeeP",
      "outputs": [
        {
          "internalType": "uint256",
          "name": "",
          "type": "uint256"
        }
      ],
      "stateMutability": "view",
      "type": "function"
    },
    {
      "inputs": [],
      "name": "staking",
      "outputs": [
        {
          "internalType": "contract StakingInterface",
          "name": "",
          "type": "address"
        }
      ],
      "stateMutability": "view",
      "type": "function"
    },
    {
      "inputs": [],
      "name": "storageT",
      "outputs": [
        {
          "internalType": "contract StorageInterface",
          "name": "",
          "type": "address"
        }
      ],
      "stateMutability": "view",
      "type": "function"
    },
    {
      "inputs": [
        {
          "internalType": "address",
          "name": "",
          "type": "address"
        },
        {
          "internalType": "uint256",
          "name": "",
          "type": "uint256"
        },
        {
          "internalType": "uint256",
          "name": "",
          "type": "uint256"
        },
        {
          "internalType": "enum TradingCallbacks.TradeType",
          "name": "",
          "type": "uint8"
        }
      ],
      "name": "tradeData",
      "outputs": [
        {
          "internalType": "uint40",
          "name": "maxSlippageP",
          "type": "uint40"
        },
        {
          "internalType": "uint216",
          "name": "_placeholder",
          "type": "uint216"
        }
      ],
      "stateMutability": "view",
      "type": "function"
    },
    {
      "inputs": [
        {
          "internalType": "address",
          "name": "",
          "type": "address"
        },
        {
          "internalType": "uint256",
          "name": "",
          "type": "uint256"
        },
        {
          "internalType": "uint256",
          "name": "",
          "type": "uint256"
        },
        {
          "internalType": "enum TradingCallbacks.TradeType",
          "name": "",
          "type": "uint8"
        }
      ],
      "name": "tradeLastUpdated",
      "outputs": [
        {
          "internalType": "uint32",
          "name": "tp",
          "type": "uint32"
        },
        {
          "internalType": "uint32",
          "name": "sl",
          "type": "uint32"
        },
        {
          "internalType": "uint32",
          "name": "limit",
          "type": "uint32"
        },
        {
          "internalType": "uint32",
          "name": "created",
          "type": "uint32"
        }
      ],
      "stateMutability": "view",
      "type": "function"
    }
  ],
  "transactionHash": "0x12189ff4c5b3350d4e6dd8271737df00151b8cb095af37c3a0df5d1c74194185",
  "args": [],
  "numDeployments": 1,
  "solcInputHash": "a1833e8fddddb5afbb59c3db371de5ea",
  "bytecode": "0x608060405234801561001057600080fd5b506150b5806100206000396000f3fe608060405234801561001057600080fd5b50600436106101995760003560e01c806361ba6c3d116100e45780639bd24d83116100925780639bd24d83146103cd578063ae8421e11461045d578063b187bd2614610465578063b3f2f4d614610472578063b47ee40814610485578063c68078b914610498578063c68365df146104ab578063d3dc7539146104b457600080fd5b806361ba6c3d14610358578063676c51641461036b5780637bb6c11c146103745780637d490caf1461037d5780637e09ae8a146103905780638456cb59146103a35780638f062227146103ab57600080fd5b806329b6eca91161014c57806329b6eca91461025957806337edb1381461026c5780633986de6a1461028157806346f93a6314610294578063488291221461030c5780634cf088d91461031f578063531cc965146103325780635ad9f9931461034557600080fd5b8062e0fa891461019e5780631346b0ff146101b357806316fff074146101e3578063178623a7146101fc57806321c861961461021357806323f7197b14610226578063281b693c14610239575b600080fd5b6101b16101ac3660046143f0565b6104c7565b005b6002546101c6906001600160a01b031681565b6040516001600160a01b0390911681526020015b60405180910390f35b6000546101c6906201000090046001600160a01b031681565b61020560055481565b6040519081526020016101da565b6101b1610221366004614521565b610545565b6101b16102343660046145cb565b610600565b610205610247366004614625565b600c6020526000908152604090205481565b6101b1610267366004614653565b6111d2565b6102746112b4565b6040516101da9190614670565b6101b161028f3660046146b4565b6113b1565b6102e76102a2366004614772565b600d60209081526000948552604080862082529385528385208152918452828420909152825290205464ffffffffff811690600160281b90046001600160d81b031682565b6040805164ffffffffff90931683526001600160d81b039091166020830152016101da565b6101b161031a3660046147ba565b6116ff565b6004546101c6906001600160a01b031681565b600b546101c6906001600160a01b031681565b6001546101c6906001600160a01b031681565b6101b16103663660046145cb565b61170d565b61020560095481565b61020560075481565b6101b161038b3660046145cb565b61190e565b6101b161039e3660046147f0565b6120dd565b6101b16121e6565b6008546103bd90610100900460ff1681565b60405190151581526020016101da565b61042d6103db366004614772565b600a60209081526000948552604080862082529385528385208152918452828420909152825290205463ffffffff808216916401000000008104821691600160401b8204811691600160601b90041684565b6040805163ffffffff958616815293851660208501529184169183019190915290911660608201526080016101da565b6101b161223c565b6008546103bd9060ff1681565b6101b1610480366004614625565b61229c565b6101b16104933660046145cb565b612301565b6101b16104a63660046148a3565b612a6f565b61020560065481565b6003546101c6906001600160a01b031681565b6104cf612b01565b828181146104f057604051635863f78960e01b815260040160405180910390fd5b60005b8181101561053d57610535868683818110610510576105106148cf565b90506020020135858584818110610529576105296148cf565b90506020020135612bab565b6001016104f3565b505050505050565b61054d612bfc565b80600d600061055f6020860186614653565b6001600160a01b031681526020808201929092526040908101600090812086840135825283528181208683013582529092528120906105a460808601606087016148e5565b60018111156105b5576105b5614900565b60018111156105c6576105c6614900565b8152602080820192909252604001600020825192909101516001600160d81b0316600160281b0264ffffffffff9092169190911790555050565b610608612c4f565b610610612ca2565b6000805482516040516399794d3560e01b81526004810191909152620100009091046001600160a01b0316906399794d359060240160c060405180830381865afa158015610662573d6000803e3d6000fd5b505050506040513d601f19601f820116820180604052508101906106869190614921565b90506000604051806080016040528083604001516001600160a01b0316815260200183606001518152602001836080015181526020018360a0015160038111156106d2576106d2614900565b815250905060006106f0836040015184606001518560800151612ccb565b905060008060029054906101000a90046001600160a01b03166001600160a01b0316633078fff56040518163ffffffff1660e01b8152600401602060405180830381865afa158015610746573d6000803e3d6000fd5b505050506040513d601f19601f8201168201806040525081019061076a9190614999565b9050600085606001516000146107925760e08301511561078b576000610795565b6009610795565b60025b9050600081600b8111156107ab576107ab614900565b0361109a5760006107c9846000015185602001518660400151612d58565b90506000836001600160a01b03166335b03c176040518163ffffffff1660e01b8152600401602060405180830381865afa15801561080b573d6000803e3d6000fd5b505050506040513d601f19601f8201168201806040525081019061082f9190614999565b90506108396142af565b6402540be4008660e001518460200151886060015161085891906149cc565b61086291906149cc565b61086c91906149f9565b6020820181905260e0870151610881916149f9565b815260028860a00151600381111561089b5761089b614900565b036109b557600b546040805160e0808201835289516001600160a01b0390811683526020808c0151908401528a8401518385015260a0808c0151606085015260c0808d015115156080860152875191850191909152918b0151918301919091529151633837d79d60e11b8152919092169163706faf3a9161096e919060040181516001600160a01b0316815260208083015190820152604080830151908201526060808301519082015260808083015115159082015260a0828101519082015260c0918201519181019190915260e00190565b602060405180830381865afa15801561098b573d6000803e3d6000fd5b505050506040513d601f19601f820116820180604052508101906109af9190614a0d565b60a08201525b60008860a0015160038111156109cd576109cd614900565b14610a045760018860a0015160038111156109ea576109ea614900565b146109f9578060a00151610a0b565b856101200151610a0b565b8561010001515b6080820181905215801590610a28575080608001518960a0015111155b8015610a3c57508060800151896080015110155b158015610140830152610b2d5760028860a001516003811115610a6157610a61614900565b14610b09576402540be4006064836001600160a01b0316639c8dd2fa89602001516040518263ffffffff1660e01b8152600401610aa091815260200190565b602060405180830381865afa158015610abd573d6000803e3d6000fd5b505050506040513d601f19601f82011682018060405250810190610ae19190614a0d565b8360200151610af091906149cc565b610afa91906149f9565b610b0491906149f9565b610b23565b8051606490610b199060056149cc565b610b2391906149f9565b60e0820152610d0e565b6060890151608082015260028860a001516003811115610b4f57610b4f614900565b14610cbc5760008860a001516003811115610b6c57610b6c614900565b148015610b7e57506000866101000151115b8015610bae57508560c00151610ba05785610100015189606001511115610bae565b856101000151896060015110155b80610c0e575060018860a001516003811115610bcc57610bcc614900565b148015610bde57506000866101200151115b8015610c0e57508560c00151610c005785610120015189606001511015610c0e565b856101200151896060015111155b610c19576000610d08565b6402540be4006064836001600160a01b0316639c8dd2fa89602001516040518263ffffffff1660e01b8152600401610c5391815260200190565b602060405180830381865afa158015610c70573d6000803e3d6000fd5b505050506040513d601f19601f82011682018060405250810190610c949190614a0d565b8360200151610ca391906149cc565b610cad91906149f9565b610cb791906149f9565b610d08565b8560c00151610cd6578060a0015189606001511015610ce3565b8060a00151896060015111155b610cee576000610d08565b8051606490610cfe9060056149cc565b610d0891906149f9565b60e08201525b60e081015115610d1f576000610d22565b600b5b9350600084600b811115610d3857610d38614900565b0361109657610d598660a0015182608001518860c001518960e00151612e0d565b816060018181525050846001600160a01b031663290702e56040518163ffffffff1660e01b81526004016020604051808303816000875af1158015610da2573d6000803e3d6000fd5b505050506040513d601f19601f82011682018060405250810190610dc69190614a0d565b816040018181525050610ec586600083606001518460000151876040015160026003811115610df757610df7614900565b8e60a001516003811115610e0d57610e0d614900565b14610eb5576402540be4006064896001600160a01b031663836a341a8f602001516040518263ffffffff1660e01b8152600401610e4c91815260200190565b602060405180830381865afa158015610e69573d6000803e3d6000fd5b505050506040513d601f19601f82011682018060405250810190610e8d9190614a0d565b8960200151610e9c91906149cc565b610ea691906149f9565b610eb091906149f9565b610ebb565b8660e001515b8760e00151612e9c565b60c0820152604081015160e0820151610ee4906402540be400906149cc565b610eee91906149f9565b61010082018190526001546040808401519051630891674d60e31b81526001600160a01b039092169263448b3a6892610f2c928c9291600401614a71565b600060405180830381600087803b158015610f4657600080fd5b505af1158015610f5a573d6000803e3d6000fd5b505060005460208b01516101008501516040516339caebcf60e11b815260048101929092526024820152620100009091046001600160a01b03169250637395d79e9150604401600060405180830381600087803b158015610fba57600080fd5b505af1158015610fce573d6000803e3d6000fd5b5050505085600001516001600160a01b03167fcada75418f444febbe725c87360b063440c54e00e82d578010de1ed009d756c58260e0015160405161101591815260200190565b60405180910390a287600001516001600160a01b031689600001517f1ab0771256522e5114b583b488c490436d6f8fe02b1e1c9697443e8704c4e8408a60800151898c60a0015186608001516000886000015189606001518a60c001518b610140015160405161108d99989796959493929190614b04565b60405180910390a35b5050505b600081600b8111156110ae576110ae614900565b14611101578451865160a08701516040516001600160a01b03909316927fe9681b5336d843735c62e93114e5a0f45912a84ae83fa3f3ed80ca5ad933dfc3916110f8918690614b71565b60405180910390a35b60015460405163bf654d2b60e01b81526001600160a01b039091169063bf654d2b90611131908790600401614b8c565b600060405180830381600087803b15801561114b57600080fd5b505af115801561115f573d6000803e3d6000fd5b5050600054885160405163201d8bdb60e01b81526004810191909152620100009091046001600160a01b0316925063201d8bdb91506024015b600060405180830381600087803b1580156111b257600080fd5b505af11580156111c6573d6000803e3d6000fd5b50505050505050505050565b600054600290610100900460ff161580156111f4575060005460ff8083169116105b6112195760405162461bcd60e51b815260040161121090614b9a565b60405180910390fd5b6000805461ffff191660ff8316176101001790556001600160a01b03821661125457604051635863f78960e01b815260040160405180910390fd5b600b80546001600160a01b0319166001600160a01b0384161790556000805461ff001916905560405160ff821681527f7f26b83ff96e1f2b6a682f133852f6798a09c465da95921460cefb38474024989060200160405180910390a15050565b606060006112c06131ae565b6001600160a01b031663b81b2b716040518163ffffffff1660e01b8152600401602060405180830381865afa1580156112fd573d6000803e3d6000fd5b505050506040513d601f19601f820116820180604052508101906113219190614a0d565b90506000816001600160401b0381111561133d5761133d614473565b604051908082528060200260200182016040528015611366578160200160208202803683370190505b50905060005b828110156113aa576000818152600c60205260409020548251839083908110611397576113976148cf565b602090810291909101015260010161136c565b5092915050565b600054610100900460ff16158080156113d15750600054600160ff909116105b806113eb5750303b1580156113eb575060005460ff166001145b6114075760405162461bcd60e51b815260040161121090614b9a565b6000805460ff19166001179055801561142a576000805461ff0019166101001790555b6001600160a01b038b16158061144757506001600160a01b038a16155b8061145957506001600160a01b038916155b8061146b57506001600160a01b038816155b8061147d57506001600160a01b038716155b8061148f57506001600160a01b038616155b806114af5750826114a08587614be8565b6114aa9190614be8565b606414155b806114ba5750600582115b156114d857604051635863f78960e01b815260040160405180910390fd5b600080546001600160a01b03808e166201000090810262010000600160b01b031990931692909217808455600180548f84166001600160a01b031991821617909155600280548f8516908316179055600380548e8516908316179055600480548d8516921691909117815560058a9055600689905560078890556009879055604080516315ab88c960e31b81529051949092049092169263ad5c4648928281019260209291908290030181865afa158015611597573d6000803e3d6000fd5b505050506040513d601f19601f820116820180604052508101906115bb9190614999565b6004805460405163095ea7b360e01b81529293506001600160a01b038085169363095ea7b3936115f393909216916000199101614bfb565b6020604051808303816000875af1158015611612573d6000803e3d6000fd5b505050506040513d601f19601f820116820180604052508101906116369190614c24565b5060405163095ea7b360e01b81526001600160a01b0382169063095ea7b390611667908a9060001990600401614bfb565b6020604051808303816000875af1158015611686573d6000803e3d6000fd5b505050506040513d601f19601f820116820180604052508101906116aa9190614c24565b505080156116f2576000805461ff0019169055604051600181527f7f26b83ff96e1f2b6a682f133852f6798a09c465da95921460cefb38474024989060200160405180910390a15b5050505050505050505050565b6117098282612bab565b5050565b611715612c4f565b61171d612ca2565b600061172c826000015161328c565b9050806020015160000361173e575050565b60008160000151905060008060006117da60405180610180016040528088602001518152602001876040015181526020018860200151815260200188604001518152602001876080015181526020018660c001511515815260200186602001518152602001866080015181526020018660e00151815260200187606001518152602001866101000151815260200186610120015181525061330d565b60a0870182905291945092509050600081600b8111156117fc576117fc614900565b0361187b576000611811856105dc60006135f2565b50905086600001517f2739a12dffae5d66bd9e126a286078ed771840f2288f0afa5709ce38c33309978260018460a00151888660e00151876080015161185791906149cc565b60008060405161186d9796959493929190614c3f565b60405180910390a2506118cb565b836020015184600001516001600160a01b031687600001517f1dc3532663e5566091476fb5aba1e514ef733714c83d4feec5723de6f16c3269846040516118c29190614c84565b60405180910390a45b6000548651604051630195728b60e71b8152600481019190915260016024820152620100009091046001600160a01b03169063cab9458090604401611198565b50565b611916612c4f565b61191e612ca2565b600061192d826000015161328c565b9050806020015160000361193f575050565b80518051602082015160409092015160009261195b9291612ccb565b905060008160e001516000146119835760208401511561197c576000611986565b6002611986565b60095b9050600981600b81111561199c5761199c614900565b14611ff65760006119ba836000015184602001518560400151612d58565b905060008060029054906101000a90046001600160a01b03166001600160a01b0316633078fff56040518163ffffffff1660e01b8152600401602060405180830381865afa158015611a10573d6000803e3d6000fd5b505050506040513d601f19601f82011682018060405250810190611a349190614999565b9050611a3e6142af565b8460e001518560800151611a5291906149cc565b816020018181525050816001600160a01b031663290702e56040518163ffffffff1660e01b81526004016020604051808303816000875af1158015611a9b573d6000803e3d6000fd5b505050506040513d601f19601f82011682018060405250810190611abf9190614a0d565b6040820152600084600b811115611ad857611ad8614900565b03611d9157611af98560a0015188602001518760c001518860e00151612e0d565b606082015260e08501516020820151611b1291906149f9565b816000018181525050611d338560018360600151846000015187604001516402540be4006064896001600160a01b03166335b03c176040518163ffffffff1660e01b8152600401602060405180830381865afa158015611b76573d6000803e3d6000fd5b505050506040513d601f19601f82011682018060405250810190611b9a9190614999565b6001600160a01b031663836a341a8e602001516040518263ffffffff1660e01b8152600401611bcb91815260200190565b602060405180830381865afa158015611be8573d6000803e3d6000fd5b505050506040513d601f19601f82011682018060405250810190611c0c9190614a0d565b8960200151611c1b91906149cc565b611c2591906149f9565b611c2f91906149f9565b6402540be40060648a6001600160a01b03166335b03c176040518163ffffffff1660e01b8152600401602060405180830381865afa158015611c75573d6000803e3d6000fd5b505050506040513d601f19601f82011682018060405250810190611c999190614999565b6001600160a01b0316639c8dd2fa8f602001516040518263ffffffff1660e01b8152600401611cca91815260200190565b602060405180830381865afa158015611ce7573d6000803e3d6000fd5b505050506040513d601f19601f82011682018060405250810190611d0b9190614a0d565b8a60200151611d1a91906149cc565b611d2491906149f9565b611d2e91906149f9565b612e9c565b60c08201819052875160208901518351606085015160405193947f2739a12dffae5d66bd9e126a286078ed771840f2288f0afa5709ce38c333099794611d84948c9460009491938593919291614c3f565b60405180910390a2611ff2565b6000856080015111611e72576040810151600054602087810151908401516402540be40093926201000090046001600160a01b03169163cfbacc14918490611dda9087906149cc565b611de491906149f9565b6040516001600160e01b031960e085901b1681526004810192909252602482015260006044820152600160648201526084016020604051808303816000875af1158015611e35573d6000803e3d6000fd5b505050506040513d601f19601f82011682018060405250810190611e599190614a0d565b611e6391906149cc565b611e6d91906149f9565b611f04565b600054602086810151908301516040516333eeb30560e21b8152600481019290925260248201526001604482018190526064820152620100009091046001600160a01b03169063cfbacc14906084016020604051808303816000875af1158015611ee0573d6000803e3d6000fd5b505050506040513d601f19601f82011682018060405250810190611f049190614a0d565b60e08201819052602084015190611f21906402540be400906149cc565b611f2b91906149f9565b85606001818151611f3c9190614c92565b905250600054604051631a97b52160e31b8152620100009091046001600160a01b03169063d4bda90890611f74908890600401614ca5565b600060405180830381600087803b158015611f8e57600080fd5b505af1158015611fa2573d6000803e3d6000fd5b5050505084600001516001600160a01b03167f4628f3d38f72d5f9e077d3965e10cd3242ff1316aa2bf81f054c0dfb254084068260e00151604051611fe991815260200190565b60405180910390a25b5050505b600081600b81111561200a5761200a614900565b14612069578251602081015181518651604093840151935192936001600160a01b039092169290917f293df767d6749666902026d2f6a2cc4e5f15cdede46402226c42ef4fdf27a17c9161206091908790614cb4565b60405180910390a45b600080548551604051630195728b60e71b8152600481019190915260248101929092526201000090046001600160a01b03169063cab9458090604401600060405180830381600087803b1580156120bf57600080fd5b505af11580156120d3573d6000803e3d6000fd5b5050505050505050565b6120e5612bfc565b80600a60006120f76020860186614653565b6001600160a01b0316815260208082019290925260409081016000908120868401358252835281812086830135825290925281209061213c60808601606087016148e5565b600181111561214d5761214d614900565b600181111561215e5761215e614900565b8152602080820192909252604090810160002083518154938501519285015160609095015163ffffffff908116600160601b0263ffffffff60601b19968216600160401b029690961667ffffffffffffffff60401b199482166401000000000267ffffffffffffffff1990961691909216179390931791909116919091179190911790555050565b6121ee613ab2565b6008805460ff8082161560ff1990921682179092556040519116151581527f9422424b175dda897495a07b091ef74a3ef715cf6d866fc972954c1c7f459304906020015b60405180910390a1565b612244613ab2565b6008805460ff610100808304821615810261ff001990931692909217928390556040517fc3a6f986261de9467c2838c6df8ef74f9107855159205600c0bc7a14cdfd3888936122329390049091161515815260200190565b6122a4613ab2565b60058111156122c657604051635863f78960e01b815260040160405180910390fd5b60098190556040518181527fa57398db99aea3c2cd0d30f5b4e8f597539206c95b9c5b73e84962d8b565bbeb9060200160405180910390a150565b612309612c4f565b612311612ca2565b6000805482516040516399794d3560e01b81526004810191909152620100009091046001600160a01b0316906399794d359060240160c060405180830381865afa158015612363573d6000803e3d6000fd5b505050506040513d601f19601f820116820180604052508101906123879190614921565b60008054604083810151606085015160808601519251636e6f99cd60e11b81529596509394620100009093046001600160a01b03169363dcdf339a936123d09390600401614cc8565b602060405180830381865afa1580156123ed573d6000803e3d6000fd5b505050506040513d601f19601f820116820180604052508101906124119190614c24565b1561241d576000612420565b60095b9050600081600b81111561243657612436614900565b036128e05760008054604084810151606086015160808701519251632e21e28b60e21b8152620100009094046001600160a01b03169363b8878a2c93612480939291600401614cc8565b6101a060405180830381865afa15801561249e573d6000803e3d6000fd5b505050506040513d601f19601f820116820180604052508101906124c29190614ce9565b600154604080860151606087015160808801519251636a6f32f560e11b81529495506000946001600160a01b039094169363d4de65ea93612507939291600401614cc8565b602060405180830381865afa158015612524573d6000803e3d6000fd5b505050506040513d601f19601f820116820180604052508101906125489190614d9c565b905081610140015185608001511015801561256c57508161014001518560a0015111155b61257757600b61257a565b60005b9250600080600061268e6040518061018001604052806000600b8111156125a3576125a3614900565b89600b8111156125b5576125b5614900565b146125c4578a606001516125cb565b8761014001515b81526101408881015160208084019190915260608d810151604080860191909152808f0151828601526080808d01519086015260a0808d0151151590860152828c01805160c080880191909152928d015160e080880191909152928d0151610100808801919091528d516001600160a01b03166000908152600d865283812092518152918552828220838f01518352855282822060018352909452205464ffffffffff166101208501528a0151918301919091528801516101609091015261330d565b9194509250905060008087600b8111156126aa576126aa614900565b14905080158161272e575061014086015115806126d8575060028560028111156126d6576126d6614900565b145b612707578560a001516126f65785610140015189606001511061272e565b85610140015189606001511161272e565b8560a001516127215785610140015189606001511161272e565b8561014001518960600151105b612738578161273b565b600b5b9650600087600b81111561275157612751614900565b036128d9576000806127db6040518061014001604052808a600001516001600160a01b031681526020018a60200151815260200160008152602001600081526020018a6060015181526020018781526020018a60a00151151581526020018a60c0015181526020018a60e0015181526020018a61010001518152508b602001518c608001516135f2565b6000548a5160208c01516040808e0151905163b4b0f56760e01b8152959750939550620100009092046001600160a01b03169363b4b0f567936128219391600401614cc8565b600060405180830381600087803b15801561283b57600080fd5b505af115801561284f573d6000803e3d6000fd5b5050505089600001516001600160a01b03168b600001517f1ab0771256522e5114b583b488c490436d6f8fe02b1e1c9697443e8704c4e8408c608001518560038760a001518c6402540be400898b606001516128ab91906149cc565b6128b591906149f9565b6000808d6040516128ce99989796959493929190614b04565b60405180910390a350505b5050505050505b600081600b8111156128f4576128f4614900565b146129475781600001516001600160a01b031683600001517fe9681b5336d843735c62e93114e5a0f45912a84ae83fa3f3ed80ca5ad933dfc360038460405161293e929190614b71565b60405180910390a35b600160009054906101000a90046001600160a01b03166001600160a01b031663bf654d2b604051806080016040528085604001516001600160a01b0316815260200185606001518152602001856080015181526020018560a0015160038111156129b3576129b3614900565b8152506040518263ffffffff1660e01b81526004016129d29190614b8c565b600060405180830381600087803b1580156129ec57600080fd5b505af1158015612a00573d6000803e3d6000fd5b5050600054855160405163201d8bdb60e01b81526004810191909152620100009091046001600160a01b0316925063201d8bdb9150602401600060405180830381600087803b158015612a5257600080fd5b505af1158015612a66573d6000803e3d6000fd5b50505050505050565b612a77613ab2565b80612a828385614be8565b612a8c9190614be8565b606414612aac57604051635863f78960e01b815260040160405180910390fd5b60058390556006829055600781905560408051848152602081018490529081018290527f0caa98ed9a1605da290817d1f67b1b83c63f9229abeca5123df5d90581c495589060600160405180910390a1505050565b600260009054906101000a90046001600160a01b03166001600160a01b031663481c6a756040518163ffffffff1660e01b8152600401602060405180830381865afa158015612b54573d6000803e3d6000fd5b505050506040513d601f19601f82011682018060405250810190612b789190614999565b6001600160a01b0316336001600160a01b031614612ba957604051631dd2188d60e31b815260040160405180910390fd5b565b6000828152600c6020526040908190208290555182907f95924bc10431f9a625a06fe5a27d55f4348510b2da42a18fe3bf2a6f2c4eab6790612bf09084815260200190565b60405180910390a25050565b600060029054906101000a90046001600160a01b03166001600160a01b031663ec44acf26040518163ffffffff1660e01b8152600401602060405180830381865afa158015612b54573d6000803e3d6000fd5b600060029054906101000a90046001600160a01b03166001600160a01b0316633078fff56040518163ffffffff1660e01b8152600401602060405180830381865afa158015612b54573d6000803e3d6000fd5b600854610100900460ff1615612ba957604051631dd2188d60e31b815260040160405180910390fd5b612cd361430b565b6000546040516351d407ff60e11b8152620100009091046001600160a01b03169063a3a80ffe90612d0c90879087908790600401614cc8565b61014060405180830381865afa158015612d2a573d6000803e3d6000fd5b505050506040513d601f19601f82011682018060405250810190612d4e9190614e50565b90505b9392505050565b612d936040518060c0016040528060008152602001600081526020016000815260200160008152602001600081526020016000151581525090565b600054604051638c8ff1d560e01b8152620100009091046001600160a01b031690638c8ff1d590612dcc90879087908790600401614cc8565b60c060405180830381865afa158015612de9573d6000803e3d6000fd5b505050506040513d601f19601f82011682018060405250810190612d4e9190614e6d565b600080612e216402540be400610384614ebf565b905060008611612e32576000612e81565b85836402540be40086612e4e57612e49888a614eef565b612e58565b612e588989614eef565b612e63906064614ebf565b612e6d9190614ebf565b612e779190614ebf565b612e819190614f0f565b9150808213612e905781612e92565b805b9695505050505050565b600080600060029054906101000a90046001600160a01b03166001600160a01b031663fbfa77cf6040518163ffffffff1660e01b8152600401602060405180830381865afa158015612ef2573d6000803e3d6000fd5b505050506040513d601f19601f82011682018060405250810190612f169190614999565b9050612f2d898789612f288789614be8565b613b05565b50600b548a5160208c01516040808e015160c08f0151915163ce67edfb60e01b81529597506001600160a01b039094169463ce67edfb94612f7994939290918c91600091600401614f3d565b600060405180830381600087803b158015612f9357600080fd5b505af1158015612fa7573d6000803e3d6000fd5b50505050612fb36131ae565b6001600160a01b03166320f0fc5e8a602001518b60e0015188612fd691906149f9565b60c08d01516040516001600160e01b031960e086901b168152600481019390935260248301919091521515604482015260006064820152608401600060405180830381600087803b15801561302a57600080fd5b505af115801561303e573d6000803e3d6000fd5b50506000548b5160208d01516040808f015190516390d112b960e01b8152620100009094046001600160a01b031695506390d112b9945061308193600401614cc8565b600060405180830381600087803b15801561309b57600080fd5b505af11580156130af573d6000803e3d6000fd5b505050506080890151156131a2576130c56142af565b6000816101000151826101200151896130de9190614c92565b6130e89190614c92565b90508084111561317f576001600160a01b03831663e66a6e3b61310b8387614c92565b8d5160405160e084901b6001600160e01b031916815260048101929092526001600160a01b03166024820152604401600060405180830381600087803b15801561315457600080fd5b505af1158015613168573d6000803e3d6000fd5b5050505061317a8b6000015182613c28565b61319f565b61319361318c8583614c92565b8c51613c97565b8a5161319f9085613c28565b50505b50979650505050505050565b60008060029054906101000a90046001600160a01b03166001600160a01b0316633078fff56040518163ffffffff1660e01b8152600401602060405180830381865afa158015613202573d6000803e3d6000fd5b505050506040513d601f19601f820116820180604052508101906132269190614999565b6001600160a01b03166335b03c176040518163ffffffff1660e01b8152600401602060405180830381865afa158015613263573d6000803e3d6000fd5b505050506040513d601f19601f820116820180604052508101906132879190614999565b905090565b613294614369565b60005460405163b66e6b0560e01b815260048101849052620100009091046001600160a01b03169063b66e6b05906024016101e060405180830381865afa1580156132e3573d6000803e3d6000fd5b505050506040513d601f19601f820116820180604052508101906133079190614f74565b92915050565b60025481516060830151608084015160a0850151600094859485946001600160a01b0390921693637ea95f3293613345939190613d4f565b8660c001518760a001518861010001518960e0015161336491906149cc565b6040516001600160e01b031960e087901b168152600481019490945260248401929092521515604483015260648201526084016040805180830381865afa1580156133b3573d6000803e3d6000fd5b505050506040513d601f19601f820116820180604052508101906133d79190615004565b61012086015191945092506000906133ff57606485602001516133fa91906149f9565b613430565b6402540be4006064866101200151876020015161341c91906149cc565b61342691906149f9565b61343091906149f9565b60085490915060ff166135e6576040850151156135df578460a00151613467578085602001516134609190614c92565b831061347a565b8085602001516134779190614be8565b83115b6135d85760008561014001511180156134af57508460a001516134a5578461014001518311156134af565b8461014001518310155b6135d15760008561016001511180156134e457508460a001516134da578461016001518310156134e4565b8461016001518311155b6135ca576135058560c001518660a001518760e00151886101000151613dbf565b156135c357600260009054906101000a90046001600160a01b03166001600160a01b03166380f6cfc26040518163ffffffff1660e01b8152600401602060405180830381865afa15801561355d573d6000803e3d6000fd5b505050506040513d601f19601f820116820180604052508101906135819190614a0d565b61010086015161359190866149cc565b116135bc576135a98560c00151866101000151613f68565b156135b55760006135e9565b60086135e9565b60076135e9565b60066135e9565b60056135e9565b60046135e9565b60036135e9565b60026135e9565b60015b93959294505050565b6135fa61430b565b600080600060029054906101000a90046001600160a01b03166001600160a01b0316633078fff56040518163ffffffff1660e01b8152600401602060405180830381865afa158015613650573d6000803e3d6000fd5b505050506040513d601f19601f820116820180604052508101906136749190614999565b90506000816001600160a01b03166335b03c176040518163ffffffff1660e01b8152600401602060405180830381865afa1580156136b6573d6000803e3d6000fd5b505050506040513d601f19601f820116820180604052508101906136da9190614999565b90506136e46142af565b8760e0015188608001516136f891906149cc565b6020828101919091526000548951918a015160405163292c161760e01b8152620100009092046001600160a01b03169263292c16179261373b9290600401614bfb565b602060405180830381865afa158015613758573d6000803e3d6000fd5b505050506040513d601f19601f8201168201806040525081019061377c9190614a0d565b8860400181815250506137a28860a001518960e001518a61010001518b60c00151614007565b886101000181815250506137c98860a001518960e001518a61012001518b60c0015161409a565b610120890152600254885160208a01516040808c015160c08d01519151630735e1cd60e11b81526001600160a01b0394851660048201526024810193909352604483015215156064820152911690630e6bc39a90608401600060405180830381600087803b15801561383a57600080fd5b505af115801561384e573d6000803e3d6000fd5b505050506020880151608089015160c08a01516040516310787e2f60e11b81526004810193909352602483019190915215156044820152600160648201526001600160a01b038316906320f0fc5e90608401600060405180830381600087803b1580156138ba57600080fd5b505af11580156138ce573d6000803e3d6000fd5b5050600b548a5160208c015160408d015160e08e015160808f01516001600160a01b03909516965063ce67edfb955092939192909161390d91906149cc565b60018e60c001516040518763ffffffff1660e01b815260040161393596959493929190614f3d565b600060405180830381600087803b15801561394f57600080fd5b505af1158015613963573d6000803e3d6000fd5b50505050600060029054906101000a90046001600160a01b03166001600160a01b031663c311ab31896040518060c0016040528060008152602001856040015181526020018c60e001518d608001516139bc91906149cc565b81526020016000815260200160008152602001600015158152506040518363ffffffff1660e01b81526004016139f3929190615028565b600060405180830381600087803b158015613a0d57600080fd5b505af1158015613a21573d6000803e3d6000fd5b505089516001600160a01b03166000908152600a60209081526040808320828e015184528252808320818e015184528252808320838052909152812092509050613a69614114565b825467ffffffffffffffff191663ffffffff9190911690811764010000000082021763ffffffff60601b1916600160601b91909102179091555060400151969795505050505050565b600060029054906101000a90046001600160a01b03166001600160a01b03166312d43a516040518163ffffffff1660e01b8152600401602060405180830381865afa158015612b54573d6000803e3d6000fd5b6000806000613b15878787614195565b600254895160208b01516040808d015160c08e015160e08f01519251636ceaca6760e01b81526001600160a01b0395861660048201526024810194909452604484019190915215156064830152608482018c905260a482015260c4810185905260e481018990529295509293509190911690636ceaca6790610104016020604051808303816000875af1158015613bb0573d6000803e3d6000fd5b505050506040513d601f19601f82011682018060405250810190613bd49190614a0d565b875160408051838152602081018690529295506001600160a01b03909116917fe7d34775bf6fd7b34e703a903ef79ab16166ebdffce96a66f4d2f84b6263bb29910160405180910390a25094509492505050565b600054604051638a238ae560e01b81526001600160a01b0362010000909204821660048201819052918416602482015260448101839052638a238ae5906064015b600060405180830381600087803b158015613c8357600080fd5b505af115801561053d573d6000803e3d6000fd5b613ca13083613c28565b600060029054906101000a90046001600160a01b03166001600160a01b031663fbfa77cf6040518163ffffffff1660e01b8152600401602060405180830381865afa158015613cf4573d6000803e3d6000fd5b505050506040513d601f19601f82011682018060405250810190613d189190614999565b60405163a481c14b60e01b8152600481018490526001600160a01b038381166024830152919091169063a481c14b90604401613c69565b6000806402540be400606480613d6587896149cc565b613d6f91906149f9565b613d799088614c92565b613d8390896149cc565b613d8d91906149f9565b613d9791906149f9565b905082613dad57613da88187614c92565b612e92565b612e928187614be8565b949350505050565b600080613dcc83856149cc565b600b54604051632e53fe8760e21b8152600481018990529192506001600160a01b03169063b94ffa1c90602401602060405180830381865afa158015613e16573d6000803e3d6000fd5b505050506040513d601f19601f82011682018060405250810190613e3a9190614a0d565b613e48906305f5e1006149cc565b60005482906201000090046001600160a01b03166377a9fdcf8989613e6e576001613e71565b60005b6040516001600160e01b031960e085901b168152600481019290925260ff166024820152604401602060405180830381865afa158015613eb5573d6000803e3d6000fd5b505050506040513d601f19601f82011682018060405250810190613ed99190614a0d565b613ee39190614be8565b11158015612e925750600b5460405163d627450560e01b8152600481018890528615156024820152604481018390526001600160a01b039091169063d627450590606401602060405180830381865afa158015613f44573d6000803e3d6000fd5b505050506040513d601f19601f82011682018060405250810190612e929190614c24565b6000828152600c60205260408120548015613f865780831115613db7565b613f8e6131ae565b6001600160a01b031663281b693c856040518263ffffffff1660e01b8152600401613fbb91815260200190565b602060405180830381865afa158015613fd8573d6000803e3d6000fd5b505050506040513d601f19601f82011682018060405250810190613ffc9190614a0d565b831115949350505050565b600082158061403057506140226402540be400610384614ebf565b61402e86858588612e0d565b145b15614091576000606485614046610384896149cc565b61405091906149f9565b61405a91906149f9565b90508261407f5785811115614070576000614089565b61407a8187614c92565b614089565b6140898187614be8565b915050613db7565b50909392505050565b600080831180156140d057506140b66402540be400604b614ebf565b6140c290600019614ebf565b6140ce86858588612e0d565b125b156140915760006064856140e5604b896149cc565b6140ef91906149f9565b6140f991906149f9565b90508261410a5761407a8187614be8565b6140898187614c92565b600061a4b1461480614128575062066eed46145b156141905760646001600160a01b031663a3b1b31d6040518163ffffffff1660e01b8152600401602060405180830381865afa15801561416c573d6000803e3d6000fd5b505050506040513d601f19601f820116820180604052508101906132879190614a0d565b504390565b600b546040805160c0808201835286516001600160a01b03908116835260208089015190840190815288850151848601908152928901511515606085019081526080850189815260e08b015160a087019081529651632d28a81760e01b8152955184166004870152915160248601529251604485015291511515606484015290516084830152915160a482015260009283921690632d28a8179060c401602060405180830381865afa15801561424f573d6000803e3d6000fd5b505050506040513d601f19601f820116820180604052508101906142739190614a0d565b9050836402540be4006142878360646149cc565b61429191906149cc565b61429b91906149f9565b6142a59084614eef565b9150935093915050565b604051806101600160405280600081526020016000815260200160008152602001600081526020016000815260200160008152602001600081526020016000815260200160008152602001600081526020016000151581525090565b60405180610140016040528060006001600160a01b0316815260200160008152602001600081526020016000815260200160008152602001600081526020016000151581526020016000815260200160008152602001600081525090565b6040518060c0016040528061437c61430b565b815260200160008152602001600081526020016000815260200160008152602001600081525090565b60008083601f8401126143b757600080fd5b5081356001600160401b038111156143ce57600080fd5b6020830191508360208260051b85010111156143e957600080fd5b9250929050565b6000806000806040858703121561440657600080fd5b84356001600160401b038082111561441d57600080fd5b614429888389016143a5565b9096509450602087013591508082111561444257600080fd5b5061444f878288016143a5565b95989497509550505050565b60006080828403121561446d57600080fd5b50919050565b634e487b7160e01b600052604160045260246000fd5b60405160c081016001600160401b03811182821017156144b957634e487b7160e01b600052604160045260246000fd5b60405290565b6040516101a081016001600160401b03811182821017156144b957634e487b7160e01b600052604160045260246000fd5b60405161014081016001600160401b03811182821017156144b957634e487b7160e01b600052604160045260246000fd5b60008082840360c081121561453557600080fd5b61453f858561445b565b92506040607f198201121561455357600080fd5b50604051604081018181106001600160401b038211171561458457634e487b7160e01b600052604160045260246000fd5b604052608084013564ffffffffff8116811461459f57600080fd5b815260a08401356001600160d81b03811681146145bb57600080fd5b6020820152919491935090915050565b600060c082840312156145dd57600080fd5b6145e5614489565b823581526020830135602082015260408301356040820152606083013560608201526080830135608082015260a083013560a08201528091505092915050565b60006020828403121561463757600080fd5b5035919050565b6001600160a01b038116811461190b57600080fd5b60006020828403121561466557600080fd5b8135612d518161463e565b6020808252825182820181905260009190848201906040850190845b818110156146a85783518352928401929184019160010161468c565b50909695505050505050565b6000806000806000806000806000806101408b8d0312156146d457600080fd5b8a356146df8161463e565b995060208b01356146ef8161463e565b985060408b01356146ff8161463e565b975060608b013561470f8161463e565b965060808b013561471f8161463e565b955060a08b013561472f8161463e565b999c989b5096999598949794965050505060c08301359260e08101359261010082013592506101209091013590565b80356002811061476d57600080fd5b919050565b6000806000806080858703121561478857600080fd5b84356147938161463e565b935060208501359250604085013591506147af6060860161475e565b905092959194509250565b600080604083850312156147cd57600080fd5b50508035926020909101359150565b803563ffffffff8116811461476d57600080fd5b60008082840361010081121561480557600080fd5b61480f858561445b565b92506080607f198201121561482357600080fd5b50604051608081018181106001600160401b038211171561485457634e487b7160e01b600052604160045260246000fd5b604052614863608085016147dc565b815261487160a085016147dc565b602082015261488260c085016147dc565b604082015261489360e085016147dc565b6060820152809150509250929050565b6000806000606084860312156148b857600080fd5b505081359360208301359350604090920135919050565b634e487b7160e01b600052603260045260246000fd5b6000602082840312156148f757600080fd5b612d518261475e565b634e487b7160e01b600052602160045260246000fd5b805161476d8161463e565b600060c0828403121561493357600080fd5b61493b614489565b82516149468161463e565b81526020838101519082015260408301516149608161463e565b80604083015250606083015160608201526080830151608082015260a08301516004811061498d57600080fd5b60a08201529392505050565b6000602082840312156149ab57600080fd5b8151612d518161463e565b634e487b7160e01b600052601160045260246000fd5b8082028115828204841417613307576133076149b6565b634e487b7160e01b600052601260045260246000fd5b600082614a0857614a086149e3565b500490565b600060208284031215614a1f57600080fd5b5051919050565b60048110614a3657614a36614900565b9052565b60018060a01b03815116825260208101516020830152604081015160408301526060810151614a6c6060840182614a26565b505050565b60c08101614a7f8286614a3a565b608082019390935260a00152919050565b80516001600160a01b031682526020810151602083015260408101516040830152606081015160608301526080810151608083015260a081015160a083015260c0810151614ae260c084018215159052565b5060e08181015190830152610100808201519083015261012090810151910152565b8981526102408101614b19602083018b614a90565b614b2761016083018a614a26565b87610180830152866101a0830152856101c0830152846101e0830152836102008301528215156102208301529a9950505050505050505050565b600c8110614a3657614a36614900565b60408101614b7f8285614a26565b612d516020830184614b61565b608081016133078284614a3a565b6020808252602e908201527f496e697469616c697a61626c653a20636f6e747261637420697320616c72656160408201526d191e481a5b9a5d1a585b1a5e995960921b606082015260800190565b80820180821115613307576133076149b6565b6001600160a01b03929092168252602082015260400190565b8051801515811461476d57600080fd5b600060208284031215614c3657600080fd5b612d5182614c14565b6102008101614c4e828a614a90565b9615156101408201526101608101959095526101808501939093526101a08401919091526101c08301526101e090910152919050565b602081016133078284614b61565b81810381811115613307576133076149b6565b61014081016133078284614a90565b82815260408101612d516020830184614b61565b6001600160a01b039390931683526020830191909152604082015260600190565b60006101a08284031215614cfc57600080fd5b614d046144bf565b614d0d83614916565b815260208301516020820152604083015160408201526060830151606082015260808301516080820152614d4360a08401614c14565b60a082015260c0838101519082015260e080840151908201526101008084015190820152610120808401519082015261014080840151908201526101608084015190820152610180928301519281019290925250919050565b600060208284031215614dae57600080fd5b815160038110612d5157600080fd5b60006101408284031215614dd057600080fd5b614dd86144f0565b9050614de382614916565b81526020820151602082015260408201516040820152606082015160608201526080820151608082015260a082015160a0820152614e2360c08301614c14565b60c082015260e082015160e082015261010080830151818301525061012080830151818301525092915050565b60006101408284031215614e6357600080fd5b612d518383614dbd565b600060c08284031215614e7f57600080fd5b614e87614489565b825181526020830151602082015260408301516040820152606083015160608201526080830151608082015261498d60a08401614c14565b80820260008212600160ff1b84141615614edb57614edb6149b6565b8181058314821517613307576133076149b6565b81810360008312801583831316838312821617156113aa576113aa6149b6565b600082614f1e57614f1e6149e3565b600160ff1b821460001984141615614f3857614f386149b6565b500590565b6001600160a01b0396909616865260208601949094526040850192909252606084015215156080830152151560a082015260c00190565b60006101e08284031215614f8757600080fd5b60405160c081018181106001600160401b0382111715614fb757634e487b7160e01b600052604160045260246000fd5b604052614fc48484614dbd565b81526101408301516020820152610160830151604082015261018083015160608201526101a083015160808201526101c09092015160a083015250919050565b6000806040838503121561501757600080fd5b505080516020909101519092909150565b61020081016150378285614a90565b82516101408301526020830151610160830152604083015161018083015260608301516101a083015260808301516101c083015260a083015115156101e0830152939250505056fea2646970667358221220a22880a92d89934721a98777364bb28f8d2924e3292017612380ab62892efa2964736f6c63430008110033",
  "devdoc": {
    "kind": "dev",
    "methods": {},
    "version": 1
  },
  "userdoc": {
    "kind": "user",
    "methods": {},
    "version": 1
  },
  "storageLayout": {
    "storage": [
      {
        "astId": 6,
        "contract": "contracts/TradingCallbacks.sol:TradingCallbacks",
        "label": "_initialized",
        "offset": 0,
        "slot": "0",
        "type": "t_uint8"
      },
      {
        "astId": 9,
        "contract": "contracts/TradingCallbacks.sol:TradingCallbacks",
        "label": "_initializing",
        "offset": 1,
        "slot": "0",
        "type": "t_bool"
      },
      {
        "astId": 513,
        "contract": "contracts/TradingCallbacks.sol:TradingCallbacks",
        "label": "storageT",
        "offset": 2,
        "slot": "0",
        "type": "t_contract(StorageInterface)5372"
      },
      {
        "astId": 516,
        "contract": "contracts/TradingCallbacks.sol:TradingCallbacks",
        "label": "nftRewards",
        "offset": 0,
        "slot": "1",
        "type": "t_contract(NftRewardsInterfaceV6_3_1)4509"
      },
      {
        "astId": 519,
        "contract": "contracts/TradingCallbacks.sol:TradingCallbacks",
        "label": "pairInfos",
        "offset": 0,
        "slot": "2",
        "type": "t_contract(PairInfosInterface)4689"
      },
      {
        "astId": 522,
        "contract": "contracts/TradingCallbacks.sol:TradingCallbacks",
        "label": "referrals",
        "offset": 0,
        "slot": "3",
        "type": "t_contract(ReferralsInterface)4871"
      },
      {
        "astId": 525,
        "contract": "contracts/TradingCallbacks.sol:TradingCallbacks",
        "label": "staking",
        "offset": 0,
        "slot": "4",
        "type": "t_contract(StakingInterface)4879"
      },
      {
        "astId": 539,
        "contract": "contracts/TradingCallbacks.sol:TradingCallbacks",
        "label": "WETHVaultFeeP",
        "offset": 0,
        "slot": "5",
        "type": "t_uint256"
      },
      {
        "astId": 541,
        "contract": "contracts/TradingCallbacks.sol:TradingCallbacks",
        "label": "lpFeeP",
        "offset": 0,
        "slot": "6",
        "type": "t_uint256"
      },
      {
        "astId": 543,
        "contract": "contracts/TradingCallbacks.sol:TradingCallbacks",
        "label": "sssFeeP",
        "offset": 0,
        "slot": "7",
        "type": "t_uint256"
      },
      {
        "astId": 545,
        "contract": "contracts/TradingCallbacks.sol:TradingCallbacks",
        "label": "isPaused",
        "offset": 0,
        "slot": "8",
        "type": "t_bool"
      },
      {
        "astId": 547,
        "contract": "contracts/TradingCallbacks.sol:TradingCallbacks",
        "label": "isDone",
        "offset": 1,
        "slot": "8",
        "type": "t_bool"
      },
      {
        "astId": 549,
        "contract": "contracts/TradingCallbacks.sol:TradingCallbacks",
        "label": "canExecuteTimeout",
        "offset": 0,
        "slot": "9",
        "type": "t_uint256"
      },
      {
        "astId": 561,
        "contract": "contracts/TradingCallbacks.sol:TradingCallbacks",
        "label": "tradeLastUpdated",
        "offset": 0,
        "slot": "10",
        "type": "t_mapping(t_address,t_mapping(t_uint256,t_mapping(t_uint256,t_mapping(t_enum(TradeType)668,t_struct(LastUpdated)635_storage))))"
      },
      {
        "astId": 564,
        "contract": "contracts/TradingCallbacks.sol:TradingCallbacks",
        "label": "borrowingFees",
        "offset": 0,
        "slot": "11",
        "type": "t_contract(BorrowingFeesInterface)4138"
      },
      {
        "astId": 568,
        "contract": "contracts/TradingCallbacks.sol:TradingCallbacks",
        "label": "pairMaxLeverage",
        "offset": 0,
        "slot": "12",
        "type": "t_mapping(t_uint256,t_uint256)"
      },
      {
        "astId": 580,
        "contract": "contracts/TradingCallbacks.sol:TradingCallbacks",
        "label": "tradeData",
        "offset": 0,
        "slot": "13",
        "type": "t_mapping(t_address,t_mapping(t_uint256,t_mapping(t_uint256,t_mapping(t_enum(TradeType)668,t_struct(TradeData)640_storage))))"
      }
    ],
    "types": {
      "t_address": {
        "encoding": "inplace",
        "label": "address",
        "numberOfBytes": "20"
      },
      "t_bool": {
        "encoding": "inplace",
        "label": "bool",
        "numberOfBytes": "1"
      },
      "t_contract(BorrowingFeesInterface)4138": {
        "encoding": "inplace",
        "label": "contract BorrowingFeesInterface",
        "numberOfBytes": "20"
      },
      "t_contract(NftRewardsInterfaceV6_3_1)4509": {
        "encoding": "inplace",
        "label": "contract NftRewardsInterfaceV6_3_1",
        "numberOfBytes": "20"
      },
      "t_contract(PairInfosInterface)4689": {
        "encoding": "inplace",
        "label": "contract PairInfosInterface",
        "numberOfBytes": "20"
      },
      "t_contract(ReferralsInterface)4871": {
        "encoding": "inplace",
        "label": "contract ReferralsInterface",
        "numberOfBytes": "20"
      },
      "t_contract(StakingInterface)4879": {
        "encoding": "inplace",
        "label": "contract StakingInterface",
        "numberOfBytes": "20"
      },
      "t_contract(StorageInterface)5372": {
        "encoding": "inplace",
        "label": "contract StorageInterface",
        "numberOfBytes": "20"
      },
      "t_enum(TradeType)668": {
        "encoding": "inplace",
        "label": "enum TradingCallbacks.TradeType",
        "numberOfBytes": "1"
      },
      "t_mapping(t_address,t_mapping(t_uint256,t_mapping(t_uint256,t_mapping(t_enum(TradeType)668,t_struct(LastUpdated)635_storage))))": {
        "encoding": "mapping",
        "key": "t_address",
        "label": "mapping(address => mapping(uint256 => mapping(uint256 => mapping(enum TradingCallbacks.TradeType => struct TradingCallbacks.LastUpdated))))",
        "numberOfBytes": "32",
        "value": "t_mapping(t_uint256,t_mapping(t_uint256,t_mapping(t_enum(TradeType)668,t_struct(LastUpdated)635_storage)))"
      },
      "t_mapping(t_address,t_mapping(t_uint256,t_mapping(t_uint256,t_mapping(t_enum(TradeType)668,t_struct(TradeData)640_storage))))": {
        "encoding": "mapping",
        "key": "t_address",
        "label": "mapping(address => mapping(uint256 => mapping(uint256 => mapping(enum TradingCallbacks.TradeType => struct TradingCallbacks.TradeData))))",
        "numberOfBytes": "32",
        "value": "t_mapping(t_uint256,t_mapping(t_uint256,t_mapping(t_enum(TradeType)668,t_struct(TradeData)640_storage)))"
      },
      "t_mapping(t_enum(TradeType)668,t_struct(LastUpdated)635_storage)": {
        "encoding": "mapping",
        "key": "t_enum(TradeType)668",
        "label": "mapping(enum TradingCallbacks.TradeType => struct TradingCallbacks.LastUpdated)",
        "numberOfBytes": "32",
        "value": "t_struct(LastUpdated)635_storage"
      },
      "t_mapping(t_enum(TradeType)668,t_struct(TradeData)640_storage)": {
        "encoding": "mapping",
        "key": "t_enum(TradeType)668",
        "label": "mapping(enum TradingCallbacks.TradeType => struct TradingCallbacks.TradeData)",
        "numberOfBytes": "32",
        "value": "t_struct(TradeData)640_storage"
      },
      "t_mapping(t_uint256,t_mapping(t_enum(TradeType)668,t_struct(LastUpdated)635_storage))": {
        "encoding": "mapping",
        "key": "t_uint256",
        "label": "mapping(uint256 => mapping(enum TradingCallbacks.TradeType => struct TradingCallbacks.LastUpdated))",
        "numberOfBytes": "32",
        "value": "t_mapping(t_enum(TradeType)668,t_struct(LastUpdated)635_storage)"
      },
      "t_mapping(t_uint256,t_mapping(t_enum(TradeType)668,t_struct(TradeData)640_storage))": {
        "encoding": "mapping",
        "key": "t_uint256",
        "label": "mapping(uint256 => mapping(enum TradingCallbacks.TradeType => struct TradingCallbacks.TradeData))",
        "numberOfBytes": "32",
        "value": "t_mapping(t_enum(TradeType)668,t_struct(TradeData)640_storage)"
      },
      "t_mapping(t_uint256,t_mapping(t_uint256,t_mapping(t_enum(TradeType)668,t_struct(LastUpdated)635_storage)))": {
        "encoding": "mapping",
        "key": "t_uint256",
        "label": "mapping(uint256 => mapping(uint256 => mapping(enum TradingCallbacks.TradeType => struct TradingCallbacks.LastUpdated)))",
        "numberOfBytes": "32",
        "value": "t_mapping(t_uint256,t_mapping(t_enum(TradeType)668,t_struct(LastUpdated)635_storage))"
      },
      "t_mapping(t_uint256,t_mapping(t_uint256,t_mapping(t_enum(TradeType)668,t_struct(TradeData)640_storage)))": {
        "encoding": "mapping",
        "key": "t_uint256",
        "label": "mapping(uint256 => mapping(uint256 => mapping(enum TradingCallbacks.TradeType => struct TradingCallbacks.TradeData)))",
        "numberOfBytes": "32",
        "value": "t_mapping(t_uint256,t_mapping(t_enum(TradeType)668,t_struct(TradeData)640_storage))"
      },
      "t_mapping(t_uint256,t_uint256)": {
        "encoding": "mapping",
        "key": "t_uint256",
        "label": "mapping(uint256 => uint256)",
        "numberOfBytes": "32",
        "value": "t_uint256"
      },
      "t_struct(LastUpdated)635_storage": {
        "encoding": "inplace",
        "label": "struct TradingCallbacks.LastUpdated",
        "members": [
          {
            "astId": 628,
            "contract": "contracts/TradingCallbacks.sol:TradingCallbacks",
            "label": "tp",
            "offset": 0,
            "slot": "0",
            "type": "t_uint32"
          },
          {
            "astId": 630,
            "contract": "contracts/TradingCallbacks.sol:TradingCallbacks",
            "label": "sl",
            "offset": 4,
            "slot": "0",
            "type": "t_uint32"
          },
          {
            "astId": 632,
            "contract": "contracts/TradingCallbacks.sol:TradingCallbacks",
            "label": "limit",
            "offset": 8,
            "slot": "0",
            "type": "t_uint32"
          },
          {
            "astId": 634,
            "contract": "contracts/TradingCallbacks.sol:TradingCallbacks",
            "label": "created",
            "offset": 12,
            "slot": "0",
            "type": "t_uint32"
          }
        ],
        "numberOfBytes": "32"
      },
      "t_struct(TradeData)640_storage": {
        "encoding": "inplace",
        "label": "struct TradingCallbacks.TradeData",
        "members": [
          {
            "astId": 637,
            "contract": "contracts/TradingCallbacks.sol:TradingCallbacks",
            "label": "maxSlippageP",
            "offset": 0,
            "slot": "0",
            "type": "t_uint40"
          },
          {
            "astId": 639,
            "contract": "contracts/TradingCallbacks.sol:TradingCallbacks",
            "label": "_placeholder",
            "offset": 5,
            "slot": "0",
            "type": "t_uint216"
          }
        ],
        "numberOfBytes": "32"
      },
      "t_uint216": {
        "encoding": "inplace",
        "label": "uint216",
        "numberOfBytes": "27"
      },
      "t_uint256": {
        "encoding": "inplace",
        "label": "uint256",
        "numberOfBytes": "32"
      },
      "t_uint32": {
        "encoding": "inplace",
        "label": "uint32",
        "numberOfBytes": "4"
      },
      "t_uint40": {
        "encoding": "inplace",
        "label": "uint40",
        "numberOfBytes": "5"
      },
      "t_uint8": {
        "encoding": "inplace",
        "label": "uint8",
        "numberOfBytes": "1"
      }
    }
  }
}