{
  "address": "0xbb342B46C6F2A8d9ed140118aCc4D4A2C76e78b4",
  "abi": [
    {
      "inputs": [],
      "name": "Forbidden",
      "type": "error"
    },
    {
      "inputs": [],
      "name": "WrongParams",
      "type": "error"
    },
    {
      "anonymous": false,
      "inputs": [
        {
          "indexed": true,
          "internalType": "address",
          "name": "trader",
          "type": "address"
        },
        {
          "indexed": false,
          "internalType": "uint256",
          "name": "tradeValueWETH",
          "type": "uint256"
        },
        {
          "indexed": false,
          "internalType": "uint256",
          "name": "feeValueWETH",
          "type": "uint256"
        }
      ],
      "name": "BorrowingFeeCharged",
      "type": "event"
    },
    {
      "anonymous": false,
      "inputs": [
        {
          "indexed": false,
          "internalType": "uint256",
          "name": "newValue",
          "type": "uint256"
        }
      ],
      "name": "CanExecuteTimeoutUpdated",
      "type": "event"
    },
    {
      "anonymous": false,
      "inputs": [
        {
          "indexed": false,
          "internalType": "uint256",
          "name": "WETHVaultFeeP",
          "type": "uint256"
        },
        {
          "indexed": false,
          "internalType": "uint256",
          "name": "lpFeeP",
          "type": "uint256"
        },
        {
          "indexed": false,
          "internalType": "uint256",
          "name": "sssFeeP",
          "type": "uint256"
        }
      ],
      "name": "ClosingFeeSharesPUpdated",
      "type": "event"
    },
    {
      "anonymous": false,
      "inputs": [
        {
          "indexed": true,
          "internalType": "address",
          "name": "trader",
          "type": "address"
        },
        {
          "indexed": false,
          "internalType": "uint256",
          "name": "valueWETH",
          "type": "uint256"
        }
      ],
      "name": "DevGovFeeCharged",
      "type": "event"
    },
    {
      "anonymous": false,
      "inputs": [
        {
          "indexed": false,
          "internalType": "bool",
          "name": "done",
          "type": "bool"
        }
      ],
      "name": "Done",
      "type": "event"
    },
    {
      "anonymous": false,
      "inputs": [
        {
          "indexed": false,
          "internalType": "uint8",
          "name": "version",
          "type": "uint8"
        }
      ],
      "name": "Initialized",
      "type": "event"
    },
    {
      "anonymous": false,
      "inputs": [
        {
          "indexed": true,
          "internalType": "uint256",
          "name": "orderId",
          "type": "uint256"
        },
        {
          "indexed": false,
          "internalType": "uint256",
          "name": "limitIndex",
          "type": "uint256"
        },
        {
          "components": [
            {
              "internalType": "address",
              "name": "trader",
              "type": "address"
            },
            {
              "internalType": "uint256",
              "name": "pairIndex",
              "type": "uint256"
            },
            {
              "internalType": "uint256",
              "name": "index",
              "type": "uint256"
            },
            {
              "internalType": "uint256",
              "name": "initialPosToken",
              "type": "uint256"
            },
            {
              "internalType": "uint256",
              "name": "positionSizeWETH",
              "type": "uint256"
            },
            {
              "internalType": "uint256",
              "name": "openPrice",
              "type": "uint256"
            },
            {
              "internalType": "bool",
              "name": "buy",
              "type": "bool"
            },
            {
              "internalType": "uint256",
              "name": "leverage",
              "type": "uint256"
            },
            {
              "internalType": "uint256",
              "name": "tp",
              "type": "uint256"
            },
            {
              "internalType": "uint256",
              "name": "sl",
              "type": "uint256"
            }
          ],
          "indexed": false,
          "internalType": "struct StorageInterface.Trade",
          "name": "t",
          "type": "tuple"
        },
        {
          "indexed": true,
          "internalType": "address",
          "name": "nftHolder",
          "type": "address"
        },
        {
          "indexed": false,
          "internalType": "enum StorageInterface.LimitOrder",
          "name": "orderType",
          "type": "uint8"
        },
        {
          "indexed": false,
          "internalType": "uint256",
          "name": "price",
          "type": "uint256"
        },
        {
          "indexed": false,
          "internalType": "uint256",
          "name": "priceImpactP",
          "type": "uint256"
        },
        {
          "indexed": false,
          "internalType": "uint256",
          "name": "positionSizeWETH",
          "type": "uint256"
        },
        {
          "indexed": false,
          "internalType": "int256",
          "name": "percentProfit",
          "type": "int256"
        },
        {
          "indexed": false,
          "internalType": "uint256",
          "name": "WETHSentToTrader",
          "type": "uint256"
        },
        {
          "indexed": false,
          "internalType": "bool",
          "name": "exactExecution",
          "type": "bool"
        }
      ],
      "name": "LimitExecuted",
      "type": "event"
    },
    {
      "anonymous": false,
      "inputs": [
        {
          "indexed": true,
          "internalType": "uint256",
          "name": "orderId",
          "type": "uint256"
        },
        {
          "indexed": true,
          "internalType": "address",
          "name": "trader",
          "type": "address"
        },
        {
          "indexed": true,
          "internalType": "uint256",
          "name": "pairIndex",
          "type": "uint256"
        },
        {
          "indexed": false,
          "internalType": "uint256",
          "name": "index",
          "type": "uint256"
        },
        {
          "indexed": false,
          "internalType": "enum TradingCallbacks.CancelReason",
          "name": "cancelReason",
          "type": "uint8"
        }
      ],
      "name": "MarketCloseCanceled",
      "type": "event"
    },
    {
      "anonymous": false,
      "inputs": [
        {
          "indexed": true,
          "internalType": "uint256",
          "name": "orderId",
          "type": "uint256"
        },
        {
          "components": [
            {
              "internalType": "address",
              "name": "trader",
              "type": "address"
            },
            {
              "internalType": "uint256",
              "name": "pairIndex",
              "type": "uint256"
            },
            {
              "internalType": "uint256",
              "name": "index",
              "type": "uint256"
            },
            {
              "internalType": "uint256",
              "name": "initialPosToken",
              "type": "uint256"
            },
            {
              "internalType": "uint256",
              "name": "positionSizeWETH",
              "type": "uint256"
            },
            {
              "internalType": "uint256",
              "name": "openPrice",
              "type": "uint256"
            },
            {
              "internalType": "bool",
              "name": "buy",
              "type": "bool"
            },
            {
              "internalType": "uint256",
              "name": "leverage",
              "type": "uint256"
            },
            {
              "internalType": "uint256",
              "name": "tp",
              "type": "uint256"
            },
            {
              "internalType": "uint256",
              "name": "sl",
              "type": "uint256"
            }
          ],
          "indexed": false,
          "internalType": "struct StorageInterface.Trade",
          "name": "t",
          "type": "tuple"
        },
        {
          "indexed": false,
          "internalType": "bool",
          "name": "open",
          "type": "bool"
        },
        {
          "indexed": false,
          "internalType": "uint256",
          "name": "price",
          "type": "uint256"
        },
        {
          "indexed": false,
          "internalType": "uint256",
          "name": "priceImpactP",
          "type": "uint256"
        },
        {
          "indexed": false,
          "internalType": "uint256",
          "name": "positionSizeWETH",
          "type": "uint256"
        },
        {
          "indexed": false,
          "internalType": "int256",
          "name": "percentProfit",
          "type": "int256"
        },
        {
          "indexed": false,
          "internalType": "uint256",
          "name": "WETHSentToTrader",
          "type": "uint256"
        }
      ],
      "name": "MarketExecuted",
      "type": "event"
    },
    {
      "anonymous": false,
      "inputs": [
        {
          "indexed": true,
          "internalType": "uint256",
          "name": "orderId",
          "type": "uint256"
        },
        {
          "indexed": true,
          "internalType": "address",
          "name": "trader",
          "type": "address"
        },
        {
          "indexed": true,
          "internalType": "uint256",
          "name": "pairIndex",
          "type": "uint256"
        },
        {
          "indexed": false,
          "internalType": "enum TradingCallbacks.CancelReason",
          "name": "cancelReason",
          "type": "uint8"
        }
      ],
      "name": "MarketOpenCanceled",
      "type": "event"
    },
    {
      "anonymous": false,
      "inputs": [
        {
          "indexed": true,
          "internalType": "address",
          "name": "trader",
          "type": "address"
        },
        {
          "indexed": false,
          "internalType": "uint256",
          "name": "valueWETH",
          "type": "uint256"
        }
      ],
      "name": "NftBotFeeCharged",
      "type": "event"
    },
    {
      "anonymous": false,
      "inputs": [
        {
          "indexed": true,
          "internalType": "uint256",
          "name": "orderId",
          "type": "uint256"
        },
        {
          "indexed": true,
          "internalType": "address",
          "name": "nftHolder",
          "type": "address"
        },
        {
          "indexed": false,
          "internalType": "enum StorageInterface.LimitOrder",
          "name": "orderType",
          "type": "uint8"
        },
        {
          "indexed": false,
          "internalType": "enum TradingCallbacks.CancelReason",
          "name": "cancelReason",
          "type": "uint8"
        }
      ],
      "name": "NftOrderCanceled",
      "type": "event"
    },
    {
      "anonymous": false,
      "inputs": [
        {
          "indexed": true,
          "internalType": "uint256",
          "name": "pairIndex",
          "type": "uint256"
        },
        {
          "indexed": false,
          "internalType": "uint256",
          "name": "maxLeverage",
          "type": "uint256"
        }
      ],
      "name": "PairMaxLeverageUpdated",
      "type": "event"
    },
    {
      "anonymous": false,
      "inputs": [
        {
          "indexed": false,
          "internalType": "bool",
          "name": "paused",
          "type": "bool"
        }
      ],
      "name": "Pause",
      "type": "event"
    },
    {
      "anonymous": false,
      "inputs": [
        {
          "indexed": true,
          "internalType": "address",
          "name": "trader",
          "type": "address"
        },
        {
          "indexed": false,
          "internalType": "uint256",
          "name": "valueWETH",
          "type": "uint256"
        }
      ],
      "name": "ReferralFeeCharged",
      "type": "event"
    },
    {
      "anonymous": false,
      "inputs": [
        {
          "indexed": true,
          "internalType": "address",
          "name": "trader",
          "type": "address"
        },
        {
          "indexed": false,
          "internalType": "uint256",
          "name": "valueWETH",
          "type": "uint256"
        }
      ],
      "name": "SssFeeCharged",
      "type": "event"
    },
    {
      "anonymous": false,
      "inputs": [
        {
          "indexed": true,
          "internalType": "address",
          "name": "trader",
          "type": "address"
        },
        {
          "indexed": false,
          "internalType": "uint256",
          "name": "valueWETH",
          "type": "uint256"
        }
      ],
      "name": "WETHVaultFeeCharged",
      "type": "event"
    },
    {
      "inputs": [],
      "name": "WETHVaultFeeP",
      "outputs": [
        {
          "internalType": "uint256",
          "name": "",
          "type": "uint256"
        }
      ],
      "stateMutability": "view",
      "type": "function"
    },
    {
      "inputs": [],
      "name": "borrowingFees",
      "outputs": [
        {
          "internalType": "contract BorrowingFeesInterface",
          "name": "",
          "type": "address"
        }
      ],
      "stateMutability": "view",
      "type": "function"
    },
    {
      "inputs": [],
      "name": "canExecuteTimeout",
      "outputs": [
        {
          "internalType": "uint256",
          "name": "",
          "type": "uint256"
        }
      ],
      "stateMutability": "view",
      "type": "function"
    },
    {
      "inputs": [
        {
          "components": [
            {
              "internalType": "uint256",
              "name": "orderId",
              "type": "uint256"
            },
            {
              "internalType": "uint256",
              "name": "price",
              "type": "uint256"
            },
            {
              "internalType": "uint256",
              "name": "spreadP",
              "type": "uint256"
            },
            {
              "internalType": "uint256",
              "name": "open",
              "type": "uint256"
            },
            {
              "internalType": "uint256",
              "name": "high",
              "type": "uint256"
            },
            {
              "internalType": "uint256",
              "name": "low",
              "type": "uint256"
            }
          ],
          "internalType": "struct TradingCallbacks.AggregatorAnswer",
          "name": "a",
          "type": "tuple"
        },
        {
          "components": [
            {
              "components": [
                {
                  "internalType": "address",
                  "name": "trader",
                  "type": "address"
                },
                {
                  "internalType": "uint256",
                  "name": "pairIndex",
                  "type": "uint256"
                },
                {
                  "internalType": "uint256",
                  "name": "index",
                  "type": "uint256"
                },
                {
                  "internalType": "uint256",
                  "name": "initialPosToken",
                  "type": "uint256"
                },
                {
                  "internalType": "uint256",
                  "name": "positionSizeWETH",
                  "type": "uint256"
                },
                {
                  "internalType": "uint256",
                  "name": "openPrice",
                  "type": "uint256"
                },
                {
                  "internalType": "bool",
                  "name": "buy",
                  "type": "bool"
                },
                {
                  "internalType": "uint256",
                  "name": "leverage",
                  "type": "uint256"
                },
                {
                  "internalType": "uint256",
                  "name": "tp",
                  "type": "uint256"
                },
                {
                  "internalType": "uint256",
                  "name": "sl",
                  "type": "uint256"
                }
              ],
              "internalType": "struct StorageInterface.Trade",
              "name": "trade",
              "type": "tuple"
            },
            {
              "internalType": "uint256",
              "name": "block",
              "type": "uint256"
            },
            {
              "internalType": "uint256",
              "name": "wantedPrice",
              "type": "uint256"
            },
            {
              "internalType": "uint256",
              "name": "slippageP",
              "type": "uint256"
            },
            {
              "internalType": "uint256",
              "name": "spreadReductionP",
              "type": "uint256"
            },
            {
              "internalType": "uint256",
              "name": "tokenId",
              "type": "uint256"
            }
          ],
          "internalType": "struct StorageInterface.PendingMarketOrder",
          "name": "o",
          "type": "tuple"
        }
      ],
      "name": "closeTradeMarketCallback",
      "outputs": [],
      "stateMutability": "nonpayable",
      "type": "function"
    },
    {
      "inputs": [],
      "name": "done",
      "outputs": [],
      "stateMutability": "nonpayable",
      "type": "function"
    },
    {
      "inputs": [
        {
          "components": [
            {
              "internalType": "uint256",
              "name": "orderId",
              "type": "uint256"
            },
            {
              "internalType": "uint256",
              "name": "price",
              "type": "uint256"
            },
            {
              "internalType": "uint256",
              "name": "spreadP",
              "type": "uint256"
            },
            {
              "internalType": "uint256",
              "name": "open",
              "type": "uint256"
            },
            {
              "internalType": "uint256",
              "name": "high",
              "type": "uint256"
            },
            {
              "internalType": "uint256",
              "name": "low",
              "type": "uint256"
            }
          ],
          "internalType": "struct TradingCallbacks.AggregatorAnswer",
          "name": "a",
          "type": "tuple"
        },
        {
          "components": [
            {
              "internalType": "address",
              "name": "nftHolder",
              "type": "address"
            },
            {
              "internalType": "uint256",
              "name": "nftId",
              "type": "uint256"
            },
            {
              "internalType": "address",
              "name": "trader",
              "type": "address"
            },
            {
              "internalType": "uint256",
              "name": "pairIndex",
              "type": "uint256"
            },
            {
              "internalType": "uint256",
              "name": "index",
              "type": "uint256"
            },
            {
              "internalType": "enum StorageInterface.LimitOrder",
              "name": "orderType",
              "type": "uint8"
            }
          ],
          "internalType": "struct StorageInterface.PendingNftOrder",
          "name": "o",
          "type": "tuple"
        }
      ],
      "name": "executeNftCloseOrderCallback",
      "outputs": [],
      "stateMutability": "nonpayable",
      "type": "function"
    },
    {
      "inputs": [],
      "name": "getAllPairsMaxLeverage",
      "outputs": [
        {
          "internalType": "uint256[]",
          "name": "",
          "type": "uint256[]"
        }
      ],
      "stateMutability": "view",
      "type": "function"
    },
    {
      "inputs": [
        {
          "internalType": "address",
          "name": "trader",
          "type": "address"
        },
        {
          "internalType": "uint256",
          "name": "pairIndex",
          "type": "uint256"
        },
        {
          "internalType": "uint256",
          "name": "index",
          "type": "uint256"
        }
      ],
      "name": "getTradePnl",
      "outputs": [
        {
          "internalType": "int256",
          "name": "pnl",
          "type": "int256"
        }
      ],
      "stateMutability": "view",
      "type": "function"
    },
    {
      "inputs": [],
      "name": "giveApproval",
      "outputs": [],
      "stateMutability": "nonpayable",
      "type": "function"
    },
    {
      "inputs": [
        {
          "internalType": "contract StorageInterface",
          "name": "_storageT",
          "type": "address"
        },
        {
          "internalType": "contract NftRewardsInterfaceV6_3_1",
          "name": "_nftRewards",
          "type": "address"
        },
        {
          "internalType": "contract PairInfosInterface",
          "name": "_pairInfos",
          "type": "address"
        },
        {
          "internalType": "contract ReferralsInterface",
          "name": "_referrals",
          "type": "address"
        },
        {
          "internalType": "contract StakingInterface",
          "name": "_staking",
          "type": "address"
        },
        {
          "internalType": "contract BorrowingFeesInterface",
          "name": "_borrowingFees",
          "type": "address"
        },
        {
          "internalType": "address",
          "name": "vaultToApprove",
          "type": "address"
        },
        {
          "internalType": "uint256",
          "name": "_WETHVaultFeeP",
          "type": "uint256"
        },
        {
          "internalType": "uint256",
          "name": "_lpFeeP",
          "type": "uint256"
        },
        {
          "internalType": "uint256",
          "name": "_sssFeeP",
          "type": "uint256"
        },
        {
          "internalType": "uint256",
          "name": "_canExecuteTimeout",
          "type": "uint256"
        },
        {
          "components": [
            {
              "internalType": "uint256",
              "name": "_vaultFeeP",
              "type": "uint256"
            },
            {
              "internalType": "uint256",
              "name": "_liquidatorFeeP",
              "type": "uint256"
            },
            {
              "internalType": "uint256",
              "name": "_liquidationFeeP",
              "type": "uint256"
            },
            {
              "internalType": "uint256",
              "name": "_parLiquidationFeeP",
              "type": "uint256"
            }
          ],
          "internalType": "struct TradingCallbacks.feeConfig",
          "name": "data",
          "type": "tuple"
        }
      ],
      "name": "initialize",
      "outputs": [],
      "stateMutability": "nonpayable",
      "type": "function"
    },
    {
      "inputs": [],
      "name": "isDone",
      "outputs": [
        {
          "internalType": "bool",
          "name": "",
          "type": "bool"
        }
      ],
      "stateMutability": "view",
      "type": "function"
    },
    {
      "inputs": [],
      "name": "isPaused",
      "outputs": [
        {
          "internalType": "bool",
          "name": "",
          "type": "bool"
        }
      ],
      "stateMutability": "view",
      "type": "function"
    },
    {
      "inputs": [],
      "name": "liquidationFeeP",
      "outputs": [
        {
          "internalType": "uint256",
          "name": "",
          "type": "uint256"
        }
      ],
      "stateMutability": "view",
      "type": "function"
    },
    {
      "inputs": [],
      "name": "liquidatorFeeP",
      "outputs": [
        {
          "internalType": "uint256",
          "name": "",
          "type": "uint256"
        }
      ],
      "stateMutability": "view",
      "type": "function"
    },
    {
      "inputs": [],
      "name": "lpFeeP",
      "outputs": [
        {
          "internalType": "uint256",
          "name": "",
          "type": "uint256"
        }
      ],
      "stateMutability": "view",
      "type": "function"
    },
    {
      "inputs": [],
      "name": "nftRewards",
      "outputs": [
        {
          "internalType": "contract NftRewardsInterfaceV6_3_1",
          "name": "",
          "type": "address"
        }
      ],
      "stateMutability": "view",
      "type": "function"
    },
    {
      "inputs": [
        {
          "components": [
            {
              "internalType": "uint256",
              "name": "orderId",
              "type": "uint256"
            },
            {
              "internalType": "uint256",
              "name": "price",
              "type": "uint256"
            },
            {
              "internalType": "uint256",
              "name": "spreadP",
              "type": "uint256"
            },
            {
              "internalType": "uint256",
              "name": "open",
              "type": "uint256"
            },
            {
              "internalType": "uint256",
              "name": "high",
              "type": "uint256"
            },
            {
              "internalType": "uint256",
              "name": "low",
              "type": "uint256"
            }
          ],
          "internalType": "struct TradingCallbacks.AggregatorAnswer",
          "name": "a",
          "type": "tuple"
        },
        {
          "components": [
            {
              "components": [
                {
                  "internalType": "address",
                  "name": "trader",
                  "type": "address"
                },
                {
                  "internalType": "uint256",
                  "name": "pairIndex",
                  "type": "uint256"
                },
                {
                  "internalType": "uint256",
                  "name": "index",
                  "type": "uint256"
                },
                {
                  "internalType": "uint256",
                  "name": "initialPosToken",
                  "type": "uint256"
                },
                {
                  "internalType": "uint256",
                  "name": "positionSizeWETH",
                  "type": "uint256"
                },
                {
                  "internalType": "uint256",
                  "name": "openPrice",
                  "type": "uint256"
                },
                {
                  "internalType": "bool",
                  "name": "buy",
                  "type": "bool"
                },
                {
                  "internalType": "uint256",
                  "name": "leverage",
                  "type": "uint256"
                },
                {
                  "internalType": "uint256",
                  "name": "tp",
                  "type": "uint256"
                },
                {
                  "internalType": "uint256",
                  "name": "sl",
                  "type": "uint256"
                }
              ],
              "internalType": "struct StorageInterface.Trade",
              "name": "trade",
              "type": "tuple"
            },
            {
              "internalType": "uint256",
              "name": "block",
              "type": "uint256"
            },
            {
              "internalType": "uint256",
              "name": "wantedPrice",
              "type": "uint256"
            },
            {
              "internalType": "uint256",
              "name": "slippageP",
              "type": "uint256"
            },
            {
              "internalType": "uint256",
              "name": "spreadReductionP",
              "type": "uint256"
            },
            {
              "internalType": "uint256",
              "name": "tokenId",
              "type": "uint256"
            }
          ],
          "internalType": "struct StorageInterface.PendingMarketOrder",
          "name": "o",
          "type": "tuple"
        }
      ],
      "name": "openTradeMarketCallback",
      "outputs": [],
      "stateMutability": "nonpayable",
      "type": "function"
    },
    {
      "inputs": [],
      "name": "pairInfos",
      "outputs": [
        {
          "internalType": "contract PairInfosInterface",
          "name": "",
          "type": "address"
        }
      ],
      "stateMutability": "view",
      "type": "function"
    },
    {
      "inputs": [
        {
          "internalType": "uint256",
          "name": "",
          "type": "uint256"
        }
      ],
      "name": "pairMaxLeverage",
      "outputs": [
        {
          "internalType": "uint256",
          "name": "",
          "type": "uint256"
        }
      ],
      "stateMutability": "view",
      "type": "function"
    },
    {
      "inputs": [],
      "name": "parLiquidationFeeP",
      "outputs": [
        {
          "internalType": "uint256",
          "name": "",
          "type": "uint256"
        }
      ],
      "stateMutability": "view",
      "type": "function"
    },
    {
      "inputs": [],
      "name": "pause",
      "outputs": [],
      "stateMutability": "nonpayable",
      "type": "function"
    },
    {
      "inputs": [],
      "name": "referrals",
      "outputs": [
        {
          "internalType": "contract ReferralsInterface",
          "name": "",
          "type": "address"
        }
      ],
      "stateMutability": "view",
      "type": "function"
    },
    {
      "inputs": [
        {
          "internalType": "uint256",
          "name": "_canExecuteTimeout",
          "type": "uint256"
        }
      ],
      "name": "setCanExecuteTimeout",
      "outputs": [],
      "stateMutability": "nonpayable",
      "type": "function"
    },
    {
      "inputs": [
        {
          "internalType": "uint256",
          "name": "_WETHVaultFeeP",
          "type": "uint256"
        },
        {
          "internalType": "uint256",
          "name": "_lpFeeP",
          "type": "uint256"
        },
        {
          "internalType": "uint256",
          "name": "_sssFeeP",
          "type": "uint256"
        }
      ],
      "name": "setClosingFeeSharesP",
      "outputs": [],
      "stateMutability": "nonpayable",
      "type": "function"
    },
    {
      "inputs": [
        {
          "internalType": "uint256",
          "name": "_feeP",
          "type": "uint256"
        }
      ],
      "name": "setLiquidationFeeP",
      "outputs": [],
      "stateMutability": "nonpayable",
      "type": "function"
    },
    {
      "inputs": [
        {
          "internalType": "uint256",
          "name": "_feeP",
          "type": "uint256"
        }
      ],
      "name": "setLiquidatorFeeP",
      "outputs": [],
      "stateMutability": "nonpayable",
      "type": "function"
    },
    {
      "inputs": [
        {
          "internalType": "uint256",
          "name": "pairIndex",
          "type": "uint256"
        },
        {
          "internalType": "uint256",
          "name": "maxLeverage",
          "type": "uint256"
        }
      ],
      "name": "setPairMaxLeverage",
      "outputs": [],
      "stateMutability": "nonpayable",
      "type": "function"
    },
    {
      "inputs": [
        {
          "internalType": "uint256[]",
          "name": "indices",
          "type": "uint256[]"
        },
        {
          "internalType": "uint256[]",
          "name": "values",
          "type": "uint256[]"
        }
      ],
      "name": "setPairMaxLeverageArray",
      "outputs": [],
      "stateMutability": "nonpayable",
      "type": "function"
    },
    {
      "inputs": [
        {
          "internalType": "uint256",
          "name": "_feeP",
          "type": "uint256"
        }
      ],
      "name": "setParLiquidationFeeP",
      "outputs": [],
      "stateMutability": "nonpayable",
      "type": "function"
    },
    {
      "inputs": [
        {
          "components": [
            {
              "internalType": "address",
              "name": "trader",
              "type": "address"
            },
            {
              "internalType": "uint256",
              "name": "pairIndex",
              "type": "uint256"
            },
            {
              "internalType": "uint256",
              "name": "index",
              "type": "uint256"
            },
            {
              "internalType": "enum TradingCallbacks.TradeType",
              "name": "tradeType",
              "type": "uint8"
            }
          ],
          "internalType": "struct TradingCallbacks.SimplifiedTradeId",
          "name": "_id",
          "type": "tuple"
        },
        {
          "components": [
            {
              "internalType": "uint40",
              "name": "maxSlippageP",
              "type": "uint40"
            },
            {
              "internalType": "uint216",
              "name": "_placeholder",
              "type": "uint216"
            }
          ],
          "internalType": "struct TradingCallbacks.TradeData",
          "name": "_tradeData",
          "type": "tuple"
        }
      ],
      "name": "setTradeData",
      "outputs": [],
      "stateMutability": "nonpayable",
      "type": "function"
    },
    {
      "inputs": [
        {
          "components": [
            {
              "internalType": "address",
              "name": "trader",
              "type": "address"
            },
            {
              "internalType": "uint256",
              "name": "pairIndex",
              "type": "uint256"
            },
            {
              "internalType": "uint256",
              "name": "index",
              "type": "uint256"
            },
            {
              "internalType": "enum TradingCallbacks.TradeType",
              "name": "tradeType",
              "type": "uint8"
            }
          ],
          "internalType": "struct TradingCallbacks.SimplifiedTradeId",
          "name": "_id",
          "type": "tuple"
        },
        {
          "components": [
            {
              "internalType": "uint32",
              "name": "tp",
              "type": "uint32"
            },
            {
              "internalType": "uint32",
              "name": "sl",
              "type": "uint32"
            },
            {
              "internalType": "uint32",
              "name": "limit",
              "type": "uint32"
            },
            {
              "internalType": "uint32",
              "name": "created",
              "type": "uint32"
            }
          ],
          "internalType": "struct TradingCallbacks.LastUpdated",
          "name": "_lastUpdated",
          "type": "tuple"
        }
      ],
      "name": "setTradeLastUpdated",
      "outputs": [],
      "stateMutability": "nonpayable",
      "type": "function"
    },
    {
      "inputs": [
        {
          "internalType": "uint256",
          "name": "_feeP",
          "type": "uint256"
        }
      ],
      "name": "setVaultFeeP",
      "outputs": [],
      "stateMutability": "nonpayable",
      "type": "function"
    },
    {
      "inputs": [],
      "name": "sssFeeP",
      "outputs": [
        {
          "internalType": "uint256",
          "name": "",
          "type": "uint256"
        }
      ],
      "stateMutability": "view",
      "type": "function"
    },
    {
      "inputs": [],
      "name": "staking",
      "outputs": [
        {
          "internalType": "contract StakingInterface",
          "name": "",
          "type": "address"
        }
      ],
      "stateMutability": "view",
      "type": "function"
    },
    {
      "inputs": [],
      "name": "storageT",
      "outputs": [
        {
          "internalType": "contract StorageInterface",
          "name": "",
          "type": "address"
        }
      ],
      "stateMutability": "view",
      "type": "function"
    },
    {
      "inputs": [
        {
          "internalType": "address",
          "name": "",
          "type": "address"
        },
        {
          "internalType": "uint256",
          "name": "",
          "type": "uint256"
        },
        {
          "internalType": "uint256",
          "name": "",
          "type": "uint256"
        },
        {
          "internalType": "enum TradingCallbacks.TradeType",
          "name": "",
          "type": "uint8"
        }
      ],
      "name": "tradeData",
      "outputs": [
        {
          "internalType": "uint40",
          "name": "maxSlippageP",
          "type": "uint40"
        },
        {
          "internalType": "uint216",
          "name": "_placeholder",
          "type": "uint216"
        }
      ],
      "stateMutability": "view",
      "type": "function"
    },
    {
      "inputs": [
        {
          "internalType": "address",
          "name": "",
          "type": "address"
        },
        {
          "internalType": "uint256",
          "name": "",
          "type": "uint256"
        },
        {
          "internalType": "uint256",
          "name": "",
          "type": "uint256"
        },
        {
          "internalType": "enum TradingCallbacks.TradeType",
          "name": "",
          "type": "uint8"
        }
      ],
      "name": "tradeLastUpdated",
      "outputs": [
        {
          "internalType": "uint32",
          "name": "tp",
          "type": "uint32"
        },
        {
          "internalType": "uint32",
          "name": "sl",
          "type": "uint32"
        },
        {
          "internalType": "uint32",
          "name": "limit",
          "type": "uint32"
        },
        {
          "internalType": "uint32",
          "name": "created",
          "type": "uint32"
        }
      ],
      "stateMutability": "view",
      "type": "function"
    },
    {
      "inputs": [],
      "name": "vaultFeeP",
      "outputs": [
        {
          "internalType": "uint256",
          "name": "",
          "type": "uint256"
        }
      ],
      "stateMutability": "view",
      "type": "function"
    }
  ],
  "transactionHash": "0xd8e53ec612f28ee099c8a8dd59f7ab21d26dcc483c03a9a08a98131851b327c0",
  "args": [],
  "numDeployments": 1,
  "solcInputHash": "bacb03744b47ee6ec19bffd9492e63c3",
  "bytecode": "0x6080604052603260085560326009556005600a556003600b5534801561002457600080fd5b5061517e806100346000396000f3fe608060405234801561001057600080fd5b50600436106102315760003560e01c80637bb6c11c11610130578063a2ae5262116100b8578063c68078b91161007c578063c68078b91461056e578063c68365df14610581578063c6a8ab0d1461058a578063d3dc75391461059d578063eda1f582146105b057600080fd5b8063a2ae526214610534578063ae8421e11461053d578063b187bd2614610545578063b3f2f4d614610552578063c4493e371461056557600080fd5b80638b263878116100ff5780638b263878146104555780638c00bd5a1461045d5780638f0622271461047057806390b913f2146104925780639bd24d83146104a557600080fd5b80637bb6c11c1461041e5780637da345d6146104275780637e09ae8a1461043a5780638456cb591461044d57600080fd5b80632e905d6e116101be5780634cf088d9116101825780634cf088d9146103d3578063531cc965146103e65780635ad9f993146103f957806365122c611461040c578063676c51641461041557600080fd5b80632e905d6e1461030d578063311581551461032057806337edb1381461033357806346f93a631461034857806348829122146103c057600080fd5b8063178623a711610205578063178623a7146102b55780631a4200e8146102be57806321c86196146102c7578063257dd852146102da578063281b693c146102ed57600080fd5b8062e0fa89146102365780631346b0ff1461024b57806313b065041461027b57806316fff0741461029c575b600080fd5b6102496102443660046143c7565b6105c3565b005b60025461025e906001600160a01b031681565b6040516001600160a01b0390911681526020015b60405180910390f35b61028e610289366004614457565b610641565b604051908152602001610272565b60005461025e906201000090046001600160a01b031681565b61028e60055481565b61028e600b5481565b6102496102d5366004614521565b610939565b6102496102e83660046145cb565b600b55565b61028e6102fb3660046145cb565b60106020526000908152604090205481565b61024961031b3660046145cb565b600855565b61024961032e366004614684565b6109f4565b61033b610bdd565b6040516102729190614797565b61039b6103563660046147ea565b601160209081526000948552604080862082529385528385208152918452828420909152825290205464ffffffffff811690600160281b90046001600160d81b031682565b6040805164ffffffffff90931683526001600160d81b03909116602083015201610272565b6102496103ce366004614832565b610cda565b60045461025e906001600160a01b031681565b600f5461025e906001600160a01b031681565b60015461025e906001600160a01b031681565b61028e600a5481565b61028e600d5481565b61028e60075481565b6102496104353660046145cb565b600a55565b610249610448366004614868565b610ce8565b610249610df0565b610249610e46565b61024961046b3660046145cb565b600955565b600c5461048290610100900460ff1681565b6040519015158152602001610272565b6102496104a0366004614684565b610fa8565b6105046104b33660046147ea565b600e60209081526000948552604080862082529385528385208152918452828420909152825290205463ffffffff80821691600160201b8104821691600160401b8204811691600160601b90041684565b6040805163ffffffff95861681529385166020850152918416918301919091529091166060820152608001610272565b61028e60095481565b6102496112ad565b600c546104829060ff1681565b6102496105603660046145cb565b61130d565b61028e60085481565b61024961057c36600461491b565b611372565b61028e60065481565b6102496105983660046149ba565b611404565b60035461025e906001600160a01b031681565b6102496105be366004614a87565b611862565b6105cb6122a4565b828181146105ec57604051635863f78960e01b815260040160405180910390fd5b60005b818110156106395761063186868381811061060c5761060c614b2a565b9050602002013585858481811061062557610625614b2a565b9050602002013561234e565b6001016105ef565b505050505050565b600080546040516302a0a1cb60e41b815282916201000090046001600160a01b031690632a0a1cb09061067c90889088908890600401614b40565b61014060405180830381865afa15801561069a573d6000803e3d6000fd5b505050506040513d601f19601f820116820180604052508101906106be9190614b77565b905060008060029054906101000a90046001600160a01b03166001600160a01b0316637dc0d1d06040518163ffffffff1660e01b8152600401602060405180830381865afa158015610714573d6000803e3d6000fd5b505050506040513d601f19601f820116820180604052508101906107389190614c09565b6001600160a01b031663e7572230866040518263ffffffff1660e01b815260040161076591815260200190565b6040805180830381865afa158015610781573d6000803e3d6000fd5b505050506040513d601f19601f820116820180604052508101906107a59190614c26565b50905060006107c28360a00151838560c001518660e0015161239f565b905060006107d58485608001518461242e565b506002548551602087015160408089015160c08a015160808b015160e08c01519351637b62877f60e11b81526001600160a01b0396871660048201526024810195909552604485019290925215156064840152608483015260a482015292935060009291169063f6c50efe9060c401602060405180830381865afa158015610861573d6000803e3d6000fd5b505050506040513d601f19601f820116820180604052508101906108859190614c4a565b600254608087015160405163c22ff7bf60e01b815260048101919091526024810185905260006044820181905260648201849052608482018190529293506001600160a01b039091169063c22ff7bf9060a401602060405180830381865afa1580156108f5573d6000803e3d6000fd5b505050506040513d601f19601f820116820180604052508101906109199190614c4a565b905085608001518161092b9190614c79565b9a9950505050505050505050565b610941612548565b80601160006109536020860186614cb8565b6001600160a01b031681526020808201929092526040908101600090812086840135825283528181208683013582529092528120906109986080860160608701614cd5565b60018111156109a9576109a9614cf0565b60018111156109ba576109ba614cf0565b8152602080820192909252604001600020825192909101516001600160d81b0316600160281b0264ffffffffff9092169190911790555050565b6109fc61259b565b610a046125ee565b6000816000015190506000806000610aa060405180610180016040528088602001518152602001876040015181526020018860200151815260200188604001518152602001876080015181526020018660c001511515815260200186602001518152602001866080015181526020018660e001518152602001876060015181526020018661010001518152602001866101200151815250612617565b60a0870182905291945092509050600081600b811115610ac257610ac2614cf0565b03610b41576000610ad7856105dc60006128fc565b50905086600001517f2739a12dffae5d66bd9e126a286078ed771840f2288f0afa5709ce38c33309978260018460a00151888660e001518760800151610b1d9190614d06565b600080604051610b339796959493929190614d99565b60405180910390a250610639565b836020015184600001516001600160a01b031687600001517f1dc3532663e5566091476fb5aba1e514ef733714c83d4feec5723de6f16c326984604051610b889190614df2565b60405180910390a460405162461bcd60e51b815260206004820152601a60248201527f4d61726b6574206f70656e206f726465722063616e63656c656400000000000060448201526064015b60405180910390fd5b60606000610be9612dae565b6001600160a01b031663b81b2b716040518163ffffffff1660e01b8152600401602060405180830381865afa158015610c26573d6000803e3d6000fd5b505050506040513d601f19601f82011682018060405250810190610c4a9190614c4a565b90506000816001600160401b03811115610c6657610c666144a4565b604051908082528060200260200182016040528015610c8f578160200160208202803683370190505b50905060005b82811015610cd3576000818152601060205260409020548251839083908110610cc057610cc0614b2a565b6020908102919091010152600101610c95565b5092915050565b610ce4828261234e565b5050565b610cf0612548565b80600e6000610d026020860186614cb8565b6001600160a01b03168152602080820192909252604090810160009081208684013582528352818120868301358252909252812090610d476080860160608701614cd5565b6001811115610d5857610d58614cf0565b6001811115610d6957610d69614cf0565b8152602080820192909252604090810160002083518154938501519285015160609095015163ffffffff908116600160601b0263ffffffff60601b19968216600160401b029690961667ffffffffffffffff60401b19948216600160201b0267ffffffffffffffff1990961691909216179390931791909116919091179190911790555050565b610df8612e8c565b600c805460ff8082161560ff1990921682179092556040519116151581527f9422424b175dda897495a07b091ef74a3ef715cf6d866fc972954c1c7f459304906020015b60405180910390a1565b600060029054906101000a90046001600160a01b03166001600160a01b031663ad5c46486040518163ffffffff1660e01b8152600401602060405180830381865afa158015610e99573d6000803e3d6000fd5b505050506040513d601f19601f82011682018060405250810190610ebd9190614c09565b6001600160a01b031663095ea7b3600060029054906101000a90046001600160a01b03166001600160a01b031663fbfa77cf6040518163ffffffff1660e01b8152600401602060405180830381865afa158015610f1e573d6000803e3d6000fd5b505050506040513d601f19601f82011682018060405250810190610f429190614c09565b6000196040518363ffffffff1660e01b8152600401610f62929190614e00565b6020604051808303816000875af1158015610f81573d6000803e3d6000fd5b505050506040513d601f19601f82011682018060405250810190610fa59190614e19565b50565b610fb061259b565b610fb86125ee565b805180516020820151604090920151600092610fd49291612edf565b905060008160e00151600014610ffc57602084015115610ff5576000610fff565b6002610fff565b60095b9050600981600b81111561101557611015614cf0565b146111ed576000611033836000015184602001518560400151612f6c565b905060008060029054906101000a90046001600160a01b03166001600160a01b0316633078fff56040518163ffffffff1660e01b8152600401602060405180830381865afa158015611089573d6000803e3d6000fd5b505050506040513d601f19601f820116820180604052508101906110ad9190614c09565b90506110b76142c2565b8460e0015185608001516110cb9190614d06565b6020820152600084600b8111156110e4576110e4614cf0565b0361119d576111058560a0015188602001518760c001518860e0015161239f565b606082015260e0850151602082015161111e9190614e4c565b8082526060820151604085015161113f928892600192909190600080613021565b60c08201819052875160208901518351606085015160405193947f2739a12dffae5d66bd9e126a286078ed771840f2288f0afa5709ce38c333099794611190948c9460009491938593919291614d99565b60405180910390a26111e9565b84600001516001600160a01b03167f4628f3d38f72d5f9e077d3965e10cd3242ff1316aa2bf81f054c0dfb254084068260e001516040516111e091815260200190565b60405180910390a25b5050505b600081600b81111561120157611201614cf0565b146112a7578251602081015181518651604093840151935192936001600160a01b039092169290917f293df767d6749666902026d2f6a2cc4e5f15cdede46402226c42ef4fdf27a17c9161125791908790614e60565b60405180910390a460405162461bcd60e51b815260206004820152601b60248201527f4d61726b657420636c6f7365206f726465722063616e63656c656400000000006044820152606401610bd4565b50505050565b6112b5612e8c565b600c805460ff610100808304821615810261ff001990931692909217928390556040517fc3a6f986261de9467c2838c6df8ef74f9107855159205600c0bc7a14cdfd388893610e3c9390049091161515815260200190565b611315612e8c565b600581111561133757604051635863f78960e01b815260040160405180910390fd5b600d8190556040518181527fa57398db99aea3c2cd0d30f5b4e8f597539206c95b9c5b73e84962d8b565bbeb9060200160405180910390a150565b61137a612e8c565b806113858385614e74565b61138f9190614e74565b6064146113af57604051635863f78960e01b815260040160405180910390fd5b60058390556006829055600781905560408051848152602081018490529081018290527f0caa98ed9a1605da290817d1f67b1b83c63f9229abeca5123df5d90581c495589060600160405180910390a1505050565b600054610100900460ff16158080156114245750600054600160ff909116105b8061143e5750303b15801561143e575060005460ff166001145b6114a15760405162461bcd60e51b815260206004820152602e60248201527f496e697469616c697a61626c653a20636f6e747261637420697320616c72656160448201526d191e481a5b9a5d1a585b1a5e995960921b6064820152608401610bd4565b6000805460ff1916600117905580156114c4576000805461ff0019166101001790555b6001600160a01b038d1615806114e157506001600160a01b038c16155b806114f357506001600160a01b038b16155b8061150557506001600160a01b038a16155b8061151757506001600160a01b038916155b8061152957506001600160a01b038716155b8061154957508361153a8688614e74565b6115449190614e74565b606414155b806115545750600583115b1561157257604051635863f78960e01b815260040160405180910390fd5b8c600060026101000a8154816001600160a01b0302191690836001600160a01b031602179055508b600160006101000a8154816001600160a01b0302191690836001600160a01b031602179055508a600260006101000a8154816001600160a01b0302191690836001600160a01b0316021790555089600360006101000a8154816001600160a01b0302191690836001600160a01b0316021790555088600460006101000a8154816001600160a01b0302191690836001600160a01b0316021790555087600f60006101000a8154816001600160a01b0302191690836001600160a01b03160217905550856005819055508460068190555083600781905550816000015160088190555081602001516009819055508160400151600a819055508160600151600b8190555082600d8190555060008060029054906101000a90046001600160a01b03166001600160a01b031663ad5c46486040518163ffffffff1660e01b8152600401602060405180830381865afa1580156116f8573d6000803e3d6000fd5b505050506040513d601f19601f8201168201806040525081019061171c9190614c09565b6004805460405163095ea7b360e01b81529293506001600160a01b038085169363095ea7b39361175493909216916000199101614e00565b6020604051808303816000875af1158015611773573d6000803e3d6000fd5b505050506040513d601f19601f820116820180604052508101906117979190614e19565b5060405163095ea7b360e01b81526001600160a01b0382169063095ea7b3906117c8908b9060001990600401614e00565b6020604051808303816000875af11580156117e7573d6000803e3d6000fd5b505050506040513d601f19601f8201168201806040525081019061180b9190614e19565b50508015611853576000805461ff0019169055604051600181527f7f26b83ff96e1f2b6a682f133852f6798a09c465da95921460cefb38474024989060200160405180910390a15b50505050505050505050505050565b61186a61259b565b6118726125ee565b600061188b826040015183606001518460800151612edf565b905060008060029054906101000a90046001600160a01b03166001600160a01b0316633078fff56040518163ffffffff1660e01b8152600401602060405180830381865afa1580156118e1573d6000803e3d6000fd5b505050506040513d601f19601f820116820180604052508101906119059190614c09565b90506000846020015160001461192d5760e083015115611926576000611930565b6009611930565b60025b9050600081600b81111561194657611946614cf0565b036121d0576000611964846000015185602001518660400151612f6c565b90506000836001600160a01b03166335b03c176040518163ffffffff1660e01b8152600401602060405180830381865afa1580156119a6573d6000803e3d6000fd5b505050506040513d601f19601f820116820180604052508101906119ca9190614c09565b90506119d46142c2565b8560e0015186608001516119e89190614d06565b6020820181905260e08701516119fd91614e4c565b815260028760a001516004811115611a1757611a17614cf0565b03611ae257600f546040805160e0808201835289516001600160a01b0390811683526020808c0151908401528a8401518385015260a0808c0151606085015260c0808d015115156080860152875191850191909152918b0151918301919091529151633837d79d60e11b8152919092169163706faf3a91611a9b9190600401614e8c565b602060405180830381865afa158015611ab8573d6000803e3d6000fd5b505050506040513d601f19601f82011682018060405250810190611adc9190614c4a565b60a08201525b60048760a001516004811115611afa57611afa614cf0565b03611bc557600f546040805160e0808201835289516001600160a01b0390811683526020808c0151908401528a8401518385015260a0808c0151606085015260c0808d015115156080860152875191850191909152918b0151918301919091529151633269b96360e11b815291909216916364d372c691611b7e9190600401614e8c565b602060405180830381865afa158015611b9b573d6000803e3d6000fd5b505050506040513d601f19601f82011682018060405250810190611bbf9190614c4a565b60a08201525b60008760a001516004811115611bdd57611bdd614cf0565b14611c145760018760a001516004811115611bfa57611bfa614cf0565b14611c09578060a00151611c1b565b856101200151611c1b565b8561010001515b60808201819052602089015114610140820181905215611d485760028760a001516004811115611c4d57611c4d614cf0565b14611d235760048760a001516004811115611c6a57611c6a614cf0565b14611d12576402540be4006064836001600160a01b0316639c8dd2fa89602001516040518263ffffffff1660e01b8152600401611ca991815260200190565b602060405180830381865afa158015611cc6573d6000803e3d6000fd5b505050506040513d601f19601f82011682018060405250810190611cea9190614c4a565b8360200151611cf99190614d06565b611d039190614e4c565b611d0d9190614e4c565b611d3e565b600b548151606491611d0391614d06565b600a548151606491611d3491614d06565b611d3e9190614e4c565b60e0820152611f8a565b6020880151608082015260028760a001516004811115611d6a57611d6a614cf0565b14611f375760048760a001516004811115611d8757611d87614cf0565b14611ef45760008760a001516004811115611da457611da4614cf0565b148015611db657506000866101000151115b8015611de657508560c00151611dd85785610100015188606001511115611de6565b856101000151886060015110155b80611e46575060018760a001516004811115611e0457611e04614cf0565b148015611e1657506000866101200151115b8015611e4657508560c00151611e385785610120015188606001511015611e46565b856101200151886060015111155b611e51576000611f84565b6402540be4006064836001600160a01b0316639c8dd2fa89602001516040518263ffffffff1660e01b8152600401611e8b91815260200190565b602060405180830381865afa158015611ea8573d6000803e3d6000fd5b505050506040513d601f19601f82011682018060405250810190611ecc9190614c4a565b8360200151611edb9190614d06565b611ee59190614e4c565b611eef9190614e4c565b611f84565b8560c00151611f0e578060a0015188606001511015611f1b565b8060a00151886060015111155b611f26576000611f84565b600b548151606491611ee591614d06565b8560c00151611f51578060a0015188606001511015611f5e565b8060a00151886060015111155b611f69576000611f84565b600a548151606491611f7a91614d06565b611f849190614e4c565b60e08201525b60e081015115611f9b576000611f9e565b600b5b9350600084600b811115611fb457611fb4614cf0565b036121cc57611fd58660a0015182608001518860c001518960e0015161239f565b606082015260048760a001516004811115611ff257611ff2614cf0565b036120235761201e868260600151836000015186604001518560e001518660e001518e602001516133fd565b612108565b60608101518151604085015161210892899260009260028d60a00151600481111561205057612050614cf0565b146120f8576402540be4006064896001600160a01b031663836a341a8f602001516040518263ffffffff1660e01b815260040161208f91815260200190565b602060405180830381865afa1580156120ac573d6000803e3d6000fd5b505050506040513d601f19601f820116820180604052508101906120d09190614c4a565b89602001516120df9190614d06565b6120e99190614e4c565b6120f39190614e4c565b6120fe565b8660e001515b8760e00151613021565b60c0820152855160e08201516040519081526001600160a01b03909116907fcada75418f444febbe725c87360b063440c54e00e82d578010de1ed009d756c59060200160405180910390a286600001516001600160a01b031688600001517f1ab0771256522e5114b583b488c490436d6f8fe02b1e1c9697443e8704c4e8408960800151898b60a0015186608001516000886000015189606001518a60c001518b61014001516040516121c399989796959493929190614ef0565b60405180910390a35b5050505b600081600b8111156121e4576121e4614cf0565b14612237578351855160a08601516040516001600160a01b03909316927fe9681b5336d843735c62e93114e5a0f45912a84ae83fa3f3ed80ca5ad933dfc39161222e918690614f4d565b60405180910390a35b600054855160405163201d8bdb60e01b81526004810191909152620100009091046001600160a01b03169063201d8bdb90602401600060405180830381600087803b15801561228557600080fd5b505af1158015612299573d6000803e3d6000fd5b505050505050505050565b600260009054906101000a90046001600160a01b03166001600160a01b031663481c6a756040518163ffffffff1660e01b8152600401602060405180830381865afa1580156122f7573d6000803e3d6000fd5b505050506040513d601f19601f8201168201806040525081019061231b9190614c09565b6001600160a01b0316336001600160a01b03161461234c57604051631dd2188d60e31b815260040160405180910390fd5b565b600082815260106020526040908190208290555182907f95924bc10431f9a625a06fe5a27d55f4348510b2da42a18fe3bf2a6f2c4eab67906123939084815260200190565b60405180910390a25050565b6000806123b36402540be400610384614f68565b9050600086116123c4576000612413565b85836402540be400866123e0576123db888a614c79565b6123ea565b6123ea8989614c79565b6123f5906064614f68565b6123ff9190614f68565b6124099190614f68565b6124139190614fed565b91508082136124225781612424565b805b9695505050505050565b600f546040805160c0808201835286516001600160a01b03908116835260208089015190840190815288850151848601908152928901511515606085019081526080850189815260e08b015160a087019081529651632d28a81760e01b8152955184166004870152915160248601529251604485015291511515606484015290516084830152915160a482015260009283921690632d28a8179060c401602060405180830381865afa1580156124e8573d6000803e3d6000fd5b505050506040513d601f19601f8201168201806040525081019061250c9190614c4a565b9050836402540be400612520836064614d06565b61252a9190614d06565b6125349190614e4c565b61253e9084614c79565b9150935093915050565b600060029054906101000a90046001600160a01b03166001600160a01b031663ec44acf26040518163ffffffff1660e01b8152600401602060405180830381865afa1580156122f7573d6000803e3d6000fd5b600060029054906101000a90046001600160a01b03166001600160a01b0316633078fff56040518163ffffffff1660e01b8152600401602060405180830381865afa1580156122f7573d6000803e3d6000fd5b600c54610100900460ff161561234c57604051631dd2188d60e31b815260040160405180910390fd5b60025481516060830151608084015160a0850151600094859485946001600160a01b0390921693637ea95f329361264f939190613ada565b8660c001518760a001518861010001518960e0015161266e9190614d06565b6040516001600160e01b031960e087901b168152600481019490945260248401929092521515604483015260648201526084016040805180830381865afa1580156126bd573d6000803e3d6000fd5b505050506040513d601f19601f820116820180604052508101906126e19190614c26565b610120860151919450925060009061270957606485602001516127049190614e4c565b61273a565b6402540be400606486610120015187602001516127269190614d06565b6127309190614e4c565b61273a9190614e4c565b600c5490915060ff166128f0576040850151156128e9578460a001516127715780856020015161276a919061501b565b8310612784565b8085602001516127819190614e74565b83115b6128e25760008561014001511180156127b957508460a001516127af578461014001518311156127b9565b8461014001518310155b6128db5760008561016001511180156127ee57508460a001516127e4578461016001518310156127ee565b8461016001518311155b6128d45761280f8560c001518660a001518760e00151886101000151613b4a565b156128cd57600260009054906101000a90046001600160a01b03166001600160a01b03166380f6cfc26040518163ffffffff1660e01b8152600401602060405180830381865afa158015612867573d6000803e3d6000fd5b505050506040513d601f19601f8201168201806040525081019061288b9190614c4a565b61010086015161289b9086614d06565b116128c6576128b38560c00151866101000151613cf3565b156128bf5760006128f3565b60086128f3565b60076128f3565b60066128f3565b60056128f3565b60046128f3565b60036128f3565b60026128f3565b60015b93959294505050565b61290461431e565b600080600060029054906101000a90046001600160a01b03166001600160a01b0316633078fff56040518163ffffffff1660e01b8152600401602060405180830381865afa15801561295a573d6000803e3d6000fd5b505050506040513d601f19601f8201168201806040525081019061297e9190614c09565b90506000816001600160a01b03166335b03c176040518163ffffffff1660e01b8152600401602060405180830381865afa1580156129c0573d6000803e3d6000fd5b505050506040513d601f19601f820116820180604052508101906129e49190614c09565b90506129ee6142c2565b8760e001518860800151612a029190614d06565b6020828101919091526000548951918a015160405163292c161760e01b8152620100009092046001600160a01b03169263292c161792612a459290600401614e00565b602060405180830381865afa158015612a62573d6000803e3d6000fd5b505050506040513d601f19601f82011682018060405250810190612a869190614c4a565b886040018181525050612aac8860a001518960e001518a61010001518b60c00151613d95565b88610100018181525050612ad38860a001518960e001518a61012001518b60c00151613e28565b610120890152600254885160208a01516040808c015160c08d01519151630735e1cd60e11b81526001600160a01b0390951694630e6bc39a94612b1d949093909291600401615032565b600060405180830381600087803b158015612b3757600080fd5b505af1158015612b4b573d6000803e3d6000fd5b505050506020880151608089015160c08a01516040516310787e2f60e11b81526004810193909352602483019190915215156044820152600160648201526001600160a01b038316906320f0fc5e90608401600060405180830381600087803b158015612bb757600080fd5b505af1158015612bcb573d6000803e3d6000fd5b5050600f548a5160208c015160408d015160e08e015160808f01516001600160a01b03909516965063ce67edfb9550929391929091612c0a9190614d06565b60018e60c001516040518763ffffffff1660e01b8152600401612c329695949392919061505a565b600060405180830381600087803b158015612c4c57600080fd5b505af1158015612c60573d6000803e3d6000fd5b50505050600060029054906101000a90046001600160a01b03166001600160a01b031663c311ab31896040518060c0016040528060008152602001856040015181526020018c60e001518d60800151612cb99190614d06565b81526020016000815260200160008152602001600015158152506040518363ffffffff1660e01b8152600401612cf0929190615091565b600060405180830381600087803b158015612d0a57600080fd5b505af1158015612d1e573d6000803e3d6000fd5b505089516001600160a01b03166000908152600e60209081526040808320828e015184528252808320818e015184528252808320838052909152812092509050612d66613ea2565b825467ffffffffffffffff191663ffffffff91909116908117600160201b82021763ffffffff60601b1916600160601b91909102179091555060400151969795505050505050565b60008060029054906101000a90046001600160a01b03166001600160a01b0316633078fff56040518163ffffffff1660e01b8152600401602060405180830381865afa158015612e02573d6000803e3d6000fd5b505050506040513d601f19601f82011682018060405250810190612e269190614c09565b6001600160a01b03166335b03c176040518163ffffffff1660e01b8152600401602060405180830381865afa158015612e63573d6000803e3d6000fd5b505050506040513d601f19601f82011682018060405250810190612e879190614c09565b905090565b600060029054906101000a90046001600160a01b03166001600160a01b03166312d43a516040518163ffffffff1660e01b8152600401602060405180830381865afa1580156122f7573d6000803e3d6000fd5b612ee761431e565b6000546040516302a0a1cb60e41b8152620100009091046001600160a01b031690632a0a1cb090612f2090879087908790600401614b40565b61014060405180830381865afa158015612f3e573d6000803e3d6000fd5b505050506040513d601f19601f82011682018060405250810190612f629190614b77565b90505b9392505050565b612fa76040518060c0016040528060008152602001600081526020016000815260200160008152602001600081526020016000151581525090565b600054604051637728fb1b60e11b8152620100009091046001600160a01b03169063ee51f63690612fe090879087908790600401614b40565b60c060405180830381865afa158015612ffd573d6000803e3d6000fd5b505050506040513d601f19601f82011682018060405250810190612f6291906150e8565b600080600060029054906101000a90046001600160a01b03166001600160a01b031663fbfa77cf6040518163ffffffff1660e01b8152600401602060405180830381865afa158015613077573d6000803e3d6000fd5b505050506040513d601f19601f8201168201806040525081019061309b9190614c09565b90506130b28987896130ad8789614e74565b613f23565b50600f548a5160208c01516040808e015160c08f0151915163ce67edfb60e01b81529597506001600160a01b039094169463ce67edfb946130fe94939290918c9160009160040161505a565b600060405180830381600087803b15801561311857600080fd5b505af115801561312c573d6000803e3d6000fd5b50505050613138612dae565b6001600160a01b03166320f0fc5e8a602001518b60e001518861315b9190614e4c565b60c08d01516040516001600160e01b031960e086901b168152600481019390935260248301919091521515604482015260006064820152608401600060405180830381600087803b1580156131af57600080fd5b505af11580156131c3573d6000803e3d6000fd5b50506000548b5160208d01516040808f015190516390d112b960e01b8152620100009094046001600160a01b031695506390d112b9945061320693600401614b40565b600060405180830381600087803b15801561322057600080fd5b505af1158015613234573d6000803e3d6000fd5b5050505060808901511561338b5761324a6142c2565b886132aa5760646008548561325f9190614d06565b6132699190614e4c565b61010082018190528a5161327d9190614046565b60646009548561328d9190614d06565b6132979190614e4c565b61012082018190526132aa903390614128565b6000816101000151826101200151896132c3919061501b565b6132cd919061501b565b905080841115613364576001600160a01b03831663e66a6e3b6132f0838761501b565b8d5160405160e084901b6001600160e01b031916815260048101929092526001600160a01b03166024820152604401600060405180830381600087803b15801561333957600080fd5b505af115801561334d573d6000803e3d6000fd5b5050505061335f8b6000015182614128565b613384565b613378613371858361501b565b8c51614046565b8a516133849085614128565b50506133f1565b885160405163e66a6e3b60e01b8152600481018490526001600160a01b0391821660248201529082169063e66a6e3b90604401600060405180830381600087803b1580156133d857600080fd5b505af11580156133ec573d6000803e3d6000fd5b505050505b50979650505050505050565b600061340c8887896000613f23565b50600f54895160208b01516040808d015160c08e0151915163ce67edfb60e01b81529596506001600160a01b039094169463ce67edfb9461345894939290918c9160019160040161505a565b600060405180830381600087803b15801561347257600080fd5b505af1158015613486573d6000803e3d6000fd5b50505050613492612dae565b6001600160a01b03166320f0fc5e8960200151838b60e00151896134b69190614e4c565b6134c0919061501b565b60c08c01516040516001600160e01b031960e086901b168152600481019390935260248301919091521515604482015260006064820152608401600060405180830381600087803b15801561351457600080fd5b505af1158015613528573d6000803e3d6000fd5b50505050600060646008548561353e9190614d06565b6135489190614e4c565b9050613558818a60000151614046565b600060646009548661356a9190614d06565b6135749190614e4c565b90506135803382614128565b6000548a5160208c01516040808e015190516390d112b960e01b8152620100009094046001600160a01b0316936390d112b9936135c39390929091600401614b40565b600060405180830381600087803b1580156135dd57600080fd5b505af11580156135f1573d6000803e3d6000fd5b505050506135fd61431e565b8a516001600160a01b03908116825260e0808d0151908301526020808d0180519184019190915260c0808e01511515908401526080830186905260a083018790526000548d51915160405163292c161760e01b8152620100009092049093169263292c16179261367292909190600401614e00565b602060405180830381865afa15801561368f573d6000803e3d6000fd5b505050506040513d601f19601f820116820180604052508101906136b39190614c4a565b60408201526101008b01516136c95760006136e7565b6136e78b60a001518c6101000151878e60c001518f60e0015161416d565b6101008201526101208b01516136fe57600061371c565b61371c8b60a001518c6101200151878e60c001518f60e00151614220565b8161012001818152505060008060029054906101000a90046001600160a01b03166001600160a01b0316633078fff56040518163ffffffff1660e01b8152600401602060405180830381865afa15801561377a573d6000803e3d6000fd5b505050506040513d601f19601f8201168201806040525081019061379e9190614c09565b90506000816001600160a01b03166335b03c176040518163ffffffff1660e01b8152600401602060405180830381865afa1580156137e0573d6000803e3d6000fd5b505050506040513d601f19601f820116820180604052508101906138049190614c09565b6002548451602086015160408088015160c08901519151630735e1cd60e11b81529596506001600160a01b0390941694630e6bc39a9461384a9493929091600401615032565b600060405180830381600087803b15801561386457600080fd5b505af1158015613878573d6000803e3d6000fd5b505050506020830151608084015160c08501516040516310787e2f60e11b81526004810193909352602483019190915215156044820152600160648201526001600160a01b038216906320f0fc5e90608401600060405180830381600087803b1580156138e457600080fd5b505af11580156138f8573d6000803e3d6000fd5b5050600f5485516020870151604088015160e089015160808a01516001600160a01b03909516965063ce67edfb95509293919290916139379190614d06565b60018960c001516040518763ffffffff1660e01b815260040161395f9695949392919061505a565b600060405180830381600087803b15801561397957600080fd5b505af115801561398d573d6000803e3d6000fd5b50505050600060029054906101000a90046001600160a01b03166001600160a01b031663c311ab31846040518060c0016040528060008152602001600081526020018760e0015188608001516139e39190614d06565b81526020016000815260200160008152602001600015158152506040518363ffffffff1660e01b8152600401613a1a929190615091565b600060405180830381600087803b158015613a3457600080fd5b505af1158015613a48573d6000803e3d6000fd5b505084516001600160a01b03166000908152600e6020908152604080832082890151845282528083208189015184528252808320838052909152812092509050613a90613ea2565b825467ffffffffffffffff191663ffffffff91909116908117600160201b82021763ffffffff60601b1916600160601b919091021790915550949c9b505050505050505050505050565b6000806402540be400606480613af08789614d06565b613afa9190614e4c565b613b04908861501b565b613b0e9089614d06565b613b189190614e4c565b613b229190614e4c565b905082613b3857613b33818761501b565b612424565b6124248187614e74565b949350505050565b600080613b578385614d06565b600f54604051632e53fe8760e21b8152600481018990529192506001600160a01b03169063b94ffa1c90602401602060405180830381865afa158015613ba1573d6000803e3d6000fd5b505050506040513d601f19601f82011682018060405250810190613bc59190614c4a565b613bd3906305f5e100614d06565b60005482906201000090046001600160a01b03166377a9fdcf8989613bf9576001613bfc565b60005b6040516001600160e01b031960e085901b168152600481019290925260ff166024820152604401602060405180830381865afa158015613c40573d6000803e3d6000fd5b505050506040513d601f19601f82011682018060405250810190613c649190614c4a565b613c6e9190614e74565b111580156124245750600f5460405163d627450560e01b8152600481018890528615156024820152604481018390526001600160a01b039091169063d627450590606401602060405180830381865afa158015613ccf573d6000803e3d6000fd5b505050506040513d601f19601f820116820180604052508101906124249190614e19565b6000828152601060205260408120548015613d115780831115613d8b565b613d19612dae565b6001600160a01b031663281b693c856040518263ffffffff1660e01b8152600401613d4691815260200190565b602060405180830381865afa158015613d63573d6000803e3d6000fd5b505050506040513d601f19601f82011682018060405250810190613d879190614c4a565b8311155b9150505b92915050565b6000821580613dbe5750613db06402540be400610384614f68565b613dbc8685858861239f565b145b15613e1f576000606485613dd461038489614d06565b613dde9190614e4c565b613de89190614e4c565b905082613e0d5785811115613dfe576000613e17565b613e08818761501b565b613e17565b613e178187614e74565b915050613b42565b50909392505050565b60008083118015613e5e5750613e446402540be400604b614f68565b613e5090600019614f68565b613e5c8685858861239f565b125b15613e1f576000606485613e73604b89614d06565b613e7d9190614e4c565b613e879190614e4c565b905082613e9857613e088187614e74565b613e17818761501b565b600061a4b1461480613eb6575062066eed46145b15613f1e5760646001600160a01b031663a3b1b31d6040518163ffffffff1660e01b8152600401602060405180830381865afa158015613efa573d6000803e3d6000fd5b505050506040513d601f19601f82011682018060405250810190612e879190614c4a565b504390565b6000806000613f3387878761242e565b600254895160208b01516040808d015160c08e015160e08f01519251636ceaca6760e01b81526001600160a01b0395861660048201526024810194909452604484019190915215156064830152608482018c905260a482015260c4810185905260e481018990529295509293509190911690636ceaca6790610104016020604051808303816000875af1158015613fce573d6000803e3d6000fd5b505050506040513d601f19601f82011682018060405250810190613ff29190614c4a565b875160408051838152602081018690529295506001600160a01b03909116917fe7d34775bf6fd7b34e703a903ef79ab16166ebdffce96a66f4d2f84b6263bb29910160405180910390a25094509492505050565b6140503083614128565b600060029054906101000a90046001600160a01b03166001600160a01b031663fbfa77cf6040518163ffffffff1660e01b8152600401602060405180830381865afa1580156140a3573d6000803e3d6000fd5b505050506040513d601f19601f820116820180604052508101906140c79190614c09565b60405163a481c14b60e01b8152600481018490526001600160a01b038381166024830152919091169063a481c14b906044015b600060405180830381600087803b15801561411457600080fd5b505af1158015610639573d6000803e3d6000fd5b600054604051638a238ae560e01b81526001600160a01b0362010000909204821660048201819052918416602482015260448101839052638a238ae5906064016140fa565b60008086836402540be4008661418c57614187898b614c79565b614196565b6141968a8a614c79565b6141a1906064614f68565b6141ab9190614f68565b6141b59190614f68565b6141bf9190614fed565b90506000836402540be40060646141d68986614f68565b6141e09190614fed565b6141ea9190614fed565b6141f49190614fed565b90508461420a57614205818761501b565b614214565b6142148187614e74565b98975050505050505050565b60008086836402540be4008661423f5761423a898b614c79565b614249565b6142498a8a614c79565b614254906064614f68565b61425e9190614f68565b6142689190614f68565b6142729190614fed565b90506000836402540be40060646142898986614f68565b6142939190614fed565b61429d9190614fed565b6142a79190614fed565b9050846142b8576142058187614e74565b614214818761501b565b604051806101600160405280600081526020016000815260200160008152602001600081526020016000815260200160008152602001600081526020016000815260200160008152602001600081526020016000151581525090565b60405180610140016040528060006001600160a01b0316815260200160008152602001600081526020016000815260200160008152602001600081526020016000151581526020016000815260200160008152602001600081525090565b60008083601f84011261438e57600080fd5b5081356001600160401b038111156143a557600080fd5b6020830191508360208260051b85010111156143c057600080fd5b9250929050565b600080600080604085870312156143dd57600080fd5b84356001600160401b03808211156143f457600080fd5b6144008883890161437c565b9096509450602087013591508082111561441957600080fd5b506144268782880161437c565b95989497509550505050565b6001600160a01b0381168114610fa557600080fd5b803561445281614432565b919050565b60008060006060848603121561446c57600080fd5b833561447781614432565b95602085013595506040909401359392505050565b60006080828403121561449e57600080fd5b50919050565b634e487b7160e01b600052604160045260246000fd5b60405160c081016001600160401b03811182821017156144ea57634e487b7160e01b600052604160045260246000fd5b60405290565b60405161014081016001600160401b03811182821017156144ea57634e487b7160e01b600052604160045260246000fd5b60008082840360c081121561453557600080fd5b61453f858561448c565b92506040607f198201121561455357600080fd5b50604051604081018181106001600160401b038211171561458457634e487b7160e01b600052604160045260246000fd5b604052608084013564ffffffffff8116811461459f57600080fd5b815260a08401356001600160d81b03811681146145bb57600080fd5b6020820152919491935090915050565b6000602082840312156145dd57600080fd5b5035919050565b600060c082840312156145f657600080fd5b60405160c081018181106001600160401b038211171561462657634e487b7160e01b600052604160045260246000fd5b8060405250809150823581526020830135602082015260408301356040820152606083013560608201526080830135608082015260a083013560a08201525092915050565b8015158114610fa557600080fd5b80356144528161466b565b6000808284036102a081121561469957600080fd5b6146a385856145e4565b925060bf19016101e0808212156146b957600080fd5b6146c16144ba565b610140808412156146d157600080fd5b6146d96144f0565b93506146e760c08801614447565b845260e0870135602085015261010080880135604086015261012080890135606087015282890135608087015261016089013560a087015261472c6101808a01614679565b60c08701526101a089013560e08701526101c08901359186019190915292870135928401929092529182525061020084013560208201526102208401356040820152610240840135606082015261026084013560808201526102809093013560a08401525092909150565b6020808252825182820181905260009190848201906040850190845b818110156147cf578351835292840192918401916001016147b3565b50909695505050505050565b80356002811061445257600080fd5b6000806000806080858703121561480057600080fd5b843561480b81614432565b93506020850135925060408501359150614827606086016147db565b905092959194509250565b6000806040838503121561484557600080fd5b50508035926020909101359150565b803563ffffffff8116811461445257600080fd5b60008082840361010081121561487d57600080fd5b614887858561448c565b92506080607f198201121561489b57600080fd5b50604051608081018181106001600160401b03821117156148cc57634e487b7160e01b600052604160045260246000fd5b6040526148db60808501614854565b81526148e960a08501614854565b60208201526148fa60c08501614854565b604082015261490b60e08501614854565b6060820152809150509250929050565b60008060006060848603121561493057600080fd5b505081359360208301359350604090920135919050565b60006080828403121561495957600080fd5b604051608081018181106001600160401b038211171561498957634e487b7160e01b600052604160045260246000fd5b8060405250809150823581526020830135602082015260408301356040820152606083013560608201525092915050565b6000806000806000806000806000806000806101e08d8f0312156149dd57600080fd5b8c356149e881614432565b9b5060208d01356149f881614432565b9a5060408d0135614a0881614432565b995060608d0135614a1881614432565b985060808d0135614a2881614432565b975060a08d0135614a3881614432565b9650614a4660c08e01614447565b955060e08d013594506101008d013593506101208d013592506101408d01359150614a758e6101608f01614947565b90509295989b509295989b509295989b565b600080828403610180811215614a9c57600080fd5b614aa685856145e4565b925060c060bf1982011215614aba57600080fd5b50614ac36144ba565b60c0840135614ad181614432565b815260e08401356020820152610100840135614aec81614432565b60408201526101208401356060820152610140840135608082015261016084013560058110614b1a57600080fd5b60a0820152919491935090915050565b634e487b7160e01b600052603260045260246000fd5b6001600160a01b039390931683526020830191909152604082015260600190565b805161445281614432565b80516144528161466b565b60006101408284031215614b8a57600080fd5b614b926144f0565b614b9b83614b61565b81526020830151602082015260408301516040820152606083015160608201526080830151608082015260a083015160a0820152614bdb60c08401614b6c565b60c082015260e083810151908201526101008084015190820152610120928301519281019290925250919050565b600060208284031215614c1b57600080fd5b8151612f6581614432565b60008060408385031215614c3957600080fd5b505080516020909101519092909150565b600060208284031215614c5c57600080fd5b5051919050565b634e487b7160e01b600052601160045260246000fd5b60008083128015600160ff1b850184121615614c9757614c97614c63565b6001600160ff1b0384018313811615614cb257614cb2614c63565b50500390565b600060208284031215614cca57600080fd5b8135612f6581614432565b600060208284031215614ce757600080fd5b612f65826147db565b634e487b7160e01b600052602160045260246000fd5b6000816000190483118215151615614d2057614d20614c63565b500290565b80516001600160a01b031682526020810151602083015260408101516040830152606081015160608301526080810151608083015260a081015160a083015260c0810151614d7760c084018215159052565b5060e08181015190830152610100808201519083015261012090810151910152565b6102008101614da8828a614d25565b9615156101408201526101608101959095526101808501939093526101a08401919091526101c08301526101e090910152919050565b600c8110614dee57614dee614cf0565b9052565b60208101613d8f8284614dde565b6001600160a01b03929092168252602082015260400190565b600060208284031215614e2b57600080fd5b8151612f658161466b565b634e487b7160e01b600052601260045260246000fd5b600082614e5b57614e5b614e36565b500490565b82815260408101612f656020830184614dde565b60008219821115614e8757614e87614c63565b500190565b81516001600160a01b0316815260208083015190820152604080830151908201526060808301519082015260808083015115159082015260a0828101519082015260c0918201519181019190915260e00190565b60058110614dee57614dee614cf0565b8981526102408101614f05602083018b614d25565b614f1361016083018a614ee0565b87610180830152866101a0830152856101c0830152846101e0830152836102008301528215156102208301529a9950505050505050505050565b60408101614f5b8285614ee0565b612f656020830184614dde565b60006001600160ff1b0381841382841380821686840486111615614f8e57614f8e614c63565b600160ff1b6000871282811687830589121615614fad57614fad614c63565b60008712925087820587128484161615614fc957614fc9614c63565b87850587128184161615614fdf57614fdf614c63565b505050929093029392505050565b600082614ffc57614ffc614e36565b600160ff1b82146000198414161561501657615016614c63565b500590565b60008282101561502d5761502d614c63565b500390565b6001600160a01b03949094168452602084019290925260408301521515606082015260800190565b6001600160a01b0396909616865260208601949094526040850192909252606084015215156080830152151560a082015260c00190565b61020081016150a08285614d25565b82516101408301526020830151610160830152604083015161018083015260608301516101a083015260808301516101c083015260a083015115156101e08301529392505050565b600060c082840312156150fa57600080fd5b6151026144ba565b825181526020830151602082015260408301516040820152606083015160608201526080830151608082015260a083015161513c8161466b565b60a0820152939250505056fea26469706673582212203c8d684571ddcbc8dcb18ae20b1895db33f0019e5b268140f75df5263f1cecf464736f6c634300080f0033",
  "devdoc": {
    "kind": "dev",
    "methods": {},
    "version": 1
  },
  "userdoc": {
    "kind": "user",
    "methods": {},
    "version": 1
  },
  "storageLayout": {
    "storage": [
      {
        "astId": 6,
        "contract": "contracts/TradingCallbacks.sol:TradingCallbacks",
        "label": "_initialized",
        "offset": 0,
        "slot": "0",
        "type": "t_uint8"
      },
      {
        "astId": 9,
        "contract": "contracts/TradingCallbacks.sol:TradingCallbacks",
        "label": "_initializing",
        "offset": 1,
        "slot": "0",
        "type": "t_bool"
      },
      {
        "astId": 3061,
        "contract": "contracts/TradingCallbacks.sol:TradingCallbacks",
        "label": "storageT",
        "offset": 2,
        "slot": "0",
        "type": "t_contract(StorageInterface)8526"
      },
      {
        "astId": 3064,
        "contract": "contracts/TradingCallbacks.sol:TradingCallbacks",
        "label": "nftRewards",
        "offset": 0,
        "slot": "1",
        "type": "t_contract(NftRewardsInterfaceV6_3_1)7603"
      },
      {
        "astId": 3067,
        "contract": "contracts/TradingCallbacks.sol:TradingCallbacks",
        "label": "pairInfos",
        "offset": 0,
        "slot": "2",
        "type": "t_contract(PairInfosInterface)7815"
      },
      {
        "astId": 3070,
        "contract": "contracts/TradingCallbacks.sol:TradingCallbacks",
        "label": "referrals",
        "offset": 0,
        "slot": "3",
        "type": "t_contract(ReferralsInterface)8013"
      },
      {
        "astId": 3073,
        "contract": "contracts/TradingCallbacks.sol:TradingCallbacks",
        "label": "staking",
        "offset": 0,
        "slot": "4",
        "type": "t_contract(StakingInterface)8021"
      },
      {
        "astId": 3087,
        "contract": "contracts/TradingCallbacks.sol:TradingCallbacks",
        "label": "WETHVaultFeeP",
        "offset": 0,
        "slot": "5",
        "type": "t_uint256"
      },
      {
        "astId": 3089,
        "contract": "contracts/TradingCallbacks.sol:TradingCallbacks",
        "label": "lpFeeP",
        "offset": 0,
        "slot": "6",
        "type": "t_uint256"
      },
      {
        "astId": 3091,
        "contract": "contracts/TradingCallbacks.sol:TradingCallbacks",
        "label": "sssFeeP",
        "offset": 0,
        "slot": "7",
        "type": "t_uint256"
      },
      {
        "astId": 3094,
        "contract": "contracts/TradingCallbacks.sol:TradingCallbacks",
        "label": "vaultFeeP",
        "offset": 0,
        "slot": "8",
        "type": "t_uint256"
      },
      {
        "astId": 3097,
        "contract": "contracts/TradingCallbacks.sol:TradingCallbacks",
        "label": "liquidatorFeeP",
        "offset": 0,
        "slot": "9",
        "type": "t_uint256"
      },
      {
        "astId": 3100,
        "contract": "contracts/TradingCallbacks.sol:TradingCallbacks",
        "label": "liquidationFeeP",
        "offset": 0,
        "slot": "10",
        "type": "t_uint256"
      },
      {
        "astId": 3103,
        "contract": "contracts/TradingCallbacks.sol:TradingCallbacks",
        "label": "parLiquidationFeeP",
        "offset": 0,
        "slot": "11",
        "type": "t_uint256"
      },
      {
        "astId": 3105,
        "contract": "contracts/TradingCallbacks.sol:TradingCallbacks",
        "label": "isPaused",
        "offset": 0,
        "slot": "12",
        "type": "t_bool"
      },
      {
        "astId": 3107,
        "contract": "contracts/TradingCallbacks.sol:TradingCallbacks",
        "label": "isDone",
        "offset": 1,
        "slot": "12",
        "type": "t_bool"
      },
      {
        "astId": 3109,
        "contract": "contracts/TradingCallbacks.sol:TradingCallbacks",
        "label": "canExecuteTimeout",
        "offset": 0,
        "slot": "13",
        "type": "t_uint256"
      },
      {
        "astId": 3121,
        "contract": "contracts/TradingCallbacks.sol:TradingCallbacks",
        "label": "tradeLastUpdated",
        "offset": 0,
        "slot": "14",
        "type": "t_mapping(t_address,t_mapping(t_uint256,t_mapping(t_uint256,t_mapping(t_enum(TradeType)3272,t_struct(LastUpdated)3230_storage))))"
      },
      {
        "astId": 3124,
        "contract": "contracts/TradingCallbacks.sol:TradingCallbacks",
        "label": "borrowingFees",
        "offset": 0,
        "slot": "15",
        "type": "t_contract(BorrowingFeesInterface)7213"
      },
      {
        "astId": 3128,
        "contract": "contracts/TradingCallbacks.sol:TradingCallbacks",
        "label": "pairMaxLeverage",
        "offset": 0,
        "slot": "16",
        "type": "t_mapping(t_uint256,t_uint256)"
      },
      {
        "astId": 3140,
        "contract": "contracts/TradingCallbacks.sol:TradingCallbacks",
        "label": "tradeData",
        "offset": 0,
        "slot": "17",
        "type": "t_mapping(t_address,t_mapping(t_uint256,t_mapping(t_uint256,t_mapping(t_enum(TradeType)3272,t_struct(TradeData)3235_storage))))"
      }
    ],
    "types": {
      "t_address": {
        "encoding": "inplace",
        "label": "address",
        "numberOfBytes": "20"
      },
      "t_bool": {
        "encoding": "inplace",
        "label": "bool",
        "numberOfBytes": "1"
      },
      "t_contract(BorrowingFeesInterface)7213": {
        "encoding": "inplace",
        "label": "contract BorrowingFeesInterface",
        "numberOfBytes": "20"
      },
      "t_contract(NftRewardsInterfaceV6_3_1)7603": {
        "encoding": "inplace",
        "label": "contract NftRewardsInterfaceV6_3_1",
        "numberOfBytes": "20"
      },
      "t_contract(PairInfosInterface)7815": {
        "encoding": "inplace",
        "label": "contract PairInfosInterface",
        "numberOfBytes": "20"
      },
      "t_contract(ReferralsInterface)8013": {
        "encoding": "inplace",
        "label": "contract ReferralsInterface",
        "numberOfBytes": "20"
      },
      "t_contract(StakingInterface)8021": {
        "encoding": "inplace",
        "label": "contract StakingInterface",
        "numberOfBytes": "20"
      },
      "t_contract(StorageInterface)8526": {
        "encoding": "inplace",
        "label": "contract StorageInterface",
        "numberOfBytes": "20"
      },
      "t_enum(TradeType)3272": {
        "encoding": "inplace",
        "label": "enum TradingCallbacks.TradeType",
        "numberOfBytes": "1"
      },
      "t_mapping(t_address,t_mapping(t_uint256,t_mapping(t_uint256,t_mapping(t_enum(TradeType)3272,t_struct(LastUpdated)3230_storage))))": {
        "encoding": "mapping",
        "key": "t_address",
        "label": "mapping(address => mapping(uint256 => mapping(uint256 => mapping(enum TradingCallbacks.TradeType => struct TradingCallbacks.LastUpdated))))",
        "numberOfBytes": "32",
        "value": "t_mapping(t_uint256,t_mapping(t_uint256,t_mapping(t_enum(TradeType)3272,t_struct(LastUpdated)3230_storage)))"
      },
      "t_mapping(t_address,t_mapping(t_uint256,t_mapping(t_uint256,t_mapping(t_enum(TradeType)3272,t_struct(TradeData)3235_storage))))": {
        "encoding": "mapping",
        "key": "t_address",
        "label": "mapping(address => mapping(uint256 => mapping(uint256 => mapping(enum TradingCallbacks.TradeType => struct TradingCallbacks.TradeData))))",
        "numberOfBytes": "32",
        "value": "t_mapping(t_uint256,t_mapping(t_uint256,t_mapping(t_enum(TradeType)3272,t_struct(TradeData)3235_storage)))"
      },
      "t_mapping(t_enum(TradeType)3272,t_struct(LastUpdated)3230_storage)": {
        "encoding": "mapping",
        "key": "t_enum(TradeType)3272",
        "label": "mapping(enum TradingCallbacks.TradeType => struct TradingCallbacks.LastUpdated)",
        "numberOfBytes": "32",
        "value": "t_struct(LastUpdated)3230_storage"
      },
      "t_mapping(t_enum(TradeType)3272,t_struct(TradeData)3235_storage)": {
        "encoding": "mapping",
        "key": "t_enum(TradeType)3272",
        "label": "mapping(enum TradingCallbacks.TradeType => struct TradingCallbacks.TradeData)",
        "numberOfBytes": "32",
        "value": "t_struct(TradeData)3235_storage"
      },
      "t_mapping(t_uint256,t_mapping(t_enum(TradeType)3272,t_struct(LastUpdated)3230_storage))": {
        "encoding": "mapping",
        "key": "t_uint256",
        "label": "mapping(uint256 => mapping(enum TradingCallbacks.TradeType => struct TradingCallbacks.LastUpdated))",
        "numberOfBytes": "32",
        "value": "t_mapping(t_enum(TradeType)3272,t_struct(LastUpdated)3230_storage)"
      },
      "t_mapping(t_uint256,t_mapping(t_enum(TradeType)3272,t_struct(TradeData)3235_storage))": {
        "encoding": "mapping",
        "key": "t_uint256",
        "label": "mapping(uint256 => mapping(enum TradingCallbacks.TradeType => struct TradingCallbacks.TradeData))",
        "numberOfBytes": "32",
        "value": "t_mapping(t_enum(TradeType)3272,t_struct(TradeData)3235_storage)"
      },
      "t_mapping(t_uint256,t_mapping(t_uint256,t_mapping(t_enum(TradeType)3272,t_struct(LastUpdated)3230_storage)))": {
        "encoding": "mapping",
        "key": "t_uint256",
        "label": "mapping(uint256 => mapping(uint256 => mapping(enum TradingCallbacks.TradeType => struct TradingCallbacks.LastUpdated)))",
        "numberOfBytes": "32",
        "value": "t_mapping(t_uint256,t_mapping(t_enum(TradeType)3272,t_struct(LastUpdated)3230_storage))"
      },
      "t_mapping(t_uint256,t_mapping(t_uint256,t_mapping(t_enum(TradeType)3272,t_struct(TradeData)3235_storage)))": {
        "encoding": "mapping",
        "key": "t_uint256",
        "label": "mapping(uint256 => mapping(uint256 => mapping(enum TradingCallbacks.TradeType => struct TradingCallbacks.TradeData)))",
        "numberOfBytes": "32",
        "value": "t_mapping(t_uint256,t_mapping(t_enum(TradeType)3272,t_struct(TradeData)3235_storage))"
      },
      "t_mapping(t_uint256,t_uint256)": {
        "encoding": "mapping",
        "key": "t_uint256",
        "label": "mapping(uint256 => uint256)",
        "numberOfBytes": "32",
        "value": "t_uint256"
      },
      "t_struct(LastUpdated)3230_storage": {
        "encoding": "inplace",
        "label": "struct TradingCallbacks.LastUpdated",
        "members": [
          {
            "astId": 3223,
            "contract": "contracts/TradingCallbacks.sol:TradingCallbacks",
            "label": "tp",
            "offset": 0,
            "slot": "0",
            "type": "t_uint32"
          },
          {
            "astId": 3225,
            "contract": "contracts/TradingCallbacks.sol:TradingCallbacks",
            "label": "sl",
            "offset": 4,
            "slot": "0",
            "type": "t_uint32"
          },
          {
            "astId": 3227,
            "contract": "contracts/TradingCallbacks.sol:TradingCallbacks",
            "label": "limit",
            "offset": 8,
            "slot": "0",
            "type": "t_uint32"
          },
          {
            "astId": 3229,
            "contract": "contracts/TradingCallbacks.sol:TradingCallbacks",
            "label": "created",
            "offset": 12,
            "slot": "0",
            "type": "t_uint32"
          }
        ],
        "numberOfBytes": "32"
      },
      "t_struct(TradeData)3235_storage": {
        "encoding": "inplace",
        "label": "struct TradingCallbacks.TradeData",
        "members": [
          {
            "astId": 3232,
            "contract": "contracts/TradingCallbacks.sol:TradingCallbacks",
            "label": "maxSlippageP",
            "offset": 0,
            "slot": "0",
            "type": "t_uint40"
          },
          {
            "astId": 3234,
            "contract": "contracts/TradingCallbacks.sol:TradingCallbacks",
            "label": "_placeholder",
            "offset": 5,
            "slot": "0",
            "type": "t_uint216"
          }
        ],
        "numberOfBytes": "32"
      },
      "t_uint216": {
        "encoding": "inplace",
        "label": "uint216",
        "numberOfBytes": "27"
      },
      "t_uint256": {
        "encoding": "inplace",
        "label": "uint256",
        "numberOfBytes": "32"
      },
      "t_uint32": {
        "encoding": "inplace",
        "label": "uint32",
        "numberOfBytes": "4"
      },
      "t_uint40": {
        "encoding": "inplace",
        "label": "uint40",
        "numberOfBytes": "5"
      },
      "t_uint8": {
        "encoding": "inplace",
        "label": "uint8",
        "numberOfBytes": "1"
      }
    }
  }
}