{
  "address": "0x01021c5b3608c5793de5cC9ada07340DcDf1582F",
  "abi": [
    {
      "inputs": [],
      "name": "Forbidden",
      "type": "error"
    },
    {
      "inputs": [],
      "name": "WrongParams",
      "type": "error"
    },
    {
      "anonymous": false,
      "inputs": [
        {
          "indexed": true,
          "internalType": "address",
          "name": "trader",
          "type": "address"
        },
        {
          "indexed": false,
          "internalType": "uint256",
          "name": "tradeValueWETH",
          "type": "uint256"
        },
        {
          "indexed": false,
          "internalType": "uint256",
          "name": "feeValueWETH",
          "type": "uint256"
        }
      ],
      "name": "BorrowingFeeCharged",
      "type": "event"
    },
    {
      "anonymous": false,
      "inputs": [
        {
          "indexed": false,
          "internalType": "uint256",
          "name": "newValue",
          "type": "uint256"
        }
      ],
      "name": "CanExecuteTimeoutUpdated",
      "type": "event"
    },
    {
      "anonymous": false,
      "inputs": [
        {
          "indexed": false,
          "internalType": "uint256",
          "name": "WETHVaultFeeP",
          "type": "uint256"
        },
        {
          "indexed": false,
          "internalType": "uint256",
          "name": "lpFeeP",
          "type": "uint256"
        },
        {
          "indexed": false,
          "internalType": "uint256",
          "name": "sssFeeP",
          "type": "uint256"
        }
      ],
      "name": "ClosingFeeSharesPUpdated",
      "type": "event"
    },
    {
      "anonymous": false,
      "inputs": [
        {
          "indexed": true,
          "internalType": "address",
          "name": "trader",
          "type": "address"
        },
        {
          "indexed": false,
          "internalType": "uint256",
          "name": "valueWETH",
          "type": "uint256"
        }
      ],
      "name": "DevGovFeeCharged",
      "type": "event"
    },
    {
      "anonymous": false,
      "inputs": [
        {
          "indexed": false,
          "internalType": "bool",
          "name": "done",
          "type": "bool"
        }
      ],
      "name": "Done",
      "type": "event"
    },
    {
      "anonymous": false,
      "inputs": [
        {
          "indexed": false,
          "internalType": "uint8",
          "name": "version",
          "type": "uint8"
        }
      ],
      "name": "Initialized",
      "type": "event"
    },
    {
      "anonymous": false,
      "inputs": [
        {
          "indexed": true,
          "internalType": "uint256",
          "name": "orderId",
          "type": "uint256"
        },
        {
          "indexed": false,
          "internalType": "uint256",
          "name": "limitIndex",
          "type": "uint256"
        },
        {
          "components": [
            {
              "internalType": "address",
              "name": "trader",
              "type": "address"
            },
            {
              "internalType": "uint256",
              "name": "pairIndex",
              "type": "uint256"
            },
            {
              "internalType": "uint256",
              "name": "index",
              "type": "uint256"
            },
            {
              "internalType": "uint256",
              "name": "initialPosToken",
              "type": "uint256"
            },
            {
              "internalType": "uint256",
              "name": "positionSizeWETH",
              "type": "uint256"
            },
            {
              "internalType": "uint256",
              "name": "openPrice",
              "type": "uint256"
            },
            {
              "internalType": "bool",
              "name": "buy",
              "type": "bool"
            },
            {
              "internalType": "uint256",
              "name": "leverage",
              "type": "uint256"
            },
            {
              "internalType": "uint256",
              "name": "tp",
              "type": "uint256"
            },
            {
              "internalType": "uint256",
              "name": "sl",
              "type": "uint256"
            }
          ],
          "indexed": false,
          "internalType": "struct StorageInterface.Trade",
          "name": "t",
          "type": "tuple"
        },
        {
          "indexed": true,
          "internalType": "address",
          "name": "nftHolder",
          "type": "address"
        },
        {
          "indexed": false,
          "internalType": "enum StorageInterface.LimitOrder",
          "name": "orderType",
          "type": "uint8"
        },
        {
          "indexed": false,
          "internalType": "uint256",
          "name": "price",
          "type": "uint256"
        },
        {
          "indexed": false,
          "internalType": "uint256",
          "name": "priceImpactP",
          "type": "uint256"
        },
        {
          "indexed": false,
          "internalType": "uint256",
          "name": "positionSizeWETH",
          "type": "uint256"
        },
        {
          "indexed": false,
          "internalType": "int256",
          "name": "percentProfit",
          "type": "int256"
        },
        {
          "indexed": false,
          "internalType": "uint256",
          "name": "WETHSentToTrader",
          "type": "uint256"
        },
        {
          "indexed": false,
          "internalType": "bool",
          "name": "exactExecution",
          "type": "bool"
        }
      ],
      "name": "LimitExecuted",
      "type": "event"
    },
    {
      "anonymous": false,
      "inputs": [
        {
          "indexed": true,
          "internalType": "uint256",
          "name": "orderId",
          "type": "uint256"
        },
        {
          "indexed": true,
          "internalType": "address",
          "name": "trader",
          "type": "address"
        },
        {
          "indexed": true,
          "internalType": "uint256",
          "name": "pairIndex",
          "type": "uint256"
        },
        {
          "indexed": false,
          "internalType": "uint256",
          "name": "index",
          "type": "uint256"
        },
        {
          "indexed": false,
          "internalType": "enum TradingCallbacks.CancelReason",
          "name": "cancelReason",
          "type": "uint8"
        }
      ],
      "name": "MarketCloseCanceled",
      "type": "event"
    },
    {
      "anonymous": false,
      "inputs": [
        {
          "indexed": true,
          "internalType": "uint256",
          "name": "orderId",
          "type": "uint256"
        },
        {
          "components": [
            {
              "internalType": "address",
              "name": "trader",
              "type": "address"
            },
            {
              "internalType": "uint256",
              "name": "pairIndex",
              "type": "uint256"
            },
            {
              "internalType": "uint256",
              "name": "index",
              "type": "uint256"
            },
            {
              "internalType": "uint256",
              "name": "initialPosToken",
              "type": "uint256"
            },
            {
              "internalType": "uint256",
              "name": "positionSizeWETH",
              "type": "uint256"
            },
            {
              "internalType": "uint256",
              "name": "openPrice",
              "type": "uint256"
            },
            {
              "internalType": "bool",
              "name": "buy",
              "type": "bool"
            },
            {
              "internalType": "uint256",
              "name": "leverage",
              "type": "uint256"
            },
            {
              "internalType": "uint256",
              "name": "tp",
              "type": "uint256"
            },
            {
              "internalType": "uint256",
              "name": "sl",
              "type": "uint256"
            }
          ],
          "indexed": false,
          "internalType": "struct StorageInterface.Trade",
          "name": "t",
          "type": "tuple"
        },
        {
          "indexed": false,
          "internalType": "bool",
          "name": "open",
          "type": "bool"
        },
        {
          "indexed": false,
          "internalType": "uint256",
          "name": "price",
          "type": "uint256"
        },
        {
          "indexed": false,
          "internalType": "uint256",
          "name": "priceImpactP",
          "type": "uint256"
        },
        {
          "indexed": false,
          "internalType": "uint256",
          "name": "positionSizeWETH",
          "type": "uint256"
        },
        {
          "indexed": false,
          "internalType": "int256",
          "name": "percentProfit",
          "type": "int256"
        },
        {
          "indexed": false,
          "internalType": "uint256",
          "name": "WETHSentToTrader",
          "type": "uint256"
        }
      ],
      "name": "MarketExecuted",
      "type": "event"
    },
    {
      "anonymous": false,
      "inputs": [
        {
          "indexed": true,
          "internalType": "uint256",
          "name": "orderId",
          "type": "uint256"
        },
        {
          "indexed": true,
          "internalType": "address",
          "name": "trader",
          "type": "address"
        },
        {
          "indexed": true,
          "internalType": "uint256",
          "name": "pairIndex",
          "type": "uint256"
        },
        {
          "indexed": false,
          "internalType": "enum TradingCallbacks.CancelReason",
          "name": "cancelReason",
          "type": "uint8"
        }
      ],
      "name": "MarketOpenCanceled",
      "type": "event"
    },
    {
      "anonymous": false,
      "inputs": [
        {
          "indexed": true,
          "internalType": "address",
          "name": "trader",
          "type": "address"
        },
        {
          "indexed": false,
          "internalType": "uint256",
          "name": "valueWETH",
          "type": "uint256"
        }
      ],
      "name": "NftBotFeeCharged",
      "type": "event"
    },
    {
      "anonymous": false,
      "inputs": [
        {
          "indexed": true,
          "internalType": "uint256",
          "name": "orderId",
          "type": "uint256"
        },
        {
          "indexed": true,
          "internalType": "address",
          "name": "nftHolder",
          "type": "address"
        },
        {
          "indexed": false,
          "internalType": "enum StorageInterface.LimitOrder",
          "name": "orderType",
          "type": "uint8"
        },
        {
          "indexed": false,
          "internalType": "enum TradingCallbacks.CancelReason",
          "name": "cancelReason",
          "type": "uint8"
        }
      ],
      "name": "NftOrderCanceled",
      "type": "event"
    },
    {
      "anonymous": false,
      "inputs": [
        {
          "indexed": true,
          "internalType": "uint256",
          "name": "pairIndex",
          "type": "uint256"
        },
        {
          "indexed": false,
          "internalType": "uint256",
          "name": "maxLeverage",
          "type": "uint256"
        }
      ],
      "name": "PairMaxLeverageUpdated",
      "type": "event"
    },
    {
      "anonymous": false,
      "inputs": [
        {
          "indexed": false,
          "internalType": "bool",
          "name": "paused",
          "type": "bool"
        }
      ],
      "name": "Pause",
      "type": "event"
    },
    {
      "anonymous": false,
      "inputs": [
        {
          "indexed": true,
          "internalType": "address",
          "name": "trader",
          "type": "address"
        },
        {
          "indexed": false,
          "internalType": "uint256",
          "name": "valueWETH",
          "type": "uint256"
        }
      ],
      "name": "ReferralFeeCharged",
      "type": "event"
    },
    {
      "anonymous": false,
      "inputs": [
        {
          "indexed": true,
          "internalType": "address",
          "name": "trader",
          "type": "address"
        },
        {
          "indexed": false,
          "internalType": "uint256",
          "name": "valueWETH",
          "type": "uint256"
        }
      ],
      "name": "SssFeeCharged",
      "type": "event"
    },
    {
      "anonymous": false,
      "inputs": [
        {
          "indexed": true,
          "internalType": "address",
          "name": "trader",
          "type": "address"
        },
        {
          "indexed": false,
          "internalType": "uint256",
          "name": "valueWETH",
          "type": "uint256"
        }
      ],
      "name": "WETHVaultFeeCharged",
      "type": "event"
    },
    {
      "inputs": [],
      "name": "WETHVaultFeeP",
      "outputs": [
        {
          "internalType": "uint256",
          "name": "",
          "type": "uint256"
        }
      ],
      "stateMutability": "view",
      "type": "function"
    },
    {
      "inputs": [],
      "name": "borrowingFees",
      "outputs": [
        {
          "internalType": "contract BorrowingFeesInterface",
          "name": "",
          "type": "address"
        }
      ],
      "stateMutability": "view",
      "type": "function"
    },
    {
      "inputs": [],
      "name": "canExecuteTimeout",
      "outputs": [
        {
          "internalType": "uint256",
          "name": "",
          "type": "uint256"
        }
      ],
      "stateMutability": "view",
      "type": "function"
    },
    {
      "inputs": [
        {
          "components": [
            {
              "internalType": "uint256",
              "name": "orderId",
              "type": "uint256"
            },
            {
              "internalType": "uint256",
              "name": "price",
              "type": "uint256"
            },
            {
              "internalType": "uint256",
              "name": "spreadP",
              "type": "uint256"
            },
            {
              "internalType": "uint256",
              "name": "open",
              "type": "uint256"
            },
            {
              "internalType": "uint256",
              "name": "high",
              "type": "uint256"
            },
            {
              "internalType": "uint256",
              "name": "low",
              "type": "uint256"
            }
          ],
          "internalType": "struct TradingCallbacks.AggregatorAnswer",
          "name": "a",
          "type": "tuple"
        },
        {
          "components": [
            {
              "components": [
                {
                  "internalType": "address",
                  "name": "trader",
                  "type": "address"
                },
                {
                  "internalType": "uint256",
                  "name": "pairIndex",
                  "type": "uint256"
                },
                {
                  "internalType": "uint256",
                  "name": "index",
                  "type": "uint256"
                },
                {
                  "internalType": "uint256",
                  "name": "initialPosToken",
                  "type": "uint256"
                },
                {
                  "internalType": "uint256",
                  "name": "positionSizeWETH",
                  "type": "uint256"
                },
                {
                  "internalType": "uint256",
                  "name": "openPrice",
                  "type": "uint256"
                },
                {
                  "internalType": "bool",
                  "name": "buy",
                  "type": "bool"
                },
                {
                  "internalType": "uint256",
                  "name": "leverage",
                  "type": "uint256"
                },
                {
                  "internalType": "uint256",
                  "name": "tp",
                  "type": "uint256"
                },
                {
                  "internalType": "uint256",
                  "name": "sl",
                  "type": "uint256"
                }
              ],
              "internalType": "struct StorageInterface.Trade",
              "name": "trade",
              "type": "tuple"
            },
            {
              "internalType": "uint256",
              "name": "block",
              "type": "uint256"
            },
            {
              "internalType": "uint256",
              "name": "wantedPrice",
              "type": "uint256"
            },
            {
              "internalType": "uint256",
              "name": "slippageP",
              "type": "uint256"
            },
            {
              "internalType": "uint256",
              "name": "spreadReductionP",
              "type": "uint256"
            },
            {
              "internalType": "uint256",
              "name": "tokenId",
              "type": "uint256"
            }
          ],
          "internalType": "struct StorageInterface.PendingMarketOrder",
          "name": "o",
          "type": "tuple"
        }
      ],
      "name": "closeTradeMarketCallback",
      "outputs": [],
      "stateMutability": "nonpayable",
      "type": "function"
    },
    {
      "inputs": [],
      "name": "done",
      "outputs": [],
      "stateMutability": "nonpayable",
      "type": "function"
    },
    {
      "inputs": [
        {
          "components": [
            {
              "internalType": "uint256",
              "name": "orderId",
              "type": "uint256"
            },
            {
              "internalType": "uint256",
              "name": "price",
              "type": "uint256"
            },
            {
              "internalType": "uint256",
              "name": "spreadP",
              "type": "uint256"
            },
            {
              "internalType": "uint256",
              "name": "open",
              "type": "uint256"
            },
            {
              "internalType": "uint256",
              "name": "high",
              "type": "uint256"
            },
            {
              "internalType": "uint256",
              "name": "low",
              "type": "uint256"
            }
          ],
          "internalType": "struct TradingCallbacks.AggregatorAnswer",
          "name": "a",
          "type": "tuple"
        }
      ],
      "name": "executeNftCloseOrderCallback",
      "outputs": [],
      "stateMutability": "nonpayable",
      "type": "function"
    },
    {
      "inputs": [
        {
          "components": [
            {
              "internalType": "uint256",
              "name": "orderId",
              "type": "uint256"
            },
            {
              "internalType": "uint256",
              "name": "price",
              "type": "uint256"
            },
            {
              "internalType": "uint256",
              "name": "spreadP",
              "type": "uint256"
            },
            {
              "internalType": "uint256",
              "name": "open",
              "type": "uint256"
            },
            {
              "internalType": "uint256",
              "name": "high",
              "type": "uint256"
            },
            {
              "internalType": "uint256",
              "name": "low",
              "type": "uint256"
            }
          ],
          "internalType": "struct TradingCallbacks.AggregatorAnswer",
          "name": "a",
          "type": "tuple"
        }
      ],
      "name": "executeNftOpenOrderCallback",
      "outputs": [],
      "stateMutability": "nonpayable",
      "type": "function"
    },
    {
      "inputs": [],
      "name": "getAllPairsMaxLeverage",
      "outputs": [
        {
          "internalType": "uint256[]",
          "name": "",
          "type": "uint256[]"
        }
      ],
      "stateMutability": "view",
      "type": "function"
    },
    {
      "inputs": [],
      "name": "giveApproval",
      "outputs": [],
      "stateMutability": "nonpayable",
      "type": "function"
    },
    {
      "inputs": [
        {
          "internalType": "contract StorageInterface",
          "name": "_storageT",
          "type": "address"
        },
        {
          "internalType": "contract NftRewardsInterfaceV6_3_1",
          "name": "_nftRewards",
          "type": "address"
        },
        {
          "internalType": "contract PairInfosInterface",
          "name": "_pairInfos",
          "type": "address"
        },
        {
          "internalType": "contract ReferralsInterface",
          "name": "_referrals",
          "type": "address"
        },
        {
          "internalType": "contract StakingInterface",
          "name": "_staking",
          "type": "address"
        },
        {
          "internalType": "contract BorrowingFeesInterface",
          "name": "_borrowingFees",
          "type": "address"
        },
        {
          "internalType": "address",
          "name": "vaultToApprove",
          "type": "address"
        },
        {
          "internalType": "uint256",
          "name": "_WETHVaultFeeP",
          "type": "uint256"
        },
        {
          "internalType": "uint256",
          "name": "_lpFeeP",
          "type": "uint256"
        },
        {
          "internalType": "uint256",
          "name": "_sssFeeP",
          "type": "uint256"
        },
        {
          "internalType": "uint256",
          "name": "_canExecuteTimeout",
          "type": "uint256"
        }
      ],
      "name": "initialize",
      "outputs": [],
      "stateMutability": "nonpayable",
      "type": "function"
    },
    {
      "inputs": [],
      "name": "isDone",
      "outputs": [
        {
          "internalType": "bool",
          "name": "",
          "type": "bool"
        }
      ],
      "stateMutability": "view",
      "type": "function"
    },
    {
      "inputs": [],
      "name": "isPaused",
      "outputs": [
        {
          "internalType": "bool",
          "name": "",
          "type": "bool"
        }
      ],
      "stateMutability": "view",
      "type": "function"
    },
    {
      "inputs": [],
      "name": "lpFeeP",
      "outputs": [
        {
          "internalType": "uint256",
          "name": "",
          "type": "uint256"
        }
      ],
      "stateMutability": "view",
      "type": "function"
    },
    {
      "inputs": [],
      "name": "nftRewards",
      "outputs": [
        {
          "internalType": "contract NftRewardsInterfaceV6_3_1",
          "name": "",
          "type": "address"
        }
      ],
      "stateMutability": "view",
      "type": "function"
    },
    {
      "inputs": [
        {
          "components": [
            {
              "internalType": "uint256",
              "name": "orderId",
              "type": "uint256"
            },
            {
              "internalType": "uint256",
              "name": "price",
              "type": "uint256"
            },
            {
              "internalType": "uint256",
              "name": "spreadP",
              "type": "uint256"
            },
            {
              "internalType": "uint256",
              "name": "open",
              "type": "uint256"
            },
            {
              "internalType": "uint256",
              "name": "high",
              "type": "uint256"
            },
            {
              "internalType": "uint256",
              "name": "low",
              "type": "uint256"
            }
          ],
          "internalType": "struct TradingCallbacks.AggregatorAnswer",
          "name": "a",
          "type": "tuple"
        },
        {
          "components": [
            {
              "components": [
                {
                  "internalType": "address",
                  "name": "trader",
                  "type": "address"
                },
                {
                  "internalType": "uint256",
                  "name": "pairIndex",
                  "type": "uint256"
                },
                {
                  "internalType": "uint256",
                  "name": "index",
                  "type": "uint256"
                },
                {
                  "internalType": "uint256",
                  "name": "initialPosToken",
                  "type": "uint256"
                },
                {
                  "internalType": "uint256",
                  "name": "positionSizeWETH",
                  "type": "uint256"
                },
                {
                  "internalType": "uint256",
                  "name": "openPrice",
                  "type": "uint256"
                },
                {
                  "internalType": "bool",
                  "name": "buy",
                  "type": "bool"
                },
                {
                  "internalType": "uint256",
                  "name": "leverage",
                  "type": "uint256"
                },
                {
                  "internalType": "uint256",
                  "name": "tp",
                  "type": "uint256"
                },
                {
                  "internalType": "uint256",
                  "name": "sl",
                  "type": "uint256"
                }
              ],
              "internalType": "struct StorageInterface.Trade",
              "name": "trade",
              "type": "tuple"
            },
            {
              "internalType": "uint256",
              "name": "block",
              "type": "uint256"
            },
            {
              "internalType": "uint256",
              "name": "wantedPrice",
              "type": "uint256"
            },
            {
              "internalType": "uint256",
              "name": "slippageP",
              "type": "uint256"
            },
            {
              "internalType": "uint256",
              "name": "spreadReductionP",
              "type": "uint256"
            },
            {
              "internalType": "uint256",
              "name": "tokenId",
              "type": "uint256"
            }
          ],
          "internalType": "struct StorageInterface.PendingMarketOrder",
          "name": "o",
          "type": "tuple"
        }
      ],
      "name": "openTradeMarketCallback",
      "outputs": [],
      "stateMutability": "nonpayable",
      "type": "function"
    },
    {
      "inputs": [],
      "name": "pairInfos",
      "outputs": [
        {
          "internalType": "contract PairInfosInterface",
          "name": "",
          "type": "address"
        }
      ],
      "stateMutability": "view",
      "type": "function"
    },
    {
      "inputs": [
        {
          "internalType": "uint256",
          "name": "",
          "type": "uint256"
        }
      ],
      "name": "pairMaxLeverage",
      "outputs": [
        {
          "internalType": "uint256",
          "name": "",
          "type": "uint256"
        }
      ],
      "stateMutability": "view",
      "type": "function"
    },
    {
      "inputs": [],
      "name": "pause",
      "outputs": [],
      "stateMutability": "nonpayable",
      "type": "function"
    },
    {
      "inputs": [],
      "name": "referrals",
      "outputs": [
        {
          "internalType": "contract ReferralsInterface",
          "name": "",
          "type": "address"
        }
      ],
      "stateMutability": "view",
      "type": "function"
    },
    {
      "inputs": [
        {
          "internalType": "uint256",
          "name": "_canExecuteTimeout",
          "type": "uint256"
        }
      ],
      "name": "setCanExecuteTimeout",
      "outputs": [],
      "stateMutability": "nonpayable",
      "type": "function"
    },
    {
      "inputs": [
        {
          "internalType": "uint256",
          "name": "_WETHVaultFeeP",
          "type": "uint256"
        },
        {
          "internalType": "uint256",
          "name": "_lpFeeP",
          "type": "uint256"
        },
        {
          "internalType": "uint256",
          "name": "_sssFeeP",
          "type": "uint256"
        }
      ],
      "name": "setClosingFeeSharesP",
      "outputs": [],
      "stateMutability": "nonpayable",
      "type": "function"
    },
    {
      "inputs": [
        {
          "internalType": "uint256",
          "name": "pairIndex",
          "type": "uint256"
        },
        {
          "internalType": "uint256",
          "name": "maxLeverage",
          "type": "uint256"
        }
      ],
      "name": "setPairMaxLeverage",
      "outputs": [],
      "stateMutability": "nonpayable",
      "type": "function"
    },
    {
      "inputs": [
        {
          "internalType": "uint256[]",
          "name": "indices",
          "type": "uint256[]"
        },
        {
          "internalType": "uint256[]",
          "name": "values",
          "type": "uint256[]"
        }
      ],
      "name": "setPairMaxLeverageArray",
      "outputs": [],
      "stateMutability": "nonpayable",
      "type": "function"
    },
    {
      "inputs": [
        {
          "components": [
            {
              "internalType": "address",
              "name": "trader",
              "type": "address"
            },
            {
              "internalType": "uint256",
              "name": "pairIndex",
              "type": "uint256"
            },
            {
              "internalType": "uint256",
              "name": "index",
              "type": "uint256"
            },
            {
              "internalType": "enum TradingCallbacks.TradeType",
              "name": "tradeType",
              "type": "uint8"
            }
          ],
          "internalType": "struct TradingCallbacks.SimplifiedTradeId",
          "name": "_id",
          "type": "tuple"
        },
        {
          "components": [
            {
              "internalType": "uint40",
              "name": "maxSlippageP",
              "type": "uint40"
            },
            {
              "internalType": "uint216",
              "name": "_placeholder",
              "type": "uint216"
            }
          ],
          "internalType": "struct TradingCallbacks.TradeData",
          "name": "_tradeData",
          "type": "tuple"
        }
      ],
      "name": "setTradeData",
      "outputs": [],
      "stateMutability": "nonpayable",
      "type": "function"
    },
    {
      "inputs": [
        {
          "components": [
            {
              "internalType": "address",
              "name": "trader",
              "type": "address"
            },
            {
              "internalType": "uint256",
              "name": "pairIndex",
              "type": "uint256"
            },
            {
              "internalType": "uint256",
              "name": "index",
              "type": "uint256"
            },
            {
              "internalType": "enum TradingCallbacks.TradeType",
              "name": "tradeType",
              "type": "uint8"
            }
          ],
          "internalType": "struct TradingCallbacks.SimplifiedTradeId",
          "name": "_id",
          "type": "tuple"
        },
        {
          "components": [
            {
              "internalType": "uint32",
              "name": "tp",
              "type": "uint32"
            },
            {
              "internalType": "uint32",
              "name": "sl",
              "type": "uint32"
            },
            {
              "internalType": "uint32",
              "name": "limit",
              "type": "uint32"
            },
            {
              "internalType": "uint32",
              "name": "created",
              "type": "uint32"
            }
          ],
          "internalType": "struct TradingCallbacks.LastUpdated",
          "name": "_lastUpdated",
          "type": "tuple"
        }
      ],
      "name": "setTradeLastUpdated",
      "outputs": [],
      "stateMutability": "nonpayable",
      "type": "function"
    },
    {
      "inputs": [],
      "name": "sssFeeP",
      "outputs": [
        {
          "internalType": "uint256",
          "name": "",
          "type": "uint256"
        }
      ],
      "stateMutability": "view",
      "type": "function"
    },
    {
      "inputs": [],
      "name": "staking",
      "outputs": [
        {
          "internalType": "contract StakingInterface",
          "name": "",
          "type": "address"
        }
      ],
      "stateMutability": "view",
      "type": "function"
    },
    {
      "inputs": [],
      "name": "storageT",
      "outputs": [
        {
          "internalType": "contract StorageInterface",
          "name": "",
          "type": "address"
        }
      ],
      "stateMutability": "view",
      "type": "function"
    },
    {
      "inputs": [
        {
          "internalType": "address",
          "name": "",
          "type": "address"
        },
        {
          "internalType": "uint256",
          "name": "",
          "type": "uint256"
        },
        {
          "internalType": "uint256",
          "name": "",
          "type": "uint256"
        },
        {
          "internalType": "enum TradingCallbacks.TradeType",
          "name": "",
          "type": "uint8"
        }
      ],
      "name": "tradeData",
      "outputs": [
        {
          "internalType": "uint40",
          "name": "maxSlippageP",
          "type": "uint40"
        },
        {
          "internalType": "uint216",
          "name": "_placeholder",
          "type": "uint216"
        }
      ],
      "stateMutability": "view",
      "type": "function"
    },
    {
      "inputs": [
        {
          "internalType": "address",
          "name": "",
          "type": "address"
        },
        {
          "internalType": "uint256",
          "name": "",
          "type": "uint256"
        },
        {
          "internalType": "uint256",
          "name": "",
          "type": "uint256"
        },
        {
          "internalType": "enum TradingCallbacks.TradeType",
          "name": "",
          "type": "uint8"
        }
      ],
      "name": "tradeLastUpdated",
      "outputs": [
        {
          "internalType": "uint32",
          "name": "tp",
          "type": "uint32"
        },
        {
          "internalType": "uint32",
          "name": "sl",
          "type": "uint32"
        },
        {
          "internalType": "uint32",
          "name": "limit",
          "type": "uint32"
        },
        {
          "internalType": "uint32",
          "name": "created",
          "type": "uint32"
        }
      ],
      "stateMutability": "view",
      "type": "function"
    }
  ],
  "transactionHash": "0x53796e099b3809d6caf043ffb62df8213e8a46a07e457fbb4a04427b49bcaef0",
  "args": [],
  "numDeployments": 1,
  "solcInputHash": "be3f31a2a9daf94ca2c1fb85b33493fd",
  "bytecode": "0x608060405234801561001057600080fd5b50614f1b806100206000396000f3fe608060405234801561001057600080fd5b50600436106101995760003560e01c80637bb6c11c116100e4578063ae8421e111610092578063ae8421e11461043f578063b187bd2614610447578063b3f2f4d614610454578063b47ee40814610467578063b736ca821461047a578063c68078b91461048d578063c68365df146104a0578063d3dc7539146104a957600080fd5b80637bb6c11c1461034e5780637e09ae8a146103575780638456cb591461036a5780638b263878146103725780638f0622271461037a57806390b913f21461039c5780639bd24d83146103af57600080fd5b8063311581551161014c578063311581551461025957806337edb1381461026c57806346f93a631461028157806348829122146102f95780634cf088d91461030c578063531cc9651461031f5780635ad9f99314610332578063676c51641461034557600080fd5b8062e0fa891461019e5780631346b0ff146101b357806316fff074146101e3578063178623a7146101fc57806321c861961461021357806323f7197b14610226578063281b693c14610239575b600080fd5b6101b16101ac3660046141fb565b6104bc565b005b6002546101c6906001600160a01b031681565b6040516001600160a01b0390911681526020015b60405180910390f35b6000546101c6906201000090046001600160a01b031681565b61020560055481565b6040519081526020016101da565b6101b161022136600461432c565b61053a565b6101b161023436600461442e565b6105f5565b61020561024736600461444a565b600c6020526000908152604090205481565b6101b16102673660046144a1565b6111c6565b61027461136a565b6040516101da91906145b4565b6102d461028f366004614607565b600d60209081526000948552604080862082529385528385208152918452828420909152825290205464ffffffffff811690600160281b90046001600160d81b031682565b6040805164ffffffffff90931683526001600160d81b039091166020830152016101da565b6101b161030736600461464f565b611467565b6004546101c6906001600160a01b031681565b600b546101c6906001600160a01b031681565b6001546101c6906001600160a01b031681565b61020560095481565b61020560075481565b6101b1610365366004614685565b611475565b6101b161157e565b6101b16115d4565b60085461038c90610100900460ff1681565b60405190151581526020016101da565b6101b16103aa3660046144a1565b611736565b61040f6103bd366004614607565b600a60209081526000948552604080862082529385528385208152918452828420909152825290205463ffffffff808216916401000000008104821691600160401b8204811691600160601b90041684565b6040805163ffffffff958616815293851660208501529184169183019190915290911660608201526080016101da565b6101b1611c62565b60085461038c9060ff1681565b6101b161046236600461444a565b611cc2565b6101b161047536600461442e565b611d27565b6101b1610488366004614738565b612495565b6101b161049b3660046147f8565b6128ca565b61020560065481565b6003546101c6906001600160a01b031681565b6104c461295c565b828181146104e557604051635863f78960e01b815260040160405180910390fd5b60005b818110156105325761052a86868381811061050557610505614824565b9050602002013585858481811061051e5761051e614824565b90506020020135612a06565b6001016104e8565b505050505050565b610542612a57565b80600d6000610554602086018661483a565b6001600160a01b031681526020808201929092526040908101600090812086840135825283528181208683013582529092528120906105996080860160608701614857565b60018111156105aa576105aa614872565b60018111156105bb576105bb614872565b8152602080820192909252604001600020825192909101516001600160d81b0316600160281b0264ffffffffff9092169190911790555050565b6105fd612aaa565b610605612afd565b6000805482516040516399794d3560e01b81526004810191909152620100009091046001600160a01b0316906399794d359060240160c060405180830381865afa158015610657573d6000803e3d6000fd5b505050506040513d601f19601f8201168201806040525081019061067b9190614893565b90506000604051806080016040528083604001516001600160a01b0316815260200183606001518152602001836080015181526020018360a0015160038111156106c7576106c7614872565b815250905060006106e5836040015184606001518560800151612b26565b905060008060029054906101000a90046001600160a01b03166001600160a01b0316633078fff56040518163ffffffff1660e01b8152600401602060405180830381865afa15801561073b573d6000803e3d6000fd5b505050506040513d601f19601f8201168201806040525081019061075f919061490b565b9050600085606001516000146107875760e08301511561078057600061078a565b600961078a565b60025b9050600081600b8111156107a0576107a0614872565b0361108f5760006107be846000015185602001518660400151612bb3565b90506000836001600160a01b03166335b03c176040518163ffffffff1660e01b8152600401602060405180830381865afa158015610800573d6000803e3d6000fd5b505050506040513d601f19601f82011682018060405250810190610824919061490b565b905061082e6140f6565b6402540be4008660e001518460200151886060015161084d919061493e565b610857919061493e565b610861919061496b565b6020820181905260e08701516108769161496b565b815260028860a00151600381111561089057610890614872565b036109aa57600b546040805160e0808201835289516001600160a01b0390811683526020808c0151908401528a8401518385015260a0808c0151606085015260c0808d015115156080860152875191850191909152918b0151918301919091529151633837d79d60e11b8152919092169163706faf3a91610963919060040181516001600160a01b0316815260208083015190820152604080830151908201526060808301519082015260808083015115159082015260a0828101519082015260c0918201519181019190915260e00190565b602060405180830381865afa158015610980573d6000803e3d6000fd5b505050506040513d601f19601f820116820180604052508101906109a4919061497f565b60a08201525b60008860a0015160038111156109c2576109c2614872565b146109f95760018860a0015160038111156109df576109df614872565b146109ee578060a00151610a00565b856101200151610a00565b8561010001515b6080820181905215801590610a1d575080608001518960a0015111155b8015610a3157508060800151896080015110155b158015610140830152610b225760028860a001516003811115610a5657610a56614872565b14610afe576402540be4006064836001600160a01b0316639c8dd2fa89602001516040518263ffffffff1660e01b8152600401610a9591815260200190565b602060405180830381865afa158015610ab2573d6000803e3d6000fd5b505050506040513d601f19601f82011682018060405250810190610ad6919061497f565b8360200151610ae5919061493e565b610aef919061496b565b610af9919061496b565b610b18565b8051606490610b0e90600561493e565b610b18919061496b565b60e0820152610d03565b6060890151608082015260028860a001516003811115610b4457610b44614872565b14610cb15760008860a001516003811115610b6157610b61614872565b148015610b7357506000866101000151115b8015610ba357508560c00151610b955785610100015189606001511115610ba3565b856101000151896060015110155b80610c03575060018860a001516003811115610bc157610bc1614872565b148015610bd357506000866101200151115b8015610c0357508560c00151610bf55785610120015189606001511015610c03565b856101200151896060015111155b610c0e576000610cfd565b6402540be4006064836001600160a01b0316639c8dd2fa89602001516040518263ffffffff1660e01b8152600401610c4891815260200190565b602060405180830381865afa158015610c65573d6000803e3d6000fd5b505050506040513d601f19601f82011682018060405250810190610c89919061497f565b8360200151610c98919061493e565b610ca2919061496b565b610cac919061496b565b610cfd565b8560c00151610ccb578060a0015189606001511015610cd8565b8060a00151896060015111155b610ce3576000610cfd565b8051606490610cf390600561493e565b610cfd919061496b565b60e08201525b60e081015115610d14576000610d17565b600b5b9350600084600b811115610d2d57610d2d614872565b0361108b57610d4e8660a0015182608001518860c001518960e00151612c68565b816060018181525050846001600160a01b031663290702e56040518163ffffffff1660e01b81526004016020604051808303816000875af1158015610d97573d6000803e3d6000fd5b505050506040513d601f19601f82011682018060405250810190610dbb919061497f565b816040018181525050610eba86600083606001518460000151876040015160026003811115610dec57610dec614872565b8e60a001516003811115610e0257610e02614872565b14610eaa576402540be4006064896001600160a01b031663836a341a8f602001516040518263ffffffff1660e01b8152600401610e4191815260200190565b602060405180830381865afa158015610e5e573d6000803e3d6000fd5b505050506040513d601f19601f82011682018060405250810190610e82919061497f565b8960200151610e91919061493e565b610e9b919061496b565b610ea5919061496b565b610eb0565b8660e001515b8760e00151612cf7565b60c0820152604081015160e0820151610ed9906402540be4009061493e565b610ee3919061496b565b61010082018190526001546040808401519051630891674d60e31b81526001600160a01b039092169263448b3a6892610f21928c92916004016149e3565b600060405180830381600087803b158015610f3b57600080fd5b505af1158015610f4f573d6000803e3d6000fd5b505060005460208b01516101008501516040516339caebcf60e11b815260048101929092526024820152620100009091046001600160a01b03169250637395d79e9150604401600060405180830381600087803b158015610faf57600080fd5b505af1158015610fc3573d6000803e3d6000fd5b5050505085600001516001600160a01b03167fcada75418f444febbe725c87360b063440c54e00e82d578010de1ed009d756c58260e0015160405161100a91815260200190565b60405180910390a287600001516001600160a01b031689600001517f1ab0771256522e5114b583b488c490436d6f8fe02b1e1c9697443e8704c4e8408a60800151898c60a0015186608001516000886000015189606001518a60c001518b610140015160405161108299989796959493929190614a76565b60405180910390a35b5050505b600081600b8111156110a3576110a3614872565b146110f6578451865160a08701516040516001600160a01b03909316927fe9681b5336d843735c62e93114e5a0f45912a84ae83fa3f3ed80ca5ad933dfc3916110ed918690614ae3565b60405180910390a35b60015460405163bf654d2b60e01b81526001600160a01b039091169063bf654d2b90611126908790600401614afe565b600060405180830381600087803b15801561114057600080fd5b505af1158015611154573d6000803e3d6000fd5b5050600054885160405163201d8bdb60e01b81526004810191909152620100009091046001600160a01b0316925063201d8bdb9150602401600060405180830381600087803b1580156111a657600080fd5b505af11580156111ba573d6000803e3d6000fd5b50505050505050505050565b6111ce612aaa565b6111d6612afd565b600081600001519050600080600061127260405180610180016040528088602001518152602001876040015181526020018860200151815260200188604001518152602001876080015181526020018660c001511515815260200186602001518152602001866080015181526020018660e001518152602001876060015181526020018661010001518152602001866101200151815250613073565b60a0870182905291945092509050600081600b81111561129457611294614872565b036113135760006112a9856105dc6000613358565b50905086600001517f2739a12dffae5d66bd9e126a286078ed771840f2288f0afa5709ce38c33309978260018460a00151888660e0015187608001516112ef919061493e565b6000806040516113059796959493929190614b0c565b60405180910390a250610532565b836020015184600001516001600160a01b031687600001517f1dc3532663e5566091476fb5aba1e514ef733714c83d4feec5723de6f16c32698460405161135a9190614b51565b60405180910390a4505050505050565b60606000611376613818565b6001600160a01b031663b81b2b716040518163ffffffff1660e01b8152600401602060405180830381865afa1580156113b3573d6000803e3d6000fd5b505050506040513d601f19601f820116820180604052508101906113d7919061497f565b90506000816001600160401b038111156113f3576113f361427e565b60405190808252806020026020018201604052801561141c578160200160208202803683370190505b50905060005b82811015611460576000818152600c6020526040902054825183908390811061144d5761144d614824565b6020908102919091010152600101611422565b5092915050565b6114718282612a06565b5050565b61147d612a57565b80600a600061148f602086018661483a565b6001600160a01b031681526020808201929092526040908101600090812086840135825283528181208683013582529092528120906114d46080860160608701614857565b60018111156114e5576114e5614872565b60018111156114f6576114f6614872565b8152602080820192909252604090810160002083518154938501519285015160609095015163ffffffff908116600160601b0263ffffffff60601b19968216600160401b029690961667ffffffffffffffff60401b199482166401000000000267ffffffffffffffff1990961691909216179390931791909116919091179190911790555050565b6115866138f6565b6008805460ff8082161560ff1990921682179092556040519116151581527f9422424b175dda897495a07b091ef74a3ef715cf6d866fc972954c1c7f459304906020015b60405180910390a1565b600060029054906101000a90046001600160a01b03166001600160a01b031663ad5c46486040518163ffffffff1660e01b8152600401602060405180830381865afa158015611627573d6000803e3d6000fd5b505050506040513d601f19601f8201168201806040525081019061164b919061490b565b6001600160a01b031663095ea7b3600060029054906101000a90046001600160a01b03166001600160a01b031663fbfa77cf6040518163ffffffff1660e01b8152600401602060405180830381865afa1580156116ac573d6000803e3d6000fd5b505050506040513d601f19601f820116820180604052508101906116d0919061490b565b6000196040518363ffffffff1660e01b81526004016116f0929190614b5f565b6020604051808303816000875af115801561170f573d6000803e3d6000fd5b505050506040513d601f19601f820116820180604052508101906117339190614b83565b50565b61173e612aaa565b611746612afd565b8051805160208201516040909201516000926117629291612b26565b905060008160e0015160001461178a5760208401511561178357600061178d565b600261178d565b60095b9050600981600b8111156117a3576117a3614872565b14611b7b5760006117c1836000015184602001518560400151612bb3565b905060008060029054906101000a90046001600160a01b03166001600160a01b0316633078fff56040518163ffffffff1660e01b8152600401602060405180830381865afa158015611817573d6000803e3d6000fd5b505050506040513d601f19601f8201168201806040525081019061183b919061490b565b90506118456140f6565b8460e001518560800151611859919061493e565b6020820152600084600b81111561187257611872614872565b03611b2b576118938560a0015188602001518760c001518860e00151612c68565b606082015260e085015160208201516118ac919061496b565b816000018181525050611acd8560018360600151846000015187604001516402540be4006064896001600160a01b03166335b03c176040518163ffffffff1660e01b8152600401602060405180830381865afa158015611910573d6000803e3d6000fd5b505050506040513d601f19601f82011682018060405250810190611934919061490b565b6001600160a01b031663836a341a8e602001516040518263ffffffff1660e01b815260040161196591815260200190565b602060405180830381865afa158015611982573d6000803e3d6000fd5b505050506040513d601f19601f820116820180604052508101906119a6919061497f565b89602001516119b5919061493e565b6119bf919061496b565b6119c9919061496b565b6402540be40060648a6001600160a01b03166335b03c176040518163ffffffff1660e01b8152600401602060405180830381865afa158015611a0f573d6000803e3d6000fd5b505050506040513d601f19601f82011682018060405250810190611a33919061490b565b6001600160a01b0316639c8dd2fa8f602001516040518263ffffffff1660e01b8152600401611a6491815260200190565b602060405180830381865afa158015611a81573d6000803e3d6000fd5b505050506040513d601f19601f82011682018060405250810190611aa5919061497f565b8a60200151611ab4919061493e565b611abe919061496b565b611ac8919061496b565b612cf7565b60c08201819052875160208901518351606085015160405193947f2739a12dffae5d66bd9e126a286078ed771840f2288f0afa5709ce38c333099794611b1e948c9460009491938593919291614b0c565b60405180910390a2611b77565b84600001516001600160a01b03167f4628f3d38f72d5f9e077d3965e10cd3242ff1316aa2bf81f054c0dfb254084068260e00151604051611b6e91815260200190565b60405180910390a25b5050505b600081600b811115611b8f57611b8f614872565b14611bee578251602081015181518651604093840151935192936001600160a01b039092169290917f293df767d6749666902026d2f6a2cc4e5f15cdede46402226c42ef4fdf27a17c91611be591908790614ba0565b60405180910390a45b600080548551604051630195728b60e71b8152600481019190915260248101929092526201000090046001600160a01b03169063cab9458090604401600060405180830381600087803b158015611c4457600080fd5b505af1158015611c58573d6000803e3d6000fd5b5050505050505050565b611c6a6138f6565b6008805460ff610100808304821615810261ff001990931692909217928390556040517fc3a6f986261de9467c2838c6df8ef74f9107855159205600c0bc7a14cdfd3888936115ca9390049091161515815260200190565b611cca6138f6565b6005811115611cec57604051635863f78960e01b815260040160405180910390fd5b60098190556040518181527fa57398db99aea3c2cd0d30f5b4e8f597539206c95b9c5b73e84962d8b565bbeb9060200160405180910390a150565b611d2f612aaa565b611d37612afd565b6000805482516040516399794d3560e01b81526004810191909152620100009091046001600160a01b0316906399794d359060240160c060405180830381865afa158015611d89573d6000803e3d6000fd5b505050506040513d601f19601f82011682018060405250810190611dad9190614893565b60008054604083810151606085015160808601519251636e6f99cd60e11b81529596509394620100009093046001600160a01b03169363dcdf339a93611df69390600401614bb4565b602060405180830381865afa158015611e13573d6000803e3d6000fd5b505050506040513d601f19601f82011682018060405250810190611e379190614b83565b15611e43576000611e46565b60095b9050600081600b811115611e5c57611e5c614872565b036123065760008054604084810151606086015160808701519251632e21e28b60e21b8152620100009094046001600160a01b03169363b8878a2c93611ea6939291600401614bb4565b6101a060405180830381865afa158015611ec4573d6000803e3d6000fd5b505050506040513d601f19601f82011682018060405250810190611ee89190614bd5565b600154604080860151606087015160808801519251636a6f32f560e11b81529495506000946001600160a01b039094169363d4de65ea93611f2d939291600401614bb4565b602060405180830381865afa158015611f4a573d6000803e3d6000fd5b505050506040513d601f19601f82011682018060405250810190611f6e9190614c88565b9050816101400151856080015110158015611f9257508161014001518560a0015111155b611f9d57600b611fa0565b60005b925060008060006120b46040518061018001604052806000600b811115611fc957611fc9614872565b89600b811115611fdb57611fdb614872565b14611fea578a60600151611ff1565b8761014001515b81526101408881015160208084019190915260608d810151604080860191909152808f0151828601526080808d01519086015260a0808d0151151590860152828c01805160c080880191909152928d015160e080880191909152928d0151610100808801919091528d516001600160a01b03166000908152600d865283812092518152918552828220838f01518352855282822060018352909452205464ffffffffff166101208501528a01519183019190915288015161016090910152613073565b9194509250905060008087600b8111156120d0576120d0614872565b149050801581612154575061014086015115806120fe575060028560028111156120fc576120fc614872565b145b61212d578560a0015161211c57856101400151896060015110612154565b856101400151896060015111612154565b8560a0015161214757856101400151896060015111612154565b8561014001518960600151105b61215e5781612161565b600b5b9650600087600b81111561217757612177614872565b036122ff576000806122016040518061014001604052808a600001516001600160a01b031681526020018a60200151815260200160008152602001600081526020018a6060015181526020018781526020018a60a00151151581526020018a60c0015181526020018a60e0015181526020018a61010001518152508b602001518c60800151613358565b6000548a5160208c01516040808e0151905163b4b0f56760e01b8152959750939550620100009092046001600160a01b03169363b4b0f567936122479391600401614bb4565b600060405180830381600087803b15801561226157600080fd5b505af1158015612275573d6000803e3d6000fd5b5050505089600001516001600160a01b03168b600001517f1ab0771256522e5114b583b488c490436d6f8fe02b1e1c9697443e8704c4e8408c608001518560038760a001518c6402540be400898b606001516122d1919061493e565b6122db919061496b565b6000808d6040516122f499989796959493929190614a76565b60405180910390a350505b5050505050505b600081600b81111561231a5761231a614872565b1461236d5781600001516001600160a01b031683600001517fe9681b5336d843735c62e93114e5a0f45912a84ae83fa3f3ed80ca5ad933dfc3600384604051612364929190614ae3565b60405180910390a35b600160009054906101000a90046001600160a01b03166001600160a01b031663bf654d2b604051806080016040528085604001516001600160a01b0316815260200185606001518152602001856080015181526020018560a0015160038111156123d9576123d9614872565b8152506040518263ffffffff1660e01b81526004016123f89190614afe565b600060405180830381600087803b15801561241257600080fd5b505af1158015612426573d6000803e3d6000fd5b5050600054855160405163201d8bdb60e01b81526004810191909152620100009091046001600160a01b0316925063201d8bdb9150602401600060405180830381600087803b15801561247857600080fd5b505af115801561248c573d6000803e3d6000fd5b50505050505050565b600054610100900460ff16158080156124b55750600054600160ff909116105b806124cf5750303b1580156124cf575060005460ff166001145b6125365760405162461bcd60e51b815260206004820152602e60248201527f496e697469616c697a61626c653a20636f6e747261637420697320616c72656160448201526d191e481a5b9a5d1a585b1a5e995960921b606482015260840160405180910390fd5b6000805460ff191660011790558015612559576000805461ff0019166101001790555b6001600160a01b038c16158061257657506001600160a01b038b16155b8061258857506001600160a01b038a16155b8061259a57506001600160a01b038916155b806125ac57506001600160a01b038816155b806125be57506001600160a01b038616155b806125de5750826125cf8587614ca9565b6125d99190614ca9565b606414155b806125e95750600582115b1561260757604051635863f78960e01b815260040160405180910390fd5b8b600060026101000a8154816001600160a01b0302191690836001600160a01b031602179055508a600160006101000a8154816001600160a01b0302191690836001600160a01b0316021790555089600260006101000a8154816001600160a01b0302191690836001600160a01b0316021790555088600360006101000a8154816001600160a01b0302191690836001600160a01b0316021790555087600460006101000a8154816001600160a01b0302191690836001600160a01b0316021790555086600b60006101000a8154816001600160a01b0302191690836001600160a01b031602179055508460058190555083600681905550826007819055508160098190555060008060029054906101000a90046001600160a01b03166001600160a01b031663ad5c46486040518163ffffffff1660e01b8152600401602060405180830381865afa158015612761573d6000803e3d6000fd5b505050506040513d601f19601f82011682018060405250810190612785919061490b565b6004805460405163095ea7b360e01b81529293506001600160a01b038085169363095ea7b3936127bd93909216916000199101614b5f565b6020604051808303816000875af11580156127dc573d6000803e3d6000fd5b505050506040513d601f19601f820116820180604052508101906128009190614b83565b5060405163095ea7b360e01b81526001600160a01b0382169063095ea7b390612831908a9060001990600401614b5f565b6020604051808303816000875af1158015612850573d6000803e3d6000fd5b505050506040513d601f19601f820116820180604052508101906128749190614b83565b505080156128bc576000805461ff0019169055604051600181527f7f26b83ff96e1f2b6a682f133852f6798a09c465da95921460cefb38474024989060200160405180910390a15b505050505050505050505050565b6128d26138f6565b806128dd8385614ca9565b6128e79190614ca9565b60641461290757604051635863f78960e01b815260040160405180910390fd5b60058390556006829055600781905560408051848152602081018490529081018290527f0caa98ed9a1605da290817d1f67b1b83c63f9229abeca5123df5d90581c495589060600160405180910390a1505050565b600260009054906101000a90046001600160a01b03166001600160a01b031663481c6a756040518163ffffffff1660e01b8152600401602060405180830381865afa1580156129af573d6000803e3d6000fd5b505050506040513d601f19601f820116820180604052508101906129d3919061490b565b6001600160a01b0316336001600160a01b031614612a0457604051631dd2188d60e31b815260040160405180910390fd5b565b6000828152600c6020526040908190208290555182907f95924bc10431f9a625a06fe5a27d55f4348510b2da42a18fe3bf2a6f2c4eab6790612a4b9084815260200190565b60405180910390a25050565b600060029054906101000a90046001600160a01b03166001600160a01b031663ec44acf26040518163ffffffff1660e01b8152600401602060405180830381865afa1580156129af573d6000803e3d6000fd5b600060029054906101000a90046001600160a01b03166001600160a01b0316633078fff56040518163ffffffff1660e01b8152600401602060405180830381865afa1580156129af573d6000803e3d6000fd5b600854610100900460ff1615612a0457604051631dd2188d60e31b815260040160405180910390fd5b612b2e614152565b6000546040516351d407ff60e11b8152620100009091046001600160a01b03169063a3a80ffe90612b6790879087908790600401614bb4565b61014060405180830381865afa158015612b85573d6000803e3d6000fd5b505050506040513d601f19601f82011682018060405250810190612ba99190614cbc565b90505b9392505050565b612bee6040518060c0016040528060008152602001600081526020016000815260200160008152602001600081526020016000151581525090565b600054604051638c8ff1d560e01b8152620100009091046001600160a01b031690638c8ff1d590612c2790879087908790600401614bb4565b60c060405180830381865afa158015612c44573d6000803e3d6000fd5b505050506040513d601f19601f82011682018060405250810190612ba99190614d4e565b600080612c7c6402540be400610384614da2565b905060008611612c8d576000612cdc565b85836402540be40086612ca957612ca4888a614dd2565b612cb3565b612cb38989614dd2565b612cbe906064614da2565b612cc89190614da2565b612cd29190614da2565b612cdc9190614df2565b9150808213612ceb5781612ced565b805b9695505050505050565b600080600060029054906101000a90046001600160a01b03166001600160a01b031663fbfa77cf6040518163ffffffff1660e01b8152600401602060405180830381865afa158015612d4d573d6000803e3d6000fd5b505050506040513d601f19601f82011682018060405250810190612d71919061490b565b9050612d88898789612d838789614ca9565b613949565b50600b548a5160208c01516040808e015160c08f0151915163ce67edfb60e01b81529597506001600160a01b039094169463ce67edfb94612dd494939290918c91600091600401614e20565b600060405180830381600087803b158015612dee57600080fd5b505af1158015612e02573d6000803e3d6000fd5b50505050612e0e613818565b6001600160a01b03166320f0fc5e8a602001518b60e0015188612e31919061496b565b60c08d01516040516001600160e01b031960e086901b168152600481019390935260248301919091521515604482015260006064820152608401600060405180830381600087803b158015612e8557600080fd5b505af1158015612e99573d6000803e3d6000fd5b50506000548b5160208d01516040808f015190516390d112b960e01b8152620100009094046001600160a01b031695506390d112b99450612edc93600401614bb4565b600060405180830381600087803b158015612ef657600080fd5b505af1158015612f0a573d6000803e3d6000fd5b5050505060808901511561300157612f206140f6565b600081610100015182610120015189612f399190614e57565b612f439190614e57565b905080841115612fda576001600160a01b03831663e66a6e3b612f668387614e57565b8d5160405160e084901b6001600160e01b031916815260048101929092526001600160a01b03166024820152604401600060405180830381600087803b158015612faf57600080fd5b505af1158015612fc3573d6000803e3d6000fd5b50505050612fd58b6000015182613a6c565b612ffa565b612fee612fe78583614e57565b8c51613adb565b8a51612ffa9085613a6c565b5050613067565b885160405163e66a6e3b60e01b8152600481018490526001600160a01b0391821660248201529082169063e66a6e3b90604401600060405180830381600087803b15801561304e57600080fd5b505af1158015613062573d6000803e3d6000fd5b505050505b50979650505050505050565b60025481516060830151608084015160a0850151600094859485946001600160a01b0390921693637ea95f32936130ab939190613b93565b8660c001518760a001518861010001518960e001516130ca919061493e565b6040516001600160e01b031960e087901b168152600481019490945260248401929092521515604483015260648201526084016040805180830381865afa158015613119573d6000803e3d6000fd5b505050506040513d601f19601f8201168201806040525081019061313d9190614e6a565b61012086015191945092506000906131655760648560200151613160919061496b565b613196565b6402540be40060648661012001518760200151613182919061493e565b61318c919061496b565b613196919061496b565b60085490915060ff1661334c57604085015115613345578460a001516131cd578085602001516131c69190614e57565b83106131e0565b8085602001516131dd9190614ca9565b83115b61333e57600085610140015111801561321557508460a0015161320b57846101400151831115613215565b8461014001518310155b61333757600085610160015111801561324a57508460a001516132405784610160015183101561324a565b8461016001518311155b6133305761326b8560c001518660a001518760e00151886101000151613c03565b1561332957600260009054906101000a90046001600160a01b03166001600160a01b03166380f6cfc26040518163ffffffff1660e01b8152600401602060405180830381865afa1580156132c3573d6000803e3d6000fd5b505050506040513d601f19601f820116820180604052508101906132e7919061497f565b6101008601516132f7908661493e565b116133225761330f8560c00151866101000151613dac565b1561331b57600061334f565b600861334f565b600761334f565b600661334f565b600561334f565b600461334f565b600361334f565b600261334f565b60015b93959294505050565b613360614152565b600080600060029054906101000a90046001600160a01b03166001600160a01b0316633078fff56040518163ffffffff1660e01b8152600401602060405180830381865afa1580156133b6573d6000803e3d6000fd5b505050506040513d601f19601f820116820180604052508101906133da919061490b565b90506000816001600160a01b03166335b03c176040518163ffffffff1660e01b8152600401602060405180830381865afa15801561341c573d6000803e3d6000fd5b505050506040513d601f19601f82011682018060405250810190613440919061490b565b905061344a6140f6565b8760e00151886080015161345e919061493e565b6020828101919091526000548951918a015160405163292c161760e01b8152620100009092046001600160a01b03169263292c1617926134a19290600401614b5f565b602060405180830381865afa1580156134be573d6000803e3d6000fd5b505050506040513d601f19601f820116820180604052508101906134e2919061497f565b8860400181815250506135088860a001518960e001518a61010001518b60c00151613e4e565b8861010001818152505061352f8860a001518960e001518a61012001518b60c00151613ee1565b610120890152600254885160208a01516040808c015160c08d01519151630735e1cd60e11b81526001600160a01b0394851660048201526024810193909352604483015215156064820152911690630e6bc39a90608401600060405180830381600087803b1580156135a057600080fd5b505af11580156135b4573d6000803e3d6000fd5b505050506020880151608089015160c08a01516040516310787e2f60e11b81526004810193909352602483019190915215156044820152600160648201526001600160a01b038316906320f0fc5e90608401600060405180830381600087803b15801561362057600080fd5b505af1158015613634573d6000803e3d6000fd5b5050600b548a5160208c015160408d015160e08e015160808f01516001600160a01b03909516965063ce67edfb9550929391929091613673919061493e565b60018e60c001516040518763ffffffff1660e01b815260040161369b96959493929190614e20565b600060405180830381600087803b1580156136b557600080fd5b505af11580156136c9573d6000803e3d6000fd5b50505050600060029054906101000a90046001600160a01b03166001600160a01b031663c311ab31896040518060c0016040528060008152602001856040015181526020018c60e001518d60800151613722919061493e565b81526020016000815260200160008152602001600015158152506040518363ffffffff1660e01b8152600401613759929190614e8e565b600060405180830381600087803b15801561377357600080fd5b505af1158015613787573d6000803e3d6000fd5b505089516001600160a01b03166000908152600a60209081526040808320828e015184528252808320818e0151845282528083208380529091528120925090506137cf613f5b565b825467ffffffffffffffff191663ffffffff9190911690811764010000000082021763ffffffff60601b1916600160601b91909102179091555060400151969795505050505050565b60008060029054906101000a90046001600160a01b03166001600160a01b0316633078fff56040518163ffffffff1660e01b8152600401602060405180830381865afa15801561386c573d6000803e3d6000fd5b505050506040513d601f19601f82011682018060405250810190613890919061490b565b6001600160a01b03166335b03c176040518163ffffffff1660e01b8152600401602060405180830381865afa1580156138cd573d6000803e3d6000fd5b505050506040513d601f19601f820116820180604052508101906138f1919061490b565b905090565b600060029054906101000a90046001600160a01b03166001600160a01b03166312d43a516040518163ffffffff1660e01b8152600401602060405180830381865afa1580156129af573d6000803e3d6000fd5b6000806000613959878787613fdc565b600254895160208b01516040808d015160c08e015160e08f01519251636ceaca6760e01b81526001600160a01b0395861660048201526024810194909452604484019190915215156064830152608482018c905260a482015260c4810185905260e481018990529295509293509190911690636ceaca6790610104016020604051808303816000875af11580156139f4573d6000803e3d6000fd5b505050506040513d601f19601f82011682018060405250810190613a18919061497f565b875160408051838152602081018690529295506001600160a01b03909116917fe7d34775bf6fd7b34e703a903ef79ab16166ebdffce96a66f4d2f84b6263bb29910160405180910390a25094509492505050565b600054604051638a238ae560e01b81526001600160a01b0362010000909204821660048201819052918416602482015260448101839052638a238ae5906064015b600060405180830381600087803b158015613ac757600080fd5b505af1158015610532573d6000803e3d6000fd5b613ae53083613a6c565b600060029054906101000a90046001600160a01b03166001600160a01b031663fbfa77cf6040518163ffffffff1660e01b8152600401602060405180830381865afa158015613b38573d6000803e3d6000fd5b505050506040513d601f19601f82011682018060405250810190613b5c919061490b565b60405163a481c14b60e01b8152600481018490526001600160a01b038381166024830152919091169063a481c14b90604401613aad565b6000806402540be400606480613ba9878961493e565b613bb3919061496b565b613bbd9088614e57565b613bc7908961493e565b613bd1919061496b565b613bdb919061496b565b905082613bf157613bec8187614e57565b612ced565b612ced8187614ca9565b949350505050565b600080613c10838561493e565b600b54604051632e53fe8760e21b8152600481018990529192506001600160a01b03169063b94ffa1c90602401602060405180830381865afa158015613c5a573d6000803e3d6000fd5b505050506040513d601f19601f82011682018060405250810190613c7e919061497f565b613c8c906305f5e10061493e565b60005482906201000090046001600160a01b03166377a9fdcf8989613cb2576001613cb5565b60005b6040516001600160e01b031960e085901b168152600481019290925260ff166024820152604401602060405180830381865afa158015613cf9573d6000803e3d6000fd5b505050506040513d601f19601f82011682018060405250810190613d1d919061497f565b613d279190614ca9565b11158015612ced5750600b5460405163d627450560e01b8152600481018890528615156024820152604481018390526001600160a01b039091169063d627450590606401602060405180830381865afa158015613d88573d6000803e3d6000fd5b505050506040513d601f19601f82011682018060405250810190612ced9190614b83565b6000828152600c60205260408120548015613dca5780831115613e44565b613dd2613818565b6001600160a01b031663281b693c856040518263ffffffff1660e01b8152600401613dff91815260200190565b602060405180830381865afa158015613e1c573d6000803e3d6000fd5b505050506040513d601f19601f82011682018060405250810190613e40919061497f565b8311155b9150505b92915050565b6000821580613e775750613e696402540be400610384614da2565b613e7586858588612c68565b145b15613ed8576000606485613e8d6103848961493e565b613e97919061496b565b613ea1919061496b565b905082613ec65785811115613eb7576000613ed0565b613ec18187614e57565b613ed0565b613ed08187614ca9565b915050613bfb565b50909392505050565b60008083118015613f175750613efd6402540be400604b614da2565b613f0990600019614da2565b613f1586858588612c68565b125b15613ed8576000606485613f2c604b8961493e565b613f36919061496b565b613f40919061496b565b905082613f5157613ec18187614ca9565b613ed08187614e57565b600061a4b1461480613f6f575062066eed46145b15613fd75760646001600160a01b031663a3b1b31d6040518163ffffffff1660e01b8152600401602060405180830381865afa158015613fb3573d6000803e3d6000fd5b505050506040513d601f19601f820116820180604052508101906138f1919061497f565b504390565b600b546040805160c0808201835286516001600160a01b03908116835260208089015190840190815288850151848601908152928901511515606085019081526080850189815260e08b015160a087019081529651632d28a81760e01b8152955184166004870152915160248601529251604485015291511515606484015290516084830152915160a482015260009283921690632d28a8179060c401602060405180830381865afa158015614096573d6000803e3d6000fd5b505050506040513d601f19601f820116820180604052508101906140ba919061497f565b9050836402540be4006140ce83606461493e565b6140d8919061493e565b6140e2919061496b565b6140ec9084614dd2565b9150935093915050565b604051806101600160405280600081526020016000815260200160008152602001600081526020016000815260200160008152602001600081526020016000815260200160008152602001600081526020016000151581525090565b60405180610140016040528060006001600160a01b0316815260200160008152602001600081526020016000815260200160008152602001600081526020016000151581526020016000815260200160008152602001600081525090565b60008083601f8401126141c257600080fd5b5081356001600160401b038111156141d957600080fd5b6020830191508360208260051b85010111156141f457600080fd5b9250929050565b6000806000806040858703121561421157600080fd5b84356001600160401b038082111561422857600080fd5b614234888389016141b0565b9096509450602087013591508082111561424d57600080fd5b5061425a878288016141b0565b95989497509550505050565b60006080828403121561427857600080fd5b50919050565b634e487b7160e01b600052604160045260246000fd5b60405160c081016001600160401b03811182821017156142c457634e487b7160e01b600052604160045260246000fd5b60405290565b60405161014081016001600160401b03811182821017156142c457634e487b7160e01b600052604160045260246000fd5b6040516101a081016001600160401b03811182821017156142c457634e487b7160e01b600052604160045260246000fd5b60008082840360c081121561434057600080fd5b61434a8585614266565b92506040607f198201121561435e57600080fd5b50604051604081018181106001600160401b038211171561438f57634e487b7160e01b600052604160045260246000fd5b604052608084013564ffffffffff811681146143aa57600080fd5b815260a08401356001600160d81b03811681146143c657600080fd5b6020820152919491935090915050565b600060c082840312156143e857600080fd5b6143f0614294565b9050813581526020820135602082015260408201356040820152606082013560608201526080820135608082015260a082013560a082015292915050565b600060c0828403121561444057600080fd5b612bac83836143d6565b60006020828403121561445c57600080fd5b5035919050565b6001600160a01b038116811461173357600080fd5b803561448381614463565b919050565b801515811461173357600080fd5b803561448381614488565b6000808284036102a08112156144b657600080fd5b6144c085856143d6565b925060bf19016101e0808212156144d657600080fd5b6144de614294565b610140808412156144ee57600080fd5b6144f66142ca565b935061450460c08801614478565b845260e0870135602085015261010080880135604086015261012080890135606087015282890135608087015261016089013560a08701526145496101808a01614496565b60c08701526101a089013560e08701526101c08901359186019190915292870135928401929092529182525061020084013560208201526102208401356040820152610240840135606082015261026084013560808201526102809093013560a08401525092909150565b6020808252825182820181905260009190848201906040850190845b818110156145ec578351835292840192918401916001016145d0565b50909695505050505050565b80356002811061448357600080fd5b6000806000806080858703121561461d57600080fd5b843561462881614463565b93506020850135925060408501359150614644606086016145f8565b905092959194509250565b6000806040838503121561466257600080fd5b50508035926020909101359150565b803563ffffffff8116811461448357600080fd5b60008082840361010081121561469a57600080fd5b6146a48585614266565b92506080607f19820112156146b857600080fd5b50604051608081018181106001600160401b03821117156146e957634e487b7160e01b600052604160045260246000fd5b6040526146f860808501614671565b815261470660a08501614671565b602082015261471760c08501614671565b604082015261472860e08501614671565b6060820152809150509250929050565b60008060008060008060008060008060006101608c8e03121561475a57600080fd5b8b3561476581614463565b9a5060208c013561477581614463565b995060408c013561478581614463565b985060608c013561479581614463565b975060808c01356147a581614463565b965060a08c01356147b581614463565b955060c08c01356147c581614463565b8095505060e08c013593506101008c013592506101208c013591506101408c013590509295989b509295989b9093969950565b60008060006060848603121561480d57600080fd5b505081359360208301359350604090920135919050565b634e487b7160e01b600052603260045260246000fd5b60006020828403121561484c57600080fd5b8135612bac81614463565b60006020828403121561486957600080fd5b612bac826145f8565b634e487b7160e01b600052602160045260246000fd5b805161448381614463565b600060c082840312156148a557600080fd5b6148ad614294565b82516148b881614463565b81526020838101519082015260408301516148d281614463565b80604083015250606083015160608201526080830151608082015260a0830151600481106148ff57600080fd5b60a08201529392505050565b60006020828403121561491d57600080fd5b8151612bac81614463565b634e487b7160e01b600052601160045260246000fd5b8082028115828204841417613e4857613e48614928565b634e487b7160e01b600052601260045260246000fd5b60008261497a5761497a614955565b500490565b60006020828403121561499157600080fd5b5051919050565b600481106149a8576149a8614872565b9052565b60018060a01b038151168252602081015160208301526040810151604083015260608101516149de6060840182614998565b505050565b60c081016149f182866149ac565b608082019390935260a00152919050565b80516001600160a01b031682526020810151602083015260408101516040830152606081015160608301526080810151608083015260a081015160a083015260c0810151614a5460c084018215159052565b5060e08181015190830152610100808201519083015261012090810151910152565b8981526102408101614a8b602083018b614a02565b614a9961016083018a614998565b87610180830152866101a0830152856101c0830152846101e0830152836102008301528215156102208301529a9950505050505050505050565b600c81106149a8576149a8614872565b60408101614af18285614998565b612bac6020830184614ad3565b60808101613e4882846149ac565b6102008101614b1b828a614a02565b9615156101408201526101608101959095526101808501939093526101a08401919091526101c08301526101e090910152919050565b60208101613e488284614ad3565b6001600160a01b03929092168252602082015260400190565b805161448381614488565b600060208284031215614b9557600080fd5b8151612bac81614488565b82815260408101612bac6020830184614ad3565b6001600160a01b039390931683526020830191909152604082015260600190565b60006101a08284031215614be857600080fd5b614bf06142fb565b614bf983614888565b815260208301516020820152604083015160408201526060830151606082015260808301516080820152614c2f60a08401614b78565b60a082015260c0838101519082015260e080840151908201526101008084015190820152610120808401519082015261014080840151908201526101608084015190820152610180928301519281019290925250919050565b600060208284031215614c9a57600080fd5b815160038110612bac57600080fd5b80820180821115613e4857613e48614928565b60006101408284031215614ccf57600080fd5b614cd76142ca565b614ce083614888565b81526020830151602082015260408301516040820152606083015160608201526080830151608082015260a083015160a0820152614d2060c08401614b78565b60c082015260e083810151908201526101008084015190820152610120928301519281019290925250919050565b600060c08284031215614d6057600080fd5b614d68614294565b825181526020830151602082015260408301516040820152606083015160608201526080830151608082015260a08301516148ff81614488565b80820260008212600160ff1b84141615614dbe57614dbe614928565b8181058314821517613e4857613e48614928565b818103600083128015838313168383128216171561146057611460614928565b600082614e0157614e01614955565b600160ff1b821460001984141615614e1b57614e1b614928565b500590565b6001600160a01b0396909616865260208601949094526040850192909252606084015215156080830152151560a082015260c00190565b81810381811115613e4857613e48614928565b60008060408385031215614e7d57600080fd5b505080516020909101519092909150565b6102008101614e9d8285614a02565b82516101408301526020830151610160830152604083015161018083015260608301516101a083015260808301516101c083015260a083015115156101e0830152939250505056fea2646970667358221220e3481a51296794076ee7cfab8945675d9912bd4ce20a31e38ce60fed92d5eb8e64736f6c63430008140033",
  "devdoc": {
    "events": {
      "Initialized(uint8)": {
        "details": "Triggered when the contract has been initialized or reinitialized."
      }
    },
    "kind": "dev",
    "methods": {},
    "version": 1
  },
  "userdoc": {
    "kind": "user",
    "methods": {},
    "version": 1
  },
  "storageLayout": {
    "storage": [
      {
        "astId": 2592,
        "contract": "contracts/TradingCallbacks.sol:TradingCallbacks",
        "label": "_initialized",
        "offset": 0,
        "slot": "0",
        "type": "t_uint8"
      },
      {
        "astId": 2595,
        "contract": "contracts/TradingCallbacks.sol:TradingCallbacks",
        "label": "_initializing",
        "offset": 1,
        "slot": "0",
        "type": "t_bool"
      },
      {
        "astId": 18143,
        "contract": "contracts/TradingCallbacks.sol:TradingCallbacks",
        "label": "storageT",
        "offset": 2,
        "slot": "0",
        "type": "t_contract(StorageInterface)23437"
      },
      {
        "astId": 18146,
        "contract": "contracts/TradingCallbacks.sol:TradingCallbacks",
        "label": "nftRewards",
        "offset": 0,
        "slot": "1",
        "type": "t_contract(NftRewardsInterfaceV6_3_1)22456"
      },
      {
        "astId": 18149,
        "contract": "contracts/TradingCallbacks.sol:TradingCallbacks",
        "label": "pairInfos",
        "offset": 0,
        "slot": "2",
        "type": "t_contract(PairInfosInterface)22724"
      },
      {
        "astId": 18152,
        "contract": "contracts/TradingCallbacks.sol:TradingCallbacks",
        "label": "referrals",
        "offset": 0,
        "slot": "3",
        "type": "t_contract(ReferralsInterface)22922"
      },
      {
        "astId": 18155,
        "contract": "contracts/TradingCallbacks.sol:TradingCallbacks",
        "label": "staking",
        "offset": 0,
        "slot": "4",
        "type": "t_contract(StakingInterface)22930"
      },
      {
        "astId": 18169,
        "contract": "contracts/TradingCallbacks.sol:TradingCallbacks",
        "label": "WETHVaultFeeP",
        "offset": 0,
        "slot": "5",
        "type": "t_uint256"
      },
      {
        "astId": 18171,
        "contract": "contracts/TradingCallbacks.sol:TradingCallbacks",
        "label": "lpFeeP",
        "offset": 0,
        "slot": "6",
        "type": "t_uint256"
      },
      {
        "astId": 18173,
        "contract": "contracts/TradingCallbacks.sol:TradingCallbacks",
        "label": "sssFeeP",
        "offset": 0,
        "slot": "7",
        "type": "t_uint256"
      },
      {
        "astId": 18175,
        "contract": "contracts/TradingCallbacks.sol:TradingCallbacks",
        "label": "isPaused",
        "offset": 0,
        "slot": "8",
        "type": "t_bool"
      },
      {
        "astId": 18177,
        "contract": "contracts/TradingCallbacks.sol:TradingCallbacks",
        "label": "isDone",
        "offset": 1,
        "slot": "8",
        "type": "t_bool"
      },
      {
        "astId": 18179,
        "contract": "contracts/TradingCallbacks.sol:TradingCallbacks",
        "label": "canExecuteTimeout",
        "offset": 0,
        "slot": "9",
        "type": "t_uint256"
      },
      {
        "astId": 18191,
        "contract": "contracts/TradingCallbacks.sol:TradingCallbacks",
        "label": "tradeLastUpdated",
        "offset": 0,
        "slot": "10",
        "type": "t_mapping(t_address,t_mapping(t_uint256,t_mapping(t_uint256,t_mapping(t_enum(TradeType)18333,t_struct(LastUpdated)18300_storage))))"
      },
      {
        "astId": 18194,
        "contract": "contracts/TradingCallbacks.sol:TradingCallbacks",
        "label": "borrowingFees",
        "offset": 0,
        "slot": "11",
        "type": "t_contract(BorrowingFeesInterface)22008"
      },
      {
        "astId": 18198,
        "contract": "contracts/TradingCallbacks.sol:TradingCallbacks",
        "label": "pairMaxLeverage",
        "offset": 0,
        "slot": "12",
        "type": "t_mapping(t_uint256,t_uint256)"
      },
      {
        "astId": 18210,
        "contract": "contracts/TradingCallbacks.sol:TradingCallbacks",
        "label": "tradeData",
        "offset": 0,
        "slot": "13",
        "type": "t_mapping(t_address,t_mapping(t_uint256,t_mapping(t_uint256,t_mapping(t_enum(TradeType)18333,t_struct(TradeData)18305_storage))))"
      }
    ],
    "types": {
      "t_address": {
        "encoding": "inplace",
        "label": "address",
        "numberOfBytes": "20"
      },
      "t_bool": {
        "encoding": "inplace",
        "label": "bool",
        "numberOfBytes": "1"
      },
      "t_contract(BorrowingFeesInterface)22008": {
        "encoding": "inplace",
        "label": "contract BorrowingFeesInterface",
        "numberOfBytes": "20"
      },
      "t_contract(NftRewardsInterfaceV6_3_1)22456": {
        "encoding": "inplace",
        "label": "contract NftRewardsInterfaceV6_3_1",
        "numberOfBytes": "20"
      },
      "t_contract(PairInfosInterface)22724": {
        "encoding": "inplace",
        "label": "contract PairInfosInterface",
        "numberOfBytes": "20"
      },
      "t_contract(ReferralsInterface)22922": {
        "encoding": "inplace",
        "label": "contract ReferralsInterface",
        "numberOfBytes": "20"
      },
      "t_contract(StakingInterface)22930": {
        "encoding": "inplace",
        "label": "contract StakingInterface",
        "numberOfBytes": "20"
      },
      "t_contract(StorageInterface)23437": {
        "encoding": "inplace",
        "label": "contract StorageInterface",
        "numberOfBytes": "20"
      },
      "t_enum(TradeType)18333": {
        "encoding": "inplace",
        "label": "enum TradingCallbacks.TradeType",
        "numberOfBytes": "1"
      },
      "t_mapping(t_address,t_mapping(t_uint256,t_mapping(t_uint256,t_mapping(t_enum(TradeType)18333,t_struct(LastUpdated)18300_storage))))": {
        "encoding": "mapping",
        "key": "t_address",
        "label": "mapping(address => mapping(uint256 => mapping(uint256 => mapping(enum TradingCallbacks.TradeType => struct TradingCallbacks.LastUpdated))))",
        "numberOfBytes": "32",
        "value": "t_mapping(t_uint256,t_mapping(t_uint256,t_mapping(t_enum(TradeType)18333,t_struct(LastUpdated)18300_storage)))"
      },
      "t_mapping(t_address,t_mapping(t_uint256,t_mapping(t_uint256,t_mapping(t_enum(TradeType)18333,t_struct(TradeData)18305_storage))))": {
        "encoding": "mapping",
        "key": "t_address",
        "label": "mapping(address => mapping(uint256 => mapping(uint256 => mapping(enum TradingCallbacks.TradeType => struct TradingCallbacks.TradeData))))",
        "numberOfBytes": "32",
        "value": "t_mapping(t_uint256,t_mapping(t_uint256,t_mapping(t_enum(TradeType)18333,t_struct(TradeData)18305_storage)))"
      },
      "t_mapping(t_enum(TradeType)18333,t_struct(LastUpdated)18300_storage)": {
        "encoding": "mapping",
        "key": "t_enum(TradeType)18333",
        "label": "mapping(enum TradingCallbacks.TradeType => struct TradingCallbacks.LastUpdated)",
        "numberOfBytes": "32",
        "value": "t_struct(LastUpdated)18300_storage"
      },
      "t_mapping(t_enum(TradeType)18333,t_struct(TradeData)18305_storage)": {
        "encoding": "mapping",
        "key": "t_enum(TradeType)18333",
        "label": "mapping(enum TradingCallbacks.TradeType => struct TradingCallbacks.TradeData)",
        "numberOfBytes": "32",
        "value": "t_struct(TradeData)18305_storage"
      },
      "t_mapping(t_uint256,t_mapping(t_enum(TradeType)18333,t_struct(LastUpdated)18300_storage))": {
        "encoding": "mapping",
        "key": "t_uint256",
        "label": "mapping(uint256 => mapping(enum TradingCallbacks.TradeType => struct TradingCallbacks.LastUpdated))",
        "numberOfBytes": "32",
        "value": "t_mapping(t_enum(TradeType)18333,t_struct(LastUpdated)18300_storage)"
      },
      "t_mapping(t_uint256,t_mapping(t_enum(TradeType)18333,t_struct(TradeData)18305_storage))": {
        "encoding": "mapping",
        "key": "t_uint256",
        "label": "mapping(uint256 => mapping(enum TradingCallbacks.TradeType => struct TradingCallbacks.TradeData))",
        "numberOfBytes": "32",
        "value": "t_mapping(t_enum(TradeType)18333,t_struct(TradeData)18305_storage)"
      },
      "t_mapping(t_uint256,t_mapping(t_uint256,t_mapping(t_enum(TradeType)18333,t_struct(LastUpdated)18300_storage)))": {
        "encoding": "mapping",
        "key": "t_uint256",
        "label": "mapping(uint256 => mapping(uint256 => mapping(enum TradingCallbacks.TradeType => struct TradingCallbacks.LastUpdated)))",
        "numberOfBytes": "32",
        "value": "t_mapping(t_uint256,t_mapping(t_enum(TradeType)18333,t_struct(LastUpdated)18300_storage))"
      },
      "t_mapping(t_uint256,t_mapping(t_uint256,t_mapping(t_enum(TradeType)18333,t_struct(TradeData)18305_storage)))": {
        "encoding": "mapping",
        "key": "t_uint256",
        "label": "mapping(uint256 => mapping(uint256 => mapping(enum TradingCallbacks.TradeType => struct TradingCallbacks.TradeData)))",
        "numberOfBytes": "32",
        "value": "t_mapping(t_uint256,t_mapping(t_enum(TradeType)18333,t_struct(TradeData)18305_storage))"
      },
      "t_mapping(t_uint256,t_uint256)": {
        "encoding": "mapping",
        "key": "t_uint256",
        "label": "mapping(uint256 => uint256)",
        "numberOfBytes": "32",
        "value": "t_uint256"
      },
      "t_struct(LastUpdated)18300_storage": {
        "encoding": "inplace",
        "label": "struct TradingCallbacks.LastUpdated",
        "members": [
          {
            "astId": 18293,
            "contract": "contracts/TradingCallbacks.sol:TradingCallbacks",
            "label": "tp",
            "offset": 0,
            "slot": "0",
            "type": "t_uint32"
          },
          {
            "astId": 18295,
            "contract": "contracts/TradingCallbacks.sol:TradingCallbacks",
            "label": "sl",
            "offset": 4,
            "slot": "0",
            "type": "t_uint32"
          },
          {
            "astId": 18297,
            "contract": "contracts/TradingCallbacks.sol:TradingCallbacks",
            "label": "limit",
            "offset": 8,
            "slot": "0",
            "type": "t_uint32"
          },
          {
            "astId": 18299,
            "contract": "contracts/TradingCallbacks.sol:TradingCallbacks",
            "label": "created",
            "offset": 12,
            "slot": "0",
            "type": "t_uint32"
          }
        ],
        "numberOfBytes": "32"
      },
      "t_struct(TradeData)18305_storage": {
        "encoding": "inplace",
        "label": "struct TradingCallbacks.TradeData",
        "members": [
          {
            "astId": 18302,
            "contract": "contracts/TradingCallbacks.sol:TradingCallbacks",
            "label": "maxSlippageP",
            "offset": 0,
            "slot": "0",
            "type": "t_uint40"
          },
          {
            "astId": 18304,
            "contract": "contracts/TradingCallbacks.sol:TradingCallbacks",
            "label": "_placeholder",
            "offset": 5,
            "slot": "0",
            "type": "t_uint216"
          }
        ],
        "numberOfBytes": "32"
      },
      "t_uint216": {
        "encoding": "inplace",
        "label": "uint216",
        "numberOfBytes": "27"
      },
      "t_uint256": {
        "encoding": "inplace",
        "label": "uint256",
        "numberOfBytes": "32"
      },
      "t_uint32": {
        "encoding": "inplace",
        "label": "uint32",
        "numberOfBytes": "4"
      },
      "t_uint40": {
        "encoding": "inplace",
        "label": "uint40",
        "numberOfBytes": "5"
      },
      "t_uint8": {
        "encoding": "inplace",
        "label": "uint8",
        "numberOfBytes": "1"
      }
    }
  }
}