{
  "address": "0x6Adf803aaef612bfd73841cd1ACF712Af1E6DB36",
  "abi": [
    {
      "inputs": [
        {
          "internalType": "address",
          "name": "_token",
          "type": "address"
        }
      ],
      "stateMutability": "nonpayable",
      "type": "constructor"
    },
    {
      "inputs": [],
      "name": "token0",
      "outputs": [
        {
          "internalType": "address",
          "name": "",
          "type": "address"
        }
      ],
      "stateMutability": "view",
      "type": "function"
    }
  ],
  "transactionHash": "0x800b2762c54c63a406d2260f5f037b23e65a1a0bc3156a6a3da45ce74af7f4d7",
  "args": [
    "0xFC9F1387a5AEb3f6160a4152Db056E82d957D29E"
  ],
  "numDeployments": 1,
  "solcInputHash": "c26d611922cac34a38019d138e123c82",
  "bytecode": "0x608060405234801561001057600080fd5b5060405161012338038061012383398101604081905261002f91610054565b600080546001600160a01b0319166001600160a01b0392909216919091179055610084565b60006020828403121561006657600080fd5b81516001600160a01b038116811461007d57600080fd5b9392505050565b6091806100926000396000f3fe6080604052348015600f57600080fd5b506004361060285760003560e01c80630dfe168114602d575b600080fd5b600054603f906001600160a01b031681565b6040516001600160a01b03909116815260200160405180910390f3fea26469706673582212206d72e727ec7767a11cd85aa3f7b2d93a6b8987ea89fc6e03aedbd7f0ac9a5e1a64736f6c634300080e0033",
  "devdoc": {
    "kind": "dev",
    "methods": {},
    "version": 1
  },
  "userdoc": {
    "kind": "user",
    "methods": {},
    "version": 1
  },
  "storageLayout": {
    "storage": [
      {
        "astId": 3,
        "contract": "contracts/mocks/MockLiqPool.sol:MockLiqPool",
        "label": "token0",
        "offset": 0,
        "slot": "0",
        "type": "t_address"
      }
    ],
    "types": {
      "t_address": {
        "encoding": "inplace",
        "label": "address",
        "numberOfBytes": "20"
      }
    }
  }
}