{
  "address": "0xD7da81e5aE9D2AA2a9D5BD39250D75E95cF3fddf",
  "abi": [
    {
      "anonymous": false,
      "inputs": [
        {
          "indexed": true,
          "internalType": "bytes32",
          "name": "id",
          "type": "bytes32"
        }
      ],
      "name": "ChainlinkCancelled",
      "type": "event"
    },
    {
      "anonymous": false,
      "inputs": [
        {
          "indexed": true,
          "internalType": "bytes32",
          "name": "id",
          "type": "bytes32"
        }
      ],
      "name": "ChainlinkFulfilled",
      "type": "event"
    },
    {
      "anonymous": false,
      "inputs": [
        {
          "indexed": true,
          "internalType": "bytes32",
          "name": "id",
          "type": "bytes32"
        }
      ],
      "name": "ChainlinkRequested",
      "type": "event"
    },
    {
      "anonymous": false,
      "inputs": [
        {
          "indexed": false,
          "internalType": "uint8",
          "name": "version",
          "type": "uint8"
        }
      ],
      "name": "Initialized",
      "type": "event"
    },
    {
      "anonymous": false,
      "inputs": [
        {
          "indexed": false,
          "internalType": "bytes32",
          "name": "newValue",
          "type": "bytes32"
        }
      ],
      "name": "JobUpdated",
      "type": "event"
    },
    {
      "anonymous": false,
      "inputs": [
        {
          "indexed": true,
          "internalType": "uint256",
          "name": "newEpoch",
          "type": "uint256"
        },
        {
          "indexed": true,
          "internalType": "uint256",
          "name": "requestId",
          "type": "uint256"
        },
        {
          "indexed": false,
          "internalType": "int256[]",
          "name": "epochMedianValues",
          "type": "int256[]"
        },
        {
          "indexed": false,
          "internalType": "int256",
          "name": "epochAverageValue",
          "type": "int256"
        },
        {
          "indexed": false,
          "internalType": "uint256",
          "name": "newEpochPositiveOpenPnl",
          "type": "uint256"
        }
      ],
      "name": "NewEpoch",
      "type": "event"
    },
    {
      "anonymous": false,
      "inputs": [
        {
          "indexed": true,
          "internalType": "uint256",
          "name": "newEpoch",
          "type": "uint256"
        }
      ],
      "name": "NewEpochForced",
      "type": "event"
    },
    {
      "anonymous": false,
      "inputs": [
        {
          "indexed": true,
          "internalType": "uint256",
          "name": "currEpoch",
          "type": "uint256"
        },
        {
          "indexed": true,
          "internalType": "uint256",
          "name": "requestId",
          "type": "uint256"
        },
        {
          "indexed": false,
          "internalType": "bytes32",
          "name": "job",
          "type": "bytes32"
        },
        {
          "indexed": false,
          "internalType": "uint256",
          "name": "oraclesCount",
          "type": "uint256"
        },
        {
          "indexed": false,
          "internalType": "uint256",
          "name": "linkFeePerNode",
          "type": "uint256"
        }
      ],
      "name": "NextEpochValueRequested",
      "type": "event"
    },
    {
      "anonymous": false,
      "inputs": [
        {
          "indexed": true,
          "internalType": "uint256",
          "name": "currEpoch",
          "type": "uint256"
        },
        {
          "indexed": false,
          "internalType": "uint256",
          "name": "requestsResetCount",
          "type": "uint256"
        }
      ],
      "name": "NextEpochValuesReset",
      "type": "event"
    },
    {
      "anonymous": false,
      "inputs": [
        {
          "indexed": false,
          "internalType": "string",
          "name": "name",
          "type": "string"
        },
        {
          "indexed": false,
          "internalType": "uint256",
          "name": "newValue",
          "type": "uint256"
        }
      ],
      "name": "NumberParamUpdated",
      "type": "event"
    },
    {
      "anonymous": false,
      "inputs": [
        {
          "indexed": false,
          "internalType": "uint256",
          "name": "index",
          "type": "uint256"
        },
        {
          "indexed": false,
          "internalType": "address",
          "name": "newValue",
          "type": "address"
        }
      ],
      "name": "OracleUpdated",
      "type": "event"
    },
    {
      "anonymous": false,
      "inputs": [
        {
          "indexed": false,
          "internalType": "address[]",
          "name": "newValues",
          "type": "address[]"
        }
      ],
      "name": "OraclesUpdated",
      "type": "event"
    },
    {
      "anonymous": false,
      "inputs": [
        {
          "indexed": true,
          "internalType": "uint256",
          "name": "currEpoch",
          "type": "uint256"
        },
        {
          "indexed": true,
          "internalType": "uint256",
          "name": "requestId",
          "type": "uint256"
        },
        {
          "indexed": false,
          "internalType": "int256[]",
          "name": "requestValues",
          "type": "int256[]"
        },
        {
          "indexed": false,
          "internalType": "int256",
          "name": "medianValue",
          "type": "int256"
        }
      ],
      "name": "RequestMedianValueSet",
      "type": "event"
    },
    {
      "anonymous": false,
      "inputs": [
        {
          "indexed": false,
          "internalType": "bool",
          "name": "isLate",
          "type": "bool"
        },
        {
          "indexed": true,
          "internalType": "uint256",
          "name": "currEpoch",
          "type": "uint256"
        },
        {
          "indexed": true,
          "internalType": "uint256",
          "name": "requestId",
          "type": "uint256"
        },
        {
          "indexed": false,
          "internalType": "uint256",
          "name": "oracleRequestId",
          "type": "uint256"
        },
        {
          "indexed": true,
          "internalType": "address",
          "name": "oracle",
          "type": "address"
        },
        {
          "indexed": false,
          "internalType": "int256",
          "name": "requestValue",
          "type": "int256"
        },
        {
          "indexed": false,
          "internalType": "uint256",
          "name": "linkFee",
          "type": "uint256"
        }
      ],
      "name": "RequestValueReceived",
      "type": "event"
    },
    {
      "inputs": [],
      "name": "LINK_FEE_BALANCE_DIVIDER",
      "outputs": [
        {
          "internalType": "uint256",
          "name": "",
          "type": "uint256"
        }
      ],
      "stateMutability": "view",
      "type": "function"
    },
    {
      "inputs": [],
      "name": "forceNewEpoch",
      "outputs": [],
      "stateMutability": "nonpayable",
      "type": "function"
    },
    {
      "inputs": [
        {
          "internalType": "uint256",
          "name": "requestId",
          "type": "uint256"
        },
        {
          "internalType": "int256",
          "name": "value",
          "type": "int256"
        }
      ],
      "name": "fulfill",
      "outputs": [],
      "stateMutability": "nonpayable",
      "type": "function"
    },
    {
      "inputs": [
        {
          "internalType": "uint256",
          "name": "_LINK_FEE_BALANCE_DIVIDER",
          "type": "uint256"
        },
        {
          "internalType": "address",
          "name": "_linkToken",
          "type": "address"
        },
        {
          "internalType": "contract IToken",
          "name": "_vault",
          "type": "address"
        },
        {
          "internalType": "address[]",
          "name": "_oracles",
          "type": "address[]"
        },
        {
          "internalType": "bytes32",
          "name": "_job",
          "type": "bytes32"
        },
        {
          "internalType": "uint256",
          "name": "_minAnswers",
          "type": "uint256"
        }
      ],
      "name": "initialize",
      "outputs": [],
      "stateMutability": "nonpayable",
      "type": "function"
    },
    {
      "inputs": [],
      "name": "job",
      "outputs": [
        {
          "internalType": "bytes32",
          "name": "",
          "type": "bytes32"
        }
      ],
      "stateMutability": "view",
      "type": "function"
    },
    {
      "inputs": [],
      "name": "lastRequestId",
      "outputs": [
        {
          "internalType": "uint256",
          "name": "",
          "type": "uint256"
        }
      ],
      "stateMutability": "view",
      "type": "function"
    },
    {
      "inputs": [],
      "name": "minAnswers",
      "outputs": [
        {
          "internalType": "uint256",
          "name": "",
          "type": "uint256"
        }
      ],
      "stateMutability": "view",
      "type": "function"
    },
    {
      "inputs": [],
      "name": "newOpenPnlRequestOrEpoch",
      "outputs": [],
      "stateMutability": "nonpayable",
      "type": "function"
    },
    {
      "inputs": [
        {
          "internalType": "uint256",
          "name": "",
          "type": "uint256"
        }
      ],
      "name": "nextEpochValues",
      "outputs": [
        {
          "internalType": "int256",
          "name": "",
          "type": "int256"
        }
      ],
      "stateMutability": "view",
      "type": "function"
    },
    {
      "inputs": [],
      "name": "nextEpochValuesLastRequest",
      "outputs": [
        {
          "internalType": "uint256",
          "name": "",
          "type": "uint256"
        }
      ],
      "stateMutability": "view",
      "type": "function"
    },
    {
      "inputs": [],
      "name": "nextEpochValuesRequestCount",
      "outputs": [
        {
          "internalType": "uint256",
          "name": "",
          "type": "uint256"
        }
      ],
      "stateMutability": "view",
      "type": "function"
    },
    {
      "inputs": [
        {
          "internalType": "uint256",
          "name": "",
          "type": "uint256"
        }
      ],
      "name": "oracles",
      "outputs": [
        {
          "internalType": "address",
          "name": "",
          "type": "address"
        }
      ],
      "stateMutability": "view",
      "type": "function"
    },
    {
      "inputs": [
        {
          "internalType": "uint256",
          "name": "",
          "type": "uint256"
        },
        {
          "internalType": "uint256",
          "name": "",
          "type": "uint256"
        }
      ],
      "name": "requestAnswers",
      "outputs": [
        {
          "internalType": "int256",
          "name": "",
          "type": "int256"
        }
      ],
      "stateMutability": "view",
      "type": "function"
    },
    {
      "inputs": [],
      "name": "requestId",
      "outputs": [
        {
          "internalType": "uint256",
          "name": "",
          "type": "uint256"
        }
      ],
      "stateMutability": "view",
      "type": "function"
    },
    {
      "inputs": [
        {
          "internalType": "uint256",
          "name": "",
          "type": "uint256"
        }
      ],
      "name": "requestIds",
      "outputs": [
        {
          "internalType": "uint256",
          "name": "",
          "type": "uint256"
        }
      ],
      "stateMutability": "view",
      "type": "function"
    },
    {
      "inputs": [
        {
          "internalType": "uint256",
          "name": "",
          "type": "uint256"
        }
      ],
      "name": "requests",
      "outputs": [
        {
          "internalType": "bool",
          "name": "initiated",
          "type": "bool"
        },
        {
          "internalType": "bool",
          "name": "active",
          "type": "bool"
        },
        {
          "internalType": "uint256",
          "name": "linkFeePerNode",
          "type": "uint256"
        }
      ],
      "stateMutability": "view",
      "type": "function"
    },
    {
      "inputs": [],
      "name": "requestsCount",
      "outputs": [
        {
          "internalType": "uint256",
          "name": "",
          "type": "uint256"
        }
      ],
      "stateMutability": "view",
      "type": "function"
    },
    {
      "inputs": [],
      "name": "requestsEvery",
      "outputs": [
        {
          "internalType": "uint256",
          "name": "",
          "type": "uint256"
        }
      ],
      "stateMutability": "view",
      "type": "function"
    },
    {
      "inputs": [],
      "name": "requestsStart",
      "outputs": [
        {
          "internalType": "uint256",
          "name": "",
          "type": "uint256"
        }
      ],
      "stateMutability": "view",
      "type": "function"
    },
    {
      "inputs": [],
      "name": "resetNextEpochValueRequests",
      "outputs": [],
      "stateMutability": "nonpayable",
      "type": "function"
    },
    {
      "inputs": [
        {
          "internalType": "bytes32",
          "name": "newValue",
          "type": "bytes32"
        }
      ],
      "name": "updateJob",
      "outputs": [],
      "stateMutability": "nonpayable",
      "type": "function"
    },
    {
      "inputs": [
        {
          "internalType": "uint256",
          "name": "newValue",
          "type": "uint256"
        }
      ],
      "name": "updateMinAnswers",
      "outputs": [],
      "stateMutability": "nonpayable",
      "type": "function"
    },
    {
      "inputs": [
        {
          "internalType": "uint256",
          "name": "_index",
          "type": "uint256"
        },
        {
          "internalType": "address",
          "name": "newValue",
          "type": "address"
        }
      ],
      "name": "updateOracle",
      "outputs": [],
      "stateMutability": "nonpayable",
      "type": "function"
    },
    {
      "inputs": [
        {
          "internalType": "address[]",
          "name": "newValues",
          "type": "address[]"
        }
      ],
      "name": "updateOracles",
      "outputs": [],
      "stateMutability": "nonpayable",
      "type": "function"
    },
    {
      "inputs": [
        {
          "internalType": "uint256",
          "name": "newValue",
          "type": "uint256"
        }
      ],
      "name": "updateRequestsCount",
      "outputs": [],
      "stateMutability": "nonpayable",
      "type": "function"
    },
    {
      "inputs": [
        {
          "internalType": "uint256",
          "name": "newValue",
          "type": "uint256"
        }
      ],
      "name": "updateRequestsEvery",
      "outputs": [],
      "stateMutability": "nonpayable",
      "type": "function"
    },
    {
      "inputs": [
        {
          "internalType": "uint256",
          "name": "newRequestsStart",
          "type": "uint256"
        },
        {
          "internalType": "uint256",
          "name": "newRequestsEvery",
          "type": "uint256"
        },
        {
          "internalType": "uint256",
          "name": "newRequestsCount",
          "type": "uint256"
        }
      ],
      "name": "updateRequestsInfoBatch",
      "outputs": [],
      "stateMutability": "nonpayable",
      "type": "function"
    },
    {
      "inputs": [
        {
          "internalType": "uint256",
          "name": "newValue",
          "type": "uint256"
        }
      ],
      "name": "updateRequestsStart",
      "outputs": [],
      "stateMutability": "nonpayable",
      "type": "function"
    },
    {
      "inputs": [],
      "name": "vault",
      "outputs": [
        {
          "internalType": "contract IToken",
          "name": "",
          "type": "address"
        }
      ],
      "stateMutability": "view",
      "type": "function"
    }
  ],
  "transactionHash": "0x9669d87b81b8ef4a424c1c96a2b25d12cac04f7cd7f11bbfaa726f38aabccde3",
  "args": [],
  "numDeployments": 1,
  "solcInputHash": "321dc83315ac8acf095e971d9347ece1",
  "bytecode": "0x60806040526001600455611c20600955610708600a556004600b5534801561002657600080fd5b506122db806100366000396000f3fe608060405234801561001057600080fd5b506004361061018e5760003560e01c8063a90d67a1116100e4578063ce43963211610092578063ce4396321461033e578063d5a28da314610351578063e704fc511461035a578063eed30f8014610362578063f5ed447c14610375578063fbfa4b7f14610388578063fbfa77cf14610391578063fc2a88c3146103a457600080fd5b8063a90d67a1146102e2578063b006812c146102eb578063b8feee64146102fe578063bea1675814610307578063bef35b7914610310578063c591ff4c14610318578063cb9945a11461032b57600080fd5b80635b69a7d8116101415780635b69a7d81461020557806381d12c58146102305780638796ba8c1461028157806392c3c58b146102a15780639496f9e3146102a95780639dbc2686146102bc578063a5c2aafd146102cf57600080fd5b80626d6cae1461019357806309d19de1146101af5780632eb64ec4146101c457806334fa54a1146101cd578063473d2f21146101e05780635614a211146101e957806358e7ec3c146101fc575b600080fd5b61019c60125481565b6040519081526020015b60405180910390f35b6101c26101bd366004611d3d565b6103ad565b005b61019c60095481565b6101c26101db366004611d5f565b610604565b61019c60115481565b6101c26101f7366004611d5f565b61074a565b61019c600d5481565b610218610213366004611d5f565b61087d565b6040516001600160a01b0390911681526020016101a6565b61026461023e366004611d5f565b6015602052600090815260409020805460019091015460ff808316926101009004169083565b6040805193151584529115156020840152908201526060016101a6565b61019c61028f366004611d5f565b60146020526000908152604090205481565b6101c26108a7565b6101c26102b7366004611d5f565b610acc565b6101c26102ca366004611e55565b610bc5565b6101c26102dd366004611d5f565b610cff565b61019c600a5481565b61019c6102f9366004611d5f565b610e35565b61019c60105481565b61019c600e5481565b6101c2610e56565b6101c2610326366004611e92565b610f45565b61019c610339366004611d3d565b61100c565b6101c261034c366004611ebe565b61103d565b61019c60075481565b6101c26111c5565b6101c2610370366004611eee565b6112d8565b6101c2610383366004611d5f565b61150b565b61019c600b5481565b600854610218906001600160a01b031681565b61019c60135481565b6000828152601460209081526040808320805490849055808452601583528184208251606081018452815460ff808216151583526101009091041615158186015260019190910154818401526008548351630ecce30160e31b815293519295919491936001600160a01b03909116926376671808926004808401939192918290030181865afa158015610444573d6000803e3d6000fd5b505050506040513d601f19601f820116820180604052508101906104689190611f6c565b602080840151604080860151815192158352928201899052810187905260608101919091529091503390849083907f6fca1cd883a83c15d85feb83c610bf23e9509a7d70f817816c26ab9c379b1b729060800160405180910390a481602001516104d3575050505050565b6000838152601660209081526040822080546001810182558184529190922001859055600e548154036105fc57600061055a8280548060200260200160405190810160405280929190818152602001828054801561055057602002820191906000526020600020905b81548152602001906001019080831161053c575b505050505061168b565b600f80546001810182556000919091527f8d1108e10bcb7c27dddfc02ed9d693a074039d026cf4ea4240b40f7d581ac80201819055604051909150859084907f2cc31a5acf549ee44228d82c08e88b92b9d332ad5193a2290a79345e113c0b4c906105c89086908690611f85565b60405180910390a36000858152601560209081526040808320805461ff0019169055601690915281206105fa91611ca5565b505b505050505050565b600860009054906101000a90046001600160a01b03166001600160a01b0316638da5cb5b6040518163ffffffff1660e01b8152600401602060405180830381865afa158015610657573d6000803e3d6000fd5b505050506040513d601f19601f8201168201806040525081019061067b9190611fd5565b6001600160a01b0316336001600160a01b0316146106b45760405162461bcd60e51b81526004016106ab90611ff2565b60405180910390fd5b610e108110156106d65760405162461bcd60e51b81526004016106ab90612016565b620151808111156106f95760405162461bcd60e51b81526004016106ab90612039565b600a81905560408051818152600d918101919091526c7265717565737473457665727960981b606082015260208101829052600080516020612286833981519152906080015b60405180910390a150565b600860009054906101000a90046001600160a01b03166001600160a01b0316638da5cb5b6040518163ffffffff1660e01b8152600401602060405180830381865afa15801561079d573d6000803e3d6000fd5b505050506040513d601f19601f820116820180604052508101906107c19190611fd5565b6001600160a01b0316336001600160a01b0316146107f15760405162461bcd60e51b81526004016106ab90611ff2565b60038110156108125760405162461bcd60e51b81526004016106ab90612016565b600a8111156108335760405162461bcd60e51b81526004016106ab90612039565b600b81905560408051818152600d918101919091526c1c995c5d595cdd1cd0dbdd5b9d609a1b6060820152602081018290526000805160206122868339815191529060800161073f565b600c818154811061088d57600080fd5b6000918252602090912001546001600160a01b0316905081565b600860009054906101000a90046001600160a01b03166001600160a01b031663f851a4406040518163ffffffff1660e01b8152600401602060405180830381865afa1580156108fa573d6000803e3d6000fd5b505050506040513d601f19601f8201168201806040525081019061091e9190611fd5565b6001600160a01b0316336001600160a01b03161461096b5760405162461bcd60e51b815260206004820152600a60248201526927a7262cafa0a226a4a760b11b60448201526064016106ab565b601054806109b15760405162461bcd60e51b81526020600482015260136024820152721393d7d49154555154d517d513d7d49154d155606a1b60448201526064016106ab565b6109bd600f6000611ca5565b6000601081905560118190555b81811015610a1e57600060156000836013546109e69190612072565b8152602081019190915260400160002080549115156101000261ff001990921691909117905580610a1681612089565b9150506109ca565b50600860009054906101000a90046001600160a01b03166001600160a01b031663766718086040518163ffffffff1660e01b8152600401602060405180830381865afa158015610a72573d6000803e3d6000fd5b505050506040513d601f19601f82011682018060405250810190610a969190611f6c565b6040518281527f605f3f824643ee56deaf2717c1581f7ad3df423365aede8e2d771b6b3a30fd2b9060200160405180910390a250565b600860009054906101000a90046001600160a01b03166001600160a01b031663481c6a756040518163ffffffff1660e01b8152600401602060405180830381865afa158015610b1f573d6000803e3d6000fd5b505050506040513d601f19601f82011682018060405250810190610b439190611fd5565b6001600160a01b0316336001600160a01b031614610b735760405162461bcd60e51b81526004016106ab906120a2565b80610b905760405162461bcd60e51b81526004016106ab906120c8565b600d8190556040518181527f9f3fa8c139076940687248e93aed7dda099cf9a90cc38c428cf3d5b6b642fdd49060200161073f565b600860009054906101000a90046001600160a01b03166001600160a01b0316638da5cb5b6040518163ffffffff1660e01b8152600401602060405180830381865afa158015610c18573d6000803e3d6000fd5b505050506040513d601f19601f82011682018060405250810190610c3c9190611fd5565b6001600160a01b0316336001600160a01b031614610c6c5760405162461bcd60e51b81526004016106ab90611ff2565b600e54610c7a9060026120e9565b81511015610cbc5760405162461bcd60e51b815260206004820152600f60248201526e105494905657d513d3d7d4d3505313608a1b60448201526064016106ab565b8051610ccf90600c906020840190611cc3565b507f4b806663ee384a0ada322e70cdf3fd2046424181359f2470a97a6f0cec328e9c8160405161073f9190612108565b600860009054906101000a90046001600160a01b03166001600160a01b0316638da5cb5b6040518163ffffffff1660e01b8152600401602060405180830381865afa158015610d52573d6000803e3d6000fd5b505050506040513d601f19601f82011682018060405250810190610d769190611fd5565b6001600160a01b0316336001600160a01b031614610da65760405162461bcd60e51b81526004016106ab90611ff2565b610e10811015610dc85760405162461bcd60e51b81526004016106ab90612016565b62093a80811115610deb5760405162461bcd60e51b81526004016106ab90612039565b600981905560408051818152600d918101919091526c1c995c5d595cdd1cd4dd185c9d609a1b6060820152602081018290526000805160206122868339815191529060800161073f565b600f8181548110610e4557600080fd5b600091825260209091200154905081565b60115415808015610ee95750600954600860009054906101000a90046001600160a01b03166001600160a01b03166361a8c8c46040518163ffffffff1660e01b8152600401602060405180830381865afa158015610eb8573d6000803e3d6000fd5b505050506040513d601f19601f82011682018060405250810190610edc9190611f6c565b610ee69042612072565b10155b15610ef957610ef661174f565b50565b80158015610f155750600a54601154610f129042612072565b10155b15610ef657600b546010541015610f2e57610ef661174f565b600b54600f5410610ef657610f416118cd565b5050565b600860009054906101000a90046001600160a01b03166001600160a01b0316638da5cb5b6040518163ffffffff1660e01b8152600401602060405180830381865afa158015610f98573d6000803e3d6000fd5b505050506040513d601f19601f82011682018060405250810190610fbc9190611fd5565b6001600160a01b0316336001600160a01b031614610fec5760405162461bcd60e51b81526004016106ab90611ff2565b610ff583610cff565b610ffe82610604565b6110078161074a565b505050565b6016602052816000526040600020818154811061102857600080fd5b90600052602060002001600091509150505481565b600860009054906101000a90046001600160a01b03166001600160a01b0316638da5cb5b6040518163ffffffff1660e01b8152600401602060405180830381865afa158015611090573d6000803e3d6000fd5b505050506040513d601f19601f820116820180604052508101906110b49190611fd5565b6001600160a01b0316336001600160a01b0316146110e45760405162461bcd60e51b81526004016106ab90611ff2565b600c5482106111255760405162461bcd60e51b815260206004820152600d60248201526c494e4445585f544f4f5f42494760981b60448201526064016106ab565b6001600160a01b03811661114b5760405162461bcd60e51b81526004016106ab906120c8565b80600c838154811061115f5761115f612155565b60009182526020918290200180546001600160a01b0319166001600160a01b0393841617905560408051858152928416918301919091527f8323208263554cf72b3658bcdbd0f96f4ccf2c9c919fa30246aaee34537b5509910160405180910390a15050565b600b54600a546111d591906120e9565b6009546111e2919061216b565b600860009054906101000a90046001600160a01b03166001600160a01b03166361a8c8c46040518163ffffffff1660e01b8152600401602060405180830381865afa158015611235573d6000803e3d6000fd5b505050506040513d601f19601f820116820180604052508101906112599190611f6c565b6112639042612072565b101561129d5760405162461bcd60e51b8152602060048201526009602482015268544f4f5f4541524c5960b81b60448201526064016106ab565b60006112a76118cd565b60405190915081907f446b8726654d216fe9781583f0f34cc8ac84d240bb3ad5293c10e2ff831f1eb290600090a250565b600654610100900460ff16158080156112f85750600654600160ff909116105b806113125750303b158015611312575060065460ff166001145b6113755760405162461bcd60e51b815260206004820152602e60248201527f496e697469616c697a61626c653a20636f6e747261637420697320616c72656160448201526d191e481a5b9a5d1a585b1a5e995960921b60648201526084016106ab565b6006805460ff191660011790558015611398576006805461ff0019166101001790555b6000871180156113b057506001600160a01b03861615155b80156113c457506001600160a01b03851615155b80156113d1575060008451115b80156113dc57508215155b80156113e9575060038210155b80156113ff57506113fb600283612199565b6001145b801561141857506002845161141491906121ad565b8211155b6114535760405162461bcd60e51b815260206004820152600c60248201526b57524f4e475f504152414d5360a01b60448201526064016106ab565b6007879055600280546001600160a01b0319166001600160a01b038816179055600880546001600160a01b0319166001600160a01b03871617905583516114a190600c906020870190611cc3565b50600d839055600e829055611c20600955610708600a556004600b5580156105fa576006805461ff0019169055604051600181527f7f26b83ff96e1f2b6a682f133852f6798a09c465da95921460cefb38474024989060200160405180910390a150505050505050565b600860009054906101000a90046001600160a01b03166001600160a01b031663481c6a756040518163ffffffff1660e01b8152600401602060405180830381865afa15801561155e573d6000803e3d6000fd5b505050506040513d601f19601f820116820180604052508101906115829190611fd5565b6001600160a01b0316336001600160a01b0316146115b25760405162461bcd60e51b81526004016106ab906120a2565b60038110156115d35760405162461bcd60e51b81526004016106ab90612016565b6115de600282612199565b6001146116165760405162461bcd60e51b81526004016106ab9060208082526004908201526322ab22a760e11b604082015260600190565b600c54611625906002906121ad565b8111156116445760405162461bcd60e51b81526004016106ab90612039565b600e81905560408051818152600a91810191909152696d696e416e737765727360b01b6060820152602081018290526000805160206122868339815191529060800161073f565b600061169a8260008451611b13565b600282516116a89190612199565b156116d95781600283516116bc91906121ad565b815181106116cc576116cc612155565b6020026020010151611749565b600282600284516116ea91906121ad565b815181106116fa576116fa612155565b60200260200101518360016002865161171391906121ad565b61171d9190612072565b8151811061172d5761172d612155565b602002602001015161173f91906121c1565b6117499190612202565b92915050565b60136000815461175e90612089565b90915550604080516060810182526001808252602080830182815260008486018181526013548252601590935294852093518454915161ffff1990921690151561ff00191617610100911515919091021783555191015560108054916117c383612089565b90915550504260115560125460005b600c54811015611816576012600081546117eb90612089565b909155506013546012546000908152601460205260409020558061180e81612089565b9150506117d2565b5060085460408051630ecce30160e31b8152905183926001600160a01b03169163766718089160048083019260209291908290030181865afa158015611860573d6000803e3d6000fd5b505050506040513d601f19601f820116820180604052508101906118849190611f6c565b600d54600c54604080519283526020830191909152600082820152517fb5f2943c67db1794f39a3b46b95086765f48c7e05d12851dc6607bcdb0bcc7a39181900360600190a350565b6000601081905560118190556008546040805163faf33f2960e01b8152905183926001600160a01b03169163faf33f299160048083019260209291908290030181865afa158015611922573d6000803e3d6000fd5b505050506040513d601f19601f820116820180604052508101906119469190611f6c565b600b54600f54919250600091101561195e57816119b7565b6119b7600f8054806020026020016040519081016040528092919081815260200182805480156119ad57602002820191906000526020600020905b815481526020019060010190808311611999575b5050505050611bd6565b6008549091506000906001600160a01b0316637361a544848385136119dd5760006119df565b845b6040516001600160e01b031960e085901b168152600481019290925260248201526044016020604051808303816000875af1158015611a22573d6000803e3d6000fd5b505050506040513d601f19601f82011682018060405250810190611a469190611f6c565b9050600860009054906101000a90046001600160a01b03166001600160a01b031663766718086040518163ffffffff1660e01b8152600401602060405180830381865afa158015611a9b573d6000803e3d6000fd5b505050506040513d601f19601f82011682018060405250810190611abf9190611f6c565b9350601354847f263c5efc95bb2e2134e3fc52ae914fbd38e2381f37d95ae011a56f996578bf17600f8585604051611af993929190612230565b60405180910390a3611b0d600f6000611ca5565b50505090565b808210611b1f57505050565b60008290506000848281518110611b3857611b38612155565b602002602001015190506000846001611b51919061216b565b90505b83811015611ba35781868281518110611b6f57611b6f612155565b60200260200101511215611b9357611b938682611b8b86612089565b955085611c32565b611b9c81612089565b9050611b54565b50611baf858584611c32565b611bba858584611b13565b611bcf85611bc984600161216b565b85611b13565b5050505050565b60008060005b8351811015611c1e57838181518110611bf757611bf7612155565b602002602001015182611c0a91906121c1565b915080611c1681612089565b915050611bdc565b508251611c2b9082612202565b9392505050565b828181518110611c4457611c44612155565b6020026020010151838381518110611c5e57611c5e612155565b6020026020010151848481518110611c7857611c78612155565b60200260200101858481518110611c9157611c91612155565b602090810291909101019190915252505050565b5080546000825590600052602060002090810190610ef69190611d28565b828054828255906000526020600020908101928215611d18579160200282015b82811115611d1857825182546001600160a01b0319166001600160a01b03909116178255602090920191600190910190611ce3565b50611d24929150611d28565b5090565b5b80821115611d245760008155600101611d29565b60008060408385031215611d5057600080fd5b50508035926020909101359150565b600060208284031215611d7157600080fd5b5035919050565b634e487b7160e01b600052604160045260246000fd5b6001600160a01b0381168114610ef657600080fd5b8035611dae81611d8e565b919050565b600082601f830112611dc457600080fd5b8135602067ffffffffffffffff80831115611de157611de1611d78565b8260051b604051601f19603f83011681018181108482111715611e0657611e06611d78565b604052938452858101830193838101925087851115611e2457600080fd5b83870191505b84821015611e4a57611e3b82611da3565b83529183019190830190611e2a565b979650505050505050565b600060208284031215611e6757600080fd5b813567ffffffffffffffff811115611e7e57600080fd5b611e8a84828501611db3565b949350505050565b600080600060608486031215611ea757600080fd5b505081359360208301359350604090920135919050565b60008060408385031215611ed157600080fd5b823591506020830135611ee381611d8e565b809150509250929050565b60008060008060008060c08789031215611f0757600080fd5b863595506020870135611f1981611d8e565b94506040870135611f2981611d8e565b9350606087013567ffffffffffffffff811115611f4557600080fd5b611f5189828a01611db3565b9350506080870135915060a087013590509295509295509295565b600060208284031215611f7e57600080fd5b5051919050565b6000604082016040835280855480835260608501915086600052602092508260002060005b82811015611fc657815484529284019260019182019101611faa565b50505092019290925292915050565b600060208284031215611fe757600080fd5b8151611c2b81611d8e565b6020808252600a908201526927a7262cafa7aba722a960b11b604082015260600190565b6020808252600990820152682122a627abafa6a4a760b91b604082015260600190565b602080825260099082015268082849eac8abe9a82b60bb1b604082015260600190565b634e487b7160e01b600052601160045260246000fd5b6000828210156120845761208461205c565b500390565b60006001820161209b5761209b61205c565b5060010190565b6020808252600c908201526b27a7262cafa6a0a720a3a2a960a11b604082015260600190565b602080825260079082015266056414c55455f360cc1b604082015260600190565b60008160001904831182151516156121035761210361205c565b500290565b6020808252825182820181905260009190848201906040850190845b818110156121495783516001600160a01b031683529284019291840191600101612124565b50909695505050505050565b634e487b7160e01b600052603260045260246000fd5b6000821982111561217e5761217e61205c565b500190565b634e487b7160e01b600052601260045260246000fd5b6000826121a8576121a8612183565b500690565b6000826121bc576121bc612183565b500490565b600080821280156001600160ff1b03849003851316156121e3576121e361205c565b600160ff1b83900384128116156121fc576121fc61205c565b50500190565b60008261221157612211612183565b600160ff1b82146000198414161561222b5761222b61205c565b500590565b6000606082016060835280865480835260808501915087600052602092508260002060005b8281101561227157815484529284019260019182019101612255565b50505090830194909452506040015291905056fe127735ae9d047cae55da37db2c8ee184c735aacd68cef068d4e70be6a41661d9a2646970667358221220989c1aa291783292c963c886472d7919ae84a276790c99a3773b79364c308b3a64736f6c634300080f0033",
  "devdoc": {
    "kind": "dev",
    "methods": {},
    "version": 1
  },
  "userdoc": {
    "kind": "user",
    "methods": {},
    "version": 1
  },
  "storageLayout": {
    "storage": [
      {
        "astId": 319,
        "contract": "contracts/OpenPnlFeed.sol:OpenPnlFeed",
        "label": "s_ens",
        "offset": 0,
        "slot": "0",
        "type": "t_contract(ENSInterface)974"
      },
      {
        "astId": 321,
        "contract": "contracts/OpenPnlFeed.sol:OpenPnlFeed",
        "label": "s_ensNode",
        "offset": 0,
        "slot": "1",
        "type": "t_bytes32"
      },
      {
        "astId": 324,
        "contract": "contracts/OpenPnlFeed.sol:OpenPnlFeed",
        "label": "s_link",
        "offset": 0,
        "slot": "2",
        "type": "t_contract(LinkTokenInterface)1069"
      },
      {
        "astId": 327,
        "contract": "contracts/OpenPnlFeed.sol:OpenPnlFeed",
        "label": "s_oracle",
        "offset": 0,
        "slot": "3",
        "type": "t_contract(OperatorInterface)1149"
      },
      {
        "astId": 330,
        "contract": "contracts/OpenPnlFeed.sol:OpenPnlFeed",
        "label": "s_requestCount",
        "offset": 0,
        "slot": "4",
        "type": "t_uint256"
      },
      {
        "astId": 334,
        "contract": "contracts/OpenPnlFeed.sol:OpenPnlFeed",
        "label": "s_pendingRequests",
        "offset": 0,
        "slot": "5",
        "type": "t_mapping(t_bytes32,t_address)"
      },
      {
        "astId": 2182,
        "contract": "contracts/OpenPnlFeed.sol:OpenPnlFeed",
        "label": "_initialized",
        "offset": 0,
        "slot": "6",
        "type": "t_uint8"
      },
      {
        "astId": 2185,
        "contract": "contracts/OpenPnlFeed.sol:OpenPnlFeed",
        "label": "_initializing",
        "offset": 1,
        "slot": "6",
        "type": "t_bool"
      },
      {
        "astId": 2772,
        "contract": "contracts/OpenPnlFeed.sol:OpenPnlFeed",
        "label": "LINK_FEE_BALANCE_DIVIDER",
        "offset": 0,
        "slot": "7",
        "type": "t_uint256"
      },
      {
        "astId": 2796,
        "contract": "contracts/OpenPnlFeed.sol:OpenPnlFeed",
        "label": "vault",
        "offset": 0,
        "slot": "8",
        "type": "t_contract(IToken)4012"
      },
      {
        "astId": 2799,
        "contract": "contracts/OpenPnlFeed.sol:OpenPnlFeed",
        "label": "requestsStart",
        "offset": 0,
        "slot": "9",
        "type": "t_uint256"
      },
      {
        "astId": 2802,
        "contract": "contracts/OpenPnlFeed.sol:OpenPnlFeed",
        "label": "requestsEvery",
        "offset": 0,
        "slot": "10",
        "type": "t_uint256"
      },
      {
        "astId": 2805,
        "contract": "contracts/OpenPnlFeed.sol:OpenPnlFeed",
        "label": "requestsCount",
        "offset": 0,
        "slot": "11",
        "type": "t_uint256"
      },
      {
        "astId": 2808,
        "contract": "contracts/OpenPnlFeed.sol:OpenPnlFeed",
        "label": "oracles",
        "offset": 0,
        "slot": "12",
        "type": "t_array(t_address)dyn_storage"
      },
      {
        "astId": 2810,
        "contract": "contracts/OpenPnlFeed.sol:OpenPnlFeed",
        "label": "job",
        "offset": 0,
        "slot": "13",
        "type": "t_bytes32"
      },
      {
        "astId": 2812,
        "contract": "contracts/OpenPnlFeed.sol:OpenPnlFeed",
        "label": "minAnswers",
        "offset": 0,
        "slot": "14",
        "type": "t_uint256"
      },
      {
        "astId": 2815,
        "contract": "contracts/OpenPnlFeed.sol:OpenPnlFeed",
        "label": "nextEpochValues",
        "offset": 0,
        "slot": "15",
        "type": "t_array(t_int256)dyn_storage"
      },
      {
        "astId": 2817,
        "contract": "contracts/OpenPnlFeed.sol:OpenPnlFeed",
        "label": "nextEpochValuesRequestCount",
        "offset": 0,
        "slot": "16",
        "type": "t_uint256"
      },
      {
        "astId": 2819,
        "contract": "contracts/OpenPnlFeed.sol:OpenPnlFeed",
        "label": "nextEpochValuesLastRequest",
        "offset": 0,
        "slot": "17",
        "type": "t_uint256"
      },
      {
        "astId": 2821,
        "contract": "contracts/OpenPnlFeed.sol:OpenPnlFeed",
        "label": "requestId",
        "offset": 0,
        "slot": "18",
        "type": "t_uint256"
      },
      {
        "astId": 2823,
        "contract": "contracts/OpenPnlFeed.sol:OpenPnlFeed",
        "label": "lastRequestId",
        "offset": 0,
        "slot": "19",
        "type": "t_uint256"
      },
      {
        "astId": 2827,
        "contract": "contracts/OpenPnlFeed.sol:OpenPnlFeed",
        "label": "requestIds",
        "offset": 0,
        "slot": "20",
        "type": "t_mapping(t_uint256,t_uint256)"
      },
      {
        "astId": 2832,
        "contract": "contracts/OpenPnlFeed.sol:OpenPnlFeed",
        "label": "requests",
        "offset": 0,
        "slot": "21",
        "type": "t_mapping(t_uint256,t_struct(Request)2844_storage)"
      },
      {
        "astId": 2837,
        "contract": "contracts/OpenPnlFeed.sol:OpenPnlFeed",
        "label": "requestAnswers",
        "offset": 0,
        "slot": "22",
        "type": "t_mapping(t_uint256,t_array(t_int256)dyn_storage)"
      }
    ],
    "types": {
      "t_address": {
        "encoding": "inplace",
        "label": "address",
        "numberOfBytes": "20"
      },
      "t_array(t_address)dyn_storage": {
        "base": "t_address",
        "encoding": "dynamic_array",
        "label": "address[]",
        "numberOfBytes": "32"
      },
      "t_array(t_int256)dyn_storage": {
        "base": "t_int256",
        "encoding": "dynamic_array",
        "label": "int256[]",
        "numberOfBytes": "32"
      },
      "t_bool": {
        "encoding": "inplace",
        "label": "bool",
        "numberOfBytes": "1"
      },
      "t_bytes32": {
        "encoding": "inplace",
        "label": "bytes32",
        "numberOfBytes": "32"
      },
      "t_contract(ENSInterface)974": {
        "encoding": "inplace",
        "label": "contract ENSInterface",
        "numberOfBytes": "20"
      },
      "t_contract(IToken)4012": {
        "encoding": "inplace",
        "label": "contract IToken",
        "numberOfBytes": "20"
      },
      "t_contract(LinkTokenInterface)1069": {
        "encoding": "inplace",
        "label": "contract LinkTokenInterface",
        "numberOfBytes": "20"
      },
      "t_contract(OperatorInterface)1149": {
        "encoding": "inplace",
        "label": "contract OperatorInterface",
        "numberOfBytes": "20"
      },
      "t_int256": {
        "encoding": "inplace",
        "label": "int256",
        "numberOfBytes": "32"
      },
      "t_mapping(t_bytes32,t_address)": {
        "encoding": "mapping",
        "key": "t_bytes32",
        "label": "mapping(bytes32 => address)",
        "numberOfBytes": "32",
        "value": "t_address"
      },
      "t_mapping(t_uint256,t_array(t_int256)dyn_storage)": {
        "encoding": "mapping",
        "key": "t_uint256",
        "label": "mapping(uint256 => int256[])",
        "numberOfBytes": "32",
        "value": "t_array(t_int256)dyn_storage"
      },
      "t_mapping(t_uint256,t_struct(Request)2844_storage)": {
        "encoding": "mapping",
        "key": "t_uint256",
        "label": "mapping(uint256 => struct OpenPnlFeed.Request)",
        "numberOfBytes": "32",
        "value": "t_struct(Request)2844_storage"
      },
      "t_mapping(t_uint256,t_uint256)": {
        "encoding": "mapping",
        "key": "t_uint256",
        "label": "mapping(uint256 => uint256)",
        "numberOfBytes": "32",
        "value": "t_uint256"
      },
      "t_struct(Request)2844_storage": {
        "encoding": "inplace",
        "label": "struct OpenPnlFeed.Request",
        "members": [
          {
            "astId": 2839,
            "contract": "contracts/OpenPnlFeed.sol:OpenPnlFeed",
            "label": "initiated",
            "offset": 0,
            "slot": "0",
            "type": "t_bool"
          },
          {
            "astId": 2841,
            "contract": "contracts/OpenPnlFeed.sol:OpenPnlFeed",
            "label": "active",
            "offset": 1,
            "slot": "0",
            "type": "t_bool"
          },
          {
            "astId": 2843,
            "contract": "contracts/OpenPnlFeed.sol:OpenPnlFeed",
            "label": "linkFeePerNode",
            "offset": 0,
            "slot": "1",
            "type": "t_uint256"
          }
        ],
        "numberOfBytes": "64"
      },
      "t_uint256": {
        "encoding": "inplace",
        "label": "uint256",
        "numberOfBytes": "32"
      },
      "t_uint8": {
        "encoding": "inplace",
        "label": "uint8",
        "numberOfBytes": "1"
      }
    }
  }
}