{
  "address": "0x2837389556814908EDf75b7e81f0FfFBC62B26DC",
  "abi": [
    {
      "anonymous": false,
      "inputs": [
        {
          "indexed": true,
          "internalType": "bytes32",
          "name": "id",
          "type": "bytes32"
        }
      ],
      "name": "ChainlinkCancelled",
      "type": "event"
    },
    {
      "anonymous": false,
      "inputs": [
        {
          "indexed": true,
          "internalType": "bytes32",
          "name": "id",
          "type": "bytes32"
        }
      ],
      "name": "ChainlinkFulfilled",
      "type": "event"
    },
    {
      "anonymous": false,
      "inputs": [
        {
          "indexed": true,
          "internalType": "bytes32",
          "name": "id",
          "type": "bytes32"
        }
      ],
      "name": "ChainlinkRequested",
      "type": "event"
    },
    {
      "anonymous": false,
      "inputs": [
        {
          "indexed": false,
          "internalType": "uint8",
          "name": "version",
          "type": "uint8"
        }
      ],
      "name": "Initialized",
      "type": "event"
    },
    {
      "anonymous": false,
      "inputs": [
        {
          "indexed": false,
          "internalType": "bytes32",
          "name": "newValue",
          "type": "bytes32"
        }
      ],
      "name": "JobUpdated",
      "type": "event"
    },
    {
      "anonymous": false,
      "inputs": [
        {
          "indexed": true,
          "internalType": "uint256",
          "name": "currEpoch",
          "type": "uint256"
        },
        {
          "indexed": false,
          "internalType": "int256[]",
          "name": "requestValues",
          "type": "int256[]"
        },
        {
          "indexed": false,
          "internalType": "int256",
          "name": "medianValue",
          "type": "int256"
        }
      ],
      "name": "MedianValueSet",
      "type": "event"
    },
    {
      "anonymous": false,
      "inputs": [
        {
          "indexed": true,
          "internalType": "uint256",
          "name": "newEpoch",
          "type": "uint256"
        },
        {
          "indexed": true,
          "internalType": "uint256",
          "name": "requestId",
          "type": "uint256"
        },
        {
          "indexed": false,
          "internalType": "int256[]",
          "name": "epochMedianValues",
          "type": "int256[]"
        },
        {
          "indexed": false,
          "internalType": "int256",
          "name": "epochAverageValue",
          "type": "int256"
        },
        {
          "indexed": false,
          "internalType": "uint256",
          "name": "newEpochPositiveOpenPnl",
          "type": "uint256"
        }
      ],
      "name": "NewEpoch",
      "type": "event"
    },
    {
      "anonymous": false,
      "inputs": [
        {
          "indexed": true,
          "internalType": "uint256",
          "name": "newEpoch",
          "type": "uint256"
        }
      ],
      "name": "NewEpochForced",
      "type": "event"
    },
    {
      "anonymous": false,
      "inputs": [
        {
          "indexed": true,
          "internalType": "uint256",
          "name": "currEpoch",
          "type": "uint256"
        },
        {
          "indexed": true,
          "internalType": "uint256",
          "name": "requestId",
          "type": "uint256"
        },
        {
          "indexed": false,
          "internalType": "bytes32",
          "name": "job",
          "type": "bytes32"
        },
        {
          "indexed": false,
          "internalType": "uint256",
          "name": "oraclesCount",
          "type": "uint256"
        },
        {
          "indexed": false,
          "internalType": "uint256",
          "name": "linkFeePerNode",
          "type": "uint256"
        }
      ],
      "name": "NextEpochValueRequested",
      "type": "event"
    },
    {
      "anonymous": false,
      "inputs": [
        {
          "indexed": true,
          "internalType": "uint256",
          "name": "currEpoch",
          "type": "uint256"
        },
        {
          "indexed": false,
          "internalType": "uint256",
          "name": "requestsResetCount",
          "type": "uint256"
        }
      ],
      "name": "NextEpochValuesReset",
      "type": "event"
    },
    {
      "anonymous": false,
      "inputs": [
        {
          "indexed": false,
          "internalType": "string",
          "name": "name",
          "type": "string"
        },
        {
          "indexed": false,
          "internalType": "uint256",
          "name": "newValue",
          "type": "uint256"
        }
      ],
      "name": "NumberParamUpdated",
      "type": "event"
    },
    {
      "anonymous": false,
      "inputs": [
        {
          "indexed": false,
          "internalType": "uint256",
          "name": "index",
          "type": "uint256"
        },
        {
          "indexed": false,
          "internalType": "address",
          "name": "newValue",
          "type": "address"
        }
      ],
      "name": "OracleUpdated",
      "type": "event"
    },
    {
      "anonymous": false,
      "inputs": [
        {
          "indexed": false,
          "internalType": "address[]",
          "name": "newValues",
          "type": "address[]"
        }
      ],
      "name": "OraclesUpdated",
      "type": "event"
    },
    {
      "anonymous": false,
      "inputs": [
        {
          "indexed": true,
          "internalType": "int256",
          "name": "value",
          "type": "int256"
        },
        {
          "indexed": true,
          "internalType": "uint256",
          "name": "currEpoch",
          "type": "uint256"
        }
      ],
      "name": "ValueReceived",
      "type": "event"
    },
    {
      "inputs": [],
      "name": "LINK_FEE_BALANCE_DIVIDER",
      "outputs": [
        {
          "internalType": "uint256",
          "name": "",
          "type": "uint256"
        }
      ],
      "stateMutability": "view",
      "type": "function"
    },
    {
      "inputs": [
        {
          "internalType": "uint256",
          "name": "",
          "type": "uint256"
        }
      ],
      "name": "answers",
      "outputs": [
        {
          "internalType": "int256",
          "name": "",
          "type": "int256"
        }
      ],
      "stateMutability": "view",
      "type": "function"
    },
    {
      "inputs": [],
      "name": "couldFeedPnl",
      "outputs": [
        {
          "internalType": "bool",
          "name": "",
          "type": "bool"
        },
        {
          "internalType": "bool",
          "name": "",
          "type": "bool"
        }
      ],
      "stateMutability": "view",
      "type": "function"
    },
    {
      "inputs": [],
      "name": "forceNewEpoch",
      "outputs": [],
      "stateMutability": "nonpayable",
      "type": "function"
    },
    {
      "inputs": [
        {
          "internalType": "int256",
          "name": "value",
          "type": "int256"
        }
      ],
      "name": "fulfill",
      "outputs": [],
      "stateMutability": "nonpayable",
      "type": "function"
    },
    {
      "inputs": [
        {
          "internalType": "uint256",
          "name": "_LINK_FEE_BALANCE_DIVIDER",
          "type": "uint256"
        },
        {
          "internalType": "address",
          "name": "_linkToken",
          "type": "address"
        },
        {
          "internalType": "contract IToken",
          "name": "_vault",
          "type": "address"
        },
        {
          "internalType": "address[]",
          "name": "_oracles",
          "type": "address[]"
        },
        {
          "internalType": "bytes32",
          "name": "_job",
          "type": "bytes32"
        },
        {
          "internalType": "uint256",
          "name": "_minAnswers",
          "type": "uint256"
        }
      ],
      "name": "initialize",
      "outputs": [],
      "stateMutability": "nonpayable",
      "type": "function"
    },
    {
      "inputs": [],
      "name": "job",
      "outputs": [
        {
          "internalType": "bytes32",
          "name": "",
          "type": "bytes32"
        }
      ],
      "stateMutability": "view",
      "type": "function"
    },
    {
      "inputs": [],
      "name": "lastRequestId",
      "outputs": [
        {
          "internalType": "uint256",
          "name": "",
          "type": "uint256"
        }
      ],
      "stateMutability": "view",
      "type": "function"
    },
    {
      "inputs": [],
      "name": "minAnswers",
      "outputs": [
        {
          "internalType": "uint256",
          "name": "",
          "type": "uint256"
        }
      ],
      "stateMutability": "view",
      "type": "function"
    },
    {
      "inputs": [
        {
          "internalType": "uint256",
          "name": "",
          "type": "uint256"
        }
      ],
      "name": "nextEpochValues",
      "outputs": [
        {
          "internalType": "int256",
          "name": "",
          "type": "int256"
        }
      ],
      "stateMutability": "view",
      "type": "function"
    },
    {
      "inputs": [],
      "name": "nextEpochValuesLastRequest",
      "outputs": [
        {
          "internalType": "uint256",
          "name": "",
          "type": "uint256"
        }
      ],
      "stateMutability": "view",
      "type": "function"
    },
    {
      "inputs": [],
      "name": "nextEpochValuesRequestCount",
      "outputs": [
        {
          "internalType": "uint256",
          "name": "",
          "type": "uint256"
        }
      ],
      "stateMutability": "view",
      "type": "function"
    },
    {
      "inputs": [
        {
          "internalType": "uint256",
          "name": "",
          "type": "uint256"
        }
      ],
      "name": "oracles",
      "outputs": [
        {
          "internalType": "address",
          "name": "",
          "type": "address"
        }
      ],
      "stateMutability": "view",
      "type": "function"
    },
    {
      "inputs": [
        {
          "internalType": "uint256",
          "name": "",
          "type": "uint256"
        },
        {
          "internalType": "uint256",
          "name": "",
          "type": "uint256"
        }
      ],
      "name": "requestAnswers",
      "outputs": [
        {
          "internalType": "int256",
          "name": "",
          "type": "int256"
        }
      ],
      "stateMutability": "view",
      "type": "function"
    },
    {
      "inputs": [],
      "name": "requestId",
      "outputs": [
        {
          "internalType": "uint256",
          "name": "",
          "type": "uint256"
        }
      ],
      "stateMutability": "view",
      "type": "function"
    },
    {
      "inputs": [
        {
          "internalType": "uint256",
          "name": "",
          "type": "uint256"
        }
      ],
      "name": "requestIds",
      "outputs": [
        {
          "internalType": "uint256",
          "name": "",
          "type": "uint256"
        }
      ],
      "stateMutability": "view",
      "type": "function"
    },
    {
      "inputs": [
        {
          "internalType": "uint256",
          "name": "",
          "type": "uint256"
        }
      ],
      "name": "requests",
      "outputs": [
        {
          "internalType": "bool",
          "name": "initiated",
          "type": "bool"
        },
        {
          "internalType": "bool",
          "name": "active",
          "type": "bool"
        },
        {
          "internalType": "uint256",
          "name": "linkFeePerNode",
          "type": "uint256"
        }
      ],
      "stateMutability": "view",
      "type": "function"
    },
    {
      "inputs": [],
      "name": "requestsCount",
      "outputs": [
        {
          "internalType": "uint256",
          "name": "",
          "type": "uint256"
        }
      ],
      "stateMutability": "view",
      "type": "function"
    },
    {
      "inputs": [],
      "name": "requestsEvery",
      "outputs": [
        {
          "internalType": "uint256",
          "name": "",
          "type": "uint256"
        }
      ],
      "stateMutability": "view",
      "type": "function"
    },
    {
      "inputs": [],
      "name": "requestsStart",
      "outputs": [
        {
          "internalType": "uint256",
          "name": "",
          "type": "uint256"
        }
      ],
      "stateMutability": "view",
      "type": "function"
    },
    {
      "inputs": [],
      "name": "resetNextEpochValueRequests",
      "outputs": [],
      "stateMutability": "nonpayable",
      "type": "function"
    },
    {
      "inputs": [
        {
          "internalType": "bytes32",
          "name": "newValue",
          "type": "bytes32"
        }
      ],
      "name": "updateJob",
      "outputs": [],
      "stateMutability": "nonpayable",
      "type": "function"
    },
    {
      "inputs": [
        {
          "internalType": "uint256",
          "name": "newValue",
          "type": "uint256"
        }
      ],
      "name": "updateMinAnswers",
      "outputs": [],
      "stateMutability": "nonpayable",
      "type": "function"
    },
    {
      "inputs": [
        {
          "internalType": "uint256",
          "name": "_index",
          "type": "uint256"
        },
        {
          "internalType": "address",
          "name": "newValue",
          "type": "address"
        }
      ],
      "name": "updateOracle",
      "outputs": [],
      "stateMutability": "nonpayable",
      "type": "function"
    },
    {
      "inputs": [
        {
          "internalType": "address[]",
          "name": "newValues",
          "type": "address[]"
        }
      ],
      "name": "updateOracles",
      "outputs": [],
      "stateMutability": "nonpayable",
      "type": "function"
    },
    {
      "inputs": [
        {
          "internalType": "uint256",
          "name": "newValue",
          "type": "uint256"
        }
      ],
      "name": "updateRequestsCount",
      "outputs": [],
      "stateMutability": "nonpayable",
      "type": "function"
    },
    {
      "inputs": [
        {
          "internalType": "uint256",
          "name": "newValue",
          "type": "uint256"
        }
      ],
      "name": "updateRequestsEvery",
      "outputs": [],
      "stateMutability": "nonpayable",
      "type": "function"
    },
    {
      "inputs": [
        {
          "internalType": "uint256",
          "name": "newRequestsStart",
          "type": "uint256"
        },
        {
          "internalType": "uint256",
          "name": "newRequestsEvery",
          "type": "uint256"
        },
        {
          "internalType": "uint256",
          "name": "newRequestsCount",
          "type": "uint256"
        }
      ],
      "name": "updateRequestsInfoBatch",
      "outputs": [],
      "stateMutability": "nonpayable",
      "type": "function"
    },
    {
      "inputs": [
        {
          "internalType": "uint256",
          "name": "newValue",
          "type": "uint256"
        }
      ],
      "name": "updateRequestsStart",
      "outputs": [],
      "stateMutability": "nonpayable",
      "type": "function"
    },
    {
      "inputs": [],
      "name": "vault",
      "outputs": [
        {
          "internalType": "contract IToken",
          "name": "",
          "type": "address"
        }
      ],
      "stateMutability": "view",
      "type": "function"
    }
  ],
  "transactionHash": "0x03da744dc0f8b1d542302bc4ffe1860644cafac4f21a27599647fe6ae958db4b",
  "args": [],
  "numDeployments": 3,
  "solcInputHash": "fe76d8cc9aaf96f36ace869b5e8b0c55",
  "bytecode": "0x60806040526001600455611c20600955610708600a556004600b5534801561002657600080fd5b506120c8806100366000396000f3fe608060405234801561001057600080fd5b50600436106101995760003560e01c8063a5c2aafd116100e4578063ce43963211610092578063ce43963214610373578063d5a28da314610386578063e704fc511461038f578063eed30f8014610397578063f5ed447c146103aa578063fbfa4b7f146103bd578063fbfa77cf146103c6578063fc2a88c3146103d957600080fd5b8063a5c2aafd1461030c578063a90d67a11461031f578063b006812c14610328578063b8feee641461033b578063bea1675814610344578063c591ff4c1461034d578063cb9945a11461036057600080fd5b806358e7ec3c1161014c57806358e7ec3c146102265780635b69a7d81461022f57806381d12c581461025a5780638796ba8c146102ab57806392c3c58b146102cb5780639496f9e3146102d35780639cf4687a146102e65780639dbc2686146102f957600080fd5b80626d6cae1461019e57806317599cc5146101ba5780632eb64ec4146101cd57806334fa54a1146101d6578063473d2f21146101eb5780634f13bccf146101f45780635614a21114610213575b600080fd5b6101a760135481565b6040519081526020015b60405180910390f35b6101a76101c8366004611b47565b6103e2565b6101a760095481565b6101e96101e4366004611b47565b610403565b005b6101a760115481565b6101fc610549565b6040805192151583529015156020830152016101b1565b6101e9610221366004611b47565b610630565b6101a7600d5481565b61024261023d366004611b47565b610763565b6040516001600160a01b0390911681526020016101b1565b61028e610268366004611b47565b6016602052600090815260409020805460019091015460ff808316926101009004169083565b6040805193151584529115156020840152908201526060016101b1565b6101a76102b9366004611b47565b60156020526000908152604090205481565b6101e961078d565b6101e96102e1366004611b47565b6109a8565b6101e96102f4366004611b47565b610aa1565b6101e9610307366004611c40565b610c5f565b6101e961031a366004611b47565b610d99565b6101a7600a5481565b6101a7610336366004611b47565b610ecf565b6101a760105481565b6101a7600e5481565b6101e961035b366004611c7d565b610edf565b6101a761036e366004611ca9565b610fa1565b6101e9610381366004611ccb565b610fd2565b6101a760075481565b6101e961115a565b6101e96103a5366004611cfb565b61126d565b6101e96103b8366004611b47565b6114a1565b6101a7600b5481565b600854610242906001600160a01b031681565b6101a760145481565b601281815481106103f257600080fd5b600091825260209091200154905081565b600860009054906101000a90046001600160a01b03166001600160a01b0316638da5cb5b6040518163ffffffff1660e01b8152600401602060405180830381865afa158015610456573d6000803e3d6000fd5b505050506040513d601f19601f8201168201806040525081019061047a9190611d79565b6001600160a01b0316336001600160a01b0316146104b35760405162461bcd60e51b81526004016104aa90611d96565b60405180910390fd5b610e108110156104d55760405162461bcd60e51b81526004016104aa90611dba565b620151808111156104f85760405162461bcd60e51b81526004016104aa90611ddd565b600a81905560408051818152600d918101919091526c7265717565737473457665727960981b606082015260208101829052600080516020612073833981519152906080015b60405180910390a150565b6000806000600860009054906101000a90046001600160a01b03166001600160a01b03166361a8c8c46040518163ffffffff1660e01b8152600401602060405180830381865afa1580156105a1573d6000803e3d6000fd5b505050506040513d601f19601f820116820180604052508101906105c59190611e00565b9050600060095482426105d89190611e2f565b6105e29190611e2f565b905060008112610624576000600a54826105fc9190611e6c565b9050600b5481101561061657506001946000945092505050565b506000946001945092505050565b50600093849350915050565b600860009054906101000a90046001600160a01b03166001600160a01b0316638da5cb5b6040518163ffffffff1660e01b8152600401602060405180830381865afa158015610683573d6000803e3d6000fd5b505050506040513d601f19601f820116820180604052508101906106a79190611d79565b6001600160a01b0316336001600160a01b0316146106d75760405162461bcd60e51b81526004016104aa90611d96565b60038110156106f85760405162461bcd60e51b81526004016104aa90611dba565b600a8111156107195760405162461bcd60e51b81526004016104aa90611ddd565b600b81905560408051818152600d918101919091526c1c995c5d595cdd1cd0dbdd5b9d609a1b6060820152602081018290526000805160206120738339815191529060800161053e565b600c818154811061077357600080fd5b6000918252602090912001546001600160a01b0316905081565b600860009054906101000a90046001600160a01b03166001600160a01b031663f851a4406040518163ffffffff1660e01b8152600401602060405180830381865afa1580156107e0573d6000803e3d6000fd5b505050506040513d601f19601f820116820180604052508101906108049190611d79565b6001600160a01b0316336001600160a01b0316146108515760405162461bcd60e51b815260206004820152600a60248201526927a7262cafa0a226a4a760b11b60448201526064016104aa565b601054806108975760405162461bcd60e51b81526020600482015260136024820152721393d7d49154555154d517d513d7d49154d155606a1b60448201526064016104aa565b6108a3600f6000611aac565b6000601081905560118190555b818110156108fa57600060166000836014546108cc9190611e80565b8152602081019190915260400160002080549115156101000261ff00199092169190911790556001016108b0565b50600860009054906101000a90046001600160a01b03166001600160a01b031663766718086040518163ffffffff1660e01b8152600401602060405180830381865afa15801561094e573d6000803e3d6000fd5b505050506040513d601f19601f820116820180604052508101906109729190611e00565b6040518281527f605f3f824643ee56deaf2717c1581f7ad3df423365aede8e2d771b6b3a30fd2b9060200160405180910390a250565b600860009054906101000a90046001600160a01b03166001600160a01b031663481c6a756040518163ffffffff1660e01b8152600401602060405180830381865afa1580156109fb573d6000803e3d6000fd5b505050506040513d601f19601f82011682018060405250810190610a1f9190611d79565b6001600160a01b0316336001600160a01b031614610a4f5760405162461bcd60e51b81526004016104aa90611e93565b80610a6c5760405162461bcd60e51b81526004016104aa90611eb9565b600d8190556040518181527f9f3fa8c139076940687248e93aed7dda099cf9a90cc38c428cf3d5b6b642fdd49060200161053e565b60085460408051630ecce30160e31b815290516000926001600160a01b03169163766718089160048083019260209291908290030181865afa158015610aeb573d6000803e3d6000fd5b505050506040513d601f19601f82011682018060405250810190610b0f9190611e00565b905080827f190ed8bc7ceb1647005fb0589a53cf85063ea01852e2a64c79cfb07538305d5060405160405180910390a36012805460018101825560008290527fbb8a6a4669ba250d26cd7a459eca9d215f8307e33aebe50379bc5a3617ec344401839055600e54905403610c5b576000610bd86012805480602002602001604051908101604052809291908181526020018280548015610bce57602002820191906000526020600020905b815481526020019060010190808311610bba575b5050505050611621565b600f80546001810182556000919091527f8d1108e10bcb7c27dddfc02ed9d693a074039d026cf4ea4240b40f7d581ac8020181905560405190915082907f2bb038879300fa8017f5b55f8ed28082a5ce9fa8a746211f1d6924ef4e150efc90610c45906012908590611f1b565b60405180910390a2610c5960126000611aac565b505b5050565b600860009054906101000a90046001600160a01b03166001600160a01b0316638da5cb5b6040518163ffffffff1660e01b8152600401602060405180830381865afa158015610cb2573d6000803e3d6000fd5b505050506040513d601f19601f82011682018060405250810190610cd69190611d79565b6001600160a01b0316336001600160a01b031614610d065760405162461bcd60e51b81526004016104aa90611d96565b600e54610d14906002611f3d565b81511015610d565760405162461bcd60e51b815260206004820152600f60248201526e105494905657d513d3d7d4d3505313608a1b60448201526064016104aa565b8051610d6990600c906020840190611acd565b507f4b806663ee384a0ada322e70cdf3fd2046424181359f2470a97a6f0cec328e9c8160405161053e9190611f54565b600860009054906101000a90046001600160a01b03166001600160a01b0316638da5cb5b6040518163ffffffff1660e01b8152600401602060405180830381865afa158015610dec573d6000803e3d6000fd5b505050506040513d601f19601f82011682018060405250810190610e109190611d79565b6001600160a01b0316336001600160a01b031614610e405760405162461bcd60e51b81526004016104aa90611d96565b610e10811015610e625760405162461bcd60e51b81526004016104aa90611dba565b62093a80811115610e855760405162461bcd60e51b81526004016104aa90611ddd565b600981905560408051818152600d918101919091526c1c995c5d595cdd1cd4dd185c9d609a1b6060820152602081018290526000805160206120738339815191529060800161053e565b600f81815481106103f257600080fd5b600860009054906101000a90046001600160a01b03166001600160a01b0316638da5cb5b6040518163ffffffff1660e01b8152600401602060405180830381865afa158015610f32573d6000803e3d6000fd5b505050506040513d601f19601f82011682018060405250810190610f569190611d79565b6001600160a01b0316336001600160a01b031614610f865760405162461bcd60e51b81526004016104aa90611d96565b610f8f83610d99565b610f9882610403565b610c5981610630565b60176020528160005260406000208181548110610fbd57600080fd5b90600052602060002001600091509150505481565b600860009054906101000a90046001600160a01b03166001600160a01b0316638da5cb5b6040518163ffffffff1660e01b8152600401602060405180830381865afa158015611025573d6000803e3d6000fd5b505050506040513d601f19601f820116820180604052508101906110499190611d79565b6001600160a01b0316336001600160a01b0316146110795760405162461bcd60e51b81526004016104aa90611d96565b600c5482106110ba5760405162461bcd60e51b815260206004820152600d60248201526c494e4445585f544f4f5f42494760981b60448201526064016104aa565b6001600160a01b0381166110e05760405162461bcd60e51b81526004016104aa90611eb9565b80600c83815481106110f4576110f4611fa1565b60009182526020918290200180546001600160a01b0319166001600160a01b0393841617905560408051858152928416918301919091527f8323208263554cf72b3658bcdbd0f96f4ccf2c9c919fa30246aaee34537b5509910160405180910390a15050565b600b54600a5461116a9190611f3d565b6009546111779190611fb7565b600860009054906101000a90046001600160a01b03166001600160a01b03166361a8c8c46040518163ffffffff1660e01b8152600401602060405180830381865afa1580156111ca573d6000803e3d6000fd5b505050506040513d601f19601f820116820180604052508101906111ee9190611e00565b6111f89042611e80565b10156112325760405162461bcd60e51b8152602060048201526009602482015268544f4f5f4541524c5960b81b60448201526064016104aa565b600061123c6116e5565b60405190915081907f446b8726654d216fe9781583f0f34cc8ac84d240bb3ad5293c10e2ff831f1eb290600090a250565b600654610100900460ff161580801561128d5750600654600160ff909116105b806112a75750303b1580156112a7575060065460ff166001145b61130a5760405162461bcd60e51b815260206004820152602e60248201527f496e697469616c697a61626c653a20636f6e747261637420697320616c72656160448201526d191e481a5b9a5d1a585b1a5e995960921b60648201526084016104aa565b6006805460ff19166001179055801561132d576006805461ff0019166101001790555b60008711801561134557506001600160a01b03861615155b801561135957506001600160a01b03851615155b8015611366575060008451115b801561137157508215155b801561137e575060038210155b80156113945750611390600283611fca565b6001145b80156113ad5750600284516113a99190611e6c565b8211155b6113e85760405162461bcd60e51b815260206004820152600c60248201526b57524f4e475f504152414d5360a01b60448201526064016104aa565b6007879055600280546001600160a01b0319166001600160a01b038816179055600880546001600160a01b0319166001600160a01b038716179055835161143690600c906020870190611acd565b50600d839055600e82905561025860095561012c600a556004600b558015611498576006805461ff0019169055604051600181527f7f26b83ff96e1f2b6a682f133852f6798a09c465da95921460cefb38474024989060200160405180910390a15b50505050505050565b600860009054906101000a90046001600160a01b03166001600160a01b031663481c6a756040518163ffffffff1660e01b8152600401602060405180830381865afa1580156114f4573d6000803e3d6000fd5b505050506040513d601f19601f820116820180604052508101906115189190611d79565b6001600160a01b0316336001600160a01b0316146115485760405162461bcd60e51b81526004016104aa90611e93565b60038110156115695760405162461bcd60e51b81526004016104aa90611dba565b611574600282611fca565b6001146115ac5760405162461bcd60e51b81526004016104aa9060208082526004908201526322ab22a760e11b604082015260600190565b600c546115bb90600290611e6c565b8111156115da5760405162461bcd60e51b81526004016104aa90611ddd565b600e81905560408051818152600a91810191909152696d696e416e737765727360b01b6060820152602081018290526000805160206120738339815191529060800161053e565b6000611630826000845161192c565b6002825161163e9190611fca565b1561166f5781600283516116529190611e6c565b8151811061166257611662611fa1565b60200260200101516116df565b600282600284516116809190611e6c565b8151811061169057611690611fa1565b6020026020010151836001600286516116a99190611e6c565b6116b39190611e80565b815181106116c3576116c3611fa1565b60200260200101516116d59190611fde565b6116df9190612006565b92915050565b600080600860009054906101000a90046001600160a01b03166001600160a01b031663faf33f296040518163ffffffff1660e01b8152600401602060405180830381865afa15801561173b573d6000803e3d6000fd5b505050506040513d601f19601f8201168201806040525081019061175f9190611e00565b600b54600f54919250600091101561177757816117d0565b6117d0600f8054806020026020016040519081016040528092919081815260200182805480156117c657602002820191906000526020600020905b8154815260200190600101908083116117b2575b50505050506119e7565b6008549091506000906001600160a01b0316637361a544848385136117f65760006117f8565b845b6040516001600160e01b031960e085901b168152600481019290925260248201526044016020604051808303816000875af115801561183b573d6000803e3d6000fd5b505050506040513d601f19601f8201168201806040525081019061185f9190611e00565b9050600860009054906101000a90046001600160a01b03166001600160a01b031663766718086040518163ffffffff1660e01b8152600401602060405180830381865afa1580156118b4573d6000803e3d6000fd5b505050506040513d601f19601f820116820180604052508101906118d89190611e00565b9350601454847f263c5efc95bb2e2134e3fc52ae914fbd38e2381f37d95ae011a56f996578bf17600f858560405161191293929190612034565b60405180910390a3611926600f6000611aac565b50505090565b80821061193857505050565b6000829050600084828151811061195157611951611fa1565b60200260200101519050600084600161196a9190611fb7565b90505b838110156119b4578186828151811061198857611988611fa1565b602002602001015112156119ac576119ac86826119a486612059565b955085611a39565b60010161196d565b506119c0858584611a39565b6119cb85858461192c565b6119e0856119da846001611fb7565b8561192c565b5050505050565b60008060005b8351811015611a2557838181518110611a0857611a08611fa1565b602002602001015182611a1b9190611fde565b91506001016119ed565b508251611a329082612006565b9392505050565b828181518110611a4b57611a4b611fa1565b6020026020010151838381518110611a6557611a65611fa1565b6020026020010151848481518110611a7f57611a7f611fa1565b60200260200101858481518110611a9857611a98611fa1565b602090810291909101019190915252505050565b5080546000825590600052602060002090810190611aca9190611b32565b50565b828054828255906000526020600020908101928215611b22579160200282015b82811115611b2257825182546001600160a01b0319166001600160a01b03909116178255602090920191600190910190611aed565b50611b2e929150611b32565b5090565b5b80821115611b2e5760008155600101611b33565b600060208284031215611b5957600080fd5b5035919050565b634e487b7160e01b600052604160045260246000fd5b6001600160a01b0381168114611aca57600080fd5b8035611b9681611b76565b919050565b600082601f830112611bac57600080fd5b8135602067ffffffffffffffff80831115611bc957611bc9611b60565b8260051b604051601f19603f83011681018181108482111715611bee57611bee611b60565b6040529384526020818701810194908101925087851115611c0e57600080fd5b6020870191505b84821015611c3557611c2682611b8b565b83529183019190830190611c15565b979650505050505050565b600060208284031215611c5257600080fd5b813567ffffffffffffffff811115611c6957600080fd5b611c7584828501611b9b565b949350505050565b600080600060608486031215611c9257600080fd5b505081359360208301359350604090920135919050565b60008060408385031215611cbc57600080fd5b50508035926020909101359150565b60008060408385031215611cde57600080fd5b823591506020830135611cf081611b76565b809150509250929050565b60008060008060008060c08789031215611d1457600080fd5b863595506020870135611d2681611b76565b94506040870135611d3681611b76565b9350606087013567ffffffffffffffff811115611d5257600080fd5b611d5e89828a01611b9b565b9350506080870135915060a087013590509295509295509295565b600060208284031215611d8b57600080fd5b8151611a3281611b76565b6020808252600a908201526927a7262cafa7aba722a960b11b604082015260600190565b6020808252600990820152682122a627abafa6a4a760b91b604082015260600190565b602080825260099082015268082849eac8abe9a82b60bb1b604082015260600190565b600060208284031215611e1257600080fd5b5051919050565b634e487b7160e01b600052601160045260246000fd5b8181036000831280158383131683831282161715611e4f57611e4f611e19565b5092915050565b634e487b7160e01b600052601260045260246000fd5b600082611e7b57611e7b611e56565b500490565b818103818111156116df576116df611e19565b6020808252600c908201526b27a7262cafa6a0a720a3a2a960a11b604082015260600190565b602080825260079082015266056414c55455f360cc1b604082015260600190565b600081548084526020808501945083600052602060002060005b83811015611f1057815487529582019560019182019101611ef4565b509495945050505050565b604081526000611f2e6040830185611eda565b90508260208301529392505050565b80820281158282048414176116df576116df611e19565b6020808252825182820181905260009190848201906040850190845b81811015611f955783516001600160a01b031683529284019291840191600101611f70565b50909695505050505050565b634e487b7160e01b600052603260045260246000fd5b808201808211156116df576116df611e19565b600082611fd957611fd9611e56565b500690565b8082018281126000831280158216821582161715611ffe57611ffe611e19565b505092915050565b60008261201557612015611e56565b600160ff1b82146000198414161561202f5761202f611e19565b500590565b6060815260006120476060830186611eda565b60208301949094525060400152919050565b60006001820161206b5761206b611e19565b506001019056fe127735ae9d047cae55da37db2c8ee184c735aacd68cef068d4e70be6a41661d9a2646970667358221220fe34bc01acc4aab8bf5d954c4e3d8a5ac4a87744bdc2d509be356a68d71348bf64736f6c63430008170033",
  "devdoc": {
    "events": {
      "Initialized(uint8)": {
        "details": "Triggered when the contract has been initialized or reinitialized."
      }
    },
    "kind": "dev",
    "methods": {},
    "version": 1
  },
  "userdoc": {
    "kind": "user",
    "methods": {},
    "version": 1
  },
  "storageLayout": {
    "storage": [
      {
        "astId": 319,
        "contract": "contracts/OpenPnlFeed.sol:OpenPnlFeed",
        "label": "s_ens",
        "offset": 0,
        "slot": "0",
        "type": "t_contract(ENSInterface)974"
      },
      {
        "astId": 321,
        "contract": "contracts/OpenPnlFeed.sol:OpenPnlFeed",
        "label": "s_ensNode",
        "offset": 0,
        "slot": "1",
        "type": "t_bytes32"
      },
      {
        "astId": 324,
        "contract": "contracts/OpenPnlFeed.sol:OpenPnlFeed",
        "label": "s_link",
        "offset": 0,
        "slot": "2",
        "type": "t_contract(LinkTokenInterface)1069"
      },
      {
        "astId": 327,
        "contract": "contracts/OpenPnlFeed.sol:OpenPnlFeed",
        "label": "s_oracle",
        "offset": 0,
        "slot": "3",
        "type": "t_contract(OperatorInterface)1149"
      },
      {
        "astId": 330,
        "contract": "contracts/OpenPnlFeed.sol:OpenPnlFeed",
        "label": "s_requestCount",
        "offset": 0,
        "slot": "4",
        "type": "t_uint256"
      },
      {
        "astId": 334,
        "contract": "contracts/OpenPnlFeed.sol:OpenPnlFeed",
        "label": "s_pendingRequests",
        "offset": 0,
        "slot": "5",
        "type": "t_mapping(t_bytes32,t_address)"
      },
      {
        "astId": 2315,
        "contract": "contracts/OpenPnlFeed.sol:OpenPnlFeed",
        "label": "_initialized",
        "offset": 0,
        "slot": "6",
        "type": "t_uint8"
      },
      {
        "astId": 2318,
        "contract": "contracts/OpenPnlFeed.sol:OpenPnlFeed",
        "label": "_initializing",
        "offset": 1,
        "slot": "6",
        "type": "t_bool"
      },
      {
        "astId": 3071,
        "contract": "contracts/OpenPnlFeed.sol:OpenPnlFeed",
        "label": "LINK_FEE_BALANCE_DIVIDER",
        "offset": 0,
        "slot": "7",
        "type": "t_uint256"
      },
      {
        "astId": 3095,
        "contract": "contracts/OpenPnlFeed.sol:OpenPnlFeed",
        "label": "vault",
        "offset": 0,
        "slot": "8",
        "type": "t_contract(IToken)4273"
      },
      {
        "astId": 3098,
        "contract": "contracts/OpenPnlFeed.sol:OpenPnlFeed",
        "label": "requestsStart",
        "offset": 0,
        "slot": "9",
        "type": "t_uint256"
      },
      {
        "astId": 3101,
        "contract": "contracts/OpenPnlFeed.sol:OpenPnlFeed",
        "label": "requestsEvery",
        "offset": 0,
        "slot": "10",
        "type": "t_uint256"
      },
      {
        "astId": 3104,
        "contract": "contracts/OpenPnlFeed.sol:OpenPnlFeed",
        "label": "requestsCount",
        "offset": 0,
        "slot": "11",
        "type": "t_uint256"
      },
      {
        "astId": 3107,
        "contract": "contracts/OpenPnlFeed.sol:OpenPnlFeed",
        "label": "oracles",
        "offset": 0,
        "slot": "12",
        "type": "t_array(t_address)dyn_storage"
      },
      {
        "astId": 3109,
        "contract": "contracts/OpenPnlFeed.sol:OpenPnlFeed",
        "label": "job",
        "offset": 0,
        "slot": "13",
        "type": "t_bytes32"
      },
      {
        "astId": 3111,
        "contract": "contracts/OpenPnlFeed.sol:OpenPnlFeed",
        "label": "minAnswers",
        "offset": 0,
        "slot": "14",
        "type": "t_uint256"
      },
      {
        "astId": 3114,
        "contract": "contracts/OpenPnlFeed.sol:OpenPnlFeed",
        "label": "nextEpochValues",
        "offset": 0,
        "slot": "15",
        "type": "t_array(t_int256)dyn_storage"
      },
      {
        "astId": 3116,
        "contract": "contracts/OpenPnlFeed.sol:OpenPnlFeed",
        "label": "nextEpochValuesRequestCount",
        "offset": 0,
        "slot": "16",
        "type": "t_uint256"
      },
      {
        "astId": 3118,
        "contract": "contracts/OpenPnlFeed.sol:OpenPnlFeed",
        "label": "nextEpochValuesLastRequest",
        "offset": 0,
        "slot": "17",
        "type": "t_uint256"
      },
      {
        "astId": 3121,
        "contract": "contracts/OpenPnlFeed.sol:OpenPnlFeed",
        "label": "answers",
        "offset": 0,
        "slot": "18",
        "type": "t_array(t_int256)dyn_storage"
      },
      {
        "astId": 3123,
        "contract": "contracts/OpenPnlFeed.sol:OpenPnlFeed",
        "label": "requestId",
        "offset": 0,
        "slot": "19",
        "type": "t_uint256"
      },
      {
        "astId": 3125,
        "contract": "contracts/OpenPnlFeed.sol:OpenPnlFeed",
        "label": "lastRequestId",
        "offset": 0,
        "slot": "20",
        "type": "t_uint256"
      },
      {
        "astId": 3129,
        "contract": "contracts/OpenPnlFeed.sol:OpenPnlFeed",
        "label": "requestIds",
        "offset": 0,
        "slot": "21",
        "type": "t_mapping(t_uint256,t_uint256)"
      },
      {
        "astId": 3134,
        "contract": "contracts/OpenPnlFeed.sol:OpenPnlFeed",
        "label": "requests",
        "offset": 0,
        "slot": "22",
        "type": "t_mapping(t_uint256,t_struct(Request)3146_storage)"
      },
      {
        "astId": 3139,
        "contract": "contracts/OpenPnlFeed.sol:OpenPnlFeed",
        "label": "requestAnswers",
        "offset": 0,
        "slot": "23",
        "type": "t_mapping(t_uint256,t_array(t_int256)dyn_storage)"
      }
    ],
    "types": {
      "t_address": {
        "encoding": "inplace",
        "label": "address",
        "numberOfBytes": "20"
      },
      "t_array(t_address)dyn_storage": {
        "base": "t_address",
        "encoding": "dynamic_array",
        "label": "address[]",
        "numberOfBytes": "32"
      },
      "t_array(t_int256)dyn_storage": {
        "base": "t_int256",
        "encoding": "dynamic_array",
        "label": "int256[]",
        "numberOfBytes": "32"
      },
      "t_bool": {
        "encoding": "inplace",
        "label": "bool",
        "numberOfBytes": "1"
      },
      "t_bytes32": {
        "encoding": "inplace",
        "label": "bytes32",
        "numberOfBytes": "32"
      },
      "t_contract(ENSInterface)974": {
        "encoding": "inplace",
        "label": "contract ENSInterface",
        "numberOfBytes": "20"
      },
      "t_contract(IToken)4273": {
        "encoding": "inplace",
        "label": "contract IToken",
        "numberOfBytes": "20"
      },
      "t_contract(LinkTokenInterface)1069": {
        "encoding": "inplace",
        "label": "contract LinkTokenInterface",
        "numberOfBytes": "20"
      },
      "t_contract(OperatorInterface)1149": {
        "encoding": "inplace",
        "label": "contract OperatorInterface",
        "numberOfBytes": "20"
      },
      "t_int256": {
        "encoding": "inplace",
        "label": "int256",
        "numberOfBytes": "32"
      },
      "t_mapping(t_bytes32,t_address)": {
        "encoding": "mapping",
        "key": "t_bytes32",
        "label": "mapping(bytes32 => address)",
        "numberOfBytes": "32",
        "value": "t_address"
      },
      "t_mapping(t_uint256,t_array(t_int256)dyn_storage)": {
        "encoding": "mapping",
        "key": "t_uint256",
        "label": "mapping(uint256 => int256[])",
        "numberOfBytes": "32",
        "value": "t_array(t_int256)dyn_storage"
      },
      "t_mapping(t_uint256,t_struct(Request)3146_storage)": {
        "encoding": "mapping",
        "key": "t_uint256",
        "label": "mapping(uint256 => struct OpenPnlFeed.Request)",
        "numberOfBytes": "32",
        "value": "t_struct(Request)3146_storage"
      },
      "t_mapping(t_uint256,t_uint256)": {
        "encoding": "mapping",
        "key": "t_uint256",
        "label": "mapping(uint256 => uint256)",
        "numberOfBytes": "32",
        "value": "t_uint256"
      },
      "t_struct(Request)3146_storage": {
        "encoding": "inplace",
        "label": "struct OpenPnlFeed.Request",
        "members": [
          {
            "astId": 3141,
            "contract": "contracts/OpenPnlFeed.sol:OpenPnlFeed",
            "label": "initiated",
            "offset": 0,
            "slot": "0",
            "type": "t_bool"
          },
          {
            "astId": 3143,
            "contract": "contracts/OpenPnlFeed.sol:OpenPnlFeed",
            "label": "active",
            "offset": 1,
            "slot": "0",
            "type": "t_bool"
          },
          {
            "astId": 3145,
            "contract": "contracts/OpenPnlFeed.sol:OpenPnlFeed",
            "label": "linkFeePerNode",
            "offset": 0,
            "slot": "1",
            "type": "t_uint256"
          }
        ],
        "numberOfBytes": "64"
      },
      "t_uint256": {
        "encoding": "inplace",
        "label": "uint256",
        "numberOfBytes": "32"
      },
      "t_uint8": {
        "encoding": "inplace",
        "label": "uint8",
        "numberOfBytes": "1"
      }
    }
  }
}