{
  "address": "0x34a9aaC0bC1cEF86Fdb65eDE0d4ba390F4D13BFb",
  "abi": [
    {
      "inputs": [
        {
          "internalType": "uint256",
          "name": "_LINK_FEE_BALANCE_DIVIDER",
          "type": "uint256"
        },
        {
          "internalType": "address",
          "name": "_linkToken",
          "type": "address"
        },
        {
          "internalType": "contract IToken",
          "name": "_vault",
          "type": "address"
        },
        {
          "internalType": "address[]",
          "name": "_oracles",
          "type": "address[]"
        },
        {
          "internalType": "bytes32",
          "name": "_job",
          "type": "bytes32"
        },
        {
          "internalType": "uint256",
          "name": "_minAnswers",
          "type": "uint256"
        }
      ],
      "stateMutability": "nonpayable",
      "type": "constructor"
    },
    {
      "anonymous": false,
      "inputs": [
        {
          "indexed": true,
          "internalType": "bytes32",
          "name": "id",
          "type": "bytes32"
        }
      ],
      "name": "ChainlinkCancelled",
      "type": "event"
    },
    {
      "anonymous": false,
      "inputs": [
        {
          "indexed": true,
          "internalType": "bytes32",
          "name": "id",
          "type": "bytes32"
        }
      ],
      "name": "ChainlinkFulfilled",
      "type": "event"
    },
    {
      "anonymous": false,
      "inputs": [
        {
          "indexed": true,
          "internalType": "bytes32",
          "name": "id",
          "type": "bytes32"
        }
      ],
      "name": "ChainlinkRequested",
      "type": "event"
    },
    {
      "anonymous": false,
      "inputs": [
        {
          "indexed": false,
          "internalType": "bytes32",
          "name": "newValue",
          "type": "bytes32"
        }
      ],
      "name": "JobUpdated",
      "type": "event"
    },
    {
      "anonymous": false,
      "inputs": [
        {
          "indexed": true,
          "internalType": "uint256",
          "name": "newEpoch",
          "type": "uint256"
        },
        {
          "indexed": true,
          "internalType": "uint256",
          "name": "requestId",
          "type": "uint256"
        },
        {
          "indexed": false,
          "internalType": "int256[]",
          "name": "epochMedianValues",
          "type": "int256[]"
        },
        {
          "indexed": false,
          "internalType": "int256",
          "name": "epochAverageValue",
          "type": "int256"
        },
        {
          "indexed": false,
          "internalType": "uint256",
          "name": "newEpochPositiveOpenPnl",
          "type": "uint256"
        }
      ],
      "name": "NewEpoch",
      "type": "event"
    },
    {
      "anonymous": false,
      "inputs": [
        {
          "indexed": true,
          "internalType": "uint256",
          "name": "newEpoch",
          "type": "uint256"
        }
      ],
      "name": "NewEpochForced",
      "type": "event"
    },
    {
      "anonymous": false,
      "inputs": [
        {
          "indexed": true,
          "internalType": "uint256",
          "name": "currEpoch",
          "type": "uint256"
        },
        {
          "indexed": true,
          "internalType": "uint256",
          "name": "requestId",
          "type": "uint256"
        },
        {
          "indexed": false,
          "internalType": "bytes32",
          "name": "job",
          "type": "bytes32"
        },
        {
          "indexed": false,
          "internalType": "uint256",
          "name": "oraclesCount",
          "type": "uint256"
        },
        {
          "indexed": false,
          "internalType": "uint256",
          "name": "linkFeePerNode",
          "type": "uint256"
        }
      ],
      "name": "NextEpochValueRequested",
      "type": "event"
    },
    {
      "anonymous": false,
      "inputs": [
        {
          "indexed": true,
          "internalType": "uint256",
          "name": "currEpoch",
          "type": "uint256"
        },
        {
          "indexed": false,
          "internalType": "uint256",
          "name": "requestsResetCount",
          "type": "uint256"
        }
      ],
      "name": "NextEpochValuesReset",
      "type": "event"
    },
    {
      "anonymous": false,
      "inputs": [
        {
          "indexed": false,
          "internalType": "string",
          "name": "name",
          "type": "string"
        },
        {
          "indexed": false,
          "internalType": "uint256",
          "name": "newValue",
          "type": "uint256"
        }
      ],
      "name": "NumberParamUpdated",
      "type": "event"
    },
    {
      "anonymous": false,
      "inputs": [
        {
          "indexed": false,
          "internalType": "uint256",
          "name": "index",
          "type": "uint256"
        },
        {
          "indexed": false,
          "internalType": "address",
          "name": "newValue",
          "type": "address"
        }
      ],
      "name": "OracleUpdated",
      "type": "event"
    },
    {
      "anonymous": false,
      "inputs": [
        {
          "indexed": false,
          "internalType": "address[]",
          "name": "newValues",
          "type": "address[]"
        }
      ],
      "name": "OraclesUpdated",
      "type": "event"
    },
    {
      "anonymous": false,
      "inputs": [
        {
          "indexed": true,
          "internalType": "uint256",
          "name": "currEpoch",
          "type": "uint256"
        },
        {
          "indexed": true,
          "internalType": "uint256",
          "name": "requestId",
          "type": "uint256"
        },
        {
          "indexed": false,
          "internalType": "int256[]",
          "name": "requestValues",
          "type": "int256[]"
        },
        {
          "indexed": false,
          "internalType": "int256",
          "name": "medianValue",
          "type": "int256"
        }
      ],
      "name": "RequestMedianValueSet",
      "type": "event"
    },
    {
      "anonymous": false,
      "inputs": [
        {
          "indexed": false,
          "internalType": "bool",
          "name": "isLate",
          "type": "bool"
        },
        {
          "indexed": true,
          "internalType": "uint256",
          "name": "currEpoch",
          "type": "uint256"
        },
        {
          "indexed": true,
          "internalType": "uint256",
          "name": "requestId",
          "type": "uint256"
        },
        {
          "indexed": false,
          "internalType": "uint256",
          "name": "oracleRequestId",
          "type": "uint256"
        },
        {
          "indexed": true,
          "internalType": "address",
          "name": "oracle",
          "type": "address"
        },
        {
          "indexed": false,
          "internalType": "int256",
          "name": "requestValue",
          "type": "int256"
        },
        {
          "indexed": false,
          "internalType": "uint256",
          "name": "linkFee",
          "type": "uint256"
        }
      ],
      "name": "RequestValueReceived",
      "type": "event"
    },
    {
      "inputs": [],
      "name": "LINK_FEE_BALANCE_DIVIDER",
      "outputs": [
        {
          "internalType": "uint256",
          "name": "",
          "type": "uint256"
        }
      ],
      "stateMutability": "view",
      "type": "function"
    },
    {
      "inputs": [],
      "name": "forceNewEpoch",
      "outputs": [],
      "stateMutability": "nonpayable",
      "type": "function"
    },
    {
      "inputs": [
        {
          "internalType": "uint256",
          "name": "requestId",
          "type": "uint256"
        },
        {
          "internalType": "int256",
          "name": "value",
          "type": "int256"
        }
      ],
      "name": "fulfill",
      "outputs": [],
      "stateMutability": "nonpayable",
      "type": "function"
    },
    {
      "inputs": [],
      "name": "job",
      "outputs": [
        {
          "internalType": "bytes32",
          "name": "",
          "type": "bytes32"
        }
      ],
      "stateMutability": "view",
      "type": "function"
    },
    {
      "inputs": [],
      "name": "lastRequestId",
      "outputs": [
        {
          "internalType": "uint256",
          "name": "",
          "type": "uint256"
        }
      ],
      "stateMutability": "view",
      "type": "function"
    },
    {
      "inputs": [],
      "name": "minAnswers",
      "outputs": [
        {
          "internalType": "uint256",
          "name": "",
          "type": "uint256"
        }
      ],
      "stateMutability": "view",
      "type": "function"
    },
    {
      "inputs": [],
      "name": "newOpenPnlRequestOrEpoch",
      "outputs": [],
      "stateMutability": "nonpayable",
      "type": "function"
    },
    {
      "inputs": [
        {
          "internalType": "uint256",
          "name": "",
          "type": "uint256"
        }
      ],
      "name": "nextEpochValues",
      "outputs": [
        {
          "internalType": "int256",
          "name": "",
          "type": "int256"
        }
      ],
      "stateMutability": "view",
      "type": "function"
    },
    {
      "inputs": [],
      "name": "nextEpochValuesLastRequest",
      "outputs": [
        {
          "internalType": "uint256",
          "name": "",
          "type": "uint256"
        }
      ],
      "stateMutability": "view",
      "type": "function"
    },
    {
      "inputs": [],
      "name": "nextEpochValuesRequestCount",
      "outputs": [
        {
          "internalType": "uint256",
          "name": "",
          "type": "uint256"
        }
      ],
      "stateMutability": "view",
      "type": "function"
    },
    {
      "inputs": [
        {
          "internalType": "uint256",
          "name": "",
          "type": "uint256"
        }
      ],
      "name": "oracles",
      "outputs": [
        {
          "internalType": "address",
          "name": "",
          "type": "address"
        }
      ],
      "stateMutability": "view",
      "type": "function"
    },
    {
      "inputs": [
        {
          "internalType": "uint256",
          "name": "",
          "type": "uint256"
        },
        {
          "internalType": "uint256",
          "name": "",
          "type": "uint256"
        }
      ],
      "name": "requestAnswers",
      "outputs": [
        {
          "internalType": "int256",
          "name": "",
          "type": "int256"
        }
      ],
      "stateMutability": "view",
      "type": "function"
    },
    {
      "inputs": [],
      "name": "requestId",
      "outputs": [
        {
          "internalType": "uint256",
          "name": "",
          "type": "uint256"
        }
      ],
      "stateMutability": "view",
      "type": "function"
    },
    {
      "inputs": [
        {
          "internalType": "uint256",
          "name": "",
          "type": "uint256"
        }
      ],
      "name": "requestIds",
      "outputs": [
        {
          "internalType": "uint256",
          "name": "",
          "type": "uint256"
        }
      ],
      "stateMutability": "view",
      "type": "function"
    },
    {
      "inputs": [
        {
          "internalType": "uint256",
          "name": "",
          "type": "uint256"
        }
      ],
      "name": "requests",
      "outputs": [
        {
          "internalType": "bool",
          "name": "initiated",
          "type": "bool"
        },
        {
          "internalType": "bool",
          "name": "active",
          "type": "bool"
        },
        {
          "internalType": "uint256",
          "name": "linkFeePerNode",
          "type": "uint256"
        }
      ],
      "stateMutability": "view",
      "type": "function"
    },
    {
      "inputs": [],
      "name": "requestsCount",
      "outputs": [
        {
          "internalType": "uint256",
          "name": "",
          "type": "uint256"
        }
      ],
      "stateMutability": "view",
      "type": "function"
    },
    {
      "inputs": [],
      "name": "requestsEvery",
      "outputs": [
        {
          "internalType": "uint256",
          "name": "",
          "type": "uint256"
        }
      ],
      "stateMutability": "view",
      "type": "function"
    },
    {
      "inputs": [],
      "name": "requestsStart",
      "outputs": [
        {
          "internalType": "uint256",
          "name": "",
          "type": "uint256"
        }
      ],
      "stateMutability": "view",
      "type": "function"
    },
    {
      "inputs": [],
      "name": "resetNextEpochValueRequests",
      "outputs": [],
      "stateMutability": "nonpayable",
      "type": "function"
    },
    {
      "inputs": [
        {
          "internalType": "bytes32",
          "name": "newValue",
          "type": "bytes32"
        }
      ],
      "name": "updateJob",
      "outputs": [],
      "stateMutability": "nonpayable",
      "type": "function"
    },
    {
      "inputs": [
        {
          "internalType": "uint256",
          "name": "newValue",
          "type": "uint256"
        }
      ],
      "name": "updateMinAnswers",
      "outputs": [],
      "stateMutability": "nonpayable",
      "type": "function"
    },
    {
      "inputs": [
        {
          "internalType": "uint256",
          "name": "_index",
          "type": "uint256"
        },
        {
          "internalType": "address",
          "name": "newValue",
          "type": "address"
        }
      ],
      "name": "updateOracle",
      "outputs": [],
      "stateMutability": "nonpayable",
      "type": "function"
    },
    {
      "inputs": [
        {
          "internalType": "address[]",
          "name": "newValues",
          "type": "address[]"
        }
      ],
      "name": "updateOracles",
      "outputs": [],
      "stateMutability": "nonpayable",
      "type": "function"
    },
    {
      "inputs": [
        {
          "internalType": "uint256",
          "name": "newValue",
          "type": "uint256"
        }
      ],
      "name": "updateRequestsCount",
      "outputs": [],
      "stateMutability": "nonpayable",
      "type": "function"
    },
    {
      "inputs": [
        {
          "internalType": "uint256",
          "name": "newValue",
          "type": "uint256"
        }
      ],
      "name": "updateRequestsEvery",
      "outputs": [],
      "stateMutability": "nonpayable",
      "type": "function"
    },
    {
      "inputs": [
        {
          "internalType": "uint256",
          "name": "newRequestsStart",
          "type": "uint256"
        },
        {
          "internalType": "uint256",
          "name": "newRequestsEvery",
          "type": "uint256"
        },
        {
          "internalType": "uint256",
          "name": "newRequestsCount",
          "type": "uint256"
        }
      ],
      "name": "updateRequestsInfoBatch",
      "outputs": [],
      "stateMutability": "nonpayable",
      "type": "function"
    },
    {
      "inputs": [
        {
          "internalType": "uint256",
          "name": "newValue",
          "type": "uint256"
        }
      ],
      "name": "updateRequestsStart",
      "outputs": [],
      "stateMutability": "nonpayable",
      "type": "function"
    },
    {
      "inputs": [],
      "name": "vault",
      "outputs": [
        {
          "internalType": "contract IToken",
          "name": "",
          "type": "address"
        }
      ],
      "stateMutability": "view",
      "type": "function"
    }
  ],
  "transactionHash": "0xc68488e3c4a021f00228bf39e5b7352927e4974c34528e9b8d7b1e6db29df6c5",
  "args": [
    1,
    "0xa667403454F483dE81A0363Af7FcEE563819D910",
    "0xA6dAAF02aC93B6C4DDA1589e803Fd453CB973b82",
    [
      "0x00000000219ab540356cbb839cbe05303d7705fa",
      "0xc02aaa39b223fe8d0a0e5c4f27ead9083c756cc2",
      "0xbe0eb53f46cd790cd13851d5eff43d12404d33e8",
      "0xda9dfa130df4de4673b89022ee50ff26f6ea73cf",
      "0x40b38765696e3d5d8d9d834d8aad4bb6e418e489",
      "0x40b38765696e3d5d8d9d834d8aad4bb6e418e489"
    ],
    "0x0000000000000000000000000000000000000000000000000000000000000004",
    3
  ],
  "numDeployments": 1,
  "solcInputHash": "063f6380a44fddc0413748fbb84bc8a5",
  "bytecode": "0x60c06040526001600455611c2060065561070860075560046008553480156200002757600080fd5b5060405162002546380380620025468339810160408190526200004a916200022e565b6000861180156200006357506001600160a01b03851615155b80156200007857506001600160a01b03841615155b801562000086575060008351115b80156200009257508115155b8015620000a0575060038110155b8015620000b95750620000b56002826200035f565b6001145b8015620000d5575060028351620000d1919062000376565b8111155b620001155760405162461bcd60e51b815260206004820152600c60248201526b57524f4e475f504152414d5360a01b604482015260640160405180910390fd5b6080869052600280546001600160a01b0319166001600160a01b0387161790556001600160a01b03841660a0528251620001579060099060208601906200016c565b50600a91909155600b55506200038d92505050565b828054828255906000526020600020908101928215620001c4579160200282015b82811115620001c457825182546001600160a01b0319166001600160a01b039091161782556020909201916001909101906200018d565b50620001d2929150620001d6565b5090565b5b80821115620001d25760008155600101620001d7565b6001600160a01b03811681146200020357600080fd5b50565b80516200021381620001ed565b919050565b634e487b7160e01b600052604160045260246000fd5b60008060008060008060c087890312156200024857600080fd5b865195506020808801516200025d81620001ed565b60408901519096506200027081620001ed565b60608901519095506001600160401b03808211156200028e57600080fd5b818a0191508a601f830112620002a357600080fd5b815181811115620002b857620002b862000218565b8060051b604051601f19603f83011681018181108582111715620002e057620002e062000218565b60405291825284820192508381018501918d831115620002ff57600080fd5b938501935b828510156200032857620003188562000206565b8452938501939285019262000304565b8098505050505050506080870151915060a087015190509295509295509295565b634e487b7160e01b600052601260045260246000fd5b60008262000371576200037162000349565b500690565b60008262000388576200038862000349565b500490565b60805160a05161211c6200042a600039600081816103960152818161042b0152818161063601528181610787015281816108ef01528181610a7201528181610b2a01528181610c2e01528181610d7301528181610ee401528181610fcf015281816110d201528181611282015281816113830152818161169a015281816117770152818161186e01526119180152600061034b015261211c6000f3fe608060405234801561001057600080fd5b50600436106101835760003560e01c8063a90d67a1116100d9578063ce43963211610087578063ce43963214610333578063d5a28da314610346578063e704fc511461036d578063f5ed447c14610375578063fbfa4b7f14610388578063fbfa77cf14610391578063fc2a88c3146103b857600080fd5b8063a90d67a1146102d7578063b006812c146102e0578063b8feee64146102f3578063bea16758146102fc578063bef35b7914610305578063c591ff4c1461030d578063cb9945a11461032057600080fd5b80635b69a7d8116101365780635b69a7d8146101fa57806381d12c58146102255780638796ba8c1461027657806392c3c58b146102965780639496f9e31461029e5780639dbc2686146102b1578063a5c2aafd146102c457600080fd5b80626d6cae1461018857806309d19de1146101a45780632eb64ec4146101b957806334fa54a1146101c2578063473d2f21146101d55780635614a211146101de57806358e7ec3c146101f1575b600080fd5b610191600f5481565b6040519081526020015b60405180910390f35b6101b76101b2366004611c16565b6103c1565b005b61019160065481565b6101b76101d0366004611c38565b610634565b610191600e5481565b6101b76101ec366004611c38565b610785565b610191600a5481565b61020d610208366004611c38565b6108c3565b6040516001600160a01b03909116815260200161019b565b610259610233366004611c38565b6012602052600090815260409020805460019091015460ff808316926101009004169083565b60408051931515845291151560208401529082015260600161019b565b610191610284366004611c38565b60116020526000908152604090205481565b6101b76108ed565b6101b76102ac366004611c38565b610b28565b6101b76102bf366004611c8c565b610c2c565b6101b76102d2366004611c38565b610d71565b61019160075481565b6101916102ee366004611c38565b610eb2565b610191600d5481565b610191600b5481565b6101b7610ed3565b6101b761031b366004611d51565b610fcd565b61019161032e366004611c16565b61109f565b6101b7610341366004611d7d565b6110d0565b6101917f000000000000000000000000000000000000000000000000000000000000000081565b6101b7611263565b6101b7610383366004611c38565b611381565b61019160085481565b61020d7f000000000000000000000000000000000000000000000000000000000000000081565b61019160105481565b6000828152601160209081526040808320805490849055808452601283528184208251606081018452815460ff808216151583526101009091041615158186015260019190910154818401528251630ecce30160e31b815292519194909390926001600160a01b037f000000000000000000000000000000000000000000000000000000000000000016926376671808926004808401939192918290030181865afa158015610474573d6000803e3d6000fd5b505050506040513d601f19601f820116820180604052508101906104989190611dad565b602080840151604080860151815192158352928201899052810187905260608101919091529091503390849083907f6fca1cd883a83c15d85feb83c610bf23e9509a7d70f817816c26ab9c379b1b729060800160405180910390a48160200151610503575050505050565b6000838152601360209081526040822080546001810182558184529190922001859055600b5481540361062c57600061058a8280548060200260200160405190810160405280929190818152602001828054801561058057602002820191906000526020600020905b81548152602001906001019080831161056c575b505050505061150c565b600c80546001810182556000919091527fdf6966c971051c3d54ec59162606531493a51404a002842f56009d7e5cf4a8c701819055604051909150859084907f2cc31a5acf549ee44228d82c08e88b92b9d332ad5193a2290a79345e113c0b4c906105f89086908690611dc6565b60405180910390a36000858152601260209081526040808320805461ff00191690556013909152812061062a91611b7e565b505b505050505050565b7f00000000000000000000000000000000000000000000000000000000000000006001600160a01b0316638da5cb5b6040518163ffffffff1660e01b8152600401602060405180830381865afa158015610692573d6000803e3d6000fd5b505050506040513d601f19601f820116820180604052508101906106b69190611e16565b6001600160a01b0316336001600160a01b0316146106ef5760405162461bcd60e51b81526004016106e690611e33565b60405180910390fd5b610e108110156107115760405162461bcd60e51b81526004016106e690611e57565b620151808111156107345760405162461bcd60e51b81526004016106e690611e7a565b600781905560408051818152600d918101919091526c7265717565737473457665727960981b6060820152602081018290526000805160206120c7833981519152906080015b60405180910390a150565b7f00000000000000000000000000000000000000000000000000000000000000006001600160a01b0316638da5cb5b6040518163ffffffff1660e01b8152600401602060405180830381865afa1580156107e3573d6000803e3d6000fd5b505050506040513d601f19601f820116820180604052508101906108079190611e16565b6001600160a01b0316336001600160a01b0316146108375760405162461bcd60e51b81526004016106e690611e33565b60038110156108585760405162461bcd60e51b81526004016106e690611e57565b600a8111156108795760405162461bcd60e51b81526004016106e690611e7a565b600881905560408051818152600d918101919091526c1c995c5d595cdd1cd0dbdd5b9d609a1b6060820152602081018290526000805160206120c78339815191529060800161077a565b600981815481106108d357600080fd5b6000918252602090912001546001600160a01b0316905081565b7f00000000000000000000000000000000000000000000000000000000000000006001600160a01b031663f851a4406040518163ffffffff1660e01b8152600401602060405180830381865afa15801561094b573d6000803e3d6000fd5b505050506040513d601f19601f8201168201806040525081019061096f9190611e16565b6001600160a01b0316336001600160a01b0316146109bc5760405162461bcd60e51b815260206004820152600a60248201526927a7262cafa0a226a4a760b11b60448201526064016106e6565b600d5480610a025760405162461bcd60e51b81526020600482015260136024820152721393d7d49154555154d517d513d7d49154d155606a1b60448201526064016106e6565b610a0e600c6000611b7e565b6000600d819055600e8190555b81811015610a6f5760006012600083601054610a379190611eb3565b8152602081019190915260400160002080549115156101000261ff001990921691909117905580610a6781611eca565b915050610a1b565b507f00000000000000000000000000000000000000000000000000000000000000006001600160a01b031663766718086040518163ffffffff1660e01b8152600401602060405180830381865afa158015610ace573d6000803e3d6000fd5b505050506040513d601f19601f82011682018060405250810190610af29190611dad565b6040518281527f605f3f824643ee56deaf2717c1581f7ad3df423365aede8e2d771b6b3a30fd2b9060200160405180910390a250565b7f00000000000000000000000000000000000000000000000000000000000000006001600160a01b031663481c6a756040518163ffffffff1660e01b8152600401602060405180830381865afa158015610b86573d6000803e3d6000fd5b505050506040513d601f19601f82011682018060405250810190610baa9190611e16565b6001600160a01b0316336001600160a01b031614610bda5760405162461bcd60e51b81526004016106e690611ee3565b80610bf75760405162461bcd60e51b81526004016106e690611f09565b600a8190556040518181527f9f3fa8c139076940687248e93aed7dda099cf9a90cc38c428cf3d5b6b642fdd49060200161077a565b7f00000000000000000000000000000000000000000000000000000000000000006001600160a01b0316638da5cb5b6040518163ffffffff1660e01b8152600401602060405180830381865afa158015610c8a573d6000803e3d6000fd5b505050506040513d601f19601f82011682018060405250810190610cae9190611e16565b6001600160a01b0316336001600160a01b031614610cde5760405162461bcd60e51b81526004016106e690611e33565b600b54610cec906002611f2a565b81511015610d2e5760405162461bcd60e51b815260206004820152600f60248201526e105494905657d513d3d7d4d3505313608a1b60448201526064016106e6565b8051610d41906009906020840190611b9c565b507f4b806663ee384a0ada322e70cdf3fd2046424181359f2470a97a6f0cec328e9c8160405161077a9190611f49565b7f00000000000000000000000000000000000000000000000000000000000000006001600160a01b0316638da5cb5b6040518163ffffffff1660e01b8152600401602060405180830381865afa158015610dcf573d6000803e3d6000fd5b505050506040513d601f19601f82011682018060405250810190610df39190611e16565b6001600160a01b0316336001600160a01b031614610e235760405162461bcd60e51b81526004016106e690611e33565b610e10811015610e455760405162461bcd60e51b81526004016106e690611e57565b62093a80811115610e685760405162461bcd60e51b81526004016106e690611e7a565b600681905560408051818152600d918101919091526c1c995c5d595cdd1cd4dd185c9d609a1b6060820152602081018290526000805160206120c78339815191529060800161077a565b600c8181548110610ec257600080fd5b600091825260209091200154905081565b600e5415808015610f7157506006547f00000000000000000000000000000000000000000000000000000000000000006001600160a01b03166361a8c8c46040518163ffffffff1660e01b8152600401602060405180830381865afa158015610f40573d6000803e3d6000fd5b505050506040513d601f19601f82011682018060405250810190610f649190611dad565b610f6e9042611eb3565b10155b15610f8157610f7e6115d0565b50565b80158015610f9d5750600754600e54610f9a9042611eb3565b10155b15610f7e57600854600d541015610fb657610f7e6115d0565b600854600c5410610f7e57610fc9611762565b5050565b7f00000000000000000000000000000000000000000000000000000000000000006001600160a01b0316638da5cb5b6040518163ffffffff1660e01b8152600401602060405180830381865afa15801561102b573d6000803e3d6000fd5b505050506040513d601f19601f8201168201806040525081019061104f9190611e16565b6001600160a01b0316336001600160a01b03161461107f5760405162461bcd60e51b81526004016106e690611e33565b61108883610d71565b61109182610634565b61109a81610785565b505050565b601360205281600052604060002081815481106110bb57600080fd5b90600052602060002001600091509150505481565b7f00000000000000000000000000000000000000000000000000000000000000006001600160a01b0316638da5cb5b6040518163ffffffff1660e01b8152600401602060405180830381865afa15801561112e573d6000803e3d6000fd5b505050506040513d601f19601f820116820180604052508101906111529190611e16565b6001600160a01b0316336001600160a01b0316146111825760405162461bcd60e51b81526004016106e690611e33565b60095482106111c35760405162461bcd60e51b815260206004820152600d60248201526c494e4445585f544f4f5f42494760981b60448201526064016106e6565b6001600160a01b0381166111e95760405162461bcd60e51b81526004016106e690611f09565b80600983815481106111fd576111fd611f96565b60009182526020918290200180546001600160a01b0319166001600160a01b0393841617905560408051858152928416918301919091527f8323208263554cf72b3658bcdbd0f96f4ccf2c9c919fa30246aaee34537b5509910160405180910390a15050565b6008546007546112739190611f2a565b6006546112809190611fac565b7f00000000000000000000000000000000000000000000000000000000000000006001600160a01b03166361a8c8c46040518163ffffffff1660e01b8152600401602060405180830381865afa1580156112de573d6000803e3d6000fd5b505050506040513d601f19601f820116820180604052508101906113029190611dad565b61130c9042611eb3565b10156113465760405162461bcd60e51b8152602060048201526009602482015268544f4f5f4541524c5960b81b60448201526064016106e6565b6000611350611762565b60405190915081907f446b8726654d216fe9781583f0f34cc8ac84d240bb3ad5293c10e2ff831f1eb290600090a250565b7f00000000000000000000000000000000000000000000000000000000000000006001600160a01b031663481c6a756040518163ffffffff1660e01b8152600401602060405180830381865afa1580156113df573d6000803e3d6000fd5b505050506040513d601f19601f820116820180604052508101906114039190611e16565b6001600160a01b0316336001600160a01b0316146114335760405162461bcd60e51b81526004016106e690611ee3565b60038110156114545760405162461bcd60e51b81526004016106e690611e57565b61145f600282611fda565b6001146114975760405162461bcd60e51b81526004016106e69060208082526004908201526322ab22a760e11b604082015260600190565b6009546114a690600290611fee565b8111156114c55760405162461bcd60e51b81526004016106e690611e7a565b600b81905560408051818152600a91810191909152696d696e416e737765727360b01b6060820152602081018290526000805160206120c78339815191529060800161077a565b600061151b82600084516119ec565b600282516115299190611fda565b1561155a57816002835161153d9190611fee565b8151811061154d5761154d611f96565b60200260200101516115ca565b6002826002845161156b9190611fee565b8151811061157b5761157b611f96565b6020026020010151836001600286516115949190611fee565b61159e9190611eb3565b815181106115ae576115ae611f96565b60200260200101516115c09190612002565b6115ca9190612043565b92915050565b6010600081546115df90611eca565b90915550604080516060810182526001808252602080830182815260008486018181526010548252601290935294852093518454915161ffff1990921690151561ff001916176101009115159190910217835551910155600d80549161164483611eca565b909155505042600e5560005b60095481101561169457600f6000815461166990611eca565b90915550601054600f546000908152601160205260409020558061168c81611eca565b915050611650565b506010547f00000000000000000000000000000000000000000000000000000000000000006001600160a01b031663766718086040518163ffffffff1660e01b8152600401602060405180830381865afa1580156116f6573d6000803e3d6000fd5b505050506040513d601f19601f8201168201806040525081019061171a9190611dad565b600a54600954604080519283526020830191909152600082820152517fb5f2943c67db1794f39a3b46b95086765f48c7e05d12851dc6607bcdb0bcc7a39181900360600190a3565b600080600d819055506000600e8190555060007f00000000000000000000000000000000000000000000000000000000000000006001600160a01b031663faf33f296040518163ffffffff1660e01b8152600401602060405180830381865afa1580156117d3573d6000803e3d6000fd5b505050506040513d601f19601f820116820180604052508101906117f79190611dad565b600854600c54919250600091101561180f5781611868565b611868600c80548060200260200160405190810160405280929190818152602001828054801561185e57602002820191906000526020600020905b81548152602001906001019080831161184a575b5050505050611aaf565b905060007f00000000000000000000000000000000000000000000000000000000000000006001600160a01b0316637361a54484600085136118ab5760006118ad565b845b6040516001600160e01b031960e085901b168152600481019290925260248201526044016020604051808303816000875af11580156118f0573d6000803e3d6000fd5b505050506040513d601f19601f820116820180604052508101906119149190611dad565b90507f00000000000000000000000000000000000000000000000000000000000000006001600160a01b031663766718086040518163ffffffff1660e01b8152600401602060405180830381865afa158015611974573d6000803e3d6000fd5b505050506040513d601f19601f820116820180604052508101906119989190611dad565b9350601054847f263c5efc95bb2e2134e3fc52ae914fbd38e2381f37d95ae011a56f996578bf17600c85856040516119d293929190612071565b60405180910390a36119e6600c6000611b7e565b50505090565b8082106119f857505050565b60008290506000848281518110611a1157611a11611f96565b602002602001015190506000846001611a2a9190611fac565b90505b83811015611a7c5781868281518110611a4857611a48611f96565b60200260200101511215611a6c57611a6c8682611a6486611eca565b955085611b0b565b611a7581611eca565b9050611a2d565b50611a88858584611b0b565b611a938585846119ec565b611aa885611aa2846001611fac565b856119ec565b5050505050565b60008060005b8351811015611af757838181518110611ad057611ad0611f96565b602002602001015182611ae39190612002565b915080611aef81611eca565b915050611ab5565b508251611b049082612043565b9392505050565b828181518110611b1d57611b1d611f96565b6020026020010151838381518110611b3757611b37611f96565b6020026020010151848481518110611b5157611b51611f96565b60200260200101858481518110611b6a57611b6a611f96565b602090810291909101019190915252505050565b5080546000825590600052602060002090810190610f7e9190611c01565b828054828255906000526020600020908101928215611bf1579160200282015b82811115611bf157825182546001600160a01b0319166001600160a01b03909116178255602090920191600190910190611bbc565b50611bfd929150611c01565b5090565b5b80821115611bfd5760008155600101611c02565b60008060408385031215611c2957600080fd5b50508035926020909101359150565b600060208284031215611c4a57600080fd5b5035919050565b634e487b7160e01b600052604160045260246000fd5b6001600160a01b0381168114610f7e57600080fd5b8035611c8781611c67565b919050565b60006020808385031215611c9f57600080fd5b823567ffffffffffffffff80821115611cb757600080fd5b818501915085601f830112611ccb57600080fd5b813581811115611cdd57611cdd611c51565b8060051b604051601f19603f83011681018181108582111715611d0257611d02611c51565b604052918252848201925083810185019188831115611d2057600080fd5b938501935b82851015611d4557611d3685611c7c565b84529385019392850192611d25565b98975050505050505050565b600080600060608486031215611d6657600080fd5b505081359360208301359350604090920135919050565b60008060408385031215611d9057600080fd5b823591506020830135611da281611c67565b809150509250929050565b600060208284031215611dbf57600080fd5b5051919050565b6000604082016040835280855480835260608501915086600052602092508260002060005b82811015611e0757815484529284019260019182019101611deb565b50505092019290925292915050565b600060208284031215611e2857600080fd5b8151611b0481611c67565b6020808252600a908201526927a7262cafa7aba722a960b11b604082015260600190565b6020808252600990820152682122a627abafa6a4a760b91b604082015260600190565b602080825260099082015268082849eac8abe9a82b60bb1b604082015260600190565b634e487b7160e01b600052601160045260246000fd5b600082821015611ec557611ec5611e9d565b500390565b600060018201611edc57611edc611e9d565b5060010190565b6020808252600c908201526b27a7262cafa6a0a720a3a2a960a11b604082015260600190565b602080825260079082015266056414c55455f360cc1b604082015260600190565b6000816000190483118215151615611f4457611f44611e9d565b500290565b6020808252825182820181905260009190848201906040850190845b81811015611f8a5783516001600160a01b031683529284019291840191600101611f65565b50909695505050505050565b634e487b7160e01b600052603260045260246000fd5b60008219821115611fbf57611fbf611e9d565b500190565b634e487b7160e01b600052601260045260246000fd5b600082611fe957611fe9611fc4565b500690565b600082611ffd57611ffd611fc4565b500490565b600080821280156001600160ff1b038490038513161561202457612024611e9d565b600160ff1b839003841281161561203d5761203d611e9d565b50500190565b60008261205257612052611fc4565b600160ff1b82146000198414161561206c5761206c611e9d565b500590565b6000606082016060835280865480835260808501915087600052602092508260002060005b828110156120b257815484529284019260019182019101612096565b50505090830194909452506040015291905056fe127735ae9d047cae55da37db2c8ee184c735aacd68cef068d4e70be6a41661d9a26469706673582212206eb6fc1847184f856a822a185809334151505abb71acee8e455f1dd70ce088c964736f6c634300080f0033",
  "devdoc": {
    "kind": "dev",
    "methods": {},
    "version": 1
  },
  "userdoc": {
    "kind": "user",
    "methods": {},
    "version": 1
  },
  "storageLayout": {
    "storage": [
      {
        "astId": 319,
        "contract": "contracts/OpenPnlFeed.sol:OpenPnlFeed",
        "label": "s_ens",
        "offset": 0,
        "slot": "0",
        "type": "t_contract(ENSInterface)974"
      },
      {
        "astId": 321,
        "contract": "contracts/OpenPnlFeed.sol:OpenPnlFeed",
        "label": "s_ensNode",
        "offset": 0,
        "slot": "1",
        "type": "t_bytes32"
      },
      {
        "astId": 324,
        "contract": "contracts/OpenPnlFeed.sol:OpenPnlFeed",
        "label": "s_link",
        "offset": 0,
        "slot": "2",
        "type": "t_contract(LinkTokenInterface)1069"
      },
      {
        "astId": 327,
        "contract": "contracts/OpenPnlFeed.sol:OpenPnlFeed",
        "label": "s_oracle",
        "offset": 0,
        "slot": "3",
        "type": "t_contract(OperatorInterface)1149"
      },
      {
        "astId": 330,
        "contract": "contracts/OpenPnlFeed.sol:OpenPnlFeed",
        "label": "s_requestCount",
        "offset": 0,
        "slot": "4",
        "type": "t_uint256"
      },
      {
        "astId": 334,
        "contract": "contracts/OpenPnlFeed.sol:OpenPnlFeed",
        "label": "s_pendingRequests",
        "offset": 0,
        "slot": "5",
        "type": "t_mapping(t_bytes32,t_address)"
      },
      {
        "astId": 9997,
        "contract": "contracts/OpenPnlFeed.sol:OpenPnlFeed",
        "label": "requestsStart",
        "offset": 0,
        "slot": "6",
        "type": "t_uint256"
      },
      {
        "astId": 10000,
        "contract": "contracts/OpenPnlFeed.sol:OpenPnlFeed",
        "label": "requestsEvery",
        "offset": 0,
        "slot": "7",
        "type": "t_uint256"
      },
      {
        "astId": 10003,
        "contract": "contracts/OpenPnlFeed.sol:OpenPnlFeed",
        "label": "requestsCount",
        "offset": 0,
        "slot": "8",
        "type": "t_uint256"
      },
      {
        "astId": 10006,
        "contract": "contracts/OpenPnlFeed.sol:OpenPnlFeed",
        "label": "oracles",
        "offset": 0,
        "slot": "9",
        "type": "t_array(t_address)dyn_storage"
      },
      {
        "astId": 10008,
        "contract": "contracts/OpenPnlFeed.sol:OpenPnlFeed",
        "label": "job",
        "offset": 0,
        "slot": "10",
        "type": "t_bytes32"
      },
      {
        "astId": 10010,
        "contract": "contracts/OpenPnlFeed.sol:OpenPnlFeed",
        "label": "minAnswers",
        "offset": 0,
        "slot": "11",
        "type": "t_uint256"
      },
      {
        "astId": 10013,
        "contract": "contracts/OpenPnlFeed.sol:OpenPnlFeed",
        "label": "nextEpochValues",
        "offset": 0,
        "slot": "12",
        "type": "t_array(t_int256)dyn_storage"
      },
      {
        "astId": 10015,
        "contract": "contracts/OpenPnlFeed.sol:OpenPnlFeed",
        "label": "nextEpochValuesRequestCount",
        "offset": 0,
        "slot": "13",
        "type": "t_uint256"
      },
      {
        "astId": 10017,
        "contract": "contracts/OpenPnlFeed.sol:OpenPnlFeed",
        "label": "nextEpochValuesLastRequest",
        "offset": 0,
        "slot": "14",
        "type": "t_uint256"
      },
      {
        "astId": 10019,
        "contract": "contracts/OpenPnlFeed.sol:OpenPnlFeed",
        "label": "requestId",
        "offset": 0,
        "slot": "15",
        "type": "t_uint256"
      },
      {
        "astId": 10021,
        "contract": "contracts/OpenPnlFeed.sol:OpenPnlFeed",
        "label": "lastRequestId",
        "offset": 0,
        "slot": "16",
        "type": "t_uint256"
      },
      {
        "astId": 10025,
        "contract": "contracts/OpenPnlFeed.sol:OpenPnlFeed",
        "label": "requestIds",
        "offset": 0,
        "slot": "17",
        "type": "t_mapping(t_uint256,t_uint256)"
      },
      {
        "astId": 10030,
        "contract": "contracts/OpenPnlFeed.sol:OpenPnlFeed",
        "label": "requests",
        "offset": 0,
        "slot": "18",
        "type": "t_mapping(t_uint256,t_struct(Request)10042_storage)"
      },
      {
        "astId": 10035,
        "contract": "contracts/OpenPnlFeed.sol:OpenPnlFeed",
        "label": "requestAnswers",
        "offset": 0,
        "slot": "19",
        "type": "t_mapping(t_uint256,t_array(t_int256)dyn_storage)"
      }
    ],
    "types": {
      "t_address": {
        "encoding": "inplace",
        "label": "address",
        "numberOfBytes": "20"
      },
      "t_array(t_address)dyn_storage": {
        "base": "t_address",
        "encoding": "dynamic_array",
        "label": "address[]",
        "numberOfBytes": "32"
      },
      "t_array(t_int256)dyn_storage": {
        "base": "t_int256",
        "encoding": "dynamic_array",
        "label": "int256[]",
        "numberOfBytes": "32"
      },
      "t_bool": {
        "encoding": "inplace",
        "label": "bool",
        "numberOfBytes": "1"
      },
      "t_bytes32": {
        "encoding": "inplace",
        "label": "bytes32",
        "numberOfBytes": "32"
      },
      "t_contract(ENSInterface)974": {
        "encoding": "inplace",
        "label": "contract ENSInterface",
        "numberOfBytes": "20"
      },
      "t_contract(LinkTokenInterface)1069": {
        "encoding": "inplace",
        "label": "contract LinkTokenInterface",
        "numberOfBytes": "20"
      },
      "t_contract(OperatorInterface)1149": {
        "encoding": "inplace",
        "label": "contract OperatorInterface",
        "numberOfBytes": "20"
      },
      "t_int256": {
        "encoding": "inplace",
        "label": "int256",
        "numberOfBytes": "32"
      },
      "t_mapping(t_bytes32,t_address)": {
        "encoding": "mapping",
        "key": "t_bytes32",
        "label": "mapping(bytes32 => address)",
        "numberOfBytes": "32",
        "value": "t_address"
      },
      "t_mapping(t_uint256,t_array(t_int256)dyn_storage)": {
        "encoding": "mapping",
        "key": "t_uint256",
        "label": "mapping(uint256 => int256[])",
        "numberOfBytes": "32",
        "value": "t_array(t_int256)dyn_storage"
      },
      "t_mapping(t_uint256,t_struct(Request)10042_storage)": {
        "encoding": "mapping",
        "key": "t_uint256",
        "label": "mapping(uint256 => struct OpenPnlFeed.Request)",
        "numberOfBytes": "32",
        "value": "t_struct(Request)10042_storage"
      },
      "t_mapping(t_uint256,t_uint256)": {
        "encoding": "mapping",
        "key": "t_uint256",
        "label": "mapping(uint256 => uint256)",
        "numberOfBytes": "32",
        "value": "t_uint256"
      },
      "t_struct(Request)10042_storage": {
        "encoding": "inplace",
        "label": "struct OpenPnlFeed.Request",
        "members": [
          {
            "astId": 10037,
            "contract": "contracts/OpenPnlFeed.sol:OpenPnlFeed",
            "label": "initiated",
            "offset": 0,
            "slot": "0",
            "type": "t_bool"
          },
          {
            "astId": 10039,
            "contract": "contracts/OpenPnlFeed.sol:OpenPnlFeed",
            "label": "active",
            "offset": 1,
            "slot": "0",
            "type": "t_bool"
          },
          {
            "astId": 10041,
            "contract": "contracts/OpenPnlFeed.sol:OpenPnlFeed",
            "label": "linkFeePerNode",
            "offset": 0,
            "slot": "1",
            "type": "t_uint256"
          }
        ],
        "numberOfBytes": "64"
      },
      "t_uint256": {
        "encoding": "inplace",
        "label": "uint256",
        "numberOfBytes": "32"
      }
    }
  }
}