{
  "address": "0x10C190e14bBe774aC32370c3D415578e29b57F8c",
  "abi": [
    {
      "anonymous": false,
      "inputs": [
        {
          "indexed": false,
          "internalType": "uint8",
          "name": "version",
          "type": "uint8"
        }
      ],
      "name": "Initialized",
      "type": "event"
    },
    {
      "anonymous": false,
      "inputs": [
        {
          "indexed": true,
          "internalType": "bytes32",
          "name": "role",
          "type": "bytes32"
        },
        {
          "indexed": true,
          "internalType": "bytes32",
          "name": "previousAdminRole",
          "type": "bytes32"
        },
        {
          "indexed": true,
          "internalType": "bytes32",
          "name": "newAdminRole",
          "type": "bytes32"
        }
      ],
      "name": "RoleAdminChanged",
      "type": "event"
    },
    {
      "anonymous": false,
      "inputs": [
        {
          "indexed": true,
          "internalType": "bytes32",
          "name": "role",
          "type": "bytes32"
        },
        {
          "indexed": true,
          "internalType": "address",
          "name": "account",
          "type": "address"
        },
        {
          "indexed": true,
          "internalType": "address",
          "name": "sender",
          "type": "address"
        }
      ],
      "name": "RoleGranted",
      "type": "event"
    },
    {
      "anonymous": false,
      "inputs": [
        {
          "indexed": true,
          "internalType": "bytes32",
          "name": "role",
          "type": "bytes32"
        },
        {
          "indexed": true,
          "internalType": "address",
          "name": "account",
          "type": "address"
        },
        {
          "indexed": true,
          "internalType": "address",
          "name": "sender",
          "type": "address"
        }
      ],
      "name": "RoleRevoked",
      "type": "event"
    },
    {
      "inputs": [],
      "name": "DEFAULT_ADMIN_ROLE",
      "outputs": [
        {
          "internalType": "bytes32",
          "name": "",
          "type": "bytes32"
        }
      ],
      "stateMutability": "view",
      "type": "function"
    },
    {
      "inputs": [],
      "name": "PRICE_SETTER_ROLE",
      "outputs": [
        {
          "internalType": "bytes32",
          "name": "",
          "type": "bytes32"
        }
      ],
      "stateMutability": "view",
      "type": "function"
    },
    {
      "inputs": [
        {
          "internalType": "address",
          "name": "priceSetter",
          "type": "address"
        }
      ],
      "name": "__Oracle_init",
      "outputs": [],
      "stateMutability": "nonpayable",
      "type": "function"
    },
    {
      "inputs": [
        {
          "internalType": "uint256",
          "name": "tokenIndex",
          "type": "uint256"
        },
        {
          "internalType": "uint256",
          "name": "price",
          "type": "uint256"
        }
      ],
      "name": "feedPrice",
      "outputs": [],
      "stateMutability": "nonpayable",
      "type": "function"
    },
    {
      "inputs": [
        {
          "internalType": "uint256[]",
          "name": "tokenIndexes",
          "type": "uint256[]"
        },
        {
          "internalType": "uint256[]",
          "name": "prices",
          "type": "uint256[]"
        }
      ],
      "name": "feedPriceArray",
      "outputs": [],
      "stateMutability": "nonpayable",
      "type": "function"
    },
    {
      "inputs": [
        {
          "internalType": "uint256",
          "name": "tokenIndex",
          "type": "uint256"
        }
      ],
      "name": "getPrice",
      "outputs": [
        {
          "internalType": "uint256",
          "name": "price",
          "type": "uint256"
        },
        {
          "internalType": "uint256",
          "name": "lastupdateTime",
          "type": "uint256"
        }
      ],
      "stateMutability": "view",
      "type": "function"
    },
    {
      "inputs": [
        {
          "internalType": "bytes32",
          "name": "role",
          "type": "bytes32"
        }
      ],
      "name": "getRoleAdmin",
      "outputs": [
        {
          "internalType": "bytes32",
          "name": "",
          "type": "bytes32"
        }
      ],
      "stateMutability": "view",
      "type": "function"
    },
    {
      "inputs": [
        {
          "internalType": "bytes32",
          "name": "role",
          "type": "bytes32"
        },
        {
          "internalType": "address",
          "name": "account",
          "type": "address"
        }
      ],
      "name": "grantRole",
      "outputs": [],
      "stateMutability": "nonpayable",
      "type": "function"
    },
    {
      "inputs": [
        {
          "internalType": "bytes32",
          "name": "role",
          "type": "bytes32"
        },
        {
          "internalType": "address",
          "name": "account",
          "type": "address"
        }
      ],
      "name": "hasRole",
      "outputs": [
        {
          "internalType": "bool",
          "name": "",
          "type": "bool"
        }
      ],
      "stateMutability": "view",
      "type": "function"
    },
    {
      "inputs": [
        {
          "internalType": "bytes32",
          "name": "role",
          "type": "bytes32"
        },
        {
          "internalType": "address",
          "name": "account",
          "type": "address"
        }
      ],
      "name": "renounceRole",
      "outputs": [],
      "stateMutability": "nonpayable",
      "type": "function"
    },
    {
      "inputs": [
        {
          "internalType": "bytes32",
          "name": "role",
          "type": "bytes32"
        },
        {
          "internalType": "address",
          "name": "account",
          "type": "address"
        }
      ],
      "name": "revokeRole",
      "outputs": [],
      "stateMutability": "nonpayable",
      "type": "function"
    },
    {
      "inputs": [
        {
          "internalType": "bytes4",
          "name": "interfaceId",
          "type": "bytes4"
        }
      ],
      "name": "supportsInterface",
      "outputs": [
        {
          "internalType": "bool",
          "name": "",
          "type": "bool"
        }
      ],
      "stateMutability": "view",
      "type": "function"
    }
  ],
  "transactionHash": "0xd86ebb524206c93ae1fd0a5455422fe34dd1034841ffa95dfec828c8f7ced0f9",
  "args": [],
  "numDeployments": 1,
  "solcInputHash": "be3f31a2a9daf94ca2c1fb85b33493fd",
  "bytecode": "0x608060405234801561001057600080fd5b50610cda806100206000396000f3fe608060405234801561001057600080fd5b50600436106100b45760003560e01c806391d148541161007157806391d1485414610160578063a217fddf14610173578063bab7cae71461017b578063d547741f1461018e578063e7572230146101a1578063f00acbaa146101c957600080fd5b806301ffc9a7146100b95780631d6d8bc8146100e1578063248a9ca3146100f65780632f2ff15d1461012757806336568abe1461013a578063918dcb561461014d575b600080fd5b6100cc6100c73660046109a2565b6101de565b60405190151581526020015b60405180910390f35b6100f46100ef3660046109e8565b610215565b005b610119610104366004610a03565b60009081526065602052604090206001015490565b6040519081526020016100d8565b6100f4610135366004610a1c565b610364565b6100f4610148366004610a1c565b61038e565b6100f461015b366004610a94565b610408565b6100cc61016e366004610a1c565b61047f565b610119600081565b6100f4610189366004610b00565b6104aa565b6100f461019c366004610a1c565b6104cc565b6101b46101af366004610a03565b6104f1565b604080519283526020830191909152016100d8565b610119600080516020610c8583398151915281565b60006001600160e01b03198216637965db0b60e01b148061020f57506301ffc9a760e01b6001600160e01b03198316145b92915050565b600054610100900460ff16158080156102355750600054600160ff909116105b8061024f5750303b15801561024f575060005460ff166001145b6102b75760405162461bcd60e51b815260206004820152602e60248201527f496e697469616c697a61626c653a20636f6e747261637420697320616c72656160448201526d191e481a5b9a5d1a585b1a5e995960921b60648201526084015b60405180910390fd5b6000805460ff1916600117905580156102da576000805461ff0019166101001790555b6102e261056e565b6102ea61056e565b610302600080516020610c85833981519152836105db565b61031a600080516020610c8583398151915280610661565b8015610360576000805461ff0019169055604051600181527f7f26b83ff96e1f2b6a682f133852f6798a09c465da95921460cefb38474024989060200160405180910390a15b5050565b60008281526065602052604090206001015461037f816106ac565b61038983836105db565b505050565b6001600160a01b03811633146103fe5760405162461bcd60e51b815260206004820152602f60248201527f416363657373436f6e74726f6c3a2063616e206f6e6c792072656e6f756e636560448201526e103937b632b9903337b91039b2b63360891b60648201526084016102ae565b61036082826106b9565b600080516020610c85833981519152610420816106ac565b60005b848110156104775761046586868381811061044057610440610b22565b9050602002013585858481811061045957610459610b22565b90506020020135610720565b8061046f81610b4e565b915050610423565b505050505050565b60009182526065602090815260408084206001600160a01b0393909316845291905290205460ff1690565b600080516020610c858339815191526104c2816106ac565b6103898383610720565b6000828152606560205260409020600101546104e7816106ac565b61038983836106b9565b6000818152609760209081526040808320815180830190925280548252600101549181018290528291820361055c5760405162461bcd60e51b8152602060048201526011602482015270141c9a58d9481b9bdd081d5c19185d1959607a1b60448201526064016102ae565b80516020909101519094909350915050565b600054610100900460ff166105d95760405162461bcd60e51b815260206004820152602b60248201527f496e697469616c697a61626c653a20636f6e7472616374206973206e6f74206960448201526a6e697469616c697a696e6760a81b60648201526084016102ae565b565b6105e5828261047f565b6103605760008281526065602090815260408083206001600160a01b03851684529091529020805460ff1916600117905561061d3390565b6001600160a01b0316816001600160a01b0316837f2f8788117e7eff1d82e926ec794901d17c78024a50270940304540a733656f0d60405160405180910390a45050565b600082815260656020526040808220600101805490849055905190918391839186917fbd79b86ffe0ab8e8776151514217cd7cacd52c909f66475c3af44e129f0b00ff9190a4505050565b6106b68133610794565b50565b6106c3828261047f565b156103605760008281526065602090815260408083206001600160a01b0385168085529252808320805460ff1916905551339285917ff6391f5c32d9c69d2a47ea670b442974b53935d1edc7fd64eb21e047a839171b9190a45050565b600081116107665760405162461bcd60e51b815260206004820152601360248201527250726963652063616e2774206265207a65726f60681b60448201526064016102ae565b6040805180820182529182524260208084019182526000948552609790529220905181559051600190910155565b61079e828261047f565b610360576107ab816107ed565b6107b68360206107ff565b6040516020016107c7929190610b8b565b60408051601f198184030181529082905262461bcd60e51b82526102ae91600401610bfa565b606061020f6001600160a01b03831660145b6060600061080e836002610c2d565b610819906002610c44565b67ffffffffffffffff81111561083157610831610c57565b6040519080825280601f01601f19166020018201604052801561085b576020820181803683370190505b509050600360fc1b8160008151811061087657610876610b22565b60200101906001600160f81b031916908160001a905350600f60fb1b816001815181106108a5576108a5610b22565b60200101906001600160f81b031916908160001a90535060006108c9846002610c2d565b6108d4906001610c44565b90505b600181111561094c576f181899199a1a9b1b9c1cb0b131b232b360811b85600f166010811061090857610908610b22565b1a60f81b82828151811061091e5761091e610b22565b60200101906001600160f81b031916908160001a90535060049490941c9361094581610c6d565b90506108d7565b50831561099b5760405162461bcd60e51b815260206004820181905260248201527f537472696e67733a20686578206c656e67746820696e73756666696369656e7460448201526064016102ae565b9392505050565b6000602082840312156109b457600080fd5b81356001600160e01b03198116811461099b57600080fd5b80356001600160a01b03811681146109e357600080fd5b919050565b6000602082840312156109fa57600080fd5b61099b826109cc565b600060208284031215610a1557600080fd5b5035919050565b60008060408385031215610a2f57600080fd5b82359150610a3f602084016109cc565b90509250929050565b60008083601f840112610a5a57600080fd5b50813567ffffffffffffffff811115610a7257600080fd5b6020830191508360208260051b8501011115610a8d57600080fd5b9250929050565b60008060008060408587031215610aaa57600080fd5b843567ffffffffffffffff80821115610ac257600080fd5b610ace88838901610a48565b90965094506020870135915080821115610ae757600080fd5b50610af487828801610a48565b95989497509550505050565b60008060408385031215610b1357600080fd5b50508035926020909101359150565b634e487b7160e01b600052603260045260246000fd5b634e487b7160e01b600052601160045260246000fd5b600060018201610b6057610b60610b38565b5060010190565b60005b83811015610b82578181015183820152602001610b6a565b50506000910152565b76020b1b1b2b9b9a1b7b73a3937b61d1030b1b1b7bab73a1604d1b815260008351610bbd816017850160208801610b67565b7001034b99036b4b9b9b4b733903937b6329607d1b6017918401918201528351610bee816028840160208801610b67565b01602801949350505050565b6020815260008251806020840152610c19816040850160208701610b67565b601f01601f19169190910160400192915050565b808202811582820484141761020f5761020f610b38565b8082018082111561020f5761020f610b38565b634e487b7160e01b600052604160045260246000fd5b600081610c7c57610c7c610b38565b50600019019056fe04824fcb60e7cc526d70b264caa65b62ed44d9c8e5d230e8ff6b0c7373843b8aa2646970667358221220d0a35fe4477d5b0ffeedf05b34463c8736a2eec593d7486c9c72eca7de89934564736f6c63430008140033",
  "devdoc": {
    "events": {
      "Initialized(uint8)": {
        "details": "Triggered when the contract has been initialized or reinitialized."
      },
      "RoleAdminChanged(bytes32,bytes32,bytes32)": {
        "details": "Emitted when `newAdminRole` is set as ``role``'s admin role, replacing `previousAdminRole` `DEFAULT_ADMIN_ROLE` is the starting admin for all roles, despite {RoleAdminChanged} not being emitted signaling this. _Available since v3.1._"
      },
      "RoleGranted(bytes32,address,address)": {
        "details": "Emitted when `account` is granted `role`. `sender` is the account that originated the contract call, an admin role bearer except when using {AccessControl-_setupRole}."
      },
      "RoleRevoked(bytes32,address,address)": {
        "details": "Emitted when `account` is revoked `role`. `sender` is the account that originated the contract call:   - if using `revokeRole`, it is the admin role bearer   - if using `renounceRole`, it is the role bearer (i.e. `account`)"
      }
    },
    "kind": "dev",
    "methods": {
      "getRoleAdmin(bytes32)": {
        "details": "Returns the admin role that controls `role`. See {grantRole} and {revokeRole}. To change a role's admin, use {_setRoleAdmin}."
      },
      "grantRole(bytes32,address)": {
        "details": "Grants `role` to `account`. If `account` had not been already granted `role`, emits a {RoleGranted} event. Requirements: - the caller must have ``role``'s admin role. May emit a {RoleGranted} event."
      },
      "hasRole(bytes32,address)": {
        "details": "Returns `true` if `account` has been granted `role`."
      },
      "renounceRole(bytes32,address)": {
        "details": "Revokes `role` from the calling account. Roles are often managed via {grantRole} and {revokeRole}: this function's purpose is to provide a mechanism for accounts to lose their privileges if they are compromised (such as when a trusted device is misplaced). If the calling account had been revoked `role`, emits a {RoleRevoked} event. Requirements: - the caller must be `account`. May emit a {RoleRevoked} event."
      },
      "revokeRole(bytes32,address)": {
        "details": "Revokes `role` from `account`. If `account` had been granted `role`, emits a {RoleRevoked} event. Requirements: - the caller must have ``role``'s admin role. May emit a {RoleRevoked} event."
      },
      "supportsInterface(bytes4)": {
        "details": "See {IERC165-supportsInterface}."
      }
    },
    "version": 1
  },
  "userdoc": {
    "kind": "user",
    "methods": {},
    "version": 1
  },
  "storageLayout": {
    "storage": [
      {
        "astId": 2592,
        "contract": "contracts/Oracle.sol:Oracle",
        "label": "_initialized",
        "offset": 0,
        "slot": "0",
        "type": "t_uint8"
      },
      {
        "astId": 2595,
        "contract": "contracts/Oracle.sol:Oracle",
        "label": "_initializing",
        "offset": 1,
        "slot": "0",
        "type": "t_bool"
      },
      {
        "astId": 3125,
        "contract": "contracts/Oracle.sol:Oracle",
        "label": "__gap",
        "offset": 0,
        "slot": "1",
        "type": "t_array(t_uint256)50_storage"
      },
      {
        "astId": 3398,
        "contract": "contracts/Oracle.sol:Oracle",
        "label": "__gap",
        "offset": 0,
        "slot": "51",
        "type": "t_array(t_uint256)50_storage"
      },
      {
        "astId": 2216,
        "contract": "contracts/Oracle.sol:Oracle",
        "label": "_roles",
        "offset": 0,
        "slot": "101",
        "type": "t_mapping(t_bytes32,t_struct(RoleData)2211_storage)"
      },
      {
        "astId": 2511,
        "contract": "contracts/Oracle.sol:Oracle",
        "label": "__gap",
        "offset": 0,
        "slot": "102",
        "type": "t_array(t_uint256)49_storage"
      },
      {
        "astId": 7605,
        "contract": "contracts/Oracle.sol:Oracle",
        "label": "priceData",
        "offset": 0,
        "slot": "151",
        "type": "t_mapping(t_uint256,t_struct(Observation)7595_storage)"
      }
    ],
    "types": {
      "t_address": {
        "encoding": "inplace",
        "label": "address",
        "numberOfBytes": "20"
      },
      "t_array(t_uint256)49_storage": {
        "base": "t_uint256",
        "encoding": "inplace",
        "label": "uint256[49]",
        "numberOfBytes": "1568"
      },
      "t_array(t_uint256)50_storage": {
        "base": "t_uint256",
        "encoding": "inplace",
        "label": "uint256[50]",
        "numberOfBytes": "1600"
      },
      "t_bool": {
        "encoding": "inplace",
        "label": "bool",
        "numberOfBytes": "1"
      },
      "t_bytes32": {
        "encoding": "inplace",
        "label": "bytes32",
        "numberOfBytes": "32"
      },
      "t_mapping(t_address,t_bool)": {
        "encoding": "mapping",
        "key": "t_address",
        "label": "mapping(address => bool)",
        "numberOfBytes": "32",
        "value": "t_bool"
      },
      "t_mapping(t_bytes32,t_struct(RoleData)2211_storage)": {
        "encoding": "mapping",
        "key": "t_bytes32",
        "label": "mapping(bytes32 => struct AccessControlUpgradeable.RoleData)",
        "numberOfBytes": "32",
        "value": "t_struct(RoleData)2211_storage"
      },
      "t_mapping(t_uint256,t_struct(Observation)7595_storage)": {
        "encoding": "mapping",
        "key": "t_uint256",
        "label": "mapping(uint256 => struct Oracle.Observation)",
        "numberOfBytes": "32",
        "value": "t_struct(Observation)7595_storage"
      },
      "t_struct(Observation)7595_storage": {
        "encoding": "inplace",
        "label": "struct Oracle.Observation",
        "members": [
          {
            "astId": 7592,
            "contract": "contracts/Oracle.sol:Oracle",
            "label": "price",
            "offset": 0,
            "slot": "0",
            "type": "t_uint256"
          },
          {
            "astId": 7594,
            "contract": "contracts/Oracle.sol:Oracle",
            "label": "lastupdateTime",
            "offset": 0,
            "slot": "1",
            "type": "t_uint256"
          }
        ],
        "numberOfBytes": "64"
      },
      "t_struct(RoleData)2211_storage": {
        "encoding": "inplace",
        "label": "struct AccessControlUpgradeable.RoleData",
        "members": [
          {
            "astId": 2208,
            "contract": "contracts/Oracle.sol:Oracle",
            "label": "members",
            "offset": 0,
            "slot": "0",
            "type": "t_mapping(t_address,t_bool)"
          },
          {
            "astId": 2210,
            "contract": "contracts/Oracle.sol:Oracle",
            "label": "adminRole",
            "offset": 0,
            "slot": "1",
            "type": "t_bytes32"
          }
        ],
        "numberOfBytes": "64"
      },
      "t_uint256": {
        "encoding": "inplace",
        "label": "uint256",
        "numberOfBytes": "32"
      },
      "t_uint8": {
        "encoding": "inplace",
        "label": "uint8",
        "numberOfBytes": "1"
      }
    }
  }
}