{
  "address": "0x772F54dd5Db6E0c86a6BA6e05F67A062d2f3Fd04",
  "abi": [
    {
      "anonymous": false,
      "inputs": [
        {
          "indexed": false,
          "internalType": "uint8",
          "name": "version",
          "type": "uint8"
        }
      ],
      "name": "Initialized",
      "type": "event"
    },
    {
      "anonymous": false,
      "inputs": [
        {
          "indexed": true,
          "internalType": "bytes32",
          "name": "role",
          "type": "bytes32"
        },
        {
          "indexed": true,
          "internalType": "bytes32",
          "name": "previousAdminRole",
          "type": "bytes32"
        },
        {
          "indexed": true,
          "internalType": "bytes32",
          "name": "newAdminRole",
          "type": "bytes32"
        }
      ],
      "name": "RoleAdminChanged",
      "type": "event"
    },
    {
      "anonymous": false,
      "inputs": [
        {
          "indexed": true,
          "internalType": "bytes32",
          "name": "role",
          "type": "bytes32"
        },
        {
          "indexed": true,
          "internalType": "address",
          "name": "account",
          "type": "address"
        },
        {
          "indexed": true,
          "internalType": "address",
          "name": "sender",
          "type": "address"
        }
      ],
      "name": "RoleGranted",
      "type": "event"
    },
    {
      "anonymous": false,
      "inputs": [
        {
          "indexed": true,
          "internalType": "bytes32",
          "name": "role",
          "type": "bytes32"
        },
        {
          "indexed": true,
          "internalType": "address",
          "name": "account",
          "type": "address"
        },
        {
          "indexed": true,
          "internalType": "address",
          "name": "sender",
          "type": "address"
        }
      ],
      "name": "RoleRevoked",
      "type": "event"
    },
    {
      "inputs": [],
      "name": "DEFAULT_ADMIN_ROLE",
      "outputs": [
        {
          "internalType": "bytes32",
          "name": "",
          "type": "bytes32"
        }
      ],
      "stateMutability": "view",
      "type": "function"
    },
    {
      "inputs": [],
      "name": "PRICE_SETTER_ROLE",
      "outputs": [
        {
          "internalType": "bytes32",
          "name": "",
          "type": "bytes32"
        }
      ],
      "stateMutability": "view",
      "type": "function"
    },
    {
      "inputs": [
        {
          "internalType": "address",
          "name": "priceSetter",
          "type": "address"
        },
        {
          "internalType": "uint256",
          "name": "_fundingFeeEpoch",
          "type": "uint256"
        }
      ],
      "name": "__Oracle_init",
      "outputs": [],
      "stateMutability": "nonpayable",
      "type": "function"
    },
    {
      "inputs": [
        {
          "internalType": "uint256",
          "name": "tokenIndex",
          "type": "uint256"
        },
        {
          "internalType": "uint256",
          "name": "price",
          "type": "uint256"
        }
      ],
      "name": "feedPrice",
      "outputs": [],
      "stateMutability": "nonpayable",
      "type": "function"
    },
    {
      "inputs": [
        {
          "internalType": "uint256[]",
          "name": "tokenIndexes",
          "type": "uint256[]"
        },
        {
          "internalType": "uint256[]",
          "name": "prices",
          "type": "uint256[]"
        }
      ],
      "name": "feedPriceArray",
      "outputs": [],
      "stateMutability": "nonpayable",
      "type": "function"
    },
    {
      "inputs": [],
      "name": "fundingFeeEpoch",
      "outputs": [
        {
          "internalType": "uint256",
          "name": "",
          "type": "uint256"
        }
      ],
      "stateMutability": "view",
      "type": "function"
    },
    {
      "inputs": [
        {
          "internalType": "uint256",
          "name": "tokenIndex",
          "type": "uint256"
        }
      ],
      "name": "getFundingFee",
      "outputs": [
        {
          "internalType": "uint256",
          "name": "fee",
          "type": "uint256"
        }
      ],
      "stateMutability": "view",
      "type": "function"
    },
    {
      "inputs": [
        {
          "internalType": "uint256",
          "name": "tokenIndex",
          "type": "uint256"
        }
      ],
      "name": "getPrice",
      "outputs": [
        {
          "internalType": "uint256",
          "name": "price",
          "type": "uint256"
        },
        {
          "internalType": "uint256",
          "name": "lastupdateTime",
          "type": "uint256"
        }
      ],
      "stateMutability": "view",
      "type": "function"
    },
    {
      "inputs": [
        {
          "internalType": "bytes32",
          "name": "role",
          "type": "bytes32"
        }
      ],
      "name": "getRoleAdmin",
      "outputs": [
        {
          "internalType": "bytes32",
          "name": "",
          "type": "bytes32"
        }
      ],
      "stateMutability": "view",
      "type": "function"
    },
    {
      "inputs": [
        {
          "internalType": "bytes32",
          "name": "role",
          "type": "bytes32"
        },
        {
          "internalType": "address",
          "name": "account",
          "type": "address"
        }
      ],
      "name": "grantRole",
      "outputs": [],
      "stateMutability": "nonpayable",
      "type": "function"
    },
    {
      "inputs": [
        {
          "internalType": "bytes32",
          "name": "role",
          "type": "bytes32"
        },
        {
          "internalType": "address",
          "name": "account",
          "type": "address"
        }
      ],
      "name": "hasRole",
      "outputs": [
        {
          "internalType": "bool",
          "name": "",
          "type": "bool"
        }
      ],
      "stateMutability": "view",
      "type": "function"
    },
    {
      "inputs": [
        {
          "internalType": "bytes32",
          "name": "role",
          "type": "bytes32"
        },
        {
          "internalType": "address",
          "name": "account",
          "type": "address"
        }
      ],
      "name": "renounceRole",
      "outputs": [],
      "stateMutability": "nonpayable",
      "type": "function"
    },
    {
      "inputs": [
        {
          "internalType": "bytes32",
          "name": "role",
          "type": "bytes32"
        },
        {
          "internalType": "address",
          "name": "account",
          "type": "address"
        }
      ],
      "name": "revokeRole",
      "outputs": [],
      "stateMutability": "nonpayable",
      "type": "function"
    },
    {
      "inputs": [
        {
          "internalType": "uint256",
          "name": "_seconds",
          "type": "uint256"
        }
      ],
      "name": "setFundingFeeEPOCH",
      "outputs": [],
      "stateMutability": "nonpayable",
      "type": "function"
    },
    {
      "inputs": [
        {
          "internalType": "bytes4",
          "name": "interfaceId",
          "type": "bytes4"
        }
      ],
      "name": "supportsInterface",
      "outputs": [
        {
          "internalType": "bool",
          "name": "",
          "type": "bool"
        }
      ],
      "stateMutability": "view",
      "type": "function"
    }
  ],
  "transactionHash": "0xd4963297c1aaf4ef139c480f6edbfff06c40438cb9f5d8622c7a64fb0276b18f",
  "args": [],
  "numDeployments": 1,
  "solcInputHash": "063f6380a44fddc0413748fbb84bc8a5",
  "bytecode": "0x608060405234801561001057600080fd5b5061102a806100206000396000f3fe608060405234801561001057600080fd5b50600436106100d55760003560e01c8063918dcb5611610087578063918dcb561461018a57806391d148541461019d578063a217fddf146101b0578063bab7cae7146101b8578063be5d6076146101cb578063d547741f146101de578063e7572230146101f1578063f00acbaa1461024357600080fd5b806301ffc9a7146100da578063248a9ca3146101025780632f2ff15d1461013357806336568abe14610148578063426537511461015b5780636cc8daf51461016e5780638046340614610177575b600080fd5b6100ed6100e8366004610b8b565b610258565b60405190151581526020015b60405180910390f35b610125610110366004610bb5565b60009081526065602052604090206001015490565b6040519081526020016100f9565b610146610141366004610be5565b61028f565b005b610146610156366004610be5565b6102b9565b610146610169366004610c11565b61033c565b61012560975481565b610125610185366004610bb5565b61048b565b610146610198366004610c87565b6104db565b6100ed6101ab366004610be5565b61058c565b610125600081565b6101466101c6366004610cf3565b6105b7565b6101466101d9366004610bb5565b609755565b6101466101ec366004610be5565b6105e3565b61022e6101ff366004610bb5565b600090815260986020908152604091829020825180840190935280548084526001909101549290910182905291565b604080519283526020830191909152016100f9565b610125600080516020610fd583398151915281565b60006001600160e01b03198216637965db0b60e01b148061028957506301ffc9a760e01b6001600160e01b03198316145b92915050565b6000828152606560205260409020600101546102aa81610608565b6102b48383610615565b505050565b6001600160a01b038116331461032e5760405162461bcd60e51b815260206004820152602f60248201527f416363657373436f6e74726f6c3a2063616e206f6e6c792072656e6f756e636560448201526e103937b632b9903337b91039b2b63360891b60648201526084015b60405180910390fd5b610338828261069b565b5050565b600054610100900460ff161580801561035c5750600054600160ff909116105b806103765750303b158015610376575060005460ff166001145b6103d95760405162461bcd60e51b815260206004820152602e60248201527f496e697469616c697a61626c653a20636f6e747261637420697320616c72656160448201526d191e481a5b9a5d1a585b1a5e995960921b6064820152608401610325565b6000805460ff1916600117905580156103fc576000805461ff0019166101001790555b610404610702565b61040c610702565b610424600080516020610fd583398151915284610615565b61043c600080516020610fd58339815191528061076f565b609782905580156102b4576000805461ff0019169055604051600181527f7f26b83ff96e1f2b6a682f133852f6798a09c465da95921460cefb38474024989060200160405180910390a1505050565b6000818152609960205260408120600301548113156104c25760008281526099602052604090206003015461028990600019610d2b565b506000818152609960205260409020600301545b919050565b600080516020610fd58339815191526104f381610608565b60005b848110156105845761053886868381811061051357610513610db0565b9050602002013585858481811061052c5761052c610db0565b905060200201356107ba565b61057286868381811061054d5761054d610db0565b9050602002013585858481811061056657610566610db0565b90506020020135610808565b8061057c81610dc6565b9150506104f6565b505050505050565b60009182526065602090815260408084206001600160a01b0393909316845291905290205460ff1690565b600080516020610fd58339815191526105cf81610608565b6105d983836107ba565b6102b48383610808565b6000828152606560205260409020600101546105fe81610608565b6102b4838361069b565b610612813361097d565b50565b61061f828261058c565b6103385760008281526065602090815260408083206001600160a01b03851684529091529020805460ff191660011790556106573390565b6001600160a01b0316816001600160a01b0316837f2f8788117e7eff1d82e926ec794901d17c78024a50270940304540a733656f0d60405160405180910390a45050565b6106a5828261058c565b156103385760008281526065602090815260408083206001600160a01b0385168085529252808320805460ff1916905551339285917ff6391f5c32d9c69d2a47ea670b442974b53935d1edc7fd64eb21e047a839171b9190a45050565b600054610100900460ff1661076d5760405162461bcd60e51b815260206004820152602b60248201527f496e697469616c697a61626c653a20636f6e7472616374206973206e6f74206960448201526a6e697469616c697a696e6760a81b6064820152608401610325565b565b600082815260656020526040808220600101805490849055905190918391839186917fbd79b86ffe0ab8e8776151514217cd7cacd52c909f66475c3af44e129f0b00ff9190a4505050565b600081116107da5760405162461bcd60e51b815260040161032590610ddf565b6040805180820182529182524260208084019182526000948552609890529220905181559051600190910155565b600081116108285760405162461bcd60e51b815260040161032590610ddf565b60008281526099602090815260408083208151608081018352815481526001820154938101849052600282015492810192909252600301546060820152918115916108739042610e0c565b609754111580156108875750602083015115155b905081156108dc5760408051608081018252858152426020808301918252438385019081526000606085018181528b825260999093529490942092518355905160018301559151600282015590516003909101555b80156109765782516000906402540be4006108f78288610e23565b6109019190610d2b565b61090b9190610e62565b9050600084604001514361091f9190610e0c565b6109299083610e62565b60408051608081018252888152426020808301918252438385019081526060840195865260008d815260999092529390209151825551600182015590516002820155905160039091015550505b5050505050565b610987828261058c565b61033857610994816109d6565b61099f8360206109e8565b6040516020016109b0929190610ece565b60408051601f198184030181529082905262461bcd60e51b825261032591600401610f3d565b60606102896001600160a01b03831660145b606060006109f7836002610f70565b610a02906002610f8f565b67ffffffffffffffff811115610a1a57610a1a610fa7565b6040519080825280601f01601f191660200182016040528015610a44576020820181803683370190505b509050600360fc1b81600081518110610a5f57610a5f610db0565b60200101906001600160f81b031916908160001a905350600f60fb1b81600181518110610a8e57610a8e610db0565b60200101906001600160f81b031916908160001a9053506000610ab2846002610f70565b610abd906001610f8f565b90505b6001811115610b35576f181899199a1a9b1b9c1cb0b131b232b360811b85600f1660108110610af157610af1610db0565b1a60f81b828281518110610b0757610b07610db0565b60200101906001600160f81b031916908160001a90535060049490941c93610b2e81610fbd565b9050610ac0565b508315610b845760405162461bcd60e51b815260206004820181905260248201527f537472696e67733a20686578206c656e67746820696e73756666696369656e746044820152606401610325565b9392505050565b600060208284031215610b9d57600080fd5b81356001600160e01b031981168114610b8457600080fd5b600060208284031215610bc757600080fd5b5035919050565b80356001600160a01b03811681146104d657600080fd5b60008060408385031215610bf857600080fd5b82359150610c0860208401610bce565b90509250929050565b60008060408385031215610c2457600080fd5b610c2d83610bce565b946020939093013593505050565b60008083601f840112610c4d57600080fd5b50813567ffffffffffffffff811115610c6557600080fd5b6020830191508360208260051b8501011115610c8057600080fd5b9250929050565b60008060008060408587031215610c9d57600080fd5b843567ffffffffffffffff80821115610cb557600080fd5b610cc188838901610c3b565b90965094506020870135915080821115610cda57600080fd5b50610ce787828801610c3b565b95989497509550505050565b60008060408385031215610d0657600080fd5b50508035926020909101359150565b634e487b7160e01b600052601160045260246000fd5b60006001600160ff1b0381841382841380821686840486111615610d5157610d51610d15565b600160ff1b6000871282811687830589121615610d7057610d70610d15565b60008712925087820587128484161615610d8c57610d8c610d15565b87850587128184161615610da257610da2610d15565b505050929093029392505050565b634e487b7160e01b600052603260045260246000fd5b600060018201610dd857610dd8610d15565b5060010190565b60208082526013908201527250726963652063616e2774206265207a65726f60681b604082015260600190565b600082821015610e1e57610e1e610d15565b500390565b60008083128015600160ff1b850184121615610e4157610e41610d15565b6001600160ff1b0384018313811615610e5c57610e5c610d15565b50500390565b600082610e7f57634e487b7160e01b600052601260045260246000fd5b600160ff1b821460001984141615610e9957610e99610d15565b500590565b60005b83811015610eb9578181015183820152602001610ea1565b83811115610ec8576000848401525b50505050565b76020b1b1b2b9b9a1b7b73a3937b61d1030b1b1b7bab73a1604d1b815260008351610f00816017850160208801610e9e565b7001034b99036b4b9b9b4b733903937b6329607d1b6017918401918201528351610f31816028840160208801610e9e565b01602801949350505050565b6020815260008251806020840152610f5c816040850160208701610e9e565b601f01601f19169190910160400192915050565b6000816000190483118215151615610f8a57610f8a610d15565b500290565b60008219821115610fa257610fa2610d15565b500190565b634e487b7160e01b600052604160045260246000fd5b600081610fcc57610fcc610d15565b50600019019056fe04824fcb60e7cc526d70b264caa65b62ed44d9c8e5d230e8ff6b0c7373843b8aa26469706673582212207a85e76dcb719cd803d22b88d4cf12bb386b87538e1e2c3497da36764477552a64736f6c634300080f0033",
  "devdoc": {
    "kind": "dev",
    "methods": {
      "getRoleAdmin(bytes32)": {
        "details": "Returns the admin role that controls `role`. See {grantRole} and {revokeRole}. To change a role's admin, use {_setRoleAdmin}."
      },
      "grantRole(bytes32,address)": {
        "details": "Grants `role` to `account`. If `account` had not been already granted `role`, emits a {RoleGranted} event. Requirements: - the caller must have ``role``'s admin role. May emit a {RoleGranted} event."
      },
      "hasRole(bytes32,address)": {
        "details": "Returns `true` if `account` has been granted `role`."
      },
      "renounceRole(bytes32,address)": {
        "details": "Revokes `role` from the calling account. Roles are often managed via {grantRole} and {revokeRole}: this function's purpose is to provide a mechanism for accounts to lose their privileges if they are compromised (such as when a trusted device is misplaced). If the calling account had been revoked `role`, emits a {RoleRevoked} event. Requirements: - the caller must be `account`. May emit a {RoleRevoked} event."
      },
      "revokeRole(bytes32,address)": {
        "details": "Revokes `role` from `account`. If `account` had been granted `role`, emits a {RoleRevoked} event. Requirements: - the caller must have ``role``'s admin role. May emit a {RoleRevoked} event."
      },
      "supportsInterface(bytes4)": {
        "details": "See {IERC165-supportsInterface}."
      }
    },
    "version": 1
  },
  "userdoc": {
    "kind": "user",
    "methods": {},
    "version": 1
  },
  "storageLayout": {
    "storage": [
      {
        "astId": 2891,
        "contract": "contracts/Oracle.sol:Oracle",
        "label": "_initialized",
        "offset": 0,
        "slot": "0",
        "type": "t_uint8"
      },
      {
        "astId": 2894,
        "contract": "contracts/Oracle.sol:Oracle",
        "label": "_initializing",
        "offset": 1,
        "slot": "0",
        "type": "t_bool"
      },
      {
        "astId": 5211,
        "contract": "contracts/Oracle.sol:Oracle",
        "label": "__gap",
        "offset": 0,
        "slot": "1",
        "type": "t_array(t_uint256)50_storage"
      },
      {
        "astId": 5484,
        "contract": "contracts/Oracle.sol:Oracle",
        "label": "__gap",
        "offset": 0,
        "slot": "51",
        "type": "t_array(t_uint256)50_storage"
      },
      {
        "astId": 2215,
        "contract": "contracts/Oracle.sol:Oracle",
        "label": "_roles",
        "offset": 0,
        "slot": "101",
        "type": "t_mapping(t_bytes32,t_struct(RoleData)2210_storage)"
      },
      {
        "astId": 2510,
        "contract": "contracts/Oracle.sol:Oracle",
        "label": "__gap",
        "offset": 0,
        "slot": "102",
        "type": "t_array(t_uint256)49_storage"
      },
      {
        "astId": 11103,
        "contract": "contracts/Oracle.sol:Oracle",
        "label": "fundingFeeEpoch",
        "offset": 0,
        "slot": "151",
        "type": "t_uint256"
      },
      {
        "astId": 11108,
        "contract": "contracts/Oracle.sol:Oracle",
        "label": "priceData",
        "offset": 0,
        "slot": "152",
        "type": "t_mapping(t_uint256,t_struct(Observation)11084_storage)"
      },
      {
        "astId": 11113,
        "contract": "contracts/Oracle.sol:Oracle",
        "label": "fundinFeeData",
        "offset": 0,
        "slot": "153",
        "type": "t_mapping(t_uint256,t_struct(FundingFeeObservation)11093_storage)"
      }
    ],
    "types": {
      "t_address": {
        "encoding": "inplace",
        "label": "address",
        "numberOfBytes": "20"
      },
      "t_array(t_uint256)49_storage": {
        "base": "t_uint256",
        "encoding": "inplace",
        "label": "uint256[49]",
        "numberOfBytes": "1568"
      },
      "t_array(t_uint256)50_storage": {
        "base": "t_uint256",
        "encoding": "inplace",
        "label": "uint256[50]",
        "numberOfBytes": "1600"
      },
      "t_bool": {
        "encoding": "inplace",
        "label": "bool",
        "numberOfBytes": "1"
      },
      "t_bytes32": {
        "encoding": "inplace",
        "label": "bytes32",
        "numberOfBytes": "32"
      },
      "t_int256": {
        "encoding": "inplace",
        "label": "int256",
        "numberOfBytes": "32"
      },
      "t_mapping(t_address,t_bool)": {
        "encoding": "mapping",
        "key": "t_address",
        "label": "mapping(address => bool)",
        "numberOfBytes": "32",
        "value": "t_bool"
      },
      "t_mapping(t_bytes32,t_struct(RoleData)2210_storage)": {
        "encoding": "mapping",
        "key": "t_bytes32",
        "label": "mapping(bytes32 => struct AccessControlUpgradeable.RoleData)",
        "numberOfBytes": "32",
        "value": "t_struct(RoleData)2210_storage"
      },
      "t_mapping(t_uint256,t_struct(FundingFeeObservation)11093_storage)": {
        "encoding": "mapping",
        "key": "t_uint256",
        "label": "mapping(uint256 => struct Oracle.FundingFeeObservation)",
        "numberOfBytes": "32",
        "value": "t_struct(FundingFeeObservation)11093_storage"
      },
      "t_mapping(t_uint256,t_struct(Observation)11084_storage)": {
        "encoding": "mapping",
        "key": "t_uint256",
        "label": "mapping(uint256 => struct Oracle.Observation)",
        "numberOfBytes": "32",
        "value": "t_struct(Observation)11084_storage"
      },
      "t_struct(FundingFeeObservation)11093_storage": {
        "encoding": "inplace",
        "label": "struct Oracle.FundingFeeObservation",
        "members": [
          {
            "astId": 11086,
            "contract": "contracts/Oracle.sol:Oracle",
            "label": "price",
            "offset": 0,
            "slot": "0",
            "type": "t_uint256"
          },
          {
            "astId": 11088,
            "contract": "contracts/Oracle.sol:Oracle",
            "label": "lastupdateTime",
            "offset": 0,
            "slot": "1",
            "type": "t_uint256"
          },
          {
            "astId": 11090,
            "contract": "contracts/Oracle.sol:Oracle",
            "label": "lastupdateBlockNumber",
            "offset": 0,
            "slot": "2",
            "type": "t_uint256"
          },
          {
            "astId": 11092,
            "contract": "contracts/Oracle.sol:Oracle",
            "label": "fundingFeeRate",
            "offset": 0,
            "slot": "3",
            "type": "t_int256"
          }
        ],
        "numberOfBytes": "128"
      },
      "t_struct(Observation)11084_storage": {
        "encoding": "inplace",
        "label": "struct Oracle.Observation",
        "members": [
          {
            "astId": 11081,
            "contract": "contracts/Oracle.sol:Oracle",
            "label": "price",
            "offset": 0,
            "slot": "0",
            "type": "t_uint256"
          },
          {
            "astId": 11083,
            "contract": "contracts/Oracle.sol:Oracle",
            "label": "lastupdateTime",
            "offset": 0,
            "slot": "1",
            "type": "t_uint256"
          }
        ],
        "numberOfBytes": "64"
      },
      "t_struct(RoleData)2210_storage": {
        "encoding": "inplace",
        "label": "struct AccessControlUpgradeable.RoleData",
        "members": [
          {
            "astId": 2207,
            "contract": "contracts/Oracle.sol:Oracle",
            "label": "members",
            "offset": 0,
            "slot": "0",
            "type": "t_mapping(t_address,t_bool)"
          },
          {
            "astId": 2209,
            "contract": "contracts/Oracle.sol:Oracle",
            "label": "adminRole",
            "offset": 0,
            "slot": "1",
            "type": "t_bytes32"
          }
        ],
        "numberOfBytes": "64"
      },
      "t_uint256": {
        "encoding": "inplace",
        "label": "uint256",
        "numberOfBytes": "32"
      },
      "t_uint8": {
        "encoding": "inplace",
        "label": "uint8",
        "numberOfBytes": "1"
      }
    }
  }
}