{
  "address": "0x4B208e74D0De70eE2335DF7Aec23fc5Cba17205B",
  "abi": [
    {
      "inputs": [
        {
          "internalType": "uint256",
          "name": "tokenIndex",
          "type": "uint256"
        },
        {
          "internalType": "uint256",
          "name": "price",
          "type": "uint256"
        }
      ],
      "name": "feedPrice",
      "outputs": [],
      "stateMutability": "nonpayable",
      "type": "function"
    },
    {
      "inputs": [
        {
          "internalType": "uint256[]",
          "name": "tokenIndexes",
          "type": "uint256[]"
        },
        {
          "internalType": "uint256[]",
          "name": "prices",
          "type": "uint256[]"
        }
      ],
      "name": "feedPriceArray",
      "outputs": [],
      "stateMutability": "nonpayable",
      "type": "function"
    },
    {
      "inputs": [
        {
          "internalType": "uint256",
          "name": "tokenIndex",
          "type": "uint256"
        }
      ],
      "name": "getTWAP",
      "outputs": [
        {
          "internalType": "uint256",
          "name": "twapPrice",
          "type": "uint256"
        }
      ],
      "stateMutability": "view",
      "type": "function"
    }
  ],
  "transactionHash": "0xaaaf9034530824791fc1d021d59b2b6add93c817b65e97d724ec72bccf6fd955",
  "args": [],
  "numDeployments": 1,
  "solcInputHash": "4a54523e30549b8c5add3101e674cffc",
  "bytecode": "0x608060405234801561001057600080fd5b506104e9806100206000396000f3fe608060405234801561001057600080fd5b50600436106100415760003560e01c8063918dcb5614610046578063bab7cae71461005b578063f30d3d1b1461006e575b600080fd5b610059610054366004610368565b610093565b005b6100596100693660046103d4565b6100f1565b61008161007c3660046103f6565b6101b3565b60405190815260200160405180910390f35b60005b838110156100ea576100d88585838181106100b3576100b361040f565b905060200201358484848181106100cc576100cc61040f565b905060200201356100f1565b806100e28161043b565b915050610096565b5050505050565b600082815260208181526040808320815160808101835281548152600182015493810193909352600281015491830191909152600301546060820181905290919061013c9042610454565b90506101466102f4565b617080821080156101575750428214155b1561016e57610167834286610250565b905061017b565b61017842856102c1565b90505b600094855260208581526040958690208251815590820151600182015594810151600286015560600151600390940193909355505050565b600081815260208181526040808320815160808101835281548152600182015493810193909352600281015491830182905260030154606083015282036102355760405162461bcd60e51b81526020600482015260126024820152711c1c9a58d94819995959081b9bdd081cd95d60721b604482015260640160405180910390fd5b806040015181602001516102499190610467565b9392505050565b6102586102f4565b83516000906102679085610454565b9050604051806080016040528085815260200182856102869190610489565b876020015161029591906104a0565b81526020018287604001516102aa91906104a0565b815260200186606001518152509150509392505050565b6102c96102f4565b6040518060800160405280848152602001838152602001600181526020018481525090505b92915050565b6040518060800160405280600081526020016000815260200160008152602001600081525090565b60008083601f84011261032e57600080fd5b50813567ffffffffffffffff81111561034657600080fd5b6020830191508360208260051b850101111561036157600080fd5b9250929050565b6000806000806040858703121561037e57600080fd5b843567ffffffffffffffff8082111561039657600080fd5b6103a28883890161031c565b909650945060208701359150808211156103bb57600080fd5b506103c88782880161031c565b95989497509550505050565b600080604083850312156103e757600080fd5b50508035926020909101359150565b60006020828403121561040857600080fd5b5035919050565b634e487b7160e01b600052603260045260246000fd5b634e487b7160e01b600052601160045260246000fd5b60006001820161044d5761044d610425565b5060010190565b818103818111156102ee576102ee610425565b60008261048457634e487b7160e01b600052601260045260246000fd5b500490565b80820281158282048414176102ee576102ee610425565b808201808211156102ee576102ee61042556fea264697066735822122088cf98bab08c19e113a1de432fa9d9f6fb29a44bf1a376a725cdbc81d12b7b1a64736f6c63430008140033",
  "devdoc": {
    "kind": "dev",
    "methods": {},
    "version": 1
  },
  "userdoc": {
    "kind": "user",
    "methods": {},
    "version": 1
  },
  "storageLayout": {
    "storage": [
      {
        "astId": 15,
        "contract": "contracts/Oracle.sol:Oracle",
        "label": "priceData",
        "offset": 0,
        "slot": "0",
        "type": "t_mapping(t_uint256,t_struct(Observation)10_storage)"
      }
    ],
    "types": {
      "t_mapping(t_uint256,t_struct(Observation)10_storage)": {
        "encoding": "mapping",
        "key": "t_uint256",
        "label": "mapping(uint256 => struct Oracle.Observation)",
        "numberOfBytes": "32",
        "value": "t_struct(Observation)10_storage"
      },
      "t_struct(Observation)10_storage": {
        "encoding": "inplace",
        "label": "struct Oracle.Observation",
        "members": [
          {
            "astId": 3,
            "contract": "contracts/Oracle.sol:Oracle",
            "label": "lastUpdateblockTimestamp",
            "offset": 0,
            "slot": "0",
            "type": "t_uint256"
          },
          {
            "astId": 5,
            "contract": "contracts/Oracle.sol:Oracle",
            "label": "priceCumulative",
            "offset": 0,
            "slot": "1",
            "type": "t_uint256"
          },
          {
            "astId": 7,
            "contract": "contracts/Oracle.sol:Oracle",
            "label": "secondsPerLiquidityCumulative",
            "offset": 0,
            "slot": "2",
            "type": "t_uint256"
          },
          {
            "astId": 9,
            "contract": "contracts/Oracle.sol:Oracle",
            "label": "initializeTime",
            "offset": 0,
            "slot": "3",
            "type": "t_uint256"
          }
        ],
        "numberOfBytes": "128"
      },
      "t_uint256": {
        "encoding": "inplace",
        "label": "uint256",
        "numberOfBytes": "32"
      }
    }
  }
}