{
  "address": "0x64327f4740265D7813fB30dFA902F54567e98Ef6",
  "abi": [
    {
      "inputs": [
        {
          "internalType": "uint256[]",
          "name": "values",
          "type": "uint256[]"
        },
        {
          "internalType": "uint256[]",
          "name": "bitLengths",
          "type": "uint256[]"
        }
      ],
      "name": "pack",
      "outputs": [
        {
          "internalType": "uint256",
          "name": "packed",
          "type": "uint256"
        }
      ],
      "stateMutability": "pure",
      "type": "function"
    },
    {
      "inputs": [
        {
          "internalType": "uint256",
          "name": "packed",
          "type": "uint256"
        },
        {
          "internalType": "uint256[]",
          "name": "bitLengths",
          "type": "uint256[]"
        }
      ],
      "name": "unpack",
      "outputs": [
        {
          "internalType": "uint256[]",
          "name": "values",
          "type": "uint256[]"
        }
      ],
      "stateMutability": "pure",
      "type": "function"
    },
    {
      "inputs": [
        {
          "internalType": "uint256",
          "name": "packed",
          "type": "uint256"
        }
      ],
      "name": "unpack256To64",
      "outputs": [
        {
          "internalType": "uint64",
          "name": "a",
          "type": "uint64"
        },
        {
          "internalType": "uint64",
          "name": "b",
          "type": "uint64"
        },
        {
          "internalType": "uint64",
          "name": "c",
          "type": "uint64"
        },
        {
          "internalType": "uint64",
          "name": "d",
          "type": "uint64"
        }
      ],
      "stateMutability": "pure",
      "type": "function"
    },
    {
      "inputs": [
        {
          "internalType": "uint256",
          "name": "packed",
          "type": "uint256"
        }
      ],
      "name": "unpackExecuteNftOrder",
      "outputs": [
        {
          "internalType": "uint256",
          "name": "a",
          "type": "uint256"
        },
        {
          "internalType": "address",
          "name": "b",
          "type": "address"
        },
        {
          "internalType": "uint256",
          "name": "c",
          "type": "uint256"
        },
        {
          "internalType": "uint256",
          "name": "d",
          "type": "uint256"
        },
        {
          "internalType": "uint256",
          "name": "e",
          "type": "uint256"
        },
        {
          "internalType": "uint256",
          "name": "f",
          "type": "uint256"
        }
      ],
      "stateMutability": "pure",
      "type": "function"
    }
  ],
  "transactionHash": "0xcab819f80413ecbe98b9a3493b1bbdda44027d66086c5399b6ced149de3981a5",
  "args": [],
  "numDeployments": 1,
  "solcInputHash": "ec3cbe74776f6123e7e1f431318f92a1",
  "bytecode": "0x61073561003a600b82828239805160001a60731461002d57634e487b7160e01b600052600060045260246000fd5b30600052607381538281f3fe73000000000000000000000000000000000000000030146080604052600436106100565760003560e01c80635e1f97581461005b578063acc482d214610084578063c6bc0c3a146100a5578063cefbb3bd146100fc575b600080fd5b61006e610069366004610590565b61016f565b60405161007b91906105d7565b60405180910390f35b61009761009236600461061b565b6102dd565b60405190815260200161007b565b6100c86100b3366004610675565b90604082901c90608083901c9060c084901c90565b6040805167ffffffffffffffff9586168152938516602085015291841691830191909152909116606082015260800161007b565b61013a61010a366004610675565b60ff811691600882901c9161ffff60a882901c81169260b883901c82169260c881901c83169260d89190911c1690565b604080519687526001600160a01b039095166020870152938501929092526060840152608083015260a082015260c00161007b565b6060815167ffffffffffffffff81111561018b5761018b6104df565b6040519080825280602002602001820160405280156101b4578160200160208202803683370190505b5090506000805b83518110156102d5576101008482815181106101d9576101d961068e565b6020026020010151836101ec91906106ba565b111561023f5760405162461bcd60e51b815260206004820152601f60248201527f556e7061636b65642076616c756520657863656564732032353620626974730060448201526064015b60405180910390fd5b600060018583815181106102555761025561068e565b60200260200101516001901b61026b91906106d3565b905060008382901b905083818816901c85848151811061028d5761028d61068e565b6020026020010181815250508583815181106102ab576102ab61068e565b6020026020010151846102be91906106ba565b9350505080806102cd906106e6565b9150506101bb565b505092915050565b600081518351146103505760405162461bcd60e51b815260206004820152603760248201527f4d69736d6174636820696e20746865206c656e67746873206f662076616c75656044820152767320616e64206269744c656e677468732061727261797360481b6064820152608401610236565b6000805b84518110156102d5576101008482815181106103725761037261068e565b60200260200101518361038591906106ba565b11156103d35760405162461bcd60e51b815260206004820152601d60248201527f5061636b65642076616c756520657863656564732032353620626974730000006044820152606401610236565b600060018583815181106103e9576103e961068e565b60200260200101516001901b6103ff91906106d3565b9050808683815181106104145761041461068e565b6020026020010151111561047b5760405162461bcd60e51b815260206004820152602860248201527f56616c756520746f6f206c6172676520666f72207370656369666965642062696044820152670e840d8cadccee8d60c31b6064820152608401610236565b6000818784815181106104905761049061068e565b60200260200101511690508381901b851794508583815181106104b5576104b561068e565b6020026020010151846104c891906106ba565b9350505080806104d7906106e6565b915050610354565b634e487b7160e01b600052604160045260246000fd5b600082601f83011261050657600080fd5b8135602067ffffffffffffffff80831115610523576105236104df565b8260051b604051601f19603f83011681018181108482111715610548576105486104df565b60405293845285810183019383810192508785111561056657600080fd5b83870191505b848210156105855781358352918301919083019061056c565b979650505050505050565b600080604083850312156105a357600080fd5b82359150602083013567ffffffffffffffff8111156105c157600080fd5b6105cd858286016104f5565b9150509250929050565b6020808252825182820181905260009190848201906040850190845b8181101561060f578351835292840192918401916001016105f3565b50909695505050505050565b6000806040838503121561062e57600080fd5b823567ffffffffffffffff8082111561064657600080fd5b610652868387016104f5565b9350602085013591508082111561066857600080fd5b506105cd858286016104f5565b60006020828403121561068757600080fd5b5035919050565b634e487b7160e01b600052603260045260246000fd5b634e487b7160e01b600052601160045260246000fd5b808201808211156106cd576106cd6106a4565b92915050565b818103818111156106cd576106cd6106a4565b6000600182016106f8576106f86106a4565b506001019056fea264697066735822122047efc01d3085b1daee7414d1b2d205f72b34a4f98acd3e45c346968af2878d2e64736f6c63430008110033",
  "devdoc": {
    "kind": "dev",
    "methods": {},
    "version": 1
  },
  "userdoc": {
    "kind": "user",
    "methods": {},
    "version": 1
  },
  "storageLayout": {
    "storage": [],
    "types": null
  }
}