{
  "address": "0x5ca03CC0785eec79589BFBB0d992Cde6F96A0BDD",
  "abi": [
    {
      "inputs": [
        {
          "internalType": "contract StorageInterface",
          "name": "_storageT",
          "type": "address"
        }
      ],
      "stateMutability": "nonpayable",
      "type": "constructor"
    },
    {
      "anonymous": false,
      "inputs": [
        {
          "indexed": false,
          "internalType": "uint256",
          "name": "pairIndex",
          "type": "uint256"
        },
        {
          "indexed": false,
          "internalType": "int256",
          "name": "valueLong",
          "type": "int256"
        },
        {
          "indexed": false,
          "internalType": "int256",
          "name": "valueShort",
          "type": "int256"
        }
      ],
      "name": "AccFundingFeesStored",
      "type": "event"
    },
    {
      "anonymous": false,
      "inputs": [
        {
          "indexed": false,
          "internalType": "uint256",
          "name": "pairIndex",
          "type": "uint256"
        },
        {
          "indexed": false,
          "internalType": "uint256",
          "name": "value",
          "type": "uint256"
        }
      ],
      "name": "AccRolloverFeesStored",
      "type": "event"
    },
    {
      "anonymous": false,
      "inputs": [
        {
          "indexed": false,
          "internalType": "uint256",
          "name": "pairIndex",
          "type": "uint256"
        },
        {
          "indexed": false,
          "internalType": "bool",
          "name": "long",
          "type": "bool"
        },
        {
          "indexed": false,
          "internalType": "uint256",
          "name": "collateral",
          "type": "uint256"
        },
        {
          "indexed": false,
          "internalType": "uint256",
          "name": "leverage",
          "type": "uint256"
        },
        {
          "indexed": false,
          "internalType": "int256",
          "name": "percentProfit",
          "type": "int256"
        },
        {
          "indexed": false,
          "internalType": "uint256",
          "name": "rolloverFees",
          "type": "uint256"
        },
        {
          "indexed": false,
          "internalType": "int256",
          "name": "fundingFees",
          "type": "int256"
        }
      ],
      "name": "FeesCharged",
      "type": "event"
    },
    {
      "anonymous": false,
      "inputs": [
        {
          "indexed": false,
          "internalType": "uint256",
          "name": "pairIndex",
          "type": "uint256"
        },
        {
          "indexed": false,
          "internalType": "uint256",
          "name": "value",
          "type": "uint256"
        }
      ],
      "name": "FundingFeePerBlockPUpdated",
      "type": "event"
    },
    {
      "anonymous": false,
      "inputs": [
        {
          "indexed": false,
          "internalType": "address",
          "name": "value",
          "type": "address"
        }
      ],
      "name": "ManagerUpdated",
      "type": "event"
    },
    {
      "anonymous": false,
      "inputs": [
        {
          "indexed": false,
          "internalType": "uint256",
          "name": "value",
          "type": "uint256"
        }
      ],
      "name": "MaxNegativePnlOnOpenPUpdated",
      "type": "event"
    },
    {
      "anonymous": false,
      "inputs": [
        {
          "indexed": false,
          "internalType": "uint256",
          "name": "pairIndex",
          "type": "uint256"
        },
        {
          "indexed": false,
          "internalType": "uint256",
          "name": "valueAbove",
          "type": "uint256"
        },
        {
          "indexed": false,
          "internalType": "uint256",
          "name": "valueBelow",
          "type": "uint256"
        }
      ],
      "name": "OnePercentDepthUpdated",
      "type": "event"
    },
    {
      "anonymous": false,
      "inputs": [
        {
          "indexed": false,
          "internalType": "uint256",
          "name": "pairIndex",
          "type": "uint256"
        },
        {
          "components": [
            {
              "internalType": "uint256",
              "name": "onePercentDepthAbove",
              "type": "uint256"
            },
            {
              "internalType": "uint256",
              "name": "onePercentDepthBelow",
              "type": "uint256"
            },
            {
              "internalType": "uint256",
              "name": "rolloverFeePerBlockP",
              "type": "uint256"
            },
            {
              "internalType": "uint256",
              "name": "fundingFeePerBlockP",
              "type": "uint256"
            }
          ],
          "indexed": false,
          "internalType": "struct PairInfos.PairParams",
          "name": "value",
          "type": "tuple"
        }
      ],
      "name": "PairParamsUpdated",
      "type": "event"
    },
    {
      "anonymous": false,
      "inputs": [
        {
          "indexed": false,
          "internalType": "uint256",
          "name": "pairIndex",
          "type": "uint256"
        },
        {
          "indexed": false,
          "internalType": "uint256",
          "name": "value",
          "type": "uint256"
        }
      ],
      "name": "RolloverFeePerBlockPUpdated",
      "type": "event"
    },
    {
      "anonymous": false,
      "inputs": [
        {
          "indexed": false,
          "internalType": "address",
          "name": "trader",
          "type": "address"
        },
        {
          "indexed": false,
          "internalType": "uint256",
          "name": "pairIndex",
          "type": "uint256"
        },
        {
          "indexed": false,
          "internalType": "uint256",
          "name": "index",
          "type": "uint256"
        },
        {
          "indexed": false,
          "internalType": "uint256",
          "name": "rollover",
          "type": "uint256"
        },
        {
          "indexed": false,
          "internalType": "int256",
          "name": "funding",
          "type": "int256"
        }
      ],
      "name": "TradeInitialAccFeesStored",
      "type": "event"
    },
    {
      "inputs": [
        {
          "internalType": "uint256",
          "name": "pairIndex",
          "type": "uint256"
        }
      ],
      "name": "getAccFundingFeesLong",
      "outputs": [
        {
          "internalType": "int256",
          "name": "",
          "type": "int256"
        }
      ],
      "stateMutability": "view",
      "type": "function"
    },
    {
      "inputs": [
        {
          "internalType": "uint256",
          "name": "pairIndex",
          "type": "uint256"
        }
      ],
      "name": "getAccFundingFeesShort",
      "outputs": [
        {
          "internalType": "int256",
          "name": "",
          "type": "int256"
        }
      ],
      "stateMutability": "view",
      "type": "function"
    },
    {
      "inputs": [
        {
          "internalType": "uint256",
          "name": "pairIndex",
          "type": "uint256"
        }
      ],
      "name": "getAccFundingFeesUpdateBlock",
      "outputs": [
        {
          "internalType": "uint256",
          "name": "",
          "type": "uint256"
        }
      ],
      "stateMutability": "view",
      "type": "function"
    },
    {
      "inputs": [
        {
          "internalType": "uint256",
          "name": "pairIndex",
          "type": "uint256"
        }
      ],
      "name": "getAccRolloverFees",
      "outputs": [
        {
          "internalType": "uint256",
          "name": "",
          "type": "uint256"
        }
      ],
      "stateMutability": "view",
      "type": "function"
    },
    {
      "inputs": [
        {
          "internalType": "uint256",
          "name": "pairIndex",
          "type": "uint256"
        }
      ],
      "name": "getAccRolloverFeesUpdateBlock",
      "outputs": [
        {
          "internalType": "uint256",
          "name": "",
          "type": "uint256"
        }
      ],
      "stateMutability": "view",
      "type": "function"
    },
    {
      "inputs": [
        {
          "internalType": "uint256",
          "name": "pairIndex",
          "type": "uint256"
        }
      ],
      "name": "getFundingFeePerBlockP",
      "outputs": [
        {
          "internalType": "uint256",
          "name": "",
          "type": "uint256"
        }
      ],
      "stateMutability": "view",
      "type": "function"
    },
    {
      "inputs": [
        {
          "internalType": "uint256",
          "name": "pairIndex",
          "type": "uint256"
        }
      ],
      "name": "getOnePercentDepthAbove",
      "outputs": [
        {
          "internalType": "uint256",
          "name": "",
          "type": "uint256"
        }
      ],
      "stateMutability": "view",
      "type": "function"
    },
    {
      "inputs": [
        {
          "internalType": "uint256",
          "name": "pairIndex",
          "type": "uint256"
        }
      ],
      "name": "getOnePercentDepthBelow",
      "outputs": [
        {
          "internalType": "uint256",
          "name": "",
          "type": "uint256"
        }
      ],
      "stateMutability": "view",
      "type": "function"
    },
    {
      "inputs": [
        {
          "internalType": "uint256[]",
          "name": "indices",
          "type": "uint256[]"
        }
      ],
      "name": "getPairInfos",
      "outputs": [
        {
          "components": [
            {
              "internalType": "uint256",
              "name": "onePercentDepthAbove",
              "type": "uint256"
            },
            {
              "internalType": "uint256",
              "name": "onePercentDepthBelow",
              "type": "uint256"
            },
            {
              "internalType": "uint256",
              "name": "rolloverFeePerBlockP",
              "type": "uint256"
            },
            {
              "internalType": "uint256",
              "name": "fundingFeePerBlockP",
              "type": "uint256"
            }
          ],
          "internalType": "struct PairInfos.PairParams[]",
          "name": "",
          "type": "tuple[]"
        },
        {
          "components": [
            {
              "internalType": "uint256",
              "name": "accPerCollateral",
              "type": "uint256"
            },
            {
              "internalType": "uint256",
              "name": "lastUpdateBlock",
              "type": "uint256"
            }
          ],
          "internalType": "struct PairInfos.PairRolloverFees[]",
          "name": "",
          "type": "tuple[]"
        },
        {
          "components": [
            {
              "internalType": "int256",
              "name": "accPerOiLong",
              "type": "int256"
            },
            {
              "internalType": "int256",
              "name": "accPerOiShort",
              "type": "int256"
            },
            {
              "internalType": "uint256",
              "name": "lastUpdateBlock",
              "type": "uint256"
            }
          ],
          "internalType": "struct PairInfos.PairFundingFees[]",
          "name": "",
          "type": "tuple[]"
        }
      ],
      "stateMutability": "view",
      "type": "function"
    },
    {
      "inputs": [
        {
          "internalType": "uint256",
          "name": "pairIndex",
          "type": "uint256"
        }
      ],
      "name": "getPendingAccFundingFees",
      "outputs": [
        {
          "internalType": "int256",
          "name": "valueLong",
          "type": "int256"
        },
        {
          "internalType": "int256",
          "name": "valueShort",
          "type": "int256"
        }
      ],
      "stateMutability": "view",
      "type": "function"
    },
    {
      "inputs": [
        {
          "internalType": "uint256",
          "name": "pairIndex",
          "type": "uint256"
        }
      ],
      "name": "getPendingAccRolloverFees",
      "outputs": [
        {
          "internalType": "uint256",
          "name": "",
          "type": "uint256"
        }
      ],
      "stateMutability": "view",
      "type": "function"
    },
    {
      "inputs": [
        {
          "internalType": "uint256",
          "name": "pairIndex",
          "type": "uint256"
        }
      ],
      "name": "getRolloverFeePerBlockP",
      "outputs": [
        {
          "internalType": "uint256",
          "name": "",
          "type": "uint256"
        }
      ],
      "stateMutability": "view",
      "type": "function"
    },
    {
      "inputs": [
        {
          "internalType": "address",
          "name": "trader",
          "type": "address"
        },
        {
          "internalType": "uint256",
          "name": "pairIndex",
          "type": "uint256"
        },
        {
          "internalType": "uint256",
          "name": "index",
          "type": "uint256"
        },
        {
          "internalType": "bool",
          "name": "long",
          "type": "bool"
        },
        {
          "internalType": "uint256",
          "name": "collateral",
          "type": "uint256"
        },
        {
          "internalType": "uint256",
          "name": "leverage",
          "type": "uint256"
        }
      ],
      "name": "getTradeFundingFee",
      "outputs": [
        {
          "internalType": "int256",
          "name": "",
          "type": "int256"
        }
      ],
      "stateMutability": "view",
      "type": "function"
    },
    {
      "inputs": [
        {
          "internalType": "int256",
          "name": "accFundingFeesPerOi",
          "type": "int256"
        },
        {
          "internalType": "int256",
          "name": "endAccFundingFeesPerOi",
          "type": "int256"
        },
        {
          "internalType": "uint256",
          "name": "collateral",
          "type": "uint256"
        },
        {
          "internalType": "uint256",
          "name": "leverage",
          "type": "uint256"
        }
      ],
      "name": "getTradeFundingFeePure",
      "outputs": [
        {
          "internalType": "int256",
          "name": "",
          "type": "int256"
        }
      ],
      "stateMutability": "pure",
      "type": "function"
    },
    {
      "inputs": [
        {
          "internalType": "address",
          "name": "trader",
          "type": "address"
        },
        {
          "internalType": "uint256",
          "name": "pairIndex",
          "type": "uint256"
        },
        {
          "internalType": "uint256",
          "name": "index",
          "type": "uint256"
        }
      ],
      "name": "getTradeInitialAccFundingFeesPerOi",
      "outputs": [
        {
          "internalType": "int256",
          "name": "",
          "type": "int256"
        }
      ],
      "stateMutability": "view",
      "type": "function"
    },
    {
      "inputs": [
        {
          "internalType": "address",
          "name": "trader",
          "type": "address"
        },
        {
          "internalType": "uint256",
          "name": "pairIndex",
          "type": "uint256"
        },
        {
          "internalType": "uint256",
          "name": "index",
          "type": "uint256"
        }
      ],
      "name": "getTradeInitialAccRolloverFeesPerCollateral",
      "outputs": [
        {
          "internalType": "uint256",
          "name": "",
          "type": "uint256"
        }
      ],
      "stateMutability": "view",
      "type": "function"
    },
    {
      "inputs": [
        {
          "internalType": "address",
          "name": "trader",
          "type": "address"
        },
        {
          "internalType": "uint256",
          "name": "pairIndex",
          "type": "uint256"
        },
        {
          "internalType": "uint256",
          "name": "index",
          "type": "uint256"
        },
        {
          "internalType": "uint256",
          "name": "openPrice",
          "type": "uint256"
        },
        {
          "internalType": "bool",
          "name": "long",
          "type": "bool"
        },
        {
          "internalType": "uint256",
          "name": "collateral",
          "type": "uint256"
        },
        {
          "internalType": "uint256",
          "name": "leverage",
          "type": "uint256"
        }
      ],
      "name": "getTradeLiquidationPrice",
      "outputs": [
        {
          "internalType": "uint256",
          "name": "",
          "type": "uint256"
        }
      ],
      "stateMutability": "view",
      "type": "function"
    },
    {
      "inputs": [
        {
          "internalType": "uint256",
          "name": "openPrice",
          "type": "uint256"
        },
        {
          "internalType": "bool",
          "name": "long",
          "type": "bool"
        },
        {
          "internalType": "uint256",
          "name": "collateral",
          "type": "uint256"
        },
        {
          "internalType": "uint256",
          "name": "leverage",
          "type": "uint256"
        },
        {
          "internalType": "uint256",
          "name": "rolloverFee",
          "type": "uint256"
        },
        {
          "internalType": "int256",
          "name": "fundingFee",
          "type": "int256"
        }
      ],
      "name": "getTradeLiquidationPricePure",
      "outputs": [
        {
          "internalType": "uint256",
          "name": "",
          "type": "uint256"
        }
      ],
      "stateMutability": "pure",
      "type": "function"
    },
    {
      "inputs": [
        {
          "internalType": "address",
          "name": "trader",
          "type": "address"
        },
        {
          "internalType": "uint256",
          "name": "pairIndex",
          "type": "uint256"
        },
        {
          "internalType": "uint256",
          "name": "index",
          "type": "uint256"
        }
      ],
      "name": "getTradeOpenedAfterUpdate",
      "outputs": [
        {
          "internalType": "bool",
          "name": "",
          "type": "bool"
        }
      ],
      "stateMutability": "view",
      "type": "function"
    },
    {
      "inputs": [
        {
          "internalType": "uint256",
          "name": "openPrice",
          "type": "uint256"
        },
        {
          "internalType": "uint256",
          "name": "pairIndex",
          "type": "uint256"
        },
        {
          "internalType": "bool",
          "name": "long",
          "type": "bool"
        },
        {
          "internalType": "uint256",
          "name": "tradeOpenInterest",
          "type": "uint256"
        }
      ],
      "name": "getTradePriceImpact",
      "outputs": [
        {
          "internalType": "uint256",
          "name": "priceImpactP",
          "type": "uint256"
        },
        {
          "internalType": "uint256",
          "name": "priceAfterImpact",
          "type": "uint256"
        }
      ],
      "stateMutability": "view",
      "type": "function"
    },
    {
      "inputs": [
        {
          "internalType": "uint256",
          "name": "openPrice",
          "type": "uint256"
        },
        {
          "internalType": "bool",
          "name": "long",
          "type": "bool"
        },
        {
          "internalType": "uint256",
          "name": "startOpenInterest",
          "type": "uint256"
        },
        {
          "internalType": "uint256",
          "name": "tradeOpenInterest",
          "type": "uint256"
        },
        {
          "internalType": "uint256",
          "name": "onePercentDepth",
          "type": "uint256"
        }
      ],
      "name": "getTradePriceImpactPure",
      "outputs": [
        {
          "internalType": "uint256",
          "name": "priceImpactP",
          "type": "uint256"
        },
        {
          "internalType": "uint256",
          "name": "priceAfterImpact",
          "type": "uint256"
        }
      ],
      "stateMutability": "pure",
      "type": "function"
    },
    {
      "inputs": [
        {
          "internalType": "address",
          "name": "trader",
          "type": "address"
        },
        {
          "internalType": "uint256",
          "name": "pairIndex",
          "type": "uint256"
        },
        {
          "internalType": "uint256",
          "name": "index",
          "type": "uint256"
        },
        {
          "internalType": "uint256",
          "name": "collateral",
          "type": "uint256"
        }
      ],
      "name": "getTradeRolloverFee",
      "outputs": [
        {
          "internalType": "uint256",
          "name": "",
          "type": "uint256"
        }
      ],
      "stateMutability": "view",
      "type": "function"
    },
    {
      "inputs": [
        {
          "internalType": "uint256",
          "name": "accRolloverFeesPerCollateral",
          "type": "uint256"
        },
        {
          "internalType": "uint256",
          "name": "endAccRolloverFeesPerCollateral",
          "type": "uint256"
        },
        {
          "internalType": "uint256",
          "name": "collateral",
          "type": "uint256"
        }
      ],
      "name": "getTradeRolloverFeePure",
      "outputs": [
        {
          "internalType": "uint256",
          "name": "",
          "type": "uint256"
        }
      ],
      "stateMutability": "pure",
      "type": "function"
    },
    {
      "inputs": [
        {
          "internalType": "address",
          "name": "trader",
          "type": "address"
        },
        {
          "internalType": "uint256",
          "name": "pairIndex",
          "type": "uint256"
        },
        {
          "internalType": "uint256",
          "name": "index",
          "type": "uint256"
        },
        {
          "internalType": "bool",
          "name": "long",
          "type": "bool"
        },
        {
          "internalType": "uint256",
          "name": "collateral",
          "type": "uint256"
        },
        {
          "internalType": "uint256",
          "name": "leverage",
          "type": "uint256"
        },
        {
          "internalType": "int256",
          "name": "percentProfit",
          "type": "int256"
        },
        {
          "internalType": "uint256",
          "name": "closingFee",
          "type": "uint256"
        }
      ],
      "name": "getTradeValue",
      "outputs": [
        {
          "internalType": "uint256",
          "name": "amount",
          "type": "uint256"
        }
      ],
      "stateMutability": "nonpayable",
      "type": "function"
    },
    {
      "inputs": [
        {
          "internalType": "uint256",
          "name": "collateral",
          "type": "uint256"
        },
        {
          "internalType": "int256",
          "name": "percentProfit",
          "type": "int256"
        },
        {
          "internalType": "uint256",
          "name": "rolloverFee",
          "type": "uint256"
        },
        {
          "internalType": "int256",
          "name": "fundingFee",
          "type": "int256"
        },
        {
          "internalType": "uint256",
          "name": "closingFee",
          "type": "uint256"
        }
      ],
      "name": "getTradeValuePure",
      "outputs": [
        {
          "internalType": "uint256",
          "name": "",
          "type": "uint256"
        }
      ],
      "stateMutability": "view",
      "type": "function"
    },
    {
      "inputs": [],
      "name": "manager",
      "outputs": [
        {
          "internalType": "address",
          "name": "",
          "type": "address"
        }
      ],
      "stateMutability": "view",
      "type": "function"
    },
    {
      "inputs": [],
      "name": "maxNegativePnlOnOpenP",
      "outputs": [
        {
          "internalType": "uint256",
          "name": "",
          "type": "uint256"
        }
      ],
      "stateMutability": "view",
      "type": "function"
    },
    {
      "inputs": [
        {
          "internalType": "uint256",
          "name": "",
          "type": "uint256"
        }
      ],
      "name": "pairFundingFees",
      "outputs": [
        {
          "internalType": "int256",
          "name": "accPerOiLong",
          "type": "int256"
        },
        {
          "internalType": "int256",
          "name": "accPerOiShort",
          "type": "int256"
        },
        {
          "internalType": "uint256",
          "name": "lastUpdateBlock",
          "type": "uint256"
        }
      ],
      "stateMutability": "view",
      "type": "function"
    },
    {
      "inputs": [
        {
          "internalType": "uint256",
          "name": "",
          "type": "uint256"
        }
      ],
      "name": "pairParams",
      "outputs": [
        {
          "internalType": "uint256",
          "name": "onePercentDepthAbove",
          "type": "uint256"
        },
        {
          "internalType": "uint256",
          "name": "onePercentDepthBelow",
          "type": "uint256"
        },
        {
          "internalType": "uint256",
          "name": "rolloverFeePerBlockP",
          "type": "uint256"
        },
        {
          "internalType": "uint256",
          "name": "fundingFeePerBlockP",
          "type": "uint256"
        }
      ],
      "stateMutability": "view",
      "type": "function"
    },
    {
      "inputs": [
        {
          "internalType": "uint256",
          "name": "",
          "type": "uint256"
        }
      ],
      "name": "pairRolloverFees",
      "outputs": [
        {
          "internalType": "uint256",
          "name": "accPerCollateral",
          "type": "uint256"
        },
        {
          "internalType": "uint256",
          "name": "lastUpdateBlock",
          "type": "uint256"
        }
      ],
      "stateMutability": "view",
      "type": "function"
    },
    {
      "inputs": [
        {
          "internalType": "uint256",
          "name": "pairIndex",
          "type": "uint256"
        },
        {
          "internalType": "uint256",
          "name": "value",
          "type": "uint256"
        }
      ],
      "name": "setFundingFeePerBlockP",
      "outputs": [],
      "stateMutability": "nonpayable",
      "type": "function"
    },
    {
      "inputs": [
        {
          "internalType": "uint256[]",
          "name": "indices",
          "type": "uint256[]"
        },
        {
          "internalType": "uint256[]",
          "name": "values",
          "type": "uint256[]"
        }
      ],
      "name": "setFundingFeePerBlockPArray",
      "outputs": [],
      "stateMutability": "nonpayable",
      "type": "function"
    },
    {
      "inputs": [
        {
          "internalType": "address",
          "name": "_manager",
          "type": "address"
        }
      ],
      "name": "setManager",
      "outputs": [],
      "stateMutability": "nonpayable",
      "type": "function"
    },
    {
      "inputs": [
        {
          "internalType": "uint256",
          "name": "value",
          "type": "uint256"
        }
      ],
      "name": "setMaxNegativePnlOnOpenP",
      "outputs": [],
      "stateMutability": "nonpayable",
      "type": "function"
    },
    {
      "inputs": [
        {
          "internalType": "uint256",
          "name": "pairIndex",
          "type": "uint256"
        },
        {
          "internalType": "uint256",
          "name": "valueAbove",
          "type": "uint256"
        },
        {
          "internalType": "uint256",
          "name": "valueBelow",
          "type": "uint256"
        }
      ],
      "name": "setOnePercentDepth",
      "outputs": [],
      "stateMutability": "nonpayable",
      "type": "function"
    },
    {
      "inputs": [
        {
          "internalType": "uint256[]",
          "name": "indices",
          "type": "uint256[]"
        },
        {
          "internalType": "uint256[]",
          "name": "valuesAbove",
          "type": "uint256[]"
        },
        {
          "internalType": "uint256[]",
          "name": "valuesBelow",
          "type": "uint256[]"
        }
      ],
      "name": "setOnePercentDepthArray",
      "outputs": [],
      "stateMutability": "nonpayable",
      "type": "function"
    },
    {
      "inputs": [
        {
          "internalType": "uint256",
          "name": "pairIndex",
          "type": "uint256"
        },
        {
          "components": [
            {
              "internalType": "uint256",
              "name": "onePercentDepthAbove",
              "type": "uint256"
            },
            {
              "internalType": "uint256",
              "name": "onePercentDepthBelow",
              "type": "uint256"
            },
            {
              "internalType": "uint256",
              "name": "rolloverFeePerBlockP",
              "type": "uint256"
            },
            {
              "internalType": "uint256",
              "name": "fundingFeePerBlockP",
              "type": "uint256"
            }
          ],
          "internalType": "struct PairInfos.PairParams",
          "name": "value",
          "type": "tuple"
        }
      ],
      "name": "setPairParams",
      "outputs": [],
      "stateMutability": "nonpayable",
      "type": "function"
    },
    {
      "inputs": [
        {
          "internalType": "uint256[]",
          "name": "indices",
          "type": "uint256[]"
        },
        {
          "components": [
            {
              "internalType": "uint256",
              "name": "onePercentDepthAbove",
              "type": "uint256"
            },
            {
              "internalType": "uint256",
              "name": "onePercentDepthBelow",
              "type": "uint256"
            },
            {
              "internalType": "uint256",
              "name": "rolloverFeePerBlockP",
              "type": "uint256"
            },
            {
              "internalType": "uint256",
              "name": "fundingFeePerBlockP",
              "type": "uint256"
            }
          ],
          "internalType": "struct PairInfos.PairParams[]",
          "name": "values",
          "type": "tuple[]"
        }
      ],
      "name": "setPairParamsArray",
      "outputs": [],
      "stateMutability": "nonpayable",
      "type": "function"
    },
    {
      "inputs": [
        {
          "internalType": "uint256",
          "name": "pairIndex",
          "type": "uint256"
        },
        {
          "internalType": "uint256",
          "name": "value",
          "type": "uint256"
        }
      ],
      "name": "setRolloverFeePerBlockP",
      "outputs": [],
      "stateMutability": "nonpayable",
      "type": "function"
    },
    {
      "inputs": [
        {
          "internalType": "uint256[]",
          "name": "indices",
          "type": "uint256[]"
        },
        {
          "internalType": "uint256[]",
          "name": "values",
          "type": "uint256[]"
        }
      ],
      "name": "setRolloverFeePerBlockPArray",
      "outputs": [],
      "stateMutability": "nonpayable",
      "type": "function"
    },
    {
      "inputs": [
        {
          "internalType": "address",
          "name": "trader",
          "type": "address"
        },
        {
          "internalType": "uint256",
          "name": "pairIndex",
          "type": "uint256"
        },
        {
          "internalType": "uint256",
          "name": "index",
          "type": "uint256"
        },
        {
          "internalType": "bool",
          "name": "long",
          "type": "bool"
        }
      ],
      "name": "storeTradeInitialAccFees",
      "outputs": [],
      "stateMutability": "nonpayable",
      "type": "function"
    },
    {
      "inputs": [
        {
          "internalType": "address",
          "name": "",
          "type": "address"
        },
        {
          "internalType": "uint256",
          "name": "",
          "type": "uint256"
        },
        {
          "internalType": "uint256",
          "name": "",
          "type": "uint256"
        }
      ],
      "name": "tradeInitialAccFees",
      "outputs": [
        {
          "internalType": "uint256",
          "name": "rollover",
          "type": "uint256"
        },
        {
          "internalType": "int256",
          "name": "funding",
          "type": "int256"
        },
        {
          "internalType": "bool",
          "name": "openedAfterUpdate",
          "type": "bool"
        }
      ],
      "stateMutability": "view",
      "type": "function"
    }
  ],
  "transactionHash": "0x88179b5176f617890d4a170229c90dda16ee44b89bd93569a22bd70d8238ea21",
  "args": [
    "0xAeA4a53767A6B802EABCD21031Ad0e3C3f3Fe2a0"
  ],
  "numDeployments": 1,
  "solcInputHash": "e69228fd523732f8031dddd20ee49ae8",
  "bytecode": "0x60a0604052620000166402540be40060286200005b565b6001553480156200002657600080fd5b50604051620027c5380380620027c5833981016040819052620000499162000087565b6001600160a01b0316608052620000b9565b80820281158282048414176200008157634e487b7160e01b600052601160045260246000fd5b92915050565b6000602082840312156200009a57600080fd5b81516001600160a01b0381168114620000b257600080fd5b9392505050565b6080516126cd620000f8600039600081816107d701528181611042015281816112ad015281816116f90152818161196b0152611a0901526126cd6000f3fe608060405234801561001057600080fd5b506004361061025e5760003560e01c80636f6af69711610146578063bf1db1f6116100c3578063ee52e5fe11610087578063ee52e5fe146106de578063f0270f33146106fe578063f696065414610721578063f6c50efe14610734578063fcc37c8714610747578063fe3cfd8c1461075a57600080fd5b8063bf1db1f61461065e578063c22ff7bf14610685578063c2cc670d14610698578063cfc23e9e146106ab578063d0ebdbe7146106cb57600080fd5b80639cf9c9391161010a5780639cf9c939146105c8578063a49e878814610612578063a77e8e2a14610625578063ab21a05c14610638578063b74243ba1461064b57600080fd5b80636f6af697146105735780637884274f146105865780637ea95f321461059957806380f6cfc2146105ac5780639c625e1e146105b557600080fd5b8063338139ad116101df578063481c6a75116101a3578063481c6a751461049c57806358f796bc146104c75780635ed5804e146104da5780636bc84d591461053a5780636bcbe8601461054d5780636ceaca671461056057600080fd5b8063338139ad146103b7578063351533e7146103db5780633df7fd72146103ee57806342dee1ad1461040157806346dbab361461045857600080fd5b806312fdefd91161022657806312fdefd91461031357806321adc48f1461033b5780632b180a7d1461035e5780632d15e4e01461038157806331556d2f146103a457600080fd5b80630dd34f57146102635780630e0052fc1461028b5780630e6bc39a146102bc5780630ea77770146102d157806312b6566e146102f3575b600080fd5b610276610271366004611c28565b61079b565b60405190151581526020015b60405180910390f35b6102ae610299366004611c5d565b60009081526004602052604090206001015490565b604051908152602001610282565b6102cf6102ca366004611c8b565b6107d5565b005b6102e46102df366004611da7565b610974565b60405161028293929190611e2c565b6102ae610301366004611c5d565b60009081526004602052604090205490565b610326610321366004611ee7565b610c20565b60408051928352602083019190915201610282565b6102ae610349366004611c5d565b60009081526003602052604090206001015490565b6102ae61036c366004611c5d565b60009081526002602052604090206001015490565b6102ae61038f366004611c5d565b60009081526003602052604090206002015490565b6102cf6103b2366004611f92565b610cd1565b6102ae6103c5366004611c5d565b6000908152600260208190526040909120015490565b6102cf6103e9366004612057565b610d7b565b6102cf6103fc3660046120de565b610e4d565b61043861040f366004611c5d565b600260208190526000918252604090912080546001820154928201546003909201549092919084565b604080519485526020850193909352918301526060820152608001610282565b6102ae610466366004611c28565b6001600160a01b038316600090815260056020908152604080832085845282528083208484529091529020600101549392505050565b6000546104af906001600160a01b031681565b6040516001600160a01b039091168152602001610282565b6102ae6104d536600461210b565b610efa565b61051d6104e8366004611c28565b600560209081526000938452604080852082529284528284209052825290208054600182015460029092015490919060ff1683565b604080519384526020840192909252151590820152606001610282565b6102ae610548366004612146565b610f7b565b6102ae61055b3660046121ab565b610faa565b6102ae61056e3660046121f9565b61103e565b6102cf610581366004612265565b611198565b6102cf610594366004611c5d565b61123d565b6103266105a73660046122c8565b6112a3565b6102ae60015481565b6102ae6105c3366004612305565b611390565b6105f76105d6366004611c5d565b60036020526000908152604090208054600182015460029092015490919083565b60408051938452602084019290925290820152606001610282565b6102cf610620366004612265565b6113ba565b6102ae610633366004612331565b61145f565b6102ae610646366004611c5d565b61149d565b6102cf610659366004612363565b611510565b61032661066c366004611c5d565b6004602052600090815260409020805460019091015482565b6102ae610693366004612385565b6115b2565b6102cf6106a6366004612363565b611656565b6102ae6106b9366004611c5d565b60009081526002602052604090205490565b6102cf6106d93660046123c0565b6116f7565b6102ae6106ec366004611c5d565b60009081526003602052604090205490565b6102ae61070c366004611c5d565b60009081526002602052604090206003015490565b6102cf61072f366004612305565b611812565b6102ae6107423660046123dd565b61189c565b610326610755366004611c5d565b611936565b6102ae610768366004611c28565b6001600160a01b038316600090815260056020908152604080832085845282528083208484529091529020549392505050565b6001600160a01b0383166000908152600560209081526040808320858452825280832084845290915290206002015460ff165b9392505050565b7f00000000000000000000000000000000000000000000000000000000000000006001600160a01b031662b127836040518163ffffffff1660e01b8152600401602060405180830381865afa158015610832573d6000803e3d6000fd5b505050506040513d601f19601f820116820180604052508101906108569190612437565b6001600160a01b0316336001600160a01b03161461088f5760405162461bcd60e51b815260040161088690612454565b60405180910390fd5b61089883611b56565b6001600160a01b0384166000908152600560209081526040808320868452825280832085845290915290206108cc8461149d565b8155816108ea576000848152600360205260409020600101546108fa565b6000848152600360205260409020545b600182810182905560028301805460ff191690911790558154604080516001600160a01b038916815260208101889052908101869052606081019190915260808101919091527f4e58eed9e01cebfd4256725d6d1ce9fa694faa7ac5312e75af02360f453d048e9060a00160405180910390a15050505050565b6060806060600084516001600160401b0381111561099457610994611cd3565b6040519080825280602002602001820160405280156109f057816020015b6109dd6040518060800160405280600081526020016000815260200160008152602001600081525090565b8152602001906001900390816109b25790505b509050600085516001600160401b03811115610a0e57610a0e611cd3565b604051908082528060200260200182016040528015610a5357816020015b6040805180820190915260008082526020820152815260200190600190039081610a2c5790505b509050600086516001600160401b03811115610a7157610a71611cd3565b604051908082528060200260200182016040528015610ac657816020015b610ab360405180606001604052806000815260200160008152602001600081525090565b815260200190600190039081610a8f5790505b50905060005b8751811015610c12576000888281518110610ae957610ae961247c565b6020026020010151905060026000828152602001908152602001600020604051806080016040529081600082015481526020016001820154815260200160028201548152602001600382015481525050858381518110610b4b57610b4b61247c565b60200260200101819052506004600082815260200190815260200160002060405180604001604052908160008201548152602001600182015481525050848381518110610b9a57610b9a61247c565b6020026020010181905250600360008281526020019081526020016000206040518060600160405290816000820154815260200160018201548152602001600282015481525050838381518110610bf357610bf361247c565b6020026020010181905250508080610c0a906124a8565b915050610acc565b509196909550909350915050565b60008082600003610c3657506000905085610cc7565b82670de0b6b3a76400006402540be400610c516002886124d7565b610c5b90896124eb565b610c659190612504565b610c6f91906124d7565b610c7991906124d7565b9150600060646402540be400610c8f8a86612504565b610c9991906124d7565b610ca391906124d7565b905086610cb957610cb4818961251b565b610cc3565b610cc381896124eb565b9150505b9550959350505050565b6000546001600160a01b03163314610cfb5760405162461bcd60e51b81526004016108869061252e565b8051825114610d1c5760405162461bcd60e51b815260040161088690612554565b60005b8251811015610d7657610d64838281518110610d3d57610d3d61247c565b6020026020010151838381518110610d5757610d5761247c565b6020026020010151610e4d565b80610d6e816124a8565b915050610d1f565b505050565b6000546001600160a01b03163314610da55760405162461bcd60e51b81526004016108869061252e565b81518351148015610db7575080518351145b610dd35760405162461bcd60e51b815260040161088690612554565b60005b8351811015610e4757610e35848281518110610df457610df461247c565b6020026020010151848381518110610e0e57610e0e61247c565b6020026020010151848481518110610e2857610e2861247c565b6020026020010151611812565b80610e3f816124a8565b915050610dd6565b50505050565b6000546001600160a01b03163314610e775760405162461bcd60e51b81526004016108869061252e565b610e8082611bb9565b610e8982611b56565b6000828152600260208181526040928390208451815590840151600182015582840151918101919091556060830151600390910155517f901e66575b0aecca6e394d488bfe990ff28995f6da67ef2fe1d6c900b6573a0390610eee908490849061257a565b60405180910390a15050565b6001600160a01b0384166000908152600560209081526040808320868452825280832085845282528083208151606081018352815481526001820154938101939093526002015460ff161515908201819052610f5a576000915050610f73565b8051610f6f90610f698761149d565b85611390565b9150505b949350505050565b6000610f9e85858585610f908d8d8d8b610efa565b61055b8e8e8e8d8d8d61189c565b98975050505050505050565b600080848684866064610fbe605a85612504565b610fc891906124d7565b610fd291906125af565b610fdc91906125af565b610fe6908b6125d6565b610ff09190612606565b610ffa9190612606565b90506000876110125761100d828a612634565b61101c565b61101c828a6125af565b90506000811361102d57600061102f565b805b925050505b9695505050505050565b60007f00000000000000000000000000000000000000000000000000000000000000006001600160a01b031662b127836040518163ffffffff1660e01b8152600401602060405180830381865afa15801561109d573d6000803e3d6000fd5b505050506040513d601f19601f820116820180604052508101906110c19190612437565b6001600160a01b0316336001600160a01b0316146110f15760405162461bcd60e51b815260040161088690612454565b6110fa88611b56565b60006111088a8a8a89610efa565b9050600061111a8b8b8b8b8b8b61189c565b905061112987868484886115b2565b604080518c81528a15156020820152908101899052606081018890526080810187905260a0810184905260c081018390529093507f3a484d35e7358ad950e494938ebbac2c1319c2b76d162112f51d66752244dde39060e00160405180910390a1505098975050505050505050565b6000546001600160a01b031633146111c25760405162461bcd60e51b81526004016108869061252e565b80518251146111e35760405162461bcd60e51b815260040161088690612554565b60005b8251811015610d765761122b8382815181106112045761120461247c565b602002602001015183838151811061121e5761121e61247c565b6020026020010151611510565b80611235816124a8565b9150506111e6565b6000546001600160a01b031633146112675760405162461bcd60e51b81526004016108869061252e565b60018190556040518181527f5ba729b89796f40d260b117b8654dc301b1d9f7ec17a1e378ae31e4c70b6d2c0906020015b60405180910390a150565b60008061138386857f00000000000000000000000000000000000000000000000000000000000000006001600160a01b03166377a9fdcf89896112e75760016112ea565b60005b6040516001600160e01b031960e085901b168152600481019290925260ff166024820152604401602060405180830381865afa15801561132e573d6000803e3d6000fd5b505050506040513d601f19601f82011682018060405250810190611352919061265c565b868861136f5760008a815260026020526040902060010154610c20565b60008a815260026020526040902054610c20565b9097909650945050505050565b6000670de0b6b3a7640000826113a6868661251b565b6113b09190612504565b610f7391906124d7565b6000546001600160a01b031633146113e45760405162461bcd60e51b81526004016108869061252e565b80518251146114055760405162461bcd60e51b815260040161088690612554565b60005b8251811015610d765761144d8382815181106114265761142661247c565b60200260200101518383815181106114405761144061247c565b6020026020010151611656565b80611457816124a8565b915050611408565b6000670de0b6b3a7640000828461147688886125af565b61148091906125d6565b61148a91906125d6565b6114949190612606565b95945050505050565b60008181526004602090815260408083206002928390529083209091015460018201546064916402540be400916114d4904361251b565b6114de9190612504565b6114f090670de0b6b3a7640000612504565b6114fa91906124d7565b61150491906124d7565b81546107ce91906124eb565b6000546001600160a01b0316331461153a5760405162461bcd60e51b81526004016108869061252e565b63017d784081111561155e5760405162461bcd60e51b815260040161088690612675565b61156782611bb9565b60008281526002602081815260409283902090910183905581518481529081018390527f048ce436ab4f2632f2aac62af26be3383ebdf5efc9a63f0bbeb6d6c9762d70899101610eee565b600080838560646402540be4006115c98a8c6125d6565b6115d39190612606565b6115dd9190612606565b6115e7908a612634565b6115f191906125af565b6115fb91906125af565b9050606461160a605a8261251b565b61161490896125d6565b61161e9190612606565b811361162e576000915050611494565b61163883826125af565b90506000811361164957600061164b565b805b979650505050505050565b6000546001600160a01b031633146116805760405162461bcd60e51b81526004016108869061252e565b629896808111156116a35760405162461bcd60e51b815260040161088690612675565b6116ac82611b56565b60008281526002602090815260409182902060030183905581518481529081018390527fbe762e88e6ff669d272010f163dfb3c6d389b16831c73e10f95860b2e4f152989101610eee565b7f00000000000000000000000000000000000000000000000000000000000000006001600160a01b03166312d43a516040518163ffffffff1660e01b8152600401602060405180830381865afa158015611755573d6000803e3d6000fd5b505050506040513d601f19601f820116820180604052508101906117799190612437565b6001600160a01b0316336001600160a01b0316146117c45760405162461bcd60e51b8152602060048201526008602482015267474f565f4f4e4c5960c01b6044820152606401610886565b600080546001600160a01b0319166001600160a01b0383169081179091556040519081527f2c1c11af44aa5608f1dca38c00275c30ea091e02417d36e70e9a1538689c433d90602001611298565b6000546001600160a01b0316331461183c5760405162461bcd60e51b81526004016108869061252e565b6000838152600260209081526040918290208481556001810184905582518681529182018590529181018390527f1daeaff85d4d7cfda495ef83720a04b81df77e38711ca570061e16efa6ffa2759060600160405180910390a150505050565b6001600160a01b0386166000908152600560209081526040808320888452825280832087845282528083208151606081018352815481526001820154938101939093526002015460ff1615159082018190526118fc576000915050611034565b60008061190889611936565b9150915061192883602001518861191f5782611921565b835b888861145f565b9a9950505050505050505050565b6000818152600360205260408082208054600182015492516377a9fdcf60e01b815260048101869052602481018590529093907f00000000000000000000000000000000000000000000000000000000000000006001600160a01b0316906377a9fdcf90604401602060405180830381865afa1580156119ba573d6000803e3d6000fd5b505050506040513d601f19601f820116820180604052508101906119de919061265c565b6040516377a9fdcf60e01b815260048101879052600160248201529091506000906001600160a01b037f000000000000000000000000000000000000000000000000000000000000000016906377a9fdcf90604401602060405180830381865afa158015611a50573d6000803e3d6000fd5b505050506040513d601f19601f82011682018060405250810190611a74919061265c565b9050600060646402540be400600260008a815260200190815260200160002060030154866002015443611aa7919061251b565b611ab186886125af565b611abb91906125d6565b611ac591906125d6565b611acf9190612606565b611ad99190612606565b90506000831315611b0e5782611af782670de0b6b3a76400006125d6565b611b019190612606565b611b0b9087612634565b95505b6000821315611b4d5781611b2a82670de0b6b3a76400006125d6565b611b36906000196125d6565b611b409190612606565b611b4a9086612634565b94505b50505050915091565b6000818152600360205260409020611b6d82611936565b600183018190558183554360028401556040805185815260208101939093528201527fc08ace100a8e3b7186ad5fcb68a0b9e7e0bd60aa466cdba34932fa0513353c6490606001610eee565b6000818152600460205260409020611bd08261149d565b8082554360018301556040805184815260208101929092527f66ae41afb9d1762b0b5f1a431a9e5c767128a1bec9ecb20e1ef9dba7dc3663d69101610eee565b6001600160a01b0381168114611c2557600080fd5b50565b600080600060608486031215611c3d57600080fd5b8335611c4881611c10565b95602085013595506040909401359392505050565b600060208284031215611c6f57600080fd5b5035919050565b80358015158114611c8657600080fd5b919050565b60008060008060808587031215611ca157600080fd5b8435611cac81611c10565b93506020850135925060408501359150611cc860608601611c76565b905092959194509250565b634e487b7160e01b600052604160045260246000fd5b604051601f8201601f191681016001600160401b0381118282101715611d1157611d11611cd3565b604052919050565b60006001600160401b03821115611d3257611d32611cd3565b5060051b60200190565b600082601f830112611d4d57600080fd5b81356020611d62611d5d83611d19565b611ce9565b82815260059290921b84018101918181019086841115611d8157600080fd5b8286015b84811015611d9c5780358352918301918301611d85565b509695505050505050565b600060208284031215611db957600080fd5b81356001600160401b03811115611dcf57600080fd5b610f7384828501611d3c565b600081518084526020808501945080840160005b83811015611e215781518051885283810151848901526040908101519088015260609096019590820190600101611def565b509495945050505050565b60608082528451908201819052600090608090818401906020808901855b83811015611e8e57611e7e858351805182526020810151602083015260408101516040830152606081015160608301525050565b9385019390820190600101611e4a565b5050858303818701528751808452928101935087810192915060005b82811015611ed1578351805186528201518286015260409094019392810192600101611eaa565b505050508281036040840152610f6f8185611ddb565b600080600080600060a08688031215611eff57600080fd5b85359450611f0f60208701611c76565b94979496505050506040830135926060810135926080909101359150565b600060808284031215611f3f57600080fd5b604051608081018181106001600160401b0382111715611f6157611f61611cd3565b8060405250809150823581526020830135602082015260408301356040820152606083013560608201525092915050565b60008060408385031215611fa557600080fd5b82356001600160401b0380821115611fbc57600080fd5b611fc886838701611d3c565b9350602091508185013581811115611fdf57600080fd5b85019050601f81018613611ff257600080fd5b8035612000611d5d82611d19565b81815260079190911b8201830190838101908883111561201f57600080fd5b928401925b82841015612048576120368985611f2d565b82528482019150608084019350612024565b80955050505050509250929050565b60008060006060848603121561206c57600080fd5b83356001600160401b038082111561208357600080fd5b61208f87838801611d3c565b945060208601359150808211156120a557600080fd5b6120b187838801611d3c565b935060408601359150808211156120c757600080fd5b506120d486828701611d3c565b9150509250925092565b60008060a083850312156120f157600080fd5b823591506121028460208501611f2d565b90509250929050565b6000806000806080858703121561212157600080fd5b843561212c81611c10565b966020860135965060408601359560600135945092505050565b600080600080600080600060e0888a03121561216157600080fd5b873561216c81611c10565b965060208801359550604088013594506060880135935061218f60808901611c76565b925060a0880135915060c0880135905092959891949750929550565b60008060008060008060c087890312156121c457600080fd5b863595506121d460208801611c76565b95989597505050506040840135936060810135936080820135935060a0909101359150565b600080600080600080600080610100898b03121561221657600080fd5b883561222181611c10565b9750602089013596506040890135955061223d60608a01611c76565b979a969950949760808101359660a0820135965060c0820135955060e0909101359350915050565b6000806040838503121561227857600080fd5b82356001600160401b038082111561228f57600080fd5b61229b86838701611d3c565b935060208501359150808211156122b157600080fd5b506122be85828601611d3c565b9150509250929050565b600080600080608085870312156122de57600080fd5b84359350602085013592506122f560408601611c76565b9396929550929360600135925050565b60008060006060848603121561231a57600080fd5b505081359360208301359350604090920135919050565b6000806000806080858703121561234757600080fd5b5050823594602084013594506040840135936060013592509050565b6000806040838503121561237657600080fd5b50508035926020909101359150565b600080600080600060a0868803121561239d57600080fd5b505083359560208501359550604085013594606081013594506080013592509050565b6000602082840312156123d257600080fd5b81356107ce81611c10565b60008060008060008060c087890312156123f657600080fd5b863561240181611c10565b9550602087013594506040870135935061241d60608801611c76565b92506080870135915060a087013590509295509295509295565b60006020828403121561244957600080fd5b81516107ce81611c10565b6020808252600e908201526d43414c4c4241434b535f4f4e4c5960901b604082015260600190565b634e487b7160e01b600052603260045260246000fd5b634e487b7160e01b600052601160045260246000fd5b6000600182016124ba576124ba612492565b5060010190565b634e487b7160e01b600052601260045260246000fd5b6000826124e6576124e66124c1565b500490565b808201808211156124fe576124fe612492565b92915050565b80820281158282048414176124fe576124fe612492565b818103818111156124fe576124fe612492565b6020808252600c908201526b4d414e414745525f4f4e4c5960a01b604082015260600190565b6020808252600c908201526b0aea49e9c8ebe988a9c8ea8960a31b604082015260600190565b82815260a081016107ce6020830184805182526020810151602083015260408101516040830152606081015160608301525050565b81810360008312801583831316838312821617156125cf576125cf612492565b5092915050565b80820260008212600160ff1b841416156125f2576125f2612492565b81810583148215176124fe576124fe612492565b600082612615576126156124c1565b600160ff1b82146000198414161561262f5761262f612492565b500590565b808201828112600083128015821682158216171561265457612654612492565b505092915050565b60006020828403121561266e57600080fd5b5051919050565b6020808252600890820152670a89e9ebe90928e960c31b60408201526060019056fea2646970667358221220c66bf756b39c6d64ced5d804c2ec310b8810038ef0a7442a8a00210257712d9b64736f6c63430008140033",
  "devdoc": {
    "kind": "dev",
    "methods": {},
    "version": 1
  },
  "userdoc": {
    "kind": "user",
    "methods": {},
    "version": 1
  },
  "storageLayout": {
    "storage": [
      {
        "astId": 5760,
        "contract": "contracts/PairInfos.sol:PairInfos",
        "label": "manager",
        "offset": 0,
        "slot": "0",
        "type": "t_address"
      },
      {
        "astId": 5771,
        "contract": "contracts/PairInfos.sol:PairInfos",
        "label": "maxNegativePnlOnOpenP",
        "offset": 0,
        "slot": "1",
        "type": "t_uint256"
      },
      {
        "astId": 5785,
        "contract": "contracts/PairInfos.sol:PairInfos",
        "label": "pairParams",
        "offset": 0,
        "slot": "2",
        "type": "t_mapping(t_uint256,t_struct(PairParams)5780_storage)"
      },
      {
        "astId": 5797,
        "contract": "contracts/PairInfos.sol:PairInfos",
        "label": "pairFundingFees",
        "offset": 0,
        "slot": "3",
        "type": "t_mapping(t_uint256,t_struct(PairFundingFees)5792_storage)"
      },
      {
        "astId": 5807,
        "contract": "contracts/PairInfos.sol:PairInfos",
        "label": "pairRolloverFees",
        "offset": 0,
        "slot": "4",
        "type": "t_mapping(t_uint256,t_struct(PairRolloverFees)5802_storage)"
      },
      {
        "astId": 5823,
        "contract": "contracts/PairInfos.sol:PairInfos",
        "label": "tradeInitialAccFees",
        "offset": 0,
        "slot": "5",
        "type": "t_mapping(t_address,t_mapping(t_uint256,t_mapping(t_uint256,t_struct(TradeInitialAccFees)5814_storage)))"
      }
    ],
    "types": {
      "t_address": {
        "encoding": "inplace",
        "label": "address",
        "numberOfBytes": "20"
      },
      "t_bool": {
        "encoding": "inplace",
        "label": "bool",
        "numberOfBytes": "1"
      },
      "t_int256": {
        "encoding": "inplace",
        "label": "int256",
        "numberOfBytes": "32"
      },
      "t_mapping(t_address,t_mapping(t_uint256,t_mapping(t_uint256,t_struct(TradeInitialAccFees)5814_storage)))": {
        "encoding": "mapping",
        "key": "t_address",
        "label": "mapping(address => mapping(uint256 => mapping(uint256 => struct PairInfos.TradeInitialAccFees)))",
        "numberOfBytes": "32",
        "value": "t_mapping(t_uint256,t_mapping(t_uint256,t_struct(TradeInitialAccFees)5814_storage))"
      },
      "t_mapping(t_uint256,t_mapping(t_uint256,t_struct(TradeInitialAccFees)5814_storage))": {
        "encoding": "mapping",
        "key": "t_uint256",
        "label": "mapping(uint256 => mapping(uint256 => struct PairInfos.TradeInitialAccFees))",
        "numberOfBytes": "32",
        "value": "t_mapping(t_uint256,t_struct(TradeInitialAccFees)5814_storage)"
      },
      "t_mapping(t_uint256,t_struct(PairFundingFees)5792_storage)": {
        "encoding": "mapping",
        "key": "t_uint256",
        "label": "mapping(uint256 => struct PairInfos.PairFundingFees)",
        "numberOfBytes": "32",
        "value": "t_struct(PairFundingFees)5792_storage"
      },
      "t_mapping(t_uint256,t_struct(PairParams)5780_storage)": {
        "encoding": "mapping",
        "key": "t_uint256",
        "label": "mapping(uint256 => struct PairInfos.PairParams)",
        "numberOfBytes": "32",
        "value": "t_struct(PairParams)5780_storage"
      },
      "t_mapping(t_uint256,t_struct(PairRolloverFees)5802_storage)": {
        "encoding": "mapping",
        "key": "t_uint256",
        "label": "mapping(uint256 => struct PairInfos.PairRolloverFees)",
        "numberOfBytes": "32",
        "value": "t_struct(PairRolloverFees)5802_storage"
      },
      "t_mapping(t_uint256,t_struct(TradeInitialAccFees)5814_storage)": {
        "encoding": "mapping",
        "key": "t_uint256",
        "label": "mapping(uint256 => struct PairInfos.TradeInitialAccFees)",
        "numberOfBytes": "32",
        "value": "t_struct(TradeInitialAccFees)5814_storage"
      },
      "t_struct(PairFundingFees)5792_storage": {
        "encoding": "inplace",
        "label": "struct PairInfos.PairFundingFees",
        "members": [
          {
            "astId": 5787,
            "contract": "contracts/PairInfos.sol:PairInfos",
            "label": "accPerOiLong",
            "offset": 0,
            "slot": "0",
            "type": "t_int256"
          },
          {
            "astId": 5789,
            "contract": "contracts/PairInfos.sol:PairInfos",
            "label": "accPerOiShort",
            "offset": 0,
            "slot": "1",
            "type": "t_int256"
          },
          {
            "astId": 5791,
            "contract": "contracts/PairInfos.sol:PairInfos",
            "label": "lastUpdateBlock",
            "offset": 0,
            "slot": "2",
            "type": "t_uint256"
          }
        ],
        "numberOfBytes": "96"
      },
      "t_struct(PairParams)5780_storage": {
        "encoding": "inplace",
        "label": "struct PairInfos.PairParams",
        "members": [
          {
            "astId": 5773,
            "contract": "contracts/PairInfos.sol:PairInfos",
            "label": "onePercentDepthAbove",
            "offset": 0,
            "slot": "0",
            "type": "t_uint256"
          },
          {
            "astId": 5775,
            "contract": "contracts/PairInfos.sol:PairInfos",
            "label": "onePercentDepthBelow",
            "offset": 0,
            "slot": "1",
            "type": "t_uint256"
          },
          {
            "astId": 5777,
            "contract": "contracts/PairInfos.sol:PairInfos",
            "label": "rolloverFeePerBlockP",
            "offset": 0,
            "slot": "2",
            "type": "t_uint256"
          },
          {
            "astId": 5779,
            "contract": "contracts/PairInfos.sol:PairInfos",
            "label": "fundingFeePerBlockP",
            "offset": 0,
            "slot": "3",
            "type": "t_uint256"
          }
        ],
        "numberOfBytes": "128"
      },
      "t_struct(PairRolloverFees)5802_storage": {
        "encoding": "inplace",
        "label": "struct PairInfos.PairRolloverFees",
        "members": [
          {
            "astId": 5799,
            "contract": "contracts/PairInfos.sol:PairInfos",
            "label": "accPerCollateral",
            "offset": 0,
            "slot": "0",
            "type": "t_uint256"
          },
          {
            "astId": 5801,
            "contract": "contracts/PairInfos.sol:PairInfos",
            "label": "lastUpdateBlock",
            "offset": 0,
            "slot": "1",
            "type": "t_uint256"
          }
        ],
        "numberOfBytes": "64"
      },
      "t_struct(TradeInitialAccFees)5814_storage": {
        "encoding": "inplace",
        "label": "struct PairInfos.TradeInitialAccFees",
        "members": [
          {
            "astId": 5809,
            "contract": "contracts/PairInfos.sol:PairInfos",
            "label": "rollover",
            "offset": 0,
            "slot": "0",
            "type": "t_uint256"
          },
          {
            "astId": 5811,
            "contract": "contracts/PairInfos.sol:PairInfos",
            "label": "funding",
            "offset": 0,
            "slot": "1",
            "type": "t_int256"
          },
          {
            "astId": 5813,
            "contract": "contracts/PairInfos.sol:PairInfos",
            "label": "openedAfterUpdate",
            "offset": 0,
            "slot": "2",
            "type": "t_bool"
          }
        ],
        "numberOfBytes": "96"
      },
      "t_uint256": {
        "encoding": "inplace",
        "label": "uint256",
        "numberOfBytes": "32"
      }
    }
  }
}