{
  "address": "0x15002a412C4D8dEB2F6E249Df630D259eb71D681",
  "abi": [
    {
      "inputs": [
        {
          "internalType": "contract StorageInterface",
          "name": "_storageT",
          "type": "address"
        }
      ],
      "stateMutability": "nonpayable",
      "type": "constructor"
    },
    {
      "anonymous": false,
      "inputs": [
        {
          "indexed": false,
          "internalType": "uint256",
          "name": "pairIndex",
          "type": "uint256"
        },
        {
          "indexed": false,
          "internalType": "int256",
          "name": "valueLong",
          "type": "int256"
        },
        {
          "indexed": false,
          "internalType": "int256",
          "name": "valueShort",
          "type": "int256"
        }
      ],
      "name": "AccFundingFeesStored",
      "type": "event"
    },
    {
      "anonymous": false,
      "inputs": [
        {
          "indexed": false,
          "internalType": "uint256",
          "name": "pairIndex",
          "type": "uint256"
        },
        {
          "indexed": false,
          "internalType": "uint256",
          "name": "value",
          "type": "uint256"
        }
      ],
      "name": "AccRolloverFeesStored",
      "type": "event"
    },
    {
      "anonymous": false,
      "inputs": [
        {
          "indexed": false,
          "internalType": "uint256",
          "name": "pairIndex",
          "type": "uint256"
        },
        {
          "indexed": false,
          "internalType": "bool",
          "name": "long",
          "type": "bool"
        },
        {
          "indexed": false,
          "internalType": "uint256",
          "name": "collateral",
          "type": "uint256"
        },
        {
          "indexed": false,
          "internalType": "uint256",
          "name": "leverage",
          "type": "uint256"
        },
        {
          "indexed": false,
          "internalType": "int256",
          "name": "percentProfit",
          "type": "int256"
        },
        {
          "indexed": false,
          "internalType": "uint256",
          "name": "rolloverFees",
          "type": "uint256"
        },
        {
          "indexed": false,
          "internalType": "int256",
          "name": "fundingFees",
          "type": "int256"
        }
      ],
      "name": "FeesCharged",
      "type": "event"
    },
    {
      "anonymous": false,
      "inputs": [
        {
          "indexed": false,
          "internalType": "uint256",
          "name": "pairIndex",
          "type": "uint256"
        },
        {
          "indexed": false,
          "internalType": "uint256",
          "name": "value",
          "type": "uint256"
        }
      ],
      "name": "FundingFeePerBlockPUpdated",
      "type": "event"
    },
    {
      "anonymous": false,
      "inputs": [
        {
          "indexed": false,
          "internalType": "address",
          "name": "value",
          "type": "address"
        }
      ],
      "name": "ManagerUpdated",
      "type": "event"
    },
    {
      "anonymous": false,
      "inputs": [
        {
          "indexed": false,
          "internalType": "uint256",
          "name": "value",
          "type": "uint256"
        }
      ],
      "name": "MaxNegativePnlOnOpenPUpdated",
      "type": "event"
    },
    {
      "anonymous": false,
      "inputs": [
        {
          "indexed": false,
          "internalType": "uint256",
          "name": "pairIndex",
          "type": "uint256"
        },
        {
          "indexed": false,
          "internalType": "uint256",
          "name": "valueAbove",
          "type": "uint256"
        },
        {
          "indexed": false,
          "internalType": "uint256",
          "name": "valueBelow",
          "type": "uint256"
        }
      ],
      "name": "OnePercentDepthUpdated",
      "type": "event"
    },
    {
      "anonymous": false,
      "inputs": [
        {
          "indexed": false,
          "internalType": "uint256",
          "name": "pairIndex",
          "type": "uint256"
        },
        {
          "components": [
            {
              "internalType": "uint256",
              "name": "onePercentDepthAbove",
              "type": "uint256"
            },
            {
              "internalType": "uint256",
              "name": "onePercentDepthBelow",
              "type": "uint256"
            },
            {
              "internalType": "uint256",
              "name": "rolloverFeePerBlockP",
              "type": "uint256"
            },
            {
              "internalType": "uint256",
              "name": "fundingFeePerBlockP",
              "type": "uint256"
            }
          ],
          "indexed": false,
          "internalType": "struct PairInfos.PairParams",
          "name": "value",
          "type": "tuple"
        }
      ],
      "name": "PairParamsUpdated",
      "type": "event"
    },
    {
      "anonymous": false,
      "inputs": [
        {
          "indexed": false,
          "internalType": "uint256",
          "name": "pairIndex",
          "type": "uint256"
        },
        {
          "indexed": false,
          "internalType": "uint256",
          "name": "value",
          "type": "uint256"
        }
      ],
      "name": "RolloverFeePerBlockPUpdated",
      "type": "event"
    },
    {
      "anonymous": false,
      "inputs": [
        {
          "indexed": false,
          "internalType": "address",
          "name": "trader",
          "type": "address"
        },
        {
          "indexed": false,
          "internalType": "uint256",
          "name": "pairIndex",
          "type": "uint256"
        },
        {
          "indexed": false,
          "internalType": "uint256",
          "name": "index",
          "type": "uint256"
        },
        {
          "indexed": false,
          "internalType": "uint256",
          "name": "rollover",
          "type": "uint256"
        },
        {
          "indexed": false,
          "internalType": "int256",
          "name": "funding",
          "type": "int256"
        }
      ],
      "name": "TradeInitialAccFeesStored",
      "type": "event"
    },
    {
      "inputs": [
        {
          "internalType": "uint256",
          "name": "pairIndex",
          "type": "uint256"
        }
      ],
      "name": "getAccFundingFeesLong",
      "outputs": [
        {
          "internalType": "int256",
          "name": "",
          "type": "int256"
        }
      ],
      "stateMutability": "view",
      "type": "function"
    },
    {
      "inputs": [
        {
          "internalType": "uint256",
          "name": "pairIndex",
          "type": "uint256"
        }
      ],
      "name": "getAccFundingFeesShort",
      "outputs": [
        {
          "internalType": "int256",
          "name": "",
          "type": "int256"
        }
      ],
      "stateMutability": "view",
      "type": "function"
    },
    {
      "inputs": [
        {
          "internalType": "uint256",
          "name": "pairIndex",
          "type": "uint256"
        }
      ],
      "name": "getAccFundingFeesUpdateBlock",
      "outputs": [
        {
          "internalType": "uint256",
          "name": "",
          "type": "uint256"
        }
      ],
      "stateMutability": "view",
      "type": "function"
    },
    {
      "inputs": [
        {
          "internalType": "uint256",
          "name": "pairIndex",
          "type": "uint256"
        }
      ],
      "name": "getAccRolloverFees",
      "outputs": [
        {
          "internalType": "uint256",
          "name": "",
          "type": "uint256"
        }
      ],
      "stateMutability": "view",
      "type": "function"
    },
    {
      "inputs": [
        {
          "internalType": "uint256",
          "name": "pairIndex",
          "type": "uint256"
        }
      ],
      "name": "getAccRolloverFeesUpdateBlock",
      "outputs": [
        {
          "internalType": "uint256",
          "name": "",
          "type": "uint256"
        }
      ],
      "stateMutability": "view",
      "type": "function"
    },
    {
      "inputs": [
        {
          "internalType": "uint256",
          "name": "pairIndex",
          "type": "uint256"
        }
      ],
      "name": "getFundingFeePerBlockP",
      "outputs": [
        {
          "internalType": "uint256",
          "name": "",
          "type": "uint256"
        }
      ],
      "stateMutability": "view",
      "type": "function"
    },
    {
      "inputs": [
        {
          "internalType": "uint256",
          "name": "pairIndex",
          "type": "uint256"
        }
      ],
      "name": "getOnePercentDepthAbove",
      "outputs": [
        {
          "internalType": "uint256",
          "name": "",
          "type": "uint256"
        }
      ],
      "stateMutability": "view",
      "type": "function"
    },
    {
      "inputs": [
        {
          "internalType": "uint256",
          "name": "pairIndex",
          "type": "uint256"
        }
      ],
      "name": "getOnePercentDepthBelow",
      "outputs": [
        {
          "internalType": "uint256",
          "name": "",
          "type": "uint256"
        }
      ],
      "stateMutability": "view",
      "type": "function"
    },
    {
      "inputs": [
        {
          "internalType": "uint256[]",
          "name": "indices",
          "type": "uint256[]"
        }
      ],
      "name": "getPairInfos",
      "outputs": [
        {
          "components": [
            {
              "internalType": "uint256",
              "name": "onePercentDepthAbove",
              "type": "uint256"
            },
            {
              "internalType": "uint256",
              "name": "onePercentDepthBelow",
              "type": "uint256"
            },
            {
              "internalType": "uint256",
              "name": "rolloverFeePerBlockP",
              "type": "uint256"
            },
            {
              "internalType": "uint256",
              "name": "fundingFeePerBlockP",
              "type": "uint256"
            }
          ],
          "internalType": "struct PairInfos.PairParams[]",
          "name": "",
          "type": "tuple[]"
        },
        {
          "components": [
            {
              "internalType": "uint256",
              "name": "accPerCollateral",
              "type": "uint256"
            },
            {
              "internalType": "uint256",
              "name": "lastUpdateBlock",
              "type": "uint256"
            }
          ],
          "internalType": "struct PairInfos.PairRolloverFees[]",
          "name": "",
          "type": "tuple[]"
        },
        {
          "components": [
            {
              "internalType": "int256",
              "name": "accPerOiLong",
              "type": "int256"
            },
            {
              "internalType": "int256",
              "name": "accPerOiShort",
              "type": "int256"
            },
            {
              "internalType": "uint256",
              "name": "lastUpdateBlock",
              "type": "uint256"
            }
          ],
          "internalType": "struct PairInfos.PairFundingFees[]",
          "name": "",
          "type": "tuple[]"
        }
      ],
      "stateMutability": "view",
      "type": "function"
    },
    {
      "inputs": [
        {
          "internalType": "uint256",
          "name": "pairIndex",
          "type": "uint256"
        }
      ],
      "name": "getPendingAccFundingFees",
      "outputs": [
        {
          "internalType": "int256",
          "name": "valueLong",
          "type": "int256"
        },
        {
          "internalType": "int256",
          "name": "valueShort",
          "type": "int256"
        }
      ],
      "stateMutability": "view",
      "type": "function"
    },
    {
      "inputs": [
        {
          "internalType": "uint256",
          "name": "pairIndex",
          "type": "uint256"
        }
      ],
      "name": "getPendingAccRolloverFees",
      "outputs": [
        {
          "internalType": "uint256",
          "name": "",
          "type": "uint256"
        }
      ],
      "stateMutability": "view",
      "type": "function"
    },
    {
      "inputs": [
        {
          "internalType": "uint256",
          "name": "pairIndex",
          "type": "uint256"
        }
      ],
      "name": "getRolloverFeePerBlockP",
      "outputs": [
        {
          "internalType": "uint256",
          "name": "",
          "type": "uint256"
        }
      ],
      "stateMutability": "view",
      "type": "function"
    },
    {
      "inputs": [
        {
          "internalType": "address",
          "name": "trader",
          "type": "address"
        },
        {
          "internalType": "uint256",
          "name": "pairIndex",
          "type": "uint256"
        },
        {
          "internalType": "uint256",
          "name": "index",
          "type": "uint256"
        },
        {
          "internalType": "bool",
          "name": "long",
          "type": "bool"
        },
        {
          "internalType": "uint256",
          "name": "collateral",
          "type": "uint256"
        },
        {
          "internalType": "uint256",
          "name": "leverage",
          "type": "uint256"
        }
      ],
      "name": "getTradeFundingFee",
      "outputs": [
        {
          "internalType": "int256",
          "name": "",
          "type": "int256"
        }
      ],
      "stateMutability": "view",
      "type": "function"
    },
    {
      "inputs": [
        {
          "internalType": "int256",
          "name": "accFundingFeesPerOi",
          "type": "int256"
        },
        {
          "internalType": "int256",
          "name": "endAccFundingFeesPerOi",
          "type": "int256"
        },
        {
          "internalType": "uint256",
          "name": "collateral",
          "type": "uint256"
        },
        {
          "internalType": "uint256",
          "name": "leverage",
          "type": "uint256"
        }
      ],
      "name": "getTradeFundingFeePure",
      "outputs": [
        {
          "internalType": "int256",
          "name": "",
          "type": "int256"
        }
      ],
      "stateMutability": "pure",
      "type": "function"
    },
    {
      "inputs": [
        {
          "internalType": "address",
          "name": "trader",
          "type": "address"
        },
        {
          "internalType": "uint256",
          "name": "pairIndex",
          "type": "uint256"
        },
        {
          "internalType": "uint256",
          "name": "index",
          "type": "uint256"
        }
      ],
      "name": "getTradeInitialAccFundingFeesPerOi",
      "outputs": [
        {
          "internalType": "int256",
          "name": "",
          "type": "int256"
        }
      ],
      "stateMutability": "view",
      "type": "function"
    },
    {
      "inputs": [
        {
          "internalType": "address",
          "name": "trader",
          "type": "address"
        },
        {
          "internalType": "uint256",
          "name": "pairIndex",
          "type": "uint256"
        },
        {
          "internalType": "uint256",
          "name": "index",
          "type": "uint256"
        }
      ],
      "name": "getTradeInitialAccRolloverFeesPerCollateral",
      "outputs": [
        {
          "internalType": "uint256",
          "name": "",
          "type": "uint256"
        }
      ],
      "stateMutability": "view",
      "type": "function"
    },
    {
      "inputs": [
        {
          "internalType": "address",
          "name": "trader",
          "type": "address"
        },
        {
          "internalType": "uint256",
          "name": "pairIndex",
          "type": "uint256"
        },
        {
          "internalType": "uint256",
          "name": "index",
          "type": "uint256"
        },
        {
          "internalType": "uint256",
          "name": "openPrice",
          "type": "uint256"
        },
        {
          "internalType": "bool",
          "name": "long",
          "type": "bool"
        },
        {
          "internalType": "uint256",
          "name": "collateral",
          "type": "uint256"
        },
        {
          "internalType": "uint256",
          "name": "leverage",
          "type": "uint256"
        }
      ],
      "name": "getTradeLiquidationPrice",
      "outputs": [
        {
          "internalType": "uint256",
          "name": "",
          "type": "uint256"
        }
      ],
      "stateMutability": "view",
      "type": "function"
    },
    {
      "inputs": [
        {
          "internalType": "uint256",
          "name": "openPrice",
          "type": "uint256"
        },
        {
          "internalType": "bool",
          "name": "long",
          "type": "bool"
        },
        {
          "internalType": "uint256",
          "name": "collateral",
          "type": "uint256"
        },
        {
          "internalType": "uint256",
          "name": "leverage",
          "type": "uint256"
        },
        {
          "internalType": "uint256",
          "name": "rolloverFee",
          "type": "uint256"
        },
        {
          "internalType": "int256",
          "name": "fundingFee",
          "type": "int256"
        }
      ],
      "name": "getTradeLiquidationPricePure",
      "outputs": [
        {
          "internalType": "uint256",
          "name": "",
          "type": "uint256"
        }
      ],
      "stateMutability": "pure",
      "type": "function"
    },
    {
      "inputs": [
        {
          "internalType": "address",
          "name": "trader",
          "type": "address"
        },
        {
          "internalType": "uint256",
          "name": "pairIndex",
          "type": "uint256"
        },
        {
          "internalType": "uint256",
          "name": "index",
          "type": "uint256"
        }
      ],
      "name": "getTradeOpenedAfterUpdate",
      "outputs": [
        {
          "internalType": "bool",
          "name": "",
          "type": "bool"
        }
      ],
      "stateMutability": "view",
      "type": "function"
    },
    {
      "inputs": [
        {
          "internalType": "uint256",
          "name": "openPrice",
          "type": "uint256"
        },
        {
          "internalType": "bool",
          "name": "long",
          "type": "bool"
        },
        {
          "internalType": "uint256",
          "name": "collateral",
          "type": "uint256"
        },
        {
          "internalType": "uint256",
          "name": "leverage",
          "type": "uint256"
        },
        {
          "internalType": "uint256",
          "name": "rolloverFee",
          "type": "uint256"
        },
        {
          "internalType": "int256",
          "name": "fundingFee",
          "type": "int256"
        }
      ],
      "name": "getTradePartialLiquidationPrice",
      "outputs": [
        {
          "internalType": "uint256",
          "name": "",
          "type": "uint256"
        }
      ],
      "stateMutability": "pure",
      "type": "function"
    },
    {
      "inputs": [
        {
          "internalType": "uint256",
          "name": "openPrice",
          "type": "uint256"
        },
        {
          "internalType": "uint256",
          "name": "pairIndex",
          "type": "uint256"
        },
        {
          "internalType": "bool",
          "name": "long",
          "type": "bool"
        },
        {
          "internalType": "uint256",
          "name": "tradeOpenInterest",
          "type": "uint256"
        }
      ],
      "name": "getTradePriceImpact",
      "outputs": [
        {
          "internalType": "uint256",
          "name": "priceImpactP",
          "type": "uint256"
        },
        {
          "internalType": "uint256",
          "name": "priceAfterImpact",
          "type": "uint256"
        }
      ],
      "stateMutability": "view",
      "type": "function"
    },
    {
      "inputs": [
        {
          "internalType": "uint256",
          "name": "openPrice",
          "type": "uint256"
        },
        {
          "internalType": "bool",
          "name": "long",
          "type": "bool"
        },
        {
          "internalType": "uint256",
          "name": "startOpenInterest",
          "type": "uint256"
        },
        {
          "internalType": "uint256",
          "name": "tradeOpenInterest",
          "type": "uint256"
        },
        {
          "internalType": "uint256",
          "name": "onePercentDepth",
          "type": "uint256"
        }
      ],
      "name": "getTradePriceImpactPure",
      "outputs": [
        {
          "internalType": "uint256",
          "name": "priceImpactP",
          "type": "uint256"
        },
        {
          "internalType": "uint256",
          "name": "priceAfterImpact",
          "type": "uint256"
        }
      ],
      "stateMutability": "pure",
      "type": "function"
    },
    {
      "inputs": [
        {
          "internalType": "address",
          "name": "trader",
          "type": "address"
        },
        {
          "internalType": "uint256",
          "name": "pairIndex",
          "type": "uint256"
        },
        {
          "internalType": "uint256",
          "name": "index",
          "type": "uint256"
        },
        {
          "internalType": "uint256",
          "name": "collateral",
          "type": "uint256"
        }
      ],
      "name": "getTradeRolloverFee",
      "outputs": [
        {
          "internalType": "uint256",
          "name": "",
          "type": "uint256"
        }
      ],
      "stateMutability": "view",
      "type": "function"
    },
    {
      "inputs": [
        {
          "internalType": "uint256",
          "name": "accRolloverFeesPerCollateral",
          "type": "uint256"
        },
        {
          "internalType": "uint256",
          "name": "endAccRolloverFeesPerCollateral",
          "type": "uint256"
        },
        {
          "internalType": "uint256",
          "name": "collateral",
          "type": "uint256"
        }
      ],
      "name": "getTradeRolloverFeePure",
      "outputs": [
        {
          "internalType": "uint256",
          "name": "",
          "type": "uint256"
        }
      ],
      "stateMutability": "pure",
      "type": "function"
    },
    {
      "inputs": [
        {
          "internalType": "address",
          "name": "trader",
          "type": "address"
        },
        {
          "internalType": "uint256",
          "name": "pairIndex",
          "type": "uint256"
        },
        {
          "internalType": "uint256",
          "name": "index",
          "type": "uint256"
        },
        {
          "internalType": "bool",
          "name": "long",
          "type": "bool"
        },
        {
          "internalType": "uint256",
          "name": "collateral",
          "type": "uint256"
        },
        {
          "internalType": "uint256",
          "name": "leverage",
          "type": "uint256"
        },
        {
          "internalType": "int256",
          "name": "percentProfit",
          "type": "int256"
        },
        {
          "internalType": "uint256",
          "name": "closingFee",
          "type": "uint256"
        }
      ],
      "name": "getTradeValue",
      "outputs": [
        {
          "internalType": "uint256",
          "name": "amount",
          "type": "uint256"
        }
      ],
      "stateMutability": "nonpayable",
      "type": "function"
    },
    {
      "inputs": [
        {
          "internalType": "uint256",
          "name": "collateral",
          "type": "uint256"
        },
        {
          "internalType": "int256",
          "name": "percentProfit",
          "type": "int256"
        },
        {
          "internalType": "uint256",
          "name": "rolloverFee",
          "type": "uint256"
        },
        {
          "internalType": "int256",
          "name": "fundingFee",
          "type": "int256"
        },
        {
          "internalType": "uint256",
          "name": "closingFee",
          "type": "uint256"
        }
      ],
      "name": "getTradeValuePure",
      "outputs": [
        {
          "internalType": "uint256",
          "name": "",
          "type": "uint256"
        }
      ],
      "stateMutability": "view",
      "type": "function"
    },
    {
      "inputs": [],
      "name": "manager",
      "outputs": [
        {
          "internalType": "address",
          "name": "",
          "type": "address"
        }
      ],
      "stateMutability": "view",
      "type": "function"
    },
    {
      "inputs": [],
      "name": "maxNegativePnlOnOpenP",
      "outputs": [
        {
          "internalType": "uint256",
          "name": "",
          "type": "uint256"
        }
      ],
      "stateMutability": "view",
      "type": "function"
    },
    {
      "inputs": [
        {
          "internalType": "uint256",
          "name": "",
          "type": "uint256"
        }
      ],
      "name": "pairFundingFees",
      "outputs": [
        {
          "internalType": "int256",
          "name": "accPerOiLong",
          "type": "int256"
        },
        {
          "internalType": "int256",
          "name": "accPerOiShort",
          "type": "int256"
        },
        {
          "internalType": "uint256",
          "name": "lastUpdateBlock",
          "type": "uint256"
        }
      ],
      "stateMutability": "view",
      "type": "function"
    },
    {
      "inputs": [
        {
          "internalType": "uint256",
          "name": "",
          "type": "uint256"
        }
      ],
      "name": "pairParams",
      "outputs": [
        {
          "internalType": "uint256",
          "name": "onePercentDepthAbove",
          "type": "uint256"
        },
        {
          "internalType": "uint256",
          "name": "onePercentDepthBelow",
          "type": "uint256"
        },
        {
          "internalType": "uint256",
          "name": "rolloverFeePerBlockP",
          "type": "uint256"
        },
        {
          "internalType": "uint256",
          "name": "fundingFeePerBlockP",
          "type": "uint256"
        }
      ],
      "stateMutability": "view",
      "type": "function"
    },
    {
      "inputs": [
        {
          "internalType": "uint256",
          "name": "",
          "type": "uint256"
        }
      ],
      "name": "pairRolloverFees",
      "outputs": [
        {
          "internalType": "uint256",
          "name": "accPerCollateral",
          "type": "uint256"
        },
        {
          "internalType": "uint256",
          "name": "lastUpdateBlock",
          "type": "uint256"
        }
      ],
      "stateMutability": "view",
      "type": "function"
    },
    {
      "inputs": [
        {
          "internalType": "uint256",
          "name": "pairIndex",
          "type": "uint256"
        }
      ],
      "name": "setFundingFeePerBlockP",
      "outputs": [],
      "stateMutability": "nonpayable",
      "type": "function"
    },
    {
      "inputs": [
        {
          "internalType": "uint256[]",
          "name": "indices",
          "type": "uint256[]"
        }
      ],
      "name": "setFundingFeePerBlockPArray",
      "outputs": [],
      "stateMutability": "nonpayable",
      "type": "function"
    },
    {
      "inputs": [
        {
          "internalType": "address",
          "name": "_manager",
          "type": "address"
        }
      ],
      "name": "setManager",
      "outputs": [],
      "stateMutability": "nonpayable",
      "type": "function"
    },
    {
      "inputs": [
        {
          "internalType": "uint256",
          "name": "value",
          "type": "uint256"
        }
      ],
      "name": "setMaxNegativePnlOnOpenP",
      "outputs": [],
      "stateMutability": "nonpayable",
      "type": "function"
    },
    {
      "inputs": [
        {
          "internalType": "uint256",
          "name": "pairIndex",
          "type": "uint256"
        },
        {
          "internalType": "uint256",
          "name": "valueAbove",
          "type": "uint256"
        },
        {
          "internalType": "uint256",
          "name": "valueBelow",
          "type": "uint256"
        }
      ],
      "name": "setOnePercentDepth",
      "outputs": [],
      "stateMutability": "nonpayable",
      "type": "function"
    },
    {
      "inputs": [
        {
          "internalType": "uint256[]",
          "name": "indices",
          "type": "uint256[]"
        },
        {
          "internalType": "uint256[]",
          "name": "valuesAbove",
          "type": "uint256[]"
        },
        {
          "internalType": "uint256[]",
          "name": "valuesBelow",
          "type": "uint256[]"
        }
      ],
      "name": "setOnePercentDepthArray",
      "outputs": [],
      "stateMutability": "nonpayable",
      "type": "function"
    },
    {
      "inputs": [
        {
          "internalType": "uint256",
          "name": "pairIndex",
          "type": "uint256"
        },
        {
          "components": [
            {
              "internalType": "uint256",
              "name": "onePercentDepthAbove",
              "type": "uint256"
            },
            {
              "internalType": "uint256",
              "name": "onePercentDepthBelow",
              "type": "uint256"
            },
            {
              "internalType": "uint256",
              "name": "rolloverFeePerBlockP",
              "type": "uint256"
            },
            {
              "internalType": "uint256",
              "name": "fundingFeePerBlockP",
              "type": "uint256"
            }
          ],
          "internalType": "struct PairInfos.PairParams",
          "name": "value",
          "type": "tuple"
        }
      ],
      "name": "setPairParams",
      "outputs": [],
      "stateMutability": "nonpayable",
      "type": "function"
    },
    {
      "inputs": [
        {
          "internalType": "uint256[]",
          "name": "indices",
          "type": "uint256[]"
        },
        {
          "components": [
            {
              "internalType": "uint256",
              "name": "onePercentDepthAbove",
              "type": "uint256"
            },
            {
              "internalType": "uint256",
              "name": "onePercentDepthBelow",
              "type": "uint256"
            },
            {
              "internalType": "uint256",
              "name": "rolloverFeePerBlockP",
              "type": "uint256"
            },
            {
              "internalType": "uint256",
              "name": "fundingFeePerBlockP",
              "type": "uint256"
            }
          ],
          "internalType": "struct PairInfos.PairParams[]",
          "name": "values",
          "type": "tuple[]"
        }
      ],
      "name": "setPairParamsArray",
      "outputs": [],
      "stateMutability": "nonpayable",
      "type": "function"
    },
    {
      "inputs": [
        {
          "internalType": "uint256",
          "name": "pairIndex",
          "type": "uint256"
        },
        {
          "internalType": "uint256",
          "name": "value",
          "type": "uint256"
        }
      ],
      "name": "setRolloverFeePerBlockP",
      "outputs": [],
      "stateMutability": "nonpayable",
      "type": "function"
    },
    {
      "inputs": [
        {
          "internalType": "uint256[]",
          "name": "indices",
          "type": "uint256[]"
        },
        {
          "internalType": "uint256[]",
          "name": "values",
          "type": "uint256[]"
        }
      ],
      "name": "setRolloverFeePerBlockPArray",
      "outputs": [],
      "stateMutability": "nonpayable",
      "type": "function"
    },
    {
      "inputs": [
        {
          "internalType": "address",
          "name": "trader",
          "type": "address"
        },
        {
          "internalType": "uint256",
          "name": "pairIndex",
          "type": "uint256"
        },
        {
          "internalType": "uint256",
          "name": "index",
          "type": "uint256"
        },
        {
          "internalType": "bool",
          "name": "long",
          "type": "bool"
        }
      ],
      "name": "storeTradeInitialAccFees",
      "outputs": [],
      "stateMutability": "nonpayable",
      "type": "function"
    },
    {
      "inputs": [
        {
          "internalType": "address",
          "name": "",
          "type": "address"
        },
        {
          "internalType": "uint256",
          "name": "",
          "type": "uint256"
        },
        {
          "internalType": "uint256",
          "name": "",
          "type": "uint256"
        }
      ],
      "name": "tradeInitialAccFees",
      "outputs": [
        {
          "internalType": "uint256",
          "name": "rollover",
          "type": "uint256"
        },
        {
          "internalType": "int256",
          "name": "funding",
          "type": "int256"
        },
        {
          "internalType": "bool",
          "name": "openedAfterUpdate",
          "type": "bool"
        }
      ],
      "stateMutability": "view",
      "type": "function"
    }
  ],
  "transactionHash": "0x99631b1baf9b237bfbd114e1b83716dd75a1db043abfd39d3c7660300cf8765f",
  "args": [
    "0x15D862D44BCf0918012575CB7fd660C1A74f374A"
  ],
  "numDeployments": 1,
  "solcInputHash": "063f6380a44fddc0413748fbb84bc8a5",
  "bytecode": "0x60a0604052620000166402540be40060286200005b565b6001553480156200002657600080fd5b506040516200294e3803806200294e833981016040819052620000499162000089565b6001600160a01b0316608052620000bb565b60008160001904831182151516156200008457634e487b7160e01b600052601160045260246000fd5b500290565b6000602082840312156200009c57600080fd5b81516001600160a01b0381168114620000b457600080fd5b9392505050565b60805161284d62000101600039600081816107f5015281816110da015281816113450152818161165f015281816118d10152818161196f0152611ac0015261284d6000f3fe608060405234801561001057600080fd5b50600436106102695760003560e01c80636bcbe86011610151578063b74243ba116100c3578063ee52e5fe11610087578063ee52e5fe146106fc578063f0270f331461071c578063f69606541461073f578063f6c50efe14610752578063fcc37c8714610765578063fe3cfd8c1461077857600080fd5b8063b74243ba1461067c578063bf1db1f61461068f578063c22ff7bf146106b6578063cfc23e9e146106c9578063d0ebdbe7146106e957600080fd5b806380f6cfc21161011557806380f6cfc2146105dd5780639c625e1e146105e65780639cf9c939146105f9578063a77e8e2a14610643578063ab21a05c14610656578063ab7baf041461066957600080fd5b80636bcbe8601461057e5780636ceaca67146105915780636f6af697146105a45780637884274f146105b75780637ea95f32146105ca57600080fd5b806331556d2f116101ea57806342dee1ad116101ae57806342dee1ad1461043257806346dbab3614610489578063481c6a75146104cd57806358f796bc146104f85780635ed5804e1461050b5780636bc84d591461056b57600080fd5b806331556d2f146103c2578063338139ad146103d5578063351533e7146103f95780633598b0cc1461040c5780633df7fd721461041f57600080fd5b806312fdefd91161023157806312fdefd91461031e57806321adc48f146103465780632b180a7d146103695780632d0a5fd41461038c5780632d15e4e01461039f57600080fd5b80630dd34f571461026e5780630e0052fc146102965780630e6bc39a146102c75780630ea77770146102dc57806312b6566e146102fe575b600080fd5b61028161027c366004611d17565b6107b9565b60405190151581526020015b60405180910390f35b6102b96102a4366004611d4c565b60009081526004602052604090206001015490565b60405190815260200161028d565b6102da6102d5366004611d7a565b6107f3565b005b6102ef6102ea366004611e96565b610992565b60405161028d93929190611f1b565b6102b961030c366004611d4c565b60009081526004602052604090205490565b61033161032c366004611fd6565b610c3e565b6040805192835260208301919091520161028d565b6102b9610354366004611d4c565b60009081526003602052604090206001015490565b6102b9610377366004611d4c565b60009081526002602052604090206001015490565b6102da61039a366004611e96565b610cef565b6102b96103ad366004611d4c565b60009081526003602052604090206002015490565b6102da6103d0366004612081565b610d5d565b6102b96103e3366004611d4c565b6000908152600260208190526040909120015490565b6102da610407366004612146565b610e07565b6102da61041a366004611d4c565b610ed9565b6102da61042d3660046121cd565b610ee5565b610469610440366004611d4c565b600260208190526000918252604090912080546001820154928201546003909201549092919084565b60408051948552602085019390935291830152606082015260800161028d565b6102b9610497366004611d17565b6001600160a01b038316600090815260056020908152604080832085845282528083208484529091529020600101549392505050565b6000546104e0906001600160a01b031681565b6040516001600160a01b03909116815260200161028d565b6102b96105063660046121fa565b610f92565b61054e610519366004611d17565b600560209081526000938452604080852082529284528284209052825290208054600182015460029092015490919060ff1683565b60408051938452602084019290925215159082015260600161028d565b6102b9610579366004612235565b611013565b6102b961058c36600461229a565b611042565b6102b961059f3660046122e8565b6110d6565b6102da6105b2366004612354565b611230565b6102da6105c5366004611d4c565b6112d5565b6103316105d83660046123b7565b61133b565b6102b960015481565b6102b96105f43660046123f4565b611428565b610628610607366004611d4c565b60036020526000908152604090208054600182015460029092015490919083565b6040805193845260208401929092529082015260600161028d565b6102b9610651366004612420565b611452565b6102b9610664366004611d4c565b611490565b6102b961067736600461229a565b611503565b6102da61068a366004612452565b611517565b61033161069d366004611d4c565b6004602052600090815260409020805460019091015482565b6102b96106c4366004612474565b6115b9565b6102b96106d7366004611d4c565b60009081526002602052604090205490565b6102da6106f73660046124af565b61165d565b6102b961070a366004611d4c565b60009081526003602052604090205490565b6102b961072a366004611d4c565b60009081526002602052604090206003015490565b6102da61074d3660046123f4565b611778565b6102b96107603660046124cc565b611802565b610331610773366004611d4c565b61189c565b6102b9610786366004611d17565b6001600160a01b038316600090815260056020908152604080832085845282528083208484529091529020549392505050565b6001600160a01b0383166000908152600560209081526040808320858452825280832084845290915290206002015460ff165b9392505050565b7f00000000000000000000000000000000000000000000000000000000000000006001600160a01b031662b127836040518163ffffffff1660e01b8152600401602060405180830381865afa158015610850573d6000803e3d6000fd5b505050506040513d601f19601f820116820180604052508101906108749190612526565b6001600160a01b0316336001600160a01b0316146108ad5760405162461bcd60e51b81526004016108a490612543565b60405180910390fd5b6108b683611abc565b6001600160a01b0384166000908152600560209081526040808320868452825280832085845290915290206108ea84611490565b81558161090857600084815260036020526040902060010154610918565b6000848152600360205260409020545b600182810182905560028301805460ff191690911790558154604080516001600160a01b038916815260208101889052908101869052606081019190915260808101919091527f4e58eed9e01cebfd4256725d6d1ce9fa694faa7ac5312e75af02360f453d048e9060a00160405180910390a15050505050565b6060806060600084516001600160401b038111156109b2576109b2611dc2565b604051908082528060200260200182016040528015610a0e57816020015b6109fb6040518060800160405280600081526020016000815260200160008152602001600081525090565b8152602001906001900390816109d05790505b509050600085516001600160401b03811115610a2c57610a2c611dc2565b604051908082528060200260200182016040528015610a7157816020015b6040805180820190915260008082526020820152815260200190600190039081610a4a5790505b509050600086516001600160401b03811115610a8f57610a8f611dc2565b604051908082528060200260200182016040528015610ae457816020015b610ad160405180606001604052806000815260200160008152602001600081525090565b815260200190600190039081610aad5790505b50905060005b8751811015610c30576000888281518110610b0757610b0761256b565b6020026020010151905060026000828152602001908152602001600020604051806080016040529081600082015481526020016001820154815260200160028201548152602001600382015481525050858381518110610b6957610b6961256b565b60200260200101819052506004600082815260200190815260200160002060405180604001604052908160008201548152602001600182015481525050848381518110610bb857610bb861256b565b6020026020010181905250600360008281526020019081526020016000206040518060600160405290816000820154815260200160018201548152602001600282015481525050838381518110610c1157610c1161256b565b6020026020010181905250508080610c2890612597565b915050610aea565b509196909550909350915050565b60008082600003610c5457506000905085610ce5565b82670de0b6b3a76400006402540be400610c6f6002886125c6565b610c7990896125da565b610c8391906125f2565b610c8d91906125c6565b610c9791906125c6565b9150600060646402540be400610cad8a866125f2565b610cb791906125c6565b610cc191906125c6565b905086610cd757610cd28189612611565b610ce1565b610ce181896125da565b9150505b9550959350505050565b6000546001600160a01b03163314610d195760405162461bcd60e51b81526004016108a490612628565b60005b8151811015610d5957610d47828281518110610d3a57610d3a61256b565b6020026020010151611abc565b80610d5181612597565b915050610d1c565b5050565b6000546001600160a01b03163314610d875760405162461bcd60e51b81526004016108a490612628565b8051825114610da85760405162461bcd60e51b81526004016108a49061264e565b60005b8251811015610e0257610df0838281518110610dc957610dc961256b565b6020026020010151838381518110610de357610de361256b565b6020026020010151610ee5565b80610dfa81612597565b915050610dab565b505050565b6000546001600160a01b03163314610e315760405162461bcd60e51b81526004016108a490612628565b81518351148015610e43575080518351145b610e5f5760405162461bcd60e51b81526004016108a49061264e565b60005b8351811015610ed357610ec1848281518110610e8057610e8061256b565b6020026020010151848381518110610e9a57610e9a61256b565b6020026020010151848481518110610eb457610eb461256b565b6020026020010151611778565b80610ecb81612597565b915050610e62565b50505050565b610ee281611abc565b50565b6000546001600160a01b03163314610f0f5760405162461bcd60e51b81526004016108a490612628565b610f1882611c48565b610f2182611c9f565b6000828152600260208181526040928390208451815590840151600182015582840151918101919091556060830151600390910155517f901e66575b0aecca6e394d488bfe990ff28995f6da67ef2fe1d6c900b6573a0390610f869084908490612674565b60405180910390a15050565b6001600160a01b0384166000908152600560209081526040808320868452825280832085845282528083208151606081018352815481526001820154938101939093526002015460ff161515908201819052610ff257600091505061100b565b80516110079061100187611490565b85611428565b9150505b949350505050565b6000611036858585856110288d8d8d8b610f92565b61058c8e8e8e8d8d8d611802565b98975050505050505050565b600080848684866064611056605a856125f2565b61106091906125c6565b61106a91906126a9565b61107491906126a9565b61107e908b6126e8565b611088919061276d565b611092919061276d565b90506000876110aa576110a5828a61279b565b6110b4565b6110b4828a6126a9565b9050600081136110c55760006110c7565b805b925050505b9695505050505050565b60007f00000000000000000000000000000000000000000000000000000000000000006001600160a01b031662b127836040518163ffffffff1660e01b8152600401602060405180830381865afa158015611135573d6000803e3d6000fd5b505050506040513d601f19601f820116820180604052508101906111599190612526565b6001600160a01b0316336001600160a01b0316146111895760405162461bcd60e51b81526004016108a490612543565b61119288611abc565b60006111a08a8a8a89610f92565b905060006111b28b8b8b8b8b8b611802565b90506111c187868484886115b9565b604080518c81528a15156020820152908101899052606081018890526080810187905260a0810184905260c081018390529093507f3a484d35e7358ad950e494938ebbac2c1319c2b76d162112f51d66752244dde39060e00160405180910390a1505098975050505050505050565b6000546001600160a01b0316331461125a5760405162461bcd60e51b81526004016108a490612628565b805182511461127b5760405162461bcd60e51b81526004016108a49061264e565b60005b8251811015610e02576112c383828151811061129c5761129c61256b565b60200260200101518383815181106112b6576112b661256b565b6020026020010151611517565b806112cd81612597565b91505061127e565b6000546001600160a01b031633146112ff5760405162461bcd60e51b81526004016108a490612628565b60018190556040518181527f5ba729b89796f40d260b117b8654dc301b1d9f7ec17a1e378ae31e4c70b6d2c0906020015b60405180910390a150565b60008061141b86857f00000000000000000000000000000000000000000000000000000000000000006001600160a01b03166377a9fdcf898961137f576001611382565b60005b6040516001600160e01b031960e085901b168152600481019290925260ff166024820152604401602060405180830381865afa1580156113c6573d6000803e3d6000fd5b505050506040513d601f19601f820116820180604052508101906113ea91906127dc565b86886114075760008a815260026020526040902060010154610c3e565b60008a815260026020526040902054610c3e565b9097909650945050505050565b6000670de0b6b3a76400008261143e8686612611565b61144891906125f2565b61100b91906125c6565b6000670de0b6b3a7640000828461146988886126a9565b61147391906126e8565b61147d91906126e8565b611487919061276d565b95945050505050565b60008181526004602090815260408083206002928390529083209091015460018201546064916402540be400916114c79043612611565b6114d191906125f2565b6114e390670de0b6b3a76400006125f2565b6114ed91906125c6565b6114f791906125c6565b81546107ec91906125da565b6000808486848660646110566050856125f2565b6000546001600160a01b031633146115415760405162461bcd60e51b81526004016108a490612628565b63017d78408111156115655760405162461bcd60e51b81526004016108a4906127f5565b61156e82611c48565b60008281526002602081815260409283902090910183905581518481529081018390527f048ce436ab4f2632f2aac62af26be3383ebdf5efc9a63f0bbeb6d6c9762d70899101610f86565b600080838560646402540be4006115d08a8c6126e8565b6115da919061276d565b6115e4919061276d565b6115ee908a61279b565b6115f891906126a9565b61160291906126a9565b90506064611611605a82612611565b61161b90896126e8565b611625919061276d565b8113611635576000915050611487565b61163f83826126a9565b905060008113611650576000611652565b805b979650505050505050565b7f00000000000000000000000000000000000000000000000000000000000000006001600160a01b03166312d43a516040518163ffffffff1660e01b8152600401602060405180830381865afa1580156116bb573d6000803e3d6000fd5b505050506040513d601f19601f820116820180604052508101906116df9190612526565b6001600160a01b0316336001600160a01b03161461172a5760405162461bcd60e51b8152602060048201526008602482015267474f565f4f4e4c5960c01b60448201526064016108a4565b600080546001600160a01b0319166001600160a01b0383169081179091556040519081527f2c1c11af44aa5608f1dca38c00275c30ea091e02417d36e70e9a1538689c433d90602001611330565b6000546001600160a01b031633146117a25760405162461bcd60e51b81526004016108a490612628565b6000838152600260209081526040918290208481556001810184905582518681529182018590529181018390527f1daeaff85d4d7cfda495ef83720a04b81df77e38711ca570061e16efa6ffa2759060600160405180910390a150505050565b6001600160a01b0386166000908152600560209081526040808320888452825280832087845282528083208151606081018352815481526001820154938101939093526002015460ff1615159082018190526118625760009150506110cc565b60008061186e8961189c565b9150915061188e8360200151886118855782611887565b835b8888611452565b9a9950505050505050505050565b6000818152600360205260408082208054600182015492516377a9fdcf60e01b815260048101869052602481018590529093907f00000000000000000000000000000000000000000000000000000000000000006001600160a01b0316906377a9fdcf90604401602060405180830381865afa158015611920573d6000803e3d6000fd5b505050506040513d601f19601f8201168201806040525081019061194491906127dc565b6040516377a9fdcf60e01b815260048101879052600160248201529091506000906001600160a01b037f000000000000000000000000000000000000000000000000000000000000000016906377a9fdcf90604401602060405180830381865afa1580156119b6573d6000803e3d6000fd5b505050506040513d601f19601f820116820180604052508101906119da91906127dc565b9050600060646402540be400600260008a815260200190815260200160002060030154866002015443611a0d9190612611565b611a1786886126a9565b611a2191906126e8565b611a2b91906126e8565b611a35919061276d565b611a3f919061276d565b90506000831315611a745782611a5d82670de0b6b3a76400006126e8565b611a67919061276d565b611a71908761279b565b95505b6000821315611ab35781611a9082670de0b6b3a76400006126e8565b611a9c906000196126e8565b611aa6919061276d565b611ab0908661279b565b94505b50505050915091565b60007f00000000000000000000000000000000000000000000000000000000000000006001600160a01b0316637dc0d1d06040518163ffffffff1660e01b8152600401602060405180830381865afa158015611b1c573d6000803e3d6000fd5b505050506040513d601f19601f82011682018060405250810190611b409190612526565b6001600160a01b03166380463406836040518263ffffffff1660e01b8152600401611b6d91815260200190565b602060405180830381865afa158015611b8a573d6000803e3d6000fd5b505050506040513d601f19601f82011682018060405250810190611bae91906127dc565b905062989680811115611bd35760405162461bcd60e51b81526004016108a4906127f5565b611bdc82611c9f565b600082815260026020526040902060030154818114610e025760008381526002602090815260409182902060030184905581518581529081018490527fbe762e88e6ff669d272010f163dfb3c6d389b16831c73e10f95860b2e4f15298910160405180910390a1505050565b6000818152600460205260409020611c5f82611490565b8082554360018301556040805184815260208101929092527f66ae41afb9d1762b0b5f1a431a9e5c767128a1bec9ecb20e1ef9dba7dc3663d69101610f86565b6000818152600360205260409020611cb68261189c565b600183018190558183554360028401556040805185815260208101939093528201527fc08ace100a8e3b7186ad5fcb68a0b9e7e0bd60aa466cdba34932fa0513353c6490606001610f86565b6001600160a01b0381168114610ee257600080fd5b600080600060608486031215611d2c57600080fd5b8335611d3781611d02565b95602085013595506040909401359392505050565b600060208284031215611d5e57600080fd5b5035919050565b80358015158114611d7557600080fd5b919050565b60008060008060808587031215611d9057600080fd5b8435611d9b81611d02565b93506020850135925060408501359150611db760608601611d65565b905092959194509250565b634e487b7160e01b600052604160045260246000fd5b604051601f8201601f191681016001600160401b0381118282101715611e0057611e00611dc2565b604052919050565b60006001600160401b03821115611e2157611e21611dc2565b5060051b60200190565b600082601f830112611e3c57600080fd5b81356020611e51611e4c83611e08565b611dd8565b82815260059290921b84018101918181019086841115611e7057600080fd5b8286015b84811015611e8b5780358352918301918301611e74565b509695505050505050565b600060208284031215611ea857600080fd5b81356001600160401b03811115611ebe57600080fd5b61100b84828501611e2b565b600081518084526020808501945080840160005b83811015611f105781518051885283810151848901526040908101519088015260609096019590820190600101611ede565b509495945050505050565b60608082528451908201819052600090608090818401906020808901855b83811015611f7d57611f6d858351805182526020810151602083015260408101516040830152606081015160608301525050565b9385019390820190600101611f39565b5050858303818701528751808452928101935087810192915060005b82811015611fc0578351805186528201518286015260409094019392810192600101611f99565b5050505082810360408401526110078185611eca565b600080600080600060a08688031215611fee57600080fd5b85359450611ffe60208701611d65565b94979496505050506040830135926060810135926080909101359150565b60006080828403121561202e57600080fd5b604051608081018181106001600160401b038211171561205057612050611dc2565b8060405250809150823581526020830135602082015260408301356040820152606083013560608201525092915050565b6000806040838503121561209457600080fd5b82356001600160401b03808211156120ab57600080fd5b6120b786838701611e2b565b93506020915081850135818111156120ce57600080fd5b85019050601f810186136120e157600080fd5b80356120ef611e4c82611e08565b81815260079190911b8201830190838101908883111561210e57600080fd5b928401925b8284101561213757612125898561201c565b82528482019150608084019350612113565b80955050505050509250929050565b60008060006060848603121561215b57600080fd5b83356001600160401b038082111561217257600080fd5b61217e87838801611e2b565b9450602086013591508082111561219457600080fd5b6121a087838801611e2b565b935060408601359150808211156121b657600080fd5b506121c386828701611e2b565b9150509250925092565b60008060a083850312156121e057600080fd5b823591506121f1846020850161201c565b90509250929050565b6000806000806080858703121561221057600080fd5b843561221b81611d02565b966020860135965060408601359560600135945092505050565b600080600080600080600060e0888a03121561225057600080fd5b873561225b81611d02565b965060208801359550604088013594506060880135935061227e60808901611d65565b925060a0880135915060c0880135905092959891949750929550565b60008060008060008060c087890312156122b357600080fd5b863595506122c360208801611d65565b95989597505050506040840135936060810135936080820135935060a0909101359150565b600080600080600080600080610100898b03121561230557600080fd5b883561231081611d02565b9750602089013596506040890135955061232c60608a01611d65565b979a969950949760808101359660a0820135965060c0820135955060e0909101359350915050565b6000806040838503121561236757600080fd5b82356001600160401b038082111561237e57600080fd5b61238a86838701611e2b565b935060208501359150808211156123a057600080fd5b506123ad85828601611e2b565b9150509250929050565b600080600080608085870312156123cd57600080fd5b84359350602085013592506123e460408601611d65565b9396929550929360600135925050565b60008060006060848603121561240957600080fd5b505081359360208301359350604090920135919050565b6000806000806080858703121561243657600080fd5b5050823594602084013594506040840135936060013592509050565b6000806040838503121561246557600080fd5b50508035926020909101359150565b600080600080600060a0868803121561248c57600080fd5b505083359560208501359550604085013594606081013594506080013592509050565b6000602082840312156124c157600080fd5b81356107ec81611d02565b60008060008060008060c087890312156124e557600080fd5b86356124f081611d02565b9550602087013594506040870135935061250c60608801611d65565b92506080870135915060a087013590509295509295509295565b60006020828403121561253857600080fd5b81516107ec81611d02565b6020808252600e908201526d43414c4c4241434b535f4f4e4c5960901b604082015260600190565b634e487b7160e01b600052603260045260246000fd5b634e487b7160e01b600052601160045260246000fd5b6000600182016125a9576125a9612581565b5060010190565b634e487b7160e01b600052601260045260246000fd5b6000826125d5576125d56125b0565b500490565b600082198211156125ed576125ed612581565b500190565b600081600019048311821515161561260c5761260c612581565b500290565b60008282101561262357612623612581565b500390565b6020808252600c908201526b4d414e414745525f4f4e4c5960a01b604082015260600190565b6020808252600c908201526b0aea49e9c8ebe988a9c8ea8960a31b604082015260600190565b82815260a081016107ec6020830184805182526020810151602083015260408101516040830152606081015160608301525050565b60008083128015600160ff1b8501841216156126c7576126c7612581565b6001600160ff1b03840183138116156126e2576126e2612581565b50500390565b60006001600160ff1b038184138284138082168684048611161561270e5761270e612581565b600160ff1b600087128281168783058912161561272d5761272d612581565b6000871292508782058712848416161561274957612749612581565b8785058712818416161561275f5761275f612581565b505050929093029392505050565b60008261277c5761277c6125b0565b600160ff1b82146000198414161561279657612796612581565b500590565b600080821280156001600160ff1b03849003851316156127bd576127bd612581565b600160ff1b83900384128116156127d6576127d6612581565b50500190565b6000602082840312156127ee57600080fd5b5051919050565b6020808252600890820152670a89e9ebe90928e960c31b60408201526060019056fea26469706673582212208e5c9472c09c77cb90f80982bc5382abf7866edd2cdd5dc026776a9b85c0757764736f6c634300080f0033",
  "devdoc": {
    "kind": "dev",
    "methods": {},
    "version": 1
  },
  "userdoc": {
    "kind": "user",
    "methods": {},
    "version": 1
  },
  "storageLayout": {
    "storage": [
      {
        "astId": 11438,
        "contract": "contracts/PairInfos.sol:PairInfos",
        "label": "manager",
        "offset": 0,
        "slot": "0",
        "type": "t_address"
      },
      {
        "astId": 11452,
        "contract": "contracts/PairInfos.sol:PairInfos",
        "label": "maxNegativePnlOnOpenP",
        "offset": 0,
        "slot": "1",
        "type": "t_uint256"
      },
      {
        "astId": 11466,
        "contract": "contracts/PairInfos.sol:PairInfos",
        "label": "pairParams",
        "offset": 0,
        "slot": "2",
        "type": "t_mapping(t_uint256,t_struct(PairParams)11461_storage)"
      },
      {
        "astId": 11478,
        "contract": "contracts/PairInfos.sol:PairInfos",
        "label": "pairFundingFees",
        "offset": 0,
        "slot": "3",
        "type": "t_mapping(t_uint256,t_struct(PairFundingFees)11473_storage)"
      },
      {
        "astId": 11488,
        "contract": "contracts/PairInfos.sol:PairInfos",
        "label": "pairRolloverFees",
        "offset": 0,
        "slot": "4",
        "type": "t_mapping(t_uint256,t_struct(PairRolloverFees)11483_storage)"
      },
      {
        "astId": 11504,
        "contract": "contracts/PairInfos.sol:PairInfos",
        "label": "tradeInitialAccFees",
        "offset": 0,
        "slot": "5",
        "type": "t_mapping(t_address,t_mapping(t_uint256,t_mapping(t_uint256,t_struct(TradeInitialAccFees)11495_storage)))"
      }
    ],
    "types": {
      "t_address": {
        "encoding": "inplace",
        "label": "address",
        "numberOfBytes": "20"
      },
      "t_bool": {
        "encoding": "inplace",
        "label": "bool",
        "numberOfBytes": "1"
      },
      "t_int256": {
        "encoding": "inplace",
        "label": "int256",
        "numberOfBytes": "32"
      },
      "t_mapping(t_address,t_mapping(t_uint256,t_mapping(t_uint256,t_struct(TradeInitialAccFees)11495_storage)))": {
        "encoding": "mapping",
        "key": "t_address",
        "label": "mapping(address => mapping(uint256 => mapping(uint256 => struct PairInfos.TradeInitialAccFees)))",
        "numberOfBytes": "32",
        "value": "t_mapping(t_uint256,t_mapping(t_uint256,t_struct(TradeInitialAccFees)11495_storage))"
      },
      "t_mapping(t_uint256,t_mapping(t_uint256,t_struct(TradeInitialAccFees)11495_storage))": {
        "encoding": "mapping",
        "key": "t_uint256",
        "label": "mapping(uint256 => mapping(uint256 => struct PairInfos.TradeInitialAccFees))",
        "numberOfBytes": "32",
        "value": "t_mapping(t_uint256,t_struct(TradeInitialAccFees)11495_storage)"
      },
      "t_mapping(t_uint256,t_struct(PairFundingFees)11473_storage)": {
        "encoding": "mapping",
        "key": "t_uint256",
        "label": "mapping(uint256 => struct PairInfos.PairFundingFees)",
        "numberOfBytes": "32",
        "value": "t_struct(PairFundingFees)11473_storage"
      },
      "t_mapping(t_uint256,t_struct(PairParams)11461_storage)": {
        "encoding": "mapping",
        "key": "t_uint256",
        "label": "mapping(uint256 => struct PairInfos.PairParams)",
        "numberOfBytes": "32",
        "value": "t_struct(PairParams)11461_storage"
      },
      "t_mapping(t_uint256,t_struct(PairRolloverFees)11483_storage)": {
        "encoding": "mapping",
        "key": "t_uint256",
        "label": "mapping(uint256 => struct PairInfos.PairRolloverFees)",
        "numberOfBytes": "32",
        "value": "t_struct(PairRolloverFees)11483_storage"
      },
      "t_mapping(t_uint256,t_struct(TradeInitialAccFees)11495_storage)": {
        "encoding": "mapping",
        "key": "t_uint256",
        "label": "mapping(uint256 => struct PairInfos.TradeInitialAccFees)",
        "numberOfBytes": "32",
        "value": "t_struct(TradeInitialAccFees)11495_storage"
      },
      "t_struct(PairFundingFees)11473_storage": {
        "encoding": "inplace",
        "label": "struct PairInfos.PairFundingFees",
        "members": [
          {
            "astId": 11468,
            "contract": "contracts/PairInfos.sol:PairInfos",
            "label": "accPerOiLong",
            "offset": 0,
            "slot": "0",
            "type": "t_int256"
          },
          {
            "astId": 11470,
            "contract": "contracts/PairInfos.sol:PairInfos",
            "label": "accPerOiShort",
            "offset": 0,
            "slot": "1",
            "type": "t_int256"
          },
          {
            "astId": 11472,
            "contract": "contracts/PairInfos.sol:PairInfos",
            "label": "lastUpdateBlock",
            "offset": 0,
            "slot": "2",
            "type": "t_uint256"
          }
        ],
        "numberOfBytes": "96"
      },
      "t_struct(PairParams)11461_storage": {
        "encoding": "inplace",
        "label": "struct PairInfos.PairParams",
        "members": [
          {
            "astId": 11454,
            "contract": "contracts/PairInfos.sol:PairInfos",
            "label": "onePercentDepthAbove",
            "offset": 0,
            "slot": "0",
            "type": "t_uint256"
          },
          {
            "astId": 11456,
            "contract": "contracts/PairInfos.sol:PairInfos",
            "label": "onePercentDepthBelow",
            "offset": 0,
            "slot": "1",
            "type": "t_uint256"
          },
          {
            "astId": 11458,
            "contract": "contracts/PairInfos.sol:PairInfos",
            "label": "rolloverFeePerBlockP",
            "offset": 0,
            "slot": "2",
            "type": "t_uint256"
          },
          {
            "astId": 11460,
            "contract": "contracts/PairInfos.sol:PairInfos",
            "label": "fundingFeePerBlockP",
            "offset": 0,
            "slot": "3",
            "type": "t_uint256"
          }
        ],
        "numberOfBytes": "128"
      },
      "t_struct(PairRolloverFees)11483_storage": {
        "encoding": "inplace",
        "label": "struct PairInfos.PairRolloverFees",
        "members": [
          {
            "astId": 11480,
            "contract": "contracts/PairInfos.sol:PairInfos",
            "label": "accPerCollateral",
            "offset": 0,
            "slot": "0",
            "type": "t_uint256"
          },
          {
            "astId": 11482,
            "contract": "contracts/PairInfos.sol:PairInfos",
            "label": "lastUpdateBlock",
            "offset": 0,
            "slot": "1",
            "type": "t_uint256"
          }
        ],
        "numberOfBytes": "64"
      },
      "t_struct(TradeInitialAccFees)11495_storage": {
        "encoding": "inplace",
        "label": "struct PairInfos.TradeInitialAccFees",
        "members": [
          {
            "astId": 11490,
            "contract": "contracts/PairInfos.sol:PairInfos",
            "label": "rollover",
            "offset": 0,
            "slot": "0",
            "type": "t_uint256"
          },
          {
            "astId": 11492,
            "contract": "contracts/PairInfos.sol:PairInfos",
            "label": "funding",
            "offset": 0,
            "slot": "1",
            "type": "t_int256"
          },
          {
            "astId": 11494,
            "contract": "contracts/PairInfos.sol:PairInfos",
            "label": "openedAfterUpdate",
            "offset": 0,
            "slot": "2",
            "type": "t_bool"
          }
        ],
        "numberOfBytes": "96"
      },
      "t_uint256": {
        "encoding": "inplace",
        "label": "uint256",
        "numberOfBytes": "32"
      }
    }
  }
}