{
  "address": "0x4253e96b06A1e310298aD3CDCBcC4641b3fd3C94",
  "abi": [
    {
      "inputs": [],
      "name": "T",
      "type": "error"
    },
    {
      "anonymous": false,
      "inputs": [
        {
          "components": [
            {
              "internalType": "uint256",
              "name": "orderId",
              "type": "uint256"
            },
            {
              "internalType": "uint256",
              "name": "price",
              "type": "uint256"
            },
            {
              "internalType": "uint256",
              "name": "spreadP",
              "type": "uint256"
            },
            {
              "internalType": "uint256",
              "name": "open",
              "type": "uint256"
            },
            {
              "internalType": "uint256",
              "name": "high",
              "type": "uint256"
            },
            {
              "internalType": "uint256",
              "name": "low",
              "type": "uint256"
            }
          ],
          "indexed": false,
          "internalType": "struct CallbacksInterface.AggregatorAnswer",
          "name": "a",
          "type": "tuple"
        },
        {
          "indexed": false,
          "internalType": "enum PriceAggregator.OrderType",
          "name": "orderType",
          "type": "uint8"
        }
      ],
      "name": "CallbackExecuted",
      "type": "event"
    },
    {
      "anonymous": false,
      "inputs": [
        {
          "indexed": true,
          "internalType": "bytes32",
          "name": "id",
          "type": "bytes32"
        }
      ],
      "name": "ChainlinkCancelled",
      "type": "event"
    },
    {
      "anonymous": false,
      "inputs": [
        {
          "indexed": true,
          "internalType": "bytes32",
          "name": "id",
          "type": "bytes32"
        }
      ],
      "name": "ChainlinkFulfilled",
      "type": "event"
    },
    {
      "anonymous": false,
      "inputs": [
        {
          "indexed": true,
          "internalType": "bytes32",
          "name": "id",
          "type": "bytes32"
        }
      ],
      "name": "ChainlinkRequested",
      "type": "event"
    },
    {
      "anonymous": false,
      "inputs": [
        {
          "indexed": false,
          "internalType": "uint8",
          "name": "version",
          "type": "uint8"
        }
      ],
      "name": "Initialized",
      "type": "event"
    },
    {
      "anonymous": false,
      "inputs": [
        {
          "indexed": false,
          "internalType": "uint256",
          "name": "index",
          "type": "uint256"
        },
        {
          "indexed": false,
          "internalType": "bytes32",
          "name": "jobId",
          "type": "bytes32"
        }
      ],
      "name": "JobIdUpdated",
      "type": "event"
    },
    {
      "anonymous": false,
      "inputs": [
        {
          "indexed": false,
          "internalType": "address",
          "name": "value",
          "type": "address"
        }
      ],
      "name": "LinkPriceFeedUpdated",
      "type": "event"
    },
    {
      "anonymous": false,
      "inputs": [
        {
          "indexed": false,
          "internalType": "uint256",
          "name": "value",
          "type": "uint256"
        }
      ],
      "name": "MinAnswersUpdated",
      "type": "event"
    },
    {
      "anonymous": false,
      "inputs": [
        {
          "indexed": false,
          "internalType": "uint256",
          "name": "index",
          "type": "uint256"
        },
        {
          "indexed": false,
          "internalType": "address",
          "name": "value",
          "type": "address"
        }
      ],
      "name": "NodeAdded",
      "type": "event"
    },
    {
      "anonymous": false,
      "inputs": [
        {
          "indexed": false,
          "internalType": "uint256",
          "name": "index",
          "type": "uint256"
        },
        {
          "indexed": false,
          "internalType": "address",
          "name": "oldNode",
          "type": "address"
        }
      ],
      "name": "NodeRemoved",
      "type": "event"
    },
    {
      "anonymous": false,
      "inputs": [
        {
          "indexed": false,
          "internalType": "uint256",
          "name": "index",
          "type": "uint256"
        },
        {
          "indexed": false,
          "internalType": "address",
          "name": "oldNode",
          "type": "address"
        },
        {
          "indexed": false,
          "internalType": "address",
          "name": "newNode",
          "type": "address"
        }
      ],
      "name": "NodeReplaced",
      "type": "event"
    },
    {
      "anonymous": false,
      "inputs": [
        {
          "indexed": false,
          "internalType": "address",
          "name": "value",
          "type": "address"
        }
      ],
      "name": "PairsStorageUpdated",
      "type": "event"
    },
    {
      "anonymous": false,
      "inputs": [
        {
          "indexed": false,
          "internalType": "bytes32",
          "name": "request",
          "type": "bytes32"
        },
        {
          "indexed": true,
          "internalType": "uint256",
          "name": "orderId",
          "type": "uint256"
        },
        {
          "indexed": true,
          "internalType": "address",
          "name": "node",
          "type": "address"
        },
        {
          "indexed": true,
          "internalType": "uint16",
          "name": "pairIndex",
          "type": "uint16"
        },
        {
          "indexed": false,
          "internalType": "uint256",
          "name": "price",
          "type": "uint256"
        },
        {
          "indexed": false,
          "internalType": "uint256",
          "name": "referencePrice",
          "type": "uint256"
        },
        {
          "indexed": false,
          "internalType": "uint112",
          "name": "linkFee",
          "type": "uint112"
        },
        {
          "indexed": false,
          "internalType": "bool",
          "name": "isLookback",
          "type": "bool"
        },
        {
          "indexed": false,
          "internalType": "bool",
          "name": "usedInMedian",
          "type": "bool"
        }
      ],
      "name": "PriceReceived",
      "type": "event"
    },
    {
      "anonymous": false,
      "inputs": [
        {
          "indexed": true,
          "internalType": "uint256",
          "name": "orderId",
          "type": "uint256"
        },
        {
          "indexed": true,
          "internalType": "bytes32",
          "name": "job",
          "type": "bytes32"
        },
        {
          "indexed": true,
          "internalType": "uint256",
          "name": "pairIndex",
          "type": "uint256"
        },
        {
          "indexed": false,
          "internalType": "enum PriceAggregator.OrderType",
          "name": "orderType",
          "type": "uint8"
        },
        {
          "indexed": false,
          "internalType": "uint256",
          "name": "nodesCount",
          "type": "uint256"
        },
        {
          "indexed": false,
          "internalType": "uint256",
          "name": "linkFeePerNode",
          "type": "uint256"
        },
        {
          "indexed": false,
          "internalType": "uint256",
          "name": "fromBlock",
          "type": "uint256"
        },
        {
          "indexed": false,
          "internalType": "bool",
          "name": "isLookback",
          "type": "bool"
        }
      ],
      "name": "PriceRequested",
      "type": "event"
    },
    {
      "anonymous": false,
      "inputs": [
        {
          "indexed": false,
          "internalType": "uint32",
          "name": "newValue",
          "type": "uint32"
        }
      ],
      "name": "TwapIntervalUpdated",
      "type": "event"
    },
    {
      "anonymous": false,
      "inputs": [
        {
          "indexed": false,
          "internalType": "contract IUniswapV3Pool",
          "name": "newValue",
          "type": "address"
        }
      ],
      "name": "UniV3PoolUpdated",
      "type": "event"
    },
    {
      "inputs": [
        {
          "internalType": "address",
          "name": "a",
          "type": "address"
        }
      ],
      "name": "addNode",
      "outputs": [],
      "stateMutability": "nonpayable",
      "type": "function"
    },
    {
      "inputs": [],
      "name": "claimBackLink",
      "outputs": [],
      "stateMutability": "nonpayable",
      "type": "function"
    },
    {
      "inputs": [
        {
          "internalType": "uint256",
          "name": "pairIndex",
          "type": "uint256"
        },
        {
          "internalType": "enum PriceAggregator.OrderType",
          "name": "orderType",
          "type": "uint8"
        },
        {
          "internalType": "uint256",
          "name": "leveragedPosWETH",
          "type": "uint256"
        },
        {
          "internalType": "uint256",
          "name": "fromBlock",
          "type": "uint256"
        }
      ],
      "name": "getPrice",
      "outputs": [
        {
          "internalType": "uint256",
          "name": "",
          "type": "uint256"
        }
      ],
      "stateMutability": "nonpayable",
      "type": "function"
    },
    {
      "inputs": [
        {
          "internalType": "address",
          "name": "_linkToken",
          "type": "address"
        },
        {
          "internalType": "contract IUniswapV3Pool",
          "name": "_tokenWETHLp",
          "type": "address"
        },
        {
          "internalType": "uint32",
          "name": "_twapInterval",
          "type": "uint32"
        },
        {
          "internalType": "contract StorageInterface",
          "name": "_storageT",
          "type": "address"
        },
        {
          "internalType": "contract PairsStorageInterfaceV6",
          "name": "_pairsStorage",
          "type": "address"
        },
        {
          "internalType": "contract ChainlinkFeedInterface",
          "name": "_linkPriceFeed",
          "type": "address"
        },
        {
          "internalType": "uint256",
          "name": "_minAnswers",
          "type": "uint256"
        },
        {
          "internalType": "address[]",
          "name": "_nodes",
          "type": "address[]"
        },
        {
          "internalType": "bytes32[2]",
          "name": "_jobIds",
          "type": "bytes32[2]"
        }
      ],
      "name": "initialize",
      "outputs": [],
      "stateMutability": "nonpayable",
      "type": "function"
    },
    {
      "inputs": [],
      "name": "isGnsToken0InLp",
      "outputs": [
        {
          "internalType": "bool",
          "name": "",
          "type": "bool"
        }
      ],
      "stateMutability": "view",
      "type": "function"
    },
    {
      "inputs": [
        {
          "internalType": "uint256",
          "name": "",
          "type": "uint256"
        }
      ],
      "name": "jobIds",
      "outputs": [
        {
          "internalType": "bytes32",
          "name": "",
          "type": "bytes32"
        }
      ],
      "stateMutability": "view",
      "type": "function"
    },
    {
      "inputs": [
        {
          "internalType": "uint256",
          "name": "pairIndex",
          "type": "uint256"
        },
        {
          "internalType": "uint256",
          "name": "leveragedPosWETH",
          "type": "uint256"
        }
      ],
      "name": "linkFee",
      "outputs": [
        {
          "internalType": "uint256",
          "name": "",
          "type": "uint256"
        }
      ],
      "stateMutability": "view",
      "type": "function"
    },
    {
      "inputs": [],
      "name": "linkPriceFeed",
      "outputs": [
        {
          "internalType": "contract ChainlinkFeedInterface",
          "name": "",
          "type": "address"
        }
      ],
      "stateMutability": "view",
      "type": "function"
    },
    {
      "inputs": [
        {
          "internalType": "uint256",
          "name": "",
          "type": "uint256"
        },
        {
          "internalType": "uint256",
          "name": "",
          "type": "uint256"
        }
      ],
      "name": "lookbackOrderAnswers",
      "outputs": [
        {
          "internalType": "uint64",
          "name": "open",
          "type": "uint64"
        },
        {
          "internalType": "uint64",
          "name": "high",
          "type": "uint64"
        },
        {
          "internalType": "uint64",
          "name": "low",
          "type": "uint64"
        },
        {
          "internalType": "uint64",
          "name": "ts",
          "type": "uint64"
        }
      ],
      "stateMutability": "view",
      "type": "function"
    },
    {
      "inputs": [
        {
          "internalType": "uint256",
          "name": "orderId",
          "type": "uint256"
        },
        {
          "components": [
            {
              "components": [
                {
                  "internalType": "address",
                  "name": "trader",
                  "type": "address"
                },
                {
                  "internalType": "uint256",
                  "name": "pairIndex",
                  "type": "uint256"
                },
                {
                  "internalType": "uint256",
                  "name": "index",
                  "type": "uint256"
                },
                {
                  "internalType": "uint256",
                  "name": "initialPosToken",
                  "type": "uint256"
                },
                {
                  "internalType": "uint256",
                  "name": "positionSizeWETH",
                  "type": "uint256"
                },
                {
                  "internalType": "uint256",
                  "name": "openPrice",
                  "type": "uint256"
                },
                {
                  "internalType": "bool",
                  "name": "buy",
                  "type": "bool"
                },
                {
                  "internalType": "uint256",
                  "name": "leverage",
                  "type": "uint256"
                },
                {
                  "internalType": "uint256",
                  "name": "tp",
                  "type": "uint256"
                },
                {
                  "internalType": "uint256",
                  "name": "sl",
                  "type": "uint256"
                }
              ],
              "internalType": "struct StorageInterface.Trade",
              "name": "trade",
              "type": "tuple"
            },
            {
              "internalType": "uint256",
              "name": "block",
              "type": "uint256"
            },
            {
              "internalType": "uint256",
              "name": "wantedPrice",
              "type": "uint256"
            },
            {
              "internalType": "uint256",
              "name": "slippageP",
              "type": "uint256"
            },
            {
              "internalType": "uint256",
              "name": "spreadReductionP",
              "type": "uint256"
            },
            {
              "internalType": "uint256",
              "name": "tokenId",
              "type": "uint256"
            }
          ],
          "internalType": "struct StorageInterface.PendingMarketOrder",
          "name": "o",
          "type": "tuple"
        }
      ],
      "name": "marketOrderfulfill",
      "outputs": [],
      "stateMutability": "nonpayable",
      "type": "function"
    },
    {
      "inputs": [],
      "name": "minAnswers",
      "outputs": [
        {
          "internalType": "uint256",
          "name": "",
          "type": "uint256"
        }
      ],
      "stateMutability": "view",
      "type": "function"
    },
    {
      "inputs": [
        {
          "internalType": "uint256",
          "name": "orderId",
          "type": "uint256"
        },
        {
          "components": [
            {
              "internalType": "address",
              "name": "nftHolder",
              "type": "address"
            },
            {
              "internalType": "uint256",
              "name": "nftId",
              "type": "uint256"
            },
            {
              "internalType": "address",
              "name": "trader",
              "type": "address"
            },
            {
              "internalType": "uint256",
              "name": "pairIndex",
              "type": "uint256"
            },
            {
              "internalType": "uint256",
              "name": "index",
              "type": "uint256"
            },
            {
              "internalType": "enum StorageInterface.LimitOrder",
              "name": "orderType",
              "type": "uint8"
            }
          ],
          "internalType": "struct StorageInterface.PendingNftOrder",
          "name": "o",
          "type": "tuple"
        }
      ],
      "name": "nftOrderfulfill",
      "outputs": [],
      "stateMutability": "nonpayable",
      "type": "function"
    },
    {
      "inputs": [
        {
          "internalType": "uint256",
          "name": "",
          "type": "uint256"
        }
      ],
      "name": "nodes",
      "outputs": [
        {
          "internalType": "address",
          "name": "",
          "type": "address"
        }
      ],
      "stateMutability": "view",
      "type": "function"
    },
    {
      "inputs": [
        {
          "internalType": "uint256",
          "name": "pairIndex",
          "type": "uint256"
        }
      ],
      "name": "openFeeP",
      "outputs": [
        {
          "internalType": "uint256",
          "name": "",
          "type": "uint256"
        }
      ],
      "stateMutability": "view",
      "type": "function"
    },
    {
      "inputs": [
        {
          "internalType": "bytes32",
          "name": "",
          "type": "bytes32"
        }
      ],
      "name": "orderIdByRequest",
      "outputs": [
        {
          "internalType": "uint256",
          "name": "",
          "type": "uint256"
        }
      ],
      "stateMutability": "view",
      "type": "function"
    },
    {
      "inputs": [
        {
          "internalType": "uint256",
          "name": "",
          "type": "uint256"
        }
      ],
      "name": "orders",
      "outputs": [
        {
          "internalType": "uint16",
          "name": "pairIndex",
          "type": "uint16"
        },
        {
          "internalType": "uint112",
          "name": "linkFeePerNode",
          "type": "uint112"
        },
        {
          "internalType": "enum PriceAggregator.OrderType",
          "name": "orderType",
          "type": "uint8"
        },
        {
          "internalType": "bool",
          "name": "active",
          "type": "bool"
        },
        {
          "internalType": "bool",
          "name": "isLookback",
          "type": "bool"
        }
      ],
      "stateMutability": "view",
      "type": "function"
    },
    {
      "inputs": [
        {
          "internalType": "uint256",
          "name": "",
          "type": "uint256"
        },
        {
          "internalType": "uint256",
          "name": "",
          "type": "uint256"
        }
      ],
      "name": "ordersAnswers",
      "outputs": [
        {
          "internalType": "uint256",
          "name": "",
          "type": "uint256"
        }
      ],
      "stateMutability": "view",
      "type": "function"
    },
    {
      "inputs": [],
      "name": "pairsStorage",
      "outputs": [
        {
          "internalType": "contract PairsStorageInterfaceV6",
          "name": "",
          "type": "address"
        }
      ],
      "stateMutability": "view",
      "type": "function"
    },
    {
      "inputs": [],
      "name": "precision",
      "outputs": [
        {
          "internalType": "uint256",
          "name": "",
          "type": "uint256"
        }
      ],
      "stateMutability": "view",
      "type": "function"
    },
    {
      "inputs": [
        {
          "internalType": "uint256",
          "name": "index",
          "type": "uint256"
        }
      ],
      "name": "removeNode",
      "outputs": [],
      "stateMutability": "nonpayable",
      "type": "function"
    },
    {
      "inputs": [
        {
          "internalType": "uint256",
          "name": "index",
          "type": "uint256"
        },
        {
          "internalType": "address",
          "name": "a",
          "type": "address"
        }
      ],
      "name": "replaceNode",
      "outputs": [],
      "stateMutability": "nonpayable",
      "type": "function"
    },
    {
      "inputs": [
        {
          "internalType": "bytes32",
          "name": "jobId",
          "type": "bytes32"
        }
      ],
      "name": "setLimitJobId",
      "outputs": [],
      "stateMutability": "nonpayable",
      "type": "function"
    },
    {
      "inputs": [
        {
          "internalType": "bytes32",
          "name": "jobId",
          "type": "bytes32"
        }
      ],
      "name": "setMarketJobId",
      "outputs": [],
      "stateMutability": "nonpayable",
      "type": "function"
    },
    {
      "inputs": [],
      "name": "storageT",
      "outputs": [
        {
          "internalType": "contract StorageInterface",
          "name": "",
          "type": "address"
        }
      ],
      "stateMutability": "view",
      "type": "function"
    },
    {
      "inputs": [],
      "name": "token",
      "outputs": [
        {
          "internalType": "address",
          "name": "",
          "type": "address"
        }
      ],
      "stateMutability": "view",
      "type": "function"
    },
    {
      "inputs": [],
      "name": "tokenPriceWETH",
      "outputs": [
        {
          "internalType": "uint256",
          "name": "price",
          "type": "uint256"
        }
      ],
      "stateMutability": "view",
      "type": "function"
    },
    {
      "inputs": [],
      "name": "twapInterval",
      "outputs": [
        {
          "internalType": "uint32",
          "name": "",
          "type": "uint32"
        }
      ],
      "stateMutability": "view",
      "type": "function"
    },
    {
      "inputs": [],
      "name": "uniV3Pool",
      "outputs": [
        {
          "internalType": "contract IUniswapV3Pool",
          "name": "",
          "type": "address"
        }
      ],
      "stateMutability": "view",
      "type": "function"
    },
    {
      "inputs": [
        {
          "internalType": "contract ChainlinkFeedInterface",
          "name": "value",
          "type": "address"
        }
      ],
      "name": "updateLinkPriceFeed",
      "outputs": [],
      "stateMutability": "nonpayable",
      "type": "function"
    },
    {
      "inputs": [
        {
          "internalType": "uint256",
          "name": "value",
          "type": "uint256"
        }
      ],
      "name": "updateMinAnswers",
      "outputs": [],
      "stateMutability": "nonpayable",
      "type": "function"
    },
    {
      "inputs": [
        {
          "internalType": "contract PairsStorageInterfaceV6",
          "name": "value",
          "type": "address"
        }
      ],
      "name": "updatePairsStorage",
      "outputs": [],
      "stateMutability": "nonpayable",
      "type": "function"
    },
    {
      "inputs": [
        {
          "internalType": "uint32",
          "name": "_twapInterval",
          "type": "uint32"
        }
      ],
      "name": "updateTwapInterval",
      "outputs": [],
      "stateMutability": "nonpayable",
      "type": "function"
    },
    {
      "inputs": [
        {
          "internalType": "contract IUniswapV3Pool",
          "name": "_uniV3Pool",
          "type": "address"
        }
      ],
      "name": "updateUniV3Pool",
      "outputs": [],
      "stateMutability": "nonpayable",
      "type": "function"
    }
  ],
  "transactionHash": "0x85c7661a6f0f1283b0ba44d467075815509b4101f5e503581d9e120d778a59c1",
  "args": [],
  "numDeployments": 1,
  "solcInputHash": "77db9ff83738765fb3c209f02149997c",
  "bytecode": "0x6080604052600160045534801561001557600080fd5b5061396c806100256000396000f3fe608060405234801561001057600080fd5b50600436106101ca5760003560e01c80638f93b6601161010a578063d3b5dc3b116100ad578063e21e5fe01161007c578063e21e5fe01461049c578063f5ed447c146104af578063fc0c546a146104c2578063fd288280146104d5578063ffd740df146104e857600080fd5b8063d3b5dc3b1461044d578063da4ae8ef14610456578063dcdfb43114610469578063e0bb91c21461048957600080fd5b80638f93b6601461036c57806393d7fe2c1461037f5780639d95f1cc14610392578063a500775e146103a5578063a85c38ef146103b8578063b9e0336f1461041e578063bea1675814610431578063d31273ca1461043a57600080fd5b80633c1d5df0116101725780633c1d5df01461029357806340e9eda2146102bf5780634162cc88146102d25780634c37a9d6146102e55780636938c05d1461032b5780636c83b3d71461033e5780636f37d2631461035157806385f276b81461035957600080fd5b8062912b37146101cf57806303f39a16146101f85780630d2ced531461021c57806316fff074146102315780631c53c28014610244578063290702e51461025757806335b03c171461026d57806339fe9fd214610280575b600080fd5b600c546101e2906001600160a01b031681565b6040516101ef9190612cac565b60405180910390f35b60095461020c90600160c01b900460ff1681565b60405190151581526020016101ef565b61022f61022a366004612e1c565b6104fb565b005b600a546101e2906001600160a01b031681565b6101e2610252366004612f46565b6107b6565b61025f6107e0565b6040519081526020016101ef565b600b546101e2906001600160a01b031681565b61022f61028e366004612f5f565b610a03565b6009546102aa90600160a01b900463ffffffff1681565b60405163ffffffff90911681526020016101ef565b61022f6102cd366004612ff5565b610e16565b61025f6102e0366004612f46565b610f39565b6102f86102f3366004613012565b610f50565b604080516001600160401b03958616815293851660208501529184169183019190915290911660608201526080016101ef565b61025f610339366004613034565b610fa5565b6009546101e2906001600160a01b031681565b61022f61116a565b61022f610367366004612f46565b6113e7565b61022f61037a36600461308e565b6114e7565b61025f61038d366004613012565b611840565b61022f6103a0366004612ff5565b611871565b61022f6103b336600461318f565b611a9f565b61040d6103c6366004612f46565b60126020526000908152604090205461ffff8116906001600160701b03620100008204169060ff600160801b8204811691600160881b8104821691600160901b9091041685565b6040516101ef9594939291906131d4565b61025f61042c366004613012565b611b52565b61025f600e5481565b61022f610448366004612ff5565b611c8c565b61025f60075481565b61022f610464366004612ff5565b611da4565b61025f610477366004612f46565b60136020526000908152604090205481565b61022f610497366004612f46565b611e54565b61025f6104aa366004612f46565b611f54565b61022f6104bd366004612f46565b611fc2565b6008546101e2906001600160a01b031681565b61022f6104e3366004613213565b612120565b61022f6104f6366004612f46565b6122c0565b600654610100900460ff161580801561051b5750600654600160ff909116105b806105355750303b158015610535575060065460ff166001145b61059d5760405162461bcd60e51b815260206004820152602e60248201527f496e697469616c697a61626c653a20636f6e747261637420697320616c72656160448201526d191e481a5b9a5d1a585b1a5e995960921b60648201526084015b60405180910390fd5b6006805460ff1916600117905580156105c0576006805461ff0019166101001790555b6001600160a01b038716158015906105e057506001600160a01b03861615155b80156105f457506001600160a01b03851615155b8015610601575060038410155b80156106175750610613600285613259565b6001145b8015610624575060008351115b801561063857506001600160a01b038a1615155b6106735760405162461bcd60e51b815260206004820152600c60248201526b57524f4e475f504152414d5360a01b6044820152606401610594565b600a80546001600160a01b03808a166001600160a01b031992831617909255600b8054898416908316179055600c805492881692909116919091179055600e84905582516106c890600f906020860190612bce565b506106d66010836002612c33565b50600280546001600160a01b0319166001600160a01b038c1617905561076489886001600160a01b031663fc0c546a6040518163ffffffff1660e01b8152600401602060405180830381865afa158015610734573d6000803e3d6000fd5b505050506040513d601f19601f82011682018060405250810190610758919061326d565b8a6402540be4006124aa565b80156107aa576006805461ff0019169055604051600181527f7f26b83ff96e1f2b6a682f133852f6798a09c465da95921460cefb38474024989060200160405180910390a15b50505050505050505050565b600f81815481106107c657600080fd5b6000918252602090912001546001600160a01b0316905081565b60408051600280825260608201835260009283929190602083019080368337019050509050600960149054906101000a900463ffffffff168160008151811061082b5761082b61328a565b602002602001019063ffffffff16908163ffffffff168152505060008160018151811061085a5761085a61328a565b63ffffffff9092166020928302919091019091015260095460405163883bdbfd60e01b81526000916001600160a01b03169063883bdbfd906108a09085906004016132a0565b600060405180830381865afa1580156108bd573d6000803e3d6000fd5b505050506040513d6000823e601f3d908101601f191682016040526108e5919081019061335d565b5090506000816000815181106108fd576108fd61328a565b6020026020010151826001815181106109185761091861328a565b602002602001015161092a919061343e565b600954909150600160a01b900463ffffffff1660030b600061094c828461346b565b905060008360060b12801561096c575061096682846134a9565b60060b15155b1561097f578061097b816134cb565b9150505b600061098a82612675565b9050600160601b6007546109b5836001600160a01b0316846001600160a01b0316600160601b61298e565b6109bf91906134ee565b6109c99190613505565b600954909750600160c01b900460ff166109fa578660026007546109ed91906135fd565b6109f79190613505565b96505b50505050505090565b6000828152601260209081526040808320815160a081018352815461ffff811682526201000081046001600160701b031694820194909452929091830190600160801b900460ff166003811115610a5c57610a5c6131aa565b6003811115610a6d57610a6d6131aa565b8152905460ff600160881b820481161515602080850191909152600160901b909204161515604092830152600a5482516307dc0d1d60e41b81529251939450600093849384936001600160a01b0390931692637dc0d1d0926004808401938290030181865afa158015610ae4573d6000803e3d6000fd5b505050506040513d601f19601f82011682018060405250810190610b08919061326d565b8451604051630e75722360e41b815261ffff90911660048201526001600160a01b03919091169063e7572230906024016040805180830381865afa158015610b54573d6000803e3d6000fd5b505050506040513d601f19601f82011682018060405250810190610b78919061360c565b9150915060019250610b88612c61565b86815260208101839052600b54855160405163a1d54e9b60e01b815261ffff90911660048201526001600160a01b039091169063a1d54e9b90602401602060405180830381865afa158015610be1573d6000803e3d6000fd5b505050506040513d601f19601f82011682018060405250810190610c059190613630565b604080830191909152600a54815162b1278360e01b815291516000926001600160a01b039092169162b127839160048083019260209291908290030181865afa158015610c56573d6000803e3d6000fd5b505050506040513d601f19601f82011682018060405250810190610c7a919061326d565b9050600386604001516003811115610c9457610c946131aa565b03610cfe576040516376d0fac160e11b81526001600160a01b0382169063eda1f58290610cc79085908b90600401613683565b600060405180830381600087803b158015610ce157600080fd5b505af1158015610cf5573d6000803e3d6000fd5b50505050610d52565b60405162461bcd60e51b815260206004820152602360248201527f4f70656e204c696d6974206f7264657273206e6f7420737570706f72746564206044820152621e595d60ea1b6064820152608401610594565b7fce3ae2fe07e497ba552d6485a40eed46cfb3320f001027891efeb1128dba0350828760400151604051610d879291906136f4565b60405180910390a185516020808801516080808a01516040805161060f60f31b81526000958101869052808201959095526001600160701b03909316606085015215159083015287151560a08301525161ffff9092169133918b917fdc6ff5906123aad281d8e734bb64101cea661d614a568b9bca20e7ac2ae7f3549181900360c00190a45050505050505050565b600a60009054906101000a90046001600160a01b03166001600160a01b03166312d43a516040518163ffffffff1660e01b8152600401602060405180830381865afa158015610e69573d6000803e3d6000fd5b505050506040513d601f19601f82011682018060405250810190610e8d919061326d565b6001600160a01b0316336001600160a01b031614610ebd5760405162461bcd60e51b81526004016105949061370f565b6001600160a01b038116610ee35760405162461bcd60e51b815260040161059490613731565b600b80546001600160a01b0319166001600160a01b0383161790556040517f477e87af277e7755f85267ef7c6b77cd28610c2c8c2923acdf55fa5b63f18b7790610f2e908390612cac565b60405180910390a150565b60108160028110610f4957600080fd5b0154905081565b60156020528160005260406000208181548110610f6c57600080fd5b6000918252602090912001546001600160401b038082169350600160401b820481169250600160801b8204811691600160c01b90041684565b600a5460408051637622567960e11b815290516000926001600160a01b03169163ec44acf29160048083019260209291908290030181865afa158015610fef573d6000803e3d6000fd5b505050506040513d601f19601f82011682018060405250810190611013919061326d565b6001600160a01b0316336001600160a01b0316146110625760405162461bcd60e51b815260206004820152600c60248201526b54524144494e475f4f4e4c5960a01b6044820152606401610594565b600d805490600061107283613752565b90915550506040805160a08101825261ffff87168152600060208201529081018560038111156110a4576110a46131aa565b8152600160208083019190915260006040928301819052600d5481526012825282902083518154928501516001600160701b031662010000026001600160801b031990931661ffff9091161791909117808255918301519091829060ff60801b1916600160801b83600381111561111d5761111d6131aa565b0217905550606082015181546080909301511515600160901b0260ff60901b19911515600160881b029190911661ffff60881b199093169290921791909117905550600d54949350505050565b600a60009054906101000a90046001600160a01b03166001600160a01b03166312d43a516040518163ffffffff1660e01b8152600401602060405180830381865afa1580156111bd573d6000803e3d6000fd5b505050506040513d601f19601f820116820180604052508101906111e1919061326d565b6001600160a01b0316336001600160a01b0316146112115760405162461bcd60e51b81526004016105949061370f565b600a5460408051633fb393ab60e21b815290516000926001600160a01b03169163fece4eac9160048083019260209291908290030181865afa15801561125b573d6000803e3d6000fd5b505050506040513d601f19601f8201168201806040525081019061127f919061326d565b9050806001600160a01b031663a9059cbb600a60009054906101000a90046001600160a01b03166001600160a01b03166312d43a516040518163ffffffff1660e01b8152600401602060405180830381865afa1580156112e3573d6000803e3d6000fd5b505050506040513d601f19601f82011682018060405250810190611307919061326d565b6040516370a0823160e01b81526001600160a01b038516906370a0823190611333903090600401612cac565b602060405180830381865afa158015611350573d6000803e3d6000fd5b505050506040513d601f19601f820116820180604052508101906113749190613630565b6040516001600160e01b031960e085901b1681526001600160a01b03909216600483015260248201526044016020604051808303816000875af11580156113bf573d6000803e3d6000fd5b505050506040513d601f19601f820116820180604052508101906113e3919061376b565b5050565b600a60009054906101000a90046001600160a01b03166001600160a01b03166312d43a516040518163ffffffff1660e01b8152600401602060405180830381865afa15801561143a573d6000803e3d6000fd5b505050506040513d601f19601f8201168201806040525081019061145e919061326d565b6001600160a01b0316336001600160a01b03161461148e5760405162461bcd60e51b81526004016105949061370f565b806114ab5760405162461bcd60e51b815260040161059490613731565b60108190556040805160008152602081018390527f764c19c693af0da42ec6c6bed68a2dd1a2fa93d24785fcfce58ffa29ae3136069101610f2e565b6000828152601260209081526040808320815160a081018352815461ffff811682526201000081046001600160701b031694820194909452929091830190600160801b900460ff166003811115611540576115406131aa565b6003811115611551576115516131aa565b8152905460ff600160881b820481161515602080850191909152600160901b909204161515604092830152600a5482516307dc0d1d60e41b81529251939450600093849384936001600160a01b0390931692637dc0d1d0926004808401938290030181865afa1580156115c8573d6000803e3d6000fd5b505050506040513d601f19601f820116820180604052508101906115ec919061326d565b8451604051630e75722360e41b815261ffff90911660048201526001600160a01b03919091169063e7572230906024016040805180830381865afa158015611638573d6000803e3d6000fd5b505050506040513d601f19601f8201168201806040525081019061165c919061360c565b915091506001925061166c612c61565b86815260208101839052600b54855160405163a1d54e9b60e01b815261ffff90911660048201526001600160a01b039091169063a1d54e9b90602401602060405180830381865afa1580156116c5573d6000803e3d6000fd5b505050506040513d601f19601f820116820180604052508101906116e99190613630565b604080830191909152600a54815162b1278360e01b815291516000926001600160a01b039092169162b127839160048083019260209291908290030181865afa15801561173a573d6000803e3d6000fd5b505050506040513d601f19601f8201168201806040525081019061175e919061326d565b9050600086604001516003811115611778576117786131aa565b036117ab57604051633115815560e01b81526001600160a01b03821690633115815590610cc79085908b90600401613788565b60405163485c89f960e11b81526001600160a01b038216906390b913f2906117d99085908b90600401613788565b600060405180830381600087803b1580156117f357600080fd5b505af1158015611807573d6000803e3d6000fd5b505050507fce3ae2fe07e497ba552d6485a40eed46cfb3320f001027891efeb1128dba0350828760400151604051610d879291906136f4565b6014602052816000526040600020818154811061185c57600080fd5b90600052602060002001600091509150505481565b600a60009054906101000a90046001600160a01b03166001600160a01b03166312d43a516040518163ffffffff1660e01b8152600401602060405180830381865afa1580156118c4573d6000803e3d6000fd5b505050506040513d601f19601f820116820180604052508101906118e8919061326d565b6001600160a01b0316336001600160a01b0316146119185760405162461bcd60e51b81526004016105949061370f565b6001600160a01b03811661193e5760405162461bcd60e51b815260040161059490613731565b600f546014116119835760405162461bcd60e51b815260206004820152601060248201526f4d41585f4f5241434c455f4e4f44455360801b6044820152606401610594565b60005b600f54811015611a0857816001600160a01b0316600f82815481106119ad576119ad61328a565b6000918252602090912001546001600160a01b031603611a005760405162461bcd60e51b815260206004820152600e60248201526d1053149150511657d31254d5115160921b6044820152606401610594565b600101611986565b50600f80546001808201835560008390527f8d1108e10bcb7c27dddfc02ed9d693a074039d026cf4ea4240b40f7d581ac80290910180546001600160a01b0319166001600160a01b03851617905590547fadfedad3d82b3775bf2dbea70a01327d1f26c0b868eb8ce0963a6e9af1003e8591611a8391613859565b604080519182526001600160a01b038416602083015201610f2e565b600a60009054906101000a90046001600160a01b03166001600160a01b03166312d43a516040518163ffffffff1660e01b8152600401602060405180830381865afa158015611af2573d6000803e3d6000fd5b505050506040513d601f19601f82011682018060405250810190611b16919061326d565b6001600160a01b0316336001600160a01b031614611b465760405162461bcd60e51b81526004016105949061370f565b611b4f81612a41565b50565b600080600c60009054906101000a90046001600160a01b03166001600160a01b031663feaf968c6040518163ffffffff1660e01b815260040160a060405180830381865afa158015611ba8573d6000803e3d6000fd5b505050506040513d601f19601f82011682018060405250810190611bcc9190613886565b5050600b5460405163f7acbabd60e01b815260048101899052929450606493506402540be4009285925087916001600160a01b03169063f7acbabd90602401602060405180830381865afa158015611c28573d6000803e3d6000fd5b505050506040513d601f19601f82011682018060405250810190611c4c9190613630565b611c5691906134ee565b611c64906305f5e1006134ee565b611c6e9190613505565b611c789190613505565b611c829190613505565b9150505b92915050565b600a60009054906101000a90046001600160a01b03166001600160a01b03166312d43a516040518163ffffffff1660e01b8152600401602060405180830381865afa158015611cdf573d6000803e3d6000fd5b505050506040513d601f19601f82011682018060405250810190611d03919061326d565b6001600160a01b0316336001600160a01b031614611d335760405162461bcd60e51b81526004016105949061370f565b6001600160a01b038116611d595760405162461bcd60e51b815260040161059490613731565b600c80546001600160a01b0319166001600160a01b0383161790556040517f2504020720d4f3f4c5a7010cde1f1e76e9a22857f308ef695d666ed1237bf8a490610f2e908390612cac565b600a60009054906101000a90046001600160a01b03166001600160a01b03166312d43a516040518163ffffffff1660e01b8152600401602060405180830381865afa158015611df7573d6000803e3d6000fd5b505050506040513d601f19601f82011682018060405250810190611e1b919061326d565b6001600160a01b0316336001600160a01b031614611e4b5760405162461bcd60e51b81526004016105949061370f565b611b4f81612ad1565b600a60009054906101000a90046001600160a01b03166001600160a01b03166312d43a516040518163ffffffff1660e01b8152600401602060405180830381865afa158015611ea7573d6000803e3d6000fd5b505050506040513d601f19601f82011682018060405250810190611ecb919061326d565b6001600160a01b0316336001600160a01b031614611efb5760405162461bcd60e51b81526004016105949061370f565b80611f185760405162461bcd60e51b815260040161059490613731565b60118190556040805160018152602081018390527f764c19c693af0da42ec6c6bed68a2dd1a2fa93d24785fcfce58ffa29ae3136069101610f2e565b600b54604051638251135b60e01b8152600481018390526000916001600160a01b031690638251135b90602401602060405180830381865afa158015611f9e573d6000803e3d6000fd5b505050506040513d601f19601f82011682018060405250810190611c869190613630565b600a60009054906101000a90046001600160a01b03166001600160a01b03166312d43a516040518163ffffffff1660e01b8152600401602060405180830381865afa158015612015573d6000803e3d6000fd5b505050506040513d601f19601f82011682018060405250810190612039919061326d565b6001600160a01b0316336001600160a01b0316146120695760405162461bcd60e51b81526004016105949061370f565b60038110156120a85760405162461bcd60e51b815260206004820152600b60248201526a4d494e5f414e535745525360a81b6044820152606401610594565b6120b3600282613259565b6001146120eb5760405162461bcd60e51b81526004016105949060208082526004908201526322ab22a760e11b604082015260600190565b600e8190556040518181527f230365d79885046a48c9158f0e4840ab95929bbebf5de4be23f7ce5f91a97c6590602001610f2e565b600a60009054906101000a90046001600160a01b03166001600160a01b03166312d43a516040518163ffffffff1660e01b8152600401602060405180830381865afa158015612173573d6000803e3d6000fd5b505050506040513d601f19601f82011682018060405250810190612197919061326d565b6001600160a01b0316336001600160a01b0316146121c75760405162461bcd60e51b81526004016105949061370f565b600f5482106121e85760405162461bcd60e51b8152600401610594906138d6565b6001600160a01b03811661220e5760405162461bcd60e51b815260040161059490613731565b7f945eb5535c35fb8b656c5c6b7d8bb9d9deba3a44d202bd2b53d58aac4f43db0482600f84815481106122435761224361328a565b60009182526020918290200154604080519384526001600160a01b039182169284019290925284169082015260600160405180910390a180600f838154811061228e5761228e61328a565b9060005260206000200160006101000a8154816001600160a01b0302191690836001600160a01b031602179055505050565b600a60009054906101000a90046001600160a01b03166001600160a01b03166312d43a516040518163ffffffff1660e01b8152600401602060405180830381865afa158015612313573d6000803e3d6000fd5b505050506040513d601f19601f82011682018060405250810190612337919061326d565b6001600160a01b0316336001600160a01b0316146123675760405162461bcd60e51b81526004016105949061370f565b600f5481106123885760405162461bcd60e51b8152600401610594906138d6565b7f03082ced7b8d3c831a021af877c172ae1e0257c3522a135e4d7161343846115681600f83815481106123bd576123bd61328a565b6000918252602090912001546040516123f292916001600160a01b0316909182526001600160a01b0316602082015260400190565b60405180910390a1600f805461240a90600190613859565b8154811061241a5761241a61328a565b600091825260209091200154600f80546001600160a01b0390921691839081106124465761244661328a565b9060005260206000200160006101000a8154816001600160a01b0302191690836001600160a01b03160217905550600f805480612485576124856138fb565b600082815260209020810160001990810180546001600160a01b031916905501905550565b600654610100900460ff166125155760405162461bcd60e51b815260206004820152602b60248201527f496e697469616c697a61626c653a20636f6e7472616374206973206e6f74206960448201526a6e697469616c697a696e6760a81b6064820152608401610594565b6001600160a01b03841615801590612535575061070863ffffffff831610155b8015612549575061384063ffffffff831611155b80156125555750600081115b61259a5760405162461bcd60e51b81526020600482015260166024820152752ba927a723afaa2ba0a82fa1a7a729aa292aa1aa27a960511b6044820152606401610594565b60098054600880546001600160a01b0319166001600160a01b038781169182179092558782166001600160c01b031990931692909217600160a01b63ffffffff8716021792839055600784905560408051630dfe168160e01b81529051929390911691630dfe1681916004808201926020929091908290030181865afa158015612628573d6000803e3d6000fd5b505050506040513d601f19601f8201168201806040525081019061264c919061326d565b6001600160a01b031614600960186101000a81548160ff02191690831515021790555050505050565b60008060008360020b1261268c578260020b612694565b8260020b6000035b9050620d89e88111156126ba576040516315e4079d60e11b815260040160405180910390fd5b6000816001166000036126d157600160801b6126e3565b6ffffcb933bd6fad37aa2d162d1a5940015b6001600160881b03169050600282161561270d576ffff97272373d413259a46990580e213a0260801c5b600482161561272c576ffff2e50f5f656932ef12357cf3c7fdcc0260801c5b600882161561274b576fffe5caca7e10e4e61c3624eaa0941cd00260801c5b601082161561276a576fffcb9843d60f6159c9db58835c9266440260801c5b6020821615612789576fff973b41fa98c081472e6896dfb254c00260801c5b60408216156127a8576fff2ea16466c96a3843ec78b326b528610260801c5b60808216156127c7576ffe5dee046a99a2a811c461f1969c30530260801c5b6101008216156127e7576ffcbe86c7900a88aedcffc83b479aa3a40260801c5b610200821615612807576ff987a7253ac413176f2b074cf7815e540260801c5b610400821615612827576ff3392b0822b70005940c7a398e4b70f30260801c5b610800821615612847576fe7159475a2c29b7443b29c7fa6e889d90260801c5b611000821615612867576fd097f3bdfd2022b8845ad8f792aa58250260801c5b612000821615612887576fa9f746462d870fdf8a65dc1f90e061e50260801c5b6140008216156128a7576f70d869a156d2a1b890bb3df62baf32f70260801c5b6180008216156128c7576f31be135f97d08fd981231505542fcfa60260801c5b620100008216156128e8576f09aa508b5b7a84e1c677de54f3e99bc90260801c5b62020000821615612908576e5d6af8dedb81196699c329225ee6040260801c5b62040000821615612927576d2216e584f5fa1ea926041bedfe980260801c5b62080000821615612944576b048a170391f7dc42444e8fa20260801c5b60008460020b131561296557806000198161296157612961613243565b0490505b64010000000081061561297957600161297c565b60005b60ff16602082901c0192505050919050565b60008080600019858709858702925082811083820303915050806000036129c757600084116129bc57600080fd5b508290049050612a3a565b8084116129d357600080fd5b6000848688096000868103871696879004966002600389028118808a02820302808a02820302808a02820302808a02820302808a02820302808a02909103029181900381900460010186841190950394909402919094039290920491909117919091029150505b9392505050565b61070863ffffffff821610801590612a61575061384063ffffffff821611155b612a7d5760405162461bcd60e51b815260040161059490613911565b6009805463ffffffff60a01b1916600160a01b63ffffffff8416908102919091179091556040519081527fc99f383ecd620c333255bd2aef929eedd6808999bac9bfc5f53e10d876abf1ce90602001610f2e565b6001600160a01b038116612af75760405162461bcd60e51b815260040161059490613911565b600980546001600160a01b0319166001600160a01b0383811691821790925560085460408051630dfe168160e01b815290519190931692630dfe16819160048083019260209291908290030181865afa158015612b58573d6000803e3d6000fd5b505050506040513d601f19601f82011682018060405250810190612b7c919061326d565b6001600160a01b031614600960186101000a81548160ff0219169083151502179055507fb9c36e5afdbe55e259bdc128e25c13a15f33271cc71599ce0df510b21c3e8da981604051610f2e9190612cac565b828054828255906000526020600020908101928215612c23579160200282015b82811115612c2357825182546001600160a01b0319166001600160a01b03909116178255602090920191600190910190612bee565b50612c2f929150612c97565b5090565b8260028101928215612c23579160200282015b82811115612c23578251825591602001919060010190612c46565b6040518060c001604052806000815260200160008152602001600081526020016000815260200160008152602001600081525090565b5b80821115612c2f5760008155600101612c98565b6001600160a01b0391909116815260200190565b6001600160a01b0381168114611b4f57600080fd5b8035612ce081612cc0565b919050565b803563ffffffff81168114612ce057600080fd5b634e487b7160e01b600052604160045260246000fd5b60405160c081016001600160401b0381118282101715612d3157612d31612cf9565b60405290565b60405161014081016001600160401b0381118282101715612d3157612d31612cf9565b604051601f8201601f191681016001600160401b0381118282101715612d8257612d82612cf9565b604052919050565b60006001600160401b03821115612da357612da3612cf9565b5060051b60200190565b600082601f830112612dbe57600080fd5b604051604081018181106001600160401b0382111715612de057612de0612cf9565b8060405250806040840185811115612df757600080fd5b845b81811015612e11578035835260209283019201612df9565b509195945050505050565b60008060008060008060008060006101408a8c031215612e3b57600080fd5b8935612e4681612cc0565b985060208a810135612e5781612cc0565b9850612e6560408c01612ce5565b975060608b0135612e7581612cc0565b965060808b0135612e8581612cc0565b955060a08b0135612e9581612cc0565b945060c08b0135935060e08b01356001600160401b03811115612eb757600080fd5b8b01601f81018d13612ec857600080fd5b8035612edb612ed682612d8a565b612d5a565b81815260059190911b8201830190838101908f831115612efa57600080fd5b928401925b82841015612f21578335612f1281612cc0565b82529284019290840190612eff565b8096505050505050612f378b6101008c01612dad565b90509295985092959850929598565b600060208284031215612f5857600080fd5b5035919050565b60008082840360e0811215612f7357600080fd5b8335925060c0601f1982011215612f8957600080fd5b50612f92612d0f565b6020840135612fa081612cc0565b8152604084013560208201526060840135612fba81612cc0565b6040820152608084810135606083015260a08501359082015260c084013560058110612fe557600080fd5b60a0820152919491935090915050565b60006020828403121561300757600080fd5b8135612a3a81612cc0565b6000806040838503121561302557600080fd5b50508035926020909101359150565b6000806000806080858703121561304a57600080fd5b8435935060208501356004811061306057600080fd5b93969395505050506040820135916060013590565b8015158114611b4f57600080fd5b8035612ce081613075565b6000808284036102008112156130a357600080fd5b83359250601f19016101e0808212156130bb57600080fd5b6130c3612d0f565b610140808412156130d357600080fd5b6130db612d37565b93506130e960208801612cd5565b845260408701356020850152606087013560408501526080870135606085015260a0870135608085015260c087013560a085015261312960e08801613083565b60c08501526101008781013560e086015261012080890135918601919091529087013590840152918252610160850135602083015261018085013560408301526101a085013560608301526101c085013560808301529093013560a08401525092909150565b6000602082840312156131a157600080fd5b612a3a82612ce5565b634e487b7160e01b600052602160045260246000fd5b600481106131d0576131d06131aa565b9052565b61ffff861681526001600160701b038516602082015260a081016131fb60408301866131c0565b92151560608201529015156080909101529392505050565b6000806040838503121561322657600080fd5b82359150602083013561323881612cc0565b809150509250929050565b634e487b7160e01b600052601260045260246000fd5b60008261326857613268613243565b500690565b60006020828403121561327f57600080fd5b8151612a3a81612cc0565b634e487b7160e01b600052603260045260246000fd5b6020808252825182820181905260009190848201906040850190845b818110156132de57835163ffffffff16835292840192918401916001016132bc565b50909695505050505050565b600082601f8301126132fb57600080fd5b8151602061330b612ed683612d8a565b8083825260208201915060208460051b87010193508684111561332d57600080fd5b602086015b8481101561335257805161334581612cc0565b8352918301918301613332565b509695505050505050565b6000806040838503121561337057600080fd5b82516001600160401b038082111561338757600080fd5b818501915085601f83011261339b57600080fd5b815160206133ab612ed683612d8a565b82815260059290921b840181019181810190898411156133ca57600080fd5b948201945b838610156133f85785518060060b81146133e95760008081fd5b825294820194908201906133cf565b9188015191965090935050508082111561341157600080fd5b5061341e858286016132ea565b9150509250929050565b634e487b7160e01b600052601160045260246000fd5b600682810b9082900b03667fffffffffffff198112667fffffffffffff82131715611c8657611c86613428565b60008160060b8360060b8061348257613482613243565b667fffffffffffff198214600019821416156134a0576134a0613428565b90059392505050565b60008260060b806134bc576134bc613243565b808360060b0791505092915050565b60008160020b627fffff1981036134e4576134e4613428565b6000190192915050565b8082028115828204841417611c8657611c86613428565b60008261351457613514613243565b500490565b600181815b8085111561355457816000190482111561353a5761353a613428565b8085161561354757918102915b93841c939080029061351e565b509250929050565b60008261356b57506001611c86565b8161357857506000611c86565b816001811461358e5760028114613598576135b4565b6001915050611c86565b60ff8411156135a9576135a9613428565b50506001821b611c86565b5060208310610133831016604e8410600b84101617156135d7575081810a611c86565b6135e18383613519565b80600019048211156135f5576135f5613428565b029392505050565b6000612a3a60ff84168361355c565b6000806040838503121561361f57600080fd5b505080516020909101519092909150565b60006020828403121561364257600080fd5b5051919050565b805182526020810151602083015260408101516040830152606081015160608301526080810151608083015260a081015160a08301525050565b61018081016136928285613649565b82516001600160a01b0390811660c0840152602084015160e08401526040840151166101008301526060830151610120830152608083015161014083015260a0830151600581106136e5576136e56131aa565b80610160840152509392505050565b60e081016137028285613649565b612a3a60c08301846131c0565b602080825260089082015267474f565f4f4e4c5960c01b604082015260600190565b602080825260079082015266056414c55455f360cc1b604082015260600190565b60006001820161376457613764613428565b5060010190565b60006020828403121561377d57600080fd5b8151612a3a81613075565b6102a081016137978285613649565b825180516001600160a01b031660c0840152602081015160e084015260408101516101008181860152606083015191506101208281870152608084015161014087015260a084015161016087015260c084015192506137fb61018087018415159052565b60e08401516101a0870152908301516101c0860152909101516101e084015250602083015161020083015260408301516102208301526060830151610240830152608083015161026083015260a09092015161028090910152919050565b81810381811115611c8657611c86613428565b805169ffffffffffffffffffff81168114612ce057600080fd5b600080600080600060a0868803121561389e57600080fd5b6138a78661386c565b94506020860151935060408601519250606086015191506138ca6080870161386c565b90509295509295909350565b6020808252600b908201526a0aea49e9c8ebe929c888ab60ab1b604082015260600190565b634e487b7160e01b600052603160045260246000fd5b6020808252600b908201526a57524f4e475f56414c554560a81b60408201526060019056fea26469706673582212206a44b157d643f8fd2d03863a6a5b464e7771d17ba641425ef307accbd642c74364736f6c63430008170033",
  "libraries": {
    "PackingUtils": "0xB55BeA758fe99e2550Ec37340BD2c511188992Dc"
  },
  "devdoc": {
    "events": {
      "Initialized(uint8)": {
        "details": "Triggered when the contract has been initialized or reinitialized."
      }
    },
    "kind": "dev",
    "methods": {},
    "version": 1
  },
  "userdoc": {
    "kind": "user",
    "methods": {},
    "version": 1
  },
  "storageLayout": {
    "storage": [
      {
        "astId": 319,
        "contract": "contracts/PriceAggregator.sol:PriceAggregator",
        "label": "s_ens",
        "offset": 0,
        "slot": "0",
        "type": "t_contract(ENSInterface)974"
      },
      {
        "astId": 321,
        "contract": "contracts/PriceAggregator.sol:PriceAggregator",
        "label": "s_ensNode",
        "offset": 0,
        "slot": "1",
        "type": "t_bytes32"
      },
      {
        "astId": 324,
        "contract": "contracts/PriceAggregator.sol:PriceAggregator",
        "label": "s_link",
        "offset": 0,
        "slot": "2",
        "type": "t_contract(LinkTokenInterface)1069"
      },
      {
        "astId": 327,
        "contract": "contracts/PriceAggregator.sol:PriceAggregator",
        "label": "s_oracle",
        "offset": 0,
        "slot": "3",
        "type": "t_contract(OperatorInterface)1149"
      },
      {
        "astId": 330,
        "contract": "contracts/PriceAggregator.sol:PriceAggregator",
        "label": "s_requestCount",
        "offset": 0,
        "slot": "4",
        "type": "t_uint256"
      },
      {
        "astId": 334,
        "contract": "contracts/PriceAggregator.sol:PriceAggregator",
        "label": "s_pendingRequests",
        "offset": 0,
        "slot": "5",
        "type": "t_mapping(t_bytes32,t_address)"
      },
      {
        "astId": 2892,
        "contract": "contracts/PriceAggregator.sol:PriceAggregator",
        "label": "_initialized",
        "offset": 0,
        "slot": "6",
        "type": "t_uint8"
      },
      {
        "astId": 2895,
        "contract": "contracts/PriceAggregator.sol:PriceAggregator",
        "label": "_initializing",
        "offset": 1,
        "slot": "6",
        "type": "t_bool"
      },
      {
        "astId": 22116,
        "contract": "contracts/PriceAggregator.sol:PriceAggregator",
        "label": "precision",
        "offset": 0,
        "slot": "7",
        "type": "t_uint256"
      },
      {
        "astId": 22118,
        "contract": "contracts/PriceAggregator.sol:PriceAggregator",
        "label": "token",
        "offset": 0,
        "slot": "8",
        "type": "t_address"
      },
      {
        "astId": 22121,
        "contract": "contracts/PriceAggregator.sol:PriceAggregator",
        "label": "uniV3Pool",
        "offset": 0,
        "slot": "9",
        "type": "t_contract(IUniswapV3Pool)7300"
      },
      {
        "astId": 22123,
        "contract": "contracts/PriceAggregator.sol:PriceAggregator",
        "label": "twapInterval",
        "offset": 20,
        "slot": "9",
        "type": "t_uint32"
      },
      {
        "astId": 22125,
        "contract": "contracts/PriceAggregator.sol:PriceAggregator",
        "label": "isGnsToken0InLp",
        "offset": 24,
        "slot": "9",
        "type": "t_bool"
      },
      {
        "astId": 14610,
        "contract": "contracts/PriceAggregator.sol:PriceAggregator",
        "label": "storageT",
        "offset": 0,
        "slot": "10",
        "type": "t_contract(StorageInterface)33073"
      },
      {
        "astId": 14613,
        "contract": "contracts/PriceAggregator.sol:PriceAggregator",
        "label": "pairsStorage",
        "offset": 0,
        "slot": "11",
        "type": "t_contract(PairsStorageInterfaceV6)32420"
      },
      {
        "astId": 14616,
        "contract": "contracts/PriceAggregator.sol:PriceAggregator",
        "label": "linkPriceFeed",
        "offset": 0,
        "slot": "12",
        "type": "t_contract(ChainlinkFeedInterface)31530"
      },
      {
        "astId": 14627,
        "contract": "contracts/PriceAggregator.sol:PriceAggregator",
        "label": "orderIds",
        "offset": 0,
        "slot": "13",
        "type": "t_uint256"
      },
      {
        "astId": 14629,
        "contract": "contracts/PriceAggregator.sol:PriceAggregator",
        "label": "minAnswers",
        "offset": 0,
        "slot": "14",
        "type": "t_uint256"
      },
      {
        "astId": 14658,
        "contract": "contracts/PriceAggregator.sol:PriceAggregator",
        "label": "nodes",
        "offset": 0,
        "slot": "15",
        "type": "t_array(t_address)dyn_storage"
      },
      {
        "astId": 14662,
        "contract": "contracts/PriceAggregator.sol:PriceAggregator",
        "label": "jobIds",
        "offset": 0,
        "slot": "16",
        "type": "t_array(t_bytes32)2_storage"
      },
      {
        "astId": 14667,
        "contract": "contracts/PriceAggregator.sol:PriceAggregator",
        "label": "orders",
        "offset": 0,
        "slot": "18",
        "type": "t_mapping(t_uint256,t_struct(Order)14646_storage)"
      },
      {
        "astId": 14671,
        "contract": "contracts/PriceAggregator.sol:PriceAggregator",
        "label": "orderIdByRequest",
        "offset": 0,
        "slot": "19",
        "type": "t_mapping(t_bytes32,t_uint256)"
      },
      {
        "astId": 14676,
        "contract": "contracts/PriceAggregator.sol:PriceAggregator",
        "label": "ordersAnswers",
        "offset": 0,
        "slot": "20",
        "type": "t_mapping(t_uint256,t_array(t_uint256)dyn_storage)"
      },
      {
        "astId": 14682,
        "contract": "contracts/PriceAggregator.sol:PriceAggregator",
        "label": "lookbackOrderAnswers",
        "offset": 0,
        "slot": "21",
        "type": "t_mapping(t_uint256,t_array(t_struct(LookbackOrderAnswer)14655_storage)dyn_storage)"
      }
    ],
    "types": {
      "t_address": {
        "encoding": "inplace",
        "label": "address",
        "numberOfBytes": "20"
      },
      "t_array(t_address)dyn_storage": {
        "base": "t_address",
        "encoding": "dynamic_array",
        "label": "address[]",
        "numberOfBytes": "32"
      },
      "t_array(t_bytes32)2_storage": {
        "base": "t_bytes32",
        "encoding": "inplace",
        "label": "bytes32[2]",
        "numberOfBytes": "64"
      },
      "t_array(t_struct(LookbackOrderAnswer)14655_storage)dyn_storage": {
        "base": "t_struct(LookbackOrderAnswer)14655_storage",
        "encoding": "dynamic_array",
        "label": "struct PriceAggregator.LookbackOrderAnswer[]",
        "numberOfBytes": "32"
      },
      "t_array(t_uint256)dyn_storage": {
        "base": "t_uint256",
        "encoding": "dynamic_array",
        "label": "uint256[]",
        "numberOfBytes": "32"
      },
      "t_bool": {
        "encoding": "inplace",
        "label": "bool",
        "numberOfBytes": "1"
      },
      "t_bytes32": {
        "encoding": "inplace",
        "label": "bytes32",
        "numberOfBytes": "32"
      },
      "t_contract(ChainlinkFeedInterface)31530": {
        "encoding": "inplace",
        "label": "contract ChainlinkFeedInterface",
        "numberOfBytes": "20"
      },
      "t_contract(ENSInterface)974": {
        "encoding": "inplace",
        "label": "contract ENSInterface",
        "numberOfBytes": "20"
      },
      "t_contract(IUniswapV3Pool)7300": {
        "encoding": "inplace",
        "label": "contract IUniswapV3Pool",
        "numberOfBytes": "20"
      },
      "t_contract(LinkTokenInterface)1069": {
        "encoding": "inplace",
        "label": "contract LinkTokenInterface",
        "numberOfBytes": "20"
      },
      "t_contract(OperatorInterface)1149": {
        "encoding": "inplace",
        "label": "contract OperatorInterface",
        "numberOfBytes": "20"
      },
      "t_contract(PairsStorageInterfaceV6)32420": {
        "encoding": "inplace",
        "label": "contract PairsStorageInterfaceV6",
        "numberOfBytes": "20"
      },
      "t_contract(StorageInterface)33073": {
        "encoding": "inplace",
        "label": "contract StorageInterface",
        "numberOfBytes": "20"
      },
      "t_enum(OrderType)14634": {
        "encoding": "inplace",
        "label": "enum PriceAggregator.OrderType",
        "numberOfBytes": "1"
      },
      "t_mapping(t_bytes32,t_address)": {
        "encoding": "mapping",
        "key": "t_bytes32",
        "label": "mapping(bytes32 => address)",
        "numberOfBytes": "32",
        "value": "t_address"
      },
      "t_mapping(t_bytes32,t_uint256)": {
        "encoding": "mapping",
        "key": "t_bytes32",
        "label": "mapping(bytes32 => uint256)",
        "numberOfBytes": "32",
        "value": "t_uint256"
      },
      "t_mapping(t_uint256,t_array(t_struct(LookbackOrderAnswer)14655_storage)dyn_storage)": {
        "encoding": "mapping",
        "key": "t_uint256",
        "label": "mapping(uint256 => struct PriceAggregator.LookbackOrderAnswer[])",
        "numberOfBytes": "32",
        "value": "t_array(t_struct(LookbackOrderAnswer)14655_storage)dyn_storage"
      },
      "t_mapping(t_uint256,t_array(t_uint256)dyn_storage)": {
        "encoding": "mapping",
        "key": "t_uint256",
        "label": "mapping(uint256 => uint256[])",
        "numberOfBytes": "32",
        "value": "t_array(t_uint256)dyn_storage"
      },
      "t_mapping(t_uint256,t_struct(Order)14646_storage)": {
        "encoding": "mapping",
        "key": "t_uint256",
        "label": "mapping(uint256 => struct PriceAggregator.Order)",
        "numberOfBytes": "32",
        "value": "t_struct(Order)14646_storage"
      },
      "t_struct(LookbackOrderAnswer)14655_storage": {
        "encoding": "inplace",
        "label": "struct PriceAggregator.LookbackOrderAnswer",
        "members": [
          {
            "astId": 14648,
            "contract": "contracts/PriceAggregator.sol:PriceAggregator",
            "label": "open",
            "offset": 0,
            "slot": "0",
            "type": "t_uint64"
          },
          {
            "astId": 14650,
            "contract": "contracts/PriceAggregator.sol:PriceAggregator",
            "label": "high",
            "offset": 8,
            "slot": "0",
            "type": "t_uint64"
          },
          {
            "astId": 14652,
            "contract": "contracts/PriceAggregator.sol:PriceAggregator",
            "label": "low",
            "offset": 16,
            "slot": "0",
            "type": "t_uint64"
          },
          {
            "astId": 14654,
            "contract": "contracts/PriceAggregator.sol:PriceAggregator",
            "label": "ts",
            "offset": 24,
            "slot": "0",
            "type": "t_uint64"
          }
        ],
        "numberOfBytes": "32"
      },
      "t_struct(Order)14646_storage": {
        "encoding": "inplace",
        "label": "struct PriceAggregator.Order",
        "members": [
          {
            "astId": 14636,
            "contract": "contracts/PriceAggregator.sol:PriceAggregator",
            "label": "pairIndex",
            "offset": 0,
            "slot": "0",
            "type": "t_uint16"
          },
          {
            "astId": 14638,
            "contract": "contracts/PriceAggregator.sol:PriceAggregator",
            "label": "linkFeePerNode",
            "offset": 2,
            "slot": "0",
            "type": "t_uint112"
          },
          {
            "astId": 14641,
            "contract": "contracts/PriceAggregator.sol:PriceAggregator",
            "label": "orderType",
            "offset": 16,
            "slot": "0",
            "type": "t_enum(OrderType)14634"
          },
          {
            "astId": 14643,
            "contract": "contracts/PriceAggregator.sol:PriceAggregator",
            "label": "active",
            "offset": 17,
            "slot": "0",
            "type": "t_bool"
          },
          {
            "astId": 14645,
            "contract": "contracts/PriceAggregator.sol:PriceAggregator",
            "label": "isLookback",
            "offset": 18,
            "slot": "0",
            "type": "t_bool"
          }
        ],
        "numberOfBytes": "32"
      },
      "t_uint112": {
        "encoding": "inplace",
        "label": "uint112",
        "numberOfBytes": "14"
      },
      "t_uint16": {
        "encoding": "inplace",
        "label": "uint16",
        "numberOfBytes": "2"
      },
      "t_uint256": {
        "encoding": "inplace",
        "label": "uint256",
        "numberOfBytes": "32"
      },
      "t_uint32": {
        "encoding": "inplace",
        "label": "uint32",
        "numberOfBytes": "4"
      },
      "t_uint64": {
        "encoding": "inplace",
        "label": "uint64",
        "numberOfBytes": "8"
      },
      "t_uint8": {
        "encoding": "inplace",
        "label": "uint8",
        "numberOfBytes": "1"
      }
    }
  }
}