{
  "address": "0x19C6B0731bd0cd792bAFa373D4612AF57435169a",
  "abi": [
    {
      "inputs": [
        {
          "internalType": "address",
          "name": "_linkToken",
          "type": "address"
        },
        {
          "internalType": "contract IUniswapV3Pool",
          "name": "_tokenWETHLp",
          "type": "address"
        },
        {
          "internalType": "uint32",
          "name": "_twapInterval",
          "type": "uint32"
        },
        {
          "internalType": "contract StorageInterface",
          "name": "_storageT",
          "type": "address"
        },
        {
          "internalType": "contract PairsStorageInterfaceV6",
          "name": "_pairsStorage",
          "type": "address"
        },
        {
          "internalType": "contract ChainlinkFeedInterface",
          "name": "_linkPriceFeed",
          "type": "address"
        },
        {
          "internalType": "uint256",
          "name": "_minAnswers",
          "type": "uint256"
        },
        {
          "internalType": "address[]",
          "name": "_nodes",
          "type": "address[]"
        },
        {
          "internalType": "bytes32[2]",
          "name": "_jobIds",
          "type": "bytes32[2]"
        }
      ],
      "stateMutability": "nonpayable",
      "type": "constructor"
    },
    {
      "inputs": [],
      "name": "T",
      "type": "error"
    },
    {
      "anonymous": false,
      "inputs": [
        {
          "components": [
            {
              "internalType": "uint256",
              "name": "orderId",
              "type": "uint256"
            },
            {
              "internalType": "uint256",
              "name": "price",
              "type": "uint256"
            },
            {
              "internalType": "uint256",
              "name": "spreadP",
              "type": "uint256"
            },
            {
              "internalType": "uint256",
              "name": "open",
              "type": "uint256"
            },
            {
              "internalType": "uint256",
              "name": "high",
              "type": "uint256"
            },
            {
              "internalType": "uint256",
              "name": "low",
              "type": "uint256"
            }
          ],
          "indexed": false,
          "internalType": "struct CallbacksInterface.AggregatorAnswer",
          "name": "a",
          "type": "tuple"
        },
        {
          "indexed": false,
          "internalType": "enum PriceAggregator.OrderType",
          "name": "orderType",
          "type": "uint8"
        }
      ],
      "name": "CallbackExecuted",
      "type": "event"
    },
    {
      "anonymous": false,
      "inputs": [
        {
          "indexed": true,
          "internalType": "bytes32",
          "name": "id",
          "type": "bytes32"
        }
      ],
      "name": "ChainlinkCancelled",
      "type": "event"
    },
    {
      "anonymous": false,
      "inputs": [
        {
          "indexed": true,
          "internalType": "bytes32",
          "name": "id",
          "type": "bytes32"
        }
      ],
      "name": "ChainlinkFulfilled",
      "type": "event"
    },
    {
      "anonymous": false,
      "inputs": [
        {
          "indexed": true,
          "internalType": "bytes32",
          "name": "id",
          "type": "bytes32"
        }
      ],
      "name": "ChainlinkRequested",
      "type": "event"
    },
    {
      "anonymous": false,
      "inputs": [
        {
          "indexed": false,
          "internalType": "uint256",
          "name": "index",
          "type": "uint256"
        },
        {
          "indexed": false,
          "internalType": "bytes32",
          "name": "jobId",
          "type": "bytes32"
        }
      ],
      "name": "JobIdUpdated",
      "type": "event"
    },
    {
      "anonymous": false,
      "inputs": [
        {
          "indexed": false,
          "internalType": "address",
          "name": "value",
          "type": "address"
        }
      ],
      "name": "LinkPriceFeedUpdated",
      "type": "event"
    },
    {
      "anonymous": false,
      "inputs": [
        {
          "indexed": false,
          "internalType": "uint256",
          "name": "value",
          "type": "uint256"
        }
      ],
      "name": "MinAnswersUpdated",
      "type": "event"
    },
    {
      "anonymous": false,
      "inputs": [
        {
          "indexed": false,
          "internalType": "uint256",
          "name": "index",
          "type": "uint256"
        },
        {
          "indexed": false,
          "internalType": "address",
          "name": "value",
          "type": "address"
        }
      ],
      "name": "NodeAdded",
      "type": "event"
    },
    {
      "anonymous": false,
      "inputs": [
        {
          "indexed": false,
          "internalType": "uint256",
          "name": "index",
          "type": "uint256"
        },
        {
          "indexed": false,
          "internalType": "address",
          "name": "oldNode",
          "type": "address"
        }
      ],
      "name": "NodeRemoved",
      "type": "event"
    },
    {
      "anonymous": false,
      "inputs": [
        {
          "indexed": false,
          "internalType": "uint256",
          "name": "index",
          "type": "uint256"
        },
        {
          "indexed": false,
          "internalType": "address",
          "name": "oldNode",
          "type": "address"
        },
        {
          "indexed": false,
          "internalType": "address",
          "name": "newNode",
          "type": "address"
        }
      ],
      "name": "NodeReplaced",
      "type": "event"
    },
    {
      "anonymous": false,
      "inputs": [
        {
          "indexed": false,
          "internalType": "address",
          "name": "value",
          "type": "address"
        }
      ],
      "name": "PairsStorageUpdated",
      "type": "event"
    },
    {
      "anonymous": false,
      "inputs": [
        {
          "indexed": false,
          "internalType": "bytes32",
          "name": "request",
          "type": "bytes32"
        },
        {
          "indexed": true,
          "internalType": "uint256",
          "name": "orderId",
          "type": "uint256"
        },
        {
          "indexed": true,
          "internalType": "address",
          "name": "node",
          "type": "address"
        },
        {
          "indexed": true,
          "internalType": "uint16",
          "name": "pairIndex",
          "type": "uint16"
        },
        {
          "indexed": false,
          "internalType": "uint256",
          "name": "price",
          "type": "uint256"
        },
        {
          "indexed": false,
          "internalType": "uint256",
          "name": "referencePrice",
          "type": "uint256"
        },
        {
          "indexed": false,
          "internalType": "uint112",
          "name": "linkFee",
          "type": "uint112"
        },
        {
          "indexed": false,
          "internalType": "bool",
          "name": "isLookback",
          "type": "bool"
        },
        {
          "indexed": false,
          "internalType": "bool",
          "name": "usedInMedian",
          "type": "bool"
        }
      ],
      "name": "PriceReceived",
      "type": "event"
    },
    {
      "anonymous": false,
      "inputs": [
        {
          "indexed": true,
          "internalType": "uint256",
          "name": "orderId",
          "type": "uint256"
        },
        {
          "indexed": true,
          "internalType": "bytes32",
          "name": "job",
          "type": "bytes32"
        },
        {
          "indexed": true,
          "internalType": "uint256",
          "name": "pairIndex",
          "type": "uint256"
        },
        {
          "indexed": false,
          "internalType": "enum PriceAggregator.OrderType",
          "name": "orderType",
          "type": "uint8"
        },
        {
          "indexed": false,
          "internalType": "uint256",
          "name": "nodesCount",
          "type": "uint256"
        },
        {
          "indexed": false,
          "internalType": "uint256",
          "name": "linkFeePerNode",
          "type": "uint256"
        },
        {
          "indexed": false,
          "internalType": "uint256",
          "name": "fromBlock",
          "type": "uint256"
        },
        {
          "indexed": false,
          "internalType": "bool",
          "name": "isLookback",
          "type": "bool"
        }
      ],
      "name": "PriceRequested",
      "type": "event"
    },
    {
      "anonymous": false,
      "inputs": [
        {
          "indexed": false,
          "internalType": "uint32",
          "name": "newValue",
          "type": "uint32"
        }
      ],
      "name": "TwapIntervalUpdated",
      "type": "event"
    },
    {
      "anonymous": false,
      "inputs": [
        {
          "indexed": false,
          "internalType": "contract IUniswapV3Pool",
          "name": "newValue",
          "type": "address"
        }
      ],
      "name": "UniV3PoolUpdated",
      "type": "event"
    },
    {
      "inputs": [
        {
          "internalType": "uint256",
          "name": "orderId",
          "type": "uint256"
        },
        {
          "internalType": "uint256",
          "name": "price",
          "type": "uint256"
        }
      ],
      "name": "Mfulfill",
      "outputs": [],
      "stateMutability": "nonpayable",
      "type": "function"
    },
    {
      "inputs": [
        {
          "internalType": "address",
          "name": "a",
          "type": "address"
        }
      ],
      "name": "addNode",
      "outputs": [],
      "stateMutability": "nonpayable",
      "type": "function"
    },
    {
      "inputs": [],
      "name": "claimBackLink",
      "outputs": [],
      "stateMutability": "nonpayable",
      "type": "function"
    },
    {
      "inputs": [
        {
          "internalType": "bytes32",
          "name": "requestId",
          "type": "bytes32"
        },
        {
          "internalType": "uint256",
          "name": "priceData",
          "type": "uint256"
        }
      ],
      "name": "fulfill",
      "outputs": [],
      "stateMutability": "nonpayable",
      "type": "function"
    },
    {
      "inputs": [
        {
          "internalType": "uint256",
          "name": "pairIndex",
          "type": "uint256"
        },
        {
          "internalType": "enum PriceAggregator.OrderType",
          "name": "orderType",
          "type": "uint8"
        },
        {
          "internalType": "uint256",
          "name": "leveragedPosWETH",
          "type": "uint256"
        },
        {
          "internalType": "uint256",
          "name": "fromBlock",
          "type": "uint256"
        }
      ],
      "name": "getPrice",
      "outputs": [
        {
          "internalType": "uint256",
          "name": "",
          "type": "uint256"
        }
      ],
      "stateMutability": "nonpayable",
      "type": "function"
    },
    {
      "inputs": [],
      "name": "isGnsToken0InLp",
      "outputs": [
        {
          "internalType": "bool",
          "name": "",
          "type": "bool"
        }
      ],
      "stateMutability": "view",
      "type": "function"
    },
    {
      "inputs": [
        {
          "internalType": "uint256",
          "name": "",
          "type": "uint256"
        }
      ],
      "name": "jobIds",
      "outputs": [
        {
          "internalType": "bytes32",
          "name": "",
          "type": "bytes32"
        }
      ],
      "stateMutability": "view",
      "type": "function"
    },
    {
      "inputs": [
        {
          "internalType": "uint256",
          "name": "pairIndex",
          "type": "uint256"
        },
        {
          "internalType": "uint256",
          "name": "leveragedPosWETH",
          "type": "uint256"
        }
      ],
      "name": "linkFee",
      "outputs": [
        {
          "internalType": "uint256",
          "name": "",
          "type": "uint256"
        }
      ],
      "stateMutability": "view",
      "type": "function"
    },
    {
      "inputs": [],
      "name": "linkPriceFeed",
      "outputs": [
        {
          "internalType": "contract ChainlinkFeedInterface",
          "name": "",
          "type": "address"
        }
      ],
      "stateMutability": "view",
      "type": "function"
    },
    {
      "inputs": [
        {
          "internalType": "uint256",
          "name": "",
          "type": "uint256"
        },
        {
          "internalType": "uint256",
          "name": "",
          "type": "uint256"
        }
      ],
      "name": "lookbackOrderAnswers",
      "outputs": [
        {
          "internalType": "uint64",
          "name": "open",
          "type": "uint64"
        },
        {
          "internalType": "uint64",
          "name": "high",
          "type": "uint64"
        },
        {
          "internalType": "uint64",
          "name": "low",
          "type": "uint64"
        },
        {
          "internalType": "uint64",
          "name": "ts",
          "type": "uint64"
        }
      ],
      "stateMutability": "view",
      "type": "function"
    },
    {
      "inputs": [],
      "name": "minAnswers",
      "outputs": [
        {
          "internalType": "uint256",
          "name": "",
          "type": "uint256"
        }
      ],
      "stateMutability": "view",
      "type": "function"
    },
    {
      "inputs": [
        {
          "internalType": "uint256",
          "name": "",
          "type": "uint256"
        }
      ],
      "name": "nodes",
      "outputs": [
        {
          "internalType": "address",
          "name": "",
          "type": "address"
        }
      ],
      "stateMutability": "view",
      "type": "function"
    },
    {
      "inputs": [
        {
          "internalType": "uint256",
          "name": "pairIndex",
          "type": "uint256"
        }
      ],
      "name": "openFeeP",
      "outputs": [
        {
          "internalType": "uint256",
          "name": "",
          "type": "uint256"
        }
      ],
      "stateMutability": "view",
      "type": "function"
    },
    {
      "inputs": [
        {
          "internalType": "bytes32",
          "name": "",
          "type": "bytes32"
        }
      ],
      "name": "orderIdByRequest",
      "outputs": [
        {
          "internalType": "uint256",
          "name": "",
          "type": "uint256"
        }
      ],
      "stateMutability": "view",
      "type": "function"
    },
    {
      "inputs": [
        {
          "internalType": "uint256",
          "name": "",
          "type": "uint256"
        }
      ],
      "name": "orders",
      "outputs": [
        {
          "internalType": "uint16",
          "name": "pairIndex",
          "type": "uint16"
        },
        {
          "internalType": "uint112",
          "name": "linkFeePerNode",
          "type": "uint112"
        },
        {
          "internalType": "enum PriceAggregator.OrderType",
          "name": "orderType",
          "type": "uint8"
        },
        {
          "internalType": "bool",
          "name": "active",
          "type": "bool"
        },
        {
          "internalType": "bool",
          "name": "isLookback",
          "type": "bool"
        }
      ],
      "stateMutability": "view",
      "type": "function"
    },
    {
      "inputs": [
        {
          "internalType": "uint256",
          "name": "",
          "type": "uint256"
        },
        {
          "internalType": "uint256",
          "name": "",
          "type": "uint256"
        }
      ],
      "name": "ordersAnswers",
      "outputs": [
        {
          "internalType": "uint256",
          "name": "",
          "type": "uint256"
        }
      ],
      "stateMutability": "view",
      "type": "function"
    },
    {
      "inputs": [],
      "name": "pairsStorage",
      "outputs": [
        {
          "internalType": "contract PairsStorageInterfaceV6",
          "name": "",
          "type": "address"
        }
      ],
      "stateMutability": "view",
      "type": "function"
    },
    {
      "inputs": [
        {
          "internalType": "uint256",
          "name": "index",
          "type": "uint256"
        }
      ],
      "name": "removeNode",
      "outputs": [],
      "stateMutability": "nonpayable",
      "type": "function"
    },
    {
      "inputs": [
        {
          "internalType": "uint256",
          "name": "index",
          "type": "uint256"
        },
        {
          "internalType": "address",
          "name": "a",
          "type": "address"
        }
      ],
      "name": "replaceNode",
      "outputs": [],
      "stateMutability": "nonpayable",
      "type": "function"
    },
    {
      "inputs": [
        {
          "internalType": "bytes32",
          "name": "jobId",
          "type": "bytes32"
        }
      ],
      "name": "setLimitJobId",
      "outputs": [],
      "stateMutability": "nonpayable",
      "type": "function"
    },
    {
      "inputs": [
        {
          "internalType": "bytes32",
          "name": "jobId",
          "type": "bytes32"
        }
      ],
      "name": "setMarketJobId",
      "outputs": [],
      "stateMutability": "nonpayable",
      "type": "function"
    },
    {
      "inputs": [],
      "name": "storageT",
      "outputs": [
        {
          "internalType": "contract StorageInterface",
          "name": "",
          "type": "address"
        }
      ],
      "stateMutability": "view",
      "type": "function"
    },
    {
      "inputs": [],
      "name": "token",
      "outputs": [
        {
          "internalType": "address",
          "name": "",
          "type": "address"
        }
      ],
      "stateMutability": "view",
      "type": "function"
    },
    {
      "inputs": [],
      "name": "tokenPriceWETH",
      "outputs": [
        {
          "internalType": "uint256",
          "name": "price",
          "type": "uint256"
        }
      ],
      "stateMutability": "view",
      "type": "function"
    },
    {
      "inputs": [],
      "name": "twapInterval",
      "outputs": [
        {
          "internalType": "uint32",
          "name": "",
          "type": "uint32"
        }
      ],
      "stateMutability": "view",
      "type": "function"
    },
    {
      "inputs": [],
      "name": "uniV3Pool",
      "outputs": [
        {
          "internalType": "contract IUniswapV3Pool",
          "name": "",
          "type": "address"
        }
      ],
      "stateMutability": "view",
      "type": "function"
    },
    {
      "inputs": [
        {
          "internalType": "contract ChainlinkFeedInterface",
          "name": "value",
          "type": "address"
        }
      ],
      "name": "updateLinkPriceFeed",
      "outputs": [],
      "stateMutability": "nonpayable",
      "type": "function"
    },
    {
      "inputs": [
        {
          "internalType": "uint256",
          "name": "value",
          "type": "uint256"
        }
      ],
      "name": "updateMinAnswers",
      "outputs": [],
      "stateMutability": "nonpayable",
      "type": "function"
    },
    {
      "inputs": [
        {
          "internalType": "contract PairsStorageInterfaceV6",
          "name": "value",
          "type": "address"
        }
      ],
      "name": "updatePairsStorage",
      "outputs": [],
      "stateMutability": "nonpayable",
      "type": "function"
    },
    {
      "inputs": [
        {
          "internalType": "uint32",
          "name": "_twapInterval",
          "type": "uint32"
        }
      ],
      "name": "updateTwapInterval",
      "outputs": [],
      "stateMutability": "nonpayable",
      "type": "function"
    },
    {
      "inputs": [
        {
          "internalType": "contract IUniswapV3Pool",
          "name": "_uniV3Pool",
          "type": "address"
        }
      ],
      "name": "updateUniV3Pool",
      "outputs": [],
      "stateMutability": "nonpayable",
      "type": "function"
    }
  ],
  "transactionHash": "0x867536e000ed276adc2ad253f127bad9b4a5de9f524357bae800ad712a0c1ff1",
  "args": [
    "0xa667403454F483dE81A0363Af7FcEE563819D910",
    "0x6Adf803aaef612bfd73841cd1ACF712Af1E6DB36",
    1900,
    "0x8b80672AD8A146BbaAd3dd1f7f17Ee730a994e71",
    "0xE4C4E10700aa441963CA8a3273b4fB53AEC4ee2c",
    "0xa667403454F483dE81A0363Af7FcEE563819D910",
    3,
    [
      "0x00000000219ab540356cbb839cbe05303d7705fa",
      "0xc02aaa39b223fe8d0a0e5c4f27ead9083c756cc2",
      "0xbe0eb53f46cd790cd13851d5eff43d12404d33e8",
      "0xda9dfa130df4de4673b89022ee50ff26f6ea73cf"
    ],
    [
      "0x0000000000000000000000000000000000000000000000000000000000000004",
      "0x0000000000000000000000000000000000000000000000000000000000000001"
    ]
  ],
  "numDeployments": 1,
  "solcInputHash": "012b7d34751865cebe2589c70545c828",
  "bytecode": "0x60e060405260016004553480156200001657600080fd5b50604051620047bd380380620047bd833981016040819052620000399162000572565b87866001600160a01b031663fc0c546a6040518163ffffffff1660e01b8152600401602060405180830381865afa15801562000079573d6000803e3d6000fd5b505050506040513d601f19601f820116820180604052508101906200009f919062000651565b886402540be4006001600160a01b03841615801590620000c7575061070863ffffffff831610155b8015620000dc575061384063ffffffff831611155b8015620000e95750600081115b6200013b5760405162461bcd60e51b815260206004820152601660248201527f57524f4e475f545741505f434f4e5354525543544f520000000000000000000060448201526064015b60405180910390fd5b600680546001600160a01b0385811660a081905263ffffffff8616600160a01b026001600160c01b0319909316828916179290921792839055608084905260408051630dfe168160e01b81529051929390911691630dfe1681916004808201926020929091908290030181865afa158015620001bb573d6000803e3d6000fd5b505050506040513d601f19601f82011682018060405250810190620001e1919062000651565b6001600160a01b031614600660186101000a81548160ff0219169083151502179055505050505060006001600160a01b0316866001600160a01b0316141580156200023457506001600160a01b03851615155b80156200024957506001600160a01b03841615155b801562000257575060038310155b80156200027057506200026c60028462000678565b6001145b80156200027e575060008251115b80156200029357506001600160a01b03891615155b620002d05760405162461bcd60e51b815260206004820152600c60248201526b57524f4e475f504152414d5360a01b604482015260640162000132565b6001600160a01b0386811660c052600780546001600160a01b03199081168884161790915560088054909116918616919091179055600a83905581516200031f90600b9060208501906200035a565b506200032f600c826002620003c4565b50600280546001600160a01b0319166001600160a01b038b161790555050505050505050506200069b565b828054828255906000526020600020908101928215620003b2579160200282015b82811115620003b257825182546001600160a01b0319166001600160a01b039091161782556020909201916001909101906200037b565b50620003c0929150620003f5565b5090565b8260028101928215620003b2579160200282015b82811115620003b2578251825591602001919060010190620003d8565b5b80821115620003c05760008155600101620003f6565b6001600160a01b03811681146200042257600080fd5b50565b805162000432816200040c565b919050565b634e487b7160e01b600052604160045260246000fd5b600082601f8301126200045f57600080fd5b815160206001600160401b03808311156200047e576200047e62000437565b8260051b604051601f19603f83011681018181108482111715620004a657620004a662000437565b604052938452858101830193838101925087851115620004c557600080fd5b83870191505b84821015620004f1578151620004e1816200040c565b83529183019190830190620004cb565b979650505050505050565b600082601f8301126200050e57600080fd5b604080519081016001600160401b038111828210171562000533576200053362000437565b80604052508060408401858111156200054b57600080fd5b845b81811015620005675780518352602092830192016200054d565b509195945050505050565b60008060008060008060008060006101408a8c0312156200059257600080fd5b89516200059f816200040c565b60208b0151909950620005b2816200040c565b60408b015190985063ffffffff81168114620005cd57600080fd5b9650620005dd60608b0162000425565b9550620005ed60808b0162000425565b9450620005fd60a08b0162000425565b60c08b015160e08c015191955093506001600160401b038111156200062157600080fd5b6200062f8c828d016200044d565b925050620006428b6101008c01620004fc565b90509295985092959850929598565b6000602082840312156200066457600080fd5b815162000671816200040c565b9392505050565b6000826200069657634e487b7160e01b600052601260045260246000fd5b500690565b60805160a05160c05161406d62000750600039600081816101fb0152818161075d01528181610e25015281816111a50152818161143b01528181611614015281816116c80152818161175b015281816118bd015281816119f901528181611c3c01528181611e1f0152818161216b0152818161228e01528181612349015281816124c20152818161262b01526127d601526000818161049901526134ba0152600081816106be0152610721015261406d6000f3fe608060405234801561001057600080fd5b50600436106101a45760003560e01c806393d7fe2c116100ef578063da4ae8ef11610092578063da4ae8ef14610428578063dcdfb4311461043b578063e0bb91c21461045b578063e21e5fe01461046e578063f5ed447c14610481578063fc0c546a14610494578063fd288280146104bb578063ffd740df146104ce57600080fd5b806393d7fe2c146103475780639d95f1cc1461035a578063a500775e1461036d578063a85c38ef14610380578063ac314637146103e6578063b9e0336f146103f9578063bea167581461040c578063d31273ca1461041557600080fd5b806340e9eda21161015757806340e9eda2146102855780634162cc881461029a5780634357855e146102ad5780634c37a9d6146102c05780636938c05d146103065780636c83b3d7146103195780636f37d2631461032c57806385f276b81461033457600080fd5b8062912b37146101a957806303f39a16146101d257806316fff074146101f65780631c53c2801461021d578063290702e51461023057806335b03c17146102465780633c1d5df014610259575b600080fd5b6008546101bc906001600160a01b031681565b6040516101c9919061371c565b60405180910390f35b6006546101e690600160c01b900460ff1681565b60405190151581526020016101c9565b6101bc7f000000000000000000000000000000000000000000000000000000000000000081565b6101bc61022b366004613730565b6104e1565b61023861050b565b6040519081526020016101c9565b6007546101bc906001600160a01b031681565b60065461027090600160a01b900463ffffffff1681565b60405163ffffffff90911681526020016101c9565b61029861029336600461375e565b61075b565b005b6102386102a8366004613730565b610892565b6102986102bb36600461377b565b6108a9565b6102d36102ce36600461377b565b6113e2565b604080516001600160401b03958616815293851660208501529184169183019190915290911660608201526080016101c9565b61023861031436600461379d565b611437565b6006546101bc906001600160a01b031681565b610298611612565b610298610342366004613730565b6118bb565b61023861035536600461377b565b6119c6565b61029861036836600461375e565b6119f7565b61029861037b3660046137de565b611c3a565b6103d561038e366004613730565b600e6020526000908152604090205461ffff8116906001600160701b03620100008204169060ff600160801b8204811691600160881b8104821691600160901b9091041685565b6040516101c995949392919061383c565b6102986103f436600461377b565b611cf8565b61023861040736600461377b565b61202f565b610238600a5481565b61029861042336600461375e565b612169565b61029861043636600461375e565b61228c565b610238610449366004613730565b600f6020526000908152604090205481565b610298610469366004613730565b612347565b61023861047c366004613730565b612452565b61029861048f366004613730565b6124c0565b6101bc7f000000000000000000000000000000000000000000000000000000000000000081565b6102986104c936600461387b565b612629565b6102986104dc366004613730565b6127d4565b600b81815481106104f157600080fd5b6000918252602090912001546001600160a01b0316905081565b60408051600280825260608201835260009283929190602083019080368337019050509050600660149054906101000a900463ffffffff1681600081518110610556576105566138c1565b602002602001019063ffffffff16908163ffffffff1681525050600081600181518110610585576105856138c1565b63ffffffff9092166020928302919091019091015260065460405163883bdbfd60e01b81526000916001600160a01b03169063883bdbfd906105cb9085906004016138d7565b600060405180830381865afa1580156105e8573d6000803e3d6000fd5b505050506040513d6000823e601f3d908101601f1916820160405261061091908101906139e8565b509050600081600081518110610628576106286138c1565b602002602001015182600181518110610643576106436138c1565b60200260200101516106559190613ac9565b600654909150600160a01b900463ffffffff1660030b60006106778284613b0c565b905060008360060b12801561069757506106918284613b4a565b60060b15155b156106aa57806106a681613b6c565b9150505b60006106b5826129c9565b9050600160601b7f00000000000000000000000000000000000000000000000000000000000000006106f16001600160a01b0384168084612ce2565b6106fb9190613b8f565b6107059190613ba6565b600654909750600160c01b900460ff16610752578661074560027f0000000000000000000000000000000000000000000000000000000000000000613c9e565b61074f9190613ba6565b96505b50505050505090565b7f00000000000000000000000000000000000000000000000000000000000000006001600160a01b03166312d43a516040518163ffffffff1660e01b8152600401602060405180830381865afa1580156107b9573d6000803e3d6000fd5b505050506040513d601f19601f820116820180604052508101906107dd9190613cad565b6001600160a01b0316336001600160a01b0316146108165760405162461bcd60e51b815260040161080d90613cca565b60405180910390fd5b6001600160a01b03811661083c5760405162461bcd60e51b815260040161080d90613cec565b600780546001600160a01b0319166001600160a01b0383161790556040517f477e87af277e7755f85267ef7c6b77cd28610c2c8c2923acdf55fa5b63f18b779061088790839061371c565b60405180910390a150565b600c81600281106108a257600080fd5b0154905081565b60008281526005602052604090205482906001600160a01b031633146109225760405162461bcd60e51b815260206004820152602860248201527f536f75726365206d75737420626520746865206f7261636c65206f6620746865604482015267081c995c5d595cdd60c21b606482015260840161080d565b60008181526005602052604080822080546001600160a01b03191690555182917f7cc135e0cebb02c3480ae5d74d377283180a2601f8f644edf7987b009316c63a91a26000838152600f60209081526040808320805490849055808452600e8352818420825160a081018452815461ffff811682526201000081046001600160701b0316958201959095529194939192909190830190600160801b900460ff1660038111156109d3576109d3613804565b60038111156109e4576109e4613804565b8152905460ff600160881b8204811615156020840152600160901b909104161515604091820152600754825191516307aa801760e21b815261ffff909216600483015291925060009182916001600160a01b0390911690631eaa005c90602401608060405180830381865afa158015610a61573d6000803e3d6000fd5b505050506040513d601f19601f82011682018060405250810190610a859190613d0d565b90506000610a9282612d95565b905083606001511561136357836080015115610fe757604080516080810182526000808252602082018190528183018190526060820152905163635e061d60e11b81526004810189905273A54A7F9e0F1D643B47296eDF75354792AA7AAc839063c6bc0c3a90602401608060405180830381865af4158015610b18573d6000803e3d6000fd5b505050506040513d601f19601f82011682018060405250810190610b3c9190613daa565b6001600160401b03908116606086015290811660408501529081166020840181905291168252158015610b7a575060408101516001600160401b0316155b80610bdd575080600001516001600160401b031681602001516001600160401b031610158015610bc4575080600001516001600160401b031681604001516001600160401b031611155b8015610bdd5750600081604001516001600160401b0316115b610c1a5760405162461bcd60e51b815260206004820152600e60248201526d494e56414c49445f43414e444c4560901b604482015260640161080d565b610c3681602001516001600160401b0316838560600151612f2e565b8015610c595750610c5981604001516001600160401b0316838560600151612f2e565b15610fe157600086815260116020908152604080832080546001818101835582865294849020865191018054948701519387015160608801516001600160401b03908116600160c01b026001600160c01b03928216600160801b02929092166001600160801b03968216600160401b026001600160801b03199098169190941617959095179390931617929092179055600a548154929650909103610fdf57610d006136b4565b878152815460408051602080840282018101909252828152610d9692909185919060009084015b82821015610d8d57600084815260209081902060408051608081018252918501546001600160401b038082168452600160401b8204811684860152600160801b8204811692840192909252600160c01b9004166060820152825260019092019101610d27565b50505050612f94565b60a084015260808301526060820152600754875160405163a1d54e9b60e01b815261ffff90911660048201526001600160a01b039091169063a1d54e9b90602401602060405180830381865afa158015610df4573d6000803e3d6000fd5b505050506040513d601f19601f82011682018060405250810190610e189190613dfe565b81604001818152505060007f00000000000000000000000000000000000000000000000000000000000000006001600160a01b031662b127836040518163ffffffff1660e01b8152600401602060405180830381865afa158015610e80573d6000803e3d6000fd5b505050506040513d601f19601f82011682018060405250810190610ea49190613cad565b9050600288604001516003811115610ebe57610ebe613804565b03610f265760405163168fdc8160e31b81526001600160a01b0382169063b47ee40890610eef908590600401613e51565b600060405180830381600087803b158015610f0957600080fd5b505af1158015610f1d573d6000803e3d6000fd5b50505050610f85565b6040516323f7197b60e01b81526001600160a01b038216906323f7197b90610f52908590600401613e51565b600060405180830381600087803b158015610f6c57600080fd5b505af1158015610f80573d6000803e3d6000fd5b505050505b600080516020614018833981519152828960400151604051610fa8929190613e5f565b60405180910390a16000898152600e60209081526040808320805460ff60881b1916905560119091528120610fdc916136ea565b50505b505b50611363565b60405163635e061d60e11b81526004810188905260009073A54A7F9e0F1D643B47296eDF75354792AA7AAc839063c6bc0c3a90602401608060405180830381865af415801561103a573d6000803e3d6000fd5b505050506040513d601f19601f8201168201806040525081019061105e9190613daa565b505050905061107b816001600160401b0316838560600151612f2e565b156113615760008681526010602090815260408220805460018181018355828552929093206001600160401b038516930192909255600a548254919650900361135f576110c66136b4565b87815281546040805160208084028201810190925282815261112092909185919083018282801561111657602002820191906000526020600020905b815481526020019060010190808311611102575b5050505050613315565b6020820152600754875160405163a1d54e9b60e01b815261ffff90911660048201526001600160a01b039091169063a1d54e9b90602401602060405180830381865afa158015611174573d6000803e3d6000fd5b505050506040513d601f19601f820116820180604052508101906111989190613dfe565b81604001818152505060007f00000000000000000000000000000000000000000000000000000000000000006001600160a01b031662b127836040518163ffffffff1660e01b8152600401602060405180830381865afa158015611200573d6000803e3d6000fd5b505050506040513d601f19601f820116820180604052508101906112249190613cad565b905060008860400151600381111561123e5761123e613804565b036112a6576040516361ba6c3d60e01b81526001600160a01b038216906361ba6c3d9061126f908590600401613e51565b600060405180830381600087803b15801561128957600080fd5b505af115801561129d573d6000803e3d6000fd5b50505050611305565b604051637d490caf60e01b81526001600160a01b03821690637d490caf906112d2908590600401613e51565b600060405180830381600087803b1580156112ec57600080fd5b505af1158015611300573d6000803e3d6000fd5b505050505b600080516020614018833981519152828960400151604051611328929190613e5f565b60405180910390a16000898152600e60209081526040808320805460ff60881b191690556010909152812061135c916136ea565b50505b505b505b8351602080860151608080880151604080518e81529485018d90528481018790526001600160701b03909316606085015215159083015285151560a08301525161ffff90921691339188917fdc6ff5906123aad281d8e734bb64101cea661d614a568b9bca20e7ac2ae7f3549181900360c00190a45050505050505050565b601160205281600052604060002081815481106113fe57600080fd5b6000918252602090912001546001600160401b038082169350600160401b820481169250600160801b8204811691600160c01b90041684565b60007f00000000000000000000000000000000000000000000000000000000000000006001600160a01b031663ec44acf26040518163ffffffff1660e01b8152600401602060405180830381865afa158015611497573d6000803e3d6000fd5b505050506040513d601f19601f820116820180604052508101906114bb9190613cad565b6001600160a01b0316336001600160a01b03161461150a5760405162461bcd60e51b815260206004820152600c60248201526b54524144494e475f4f4e4c5960a01b604482015260640161080d565b6009805490600061151a83613e7a565b90915550506040805160a08101825261ffff871681526000602082015290810185600381111561154c5761154c613804565b81526001602080830191909152600060409283018190526009548152600e825282902083518154928501516001600160701b031662010000026001600160801b031990931661ffff9091161791909117808255918301519091829060ff60801b1916600160801b8360038111156115c5576115c5613804565b0217905550606082015181546080909301511515600160901b0260ff60901b19911515600160881b029190911661ffff60881b199093169290921791909117905550600954949350505050565b7f00000000000000000000000000000000000000000000000000000000000000006001600160a01b03166312d43a516040518163ffffffff1660e01b8152600401602060405180830381865afa158015611670573d6000803e3d6000fd5b505050506040513d601f19601f820116820180604052508101906116949190613cad565b6001600160a01b0316336001600160a01b0316146116c45760405162461bcd60e51b815260040161080d90613cca565b60007f00000000000000000000000000000000000000000000000000000000000000006001600160a01b031663fece4eac6040518163ffffffff1660e01b8152600401602060405180830381865afa158015611724573d6000803e3d6000fd5b505050506040513d601f19601f820116820180604052508101906117489190613cad565b9050806001600160a01b031663a9059cbb7f00000000000000000000000000000000000000000000000000000000000000006001600160a01b03166312d43a516040518163ffffffff1660e01b8152600401602060405180830381865afa1580156117b7573d6000803e3d6000fd5b505050506040513d601f19601f820116820180604052508101906117db9190613cad565b6040516370a0823160e01b81526001600160a01b038516906370a082319061180790309060040161371c565b602060405180830381865afa158015611824573d6000803e3d6000fd5b505050506040513d601f19601f820116820180604052508101906118489190613dfe565b6040516001600160e01b031960e085901b1681526001600160a01b03909216600483015260248201526044016020604051808303816000875af1158015611893573d6000803e3d6000fd5b505050506040513d601f19601f820116820180604052508101906118b79190613e93565b5050565b7f00000000000000000000000000000000000000000000000000000000000000006001600160a01b03166312d43a516040518163ffffffff1660e01b8152600401602060405180830381865afa158015611919573d6000803e3d6000fd5b505050506040513d601f19601f8201168201806040525081019061193d9190613cad565b6001600160a01b0316336001600160a01b03161461196d5760405162461bcd60e51b815260040161080d90613cca565b8061198a5760405162461bcd60e51b815260040161080d90613cec565b600c8190556040805160008152602081018390527f764c19c693af0da42ec6c6bed68a2dd1a2fa93d24785fcfce58ffa29ae3136069101610887565b601060205281600052604060002081815481106119e257600080fd5b90600052602060002001600091509150505481565b7f00000000000000000000000000000000000000000000000000000000000000006001600160a01b03166312d43a516040518163ffffffff1660e01b8152600401602060405180830381865afa158015611a55573d6000803e3d6000fd5b505050506040513d601f19601f82011682018060405250810190611a799190613cad565b6001600160a01b0316336001600160a01b031614611aa95760405162461bcd60e51b815260040161080d90613cca565b6001600160a01b038116611acf5760405162461bcd60e51b815260040161080d90613cec565b600b54601411611b145760405162461bcd60e51b815260206004820152601060248201526f4d41585f4f5241434c455f4e4f44455360801b604482015260640161080d565b60005b600b54811015611ba357816001600160a01b0316600b8281548110611b3e57611b3e6138c1565b6000918252602090912001546001600160a01b031603611b915760405162461bcd60e51b815260206004820152600e60248201526d1053149150511657d31254d5115160921b604482015260640161080d565b80611b9b81613e7a565b915050611b17565b50600b80546001808201835560008390527f0175b7a638427703f0dbe7bb9bbf987a2551717b34e79f33b5b1008d1fa01db990910180546001600160a01b0319166001600160a01b03851617905590547fadfedad3d82b3775bf2dbea70a01327d1f26c0b868eb8ce0963a6e9af1003e8591611c1e91613eb5565b604080519182526001600160a01b038416602083015201610887565b7f00000000000000000000000000000000000000000000000000000000000000006001600160a01b03166312d43a516040518163ffffffff1660e01b8152600401602060405180830381865afa158015611c98573d6000803e3d6000fd5b505050506040513d601f19601f82011682018060405250810190611cbc9190613cad565b6001600160a01b0316336001600160a01b031614611cec5760405162461bcd60e51b815260040161080d90613cca565b611cf5816133d3565b50565b6000828152600e60209081526040808320815160a081018352815461ffff811682526201000081046001600160701b031694820194909452929091830190600160801b900460ff166003811115611d5157611d51613804565b6003811115611d6257611d62613804565b8152905460ff600160881b8204811615156020840152600160901b90910416151560409091015290506001611d956136b4565b84815260208101849052600754835160405163a1d54e9b60e01b815261ffff90911660048201526001600160a01b039091169063a1d54e9b90602401602060405180830381865afa158015611dee573d6000803e3d6000fd5b505050506040513d601f19601f82011682018060405250810190611e129190613dfe565b81604001818152505060007f00000000000000000000000000000000000000000000000000000000000000006001600160a01b031662b127836040518163ffffffff1660e01b8152600401602060405180830381865afa158015611e7a573d6000803e3d6000fd5b505050506040513d601f19601f82011682018060405250810190611e9e9190613cad565b9050600084604001516003811115611eb857611eb8613804565b03611f20576040516361ba6c3d60e01b81526001600160a01b038216906361ba6c3d90611ee9908590600401613e51565b600060405180830381600087803b158015611f0357600080fd5b505af1158015611f17573d6000803e3d6000fd5b50505050611f7f565b604051637d490caf60e01b81526001600160a01b03821690637d490caf90611f4c908590600401613e51565b600060405180830381600087803b158015611f6657600080fd5b505af1158015611f7a573d6000803e3d6000fd5b505050505b600080516020614018833981519152828560400151604051611fa2929190613e5f565b60405180910390a183516020808601516080808801516040805161060f60f31b81526000958101869052808201959095526001600160701b03909316606085015215159083015285151560a08301525161ffff90921691339189917fdc6ff5906123aad281d8e734bb64101cea661d614a568b9bca20e7ac2ae7f3549181900360c00190a4505050505050565b600080600860009054906101000a90046001600160a01b03166001600160a01b031663feaf968c6040518163ffffffff1660e01b815260040160a060405180830381865afa158015612085573d6000803e3d6000fd5b505050506040513d601f19601f820116820180604052508101906120a99190613ee2565b505060075460405163f7acbabd60e01b815260048101899052929450606493506402540be4009285925087916001600160a01b03169063f7acbabd90602401602060405180830381865afa158015612105573d6000803e3d6000fd5b505050506040513d601f19601f820116820180604052508101906121299190613dfe565b6121339190613b8f565b612141906305f5e100613b8f565b61214b9190613ba6565b6121559190613ba6565b61215f9190613ba6565b9150505b92915050565b7f00000000000000000000000000000000000000000000000000000000000000006001600160a01b03166312d43a516040518163ffffffff1660e01b8152600401602060405180830381865afa1580156121c7573d6000803e3d6000fd5b505050506040513d601f19601f820116820180604052508101906121eb9190613cad565b6001600160a01b0316336001600160a01b03161461221b5760405162461bcd60e51b815260040161080d90613cca565b6001600160a01b0381166122415760405162461bcd60e51b815260040161080d90613cec565b600880546001600160a01b0319166001600160a01b0383161790556040517f2504020720d4f3f4c5a7010cde1f1e76e9a22857f308ef695d666ed1237bf8a49061088790839061371c565b7f00000000000000000000000000000000000000000000000000000000000000006001600160a01b03166312d43a516040518163ffffffff1660e01b8152600401602060405180830381865afa1580156122ea573d6000803e3d6000fd5b505050506040513d601f19601f8201168201806040525081019061230e9190613cad565b6001600160a01b0316336001600160a01b03161461233e5760405162461bcd60e51b815260040161080d90613cca565b611cf581613463565b7f00000000000000000000000000000000000000000000000000000000000000006001600160a01b03166312d43a516040518163ffffffff1660e01b8152600401602060405180830381865afa1580156123a5573d6000803e3d6000fd5b505050506040513d601f19601f820116820180604052508101906123c99190613cad565b6001600160a01b0316336001600160a01b0316146123f95760405162461bcd60e51b815260040161080d90613cca565b806124165760405162461bcd60e51b815260040161080d90613cec565b600d8190556040805160018152602081018390527f764c19c693af0da42ec6c6bed68a2dd1a2fa93d24785fcfce58ffa29ae3136069101610887565b600754604051638251135b60e01b8152600481018390526000916001600160a01b031690638251135b90602401602060405180830381865afa15801561249c573d6000803e3d6000fd5b505050506040513d601f19601f820116820180604052508101906121639190613dfe565b7f00000000000000000000000000000000000000000000000000000000000000006001600160a01b03166312d43a516040518163ffffffff1660e01b8152600401602060405180830381865afa15801561251e573d6000803e3d6000fd5b505050506040513d601f19601f820116820180604052508101906125429190613cad565b6001600160a01b0316336001600160a01b0316146125725760405162461bcd60e51b815260040161080d90613cca565b60038110156125b15760405162461bcd60e51b815260206004820152600b60248201526a4d494e5f414e535745525360a81b604482015260640161080d565b6125bc600282613f32565b6001146125f45760405162461bcd60e51b815260040161080d9060208082526004908201526322ab22a760e11b604082015260600190565b600a8190556040518181527f230365d79885046a48c9158f0e4840ab95929bbebf5de4be23f7ce5f91a97c6590602001610887565b7f00000000000000000000000000000000000000000000000000000000000000006001600160a01b03166312d43a516040518163ffffffff1660e01b8152600401602060405180830381865afa158015612687573d6000803e3d6000fd5b505050506040513d601f19601f820116820180604052508101906126ab9190613cad565b6001600160a01b0316336001600160a01b0316146126db5760405162461bcd60e51b815260040161080d90613cca565b600b5482106126fc5760405162461bcd60e51b815260040161080d90613f46565b6001600160a01b0381166127225760405162461bcd60e51b815260040161080d90613cec565b7f945eb5535c35fb8b656c5c6b7d8bb9d9deba3a44d202bd2b53d58aac4f43db0482600b8481548110612757576127576138c1565b60009182526020918290200154604080519384526001600160a01b039182169284019290925284169082015260600160405180910390a180600b83815481106127a2576127a26138c1565b9060005260206000200160006101000a8154816001600160a01b0302191690836001600160a01b031602179055505050565b7f00000000000000000000000000000000000000000000000000000000000000006001600160a01b03166312d43a516040518163ffffffff1660e01b8152600401602060405180830381865afa158015612832573d6000803e3d6000fd5b505050506040513d601f19601f820116820180604052508101906128569190613cad565b6001600160a01b0316336001600160a01b0316146128865760405162461bcd60e51b815260040161080d90613cca565b600b5481106128a75760405162461bcd60e51b815260040161080d90613f46565b7f03082ced7b8d3c831a021af877c172ae1e0257c3522a135e4d7161343846115681600b83815481106128dc576128dc6138c1565b60009182526020909120015460405161291192916001600160a01b0316909182526001600160a01b0316602082015260400190565b60405180910390a1600b805461292990600190613eb5565b81548110612939576129396138c1565b600091825260209091200154600b80546001600160a01b039092169183908110612965576129656138c1565b9060005260206000200160006101000a8154816001600160a01b0302191690836001600160a01b03160217905550600b8054806129a4576129a4613f6b565b600082815260209020810160001990810180546001600160a01b031916905501905550565b60008060008360020b126129e0578260020b6129e8565b8260020b6000035b9050620d89e8811115612a0e576040516315e4079d60e11b815260040160405180910390fd5b600081600116600003612a2557600160801b612a37565b6ffffcb933bd6fad37aa2d162d1a5940015b6001600160881b031690506002821615612a61576ffff97272373d413259a46990580e213a0260801c5b6004821615612a80576ffff2e50f5f656932ef12357cf3c7fdcc0260801c5b6008821615612a9f576fffe5caca7e10e4e61c3624eaa0941cd00260801c5b6010821615612abe576fffcb9843d60f6159c9db58835c9266440260801c5b6020821615612add576fff973b41fa98c081472e6896dfb254c00260801c5b6040821615612afc576fff2ea16466c96a3843ec78b326b528610260801c5b6080821615612b1b576ffe5dee046a99a2a811c461f1969c30530260801c5b610100821615612b3b576ffcbe86c7900a88aedcffc83b479aa3a40260801c5b610200821615612b5b576ff987a7253ac413176f2b074cf7815e540260801c5b610400821615612b7b576ff3392b0822b70005940c7a398e4b70f30260801c5b610800821615612b9b576fe7159475a2c29b7443b29c7fa6e889d90260801c5b611000821615612bbb576fd097f3bdfd2022b8845ad8f792aa58250260801c5b612000821615612bdb576fa9f746462d870fdf8a65dc1f90e061e50260801c5b614000821615612bfb576f70d869a156d2a1b890bb3df62baf32f70260801c5b618000821615612c1b576f31be135f97d08fd981231505542fcfa60260801c5b62010000821615612c3c576f09aa508b5b7a84e1c677de54f3e99bc90260801c5b62020000821615612c5c576e5d6af8dedb81196699c329225ee6040260801c5b62040000821615612c7b576d2216e584f5fa1ea926041bedfe980260801c5b62080000821615612c98576b048a170391f7dc42444e8fa20260801c5b60008460020b1315612cb9578060001981612cb557612cb5613af6565b0490505b640100000000810615612ccd576001612cd0565b60005b60ff16602082901c0192505050919050565b6000808060001985870985870292508281108382030391505080600003612d1b5760008411612d1057600080fd5b508290049050612d8e565b808411612d2757600080fd5b6000848688096000868103871696879004966002600389028118808a02820302808a02820302808a02820302808a02820302808a02820302808a02909103029181900381900460010186841190950394909402919094039290920491909117919091029150505b9392505050565b80516000906001600160a01b0316612daf57506000919050565b60008083600001516001600160a01b031663feaf968c6040518163ffffffff1660e01b815260040160a060405180830381865afa158015612df4573d6000803e3d6000fd5b505050506040513d601f19601f82011682018060405250810190612e189190613ee2565b5091935060009250612e28915050565b84604001516002811115612e3e57612e3e613804565b03612e68576305f5e100612e576402540be40083613f81565b612e619190613fb1565b9150612f27565b600184604001516002811115612e8057612e80613804565b03612e995780612e576402540be4006305f5e100613f81565b600084602001516001600160a01b031663feaf968c6040518163ffffffff1660e01b815260040160a060405180830381865afa158015612edd573d6000803e3d6000fd5b505050506040513d601f19601f82011682018060405250810190612f019190613ee2565b505050915050806402540be40083612f199190613f81565b612f239190613fb1565b9250505b5092915050565b6000831580612f3b575082155b80612f8c575081836402540be40085871015612f6057612f5b8787613eb5565b612f6a565b612f6a8688613eb5565b612f749190613b8f565b612f7f906064613b8f565b612f899190613ba6565b11155b949350505050565b600080600080845190506000816001600160401b03811115612fb857612fb86138ab565b604051908082528060200260200182016040528015612fe1578160200160208202803683370190505b5090506000826001600160401b03811115612ffe57612ffe6138ab565b604051908082528060200260200182016040528015613027578160200160208202803683370190505b5090506000836001600160401b03811115613044576130446138ab565b60405190808252806020026020018201604052801561306d578160200160208202803683370190505b50905060005b848110156131515788818151811061308d5761308d6138c1565b6020026020010151600001516001600160401b03168482815181106130b4576130b46138c1565b6020026020010181815250508881815181106130d2576130d26138c1565b6020026020010151602001516001600160401b03168382815181106130f9576130f96138c1565b602002602001018181525050888181518110613117576131176138c1565b6020026020010151604001516001600160401b031682828151811061313e5761313e6138c1565b6020908102919091010152600101613073565b5061315e8360008661357e565b61316a8260008661357e565b6131768160008661357e565b6000613183600286613f32565b1590506000613193600287613ba6565b9050816131b9578481815181106131ac576131ac6138c1565b602002602001015161320f565b60028582815181106131cd576131cd6138c1565b6020026020010151866001846131e39190613eb5565b815181106131f3576131f36138c1565b60200260200101516132059190613fdf565b61320f9190613ba6565b98508161323557838181518110613228576132286138c1565b602002602001015161328b565b6002848281518110613249576132496138c1565b60200260200101518560018461325f9190613eb5565b8151811061326f5761326f6138c1565b60200260200101516132819190613fdf565b61328b9190613ba6565b9750816132b1578281815181106132a4576132a46138c1565b6020026020010151613307565b60028382815181106132c5576132c56138c1565b6020026020010151846001846132db9190613eb5565b815181106132eb576132eb6138c1565b60200260200101516132fd9190613fdf565b6133079190613ba6565b989a97995050505050505050565b6000613324826000845161357e565b600282516133329190613f32565b156133635781600283516133469190613ba6565b81518110613356576133566138c1565b6020026020010151612163565b600282600284516133749190613ba6565b81518110613384576133846138c1565b60200260200101518360016002865161339d9190613ba6565b6133a79190613eb5565b815181106133b7576133b76138c1565b60200260200101516133c99190613fdf565b6121639190613ba6565b61070863ffffffff8216108015906133f3575061384063ffffffff821611155b61340f5760405162461bcd60e51b815260040161080d90613ff2565b6006805463ffffffff60a01b1916600160a01b63ffffffff8416908102919091179091556040519081527fc99f383ecd620c333255bd2aef929eedd6808999bac9bfc5f53e10d876abf1ce90602001610887565b6001600160a01b0381166134895760405162461bcd60e51b815260040161080d90613ff2565b600680546001600160a01b0319166001600160a01b0383811691821790925560408051630dfe168160e01b815290517f000000000000000000000000000000000000000000000000000000000000000090931692630dfe1681916004808201926020929091908290030181865afa158015613508573d6000803e3d6000fd5b505050506040513d601f19601f8201168201806040525081019061352c9190613cad565b6001600160a01b031614600660186101000a81548160ff0219169083151502179055507fb9c36e5afdbe55e259bdc128e25c13a15f33271cc71599ce0df510b21c3e8da981604051610887919061371c565b80821061358a57505050565b600082905060008482815181106135a3576135a36138c1565b6020026020010151905060008460016135bc9190613fdf565b90505b8381101561360e57818682815181106135da576135da6138c1565b602002602001015110156135fe576135fe86826135f686613e7a565b955085613641565b61360781613e7a565b90506135bf565b5061361a858584613641565b61362585858461357e565b61363a85613634846001613fdf565b8561357e565b5050505050565b828181518110613653576136536138c1565b602002602001015183838151811061366d5761366d6138c1565b6020026020010151848481518110613687576136876138c1565b602002602001018584815181106136a0576136a06138c1565b602090810291909101019190915252505050565b6040518060c001604052806000815260200160008152602001600081526020016000815260200160008152602001600081525090565b5080546000825590600052602060002090810190611cf591905b808211156137185760008155600101613704565b5090565b6001600160a01b0391909116815260200190565b60006020828403121561374257600080fd5b5035919050565b6001600160a01b0381168114611cf557600080fd5b60006020828403121561377057600080fd5b8135612d8e81613749565b6000806040838503121561378e57600080fd5b50508035926020909101359150565b600080600080608085870312156137b357600080fd5b843593506020850135600481106137c957600080fd5b93969395505050506040820135916060013590565b6000602082840312156137f057600080fd5b813563ffffffff81168114612d8e57600080fd5b634e487b7160e01b600052602160045260246000fd5b6004811061383857634e487b7160e01b600052602160045260246000fd5b9052565b61ffff861681526001600160701b038516602082015260a08101613863604083018661381a565b92151560608201529015156080909101529392505050565b6000806040838503121561388e57600080fd5b8235915060208301356138a081613749565b809150509250929050565b634e487b7160e01b600052604160045260246000fd5b634e487b7160e01b600052603260045260246000fd5b6020808252825182820181905260009190848201906040850190845b8181101561391557835163ffffffff16835292840192918401916001016138f3565b50909695505050505050565b604051601f8201601f191681016001600160401b0381118282101715613949576139496138ab565b604052919050565b60006001600160401b0382111561396a5761396a6138ab565b5060051b60200190565b600082601f83011261398557600080fd5b8151602061399a61399583613951565b613921565b82815260059290921b840181019181810190868411156139b957600080fd5b8286015b848110156139dd5780516139d081613749565b83529183019183016139bd565b509695505050505050565b600080604083850312156139fb57600080fd5b82516001600160401b0380821115613a1257600080fd5b818501915085601f830112613a2657600080fd5b81516020613a3661399583613951565b82815260059290921b84018101918181019089841115613a5557600080fd5b948201945b83861015613a835785518060060b8114613a745760008081fd5b82529482019490820190613a5a565b91880151919650909350505080821115613a9c57600080fd5b50613aa985828601613974565b9150509250929050565b634e487b7160e01b600052601160045260246000fd5b600682810b9082900b03667fffffffffffff198112667fffffffffffff8213171561216357612163613ab3565b634e487b7160e01b600052601260045260246000fd5b60008160060b8360060b80613b2357613b23613af6565b667fffffffffffff19821460001982141615613b4157613b41613ab3565b90059392505050565b60008260060b80613b5d57613b5d613af6565b808360060b0791505092915050565b60008160020b627fffff198103613b8557613b85613ab3565b6000190192915050565b808202811582820484141761216357612163613ab3565b600082613bb557613bb5613af6565b500490565b600181815b80851115613bf5578160001904821115613bdb57613bdb613ab3565b80851615613be857918102915b93841c9390800290613bbf565b509250929050565b600082613c0c57506001612163565b81613c1957506000612163565b8160018114613c2f5760028114613c3957613c55565b6001915050612163565b60ff841115613c4a57613c4a613ab3565b50506001821b612163565b5060208310610133831016604e8410600b8410161715613c78575081810a612163565b613c828383613bba565b8060001904821115613c9657613c96613ab3565b029392505050565b6000612d8e60ff841683613bfd565b600060208284031215613cbf57600080fd5b8151612d8e81613749565b602080825260089082015267474f565f4f4e4c5960c01b604082015260600190565b602080825260079082015266056414c55455f360cc1b604082015260600190565b600060808284031215613d1f57600080fd5b604051608081018181106001600160401b0382111715613d4157613d416138ab565b6040528251613d4f81613749565b81526020830151613d5f81613749565b6020820152604083015160038110613d7657600080fd5b60408201526060928301519281019290925250919050565b80516001600160401b0381168114613da557600080fd5b919050565b60008060008060808587031215613dc057600080fd5b613dc985613d8e565b9350613dd760208601613d8e565b9250613de560408601613d8e565b9150613df360608601613d8e565b905092959194509250565b600060208284031215613e1057600080fd5b5051919050565b805182526020810151602083015260408101516040830152606081015160608301526080810151608083015260a081015160a08301525050565b60c081016121638284613e17565b60e08101613e6d8285613e17565b612d8e60c083018461381a565b600060018201613e8c57613e8c613ab3565b5060010190565b600060208284031215613ea557600080fd5b81518015158114612d8e57600080fd5b8181038181111561216357612163613ab3565b805169ffffffffffffffffffff81168114613da557600080fd5b600080600080600060a08688031215613efa57600080fd5b613f0386613ec8565b9450602086015193506040860151925060608601519150613f2660808701613ec8565b90509295509295909350565b600082613f4157613f41613af6565b500690565b6020808252600b908201526a0aea49e9c8ebe929c888ab60ab1b604082015260600190565b634e487b7160e01b600052603160045260246000fd5b80820260008212600160ff1b84141615613f9d57613f9d613ab3565b818105831482151761216357612163613ab3565b600082613fc057613fc0613af6565b600160ff1b821460001984141615613fda57613fda613ab3565b500590565b8082018082111561216357612163613ab3565b6020808252600b908201526a57524f4e475f56414c554560a81b60408201526060019056fece3ae2fe07e497ba552d6485a40eed46cfb3320f001027891efeb1128dba0350a264697066735822122047dd1f645b54da4fa2b3f6243a311b22d2f8f9be9f974be01362a68806e6d77c64736f6c63430008140033",
  "deployedBytecode": "0x608060405234801561001057600080fd5b50600436106101a45760003560e01c806393d7fe2c116100ef578063da4ae8ef11610092578063da4ae8ef14610428578063dcdfb4311461043b578063e0bb91c21461045b578063e21e5fe01461046e578063f5ed447c14610481578063fc0c546a14610494578063fd288280146104bb578063ffd740df146104ce57600080fd5b806393d7fe2c146103475780639d95f1cc1461035a578063a500775e1461036d578063a85c38ef14610380578063ac314637146103e6578063b9e0336f146103f9578063bea167581461040c578063d31273ca1461041557600080fd5b806340e9eda21161015757806340e9eda2146102855780634162cc881461029a5780634357855e146102ad5780634c37a9d6146102c05780636938c05d146103065780636c83b3d7146103195780636f37d2631461032c57806385f276b81461033457600080fd5b8062912b37146101a957806303f39a16146101d257806316fff074146101f65780631c53c2801461021d578063290702e51461023057806335b03c17146102465780633c1d5df014610259575b600080fd5b6008546101bc906001600160a01b031681565b6040516101c9919061371c565b60405180910390f35b6006546101e690600160c01b900460ff1681565b60405190151581526020016101c9565b6101bc7f000000000000000000000000000000000000000000000000000000000000000081565b6101bc61022b366004613730565b6104e1565b61023861050b565b6040519081526020016101c9565b6007546101bc906001600160a01b031681565b60065461027090600160a01b900463ffffffff1681565b60405163ffffffff90911681526020016101c9565b61029861029336600461375e565b61075b565b005b6102386102a8366004613730565b610892565b6102986102bb36600461377b565b6108a9565b6102d36102ce36600461377b565b6113e2565b604080516001600160401b03958616815293851660208501529184169183019190915290911660608201526080016101c9565b61023861031436600461379d565b611437565b6006546101bc906001600160a01b031681565b610298611612565b610298610342366004613730565b6118bb565b61023861035536600461377b565b6119c6565b61029861036836600461375e565b6119f7565b61029861037b3660046137de565b611c3a565b6103d561038e366004613730565b600e6020526000908152604090205461ffff8116906001600160701b03620100008204169060ff600160801b8204811691600160881b8104821691600160901b9091041685565b6040516101c995949392919061383c565b6102986103f436600461377b565b611cf8565b61023861040736600461377b565b61202f565b610238600a5481565b61029861042336600461375e565b612169565b61029861043636600461375e565b61228c565b610238610449366004613730565b600f6020526000908152604090205481565b610298610469366004613730565b612347565b61023861047c366004613730565b612452565b61029861048f366004613730565b6124c0565b6101bc7f000000000000000000000000000000000000000000000000000000000000000081565b6102986104c936600461387b565b612629565b6102986104dc366004613730565b6127d4565b600b81815481106104f157600080fd5b6000918252602090912001546001600160a01b0316905081565b60408051600280825260608201835260009283929190602083019080368337019050509050600660149054906101000a900463ffffffff1681600081518110610556576105566138c1565b602002602001019063ffffffff16908163ffffffff1681525050600081600181518110610585576105856138c1565b63ffffffff9092166020928302919091019091015260065460405163883bdbfd60e01b81526000916001600160a01b03169063883bdbfd906105cb9085906004016138d7565b600060405180830381865afa1580156105e8573d6000803e3d6000fd5b505050506040513d6000823e601f3d908101601f1916820160405261061091908101906139e8565b509050600081600081518110610628576106286138c1565b602002602001015182600181518110610643576106436138c1565b60200260200101516106559190613ac9565b600654909150600160a01b900463ffffffff1660030b60006106778284613b0c565b905060008360060b12801561069757506106918284613b4a565b60060b15155b156106aa57806106a681613b6c565b9150505b60006106b5826129c9565b9050600160601b7f00000000000000000000000000000000000000000000000000000000000000006106f16001600160a01b0384168084612ce2565b6106fb9190613b8f565b6107059190613ba6565b600654909750600160c01b900460ff16610752578661074560027f0000000000000000000000000000000000000000000000000000000000000000613c9e565b61074f9190613ba6565b96505b50505050505090565b7f00000000000000000000000000000000000000000000000000000000000000006001600160a01b03166312d43a516040518163ffffffff1660e01b8152600401602060405180830381865afa1580156107b9573d6000803e3d6000fd5b505050506040513d601f19601f820116820180604052508101906107dd9190613cad565b6001600160a01b0316336001600160a01b0316146108165760405162461bcd60e51b815260040161080d90613cca565b60405180910390fd5b6001600160a01b03811661083c5760405162461bcd60e51b815260040161080d90613cec565b600780546001600160a01b0319166001600160a01b0383161790556040517f477e87af277e7755f85267ef7c6b77cd28610c2c8c2923acdf55fa5b63f18b779061088790839061371c565b60405180910390a150565b600c81600281106108a257600080fd5b0154905081565b60008281526005602052604090205482906001600160a01b031633146109225760405162461bcd60e51b815260206004820152602860248201527f536f75726365206d75737420626520746865206f7261636c65206f6620746865604482015267081c995c5d595cdd60c21b606482015260840161080d565b60008181526005602052604080822080546001600160a01b03191690555182917f7cc135e0cebb02c3480ae5d74d377283180a2601f8f644edf7987b009316c63a91a26000838152600f60209081526040808320805490849055808452600e8352818420825160a081018452815461ffff811682526201000081046001600160701b0316958201959095529194939192909190830190600160801b900460ff1660038111156109d3576109d3613804565b60038111156109e4576109e4613804565b8152905460ff600160881b8204811615156020840152600160901b909104161515604091820152600754825191516307aa801760e21b815261ffff909216600483015291925060009182916001600160a01b0390911690631eaa005c90602401608060405180830381865afa158015610a61573d6000803e3d6000fd5b505050506040513d601f19601f82011682018060405250810190610a859190613d0d565b90506000610a9282612d95565b905083606001511561136357836080015115610fe757604080516080810182526000808252602082018190528183018190526060820152905163635e061d60e11b81526004810189905273__$0a787ca790b72760fa5f2fae68e461a66f$__9063c6bc0c3a90602401608060405180830381865af4158015610b18573d6000803e3d6000fd5b505050506040513d601f19601f82011682018060405250810190610b3c9190613daa565b6001600160401b03908116606086015290811660408501529081166020840181905291168252158015610b7a575060408101516001600160401b0316155b80610bdd575080600001516001600160401b031681602001516001600160401b031610158015610bc4575080600001516001600160401b031681604001516001600160401b031611155b8015610bdd5750600081604001516001600160401b0316115b610c1a5760405162461bcd60e51b815260206004820152600e60248201526d494e56414c49445f43414e444c4560901b604482015260640161080d565b610c3681602001516001600160401b0316838560600151612f2e565b8015610c595750610c5981604001516001600160401b0316838560600151612f2e565b15610fe157600086815260116020908152604080832080546001818101835582865294849020865191018054948701519387015160608801516001600160401b03908116600160c01b026001600160c01b03928216600160801b02929092166001600160801b03968216600160401b026001600160801b03199098169190941617959095179390931617929092179055600a548154929650909103610fdf57610d006136b4565b878152815460408051602080840282018101909252828152610d9692909185919060009084015b82821015610d8d57600084815260209081902060408051608081018252918501546001600160401b038082168452600160401b8204811684860152600160801b8204811692840192909252600160c01b9004166060820152825260019092019101610d27565b50505050612f94565b60a084015260808301526060820152600754875160405163a1d54e9b60e01b815261ffff90911660048201526001600160a01b039091169063a1d54e9b90602401602060405180830381865afa158015610df4573d6000803e3d6000fd5b505050506040513d601f19601f82011682018060405250810190610e189190613dfe565b81604001818152505060007f00000000000000000000000000000000000000000000000000000000000000006001600160a01b031662b127836040518163ffffffff1660e01b8152600401602060405180830381865afa158015610e80573d6000803e3d6000fd5b505050506040513d601f19601f82011682018060405250810190610ea49190613cad565b9050600288604001516003811115610ebe57610ebe613804565b03610f265760405163168fdc8160e31b81526001600160a01b0382169063b47ee40890610eef908590600401613e51565b600060405180830381600087803b158015610f0957600080fd5b505af1158015610f1d573d6000803e3d6000fd5b50505050610f85565b6040516323f7197b60e01b81526001600160a01b038216906323f7197b90610f52908590600401613e51565b600060405180830381600087803b158015610f6c57600080fd5b505af1158015610f80573d6000803e3d6000fd5b505050505b600080516020614018833981519152828960400151604051610fa8929190613e5f565b60405180910390a16000898152600e60209081526040808320805460ff60881b1916905560119091528120610fdc916136ea565b50505b505b50611363565b60405163635e061d60e11b81526004810188905260009073__$0a787ca790b72760fa5f2fae68e461a66f$__9063c6bc0c3a90602401608060405180830381865af415801561103a573d6000803e3d6000fd5b505050506040513d601f19601f8201168201806040525081019061105e9190613daa565b505050905061107b816001600160401b0316838560600151612f2e565b156113615760008681526010602090815260408220805460018181018355828552929093206001600160401b038516930192909255600a548254919650900361135f576110c66136b4565b87815281546040805160208084028201810190925282815261112092909185919083018282801561111657602002820191906000526020600020905b815481526020019060010190808311611102575b5050505050613315565b6020820152600754875160405163a1d54e9b60e01b815261ffff90911660048201526001600160a01b039091169063a1d54e9b90602401602060405180830381865afa158015611174573d6000803e3d6000fd5b505050506040513d601f19601f820116820180604052508101906111989190613dfe565b81604001818152505060007f00000000000000000000000000000000000000000000000000000000000000006001600160a01b031662b127836040518163ffffffff1660e01b8152600401602060405180830381865afa158015611200573d6000803e3d6000fd5b505050506040513d601f19601f820116820180604052508101906112249190613cad565b905060008860400151600381111561123e5761123e613804565b036112a6576040516361ba6c3d60e01b81526001600160a01b038216906361ba6c3d9061126f908590600401613e51565b600060405180830381600087803b15801561128957600080fd5b505af115801561129d573d6000803e3d6000fd5b50505050611305565b604051637d490caf60e01b81526001600160a01b03821690637d490caf906112d2908590600401613e51565b600060405180830381600087803b1580156112ec57600080fd5b505af1158015611300573d6000803e3d6000fd5b505050505b600080516020614018833981519152828960400151604051611328929190613e5f565b60405180910390a16000898152600e60209081526040808320805460ff60881b191690556010909152812061135c916136ea565b50505b505b505b8351602080860151608080880151604080518e81529485018d90528481018790526001600160701b03909316606085015215159083015285151560a08301525161ffff90921691339188917fdc6ff5906123aad281d8e734bb64101cea661d614a568b9bca20e7ac2ae7f3549181900360c00190a45050505050505050565b601160205281600052604060002081815481106113fe57600080fd5b6000918252602090912001546001600160401b038082169350600160401b820481169250600160801b8204811691600160c01b90041684565b60007f00000000000000000000000000000000000000000000000000000000000000006001600160a01b031663ec44acf26040518163ffffffff1660e01b8152600401602060405180830381865afa158015611497573d6000803e3d6000fd5b505050506040513d601f19601f820116820180604052508101906114bb9190613cad565b6001600160a01b0316336001600160a01b03161461150a5760405162461bcd60e51b815260206004820152600c60248201526b54524144494e475f4f4e4c5960a01b604482015260640161080d565b6009805490600061151a83613e7a565b90915550506040805160a08101825261ffff871681526000602082015290810185600381111561154c5761154c613804565b81526001602080830191909152600060409283018190526009548152600e825282902083518154928501516001600160701b031662010000026001600160801b031990931661ffff9091161791909117808255918301519091829060ff60801b1916600160801b8360038111156115c5576115c5613804565b0217905550606082015181546080909301511515600160901b0260ff60901b19911515600160881b029190911661ffff60881b199093169290921791909117905550600954949350505050565b7f00000000000000000000000000000000000000000000000000000000000000006001600160a01b03166312d43a516040518163ffffffff1660e01b8152600401602060405180830381865afa158015611670573d6000803e3d6000fd5b505050506040513d601f19601f820116820180604052508101906116949190613cad565b6001600160a01b0316336001600160a01b0316146116c45760405162461bcd60e51b815260040161080d90613cca565b60007f00000000000000000000000000000000000000000000000000000000000000006001600160a01b031663fece4eac6040518163ffffffff1660e01b8152600401602060405180830381865afa158015611724573d6000803e3d6000fd5b505050506040513d601f19601f820116820180604052508101906117489190613cad565b9050806001600160a01b031663a9059cbb7f00000000000000000000000000000000000000000000000000000000000000006001600160a01b03166312d43a516040518163ffffffff1660e01b8152600401602060405180830381865afa1580156117b7573d6000803e3d6000fd5b505050506040513d601f19601f820116820180604052508101906117db9190613cad565b6040516370a0823160e01b81526001600160a01b038516906370a082319061180790309060040161371c565b602060405180830381865afa158015611824573d6000803e3d6000fd5b505050506040513d601f19601f820116820180604052508101906118489190613dfe565b6040516001600160e01b031960e085901b1681526001600160a01b03909216600483015260248201526044016020604051808303816000875af1158015611893573d6000803e3d6000fd5b505050506040513d601f19601f820116820180604052508101906118b79190613e93565b5050565b7f00000000000000000000000000000000000000000000000000000000000000006001600160a01b03166312d43a516040518163ffffffff1660e01b8152600401602060405180830381865afa158015611919573d6000803e3d6000fd5b505050506040513d601f19601f8201168201806040525081019061193d9190613cad565b6001600160a01b0316336001600160a01b03161461196d5760405162461bcd60e51b815260040161080d90613cca565b8061198a5760405162461bcd60e51b815260040161080d90613cec565b600c8190556040805160008152602081018390527f764c19c693af0da42ec6c6bed68a2dd1a2fa93d24785fcfce58ffa29ae3136069101610887565b601060205281600052604060002081815481106119e257600080fd5b90600052602060002001600091509150505481565b7f00000000000000000000000000000000000000000000000000000000000000006001600160a01b03166312d43a516040518163ffffffff1660e01b8152600401602060405180830381865afa158015611a55573d6000803e3d6000fd5b505050506040513d601f19601f82011682018060405250810190611a799190613cad565b6001600160a01b0316336001600160a01b031614611aa95760405162461bcd60e51b815260040161080d90613cca565b6001600160a01b038116611acf5760405162461bcd60e51b815260040161080d90613cec565b600b54601411611b145760405162461bcd60e51b815260206004820152601060248201526f4d41585f4f5241434c455f4e4f44455360801b604482015260640161080d565b60005b600b54811015611ba357816001600160a01b0316600b8281548110611b3e57611b3e6138c1565b6000918252602090912001546001600160a01b031603611b915760405162461bcd60e51b815260206004820152600e60248201526d1053149150511657d31254d5115160921b604482015260640161080d565b80611b9b81613e7a565b915050611b17565b50600b80546001808201835560008390527f0175b7a638427703f0dbe7bb9bbf987a2551717b34e79f33b5b1008d1fa01db990910180546001600160a01b0319166001600160a01b03851617905590547fadfedad3d82b3775bf2dbea70a01327d1f26c0b868eb8ce0963a6e9af1003e8591611c1e91613eb5565b604080519182526001600160a01b038416602083015201610887565b7f00000000000000000000000000000000000000000000000000000000000000006001600160a01b03166312d43a516040518163ffffffff1660e01b8152600401602060405180830381865afa158015611c98573d6000803e3d6000fd5b505050506040513d601f19601f82011682018060405250810190611cbc9190613cad565b6001600160a01b0316336001600160a01b031614611cec5760405162461bcd60e51b815260040161080d90613cca565b611cf5816133d3565b50565b6000828152600e60209081526040808320815160a081018352815461ffff811682526201000081046001600160701b031694820194909452929091830190600160801b900460ff166003811115611d5157611d51613804565b6003811115611d6257611d62613804565b8152905460ff600160881b8204811615156020840152600160901b90910416151560409091015290506001611d956136b4565b84815260208101849052600754835160405163a1d54e9b60e01b815261ffff90911660048201526001600160a01b039091169063a1d54e9b90602401602060405180830381865afa158015611dee573d6000803e3d6000fd5b505050506040513d601f19601f82011682018060405250810190611e129190613dfe565b81604001818152505060007f00000000000000000000000000000000000000000000000000000000000000006001600160a01b031662b127836040518163ffffffff1660e01b8152600401602060405180830381865afa158015611e7a573d6000803e3d6000fd5b505050506040513d601f19601f82011682018060405250810190611e9e9190613cad565b9050600084604001516003811115611eb857611eb8613804565b03611f20576040516361ba6c3d60e01b81526001600160a01b038216906361ba6c3d90611ee9908590600401613e51565b600060405180830381600087803b158015611f0357600080fd5b505af1158015611f17573d6000803e3d6000fd5b50505050611f7f565b604051637d490caf60e01b81526001600160a01b03821690637d490caf90611f4c908590600401613e51565b600060405180830381600087803b158015611f6657600080fd5b505af1158015611f7a573d6000803e3d6000fd5b505050505b600080516020614018833981519152828560400151604051611fa2929190613e5f565b60405180910390a183516020808601516080808801516040805161060f60f31b81526000958101869052808201959095526001600160701b03909316606085015215159083015285151560a08301525161ffff90921691339189917fdc6ff5906123aad281d8e734bb64101cea661d614a568b9bca20e7ac2ae7f3549181900360c00190a4505050505050565b600080600860009054906101000a90046001600160a01b03166001600160a01b031663feaf968c6040518163ffffffff1660e01b815260040160a060405180830381865afa158015612085573d6000803e3d6000fd5b505050506040513d601f19601f820116820180604052508101906120a99190613ee2565b505060075460405163f7acbabd60e01b815260048101899052929450606493506402540be4009285925087916001600160a01b03169063f7acbabd90602401602060405180830381865afa158015612105573d6000803e3d6000fd5b505050506040513d601f19601f820116820180604052508101906121299190613dfe565b6121339190613b8f565b612141906305f5e100613b8f565b61214b9190613ba6565b6121559190613ba6565b61215f9190613ba6565b9150505b92915050565b7f00000000000000000000000000000000000000000000000000000000000000006001600160a01b03166312d43a516040518163ffffffff1660e01b8152600401602060405180830381865afa1580156121c7573d6000803e3d6000fd5b505050506040513d601f19601f820116820180604052508101906121eb9190613cad565b6001600160a01b0316336001600160a01b03161461221b5760405162461bcd60e51b815260040161080d90613cca565b6001600160a01b0381166122415760405162461bcd60e51b815260040161080d90613cec565b600880546001600160a01b0319166001600160a01b0383161790556040517f2504020720d4f3f4c5a7010cde1f1e76e9a22857f308ef695d666ed1237bf8a49061088790839061371c565b7f00000000000000000000000000000000000000000000000000000000000000006001600160a01b03166312d43a516040518163ffffffff1660e01b8152600401602060405180830381865afa1580156122ea573d6000803e3d6000fd5b505050506040513d601f19601f8201168201806040525081019061230e9190613cad565b6001600160a01b0316336001600160a01b03161461233e5760405162461bcd60e51b815260040161080d90613cca565b611cf581613463565b7f00000000000000000000000000000000000000000000000000000000000000006001600160a01b03166312d43a516040518163ffffffff1660e01b8152600401602060405180830381865afa1580156123a5573d6000803e3d6000fd5b505050506040513d601f19601f820116820180604052508101906123c99190613cad565b6001600160a01b0316336001600160a01b0316146123f95760405162461bcd60e51b815260040161080d90613cca565b806124165760405162461bcd60e51b815260040161080d90613cec565b600d8190556040805160018152602081018390527f764c19c693af0da42ec6c6bed68a2dd1a2fa93d24785fcfce58ffa29ae3136069101610887565b600754604051638251135b60e01b8152600481018390526000916001600160a01b031690638251135b90602401602060405180830381865afa15801561249c573d6000803e3d6000fd5b505050506040513d601f19601f820116820180604052508101906121639190613dfe565b7f00000000000000000000000000000000000000000000000000000000000000006001600160a01b03166312d43a516040518163ffffffff1660e01b8152600401602060405180830381865afa15801561251e573d6000803e3d6000fd5b505050506040513d601f19601f820116820180604052508101906125429190613cad565b6001600160a01b0316336001600160a01b0316146125725760405162461bcd60e51b815260040161080d90613cca565b60038110156125b15760405162461bcd60e51b815260206004820152600b60248201526a4d494e5f414e535745525360a81b604482015260640161080d565b6125bc600282613f32565b6001146125f45760405162461bcd60e51b815260040161080d9060208082526004908201526322ab22a760e11b604082015260600190565b600a8190556040518181527f230365d79885046a48c9158f0e4840ab95929bbebf5de4be23f7ce5f91a97c6590602001610887565b7f00000000000000000000000000000000000000000000000000000000000000006001600160a01b03166312d43a516040518163ffffffff1660e01b8152600401602060405180830381865afa158015612687573d6000803e3d6000fd5b505050506040513d601f19601f820116820180604052508101906126ab9190613cad565b6001600160a01b0316336001600160a01b0316146126db5760405162461bcd60e51b815260040161080d90613cca565b600b5482106126fc5760405162461bcd60e51b815260040161080d90613f46565b6001600160a01b0381166127225760405162461bcd60e51b815260040161080d90613cec565b7f945eb5535c35fb8b656c5c6b7d8bb9d9deba3a44d202bd2b53d58aac4f43db0482600b8481548110612757576127576138c1565b60009182526020918290200154604080519384526001600160a01b039182169284019290925284169082015260600160405180910390a180600b83815481106127a2576127a26138c1565b9060005260206000200160006101000a8154816001600160a01b0302191690836001600160a01b031602179055505050565b7f00000000000000000000000000000000000000000000000000000000000000006001600160a01b03166312d43a516040518163ffffffff1660e01b8152600401602060405180830381865afa158015612832573d6000803e3d6000fd5b505050506040513d601f19601f820116820180604052508101906128569190613cad565b6001600160a01b0316336001600160a01b0316146128865760405162461bcd60e51b815260040161080d90613cca565b600b5481106128a75760405162461bcd60e51b815260040161080d90613f46565b7f03082ced7b8d3c831a021af877c172ae1e0257c3522a135e4d7161343846115681600b83815481106128dc576128dc6138c1565b60009182526020909120015460405161291192916001600160a01b0316909182526001600160a01b0316602082015260400190565b60405180910390a1600b805461292990600190613eb5565b81548110612939576129396138c1565b600091825260209091200154600b80546001600160a01b039092169183908110612965576129656138c1565b9060005260206000200160006101000a8154816001600160a01b0302191690836001600160a01b03160217905550600b8054806129a4576129a4613f6b565b600082815260209020810160001990810180546001600160a01b031916905501905550565b60008060008360020b126129e0578260020b6129e8565b8260020b6000035b9050620d89e8811115612a0e576040516315e4079d60e11b815260040160405180910390fd5b600081600116600003612a2557600160801b612a37565b6ffffcb933bd6fad37aa2d162d1a5940015b6001600160881b031690506002821615612a61576ffff97272373d413259a46990580e213a0260801c5b6004821615612a80576ffff2e50f5f656932ef12357cf3c7fdcc0260801c5b6008821615612a9f576fffe5caca7e10e4e61c3624eaa0941cd00260801c5b6010821615612abe576fffcb9843d60f6159c9db58835c9266440260801c5b6020821615612add576fff973b41fa98c081472e6896dfb254c00260801c5b6040821615612afc576fff2ea16466c96a3843ec78b326b528610260801c5b6080821615612b1b576ffe5dee046a99a2a811c461f1969c30530260801c5b610100821615612b3b576ffcbe86c7900a88aedcffc83b479aa3a40260801c5b610200821615612b5b576ff987a7253ac413176f2b074cf7815e540260801c5b610400821615612b7b576ff3392b0822b70005940c7a398e4b70f30260801c5b610800821615612b9b576fe7159475a2c29b7443b29c7fa6e889d90260801c5b611000821615612bbb576fd097f3bdfd2022b8845ad8f792aa58250260801c5b612000821615612bdb576fa9f746462d870fdf8a65dc1f90e061e50260801c5b614000821615612bfb576f70d869a156d2a1b890bb3df62baf32f70260801c5b618000821615612c1b576f31be135f97d08fd981231505542fcfa60260801c5b62010000821615612c3c576f09aa508b5b7a84e1c677de54f3e99bc90260801c5b62020000821615612c5c576e5d6af8dedb81196699c329225ee6040260801c5b62040000821615612c7b576d2216e584f5fa1ea926041bedfe980260801c5b62080000821615612c98576b048a170391f7dc42444e8fa20260801c5b60008460020b1315612cb9578060001981612cb557612cb5613af6565b0490505b640100000000810615612ccd576001612cd0565b60005b60ff16602082901c0192505050919050565b6000808060001985870985870292508281108382030391505080600003612d1b5760008411612d1057600080fd5b508290049050612d8e565b808411612d2757600080fd5b6000848688096000868103871696879004966002600389028118808a02820302808a02820302808a02820302808a02820302808a02820302808a02909103029181900381900460010186841190950394909402919094039290920491909117919091029150505b9392505050565b80516000906001600160a01b0316612daf57506000919050565b60008083600001516001600160a01b031663feaf968c6040518163ffffffff1660e01b815260040160a060405180830381865afa158015612df4573d6000803e3d6000fd5b505050506040513d601f19601f82011682018060405250810190612e189190613ee2565b5091935060009250612e28915050565b84604001516002811115612e3e57612e3e613804565b03612e68576305f5e100612e576402540be40083613f81565b612e619190613fb1565b9150612f27565b600184604001516002811115612e8057612e80613804565b03612e995780612e576402540be4006305f5e100613f81565b600084602001516001600160a01b031663feaf968c6040518163ffffffff1660e01b815260040160a060405180830381865afa158015612edd573d6000803e3d6000fd5b505050506040513d601f19601f82011682018060405250810190612f019190613ee2565b505050915050806402540be40083612f199190613f81565b612f239190613fb1565b9250505b5092915050565b6000831580612f3b575082155b80612f8c575081836402540be40085871015612f6057612f5b8787613eb5565b612f6a565b612f6a8688613eb5565b612f749190613b8f565b612f7f906064613b8f565b612f899190613ba6565b11155b949350505050565b600080600080845190506000816001600160401b03811115612fb857612fb86138ab565b604051908082528060200260200182016040528015612fe1578160200160208202803683370190505b5090506000826001600160401b03811115612ffe57612ffe6138ab565b604051908082528060200260200182016040528015613027578160200160208202803683370190505b5090506000836001600160401b03811115613044576130446138ab565b60405190808252806020026020018201604052801561306d578160200160208202803683370190505b50905060005b848110156131515788818151811061308d5761308d6138c1565b6020026020010151600001516001600160401b03168482815181106130b4576130b46138c1565b6020026020010181815250508881815181106130d2576130d26138c1565b6020026020010151602001516001600160401b03168382815181106130f9576130f96138c1565b602002602001018181525050888181518110613117576131176138c1565b6020026020010151604001516001600160401b031682828151811061313e5761313e6138c1565b6020908102919091010152600101613073565b5061315e8360008661357e565b61316a8260008661357e565b6131768160008661357e565b6000613183600286613f32565b1590506000613193600287613ba6565b9050816131b9578481815181106131ac576131ac6138c1565b602002602001015161320f565b60028582815181106131cd576131cd6138c1565b6020026020010151866001846131e39190613eb5565b815181106131f3576131f36138c1565b60200260200101516132059190613fdf565b61320f9190613ba6565b98508161323557838181518110613228576132286138c1565b602002602001015161328b565b6002848281518110613249576132496138c1565b60200260200101518560018461325f9190613eb5565b8151811061326f5761326f6138c1565b60200260200101516132819190613fdf565b61328b9190613ba6565b9750816132b1578281815181106132a4576132a46138c1565b6020026020010151613307565b60028382815181106132c5576132c56138c1565b6020026020010151846001846132db9190613eb5565b815181106132eb576132eb6138c1565b60200260200101516132fd9190613fdf565b6133079190613ba6565b989a97995050505050505050565b6000613324826000845161357e565b600282516133329190613f32565b156133635781600283516133469190613ba6565b81518110613356576133566138c1565b6020026020010151612163565b600282600284516133749190613ba6565b81518110613384576133846138c1565b60200260200101518360016002865161339d9190613ba6565b6133a79190613eb5565b815181106133b7576133b76138c1565b60200260200101516133c99190613fdf565b6121639190613ba6565b61070863ffffffff8216108015906133f3575061384063ffffffff821611155b61340f5760405162461bcd60e51b815260040161080d90613ff2565b6006805463ffffffff60a01b1916600160a01b63ffffffff8416908102919091179091556040519081527fc99f383ecd620c333255bd2aef929eedd6808999bac9bfc5f53e10d876abf1ce90602001610887565b6001600160a01b0381166134895760405162461bcd60e51b815260040161080d90613ff2565b600680546001600160a01b0319166001600160a01b0383811691821790925560408051630dfe168160e01b815290517f000000000000000000000000000000000000000000000000000000000000000090931692630dfe1681916004808201926020929091908290030181865afa158015613508573d6000803e3d6000fd5b505050506040513d601f19601f8201168201806040525081019061352c9190613cad565b6001600160a01b031614600660186101000a81548160ff0219169083151502179055507fb9c36e5afdbe55e259bdc128e25c13a15f33271cc71599ce0df510b21c3e8da981604051610887919061371c565b80821061358a57505050565b600082905060008482815181106135a3576135a36138c1565b6020026020010151905060008460016135bc9190613fdf565b90505b8381101561360e57818682815181106135da576135da6138c1565b602002602001015110156135fe576135fe86826135f686613e7a565b955085613641565b61360781613e7a565b90506135bf565b5061361a858584613641565b61362585858461357e565b61363a85613634846001613fdf565b8561357e565b5050505050565b828181518110613653576136536138c1565b602002602001015183838151811061366d5761366d6138c1565b6020026020010151848481518110613687576136876138c1565b602002602001018584815181106136a0576136a06138c1565b602090810291909101019190915252505050565b6040518060c001604052806000815260200160008152602001600081526020016000815260200160008152602001600081525090565b5080546000825590600052602060002090810190611cf591905b808211156137185760008155600101613704565b5090565b6001600160a01b0391909116815260200190565b60006020828403121561374257600080fd5b5035919050565b6001600160a01b0381168114611cf557600080fd5b60006020828403121561377057600080fd5b8135612d8e81613749565b6000806040838503121561378e57600080fd5b50508035926020909101359150565b600080600080608085870312156137b357600080fd5b843593506020850135600481106137c957600080fd5b93969395505050506040820135916060013590565b6000602082840312156137f057600080fd5b813563ffffffff81168114612d8e57600080fd5b634e487b7160e01b600052602160045260246000fd5b6004811061383857634e487b7160e01b600052602160045260246000fd5b9052565b61ffff861681526001600160701b038516602082015260a08101613863604083018661381a565b92151560608201529015156080909101529392505050565b6000806040838503121561388e57600080fd5b8235915060208301356138a081613749565b809150509250929050565b634e487b7160e01b600052604160045260246000fd5b634e487b7160e01b600052603260045260246000fd5b6020808252825182820181905260009190848201906040850190845b8181101561391557835163ffffffff16835292840192918401916001016138f3565b50909695505050505050565b604051601f8201601f191681016001600160401b0381118282101715613949576139496138ab565b604052919050565b60006001600160401b0382111561396a5761396a6138ab565b5060051b60200190565b600082601f83011261398557600080fd5b8151602061399a61399583613951565b613921565b82815260059290921b840181019181810190868411156139b957600080fd5b8286015b848110156139dd5780516139d081613749565b83529183019183016139bd565b509695505050505050565b600080604083850312156139fb57600080fd5b82516001600160401b0380821115613a1257600080fd5b818501915085601f830112613a2657600080fd5b81516020613a3661399583613951565b82815260059290921b84018101918181019089841115613a5557600080fd5b948201945b83861015613a835785518060060b8114613a745760008081fd5b82529482019490820190613a5a565b91880151919650909350505080821115613a9c57600080fd5b50613aa985828601613974565b9150509250929050565b634e487b7160e01b600052601160045260246000fd5b600682810b9082900b03667fffffffffffff198112667fffffffffffff8213171561216357612163613ab3565b634e487b7160e01b600052601260045260246000fd5b60008160060b8360060b80613b2357613b23613af6565b667fffffffffffff19821460001982141615613b4157613b41613ab3565b90059392505050565b60008260060b80613b5d57613b5d613af6565b808360060b0791505092915050565b60008160020b627fffff198103613b8557613b85613ab3565b6000190192915050565b808202811582820484141761216357612163613ab3565b600082613bb557613bb5613af6565b500490565b600181815b80851115613bf5578160001904821115613bdb57613bdb613ab3565b80851615613be857918102915b93841c9390800290613bbf565b509250929050565b600082613c0c57506001612163565b81613c1957506000612163565b8160018114613c2f5760028114613c3957613c55565b6001915050612163565b60ff841115613c4a57613c4a613ab3565b50506001821b612163565b5060208310610133831016604e8410600b8410161715613c78575081810a612163565b613c828383613bba565b8060001904821115613c9657613c96613ab3565b029392505050565b6000612d8e60ff841683613bfd565b600060208284031215613cbf57600080fd5b8151612d8e81613749565b602080825260089082015267474f565f4f4e4c5960c01b604082015260600190565b602080825260079082015266056414c55455f360cc1b604082015260600190565b600060808284031215613d1f57600080fd5b604051608081018181106001600160401b0382111715613d4157613d416138ab565b6040528251613d4f81613749565b81526020830151613d5f81613749565b6020820152604083015160038110613d7657600080fd5b60408201526060928301519281019290925250919050565b80516001600160401b0381168114613da557600080fd5b919050565b60008060008060808587031215613dc057600080fd5b613dc985613d8e565b9350613dd760208601613d8e565b9250613de560408601613d8e565b9150613df360608601613d8e565b905092959194509250565b600060208284031215613e1057600080fd5b5051919050565b805182526020810151602083015260408101516040830152606081015160608301526080810151608083015260a081015160a08301525050565b60c081016121638284613e17565b60e08101613e6d8285613e17565b612d8e60c083018461381a565b600060018201613e8c57613e8c613ab3565b5060010190565b600060208284031215613ea557600080fd5b81518015158114612d8e57600080fd5b8181038181111561216357612163613ab3565b805169ffffffffffffffffffff81168114613da557600080fd5b600080600080600060a08688031215613efa57600080fd5b613f0386613ec8565b9450602086015193506040860151925060608601519150613f2660808701613ec8565b90509295509295909350565b600082613f4157613f41613af6565b500690565b6020808252600b908201526a0aea49e9c8ebe929c888ab60ab1b604082015260600190565b634e487b7160e01b600052603160045260246000fd5b80820260008212600160ff1b84141615613f9d57613f9d613ab3565b818105831482151761216357612163613ab3565b600082613fc057613fc0613af6565b600160ff1b821460001984141615613fda57613fda613ab3565b500590565b8082018082111561216357612163613ab3565b6020808252600b908201526a57524f4e475f56414c554560a81b60408201526060019056fece3ae2fe07e497ba552d6485a40eed46cfb3320f001027891efeb1128dba0350a264697066735822122047dd1f645b54da4fa2b3f6243a311b22d2f8f9be9f974be01362a68806e6d77c64736f6c63430008140033",
  "libraries": {
    "PackingUtils": "0xA54A7F9e0F1D643B47296eDF75354792AA7AAc83"
  },
  "devdoc": {
    "kind": "dev",
    "methods": {},
    "version": 1
  },
  "userdoc": {
    "kind": "user",
    "methods": {},
    "version": 1
  },
  "storageLayout": {
    "storage": [
      {
        "astId": 319,
        "contract": "contracts/PriceAggregator.sol:PriceAggregator",
        "label": "s_ens",
        "offset": 0,
        "slot": "0",
        "type": "t_contract(ENSInterface)974"
      },
      {
        "astId": 321,
        "contract": "contracts/PriceAggregator.sol:PriceAggregator",
        "label": "s_ensNode",
        "offset": 0,
        "slot": "1",
        "type": "t_bytes32"
      },
      {
        "astId": 324,
        "contract": "contracts/PriceAggregator.sol:PriceAggregator",
        "label": "s_link",
        "offset": 0,
        "slot": "2",
        "type": "t_contract(LinkTokenInterface)1069"
      },
      {
        "astId": 327,
        "contract": "contracts/PriceAggregator.sol:PriceAggregator",
        "label": "s_oracle",
        "offset": 0,
        "slot": "3",
        "type": "t_contract(OperatorInterface)1149"
      },
      {
        "astId": 330,
        "contract": "contracts/PriceAggregator.sol:PriceAggregator",
        "label": "s_requestCount",
        "offset": 0,
        "slot": "4",
        "type": "t_uint256"
      },
      {
        "astId": 334,
        "contract": "contracts/PriceAggregator.sol:PriceAggregator",
        "label": "s_pendingRequests",
        "offset": 0,
        "slot": "5",
        "type": "t_mapping(t_bytes32,t_address)"
      },
      {
        "astId": 21048,
        "contract": "contracts/PriceAggregator.sol:PriceAggregator",
        "label": "uniV3Pool",
        "offset": 0,
        "slot": "6",
        "type": "t_contract(IUniswapV3Pool)6501"
      },
      {
        "astId": 21050,
        "contract": "contracts/PriceAggregator.sol:PriceAggregator",
        "label": "twapInterval",
        "offset": 20,
        "slot": "6",
        "type": "t_uint32"
      },
      {
        "astId": 21052,
        "contract": "contracts/PriceAggregator.sol:PriceAggregator",
        "label": "isGnsToken0InLp",
        "offset": 24,
        "slot": "6",
        "type": "t_bool"
      },
      {
        "astId": 13619,
        "contract": "contracts/PriceAggregator.sol:PriceAggregator",
        "label": "pairsStorage",
        "offset": 0,
        "slot": "7",
        "type": "t_contract(PairsStorageInterfaceV6)30144"
      },
      {
        "astId": 13622,
        "contract": "contracts/PriceAggregator.sol:PriceAggregator",
        "label": "linkPriceFeed",
        "offset": 0,
        "slot": "8",
        "type": "t_contract(ChainlinkFeedInterface)29304"
      },
      {
        "astId": 13633,
        "contract": "contracts/PriceAggregator.sol:PriceAggregator",
        "label": "orderIds",
        "offset": 0,
        "slot": "9",
        "type": "t_uint256"
      },
      {
        "astId": 13635,
        "contract": "contracts/PriceAggregator.sol:PriceAggregator",
        "label": "minAnswers",
        "offset": 0,
        "slot": "10",
        "type": "t_uint256"
      },
      {
        "astId": 13664,
        "contract": "contracts/PriceAggregator.sol:PriceAggregator",
        "label": "nodes",
        "offset": 0,
        "slot": "11",
        "type": "t_array(t_address)dyn_storage"
      },
      {
        "astId": 13668,
        "contract": "contracts/PriceAggregator.sol:PriceAggregator",
        "label": "jobIds",
        "offset": 0,
        "slot": "12",
        "type": "t_array(t_bytes32)2_storage"
      },
      {
        "astId": 13673,
        "contract": "contracts/PriceAggregator.sol:PriceAggregator",
        "label": "orders",
        "offset": 0,
        "slot": "14",
        "type": "t_mapping(t_uint256,t_struct(Order)13652_storage)"
      },
      {
        "astId": 13677,
        "contract": "contracts/PriceAggregator.sol:PriceAggregator",
        "label": "orderIdByRequest",
        "offset": 0,
        "slot": "15",
        "type": "t_mapping(t_bytes32,t_uint256)"
      },
      {
        "astId": 13682,
        "contract": "contracts/PriceAggregator.sol:PriceAggregator",
        "label": "ordersAnswers",
        "offset": 0,
        "slot": "16",
        "type": "t_mapping(t_uint256,t_array(t_uint256)dyn_storage)"
      },
      {
        "astId": 13688,
        "contract": "contracts/PriceAggregator.sol:PriceAggregator",
        "label": "lookbackOrderAnswers",
        "offset": 0,
        "slot": "17",
        "type": "t_mapping(t_uint256,t_array(t_struct(LookbackOrderAnswer)13661_storage)dyn_storage)"
      }
    ],
    "types": {
      "t_address": {
        "encoding": "inplace",
        "label": "address",
        "numberOfBytes": "20"
      },
      "t_array(t_address)dyn_storage": {
        "base": "t_address",
        "encoding": "dynamic_array",
        "label": "address[]",
        "numberOfBytes": "32"
      },
      "t_array(t_bytes32)2_storage": {
        "base": "t_bytes32",
        "encoding": "inplace",
        "label": "bytes32[2]",
        "numberOfBytes": "64"
      },
      "t_array(t_struct(LookbackOrderAnswer)13661_storage)dyn_storage": {
        "base": "t_struct(LookbackOrderAnswer)13661_storage",
        "encoding": "dynamic_array",
        "label": "struct PriceAggregator.LookbackOrderAnswer[]",
        "numberOfBytes": "32"
      },
      "t_array(t_uint256)dyn_storage": {
        "base": "t_uint256",
        "encoding": "dynamic_array",
        "label": "uint256[]",
        "numberOfBytes": "32"
      },
      "t_bool": {
        "encoding": "inplace",
        "label": "bool",
        "numberOfBytes": "1"
      },
      "t_bytes32": {
        "encoding": "inplace",
        "label": "bytes32",
        "numberOfBytes": "32"
      },
      "t_contract(ChainlinkFeedInterface)29304": {
        "encoding": "inplace",
        "label": "contract ChainlinkFeedInterface",
        "numberOfBytes": "20"
      },
      "t_contract(ENSInterface)974": {
        "encoding": "inplace",
        "label": "contract ENSInterface",
        "numberOfBytes": "20"
      },
      "t_contract(IUniswapV3Pool)6501": {
        "encoding": "inplace",
        "label": "contract IUniswapV3Pool",
        "numberOfBytes": "20"
      },
      "t_contract(LinkTokenInterface)1069": {
        "encoding": "inplace",
        "label": "contract LinkTokenInterface",
        "numberOfBytes": "20"
      },
      "t_contract(OperatorInterface)1149": {
        "encoding": "inplace",
        "label": "contract OperatorInterface",
        "numberOfBytes": "20"
      },
      "t_contract(PairsStorageInterfaceV6)30144": {
        "encoding": "inplace",
        "label": "contract PairsStorageInterfaceV6",
        "numberOfBytes": "20"
      },
      "t_enum(OrderType)13640": {
        "encoding": "inplace",
        "label": "enum PriceAggregator.OrderType",
        "numberOfBytes": "1"
      },
      "t_mapping(t_bytes32,t_address)": {
        "encoding": "mapping",
        "key": "t_bytes32",
        "label": "mapping(bytes32 => address)",
        "numberOfBytes": "32",
        "value": "t_address"
      },
      "t_mapping(t_bytes32,t_uint256)": {
        "encoding": "mapping",
        "key": "t_bytes32",
        "label": "mapping(bytes32 => uint256)",
        "numberOfBytes": "32",
        "value": "t_uint256"
      },
      "t_mapping(t_uint256,t_array(t_struct(LookbackOrderAnswer)13661_storage)dyn_storage)": {
        "encoding": "mapping",
        "key": "t_uint256",
        "label": "mapping(uint256 => struct PriceAggregator.LookbackOrderAnswer[])",
        "numberOfBytes": "32",
        "value": "t_array(t_struct(LookbackOrderAnswer)13661_storage)dyn_storage"
      },
      "t_mapping(t_uint256,t_array(t_uint256)dyn_storage)": {
        "encoding": "mapping",
        "key": "t_uint256",
        "label": "mapping(uint256 => uint256[])",
        "numberOfBytes": "32",
        "value": "t_array(t_uint256)dyn_storage"
      },
      "t_mapping(t_uint256,t_struct(Order)13652_storage)": {
        "encoding": "mapping",
        "key": "t_uint256",
        "label": "mapping(uint256 => struct PriceAggregator.Order)",
        "numberOfBytes": "32",
        "value": "t_struct(Order)13652_storage"
      },
      "t_struct(LookbackOrderAnswer)13661_storage": {
        "encoding": "inplace",
        "label": "struct PriceAggregator.LookbackOrderAnswer",
        "members": [
          {
            "astId": 13654,
            "contract": "contracts/PriceAggregator.sol:PriceAggregator",
            "label": "open",
            "offset": 0,
            "slot": "0",
            "type": "t_uint64"
          },
          {
            "astId": 13656,
            "contract": "contracts/PriceAggregator.sol:PriceAggregator",
            "label": "high",
            "offset": 8,
            "slot": "0",
            "type": "t_uint64"
          },
          {
            "astId": 13658,
            "contract": "contracts/PriceAggregator.sol:PriceAggregator",
            "label": "low",
            "offset": 16,
            "slot": "0",
            "type": "t_uint64"
          },
          {
            "astId": 13660,
            "contract": "contracts/PriceAggregator.sol:PriceAggregator",
            "label": "ts",
            "offset": 24,
            "slot": "0",
            "type": "t_uint64"
          }
        ],
        "numberOfBytes": "32"
      },
      "t_struct(Order)13652_storage": {
        "encoding": "inplace",
        "label": "struct PriceAggregator.Order",
        "members": [
          {
            "astId": 13642,
            "contract": "contracts/PriceAggregator.sol:PriceAggregator",
            "label": "pairIndex",
            "offset": 0,
            "slot": "0",
            "type": "t_uint16"
          },
          {
            "astId": 13644,
            "contract": "contracts/PriceAggregator.sol:PriceAggregator",
            "label": "linkFeePerNode",
            "offset": 2,
            "slot": "0",
            "type": "t_uint112"
          },
          {
            "astId": 13647,
            "contract": "contracts/PriceAggregator.sol:PriceAggregator",
            "label": "orderType",
            "offset": 16,
            "slot": "0",
            "type": "t_enum(OrderType)13640"
          },
          {
            "astId": 13649,
            "contract": "contracts/PriceAggregator.sol:PriceAggregator",
            "label": "active",
            "offset": 17,
            "slot": "0",
            "type": "t_bool"
          },
          {
            "astId": 13651,
            "contract": "contracts/PriceAggregator.sol:PriceAggregator",
            "label": "isLookback",
            "offset": 18,
            "slot": "0",
            "type": "t_bool"
          }
        ],
        "numberOfBytes": "32"
      },
      "t_uint112": {
        "encoding": "inplace",
        "label": "uint112",
        "numberOfBytes": "14"
      },
      "t_uint16": {
        "encoding": "inplace",
        "label": "uint16",
        "numberOfBytes": "2"
      },
      "t_uint256": {
        "encoding": "inplace",
        "label": "uint256",
        "numberOfBytes": "32"
      },
      "t_uint32": {
        "encoding": "inplace",
        "label": "uint32",
        "numberOfBytes": "4"
      },
      "t_uint64": {
        "encoding": "inplace",
        "label": "uint64",
        "numberOfBytes": "8"
      }
    }
  }
}