{
  "address": "0x9A61b948802D9c2416295498dAFC7b645CBcEA1c",
  "abi": [
    {
      "inputs": [
        {
          "internalType": "address",
          "name": "_linkToken",
          "type": "address"
        },
        {
          "internalType": "contract IUniswapV3Pool",
          "name": "_tokenWETHLp",
          "type": "address"
        },
        {
          "internalType": "uint32",
          "name": "_twapInterval",
          "type": "uint32"
        },
        {
          "internalType": "contract StorageInterface",
          "name": "_storageT",
          "type": "address"
        },
        {
          "internalType": "contract PairsStorageInterfaceV6",
          "name": "_pairsStorage",
          "type": "address"
        },
        {
          "internalType": "contract ChainlinkFeedInterface",
          "name": "_linkPriceFeed",
          "type": "address"
        },
        {
          "internalType": "uint256",
          "name": "_minAnswers",
          "type": "uint256"
        },
        {
          "internalType": "address[]",
          "name": "_nodes",
          "type": "address[]"
        },
        {
          "internalType": "bytes32[2]",
          "name": "_jobIds",
          "type": "bytes32[2]"
        }
      ],
      "stateMutability": "nonpayable",
      "type": "constructor"
    },
    {
      "inputs": [],
      "name": "T",
      "type": "error"
    },
    {
      "anonymous": false,
      "inputs": [
        {
          "components": [
            {
              "internalType": "uint256",
              "name": "orderId",
              "type": "uint256"
            },
            {
              "internalType": "uint256",
              "name": "price",
              "type": "uint256"
            },
            {
              "internalType": "uint256",
              "name": "spreadP",
              "type": "uint256"
            },
            {
              "internalType": "uint256",
              "name": "open",
              "type": "uint256"
            },
            {
              "internalType": "uint256",
              "name": "high",
              "type": "uint256"
            },
            {
              "internalType": "uint256",
              "name": "low",
              "type": "uint256"
            }
          ],
          "indexed": false,
          "internalType": "struct CallbacksInterface.AggregatorAnswer",
          "name": "a",
          "type": "tuple"
        },
        {
          "indexed": false,
          "internalType": "enum PriceAggregator.OrderType",
          "name": "orderType",
          "type": "uint8"
        }
      ],
      "name": "CallbackExecuted",
      "type": "event"
    },
    {
      "anonymous": false,
      "inputs": [
        {
          "indexed": true,
          "internalType": "bytes32",
          "name": "id",
          "type": "bytes32"
        }
      ],
      "name": "ChainlinkCancelled",
      "type": "event"
    },
    {
      "anonymous": false,
      "inputs": [
        {
          "indexed": true,
          "internalType": "bytes32",
          "name": "id",
          "type": "bytes32"
        }
      ],
      "name": "ChainlinkFulfilled",
      "type": "event"
    },
    {
      "anonymous": false,
      "inputs": [
        {
          "indexed": true,
          "internalType": "bytes32",
          "name": "id",
          "type": "bytes32"
        }
      ],
      "name": "ChainlinkRequested",
      "type": "event"
    },
    {
      "anonymous": false,
      "inputs": [
        {
          "indexed": false,
          "internalType": "uint256",
          "name": "index",
          "type": "uint256"
        },
        {
          "indexed": false,
          "internalType": "bytes32",
          "name": "jobId",
          "type": "bytes32"
        }
      ],
      "name": "JobIdUpdated",
      "type": "event"
    },
    {
      "anonymous": false,
      "inputs": [
        {
          "indexed": false,
          "internalType": "address",
          "name": "value",
          "type": "address"
        }
      ],
      "name": "LinkPriceFeedUpdated",
      "type": "event"
    },
    {
      "anonymous": false,
      "inputs": [
        {
          "indexed": false,
          "internalType": "uint256",
          "name": "value",
          "type": "uint256"
        }
      ],
      "name": "MinAnswersUpdated",
      "type": "event"
    },
    {
      "anonymous": false,
      "inputs": [
        {
          "indexed": false,
          "internalType": "uint256",
          "name": "index",
          "type": "uint256"
        },
        {
          "indexed": false,
          "internalType": "address",
          "name": "value",
          "type": "address"
        }
      ],
      "name": "NodeAdded",
      "type": "event"
    },
    {
      "anonymous": false,
      "inputs": [
        {
          "indexed": false,
          "internalType": "uint256",
          "name": "index",
          "type": "uint256"
        },
        {
          "indexed": false,
          "internalType": "address",
          "name": "oldNode",
          "type": "address"
        }
      ],
      "name": "NodeRemoved",
      "type": "event"
    },
    {
      "anonymous": false,
      "inputs": [
        {
          "indexed": false,
          "internalType": "uint256",
          "name": "index",
          "type": "uint256"
        },
        {
          "indexed": false,
          "internalType": "address",
          "name": "oldNode",
          "type": "address"
        },
        {
          "indexed": false,
          "internalType": "address",
          "name": "newNode",
          "type": "address"
        }
      ],
      "name": "NodeReplaced",
      "type": "event"
    },
    {
      "anonymous": false,
      "inputs": [
        {
          "indexed": false,
          "internalType": "address",
          "name": "value",
          "type": "address"
        }
      ],
      "name": "PairsStorageUpdated",
      "type": "event"
    },
    {
      "anonymous": false,
      "inputs": [
        {
          "indexed": false,
          "internalType": "bytes32",
          "name": "request",
          "type": "bytes32"
        },
        {
          "indexed": true,
          "internalType": "uint256",
          "name": "orderId",
          "type": "uint256"
        },
        {
          "indexed": true,
          "internalType": "address",
          "name": "node",
          "type": "address"
        },
        {
          "indexed": true,
          "internalType": "uint16",
          "name": "pairIndex",
          "type": "uint16"
        },
        {
          "indexed": false,
          "internalType": "uint256",
          "name": "price",
          "type": "uint256"
        },
        {
          "indexed": false,
          "internalType": "uint256",
          "name": "referencePrice",
          "type": "uint256"
        },
        {
          "indexed": false,
          "internalType": "uint112",
          "name": "linkFee",
          "type": "uint112"
        },
        {
          "indexed": false,
          "internalType": "bool",
          "name": "isLookback",
          "type": "bool"
        },
        {
          "indexed": false,
          "internalType": "bool",
          "name": "usedInMedian",
          "type": "bool"
        }
      ],
      "name": "PriceReceived",
      "type": "event"
    },
    {
      "anonymous": false,
      "inputs": [
        {
          "indexed": true,
          "internalType": "uint256",
          "name": "orderId",
          "type": "uint256"
        },
        {
          "indexed": true,
          "internalType": "bytes32",
          "name": "job",
          "type": "bytes32"
        },
        {
          "indexed": true,
          "internalType": "uint256",
          "name": "pairIndex",
          "type": "uint256"
        },
        {
          "indexed": false,
          "internalType": "enum PriceAggregator.OrderType",
          "name": "orderType",
          "type": "uint8"
        },
        {
          "indexed": false,
          "internalType": "uint256",
          "name": "nodesCount",
          "type": "uint256"
        },
        {
          "indexed": false,
          "internalType": "uint256",
          "name": "linkFeePerNode",
          "type": "uint256"
        },
        {
          "indexed": false,
          "internalType": "uint256",
          "name": "fromBlock",
          "type": "uint256"
        },
        {
          "indexed": false,
          "internalType": "bool",
          "name": "isLookback",
          "type": "bool"
        }
      ],
      "name": "PriceRequested",
      "type": "event"
    },
    {
      "anonymous": false,
      "inputs": [
        {
          "indexed": false,
          "internalType": "uint32",
          "name": "newValue",
          "type": "uint32"
        }
      ],
      "name": "TwapIntervalUpdated",
      "type": "event"
    },
    {
      "anonymous": false,
      "inputs": [
        {
          "indexed": false,
          "internalType": "contract IUniswapV3Pool",
          "name": "newValue",
          "type": "address"
        }
      ],
      "name": "UniV3PoolUpdated",
      "type": "event"
    },
    {
      "inputs": [
        {
          "internalType": "address",
          "name": "a",
          "type": "address"
        }
      ],
      "name": "addNode",
      "outputs": [],
      "stateMutability": "nonpayable",
      "type": "function"
    },
    {
      "inputs": [],
      "name": "claimBackLink",
      "outputs": [],
      "stateMutability": "nonpayable",
      "type": "function"
    },
    {
      "inputs": [
        {
          "internalType": "bytes32",
          "name": "requestId",
          "type": "bytes32"
        },
        {
          "internalType": "uint256",
          "name": "priceData",
          "type": "uint256"
        }
      ],
      "name": "fulfill",
      "outputs": [],
      "stateMutability": "nonpayable",
      "type": "function"
    },
    {
      "inputs": [
        {
          "internalType": "uint256",
          "name": "pairIndex",
          "type": "uint256"
        },
        {
          "internalType": "enum PriceAggregator.OrderType",
          "name": "orderType",
          "type": "uint8"
        },
        {
          "internalType": "uint256",
          "name": "leveragedPosWETH",
          "type": "uint256"
        },
        {
          "internalType": "uint256",
          "name": "fromBlock",
          "type": "uint256"
        }
      ],
      "name": "getPrice",
      "outputs": [
        {
          "internalType": "uint256",
          "name": "",
          "type": "uint256"
        }
      ],
      "stateMutability": "nonpayable",
      "type": "function"
    },
    {
      "inputs": [],
      "name": "isGnsToken0InLp",
      "outputs": [
        {
          "internalType": "bool",
          "name": "",
          "type": "bool"
        }
      ],
      "stateMutability": "view",
      "type": "function"
    },
    {
      "inputs": [
        {
          "internalType": "uint256",
          "name": "",
          "type": "uint256"
        }
      ],
      "name": "jobIds",
      "outputs": [
        {
          "internalType": "bytes32",
          "name": "",
          "type": "bytes32"
        }
      ],
      "stateMutability": "view",
      "type": "function"
    },
    {
      "inputs": [
        {
          "internalType": "uint256",
          "name": "pairIndex",
          "type": "uint256"
        },
        {
          "internalType": "uint256",
          "name": "leveragedPosWETH",
          "type": "uint256"
        }
      ],
      "name": "linkFee",
      "outputs": [
        {
          "internalType": "uint256",
          "name": "",
          "type": "uint256"
        }
      ],
      "stateMutability": "view",
      "type": "function"
    },
    {
      "inputs": [],
      "name": "linkPriceFeed",
      "outputs": [
        {
          "internalType": "contract ChainlinkFeedInterface",
          "name": "",
          "type": "address"
        }
      ],
      "stateMutability": "view",
      "type": "function"
    },
    {
      "inputs": [
        {
          "internalType": "uint256",
          "name": "",
          "type": "uint256"
        },
        {
          "internalType": "uint256",
          "name": "",
          "type": "uint256"
        }
      ],
      "name": "lookbackOrderAnswers",
      "outputs": [
        {
          "internalType": "uint64",
          "name": "open",
          "type": "uint64"
        },
        {
          "internalType": "uint64",
          "name": "high",
          "type": "uint64"
        },
        {
          "internalType": "uint64",
          "name": "low",
          "type": "uint64"
        },
        {
          "internalType": "uint64",
          "name": "ts",
          "type": "uint64"
        }
      ],
      "stateMutability": "view",
      "type": "function"
    },
    {
      "inputs": [],
      "name": "minAnswers",
      "outputs": [
        {
          "internalType": "uint256",
          "name": "",
          "type": "uint256"
        }
      ],
      "stateMutability": "view",
      "type": "function"
    },
    {
      "inputs": [
        {
          "internalType": "uint256",
          "name": "",
          "type": "uint256"
        }
      ],
      "name": "nodes",
      "outputs": [
        {
          "internalType": "address",
          "name": "",
          "type": "address"
        }
      ],
      "stateMutability": "view",
      "type": "function"
    },
    {
      "inputs": [
        {
          "internalType": "uint256",
          "name": "pairIndex",
          "type": "uint256"
        }
      ],
      "name": "openFeeP",
      "outputs": [
        {
          "internalType": "uint256",
          "name": "",
          "type": "uint256"
        }
      ],
      "stateMutability": "view",
      "type": "function"
    },
    {
      "inputs": [
        {
          "internalType": "bytes32",
          "name": "",
          "type": "bytes32"
        }
      ],
      "name": "orderIdByRequest",
      "outputs": [
        {
          "internalType": "uint256",
          "name": "",
          "type": "uint256"
        }
      ],
      "stateMutability": "view",
      "type": "function"
    },
    {
      "inputs": [
        {
          "internalType": "uint256",
          "name": "",
          "type": "uint256"
        }
      ],
      "name": "orders",
      "outputs": [
        {
          "internalType": "uint16",
          "name": "pairIndex",
          "type": "uint16"
        },
        {
          "internalType": "uint112",
          "name": "linkFeePerNode",
          "type": "uint112"
        },
        {
          "internalType": "enum PriceAggregator.OrderType",
          "name": "orderType",
          "type": "uint8"
        },
        {
          "internalType": "bool",
          "name": "active",
          "type": "bool"
        },
        {
          "internalType": "bool",
          "name": "isLookback",
          "type": "bool"
        }
      ],
      "stateMutability": "view",
      "type": "function"
    },
    {
      "inputs": [
        {
          "internalType": "uint256",
          "name": "",
          "type": "uint256"
        },
        {
          "internalType": "uint256",
          "name": "",
          "type": "uint256"
        }
      ],
      "name": "ordersAnswers",
      "outputs": [
        {
          "internalType": "uint256",
          "name": "",
          "type": "uint256"
        }
      ],
      "stateMutability": "view",
      "type": "function"
    },
    {
      "inputs": [],
      "name": "pairsStorage",
      "outputs": [
        {
          "internalType": "contract PairsStorageInterfaceV6",
          "name": "",
          "type": "address"
        }
      ],
      "stateMutability": "view",
      "type": "function"
    },
    {
      "inputs": [
        {
          "internalType": "uint256",
          "name": "index",
          "type": "uint256"
        }
      ],
      "name": "removeNode",
      "outputs": [],
      "stateMutability": "nonpayable",
      "type": "function"
    },
    {
      "inputs": [
        {
          "internalType": "uint256",
          "name": "index",
          "type": "uint256"
        },
        {
          "internalType": "address",
          "name": "a",
          "type": "address"
        }
      ],
      "name": "replaceNode",
      "outputs": [],
      "stateMutability": "nonpayable",
      "type": "function"
    },
    {
      "inputs": [
        {
          "internalType": "bytes32",
          "name": "jobId",
          "type": "bytes32"
        }
      ],
      "name": "setLimitJobId",
      "outputs": [],
      "stateMutability": "nonpayable",
      "type": "function"
    },
    {
      "inputs": [
        {
          "internalType": "bytes32",
          "name": "jobId",
          "type": "bytes32"
        }
      ],
      "name": "setMarketJobId",
      "outputs": [],
      "stateMutability": "nonpayable",
      "type": "function"
    },
    {
      "inputs": [],
      "name": "storageT",
      "outputs": [
        {
          "internalType": "contract StorageInterface",
          "name": "",
          "type": "address"
        }
      ],
      "stateMutability": "view",
      "type": "function"
    },
    {
      "inputs": [],
      "name": "token",
      "outputs": [
        {
          "internalType": "address",
          "name": "",
          "type": "address"
        }
      ],
      "stateMutability": "view",
      "type": "function"
    },
    {
      "inputs": [],
      "name": "tokenPriceWETH",
      "outputs": [
        {
          "internalType": "uint256",
          "name": "price",
          "type": "uint256"
        }
      ],
      "stateMutability": "view",
      "type": "function"
    },
    {
      "inputs": [],
      "name": "twapInterval",
      "outputs": [
        {
          "internalType": "uint32",
          "name": "",
          "type": "uint32"
        }
      ],
      "stateMutability": "view",
      "type": "function"
    },
    {
      "inputs": [],
      "name": "uniV3Pool",
      "outputs": [
        {
          "internalType": "contract IUniswapV3Pool",
          "name": "",
          "type": "address"
        }
      ],
      "stateMutability": "view",
      "type": "function"
    },
    {
      "inputs": [
        {
          "internalType": "contract ChainlinkFeedInterface",
          "name": "value",
          "type": "address"
        }
      ],
      "name": "updateLinkPriceFeed",
      "outputs": [],
      "stateMutability": "nonpayable",
      "type": "function"
    },
    {
      "inputs": [
        {
          "internalType": "uint256",
          "name": "value",
          "type": "uint256"
        }
      ],
      "name": "updateMinAnswers",
      "outputs": [],
      "stateMutability": "nonpayable",
      "type": "function"
    },
    {
      "inputs": [
        {
          "internalType": "contract PairsStorageInterfaceV6",
          "name": "value",
          "type": "address"
        }
      ],
      "name": "updatePairsStorage",
      "outputs": [],
      "stateMutability": "nonpayable",
      "type": "function"
    },
    {
      "inputs": [
        {
          "internalType": "uint32",
          "name": "_twapInterval",
          "type": "uint32"
        }
      ],
      "name": "updateTwapInterval",
      "outputs": [],
      "stateMutability": "nonpayable",
      "type": "function"
    },
    {
      "inputs": [
        {
          "internalType": "contract IUniswapV3Pool",
          "name": "_uniV3Pool",
          "type": "address"
        }
      ],
      "name": "updateUniV3Pool",
      "outputs": [],
      "stateMutability": "nonpayable",
      "type": "function"
    }
  ],
  "transactionHash": "0x97b92b008544a5a6117314565932974c241496d2e69ce6afd2d5b3f5f84172b0",
  "args": [
    "0xa667403454F483dE81A0363Af7FcEE563819D910",
    "0x93D4Ffe4372965BeA7d85A502444Bd269C890C20",
    1900,
    "0xF904b46741Fb83AF3431fcFb65424a37f8d1C525",
    "0x7602CBFE45cB9f0C6365CE17aEC3e982958Ac240",
    "0xa667403454F483dE81A0363Af7FcEE563819D910",
    3,
    [
      "0x00000000219ab540356cbb839cbe05303d7705fa",
      "0xc02aaa39b223fe8d0a0e5c4f27ead9083c756cc2",
      "0xbe0eb53f46cd790cd13851d5eff43d12404d33e8",
      "0xda9dfa130df4de4673b89022ee50ff26f6ea73cf"
    ],
    [
      "0x0000000000000000000000000000000000000000000000000000000000000004",
      "0x0000000000000000000000000000000000000000000000000000000000000001"
    ]
  ],
  "numDeployments": 1,
  "solcInputHash": "c3b2af42bb07d4da2a0cd41cc4ee8b85",
  "bytecode": "0x60e060405260016004553480156200001657600080fd5b506040516200437a3803806200437a833981016040819052620000399162000572565b87866001600160a01b031663fc0c546a6040518163ffffffff1660e01b8152600401602060405180830381865afa15801562000079573d6000803e3d6000fd5b505050506040513d601f19601f820116820180604052508101906200009f919062000651565b886402540be4006001600160a01b03841615801590620000c7575061070863ffffffff831610155b8015620000dc575061384063ffffffff831611155b8015620000e95750600081115b6200013b5760405162461bcd60e51b815260206004820152601660248201527f57524f4e475f545741505f434f4e5354525543544f520000000000000000000060448201526064015b60405180910390fd5b600680546001600160a01b0385811660a081905263ffffffff8616600160a01b026001600160c01b0319909316828916179290921792839055608084905260408051630dfe168160e01b81529051929390911691630dfe1681916004808201926020929091908290030181865afa158015620001bb573d6000803e3d6000fd5b505050506040513d601f19601f82011682018060405250810190620001e1919062000651565b6001600160a01b031614600660186101000a81548160ff0219169083151502179055505050505060006001600160a01b0316866001600160a01b0316141580156200023457506001600160a01b03851615155b80156200024957506001600160a01b03841615155b801562000257575060038310155b80156200027057506200026c60028462000678565b6001145b80156200027e575060008251115b80156200029357506001600160a01b03891615155b620002d05760405162461bcd60e51b815260206004820152600c60248201526b57524f4e475f504152414d5360a01b604482015260640162000132565b6001600160a01b0386811660c052600780546001600160a01b03199081168884161790915560088054909116918616919091179055600a83905581516200031f90600b9060208501906200035a565b506200032f600c826002620003c4565b50600280546001600160a01b0319166001600160a01b038b161790555050505050505050506200069b565b828054828255906000526020600020908101928215620003b2579160200282015b82811115620003b257825182546001600160a01b0319166001600160a01b039091161782556020909201916001909101906200037b565b50620003c0929150620003f5565b5090565b8260028101928215620003b2579160200282015b82811115620003b2578251825591602001919060010190620003d8565b5b80821115620003c05760008155600101620003f6565b6001600160a01b03811681146200042257600080fd5b50565b805162000432816200040c565b919050565b634e487b7160e01b600052604160045260246000fd5b600082601f8301126200045f57600080fd5b815160206001600160401b03808311156200047e576200047e62000437565b8260051b604051601f19603f83011681018181108482111715620004a657620004a662000437565b604052938452858101830193838101925087851115620004c557600080fd5b83870191505b84821015620004f1578151620004e1816200040c565b83529183019190830190620004cb565b979650505050505050565b600082601f8301126200050e57600080fd5b604080519081016001600160401b038111828210171562000533576200053362000437565b80604052508060408401858111156200054b57600080fd5b845b81811015620005675780518352602092830192016200054d565b509195945050505050565b60008060008060008060008060006101408a8c0312156200059257600080fd5b89516200059f816200040c565b60208b0151909950620005b2816200040c565b60408b015190985063ffffffff81168114620005cd57600080fd5b9650620005dd60608b0162000425565b9550620005ed60808b0162000425565b9450620005fd60a08b0162000425565b60c08b015160e08c015191955093506001600160401b038111156200062157600080fd5b6200062f8c828d016200044d565b925050620006428b6101008c01620004fc565b90509295985092959850929598565b6000602082840312156200066457600080fd5b815162000671816200040c565b9392505050565b6000826200069657634e487b7160e01b600052601260045260246000fd5b500690565b60805160a05160c051613c3162000749600039600081816101f00152818161073f01528181610e0701528181611199015281816114410152818161152f015281816115e301528181611676015281816117d80152818161191401528181611b5701528181611d4f01528181611e7201528181611f2d015281816120a60152818161220f01526123ba01526000818161047b015261309e0152600081816106a001526107030152613c316000f3fe608060405234801561001057600080fd5b50600436106101995760003560e01c806393d7fe2c116100e4578063da4ae8ef11610092578063da4ae8ef1461040a578063dcdfb4311461041d578063e0bb91c21461043d578063e21e5fe014610450578063f5ed447c14610463578063fc0c546a14610476578063fd2882801461049d578063ffd740df146104b057600080fd5b806393d7fe2c1461033c5780639d95f1cc1461034f578063a500775e14610362578063a85c38ef14610375578063b9e0336f146103db578063bea16758146103ee578063d31273ca146103f757600080fd5b806340e9eda21161014c57806340e9eda21461027a5780634162cc881461028f5780634357855e146102a25780634c37a9d6146102b55780636938c05d146102fb5780636c83b3d71461030e5780636f37d2631461032157806385f276b81461032957600080fd5b8062912b371461019e57806303f39a16146101c757806316fff074146101eb5780631c53c28014610212578063290702e51461022557806335b03c171461023b5780633c1d5df01461024e575b600080fd5b6008546101b1906001600160a01b031681565b6040516101be9190613300565b60405180910390f35b6006546101db90600160c01b900460ff1681565b60405190151581526020016101be565b6101b17f000000000000000000000000000000000000000000000000000000000000000081565b6101b1610220366004613314565b6104c3565b61022d6104ed565b6040519081526020016101be565b6007546101b1906001600160a01b031681565b60065461026590600160a01b900463ffffffff1681565b60405163ffffffff90911681526020016101be565b61028d610288366004613342565b61073d565b005b61022d61029d366004613314565b610874565b61028d6102b036600461335f565b61088b565b6102c86102c336600461335f565b6113e8565b604080516001600160401b03958616815293851660208501529184169183019190915290911660608201526080016101be565b61022d610309366004613381565b61143d565b6006546101b1906001600160a01b031681565b61028d61152d565b61028d610337366004613314565b6117d6565b61022d61034a36600461335f565b6118e1565b61028d61035d366004613342565b611912565b61028d6103703660046133c2565b611b55565b6103ca610383366004613314565b600e6020526000908152604090205461ffff8116906001600160701b03620100008204169060ff600160801b8204811691600160881b8104821691600160901b9091041685565b6040516101be959493929190613420565b61022d6103e936600461335f565b611c13565b61022d600a5481565b61028d610405366004613342565b611d4d565b61028d610418366004613342565b611e70565b61022d61042b366004613314565b600f6020526000908152604090205481565b61028d61044b366004613314565b611f2b565b61022d61045e366004613314565b612036565b61028d610471366004613314565b6120a4565b6101b17f000000000000000000000000000000000000000000000000000000000000000081565b61028d6104ab36600461345f565b61220d565b61028d6104be366004613314565b6123b8565b600b81815481106104d357600080fd5b6000918252602090912001546001600160a01b0316905081565b60408051600280825260608201835260009283929190602083019080368337019050509050600660149054906101000a900463ffffffff1681600081518110610538576105386134a5565b602002602001019063ffffffff16908163ffffffff1681525050600081600181518110610567576105676134a5565b63ffffffff9092166020928302919091019091015260065460405163883bdbfd60e01b81526000916001600160a01b03169063883bdbfd906105ad9085906004016134bb565b600060405180830381865afa1580156105ca573d6000803e3d6000fd5b505050506040513d6000823e601f3d908101601f191682016040526105f291908101906135cc565b50905060008160008151811061060a5761060a6134a5565b602002602001015182600181518110610625576106256134a5565b602002602001015161063791906136ad565b600654909150600160a01b900463ffffffff1660030b600061065982846136f0565b905060008360060b1280156106795750610673828461372e565b60060b15155b1561068c578061068881613750565b9150505b6000610697826125ad565b9050600160601b7f00000000000000000000000000000000000000000000000000000000000000006106d36001600160a01b03841680846128c6565b6106dd9190613773565b6106e7919061378a565b600654909750600160c01b900460ff16610734578661072760027f0000000000000000000000000000000000000000000000000000000000000000613882565b610731919061378a565b96505b50505050505090565b7f00000000000000000000000000000000000000000000000000000000000000006001600160a01b03166312d43a516040518163ffffffff1660e01b8152600401602060405180830381865afa15801561079b573d6000803e3d6000fd5b505050506040513d601f19601f820116820180604052508101906107bf9190613891565b6001600160a01b0316336001600160a01b0316146107f85760405162461bcd60e51b81526004016107ef906138ae565b60405180910390fd5b6001600160a01b03811661081e5760405162461bcd60e51b81526004016107ef906138d0565b600780546001600160a01b0319166001600160a01b0383161790556040517f477e87af277e7755f85267ef7c6b77cd28610c2c8c2923acdf55fa5b63f18b7790610869908390613300565b60405180910390a150565b600c816002811061088457600080fd5b0154905081565b60008281526005602052604090205482906001600160a01b031633146109045760405162461bcd60e51b815260206004820152602860248201527f536f75726365206d75737420626520746865206f7261636c65206f6620746865604482015267081c995c5d595cdd60c21b60648201526084016107ef565b60008181526005602052604080822080546001600160a01b03191690555182917f7cc135e0cebb02c3480ae5d74d377283180a2601f8f644edf7987b009316c63a91a26000838152600f60209081526040808320805490849055808452600e8352818420825160a081018452815461ffff811682526201000081046001600160701b0316958201959095529194939192909190830190600160801b900460ff1660038111156109b5576109b56133e8565b60038111156109c6576109c66133e8565b8152905460ff600160881b8204811615156020840152600160901b909104161515604091820152600754825191516307aa801760e21b815261ffff909216600483015291925060009182916001600160a01b0390911690631eaa005c90602401608060405180830381865afa158015610a43573d6000803e3d6000fd5b505050506040513d601f19601f82011682018060405250810190610a6791906138f1565b90506000610a7482612979565b905083606001511561136957836080015115610fdb57604080516080810182526000808252602082018190528183018190526060820152905163635e061d60e11b81526004810189905273b8A7B7E916f2D3F8cdd6a5a5276546dF6B7A362b9063c6bc0c3a90602401608060405180830381865af4158015610afa573d6000803e3d6000fd5b505050506040513d601f19601f82011682018060405250810190610b1e919061398e565b6001600160401b03908116606086015290811660408501529081166020840181905291168252158015610b5c575060408101516001600160401b0316155b80610bbf575080600001516001600160401b031681602001516001600160401b031610158015610ba6575080600001516001600160401b031681604001516001600160401b031611155b8015610bbf5750600081604001516001600160401b0316115b610bfc5760405162461bcd60e51b815260206004820152600e60248201526d494e56414c49445f43414e444c4560901b60448201526064016107ef565b610c1881602001516001600160401b0316838560600151612b12565b8015610c3b5750610c3b81604001516001600160401b0316838560600151612b12565b15610fd557600086815260116020908152604080832080546001818101835582865294849020865191018054948701519387015160608801516001600160401b03908116600160c01b026001600160c01b03928216600160801b02929092166001600160801b03968216600160401b026001600160801b03199098169190941617959095179390931617929092179055600a548154929650909103610fd357610ce2613298565b878152815460408051602080840282018101909252828152610d7892909185919060009084015b82821015610d6f57600084815260209081902060408051608081018252918501546001600160401b038082168452600160401b8204811684860152600160801b8204811692840192909252600160c01b9004166060820152825260019092019101610d09565b50505050612b78565b60a084015260808301526060820152600754875160405163a1d54e9b60e01b815261ffff90911660048201526001600160a01b039091169063a1d54e9b90602401602060405180830381865afa158015610dd6573d6000803e3d6000fd5b505050506040513d601f19601f82011682018060405250810190610dfa91906139e2565b81604001818152505060007f00000000000000000000000000000000000000000000000000000000000000006001600160a01b031662b127836040518163ffffffff1660e01b8152600401602060405180830381865afa158015610e62573d6000803e3d6000fd5b505050506040513d601f19601f82011682018060405250810190610e869190613891565b9050600288604001516003811115610ea057610ea06133e8565b03610f085760405163168fdc8160e31b81526001600160a01b0382169063b47ee40890610ed1908590600401613a35565b600060405180830381600087803b158015610eeb57600080fd5b505af1158015610eff573d6000803e3d6000fd5b50505050610f67565b6040516323f7197b60e01b81526001600160a01b038216906323f7197b90610f34908590600401613a35565b600060405180830381600087803b158015610f4e57600080fd5b505af1158015610f62573d6000803e3d6000fd5b505050505b7fce3ae2fe07e497ba552d6485a40eed46cfb3320f001027891efeb1128dba0350828960400151604051610f9c929190613a43565b60405180910390a16000898152600e60209081526040808320805460ff60881b1916905560119091528120610fd0916132ce565b50505b505b50611369565b60405163635e061d60e11b81526004810188905260009073b8A7B7E916f2D3F8cdd6a5a5276546dF6B7A362b9063c6bc0c3a90602401608060405180830381865af415801561102e573d6000803e3d6000fd5b505050506040513d601f19601f82011682018060405250810190611052919061398e565b505050905061106f816001600160401b0316838560600151612b12565b156113675760008681526010602090815260408220805460018181018355828552929093206001600160401b038516930192909255600a5482549196509003611365576110ba613298565b87815281546040805160208084028201810190925282815261111492909185919083018282801561110a57602002820191906000526020600020905b8154815260200190600101908083116110f6575b5050505050612ef9565b6020820152600754875160405163a1d54e9b60e01b815261ffff90911660048201526001600160a01b039091169063a1d54e9b90602401602060405180830381865afa158015611168573d6000803e3d6000fd5b505050506040513d601f19601f8201168201806040525081019061118c91906139e2565b81604001818152505060007f00000000000000000000000000000000000000000000000000000000000000006001600160a01b031662b127836040518163ffffffff1660e01b8152600401602060405180830381865afa1580156111f4573d6000803e3d6000fd5b505050506040513d601f19601f820116820180604052508101906112189190613891565b9050600088604001516003811115611232576112326133e8565b0361129a576040516361ba6c3d60e01b81526001600160a01b038216906361ba6c3d90611263908590600401613a35565b600060405180830381600087803b15801561127d57600080fd5b505af1158015611291573d6000803e3d6000fd5b505050506112f9565b604051637d490caf60e01b81526001600160a01b03821690637d490caf906112c6908590600401613a35565b600060405180830381600087803b1580156112e057600080fd5b505af11580156112f4573d6000803e3d6000fd5b505050505b7fce3ae2fe07e497ba552d6485a40eed46cfb3320f001027891efeb1128dba035082896040015160405161132e929190613a43565b60405180910390a16000898152600e60209081526040808320805460ff60881b1916905560109091528120611362916132ce565b50505b505b505b8351602080860151608080880151604080518e81529485018d90528481018790526001600160701b03909316606085015215159083015285151560a08301525161ffff90921691339188917fdc6ff5906123aad281d8e734bb64101cea661d614a568b9bca20e7ac2ae7f3549181900360c00190a45050505050505050565b6011602052816000526040600020818154811061140457600080fd5b6000918252602090912001546001600160401b038082169350600160401b820481169250600160801b8204811691600160c01b90041684565b60007f00000000000000000000000000000000000000000000000000000000000000006001600160a01b031663ec44acf26040518163ffffffff1660e01b8152600401602060405180830381865afa15801561149d573d6000803e3d6000fd5b505050506040513d601f19601f820116820180604052508101906114c19190613891565b6001600160a01b0316336001600160a01b0316146115105760405162461bcd60e51b815260206004820152600c60248201526b54524144494e475f4f4e4c5960a01b60448201526064016107ef565b6009805490600061152083613a5e565b9091555095945050505050565b7f00000000000000000000000000000000000000000000000000000000000000006001600160a01b03166312d43a516040518163ffffffff1660e01b8152600401602060405180830381865afa15801561158b573d6000803e3d6000fd5b505050506040513d601f19601f820116820180604052508101906115af9190613891565b6001600160a01b0316336001600160a01b0316146115df5760405162461bcd60e51b81526004016107ef906138ae565b60007f00000000000000000000000000000000000000000000000000000000000000006001600160a01b031663fece4eac6040518163ffffffff1660e01b8152600401602060405180830381865afa15801561163f573d6000803e3d6000fd5b505050506040513d601f19601f820116820180604052508101906116639190613891565b9050806001600160a01b031663a9059cbb7f00000000000000000000000000000000000000000000000000000000000000006001600160a01b03166312d43a516040518163ffffffff1660e01b8152600401602060405180830381865afa1580156116d2573d6000803e3d6000fd5b505050506040513d601f19601f820116820180604052508101906116f69190613891565b6040516370a0823160e01b81526001600160a01b038516906370a0823190611722903090600401613300565b602060405180830381865afa15801561173f573d6000803e3d6000fd5b505050506040513d601f19601f8201168201806040525081019061176391906139e2565b6040516001600160e01b031960e085901b1681526001600160a01b03909216600483015260248201526044016020604051808303816000875af11580156117ae573d6000803e3d6000fd5b505050506040513d601f19601f820116820180604052508101906117d29190613a77565b5050565b7f00000000000000000000000000000000000000000000000000000000000000006001600160a01b03166312d43a516040518163ffffffff1660e01b8152600401602060405180830381865afa158015611834573d6000803e3d6000fd5b505050506040513d601f19601f820116820180604052508101906118589190613891565b6001600160a01b0316336001600160a01b0316146118885760405162461bcd60e51b81526004016107ef906138ae565b806118a55760405162461bcd60e51b81526004016107ef906138d0565b600c8190556040805160008152602081018390527f764c19c693af0da42ec6c6bed68a2dd1a2fa93d24785fcfce58ffa29ae3136069101610869565b601060205281600052604060002081815481106118fd57600080fd5b90600052602060002001600091509150505481565b7f00000000000000000000000000000000000000000000000000000000000000006001600160a01b03166312d43a516040518163ffffffff1660e01b8152600401602060405180830381865afa158015611970573d6000803e3d6000fd5b505050506040513d601f19601f820116820180604052508101906119949190613891565b6001600160a01b0316336001600160a01b0316146119c45760405162461bcd60e51b81526004016107ef906138ae565b6001600160a01b0381166119ea5760405162461bcd60e51b81526004016107ef906138d0565b600b54601411611a2f5760405162461bcd60e51b815260206004820152601060248201526f4d41585f4f5241434c455f4e4f44455360801b60448201526064016107ef565b60005b600b54811015611abe57816001600160a01b0316600b8281548110611a5957611a596134a5565b6000918252602090912001546001600160a01b031603611aac5760405162461bcd60e51b815260206004820152600e60248201526d1053149150511657d31254d5115160921b60448201526064016107ef565b80611ab681613a5e565b915050611a32565b50600b80546001808201835560008390527f0175b7a638427703f0dbe7bb9bbf987a2551717b34e79f33b5b1008d1fa01db990910180546001600160a01b0319166001600160a01b03851617905590547fadfedad3d82b3775bf2dbea70a01327d1f26c0b868eb8ce0963a6e9af1003e8591611b3991613a99565b604080519182526001600160a01b038416602083015201610869565b7f00000000000000000000000000000000000000000000000000000000000000006001600160a01b03166312d43a516040518163ffffffff1660e01b8152600401602060405180830381865afa158015611bb3573d6000803e3d6000fd5b505050506040513d601f19601f82011682018060405250810190611bd79190613891565b6001600160a01b0316336001600160a01b031614611c075760405162461bcd60e51b81526004016107ef906138ae565b611c1081612fb7565b50565b600080600860009054906101000a90046001600160a01b03166001600160a01b031663feaf968c6040518163ffffffff1660e01b815260040160a060405180830381865afa158015611c69573d6000803e3d6000fd5b505050506040513d601f19601f82011682018060405250810190611c8d9190613ac6565b505060075460405163f7acbabd60e01b815260048101899052929450606493506402540be4009285925087916001600160a01b03169063f7acbabd90602401602060405180830381865afa158015611ce9573d6000803e3d6000fd5b505050506040513d601f19601f82011682018060405250810190611d0d91906139e2565b611d179190613773565b611d25906305f5e100613773565b611d2f919061378a565b611d39919061378a565b611d43919061378a565b9150505b92915050565b7f00000000000000000000000000000000000000000000000000000000000000006001600160a01b03166312d43a516040518163ffffffff1660e01b8152600401602060405180830381865afa158015611dab573d6000803e3d6000fd5b505050506040513d601f19601f82011682018060405250810190611dcf9190613891565b6001600160a01b0316336001600160a01b031614611dff5760405162461bcd60e51b81526004016107ef906138ae565b6001600160a01b038116611e255760405162461bcd60e51b81526004016107ef906138d0565b600880546001600160a01b0319166001600160a01b0383161790556040517f2504020720d4f3f4c5a7010cde1f1e76e9a22857f308ef695d666ed1237bf8a490610869908390613300565b7f00000000000000000000000000000000000000000000000000000000000000006001600160a01b03166312d43a516040518163ffffffff1660e01b8152600401602060405180830381865afa158015611ece573d6000803e3d6000fd5b505050506040513d601f19601f82011682018060405250810190611ef29190613891565b6001600160a01b0316336001600160a01b031614611f225760405162461bcd60e51b81526004016107ef906138ae565b611c1081613047565b7f00000000000000000000000000000000000000000000000000000000000000006001600160a01b03166312d43a516040518163ffffffff1660e01b8152600401602060405180830381865afa158015611f89573d6000803e3d6000fd5b505050506040513d601f19601f82011682018060405250810190611fad9190613891565b6001600160a01b0316336001600160a01b031614611fdd5760405162461bcd60e51b81526004016107ef906138ae565b80611ffa5760405162461bcd60e51b81526004016107ef906138d0565b600d8190556040805160018152602081018390527f764c19c693af0da42ec6c6bed68a2dd1a2fa93d24785fcfce58ffa29ae3136069101610869565b600754604051638251135b60e01b8152600481018390526000916001600160a01b031690638251135b90602401602060405180830381865afa158015612080573d6000803e3d6000fd5b505050506040513d601f19601f82011682018060405250810190611d4791906139e2565b7f00000000000000000000000000000000000000000000000000000000000000006001600160a01b03166312d43a516040518163ffffffff1660e01b8152600401602060405180830381865afa158015612102573d6000803e3d6000fd5b505050506040513d601f19601f820116820180604052508101906121269190613891565b6001600160a01b0316336001600160a01b0316146121565760405162461bcd60e51b81526004016107ef906138ae565b60038110156121955760405162461bcd60e51b815260206004820152600b60248201526a4d494e5f414e535745525360a81b60448201526064016107ef565b6121a0600282613b16565b6001146121d85760405162461bcd60e51b81526004016107ef9060208082526004908201526322ab22a760e11b604082015260600190565b600a8190556040518181527f230365d79885046a48c9158f0e4840ab95929bbebf5de4be23f7ce5f91a97c6590602001610869565b7f00000000000000000000000000000000000000000000000000000000000000006001600160a01b03166312d43a516040518163ffffffff1660e01b8152600401602060405180830381865afa15801561226b573d6000803e3d6000fd5b505050506040513d601f19601f8201168201806040525081019061228f9190613891565b6001600160a01b0316336001600160a01b0316146122bf5760405162461bcd60e51b81526004016107ef906138ae565b600b5482106122e05760405162461bcd60e51b81526004016107ef90613b2a565b6001600160a01b0381166123065760405162461bcd60e51b81526004016107ef906138d0565b7f945eb5535c35fb8b656c5c6b7d8bb9d9deba3a44d202bd2b53d58aac4f43db0482600b848154811061233b5761233b6134a5565b60009182526020918290200154604080519384526001600160a01b039182169284019290925284169082015260600160405180910390a180600b8381548110612386576123866134a5565b9060005260206000200160006101000a8154816001600160a01b0302191690836001600160a01b031602179055505050565b7f00000000000000000000000000000000000000000000000000000000000000006001600160a01b03166312d43a516040518163ffffffff1660e01b8152600401602060405180830381865afa158015612416573d6000803e3d6000fd5b505050506040513d601f19601f8201168201806040525081019061243a9190613891565b6001600160a01b0316336001600160a01b03161461246a5760405162461bcd60e51b81526004016107ef906138ae565b600b54811061248b5760405162461bcd60e51b81526004016107ef90613b2a565b7f03082ced7b8d3c831a021af877c172ae1e0257c3522a135e4d7161343846115681600b83815481106124c0576124c06134a5565b6000918252602090912001546040516124f592916001600160a01b0316909182526001600160a01b0316602082015260400190565b60405180910390a1600b805461250d90600190613a99565b8154811061251d5761251d6134a5565b600091825260209091200154600b80546001600160a01b039092169183908110612549576125496134a5565b9060005260206000200160006101000a8154816001600160a01b0302191690836001600160a01b03160217905550600b80548061258857612588613b4f565b600082815260209020810160001990810180546001600160a01b031916905501905550565b60008060008360020b126125c4578260020b6125cc565b8260020b6000035b9050620d89e88111156125f2576040516315e4079d60e11b815260040160405180910390fd5b60008160011660000361260957600160801b61261b565b6ffffcb933bd6fad37aa2d162d1a5940015b6001600160881b031690506002821615612645576ffff97272373d413259a46990580e213a0260801c5b6004821615612664576ffff2e50f5f656932ef12357cf3c7fdcc0260801c5b6008821615612683576fffe5caca7e10e4e61c3624eaa0941cd00260801c5b60108216156126a2576fffcb9843d60f6159c9db58835c9266440260801c5b60208216156126c1576fff973b41fa98c081472e6896dfb254c00260801c5b60408216156126e0576fff2ea16466c96a3843ec78b326b528610260801c5b60808216156126ff576ffe5dee046a99a2a811c461f1969c30530260801c5b61010082161561271f576ffcbe86c7900a88aedcffc83b479aa3a40260801c5b61020082161561273f576ff987a7253ac413176f2b074cf7815e540260801c5b61040082161561275f576ff3392b0822b70005940c7a398e4b70f30260801c5b61080082161561277f576fe7159475a2c29b7443b29c7fa6e889d90260801c5b61100082161561279f576fd097f3bdfd2022b8845ad8f792aa58250260801c5b6120008216156127bf576fa9f746462d870fdf8a65dc1f90e061e50260801c5b6140008216156127df576f70d869a156d2a1b890bb3df62baf32f70260801c5b6180008216156127ff576f31be135f97d08fd981231505542fcfa60260801c5b62010000821615612820576f09aa508b5b7a84e1c677de54f3e99bc90260801c5b62020000821615612840576e5d6af8dedb81196699c329225ee6040260801c5b6204000082161561285f576d2216e584f5fa1ea926041bedfe980260801c5b6208000082161561287c576b048a170391f7dc42444e8fa20260801c5b60008460020b131561289d578060001981612899576128996136da565b0490505b6401000000008106156128b15760016128b4565b60005b60ff16602082901c0192505050919050565b60008080600019858709858702925082811083820303915050806000036128ff57600084116128f457600080fd5b508290049050612972565b80841161290b57600080fd5b6000848688096000868103871696879004966002600389028118808a02820302808a02820302808a02820302808a02820302808a02820302808a02909103029181900381900460010186841190950394909402919094039290920491909117919091029150505b9392505050565b80516000906001600160a01b031661299357506000919050565b60008083600001516001600160a01b031663feaf968c6040518163ffffffff1660e01b815260040160a060405180830381865afa1580156129d8573d6000803e3d6000fd5b505050506040513d601f19601f820116820180604052508101906129fc9190613ac6565b5091935060009250612a0c915050565b84604001516002811115612a2257612a226133e8565b03612a4c576305f5e100612a3b6402540be40083613b65565b612a459190613b95565b9150612b0b565b600184604001516002811115612a6457612a646133e8565b03612a7d5780612a3b6402540be4006305f5e100613b65565b600084602001516001600160a01b031663feaf968c6040518163ffffffff1660e01b815260040160a060405180830381865afa158015612ac1573d6000803e3d6000fd5b505050506040513d601f19601f82011682018060405250810190612ae59190613ac6565b505050915050806402540be40083612afd9190613b65565b612b079190613b95565b9250505b5092915050565b6000831580612b1f575082155b80612b70575081836402540be40085871015612b4457612b3f8787613a99565b612b4e565b612b4e8688613a99565b612b589190613773565b612b63906064613773565b612b6d919061378a565b11155b949350505050565b600080600080845190506000816001600160401b03811115612b9c57612b9c61348f565b604051908082528060200260200182016040528015612bc5578160200160208202803683370190505b5090506000826001600160401b03811115612be257612be261348f565b604051908082528060200260200182016040528015612c0b578160200160208202803683370190505b5090506000836001600160401b03811115612c2857612c2861348f565b604051908082528060200260200182016040528015612c51578160200160208202803683370190505b50905060005b84811015612d3557888181518110612c7157612c716134a5565b6020026020010151600001516001600160401b0316848281518110612c9857612c986134a5565b602002602001018181525050888181518110612cb657612cb66134a5565b6020026020010151602001516001600160401b0316838281518110612cdd57612cdd6134a5565b602002602001018181525050888181518110612cfb57612cfb6134a5565b6020026020010151604001516001600160401b0316828281518110612d2257612d226134a5565b6020908102919091010152600101612c57565b50612d4283600086613162565b612d4e82600086613162565b612d5a81600086613162565b6000612d67600286613b16565b1590506000612d7760028761378a565b905081612d9d57848181518110612d9057612d906134a5565b6020026020010151612df3565b6002858281518110612db157612db16134a5565b602002602001015186600184612dc79190613a99565b81518110612dd757612dd76134a5565b6020026020010151612de99190613bc3565b612df3919061378a565b985081612e1957838181518110612e0c57612e0c6134a5565b6020026020010151612e6f565b6002848281518110612e2d57612e2d6134a5565b602002602001015185600184612e439190613a99565b81518110612e5357612e536134a5565b6020026020010151612e659190613bc3565b612e6f919061378a565b975081612e9557828181518110612e8857612e886134a5565b6020026020010151612eeb565b6002838281518110612ea957612ea96134a5565b602002602001015184600184612ebf9190613a99565b81518110612ecf57612ecf6134a5565b6020026020010151612ee19190613bc3565b612eeb919061378a565b989a97995050505050505050565b6000612f088260008451613162565b60028251612f169190613b16565b15612f47578160028351612f2a919061378a565b81518110612f3a57612f3a6134a5565b6020026020010151611d47565b60028260028451612f58919061378a565b81518110612f6857612f686134a5565b602002602001015183600160028651612f81919061378a565b612f8b9190613a99565b81518110612f9b57612f9b6134a5565b6020026020010151612fad9190613bc3565b611d47919061378a565b61070863ffffffff821610801590612fd7575061384063ffffffff821611155b612ff35760405162461bcd60e51b81526004016107ef90613bd6565b6006805463ffffffff60a01b1916600160a01b63ffffffff8416908102919091179091556040519081527fc99f383ecd620c333255bd2aef929eedd6808999bac9bfc5f53e10d876abf1ce90602001610869565b6001600160a01b03811661306d5760405162461bcd60e51b81526004016107ef90613bd6565b600680546001600160a01b0319166001600160a01b0383811691821790925560408051630dfe168160e01b815290517f000000000000000000000000000000000000000000000000000000000000000090931692630dfe1681916004808201926020929091908290030181865afa1580156130ec573d6000803e3d6000fd5b505050506040513d601f19601f820116820180604052508101906131109190613891565b6001600160a01b031614600660186101000a81548160ff0219169083151502179055507fb9c36e5afdbe55e259bdc128e25c13a15f33271cc71599ce0df510b21c3e8da9816040516108699190613300565b80821061316e57505050565b60008290506000848281518110613187576131876134a5565b6020026020010151905060008460016131a09190613bc3565b90505b838110156131f257818682815181106131be576131be6134a5565b602002602001015110156131e2576131e286826131da86613a5e565b955085613225565b6131eb81613a5e565b90506131a3565b506131fe858584613225565b613209858584613162565b61321e85613218846001613bc3565b85613162565b5050505050565b828181518110613237576132376134a5565b6020026020010151838381518110613251576132516134a5565b602002602001015184848151811061326b5761326b6134a5565b60200260200101858481518110613284576132846134a5565b602090810291909101019190915252505050565b6040518060c001604052806000815260200160008152602001600081526020016000815260200160008152602001600081525090565b5080546000825590600052602060002090810190611c1091905b808211156132fc57600081556001016132e8565b5090565b6001600160a01b0391909116815260200190565b60006020828403121561332657600080fd5b5035919050565b6001600160a01b0381168114611c1057600080fd5b60006020828403121561335457600080fd5b81356129728161332d565b6000806040838503121561337257600080fd5b50508035926020909101359150565b6000806000806080858703121561339757600080fd5b843593506020850135600481106133ad57600080fd5b93969395505050506040820135916060013590565b6000602082840312156133d457600080fd5b813563ffffffff8116811461297257600080fd5b634e487b7160e01b600052602160045260246000fd5b6004811061341c57634e487b7160e01b600052602160045260246000fd5b9052565b61ffff861681526001600160701b038516602082015260a0810161344760408301866133fe565b92151560608201529015156080909101529392505050565b6000806040838503121561347257600080fd5b8235915060208301356134848161332d565b809150509250929050565b634e487b7160e01b600052604160045260246000fd5b634e487b7160e01b600052603260045260246000fd5b6020808252825182820181905260009190848201906040850190845b818110156134f957835163ffffffff16835292840192918401916001016134d7565b50909695505050505050565b604051601f8201601f191681016001600160401b038111828210171561352d5761352d61348f565b604052919050565b60006001600160401b0382111561354e5761354e61348f565b5060051b60200190565b600082601f83011261356957600080fd5b8151602061357e61357983613535565b613505565b82815260059290921b8401810191818101908684111561359d57600080fd5b8286015b848110156135c15780516135b48161332d565b83529183019183016135a1565b509695505050505050565b600080604083850312156135df57600080fd5b82516001600160401b03808211156135f657600080fd5b818501915085601f83011261360a57600080fd5b8151602061361a61357983613535565b82815260059290921b8401810191818101908984111561363957600080fd5b948201945b838610156136675785518060060b81146136585760008081fd5b8252948201949082019061363e565b9188015191965090935050508082111561368057600080fd5b5061368d85828601613558565b9150509250929050565b634e487b7160e01b600052601160045260246000fd5b600682810b9082900b03667fffffffffffff198112667fffffffffffff82131715611d4757611d47613697565b634e487b7160e01b600052601260045260246000fd5b60008160060b8360060b80613707576137076136da565b667fffffffffffff1982146000198214161561372557613725613697565b90059392505050565b60008260060b80613741576137416136da565b808360060b0791505092915050565b60008160020b627fffff19810361376957613769613697565b6000190192915050565b8082028115828204841417611d4757611d47613697565b600082613799576137996136da565b500490565b600181815b808511156137d95781600019048211156137bf576137bf613697565b808516156137cc57918102915b93841c93908002906137a3565b509250929050565b6000826137f057506001611d47565b816137fd57506000611d47565b8160018114613813576002811461381d57613839565b6001915050611d47565b60ff84111561382e5761382e613697565b50506001821b611d47565b5060208310610133831016604e8410600b841016171561385c575081810a611d47565b613866838361379e565b806000190482111561387a5761387a613697565b029392505050565b600061297260ff8416836137e1565b6000602082840312156138a357600080fd5b81516129728161332d565b602080825260089082015267474f565f4f4e4c5960c01b604082015260600190565b602080825260079082015266056414c55455f360cc1b604082015260600190565b60006080828403121561390357600080fd5b604051608081018181106001600160401b03821117156139255761392561348f565b60405282516139338161332d565b815260208301516139438161332d565b602082015260408301516003811061395a57600080fd5b60408201526060928301519281019290925250919050565b80516001600160401b038116811461398957600080fd5b919050565b600080600080608085870312156139a457600080fd5b6139ad85613972565b93506139bb60208601613972565b92506139c960408601613972565b91506139d760608601613972565b905092959194509250565b6000602082840312156139f457600080fd5b5051919050565b805182526020810151602083015260408101516040830152606081015160608301526080810151608083015260a081015160a08301525050565b60c08101611d4782846139fb565b60e08101613a5182856139fb565b61297260c08301846133fe565b600060018201613a7057613a70613697565b5060010190565b600060208284031215613a8957600080fd5b8151801515811461297257600080fd5b81810381811115611d4757611d47613697565b805169ffffffffffffffffffff8116811461398957600080fd5b600080600080600060a08688031215613ade57600080fd5b613ae786613aac565b9450602086015193506040860151925060608601519150613b0a60808701613aac565b90509295509295909350565b600082613b2557613b256136da565b500690565b6020808252600b908201526a0aea49e9c8ebe929c888ab60ab1b604082015260600190565b634e487b7160e01b600052603160045260246000fd5b80820260008212600160ff1b84141615613b8157613b81613697565b8181058314821517611d4757611d47613697565b600082613ba457613ba46136da565b600160ff1b821460001984141615613bbe57613bbe613697565b500590565b80820180821115611d4757611d47613697565b6020808252600b908201526a57524f4e475f56414c554560a81b60408201526060019056fea2646970667358221220288f4e6038ae531b0674967e043a1c23ab5e97b067fd7e959f88cee7d522abb464736f6c63430008110033",
  "deployedBytecode": "0x608060405234801561001057600080fd5b50600436106101995760003560e01c806393d7fe2c116100e4578063da4ae8ef11610092578063da4ae8ef1461040a578063dcdfb4311461041d578063e0bb91c21461043d578063e21e5fe014610450578063f5ed447c14610463578063fc0c546a14610476578063fd2882801461049d578063ffd740df146104b057600080fd5b806393d7fe2c1461033c5780639d95f1cc1461034f578063a500775e14610362578063a85c38ef14610375578063b9e0336f146103db578063bea16758146103ee578063d31273ca146103f757600080fd5b806340e9eda21161014c57806340e9eda21461027a5780634162cc881461028f5780634357855e146102a25780634c37a9d6146102b55780636938c05d146102fb5780636c83b3d71461030e5780636f37d2631461032157806385f276b81461032957600080fd5b8062912b371461019e57806303f39a16146101c757806316fff074146101eb5780631c53c28014610212578063290702e51461022557806335b03c171461023b5780633c1d5df01461024e575b600080fd5b6008546101b1906001600160a01b031681565b6040516101be9190613300565b60405180910390f35b6006546101db90600160c01b900460ff1681565b60405190151581526020016101be565b6101b17f000000000000000000000000000000000000000000000000000000000000000081565b6101b1610220366004613314565b6104c3565b61022d6104ed565b6040519081526020016101be565b6007546101b1906001600160a01b031681565b60065461026590600160a01b900463ffffffff1681565b60405163ffffffff90911681526020016101be565b61028d610288366004613342565b61073d565b005b61022d61029d366004613314565b610874565b61028d6102b036600461335f565b61088b565b6102c86102c336600461335f565b6113e8565b604080516001600160401b03958616815293851660208501529184169183019190915290911660608201526080016101be565b61022d610309366004613381565b61143d565b6006546101b1906001600160a01b031681565b61028d61152d565b61028d610337366004613314565b6117d6565b61022d61034a36600461335f565b6118e1565b61028d61035d366004613342565b611912565b61028d6103703660046133c2565b611b55565b6103ca610383366004613314565b600e6020526000908152604090205461ffff8116906001600160701b03620100008204169060ff600160801b8204811691600160881b8104821691600160901b9091041685565b6040516101be959493929190613420565b61022d6103e936600461335f565b611c13565b61022d600a5481565b61028d610405366004613342565b611d4d565b61028d610418366004613342565b611e70565b61022d61042b366004613314565b600f6020526000908152604090205481565b61028d61044b366004613314565b611f2b565b61022d61045e366004613314565b612036565b61028d610471366004613314565b6120a4565b6101b17f000000000000000000000000000000000000000000000000000000000000000081565b61028d6104ab36600461345f565b61220d565b61028d6104be366004613314565b6123b8565b600b81815481106104d357600080fd5b6000918252602090912001546001600160a01b0316905081565b60408051600280825260608201835260009283929190602083019080368337019050509050600660149054906101000a900463ffffffff1681600081518110610538576105386134a5565b602002602001019063ffffffff16908163ffffffff1681525050600081600181518110610567576105676134a5565b63ffffffff9092166020928302919091019091015260065460405163883bdbfd60e01b81526000916001600160a01b03169063883bdbfd906105ad9085906004016134bb565b600060405180830381865afa1580156105ca573d6000803e3d6000fd5b505050506040513d6000823e601f3d908101601f191682016040526105f291908101906135cc565b50905060008160008151811061060a5761060a6134a5565b602002602001015182600181518110610625576106256134a5565b602002602001015161063791906136ad565b600654909150600160a01b900463ffffffff1660030b600061065982846136f0565b905060008360060b1280156106795750610673828461372e565b60060b15155b1561068c578061068881613750565b9150505b6000610697826125ad565b9050600160601b7f00000000000000000000000000000000000000000000000000000000000000006106d36001600160a01b03841680846128c6565b6106dd9190613773565b6106e7919061378a565b600654909750600160c01b900460ff16610734578661072760027f0000000000000000000000000000000000000000000000000000000000000000613882565b610731919061378a565b96505b50505050505090565b7f00000000000000000000000000000000000000000000000000000000000000006001600160a01b03166312d43a516040518163ffffffff1660e01b8152600401602060405180830381865afa15801561079b573d6000803e3d6000fd5b505050506040513d601f19601f820116820180604052508101906107bf9190613891565b6001600160a01b0316336001600160a01b0316146107f85760405162461bcd60e51b81526004016107ef906138ae565b60405180910390fd5b6001600160a01b03811661081e5760405162461bcd60e51b81526004016107ef906138d0565b600780546001600160a01b0319166001600160a01b0383161790556040517f477e87af277e7755f85267ef7c6b77cd28610c2c8c2923acdf55fa5b63f18b7790610869908390613300565b60405180910390a150565b600c816002811061088457600080fd5b0154905081565b60008281526005602052604090205482906001600160a01b031633146109045760405162461bcd60e51b815260206004820152602860248201527f536f75726365206d75737420626520746865206f7261636c65206f6620746865604482015267081c995c5d595cdd60c21b60648201526084016107ef565b60008181526005602052604080822080546001600160a01b03191690555182917f7cc135e0cebb02c3480ae5d74d377283180a2601f8f644edf7987b009316c63a91a26000838152600f60209081526040808320805490849055808452600e8352818420825160a081018452815461ffff811682526201000081046001600160701b0316958201959095529194939192909190830190600160801b900460ff1660038111156109b5576109b56133e8565b60038111156109c6576109c66133e8565b8152905460ff600160881b8204811615156020840152600160901b909104161515604091820152600754825191516307aa801760e21b815261ffff909216600483015291925060009182916001600160a01b0390911690631eaa005c90602401608060405180830381865afa158015610a43573d6000803e3d6000fd5b505050506040513d601f19601f82011682018060405250810190610a6791906138f1565b90506000610a7482612979565b905083606001511561136957836080015115610fdb57604080516080810182526000808252602082018190528183018190526060820152905163635e061d60e11b81526004810189905273__$0a787ca790b72760fa5f2fae68e461a66f$__9063c6bc0c3a90602401608060405180830381865af4158015610afa573d6000803e3d6000fd5b505050506040513d601f19601f82011682018060405250810190610b1e919061398e565b6001600160401b03908116606086015290811660408501529081166020840181905291168252158015610b5c575060408101516001600160401b0316155b80610bbf575080600001516001600160401b031681602001516001600160401b031610158015610ba6575080600001516001600160401b031681604001516001600160401b031611155b8015610bbf5750600081604001516001600160401b0316115b610bfc5760405162461bcd60e51b815260206004820152600e60248201526d494e56414c49445f43414e444c4560901b60448201526064016107ef565b610c1881602001516001600160401b0316838560600151612b12565b8015610c3b5750610c3b81604001516001600160401b0316838560600151612b12565b15610fd557600086815260116020908152604080832080546001818101835582865294849020865191018054948701519387015160608801516001600160401b03908116600160c01b026001600160c01b03928216600160801b02929092166001600160801b03968216600160401b026001600160801b03199098169190941617959095179390931617929092179055600a548154929650909103610fd357610ce2613298565b878152815460408051602080840282018101909252828152610d7892909185919060009084015b82821015610d6f57600084815260209081902060408051608081018252918501546001600160401b038082168452600160401b8204811684860152600160801b8204811692840192909252600160c01b9004166060820152825260019092019101610d09565b50505050612b78565b60a084015260808301526060820152600754875160405163a1d54e9b60e01b815261ffff90911660048201526001600160a01b039091169063a1d54e9b90602401602060405180830381865afa158015610dd6573d6000803e3d6000fd5b505050506040513d601f19601f82011682018060405250810190610dfa91906139e2565b81604001818152505060007f00000000000000000000000000000000000000000000000000000000000000006001600160a01b031662b127836040518163ffffffff1660e01b8152600401602060405180830381865afa158015610e62573d6000803e3d6000fd5b505050506040513d601f19601f82011682018060405250810190610e869190613891565b9050600288604001516003811115610ea057610ea06133e8565b03610f085760405163168fdc8160e31b81526001600160a01b0382169063b47ee40890610ed1908590600401613a35565b600060405180830381600087803b158015610eeb57600080fd5b505af1158015610eff573d6000803e3d6000fd5b50505050610f67565b6040516323f7197b60e01b81526001600160a01b038216906323f7197b90610f34908590600401613a35565b600060405180830381600087803b158015610f4e57600080fd5b505af1158015610f62573d6000803e3d6000fd5b505050505b7fce3ae2fe07e497ba552d6485a40eed46cfb3320f001027891efeb1128dba0350828960400151604051610f9c929190613a43565b60405180910390a16000898152600e60209081526040808320805460ff60881b1916905560119091528120610fd0916132ce565b50505b505b50611369565b60405163635e061d60e11b81526004810188905260009073__$0a787ca790b72760fa5f2fae68e461a66f$__9063c6bc0c3a90602401608060405180830381865af415801561102e573d6000803e3d6000fd5b505050506040513d601f19601f82011682018060405250810190611052919061398e565b505050905061106f816001600160401b0316838560600151612b12565b156113675760008681526010602090815260408220805460018181018355828552929093206001600160401b038516930192909255600a5482549196509003611365576110ba613298565b87815281546040805160208084028201810190925282815261111492909185919083018282801561110a57602002820191906000526020600020905b8154815260200190600101908083116110f6575b5050505050612ef9565b6020820152600754875160405163a1d54e9b60e01b815261ffff90911660048201526001600160a01b039091169063a1d54e9b90602401602060405180830381865afa158015611168573d6000803e3d6000fd5b505050506040513d601f19601f8201168201806040525081019061118c91906139e2565b81604001818152505060007f00000000000000000000000000000000000000000000000000000000000000006001600160a01b031662b127836040518163ffffffff1660e01b8152600401602060405180830381865afa1580156111f4573d6000803e3d6000fd5b505050506040513d601f19601f820116820180604052508101906112189190613891565b9050600088604001516003811115611232576112326133e8565b0361129a576040516361ba6c3d60e01b81526001600160a01b038216906361ba6c3d90611263908590600401613a35565b600060405180830381600087803b15801561127d57600080fd5b505af1158015611291573d6000803e3d6000fd5b505050506112f9565b604051637d490caf60e01b81526001600160a01b03821690637d490caf906112c6908590600401613a35565b600060405180830381600087803b1580156112e057600080fd5b505af11580156112f4573d6000803e3d6000fd5b505050505b7fce3ae2fe07e497ba552d6485a40eed46cfb3320f001027891efeb1128dba035082896040015160405161132e929190613a43565b60405180910390a16000898152600e60209081526040808320805460ff60881b1916905560109091528120611362916132ce565b50505b505b505b8351602080860151608080880151604080518e81529485018d90528481018790526001600160701b03909316606085015215159083015285151560a08301525161ffff90921691339188917fdc6ff5906123aad281d8e734bb64101cea661d614a568b9bca20e7ac2ae7f3549181900360c00190a45050505050505050565b6011602052816000526040600020818154811061140457600080fd5b6000918252602090912001546001600160401b038082169350600160401b820481169250600160801b8204811691600160c01b90041684565b60007f00000000000000000000000000000000000000000000000000000000000000006001600160a01b031663ec44acf26040518163ffffffff1660e01b8152600401602060405180830381865afa15801561149d573d6000803e3d6000fd5b505050506040513d601f19601f820116820180604052508101906114c19190613891565b6001600160a01b0316336001600160a01b0316146115105760405162461bcd60e51b815260206004820152600c60248201526b54524144494e475f4f4e4c5960a01b60448201526064016107ef565b6009805490600061152083613a5e565b9091555095945050505050565b7f00000000000000000000000000000000000000000000000000000000000000006001600160a01b03166312d43a516040518163ffffffff1660e01b8152600401602060405180830381865afa15801561158b573d6000803e3d6000fd5b505050506040513d601f19601f820116820180604052508101906115af9190613891565b6001600160a01b0316336001600160a01b0316146115df5760405162461bcd60e51b81526004016107ef906138ae565b60007f00000000000000000000000000000000000000000000000000000000000000006001600160a01b031663fece4eac6040518163ffffffff1660e01b8152600401602060405180830381865afa15801561163f573d6000803e3d6000fd5b505050506040513d601f19601f820116820180604052508101906116639190613891565b9050806001600160a01b031663a9059cbb7f00000000000000000000000000000000000000000000000000000000000000006001600160a01b03166312d43a516040518163ffffffff1660e01b8152600401602060405180830381865afa1580156116d2573d6000803e3d6000fd5b505050506040513d601f19601f820116820180604052508101906116f69190613891565b6040516370a0823160e01b81526001600160a01b038516906370a0823190611722903090600401613300565b602060405180830381865afa15801561173f573d6000803e3d6000fd5b505050506040513d601f19601f8201168201806040525081019061176391906139e2565b6040516001600160e01b031960e085901b1681526001600160a01b03909216600483015260248201526044016020604051808303816000875af11580156117ae573d6000803e3d6000fd5b505050506040513d601f19601f820116820180604052508101906117d29190613a77565b5050565b7f00000000000000000000000000000000000000000000000000000000000000006001600160a01b03166312d43a516040518163ffffffff1660e01b8152600401602060405180830381865afa158015611834573d6000803e3d6000fd5b505050506040513d601f19601f820116820180604052508101906118589190613891565b6001600160a01b0316336001600160a01b0316146118885760405162461bcd60e51b81526004016107ef906138ae565b806118a55760405162461bcd60e51b81526004016107ef906138d0565b600c8190556040805160008152602081018390527f764c19c693af0da42ec6c6bed68a2dd1a2fa93d24785fcfce58ffa29ae3136069101610869565b601060205281600052604060002081815481106118fd57600080fd5b90600052602060002001600091509150505481565b7f00000000000000000000000000000000000000000000000000000000000000006001600160a01b03166312d43a516040518163ffffffff1660e01b8152600401602060405180830381865afa158015611970573d6000803e3d6000fd5b505050506040513d601f19601f820116820180604052508101906119949190613891565b6001600160a01b0316336001600160a01b0316146119c45760405162461bcd60e51b81526004016107ef906138ae565b6001600160a01b0381166119ea5760405162461bcd60e51b81526004016107ef906138d0565b600b54601411611a2f5760405162461bcd60e51b815260206004820152601060248201526f4d41585f4f5241434c455f4e4f44455360801b60448201526064016107ef565b60005b600b54811015611abe57816001600160a01b0316600b8281548110611a5957611a596134a5565b6000918252602090912001546001600160a01b031603611aac5760405162461bcd60e51b815260206004820152600e60248201526d1053149150511657d31254d5115160921b60448201526064016107ef565b80611ab681613a5e565b915050611a32565b50600b80546001808201835560008390527f0175b7a638427703f0dbe7bb9bbf987a2551717b34e79f33b5b1008d1fa01db990910180546001600160a01b0319166001600160a01b03851617905590547fadfedad3d82b3775bf2dbea70a01327d1f26c0b868eb8ce0963a6e9af1003e8591611b3991613a99565b604080519182526001600160a01b038416602083015201610869565b7f00000000000000000000000000000000000000000000000000000000000000006001600160a01b03166312d43a516040518163ffffffff1660e01b8152600401602060405180830381865afa158015611bb3573d6000803e3d6000fd5b505050506040513d601f19601f82011682018060405250810190611bd79190613891565b6001600160a01b0316336001600160a01b031614611c075760405162461bcd60e51b81526004016107ef906138ae565b611c1081612fb7565b50565b600080600860009054906101000a90046001600160a01b03166001600160a01b031663feaf968c6040518163ffffffff1660e01b815260040160a060405180830381865afa158015611c69573d6000803e3d6000fd5b505050506040513d601f19601f82011682018060405250810190611c8d9190613ac6565b505060075460405163f7acbabd60e01b815260048101899052929450606493506402540be4009285925087916001600160a01b03169063f7acbabd90602401602060405180830381865afa158015611ce9573d6000803e3d6000fd5b505050506040513d601f19601f82011682018060405250810190611d0d91906139e2565b611d179190613773565b611d25906305f5e100613773565b611d2f919061378a565b611d39919061378a565b611d43919061378a565b9150505b92915050565b7f00000000000000000000000000000000000000000000000000000000000000006001600160a01b03166312d43a516040518163ffffffff1660e01b8152600401602060405180830381865afa158015611dab573d6000803e3d6000fd5b505050506040513d601f19601f82011682018060405250810190611dcf9190613891565b6001600160a01b0316336001600160a01b031614611dff5760405162461bcd60e51b81526004016107ef906138ae565b6001600160a01b038116611e255760405162461bcd60e51b81526004016107ef906138d0565b600880546001600160a01b0319166001600160a01b0383161790556040517f2504020720d4f3f4c5a7010cde1f1e76e9a22857f308ef695d666ed1237bf8a490610869908390613300565b7f00000000000000000000000000000000000000000000000000000000000000006001600160a01b03166312d43a516040518163ffffffff1660e01b8152600401602060405180830381865afa158015611ece573d6000803e3d6000fd5b505050506040513d601f19601f82011682018060405250810190611ef29190613891565b6001600160a01b0316336001600160a01b031614611f225760405162461bcd60e51b81526004016107ef906138ae565b611c1081613047565b7f00000000000000000000000000000000000000000000000000000000000000006001600160a01b03166312d43a516040518163ffffffff1660e01b8152600401602060405180830381865afa158015611f89573d6000803e3d6000fd5b505050506040513d601f19601f82011682018060405250810190611fad9190613891565b6001600160a01b0316336001600160a01b031614611fdd5760405162461bcd60e51b81526004016107ef906138ae565b80611ffa5760405162461bcd60e51b81526004016107ef906138d0565b600d8190556040805160018152602081018390527f764c19c693af0da42ec6c6bed68a2dd1a2fa93d24785fcfce58ffa29ae3136069101610869565b600754604051638251135b60e01b8152600481018390526000916001600160a01b031690638251135b90602401602060405180830381865afa158015612080573d6000803e3d6000fd5b505050506040513d601f19601f82011682018060405250810190611d4791906139e2565b7f00000000000000000000000000000000000000000000000000000000000000006001600160a01b03166312d43a516040518163ffffffff1660e01b8152600401602060405180830381865afa158015612102573d6000803e3d6000fd5b505050506040513d601f19601f820116820180604052508101906121269190613891565b6001600160a01b0316336001600160a01b0316146121565760405162461bcd60e51b81526004016107ef906138ae565b60038110156121955760405162461bcd60e51b815260206004820152600b60248201526a4d494e5f414e535745525360a81b60448201526064016107ef565b6121a0600282613b16565b6001146121d85760405162461bcd60e51b81526004016107ef9060208082526004908201526322ab22a760e11b604082015260600190565b600a8190556040518181527f230365d79885046a48c9158f0e4840ab95929bbebf5de4be23f7ce5f91a97c6590602001610869565b7f00000000000000000000000000000000000000000000000000000000000000006001600160a01b03166312d43a516040518163ffffffff1660e01b8152600401602060405180830381865afa15801561226b573d6000803e3d6000fd5b505050506040513d601f19601f8201168201806040525081019061228f9190613891565b6001600160a01b0316336001600160a01b0316146122bf5760405162461bcd60e51b81526004016107ef906138ae565b600b5482106122e05760405162461bcd60e51b81526004016107ef90613b2a565b6001600160a01b0381166123065760405162461bcd60e51b81526004016107ef906138d0565b7f945eb5535c35fb8b656c5c6b7d8bb9d9deba3a44d202bd2b53d58aac4f43db0482600b848154811061233b5761233b6134a5565b60009182526020918290200154604080519384526001600160a01b039182169284019290925284169082015260600160405180910390a180600b8381548110612386576123866134a5565b9060005260206000200160006101000a8154816001600160a01b0302191690836001600160a01b031602179055505050565b7f00000000000000000000000000000000000000000000000000000000000000006001600160a01b03166312d43a516040518163ffffffff1660e01b8152600401602060405180830381865afa158015612416573d6000803e3d6000fd5b505050506040513d601f19601f8201168201806040525081019061243a9190613891565b6001600160a01b0316336001600160a01b03161461246a5760405162461bcd60e51b81526004016107ef906138ae565b600b54811061248b5760405162461bcd60e51b81526004016107ef90613b2a565b7f03082ced7b8d3c831a021af877c172ae1e0257c3522a135e4d7161343846115681600b83815481106124c0576124c06134a5565b6000918252602090912001546040516124f592916001600160a01b0316909182526001600160a01b0316602082015260400190565b60405180910390a1600b805461250d90600190613a99565b8154811061251d5761251d6134a5565b600091825260209091200154600b80546001600160a01b039092169183908110612549576125496134a5565b9060005260206000200160006101000a8154816001600160a01b0302191690836001600160a01b03160217905550600b80548061258857612588613b4f565b600082815260209020810160001990810180546001600160a01b031916905501905550565b60008060008360020b126125c4578260020b6125cc565b8260020b6000035b9050620d89e88111156125f2576040516315e4079d60e11b815260040160405180910390fd5b60008160011660000361260957600160801b61261b565b6ffffcb933bd6fad37aa2d162d1a5940015b6001600160881b031690506002821615612645576ffff97272373d413259a46990580e213a0260801c5b6004821615612664576ffff2e50f5f656932ef12357cf3c7fdcc0260801c5b6008821615612683576fffe5caca7e10e4e61c3624eaa0941cd00260801c5b60108216156126a2576fffcb9843d60f6159c9db58835c9266440260801c5b60208216156126c1576fff973b41fa98c081472e6896dfb254c00260801c5b60408216156126e0576fff2ea16466c96a3843ec78b326b528610260801c5b60808216156126ff576ffe5dee046a99a2a811c461f1969c30530260801c5b61010082161561271f576ffcbe86c7900a88aedcffc83b479aa3a40260801c5b61020082161561273f576ff987a7253ac413176f2b074cf7815e540260801c5b61040082161561275f576ff3392b0822b70005940c7a398e4b70f30260801c5b61080082161561277f576fe7159475a2c29b7443b29c7fa6e889d90260801c5b61100082161561279f576fd097f3bdfd2022b8845ad8f792aa58250260801c5b6120008216156127bf576fa9f746462d870fdf8a65dc1f90e061e50260801c5b6140008216156127df576f70d869a156d2a1b890bb3df62baf32f70260801c5b6180008216156127ff576f31be135f97d08fd981231505542fcfa60260801c5b62010000821615612820576f09aa508b5b7a84e1c677de54f3e99bc90260801c5b62020000821615612840576e5d6af8dedb81196699c329225ee6040260801c5b6204000082161561285f576d2216e584f5fa1ea926041bedfe980260801c5b6208000082161561287c576b048a170391f7dc42444e8fa20260801c5b60008460020b131561289d578060001981612899576128996136da565b0490505b6401000000008106156128b15760016128b4565b60005b60ff16602082901c0192505050919050565b60008080600019858709858702925082811083820303915050806000036128ff57600084116128f457600080fd5b508290049050612972565b80841161290b57600080fd5b6000848688096000868103871696879004966002600389028118808a02820302808a02820302808a02820302808a02820302808a02820302808a02909103029181900381900460010186841190950394909402919094039290920491909117919091029150505b9392505050565b80516000906001600160a01b031661299357506000919050565b60008083600001516001600160a01b031663feaf968c6040518163ffffffff1660e01b815260040160a060405180830381865afa1580156129d8573d6000803e3d6000fd5b505050506040513d601f19601f820116820180604052508101906129fc9190613ac6565b5091935060009250612a0c915050565b84604001516002811115612a2257612a226133e8565b03612a4c576305f5e100612a3b6402540be40083613b65565b612a459190613b95565b9150612b0b565b600184604001516002811115612a6457612a646133e8565b03612a7d5780612a3b6402540be4006305f5e100613b65565b600084602001516001600160a01b031663feaf968c6040518163ffffffff1660e01b815260040160a060405180830381865afa158015612ac1573d6000803e3d6000fd5b505050506040513d601f19601f82011682018060405250810190612ae59190613ac6565b505050915050806402540be40083612afd9190613b65565b612b079190613b95565b9250505b5092915050565b6000831580612b1f575082155b80612b70575081836402540be40085871015612b4457612b3f8787613a99565b612b4e565b612b4e8688613a99565b612b589190613773565b612b63906064613773565b612b6d919061378a565b11155b949350505050565b600080600080845190506000816001600160401b03811115612b9c57612b9c61348f565b604051908082528060200260200182016040528015612bc5578160200160208202803683370190505b5090506000826001600160401b03811115612be257612be261348f565b604051908082528060200260200182016040528015612c0b578160200160208202803683370190505b5090506000836001600160401b03811115612c2857612c2861348f565b604051908082528060200260200182016040528015612c51578160200160208202803683370190505b50905060005b84811015612d3557888181518110612c7157612c716134a5565b6020026020010151600001516001600160401b0316848281518110612c9857612c986134a5565b602002602001018181525050888181518110612cb657612cb66134a5565b6020026020010151602001516001600160401b0316838281518110612cdd57612cdd6134a5565b602002602001018181525050888181518110612cfb57612cfb6134a5565b6020026020010151604001516001600160401b0316828281518110612d2257612d226134a5565b6020908102919091010152600101612c57565b50612d4283600086613162565b612d4e82600086613162565b612d5a81600086613162565b6000612d67600286613b16565b1590506000612d7760028761378a565b905081612d9d57848181518110612d9057612d906134a5565b6020026020010151612df3565b6002858281518110612db157612db16134a5565b602002602001015186600184612dc79190613a99565b81518110612dd757612dd76134a5565b6020026020010151612de99190613bc3565b612df3919061378a565b985081612e1957838181518110612e0c57612e0c6134a5565b6020026020010151612e6f565b6002848281518110612e2d57612e2d6134a5565b602002602001015185600184612e439190613a99565b81518110612e5357612e536134a5565b6020026020010151612e659190613bc3565b612e6f919061378a565b975081612e9557828181518110612e8857612e886134a5565b6020026020010151612eeb565b6002838281518110612ea957612ea96134a5565b602002602001015184600184612ebf9190613a99565b81518110612ecf57612ecf6134a5565b6020026020010151612ee19190613bc3565b612eeb919061378a565b989a97995050505050505050565b6000612f088260008451613162565b60028251612f169190613b16565b15612f47578160028351612f2a919061378a565b81518110612f3a57612f3a6134a5565b6020026020010151611d47565b60028260028451612f58919061378a565b81518110612f6857612f686134a5565b602002602001015183600160028651612f81919061378a565b612f8b9190613a99565b81518110612f9b57612f9b6134a5565b6020026020010151612fad9190613bc3565b611d47919061378a565b61070863ffffffff821610801590612fd7575061384063ffffffff821611155b612ff35760405162461bcd60e51b81526004016107ef90613bd6565b6006805463ffffffff60a01b1916600160a01b63ffffffff8416908102919091179091556040519081527fc99f383ecd620c333255bd2aef929eedd6808999bac9bfc5f53e10d876abf1ce90602001610869565b6001600160a01b03811661306d5760405162461bcd60e51b81526004016107ef90613bd6565b600680546001600160a01b0319166001600160a01b0383811691821790925560408051630dfe168160e01b815290517f000000000000000000000000000000000000000000000000000000000000000090931692630dfe1681916004808201926020929091908290030181865afa1580156130ec573d6000803e3d6000fd5b505050506040513d601f19601f820116820180604052508101906131109190613891565b6001600160a01b031614600660186101000a81548160ff0219169083151502179055507fb9c36e5afdbe55e259bdc128e25c13a15f33271cc71599ce0df510b21c3e8da9816040516108699190613300565b80821061316e57505050565b60008290506000848281518110613187576131876134a5565b6020026020010151905060008460016131a09190613bc3565b90505b838110156131f257818682815181106131be576131be6134a5565b602002602001015110156131e2576131e286826131da86613a5e565b955085613225565b6131eb81613a5e565b90506131a3565b506131fe858584613225565b613209858584613162565b61321e85613218846001613bc3565b85613162565b5050505050565b828181518110613237576132376134a5565b6020026020010151838381518110613251576132516134a5565b602002602001015184848151811061326b5761326b6134a5565b60200260200101858481518110613284576132846134a5565b602090810291909101019190915252505050565b6040518060c001604052806000815260200160008152602001600081526020016000815260200160008152602001600081525090565b5080546000825590600052602060002090810190611c1091905b808211156132fc57600081556001016132e8565b5090565b6001600160a01b0391909116815260200190565b60006020828403121561332657600080fd5b5035919050565b6001600160a01b0381168114611c1057600080fd5b60006020828403121561335457600080fd5b81356129728161332d565b6000806040838503121561337257600080fd5b50508035926020909101359150565b6000806000806080858703121561339757600080fd5b843593506020850135600481106133ad57600080fd5b93969395505050506040820135916060013590565b6000602082840312156133d457600080fd5b813563ffffffff8116811461297257600080fd5b634e487b7160e01b600052602160045260246000fd5b6004811061341c57634e487b7160e01b600052602160045260246000fd5b9052565b61ffff861681526001600160701b038516602082015260a0810161344760408301866133fe565b92151560608201529015156080909101529392505050565b6000806040838503121561347257600080fd5b8235915060208301356134848161332d565b809150509250929050565b634e487b7160e01b600052604160045260246000fd5b634e487b7160e01b600052603260045260246000fd5b6020808252825182820181905260009190848201906040850190845b818110156134f957835163ffffffff16835292840192918401916001016134d7565b50909695505050505050565b604051601f8201601f191681016001600160401b038111828210171561352d5761352d61348f565b604052919050565b60006001600160401b0382111561354e5761354e61348f565b5060051b60200190565b600082601f83011261356957600080fd5b8151602061357e61357983613535565b613505565b82815260059290921b8401810191818101908684111561359d57600080fd5b8286015b848110156135c15780516135b48161332d565b83529183019183016135a1565b509695505050505050565b600080604083850312156135df57600080fd5b82516001600160401b03808211156135f657600080fd5b818501915085601f83011261360a57600080fd5b8151602061361a61357983613535565b82815260059290921b8401810191818101908984111561363957600080fd5b948201945b838610156136675785518060060b81146136585760008081fd5b8252948201949082019061363e565b9188015191965090935050508082111561368057600080fd5b5061368d85828601613558565b9150509250929050565b634e487b7160e01b600052601160045260246000fd5b600682810b9082900b03667fffffffffffff198112667fffffffffffff82131715611d4757611d47613697565b634e487b7160e01b600052601260045260246000fd5b60008160060b8360060b80613707576137076136da565b667fffffffffffff1982146000198214161561372557613725613697565b90059392505050565b60008260060b80613741576137416136da565b808360060b0791505092915050565b60008160020b627fffff19810361376957613769613697565b6000190192915050565b8082028115828204841417611d4757611d47613697565b600082613799576137996136da565b500490565b600181815b808511156137d95781600019048211156137bf576137bf613697565b808516156137cc57918102915b93841c93908002906137a3565b509250929050565b6000826137f057506001611d47565b816137fd57506000611d47565b8160018114613813576002811461381d57613839565b6001915050611d47565b60ff84111561382e5761382e613697565b50506001821b611d47565b5060208310610133831016604e8410600b841016171561385c575081810a611d47565b613866838361379e565b806000190482111561387a5761387a613697565b029392505050565b600061297260ff8416836137e1565b6000602082840312156138a357600080fd5b81516129728161332d565b602080825260089082015267474f565f4f4e4c5960c01b604082015260600190565b602080825260079082015266056414c55455f360cc1b604082015260600190565b60006080828403121561390357600080fd5b604051608081018181106001600160401b03821117156139255761392561348f565b60405282516139338161332d565b815260208301516139438161332d565b602082015260408301516003811061395a57600080fd5b60408201526060928301519281019290925250919050565b80516001600160401b038116811461398957600080fd5b919050565b600080600080608085870312156139a457600080fd5b6139ad85613972565b93506139bb60208601613972565b92506139c960408601613972565b91506139d760608601613972565b905092959194509250565b6000602082840312156139f457600080fd5b5051919050565b805182526020810151602083015260408101516040830152606081015160608301526080810151608083015260a081015160a08301525050565b60c08101611d4782846139fb565b60e08101613a5182856139fb565b61297260c08301846133fe565b600060018201613a7057613a70613697565b5060010190565b600060208284031215613a8957600080fd5b8151801515811461297257600080fd5b81810381811115611d4757611d47613697565b805169ffffffffffffffffffff8116811461398957600080fd5b600080600080600060a08688031215613ade57600080fd5b613ae786613aac565b9450602086015193506040860151925060608601519150613b0a60808701613aac565b90509295509295909350565b600082613b2557613b256136da565b500690565b6020808252600b908201526a0aea49e9c8ebe929c888ab60ab1b604082015260600190565b634e487b7160e01b600052603160045260246000fd5b80820260008212600160ff1b84141615613b8157613b81613697565b8181058314821517611d4757611d47613697565b600082613ba457613ba46136da565b600160ff1b821460001984141615613bbe57613bbe613697565b500590565b80820180821115611d4757611d47613697565b6020808252600b908201526a57524f4e475f56414c554560a81b60408201526060019056fea2646970667358221220288f4e6038ae531b0674967e043a1c23ab5e97b067fd7e959f88cee7d522abb464736f6c63430008110033",
  "libraries": {
    "PackingUtils": "0xb8A7B7E916f2D3F8cdd6a5a5276546dF6B7A362b"
  },
  "devdoc": {
    "kind": "dev",
    "methods": {},
    "version": 1
  },
  "userdoc": {
    "kind": "user",
    "methods": {},
    "version": 1
  },
  "storageLayout": {
    "storage": [
      {
        "astId": 319,
        "contract": "contracts/PriceAggregator.sol:PriceAggregator",
        "label": "s_ens",
        "offset": 0,
        "slot": "0",
        "type": "t_contract(ENSInterface)974"
      },
      {
        "astId": 321,
        "contract": "contracts/PriceAggregator.sol:PriceAggregator",
        "label": "s_ensNode",
        "offset": 0,
        "slot": "1",
        "type": "t_bytes32"
      },
      {
        "astId": 324,
        "contract": "contracts/PriceAggregator.sol:PriceAggregator",
        "label": "s_link",
        "offset": 0,
        "slot": "2",
        "type": "t_contract(LinkTokenInterface)1069"
      },
      {
        "astId": 327,
        "contract": "contracts/PriceAggregator.sol:PriceAggregator",
        "label": "s_oracle",
        "offset": 0,
        "slot": "3",
        "type": "t_contract(OperatorInterface)1149"
      },
      {
        "astId": 330,
        "contract": "contracts/PriceAggregator.sol:PriceAggregator",
        "label": "s_requestCount",
        "offset": 0,
        "slot": "4",
        "type": "t_uint256"
      },
      {
        "astId": 334,
        "contract": "contracts/PriceAggregator.sol:PriceAggregator",
        "label": "s_pendingRequests",
        "offset": 0,
        "slot": "5",
        "type": "t_mapping(t_bytes32,t_address)"
      },
      {
        "astId": 14974,
        "contract": "contracts/PriceAggregator.sol:PriceAggregator",
        "label": "uniV3Pool",
        "offset": 0,
        "slot": "6",
        "type": "t_contract(IUniswapV3Pool)2706"
      },
      {
        "astId": 14976,
        "contract": "contracts/PriceAggregator.sol:PriceAggregator",
        "label": "twapInterval",
        "offset": 20,
        "slot": "6",
        "type": "t_uint32"
      },
      {
        "astId": 14978,
        "contract": "contracts/PriceAggregator.sol:PriceAggregator",
        "label": "isGnsToken0InLp",
        "offset": 24,
        "slot": "6",
        "type": "t_bool"
      },
      {
        "astId": 8514,
        "contract": "contracts/PriceAggregator.sol:PriceAggregator",
        "label": "pairsStorage",
        "offset": 0,
        "slot": "7",
        "type": "t_contract(PairsStorageInterfaceV6)21244"
      },
      {
        "astId": 8517,
        "contract": "contracts/PriceAggregator.sol:PriceAggregator",
        "label": "linkPriceFeed",
        "offset": 0,
        "slot": "8",
        "type": "t_contract(ChainlinkFeedInterface)20458"
      },
      {
        "astId": 8528,
        "contract": "contracts/PriceAggregator.sol:PriceAggregator",
        "label": "orderIds",
        "offset": 0,
        "slot": "9",
        "type": "t_uint256"
      },
      {
        "astId": 8530,
        "contract": "contracts/PriceAggregator.sol:PriceAggregator",
        "label": "minAnswers",
        "offset": 0,
        "slot": "10",
        "type": "t_uint256"
      },
      {
        "astId": 8559,
        "contract": "contracts/PriceAggregator.sol:PriceAggregator",
        "label": "nodes",
        "offset": 0,
        "slot": "11",
        "type": "t_array(t_address)dyn_storage"
      },
      {
        "astId": 8563,
        "contract": "contracts/PriceAggregator.sol:PriceAggregator",
        "label": "jobIds",
        "offset": 0,
        "slot": "12",
        "type": "t_array(t_bytes32)2_storage"
      },
      {
        "astId": 8568,
        "contract": "contracts/PriceAggregator.sol:PriceAggregator",
        "label": "orders",
        "offset": 0,
        "slot": "14",
        "type": "t_mapping(t_uint256,t_struct(Order)8547_storage)"
      },
      {
        "astId": 8572,
        "contract": "contracts/PriceAggregator.sol:PriceAggregator",
        "label": "orderIdByRequest",
        "offset": 0,
        "slot": "15",
        "type": "t_mapping(t_bytes32,t_uint256)"
      },
      {
        "astId": 8577,
        "contract": "contracts/PriceAggregator.sol:PriceAggregator",
        "label": "ordersAnswers",
        "offset": 0,
        "slot": "16",
        "type": "t_mapping(t_uint256,t_array(t_uint256)dyn_storage)"
      },
      {
        "astId": 8583,
        "contract": "contracts/PriceAggregator.sol:PriceAggregator",
        "label": "lookbackOrderAnswers",
        "offset": 0,
        "slot": "17",
        "type": "t_mapping(t_uint256,t_array(t_struct(LookbackOrderAnswer)8556_storage)dyn_storage)"
      }
    ],
    "types": {
      "t_address": {
        "encoding": "inplace",
        "label": "address",
        "numberOfBytes": "20"
      },
      "t_array(t_address)dyn_storage": {
        "base": "t_address",
        "encoding": "dynamic_array",
        "label": "address[]",
        "numberOfBytes": "32"
      },
      "t_array(t_bytes32)2_storage": {
        "base": "t_bytes32",
        "encoding": "inplace",
        "label": "bytes32[2]",
        "numberOfBytes": "64"
      },
      "t_array(t_struct(LookbackOrderAnswer)8556_storage)dyn_storage": {
        "base": "t_struct(LookbackOrderAnswer)8556_storage",
        "encoding": "dynamic_array",
        "label": "struct PriceAggregator.LookbackOrderAnswer[]",
        "numberOfBytes": "32"
      },
      "t_array(t_uint256)dyn_storage": {
        "base": "t_uint256",
        "encoding": "dynamic_array",
        "label": "uint256[]",
        "numberOfBytes": "32"
      },
      "t_bool": {
        "encoding": "inplace",
        "label": "bool",
        "numberOfBytes": "1"
      },
      "t_bytes32": {
        "encoding": "inplace",
        "label": "bytes32",
        "numberOfBytes": "32"
      },
      "t_contract(ChainlinkFeedInterface)20458": {
        "encoding": "inplace",
        "label": "contract ChainlinkFeedInterface",
        "numberOfBytes": "20"
      },
      "t_contract(ENSInterface)974": {
        "encoding": "inplace",
        "label": "contract ENSInterface",
        "numberOfBytes": "20"
      },
      "t_contract(IUniswapV3Pool)2706": {
        "encoding": "inplace",
        "label": "contract IUniswapV3Pool",
        "numberOfBytes": "20"
      },
      "t_contract(LinkTokenInterface)1069": {
        "encoding": "inplace",
        "label": "contract LinkTokenInterface",
        "numberOfBytes": "20"
      },
      "t_contract(OperatorInterface)1149": {
        "encoding": "inplace",
        "label": "contract OperatorInterface",
        "numberOfBytes": "20"
      },
      "t_contract(PairsStorageInterfaceV6)21244": {
        "encoding": "inplace",
        "label": "contract PairsStorageInterfaceV6",
        "numberOfBytes": "20"
      },
      "t_enum(OrderType)8535": {
        "encoding": "inplace",
        "label": "enum PriceAggregator.OrderType",
        "numberOfBytes": "1"
      },
      "t_mapping(t_bytes32,t_address)": {
        "encoding": "mapping",
        "key": "t_bytes32",
        "label": "mapping(bytes32 => address)",
        "numberOfBytes": "32",
        "value": "t_address"
      },
      "t_mapping(t_bytes32,t_uint256)": {
        "encoding": "mapping",
        "key": "t_bytes32",
        "label": "mapping(bytes32 => uint256)",
        "numberOfBytes": "32",
        "value": "t_uint256"
      },
      "t_mapping(t_uint256,t_array(t_struct(LookbackOrderAnswer)8556_storage)dyn_storage)": {
        "encoding": "mapping",
        "key": "t_uint256",
        "label": "mapping(uint256 => struct PriceAggregator.LookbackOrderAnswer[])",
        "numberOfBytes": "32",
        "value": "t_array(t_struct(LookbackOrderAnswer)8556_storage)dyn_storage"
      },
      "t_mapping(t_uint256,t_array(t_uint256)dyn_storage)": {
        "encoding": "mapping",
        "key": "t_uint256",
        "label": "mapping(uint256 => uint256[])",
        "numberOfBytes": "32",
        "value": "t_array(t_uint256)dyn_storage"
      },
      "t_mapping(t_uint256,t_struct(Order)8547_storage)": {
        "encoding": "mapping",
        "key": "t_uint256",
        "label": "mapping(uint256 => struct PriceAggregator.Order)",
        "numberOfBytes": "32",
        "value": "t_struct(Order)8547_storage"
      },
      "t_struct(LookbackOrderAnswer)8556_storage": {
        "encoding": "inplace",
        "label": "struct PriceAggregator.LookbackOrderAnswer",
        "members": [
          {
            "astId": 8549,
            "contract": "contracts/PriceAggregator.sol:PriceAggregator",
            "label": "open",
            "offset": 0,
            "slot": "0",
            "type": "t_uint64"
          },
          {
            "astId": 8551,
            "contract": "contracts/PriceAggregator.sol:PriceAggregator",
            "label": "high",
            "offset": 8,
            "slot": "0",
            "type": "t_uint64"
          },
          {
            "astId": 8553,
            "contract": "contracts/PriceAggregator.sol:PriceAggregator",
            "label": "low",
            "offset": 16,
            "slot": "0",
            "type": "t_uint64"
          },
          {
            "astId": 8555,
            "contract": "contracts/PriceAggregator.sol:PriceAggregator",
            "label": "ts",
            "offset": 24,
            "slot": "0",
            "type": "t_uint64"
          }
        ],
        "numberOfBytes": "32"
      },
      "t_struct(Order)8547_storage": {
        "encoding": "inplace",
        "label": "struct PriceAggregator.Order",
        "members": [
          {
            "astId": 8537,
            "contract": "contracts/PriceAggregator.sol:PriceAggregator",
            "label": "pairIndex",
            "offset": 0,
            "slot": "0",
            "type": "t_uint16"
          },
          {
            "astId": 8539,
            "contract": "contracts/PriceAggregator.sol:PriceAggregator",
            "label": "linkFeePerNode",
            "offset": 2,
            "slot": "0",
            "type": "t_uint112"
          },
          {
            "astId": 8542,
            "contract": "contracts/PriceAggregator.sol:PriceAggregator",
            "label": "orderType",
            "offset": 16,
            "slot": "0",
            "type": "t_enum(OrderType)8535"
          },
          {
            "astId": 8544,
            "contract": "contracts/PriceAggregator.sol:PriceAggregator",
            "label": "active",
            "offset": 17,
            "slot": "0",
            "type": "t_bool"
          },
          {
            "astId": 8546,
            "contract": "contracts/PriceAggregator.sol:PriceAggregator",
            "label": "isLookback",
            "offset": 18,
            "slot": "0",
            "type": "t_bool"
          }
        ],
        "numberOfBytes": "32"
      },
      "t_uint112": {
        "encoding": "inplace",
        "label": "uint112",
        "numberOfBytes": "14"
      },
      "t_uint16": {
        "encoding": "inplace",
        "label": "uint16",
        "numberOfBytes": "2"
      },
      "t_uint256": {
        "encoding": "inplace",
        "label": "uint256",
        "numberOfBytes": "32"
      },
      "t_uint32": {
        "encoding": "inplace",
        "label": "uint32",
        "numberOfBytes": "4"
      },
      "t_uint64": {
        "encoding": "inplace",
        "label": "uint64",
        "numberOfBytes": "8"
      }
    }
  }
}