{
  "address": "0x530a35327A9046b92A49e9E5E90959252D9F8BD6",
  "abi": [
    {
      "inputs": [
        {
          "internalType": "address",
          "name": "_linkToken",
          "type": "address"
        },
        {
          "internalType": "contract IUniswapV3Pool",
          "name": "_tokenWETHLp",
          "type": "address"
        },
        {
          "internalType": "uint32",
          "name": "_twapInterval",
          "type": "uint32"
        },
        {
          "internalType": "contract StorageInterface",
          "name": "_storageT",
          "type": "address"
        },
        {
          "internalType": "contract PairsStorageInterfaceV6",
          "name": "_pairsStorage",
          "type": "address"
        },
        {
          "internalType": "contract ChainlinkFeedInterface",
          "name": "_linkPriceFeed",
          "type": "address"
        },
        {
          "internalType": "uint256",
          "name": "_minAnswers",
          "type": "uint256"
        },
        {
          "internalType": "address[]",
          "name": "_nodes",
          "type": "address[]"
        },
        {
          "internalType": "bytes32[2]",
          "name": "_jobIds",
          "type": "bytes32[2]"
        }
      ],
      "stateMutability": "nonpayable",
      "type": "constructor"
    },
    {
      "inputs": [],
      "name": "T",
      "type": "error"
    },
    {
      "anonymous": false,
      "inputs": [
        {
          "components": [
            {
              "internalType": "uint256",
              "name": "orderId",
              "type": "uint256"
            },
            {
              "internalType": "uint256",
              "name": "price",
              "type": "uint256"
            },
            {
              "internalType": "uint256",
              "name": "spreadP",
              "type": "uint256"
            },
            {
              "internalType": "uint256",
              "name": "open",
              "type": "uint256"
            },
            {
              "internalType": "uint256",
              "name": "high",
              "type": "uint256"
            },
            {
              "internalType": "uint256",
              "name": "low",
              "type": "uint256"
            }
          ],
          "indexed": false,
          "internalType": "struct CallbacksInterface.AggregatorAnswer",
          "name": "a",
          "type": "tuple"
        },
        {
          "indexed": false,
          "internalType": "enum PriceAggregator.OrderType",
          "name": "orderType",
          "type": "uint8"
        }
      ],
      "name": "CallbackExecuted",
      "type": "event"
    },
    {
      "anonymous": false,
      "inputs": [
        {
          "indexed": true,
          "internalType": "bytes32",
          "name": "id",
          "type": "bytes32"
        }
      ],
      "name": "ChainlinkCancelled",
      "type": "event"
    },
    {
      "anonymous": false,
      "inputs": [
        {
          "indexed": true,
          "internalType": "bytes32",
          "name": "id",
          "type": "bytes32"
        }
      ],
      "name": "ChainlinkFulfilled",
      "type": "event"
    },
    {
      "anonymous": false,
      "inputs": [
        {
          "indexed": true,
          "internalType": "bytes32",
          "name": "id",
          "type": "bytes32"
        }
      ],
      "name": "ChainlinkRequested",
      "type": "event"
    },
    {
      "anonymous": false,
      "inputs": [
        {
          "indexed": false,
          "internalType": "uint256",
          "name": "index",
          "type": "uint256"
        },
        {
          "indexed": false,
          "internalType": "bytes32",
          "name": "jobId",
          "type": "bytes32"
        }
      ],
      "name": "JobIdUpdated",
      "type": "event"
    },
    {
      "anonymous": false,
      "inputs": [
        {
          "indexed": false,
          "internalType": "address",
          "name": "value",
          "type": "address"
        }
      ],
      "name": "LinkPriceFeedUpdated",
      "type": "event"
    },
    {
      "anonymous": false,
      "inputs": [
        {
          "indexed": false,
          "internalType": "uint256",
          "name": "value",
          "type": "uint256"
        }
      ],
      "name": "MinAnswersUpdated",
      "type": "event"
    },
    {
      "anonymous": false,
      "inputs": [
        {
          "indexed": false,
          "internalType": "uint256",
          "name": "index",
          "type": "uint256"
        },
        {
          "indexed": false,
          "internalType": "address",
          "name": "value",
          "type": "address"
        }
      ],
      "name": "NodeAdded",
      "type": "event"
    },
    {
      "anonymous": false,
      "inputs": [
        {
          "indexed": false,
          "internalType": "uint256",
          "name": "index",
          "type": "uint256"
        },
        {
          "indexed": false,
          "internalType": "address",
          "name": "oldNode",
          "type": "address"
        }
      ],
      "name": "NodeRemoved",
      "type": "event"
    },
    {
      "anonymous": false,
      "inputs": [
        {
          "indexed": false,
          "internalType": "uint256",
          "name": "index",
          "type": "uint256"
        },
        {
          "indexed": false,
          "internalType": "address",
          "name": "oldNode",
          "type": "address"
        },
        {
          "indexed": false,
          "internalType": "address",
          "name": "newNode",
          "type": "address"
        }
      ],
      "name": "NodeReplaced",
      "type": "event"
    },
    {
      "anonymous": false,
      "inputs": [
        {
          "indexed": false,
          "internalType": "address",
          "name": "value",
          "type": "address"
        }
      ],
      "name": "PairsStorageUpdated",
      "type": "event"
    },
    {
      "anonymous": false,
      "inputs": [
        {
          "indexed": false,
          "internalType": "bytes32",
          "name": "request",
          "type": "bytes32"
        },
        {
          "indexed": true,
          "internalType": "uint256",
          "name": "orderId",
          "type": "uint256"
        },
        {
          "indexed": true,
          "internalType": "address",
          "name": "node",
          "type": "address"
        },
        {
          "indexed": true,
          "internalType": "uint16",
          "name": "pairIndex",
          "type": "uint16"
        },
        {
          "indexed": false,
          "internalType": "uint256",
          "name": "price",
          "type": "uint256"
        },
        {
          "indexed": false,
          "internalType": "uint256",
          "name": "referencePrice",
          "type": "uint256"
        },
        {
          "indexed": false,
          "internalType": "uint112",
          "name": "linkFee",
          "type": "uint112"
        },
        {
          "indexed": false,
          "internalType": "bool",
          "name": "isLookback",
          "type": "bool"
        },
        {
          "indexed": false,
          "internalType": "bool",
          "name": "usedInMedian",
          "type": "bool"
        }
      ],
      "name": "PriceReceived",
      "type": "event"
    },
    {
      "anonymous": false,
      "inputs": [
        {
          "indexed": true,
          "internalType": "uint256",
          "name": "orderId",
          "type": "uint256"
        },
        {
          "indexed": true,
          "internalType": "bytes32",
          "name": "job",
          "type": "bytes32"
        },
        {
          "indexed": true,
          "internalType": "uint256",
          "name": "pairIndex",
          "type": "uint256"
        },
        {
          "indexed": false,
          "internalType": "enum PriceAggregator.OrderType",
          "name": "orderType",
          "type": "uint8"
        },
        {
          "indexed": false,
          "internalType": "uint256",
          "name": "nodesCount",
          "type": "uint256"
        },
        {
          "indexed": false,
          "internalType": "uint256",
          "name": "linkFeePerNode",
          "type": "uint256"
        },
        {
          "indexed": false,
          "internalType": "uint256",
          "name": "fromBlock",
          "type": "uint256"
        },
        {
          "indexed": false,
          "internalType": "bool",
          "name": "isLookback",
          "type": "bool"
        }
      ],
      "name": "PriceRequested",
      "type": "event"
    },
    {
      "anonymous": false,
      "inputs": [
        {
          "indexed": false,
          "internalType": "uint32",
          "name": "newValue",
          "type": "uint32"
        }
      ],
      "name": "TwapIntervalUpdated",
      "type": "event"
    },
    {
      "anonymous": false,
      "inputs": [
        {
          "indexed": false,
          "internalType": "contract IUniswapV3Pool",
          "name": "newValue",
          "type": "address"
        }
      ],
      "name": "UniV3PoolUpdated",
      "type": "event"
    },
    {
      "inputs": [
        {
          "internalType": "address",
          "name": "a",
          "type": "address"
        }
      ],
      "name": "addNode",
      "outputs": [],
      "stateMutability": "nonpayable",
      "type": "function"
    },
    {
      "inputs": [],
      "name": "claimBackLink",
      "outputs": [],
      "stateMutability": "nonpayable",
      "type": "function"
    },
    {
      "inputs": [
        {
          "internalType": "uint256",
          "name": "pairIndex",
          "type": "uint256"
        },
        {
          "internalType": "enum PriceAggregator.OrderType",
          "name": "orderType",
          "type": "uint8"
        },
        {
          "internalType": "uint256",
          "name": "leveragedPosWETH",
          "type": "uint256"
        },
        {
          "internalType": "uint256",
          "name": "fromBlock",
          "type": "uint256"
        }
      ],
      "name": "getPrice",
      "outputs": [
        {
          "internalType": "uint256",
          "name": "",
          "type": "uint256"
        }
      ],
      "stateMutability": "nonpayable",
      "type": "function"
    },
    {
      "inputs": [],
      "name": "isGnsToken0InLp",
      "outputs": [
        {
          "internalType": "bool",
          "name": "",
          "type": "bool"
        }
      ],
      "stateMutability": "view",
      "type": "function"
    },
    {
      "inputs": [
        {
          "internalType": "uint256",
          "name": "",
          "type": "uint256"
        }
      ],
      "name": "jobIds",
      "outputs": [
        {
          "internalType": "bytes32",
          "name": "",
          "type": "bytes32"
        }
      ],
      "stateMutability": "view",
      "type": "function"
    },
    {
      "inputs": [
        {
          "internalType": "uint256",
          "name": "pairIndex",
          "type": "uint256"
        },
        {
          "internalType": "uint256",
          "name": "leveragedPosWETH",
          "type": "uint256"
        }
      ],
      "name": "linkFee",
      "outputs": [
        {
          "internalType": "uint256",
          "name": "",
          "type": "uint256"
        }
      ],
      "stateMutability": "view",
      "type": "function"
    },
    {
      "inputs": [],
      "name": "linkPriceFeed",
      "outputs": [
        {
          "internalType": "contract ChainlinkFeedInterface",
          "name": "",
          "type": "address"
        }
      ],
      "stateMutability": "view",
      "type": "function"
    },
    {
      "inputs": [
        {
          "internalType": "uint256",
          "name": "",
          "type": "uint256"
        },
        {
          "internalType": "uint256",
          "name": "",
          "type": "uint256"
        }
      ],
      "name": "lookbackOrderAnswers",
      "outputs": [
        {
          "internalType": "uint64",
          "name": "open",
          "type": "uint64"
        },
        {
          "internalType": "uint64",
          "name": "high",
          "type": "uint64"
        },
        {
          "internalType": "uint64",
          "name": "low",
          "type": "uint64"
        },
        {
          "internalType": "uint64",
          "name": "ts",
          "type": "uint64"
        }
      ],
      "stateMutability": "view",
      "type": "function"
    },
    {
      "inputs": [
        {
          "internalType": "uint256",
          "name": "orderId",
          "type": "uint256"
        },
        {
          "components": [
            {
              "components": [
                {
                  "internalType": "address",
                  "name": "trader",
                  "type": "address"
                },
                {
                  "internalType": "uint256",
                  "name": "pairIndex",
                  "type": "uint256"
                },
                {
                  "internalType": "uint256",
                  "name": "index",
                  "type": "uint256"
                },
                {
                  "internalType": "uint256",
                  "name": "initialPosToken",
                  "type": "uint256"
                },
                {
                  "internalType": "uint256",
                  "name": "positionSizeWETH",
                  "type": "uint256"
                },
                {
                  "internalType": "uint256",
                  "name": "openPrice",
                  "type": "uint256"
                },
                {
                  "internalType": "bool",
                  "name": "buy",
                  "type": "bool"
                },
                {
                  "internalType": "uint256",
                  "name": "leverage",
                  "type": "uint256"
                },
                {
                  "internalType": "uint256",
                  "name": "tp",
                  "type": "uint256"
                },
                {
                  "internalType": "uint256",
                  "name": "sl",
                  "type": "uint256"
                }
              ],
              "internalType": "struct StorageInterface.Trade",
              "name": "trade",
              "type": "tuple"
            },
            {
              "internalType": "uint256",
              "name": "block",
              "type": "uint256"
            },
            {
              "internalType": "uint256",
              "name": "wantedPrice",
              "type": "uint256"
            },
            {
              "internalType": "uint256",
              "name": "slippageP",
              "type": "uint256"
            },
            {
              "internalType": "uint256",
              "name": "spreadReductionP",
              "type": "uint256"
            },
            {
              "internalType": "uint256",
              "name": "tokenId",
              "type": "uint256"
            }
          ],
          "internalType": "struct StorageInterface.PendingMarketOrder",
          "name": "o",
          "type": "tuple"
        }
      ],
      "name": "marketOrderfulfill",
      "outputs": [],
      "stateMutability": "nonpayable",
      "type": "function"
    },
    {
      "inputs": [],
      "name": "minAnswers",
      "outputs": [
        {
          "internalType": "uint256",
          "name": "",
          "type": "uint256"
        }
      ],
      "stateMutability": "view",
      "type": "function"
    },
    {
      "inputs": [
        {
          "internalType": "uint256",
          "name": "orderId",
          "type": "uint256"
        },
        {
          "components": [
            {
              "internalType": "address",
              "name": "nftHolder",
              "type": "address"
            },
            {
              "internalType": "uint256",
              "name": "nftId",
              "type": "uint256"
            },
            {
              "internalType": "address",
              "name": "trader",
              "type": "address"
            },
            {
              "internalType": "uint256",
              "name": "pairIndex",
              "type": "uint256"
            },
            {
              "internalType": "uint256",
              "name": "index",
              "type": "uint256"
            },
            {
              "internalType": "enum StorageInterface.LimitOrder",
              "name": "orderType",
              "type": "uint8"
            }
          ],
          "internalType": "struct StorageInterface.PendingNftOrder",
          "name": "o",
          "type": "tuple"
        }
      ],
      "name": "nftOrderfulfill",
      "outputs": [],
      "stateMutability": "nonpayable",
      "type": "function"
    },
    {
      "inputs": [
        {
          "internalType": "uint256",
          "name": "",
          "type": "uint256"
        }
      ],
      "name": "nodes",
      "outputs": [
        {
          "internalType": "address",
          "name": "",
          "type": "address"
        }
      ],
      "stateMutability": "view",
      "type": "function"
    },
    {
      "inputs": [
        {
          "internalType": "uint256",
          "name": "pairIndex",
          "type": "uint256"
        }
      ],
      "name": "openFeeP",
      "outputs": [
        {
          "internalType": "uint256",
          "name": "",
          "type": "uint256"
        }
      ],
      "stateMutability": "view",
      "type": "function"
    },
    {
      "inputs": [
        {
          "internalType": "bytes32",
          "name": "",
          "type": "bytes32"
        }
      ],
      "name": "orderIdByRequest",
      "outputs": [
        {
          "internalType": "uint256",
          "name": "",
          "type": "uint256"
        }
      ],
      "stateMutability": "view",
      "type": "function"
    },
    {
      "inputs": [
        {
          "internalType": "uint256",
          "name": "",
          "type": "uint256"
        }
      ],
      "name": "orders",
      "outputs": [
        {
          "internalType": "uint16",
          "name": "pairIndex",
          "type": "uint16"
        },
        {
          "internalType": "uint112",
          "name": "linkFeePerNode",
          "type": "uint112"
        },
        {
          "internalType": "enum PriceAggregator.OrderType",
          "name": "orderType",
          "type": "uint8"
        },
        {
          "internalType": "bool",
          "name": "active",
          "type": "bool"
        },
        {
          "internalType": "bool",
          "name": "isLookback",
          "type": "bool"
        }
      ],
      "stateMutability": "view",
      "type": "function"
    },
    {
      "inputs": [
        {
          "internalType": "uint256",
          "name": "",
          "type": "uint256"
        },
        {
          "internalType": "uint256",
          "name": "",
          "type": "uint256"
        }
      ],
      "name": "ordersAnswers",
      "outputs": [
        {
          "internalType": "uint256",
          "name": "",
          "type": "uint256"
        }
      ],
      "stateMutability": "view",
      "type": "function"
    },
    {
      "inputs": [],
      "name": "pairsStorage",
      "outputs": [
        {
          "internalType": "contract PairsStorageInterfaceV6",
          "name": "",
          "type": "address"
        }
      ],
      "stateMutability": "view",
      "type": "function"
    },
    {
      "inputs": [
        {
          "internalType": "uint256",
          "name": "index",
          "type": "uint256"
        }
      ],
      "name": "removeNode",
      "outputs": [],
      "stateMutability": "nonpayable",
      "type": "function"
    },
    {
      "inputs": [
        {
          "internalType": "uint256",
          "name": "index",
          "type": "uint256"
        },
        {
          "internalType": "address",
          "name": "a",
          "type": "address"
        }
      ],
      "name": "replaceNode",
      "outputs": [],
      "stateMutability": "nonpayable",
      "type": "function"
    },
    {
      "inputs": [
        {
          "internalType": "bytes32",
          "name": "jobId",
          "type": "bytes32"
        }
      ],
      "name": "setLimitJobId",
      "outputs": [],
      "stateMutability": "nonpayable",
      "type": "function"
    },
    {
      "inputs": [
        {
          "internalType": "bytes32",
          "name": "jobId",
          "type": "bytes32"
        }
      ],
      "name": "setMarketJobId",
      "outputs": [],
      "stateMutability": "nonpayable",
      "type": "function"
    },
    {
      "inputs": [],
      "name": "storageT",
      "outputs": [
        {
          "internalType": "contract StorageInterface",
          "name": "",
          "type": "address"
        }
      ],
      "stateMutability": "view",
      "type": "function"
    },
    {
      "inputs": [],
      "name": "token",
      "outputs": [
        {
          "internalType": "address",
          "name": "",
          "type": "address"
        }
      ],
      "stateMutability": "view",
      "type": "function"
    },
    {
      "inputs": [],
      "name": "tokenPriceWETH",
      "outputs": [
        {
          "internalType": "uint256",
          "name": "price",
          "type": "uint256"
        }
      ],
      "stateMutability": "view",
      "type": "function"
    },
    {
      "inputs": [],
      "name": "twapInterval",
      "outputs": [
        {
          "internalType": "uint32",
          "name": "",
          "type": "uint32"
        }
      ],
      "stateMutability": "view",
      "type": "function"
    },
    {
      "inputs": [],
      "name": "uniV3Pool",
      "outputs": [
        {
          "internalType": "contract IUniswapV3Pool",
          "name": "",
          "type": "address"
        }
      ],
      "stateMutability": "view",
      "type": "function"
    },
    {
      "inputs": [
        {
          "internalType": "contract ChainlinkFeedInterface",
          "name": "value",
          "type": "address"
        }
      ],
      "name": "updateLinkPriceFeed",
      "outputs": [],
      "stateMutability": "nonpayable",
      "type": "function"
    },
    {
      "inputs": [
        {
          "internalType": "uint256",
          "name": "value",
          "type": "uint256"
        }
      ],
      "name": "updateMinAnswers",
      "outputs": [],
      "stateMutability": "nonpayable",
      "type": "function"
    },
    {
      "inputs": [
        {
          "internalType": "contract PairsStorageInterfaceV6",
          "name": "value",
          "type": "address"
        }
      ],
      "name": "updatePairsStorage",
      "outputs": [],
      "stateMutability": "nonpayable",
      "type": "function"
    },
    {
      "inputs": [
        {
          "internalType": "uint32",
          "name": "_twapInterval",
          "type": "uint32"
        }
      ],
      "name": "updateTwapInterval",
      "outputs": [],
      "stateMutability": "nonpayable",
      "type": "function"
    },
    {
      "inputs": [
        {
          "internalType": "contract IUniswapV3Pool",
          "name": "_uniV3Pool",
          "type": "address"
        }
      ],
      "name": "updateUniV3Pool",
      "outputs": [],
      "stateMutability": "nonpayable",
      "type": "function"
    }
  ],
  "transactionHash": "0x7f6c07e2053e68716ecfbe2220fdaaabfb504eaae582e51a6ae3f8711e5870f1",
  "args": [
    "0xa667403454F483dE81A0363Af7FcEE563819D910",
    "0xBF84C880293DF457697b3ee1b78a9e5579a9Bae0",
    1900,
    "0x15D862D44BCf0918012575CB7fd660C1A74f374A",
    "0x24b235B3305507617a1f8faf00796d2CeB70Fe07",
    "0xa667403454F483dE81A0363Af7FcEE563819D910",
    3,
    [
      "0x00000000219ab540356cbb839cbe05303d7705fa",
      "0xc02aaa39b223fe8d0a0e5c4f27ead9083c756cc2",
      "0xbe0eb53f46cd790cd13851d5eff43d12404d33e8",
      "0xda9dfa130df4de4673b89022ee50ff26f6ea73cf"
    ],
    [
      "0x0000000000000000000000000000000000000000000000000000000000000004",
      "0x0000000000000000000000000000000000000000000000000000000000000001"
    ]
  ],
  "numDeployments": 1,
  "solcInputHash": "063f6380a44fddc0413748fbb84bc8a5",
  "bytecode": "0x60e060405260016004553480156200001657600080fd5b5060405162003b8438038062003b84833981016040819052620000399162000572565b87866001600160a01b031663fc0c546a6040518163ffffffff1660e01b8152600401602060405180830381865afa15801562000079573d6000803e3d6000fd5b505050506040513d601f19601f820116820180604052508101906200009f919062000651565b886402540be4006001600160a01b03841615801590620000c7575061070863ffffffff831610155b8015620000dc575061384063ffffffff831611155b8015620000e95750600081115b6200013b5760405162461bcd60e51b815260206004820152601660248201527f57524f4e475f545741505f434f4e5354525543544f520000000000000000000060448201526064015b60405180910390fd5b600680546001600160a01b0385811660a081905263ffffffff8616600160a01b026001600160c01b0319909316828916179290921792839055608084905260408051630dfe168160e01b81529051929390911691630dfe1681916004808201926020929091908290030181865afa158015620001bb573d6000803e3d6000fd5b505050506040513d601f19601f82011682018060405250810190620001e1919062000651565b6001600160a01b031614600660186101000a81548160ff0219169083151502179055505050505060006001600160a01b0316866001600160a01b0316141580156200023457506001600160a01b03851615155b80156200024957506001600160a01b03841615155b801562000257575060038310155b80156200027057506200026c60028462000678565b6001145b80156200027e575060008251115b80156200029357506001600160a01b03891615155b620002d05760405162461bcd60e51b815260206004820152600c60248201526b57524f4e475f504152414d5360a01b604482015260640162000132565b6001600160a01b0386811660c052600780546001600160a01b03199081168884161790915560088054909116918616919091179055600a83905581516200031f90600b9060208501906200035a565b506200032f600c826002620003c4565b50600280546001600160a01b0319166001600160a01b038b161790555050505050505050506200069b565b828054828255906000526020600020908101928215620003b2579160200282015b82811115620003b257825182546001600160a01b0319166001600160a01b039091161782556020909201916001909101906200037b565b50620003c0929150620003f5565b5090565b8260028101928215620003b2579160200282015b82811115620003b2578251825591602001919060010190620003d8565b5b80821115620003c05760008155600101620003f6565b6001600160a01b03811681146200042257600080fd5b50565b805162000432816200040c565b919050565b634e487b7160e01b600052604160045260246000fd5b600082601f8301126200045f57600080fd5b815160206001600160401b03808311156200047e576200047e62000437565b8260051b604051601f19603f83011681018181108482111715620004a657620004a662000437565b604052938452858101830193838101925087851115620004c557600080fd5b83870191505b84821015620004f1578151620004e1816200040c565b83529183019190830190620004cb565b979650505050505050565b600082601f8301126200050e57600080fd5b604080519081016001600160401b038111828210171562000533576200053362000437565b80604052508060408401858111156200054b57600080fd5b845b81811015620005675780518352602092830192016200054d565b509195945050505050565b60008060008060008060008060006101408a8c0312156200059257600080fd5b89516200059f816200040c565b60208b0151909950620005b2816200040c565b60408b015190985063ffffffff81168114620005cd57600080fd5b9650620005dd60608b0162000425565b9550620005ed60808b0162000425565b9450620005fd60a08b0162000425565b60c08b015160e08c015191955093506001600160401b038111156200062157600080fd5b6200062f8c828d016200044d565b925050620006428b6101008c01620004fc565b90509295985092959850929598565b6000602082840312156200066457600080fd5b815162000671816200040c565b9392505050565b6000826200069657634e487b7160e01b600052601260045260246000fd5b500690565b60805160a05160c05161342d62000757600039600081816101fb015281816108130152818161098901528181610bab01528181610d4801528181610f2101528181610fd501528181611068015281816111ca0152818161138a0152818161150001528181611694015281816118d701528181611acf01528181611bf201528181611cad01528181611e2601528181611f8f015261213a01526000818161049a01526127e00152600081816106bf0152610722015261342d6000f3fe608060405234801561001057600080fd5b50600436106101a45760003560e01c80638f93b660116100ef578063da4ae8ef11610092578063da4ae8ef14610429578063dcdfb4311461043c578063e0bb91c21461045c578063e21e5fe01461046f578063f5ed447c14610482578063fc0c546a14610495578063fd288280146104bc578063ffd740df146104cf57600080fd5b80638f93b6601461034857806393d7fe2c1461035b5780639d95f1cc1461036e578063a500775e14610381578063a85c38ef14610394578063b9e0336f146103fa578063bea167581461040d578063d31273ca1461041657600080fd5b80633c1d5df0116101575780633c1d5df01461026e57806340e9eda21461029a5780634162cc88146102ad5780634c37a9d6146102c05780636938c05d146103075780636c83b3d71461031a5780636f37d2631461032d57806385f276b81461033557600080fd5b8062912b37146101a957806303f39a16146101d257806316fff074146101f65780631c53c2801461021d578063290702e51461023057806335b03c171461024657806339fe9fd214610259575b600080fd5b6008546101bc906001600160a01b031681565b6040516101c991906128da565b60405180910390f35b6006546101e690600160c01b900460ff1681565b60405190151581526020016101c9565b6101bc7f000000000000000000000000000000000000000000000000000000000000000081565b6101bc61022b3660046128ee565b6104e2565b61023861050c565b6040519081526020016101c9565b6007546101bc906001600160a01b031681565b61026c6102673660046129c0565b61075c565b005b60065461028590600160a01b900463ffffffff1681565b60405163ffffffff90911681526020016101c9565b61026c6102a8366004612a56565b610ba9565b6102386102bb3660046128ee565b610cd7565b6102d36102ce366004612a73565b610cee565b6040805167ffffffffffffffff958616815293851660208501529184169183019190915290911660608201526080016101c9565b610238610315366004612a95565b610d44565b6006546101bc906001600160a01b031681565b61026c610f1f565b61026c6103433660046128ee565b6111c8565b61026c610356366004612aef565b6112d3565b610238610369366004612a73565b611661565b61026c61037c366004612a56565b611692565b61026c61038f366004612bf0565b6118d5565b6103e96103a23660046128ee565b600e6020526000908152604090205461ffff8116906001600160701b03620100008204169060ff600160801b8204811691600160881b8104821691600160901b9091041685565b6040516101c9959493929190612c40565b610238610408366004612a73565b611993565b610238600a5481565b61026c610424366004612a56565b611acd565b61026c610437366004612a56565b611bf0565b61023861044a3660046128ee565b600f6020526000908152604090205481565b61026c61046a3660046128ee565b611cab565b61023861047d3660046128ee565b611db6565b61026c6104903660046128ee565b611e24565b6101bc7f000000000000000000000000000000000000000000000000000000000000000081565b61026c6104ca366004612c7f565b611f8d565b61026c6104dd3660046128ee565b612138565b600b81815481106104f257600080fd5b6000918252602090912001546001600160a01b0316905081565b60408051600280825260608201835260009283929190602083019080368337019050509050600660149054906101000a900463ffffffff168160008151811061055757610557612caf565b602002602001019063ffffffff16908163ffffffff168152505060008160018151811061058657610586612caf565b63ffffffff9092166020928302919091019091015260065460405163883bdbfd60e01b81526000916001600160a01b03169063883bdbfd906105cc908590600401612cc5565b600060405180830381865afa1580156105e9573d6000803e3d6000fd5b505050506040513d6000823e601f3d908101601f191682016040526106119190810190612da7565b50905060008160008151811061062957610629612caf565b60200260200101518260018151811061064457610644612caf565b60200260200101516106569190612e89565b600654909150600160a01b900463ffffffff1660030b60006106788284612eef565b905060008360060b12801561069857506106928284612f2d565b60060b15155b156106ab57806106a781612f4f565b9150505b60006106b68261232d565b9050600160601b7f00000000000000000000000000000000000000000000000000000000000000006106f26001600160a01b0384168084612646565b6106fc9190612f72565b6107069190612f91565b600654909750600160c01b900460ff16610753578661074660027f0000000000000000000000000000000000000000000000000000000000000000613089565b6107509190612f91565b96505b50505050505090565b6000828152600e60209081526040808320815160a081018352815461ffff811682526201000081046001600160701b031694820194909452929091830190600160801b900460ff1660038111156107b5576107b5612c16565b60038111156107c6576107c6612c16565b8152905460ff600160881b820481161515602080850191909152600160901b90920416151560409283015281516307dc0d1d60e41b81529151929350600092839283926001600160a01b037f00000000000000000000000000000000000000000000000000000000000000001692637dc0d1d09260048082019392918290030181865afa15801561085b573d6000803e3d6000fd5b505050506040513d601f19601f8201168201806040525081019061087f9190613098565b8451604051630e75722360e41b815261ffff90911660048201526001600160a01b03919091169063e7572230906024016040805180830381865afa1580156108cb573d6000803e3d6000fd5b505050506040513d601f19601f820116820180604052508101906108ef91906130b5565b91509150600192506108ff6128a4565b86815260208101839052600754855160405163a1d54e9b60e01b815261ffff90911660048201526001600160a01b039091169063a1d54e9b90602401602060405180830381865afa158015610958573d6000803e3d6000fd5b505050506040513d601f19601f8201168201806040525081019061097c91906130d9565b81604001818152505060007f00000000000000000000000000000000000000000000000000000000000000006001600160a01b031662b127836040518163ffffffff1660e01b8152600401602060405180830381865afa1580156109e4573d6000803e3d6000fd5b505050506040513d601f19601f82011682018060405250810190610a089190613098565b9050600386604001516003811115610a2257610a22612c16565b03610a8c576040516376d0fac160e11b81526001600160a01b0382169063eda1f58290610a559085908b9060040161312c565b600060405180830381600087803b158015610a6f57600080fd5b505af1158015610a83573d6000803e3d6000fd5b50505050610ae5565b60405162461bcd60e51b815260206004820152602360248201527f4f70656e204c696d6974206f7264657273206e6f7420737570706f72746564206044820152621e595d60ea1b60648201526084015b60405180910390fd5b7fce3ae2fe07e497ba552d6485a40eed46cfb3320f001027891efeb1128dba0350828760400151604051610b1a92919061319d565b60405180910390a185516020808801516080808a01516040805161060f60f31b81526000958101869052808201959095526001600160701b03909316606085015215159083015287151560a08301525161ffff9092169133918b917fdc6ff5906123aad281d8e734bb64101cea661d614a568b9bca20e7ac2ae7f3549181900360c00190a45050505050505050565b7f00000000000000000000000000000000000000000000000000000000000000006001600160a01b03166312d43a516040518163ffffffff1660e01b8152600401602060405180830381865afa158015610c07573d6000803e3d6000fd5b505050506040513d601f19601f82011682018060405250810190610c2b9190613098565b6001600160a01b0316336001600160a01b031614610c5b5760405162461bcd60e51b8152600401610adc906131b8565b6001600160a01b038116610c815760405162461bcd60e51b8152600401610adc906131da565b600780546001600160a01b0319166001600160a01b0383161790556040517f477e87af277e7755f85267ef7c6b77cd28610c2c8c2923acdf55fa5b63f18b7790610ccc9083906128da565b60405180910390a150565b600c8160028110610ce757600080fd5b0154905081565b60116020528160005260406000208181548110610d0a57600080fd5b60009182526020909120015467ffffffffffffffff8082169350600160401b820481169250600160801b8204811691600160c01b90041684565b60007f00000000000000000000000000000000000000000000000000000000000000006001600160a01b031663ec44acf26040518163ffffffff1660e01b8152600401602060405180830381865afa158015610da4573d6000803e3d6000fd5b505050506040513d601f19601f82011682018060405250810190610dc89190613098565b6001600160a01b0316336001600160a01b031614610e175760405162461bcd60e51b815260206004820152600c60248201526b54524144494e475f4f4e4c5960a01b6044820152606401610adc565b60098054906000610e27836131fb565b90915550506040805160a08101825261ffff8716815260006020820152908101856003811115610e5957610e59612c16565b81526001602080830191909152600060409283018190526009548152600e825282902083518154928501516001600160701b031662010000026001600160801b031990931661ffff9091161791909117808255918301519091829060ff60801b1916600160801b836003811115610ed257610ed2612c16565b0217905550606082015181546080909301511515600160901b0260ff60901b19911515600160881b029190911661ffff60881b199093169290921791909117905550600954949350505050565b7f00000000000000000000000000000000000000000000000000000000000000006001600160a01b03166312d43a516040518163ffffffff1660e01b8152600401602060405180830381865afa158015610f7d573d6000803e3d6000fd5b505050506040513d601f19601f82011682018060405250810190610fa19190613098565b6001600160a01b0316336001600160a01b031614610fd15760405162461bcd60e51b8152600401610adc906131b8565b60007f00000000000000000000000000000000000000000000000000000000000000006001600160a01b031663fece4eac6040518163ffffffff1660e01b8152600401602060405180830381865afa158015611031573d6000803e3d6000fd5b505050506040513d601f19601f820116820180604052508101906110559190613098565b9050806001600160a01b031663a9059cbb7f00000000000000000000000000000000000000000000000000000000000000006001600160a01b03166312d43a516040518163ffffffff1660e01b8152600401602060405180830381865afa1580156110c4573d6000803e3d6000fd5b505050506040513d601f19601f820116820180604052508101906110e89190613098565b6040516370a0823160e01b81526001600160a01b038516906370a08231906111149030906004016128da565b602060405180830381865afa158015611131573d6000803e3d6000fd5b505050506040513d601f19601f8201168201806040525081019061115591906130d9565b6040516001600160e01b031960e085901b1681526001600160a01b03909216600483015260248201526044016020604051808303816000875af11580156111a0573d6000803e3d6000fd5b505050506040513d601f19601f820116820180604052508101906111c49190613214565b5050565b7f00000000000000000000000000000000000000000000000000000000000000006001600160a01b03166312d43a516040518163ffffffff1660e01b8152600401602060405180830381865afa158015611226573d6000803e3d6000fd5b505050506040513d601f19601f8201168201806040525081019061124a9190613098565b6001600160a01b0316336001600160a01b03161461127a5760405162461bcd60e51b8152600401610adc906131b8565b806112975760405162461bcd60e51b8152600401610adc906131da565b600c8190556040805160008152602081018390527f764c19c693af0da42ec6c6bed68a2dd1a2fa93d24785fcfce58ffa29ae3136069101610ccc565b6000828152600e60209081526040808320815160a081018352815461ffff811682526201000081046001600160701b031694820194909452929091830190600160801b900460ff16600381111561132c5761132c612c16565b600381111561133d5761133d612c16565b8152905460ff600160881b820481161515602080850191909152600160901b90920416151560409283015281516307dc0d1d60e41b81529151929350600092839283926001600160a01b037f00000000000000000000000000000000000000000000000000000000000000001692637dc0d1d09260048082019392918290030181865afa1580156113d2573d6000803e3d6000fd5b505050506040513d601f19601f820116820180604052508101906113f69190613098565b8451604051630e75722360e41b815261ffff90911660048201526001600160a01b03919091169063e7572230906024016040805180830381865afa158015611442573d6000803e3d6000fd5b505050506040513d601f19601f8201168201806040525081019061146691906130b5565b91509150600192506114766128a4565b86815260208101839052600754855160405163a1d54e9b60e01b815261ffff90911660048201526001600160a01b039091169063a1d54e9b90602401602060405180830381865afa1580156114cf573d6000803e3d6000fd5b505050506040513d601f19601f820116820180604052508101906114f391906130d9565b81604001818152505060007f00000000000000000000000000000000000000000000000000000000000000006001600160a01b031662b127836040518163ffffffff1660e01b8152600401602060405180830381865afa15801561155b573d6000803e3d6000fd5b505050506040513d601f19601f8201168201806040525081019061157f9190613098565b905060008660400151600381111561159957611599612c16565b036115cc57604051633115815560e01b81526001600160a01b03821690633115815590610a559085908b90600401613231565b60405163485c89f960e11b81526001600160a01b038216906390b913f2906115fa9085908b90600401613231565b600060405180830381600087803b15801561161457600080fd5b505af1158015611628573d6000803e3d6000fd5b505050507fce3ae2fe07e497ba552d6485a40eed46cfb3320f001027891efeb1128dba0350828760400151604051610b1a92919061319d565b6010602052816000526040600020818154811061167d57600080fd5b90600052602060002001600091509150505481565b7f00000000000000000000000000000000000000000000000000000000000000006001600160a01b03166312d43a516040518163ffffffff1660e01b8152600401602060405180830381865afa1580156116f0573d6000803e3d6000fd5b505050506040513d601f19601f820116820180604052508101906117149190613098565b6001600160a01b0316336001600160a01b0316146117445760405162461bcd60e51b8152600401610adc906131b8565b6001600160a01b03811661176a5760405162461bcd60e51b8152600401610adc906131da565b600b546014116117af5760405162461bcd60e51b815260206004820152601060248201526f4d41585f4f5241434c455f4e4f44455360801b6044820152606401610adc565b60005b600b5481101561183e57816001600160a01b0316600b82815481106117d9576117d9612caf565b6000918252602090912001546001600160a01b03160361182c5760405162461bcd60e51b815260206004820152600e60248201526d1053149150511657d31254d5115160921b6044820152606401610adc565b80611836816131fb565b9150506117b2565b50600b80546001808201835560008390527f0175b7a638427703f0dbe7bb9bbf987a2551717b34e79f33b5b1008d1fa01db990910180546001600160a01b0319166001600160a01b03851617905590547fadfedad3d82b3775bf2dbea70a01327d1f26c0b868eb8ce0963a6e9af1003e85916118b991613302565b604080519182526001600160a01b038416602083015201610ccc565b7f00000000000000000000000000000000000000000000000000000000000000006001600160a01b03166312d43a516040518163ffffffff1660e01b8152600401602060405180830381865afa158015611933573d6000803e3d6000fd5b505050506040513d601f19601f820116820180604052508101906119579190613098565b6001600160a01b0316336001600160a01b0316146119875760405162461bcd60e51b8152600401610adc906131b8565b611990816126f9565b50565b600080600860009054906101000a90046001600160a01b03166001600160a01b031663feaf968c6040518163ffffffff1660e01b815260040160a060405180830381865afa1580156119e9573d6000803e3d6000fd5b505050506040513d601f19601f82011682018060405250810190611a0d9190613333565b505060075460405163f7acbabd60e01b815260048101899052929450606493506402540be4009285925087916001600160a01b03169063f7acbabd90602401602060405180830381865afa158015611a69573d6000803e3d6000fd5b505050506040513d601f19601f82011682018060405250810190611a8d91906130d9565b611a979190612f72565b611aa5906305f5e100612f72565b611aaf9190612f91565b611ab99190612f91565b611ac39190612f91565b9150505b92915050565b7f00000000000000000000000000000000000000000000000000000000000000006001600160a01b03166312d43a516040518163ffffffff1660e01b8152600401602060405180830381865afa158015611b2b573d6000803e3d6000fd5b505050506040513d601f19601f82011682018060405250810190611b4f9190613098565b6001600160a01b0316336001600160a01b031614611b7f5760405162461bcd60e51b8152600401610adc906131b8565b6001600160a01b038116611ba55760405162461bcd60e51b8152600401610adc906131da565b600880546001600160a01b0319166001600160a01b0383161790556040517f2504020720d4f3f4c5a7010cde1f1e76e9a22857f308ef695d666ed1237bf8a490610ccc9083906128da565b7f00000000000000000000000000000000000000000000000000000000000000006001600160a01b03166312d43a516040518163ffffffff1660e01b8152600401602060405180830381865afa158015611c4e573d6000803e3d6000fd5b505050506040513d601f19601f82011682018060405250810190611c729190613098565b6001600160a01b0316336001600160a01b031614611ca25760405162461bcd60e51b8152600401610adc906131b8565b61199081612789565b7f00000000000000000000000000000000000000000000000000000000000000006001600160a01b03166312d43a516040518163ffffffff1660e01b8152600401602060405180830381865afa158015611d09573d6000803e3d6000fd5b505050506040513d601f19601f82011682018060405250810190611d2d9190613098565b6001600160a01b0316336001600160a01b031614611d5d5760405162461bcd60e51b8152600401610adc906131b8565b80611d7a5760405162461bcd60e51b8152600401610adc906131da565b600d8190556040805160018152602081018390527f764c19c693af0da42ec6c6bed68a2dd1a2fa93d24785fcfce58ffa29ae3136069101610ccc565b600754604051638251135b60e01b8152600481018390526000916001600160a01b031690638251135b90602401602060405180830381865afa158015611e00573d6000803e3d6000fd5b505050506040513d601f19601f82011682018060405250810190611ac791906130d9565b7f00000000000000000000000000000000000000000000000000000000000000006001600160a01b03166312d43a516040518163ffffffff1660e01b8152600401602060405180830381865afa158015611e82573d6000803e3d6000fd5b505050506040513d601f19601f82011682018060405250810190611ea69190613098565b6001600160a01b0316336001600160a01b031614611ed65760405162461bcd60e51b8152600401610adc906131b8565b6003811015611f155760405162461bcd60e51b815260206004820152600b60248201526a4d494e5f414e535745525360a81b6044820152606401610adc565b611f20600282613383565b600114611f585760405162461bcd60e51b8152600401610adc9060208082526004908201526322ab22a760e11b604082015260600190565b600a8190556040518181527f230365d79885046a48c9158f0e4840ab95929bbebf5de4be23f7ce5f91a97c6590602001610ccc565b7f00000000000000000000000000000000000000000000000000000000000000006001600160a01b03166312d43a516040518163ffffffff1660e01b8152600401602060405180830381865afa158015611feb573d6000803e3d6000fd5b505050506040513d601f19601f8201168201806040525081019061200f9190613098565b6001600160a01b0316336001600160a01b03161461203f5760405162461bcd60e51b8152600401610adc906131b8565b600b5482106120605760405162461bcd60e51b8152600401610adc90613397565b6001600160a01b0381166120865760405162461bcd60e51b8152600401610adc906131da565b7f945eb5535c35fb8b656c5c6b7d8bb9d9deba3a44d202bd2b53d58aac4f43db0482600b84815481106120bb576120bb612caf565b60009182526020918290200154604080519384526001600160a01b039182169284019290925284169082015260600160405180910390a180600b838154811061210657612106612caf565b9060005260206000200160006101000a8154816001600160a01b0302191690836001600160a01b031602179055505050565b7f00000000000000000000000000000000000000000000000000000000000000006001600160a01b03166312d43a516040518163ffffffff1660e01b8152600401602060405180830381865afa158015612196573d6000803e3d6000fd5b505050506040513d601f19601f820116820180604052508101906121ba9190613098565b6001600160a01b0316336001600160a01b0316146121ea5760405162461bcd60e51b8152600401610adc906131b8565b600b54811061220b5760405162461bcd60e51b8152600401610adc90613397565b7f03082ced7b8d3c831a021af877c172ae1e0257c3522a135e4d7161343846115681600b838154811061224057612240612caf565b60009182526020909120015460405161227592916001600160a01b0316909182526001600160a01b0316602082015260400190565b60405180910390a1600b805461228d90600190613302565b8154811061229d5761229d612caf565b600091825260209091200154600b80546001600160a01b0390921691839081106122c9576122c9612caf565b9060005260206000200160006101000a8154816001600160a01b0302191690836001600160a01b03160217905550600b805480612308576123086133bc565b600082815260209020810160001990810180546001600160a01b031916905501905550565b60008060008360020b12612344578260020b61234c565b8260020b6000035b9050620d89e8811115612372576040516315e4079d60e11b815260040160405180910390fd5b60008160011660000361238957600160801b61239b565b6ffffcb933bd6fad37aa2d162d1a5940015b6001600160881b0316905060028216156123c5576ffff97272373d413259a46990580e213a0260801c5b60048216156123e4576ffff2e50f5f656932ef12357cf3c7fdcc0260801c5b6008821615612403576fffe5caca7e10e4e61c3624eaa0941cd00260801c5b6010821615612422576fffcb9843d60f6159c9db58835c9266440260801c5b6020821615612441576fff973b41fa98c081472e6896dfb254c00260801c5b6040821615612460576fff2ea16466c96a3843ec78b326b528610260801c5b608082161561247f576ffe5dee046a99a2a811c461f1969c30530260801c5b61010082161561249f576ffcbe86c7900a88aedcffc83b479aa3a40260801c5b6102008216156124bf576ff987a7253ac413176f2b074cf7815e540260801c5b6104008216156124df576ff3392b0822b70005940c7a398e4b70f30260801c5b6108008216156124ff576fe7159475a2c29b7443b29c7fa6e889d90260801c5b61100082161561251f576fd097f3bdfd2022b8845ad8f792aa58250260801c5b61200082161561253f576fa9f746462d870fdf8a65dc1f90e061e50260801c5b61400082161561255f576f70d869a156d2a1b890bb3df62baf32f70260801c5b61800082161561257f576f31be135f97d08fd981231505542fcfa60260801c5b620100008216156125a0576f09aa508b5b7a84e1c677de54f3e99bc90260801c5b620200008216156125c0576e5d6af8dedb81196699c329225ee6040260801c5b620400008216156125df576d2216e584f5fa1ea926041bedfe980260801c5b620800008216156125fc576b048a170391f7dc42444e8fa20260801c5b60008460020b131561261d57806000198161261957612619612ed9565b0490505b640100000000810615612631576001612634565b60005b60ff16602082901c0192505050919050565b600080806000198587098587029250828110838203039150508060000361267f576000841161267457600080fd5b5082900490506126f2565b80841161268b57600080fd5b6000848688096000868103871696879004966002600389028118808a02820302808a02820302808a02820302808a02820302808a02820302808a02909103029181900381900460010186841190950394909402919094039290920491909117919091029150505b9392505050565b61070863ffffffff821610801590612719575061384063ffffffff821611155b6127355760405162461bcd60e51b8152600401610adc906133d2565b6006805463ffffffff60a01b1916600160a01b63ffffffff8416908102919091179091556040519081527fc99f383ecd620c333255bd2aef929eedd6808999bac9bfc5f53e10d876abf1ce90602001610ccc565b6001600160a01b0381166127af5760405162461bcd60e51b8152600401610adc906133d2565b600680546001600160a01b0319166001600160a01b0383811691821790925560408051630dfe168160e01b815290517f000000000000000000000000000000000000000000000000000000000000000090931692630dfe1681916004808201926020929091908290030181865afa15801561282e573d6000803e3d6000fd5b505050506040513d601f19601f820116820180604052508101906128529190613098565b6001600160a01b031614600660186101000a81548160ff0219169083151502179055507fb9c36e5afdbe55e259bdc128e25c13a15f33271cc71599ce0df510b21c3e8da981604051610ccc91906128da565b6040518060c001604052806000815260200160008152602001600081526020016000815260200160008152602001600081525090565b6001600160a01b0391909116815260200190565b60006020828403121561290057600080fd5b5035919050565b634e487b7160e01b600052604160045260246000fd5b60405160c0810167ffffffffffffffff8111828210171561294057612940612907565b60405290565b604051610140810167ffffffffffffffff8111828210171561294057612940612907565b604051601f8201601f1916810167ffffffffffffffff8111828210171561299357612993612907565b604052919050565b6001600160a01b038116811461199057600080fd5b80356129bb8161299b565b919050565b60008082840360e08112156129d457600080fd5b8335925060c0601f19820112156129ea57600080fd5b506129f361291d565b6020840135612a018161299b565b8152604084013560208201526060840135612a1b8161299b565b6040820152608084810135606083015260a08501359082015260c084013560058110612a4657600080fd5b60a0820152919491935090915050565b600060208284031215612a6857600080fd5b81356126f28161299b565b60008060408385031215612a8657600080fd5b50508035926020909101359150565b60008060008060808587031215612aab57600080fd5b84359350602085013560048110612ac157600080fd5b93969395505050506040820135916060013590565b801515811461199057600080fd5b80356129bb81612ad6565b600080828403610200811215612b0457600080fd5b83359250601f19016101e080821215612b1c57600080fd5b612b2461291d565b61014080841215612b3457600080fd5b612b3c612946565b9350612b4a602088016129b0565b845260408701356020850152606087013560408501526080870135606085015260a0870135608085015260c087013560a0850152612b8a60e08801612ae4565b60c08501526101008781013560e086015261012080890135918601919091529087013590840152918252610160850135602083015261018085013560408301526101a085013560608301526101c085013560808301529093013560a08401525092909150565b600060208284031215612c0257600080fd5b813563ffffffff811681146126f257600080fd5b634e487b7160e01b600052602160045260246000fd5b60048110612c3c57612c3c612c16565b9052565b61ffff861681526001600160701b038516602082015260a08101612c676040830186612c2c565b92151560608201529015156080909101529392505050565b60008060408385031215612c9257600080fd5b823591506020830135612ca48161299b565b809150509250929050565b634e487b7160e01b600052603260045260246000fd5b6020808252825182820181905260009190848201906040850190845b81811015612d0357835163ffffffff1683529284019291840191600101612ce1565b50909695505050505050565b600067ffffffffffffffff821115612d2957612d29612907565b5060051b60200190565b600082601f830112612d4457600080fd5b81516020612d59612d5483612d0f565b61296a565b82815260059290921b84018101918181019086841115612d7857600080fd5b8286015b84811015612d9c578051612d8f8161299b565b8352918301918301612d7c565b509695505050505050565b60008060408385031215612dba57600080fd5b825167ffffffffffffffff80821115612dd257600080fd5b818501915085601f830112612de657600080fd5b81516020612df6612d5483612d0f565b82815260059290921b84018101918181019089841115612e1557600080fd5b948201945b83861015612e435785518060060b8114612e345760008081fd5b82529482019490820190612e1a565b91880151919650909350505080821115612e5c57600080fd5b50612e6985828601612d33565b9150509250929050565b634e487b7160e01b600052601160045260246000fd5b60008160060b8360060b6000811281667fffffffffffff1901831281151615612eb457612eb4612e73565b81667fffffffffffff018313811615612ecf57612ecf612e73565b5090039392505050565b634e487b7160e01b600052601260045260246000fd5b60008160060b8360060b80612f0657612f06612ed9565b667fffffffffffff19821460001982141615612f2457612f24612e73565b90059392505050565b60008260060b80612f4057612f40612ed9565b808360060b0791505092915050565b60008160020b627fffff198103612f6857612f68612e73565b6000190192915050565b6000816000190483118215151615612f8c57612f8c612e73565b500290565b600082612fa057612fa0612ed9565b500490565b600181815b80851115612fe0578160001904821115612fc657612fc6612e73565b80851615612fd357918102915b93841c9390800290612faa565b509250929050565b600082612ff757506001611ac7565b8161300457506000611ac7565b816001811461301a576002811461302457613040565b6001915050611ac7565b60ff84111561303557613035612e73565b50506001821b611ac7565b5060208310610133831016604e8410600b8410161715613063575081810a611ac7565b61306d8383612fa5565b806000190482111561308157613081612e73565b029392505050565b60006126f260ff841683612fe8565b6000602082840312156130aa57600080fd5b81516126f28161299b565b600080604083850312156130c857600080fd5b505080516020909101519092909150565b6000602082840312156130eb57600080fd5b5051919050565b805182526020810151602083015260408101516040830152606081015160608301526080810151608083015260a081015160a08301525050565b610180810161313b82856130f2565b82516001600160a01b0390811660c0840152602084015160e08401526040840151166101008301526060830151610120830152608083015161014083015260a08301516005811061318e5761318e612c16565b80610160840152509392505050565b60e081016131ab82856130f2565b6126f260c0830184612c2c565b602080825260089082015267474f565f4f4e4c5960c01b604082015260600190565b602080825260079082015266056414c55455f360cc1b604082015260600190565b60006001820161320d5761320d612e73565b5060010190565b60006020828403121561322657600080fd5b81516126f281612ad6565b6102a0810161324082856130f2565b825180516001600160a01b031660c0840152602081015160e084015260408101516101008181860152606083015191506101208281870152608084015161014087015260a084015161016087015260c084015192506132a461018087018415159052565b60e08401516101a0870152908301516101c0860152909101516101e084015250602083015161020083015260408301516102208301526060830151610240830152608083015161026083015260a09092015161028090910152919050565b60008282101561331457613314612e73565b500390565b805169ffffffffffffffffffff811681146129bb57600080fd5b600080600080600060a0868803121561334b57600080fd5b61335486613319565b945060208601519350604086015192506060860151915061337760808701613319565b90509295509295909350565b60008261339257613392612ed9565b500690565b6020808252600b908201526a0aea49e9c8ebe929c888ab60ab1b604082015260600190565b634e487b7160e01b600052603160045260246000fd5b6020808252600b908201526a57524f4e475f56414c554560a81b60408201526060019056fea2646970667358221220f0937be54285a9757b7942f30e8f433f54da7707e91e7d661fc473e08b0894ce64736f6c634300080f0033",
  "libraries": {
    "PackingUtils": "0x5914fC5B564E375906A496db0E096Ad9ED5F8E60"
  },
  "devdoc": {
    "kind": "dev",
    "methods": {},
    "version": 1
  },
  "userdoc": {
    "kind": "user",
    "methods": {},
    "version": 1
  },
  "storageLayout": {
    "storage": [
      {
        "astId": 319,
        "contract": "contracts/PriceAggregator.sol:PriceAggregator",
        "label": "s_ens",
        "offset": 0,
        "slot": "0",
        "type": "t_contract(ENSInterface)974"
      },
      {
        "astId": 321,
        "contract": "contracts/PriceAggregator.sol:PriceAggregator",
        "label": "s_ensNode",
        "offset": 0,
        "slot": "1",
        "type": "t_bytes32"
      },
      {
        "astId": 324,
        "contract": "contracts/PriceAggregator.sol:PriceAggregator",
        "label": "s_link",
        "offset": 0,
        "slot": "2",
        "type": "t_contract(LinkTokenInterface)1069"
      },
      {
        "astId": 327,
        "contract": "contracts/PriceAggregator.sol:PriceAggregator",
        "label": "s_oracle",
        "offset": 0,
        "slot": "3",
        "type": "t_contract(OperatorInterface)1149"
      },
      {
        "astId": 330,
        "contract": "contracts/PriceAggregator.sol:PriceAggregator",
        "label": "s_requestCount",
        "offset": 0,
        "slot": "4",
        "type": "t_uint256"
      },
      {
        "astId": 334,
        "contract": "contracts/PriceAggregator.sol:PriceAggregator",
        "label": "s_pendingRequests",
        "offset": 0,
        "slot": "5",
        "type": "t_mapping(t_bytes32,t_address)"
      },
      {
        "astId": 21378,
        "contract": "contracts/PriceAggregator.sol:PriceAggregator",
        "label": "uniV3Pool",
        "offset": 0,
        "slot": "6",
        "type": "t_contract(IUniswapV3Pool)6706"
      },
      {
        "astId": 21380,
        "contract": "contracts/PriceAggregator.sol:PriceAggregator",
        "label": "twapInterval",
        "offset": 20,
        "slot": "6",
        "type": "t_uint32"
      },
      {
        "astId": 21382,
        "contract": "contracts/PriceAggregator.sol:PriceAggregator",
        "label": "isGnsToken0InLp",
        "offset": 24,
        "slot": "6",
        "type": "t_bool"
      },
      {
        "astId": 14168,
        "contract": "contracts/PriceAggregator.sol:PriceAggregator",
        "label": "pairsStorage",
        "offset": 0,
        "slot": "7",
        "type": "t_contract(PairsStorageInterfaceV6)31377"
      },
      {
        "astId": 14171,
        "contract": "contracts/PriceAggregator.sol:PriceAggregator",
        "label": "linkPriceFeed",
        "offset": 0,
        "slot": "8",
        "type": "t_contract(ChainlinkFeedInterface)30486"
      },
      {
        "astId": 14182,
        "contract": "contracts/PriceAggregator.sol:PriceAggregator",
        "label": "orderIds",
        "offset": 0,
        "slot": "9",
        "type": "t_uint256"
      },
      {
        "astId": 14184,
        "contract": "contracts/PriceAggregator.sol:PriceAggregator",
        "label": "minAnswers",
        "offset": 0,
        "slot": "10",
        "type": "t_uint256"
      },
      {
        "astId": 14213,
        "contract": "contracts/PriceAggregator.sol:PriceAggregator",
        "label": "nodes",
        "offset": 0,
        "slot": "11",
        "type": "t_array(t_address)dyn_storage"
      },
      {
        "astId": 14217,
        "contract": "contracts/PriceAggregator.sol:PriceAggregator",
        "label": "jobIds",
        "offset": 0,
        "slot": "12",
        "type": "t_array(t_bytes32)2_storage"
      },
      {
        "astId": 14222,
        "contract": "contracts/PriceAggregator.sol:PriceAggregator",
        "label": "orders",
        "offset": 0,
        "slot": "14",
        "type": "t_mapping(t_uint256,t_struct(Order)14201_storage)"
      },
      {
        "astId": 14226,
        "contract": "contracts/PriceAggregator.sol:PriceAggregator",
        "label": "orderIdByRequest",
        "offset": 0,
        "slot": "15",
        "type": "t_mapping(t_bytes32,t_uint256)"
      },
      {
        "astId": 14231,
        "contract": "contracts/PriceAggregator.sol:PriceAggregator",
        "label": "ordersAnswers",
        "offset": 0,
        "slot": "16",
        "type": "t_mapping(t_uint256,t_array(t_uint256)dyn_storage)"
      },
      {
        "astId": 14237,
        "contract": "contracts/PriceAggregator.sol:PriceAggregator",
        "label": "lookbackOrderAnswers",
        "offset": 0,
        "slot": "17",
        "type": "t_mapping(t_uint256,t_array(t_struct(LookbackOrderAnswer)14210_storage)dyn_storage)"
      }
    ],
    "types": {
      "t_address": {
        "encoding": "inplace",
        "label": "address",
        "numberOfBytes": "20"
      },
      "t_array(t_address)dyn_storage": {
        "base": "t_address",
        "encoding": "dynamic_array",
        "label": "address[]",
        "numberOfBytes": "32"
      },
      "t_array(t_bytes32)2_storage": {
        "base": "t_bytes32",
        "encoding": "inplace",
        "label": "bytes32[2]",
        "numberOfBytes": "64"
      },
      "t_array(t_struct(LookbackOrderAnswer)14210_storage)dyn_storage": {
        "base": "t_struct(LookbackOrderAnswer)14210_storage",
        "encoding": "dynamic_array",
        "label": "struct PriceAggregator.LookbackOrderAnswer[]",
        "numberOfBytes": "32"
      },
      "t_array(t_uint256)dyn_storage": {
        "base": "t_uint256",
        "encoding": "dynamic_array",
        "label": "uint256[]",
        "numberOfBytes": "32"
      },
      "t_bool": {
        "encoding": "inplace",
        "label": "bool",
        "numberOfBytes": "1"
      },
      "t_bytes32": {
        "encoding": "inplace",
        "label": "bytes32",
        "numberOfBytes": "32"
      },
      "t_contract(ChainlinkFeedInterface)30486": {
        "encoding": "inplace",
        "label": "contract ChainlinkFeedInterface",
        "numberOfBytes": "20"
      },
      "t_contract(ENSInterface)974": {
        "encoding": "inplace",
        "label": "contract ENSInterface",
        "numberOfBytes": "20"
      },
      "t_contract(IUniswapV3Pool)6706": {
        "encoding": "inplace",
        "label": "contract IUniswapV3Pool",
        "numberOfBytes": "20"
      },
      "t_contract(LinkTokenInterface)1069": {
        "encoding": "inplace",
        "label": "contract LinkTokenInterface",
        "numberOfBytes": "20"
      },
      "t_contract(OperatorInterface)1149": {
        "encoding": "inplace",
        "label": "contract OperatorInterface",
        "numberOfBytes": "20"
      },
      "t_contract(PairsStorageInterfaceV6)31377": {
        "encoding": "inplace",
        "label": "contract PairsStorageInterfaceV6",
        "numberOfBytes": "20"
      },
      "t_enum(OrderType)14189": {
        "encoding": "inplace",
        "label": "enum PriceAggregator.OrderType",
        "numberOfBytes": "1"
      },
      "t_mapping(t_bytes32,t_address)": {
        "encoding": "mapping",
        "key": "t_bytes32",
        "label": "mapping(bytes32 => address)",
        "numberOfBytes": "32",
        "value": "t_address"
      },
      "t_mapping(t_bytes32,t_uint256)": {
        "encoding": "mapping",
        "key": "t_bytes32",
        "label": "mapping(bytes32 => uint256)",
        "numberOfBytes": "32",
        "value": "t_uint256"
      },
      "t_mapping(t_uint256,t_array(t_struct(LookbackOrderAnswer)14210_storage)dyn_storage)": {
        "encoding": "mapping",
        "key": "t_uint256",
        "label": "mapping(uint256 => struct PriceAggregator.LookbackOrderAnswer[])",
        "numberOfBytes": "32",
        "value": "t_array(t_struct(LookbackOrderAnswer)14210_storage)dyn_storage"
      },
      "t_mapping(t_uint256,t_array(t_uint256)dyn_storage)": {
        "encoding": "mapping",
        "key": "t_uint256",
        "label": "mapping(uint256 => uint256[])",
        "numberOfBytes": "32",
        "value": "t_array(t_uint256)dyn_storage"
      },
      "t_mapping(t_uint256,t_struct(Order)14201_storage)": {
        "encoding": "mapping",
        "key": "t_uint256",
        "label": "mapping(uint256 => struct PriceAggregator.Order)",
        "numberOfBytes": "32",
        "value": "t_struct(Order)14201_storage"
      },
      "t_struct(LookbackOrderAnswer)14210_storage": {
        "encoding": "inplace",
        "label": "struct PriceAggregator.LookbackOrderAnswer",
        "members": [
          {
            "astId": 14203,
            "contract": "contracts/PriceAggregator.sol:PriceAggregator",
            "label": "open",
            "offset": 0,
            "slot": "0",
            "type": "t_uint64"
          },
          {
            "astId": 14205,
            "contract": "contracts/PriceAggregator.sol:PriceAggregator",
            "label": "high",
            "offset": 8,
            "slot": "0",
            "type": "t_uint64"
          },
          {
            "astId": 14207,
            "contract": "contracts/PriceAggregator.sol:PriceAggregator",
            "label": "low",
            "offset": 16,
            "slot": "0",
            "type": "t_uint64"
          },
          {
            "astId": 14209,
            "contract": "contracts/PriceAggregator.sol:PriceAggregator",
            "label": "ts",
            "offset": 24,
            "slot": "0",
            "type": "t_uint64"
          }
        ],
        "numberOfBytes": "32"
      },
      "t_struct(Order)14201_storage": {
        "encoding": "inplace",
        "label": "struct PriceAggregator.Order",
        "members": [
          {
            "astId": 14191,
            "contract": "contracts/PriceAggregator.sol:PriceAggregator",
            "label": "pairIndex",
            "offset": 0,
            "slot": "0",
            "type": "t_uint16"
          },
          {
            "astId": 14193,
            "contract": "contracts/PriceAggregator.sol:PriceAggregator",
            "label": "linkFeePerNode",
            "offset": 2,
            "slot": "0",
            "type": "t_uint112"
          },
          {
            "astId": 14196,
            "contract": "contracts/PriceAggregator.sol:PriceAggregator",
            "label": "orderType",
            "offset": 16,
            "slot": "0",
            "type": "t_enum(OrderType)14189"
          },
          {
            "astId": 14198,
            "contract": "contracts/PriceAggregator.sol:PriceAggregator",
            "label": "active",
            "offset": 17,
            "slot": "0",
            "type": "t_bool"
          },
          {
            "astId": 14200,
            "contract": "contracts/PriceAggregator.sol:PriceAggregator",
            "label": "isLookback",
            "offset": 18,
            "slot": "0",
            "type": "t_bool"
          }
        ],
        "numberOfBytes": "32"
      },
      "t_uint112": {
        "encoding": "inplace",
        "label": "uint112",
        "numberOfBytes": "14"
      },
      "t_uint16": {
        "encoding": "inplace",
        "label": "uint16",
        "numberOfBytes": "2"
      },
      "t_uint256": {
        "encoding": "inplace",
        "label": "uint256",
        "numberOfBytes": "32"
      },
      "t_uint32": {
        "encoding": "inplace",
        "label": "uint32",
        "numberOfBytes": "4"
      },
      "t_uint64": {
        "encoding": "inplace",
        "label": "uint64",
        "numberOfBytes": "8"
      }
    }
  }
}