{
  "address": "0xC0f59243C14B838a48596a67317110459610D294",
  "abi": [
    {
      "inputs": [
        {
          "internalType": "contract StorageInterface",
          "name": "_storageT",
          "type": "address"
        }
      ],
      "stateMutability": "nonpayable",
      "type": "constructor"
    },
    {
      "inputs": [],
      "name": "checker",
      "outputs": [
        {
          "internalType": "bool",
          "name": "canExec",
          "type": "bool"
        },
        {
          "internalType": "bytes",
          "name": "execPayload",
          "type": "bytes"
        }
      ],
      "stateMutability": "view",
      "type": "function"
    },
    {
      "inputs": [],
      "name": "storageT",
      "outputs": [
        {
          "internalType": "contract StorageInterface",
          "name": "",
          "type": "address"
        }
      ],
      "stateMutability": "view",
      "type": "function"
    }
  ],
  "transactionHash": "0x8474515745c972b0aa4034e36aa34ceb03c3d397ca77d5d06bf38cc0b08afb8e",
  "args": [
    "0x602562Aae7024D93B0c722BfED19aE64A5080757"
  ],
  "numDeployments": 1,
  "solcInputHash": "9431870fba1b441b0c107d7cbbbe46f5",
  "bytecode": "0x60a060405234801561001057600080fd5b5060405161046b38038061046b83398101604081905261002f91610040565b6001600160a01b0316608052610070565b60006020828403121561005257600080fd5b81516001600160a01b038116811461006957600080fd5b9392505050565b6080516103db610090600039600081816040015260a101526103db6000f3fe608060405234801561001057600080fd5b50600436106100365760003560e01c806316fff0741461003b578063cf5303cf1461007f575b600080fd5b6100627f000000000000000000000000000000000000000000000000000000000000000081565b6040516001600160a01b0390911681526020015b60405180910390f35b610087610095565b60405161007692919061017e565b600060606000806000807f00000000000000000000000000000000000000000000000000000000000000006001600160a01b0316630a769d716040518163ffffffff1660e01b815260040161320060405180830381865afa1580156100fe573d6000803e3d6000fd5b505050506040513d601f19601f820116820180604052508101906101229190610266565b83516040519015159a509397509195509350915061014a90859085908590859060240161033d565b60408051601f198184030181529190526020810180516001600160e01b0316634ed6e6f760e11b1790529596945050505050565b821515815260006020604081840152835180604085015260005b818110156101b457858101830151858201606001528201610198565b818111156101c6576000606083870101525b50601f01601f191692909201606001949350505050565b604051610c80810167ffffffffffffffff8111828210171561020f57634e487b7160e01b600052604160045260246000fd5b60405290565b600082601f83011261022657600080fd5b61022e6101dd565b80610c8084018581111561024157600080fd5b845b8181101561025b578051845260209384019301610243565b509095945050505050565b600080600080613200858703121561027d57600080fd5b6102878686610215565b935085610c9f86011261029957600080fd5b6102a16101dd565b806119008701888111156102b457600080fd5b610c8088015b818110156102e85780516001600160a01b03811681146102da5760008081fd5b8452602093840193016102ba565b508195506102f68982610215565b9450505050610309866125808701610215565b905092959194509250565b8060005b6064811015610337578151845260209384019390910190600101610318565b50505050565b613200810161034c8287610314565b610c8082018560005b606481101561037d5781516001600160a01b0316835260209283019290910190600101610355565b50505061038e611900830185610314565b61039c612580830184610314565b9594505050505056fea2646970667358221220a4f6f8fba4ddb8d2b538d640bbb82534f7bc8d59ce6f2875a8784e7cf5cd10e364736f6c634300080f0033",
  "devdoc": {
    "kind": "dev",
    "methods": {},
    "version": 1
  },
  "userdoc": {
    "kind": "user",
    "methods": {},
    "version": 1
  },
  "storageLayout": {
    "storage": [],
    "types": null
  }
}