{
  "address": "0x0c4BEdb86635AEAEf2b76880cf561647f4e7Bec9",
  "abi": [
    {
      "anonymous": false,
      "inputs": [
        {
          "indexed": false,
          "internalType": "uint8",
          "name": "version",
          "type": "uint8"
        }
      ],
      "name": "Initialized",
      "type": "event"
    },
    {
      "anonymous": false,
      "inputs": [
        {
          "indexed": false,
          "internalType": "string",
          "name": "name",
          "type": "string"
        },
        {
          "indexed": false,
          "internalType": "uint256",
          "name": "value",
          "type": "uint256"
        }
      ],
      "name": "NumberUpdated",
      "type": "event"
    },
    {
      "anonymous": false,
      "inputs": [
        {
          "indexed": false,
          "internalType": "address",
          "name": "bot",
          "type": "address"
        },
        {
          "indexed": false,
          "internalType": "uint256",
          "name": "fromRound",
          "type": "uint256"
        },
        {
          "indexed": false,
          "internalType": "uint256",
          "name": "toRound",
          "type": "uint256"
        },
        {
          "indexed": false,
          "internalType": "uint256",
          "name": "tokens",
          "type": "uint256"
        }
      ],
      "name": "PoolTokensClaimed",
      "type": "event"
    },
    {
      "anonymous": false,
      "inputs": [
        {
          "indexed": false,
          "internalType": "address",
          "name": "bot",
          "type": "address"
        },
        {
          "indexed": false,
          "internalType": "uint256",
          "name": "tokens",
          "type": "uint256"
        }
      ],
      "name": "TokensClaimed",
      "type": "event"
    },
    {
      "anonymous": false,
      "inputs": [
        {
          "components": [
            {
              "internalType": "address",
              "name": "trader",
              "type": "address"
            },
            {
              "internalType": "uint256",
              "name": "pairIndex",
              "type": "uint256"
            },
            {
              "internalType": "uint256",
              "name": "index",
              "type": "uint256"
            },
            {
              "internalType": "enum StorageInterfaceV5.LimitOrder",
              "name": "order",
              "type": "uint8"
            }
          ],
          "indexed": false,
          "internalType": "struct GNSNftRewardsV6_3_1.TriggeredLimitId",
          "name": "id",
          "type": "tuple"
        },
        {
          "indexed": false,
          "internalType": "address",
          "name": "first",
          "type": "address"
        },
        {
          "indexed": false,
          "internalType": "uint256",
          "name": "sameBlockCount",
          "type": "uint256"
        },
        {
          "indexed": false,
          "internalType": "uint256",
          "name": "sameBlockLimit",
          "type": "uint256"
        },
        {
          "indexed": false,
          "internalType": "uint256",
          "name": "reward",
          "type": "uint256"
        }
      ],
      "name": "TriggerRewarded",
      "type": "event"
    },
    {
      "anonymous": false,
      "inputs": [
        {
          "components": [
            {
              "internalType": "address",
              "name": "trader",
              "type": "address"
            },
            {
              "internalType": "uint256",
              "name": "pairIndex",
              "type": "uint256"
            },
            {
              "internalType": "uint256",
              "name": "index",
              "type": "uint256"
            },
            {
              "internalType": "enum StorageInterfaceV5.LimitOrder",
              "name": "order",
              "type": "uint8"
            }
          ],
          "indexed": false,
          "internalType": "struct GNSNftRewardsV6_3_1.TriggeredLimitId",
          "name": "id",
          "type": "tuple"
        }
      ],
      "name": "TriggerUnregistered",
      "type": "event"
    },
    {
      "anonymous": false,
      "inputs": [
        {
          "components": [
            {
              "internalType": "address",
              "name": "trader",
              "type": "address"
            },
            {
              "internalType": "uint256",
              "name": "pairIndex",
              "type": "uint256"
            },
            {
              "internalType": "uint256",
              "name": "index",
              "type": "uint256"
            },
            {
              "internalType": "enum StorageInterfaceV5.LimitOrder",
              "name": "order",
              "type": "uint8"
            }
          ],
          "indexed": false,
          "internalType": "struct GNSNftRewardsV6_3_1.TriggeredLimitId",
          "name": "id",
          "type": "tuple"
        },
        {
          "indexed": false,
          "internalType": "address",
          "name": "bot",
          "type": "address"
        },
        {
          "indexed": false,
          "internalType": "uint256",
          "name": "linkFee",
          "type": "uint256"
        }
      ],
      "name": "TriggeredFirst",
      "type": "event"
    },
    {
      "anonymous": false,
      "inputs": [
        {
          "components": [
            {
              "internalType": "address",
              "name": "trader",
              "type": "address"
            },
            {
              "internalType": "uint256",
              "name": "pairIndex",
              "type": "uint256"
            },
            {
              "internalType": "uint256",
              "name": "index",
              "type": "uint256"
            },
            {
              "internalType": "enum StorageInterfaceV5.LimitOrder",
              "name": "order",
              "type": "uint8"
            }
          ],
          "indexed": false,
          "internalType": "struct GNSNftRewardsV6_3_1.TriggeredLimitId",
          "name": "id",
          "type": "tuple"
        },
        {
          "indexed": false,
          "internalType": "address",
          "name": "bot",
          "type": "address"
        },
        {
          "indexed": false,
          "internalType": "uint256",
          "name": "linkContribution",
          "type": "uint256"
        }
      ],
      "name": "TriggeredSameBlock",
      "type": "event"
    },
    {
      "inputs": [
        {
          "internalType": "bytes32",
          "name": "",
          "type": "bytes32"
        }
      ],
      "name": "botInUse",
      "outputs": [
        {
          "internalType": "bool",
          "name": "",
          "type": "bool"
        }
      ],
      "stateMutability": "view",
      "type": "function"
    },
    {
      "inputs": [
        {
          "internalType": "uint256",
          "name": "_fromRound",
          "type": "uint256"
        },
        {
          "internalType": "uint256",
          "name": "_toRound",
          "type": "uint256"
        }
      ],
      "name": "claimPoolTokens",
      "outputs": [],
      "stateMutability": "nonpayable",
      "type": "function"
    },
    {
      "inputs": [],
      "name": "claimTokens",
      "outputs": [],
      "stateMutability": "nonpayable",
      "type": "function"
    },
    {
      "inputs": [
        {
          "internalType": "uint256",
          "name": "start",
          "type": "uint256"
        },
        {
          "internalType": "uint256",
          "name": "end",
          "type": "uint256"
        }
      ],
      "name": "copyOldLimitTypes",
      "outputs": [],
      "stateMutability": "nonpayable",
      "type": "function"
    },
    {
      "inputs": [],
      "name": "currentOrder",
      "outputs": [
        {
          "internalType": "uint256",
          "name": "",
          "type": "uint256"
        }
      ],
      "stateMutability": "view",
      "type": "function"
    },
    {
      "inputs": [],
      "name": "currentRound",
      "outputs": [
        {
          "internalType": "uint256",
          "name": "",
          "type": "uint256"
        }
      ],
      "stateMutability": "view",
      "type": "function"
    },
    {
      "inputs": [
        {
          "components": [
            {
              "internalType": "address",
              "name": "trader",
              "type": "address"
            },
            {
              "internalType": "uint256",
              "name": "pairIndex",
              "type": "uint256"
            },
            {
              "internalType": "uint256",
              "name": "index",
              "type": "uint256"
            },
            {
              "internalType": "enum StorageInterfaceV5.LimitOrder",
              "name": "order",
              "type": "uint8"
            }
          ],
          "internalType": "struct GNSNftRewardsV6_3_1.TriggeredLimitId",
          "name": "_id",
          "type": "tuple"
        },
        {
          "internalType": "uint256",
          "name": "_reward",
          "type": "uint256"
        },
        {
          "internalType": "uint256",
          "name": "_tokenPriceWETH",
          "type": "uint256"
        }
      ],
      "name": "distributeNftReward",
      "outputs": [],
      "stateMutability": "nonpayable",
      "type": "function"
    },
    {
      "inputs": [
        {
          "internalType": "uint256",
          "name": "triggerBlock",
          "type": "uint256"
        },
        {
          "internalType": "address",
          "name": "bot",
          "type": "address"
        },
        {
          "internalType": "uint256",
          "name": "nftId",
          "type": "uint256"
        },
        {
          "internalType": "address",
          "name": "trader",
          "type": "address"
        },
        {
          "internalType": "uint256",
          "name": "pairIndex",
          "type": "uint256"
        },
        {
          "internalType": "uint256",
          "name": "index",
          "type": "uint256"
        }
      ],
      "name": "getNftBotHashes",
      "outputs": [
        {
          "internalType": "bytes32",
          "name": "",
          "type": "bytes32"
        },
        {
          "internalType": "bytes32",
          "name": "",
          "type": "bytes32"
        }
      ],
      "stateMutability": "pure",
      "type": "function"
    },
    {
      "inputs": [
        {
          "internalType": "contract StorageInterfaceV5",
          "name": "_storageT",
          "type": "address"
        },
        {
          "internalType": "uint256",
          "name": "_triggerTimeout",
          "type": "uint256"
        },
        {
          "internalType": "uint256",
          "name": "_sameBlockLimit",
          "type": "uint256"
        }
      ],
      "name": "initialize",
      "outputs": [],
      "stateMutability": "nonpayable",
      "type": "function"
    },
    {
      "inputs": [
        {
          "internalType": "uint256",
          "name": "linkFee",
          "type": "uint256"
        },
        {
          "internalType": "uint256",
          "name": "tokenPrice",
          "type": "uint256"
        }
      ],
      "name": "linkToTokenRewards",
      "outputs": [
        {
          "internalType": "uint256",
          "name": "",
          "type": "uint256"
        }
      ],
      "stateMutability": "view",
      "type": "function"
    },
    {
      "inputs": [
        {
          "internalType": "bytes32",
          "name": "nftHash",
          "type": "bytes32"
        },
        {
          "internalType": "bytes32",
          "name": "botHash",
          "type": "bytes32"
        }
      ],
      "name": "nftBotInUse",
      "outputs": [
        {
          "internalType": "bool",
          "name": "",
          "type": "bool"
        }
      ],
      "stateMutability": "view",
      "type": "function"
    },
    {
      "inputs": [
        {
          "internalType": "address",
          "name": "",
          "type": "address"
        },
        {
          "internalType": "uint256",
          "name": "",
          "type": "uint256"
        },
        {
          "internalType": "uint256",
          "name": "",
          "type": "uint256"
        }
      ],
      "name": "openLimitOrderTypes",
      "outputs": [
        {
          "internalType": "enum GNSNftRewardsV6_3_1.OpenLimitOrderType",
          "name": "",
          "type": "uint8"
        }
      ],
      "stateMutability": "view",
      "type": "function"
    },
    {
      "inputs": [
        {
          "internalType": "address",
          "name": "",
          "type": "address"
        },
        {
          "internalType": "uint256",
          "name": "",
          "type": "uint256"
        }
      ],
      "name": "roundOrdersToClaim",
      "outputs": [
        {
          "internalType": "uint256",
          "name": "",
          "type": "uint256"
        }
      ],
      "stateMutability": "view",
      "type": "function"
    },
    {
      "inputs": [
        {
          "internalType": "uint256",
          "name": "",
          "type": "uint256"
        }
      ],
      "name": "roundTokens",
      "outputs": [
        {
          "internalType": "uint240",
          "name": "tokens",
          "type": "uint240"
        },
        {
          "internalType": "uint16",
          "name": "totalEntries",
          "type": "uint16"
        }
      ],
      "stateMutability": "view",
      "type": "function"
    },
    {
      "inputs": [],
      "name": "sameBlockLimit",
      "outputs": [
        {
          "internalType": "uint256",
          "name": "",
          "type": "uint256"
        }
      ],
      "stateMutability": "view",
      "type": "function"
    },
    {
      "inputs": [
        {
          "components": [
            {
              "internalType": "address",
              "name": "trader",
              "type": "address"
            },
            {
              "internalType": "uint256",
              "name": "pairIndex",
              "type": "uint256"
            },
            {
              "internalType": "uint256",
              "name": "index",
              "type": "uint256"
            },
            {
              "internalType": "enum StorageInterfaceV5.LimitOrder",
              "name": "order",
              "type": "uint8"
            }
          ],
          "internalType": "struct GNSNftRewardsV6_3_1.TriggeredLimitId",
          "name": "_id",
          "type": "tuple"
        }
      ],
      "name": "sameBlockTriggers",
      "outputs": [
        {
          "internalType": "address[]",
          "name": "",
          "type": "address[]"
        }
      ],
      "stateMutability": "view",
      "type": "function"
    },
    {
      "inputs": [
        {
          "internalType": "bytes32",
          "name": "nftHash",
          "type": "bytes32"
        },
        {
          "internalType": "bytes32",
          "name": "botHash",
          "type": "bytes32"
        }
      ],
      "name": "setNftBotInUse",
      "outputs": [],
      "stateMutability": "nonpayable",
      "type": "function"
    },
    {
      "inputs": [
        {
          "internalType": "address",
          "name": "_trader",
          "type": "address"
        },
        {
          "internalType": "uint256",
          "name": "_pairIndex",
          "type": "uint256"
        },
        {
          "internalType": "uint256",
          "name": "_index",
          "type": "uint256"
        },
        {
          "internalType": "enum GNSNftRewardsV6_3_1.OpenLimitOrderType",
          "name": "_type",
          "type": "uint8"
        }
      ],
      "name": "setOpenLimitOrderType",
      "outputs": [],
      "stateMutability": "nonpayable",
      "type": "function"
    },
    {
      "inputs": [],
      "name": "setStateCopyAsDone",
      "outputs": [],
      "stateMutability": "nonpayable",
      "type": "function"
    },
    {
      "inputs": [],
      "name": "stateCopied",
      "outputs": [
        {
          "internalType": "bool",
          "name": "",
          "type": "bool"
        }
      ],
      "stateMutability": "view",
      "type": "function"
    },
    {
      "inputs": [],
      "name": "storageT",
      "outputs": [
        {
          "internalType": "contract StorageInterfaceV5",
          "name": "",
          "type": "address"
        }
      ],
      "stateMutability": "view",
      "type": "function"
    },
    {
      "inputs": [
        {
          "components": [
            {
              "internalType": "address",
              "name": "trader",
              "type": "address"
            },
            {
              "internalType": "uint256",
              "name": "pairIndex",
              "type": "uint256"
            },
            {
              "internalType": "uint256",
              "name": "index",
              "type": "uint256"
            },
            {
              "internalType": "enum StorageInterfaceV5.LimitOrder",
              "name": "order",
              "type": "uint8"
            }
          ],
          "internalType": "struct GNSNftRewardsV6_3_1.TriggeredLimitId",
          "name": "_id",
          "type": "tuple"
        },
        {
          "internalType": "address",
          "name": "_bot",
          "type": "address"
        },
        {
          "internalType": "uint256",
          "name": "_linkFee",
          "type": "uint256"
        }
      ],
      "name": "storeFirstToTrigger",
      "outputs": [],
      "stateMutability": "nonpayable",
      "type": "function"
    },
    {
      "inputs": [
        {
          "components": [
            {
              "internalType": "address",
              "name": "trader",
              "type": "address"
            },
            {
              "internalType": "uint256",
              "name": "pairIndex",
              "type": "uint256"
            },
            {
              "internalType": "uint256",
              "name": "index",
              "type": "uint256"
            },
            {
              "internalType": "enum StorageInterfaceV5.LimitOrder",
              "name": "order",
              "type": "uint8"
            }
          ],
          "internalType": "struct GNSNftRewardsV6_3_1.TriggeredLimitId",
          "name": "_id",
          "type": "tuple"
        },
        {
          "internalType": "address",
          "name": "_bot",
          "type": "address"
        }
      ],
      "name": "storeTriggerSameBlock",
      "outputs": [],
      "stateMutability": "nonpayable",
      "type": "function"
    },
    {
      "inputs": [
        {
          "components": [
            {
              "internalType": "address",
              "name": "trader",
              "type": "address"
            },
            {
              "internalType": "uint256",
              "name": "pairIndex",
              "type": "uint256"
            },
            {
              "internalType": "uint256",
              "name": "index",
              "type": "uint256"
            },
            {
              "internalType": "enum StorageInterfaceV5.LimitOrder",
              "name": "order",
              "type": "uint8"
            }
          ],
          "internalType": "struct GNSNftRewardsV6_3_1.TriggeredLimitId",
          "name": "_id",
          "type": "tuple"
        }
      ],
      "name": "timedOut",
      "outputs": [
        {
          "internalType": "bool",
          "name": "",
          "type": "bool"
        }
      ],
      "stateMutability": "view",
      "type": "function"
    },
    {
      "inputs": [
        {
          "internalType": "address",
          "name": "",
          "type": "address"
        }
      ],
      "name": "tokensClaimed",
      "outputs": [
        {
          "internalType": "uint256",
          "name": "",
          "type": "uint256"
        }
      ],
      "stateMutability": "view",
      "type": "function"
    },
    {
      "inputs": [],
      "name": "tokensClaimedTotal",
      "outputs": [
        {
          "internalType": "uint256",
          "name": "",
          "type": "uint256"
        }
      ],
      "stateMutability": "view",
      "type": "function"
    },
    {
      "inputs": [
        {
          "internalType": "address",
          "name": "",
          "type": "address"
        }
      ],
      "name": "tokensToClaim",
      "outputs": [
        {
          "internalType": "uint256",
          "name": "",
          "type": "uint256"
        }
      ],
      "stateMutability": "view",
      "type": "function"
    },
    {
      "inputs": [],
      "name": "triggerTimeout",
      "outputs": [
        {
          "internalType": "uint256",
          "name": "",
          "type": "uint256"
        }
      ],
      "stateMutability": "view",
      "type": "function"
    },
    {
      "inputs": [
        {
          "components": [
            {
              "internalType": "address",
              "name": "trader",
              "type": "address"
            },
            {
              "internalType": "uint256",
              "name": "pairIndex",
              "type": "uint256"
            },
            {
              "internalType": "uint256",
              "name": "index",
              "type": "uint256"
            },
            {
              "internalType": "enum StorageInterfaceV5.LimitOrder",
              "name": "order",
              "type": "uint8"
            }
          ],
          "internalType": "struct GNSNftRewardsV6_3_1.TriggeredLimitId",
          "name": "_id",
          "type": "tuple"
        }
      ],
      "name": "triggered",
      "outputs": [
        {
          "internalType": "bool",
          "name": "",
          "type": "bool"
        }
      ],
      "stateMutability": "view",
      "type": "function"
    },
    {
      "inputs": [
        {
          "internalType": "address",
          "name": "",
          "type": "address"
        },
        {
          "internalType": "uint256",
          "name": "",
          "type": "uint256"
        },
        {
          "internalType": "uint256",
          "name": "",
          "type": "uint256"
        },
        {
          "internalType": "enum StorageInterfaceV5.LimitOrder",
          "name": "",
          "type": "uint8"
        }
      ],
      "name": "triggeredLimits",
      "outputs": [
        {
          "internalType": "address",
          "name": "first",
          "type": "address"
        },
        {
          "internalType": "uint256",
          "name": "block",
          "type": "uint256"
        },
        {
          "internalType": "uint240",
          "name": "linkFee",
          "type": "uint240"
        },
        {
          "internalType": "uint16",
          "name": "sameBlockLimit",
          "type": "uint16"
        }
      ],
      "stateMutability": "view",
      "type": "function"
    },
    {
      "inputs": [
        {
          "components": [
            {
              "internalType": "address",
              "name": "trader",
              "type": "address"
            },
            {
              "internalType": "uint256",
              "name": "pairIndex",
              "type": "uint256"
            },
            {
              "internalType": "uint256",
              "name": "index",
              "type": "uint256"
            },
            {
              "internalType": "enum StorageInterfaceV5.LimitOrder",
              "name": "order",
              "type": "uint8"
            }
          ],
          "internalType": "struct GNSNftRewardsV6_3_1.TriggeredLimitId",
          "name": "_id",
          "type": "tuple"
        }
      ],
      "name": "unregisterTrigger",
      "outputs": [],
      "stateMutability": "nonpayable",
      "type": "function"
    },
    {
      "inputs": [
        {
          "internalType": "uint256",
          "name": "_sameBlockLimit",
          "type": "uint256"
        }
      ],
      "name": "updateSameBlockLimit",
      "outputs": [],
      "stateMutability": "nonpayable",
      "type": "function"
    },
    {
      "inputs": [
        {
          "internalType": "uint256",
          "name": "_triggerTimeout",
          "type": "uint256"
        }
      ],
      "name": "updateTriggerTimeout",
      "outputs": [],
      "stateMutability": "nonpayable",
      "type": "function"
    }
  ],
  "transactionHash": "0x7d5a394348dc1c21df6df8fc449856ff8a37863c35f3a4a275fba28cb76fcb3c",
  "args": [],
  "numDeployments": 1,
  "solcInputHash": "ec3cbe74776f6123e7e1f431318f92a1",
  "bytecode": "0x608060405234801561001057600080fd5b50612fda806100206000396000f3fe608060405234801561001057600080fd5b50600436106101cb5760003560e01c80637e21a0731161010a578063bf654d2b116100ad578063dd6606e91161007c578063dd6606e9146105c5578063ec570610146105cd578063fa827e2e146105e0578063fc6dcafc14610638578063fc8b26981461064b57600080fd5b8063bf654d2b146104b9578063d15ccfaa146104cc578063d4de65ea14610571578063daa6a3e2146105b257600080fd5b80637e21a07314610413578063841714e61461043e5780638a19c8bc146104515780638fb9e0a01461045a578063956da5141461047d5780639e28229d14610490578063aa88fd2e14610499578063ab5d5c22146104ac57600080fd5b806346ea285b1161017257806346ea285b1461038357806348c54b9d146103965780634d5c430f1461039e578063580c6570146103b1578063613e666e146103c4578063624601b6146103d75780637a1ac61e146103f75780637ceea89a1461040a57600080fd5b806301832646146101d05780630c50b7ef146102b057806316fff074146102d0578063196e182f146103015780631e8683341461031857806321187a921461033857806324597b031461035b578063448b3a6814610370575b600080fd5b6102966101de36600461271d565b60408051602760f91b6020808301919091526021820189905260418201969096526bffffffffffffffffffffffff19606095861b8116606183018190526075830186905260958084018690528451808503909101815260b584018552805190890120602160f91b60d585015260d684019a909a529790951b90941660f685015261010a84019590955261011e83019190915261013e808301919091528351808303909101815261015e90910190925281519101209091565b604080519283526020830191909152015b60405180910390f35b6102c36102be366004612791565b610654565b6040516102a791906127ad565b6000546102e9906201000090046001600160a01b031681565b6040516001600160a01b0390911681526020016102a7565b61030a60025481565b6040519081526020016102a7565b61030a6103263660046127fa565b60076020526000908152604090205481565b61034b610346366004612791565b61073f565b60405190151581526020016102a7565b61036e610369366004612817565b610885565b005b61036e61037e366004612839565b610b51565b61036e61039136600461286d565b6110b0565b61036e61140b565b61030a6103ac366004612817565b6115a4565b61036e6103bf366004612817565b611725565b61036e6103d23660046128a5565b6117fb565b61030a6103e53660046127fa565b600c6020526000908152604090205481565b61036e6104053660046128be565b611920565b61030a600d5481565b61030a6104213660046128f3565b600660209081526000928352604080842090915290825290205481565b61036e61044c366004612817565b611ac5565b61030a60045481565b61034b6104683660046128a5565b600b6020526000908152604090205460ff1681565b61034b61048b366004612817565b611ea4565b61030a60035481565b61036e6104a736600461291f565b611ed6565b600a5461034b9060ff1681565b61036e6104c7366004612791565b6120cb565b6105356104da366004612973565b60086020908152600094855260408086208252938552838520815291845282842090915282529020805460028201546003909201546001600160a01b0390911691906001600160f01b03811690600160f01b900461ffff1684565b604080516001600160a01b03909516855260208501939093526001600160f01b039091169183019190915261ffff1660608201526080016102a7565b6105a561057f3660046128be565b600960209081526000938452604080852082529284528284209052825290205460ff1681565b6040516102a791906129d1565b61036e6105c03660046128a5565b612257565b61036e6123b9565b61036e6105db3660046129f8565b61246f565b6106166105ee3660046128a5565b6005602052600090815260409020546001600160f01b03811690600160f01b900461ffff1682565b604080516001600160f01b03909316835261ffff9091166020830152016102a7565b61034b610646366004612791565b612569565b61030a60015481565b60606008600061066760208501856127fa565b6001600160a01b031681526020808201929092526040908101600090812085840135825283528181208583013582529092528120906106ac6080850160608601612a42565b60038111156106bd576106bd6129bb565b60038111156106ce576106ce6129bb565b815260200190815260200160002060010180548060200260200160405190810160405280929190818152602001828054801561073357602002820191906000526020600020905b81546001600160a01b03168152600190910190602001808311610715575b50505050509050919050565b60008060088161075260208601866127fa565b6001600160a01b031681526020808201929092526040908101600090812086840135825283528181208683013582529092528120906107976080860160608701612a42565b60038111156107a8576107a86129bb565b60038111156107b9576107b96129bb565b81526020808201929092526040908101600020815160a08101835281546001600160a01b03168152600182018054845181870281018701909552808552919492938584019390929083018282801561083a57602002820191906000526020600020905b81546001600160a01b0316815260019091019060200180831161081c575b5050509183525050600282015460208201526003909101546001600160f01b038116604080840191909152600160f01b90910461ffff16606090920191909152015115159392505050565b818110156108cb5760405162461bcd60e51b815260206004820152600e60248201526d544f5f4245464f52455f46524f4d60901b60448201526064015b60405180910390fd5b60045481106109085760405162461bcd60e51b8152602060048201526009602482015268544f4f5f4541524c5960b81b60448201526064016108c2565b6000825b8281116109be5733600090815260066020908152604080832084845290915290205480156109ab576000828152600560209081526040918290208251808401909352546001600160f01b038116808452600160f01b90910461ffff169183018290526109789084612a73565b6109829190612aa0565b61098c9085612ab4565b3360009081526006602090815260408083208784529091528120559350505b50806109b681612ac7565b91505061090c565b50600081116109df5760405162461bcd60e51b81526004016108c290612ae0565b600060029054906101000a90046001600160a01b03166001600160a01b031663fc0c546a6040518163ffffffff1660e01b8152600401602060405180830381865afa158015610a32573d6000803e3d6000fd5b505050506040513d601f19601f82011682018060405250810190610a569190612b0a565b6001600160a01b031663a9059cbb33836040518363ffffffff1660e01b8152600401610a83929190612b27565b6020604051808303816000875af1158015610aa2573d6000803e3d6000fd5b505050506040513d601f19601f82011682018060405250810190610ac69190612b50565b50336000908152600c602052604081208054839290610ae6908490612ab4565b9250508190555080600d6000828254610aff9190612ab4565b90915550506040805133815260208101859052908101839052606081018290527f46ac8a38885612f1237f564a5c0956490dfd5f8e749e750a4c28fafb9f4e6f3a9060800160405180910390a1505050565b600060029054906101000a90046001600160a01b03166001600160a01b031662b127836040518163ffffffff1660e01b8152600401602060405180830381865afa158015610ba3573d6000803e3d6000fd5b505050506040513d601f19601f82011682018060405250810190610bc79190612b0a565b6001600160a01b0316336001600160a01b031614610bf75760405162461bcd60e51b81526004016108c290612b76565b6000600881610c0960208701876127fa565b6001600160a01b03168152602080820192909252604090810160009081208784013582528352818120878301358252909252812090610c4e6080870160608801612a42565b6003811115610c5f57610c5f6129bb565b6003811115610c7057610c706129bb565b81526020808201929092526040908101600020815160a08101835281546001600160a01b031681526001820180548451818702810187019095528085529194929385840193909290830182828015610cf157602002820191906000526020600020905b81546001600160a01b03168152600190910190602001808311610cd3575b5050509183525050600282015460208201526003909101546001600160f01b038116604080840191909152600160f01b90910461ffff16606090920191909152810151909150610d735760405162461bcd60e51b815260206004820152600d60248201526c1393d517d5149251d1d1549151609a1b60448201526064016108c2565b60006004546001610d849190612ab4565b90506000610d9f83606001516001600160f01b0316856115a4565b905084811115610dac5750835b6000836080015161ffff1682610dc29190612aa0565b905060005b846020015151811015610e7857600085602001518281518110610dec57610dec612b9e565b602002602001015190508260076000836001600160a01b03166001600160a01b031681526020019081526020016000206000828254610e2b9190612ab4565b90915550506001600160a01b03811660009081526006602090815260408083208884529091528120805491610e5f83612ac7565b9190505550508080610e7090612ac7565b915050610dc7565b506000846020015151856080015161ffff16610e949190612bb4565b90508015610ed557610ea68183612a73565b85516001600160a01b031660009081526007602052604081208054909190610ecf908490612ab4565b90915550505b610edf8388612bb4565b60045460009081526005602052604081208054909190610f099084906001600160f01b0316612bc7565b92506101000a8154816001600160f01b0302191690836001600160f01b0316021790555084602001515160056000868152602001908152602001600020600001601e8282829054906101000a900461ffff16610f659190612bee565b92506101000a81548161ffff021916908361ffff160217905550600060029054906101000a90046001600160a01b03166001600160a01b0316635378143e30600060045411610fb45785610fb6565b895b6040516001600160e01b031960e085901b1681526001600160a01b039092166004830152602482015260016044820152606401600060405180830381600087803b15801561100357600080fd5b505af1158015611017573d6000803e3d6000fd5b505050506032600354036110445760016003556004805490600061103a83612ac7565b919050555061105a565b6003805490600061105483612ac7565b91905055505b7f4f36bd87851f2528458a1738abf4e49a04eb6705717220577a0450ff989dd2fe88866000015187602001515188608001518b60405161109e959493929190612c5a565b60405180910390a15050505050505050565b600060029054906101000a90046001600160a01b03166001600160a01b031663ec44acf26040518163ffffffff1660e01b8152600401602060405180830381865afa158015611103573d6000803e3d6000fd5b505050506040513d601f19601f820116820180604052508101906111279190612b0a565b6001600160a01b0316336001600160a01b0316146111575760405162461bcd60e51b81526004016108c290612c99565b600060088161116960208601866127fa565b6001600160a01b031681526020808201929092526040908101600090812086840135825283528181208683013582529092528120906111ae6080860160608701612a42565b60038111156111bf576111bf6129bb565b60038111156111d0576111d06129bb565b815260200190815260200160002090504381600201541461121e5760405162461bcd60e51b8152602060048201526008602482015267544f4f5f4c41544560c01b60448201526064016108c2565b60038101546001820154600160f01b90910461ffff16116112745760405162461bcd60e51b815260206004820152601060248201526f14d0535157d09313d0d2d7d31253525560821b60448201526064016108c2565b600381015460009061129a9061ffff600160f01b820416906001600160f01b0316612cbf565b6001600160f01b03169050600060029054906101000a90046001600160a01b03166001600160a01b031663fece4eac6040518163ffffffff1660e01b8152600401602060405180830381865afa1580156112f8573d6000803e3d6000fd5b505050506040513d601f19601f8201168201806040525081019061131c9190612b0a565b82546040516323b872dd60e01b81526001600160a01b0386811660048301529182166024820152604481018490529116906323b872dd906064016020604051808303816000875af1158015611375573d6000803e3d6000fd5b505050506040513d601f19601f820116820180604052508101906113999190612b50565b506001828101805491820181556000908152602090200180546001600160a01b0319166001600160a01b0385161790556040517f6cfcd117aba4d28c6c45c502123dd5d74085f21eb712ea2a5d8b63deacb81eb7906113fd90869086908590612ce5565b60405180910390a150505050565b33600090815260076020526040902054806114385760405162461bcd60e51b81526004016108c290612ae0565b33600090815260076020908152604080832083905591548251637e062a3560e11b81529251620100009091046001600160a01b03169263fc0c546a9260048083019391928290030181865afa158015611495573d6000803e3d6000fd5b505050506040513d601f19601f820116820180604052508101906114b99190612b0a565b6001600160a01b031663a9059cbb33836040518363ffffffff1660e01b81526004016114e6929190612b27565b6020604051808303816000875af1158015611505573d6000803e3d6000fd5b505050506040513d601f19601f820116820180604052508101906115299190612b50565b50336000908152600c602052604081208054839290611549908490612ab4565b9250508190555080600d60008282546115629190612ab4565b90915550506040517f896e034966eaaf1adc54acc0f257056febbd300c9e47182cf761982cf1f5e430906115999033908490612b27565b60405180910390a150565b600080600060029054906101000a90046001600160a01b03166001600160a01b0316633078fff56040518163ffffffff1660e01b8152600401602060405180830381865afa1580156115fa573d6000803e3d6000fd5b505050506040513d601f19601f8201168201806040525081019061161e9190612b0a565b6001600160a01b031662912b376040518163ffffffff1660e01b8152600401602060405180830381865afa15801561165a573d6000803e3d6000fd5b505050506040513d601f19601f8201168201806040525081019061167e9190612b0a565b6001600160a01b031663feaf968c6040518163ffffffff1660e01b815260040160a060405180830381865afa1580156116bb573d6000803e3d6000fd5b505050506040513d601f19601f820116820180604052508101906116df9190612d27565b5050509150506305f5e100836402540be40083876116fd9190612a73565b6117079190612a73565b6117119190612aa0565b61171b9190612aa0565b9150505b92915050565b600060029054906101000a90046001600160a01b03166001600160a01b031663ec44acf26040518163ffffffff1660e01b8152600401602060405180830381865afa158015611778573d6000803e3d6000fd5b505050506040513d601f19601f8201168201806040525081019061179c9190612b0a565b6001600160a01b0316336001600160a01b0316146117cc5760405162461bcd60e51b81526004016108c290612c99565b6000918252600b60205260408083208054600160ff199182168117909255928452922080549091169091179055565b600060029054906101000a90046001600160a01b03166001600160a01b03166312d43a516040518163ffffffff1660e01b8152600401602060405180830381865afa15801561184e573d6000803e3d6000fd5b505050506040513d601f19601f820116820180604052508101906118729190612b0a565b6001600160a01b0316336001600160a01b0316146118a25760405162461bcd60e51b81526004016108c290612d77565b60018110156118c35760405162461bcd60e51b81526004016108c290612d99565b600181905560408051818152600e918101919091526d1d1c9a59d9d95c951a5b595bdd5d60921b6060820152602081018290527f8cf3e35f6221b16e1670a3413180c9484bf5aa71787905909fa82a6a2662e9ab90608001611599565b600054610100900460ff16158080156119405750600054600160ff909116105b8061195a5750303b15801561195a575060005460ff166001145b6119bd5760405162461bcd60e51b815260206004820152602e60248201527f496e697469616c697a61626c653a20636f6e747261637420697320616c72656160448201526d191e481a5b9a5d1a585b1a5e995960921b60648201526084016108c2565b6000805460ff1916600117905580156119e0576000805461ff0019166101001790555b6001600160a01b038416158015906119f9575060018310155b8015611a06575060058210155b8015611a13575060328211155b611a4e5760405162461bcd60e51b815260206004820152600c60248201526b57524f4e475f504152414d5360a01b60448201526064016108c2565b6000805462010000600160b01b031916620100006001600160a01b03871602179055600183815560028390556003558015611abf576000805461ff0019169055604051600181527f7f26b83ff96e1f2b6a682f133852f6798a09c465da95921460cefb3847402498906020016113fd565b50505050565b600060029054906101000a90046001600160a01b03166001600160a01b03166312d43a516040518163ffffffff1660e01b8152600401602060405180830381865afa158015611b18573d6000803e3d6000fd5b505050506040513d601f19601f82011682018060405250810190611b3c9190612b0a565b6001600160a01b0316336001600160a01b031614611b6c5760405162461bcd60e51b81526004016108c290612d77565b600a5460ff1615611bab5760405162461bcd60e51b8152602060048201526009602482015268434f50595f444f4e4560b81b60448201526064016108c2565b80821115611bed5760405162461bcd60e51b815260206004820152600f60248201526e14d510549517d05195115497d15391608a1b60448201526064016108c2565b600046608903611c125750733470756e5b490a974bc25feeeeb24c11102f5268611c93565b466201388103611c375750733982e3de77dad60373c0c2c539fcb93bd288d2f5611c93565b4661a4b103611c5b575073c2d107e870927e3fb1127e6c1a33de5c863505b8611c93565b60405162461bcd60e51b815260206004820152600d60248201526c2aa725a727aba72fa1a420a4a760991b60448201526064016108c2565b60008060029054906101000a90046001600160a01b03166001600160a01b0316638a0bd7026040518163ffffffff1660e01b8152600401600060405180830381865afa158015611ce7573d6000803e3d6000fd5b505050506040513d6000823e601f3d908101601f19168201604052611d0f9190810190612e2d565b905080518410611d515760405162461bcd60e51b815260206004820152600d60248201526c53544152545f544f4f5f42494760981b60448201526064016108c2565b80518310611d6a5760018151611d679190612bb4565b92505b835b838111611e9d576000828281518110611d8757611d87612b9e565b6020908102919091018101518051918101516040808301519051636a6f32f560e11b81526001600160a01b039485166004820152602481019290925260448201529092509085169063d4de65ea90606401602060405180830381865afa158015611df5573d6000803e3d6000fd5b505050506040513d601f19601f82011682018060405250810190611e199190612f79565b6002811115611e2a57611e2a6129bb565b6002811115611e3b57611e3b6129bb565b81516001600160a01b0316600090815260096020908152604080832082860151845282528083208186015184529091529020805460ff19166001836002811115611e8757611e876129bb565b0217905550611e9582612ac7565b915050611d6c565b5050505050565b6000828152600b602052604081205460ff1680611ecf57506000828152600b602052604090205460ff165b9392505050565b600060029054906101000a90046001600160a01b03166001600160a01b031663ec44acf26040518163ffffffff1660e01b8152600401602060405180830381865afa158015611f29573d6000803e3d6000fd5b505050506040513d601f19601f82011682018060405250810190611f4d9190612b0a565b6001600160a01b0316336001600160a01b031614611f7d5760405162461bcd60e51b81526004016108c290612c99565b6000600881611f8f60208701876127fa565b6001600160a01b03168152602080820192909252604090810160009081208784013582528352818120878301358252909252812090611fd46080870160608801612a42565b6003811115611fe557611fe56129bb565b6003811115611ff657611ff66129bb565b81526020810191909152604001600090812080546001600160a01b0319166001600160a01b0386161781556003810180546001600160f01b0319166001600160f01b0386169081178255600254600160f01b61ffff9091160217905591506120629060018301906126ce565b4360028201556001808201805491820181556000908152602090200180546001600160a01b0319166001600160a01b0385161790556040517fb638490faee2b0061f35ab3febba125b8a3d6dac667b31db6309f5fde2c7fa8f906113fd90869086908690612ce5565b600060029054906101000a90046001600160a01b03166001600160a01b031662b127836040518163ffffffff1660e01b8152600401602060405180830381865afa15801561211d573d6000803e3d6000fd5b505050506040513d601f19601f820116820180604052508101906121419190612b0a565b6001600160a01b0316336001600160a01b0316146121715760405162461bcd60e51b81526004016108c290612b76565b6008600061218260208401846127fa565b6001600160a01b031681526020808201929092526040908101600090812084840135825283528181208483013582529092528120906121c76080840160608501612a42565b60038111156121d8576121d86129bb565b60038111156121e9576121e96129bb565b81526020810191909152604001600090812080546001600160a01b03191681559061221760018301826126ce565b506000600282018190556003909101556040517fbc446f372d672d41df09bf965eb61c029a34d21d04ebcd4c0ec9c7ee54f2cd8490611599908390612f96565b600060029054906101000a90046001600160a01b03166001600160a01b03166312d43a516040518163ffffffff1660e01b8152600401602060405180830381865afa1580156122aa573d6000803e3d6000fd5b505050506040513d601f19601f820116820180604052508101906122ce9190612b0a565b6001600160a01b0316336001600160a01b0316146122fe5760405162461bcd60e51b81526004016108c290612d77565b600581101561231f5760405162461bcd60e51b81526004016108c290612d99565b603281111561235c5760405162461bcd60e51b8152602060048201526009602482015268082849eac8abe9a82b60bb1b60448201526064016108c2565b600281905560408051818152600e918101919091526d1cd85b59509b1bd8dad31a5b5a5d60921b6060820152602081018290527f8cf3e35f6221b16e1670a3413180c9484bf5aa71787905909fa82a6a2662e9ab90608001611599565b600060029054906101000a90046001600160a01b03166001600160a01b03166312d43a516040518163ffffffff1660e01b8152600401602060405180830381865afa15801561240c573d6000803e3d6000fd5b505050506040513d601f19601f820116820180604052508101906124309190612b0a565b6001600160a01b0316336001600160a01b0316146124605760405162461bcd60e51b81526004016108c290612d77565b600a805460ff19166001179055565b600060029054906101000a90046001600160a01b03166001600160a01b031663ec44acf26040518163ffffffff1660e01b8152600401602060405180830381865afa1580156124c2573d6000803e3d6000fd5b505050506040513d601f19601f820116820180604052508101906124e69190612b0a565b6001600160a01b0316336001600160a01b0316146125165760405162461bcd60e51b81526004016108c290612c99565b6001600160a01b038416600090815260096020908152604080832086845282528083208584529091529020805482919060ff1916600183600281111561255e5761255e6129bb565b021790555050505050565b60008060088161257c60208601866127fa565b6001600160a01b031681526020808201929092526040908101600090812086840135825283528181208683013582529092528120906125c16080860160608701612a42565b60038111156125d2576125d26129bb565b60038111156125e3576125e36129bb565b81526020808201929092526040908101600020815160a08101835281546001600160a01b03168152600182018054845181870281018701909552808552919492938584019390929083018282801561266457602002820191906000526020600020905b81546001600160a01b03168152600190910190602001808311612646575b5050509183525050600282015460208201526003909101546001600160f01b038116604080840191909152600160f01b90910461ffff1660609092019190915281015190915015801590611ecf575060015460408201516126c59043612bb4565b10159392505050565b50805460008255906000526020600020908101906126ec91906126ef565b50565b5b8082111561270457600081556001016126f0565b5090565b6001600160a01b03811681146126ec57600080fd5b60008060008060008060c0878903121561273657600080fd5b86359550602087013561274881612708565b945060408701359350606087013561275f81612708565b9598949750929560808101359460a0909101359350915050565b60006080828403121561278b57600080fd5b50919050565b6000608082840312156127a357600080fd5b611ecf8383612779565b6020808252825182820181905260009190848201906040850190845b818110156127ee5783516001600160a01b0316835292840192918401916001016127c9565b50909695505050505050565b60006020828403121561280c57600080fd5b8135611ecf81612708565b6000806040838503121561282a57600080fd5b50508035926020909101359150565b600080600060c0848603121561284e57600080fd5b6128588585612779565b956080850135955060a0909401359392505050565b60008060a0838503121561288057600080fd5b61288a8484612779565b9150608083013561289a81612708565b809150509250929050565b6000602082840312156128b757600080fd5b5035919050565b6000806000606084860312156128d357600080fd5b83356128de81612708565b95602085013595506040909401359392505050565b6000806040838503121561290657600080fd5b823561291181612708565b946020939093013593505050565b600080600060c0848603121561293457600080fd5b61293e8585612779565b9250608084013561294e81612708565b9295929450505060a0919091013590565b80356004811061296e57600080fd5b919050565b6000806000806080858703121561298957600080fd5b843561299481612708565b935060208501359250604085013591506129b06060860161295f565b905092959194509250565b634e487b7160e01b600052602160045260246000fd5b60208101600383106129e5576129e56129bb565b91905290565b600381106126ec57600080fd5b60008060008060808587031215612a0e57600080fd5b8435612a1981612708565b935060208501359250604085013591506060850135612a37816129eb565b939692955090935050565b600060208284031215612a5457600080fd5b611ecf8261295f565b634e487b7160e01b600052601160045260246000fd5b808202811582820484141761171f5761171f612a5d565b634e487b7160e01b600052601260045260246000fd5b600082612aaf57612aaf612a8a565b500490565b8082018082111561171f5761171f612a5d565b600060018201612ad957612ad9612a5d565b5060010190565b60208082526010908201526f4e4f5448494e475f544f5f434c41494d60801b604082015260600190565b600060208284031215612b1c57600080fd5b8151611ecf81612708565b6001600160a01b03929092168252602082015260400190565b8051801515811461296e57600080fd5b600060208284031215612b6257600080fd5b611ecf82612b40565b805161296e81612708565b6020808252600e908201526d43414c4c4241434b535f4f4e4c5960901b604082015260600190565b634e487b7160e01b600052603260045260246000fd5b8181038181111561171f5761171f612a5d565b6001600160f01b03818116838216019080821115612be757612be7612a5d565b5092915050565b61ffff818116838216019080821115612be757612be7612a5d565b8035612c1481612708565b6001600160a01b031682526020818101359083015260408082013590830152612c3f6060820161295f565b60048110612c4f57612c4f6129bb565b806060840152505050565b6101008101612c698288612c09565b6001600160a01b0395909516608082015260a081019390935261ffff9190911660c083015260e090910152919050565b6020808252600c908201526b54524144494e475f4f4e4c5960a01b604082015260600190565b60006001600160f01b0383811680612cd957612cd9612a8a565b92169190910492915050565b60c08101612cf38286612c09565b6001600160a01b0393909316608082015260a00152919050565b805169ffffffffffffffffffff8116811461296e57600080fd5b600080600080600060a08688031215612d3f57600080fd5b612d4886612d0d565b9450602086015193506040860151925060608601519150612d6b60808701612d0d565b90509295509295909350565b602080825260089082015267474f565f4f4e4c5960c01b604082015260600190565b6020808252600990820152682122a627abafa6a4a760b91b604082015260600190565b634e487b7160e01b600052604160045260246000fd5b6040516101a0810167ffffffffffffffff81118282101715612df657612df6612dbc565b60405290565b604051601f8201601f1916810167ffffffffffffffff81118282101715612e2557612e25612dbc565b604052919050565b60006020808385031215612e4057600080fd5b825167ffffffffffffffff80821115612e5857600080fd5b818501915085601f830112612e6c57600080fd5b815181811115612e7e57612e7e612dbc565b612e8c848260051b01612dfc565b81815284810192506101a0918202840185019188831115612eac57600080fd5b938501935b82851015612f6d5780858a031215612ec95760008081fd5b612ed1612dd2565b612eda86612b6b565b8152858701518782015260408087015190820152606080870151908201526080808701519082015260a0612f0f818801612b40565b9082015260c0868101519082015260e080870151908201526101008087015190820152610120808701519082015261014080870151908201526101608087015190820152610180808701519082015284529384019392850192612eb1565b50979650505050505050565b600060208284031215612f8b57600080fd5b8151611ecf816129eb565b6080810161171f8284612c0956fea26469706673582212207eb809efab6f6d979924bb15feea296e01c266c7230d84d0bd16e5c526fa1e9064736f6c63430008110033",
  "devdoc": {
    "kind": "dev",
    "methods": {},
    "version": 1
  },
  "userdoc": {
    "kind": "user",
    "methods": {},
    "version": 1
  },
  "storageLayout": {
    "storage": [
      {
        "astId": 2182,
        "contract": "contracts/contracts6_3/GNSNftRewardsV6_3_1.sol:GNSNftRewardsV6_3_1",
        "label": "_initialized",
        "offset": 0,
        "slot": "0",
        "type": "t_uint8"
      },
      {
        "astId": 2185,
        "contract": "contracts/contracts6_3/GNSNftRewardsV6_3_1.sol:GNSNftRewardsV6_3_1",
        "label": "_initializing",
        "offset": 1,
        "slot": "0",
        "type": "t_bool"
      },
      {
        "astId": 5362,
        "contract": "contracts/contracts6_3/GNSNftRewardsV6_3_1.sol:GNSNftRewardsV6_3_1",
        "label": "storageT",
        "offset": 2,
        "slot": "0",
        "type": "t_contract(StorageInterfaceV5)4683"
      },
      {
        "astId": 5379,
        "contract": "contracts/contracts6_3/GNSNftRewardsV6_3_1.sol:GNSNftRewardsV6_3_1",
        "label": "triggerTimeout",
        "offset": 0,
        "slot": "1",
        "type": "t_uint256"
      },
      {
        "astId": 5381,
        "contract": "contracts/contracts6_3/GNSNftRewardsV6_3_1.sol:GNSNftRewardsV6_3_1",
        "label": "sameBlockLimit",
        "offset": 0,
        "slot": "2",
        "type": "t_uint256"
      },
      {
        "astId": 5414,
        "contract": "contracts/contracts6_3/GNSNftRewardsV6_3_1.sol:GNSNftRewardsV6_3_1",
        "label": "currentOrder",
        "offset": 0,
        "slot": "3",
        "type": "t_uint256"
      },
      {
        "astId": 5416,
        "contract": "contracts/contracts6_3/GNSNftRewardsV6_3_1.sol:GNSNftRewardsV6_3_1",
        "label": "currentRound",
        "offset": 0,
        "slot": "4",
        "type": "t_uint256"
      },
      {
        "astId": 5421,
        "contract": "contracts/contracts6_3/GNSNftRewardsV6_3_1.sol:GNSNftRewardsV6_3_1",
        "label": "roundTokens",
        "offset": 0,
        "slot": "5",
        "type": "t_mapping(t_uint256,t_struct(RoundDetails)5408_storage)"
      },
      {
        "astId": 5427,
        "contract": "contracts/contracts6_3/GNSNftRewardsV6_3_1.sol:GNSNftRewardsV6_3_1",
        "label": "roundOrdersToClaim",
        "offset": 0,
        "slot": "6",
        "type": "t_mapping(t_address,t_mapping(t_uint256,t_uint256))"
      },
      {
        "astId": 5431,
        "contract": "contracts/contracts6_3/GNSNftRewardsV6_3_1.sol:GNSNftRewardsV6_3_1",
        "label": "tokensToClaim",
        "offset": 0,
        "slot": "7",
        "type": "t_mapping(t_address,t_uint256)"
      },
      {
        "astId": 5443,
        "contract": "contracts/contracts6_3/GNSNftRewardsV6_3_1.sol:GNSNftRewardsV6_3_1",
        "label": "triggeredLimits",
        "offset": 0,
        "slot": "8",
        "type": "t_mapping(t_address,t_mapping(t_uint256,t_mapping(t_uint256,t_mapping(t_enum(LimitOrder)4206,t_struct(TriggeredLimit)5393_storage))))"
      },
      {
        "astId": 5452,
        "contract": "contracts/contracts6_3/GNSNftRewardsV6_3_1.sol:GNSNftRewardsV6_3_1",
        "label": "openLimitOrderTypes",
        "offset": 0,
        "slot": "9",
        "type": "t_mapping(t_address,t_mapping(t_uint256,t_mapping(t_uint256,t_enum(OpenLimitOrderType)5412)))"
      },
      {
        "astId": 5454,
        "contract": "contracts/contracts6_3/GNSNftRewardsV6_3_1.sol:GNSNftRewardsV6_3_1",
        "label": "stateCopied",
        "offset": 0,
        "slot": "10",
        "type": "t_bool"
      },
      {
        "astId": 5458,
        "contract": "contracts/contracts6_3/GNSNftRewardsV6_3_1.sol:GNSNftRewardsV6_3_1",
        "label": "botInUse",
        "offset": 0,
        "slot": "11",
        "type": "t_mapping(t_bytes32,t_bool)"
      },
      {
        "astId": 5462,
        "contract": "contracts/contracts6_3/GNSNftRewardsV6_3_1.sol:GNSNftRewardsV6_3_1",
        "label": "tokensClaimed",
        "offset": 0,
        "slot": "12",
        "type": "t_mapping(t_address,t_uint256)"
      },
      {
        "astId": 5464,
        "contract": "contracts/contracts6_3/GNSNftRewardsV6_3_1.sol:GNSNftRewardsV6_3_1",
        "label": "tokensClaimedTotal",
        "offset": 0,
        "slot": "13",
        "type": "t_uint256"
      }
    ],
    "types": {
      "t_address": {
        "encoding": "inplace",
        "label": "address",
        "numberOfBytes": "20"
      },
      "t_array(t_address)dyn_storage": {
        "base": "t_address",
        "encoding": "dynamic_array",
        "label": "address[]",
        "numberOfBytes": "32"
      },
      "t_bool": {
        "encoding": "inplace",
        "label": "bool",
        "numberOfBytes": "1"
      },
      "t_bytes32": {
        "encoding": "inplace",
        "label": "bytes32",
        "numberOfBytes": "32"
      },
      "t_contract(StorageInterfaceV5)4683": {
        "encoding": "inplace",
        "label": "contract StorageInterfaceV5",
        "numberOfBytes": "20"
      },
      "t_enum(LimitOrder)4206": {
        "encoding": "inplace",
        "label": "enum StorageInterfaceV5.LimitOrder",
        "numberOfBytes": "1"
      },
      "t_enum(OpenLimitOrderType)5412": {
        "encoding": "inplace",
        "label": "enum GNSNftRewardsV6_3_1.OpenLimitOrderType",
        "numberOfBytes": "1"
      },
      "t_mapping(t_address,t_mapping(t_uint256,t_mapping(t_uint256,t_enum(OpenLimitOrderType)5412)))": {
        "encoding": "mapping",
        "key": "t_address",
        "label": "mapping(address => mapping(uint256 => mapping(uint256 => enum GNSNftRewardsV6_3_1.OpenLimitOrderType)))",
        "numberOfBytes": "32",
        "value": "t_mapping(t_uint256,t_mapping(t_uint256,t_enum(OpenLimitOrderType)5412))"
      },
      "t_mapping(t_address,t_mapping(t_uint256,t_mapping(t_uint256,t_mapping(t_enum(LimitOrder)4206,t_struct(TriggeredLimit)5393_storage))))": {
        "encoding": "mapping",
        "key": "t_address",
        "label": "mapping(address => mapping(uint256 => mapping(uint256 => mapping(enum StorageInterfaceV5.LimitOrder => struct GNSNftRewardsV6_3_1.TriggeredLimit))))",
        "numberOfBytes": "32",
        "value": "t_mapping(t_uint256,t_mapping(t_uint256,t_mapping(t_enum(LimitOrder)4206,t_struct(TriggeredLimit)5393_storage)))"
      },
      "t_mapping(t_address,t_mapping(t_uint256,t_uint256))": {
        "encoding": "mapping",
        "key": "t_address",
        "label": "mapping(address => mapping(uint256 => uint256))",
        "numberOfBytes": "32",
        "value": "t_mapping(t_uint256,t_uint256)"
      },
      "t_mapping(t_address,t_uint256)": {
        "encoding": "mapping",
        "key": "t_address",
        "label": "mapping(address => uint256)",
        "numberOfBytes": "32",
        "value": "t_uint256"
      },
      "t_mapping(t_bytes32,t_bool)": {
        "encoding": "mapping",
        "key": "t_bytes32",
        "label": "mapping(bytes32 => bool)",
        "numberOfBytes": "32",
        "value": "t_bool"
      },
      "t_mapping(t_enum(LimitOrder)4206,t_struct(TriggeredLimit)5393_storage)": {
        "encoding": "mapping",
        "key": "t_enum(LimitOrder)4206",
        "label": "mapping(enum StorageInterfaceV5.LimitOrder => struct GNSNftRewardsV6_3_1.TriggeredLimit)",
        "numberOfBytes": "32",
        "value": "t_struct(TriggeredLimit)5393_storage"
      },
      "t_mapping(t_uint256,t_enum(OpenLimitOrderType)5412)": {
        "encoding": "mapping",
        "key": "t_uint256",
        "label": "mapping(uint256 => enum GNSNftRewardsV6_3_1.OpenLimitOrderType)",
        "numberOfBytes": "32",
        "value": "t_enum(OpenLimitOrderType)5412"
      },
      "t_mapping(t_uint256,t_mapping(t_enum(LimitOrder)4206,t_struct(TriggeredLimit)5393_storage))": {
        "encoding": "mapping",
        "key": "t_uint256",
        "label": "mapping(uint256 => mapping(enum StorageInterfaceV5.LimitOrder => struct GNSNftRewardsV6_3_1.TriggeredLimit))",
        "numberOfBytes": "32",
        "value": "t_mapping(t_enum(LimitOrder)4206,t_struct(TriggeredLimit)5393_storage)"
      },
      "t_mapping(t_uint256,t_mapping(t_uint256,t_enum(OpenLimitOrderType)5412))": {
        "encoding": "mapping",
        "key": "t_uint256",
        "label": "mapping(uint256 => mapping(uint256 => enum GNSNftRewardsV6_3_1.OpenLimitOrderType))",
        "numberOfBytes": "32",
        "value": "t_mapping(t_uint256,t_enum(OpenLimitOrderType)5412)"
      },
      "t_mapping(t_uint256,t_mapping(t_uint256,t_mapping(t_enum(LimitOrder)4206,t_struct(TriggeredLimit)5393_storage)))": {
        "encoding": "mapping",
        "key": "t_uint256",
        "label": "mapping(uint256 => mapping(uint256 => mapping(enum StorageInterfaceV5.LimitOrder => struct GNSNftRewardsV6_3_1.TriggeredLimit)))",
        "numberOfBytes": "32",
        "value": "t_mapping(t_uint256,t_mapping(t_enum(LimitOrder)4206,t_struct(TriggeredLimit)5393_storage))"
      },
      "t_mapping(t_uint256,t_struct(RoundDetails)5408_storage)": {
        "encoding": "mapping",
        "key": "t_uint256",
        "label": "mapping(uint256 => struct GNSNftRewardsV6_3_1.RoundDetails)",
        "numberOfBytes": "32",
        "value": "t_struct(RoundDetails)5408_storage"
      },
      "t_mapping(t_uint256,t_uint256)": {
        "encoding": "mapping",
        "key": "t_uint256",
        "label": "mapping(uint256 => uint256)",
        "numberOfBytes": "32",
        "value": "t_uint256"
      },
      "t_struct(RoundDetails)5408_storage": {
        "encoding": "inplace",
        "label": "struct GNSNftRewardsV6_3_1.RoundDetails",
        "members": [
          {
            "astId": 5405,
            "contract": "contracts/contracts6_3/GNSNftRewardsV6_3_1.sol:GNSNftRewardsV6_3_1",
            "label": "tokens",
            "offset": 0,
            "slot": "0",
            "type": "t_uint240"
          },
          {
            "astId": 5407,
            "contract": "contracts/contracts6_3/GNSNftRewardsV6_3_1.sol:GNSNftRewardsV6_3_1",
            "label": "totalEntries",
            "offset": 30,
            "slot": "0",
            "type": "t_uint16"
          }
        ],
        "numberOfBytes": "32"
      },
      "t_struct(TriggeredLimit)5393_storage": {
        "encoding": "inplace",
        "label": "struct GNSNftRewardsV6_3_1.TriggeredLimit",
        "members": [
          {
            "astId": 5383,
            "contract": "contracts/contracts6_3/GNSNftRewardsV6_3_1.sol:GNSNftRewardsV6_3_1",
            "label": "first",
            "offset": 0,
            "slot": "0",
            "type": "t_address"
          },
          {
            "astId": 5386,
            "contract": "contracts/contracts6_3/GNSNftRewardsV6_3_1.sol:GNSNftRewardsV6_3_1",
            "label": "sameBlock",
            "offset": 0,
            "slot": "1",
            "type": "t_array(t_address)dyn_storage"
          },
          {
            "astId": 5388,
            "contract": "contracts/contracts6_3/GNSNftRewardsV6_3_1.sol:GNSNftRewardsV6_3_1",
            "label": "block",
            "offset": 0,
            "slot": "2",
            "type": "t_uint256"
          },
          {
            "astId": 5390,
            "contract": "contracts/contracts6_3/GNSNftRewardsV6_3_1.sol:GNSNftRewardsV6_3_1",
            "label": "linkFee",
            "offset": 0,
            "slot": "3",
            "type": "t_uint240"
          },
          {
            "astId": 5392,
            "contract": "contracts/contracts6_3/GNSNftRewardsV6_3_1.sol:GNSNftRewardsV6_3_1",
            "label": "sameBlockLimit",
            "offset": 30,
            "slot": "3",
            "type": "t_uint16"
          }
        ],
        "numberOfBytes": "128"
      },
      "t_uint16": {
        "encoding": "inplace",
        "label": "uint16",
        "numberOfBytes": "2"
      },
      "t_uint240": {
        "encoding": "inplace",
        "label": "uint240",
        "numberOfBytes": "30"
      },
      "t_uint256": {
        "encoding": "inplace",
        "label": "uint256",
        "numberOfBytes": "32"
      },
      "t_uint8": {
        "encoding": "inplace",
        "label": "uint8",
        "numberOfBytes": "1"
      }
    }
  }
}