{
  "address": "0x5a18CEE63331089a5027CAaf3172a2BfAF04F2D8",
  "abi": [
    {
      "inputs": [
        {
          "internalType": "address",
          "name": "_govFund",
          "type": "address"
        },
        {
          "internalType": "contract TokenInterface",
          "name": "_token",
          "type": "address"
        },
        {
          "internalType": "contract TokenInterface",
          "name": "_WETH",
          "type": "address"
        },
        {
          "internalType": "contract NftInterfaceV5[5]",
          "name": "_nfts",
          "type": "address[5]"
        },
        {
          "internalType": "uint256[5]",
          "name": "_boostsP",
          "type": "uint256[5]"
        },
        {
          "internalType": "uint256",
          "name": "_maxNftsStaked",
          "type": "uint256"
        }
      ],
      "stateMutability": "nonpayable",
      "type": "constructor"
    },
    {
      "anonymous": false,
      "inputs": [
        {
          "indexed": false,
          "internalType": "uint256[5]",
          "name": "boosts",
          "type": "uint256[5]"
        }
      ],
      "name": "BoostsUpdated",
      "type": "event"
    },
    {
      "anonymous": false,
      "inputs": [
        {
          "indexed": false,
          "internalType": "address",
          "name": "value",
          "type": "address"
        }
      ],
      "name": "GovFundUpdated",
      "type": "event"
    },
    {
      "anonymous": false,
      "inputs": [
        {
          "indexed": false,
          "internalType": "uint256",
          "name": "value",
          "type": "uint256"
        }
      ],
      "name": "MaxNftsStakedUpdated",
      "type": "event"
    },
    {
      "anonymous": false,
      "inputs": [
        {
          "indexed": true,
          "internalType": "address",
          "name": "user",
          "type": "address"
        },
        {
          "indexed": true,
          "internalType": "uint256",
          "name": "nftType",
          "type": "uint256"
        },
        {
          "indexed": false,
          "internalType": "uint256",
          "name": "nftId",
          "type": "uint256"
        }
      ],
      "name": "NftStaked",
      "type": "event"
    },
    {
      "anonymous": false,
      "inputs": [
        {
          "indexed": true,
          "internalType": "address",
          "name": "user",
          "type": "address"
        },
        {
          "indexed": true,
          "internalType": "uint256",
          "name": "nftType",
          "type": "uint256"
        },
        {
          "indexed": false,
          "internalType": "uint256",
          "name": "nftId",
          "type": "uint256"
        }
      ],
      "name": "NftUnstaked",
      "type": "event"
    },
    {
      "anonymous": false,
      "inputs": [
        {
          "indexed": true,
          "internalType": "address",
          "name": "user",
          "type": "address"
        },
        {
          "indexed": false,
          "internalType": "uint256",
          "name": "amount",
          "type": "uint256"
        }
      ],
      "name": "TokensStaked",
      "type": "event"
    },
    {
      "anonymous": false,
      "inputs": [
        {
          "indexed": true,
          "internalType": "address",
          "name": "user",
          "type": "address"
        },
        {
          "indexed": false,
          "internalType": "uint256",
          "name": "amount",
          "type": "uint256"
        }
      ],
      "name": "TokensUnstaked",
      "type": "event"
    },
    {
      "anonymous": false,
      "inputs": [
        {
          "indexed": false,
          "internalType": "uint256",
          "name": "amount",
          "type": "uint256"
        }
      ],
      "name": "WETHDistributed",
      "type": "event"
    },
    {
      "anonymous": false,
      "inputs": [
        {
          "indexed": true,
          "internalType": "address",
          "name": "user",
          "type": "address"
        },
        {
          "indexed": false,
          "internalType": "uint256",
          "name": "amount",
          "type": "uint256"
        }
      ],
      "name": "WETHHarvested",
      "type": "event"
    },
    {
      "inputs": [],
      "name": "WETH",
      "outputs": [
        {
          "internalType": "contract TokenInterface",
          "name": "",
          "type": "address"
        }
      ],
      "stateMutability": "view",
      "type": "function"
    },
    {
      "inputs": [],
      "name": "accWETHPerToken",
      "outputs": [
        {
          "internalType": "uint256",
          "name": "",
          "type": "uint256"
        }
      ],
      "stateMutability": "view",
      "type": "function"
    },
    {
      "inputs": [
        {
          "internalType": "uint256",
          "name": "",
          "type": "uint256"
        }
      ],
      "name": "boostsP",
      "outputs": [
        {
          "internalType": "uint256",
          "name": "",
          "type": "uint256"
        }
      ],
      "stateMutability": "view",
      "type": "function"
    },
    {
      "inputs": [
        {
          "internalType": "uint256[5]",
          "name": "value",
          "type": "uint256[5]"
        }
      ],
      "name": "checkBoostsP",
      "outputs": [],
      "stateMutability": "pure",
      "type": "function"
    },
    {
      "inputs": [
        {
          "internalType": "uint256",
          "name": "amount",
          "type": "uint256"
        }
      ],
      "name": "distributeRewardWETH",
      "outputs": [],
      "stateMutability": "nonpayable",
      "type": "function"
    },
    {
      "inputs": [],
      "name": "govFund",
      "outputs": [
        {
          "internalType": "address",
          "name": "",
          "type": "address"
        }
      ],
      "stateMutability": "view",
      "type": "function"
    },
    {
      "inputs": [],
      "name": "harvest",
      "outputs": [],
      "stateMutability": "nonpayable",
      "type": "function"
    },
    {
      "inputs": [],
      "name": "maxNftsStaked",
      "outputs": [
        {
          "internalType": "uint256",
          "name": "",
          "type": "uint256"
        }
      ],
      "stateMutability": "view",
      "type": "function"
    },
    {
      "inputs": [
        {
          "internalType": "uint256",
          "name": "",
          "type": "uint256"
        }
      ],
      "name": "nfts",
      "outputs": [
        {
          "internalType": "contract NftInterfaceV5",
          "name": "",
          "type": "address"
        }
      ],
      "stateMutability": "view",
      "type": "function"
    },
    {
      "inputs": [],
      "name": "pendingRewardWETH",
      "outputs": [
        {
          "internalType": "uint256",
          "name": "",
          "type": "uint256"
        }
      ],
      "stateMutability": "view",
      "type": "function"
    },
    {
      "inputs": [
        {
          "internalType": "uint256[5]",
          "name": "value",
          "type": "uint256[5]"
        }
      ],
      "name": "setBoostsP",
      "outputs": [],
      "stateMutability": "nonpayable",
      "type": "function"
    },
    {
      "inputs": [
        {
          "internalType": "address",
          "name": "value",
          "type": "address"
        }
      ],
      "name": "setGovFund",
      "outputs": [],
      "stateMutability": "nonpayable",
      "type": "function"
    },
    {
      "inputs": [
        {
          "internalType": "uint256",
          "name": "value",
          "type": "uint256"
        }
      ],
      "name": "setMaxNftsStaked",
      "outputs": [],
      "stateMutability": "nonpayable",
      "type": "function"
    },
    {
      "inputs": [
        {
          "internalType": "uint256",
          "name": "nftType",
          "type": "uint256"
        },
        {
          "internalType": "uint256",
          "name": "nftId",
          "type": "uint256"
        }
      ],
      "name": "stakeNft",
      "outputs": [],
      "stateMutability": "nonpayable",
      "type": "function"
    },
    {
      "inputs": [
        {
          "internalType": "uint256",
          "name": "amount",
          "type": "uint256"
        }
      ],
      "name": "stakeTokens",
      "outputs": [],
      "stateMutability": "nonpayable",
      "type": "function"
    },
    {
      "inputs": [],
      "name": "token",
      "outputs": [
        {
          "internalType": "contract TokenInterface",
          "name": "",
          "type": "address"
        }
      ],
      "stateMutability": "view",
      "type": "function"
    },
    {
      "inputs": [],
      "name": "tokenBalance",
      "outputs": [
        {
          "internalType": "uint256",
          "name": "",
          "type": "uint256"
        }
      ],
      "stateMutability": "view",
      "type": "function"
    },
    {
      "inputs": [],
      "name": "totalRewardsDistributedWETH",
      "outputs": [
        {
          "internalType": "uint256",
          "name": "",
          "type": "uint256"
        }
      ],
      "stateMutability": "view",
      "type": "function"
    },
    {
      "inputs": [
        {
          "internalType": "uint256",
          "name": "nftIndex",
          "type": "uint256"
        }
      ],
      "name": "unstakeNft",
      "outputs": [],
      "stateMutability": "nonpayable",
      "type": "function"
    },
    {
      "inputs": [
        {
          "internalType": "uint256",
          "name": "amount",
          "type": "uint256"
        }
      ],
      "name": "unstakeTokens",
      "outputs": [],
      "stateMutability": "nonpayable",
      "type": "function"
    },
    {
      "inputs": [
        {
          "internalType": "address",
          "name": "",
          "type": "address"
        },
        {
          "internalType": "uint256",
          "name": "",
          "type": "uint256"
        }
      ],
      "name": "userNfts",
      "outputs": [
        {
          "internalType": "uint256",
          "name": "nftId",
          "type": "uint256"
        },
        {
          "internalType": "uint256",
          "name": "nftType",
          "type": "uint256"
        }
      ],
      "stateMutability": "view",
      "type": "function"
    },
    {
      "inputs": [
        {
          "internalType": "address",
          "name": "",
          "type": "address"
        }
      ],
      "name": "users",
      "outputs": [
        {
          "internalType": "uint256",
          "name": "stakedTokens",
          "type": "uint256"
        },
        {
          "internalType": "uint256",
          "name": "debtWETH",
          "type": "uint256"
        },
        {
          "internalType": "uint256",
          "name": "stakedNftsCount",
          "type": "uint256"
        },
        {
          "internalType": "uint256",
          "name": "totalBoostTokens",
          "type": "uint256"
        },
        {
          "internalType": "uint256",
          "name": "harvestedRewardsWETH",
          "type": "uint256"
        }
      ],
      "stateMutability": "view",
      "type": "function"
    }
  ],
  "transactionHash": "0xd6a0abba51bef978dce26ae4bae1e56bb44783333989d259d3212ab1cea7b744",
  "args": [
    "0xa667403454F483dE81A0363Af7FcEE563819D910",
    "0x48c577ed59dC8F0a7bd72D2f04988A2d5DbAF063",
    "0xA480ef36DDFe6bCBe8429C7FD3c2565060F75C2E",
    [
      "0x00000000219ab540356cbb839cbe05303d7705fa",
      "0xc02aaa39b223fe8d0a0e5c4f27ead9083c756cc2",
      "0xbe0eb53f46cd790cd13851d5eff43d12404d33e8",
      "0xda9dfa130df4de4673b89022ee50ff26f6ea73cf",
      "0x40b38765696e3d5d8d9d834d8aad4bb6e418e489"
    ],
    [
      1,
      2,
      3,
      4,
      5
    ],
    25
  ],
  "numDeployments": 1,
  "solcInputHash": "063f6380a44fddc0413748fbb84bc8a5",
  "bytecode": "0x60c06040523480156200001157600080fd5b5060405162001711380380620017118339810160408190526200003491620002f5565b6001600160a01b038616158015906200005557506001600160a01b03851615155b80156200006a57506001600160a01b03841615155b801562000083575060808301516001600160a01b031615155b620000c45760405162461bcd60e51b815260206004820152600c60248201526b57524f4e475f504152414d5360a01b60448201526064015b60405180910390fd5b620000cf8262000129565b600080546001600160a01b0319166001600160a01b0388811691909117909155858116608052841660a052620001096001846005620001ad565b506200011960088360056200020a565b50600d5550620003c69350505050565b6020810151815110801562000145575060408101516020820151105b801562000159575060608101516040820151105b80156200016d575060808101516060820151105b620001aa5760405162461bcd60e51b815260206004820152600c60248201526b57524f4e475f56414c55455360a01b6044820152606401620000bb565b50565b8260058101928215620001f8579160200282015b82811115620001f857825182546001600160a01b0319166001600160a01b03909116178255602090920191600190910190620001c1565b50620002069291506200023b565b5090565b8260058101928215620001f8579160200282015b82811115620001f85782518255916020019190600101906200021e565b5b808211156200020657600081556001016200023c565b6001600160a01b0381168114620001aa57600080fd5b60405160a081016001600160401b03811182821017156200029957634e487b7160e01b600052604160045260246000fd5b60405290565b600082601f830112620002b157600080fd5b620002bb62000268565b8060a0840185811115620002ce57600080fd5b845b81811015620002ea578051845260209384019301620002d0565b509095945050505050565b6000806000806000806101c087890312156200031057600080fd5b86516200031d8162000252565b80965050602080880151620003328162000252565b6040890151909650620003458162000252565b9450607f880189136200035757600080fd5b6200036162000268565b806101008a018b8111156200037557600080fd5b60608b015b818110156200039e578051620003908162000252565b84529284019284016200037a565b50819650620003ae8c826200029f565b9550505050506101a087015190509295509295509295565b60805160a05161130962000408600039600081816102e8015281816104880152610d9001526000818161035b0152818161065f015261092601526113096000f3fe608060405234801561001057600080fd5b50600436106101425760003560e01c8063865f12e8116100b8578063ae7d610f1161007c578063ae7d610f1461030a578063b79b23dd1461031d578063e09cc52f14610330578063e6d5c00314610343578063fc0c546a14610356578063fe2fb7701461037d57600080fd5b8063865f12e8146102595780639ae9b1641461026c5780639e1a4d1914610275578063a87430ba1461027e578063ad5c4648146102e357600080fd5b8063608e4dd01161010a578063608e4dd0146101b357806369b262b6146101c65780636b4260001461020d5780637547c7a31461022057806379cbeb2d146102335780637c74f1af1461024657600080fd5b80630bfe2071146101475780630df0961c14610162578063265aa6211461016b5780634641257d1461019657806348ec5271146101a0575b600080fd5b61014f610386565b6040519081526020015b60405180910390f35b61014f600d5481565b61017e61017936600461103f565b6103dc565b6040516001600160a01b039091168152602001610159565b61019e6103fc565b005b61019e6101ae366004611058565b610538565b61019e6101c136600461103f565b6105bc565b6101f86101d4366004611100565b60106020908152600092835260408084209091529082529020805460019091015482565b60408051928352602083019190915201610159565b61019e61021b36600461103f565b610707565b61019e61022e36600461103f565b610905565b61019e61024136600461112a565b610a53565b61019e61025436600461114c565b610c48565b60005461017e906001600160a01b031681565b61014f600e5481565b61014f60075481565b6102bb61028c36600461114c565b600f60205260009081526040902080546001820154600283015460038401546004909401549293919290919085565b604080519586526020860194909452928401919091526060830152608082015260a001610159565b61017e7f000000000000000000000000000000000000000000000000000000000000000081565b61019e610318366004611058565b610d09565b61019e61032b36600461103f565b610d79565b61014f61033e36600461103f565b610e94565b61019e61035136600461103f565b610eab565b61017e7f000000000000000000000000000000000000000000000000000000000000000081565b61014f60065481565b336000908152600f60205260408120600181015460065460038301548354670de0b6b3a764000092916103b891611184565b6103c2919061119c565b6103cc91906111bb565b6103d691906111dd565b91505090565b600181600581106103ec57600080fd5b01546001600160a01b0316905081565b6000610406610386565b336000908152600f60205260409020600654600382015482549394509192670de0b6b3a76400009261043791611184565b610441919061119c565b61044b91906111bb565b8160010181905550818160040160008282546104679190611184565b909155505060405163a9059cbb60e01b8152336004820152602481018390527f00000000000000000000000000000000000000000000000000000000000000006001600160a01b03169063a9059cbb906044016020604051808303816000875af11580156104d9573d6000803e3d6000fd5b505050506040513d601f19601f820116820180604052508101906104fd91906111f4565b5060405182815233907fb48929331f6a270daa3aebb2b4ce66bb359949a9aa2ec1d6f22faf31f87b3713906020015b60405180910390a25050565b60208101518151108015610553575060408101516020820151105b8015610566575060608101516040820151105b8015610579575060808101516060820151105b6105b95760405162461bcd60e51b815260206004820152600c60248201526b57524f4e475f56414c55455360a01b60448201526064015b60405180910390fd5b50565b336000908152600f602052604090206105d36103fc565b600381015481546105e49190611184565b600760008282546105f591906111dd565b909155505080548290829060009061060e9084906111dd565b9091555061061c9050610f0a565b6003810154815461062d9190611184565b6007600082825461063e9190611184565b909155505060405163a9059cbb60e01b8152336004820152602481018390527f00000000000000000000000000000000000000000000000000000000000000006001600160a01b03169063a9059cbb906044016020604051808303816000875af11580156106b0573d6000803e3d6000fd5b505050506040513d601f19601f820116820180604052508101906106d491906111f4565b5060405182815233907f9845e367b683334e5c0b12d7b81721ac518e649376fa65e3d68324e8f34f26799060200161052c565b336000908152600f602090815260408083206010835281842085855283529281902081518083019092528054825260010154918101919091526107486103fc565b600382015482546107599190611184565b6007600082825461076a91906111dd565b90915550503360009081526010602052604081206002840154909190610792906001906111dd565b81526020808201929092526040908101600090812033808352601080865284842089855280875294842083548155600193840154908401559083529093526002850180549293919290836107e58361122c565b919050556107f391906111dd565b81526020810191909152604001600090812081815560010155610814610f0a565b600382015482546108259190611184565b600760008282546108369190611184565b9091555050602081015160019061084e9082906111dd565b6005811061085e5761085e611216565b015481516040516323b872dd60e01b81526001600160a01b03909216916323b872dd916108919130913391600401611243565b600060405180830381600087803b1580156108ab57600080fd5b505af11580156108bf573d6000803e3d6000fd5b505050506020818101518251604051908152909133917f15c9f2a25f2a9d7f192995bce8ee67ef354a0dc0f7b82b3ad471a4bfe879fee8910160405180910390a3505050565b336000818152600f60205260409081902090516323b872dd60e01b815290917f00000000000000000000000000000000000000000000000000000000000000006001600160a01b0316916323b872dd916109659130908790600401611243565b6020604051808303816000875af1158015610984573d6000803e3d6000fd5b505050506040513d601f19601f820116820180604052508101906109a891906111f4565b506109b16103fc565b600381015481546109c29190611184565b600760008282546109d391906111dd565b90915550508054829082906000906109ec908490611184565b909155506109fa9050610f0a565b60038101548154610a0b9190611184565b60076000828254610a1c9190611184565b909155505060405182815233907fb539ca1e5c8d398ddf1c41c30166f33404941683be4683319b57669a93dad4ef9060200161052c565b323314610a8d5760405162461bcd60e51b815260206004820152600860248201526710d3d395149050d560c21b60448201526064016105b0565b336000908152600f60205260409020600d54600282015410610aeb5760405162461bcd60e51b815260206004820152601760248201527613505617d3919514d7d053149150511657d4d51052d151604a1b60448201526064016105b0565b6001610af781856111dd565b60058110610b0757610b07611216565b01546040516323b872dd60e01b81526001600160a01b03909116906323b872dd90610b3a90339030908790600401611243565b600060405180830381600087803b158015610b5457600080fd5b505af1158015610b68573d6000803e3d6000fd5b50505050610b746103fc565b60038101548154610b859190611184565b60076000828254610b9691906111dd565b9091555050336000908152601060205260408120600283018054839182610bbc83611267565b9091555081526020810191909152604001600020600181018590558381559050610be4610f0a565b60038201548254610bf59190611184565b60076000828254610c069190611184565b9091555050604051838152849033907f2209f5ab1e50b2a6cab82d8f63686a6991f8d51072e1c8c6e752570697c29c469060200160405180910390a350505050565b6000546001600160a01b03163314610c725760405162461bcd60e51b81526004016105b090611280565b6001600160a01b038116610cb45760405162461bcd60e51b81526020600482015260096024820152680414444524553535f360bc1b60448201526064016105b0565b600080546001600160a01b0319166001600160a01b0383169081179091556040519081527f82ed90f787d49d0a2409d828dce36f3138f9c04e46a59446f7564352cc9dd526906020015b60405180910390a150565b6000546001600160a01b03163314610d335760405162461bcd60e51b81526004016105b090611280565b610d3c81610538565b610d496008826005610fec565b507fd4f83e5841eed0062f973ea6c98ae700fab452a244757ca90231c5c53dd9f3d181604051610cfe91906112a2565b6040516323b872dd60e01b81526001600160a01b037f000000000000000000000000000000000000000000000000000000000000000016906323b872dd90610dc990339030908690600401611243565b6020604051808303816000875af1158015610de8573d6000803e3d6000fd5b505050506040513d601f19601f82011682018060405250810190610e0c91906111f4565b5060075415610e6457600754610e2a82670de0b6b3a764000061119c565b610e3491906111bb565b60066000828254610e459190611184565b9250508190555080600e6000828254610e5e9190611184565b90915550505b6040518181527f7a172d05242b68ed283e6759f5cdd393ca33461637fb6ab68617d0eedbb94c4e90602001610cfe565b60088160058110610ea457600080fd5b0154905081565b6000546001600160a01b03163314610ed55760405162461bcd60e51b81526004016105b090611280565b600d8190556040518181527f9cfc27c994d2896c1aae1fc9f8dc5cbf2579adaa768a984531fecab197b03f7990602001610cfe565b336000908152600f6020526040812060038101829055905b8160020154811015610fb1573360009081526010602090815260408083208484529091529020600190810154606491600891610f5e91906111dd565b60058110610f6e57610f6e611216565b01548354610f7c919061119c565b610f8691906111bb565b826003016000828254610f999190611184565b90915550819050610fa981611267565b915050610f22565b5060065460038201548254670de0b6b3a76400009291610fd091611184565b610fda919061119c565b610fe491906111bb565b600190910155565b826005810192821561101a579160200282015b8281111561101a578251825591602001919060010190610fff565b5061102692915061102a565b5090565b5b80821115611026576000815560010161102b565b60006020828403121561105157600080fd5b5035919050565b600060a0828403121561106a57600080fd5b82601f83011261107957600080fd5b60405160a0810181811067ffffffffffffffff821117156110aa57634e487b7160e01b600052604160045260246000fd5b6040528060a08401858111156110bf57600080fd5b845b818110156110d95780358352602092830192016110c1565b509195945050505050565b80356001600160a01b03811681146110fb57600080fd5b919050565b6000806040838503121561111357600080fd5b61111c836110e4565b946020939093013593505050565b6000806040838503121561113d57600080fd5b50508035926020909101359150565b60006020828403121561115e57600080fd5b611167826110e4565b9392505050565b634e487b7160e01b600052601160045260246000fd5b600082198211156111975761119761116e565b500190565b60008160001904831182151516156111b6576111b661116e565b500290565b6000826111d857634e487b7160e01b600052601260045260246000fd5b500490565b6000828210156111ef576111ef61116e565b500390565b60006020828403121561120657600080fd5b8151801515811461116757600080fd5b634e487b7160e01b600052603260045260246000fd5b60008161123b5761123b61116e565b506000190190565b6001600160a01b039384168152919092166020820152604081019190915260600190565b6000600182016112795761127961116e565b5060010190565b602080825260089082015267474f565f4f4e4c5960c01b604082015260600190565b60a08101818360005b60058110156112ca5781518352602092830192909101906001016112ab565b5050509291505056fea2646970667358221220de1dd36ab6fa59dfca12c35c2010f848335ca1f5bb08c7978a776587f88e9e6064736f6c634300080f0033",
  "devdoc": {
    "kind": "dev",
    "methods": {},
    "version": 1
  },
  "userdoc": {
    "kind": "user",
    "methods": {},
    "version": 1
  },
  "storageLayout": {
    "storage": [
      {
        "astId": 17972,
        "contract": "contracts/Staking.sol:Staking",
        "label": "govFund",
        "offset": 0,
        "slot": "0",
        "type": "t_address"
      },
      {
        "astId": 17983,
        "contract": "contracts/Staking.sol:Staking",
        "label": "nfts",
        "offset": 0,
        "slot": "1",
        "type": "t_array(t_contract(NftInterfaceV5)30967)5_storage"
      },
      {
        "astId": 17985,
        "contract": "contracts/Staking.sol:Staking",
        "label": "accWETHPerToken",
        "offset": 0,
        "slot": "6",
        "type": "t_uint256"
      },
      {
        "astId": 17987,
        "contract": "contracts/Staking.sol:Staking",
        "label": "tokenBalance",
        "offset": 0,
        "slot": "7",
        "type": "t_uint256"
      },
      {
        "astId": 17991,
        "contract": "contracts/Staking.sol:Staking",
        "label": "boostsP",
        "offset": 0,
        "slot": "8",
        "type": "t_array(t_uint256)5_storage"
      },
      {
        "astId": 17993,
        "contract": "contracts/Staking.sol:Staking",
        "label": "maxNftsStaked",
        "offset": 0,
        "slot": "13",
        "type": "t_uint256"
      },
      {
        "astId": 17995,
        "contract": "contracts/Staking.sol:Staking",
        "label": "totalRewardsDistributedWETH",
        "offset": 0,
        "slot": "14",
        "type": "t_uint256"
      },
      {
        "astId": 18000,
        "contract": "contracts/Staking.sol:Staking",
        "label": "users",
        "offset": 0,
        "slot": "15",
        "type": "t_mapping(t_address,t_struct(User)18023_storage)"
      },
      {
        "astId": 18007,
        "contract": "contracts/Staking.sol:Staking",
        "label": "userNfts",
        "offset": 0,
        "slot": "16",
        "type": "t_mapping(t_address,t_mapping(t_uint256,t_struct(StakedNft)18012_storage))"
      }
    ],
    "types": {
      "t_address": {
        "encoding": "inplace",
        "label": "address",
        "numberOfBytes": "20"
      },
      "t_array(t_contract(NftInterfaceV5)30967)5_storage": {
        "base": "t_contract(NftInterfaceV5)30967",
        "encoding": "inplace",
        "label": "contract NftInterfaceV5[5]",
        "numberOfBytes": "160"
      },
      "t_array(t_uint256)5_storage": {
        "base": "t_uint256",
        "encoding": "inplace",
        "label": "uint256[5]",
        "numberOfBytes": "160"
      },
      "t_contract(NftInterfaceV5)30967": {
        "encoding": "inplace",
        "label": "contract NftInterfaceV5",
        "numberOfBytes": "20"
      },
      "t_mapping(t_address,t_mapping(t_uint256,t_struct(StakedNft)18012_storage))": {
        "encoding": "mapping",
        "key": "t_address",
        "label": "mapping(address => mapping(uint256 => struct Staking.StakedNft))",
        "numberOfBytes": "32",
        "value": "t_mapping(t_uint256,t_struct(StakedNft)18012_storage)"
      },
      "t_mapping(t_address,t_struct(User)18023_storage)": {
        "encoding": "mapping",
        "key": "t_address",
        "label": "mapping(address => struct Staking.User)",
        "numberOfBytes": "32",
        "value": "t_struct(User)18023_storage"
      },
      "t_mapping(t_uint256,t_struct(StakedNft)18012_storage)": {
        "encoding": "mapping",
        "key": "t_uint256",
        "label": "mapping(uint256 => struct Staking.StakedNft)",
        "numberOfBytes": "32",
        "value": "t_struct(StakedNft)18012_storage"
      },
      "t_struct(StakedNft)18012_storage": {
        "encoding": "inplace",
        "label": "struct Staking.StakedNft",
        "members": [
          {
            "astId": 18009,
            "contract": "contracts/Staking.sol:Staking",
            "label": "nftId",
            "offset": 0,
            "slot": "0",
            "type": "t_uint256"
          },
          {
            "astId": 18011,
            "contract": "contracts/Staking.sol:Staking",
            "label": "nftType",
            "offset": 0,
            "slot": "1",
            "type": "t_uint256"
          }
        ],
        "numberOfBytes": "64"
      },
      "t_struct(User)18023_storage": {
        "encoding": "inplace",
        "label": "struct Staking.User",
        "members": [
          {
            "astId": 18014,
            "contract": "contracts/Staking.sol:Staking",
            "label": "stakedTokens",
            "offset": 0,
            "slot": "0",
            "type": "t_uint256"
          },
          {
            "astId": 18016,
            "contract": "contracts/Staking.sol:Staking",
            "label": "debtWETH",
            "offset": 0,
            "slot": "1",
            "type": "t_uint256"
          },
          {
            "astId": 18018,
            "contract": "contracts/Staking.sol:Staking",
            "label": "stakedNftsCount",
            "offset": 0,
            "slot": "2",
            "type": "t_uint256"
          },
          {
            "astId": 18020,
            "contract": "contracts/Staking.sol:Staking",
            "label": "totalBoostTokens",
            "offset": 0,
            "slot": "3",
            "type": "t_uint256"
          },
          {
            "astId": 18022,
            "contract": "contracts/Staking.sol:Staking",
            "label": "harvestedRewardsWETH",
            "offset": 0,
            "slot": "4",
            "type": "t_uint256"
          }
        ],
        "numberOfBytes": "160"
      },
      "t_uint256": {
        "encoding": "inplace",
        "label": "uint256",
        "numberOfBytes": "32"
      }
    }
  }
}