{
  "address": "0xB9c1C0B7981029CFc289D3eA0d5a9a5919d60764",
  "abi": [
    {
      "inputs": [
        {
          "internalType": "address",
          "name": "_WETH",
          "type": "address"
        },
        {
          "internalType": "address",
          "name": "_gov",
          "type": "address"
        },
        {
          "internalType": "address",
          "name": "_dev",
          "type": "address"
        }
      ],
      "stateMutability": "nonpayable",
      "type": "constructor"
    },
    {
      "anonymous": false,
      "inputs": [
        {
          "indexed": false,
          "internalType": "string",
          "name": "name",
          "type": "string"
        },
        {
          "indexed": false,
          "internalType": "address",
          "name": "a",
          "type": "address"
        }
      ],
      "name": "AddressUpdated",
      "type": "event"
    },
    {
      "anonymous": false,
      "inputs": [
        {
          "indexed": false,
          "internalType": "contract NftInterfaceV5[5]",
          "name": "nfts",
          "type": "address[5]"
        }
      ],
      "name": "NftsUpdated",
      "type": "event"
    },
    {
      "anonymous": false,
      "inputs": [
        {
          "indexed": false,
          "internalType": "string",
          "name": "name",
          "type": "string"
        },
        {
          "indexed": false,
          "internalType": "uint256",
          "name": "value",
          "type": "uint256"
        }
      ],
      "name": "NumberUpdated",
      "type": "event"
    },
    {
      "anonymous": false,
      "inputs": [
        {
          "indexed": false,
          "internalType": "string",
          "name": "name",
          "type": "string"
        },
        {
          "indexed": false,
          "internalType": "uint256",
          "name": "pairIndex",
          "type": "uint256"
        },
        {
          "indexed": false,
          "internalType": "uint256",
          "name": "value",
          "type": "uint256"
        }
      ],
      "name": "NumberUpdatedPair",
      "type": "event"
    },
    {
      "anonymous": false,
      "inputs": [
        {
          "indexed": false,
          "internalType": "uint256[5]",
          "name": "",
          "type": "uint256[5]"
        }
      ],
      "name": "SpreadReductionsUpdated",
      "type": "event"
    },
    {
      "anonymous": false,
      "inputs": [
        {
          "indexed": false,
          "internalType": "address",
          "name": "a",
          "type": "address"
        }
      ],
      "name": "SupportedTokenAdded",
      "type": "event"
    },
    {
      "anonymous": false,
      "inputs": [
        {
          "indexed": false,
          "internalType": "address",
          "name": "a",
          "type": "address"
        }
      ],
      "name": "TradingContractAdded",
      "type": "event"
    },
    {
      "anonymous": false,
      "inputs": [
        {
          "indexed": false,
          "internalType": "address",
          "name": "a",
          "type": "address"
        }
      ],
      "name": "TradingContractRemoved",
      "type": "event"
    },
    {
      "inputs": [],
      "name": "MINTER_ROLE",
      "outputs": [
        {
          "internalType": "bytes32",
          "name": "",
          "type": "bytes32"
        }
      ],
      "stateMutability": "view",
      "type": "function"
    },
    {
      "inputs": [],
      "name": "PRECISION",
      "outputs": [
        {
          "internalType": "uint256",
          "name": "",
          "type": "uint256"
        }
      ],
      "stateMutability": "view",
      "type": "function"
    },
    {
      "inputs": [],
      "name": "WETH",
      "outputs": [
        {
          "internalType": "contract TokenInterfaceV5",
          "name": "",
          "type": "address"
        }
      ],
      "stateMutability": "view",
      "type": "function"
    },
    {
      "inputs": [
        {
          "internalType": "address",
          "name": "_token",
          "type": "address"
        }
      ],
      "name": "addSupportedToken",
      "outputs": [],
      "stateMutability": "nonpayable",
      "type": "function"
    },
    {
      "inputs": [
        {
          "internalType": "address",
          "name": "_trading",
          "type": "address"
        }
      ],
      "name": "addTradingContract",
      "outputs": [],
      "stateMutability": "nonpayable",
      "type": "function"
    },
    {
      "inputs": [],
      "name": "callbacks",
      "outputs": [
        {
          "internalType": "contract PausableInterfaceV5",
          "name": "",
          "type": "address"
        }
      ],
      "stateMutability": "view",
      "type": "function"
    },
    {
      "inputs": [],
      "name": "claimFees",
      "outputs": [],
      "stateMutability": "nonpayable",
      "type": "function"
    },
    {
      "inputs": [],
      "name": "defaultLeverageUnlocked",
      "outputs": [
        {
          "internalType": "uint256",
          "name": "",
          "type": "uint256"
        }
      ],
      "stateMutability": "view",
      "type": "function"
    },
    {
      "inputs": [],
      "name": "dev",
      "outputs": [
        {
          "internalType": "address",
          "name": "",
          "type": "address"
        }
      ],
      "stateMutability": "view",
      "type": "function"
    },
    {
      "inputs": [],
      "name": "devFeesToken",
      "outputs": [
        {
          "internalType": "uint256",
          "name": "",
          "type": "uint256"
        }
      ],
      "stateMutability": "view",
      "type": "function"
    },
    {
      "inputs": [],
      "name": "devFeesWETH",
      "outputs": [
        {
          "internalType": "uint256",
          "name": "",
          "type": "uint256"
        }
      ],
      "stateMutability": "view",
      "type": "function"
    },
    {
      "inputs": [
        {
          "internalType": "uint256",
          "name": "_amount",
          "type": "uint256"
        }
      ],
      "name": "distributeLpRewards",
      "outputs": [],
      "stateMutability": "nonpayable",
      "type": "function"
    },
    {
      "inputs": [
        {
          "internalType": "address",
          "name": "trader",
          "type": "address"
        },
        {
          "internalType": "uint256",
          "name": "pairIndex",
          "type": "uint256"
        }
      ],
      "name": "firstEmptyOpenLimitIndex",
      "outputs": [
        {
          "internalType": "uint256",
          "name": "index",
          "type": "uint256"
        }
      ],
      "stateMutability": "view",
      "type": "function"
    },
    {
      "inputs": [
        {
          "internalType": "address",
          "name": "trader",
          "type": "address"
        },
        {
          "internalType": "uint256",
          "name": "pairIndex",
          "type": "uint256"
        }
      ],
      "name": "firstEmptyTradeIndex",
      "outputs": [
        {
          "internalType": "uint256",
          "name": "index",
          "type": "uint256"
        }
      ],
      "stateMutability": "view",
      "type": "function"
    },
    {
      "inputs": [
        {
          "internalType": "address",
          "name": "_trader",
          "type": "address"
        }
      ],
      "name": "getLeverageUnlocked",
      "outputs": [
        {
          "internalType": "uint256",
          "name": "",
          "type": "uint256"
        }
      ],
      "stateMutability": "view",
      "type": "function"
    },
    {
      "inputs": [
        {
          "internalType": "address",
          "name": "_trader",
          "type": "address"
        },
        {
          "internalType": "uint256",
          "name": "_pairIndex",
          "type": "uint256"
        },
        {
          "internalType": "uint256",
          "name": "_index",
          "type": "uint256"
        }
      ],
      "name": "getOpenLimitOrder",
      "outputs": [
        {
          "components": [
            {
              "internalType": "address",
              "name": "trader",
              "type": "address"
            },
            {
              "internalType": "uint256",
              "name": "pairIndex",
              "type": "uint256"
            },
            {
              "internalType": "uint256",
              "name": "index",
              "type": "uint256"
            },
            {
              "internalType": "uint256",
              "name": "positionSize",
              "type": "uint256"
            },
            {
              "internalType": "uint256",
              "name": "spreadReductionP",
              "type": "uint256"
            },
            {
              "internalType": "bool",
              "name": "buy",
              "type": "bool"
            },
            {
              "internalType": "uint256",
              "name": "leverage",
              "type": "uint256"
            },
            {
              "internalType": "uint256",
              "name": "tp",
              "type": "uint256"
            },
            {
              "internalType": "uint256",
              "name": "sl",
              "type": "uint256"
            },
            {
              "internalType": "uint256",
              "name": "minPrice",
              "type": "uint256"
            },
            {
              "internalType": "uint256",
              "name": "maxPrice",
              "type": "uint256"
            },
            {
              "internalType": "uint256",
              "name": "block",
              "type": "uint256"
            },
            {
              "internalType": "uint256",
              "name": "tokenId",
              "type": "uint256"
            }
          ],
          "internalType": "struct GFarmTradingStorageV5.OpenLimitOrder",
          "name": "",
          "type": "tuple"
        }
      ],
      "stateMutability": "view",
      "type": "function"
    },
    {
      "inputs": [],
      "name": "getOpenLimitOrders",
      "outputs": [
        {
          "components": [
            {
              "internalType": "address",
              "name": "trader",
              "type": "address"
            },
            {
              "internalType": "uint256",
              "name": "pairIndex",
              "type": "uint256"
            },
            {
              "internalType": "uint256",
              "name": "index",
              "type": "uint256"
            },
            {
              "internalType": "uint256",
              "name": "positionSize",
              "type": "uint256"
            },
            {
              "internalType": "uint256",
              "name": "spreadReductionP",
              "type": "uint256"
            },
            {
              "internalType": "bool",
              "name": "buy",
              "type": "bool"
            },
            {
              "internalType": "uint256",
              "name": "leverage",
              "type": "uint256"
            },
            {
              "internalType": "uint256",
              "name": "tp",
              "type": "uint256"
            },
            {
              "internalType": "uint256",
              "name": "sl",
              "type": "uint256"
            },
            {
              "internalType": "uint256",
              "name": "minPrice",
              "type": "uint256"
            },
            {
              "internalType": "uint256",
              "name": "maxPrice",
              "type": "uint256"
            },
            {
              "internalType": "uint256",
              "name": "block",
              "type": "uint256"
            },
            {
              "internalType": "uint256",
              "name": "tokenId",
              "type": "uint256"
            }
          ],
          "internalType": "struct GFarmTradingStorageV5.OpenLimitOrder[]",
          "name": "",
          "type": "tuple[]"
        }
      ],
      "stateMutability": "view",
      "type": "function"
    },
    {
      "inputs": [
        {
          "internalType": "address",
          "name": "_trader",
          "type": "address"
        }
      ],
      "name": "getPendingOrderIds",
      "outputs": [
        {
          "internalType": "uint256[]",
          "name": "",
          "type": "uint256[]"
        }
      ],
      "stateMutability": "view",
      "type": "function"
    },
    {
      "inputs": [
        {
          "internalType": "address",
          "name": "_trader",
          "type": "address"
        }
      ],
      "name": "getReferral",
      "outputs": [
        {
          "internalType": "address",
          "name": "",
          "type": "address"
        }
      ],
      "stateMutability": "view",
      "type": "function"
    },
    {
      "inputs": [],
      "name": "getSpreadReductionsArray",
      "outputs": [
        {
          "internalType": "uint256[5]",
          "name": "",
          "type": "uint256[5]"
        }
      ],
      "stateMutability": "view",
      "type": "function"
    },
    {
      "inputs": [],
      "name": "getSupportedTokens",
      "outputs": [
        {
          "internalType": "address[]",
          "name": "",
          "type": "address[]"
        }
      ],
      "stateMutability": "view",
      "type": "function"
    },
    {
      "inputs": [],
      "name": "gov",
      "outputs": [
        {
          "internalType": "address",
          "name": "",
          "type": "address"
        }
      ],
      "stateMutability": "view",
      "type": "function"
    },
    {
      "inputs": [],
      "name": "govFeesToken",
      "outputs": [
        {
          "internalType": "uint256",
          "name": "",
          "type": "uint256"
        }
      ],
      "stateMutability": "view",
      "type": "function"
    },
    {
      "inputs": [],
      "name": "govFeesWETH",
      "outputs": [
        {
          "internalType": "uint256",
          "name": "",
          "type": "uint256"
        }
      ],
      "stateMutability": "view",
      "type": "function"
    },
    {
      "inputs": [
        {
          "internalType": "uint256",
          "name": "_pairIndex",
          "type": "uint256"
        },
        {
          "internalType": "uint256",
          "name": "_leveragedPositionSize",
          "type": "uint256"
        },
        {
          "internalType": "bool",
          "name": "_WETH",
          "type": "bool"
        },
        {
          "internalType": "bool",
          "name": "_fullFee",
          "type": "bool"
        }
      ],
      "name": "handleDevGovFees",
      "outputs": [
        {
          "internalType": "uint256",
          "name": "fee",
          "type": "uint256"
        }
      ],
      "stateMutability": "nonpayable",
      "type": "function"
    },
    {
      "inputs": [
        {
          "internalType": "address",
          "name": "_a",
          "type": "address"
        },
        {
          "internalType": "uint256",
          "name": "_amount",
          "type": "uint256"
        },
        {
          "internalType": "bool",
          "name": "_mint",
          "type": "bool"
        }
      ],
      "name": "handleTokens",
      "outputs": [],
      "stateMutability": "nonpayable",
      "type": "function"
    },
    {
      "inputs": [
        {
          "internalType": "address",
          "name": "trader",
          "type": "address"
        },
        {
          "internalType": "uint256",
          "name": "pairIndex",
          "type": "uint256"
        },
        {
          "internalType": "uint256",
          "name": "index",
          "type": "uint256"
        }
      ],
      "name": "hasOpenLimitOrder",
      "outputs": [
        {
          "internalType": "bool",
          "name": "",
          "type": "bool"
        }
      ],
      "stateMutability": "view",
      "type": "function"
    },
    {
      "inputs": [
        {
          "internalType": "uint256",
          "name": "_nftId",
          "type": "uint256"
        },
        {
          "internalType": "uint256",
          "name": "_amount",
          "type": "uint256"
        }
      ],
      "name": "increaseNftRewards",
      "outputs": [],
      "stateMutability": "nonpayable",
      "type": "function"
    },
    {
      "inputs": [
        {
          "internalType": "address",
          "name": "_referral",
          "type": "address"
        },
        {
          "internalType": "uint256",
          "name": "_amount",
          "type": "uint256"
        }
      ],
      "name": "increaseReferralRewards",
      "outputs": [],
      "stateMutability": "nonpayable",
      "type": "function"
    },
    {
      "inputs": [
        {
          "internalType": "address",
          "name": "",
          "type": "address"
        }
      ],
      "name": "isTradingContract",
      "outputs": [
        {
          "internalType": "bool",
          "name": "",
          "type": "bool"
        }
      ],
      "stateMutability": "view",
      "type": "function"
    },
    {
      "inputs": [],
      "name": "linkErc677",
      "outputs": [
        {
          "internalType": "contract TokenInterfaceV5",
          "name": "",
          "type": "address"
        }
      ],
      "stateMutability": "view",
      "type": "function"
    },
    {
      "inputs": [],
      "name": "maxGainP",
      "outputs": [
        {
          "internalType": "uint256",
          "name": "",
          "type": "uint256"
        }
      ],
      "stateMutability": "view",
      "type": "function"
    },
    {
      "inputs": [],
      "name": "maxPendingMarketOrders",
      "outputs": [
        {
          "internalType": "uint256",
          "name": "",
          "type": "uint256"
        }
      ],
      "stateMutability": "view",
      "type": "function"
    },
    {
      "inputs": [],
      "name": "maxSlP",
      "outputs": [
        {
          "internalType": "uint256",
          "name": "",
          "type": "uint256"
        }
      ],
      "stateMutability": "view",
      "type": "function"
    },
    {
      "inputs": [],
      "name": "maxTradesPerBlock",
      "outputs": [
        {
          "internalType": "uint256",
          "name": "",
          "type": "uint256"
        }
      ],
      "stateMutability": "view",
      "type": "function"
    },
    {
      "inputs": [],
      "name": "maxTradesPerPair",
      "outputs": [
        {
          "internalType": "uint256",
          "name": "",
          "type": "uint256"
        }
      ],
      "stateMutability": "view",
      "type": "function"
    },
    {
      "inputs": [
        {
          "internalType": "uint256",
          "name": "",
          "type": "uint256"
        }
      ],
      "name": "nftLastSuccess",
      "outputs": [
        {
          "internalType": "uint256",
          "name": "",
          "type": "uint256"
        }
      ],
      "stateMutability": "view",
      "type": "function"
    },
    {
      "inputs": [],
      "name": "nftRewards",
      "outputs": [
        {
          "internalType": "uint256",
          "name": "",
          "type": "uint256"
        }
      ],
      "stateMutability": "view",
      "type": "function"
    },
    {
      "inputs": [],
      "name": "nftSuccessTimelock",
      "outputs": [
        {
          "internalType": "uint256",
          "name": "",
          "type": "uint256"
        }
      ],
      "stateMutability": "view",
      "type": "function"
    },
    {
      "inputs": [
        {
          "internalType": "uint256",
          "name": "",
          "type": "uint256"
        }
      ],
      "name": "nfts",
      "outputs": [
        {
          "internalType": "contract NftInterfaceV5",
          "name": "",
          "type": "address"
        }
      ],
      "stateMutability": "view",
      "type": "function"
    },
    {
      "inputs": [
        {
          "internalType": "uint256",
          "name": "",
          "type": "uint256"
        },
        {
          "internalType": "uint256",
          "name": "",
          "type": "uint256"
        }
      ],
      "name": "openInterestWETH",
      "outputs": [
        {
          "internalType": "uint256",
          "name": "",
          "type": "uint256"
        }
      ],
      "stateMutability": "view",
      "type": "function"
    },
    {
      "inputs": [
        {
          "internalType": "address",
          "name": "",
          "type": "address"
        },
        {
          "internalType": "uint256",
          "name": "",
          "type": "uint256"
        },
        {
          "internalType": "uint256",
          "name": "",
          "type": "uint256"
        }
      ],
      "name": "openLimitOrderIds",
      "outputs": [
        {
          "internalType": "uint256",
          "name": "",
          "type": "uint256"
        }
      ],
      "stateMutability": "view",
      "type": "function"
    },
    {
      "inputs": [
        {
          "internalType": "uint256",
          "name": "",
          "type": "uint256"
        }
      ],
      "name": "openLimitOrders",
      "outputs": [
        {
          "internalType": "address",
          "name": "trader",
          "type": "address"
        },
        {
          "internalType": "uint256",
          "name": "pairIndex",
          "type": "uint256"
        },
        {
          "internalType": "uint256",
          "name": "index",
          "type": "uint256"
        },
        {
          "internalType": "uint256",
          "name": "positionSize",
          "type": "uint256"
        },
        {
          "internalType": "uint256",
          "name": "spreadReductionP",
          "type": "uint256"
        },
        {
          "internalType": "bool",
          "name": "buy",
          "type": "bool"
        },
        {
          "internalType": "uint256",
          "name": "leverage",
          "type": "uint256"
        },
        {
          "internalType": "uint256",
          "name": "tp",
          "type": "uint256"
        },
        {
          "internalType": "uint256",
          "name": "sl",
          "type": "uint256"
        },
        {
          "internalType": "uint256",
          "name": "minPrice",
          "type": "uint256"
        },
        {
          "internalType": "uint256",
          "name": "maxPrice",
          "type": "uint256"
        },
        {
          "internalType": "uint256",
          "name": "block",
          "type": "uint256"
        },
        {
          "internalType": "uint256",
          "name": "tokenId",
          "type": "uint256"
        }
      ],
      "stateMutability": "view",
      "type": "function"
    },
    {
      "inputs": [
        {
          "internalType": "address",
          "name": "",
          "type": "address"
        },
        {
          "internalType": "uint256",
          "name": "",
          "type": "uint256"
        }
      ],
      "name": "openLimitOrdersCount",
      "outputs": [
        {
          "internalType": "uint256",
          "name": "",
          "type": "uint256"
        }
      ],
      "stateMutability": "view",
      "type": "function"
    },
    {
      "inputs": [
        {
          "internalType": "address",
          "name": "",
          "type": "address"
        },
        {
          "internalType": "uint256",
          "name": "",
          "type": "uint256"
        },
        {
          "internalType": "uint256",
          "name": "",
          "type": "uint256"
        }
      ],
      "name": "openTrades",
      "outputs": [
        {
          "internalType": "address",
          "name": "trader",
          "type": "address"
        },
        {
          "internalType": "uint256",
          "name": "pairIndex",
          "type": "uint256"
        },
        {
          "internalType": "uint256",
          "name": "index",
          "type": "uint256"
        },
        {
          "internalType": "uint256",
          "name": "initialPosToken",
          "type": "uint256"
        },
        {
          "internalType": "uint256",
          "name": "positionSizeWETH",
          "type": "uint256"
        },
        {
          "internalType": "uint256",
          "name": "openPrice",
          "type": "uint256"
        },
        {
          "internalType": "bool",
          "name": "buy",
          "type": "bool"
        },
        {
          "internalType": "uint256",
          "name": "leverage",
          "type": "uint256"
        },
        {
          "internalType": "uint256",
          "name": "tp",
          "type": "uint256"
        },
        {
          "internalType": "uint256",
          "name": "sl",
          "type": "uint256"
        }
      ],
      "stateMutability": "view",
      "type": "function"
    },
    {
      "inputs": [
        {
          "internalType": "address",
          "name": "",
          "type": "address"
        },
        {
          "internalType": "uint256",
          "name": "",
          "type": "uint256"
        }
      ],
      "name": "openTradesCount",
      "outputs": [
        {
          "internalType": "uint256",
          "name": "",
          "type": "uint256"
        }
      ],
      "stateMutability": "view",
      "type": "function"
    },
    {
      "inputs": [
        {
          "internalType": "address",
          "name": "",
          "type": "address"
        },
        {
          "internalType": "uint256",
          "name": "",
          "type": "uint256"
        },
        {
          "internalType": "uint256",
          "name": "",
          "type": "uint256"
        }
      ],
      "name": "openTradesInfo",
      "outputs": [
        {
          "internalType": "uint256",
          "name": "tokenId",
          "type": "uint256"
        },
        {
          "internalType": "uint256",
          "name": "tokenPriceWETH",
          "type": "uint256"
        },
        {
          "internalType": "uint256",
          "name": "openInterestWETH",
          "type": "uint256"
        },
        {
          "internalType": "uint256",
          "name": "tpLastUpdated",
          "type": "uint256"
        },
        {
          "internalType": "uint256",
          "name": "slLastUpdated",
          "type": "uint256"
        },
        {
          "internalType": "bool",
          "name": "beingMarketClosed",
          "type": "bool"
        }
      ],
      "stateMutability": "view",
      "type": "function"
    },
    {
      "inputs": [
        {
          "internalType": "uint256",
          "name": "",
          "type": "uint256"
        },
        {
          "internalType": "uint256",
          "name": "",
          "type": "uint256"
        }
      ],
      "name": "pairTraders",
      "outputs": [
        {
          "internalType": "address",
          "name": "",
          "type": "address"
        }
      ],
      "stateMutability": "view",
      "type": "function"
    },
    {
      "inputs": [
        {
          "internalType": "uint256",
          "name": "_pairIndex",
          "type": "uint256"
        }
      ],
      "name": "pairTradersArray",
      "outputs": [
        {
          "internalType": "address[]",
          "name": "",
          "type": "address[]"
        }
      ],
      "stateMutability": "view",
      "type": "function"
    },
    {
      "inputs": [
        {
          "internalType": "address",
          "name": "",
          "type": "address"
        },
        {
          "internalType": "uint256",
          "name": "",
          "type": "uint256"
        }
      ],
      "name": "pairTradersId",
      "outputs": [
        {
          "internalType": "uint256",
          "name": "",
          "type": "uint256"
        }
      ],
      "stateMutability": "view",
      "type": "function"
    },
    {
      "inputs": [
        {
          "internalType": "address",
          "name": "",
          "type": "address"
        },
        {
          "internalType": "uint256",
          "name": "",
          "type": "uint256"
        }
      ],
      "name": "pendingMarketCloseCount",
      "outputs": [
        {
          "internalType": "uint256",
          "name": "",
          "type": "uint256"
        }
      ],
      "stateMutability": "view",
      "type": "function"
    },
    {
      "inputs": [
        {
          "internalType": "address",
          "name": "",
          "type": "address"
        },
        {
          "internalType": "uint256",
          "name": "",
          "type": "uint256"
        }
      ],
      "name": "pendingMarketOpenCount",
      "outputs": [
        {
          "internalType": "uint256",
          "name": "",
          "type": "uint256"
        }
      ],
      "stateMutability": "view",
      "type": "function"
    },
    {
      "inputs": [
        {
          "internalType": "address",
          "name": "",
          "type": "address"
        },
        {
          "internalType": "uint256",
          "name": "",
          "type": "uint256"
        }
      ],
      "name": "pendingOrderIds",
      "outputs": [
        {
          "internalType": "uint256",
          "name": "",
          "type": "uint256"
        }
      ],
      "stateMutability": "view",
      "type": "function"
    },
    {
      "inputs": [
        {
          "internalType": "address",
          "name": "_trader",
          "type": "address"
        }
      ],
      "name": "pendingOrderIdsCount",
      "outputs": [
        {
          "internalType": "uint256",
          "name": "",
          "type": "uint256"
        }
      ],
      "stateMutability": "view",
      "type": "function"
    },
    {
      "inputs": [],
      "name": "pool",
      "outputs": [
        {
          "internalType": "contract PoolInterfaceV5",
          "name": "",
          "type": "address"
        }
      ],
      "stateMutability": "view",
      "type": "function"
    },
    {
      "inputs": [],
      "name": "priceAggregator",
      "outputs": [
        {
          "internalType": "contract AggregatorInterfaceV5",
          "name": "",
          "type": "address"
        }
      ],
      "stateMutability": "view",
      "type": "function"
    },
    {
      "inputs": [
        {
          "internalType": "address",
          "name": "_trading",
          "type": "address"
        }
      ],
      "name": "removeTradingContract",
      "outputs": [],
      "stateMutability": "nonpayable",
      "type": "function"
    },
    {
      "inputs": [
        {
          "internalType": "uint256",
          "name": "",
          "type": "uint256"
        }
      ],
      "name": "reqID_pendingMarketOrder",
      "outputs": [
        {
          "components": [
            {
              "internalType": "address",
              "name": "trader",
              "type": "address"
            },
            {
              "internalType": "uint256",
              "name": "pairIndex",
              "type": "uint256"
            },
            {
              "internalType": "uint256",
              "name": "index",
              "type": "uint256"
            },
            {
              "internalType": "uint256",
              "name": "initialPosToken",
              "type": "uint256"
            },
            {
              "internalType": "uint256",
              "name": "positionSizeWETH",
              "type": "uint256"
            },
            {
              "internalType": "uint256",
              "name": "openPrice",
              "type": "uint256"
            },
            {
              "internalType": "bool",
              "name": "buy",
              "type": "bool"
            },
            {
              "internalType": "uint256",
              "name": "leverage",
              "type": "uint256"
            },
            {
              "internalType": "uint256",
              "name": "tp",
              "type": "uint256"
            },
            {
              "internalType": "uint256",
              "name": "sl",
              "type": "uint256"
            }
          ],
          "internalType": "struct GFarmTradingStorageV5.Trade",
          "name": "trade",
          "type": "tuple"
        },
        {
          "internalType": "uint256",
          "name": "block",
          "type": "uint256"
        },
        {
          "internalType": "uint256",
          "name": "wantedPrice",
          "type": "uint256"
        },
        {
          "internalType": "uint256",
          "name": "slippageP",
          "type": "uint256"
        },
        {
          "internalType": "uint256",
          "name": "spreadReductionP",
          "type": "uint256"
        },
        {
          "internalType": "uint256",
          "name": "tokenId",
          "type": "uint256"
        }
      ],
      "stateMutability": "view",
      "type": "function"
    },
    {
      "inputs": [
        {
          "internalType": "uint256",
          "name": "",
          "type": "uint256"
        }
      ],
      "name": "reqID_pendingNftOrder",
      "outputs": [
        {
          "internalType": "address",
          "name": "nftHolder",
          "type": "address"
        },
        {
          "internalType": "uint256",
          "name": "nftId",
          "type": "uint256"
        },
        {
          "internalType": "address",
          "name": "trader",
          "type": "address"
        },
        {
          "internalType": "uint256",
          "name": "pairIndex",
          "type": "uint256"
        },
        {
          "internalType": "uint256",
          "name": "index",
          "type": "uint256"
        },
        {
          "internalType": "enum GFarmTradingStorageV5.LimitOrder",
          "name": "orderType",
          "type": "uint8"
        }
      ],
      "stateMutability": "view",
      "type": "function"
    },
    {
      "inputs": [
        {
          "internalType": "address",
          "name": "_callbacks",
          "type": "address"
        }
      ],
      "name": "setCallbacks",
      "outputs": [],
      "stateMutability": "nonpayable",
      "type": "function"
    },
    {
      "inputs": [
        {
          "internalType": "uint256",
          "name": "_lev",
          "type": "uint256"
        }
      ],
      "name": "setDefaultLeverageUnlocked",
      "outputs": [],
      "stateMutability": "nonpayable",
      "type": "function"
    },
    {
      "inputs": [
        {
          "internalType": "address",
          "name": "_dev",
          "type": "address"
        }
      ],
      "name": "setDev",
      "outputs": [],
      "stateMutability": "nonpayable",
      "type": "function"
    },
    {
      "inputs": [
        {
          "internalType": "address",
          "name": "_gov",
          "type": "address"
        }
      ],
      "name": "setGov",
      "outputs": [],
      "stateMutability": "nonpayable",
      "type": "function"
    },
    {
      "inputs": [
        {
          "internalType": "address",
          "name": "_trader",
          "type": "address"
        },
        {
          "internalType": "uint256",
          "name": "_newLeverage",
          "type": "uint256"
        }
      ],
      "name": "setLeverageUnlocked",
      "outputs": [],
      "stateMutability": "nonpayable",
      "type": "function"
    },
    {
      "inputs": [
        {
          "internalType": "uint256",
          "name": "_max",
          "type": "uint256"
        }
      ],
      "name": "setMaxGainP",
      "outputs": [],
      "stateMutability": "nonpayable",
      "type": "function"
    },
    {
      "inputs": [
        {
          "internalType": "uint256",
          "name": "_pairIndex",
          "type": "uint256"
        },
        {
          "internalType": "uint256",
          "name": "_newMaxOpenInterest",
          "type": "uint256"
        }
      ],
      "name": "setMaxOpenInterestWETH",
      "outputs": [],
      "stateMutability": "nonpayable",
      "type": "function"
    },
    {
      "inputs": [
        {
          "internalType": "uint256",
          "name": "_maxPendingMarketOrders",
          "type": "uint256"
        }
      ],
      "name": "setMaxPendingMarketOrders",
      "outputs": [],
      "stateMutability": "nonpayable",
      "type": "function"
    },
    {
      "inputs": [
        {
          "internalType": "uint256",
          "name": "_max",
          "type": "uint256"
        }
      ],
      "name": "setMaxSlP",
      "outputs": [],
      "stateMutability": "nonpayable",
      "type": "function"
    },
    {
      "inputs": [
        {
          "internalType": "uint256",
          "name": "_maxTradesPerBlock",
          "type": "uint256"
        }
      ],
      "name": "setMaxTradesPerBlock",
      "outputs": [],
      "stateMutability": "nonpayable",
      "type": "function"
    },
    {
      "inputs": [
        {
          "internalType": "uint256",
          "name": "_maxTradesPerPair",
          "type": "uint256"
        }
      ],
      "name": "setMaxTradesPerPair",
      "outputs": [],
      "stateMutability": "nonpayable",
      "type": "function"
    },
    {
      "inputs": [
        {
          "internalType": "uint256",
          "name": "_blocks",
          "type": "uint256"
        }
      ],
      "name": "setNftSuccessTimelock",
      "outputs": [],
      "stateMutability": "nonpayable",
      "type": "function"
    },
    {
      "inputs": [
        {
          "internalType": "address",
          "name": "_pool",
          "type": "address"
        }
      ],
      "name": "setPool",
      "outputs": [],
      "stateMutability": "nonpayable",
      "type": "function"
    },
    {
      "inputs": [
        {
          "internalType": "address",
          "name": "_aggregator",
          "type": "address"
        }
      ],
      "name": "setPriceAggregator",
      "outputs": [],
      "stateMutability": "nonpayable",
      "type": "function"
    },
    {
      "inputs": [
        {
          "internalType": "uint256[5]",
          "name": "_r",
          "type": "uint256[5]"
        }
      ],
      "name": "setSpreadReductionsP",
      "outputs": [],
      "stateMutability": "nonpayable",
      "type": "function"
    },
    {
      "inputs": [
        {
          "internalType": "address",
          "name": "_tokenWETHRouter",
          "type": "address"
        }
      ],
      "name": "setTokenWETHRouter",
      "outputs": [],
      "stateMutability": "nonpayable",
      "type": "function"
    },
    {
      "inputs": [
        {
          "internalType": "address",
          "name": "_trading",
          "type": "address"
        }
      ],
      "name": "setTrading",
      "outputs": [],
      "stateMutability": "nonpayable",
      "type": "function"
    },
    {
      "inputs": [
        {
          "internalType": "address",
          "name": "_vault",
          "type": "address"
        }
      ],
      "name": "setVault",
      "outputs": [],
      "stateMutability": "nonpayable",
      "type": "function"
    },
    {
      "inputs": [
        {
          "internalType": "uint256",
          "name": "",
          "type": "uint256"
        }
      ],
      "name": "spreadReductionsP",
      "outputs": [
        {
          "internalType": "uint256",
          "name": "",
          "type": "uint256"
        }
      ],
      "stateMutability": "view",
      "type": "function"
    },
    {
      "inputs": [
        {
          "components": [
            {
              "internalType": "address",
              "name": "trader",
              "type": "address"
            },
            {
              "internalType": "uint256",
              "name": "pairIndex",
              "type": "uint256"
            },
            {
              "internalType": "uint256",
              "name": "index",
              "type": "uint256"
            },
            {
              "internalType": "uint256",
              "name": "positionSize",
              "type": "uint256"
            },
            {
              "internalType": "uint256",
              "name": "spreadReductionP",
              "type": "uint256"
            },
            {
              "internalType": "bool",
              "name": "buy",
              "type": "bool"
            },
            {
              "internalType": "uint256",
              "name": "leverage",
              "type": "uint256"
            },
            {
              "internalType": "uint256",
              "name": "tp",
              "type": "uint256"
            },
            {
              "internalType": "uint256",
              "name": "sl",
              "type": "uint256"
            },
            {
              "internalType": "uint256",
              "name": "minPrice",
              "type": "uint256"
            },
            {
              "internalType": "uint256",
              "name": "maxPrice",
              "type": "uint256"
            },
            {
              "internalType": "uint256",
              "name": "block",
              "type": "uint256"
            },
            {
              "internalType": "uint256",
              "name": "tokenId",
              "type": "uint256"
            }
          ],
          "internalType": "struct GFarmTradingStorageV5.OpenLimitOrder",
          "name": "o",
          "type": "tuple"
        }
      ],
      "name": "storeOpenLimitOrder",
      "outputs": [],
      "stateMutability": "nonpayable",
      "type": "function"
    },
    {
      "inputs": [
        {
          "components": [
            {
              "components": [
                {
                  "internalType": "address",
                  "name": "trader",
                  "type": "address"
                },
                {
                  "internalType": "uint256",
                  "name": "pairIndex",
                  "type": "uint256"
                },
                {
                  "internalType": "uint256",
                  "name": "index",
                  "type": "uint256"
                },
                {
                  "internalType": "uint256",
                  "name": "initialPosToken",
                  "type": "uint256"
                },
                {
                  "internalType": "uint256",
                  "name": "positionSizeWETH",
                  "type": "uint256"
                },
                {
                  "internalType": "uint256",
                  "name": "openPrice",
                  "type": "uint256"
                },
                {
                  "internalType": "bool",
                  "name": "buy",
                  "type": "bool"
                },
                {
                  "internalType": "uint256",
                  "name": "leverage",
                  "type": "uint256"
                },
                {
                  "internalType": "uint256",
                  "name": "tp",
                  "type": "uint256"
                },
                {
                  "internalType": "uint256",
                  "name": "sl",
                  "type": "uint256"
                }
              ],
              "internalType": "struct GFarmTradingStorageV5.Trade",
              "name": "trade",
              "type": "tuple"
            },
            {
              "internalType": "uint256",
              "name": "block",
              "type": "uint256"
            },
            {
              "internalType": "uint256",
              "name": "wantedPrice",
              "type": "uint256"
            },
            {
              "internalType": "uint256",
              "name": "slippageP",
              "type": "uint256"
            },
            {
              "internalType": "uint256",
              "name": "spreadReductionP",
              "type": "uint256"
            },
            {
              "internalType": "uint256",
              "name": "tokenId",
              "type": "uint256"
            }
          ],
          "internalType": "struct GFarmTradingStorageV5.PendingMarketOrder",
          "name": "_order",
          "type": "tuple"
        },
        {
          "internalType": "uint256",
          "name": "_id",
          "type": "uint256"
        },
        {
          "internalType": "bool",
          "name": "_open",
          "type": "bool"
        }
      ],
      "name": "storePendingMarketOrder",
      "outputs": [],
      "stateMutability": "nonpayable",
      "type": "function"
    },
    {
      "inputs": [
        {
          "components": [
            {
              "internalType": "address",
              "name": "nftHolder",
              "type": "address"
            },
            {
              "internalType": "uint256",
              "name": "nftId",
              "type": "uint256"
            },
            {
              "internalType": "address",
              "name": "trader",
              "type": "address"
            },
            {
              "internalType": "uint256",
              "name": "pairIndex",
              "type": "uint256"
            },
            {
              "internalType": "uint256",
              "name": "index",
              "type": "uint256"
            },
            {
              "internalType": "enum GFarmTradingStorageV5.LimitOrder",
              "name": "orderType",
              "type": "uint8"
            }
          ],
          "internalType": "struct GFarmTradingStorageV5.PendingNftOrder",
          "name": "_nftOrder",
          "type": "tuple"
        },
        {
          "internalType": "uint256",
          "name": "_orderId",
          "type": "uint256"
        }
      ],
      "name": "storePendingNftOrder",
      "outputs": [],
      "stateMutability": "nonpayable",
      "type": "function"
    },
    {
      "inputs": [
        {
          "internalType": "address",
          "name": "_trader",
          "type": "address"
        },
        {
          "internalType": "address",
          "name": "_referral",
          "type": "address"
        }
      ],
      "name": "storeReferral",
      "outputs": [],
      "stateMutability": "nonpayable",
      "type": "function"
    },
    {
      "inputs": [
        {
          "components": [
            {
              "internalType": "address",
              "name": "trader",
              "type": "address"
            },
            {
              "internalType": "uint256",
              "name": "pairIndex",
              "type": "uint256"
            },
            {
              "internalType": "uint256",
              "name": "index",
              "type": "uint256"
            },
            {
              "internalType": "uint256",
              "name": "initialPosToken",
              "type": "uint256"
            },
            {
              "internalType": "uint256",
              "name": "positionSizeWETH",
              "type": "uint256"
            },
            {
              "internalType": "uint256",
              "name": "openPrice",
              "type": "uint256"
            },
            {
              "internalType": "bool",
              "name": "buy",
              "type": "bool"
            },
            {
              "internalType": "uint256",
              "name": "leverage",
              "type": "uint256"
            },
            {
              "internalType": "uint256",
              "name": "tp",
              "type": "uint256"
            },
            {
              "internalType": "uint256",
              "name": "sl",
              "type": "uint256"
            }
          ],
          "internalType": "struct GFarmTradingStorageV5.Trade",
          "name": "_trade",
          "type": "tuple"
        },
        {
          "components": [
            {
              "internalType": "uint256",
              "name": "tokenId",
              "type": "uint256"
            },
            {
              "internalType": "uint256",
              "name": "tokenPriceWETH",
              "type": "uint256"
            },
            {
              "internalType": "uint256",
              "name": "openInterestWETH",
              "type": "uint256"
            },
            {
              "internalType": "uint256",
              "name": "tpLastUpdated",
              "type": "uint256"
            },
            {
              "internalType": "uint256",
              "name": "slLastUpdated",
              "type": "uint256"
            },
            {
              "internalType": "bool",
              "name": "beingMarketClosed",
              "type": "bool"
            }
          ],
          "internalType": "struct GFarmTradingStorageV5.TradeInfo",
          "name": "_tradeInfo",
          "type": "tuple"
        }
      ],
      "name": "storeTrade",
      "outputs": [],
      "stateMutability": "nonpayable",
      "type": "function"
    },
    {
      "inputs": [
        {
          "internalType": "uint256",
          "name": "",
          "type": "uint256"
        }
      ],
      "name": "supportedTokens",
      "outputs": [
        {
          "internalType": "address",
          "name": "",
          "type": "address"
        }
      ],
      "stateMutability": "view",
      "type": "function"
    },
    {
      "inputs": [],
      "name": "token",
      "outputs": [
        {
          "internalType": "contract TokenInterfaceV5",
          "name": "",
          "type": "address"
        }
      ],
      "stateMutability": "view",
      "type": "function"
    },
    {
      "inputs": [],
      "name": "tokenWETHRouter",
      "outputs": [
        {
          "internalType": "address",
          "name": "",
          "type": "address"
        }
      ],
      "stateMutability": "view",
      "type": "function"
    },
    {
      "inputs": [],
      "name": "tokensBurned",
      "outputs": [
        {
          "internalType": "uint256",
          "name": "",
          "type": "uint256"
        }
      ],
      "stateMutability": "view",
      "type": "function"
    },
    {
      "inputs": [],
      "name": "tokensMinted",
      "outputs": [
        {
          "internalType": "uint256",
          "name": "",
          "type": "uint256"
        }
      ],
      "stateMutability": "view",
      "type": "function"
    },
    {
      "inputs": [
        {
          "internalType": "address",
          "name": "",
          "type": "address"
        }
      ],
      "name": "traders",
      "outputs": [
        {
          "internalType": "uint256",
          "name": "leverageUnlocked",
          "type": "uint256"
        },
        {
          "internalType": "address",
          "name": "referral",
          "type": "address"
        },
        {
          "internalType": "uint256",
          "name": "referralRewardsTotal",
          "type": "uint256"
        }
      ],
      "stateMutability": "view",
      "type": "function"
    },
    {
      "inputs": [
        {
          "internalType": "uint256",
          "name": "",
          "type": "uint256"
        }
      ],
      "name": "tradesPerBlock",
      "outputs": [
        {
          "internalType": "uint256",
          "name": "",
          "type": "uint256"
        }
      ],
      "stateMutability": "view",
      "type": "function"
    },
    {
      "inputs": [],
      "name": "trading",
      "outputs": [
        {
          "internalType": "contract PausableInterfaceV5",
          "name": "",
          "type": "address"
        }
      ],
      "stateMutability": "view",
      "type": "function"
    },
    {
      "inputs": [
        {
          "internalType": "address",
          "name": "_from",
          "type": "address"
        },
        {
          "internalType": "uint256",
          "name": "_pairIndex",
          "type": "uint256"
        },
        {
          "internalType": "uint256",
          "name": "_leveragedPosWETH",
          "type": "uint256"
        }
      ],
      "name": "transferLinkToAggregator",
      "outputs": [],
      "stateMutability": "nonpayable",
      "type": "function"
    },
    {
      "inputs": [
        {
          "internalType": "address",
          "name": "_from",
          "type": "address"
        },
        {
          "internalType": "address",
          "name": "_to",
          "type": "address"
        },
        {
          "internalType": "uint256",
          "name": "_amount",
          "type": "uint256"
        }
      ],
      "name": "transferWETH",
      "outputs": [],
      "stateMutability": "nonpayable",
      "type": "function"
    },
    {
      "inputs": [
        {
          "internalType": "address",
          "name": "_trader",
          "type": "address"
        },
        {
          "internalType": "uint256",
          "name": "_pairIndex",
          "type": "uint256"
        },
        {
          "internalType": "uint256",
          "name": "_index",
          "type": "uint256"
        }
      ],
      "name": "unregisterOpenLimitOrder",
      "outputs": [],
      "stateMutability": "nonpayable",
      "type": "function"
    },
    {
      "inputs": [
        {
          "internalType": "uint256",
          "name": "_id",
          "type": "uint256"
        },
        {
          "internalType": "bool",
          "name": "_open",
          "type": "bool"
        }
      ],
      "name": "unregisterPendingMarketOrder",
      "outputs": [],
      "stateMutability": "nonpayable",
      "type": "function"
    },
    {
      "inputs": [
        {
          "internalType": "uint256",
          "name": "_order",
          "type": "uint256"
        }
      ],
      "name": "unregisterPendingNftOrder",
      "outputs": [],
      "stateMutability": "nonpayable",
      "type": "function"
    },
    {
      "inputs": [
        {
          "internalType": "address",
          "name": "trader",
          "type": "address"
        },
        {
          "internalType": "uint256",
          "name": "pairIndex",
          "type": "uint256"
        },
        {
          "internalType": "uint256",
          "name": "index",
          "type": "uint256"
        }
      ],
      "name": "unregisterTrade",
      "outputs": [],
      "stateMutability": "nonpayable",
      "type": "function"
    },
    {
      "inputs": [
        {
          "internalType": "contract NftInterfaceV5[5]",
          "name": "_nfts",
          "type": "address[5]"
        }
      ],
      "name": "updateNfts",
      "outputs": [],
      "stateMutability": "nonpayable",
      "type": "function"
    },
    {
      "inputs": [
        {
          "components": [
            {
              "internalType": "address",
              "name": "trader",
              "type": "address"
            },
            {
              "internalType": "uint256",
              "name": "pairIndex",
              "type": "uint256"
            },
            {
              "internalType": "uint256",
              "name": "index",
              "type": "uint256"
            },
            {
              "internalType": "uint256",
              "name": "positionSize",
              "type": "uint256"
            },
            {
              "internalType": "uint256",
              "name": "spreadReductionP",
              "type": "uint256"
            },
            {
              "internalType": "bool",
              "name": "buy",
              "type": "bool"
            },
            {
              "internalType": "uint256",
              "name": "leverage",
              "type": "uint256"
            },
            {
              "internalType": "uint256",
              "name": "tp",
              "type": "uint256"
            },
            {
              "internalType": "uint256",
              "name": "sl",
              "type": "uint256"
            },
            {
              "internalType": "uint256",
              "name": "minPrice",
              "type": "uint256"
            },
            {
              "internalType": "uint256",
              "name": "maxPrice",
              "type": "uint256"
            },
            {
              "internalType": "uint256",
              "name": "block",
              "type": "uint256"
            },
            {
              "internalType": "uint256",
              "name": "tokenId",
              "type": "uint256"
            }
          ],
          "internalType": "struct GFarmTradingStorageV5.OpenLimitOrder",
          "name": "_o",
          "type": "tuple"
        }
      ],
      "name": "updateOpenLimitOrder",
      "outputs": [],
      "stateMutability": "nonpayable",
      "type": "function"
    },
    {
      "inputs": [
        {
          "internalType": "address",
          "name": "_trader",
          "type": "address"
        },
        {
          "internalType": "uint256",
          "name": "_pairIndex",
          "type": "uint256"
        },
        {
          "internalType": "uint256",
          "name": "_index",
          "type": "uint256"
        },
        {
          "internalType": "uint256",
          "name": "_newSl",
          "type": "uint256"
        }
      ],
      "name": "updateSl",
      "outputs": [],
      "stateMutability": "nonpayable",
      "type": "function"
    },
    {
      "inputs": [
        {
          "internalType": "contract TokenInterfaceV5",
          "name": "_newToken",
          "type": "address"
        }
      ],
      "name": "updateToken",
      "outputs": [],
      "stateMutability": "nonpayable",
      "type": "function"
    },
    {
      "inputs": [
        {
          "internalType": "address",
          "name": "_trader",
          "type": "address"
        },
        {
          "internalType": "uint256",
          "name": "_pairIndex",
          "type": "uint256"
        },
        {
          "internalType": "uint256",
          "name": "_index",
          "type": "uint256"
        },
        {
          "internalType": "uint256",
          "name": "_newTp",
          "type": "uint256"
        }
      ],
      "name": "updateTp",
      "outputs": [],
      "stateMutability": "nonpayable",
      "type": "function"
    },
    {
      "inputs": [
        {
          "components": [
            {
              "internalType": "address",
              "name": "trader",
              "type": "address"
            },
            {
              "internalType": "uint256",
              "name": "pairIndex",
              "type": "uint256"
            },
            {
              "internalType": "uint256",
              "name": "index",
              "type": "uint256"
            },
            {
              "internalType": "uint256",
              "name": "initialPosToken",
              "type": "uint256"
            },
            {
              "internalType": "uint256",
              "name": "positionSizeWETH",
              "type": "uint256"
            },
            {
              "internalType": "uint256",
              "name": "openPrice",
              "type": "uint256"
            },
            {
              "internalType": "bool",
              "name": "buy",
              "type": "bool"
            },
            {
              "internalType": "uint256",
              "name": "leverage",
              "type": "uint256"
            },
            {
              "internalType": "uint256",
              "name": "tp",
              "type": "uint256"
            },
            {
              "internalType": "uint256",
              "name": "sl",
              "type": "uint256"
            }
          ],
          "internalType": "struct GFarmTradingStorageV5.Trade",
          "name": "_t",
          "type": "tuple"
        }
      ],
      "name": "updateTrade",
      "outputs": [],
      "stateMutability": "nonpayable",
      "type": "function"
    },
    {
      "inputs": [],
      "name": "vault",
      "outputs": [
        {
          "internalType": "address",
          "name": "",
          "type": "address"
        }
      ],
      "stateMutability": "view",
      "type": "function"
    }
  ],
  "transactionHash": "0xb088ae0f8cff4fb0b7e6f0af246af1c16fd4aedd100de3c5ac81a79a475dd67d",
  "args": [
    "0x4177942cb58Ce04508168D8A7ee6D2fE77aA8919",
    "0xa667403454F483dE81A0363Af7FcEE563819D910",
    "0xa667403454F483dE81A0363Af7FcEE563819D910"
  ],
  "numDeployments": 1,
  "solcInputHash": "fe5442b4f98ddcf18715ee42c9ecf297",
  "bytecode": "0x600580546001600160a01b031916737075cab6bcca06613e2d071bd918d1a0241379e217815561012060405273f9a4c522e327935bd1f5a338c121e14e4cc1f89860809081527377cd42b925e1a82f41d852d6be727cfc88fddbbc60a052733378ad81d09de23725ee9b9270635c97ed60192160c0527302e2c5825c1a3b69c0417706dbe1327c2af3e6c260e052732d266a94469d05c9e06d52a4d0d9c23b157767c261010052620000b59160069190620001d3565b506003600d556005600e819055600f8181556103846010556050601155603260128190556013556040805160a081018252918252601460208301819052601991830191909152601e606083015260236080830152620001179290919062000230565b50601980546001600160a01b031990811673c66fbe50dd33c9aadd65707f7088d597c86fe00f17909155601a805490911673d39a38bd2d2d552f3908ff698a5530aa397fb92d1790553480156200016d57600080fd5b5060405162005daa38038062005daa83398101604081905262000190916200029a565b600080546001600160a01b039485166001600160a01b0319918216179091556019805493851693821693909317909255601a8054919093169116179055620002e4565b82600581019282156200021e579160200282015b828111156200021e57825182546001600160a01b0319166001600160a01b03909116178255602090920191600190910190620001e7565b506200022c92915062000266565b5090565b82600581019282156200021e579160200282015b828111156200021e578251829060ff1690559160200191906001019062000244565b5b808211156200022c576000815560010162000267565b80516001600160a01b03811681146200029557600080fd5b919050565b600080600060608486031215620002b057600080fd5b620002bb846200027d565b9250620002cb602085016200027d565b9150620002db604085016200027d565b90509250925092565b615ab680620002f46000396000f3fe608060405234801561001057600080fd5b50600436106105875760003560e01c806391cca3db116102db578063d294f09311610188578063ecf56a1f116100e4578063f823e2ae1161009d578063f823e2ae14611094578063f8d24b48146110a7578063fbfa77cf146110b0578063fc0c546a146110c3578063fdb59413146110d6578063fe0fc8d6146110df578063fece4eac146110f257600080fd5b8063ecf56a1f14611002578063eda00d5414611015578063ee92a4ff14611046578063f013d2781461104f578063f65d9dbe14611062578063f7b3c6fd1461106b57600080fd5b8063dc2123ff11610141578063dc2123ff14610f87578063dcdf339a14610f9a578063e212991a14610fad578063e3cbe3a714610fc0578063e3f04eba14610fd3578063e7873b5814610fe6578063ec44acf214610fef57600080fd5b8063d294f09314610f29578063d3b5fe7014610f31578063d3c7c2c714610f44578063d477f05f14610f4c578063d4bda90814610f5f578063d539139314610f7257600080fd5b8063b4b0f56711610237578063c122fea6116101f0578063c122fea614610eae578063c311ab3114610eb7578063c625562614610eca578063c76faf7814610edd578063cab9458014610ef0578063cfad57a214610f03578063cfbacc1414610f1657600080fd5b8063b4b0f56714610d58578063b66e6b0514610d6b578063b767608a14610e3d578063b7682d5414610e50578063b8878a2c14610e7b578063bcc9f1d314610e9b57600080fd5b80639d1a1073116102945780639d1a107314610c0c578063a354418114610c1f578063a3a80ffe14610c32578063a553906c14610d06578063aa3b7d7714610d19578063aaf5eb6814610d39578063ad5c464814610d4557600080fd5b806391cca3db14610adb57806392a88fa214610aee578063959509e414610b4957806397e7995a14610b5257806399794d3514610b7d5780639c8912f114610be157600080fd5b806356a6796f1161043957806377a9fdcf11610395578063878679e61161034e578063878679e6146109eb5780638a0bd702146109fe5780638a238ae514610a135780638bbb644c14610a265780638bf7f5f914610a2f5780638c8ff1d514610a4257806390d112b914610ac857600080fd5b806377a9fdcf1461098d578063796d82d9146109a05780637ad3def2146109a95780637fdb96f3146109bc5780638049fde7146109cf578063817fa1a4146109d857600080fd5b80636690a806116103f25780636690a806146108dc5780636817031b146108ef57806368ca199d146109025780636d69fcaf1461092b5780636d81d9811461093e5780636de9f32b146109715780637395d79e1461097a57600080fd5b806356a6796f146108625780635a912551146108775780635ad9f993146108805780635b621e32146108895780635c76ac9e1461089c5780635fbfe8cc146108bc57600080fd5b8063292c1617116104e857806343b8fab5116104a157806343b8fab5146107b85780634415b369146107cb5780634437152a146107f657806344d44f5a146108095780635070e8371461081c57806352e5398f1461082f5780635378143e1461084f57600080fd5b8063292c1617146106c85780632d1f941a146106db5780633078fff5146106e457806332149592146106f75780633b0f0f2f146107765780633dae10a0146107a557600080fd5b8063145ed21c11610545578063145ed21c1461061d57806316f0115b146106305780631c8636b414610643578063201d8bdb1461067c57806321f7a30b1461068f578063265aa621146106a257806328b1f887146106b557600080fd5b8062b127831461058c57806306aef7de146105bc578063099fa934146105d15780630eee3e4a146105e457806312d43a51146105f757806313b36ff61461060a575b600080fd5b60045461059f906001600160a01b031681565b6040516001600160a01b0390911681526020015b60405180910390f35b6105cf6105ca366004615119565b61110d565b005b6105cf6105df3660046154a0565b611180565b6105cf6105f23660046154f7565b6111e8565b60195461059f906001600160a01b031681565b6105cf6106183660046154a0565b61127c565b6105cf61062b366004614fa4565b6112e7565b60025461059f906001600160a01b031681565b61066e61065136600461503b565b602660209081526000928352604080842090915290825290205481565b6040519081526020016105b3565b6105cf61068a3660046154a0565b611377565b6105cf61069d36600461503b565b611476565b61059f6106b03660046154a0565b61155d565b6105cf6106c336600461503b565b61157d565b61066e6106d636600461503b565b61164c565b61066e601c5481565b60015461059f906001600160a01b031681565b61070a6107053660046154a0565b6116ae565b604080516001600160a01b03909e168e5260208e019c909c529a8c019990995260608b019790975260808a019590955292151560a089015260c088019190915260e08701526101008601526101208501526101408401526101608301526101808201526101a0016105b3565b61059f610784366004614fa4565b6001600160a01b039081166000908152602360205260409020600101541690565b61066e6107b33660046154a0565b611735565b6105cf6107c63660046154a0565b61174c565b61066e6107d936600461503b565b603060209081526000928352604080842090915290825290205481565b6105cf610804366004614fa4565b6117c4565b61066e61081736600461503b565b611849565b6105cf61082a366004614fa4565b611880565b61066e61083d3660046154a0565b60326020526000908152604090205481565b6105cf61085d366004615067565b611910565b61086a611acb565b6040516105b3919061574a565b61066e60115481565b61066e60215481565b6105cf610897366004614fa4565b611b07565b6108af6108aa366004614fa4565b611b82565b6040516105b39190615772565b6108cf6108ca3660046154a0565b611bee565b6040516105b3919061566d565b6105cf6108ea3660046150a9565b611c59565b6105cf6108fd366004614fa4565b611e3b565b61066e610910366004614fa4565b6001600160a01b031660009081526023602052604090205490565b6105cf610939366004614fa4565b611ec1565b61096161094c366004614fa4565b60346020526000908152604090205460ff1681565b60405190151581526020016105b3565b61066e60205481565b6105cf6109883660046154f7565b611f69565b61066e61099b3660046154f7565b61203f565b61066e600e5481565b6105cf6109b7366004614fa4565b612064565b6105cf6109ca3660046150de565b612229565b61066e600f5481565b6105cf6109e6366004615363565b612346565b600c5461059f906001600160a01b031681565b610a06612495565b6040516105b391906156f4565b6105cf610a21366004614ffa565b612584565b61066e60125481565b6105cf610a3d3660046154a0565b6126bb565b610a99610a503660046150a9565b6025602090815260009384526040808520825292845282842090528252902080546001820154600283015460038401546004850154600590950154939492939192909160ff1686565b6040805196875260208701959095529385019290925260608401526080830152151560a082015260c0016105b3565b6105cf610ad63660046150a9565b61272d565b601a5461059f906001600160a01b031681565b610b26610afc366004614fa4565b60236020526000908152604090208054600182015460029092015490916001600160a01b03169083565b604080519384526001600160a01b039092166020840152908201526060016105b3565b61066e601e5481565b61066e610b6036600461503b565b602860209081526000928352604080842090915290825290205481565b610bcf610b8b3660046154a0565b602b602052600090815260409020805460018201546002830154600384015460048501546005909501546001600160a01b0394851695939490921692909160ff1686565b6040516105b396959493929190615611565b61066e610bef36600461503b565b602d60209081526000928352604080842090915290825290205481565b6105cf610c1a366004614fc1565b612aca565b6105cf610c2d3660046150de565b612c10565b610cb0610c403660046150a9565b602460209081526000938452604080852082529284528284209052825290208054600182015460028301546003840154600485015460058601546006870154600788015460088901546009909901546001600160a01b03909816989697959694959394929360ff9092169290918a565b604080516001600160a01b03909b168b5260208b0199909952978901969096526060880194909452608087019290925260a0860152151560c085015260e0840152610100830152610120820152610140016105b3565b6105cf610d14366004614fa4565b612d2d565b61066e610d273660046154a0565b60336020526000908152604090205481565b61066e6402540be40081565b60005461059f906001600160a01b031681565b6105cf610d663660046150a9565b612db5565b610e2b610d793660046154a0565b602a6020908152600091825260409182902082516101408101845281546001600160a01b031681526001820154928101929092526002810154928201929092526003820154606082015260048201546080820152600582015460a0820152600682015460ff16151560c0820152600782015460e082015260088201546101008201526009820154610120820152600a820154600b830154600c840154600d850154600e90950154939492939192909186565b6040516105b3969594939291906157d6565b6105cf610e4b36600461520b565b613149565b61066e610e5e36600461503b565b602e60209081526000928352604080842090915290825290205481565b610e8e610e893660046150a9565b6132fe565b6040516105b391906157c1565b61066e610ea936600461503b565b613482565b61066e60105481565b6105cf610ec5366004615410565b6134b3565b61059f610ed83660046154a0565b6137a9565b6105cf610eeb3660046152d1565b6137d3565b6105cf610efe3660046154d2565b613a3a565b6105cf610f11366004614fa4565b613dc2565b61066e610f24366004615519565b613e46565b6105cf614033565b6105cf610f3f36600461521e565b61426d565b6108cf614607565b6105cf610f5a366004614fa4565b614668565b6105cf610f6d3660046153f3565b6146ec565b61066e600080516020615a6183398151915281565b6105cf610f953660046154a0565b61480a565b610961610fa83660046150a9565b61487b565b6105cf610fbb3660046154a0565b614915565b61059f610fce3660046154f7565b61497b565b6105cf610fe13660046154a0565b6149b3565b61066e601f5481565b60035461059f906001600160a01b031681565b6105cf6110103660046154a0565b614ac0565b61066e6110233660046150a9565b602760209081526000938452604080852082529284528284209052825290205481565b61066e601b5481565b6105cf61105d3660046151a9565b614b37565b61066e600d5481565b61066e611079366004614fa4565b6001600160a01b03166000908152602c602052604090205490565b6105cf6110a2366004614fa4565b614be1565b61066e60135481565b600b5461059f906001600160a01b031681565b60055461059f906001600160a01b031681565b61066e601d5481565b6105cf6110ed366004614fa4565b614d28565b61059f73b0897686c545045afc77cf20ec7a532e3120e0f181565b6019546001600160a01b0316331461112457600080fd5b80516001600160a01b031661113857600080fd5b6111456006826005614e3d565b507f89a3bfeda71ede5f8735aa09127c97cd56aa3803356c52f7c30caf418238b4648160405161117591906156ba565b60405180910390a150565b6019546001600160a01b0316331461119757600080fd5b60328110156111a557600080fd5b6011819055604080518181526006918101919091526506d6178536c560d41b606082015260208101829052600080516020615a2183398151915290608001611175565b6019546001600160a01b031633146111ff57600080fd5b6000828152603160205260409020819060020155604080516060808252601390820152720dac2f09ee0cadc92dce8cae4cae6e8ae8aa89606b1b6080820152602081018490529081018290527f957cd67ea49f3e1ee953cdd23a1ba1f11d973e842411220d5c24ef0e24e1c9569060a00160405180910390a15050565b6019546001600160a01b0316331461129357600080fd5b61012c8110156112a257600080fd5b6010819055604080518181526008918101919091526706d61784761696e560c41b606082015260208101829052600080516020615a2183398151915290608001611175565b6019546001600160a01b031633146112fe57600080fd5b6001600160a01b03811661131157600080fd5b600c80546001600160a01b0319166001600160a01b03831690811790915560408051818152600f918101919091526e3a37b5b2b72ba2aa242937baba32b960891b60608201526020810191909152600080516020615a4183398151915290608001611175565b3360009081526034602052604090205460ff1680156114215750600554604051632474521560e21b81526001600160a01b03909116906391d14854906113d190600080516020615a618339815191529033906004016157aa565b60206040518083038186803b1580156113e957600080fd5b505afa1580156113fd573d6000803e3d6000fd5b505050506040513d601f19601f8201168201806040525081019061142191906151ee565b61142a57600080fd5b6000908152602b6020526040812080546001600160a01b03199081168255600182018390556002820180549091169055600381018290556004810191909155600501805460ff19169055565b3360009081526034602052604090205460ff1680156115205750600554604051632474521560e21b81526001600160a01b03909116906391d14854906114d090600080516020615a618339815191529033906004016157aa565b60206040518083038186803b1580156114e857600080fd5b505afa1580156114fc573d6000803e3d6000fd5b505050506040513d601f19601f8201168201806040525081019061152091906151ee565b61152957600080fd5b6001600160a01b038216600090815260236020526040812060020180548392906115549084906158ed565b90915550505050565b6006816005811061156d57600080fd5b01546001600160a01b0316905081565b3360009081526034602052604090205460ff1680156116275750600554604051632474521560e21b81526001600160a01b03909116906391d14854906115d790600080516020615a618339815191529033906004016157aa565b60206040518083038186803b1580156115ef57600080fd5b505afa158015611603573d6000803e3d6000fd5b505050506040513d601f19601f8201168201806040525081019061162791906151ee565b61163057600080fd5b6001600160a01b03909116600090815260236020526040902055565b6000805b600d548110156116a7576001600160a01b03841660009081526024602090815260408083208684528252808320848452909152902060070154611695578091506116a7565b8061169f81615974565b915050611650565b5092915050565b602981815481106116be57600080fd5b60009182526020909120600d9091020180546001820154600283015460038401546004850154600586015460068701546007880154600889015460098a0154600a8b0154600b8c0154600c909c01546001600160a01b03909b169c50989a97999698959760ff90951696939592949193909291908d565b6014816005811061174557600080fd5b0154905081565b6019546001600160a01b0316331461176357600080fd5b6000811161177057600080fd5b60128190556040805181815260179181019190915276191959985d5b1d13195d995c9859d9555b9b1bd8dad959604a1b606082015260208101829052600080516020615a2183398151915290608001611175565b6019546001600160a01b031633146117db57600080fd5b6001600160a01b0381166117ee57600080fd5b600280546001600160a01b0319166001600160a01b03831690811790915560408051818152600491810191909152631c1bdbdb60e21b60608201526020810191909152600080516020615a4183398151915290608001611175565b6000805b600d548110156116a75761186284848361487b565b61186e578091506116a7565b8061187881615974565b91505061184d565b6019546001600160a01b0316331461189757600080fd5b6001600160a01b0381166118aa57600080fd5b600180546001600160a01b0319166001600160a01b03831690811790915560408051818152600f918101919091526e383934b1b2a0b3b3b932b3b0ba37b960891b60608201526020810191909152600080516020615a4183398151915290608001611175565b3360009081526034602052604090205460ff1680156119ba5750600554604051632474521560e21b81526001600160a01b03909116906391d148549061196a90600080516020615a618339815191529033906004016157aa565b60206040518083038186803b15801561198257600080fd5b505afa158015611996573d6000803e3d6000fd5b505050506040513d601f19601f820116820180604052508101906119ba91906151ee565b6119c357600080fd5b8015611a4a576005546040516340c10f1960e01b81526001600160a01b03909116906340c10f19906119fb90869086906004016155f8565b600060405180830381600087803b158015611a1557600080fd5b505af1158015611a29573d6000803e3d6000fd5b505050508160206000828254611a3f91906158ed565b90915550611ac69050565b600554604051632770a7eb60e21b81526001600160a01b0390911690639dc29fac90611a7c90869086906004016155f8565b600060405180830381600087803b158015611a9657600080fd5b505af1158015611aaa573d6000803e3d6000fd5b5050505081601f6000828254611ac091906158ed565b90915550505b505050565b611ad3614e95565b6040805160a08101918290529060149060059082845b815481526020019060010190808311611ae9575b5050505050905090565b6019546001600160a01b03163314611b1e57600080fd5b6001600160a01b038116611b3157600080fd5b6001600160a01b038116600081815260346020908152604091829020805460ff1916905590519182527ff9cf924d7d98e6e0a27ec523cd7214b0bbdfaba197018b33b41a702f5238190e9101611175565b6001600160a01b0381166000908152602c6020908152604091829020805483518184028101840190945280845260609392830182828015611be257602002820191906000526020600020905b815481526020019060010190808311611bce575b50505050509050919050565b6000818152602f6020908152604091829020805483518184028101840190945280845260609392830182828015611be257602002820191906000526020600020905b81546001600160a01b03168152600190910190602001808311611c305750505050509050919050565b3360009081526034602052604090205460ff168015611d035750600554604051632474521560e21b81526001600160a01b03909116906391d1485490611cb390600080516020615a618339815191529033906004016157aa565b60206040518083038186803b158015611ccb57600080fd5b505afa158015611cdf573d6000803e3d6000fd5b505050506040513d601f19601f82011682018060405250810190611d0391906151ee565b611d0c57600080fd5b60015460405163b9e0336f60e01b8152600481018490526024810183905273b0897686c545045afc77cf20ec7a532e3120e0f1916323b872dd9186916001600160a01b031690819063b9e0336f9060440160206040518083038186803b158015611d7557600080fd5b505afa158015611d89573d6000803e3d6000fd5b505050506040513d601f19601f82011682018060405250810190611dad91906154b9565b6040516001600160e01b031960e086901b1681526001600160a01b03938416600482015292909116602483015260448201526064015b602060405180830381600087803b158015611dfd57600080fd5b505af1158015611e11573d6000803e3d6000fd5b505050506040513d601f19601f82011682018060405250810190611e3591906151ee565b50505050565b6019546001600160a01b03163314611e5257600080fd5b6001600160a01b038116611e6557600080fd5b600b80546001600160a01b0319166001600160a01b03831690811790915560408051818152600591810191909152641d985d5b1d60da1b60608201526020810191909152600080516020615a4183398151915290608001611175565b6019546001600160a01b03163314611ed857600080fd5b6001600160a01b038116611eeb57600080fd5b602280546001810182556000919091527f61035b26e3e9eee00e0d72fd1ee8ddca6894550dca6916ea2ac6baa90d11e5100180546001600160a01b0319166001600160a01b0383169081179091556040519081527fd1be2e90bd3d24839d9dd94ad871068e1f9688b02fa43f2a62c9975dfa9de2d790602001611175565b3360009081526034602052604090205460ff1680156120135750600554604051632474521560e21b81526001600160a01b03909116906391d1485490611fc390600080516020615a618339815191529033906004016157aa565b60206040518083038186803b158015611fdb57600080fd5b505afa158015611fef573d6000803e3d6000fd5b505050506040513d601f19601f8201168201806040525081019061201391906151ee565b61201c57600080fd5b6000828152603360205260408120439055602180548392906115549084906158ed565b6031602052816000526040600020816003811061205b57600080fd5b01549150829050565b6019546001600160a01b0316331461207b57600080fd5b600360009054906101000a90046001600160a01b03166001600160a01b031663b187bd266040518163ffffffff1660e01b815260040160206040518083038186803b1580156120c957600080fd5b505afa1580156120dd573d6000803e3d6000fd5b505050506040513d601f19601f8201168201806040525081019061210191906151ee565b8015612182575060048054604080516358c3de9360e11b815290516001600160a01b039092169263b187bd26928282019260209290829003018186803b15801561214a57600080fd5b505afa15801561215e573d6000803e3d6000fd5b505050506040513d601f19601f8201168201806040525081019061218291906151ee565b6121c05760405162461bcd60e51b815260206004820152600a6024820152691393d517d4105554d15160b21b60448201526064015b60405180910390fd5b6001600160a01b0381166121d357600080fd5b600580546001600160a01b0319166001600160a01b03831690811782556040805181815290810192909252643a37b5b2b760d91b60608301526020820152600080516020615a4183398151915290608001611175565b3360009081526034602052604090205460ff1680156122d35750600554604051632474521560e21b81526001600160a01b03909116906391d148549061228390600080516020615a618339815191529033906004016157aa565b60206040518083038186803b15801561229b57600080fd5b505afa1580156122af573d6000803e3d6000fd5b505050506040513d601f19601f820116820180604052508101906122d391906151ee565b6122dc57600080fd5b6001600160a01b03841660008181526024602090815260408083208784528252808320868452825280832093835260258252808320878452825280832086845290915290206007820154612331575050611e35565b60089091018290554360039091015550505050565b3360009081526034602052604090205460ff1680156123f05750600554604051632474521560e21b81526001600160a01b03909116906391d14854906123a090600080516020615a618339815191529033906004016157aa565b60206040518083038186803b1580156123b857600080fd5b505afa1580156123cc573d6000803e3d6000fd5b505050506040513d601f19601f820116820180604052508101906123f091906151ee565b6123f957600080fd5b6000818152602b6020908152604091829020845181546001600160a01b03199081166001600160a01b03928316178355928601516001808401919091559386015160028301805490941691161790915560608401516003808301919091556080850151600483015560a085015160058301805487959293919260ff1990911691849081111561248a5761248a6159a5565b021790555050505050565b60606029805480602002602001604051908101604052809291908181526020016000905b8282101561257b576000848152602090819020604080516101a081018252600d860290920180546001600160a01b03168352600180820154848601526002820154928401929092526003810154606084015260048101546080840152600581015460ff16151560a0840152600681015460c0840152600781015460e084015260088101546101008401526009810154610120840152600a810154610140840152600b810154610160840152600c015461018083015290835290920191016124b9565b50505050905090565b3360009081526034602052604090205460ff16801561262e5750600554604051632474521560e21b81526001600160a01b03909116906391d14854906125de90600080516020615a618339815191529033906004016157aa565b60206040518083038186803b1580156125f657600080fd5b505afa15801561260a573d6000803e3d6000fd5b505050506040513d601f19601f8201168201806040525081019061262e91906151ee565b61263757600080fd5b6001600160a01b03831630141561267a5760005460405163a9059cbb60e01b81526001600160a01b039091169063a9059cbb90611de390859085906004016155f8565b6000546040516323b872dd60e01b81526001600160a01b038581166004830152848116602483015260448201849052909116906323b872dd90606401611de3565b6019546001600160a01b031633146126d257600080fd5b600081116126df57600080fd5b600e81905560408051818152601191810191909152706d6178547261646573506572426c6f636b60781b606082015260208101829052600080516020615a2183398151915290608001611175565b3360009081526034602052604090205460ff1680156127d75750600554604051632474521560e21b81526001600160a01b03909116906391d148549061278790600080516020615a618339815191529033906004016157aa565b60206040518083038186803b15801561279f57600080fd5b505afa1580156127b3573d6000803e3d6000fd5b505050506040513d601f19601f820116820180604052508101906127d791906151ee565b6127e057600080fd5b6001600160a01b03831660008181526024602090815260408083208684528252808320858452825280832093835260258252808320868452825280832085845290915290206007820154612835575050505050565b6002810154600683015461285091869160009060ff16614db2565b6001600160a01b0385166000908152602660209081526040808320878452909152902054600114156129be576001600160a01b0385166000908152603060209081526040808320878452825280832054602f909252909120805481906128b890600190615946565b815481106128c8576128c86159d1565b9060005260206000200160009054906101000a90046001600160a01b03168183815481106128f8576128f86159d1565b9060005260206000200160006101000a8154816001600160a01b0302191690836001600160a01b03160217905550816030600083858154811061293d5761293d6159d1565b60009182526020808320909101546001600160a01b03908116845283820194909452604092830182208b8352815282822094909455918a16825260308352808220898352909252908120558054819080612999576129996159bb565b600082815260209020810160001990810180546001600160a01b031916905501905550505b6001600160a01b03851660008181526024602090815260408083208884528252808320878452825280832080546001600160a01b03191681556001808201859055600280830186905560038084018790556004808501889055600580860189905560068601805460ff19908116909155600787018a9055600887018a90556009909601899055898952602588528689208e8a5288528689208d8a52885286892089815594850189905592840188905590830187905582018690550180549091169055928252602681528282208783529052908120805491612a9e8361595d565b9091555050436000908152603260205260408120805491612abe83615974565b91905055505050505050565b3360009081526034602052604090205460ff168015612b745750600554604051632474521560e21b81526001600160a01b03909116906391d1485490612b2490600080516020615a618339815191529033906004016157aa565b60206040518083038186803b158015612b3c57600080fd5b505afa158015612b50573d6000803e3d6000fd5b505050506040513d601f19601f82011682018060405250810190612b7491906151ee565b612b7d57600080fd5b6001600160a01b03808316600090815260236020526040902090821615801590612bb2575060018101546001600160a01b0316155b8015612bd05750826001600160a01b0316826001600160a01b031614155b612be75760018101546001600160a01b0316612be9565b815b60019190910180546001600160a01b0319166001600160a01b039092169190911790555050565b3360009081526034602052604090205460ff168015612cba5750600554604051632474521560e21b81526001600160a01b03909116906391d1485490612c6a90600080516020615a618339815191529033906004016157aa565b60206040518083038186803b158015612c8257600080fd5b505afa158015612c96573d6000803e3d6000fd5b505050506040513d601f19601f82011682018060405250810190612cba91906151ee565b612cc357600080fd5b6001600160a01b03841660008181526024602090815260408083208784528252808320868452825280832093835260258252808320878452825280832086845290915290206007820154612d18575050611e35565b60099091018290554360049091015550505050565b6019546001600160a01b03163314612d4457600080fd5b6001600160a01b038116612d5757600080fd5b600380546001600160a01b0319166001600160a01b038316908117909155604080518181526007918101919091526674726164696e6760c81b60608201526020810191909152600080516020615a4183398151915290608001611175565b3360009081526034602052604090205460ff168015612e5f5750600554604051632474521560e21b81526001600160a01b03909116906391d1485490612e0f90600080516020615a618339815191529033906004016157aa565b60206040518083038186803b158015612e2757600080fd5b505afa158015612e3b573d6000803e3d6000fd5b505050506040513d601f19601f82011682018060405250810190612e5f91906151ee565b612e6857600080fd5b612e7383838361487b565b612e7c57505050565b6001600160a01b0383166000908152602760209081526040808320858452825280832084845290915290205460298054612eb890600190615946565b81548110612ec857612ec86159d1565b90600052602060002090600d020160298281548110612ee957612ee96159d1565b6000918252602082208354600d9092020180546001600160a01b0319166001600160a01b0390921691909117815560018084015490820155600280840154908201556003808401549082015560048084015490820155600580840154908201805460ff909216151560ff1990921691909117905560068084015490820155600780840154908201556008808401549082015560098084015490820155600a8084015490820155600b8084015490820155600c92830154920191909155602980548392602792909184908110612fc057612fc06159d1565b60009182526020808320600d909202909101546001600160a01b0316835282019290925260400181206029805491929185908110613000576130006159d1565b90600052602060002090600d0201600101548152602001908152602001600020600060298481548110613035576130356159d1565b600091825260208083206002600d90930201919091015483528281019390935260409182018120939093556001600160a01b03871683526027825280832086845282528083208584529091528120556029805480613095576130956159bb565b60008281526020808220600d6000199094019384020180546001600160a01b03191681556001810183905560028101839055600381018390556004810183905560058101805460ff1916905560068101839055600781018390556008810183905560098101839055600a8101839055600b8101839055600c01829055919092556001600160a01b0386168252602881526040808320868452909152812080549161313e8361595d565b919050555050505050565b3360009081526034602052604090205460ff1680156131f35750600554604051632474521560e21b81526001600160a01b03909116906391d14854906131a390600080516020615a618339815191529033906004016157aa565b60206040518083038186803b1580156131bb57600080fd5b505afa1580156131cf573d6000803e3d6000fd5b505050506040513d601f19601f820116820180604052508101906131f391906151ee565b6131fc57600080fd5b61321b61320c6020830183614fa4565b8260200135836040013561487b565b6132225750565b600060296027826132366020860186614fa4565b6001600160a01b031681526020808201929092526040908101600090812086840135825283528181208683013582529092529020548154811061327b5761327b6159d1565b90600052602060002090600d02019050816060013581600301819055508160a00160208101906132ab91906151d1565b60058201805460ff191691151591909117905560c0820135600682015560e0820135600782015561010082013560088201556101208201356009820155610140820135600a82015543600b909101555b50565b613374604051806101a0016040528060006001600160a01b0316815260200160008152602001600081526020016000815260200160008152602001600015158152602001600081526020016000815260200160008152602001600081526020016000815260200160008152602001600081525090565b61337f84848461487b565b61338857600080fd5b6001600160a01b038416600090815260276020908152604080832086845282528083208584529091529020546029805490919081106133c9576133c96159d1565b6000918252602091829020604080516101a081018252600d90930290910180546001600160a01b031683526001810154938301939093526002830154908201526003820154606082015260048201546080820152600582015460ff16151560a0820152600682015460c0820152600782015460e082015260088201546101008201526009820154610120820152600a820154610140820152600b820154610160820152600c9091015461018082015290505b9392505050565b602c602052816000526040600020818154811061349e57600080fd5b90600052602060002001600091509150505481565b3360009081526034602052604090205460ff16801561355d5750600554604051632474521560e21b81526001600160a01b03909116906391d148549061350d90600080516020615a618339815191529033906004016157aa565b60206040518083038186803b15801561352557600080fd5b505afa158015613539573d6000803e3d6000fd5b505050506040513d601f19601f8201168201806040525081019061355d91906151ee565b61356657600080fd5b6135788260000151836020015161164c565b604083810191825283516001600160a01b0390811660009081526024602090815283822081880180518452908252848320865184528252848320885181546001600160a01b031916951694851781558151600182015595516002870155606088015160038701556080880151600487015560a0880151600587015560c088015160068701805460ff191691151591909117905560e0880151600787015561010088015160088701556101208801516009909601959095559181526026825282812093518152929052812080549161364e83615974565b909155505043600090815260326020526040812080549161366e83615974565b909155505081516001600160a01b031660009081526026602090815260408083208286015184529091529020546001141561370f57602082810180516000908152602f80845260408083205487516001600160a01b039081168552603087528285208651865287528285209190915593518352908452812085518154600181018355918352939091200180546001600160a01b031916929091169190911790555b600060a0820181815283516001600160a01b031682526025602090815260408084208287018051865290835281852082880151865283529381902085518155918501516001808401919091559085015160028301819055606086015160038401556080860151600484015592516005909201805460ff191692151592909217909155915160c08501516137a59391929190614db2565b5050565b602281815481106137b957600080fd5b6000918252602090912001546001600160a01b0316905081565b3360009081526034602052604090205460ff16801561387d5750600554604051632474521560e21b81526001600160a01b03909116906391d148549061382d90600080516020615a618339815191529033906004016157aa565b60206040518083038186803b15801561384557600080fd5b505afa158015613859573d6000803e3d6000fd5b505050506040513d601f19601f8201168201806040525081019061387d91906151ee565b61388657600080fd5b8251516001600160a01b039081166000908152602c6020908152604080832080546001808201835591855283852001879055868452602a8352928190208751805182546001600160a01b031916961695909517815591840151928201929092558282015160028201556060808401516003830155608080850151600484015560a080860151600585015560c086015160068501805460ff191691151591909117905560e08601516007850155610100860151600885015561012090950151600984015592870151600b830155860151600c82015590850151600d82015590840151600e82015543600a9091015580156139b8578251516001600160a01b03166000908152602d602090815260408083208651830151845290915281208054916139ae83615974565b9190505550505050565b8251516001600160a01b03166000908152602e602090815260408083208651830151845290915281208054916139ed83615974565b90915550508251516001600160a01b03166000908152602560209081526040808320865183015184528252808320865182015184529091529020600501805460ff19166001179055505050565b3360009081526034602052604090205460ff168015613ae45750600554604051632474521560e21b81526001600160a01b03909116906391d1485490613a9490600080516020615a618339815191529033906004016157aa565b60206040518083038186803b158015613aac57600080fd5b505afa158015613ac0573d6000803e3d6000fd5b505050506040513d601f19601f82011682018060405250810190613ae491906151ee565b613aed57600080fd5b6000828152602a6020908152604080832081516102008101835281546001600160a01b031660c08201818152600184015460e08401526002840154610100840152600384015461012084015260048401546101408401526005840154610160840152600684015460ff16151561018084015260078401546101a084015260088401546101c084015260098401546101e08401528252600a83015482860152600b83015482850152600c8301546060830152600d8301546080830152600e9092015460a0820152908452602c909252822090915b8154811015613dbb5784828281548110613bdc57613bdc6159d1565b90600052602060002001541415613da9578315613c32578251516001600160a01b03166000908152602d60209081526040808320865183015184529091528120805491613c288361595d565b9190505550613cad565b8251516001600160a01b03166000908152602e60209081526040808320865183015184529091528120805491613c678361595d565b90915550508251516001600160a01b03166000908152602560209081526040808320865183015184528252808320865182015184529091529020600501805460ff191690555b81548290613cbd90600190615946565b81548110613ccd57613ccd6159d1565b9060005260206000200154828281548110613cea57613cea6159d1565b906000526020600020018190555081805480613d0857613d086159bb565b600082815260208082208301600019908101839055909201909255868252602a90526040812080546001600160a01b0319168155600181018290556002810182905560038101829055600481018290556005810182905560068101805460ff19169055600781018290556008810182905560098101829055600a8101829055600b8101829055600c8101829055600d8101829055600e0155506137a5915050565b80613db381615974565b915050613bc0565b5050505050565b6019546001600160a01b03163314613dd957600080fd5b6001600160a01b038116613dec57600080fd5b601980546001600160a01b0319166001600160a01b038316908117909155604080518181526003918101919091526233b7bb60e91b60608201526020810191909152600080516020615a4183398151915290608001611175565b3360009081526034602052604081205460ff168015613ef05750600554604051632474521560e21b81526001600160a01b03909116906391d1485490613ea090600080516020615a618339815191529033906004016157aa565b60206040518083038186803b158015613eb857600080fd5b505afa158015613ecc573d6000803e3d6000fd5b505050506040513d601f19601f82011682018060405250810190613ef091906151ee565b613ef957600080fd5b600154604051630710f2ff60e51b8152600481018790526064916402540be400916001600160a01b039091169063e21e5fe09060240160206040518083038186803b158015613f4757600080fd5b505afa158015613f5b573d6000803e3d6000fd5b505050506040513d601f19601f82011682018060405250810190613f7f91906154b9565b613f899087615927565b613f939190615905565b613f9d9190615905565b905081613fb257613faf600282615905565b90505b8215613fee5780601e6000828254613fca91906158ed565b9250508190555080601c6000828254613fe391906158ed565b9091555061401f9050565b80601d600082825461400091906158ed565b9250508190555080601b600082825461401991906158ed565b90915550505b61402a600282615927565b95945050505050565b6019546001600160a01b0316331461404a57600080fd5b600554601a54601b546040516340c10f1960e01b81526001600160a01b03938416936340c10f1993614081939116916004016155f8565b600060405180830381600087803b15801561409b57600080fd5b505af11580156140af573d6000803e3d6000fd5b5050600554601954601d546040516340c10f1960e01b81526001600160a01b0393841695506340c10f1994506140eb93909216916004016155f8565b600060405180830381600087803b15801561410557600080fd5b505af1158015614119573d6000803e3d6000fd5b50505050601d54601b5461412d91906158ed565b6020600082825461413e91906158ed565b9091555050600054601954601e5460405163a9059cbb60e01b81526001600160a01b039384169363a9059cbb9361417a939116916004016155f8565b602060405180830381600087803b15801561419457600080fd5b505af11580156141a8573d6000803e3d6000fd5b505050506040513d601f19601f820116820180604052508101906141cc91906151ee565b50600054601a54601c5460405163a9059cbb60e01b81526001600160a01b039384169363a9059cbb93614204939116916004016155f8565b602060405180830381600087803b15801561421e57600080fd5b505af1158015614232573d6000803e3d6000fd5b505050506040513d601f19601f8201168201806040525081019061425691906151ee565b506000601b819055601d819055601c819055601e55565b3360009081526034602052604090205460ff1680156143175750600554604051632474521560e21b81526001600160a01b03909116906391d14854906142c790600080516020615a618339815191529033906004016157aa565b60206040518083038186803b1580156142df57600080fd5b505afa1580156142f3573d6000803e3d6000fd5b505050506040513d601f19601f8201168201806040525081019061431791906151ee565b61432057600080fd5b61433281600001518260200151611849565b604082019081524361016083019081526029805460018082018355600083905285517fcb7c14ce178f56e2e8d86ab33ebc0ae081ba8556a00cd122038841867181caac600d90930292830180546001600160a01b0319166001600160a01b0390921691909117905560208601517fcb7c14ce178f56e2e8d86ab33ebc0ae081ba8556a00cd122038841867181caad83015593517fcb7c14ce178f56e2e8d86ab33ebc0ae081ba8556a00cd122038841867181caae82015560608501517fcb7c14ce178f56e2e8d86ab33ebc0ae081ba8556a00cd122038841867181caaf82015560808501517fcb7c14ce178f56e2e8d86ab33ebc0ae081ba8556a00cd122038841867181cab082015560a08501517fcb7c14ce178f56e2e8d86ab33ebc0ae081ba8556a00cd122038841867181cab18201805460ff191691151591909117905560c08501517fcb7c14ce178f56e2e8d86ab33ebc0ae081ba8556a00cd122038841867181cab282015560e08501517fcb7c14ce178f56e2e8d86ab33ebc0ae081ba8556a00cd122038841867181cab38201556101008501517fcb7c14ce178f56e2e8d86ab33ebc0ae081ba8556a00cd122038841867181cab48201556101208501517fcb7c14ce178f56e2e8d86ab33ebc0ae081ba8556a00cd122038841867181cab58201556101408501517fcb7c14ce178f56e2e8d86ab33ebc0ae081ba8556a00cd122038841867181cab682015591517fcb7c14ce178f56e2e8d86ab33ebc0ae081ba8556a00cd122038841867181cab78301556101808401517fcb7c14ce178f56e2e8d86ab33ebc0ae081ba8556a00cd122038841867181cab890920191909155546145a19190615946565b81516001600160a01b039081166000908152602760209081526040808320828701805185529083528184208288015185528352818420959095558551909316825260288152828220935182529290925281208054916145ff83615974565b919050555050565b60606022805480602002602001604051908101604052809291908181526020018280548015611afd57602002820191906000526020600020905b81546001600160a01b03168152600190910190602001808311614641575050505050905090565b6019546001600160a01b0316331461467f57600080fd5b6001600160a01b03811661469257600080fd5b601a80546001600160a01b0319166001600160a01b03831690811790915560408051818152600391810191909152623232bb60e91b60608201526020810191909152600080516020615a4183398151915290608001611175565b3360009081526034602052604090205460ff1680156147965750600554604051632474521560e21b81526001600160a01b03909116906391d148549061474690600080516020615a618339815191529033906004016157aa565b60206040518083038186803b15801561475e57600080fd5b505afa158015614772573d6000803e3d6000fd5b505050506040513d601f19601f8201168201806040525081019061479691906151ee565b61479f57600080fd5b80516001600160a01b031660009081526024602090815260408083208285015184528252808320818501518452909152902060078101546147de575050565b606082015160038201556080820151600482015560a0820151600582015560e082015160079091015550565b6019546001600160a01b0316331461482157600080fd5b6000811161482e57600080fd5b600d819055604080518181526010918101919091526f36b0bc2a3930b232b9a832b92830b4b960811b606082015260208101829052600080516020615a2183398151915290608001611175565b60295460009061488d5750600061347b565b6001600160a01b038416600090815260276020908152604080832086845282528083208584529091528120546029805490919081106148ce576148ce6159d1565b60009182526020909120600d9091020180549091506001600160a01b0386811691161480156149005750838160010154145b801561402a5750600201549091149392505050565b6019546001600160a01b0316331461492c57600080fd5b601381905560408051818152601291810191909152716e66745375636365737354696d656c6f636b60701b606082015260208101829052600080516020615a2183398151915290608001611175565b602f602052816000526040600020818154811061499757600080fd5b6000918252602090912001546001600160a01b03169150829050565b3360009081526034602052604090205460ff168015614a5d5750600554604051632474521560e21b81526001600160a01b03909116906391d1485490614a0d90600080516020615a618339815191529033906004016157aa565b60206040518083038186803b158015614a2557600080fd5b505afa158015614a39573d6000803e3d6000fd5b505050506040513d601f19601f82011682018060405250810190614a5d91906151ee565b614a6657600080fd5b600254604051633104b73f60e21b8152600481018390526001600160a01b039091169063c412dcfc90602401600060405180830381600087803b158015614aac57600080fd5b505af1158015613dbb573d6000803e3d6000fd5b6019546001600160a01b03163314614ad757600080fd5b60008111614ae457600080fd5b600f81905560408051818152601691810191909152756d617850656e64696e674d61726b65744f726465727360501b606082015260208101829052600080516020615a2183398151915290608001611175565b6019546001600160a01b03163314614b4e57600080fd5b803515801590614b62575080356020820135115b8015614b75575060208101356040820135115b8015614b88575060408101356060820135115b8015614b9b575060608101356080820135115b614ba457600080fd5b614bb16014826005614eb3565b507fdaae5e047a75b6f38ad4e279cdefe910fc35d5a99a91b8303bd948c0a999372a816040516111759190615737565b6019546001600160a01b03163314614bf857600080fd5b600554604051632474521560e21b81526001600160a01b03909116906391d1485490614c3890600080516020615a618339815191529085906004016157aa565b60206040518083038186803b158015614c5057600080fd5b505afa158015614c64573d6000803e3d6000fd5b505050506040513d601f19601f82011682018060405250810190614c8891906151ee565b614cc15760405162461bcd60e51b815260206004820152600a6024820152692727aa2fa6a4a72a22a960b11b60448201526064016121b7565b6001600160a01b038116614cd457600080fd5b6001600160a01b038116600081815260346020908152604091829020805460ff1916600117905590519182527fb692fa98cbec9bd705572b4c7e0927e3f7698e9fe526dcef6f40f3d4d4980ca39101611175565b6019546001600160a01b03163314614d3f57600080fd5b6001600160a01b038116614d5257600080fd5b600480546001600160a01b0319166001600160a01b038316908117909155604080518181526009918101919091526863616c6c6261636b7360b81b60608201526020810191909152600080516020615a4183398151915290608001611175565b600081614dc0576001614dc3565b60005b600086815260316020526040902060ff91909116915083614e025784818360038110614df157614df16159d1565b0154614dfd9190615946565b614e21565b84818360038110614e1557614e156159d1565b0154614e2191906158ed565b818360038110614e3357614e336159d1565b0155505050505050565b8260058101928215614e85579160200282015b82811115614e8557825182546001600160a01b0319166001600160a01b03909116178255602090920191600190910190614e50565b50614e91929150614ee1565b5090565b6040518060a001604052806005906020820280368337509192915050565b8260058101928215614e85579160200282015b82811115614e85578235825591602001919060010190614ec6565b5b80821115614e915760008155600101614ee2565b8035614f01816159fd565b919050565b8035614f0181615a12565b60006101408284031215614f2457600080fd5b614f2c61587c565b9050614f3782614ef6565b81526020820135602082015260408201356040820152606082013560608201526080820135608082015260a082013560a0820152614f7760c08301614f06565b60c082015260e082013560e082015261010080830135818301525061012080830135818301525092915050565b600060208284031215614fb657600080fd5b813561347b816159fd565b60008060408385031215614fd457600080fd5b8235614fdf816159fd565b91506020830135614fef816159fd565b809150509250929050565b60008060006060848603121561500f57600080fd5b833561501a816159fd565b9250602084013561502a816159fd565b929592945050506040919091013590565b6000806040838503121561504e57600080fd5b8235615059816159fd565b946020939093013593505050565b60008060006060848603121561507c57600080fd5b8335615087816159fd565b925060208401359150604084013561509e81615a12565b809150509250925092565b6000806000606084860312156150be57600080fd5b83356150c9816159fd565b95602085013595506040909401359392505050565b600080600080608085870312156150f457600080fd5b84356150ff816159fd565b966020860135965060408601359560600135945092505050565b600060a0828403121561512b57600080fd5b82601f83011261513a57600080fd5b60405160a0810181811067ffffffffffffffff8211171561515d5761515d6159e7565b604052808360a0810186101561517257600080fd5b60005b600581101561519e578135615189816159fd565b83526020928301929190910190600101615175565b509195945050505050565b600060a082840312156151bb57600080fd5b8260a0830111156151cb57600080fd5b50919050565b6000602082840312156151e357600080fd5b813561347b81615a12565b60006020828403121561520057600080fd5b815161347b81615a12565b60006101a082840312156151cb57600080fd5b60006101a0828403121561523157600080fd5b6152396158a6565b61524283614ef6565b81526020830135602082015260408301356040820152606083013560608201526080830135608082015261527860a08401614f06565b60a082015260c0838101359082015260e080840135908201526101008084013590820152610120808401359082015261014080840135908201526101608084013590820152610180928301359281019290925250919050565b60008060008385036102208112156152e857600080fd5b6101e0808212156152f857600080fd5b6153006158ca565b915061530c8787614f11565b82526101408601356020830152610160860135604083015261018086013560608301526101a086013560808301526101c086013560a0830152909350840135915061535a6102008501614f06565b90509250925092565b60008082840360e081121561537757600080fd5b60c081121561538557600080fd5b5061538e6158ca565b8335615399816159fd565b81526020848101359082015260408401356153b3816159fd565b80604083015250606084013560608201526080840135608082015260a0840135600481106153e057600080fd5b60a08201529460c0939093013593505050565b6000610140828403121561540657600080fd5b61347b8383614f11565b60008082840361020081121561542557600080fd5b61542f8585614f11565b925060c061013f198201121561544457600080fd5b5061544d6158ca565b6101408401358152610160840135602082015261018084013560408201526101a084013560608201526101c084013560808201526101e084013561549081615a12565b60a0820152919491935090915050565b6000602082840312156154b257600080fd5b5035919050565b6000602082840312156154cb57600080fd5b5051919050565b600080604083850312156154e557600080fd5b823591506020830135614fef81615a12565b6000806040838503121561550a57600080fd5b50508035926020909101359150565b6000806000806080858703121561552f57600080fd5b8435935060208501359250604085013561554881615a12565b9150606085013561555881615a12565b939692955090935050565b80516001600160a01b031682526020810151602083015260408101516040830152606081015160608301526080810151608083015260a08101516155ab60a084018215159052565b5060c0818101519083015260e08082015190830152610100808201519083015261012080820151908301526101408082015190830152610160808201519083015261018090810151910152565b6001600160a01b03929092168252602082015260400190565b6001600160a01b0387811682526020820187905285166040820152606081018490526080810183905260c081016004831061565c57634e487b7160e01b600052602160045260246000fd5b8260a0830152979650505050505050565b6020808252825182820181905260009190848201906040850190845b818110156156ae5783516001600160a01b031683529284019291840191600101615689565b50909695505050505050565b60a08101818360005b60058110156156eb5781516001600160a01b03168352602092830192909101906001016156c3565b50505092915050565b6020808252825182820181905260009190848201906040850190845b818110156156ae57615723838551615563565b928401926101a09290920191600101615710565b60a0818101908383376000815292915050565b60a08101818360005b60058110156156eb578151835260209283019290910190600101615753565b6020808252825182820181905260009190848201906040850190845b818110156156ae5783518352928401929184019160010161578e565b9182526001600160a01b0316602082015260400190565b6101a081016157d08284615563565b92915050565b86516001600160a01b031681526101e081016020880151602083015260408801516040830152606088015160608301526080880151608083015260a088015160a083015260c088015161582d60c084018215159052565b5060e08881015190830152610100808901519083015261012097880151978201979097526101408101959095526101608501939093526101808401919091526101a08301526101c09091015290565b604051610140810167ffffffffffffffff811182821017156158a0576158a06159e7565b60405290565b6040516101a0810167ffffffffffffffff811182821017156158a0576158a06159e7565b60405160c0810167ffffffffffffffff811182821017156158a0576158a06159e7565b600082198211156159005761590061598f565b500190565b60008261592257634e487b7160e01b600052601260045260246000fd5b500490565b60008160001904831182151516156159415761594161598f565b500290565b6000828210156159585761595861598f565b500390565b60008161596c5761596c61598f565b506000190190565b60006000198214156159885761598861598f565b5060010190565b634e487b7160e01b600052601160045260246000fd5b634e487b7160e01b600052602160045260246000fd5b634e487b7160e01b600052603160045260246000fd5b634e487b7160e01b600052603260045260246000fd5b634e487b7160e01b600052604160045260246000fd5b6001600160a01b03811681146132fb57600080fd5b80151581146132fb57600080fdfe8cf3e35f6221b16e1670a3413180c9484bf5aa71787905909fa82a6a2662e9ab943e9d45a11aaae5d87503e3bc248665d9807856e5cf2bdb4a988bee444227819f2df0fed2c77648de5860a4cc508cd0818c85b8b8a1ab4ceeef8d981c8956a6a26469706673582212205b049bbbce3bd07b7c414dbd6806d10b1869a3368c09f69bf84098f1a8b1663964736f6c63430008070033",
  "devdoc": {
    "kind": "dev",
    "methods": {},
    "version": 1
  },
  "userdoc": {
    "kind": "user",
    "methods": {},
    "version": 1
  },
  "storageLayout": {
    "storage": [
      {
        "astId": 222,
        "contract": "contracts/contract5/GFarmTradingStorageV5.sol:GFarmTradingStorageV5",
        "label": "WETH",
        "offset": 0,
        "slot": "0",
        "type": "t_contract(TokenInterfaceV5)70"
      },
      {
        "astId": 231,
        "contract": "contracts/contract5/GFarmTradingStorageV5.sol:GFarmTradingStorageV5",
        "label": "priceAggregator",
        "offset": 0,
        "slot": "1",
        "type": "t_contract(AggregatorInterfaceV5)164"
      },
      {
        "astId": 234,
        "contract": "contracts/contract5/GFarmTradingStorageV5.sol:GFarmTradingStorageV5",
        "label": "pool",
        "offset": 0,
        "slot": "2",
        "type": "t_contract(PoolInterfaceV5)171"
      },
      {
        "astId": 237,
        "contract": "contracts/contract5/GFarmTradingStorageV5.sol:GFarmTradingStorageV5",
        "label": "trading",
        "offset": 0,
        "slot": "3",
        "type": "t_contract(PausableInterfaceV5)212"
      },
      {
        "astId": 240,
        "contract": "contracts/contract5/GFarmTradingStorageV5.sol:GFarmTradingStorageV5",
        "label": "callbacks",
        "offset": 0,
        "slot": "4",
        "type": "t_contract(PausableInterfaceV5)212"
      },
      {
        "astId": 246,
        "contract": "contracts/contract5/GFarmTradingStorageV5.sol:GFarmTradingStorageV5",
        "label": "token",
        "offset": 0,
        "slot": "5",
        "type": "t_contract(TokenInterfaceV5)70"
      },
      {
        "astId": 267,
        "contract": "contracts/contract5/GFarmTradingStorageV5.sol:GFarmTradingStorageV5",
        "label": "nfts",
        "offset": 0,
        "slot": "6",
        "type": "t_array(t_contract(NftInterfaceV5)205)5_storage"
      },
      {
        "astId": 269,
        "contract": "contracts/contract5/GFarmTradingStorageV5.sol:GFarmTradingStorageV5",
        "label": "vault",
        "offset": 0,
        "slot": "11",
        "type": "t_address"
      },
      {
        "astId": 271,
        "contract": "contracts/contract5/GFarmTradingStorageV5.sol:GFarmTradingStorageV5",
        "label": "tokenWETHRouter",
        "offset": 0,
        "slot": "12",
        "type": "t_address"
      },
      {
        "astId": 274,
        "contract": "contracts/contract5/GFarmTradingStorageV5.sol:GFarmTradingStorageV5",
        "label": "maxTradesPerPair",
        "offset": 0,
        "slot": "13",
        "type": "t_uint256"
      },
      {
        "astId": 277,
        "contract": "contracts/contract5/GFarmTradingStorageV5.sol:GFarmTradingStorageV5",
        "label": "maxTradesPerBlock",
        "offset": 0,
        "slot": "14",
        "type": "t_uint256"
      },
      {
        "astId": 280,
        "contract": "contracts/contract5/GFarmTradingStorageV5.sol:GFarmTradingStorageV5",
        "label": "maxPendingMarketOrders",
        "offset": 0,
        "slot": "15",
        "type": "t_uint256"
      },
      {
        "astId": 283,
        "contract": "contracts/contract5/GFarmTradingStorageV5.sol:GFarmTradingStorageV5",
        "label": "maxGainP",
        "offset": 0,
        "slot": "16",
        "type": "t_uint256"
      },
      {
        "astId": 286,
        "contract": "contracts/contract5/GFarmTradingStorageV5.sol:GFarmTradingStorageV5",
        "label": "maxSlP",
        "offset": 0,
        "slot": "17",
        "type": "t_uint256"
      },
      {
        "astId": 289,
        "contract": "contracts/contract5/GFarmTradingStorageV5.sol:GFarmTradingStorageV5",
        "label": "defaultLeverageUnlocked",
        "offset": 0,
        "slot": "18",
        "type": "t_uint256"
      },
      {
        "astId": 292,
        "contract": "contracts/contract5/GFarmTradingStorageV5.sol:GFarmTradingStorageV5",
        "label": "nftSuccessTimelock",
        "offset": 0,
        "slot": "19",
        "type": "t_uint256"
      },
      {
        "astId": 302,
        "contract": "contracts/contract5/GFarmTradingStorageV5.sol:GFarmTradingStorageV5",
        "label": "spreadReductionsP",
        "offset": 0,
        "slot": "20",
        "type": "t_array(t_uint256)5_storage"
      },
      {
        "astId": 305,
        "contract": "contracts/contract5/GFarmTradingStorageV5.sol:GFarmTradingStorageV5",
        "label": "gov",
        "offset": 0,
        "slot": "25",
        "type": "t_address"
      },
      {
        "astId": 308,
        "contract": "contracts/contract5/GFarmTradingStorageV5.sol:GFarmTradingStorageV5",
        "label": "dev",
        "offset": 0,
        "slot": "26",
        "type": "t_address"
      },
      {
        "astId": 310,
        "contract": "contracts/contract5/GFarmTradingStorageV5.sol:GFarmTradingStorageV5",
        "label": "devFeesToken",
        "offset": 0,
        "slot": "27",
        "type": "t_uint256"
      },
      {
        "astId": 312,
        "contract": "contracts/contract5/GFarmTradingStorageV5.sol:GFarmTradingStorageV5",
        "label": "devFeesWETH",
        "offset": 0,
        "slot": "28",
        "type": "t_uint256"
      },
      {
        "astId": 314,
        "contract": "contracts/contract5/GFarmTradingStorageV5.sol:GFarmTradingStorageV5",
        "label": "govFeesToken",
        "offset": 0,
        "slot": "29",
        "type": "t_uint256"
      },
      {
        "astId": 316,
        "contract": "contracts/contract5/GFarmTradingStorageV5.sol:GFarmTradingStorageV5",
        "label": "govFeesWETH",
        "offset": 0,
        "slot": "30",
        "type": "t_uint256"
      },
      {
        "astId": 318,
        "contract": "contracts/contract5/GFarmTradingStorageV5.sol:GFarmTradingStorageV5",
        "label": "tokensBurned",
        "offset": 0,
        "slot": "31",
        "type": "t_uint256"
      },
      {
        "astId": 320,
        "contract": "contracts/contract5/GFarmTradingStorageV5.sol:GFarmTradingStorageV5",
        "label": "tokensMinted",
        "offset": 0,
        "slot": "32",
        "type": "t_uint256"
      },
      {
        "astId": 322,
        "contract": "contracts/contract5/GFarmTradingStorageV5.sol:GFarmTradingStorageV5",
        "label": "nftRewards",
        "offset": 0,
        "slot": "33",
        "type": "t_uint256"
      },
      {
        "astId": 426,
        "contract": "contracts/contract5/GFarmTradingStorageV5.sol:GFarmTradingStorageV5",
        "label": "supportedTokens",
        "offset": 0,
        "slot": "34",
        "type": "t_array(t_address)dyn_storage"
      },
      {
        "astId": 431,
        "contract": "contracts/contract5/GFarmTradingStorageV5.sol:GFarmTradingStorageV5",
        "label": "traders",
        "offset": 0,
        "slot": "35",
        "type": "t_mapping(t_address,t_struct(Trader)334_storage)"
      },
      {
        "astId": 440,
        "contract": "contracts/contract5/GFarmTradingStorageV5.sol:GFarmTradingStorageV5",
        "label": "openTrades",
        "offset": 0,
        "slot": "36",
        "type": "t_mapping(t_address,t_mapping(t_uint256,t_mapping(t_uint256,t_struct(Trade)355_storage)))"
      },
      {
        "astId": 449,
        "contract": "contracts/contract5/GFarmTradingStorageV5.sol:GFarmTradingStorageV5",
        "label": "openTradesInfo",
        "offset": 0,
        "slot": "37",
        "type": "t_mapping(t_address,t_mapping(t_uint256,t_mapping(t_uint256,t_struct(TradeInfo)368_storage)))"
      },
      {
        "astId": 455,
        "contract": "contracts/contract5/GFarmTradingStorageV5.sol:GFarmTradingStorageV5",
        "label": "openTradesCount",
        "offset": 0,
        "slot": "38",
        "type": "t_mapping(t_address,t_mapping(t_uint256,t_uint256))"
      },
      {
        "astId": 463,
        "contract": "contracts/contract5/GFarmTradingStorageV5.sol:GFarmTradingStorageV5",
        "label": "openLimitOrderIds",
        "offset": 0,
        "slot": "39",
        "type": "t_mapping(t_address,t_mapping(t_uint256,t_mapping(t_uint256,t_uint256)))"
      },
      {
        "astId": 469,
        "contract": "contracts/contract5/GFarmTradingStorageV5.sol:GFarmTradingStorageV5",
        "label": "openLimitOrdersCount",
        "offset": 0,
        "slot": "40",
        "type": "t_mapping(t_address,t_mapping(t_uint256,t_uint256))"
      },
      {
        "astId": 473,
        "contract": "contracts/contract5/GFarmTradingStorageV5.sol:GFarmTradingStorageV5",
        "label": "openLimitOrders",
        "offset": 0,
        "slot": "41",
        "type": "t_array(t_struct(OpenLimitOrder)395_storage)dyn_storage"
      },
      {
        "astId": 478,
        "contract": "contracts/contract5/GFarmTradingStorageV5.sol:GFarmTradingStorageV5",
        "label": "reqID_pendingMarketOrder",
        "offset": 0,
        "slot": "42",
        "type": "t_mapping(t_uint256,t_struct(PendingMarketOrder)409_storage)"
      },
      {
        "astId": 483,
        "contract": "contracts/contract5/GFarmTradingStorageV5.sol:GFarmTradingStorageV5",
        "label": "reqID_pendingNftOrder",
        "offset": 0,
        "slot": "43",
        "type": "t_mapping(t_uint256,t_struct(PendingNftOrder)423_storage)"
      },
      {
        "astId": 488,
        "contract": "contracts/contract5/GFarmTradingStorageV5.sol:GFarmTradingStorageV5",
        "label": "pendingOrderIds",
        "offset": 0,
        "slot": "44",
        "type": "t_mapping(t_address,t_array(t_uint256)dyn_storage)"
      },
      {
        "astId": 494,
        "contract": "contracts/contract5/GFarmTradingStorageV5.sol:GFarmTradingStorageV5",
        "label": "pendingMarketOpenCount",
        "offset": 0,
        "slot": "45",
        "type": "t_mapping(t_address,t_mapping(t_uint256,t_uint256))"
      },
      {
        "astId": 500,
        "contract": "contracts/contract5/GFarmTradingStorageV5.sol:GFarmTradingStorageV5",
        "label": "pendingMarketCloseCount",
        "offset": 0,
        "slot": "46",
        "type": "t_mapping(t_address,t_mapping(t_uint256,t_uint256))"
      },
      {
        "astId": 505,
        "contract": "contracts/contract5/GFarmTradingStorageV5.sol:GFarmTradingStorageV5",
        "label": "pairTraders",
        "offset": 0,
        "slot": "47",
        "type": "t_mapping(t_uint256,t_array(t_address)dyn_storage)"
      },
      {
        "astId": 511,
        "contract": "contracts/contract5/GFarmTradingStorageV5.sol:GFarmTradingStorageV5",
        "label": "pairTradersId",
        "offset": 0,
        "slot": "48",
        "type": "t_mapping(t_address,t_mapping(t_uint256,t_uint256))"
      },
      {
        "astId": 517,
        "contract": "contracts/contract5/GFarmTradingStorageV5.sol:GFarmTradingStorageV5",
        "label": "openInterestWETH",
        "offset": 0,
        "slot": "49",
        "type": "t_mapping(t_uint256,t_array(t_uint256)3_storage)"
      },
      {
        "astId": 521,
        "contract": "contracts/contract5/GFarmTradingStorageV5.sol:GFarmTradingStorageV5",
        "label": "tradesPerBlock",
        "offset": 0,
        "slot": "50",
        "type": "t_mapping(t_uint256,t_uint256)"
      },
      {
        "astId": 525,
        "contract": "contracts/contract5/GFarmTradingStorageV5.sol:GFarmTradingStorageV5",
        "label": "nftLastSuccess",
        "offset": 0,
        "slot": "51",
        "type": "t_mapping(t_uint256,t_uint256)"
      },
      {
        "astId": 529,
        "contract": "contracts/contract5/GFarmTradingStorageV5.sol:GFarmTradingStorageV5",
        "label": "isTradingContract",
        "offset": 0,
        "slot": "52",
        "type": "t_mapping(t_address,t_bool)"
      }
    ],
    "types": {
      "t_address": {
        "encoding": "inplace",
        "label": "address",
        "numberOfBytes": "20"
      },
      "t_array(t_address)dyn_storage": {
        "base": "t_address",
        "encoding": "dynamic_array",
        "label": "address[]",
        "numberOfBytes": "32"
      },
      "t_array(t_contract(NftInterfaceV5)205)5_storage": {
        "base": "t_contract(NftInterfaceV5)205",
        "encoding": "inplace",
        "label": "contract NftInterfaceV5[5]",
        "numberOfBytes": "160"
      },
      "t_array(t_struct(OpenLimitOrder)395_storage)dyn_storage": {
        "base": "t_struct(OpenLimitOrder)395_storage",
        "encoding": "dynamic_array",
        "label": "struct GFarmTradingStorageV5.OpenLimitOrder[]",
        "numberOfBytes": "32"
      },
      "t_array(t_uint256)3_storage": {
        "base": "t_uint256",
        "encoding": "inplace",
        "label": "uint256[3]",
        "numberOfBytes": "96"
      },
      "t_array(t_uint256)5_storage": {
        "base": "t_uint256",
        "encoding": "inplace",
        "label": "uint256[5]",
        "numberOfBytes": "160"
      },
      "t_array(t_uint256)dyn_storage": {
        "base": "t_uint256",
        "encoding": "dynamic_array",
        "label": "uint256[]",
        "numberOfBytes": "32"
      },
      "t_bool": {
        "encoding": "inplace",
        "label": "bool",
        "numberOfBytes": "1"
      },
      "t_contract(AggregatorInterfaceV5)164": {
        "encoding": "inplace",
        "label": "contract AggregatorInterfaceV5",
        "numberOfBytes": "20"
      },
      "t_contract(NftInterfaceV5)205": {
        "encoding": "inplace",
        "label": "contract NftInterfaceV5",
        "numberOfBytes": "20"
      },
      "t_contract(PausableInterfaceV5)212": {
        "encoding": "inplace",
        "label": "contract PausableInterfaceV5",
        "numberOfBytes": "20"
      },
      "t_contract(PoolInterfaceV5)171": {
        "encoding": "inplace",
        "label": "contract PoolInterfaceV5",
        "numberOfBytes": "20"
      },
      "t_contract(TokenInterfaceV5)70": {
        "encoding": "inplace",
        "label": "contract TokenInterfaceV5",
        "numberOfBytes": "20"
      },
      "t_enum(LimitOrder)327": {
        "encoding": "inplace",
        "label": "enum GFarmTradingStorageV5.LimitOrder",
        "numberOfBytes": "1"
      },
      "t_mapping(t_address,t_array(t_uint256)dyn_storage)": {
        "encoding": "mapping",
        "key": "t_address",
        "label": "mapping(address => uint256[])",
        "numberOfBytes": "32",
        "value": "t_array(t_uint256)dyn_storage"
      },
      "t_mapping(t_address,t_bool)": {
        "encoding": "mapping",
        "key": "t_address",
        "label": "mapping(address => bool)",
        "numberOfBytes": "32",
        "value": "t_bool"
      },
      "t_mapping(t_address,t_mapping(t_uint256,t_mapping(t_uint256,t_struct(Trade)355_storage)))": {
        "encoding": "mapping",
        "key": "t_address",
        "label": "mapping(address => mapping(uint256 => mapping(uint256 => struct GFarmTradingStorageV5.Trade)))",
        "numberOfBytes": "32",
        "value": "t_mapping(t_uint256,t_mapping(t_uint256,t_struct(Trade)355_storage))"
      },
      "t_mapping(t_address,t_mapping(t_uint256,t_mapping(t_uint256,t_struct(TradeInfo)368_storage)))": {
        "encoding": "mapping",
        "key": "t_address",
        "label": "mapping(address => mapping(uint256 => mapping(uint256 => struct GFarmTradingStorageV5.TradeInfo)))",
        "numberOfBytes": "32",
        "value": "t_mapping(t_uint256,t_mapping(t_uint256,t_struct(TradeInfo)368_storage))"
      },
      "t_mapping(t_address,t_mapping(t_uint256,t_mapping(t_uint256,t_uint256)))": {
        "encoding": "mapping",
        "key": "t_address",
        "label": "mapping(address => mapping(uint256 => mapping(uint256 => uint256)))",
        "numberOfBytes": "32",
        "value": "t_mapping(t_uint256,t_mapping(t_uint256,t_uint256))"
      },
      "t_mapping(t_address,t_mapping(t_uint256,t_uint256))": {
        "encoding": "mapping",
        "key": "t_address",
        "label": "mapping(address => mapping(uint256 => uint256))",
        "numberOfBytes": "32",
        "value": "t_mapping(t_uint256,t_uint256)"
      },
      "t_mapping(t_address,t_struct(Trader)334_storage)": {
        "encoding": "mapping",
        "key": "t_address",
        "label": "mapping(address => struct GFarmTradingStorageV5.Trader)",
        "numberOfBytes": "32",
        "value": "t_struct(Trader)334_storage"
      },
      "t_mapping(t_uint256,t_array(t_address)dyn_storage)": {
        "encoding": "mapping",
        "key": "t_uint256",
        "label": "mapping(uint256 => address[])",
        "numberOfBytes": "32",
        "value": "t_array(t_address)dyn_storage"
      },
      "t_mapping(t_uint256,t_array(t_uint256)3_storage)": {
        "encoding": "mapping",
        "key": "t_uint256",
        "label": "mapping(uint256 => uint256[3])",
        "numberOfBytes": "32",
        "value": "t_array(t_uint256)3_storage"
      },
      "t_mapping(t_uint256,t_mapping(t_uint256,t_struct(Trade)355_storage))": {
        "encoding": "mapping",
        "key": "t_uint256",
        "label": "mapping(uint256 => mapping(uint256 => struct GFarmTradingStorageV5.Trade))",
        "numberOfBytes": "32",
        "value": "t_mapping(t_uint256,t_struct(Trade)355_storage)"
      },
      "t_mapping(t_uint256,t_mapping(t_uint256,t_struct(TradeInfo)368_storage))": {
        "encoding": "mapping",
        "key": "t_uint256",
        "label": "mapping(uint256 => mapping(uint256 => struct GFarmTradingStorageV5.TradeInfo))",
        "numberOfBytes": "32",
        "value": "t_mapping(t_uint256,t_struct(TradeInfo)368_storage)"
      },
      "t_mapping(t_uint256,t_mapping(t_uint256,t_uint256))": {
        "encoding": "mapping",
        "key": "t_uint256",
        "label": "mapping(uint256 => mapping(uint256 => uint256))",
        "numberOfBytes": "32",
        "value": "t_mapping(t_uint256,t_uint256)"
      },
      "t_mapping(t_uint256,t_struct(PendingMarketOrder)409_storage)": {
        "encoding": "mapping",
        "key": "t_uint256",
        "label": "mapping(uint256 => struct GFarmTradingStorageV5.PendingMarketOrder)",
        "numberOfBytes": "32",
        "value": "t_struct(PendingMarketOrder)409_storage"
      },
      "t_mapping(t_uint256,t_struct(PendingNftOrder)423_storage)": {
        "encoding": "mapping",
        "key": "t_uint256",
        "label": "mapping(uint256 => struct GFarmTradingStorageV5.PendingNftOrder)",
        "numberOfBytes": "32",
        "value": "t_struct(PendingNftOrder)423_storage"
      },
      "t_mapping(t_uint256,t_struct(Trade)355_storage)": {
        "encoding": "mapping",
        "key": "t_uint256",
        "label": "mapping(uint256 => struct GFarmTradingStorageV5.Trade)",
        "numberOfBytes": "32",
        "value": "t_struct(Trade)355_storage"
      },
      "t_mapping(t_uint256,t_struct(TradeInfo)368_storage)": {
        "encoding": "mapping",
        "key": "t_uint256",
        "label": "mapping(uint256 => struct GFarmTradingStorageV5.TradeInfo)",
        "numberOfBytes": "32",
        "value": "t_struct(TradeInfo)368_storage"
      },
      "t_mapping(t_uint256,t_uint256)": {
        "encoding": "mapping",
        "key": "t_uint256",
        "label": "mapping(uint256 => uint256)",
        "numberOfBytes": "32",
        "value": "t_uint256"
      },
      "t_struct(OpenLimitOrder)395_storage": {
        "encoding": "inplace",
        "label": "struct GFarmTradingStorageV5.OpenLimitOrder",
        "members": [
          {
            "astId": 370,
            "contract": "contracts/contract5/GFarmTradingStorageV5.sol:GFarmTradingStorageV5",
            "label": "trader",
            "offset": 0,
            "slot": "0",
            "type": "t_address"
          },
          {
            "astId": 372,
            "contract": "contracts/contract5/GFarmTradingStorageV5.sol:GFarmTradingStorageV5",
            "label": "pairIndex",
            "offset": 0,
            "slot": "1",
            "type": "t_uint256"
          },
          {
            "astId": 374,
            "contract": "contracts/contract5/GFarmTradingStorageV5.sol:GFarmTradingStorageV5",
            "label": "index",
            "offset": 0,
            "slot": "2",
            "type": "t_uint256"
          },
          {
            "astId": 376,
            "contract": "contracts/contract5/GFarmTradingStorageV5.sol:GFarmTradingStorageV5",
            "label": "positionSize",
            "offset": 0,
            "slot": "3",
            "type": "t_uint256"
          },
          {
            "astId": 378,
            "contract": "contracts/contract5/GFarmTradingStorageV5.sol:GFarmTradingStorageV5",
            "label": "spreadReductionP",
            "offset": 0,
            "slot": "4",
            "type": "t_uint256"
          },
          {
            "astId": 380,
            "contract": "contracts/contract5/GFarmTradingStorageV5.sol:GFarmTradingStorageV5",
            "label": "buy",
            "offset": 0,
            "slot": "5",
            "type": "t_bool"
          },
          {
            "astId": 382,
            "contract": "contracts/contract5/GFarmTradingStorageV5.sol:GFarmTradingStorageV5",
            "label": "leverage",
            "offset": 0,
            "slot": "6",
            "type": "t_uint256"
          },
          {
            "astId": 384,
            "contract": "contracts/contract5/GFarmTradingStorageV5.sol:GFarmTradingStorageV5",
            "label": "tp",
            "offset": 0,
            "slot": "7",
            "type": "t_uint256"
          },
          {
            "astId": 386,
            "contract": "contracts/contract5/GFarmTradingStorageV5.sol:GFarmTradingStorageV5",
            "label": "sl",
            "offset": 0,
            "slot": "8",
            "type": "t_uint256"
          },
          {
            "astId": 388,
            "contract": "contracts/contract5/GFarmTradingStorageV5.sol:GFarmTradingStorageV5",
            "label": "minPrice",
            "offset": 0,
            "slot": "9",
            "type": "t_uint256"
          },
          {
            "astId": 390,
            "contract": "contracts/contract5/GFarmTradingStorageV5.sol:GFarmTradingStorageV5",
            "label": "maxPrice",
            "offset": 0,
            "slot": "10",
            "type": "t_uint256"
          },
          {
            "astId": 392,
            "contract": "contracts/contract5/GFarmTradingStorageV5.sol:GFarmTradingStorageV5",
            "label": "block",
            "offset": 0,
            "slot": "11",
            "type": "t_uint256"
          },
          {
            "astId": 394,
            "contract": "contracts/contract5/GFarmTradingStorageV5.sol:GFarmTradingStorageV5",
            "label": "tokenId",
            "offset": 0,
            "slot": "12",
            "type": "t_uint256"
          }
        ],
        "numberOfBytes": "416"
      },
      "t_struct(PendingMarketOrder)409_storage": {
        "encoding": "inplace",
        "label": "struct GFarmTradingStorageV5.PendingMarketOrder",
        "members": [
          {
            "astId": 398,
            "contract": "contracts/contract5/GFarmTradingStorageV5.sol:GFarmTradingStorageV5",
            "label": "trade",
            "offset": 0,
            "slot": "0",
            "type": "t_struct(Trade)355_storage"
          },
          {
            "astId": 400,
            "contract": "contracts/contract5/GFarmTradingStorageV5.sol:GFarmTradingStorageV5",
            "label": "block",
            "offset": 0,
            "slot": "10",
            "type": "t_uint256"
          },
          {
            "astId": 402,
            "contract": "contracts/contract5/GFarmTradingStorageV5.sol:GFarmTradingStorageV5",
            "label": "wantedPrice",
            "offset": 0,
            "slot": "11",
            "type": "t_uint256"
          },
          {
            "astId": 404,
            "contract": "contracts/contract5/GFarmTradingStorageV5.sol:GFarmTradingStorageV5",
            "label": "slippageP",
            "offset": 0,
            "slot": "12",
            "type": "t_uint256"
          },
          {
            "astId": 406,
            "contract": "contracts/contract5/GFarmTradingStorageV5.sol:GFarmTradingStorageV5",
            "label": "spreadReductionP",
            "offset": 0,
            "slot": "13",
            "type": "t_uint256"
          },
          {
            "astId": 408,
            "contract": "contracts/contract5/GFarmTradingStorageV5.sol:GFarmTradingStorageV5",
            "label": "tokenId",
            "offset": 0,
            "slot": "14",
            "type": "t_uint256"
          }
        ],
        "numberOfBytes": "480"
      },
      "t_struct(PendingNftOrder)423_storage": {
        "encoding": "inplace",
        "label": "struct GFarmTradingStorageV5.PendingNftOrder",
        "members": [
          {
            "astId": 411,
            "contract": "contracts/contract5/GFarmTradingStorageV5.sol:GFarmTradingStorageV5",
            "label": "nftHolder",
            "offset": 0,
            "slot": "0",
            "type": "t_address"
          },
          {
            "astId": 413,
            "contract": "contracts/contract5/GFarmTradingStorageV5.sol:GFarmTradingStorageV5",
            "label": "nftId",
            "offset": 0,
            "slot": "1",
            "type": "t_uint256"
          },
          {
            "astId": 415,
            "contract": "contracts/contract5/GFarmTradingStorageV5.sol:GFarmTradingStorageV5",
            "label": "trader",
            "offset": 0,
            "slot": "2",
            "type": "t_address"
          },
          {
            "astId": 417,
            "contract": "contracts/contract5/GFarmTradingStorageV5.sol:GFarmTradingStorageV5",
            "label": "pairIndex",
            "offset": 0,
            "slot": "3",
            "type": "t_uint256"
          },
          {
            "astId": 419,
            "contract": "contracts/contract5/GFarmTradingStorageV5.sol:GFarmTradingStorageV5",
            "label": "index",
            "offset": 0,
            "slot": "4",
            "type": "t_uint256"
          },
          {
            "astId": 422,
            "contract": "contracts/contract5/GFarmTradingStorageV5.sol:GFarmTradingStorageV5",
            "label": "orderType",
            "offset": 0,
            "slot": "5",
            "type": "t_enum(LimitOrder)327"
          }
        ],
        "numberOfBytes": "192"
      },
      "t_struct(Trade)355_storage": {
        "encoding": "inplace",
        "label": "struct GFarmTradingStorageV5.Trade",
        "members": [
          {
            "astId": 336,
            "contract": "contracts/contract5/GFarmTradingStorageV5.sol:GFarmTradingStorageV5",
            "label": "trader",
            "offset": 0,
            "slot": "0",
            "type": "t_address"
          },
          {
            "astId": 338,
            "contract": "contracts/contract5/GFarmTradingStorageV5.sol:GFarmTradingStorageV5",
            "label": "pairIndex",
            "offset": 0,
            "slot": "1",
            "type": "t_uint256"
          },
          {
            "astId": 340,
            "contract": "contracts/contract5/GFarmTradingStorageV5.sol:GFarmTradingStorageV5",
            "label": "index",
            "offset": 0,
            "slot": "2",
            "type": "t_uint256"
          },
          {
            "astId": 342,
            "contract": "contracts/contract5/GFarmTradingStorageV5.sol:GFarmTradingStorageV5",
            "label": "initialPosToken",
            "offset": 0,
            "slot": "3",
            "type": "t_uint256"
          },
          {
            "astId": 344,
            "contract": "contracts/contract5/GFarmTradingStorageV5.sol:GFarmTradingStorageV5",
            "label": "positionSizeWETH",
            "offset": 0,
            "slot": "4",
            "type": "t_uint256"
          },
          {
            "astId": 346,
            "contract": "contracts/contract5/GFarmTradingStorageV5.sol:GFarmTradingStorageV5",
            "label": "openPrice",
            "offset": 0,
            "slot": "5",
            "type": "t_uint256"
          },
          {
            "astId": 348,
            "contract": "contracts/contract5/GFarmTradingStorageV5.sol:GFarmTradingStorageV5",
            "label": "buy",
            "offset": 0,
            "slot": "6",
            "type": "t_bool"
          },
          {
            "astId": 350,
            "contract": "contracts/contract5/GFarmTradingStorageV5.sol:GFarmTradingStorageV5",
            "label": "leverage",
            "offset": 0,
            "slot": "7",
            "type": "t_uint256"
          },
          {
            "astId": 352,
            "contract": "contracts/contract5/GFarmTradingStorageV5.sol:GFarmTradingStorageV5",
            "label": "tp",
            "offset": 0,
            "slot": "8",
            "type": "t_uint256"
          },
          {
            "astId": 354,
            "contract": "contracts/contract5/GFarmTradingStorageV5.sol:GFarmTradingStorageV5",
            "label": "sl",
            "offset": 0,
            "slot": "9",
            "type": "t_uint256"
          }
        ],
        "numberOfBytes": "320"
      },
      "t_struct(TradeInfo)368_storage": {
        "encoding": "inplace",
        "label": "struct GFarmTradingStorageV5.TradeInfo",
        "members": [
          {
            "astId": 357,
            "contract": "contracts/contract5/GFarmTradingStorageV5.sol:GFarmTradingStorageV5",
            "label": "tokenId",
            "offset": 0,
            "slot": "0",
            "type": "t_uint256"
          },
          {
            "astId": 359,
            "contract": "contracts/contract5/GFarmTradingStorageV5.sol:GFarmTradingStorageV5",
            "label": "tokenPriceWETH",
            "offset": 0,
            "slot": "1",
            "type": "t_uint256"
          },
          {
            "astId": 361,
            "contract": "contracts/contract5/GFarmTradingStorageV5.sol:GFarmTradingStorageV5",
            "label": "openInterestWETH",
            "offset": 0,
            "slot": "2",
            "type": "t_uint256"
          },
          {
            "astId": 363,
            "contract": "contracts/contract5/GFarmTradingStorageV5.sol:GFarmTradingStorageV5",
            "label": "tpLastUpdated",
            "offset": 0,
            "slot": "3",
            "type": "t_uint256"
          },
          {
            "astId": 365,
            "contract": "contracts/contract5/GFarmTradingStorageV5.sol:GFarmTradingStorageV5",
            "label": "slLastUpdated",
            "offset": 0,
            "slot": "4",
            "type": "t_uint256"
          },
          {
            "astId": 367,
            "contract": "contracts/contract5/GFarmTradingStorageV5.sol:GFarmTradingStorageV5",
            "label": "beingMarketClosed",
            "offset": 0,
            "slot": "5",
            "type": "t_bool"
          }
        ],
        "numberOfBytes": "192"
      },
      "t_struct(Trader)334_storage": {
        "encoding": "inplace",
        "label": "struct GFarmTradingStorageV5.Trader",
        "members": [
          {
            "astId": 329,
            "contract": "contracts/contract5/GFarmTradingStorageV5.sol:GFarmTradingStorageV5",
            "label": "leverageUnlocked",
            "offset": 0,
            "slot": "0",
            "type": "t_uint256"
          },
          {
            "astId": 331,
            "contract": "contracts/contract5/GFarmTradingStorageV5.sol:GFarmTradingStorageV5",
            "label": "referral",
            "offset": 0,
            "slot": "1",
            "type": "t_address"
          },
          {
            "astId": 333,
            "contract": "contracts/contract5/GFarmTradingStorageV5.sol:GFarmTradingStorageV5",
            "label": "referralRewardsTotal",
            "offset": 0,
            "slot": "2",
            "type": "t_uint256"
          }
        ],
        "numberOfBytes": "96"
      },
      "t_uint256": {
        "encoding": "inplace",
        "label": "uint256",
        "numberOfBytes": "32"
      }
    }
  }
}