{
  "address": "0xF904b46741Fb83AF3431fcFb65424a37f8d1C525",
  "abi": [
    {
      "inputs": [
        {
          "internalType": "address",
          "name": "_WETH",
          "type": "address"
        },
        {
          "internalType": "address",
          "name": "_gov",
          "type": "address"
        },
        {
          "internalType": "address",
          "name": "_dev",
          "type": "address"
        }
      ],
      "stateMutability": "nonpayable",
      "type": "constructor"
    },
    {
      "anonymous": false,
      "inputs": [
        {
          "indexed": false,
          "internalType": "string",
          "name": "name",
          "type": "string"
        },
        {
          "indexed": false,
          "internalType": "address",
          "name": "a",
          "type": "address"
        }
      ],
      "name": "AddressUpdated",
      "type": "event"
    },
    {
      "anonymous": false,
      "inputs": [
        {
          "indexed": false,
          "internalType": "contract NftInterfaceV5[5]",
          "name": "nfts",
          "type": "address[5]"
        }
      ],
      "name": "NftsUpdated",
      "type": "event"
    },
    {
      "anonymous": false,
      "inputs": [
        {
          "indexed": false,
          "internalType": "string",
          "name": "name",
          "type": "string"
        },
        {
          "indexed": false,
          "internalType": "uint256",
          "name": "value",
          "type": "uint256"
        }
      ],
      "name": "NumberUpdated",
      "type": "event"
    },
    {
      "anonymous": false,
      "inputs": [
        {
          "indexed": false,
          "internalType": "string",
          "name": "name",
          "type": "string"
        },
        {
          "indexed": false,
          "internalType": "uint256",
          "name": "pairIndex",
          "type": "uint256"
        },
        {
          "indexed": false,
          "internalType": "uint256",
          "name": "value",
          "type": "uint256"
        }
      ],
      "name": "NumberUpdatedPair",
      "type": "event"
    },
    {
      "anonymous": false,
      "inputs": [
        {
          "indexed": false,
          "internalType": "uint256[5]",
          "name": "",
          "type": "uint256[5]"
        }
      ],
      "name": "SpreadReductionsUpdated",
      "type": "event"
    },
    {
      "anonymous": false,
      "inputs": [
        {
          "indexed": false,
          "internalType": "address",
          "name": "a",
          "type": "address"
        }
      ],
      "name": "SupportedTokenAdded",
      "type": "event"
    },
    {
      "anonymous": false,
      "inputs": [
        {
          "indexed": false,
          "internalType": "address",
          "name": "a",
          "type": "address"
        }
      ],
      "name": "TradingContractAdded",
      "type": "event"
    },
    {
      "anonymous": false,
      "inputs": [
        {
          "indexed": false,
          "internalType": "address",
          "name": "a",
          "type": "address"
        }
      ],
      "name": "TradingContractRemoved",
      "type": "event"
    },
    {
      "inputs": [],
      "name": "MINTER_ROLE",
      "outputs": [
        {
          "internalType": "bytes32",
          "name": "",
          "type": "bytes32"
        }
      ],
      "stateMutability": "view",
      "type": "function"
    },
    {
      "inputs": [],
      "name": "PRECISION",
      "outputs": [
        {
          "internalType": "uint256",
          "name": "",
          "type": "uint256"
        }
      ],
      "stateMutability": "view",
      "type": "function"
    },
    {
      "inputs": [],
      "name": "WETH",
      "outputs": [
        {
          "internalType": "contract TokenInterface",
          "name": "",
          "type": "address"
        }
      ],
      "stateMutability": "view",
      "type": "function"
    },
    {
      "inputs": [
        {
          "internalType": "address",
          "name": "_token",
          "type": "address"
        }
      ],
      "name": "addSupportedToken",
      "outputs": [],
      "stateMutability": "nonpayable",
      "type": "function"
    },
    {
      "inputs": [
        {
          "internalType": "address",
          "name": "_trading",
          "type": "address"
        }
      ],
      "name": "addTradingContract",
      "outputs": [],
      "stateMutability": "nonpayable",
      "type": "function"
    },
    {
      "inputs": [],
      "name": "callbacks",
      "outputs": [
        {
          "internalType": "contract PausableInterfaceV5",
          "name": "",
          "type": "address"
        }
      ],
      "stateMutability": "view",
      "type": "function"
    },
    {
      "inputs": [],
      "name": "claimFees",
      "outputs": [],
      "stateMutability": "nonpayable",
      "type": "function"
    },
    {
      "inputs": [],
      "name": "defaultLeverageUnlocked",
      "outputs": [
        {
          "internalType": "uint256",
          "name": "",
          "type": "uint256"
        }
      ],
      "stateMutability": "view",
      "type": "function"
    },
    {
      "inputs": [],
      "name": "dev",
      "outputs": [
        {
          "internalType": "address",
          "name": "",
          "type": "address"
        }
      ],
      "stateMutability": "view",
      "type": "function"
    },
    {
      "inputs": [],
      "name": "devFeesToken",
      "outputs": [
        {
          "internalType": "uint256",
          "name": "",
          "type": "uint256"
        }
      ],
      "stateMutability": "view",
      "type": "function"
    },
    {
      "inputs": [],
      "name": "devFeesWETH",
      "outputs": [
        {
          "internalType": "uint256",
          "name": "",
          "type": "uint256"
        }
      ],
      "stateMutability": "view",
      "type": "function"
    },
    {
      "inputs": [
        {
          "internalType": "uint256",
          "name": "_amount",
          "type": "uint256"
        }
      ],
      "name": "distributeLpRewards",
      "outputs": [],
      "stateMutability": "nonpayable",
      "type": "function"
    },
    {
      "inputs": [
        {
          "internalType": "address",
          "name": "trader",
          "type": "address"
        },
        {
          "internalType": "uint256",
          "name": "pairIndex",
          "type": "uint256"
        }
      ],
      "name": "firstEmptyOpenLimitIndex",
      "outputs": [
        {
          "internalType": "uint256",
          "name": "index",
          "type": "uint256"
        }
      ],
      "stateMutability": "view",
      "type": "function"
    },
    {
      "inputs": [
        {
          "internalType": "address",
          "name": "trader",
          "type": "address"
        },
        {
          "internalType": "uint256",
          "name": "pairIndex",
          "type": "uint256"
        }
      ],
      "name": "firstEmptyTradeIndex",
      "outputs": [
        {
          "internalType": "uint256",
          "name": "index",
          "type": "uint256"
        }
      ],
      "stateMutability": "view",
      "type": "function"
    },
    {
      "inputs": [],
      "name": "getGov",
      "outputs": [
        {
          "internalType": "address",
          "name": "_gov",
          "type": "address"
        }
      ],
      "stateMutability": "view",
      "type": "function"
    },
    {
      "inputs": [
        {
          "internalType": "address",
          "name": "_trader",
          "type": "address"
        }
      ],
      "name": "getLeverageUnlocked",
      "outputs": [
        {
          "internalType": "uint256",
          "name": "",
          "type": "uint256"
        }
      ],
      "stateMutability": "view",
      "type": "function"
    },
    {
      "inputs": [
        {
          "internalType": "address",
          "name": "_trader",
          "type": "address"
        },
        {
          "internalType": "uint256",
          "name": "_pairIndex",
          "type": "uint256"
        },
        {
          "internalType": "uint256",
          "name": "_index",
          "type": "uint256"
        }
      ],
      "name": "getOpenLimitOrder",
      "outputs": [
        {
          "components": [
            {
              "internalType": "address",
              "name": "trader",
              "type": "address"
            },
            {
              "internalType": "uint256",
              "name": "pairIndex",
              "type": "uint256"
            },
            {
              "internalType": "uint256",
              "name": "index",
              "type": "uint256"
            },
            {
              "internalType": "uint256",
              "name": "positionSize",
              "type": "uint256"
            },
            {
              "internalType": "uint256",
              "name": "spreadReductionP",
              "type": "uint256"
            },
            {
              "internalType": "bool",
              "name": "buy",
              "type": "bool"
            },
            {
              "internalType": "uint256",
              "name": "leverage",
              "type": "uint256"
            },
            {
              "internalType": "uint256",
              "name": "tp",
              "type": "uint256"
            },
            {
              "internalType": "uint256",
              "name": "sl",
              "type": "uint256"
            },
            {
              "internalType": "uint256",
              "name": "minPrice",
              "type": "uint256"
            },
            {
              "internalType": "uint256",
              "name": "maxPrice",
              "type": "uint256"
            },
            {
              "internalType": "uint256",
              "name": "block",
              "type": "uint256"
            },
            {
              "internalType": "uint256",
              "name": "tokenId",
              "type": "uint256"
            }
          ],
          "internalType": "struct Storage.OpenLimitOrder",
          "name": "",
          "type": "tuple"
        }
      ],
      "stateMutability": "view",
      "type": "function"
    },
    {
      "inputs": [],
      "name": "getOpenLimitOrders",
      "outputs": [
        {
          "components": [
            {
              "internalType": "address",
              "name": "trader",
              "type": "address"
            },
            {
              "internalType": "uint256",
              "name": "pairIndex",
              "type": "uint256"
            },
            {
              "internalType": "uint256",
              "name": "index",
              "type": "uint256"
            },
            {
              "internalType": "uint256",
              "name": "positionSize",
              "type": "uint256"
            },
            {
              "internalType": "uint256",
              "name": "spreadReductionP",
              "type": "uint256"
            },
            {
              "internalType": "bool",
              "name": "buy",
              "type": "bool"
            },
            {
              "internalType": "uint256",
              "name": "leverage",
              "type": "uint256"
            },
            {
              "internalType": "uint256",
              "name": "tp",
              "type": "uint256"
            },
            {
              "internalType": "uint256",
              "name": "sl",
              "type": "uint256"
            },
            {
              "internalType": "uint256",
              "name": "minPrice",
              "type": "uint256"
            },
            {
              "internalType": "uint256",
              "name": "maxPrice",
              "type": "uint256"
            },
            {
              "internalType": "uint256",
              "name": "block",
              "type": "uint256"
            },
            {
              "internalType": "uint256",
              "name": "tokenId",
              "type": "uint256"
            }
          ],
          "internalType": "struct Storage.OpenLimitOrder[]",
          "name": "",
          "type": "tuple[]"
        }
      ],
      "stateMutability": "view",
      "type": "function"
    },
    {
      "inputs": [
        {
          "internalType": "address",
          "name": "_trader",
          "type": "address"
        }
      ],
      "name": "getPendingOrderIds",
      "outputs": [
        {
          "internalType": "uint256[]",
          "name": "",
          "type": "uint256[]"
        }
      ],
      "stateMutability": "view",
      "type": "function"
    },
    {
      "inputs": [
        {
          "internalType": "address",
          "name": "_trader",
          "type": "address"
        }
      ],
      "name": "getReferral",
      "outputs": [
        {
          "internalType": "address",
          "name": "",
          "type": "address"
        }
      ],
      "stateMutability": "view",
      "type": "function"
    },
    {
      "inputs": [],
      "name": "getSpreadReductionsArray",
      "outputs": [
        {
          "internalType": "uint256[5]",
          "name": "",
          "type": "uint256[5]"
        }
      ],
      "stateMutability": "view",
      "type": "function"
    },
    {
      "inputs": [],
      "name": "getSupportedTokens",
      "outputs": [
        {
          "internalType": "address[]",
          "name": "",
          "type": "address[]"
        }
      ],
      "stateMutability": "view",
      "type": "function"
    },
    {
      "inputs": [],
      "name": "gov",
      "outputs": [
        {
          "internalType": "address",
          "name": "",
          "type": "address"
        }
      ],
      "stateMutability": "view",
      "type": "function"
    },
    {
      "inputs": [],
      "name": "govFeesToken",
      "outputs": [
        {
          "internalType": "uint256",
          "name": "",
          "type": "uint256"
        }
      ],
      "stateMutability": "view",
      "type": "function"
    },
    {
      "inputs": [],
      "name": "govFeesWETH",
      "outputs": [
        {
          "internalType": "uint256",
          "name": "",
          "type": "uint256"
        }
      ],
      "stateMutability": "view",
      "type": "function"
    },
    {
      "inputs": [
        {
          "internalType": "uint256",
          "name": "_pairIndex",
          "type": "uint256"
        },
        {
          "internalType": "uint256",
          "name": "_leveragedPositionSize",
          "type": "uint256"
        },
        {
          "internalType": "bool",
          "name": "_WETH",
          "type": "bool"
        },
        {
          "internalType": "bool",
          "name": "_fullFee",
          "type": "bool"
        }
      ],
      "name": "handleDevGovFees",
      "outputs": [
        {
          "internalType": "uint256",
          "name": "fee",
          "type": "uint256"
        }
      ],
      "stateMutability": "nonpayable",
      "type": "function"
    },
    {
      "inputs": [
        {
          "internalType": "address",
          "name": "_a",
          "type": "address"
        },
        {
          "internalType": "uint256",
          "name": "_amount",
          "type": "uint256"
        },
        {
          "internalType": "bool",
          "name": "_mint",
          "type": "bool"
        }
      ],
      "name": "handleTokens",
      "outputs": [],
      "stateMutability": "nonpayable",
      "type": "function"
    },
    {
      "inputs": [
        {
          "internalType": "address",
          "name": "trader",
          "type": "address"
        },
        {
          "internalType": "uint256",
          "name": "pairIndex",
          "type": "uint256"
        },
        {
          "internalType": "uint256",
          "name": "index",
          "type": "uint256"
        }
      ],
      "name": "hasOpenLimitOrder",
      "outputs": [
        {
          "internalType": "bool",
          "name": "",
          "type": "bool"
        }
      ],
      "stateMutability": "view",
      "type": "function"
    },
    {
      "inputs": [
        {
          "internalType": "uint256",
          "name": "_nftId",
          "type": "uint256"
        },
        {
          "internalType": "uint256",
          "name": "_amount",
          "type": "uint256"
        }
      ],
      "name": "increaseNftRewards",
      "outputs": [],
      "stateMutability": "nonpayable",
      "type": "function"
    },
    {
      "inputs": [
        {
          "internalType": "address",
          "name": "_referral",
          "type": "address"
        },
        {
          "internalType": "uint256",
          "name": "_amount",
          "type": "uint256"
        }
      ],
      "name": "increaseReferralRewards",
      "outputs": [],
      "stateMutability": "nonpayable",
      "type": "function"
    },
    {
      "inputs": [
        {
          "internalType": "address",
          "name": "",
          "type": "address"
        }
      ],
      "name": "isTradingContract",
      "outputs": [
        {
          "internalType": "bool",
          "name": "",
          "type": "bool"
        }
      ],
      "stateMutability": "view",
      "type": "function"
    },
    {
      "inputs": [],
      "name": "linkErc677",
      "outputs": [
        {
          "internalType": "contract TokenInterface",
          "name": "",
          "type": "address"
        }
      ],
      "stateMutability": "view",
      "type": "function"
    },
    {
      "inputs": [],
      "name": "maxGainP",
      "outputs": [
        {
          "internalType": "uint256",
          "name": "",
          "type": "uint256"
        }
      ],
      "stateMutability": "view",
      "type": "function"
    },
    {
      "inputs": [],
      "name": "maxPendingMarketOrders",
      "outputs": [
        {
          "internalType": "uint256",
          "name": "",
          "type": "uint256"
        }
      ],
      "stateMutability": "view",
      "type": "function"
    },
    {
      "inputs": [],
      "name": "maxSlP",
      "outputs": [
        {
          "internalType": "uint256",
          "name": "",
          "type": "uint256"
        }
      ],
      "stateMutability": "view",
      "type": "function"
    },
    {
      "inputs": [],
      "name": "maxTradesPerBlock",
      "outputs": [
        {
          "internalType": "uint256",
          "name": "",
          "type": "uint256"
        }
      ],
      "stateMutability": "view",
      "type": "function"
    },
    {
      "inputs": [],
      "name": "maxTradesPerPair",
      "outputs": [
        {
          "internalType": "uint256",
          "name": "",
          "type": "uint256"
        }
      ],
      "stateMutability": "view",
      "type": "function"
    },
    {
      "inputs": [
        {
          "internalType": "uint256",
          "name": "",
          "type": "uint256"
        }
      ],
      "name": "nftLastSuccess",
      "outputs": [
        {
          "internalType": "uint256",
          "name": "",
          "type": "uint256"
        }
      ],
      "stateMutability": "view",
      "type": "function"
    },
    {
      "inputs": [],
      "name": "nftRewards",
      "outputs": [
        {
          "internalType": "uint256",
          "name": "",
          "type": "uint256"
        }
      ],
      "stateMutability": "view",
      "type": "function"
    },
    {
      "inputs": [],
      "name": "nftSuccessTimelock",
      "outputs": [
        {
          "internalType": "uint256",
          "name": "",
          "type": "uint256"
        }
      ],
      "stateMutability": "view",
      "type": "function"
    },
    {
      "inputs": [
        {
          "internalType": "uint256",
          "name": "",
          "type": "uint256"
        }
      ],
      "name": "nfts",
      "outputs": [
        {
          "internalType": "contract NftInterfaceV5",
          "name": "",
          "type": "address"
        }
      ],
      "stateMutability": "view",
      "type": "function"
    },
    {
      "inputs": [
        {
          "internalType": "uint256",
          "name": "",
          "type": "uint256"
        },
        {
          "internalType": "uint256",
          "name": "",
          "type": "uint256"
        }
      ],
      "name": "openInterestWETH",
      "outputs": [
        {
          "internalType": "uint256",
          "name": "",
          "type": "uint256"
        }
      ],
      "stateMutability": "view",
      "type": "function"
    },
    {
      "inputs": [
        {
          "internalType": "address",
          "name": "",
          "type": "address"
        },
        {
          "internalType": "uint256",
          "name": "",
          "type": "uint256"
        },
        {
          "internalType": "uint256",
          "name": "",
          "type": "uint256"
        }
      ],
      "name": "openLimitOrderIds",
      "outputs": [
        {
          "internalType": "uint256",
          "name": "",
          "type": "uint256"
        }
      ],
      "stateMutability": "view",
      "type": "function"
    },
    {
      "inputs": [
        {
          "internalType": "uint256",
          "name": "",
          "type": "uint256"
        }
      ],
      "name": "openLimitOrders",
      "outputs": [
        {
          "internalType": "address",
          "name": "trader",
          "type": "address"
        },
        {
          "internalType": "uint256",
          "name": "pairIndex",
          "type": "uint256"
        },
        {
          "internalType": "uint256",
          "name": "index",
          "type": "uint256"
        },
        {
          "internalType": "uint256",
          "name": "positionSize",
          "type": "uint256"
        },
        {
          "internalType": "uint256",
          "name": "spreadReductionP",
          "type": "uint256"
        },
        {
          "internalType": "bool",
          "name": "buy",
          "type": "bool"
        },
        {
          "internalType": "uint256",
          "name": "leverage",
          "type": "uint256"
        },
        {
          "internalType": "uint256",
          "name": "tp",
          "type": "uint256"
        },
        {
          "internalType": "uint256",
          "name": "sl",
          "type": "uint256"
        },
        {
          "internalType": "uint256",
          "name": "minPrice",
          "type": "uint256"
        },
        {
          "internalType": "uint256",
          "name": "maxPrice",
          "type": "uint256"
        },
        {
          "internalType": "uint256",
          "name": "block",
          "type": "uint256"
        },
        {
          "internalType": "uint256",
          "name": "tokenId",
          "type": "uint256"
        }
      ],
      "stateMutability": "view",
      "type": "function"
    },
    {
      "inputs": [
        {
          "internalType": "address",
          "name": "",
          "type": "address"
        },
        {
          "internalType": "uint256",
          "name": "",
          "type": "uint256"
        }
      ],
      "name": "openLimitOrdersCount",
      "outputs": [
        {
          "internalType": "uint256",
          "name": "",
          "type": "uint256"
        }
      ],
      "stateMutability": "view",
      "type": "function"
    },
    {
      "inputs": [
        {
          "internalType": "address",
          "name": "",
          "type": "address"
        },
        {
          "internalType": "uint256",
          "name": "",
          "type": "uint256"
        },
        {
          "internalType": "uint256",
          "name": "",
          "type": "uint256"
        }
      ],
      "name": "openTrades",
      "outputs": [
        {
          "internalType": "address",
          "name": "trader",
          "type": "address"
        },
        {
          "internalType": "uint256",
          "name": "pairIndex",
          "type": "uint256"
        },
        {
          "internalType": "uint256",
          "name": "index",
          "type": "uint256"
        },
        {
          "internalType": "uint256",
          "name": "initialPosToken",
          "type": "uint256"
        },
        {
          "internalType": "uint256",
          "name": "positionSizeWETH",
          "type": "uint256"
        },
        {
          "internalType": "uint256",
          "name": "openPrice",
          "type": "uint256"
        },
        {
          "internalType": "bool",
          "name": "buy",
          "type": "bool"
        },
        {
          "internalType": "uint256",
          "name": "leverage",
          "type": "uint256"
        },
        {
          "internalType": "uint256",
          "name": "tp",
          "type": "uint256"
        },
        {
          "internalType": "uint256",
          "name": "sl",
          "type": "uint256"
        }
      ],
      "stateMutability": "view",
      "type": "function"
    },
    {
      "inputs": [
        {
          "internalType": "address",
          "name": "",
          "type": "address"
        },
        {
          "internalType": "uint256",
          "name": "",
          "type": "uint256"
        }
      ],
      "name": "openTradesCount",
      "outputs": [
        {
          "internalType": "uint256",
          "name": "",
          "type": "uint256"
        }
      ],
      "stateMutability": "view",
      "type": "function"
    },
    {
      "inputs": [
        {
          "internalType": "address",
          "name": "",
          "type": "address"
        },
        {
          "internalType": "uint256",
          "name": "",
          "type": "uint256"
        },
        {
          "internalType": "uint256",
          "name": "",
          "type": "uint256"
        }
      ],
      "name": "openTradesInfo",
      "outputs": [
        {
          "internalType": "uint256",
          "name": "tokenId",
          "type": "uint256"
        },
        {
          "internalType": "uint256",
          "name": "tokenPriceWETH",
          "type": "uint256"
        },
        {
          "internalType": "uint256",
          "name": "openInterestWETH",
          "type": "uint256"
        },
        {
          "internalType": "uint256",
          "name": "tpLastUpdated",
          "type": "uint256"
        },
        {
          "internalType": "uint256",
          "name": "slLastUpdated",
          "type": "uint256"
        },
        {
          "internalType": "bool",
          "name": "beingMarketClosed",
          "type": "bool"
        }
      ],
      "stateMutability": "view",
      "type": "function"
    },
    {
      "inputs": [
        {
          "internalType": "uint256",
          "name": "",
          "type": "uint256"
        },
        {
          "internalType": "uint256",
          "name": "",
          "type": "uint256"
        }
      ],
      "name": "pairTraders",
      "outputs": [
        {
          "internalType": "address",
          "name": "",
          "type": "address"
        }
      ],
      "stateMutability": "view",
      "type": "function"
    },
    {
      "inputs": [
        {
          "internalType": "uint256",
          "name": "_pairIndex",
          "type": "uint256"
        }
      ],
      "name": "pairTradersArray",
      "outputs": [
        {
          "internalType": "address[]",
          "name": "",
          "type": "address[]"
        }
      ],
      "stateMutability": "view",
      "type": "function"
    },
    {
      "inputs": [
        {
          "internalType": "address",
          "name": "",
          "type": "address"
        },
        {
          "internalType": "uint256",
          "name": "",
          "type": "uint256"
        }
      ],
      "name": "pairTradersId",
      "outputs": [
        {
          "internalType": "uint256",
          "name": "",
          "type": "uint256"
        }
      ],
      "stateMutability": "view",
      "type": "function"
    },
    {
      "inputs": [
        {
          "internalType": "address",
          "name": "",
          "type": "address"
        },
        {
          "internalType": "uint256",
          "name": "",
          "type": "uint256"
        }
      ],
      "name": "pendingMarketCloseCount",
      "outputs": [
        {
          "internalType": "uint256",
          "name": "",
          "type": "uint256"
        }
      ],
      "stateMutability": "view",
      "type": "function"
    },
    {
      "inputs": [
        {
          "internalType": "address",
          "name": "",
          "type": "address"
        },
        {
          "internalType": "uint256",
          "name": "",
          "type": "uint256"
        }
      ],
      "name": "pendingMarketOpenCount",
      "outputs": [
        {
          "internalType": "uint256",
          "name": "",
          "type": "uint256"
        }
      ],
      "stateMutability": "view",
      "type": "function"
    },
    {
      "inputs": [
        {
          "internalType": "address",
          "name": "",
          "type": "address"
        },
        {
          "internalType": "uint256",
          "name": "",
          "type": "uint256"
        }
      ],
      "name": "pendingOrderIds",
      "outputs": [
        {
          "internalType": "uint256",
          "name": "",
          "type": "uint256"
        }
      ],
      "stateMutability": "view",
      "type": "function"
    },
    {
      "inputs": [
        {
          "internalType": "address",
          "name": "_trader",
          "type": "address"
        }
      ],
      "name": "pendingOrderIdsCount",
      "outputs": [
        {
          "internalType": "uint256",
          "name": "",
          "type": "uint256"
        }
      ],
      "stateMutability": "view",
      "type": "function"
    },
    {
      "inputs": [],
      "name": "pool",
      "outputs": [
        {
          "internalType": "contract PoolInterfaceV5",
          "name": "",
          "type": "address"
        }
      ],
      "stateMutability": "view",
      "type": "function"
    },
    {
      "inputs": [],
      "name": "priceAggregator",
      "outputs": [
        {
          "internalType": "contract AggregatorInterfaceV1",
          "name": "",
          "type": "address"
        }
      ],
      "stateMutability": "view",
      "type": "function"
    },
    {
      "inputs": [
        {
          "internalType": "address",
          "name": "_trading",
          "type": "address"
        }
      ],
      "name": "removeTradingContract",
      "outputs": [],
      "stateMutability": "nonpayable",
      "type": "function"
    },
    {
      "inputs": [
        {
          "internalType": "uint256",
          "name": "",
          "type": "uint256"
        }
      ],
      "name": "reqID_pendingMarketOrder",
      "outputs": [
        {
          "components": [
            {
              "internalType": "address",
              "name": "trader",
              "type": "address"
            },
            {
              "internalType": "uint256",
              "name": "pairIndex",
              "type": "uint256"
            },
            {
              "internalType": "uint256",
              "name": "index",
              "type": "uint256"
            },
            {
              "internalType": "uint256",
              "name": "initialPosToken",
              "type": "uint256"
            },
            {
              "internalType": "uint256",
              "name": "positionSizeWETH",
              "type": "uint256"
            },
            {
              "internalType": "uint256",
              "name": "openPrice",
              "type": "uint256"
            },
            {
              "internalType": "bool",
              "name": "buy",
              "type": "bool"
            },
            {
              "internalType": "uint256",
              "name": "leverage",
              "type": "uint256"
            },
            {
              "internalType": "uint256",
              "name": "tp",
              "type": "uint256"
            },
            {
              "internalType": "uint256",
              "name": "sl",
              "type": "uint256"
            }
          ],
          "internalType": "struct Storage.Trade",
          "name": "trade",
          "type": "tuple"
        },
        {
          "internalType": "uint256",
          "name": "block",
          "type": "uint256"
        },
        {
          "internalType": "uint256",
          "name": "wantedPrice",
          "type": "uint256"
        },
        {
          "internalType": "uint256",
          "name": "slippageP",
          "type": "uint256"
        },
        {
          "internalType": "uint256",
          "name": "spreadReductionP",
          "type": "uint256"
        },
        {
          "internalType": "uint256",
          "name": "tokenId",
          "type": "uint256"
        }
      ],
      "stateMutability": "view",
      "type": "function"
    },
    {
      "inputs": [
        {
          "internalType": "uint256",
          "name": "",
          "type": "uint256"
        }
      ],
      "name": "reqID_pendingNftOrder",
      "outputs": [
        {
          "internalType": "address",
          "name": "nftHolder",
          "type": "address"
        },
        {
          "internalType": "uint256",
          "name": "nftId",
          "type": "uint256"
        },
        {
          "internalType": "address",
          "name": "trader",
          "type": "address"
        },
        {
          "internalType": "uint256",
          "name": "pairIndex",
          "type": "uint256"
        },
        {
          "internalType": "uint256",
          "name": "index",
          "type": "uint256"
        },
        {
          "internalType": "enum Storage.LimitOrder",
          "name": "orderType",
          "type": "uint8"
        }
      ],
      "stateMutability": "view",
      "type": "function"
    },
    {
      "inputs": [
        {
          "internalType": "address",
          "name": "_callbacks",
          "type": "address"
        }
      ],
      "name": "setCallbacks",
      "outputs": [],
      "stateMutability": "nonpayable",
      "type": "function"
    },
    {
      "inputs": [
        {
          "internalType": "uint256",
          "name": "_lev",
          "type": "uint256"
        }
      ],
      "name": "setDefaultLeverageUnlocked",
      "outputs": [],
      "stateMutability": "nonpayable",
      "type": "function"
    },
    {
      "inputs": [
        {
          "internalType": "address",
          "name": "_dev",
          "type": "address"
        }
      ],
      "name": "setDev",
      "outputs": [],
      "stateMutability": "nonpayable",
      "type": "function"
    },
    {
      "inputs": [
        {
          "internalType": "address",
          "name": "_gov",
          "type": "address"
        }
      ],
      "name": "setGov",
      "outputs": [],
      "stateMutability": "nonpayable",
      "type": "function"
    },
    {
      "inputs": [
        {
          "internalType": "address",
          "name": "_trader",
          "type": "address"
        },
        {
          "internalType": "uint256",
          "name": "_newLeverage",
          "type": "uint256"
        }
      ],
      "name": "setLeverageUnlocked",
      "outputs": [],
      "stateMutability": "nonpayable",
      "type": "function"
    },
    {
      "inputs": [
        {
          "internalType": "uint256",
          "name": "_max",
          "type": "uint256"
        }
      ],
      "name": "setMaxGainP",
      "outputs": [],
      "stateMutability": "nonpayable",
      "type": "function"
    },
    {
      "inputs": [
        {
          "internalType": "uint256",
          "name": "_pairIndex",
          "type": "uint256"
        },
        {
          "internalType": "uint256",
          "name": "_newMaxOpenInterest",
          "type": "uint256"
        }
      ],
      "name": "setMaxOpenInterestWETH",
      "outputs": [],
      "stateMutability": "nonpayable",
      "type": "function"
    },
    {
      "inputs": [
        {
          "internalType": "uint256",
          "name": "_maxPendingMarketOrders",
          "type": "uint256"
        }
      ],
      "name": "setMaxPendingMarketOrders",
      "outputs": [],
      "stateMutability": "nonpayable",
      "type": "function"
    },
    {
      "inputs": [
        {
          "internalType": "uint256",
          "name": "_max",
          "type": "uint256"
        }
      ],
      "name": "setMaxSlP",
      "outputs": [],
      "stateMutability": "nonpayable",
      "type": "function"
    },
    {
      "inputs": [
        {
          "internalType": "uint256",
          "name": "_maxTradesPerBlock",
          "type": "uint256"
        }
      ],
      "name": "setMaxTradesPerBlock",
      "outputs": [],
      "stateMutability": "nonpayable",
      "type": "function"
    },
    {
      "inputs": [
        {
          "internalType": "uint256",
          "name": "_maxTradesPerPair",
          "type": "uint256"
        }
      ],
      "name": "setMaxTradesPerPair",
      "outputs": [],
      "stateMutability": "nonpayable",
      "type": "function"
    },
    {
      "inputs": [
        {
          "internalType": "uint256",
          "name": "_blocks",
          "type": "uint256"
        }
      ],
      "name": "setNftSuccessTimelock",
      "outputs": [],
      "stateMutability": "nonpayable",
      "type": "function"
    },
    {
      "inputs": [
        {
          "internalType": "address",
          "name": "_pool",
          "type": "address"
        }
      ],
      "name": "setPool",
      "outputs": [],
      "stateMutability": "nonpayable",
      "type": "function"
    },
    {
      "inputs": [
        {
          "internalType": "address",
          "name": "_aggregator",
          "type": "address"
        }
      ],
      "name": "setPriceAggregator",
      "outputs": [],
      "stateMutability": "nonpayable",
      "type": "function"
    },
    {
      "inputs": [
        {
          "internalType": "uint256[5]",
          "name": "_r",
          "type": "uint256[5]"
        }
      ],
      "name": "setSpreadReductionsP",
      "outputs": [],
      "stateMutability": "nonpayable",
      "type": "function"
    },
    {
      "inputs": [
        {
          "internalType": "address",
          "name": "_tokenWETHRouter",
          "type": "address"
        }
      ],
      "name": "setTokenWETHRouter",
      "outputs": [],
      "stateMutability": "nonpayable",
      "type": "function"
    },
    {
      "inputs": [
        {
          "internalType": "address",
          "name": "_trading",
          "type": "address"
        }
      ],
      "name": "setTrading",
      "outputs": [],
      "stateMutability": "nonpayable",
      "type": "function"
    },
    {
      "inputs": [
        {
          "internalType": "address",
          "name": "_vault",
          "type": "address"
        }
      ],
      "name": "setVault",
      "outputs": [],
      "stateMutability": "nonpayable",
      "type": "function"
    },
    {
      "inputs": [
        {
          "internalType": "uint256",
          "name": "",
          "type": "uint256"
        }
      ],
      "name": "spreadReductionsP",
      "outputs": [
        {
          "internalType": "uint256",
          "name": "",
          "type": "uint256"
        }
      ],
      "stateMutability": "view",
      "type": "function"
    },
    {
      "inputs": [
        {
          "components": [
            {
              "internalType": "address",
              "name": "trader",
              "type": "address"
            },
            {
              "internalType": "uint256",
              "name": "pairIndex",
              "type": "uint256"
            },
            {
              "internalType": "uint256",
              "name": "index",
              "type": "uint256"
            },
            {
              "internalType": "uint256",
              "name": "positionSize",
              "type": "uint256"
            },
            {
              "internalType": "uint256",
              "name": "spreadReductionP",
              "type": "uint256"
            },
            {
              "internalType": "bool",
              "name": "buy",
              "type": "bool"
            },
            {
              "internalType": "uint256",
              "name": "leverage",
              "type": "uint256"
            },
            {
              "internalType": "uint256",
              "name": "tp",
              "type": "uint256"
            },
            {
              "internalType": "uint256",
              "name": "sl",
              "type": "uint256"
            },
            {
              "internalType": "uint256",
              "name": "minPrice",
              "type": "uint256"
            },
            {
              "internalType": "uint256",
              "name": "maxPrice",
              "type": "uint256"
            },
            {
              "internalType": "uint256",
              "name": "block",
              "type": "uint256"
            },
            {
              "internalType": "uint256",
              "name": "tokenId",
              "type": "uint256"
            }
          ],
          "internalType": "struct Storage.OpenLimitOrder",
          "name": "o",
          "type": "tuple"
        }
      ],
      "name": "storeOpenLimitOrder",
      "outputs": [],
      "stateMutability": "nonpayable",
      "type": "function"
    },
    {
      "inputs": [
        {
          "components": [
            {
              "components": [
                {
                  "internalType": "address",
                  "name": "trader",
                  "type": "address"
                },
                {
                  "internalType": "uint256",
                  "name": "pairIndex",
                  "type": "uint256"
                },
                {
                  "internalType": "uint256",
                  "name": "index",
                  "type": "uint256"
                },
                {
                  "internalType": "uint256",
                  "name": "initialPosToken",
                  "type": "uint256"
                },
                {
                  "internalType": "uint256",
                  "name": "positionSizeWETH",
                  "type": "uint256"
                },
                {
                  "internalType": "uint256",
                  "name": "openPrice",
                  "type": "uint256"
                },
                {
                  "internalType": "bool",
                  "name": "buy",
                  "type": "bool"
                },
                {
                  "internalType": "uint256",
                  "name": "leverage",
                  "type": "uint256"
                },
                {
                  "internalType": "uint256",
                  "name": "tp",
                  "type": "uint256"
                },
                {
                  "internalType": "uint256",
                  "name": "sl",
                  "type": "uint256"
                }
              ],
              "internalType": "struct Storage.Trade",
              "name": "trade",
              "type": "tuple"
            },
            {
              "internalType": "uint256",
              "name": "block",
              "type": "uint256"
            },
            {
              "internalType": "uint256",
              "name": "wantedPrice",
              "type": "uint256"
            },
            {
              "internalType": "uint256",
              "name": "slippageP",
              "type": "uint256"
            },
            {
              "internalType": "uint256",
              "name": "spreadReductionP",
              "type": "uint256"
            },
            {
              "internalType": "uint256",
              "name": "tokenId",
              "type": "uint256"
            }
          ],
          "internalType": "struct Storage.PendingMarketOrder",
          "name": "_order",
          "type": "tuple"
        },
        {
          "internalType": "uint256",
          "name": "_id",
          "type": "uint256"
        },
        {
          "internalType": "bool",
          "name": "_open",
          "type": "bool"
        }
      ],
      "name": "storePendingMarketOrder",
      "outputs": [],
      "stateMutability": "nonpayable",
      "type": "function"
    },
    {
      "inputs": [
        {
          "components": [
            {
              "internalType": "address",
              "name": "nftHolder",
              "type": "address"
            },
            {
              "internalType": "uint256",
              "name": "nftId",
              "type": "uint256"
            },
            {
              "internalType": "address",
              "name": "trader",
              "type": "address"
            },
            {
              "internalType": "uint256",
              "name": "pairIndex",
              "type": "uint256"
            },
            {
              "internalType": "uint256",
              "name": "index",
              "type": "uint256"
            },
            {
              "internalType": "enum Storage.LimitOrder",
              "name": "orderType",
              "type": "uint8"
            }
          ],
          "internalType": "struct Storage.PendingNftOrder",
          "name": "_nftOrder",
          "type": "tuple"
        },
        {
          "internalType": "uint256",
          "name": "_orderId",
          "type": "uint256"
        }
      ],
      "name": "storePendingNftOrder",
      "outputs": [],
      "stateMutability": "nonpayable",
      "type": "function"
    },
    {
      "inputs": [
        {
          "internalType": "address",
          "name": "_trader",
          "type": "address"
        },
        {
          "internalType": "address",
          "name": "_referral",
          "type": "address"
        }
      ],
      "name": "storeReferral",
      "outputs": [],
      "stateMutability": "nonpayable",
      "type": "function"
    },
    {
      "inputs": [
        {
          "components": [
            {
              "internalType": "address",
              "name": "trader",
              "type": "address"
            },
            {
              "internalType": "uint256",
              "name": "pairIndex",
              "type": "uint256"
            },
            {
              "internalType": "uint256",
              "name": "index",
              "type": "uint256"
            },
            {
              "internalType": "uint256",
              "name": "initialPosToken",
              "type": "uint256"
            },
            {
              "internalType": "uint256",
              "name": "positionSizeWETH",
              "type": "uint256"
            },
            {
              "internalType": "uint256",
              "name": "openPrice",
              "type": "uint256"
            },
            {
              "internalType": "bool",
              "name": "buy",
              "type": "bool"
            },
            {
              "internalType": "uint256",
              "name": "leverage",
              "type": "uint256"
            },
            {
              "internalType": "uint256",
              "name": "tp",
              "type": "uint256"
            },
            {
              "internalType": "uint256",
              "name": "sl",
              "type": "uint256"
            }
          ],
          "internalType": "struct Storage.Trade",
          "name": "_trade",
          "type": "tuple"
        },
        {
          "components": [
            {
              "internalType": "uint256",
              "name": "tokenId",
              "type": "uint256"
            },
            {
              "internalType": "uint256",
              "name": "tokenPriceWETH",
              "type": "uint256"
            },
            {
              "internalType": "uint256",
              "name": "openInterestWETH",
              "type": "uint256"
            },
            {
              "internalType": "uint256",
              "name": "tpLastUpdated",
              "type": "uint256"
            },
            {
              "internalType": "uint256",
              "name": "slLastUpdated",
              "type": "uint256"
            },
            {
              "internalType": "bool",
              "name": "beingMarketClosed",
              "type": "bool"
            }
          ],
          "internalType": "struct Storage.TradeInfo",
          "name": "_tradeInfo",
          "type": "tuple"
        }
      ],
      "name": "storeTrade",
      "outputs": [],
      "stateMutability": "nonpayable",
      "type": "function"
    },
    {
      "inputs": [
        {
          "internalType": "uint256",
          "name": "",
          "type": "uint256"
        }
      ],
      "name": "supportedTokens",
      "outputs": [
        {
          "internalType": "address",
          "name": "",
          "type": "address"
        }
      ],
      "stateMutability": "view",
      "type": "function"
    },
    {
      "inputs": [],
      "name": "token",
      "outputs": [
        {
          "internalType": "contract TokenInterface",
          "name": "",
          "type": "address"
        }
      ],
      "stateMutability": "view",
      "type": "function"
    },
    {
      "inputs": [],
      "name": "tokenWETHRouter",
      "outputs": [
        {
          "internalType": "address",
          "name": "",
          "type": "address"
        }
      ],
      "stateMutability": "view",
      "type": "function"
    },
    {
      "inputs": [],
      "name": "tokensBurned",
      "outputs": [
        {
          "internalType": "uint256",
          "name": "",
          "type": "uint256"
        }
      ],
      "stateMutability": "view",
      "type": "function"
    },
    {
      "inputs": [],
      "name": "tokensMinted",
      "outputs": [
        {
          "internalType": "uint256",
          "name": "",
          "type": "uint256"
        }
      ],
      "stateMutability": "view",
      "type": "function"
    },
    {
      "inputs": [
        {
          "internalType": "address",
          "name": "",
          "type": "address"
        }
      ],
      "name": "traders",
      "outputs": [
        {
          "internalType": "uint256",
          "name": "leverageUnlocked",
          "type": "uint256"
        },
        {
          "internalType": "address",
          "name": "referral",
          "type": "address"
        },
        {
          "internalType": "uint256",
          "name": "referralRewardsTotal",
          "type": "uint256"
        }
      ],
      "stateMutability": "view",
      "type": "function"
    },
    {
      "inputs": [
        {
          "internalType": "uint256",
          "name": "",
          "type": "uint256"
        }
      ],
      "name": "tradesPerBlock",
      "outputs": [
        {
          "internalType": "uint256",
          "name": "",
          "type": "uint256"
        }
      ],
      "stateMutability": "view",
      "type": "function"
    },
    {
      "inputs": [],
      "name": "trading",
      "outputs": [
        {
          "internalType": "contract PausableInterfaceV5",
          "name": "",
          "type": "address"
        }
      ],
      "stateMutability": "view",
      "type": "function"
    },
    {
      "inputs": [
        {
          "internalType": "address",
          "name": "_from",
          "type": "address"
        },
        {
          "internalType": "uint256",
          "name": "_pairIndex",
          "type": "uint256"
        },
        {
          "internalType": "uint256",
          "name": "_leveragedPosWETH",
          "type": "uint256"
        }
      ],
      "name": "transferLinkToAggregator",
      "outputs": [],
      "stateMutability": "nonpayable",
      "type": "function"
    },
    {
      "inputs": [
        {
          "internalType": "address",
          "name": "_from",
          "type": "address"
        },
        {
          "internalType": "address",
          "name": "_to",
          "type": "address"
        },
        {
          "internalType": "uint256",
          "name": "_amount",
          "type": "uint256"
        }
      ],
      "name": "transferWETH",
      "outputs": [],
      "stateMutability": "nonpayable",
      "type": "function"
    },
    {
      "inputs": [
        {
          "internalType": "address",
          "name": "_trader",
          "type": "address"
        },
        {
          "internalType": "uint256",
          "name": "_pairIndex",
          "type": "uint256"
        },
        {
          "internalType": "uint256",
          "name": "_index",
          "type": "uint256"
        }
      ],
      "name": "unregisterOpenLimitOrder",
      "outputs": [],
      "stateMutability": "nonpayable",
      "type": "function"
    },
    {
      "inputs": [
        {
          "internalType": "uint256",
          "name": "_id",
          "type": "uint256"
        },
        {
          "internalType": "bool",
          "name": "_open",
          "type": "bool"
        }
      ],
      "name": "unregisterPendingMarketOrder",
      "outputs": [],
      "stateMutability": "nonpayable",
      "type": "function"
    },
    {
      "inputs": [
        {
          "internalType": "uint256",
          "name": "_order",
          "type": "uint256"
        }
      ],
      "name": "unregisterPendingNftOrder",
      "outputs": [],
      "stateMutability": "nonpayable",
      "type": "function"
    },
    {
      "inputs": [
        {
          "internalType": "address",
          "name": "trader",
          "type": "address"
        },
        {
          "internalType": "uint256",
          "name": "pairIndex",
          "type": "uint256"
        },
        {
          "internalType": "uint256",
          "name": "index",
          "type": "uint256"
        }
      ],
      "name": "unregisterTrade",
      "outputs": [],
      "stateMutability": "nonpayable",
      "type": "function"
    },
    {
      "inputs": [
        {
          "internalType": "contract NftInterfaceV5[5]",
          "name": "_nfts",
          "type": "address[5]"
        }
      ],
      "name": "updateNfts",
      "outputs": [],
      "stateMutability": "nonpayable",
      "type": "function"
    },
    {
      "inputs": [
        {
          "components": [
            {
              "internalType": "address",
              "name": "trader",
              "type": "address"
            },
            {
              "internalType": "uint256",
              "name": "pairIndex",
              "type": "uint256"
            },
            {
              "internalType": "uint256",
              "name": "index",
              "type": "uint256"
            },
            {
              "internalType": "uint256",
              "name": "positionSize",
              "type": "uint256"
            },
            {
              "internalType": "uint256",
              "name": "spreadReductionP",
              "type": "uint256"
            },
            {
              "internalType": "bool",
              "name": "buy",
              "type": "bool"
            },
            {
              "internalType": "uint256",
              "name": "leverage",
              "type": "uint256"
            },
            {
              "internalType": "uint256",
              "name": "tp",
              "type": "uint256"
            },
            {
              "internalType": "uint256",
              "name": "sl",
              "type": "uint256"
            },
            {
              "internalType": "uint256",
              "name": "minPrice",
              "type": "uint256"
            },
            {
              "internalType": "uint256",
              "name": "maxPrice",
              "type": "uint256"
            },
            {
              "internalType": "uint256",
              "name": "block",
              "type": "uint256"
            },
            {
              "internalType": "uint256",
              "name": "tokenId",
              "type": "uint256"
            }
          ],
          "internalType": "struct Storage.OpenLimitOrder",
          "name": "_o",
          "type": "tuple"
        }
      ],
      "name": "updateOpenLimitOrder",
      "outputs": [],
      "stateMutability": "nonpayable",
      "type": "function"
    },
    {
      "inputs": [
        {
          "internalType": "address",
          "name": "_trader",
          "type": "address"
        },
        {
          "internalType": "uint256",
          "name": "_pairIndex",
          "type": "uint256"
        },
        {
          "internalType": "uint256",
          "name": "_index",
          "type": "uint256"
        },
        {
          "internalType": "uint256",
          "name": "_newSl",
          "type": "uint256"
        }
      ],
      "name": "updateSl",
      "outputs": [],
      "stateMutability": "nonpayable",
      "type": "function"
    },
    {
      "inputs": [
        {
          "internalType": "contract TokenInterface",
          "name": "_newToken",
          "type": "address"
        }
      ],
      "name": "updateToken",
      "outputs": [],
      "stateMutability": "nonpayable",
      "type": "function"
    },
    {
      "inputs": [
        {
          "internalType": "address",
          "name": "_trader",
          "type": "address"
        },
        {
          "internalType": "uint256",
          "name": "_pairIndex",
          "type": "uint256"
        },
        {
          "internalType": "uint256",
          "name": "_index",
          "type": "uint256"
        },
        {
          "internalType": "uint256",
          "name": "_newTp",
          "type": "uint256"
        }
      ],
      "name": "updateTp",
      "outputs": [],
      "stateMutability": "nonpayable",
      "type": "function"
    },
    {
      "inputs": [
        {
          "components": [
            {
              "internalType": "address",
              "name": "trader",
              "type": "address"
            },
            {
              "internalType": "uint256",
              "name": "pairIndex",
              "type": "uint256"
            },
            {
              "internalType": "uint256",
              "name": "index",
              "type": "uint256"
            },
            {
              "internalType": "uint256",
              "name": "initialPosToken",
              "type": "uint256"
            },
            {
              "internalType": "uint256",
              "name": "positionSizeWETH",
              "type": "uint256"
            },
            {
              "internalType": "uint256",
              "name": "openPrice",
              "type": "uint256"
            },
            {
              "internalType": "bool",
              "name": "buy",
              "type": "bool"
            },
            {
              "internalType": "uint256",
              "name": "leverage",
              "type": "uint256"
            },
            {
              "internalType": "uint256",
              "name": "tp",
              "type": "uint256"
            },
            {
              "internalType": "uint256",
              "name": "sl",
              "type": "uint256"
            }
          ],
          "internalType": "struct Storage.Trade",
          "name": "_t",
          "type": "tuple"
        }
      ],
      "name": "updateTrade",
      "outputs": [],
      "stateMutability": "nonpayable",
      "type": "function"
    },
    {
      "inputs": [],
      "name": "vault",
      "outputs": [
        {
          "internalType": "address",
          "name": "",
          "type": "address"
        }
      ],
      "stateMutability": "view",
      "type": "function"
    }
  ],
  "transactionHash": "0x89b3abf94d987341bb728dd2829a12986288d84ac18ceb82c00d4d0179df9d33",
  "args": [
    "0x93615a5d88cd9957bCe28e67cf290fE3954d4B49",
    "0xa667403454F483dE81A0363Af7FcEE563819D910",
    "0xa667403454F483dE81A0363Af7FcEE563819D910"
  ],
  "numDeployments": 1,
  "solcInputHash": "13b8a3ae39f24daa0a571174f6f84e79",
  "bytecode": "0x600580546001600160a01b031916737075cab6bcca06613e2d071bd918d1a0241379e217815561012060405273f9a4c522e327935bd1f5a338c121e14e4cc1f89860809081527377cd42b925e1a82f41d852d6be727cfc88fddbbc60a052733378ad81d09de23725ee9b9270635c97ed60192160c0527302e2c5825c1a3b69c0417706dbe1327c2af3e6c260e052732d266a94469d05c9e06d52a4d0d9c23b157767c261010052620000b591600691906200018b565b506003600d556005600e819055600f8181556103846010556050601155603260128190556013556040805160a081018252918252601460208301819052601991830191909152601e6060830152602360808301526200011792909190620001e8565b503480156200012557600080fd5b5060405162004fa938038062004fa9833981016040819052620001489162000252565b600080546001600160a01b039485166001600160a01b0319918216179091556019805493851693821693909317909255601a80549190931691161790556200029c565b8260058101928215620001d6579160200282015b82811115620001d657825182546001600160a01b0319166001600160a01b039091161782556020909201916001909101906200019f565b50620001e49291506200021e565b5090565b8260058101928215620001d6579160200282015b82811115620001d6578251829060ff16905591602001919060010190620001fc565b5b80821115620001e457600081556001016200021f565b80516001600160a01b03811681146200024d57600080fd5b919050565b6000806000606084860312156200026857600080fd5b620002738462000235565b9250620002836020850162000235565b9150620002936040850162000235565b90509250925092565b614cfd80620002ac6000396000f3fe608060405234801561001057600080fd5b50600436106105925760003560e01c806391cca3db116102e6578063cfbacc1411610193578063ec44acf2116100ef578063f823e2ae1161009d578063f823e2ae146110c2578063f8d24b48146110d5578063fbfa77cf146110de578063fc0c546a146110f1578063fdb5941314611104578063fe0fc8d61461110d578063fece4eac1461112057600080fd5b8063ec44acf21461101d578063ecf56a1f14611030578063eda00d5414611043578063ee92a4ff14611074578063f013d2781461107d578063f65d9dbe14611090578063f7b3c6fd1461109957600080fd5b8063d53913931161014c578063d539139314610f8e578063dc2123ff14610fb5578063dcdf339a14610fc8578063e212991a14610fdb578063e3cbe3a714610fee578063e3f04eba14611001578063e7873b581461101457600080fd5b8063cfbacc1414610f32578063d294f09314610f45578063d3b5fe7014610f4d578063d3c7c2c714610f60578063d477f05f14610f68578063d4bda90814610f7b57600080fd5b8063ad5c464811610242578063bcc9f1d3116101fb578063bcc9f1d314610eb7578063c122fea614610eca578063c311ab3114610ed3578063c625562614610ee6578063c76faf7814610ef9578063cab9458014610f0c578063cfad57a214610f1f57600080fd5b8063ad5c464814610d61578063b4b0f56714610d74578063b66e6b0514610d87578063b767608a14610e59578063b7682d5414610e6c578063b8878a2c14610e9757600080fd5b80639d1a10731161029f5780639d1a107314610c17578063a2ab2dee14610c2a578063a354418114610c3b578063a3a80ffe14610c4e578063a553906c14610d22578063aa3b7d7714610d35578063aaf5eb6814610d5557600080fd5b806391cca3db14610ae657806392a88fa214610af9578063959509e414610b5457806397e7995a14610b5d57806399794d3514610b885780639c8912f114610bec57600080fd5b806356a6796f1161044457806377a9fdcf116103a0578063878679e611610359578063878679e6146109f65780638a0bd70214610a095780638a238ae514610a1e5780638bbb644c14610a315780638bf7f5f914610a3a5780638c8ff1d514610a4d57806390d112b914610ad357600080fd5b806377a9fdcf14610998578063796d82d9146109ab5780637ad3def2146109b45780637fdb96f3146109c75780638049fde7146109da578063817fa1a4146109e357600080fd5b80636690a806116103fd5780636690a806146108e75780636817031b146108fa57806368ca199d1461090d5780636d69fcaf146109365780636d81d981146109495780636de9f32b1461097c5780637395d79e1461098557600080fd5b806356a6796f1461086d5780635a912551146108825780635ad9f9931461088b5780635b621e32146108945780635c76ac9e146108a75780635fbfe8cc146108c757600080fd5b8063292c1617116104f357806343b8fab5116104ac57806343b8fab5146107c35780634415b369146107d65780634437152a1461080157806344d44f5a146108145780635070e8371461082757806352e5398f1461083a5780635378143e1461085a57600080fd5b8063292c1617146106d35780632d1f941a146106e65780633078fff5146106ef57806332149592146107025780633b0f0f2f146107815780633dae10a0146107b057600080fd5b8063145ed21c11610550578063145ed21c1461062857806316f0115b1461063b5780631c8636b41461064e578063201d8bdb1461068757806321f7a30b1461069a578063265aa621146106ad57806328b1f887146106c057600080fd5b8062b127831461059757806306aef7de146105c7578063099fa934146105dc5780630eee3e4a146105ef57806312d43a511461060257806313b36ff614610615575b600080fd5b6004546105aa906001600160a01b031681565b6040516001600160a01b0390911681526020015b60405180910390f35b6105da6105d5366004614230565b61113b565b005b6105da6105ea3660046142b7565b6111ae565b6105da6105fd3660046142d0565b611216565b6019546105aa906001600160a01b031681565b6105da6106233660046142b7565b6112aa565b6105da610636366004614302565b611315565b6002546105aa906001600160a01b031681565b61067961065c36600461431f565b602660209081526000928352604080842090915290825290205481565b6040519081526020016105be565b6105da6106953660046142b7565b6113a5565b6105da6106a836600461431f565b61140d565b6105aa6106bb3660046142b7565b61145d565b6105da6106ce36600461431f565b61147d565b6106796106e136600461431f565b6114b5565b610679601c5481565b6001546105aa906001600160a01b031681565b6107156107103660046142b7565b611519565b604080516001600160a01b03909e168e5260208e019c909c529a8c019990995260608b019790975260808a019590955292151560a089015260c088019190915260e08701526101008601526101208501526101408401526101608301526101808201526101a0016105be565b6105aa61078f366004614302565b6001600160a01b039081166000908152602360205260409020600101541690565b6106796107be3660046142b7565b6115a0565b6105da6107d13660046142b7565b6115b7565b6106796107e436600461431f565b603060209081526000928352604080842090915290825290205481565b6105da61080f366004614302565b61162f565b61067961082236600461431f565b6116b4565b6105da610835366004614302565b6116eb565b6106796108483660046142b7565b60326020526000908152604090205481565b6105da610868366004614364565b61177b565b61087561189f565b6040516105be91906143a6565b61067960115481565b61067960215481565b6105da6108a2366004614302565b6118db565b6108ba6108b5366004614302565b611956565b6040516105be91906143d7565b6108da6108d53660046142b7565b6119c2565b6040516105be919061441b565b6105da6108f536600461445c565b611a2d565b6105da610908366004614302565b611b5a565b61067961091b366004614302565b6001600160a01b031660009081526023602052604090205490565b6105da610944366004614302565b611be0565b61096c610957366004614302565b60346020526000908152604090205460ff1681565b60405190151581526020016105be565b61067960205481565b6105da6109933660046142d0565b611c88565b6106796109a63660046142d0565b611cc7565b610679600e5481565b6105da6109c2366004614302565b611cec565b6105da6109d5366004614491565b611e92565b610679600f5481565b6105da6109f13660046144cc565b611f1b565b600c546105aa906001600160a01b031681565b610a11611fd3565b6040516105be91906145f1565b6105da610a2c366004614634565b6120c2565b61067960125481565b6105da610a483660046142b7565b612161565b610aa4610a5b36600461445c565b6025602090815260009384526040808520825292845282842090528252902080546001820154600283015460038401546004850154600590950154939492939192909160ff1686565b6040805196875260208701959095529385019290925260608401526080830152151560a082015260c0016105be565b6105da610ae136600461445c565b6121d3565b601a546105aa906001600160a01b031681565b610b31610b07366004614302565b60236020526000908152604090208054600182015460029092015490916001600160a01b03169083565b604080519384526001600160a01b039092166020840152908201526060016105be565b610679601e5481565b610679610b6b36600461431f565b602860209081526000928352604080842090915290825290205481565b610bda610b963660046142b7565b602b602052600090815260409020805460018201546002830154600384015460048501546005909501546001600160a01b0394851695939490921692909160ff1686565b6040516105be9695949392919061468b565b610679610bfa36600461431f565b602d60209081526000928352604080842090915290825290205481565b6105da610c253660046146e7565b6124db565b6019546001600160a01b03166105aa565b6105da610c49366004614491565b61258a565b610ccc610c5c36600461445c565b602460209081526000938452604080852082529284528284209052825290208054600182015460028301546003840154600485015460058601546006870154600788015460088901546009909901546001600160a01b03909816989697959694959394929360ff9092169290918a565b604080516001600160a01b03909b168b5260208b0199909952978901969096526060880194909452608087019290925260a0860152151560c085015260e0840152610100830152610120820152610140016105be565b6105da610d30366004614302565b612613565b610679610d433660046142b7565b60336020526000908152604090205481565b6106796402540be40081565b6000546105aa906001600160a01b031681565b6105da610d8236600461445c565b61269b565b610e47610d953660046142b7565b602a6020908152600091825260409182902082516101408101845281546001600160a01b031681526001820154928101929092526002810154928201929092526003820154606082015260048201546080820152600582015460a0820152600682015460ff16151560c0820152600782015460e082015260088201546101008201526009820154610120820152600a820154600b830154600c840154600d850154600e90950154939492939192909186565b6040516105be96959493929190614720565b6105da610e673660046147c6565b612994565b610679610e7a36600461431f565b602e60209081526000928352604080842090915290825290205481565b610eaa610ea536600461445c565b612ab0565b6040516105be91906147df565b610679610ec536600461431f565b612c34565b61067960105481565b6105da610ee1366004614887565b612c65565b6105aa610ef43660046142b7565b612ec3565b6105da610f07366004614917565b612eed565b6105da610f1a3660046149a9565b6130bd565b6105da610f2d366004614302565b6133ad565b610679610f403660046149ce565b613431565b6105da613578565b6105da610f5b366004614a18565b613794565b6108da613a97565b6105da610f76366004614302565b613af8565b6105da610f89366004614acb565b613b7c565b6106797f9f2df0fed2c77648de5860a4cc508cd0818c85b8b8a1ab4ceeef8d981c8956a681565b6105da610fc33660046142b7565b613c06565b61096c610fd636600461445c565b613c77565b6105da610fe93660046142b7565b613d13565b6105aa610ffc3660046142d0565b613d79565b6105da61100f3660046142b7565b613db1565b610679601f5481565b6003546105aa906001600160a01b031681565b6105da61103e3660046142b7565b613e27565b61067961105136600461445c565b602760209081526000938452604080852082529284528284209052825290205481565b610679601b5481565b6105da61108b366004614ae8565b613e9e565b610679600d5481565b6106796110a7366004614302565b6001600160a01b03166000908152602c602052604090205490565b6105da6110d0366004614302565b613f48565b61067960135481565b600b546105aa906001600160a01b031681565b6005546105aa906001600160a01b031681565b610679601d5481565b6105da61111b366004614302565b613fc6565b6105aa73b0897686c545045afc77cf20ec7a532e3120e0f181565b6019546001600160a01b0316331461115257600080fd5b80516001600160a01b031661116657600080fd5b61117360068260056140db565b507f89a3bfeda71ede5f8735aa09127c97cd56aa3803356c52f7c30caf418238b464816040516111a39190614b20565b60405180910390a150565b6019546001600160a01b031633146111c557600080fd5b60328110156111d357600080fd5b6011819055604080518181526006918101919091526506d6178536c560d41b606082015260208101829052600080516020614c88833981519152906080016111a3565b6019546001600160a01b0316331461122d57600080fd5b6000828152603160205260409020819060020155604080516060808252601390820152720dac2f09ee0cadc92dce8cae4cae6e8ae8aa89606b1b6080820152602081018490529081018290527f957cd67ea49f3e1ee953cdd23a1ba1f11d973e842411220d5c24ef0e24e1c9569060a00160405180910390a15050565b6019546001600160a01b031633146112c157600080fd5b61012c8110156112d057600080fd5b6010819055604080518181526008918101919091526706d61784761696e560c41b606082015260208101829052600080516020614c88833981519152906080016111a3565b6019546001600160a01b0316331461132c57600080fd5b6001600160a01b03811661133f57600080fd5b600c80546001600160a01b0319166001600160a01b03831690811790915560408051818152600f918101919091526e3a37b5b2b72ba2aa242937baba32b960891b60608201526020810191909152600080516020614ca8833981519152906080016111a3565b3360009081526034602052604090205460ff166113c157600080fd5b6000908152602b6020526040812080546001600160a01b03199081168255600182018390556002820180549091169055600381018290556004810191909155600501805460ff19169055565b3360009081526034602052604090205460ff1661142957600080fd5b6001600160a01b03821660009081526023602052604081206002018054839290611454908490614b67565b90915550505050565b6006816005811061146d57600080fd5b01546001600160a01b0316905081565b3360009081526034602052604090205460ff1661149957600080fd5b6001600160a01b03909116600090815260236020526040902055565b6000805b600d54811015611512576001600160a01b03841660009081526024602090815260408083208684528252808320848452909152812060070154900361150057809150611512565b8061150a81614b7a565b9150506114b9565b5092915050565b6029818154811061152957600080fd5b60009182526020909120600d9091020180546001820154600283015460038401546004850154600586015460068701546007880154600889015460098a0154600a8b0154600b8c0154600c909c01546001600160a01b03909b169c50989a97999698959760ff90951696939592949193909291908d565b601481600581106115b057600080fd5b0154905081565b6019546001600160a01b031633146115ce57600080fd5b600081116115db57600080fd5b60128190556040805181815260179181019190915276191959985d5b1d13195d995c9859d9555b9b1bd8dad959604a1b606082015260208101829052600080516020614c88833981519152906080016111a3565b6019546001600160a01b0316331461164657600080fd5b6001600160a01b03811661165957600080fd5b600280546001600160a01b0319166001600160a01b03831690811790915560408051818152600491810191909152631c1bdbdb60e21b60608201526020810191909152600080516020614ca8833981519152906080016111a3565b6000805b600d54811015611512576116cd848483613c77565b6116d957809150611512565b806116e381614b7a565b9150506116b8565b6019546001600160a01b0316331461170257600080fd5b6001600160a01b03811661171557600080fd5b600180546001600160a01b0319166001600160a01b03831690811790915560408051818152600f918101919091526e383934b1b2a0b3b3b932b3b0ba37b960891b60608201526020810191909152600080516020614ca8833981519152906080016111a3565b3360009081526034602052604090205460ff1661179757600080fd5b801561181e576005546040516340c10f1960e01b81526001600160a01b03909116906340c10f19906117cf9086908690600401614b93565b600060405180830381600087803b1580156117e957600080fd5b505af11580156117fd573d6000803e3d6000fd5b5050505081602060008282546118139190614b67565b9091555061189a9050565b600554604051632770a7eb60e21b81526001600160a01b0390911690639dc29fac906118509086908690600401614b93565b600060405180830381600087803b15801561186a57600080fd5b505af115801561187e573d6000803e3d6000fd5b5050505081601f60008282546118949190614b67565b90915550505b505050565b6118a7614133565b6040805160a08101918290529060149060059082845b8154815260200190600101908083116118bd575b5050505050905090565b6019546001600160a01b031633146118f257600080fd5b6001600160a01b03811661190557600080fd5b6001600160a01b038116600081815260346020908152604091829020805460ff1916905590519182527ff9cf924d7d98e6e0a27ec523cd7214b0bbdfaba197018b33b41a702f5238190e91016111a3565b6001600160a01b0381166000908152602c60209081526040918290208054835181840281018401909452808452606093928301828280156119b657602002820191906000526020600020905b8154815260200190600101908083116119a2575b50505050509050919050565b6000818152602f60209081526040918290208054835181840281018401909452808452606093928301828280156119b657602002820191906000526020600020905b81546001600160a01b03168152600190910190602001808311611a045750505050509050919050565b3360009081526034602052604090205460ff16611a4957600080fd5b60015460405163b9e0336f60e01b8152600481018490526024810183905273b0897686c545045afc77cf20ec7a532e3120e0f1916323b872dd9186916001600160a01b031690819063b9e0336f90604401602060405180830381865afa158015611ab7573d6000803e3d6000fd5b505050506040513d601f19601f82011682018060405250810190611adb9190614bac565b6040516001600160e01b031960e086901b1681526001600160a01b03938416600482015292909116602483015260448201526064015b6020604051808303816000875af1158015611b30573d6000803e3d6000fd5b505050506040513d601f19601f82011682018060405250810190611b549190614bc5565b50505050565b6019546001600160a01b03163314611b7157600080fd5b6001600160a01b038116611b8457600080fd5b600b80546001600160a01b0319166001600160a01b03831690811790915560408051818152600591810191909152641d985d5b1d60da1b60608201526020810191909152600080516020614ca8833981519152906080016111a3565b6019546001600160a01b03163314611bf757600080fd5b6001600160a01b038116611c0a57600080fd5b602280546001810182556000919091527f61035b26e3e9eee00e0d72fd1ee8ddca6894550dca6916ea2ac6baa90d11e5100180546001600160a01b0319166001600160a01b0383169081179091556040519081527fd1be2e90bd3d24839d9dd94ad871068e1f9688b02fa43f2a62c9975dfa9de2d7906020016111a3565b3360009081526034602052604090205460ff16611ca457600080fd5b600082815260336020526040812043905560218054839290611454908490614b67565b60316020528160005260406000208160038110611ce357600080fd5b01549150829050565b6019546001600160a01b03163314611d0357600080fd5b600360009054906101000a90046001600160a01b03166001600160a01b031663b187bd266040518163ffffffff1660e01b8152600401602060405180830381865afa158015611d56573d6000803e3d6000fd5b505050506040513d601f19601f82011682018060405250810190611d7a9190614bc5565b8015611dec575060048054604080516358c3de9360e11b815290516001600160a01b039092169263b187bd269282820192602092908290030181865afa158015611dc8573d6000803e3d6000fd5b505050506040513d601f19601f82011682018060405250810190611dec9190614bc5565b611e295760405162461bcd60e51b815260206004820152600a6024820152691393d517d4105554d15160b21b604482015260640160405180910390fd5b6001600160a01b038116611e3c57600080fd5b600580546001600160a01b0319166001600160a01b03831690811782556040805181815290810192909252643a37b5b2b760d91b60608301526020820152600080516020614ca8833981519152906080016111a3565b3360009081526034602052604090205460ff16611eae57600080fd5b6001600160a01b03841660008181526024602090815260408083208784528252808320868452825280832093835260258252808320878452825280832086845290915281206007830154909103611f06575050611b54565b60089091018290554360039091015550505050565b3360009081526034602052604090205460ff16611f3757600080fd5b6000818152602b6020908152604091829020845181546001600160a01b03199081166001600160a01b03928316178355928601516001808401919091559386015160028301805490941691161790915560608401516003808301919091556080850151600483015560a085015160058301805487959293919260ff19909116918490811115611fc857611fc8614675565b021790555050505050565b60606029805480602002602001604051908101604052809291908181526020016000905b828210156120b9576000848152602090819020604080516101a081018252600d860290920180546001600160a01b03168352600180820154848601526002820154928401929092526003810154606084015260048101546080840152600581015460ff16151560a0840152600681015460c0840152600781015460e084015260088101546101008401526009810154610120840152600a810154610140840152600b810154610160840152600c01546101808301529083529092019101611ff7565b50505050905090565b3360009081526034602052604090205460ff166120de57600080fd5b306001600160a01b038416036121205760005460405163a9059cbb60e01b81526001600160a01b039091169063a9059cbb90611b119085908590600401614b93565b6000546040516323b872dd60e01b81526001600160a01b038581166004830152848116602483015260448201849052909116906323b872dd90606401611b11565b6019546001600160a01b0316331461217857600080fd5b6000811161218557600080fd5b600e81905560408051818152601191810191909152706d6178547261646573506572426c6f636b60781b606082015260208101829052600080516020614c88833981519152906080016111a3565b3360009081526034602052604090205460ff166121ef57600080fd5b6001600160a01b03831660008181526024602090815260408083208684528252808320858452825280832093835260258252808320868452825280832085845290915281206007830154909103612247575050505050565b6002810154600683015461226291869160009060ff16614050565b6001600160a01b03851660009081526026602090815260408083208784529091529020546001036123cf576001600160a01b0385166000908152603060209081526040808320878452825280832054602f909252909120805481906122c990600190614be2565b815481106122d9576122d9614b0a565b9060005260206000200160009054906101000a90046001600160a01b031681838154811061230957612309614b0a565b9060005260206000200160006101000a8154816001600160a01b0302191690836001600160a01b03160217905550816030600083858154811061234e5761234e614b0a565b60009182526020808320909101546001600160a01b03908116845283820194909452604092830182208b8352815282822094909455918a168252603083528082208983529092529081205580548190806123aa576123aa614bf5565b600082815260209020810160001990810180546001600160a01b031916905501905550505b6001600160a01b03851660008181526024602090815260408083208884528252808320878452825280832080546001600160a01b03191681556001808201859055600280830186905560038084018790556004808501889055600580860189905560068601805460ff19908116909155600787018a9055600887018a90556009909601899055898952602588528689208e8a5288528689208d8a528852868920898155948501899055928401889055908301879055820186905501805490911690559282526026815282822087835290529081208054916124af83614c0b565b90915550504360009081526032602052604081208054916124cf83614b7a565b91905055505050505050565b3360009081526034602052604090205460ff166124f757600080fd5b6001600160a01b0380831660009081526023602052604090209082161580159061252c575060018101546001600160a01b0316155b801561254a5750826001600160a01b0316826001600160a01b031614155b6125615760018101546001600160a01b0316612563565b815b60019190910180546001600160a01b0319166001600160a01b039092169190911790555050565b3360009081526034602052604090205460ff166125a657600080fd5b6001600160a01b038416600081815260246020908152604080832087845282528083208684528252808320938352602582528083208784528252808320868452909152812060078301549091036125fe575050611b54565b60099091018290554360049091015550505050565b6019546001600160a01b0316331461262a57600080fd5b6001600160a01b03811661263d57600080fd5b600380546001600160a01b0319166001600160a01b038316908117909155604080518181526007918101919091526674726164696e6760c81b60608201526020810191909152600080516020614ca8833981519152906080016111a3565b3360009081526034602052604090205460ff166126b757600080fd5b6126c2838383613c77565b1561189a576001600160a01b038316600090815260276020908152604080832085845282528083208484529091529020546029805461270390600190614be2565b8154811061271357612713614b0a565b90600052602060002090600d02016029828154811061273457612734614b0a565b6000918252602082208354600d9092020180546001600160a01b0319166001600160a01b0390921691909117815560018084015490820155600280840154908201556003808401549082015560048084015490820155600580840154908201805460ff909216151560ff1990921691909117905560068084015490820155600780840154908201556008808401549082015560098084015490820155600a8084015490820155600b8084015490820155600c9283015492019190915560298054839260279290918490811061280b5761280b614b0a565b60009182526020808320600d909202909101546001600160a01b031683528201929092526040018120602980549192918590811061284b5761284b614b0a565b90600052602060002090600d020160010154815260200190815260200160002060006029848154811061288057612880614b0a565b600091825260208083206002600d90930201919091015483528281019390935260409182018120939093556001600160a01b038716835260278252808320868452825280832085845290915281205560298054806128e0576128e0614bf5565b60008281526020808220600d6000199094019384020180546001600160a01b03191681556001810183905560028101839055600381018390556004810183905560058101805460ff1916905560068101839055600781018390556008810183905560098101839055600a8101839055600b8101839055600c01829055919092556001600160a01b0386168252602881526040808320868452909152812080549161298983614c0b565b919050555050505050565b3360009081526034602052604090205460ff166129b057600080fd5b6129cf6129c06020830183614302565b82602001358360400135613c77565b15612aad57600060296027826129e86020860186614302565b6001600160a01b0316815260208082019290925260409081016000908120868401358252835281812086830135825290925290205481548110612a2d57612a2d614b0a565b90600052602060002090600d02019050816060013581600301819055508160a0016020810190612a5d9190614c22565b60058201805460ff191691151591909117905560c0820135600682015560e0820135600782015561010082013560088201556101208201356009820155610140820135600a82015543600b909101555b50565b612b26604051806101a0016040528060006001600160a01b0316815260200160008152602001600081526020016000815260200160008152602001600015158152602001600081526020016000815260200160008152602001600081526020016000815260200160008152602001600081525090565b612b31848484613c77565b612b3a57600080fd5b6001600160a01b03841660009081526027602090815260408083208684528252808320858452909152902054602980549091908110612b7b57612b7b614b0a565b6000918252602091829020604080516101a081018252600d90930290910180546001600160a01b031683526001810154938301939093526002830154908201526003820154606082015260048201546080820152600582015460ff16151560a0820152600682015460c0820152600782015460e082015260088201546101008201526009820154610120820152600a820154610140820152600b820154610160820152600c9091015461018082015290505b9392505050565b602c6020528160005260406000208181548110612c5057600080fd5b90600052602060002001600091509150505481565b3360009081526034602052604090205460ff16612c8157600080fd5b612c93826000015183602001516114b5565b604083810191825283516001600160a01b0390811660009081526024602090815283822081880180518452908252848320865184528252848320885181546001600160a01b031916951694851781558151600182015595516002870155606088015160038701556080880151600487015560a0880151600587015560c088015160068701805460ff191691151591909117905560e08801516007870155610100880151600887015561012088015160099096019590955591815260268252828120935181529290528120805491612d6983614b7a565b9091555050436000908152603260205260408120805491612d8983614b7a565b909155505081516001600160a01b03166000908152602660209081526040808320828601518452909152902054600103612e2957602082810180516000908152602f80845260408083205487516001600160a01b039081168552603087528285208651865287528285209190915593518352908452812085518154600181018355918352939091200180546001600160a01b031916929091169190911790555b600060a0820181815283516001600160a01b031682526025602090815260408084208287018051865290835281852082880151865283529381902085518155918501516001808401919091559085015160028301819055606086015160038401556080860151600484015592516005909201805460ff191692151592909217909155915160c0850151612ebf9391929190614050565b5050565b60228181548110612ed357600080fd5b6000918252602090912001546001600160a01b0316905081565b3360009081526034602052604090205460ff16612f0957600080fd5b8251516001600160a01b039081166000908152602c6020908152604080832080546001808201835591855283852001879055868452602a8352928190208751805182546001600160a01b031916961695909517815591840151928201929092558282015160028201556060808401516003830155608080850151600484015560a080860151600585015560c086015160068501805460ff191691151591909117905560e08601516007850155610100860151600885015561012090950151600984015592870151600b830155860151600c82015590850151600d82015590840151600e82015543600a90910155801561303b578251516001600160a01b03166000908152602d6020908152604080832086518301518452909152812080549161303183614b7a565b9190505550505050565b8251516001600160a01b03166000908152602e6020908152604080832086518301518452909152812080549161307083614b7a565b90915550508251516001600160a01b03166000908152602560209081526040808320865183015184528252808320865182015184529091529020600501805460ff19166001179055505050565b3360009081526034602052604090205460ff166130d957600080fd5b6000828152602a6020908152604080832081516102008101835281546001600160a01b031660c08201818152600184015460e08401526002840154610100840152600384015461012084015260048401546101408401526005840154610160840152600684015460ff16151561018084015260078401546101a084015260088401546101c084015260098401546101e08401528252600a83015482860152600b83015482850152600c8301546060830152600d8301546080830152600e9092015460a0820152908452602c909252822090915b81548110156133a657848282815481106131c8576131c8614b0a565b90600052602060002001540361339457831561321d578251516001600160a01b03166000908152602d6020908152604080832086518301518452909152812080549161321383614c0b565b9190505550613298565b8251516001600160a01b03166000908152602e6020908152604080832086518301518452909152812080549161325283614c0b565b90915550508251516001600160a01b03166000908152602560209081526040808320865183015184528252808320865182015184529091529020600501805460ff191690555b815482906132a890600190614be2565b815481106132b8576132b8614b0a565b90600052602060002001548282815481106132d5576132d5614b0a565b9060005260206000200181905550818054806132f3576132f3614bf5565b600082815260208082208301600019908101839055909201909255868252602a90526040812080546001600160a01b0319168155600181018290556002810182905560038101829055600481018290556005810182905560068101805460ff19169055600781018290556008810182905560098101829055600a8101829055600b8101829055600c8101829055600d8101829055600e015550612ebf915050565b8061339e81614b7a565b9150506131ac565b5050505050565b6019546001600160a01b031633146133c457600080fd5b6001600160a01b0381166133d757600080fd5b601980546001600160a01b0319166001600160a01b038316908117909155604080518181526003918101919091526233b7bb60e91b60608201526020810191909152600080516020614ca8833981519152906080016111a3565b3360009081526034602052604081205460ff1661344d57600080fd5b600154604051630710f2ff60e51b8152600481018790526064916402540be400916001600160a01b039091169063e21e5fe090602401602060405180830381865afa1580156134a0573d6000803e3d6000fd5b505050506040513d601f19601f820116820180604052508101906134c49190614bac565b6134ce9087614c3f565b6134d89190614c56565b6134e29190614c56565b9050816134f7576134f4600282614c56565b90505b82156135335780601e600082825461350f9190614b67565b9250508190555080601c60008282546135289190614b67565b909155506135649050565b80601d60008282546135459190614b67565b9250508190555080601b600082825461355e9190614b67565b90915550505b61356f600282614c3f565b95945050505050565b6019546001600160a01b0316331461358f57600080fd5b600554601a54601b546040516340c10f1960e01b81526001600160a01b03938416936340c10f19936135c693911691600401614b93565b600060405180830381600087803b1580156135e057600080fd5b505af11580156135f4573d6000803e3d6000fd5b5050600554601954601d546040516340c10f1960e01b81526001600160a01b0393841695506340c10f1994506136309390921691600401614b93565b600060405180830381600087803b15801561364a57600080fd5b505af115801561365e573d6000803e3d6000fd5b50505050601d54601b546136729190614b67565b602060008282546136839190614b67565b9091555050600054601954601e5460405163a9059cbb60e01b81526001600160a01b039384169363a9059cbb936136bf93911691600401614b93565b6020604051808303816000875af11580156136de573d6000803e3d6000fd5b505050506040513d601f19601f820116820180604052508101906137029190614bc5565b50600054601a54601c5460405163a9059cbb60e01b81526001600160a01b039384169363a9059cbb9361373a93911691600401614b93565b6020604051808303816000875af1158015613759573d6000803e3d6000fd5b505050506040513d601f19601f8201168201806040525081019061377d9190614bc5565b506000601b819055601d819055601c819055601e55565b3360009081526034602052604090205460ff166137b057600080fd5b6137c2816000015182602001516116b4565b604082019081524361016083019081526029805460018082018355600083905285517fcb7c14ce178f56e2e8d86ab33ebc0ae081ba8556a00cd122038841867181caac600d90930292830180546001600160a01b0319166001600160a01b0390921691909117905560208601517fcb7c14ce178f56e2e8d86ab33ebc0ae081ba8556a00cd122038841867181caad83015593517fcb7c14ce178f56e2e8d86ab33ebc0ae081ba8556a00cd122038841867181caae82015560608501517fcb7c14ce178f56e2e8d86ab33ebc0ae081ba8556a00cd122038841867181caaf82015560808501517fcb7c14ce178f56e2e8d86ab33ebc0ae081ba8556a00cd122038841867181cab082015560a08501517fcb7c14ce178f56e2e8d86ab33ebc0ae081ba8556a00cd122038841867181cab18201805460ff191691151591909117905560c08501517fcb7c14ce178f56e2e8d86ab33ebc0ae081ba8556a00cd122038841867181cab282015560e08501517fcb7c14ce178f56e2e8d86ab33ebc0ae081ba8556a00cd122038841867181cab38201556101008501517fcb7c14ce178f56e2e8d86ab33ebc0ae081ba8556a00cd122038841867181cab48201556101208501517fcb7c14ce178f56e2e8d86ab33ebc0ae081ba8556a00cd122038841867181cab58201556101408501517fcb7c14ce178f56e2e8d86ab33ebc0ae081ba8556a00cd122038841867181cab682015591517fcb7c14ce178f56e2e8d86ab33ebc0ae081ba8556a00cd122038841867181cab78301556101808401517fcb7c14ce178f56e2e8d86ab33ebc0ae081ba8556a00cd122038841867181cab89092019190915554613a319190614be2565b81516001600160a01b03908116600090815260276020908152604080832082870180518552908352818420828801518552835281842095909555855190931682526028815282822093518252929092528120805491613a8f83614b7a565b919050555050565b606060228054806020026020016040519081016040528092919081815260200182805480156118d157602002820191906000526020600020905b81546001600160a01b03168152600190910190602001808311613ad1575050505050905090565b6019546001600160a01b03163314613b0f57600080fd5b6001600160a01b038116613b2257600080fd5b601a80546001600160a01b0319166001600160a01b03831690811790915560408051818152600391810191909152623232bb60e91b60608201526020810191909152600080516020614ca8833981519152906080016111a3565b3360009081526034602052604090205460ff16613b9857600080fd5b80516001600160a01b03166000908152602460209081526040808320828501518452825280832081850151845290915281206007810154909103613bda575050565b606082015160038201556080820151600482015560a0820151600582015560e082015160079091015550565b6019546001600160a01b03163314613c1d57600080fd5b60008111613c2a57600080fd5b600d819055604080518181526010918101919091526f36b0bc2a3930b232b9a832b92830b4b960811b606082015260208101829052600080516020614c88833981519152906080016111a3565b6029546000908103613c8b57506000612c2d565b6001600160a01b03841660009081526027602090815260408083208684528252808320858452909152812054602980549091908110613ccc57613ccc614b0a565b60009182526020909120600d9091020180549091506001600160a01b038681169116148015613cfe5750838160010154145b801561356f5750600201549091149392505050565b6019546001600160a01b03163314613d2a57600080fd5b601381905560408051818152601291810191909152716e66745375636365737354696d656c6f636b60701b606082015260208101829052600080516020614c88833981519152906080016111a3565b602f6020528160005260406000208181548110613d9557600080fd5b6000918252602090912001546001600160a01b03169150829050565b3360009081526034602052604090205460ff16613dcd57600080fd5b600254604051633104b73f60e21b8152600481018390526001600160a01b039091169063c412dcfc90602401600060405180830381600087803b158015613e1357600080fd5b505af11580156133a6573d6000803e3d6000fd5b6019546001600160a01b03163314613e3e57600080fd5b60008111613e4b57600080fd5b600f81905560408051818152601691810191909152756d617850656e64696e674d61726b65744f726465727360501b606082015260208101829052600080516020614c88833981519152906080016111a3565b6019546001600160a01b03163314613eb557600080fd5b803515801590613ec9575080356020820135115b8015613edc575060208101356040820135115b8015613eef575060408101356060820135115b8015613f02575060608101356080820135115b613f0b57600080fd5b613f186014826005614151565b507fdaae5e047a75b6f38ad4e279cdefe910fc35d5a99a91b8303bd948c0a999372a816040516111a39190614c78565b6019546001600160a01b03163314613f5f57600080fd5b6001600160a01b038116613f7257600080fd5b6001600160a01b038116600081815260346020908152604091829020805460ff1916600117905590519182527fb692fa98cbec9bd705572b4c7e0927e3f7698e9fe526dcef6f40f3d4d4980ca391016111a3565b6019546001600160a01b03163314613fdd57600080fd5b6001600160a01b038116613ff057600080fd5b600480546001600160a01b0319166001600160a01b038316908117909155604080518181526009918101919091526863616c6c6261636b7360b81b60608201526020810191909152600080516020614ca8833981519152906080016111a3565b60008161405e576001614061565b60005b600086815260316020526040902060ff919091169150836140a0578481836003811061408f5761408f614b0a565b015461409b9190614be2565b6140bf565b848183600381106140b3576140b3614b0a565b01546140bf9190614b67565b8183600381106140d1576140d1614b0a565b0155505050505050565b8260058101928215614123579160200282015b8281111561412357825182546001600160a01b0319166001600160a01b039091161782556020909201916001909101906140ee565b5061412f92915061417f565b5090565b6040518060a001604052806005906020820280368337509192915050565b8260058101928215614123579160200282015b82811115614123578235825591602001919060010190614164565b5b8082111561412f5760008155600101614180565b634e487b7160e01b600052604160045260246000fd5b60405160c0810167ffffffffffffffff811182821017156141cd576141cd614194565b60405290565b604051610140810167ffffffffffffffff811182821017156141cd576141cd614194565b6040516101a0810167ffffffffffffffff811182821017156141cd576141cd614194565b6001600160a01b0381168114612aad57600080fd5b600060a0828403121561424257600080fd5b82601f83011261425157600080fd5b60405160a0810181811067ffffffffffffffff8211171561427457614274614194565b6040528060a084018581111561428957600080fd5b845b818110156142ac57803561429e8161421b565b83526020928301920161428b565b509195945050505050565b6000602082840312156142c957600080fd5b5035919050565b600080604083850312156142e357600080fd5b50508035926020909101359150565b80356142fd8161421b565b919050565b60006020828403121561431457600080fd5b8135612c2d8161421b565b6000806040838503121561433257600080fd5b823561433d8161421b565b946020939093013593505050565b8015158114612aad57600080fd5b80356142fd8161434b565b60008060006060848603121561437957600080fd5b83356143848161421b565b925060208401359150604084013561439b8161434b565b809150509250925092565b60a08101818360005b60058110156143ce5781518352602092830192909101906001016143af565b50505092915050565b6020808252825182820181905260009190848201906040850190845b8181101561440f578351835292840192918401916001016143f3565b50909695505050505050565b6020808252825182820181905260009190848201906040850190845b8181101561440f5783516001600160a01b031683529284019291840191600101614437565b60008060006060848603121561447157600080fd5b833561447c8161421b565b95602085013595506040909401359392505050565b600080600080608085870312156144a757600080fd5b84356144b28161421b565b966020860135965060408601359560600135945092505050565b60008082840360e08112156144e057600080fd5b60c08112156144ee57600080fd5b506144f76141aa565b83356145028161421b565b815260208481013590820152604084013561451c8161421b565b80604083015250606084013560608201526080840135608082015260a08401356004811061454957600080fd5b60a08201529460c0939093013593505050565b80516001600160a01b031682526020810151602083015260408101516040830152606081015160608301526080810151608083015260a08101516145a460a084018215159052565b5060c0818101519083015260e08082015190830152610100808201519083015261012080820151908301526101408082015190830152610160808201519083015261018090810151910152565b6020808252825182820181905260009190848201906040850190845b8181101561440f5761462083855161455c565b928401926101a0929092019160010161460d565b60008060006060848603121561464957600080fd5b83356146548161421b565b925060208401356146648161421b565b929592945050506040919091013590565b634e487b7160e01b600052602160045260246000fd5b6001600160a01b0387811682526020820187905285166040820152606081018490526080810183905260c08101600483106146d657634e487b7160e01b600052602160045260246000fd5b8260a0830152979650505050505050565b600080604083850312156146fa57600080fd5b82356147058161421b565b915060208301356147158161421b565b809150509250929050565b86516001600160a01b031681526101e081016020880151602083015260408801516040830152606088015160608301526080880151608083015260a088015160a083015260c088015161477760c084018215159052565b5060e08881015190830152610100808901519083015261012097880151978201979097526101408101959095526101608501939093526101808401919091526101a08301526101c09091015290565b60006101a082840312156147d957600080fd5b50919050565b6101a081016147ee828461455c565b92915050565b6000610140828403121561480757600080fd5b61480f6141d3565b905061481a826142f2565b81526020820135602082015260408201356040820152606082013560608201526080820135608082015260a082013560a082015261485a60c08301614359565b60c082015260e082013560e082015261010080830135818301525061012080830135818301525092915050565b60008082840361020081121561489c57600080fd5b6148a685856147f4565b925060c061013f19820112156148bb57600080fd5b506148c46141aa565b6101408401358152610160840135602082015261018084013560408201526101a084013560608201526101c084013560808201526101e08401356149078161434b565b60a0820152919491935090915050565b600080600083850361022081121561492e57600080fd5b6101e08082121561493e57600080fd5b6149466141aa565b915061495287876147f4565b82526101408601356020830152610160860135604083015261018086013560608301526101a086013560808301526101c086013560a083015290935084013591506149a06102008501614359565b90509250925092565b600080604083850312156149bc57600080fd5b8235915060208301356147158161434b565b600080600080608085870312156149e457600080fd5b843593506020850135925060408501356149fd8161434b565b91506060850135614a0d8161434b565b939692955090935050565b60006101a08284031215614a2b57600080fd5b614a336141f7565b614a3c836142f2565b815260208301356020820152604083013560408201526060830135606082015260808301356080820152614a7260a08401614359565b60a082015260c0838101359082015260e080840135908201526101008084013590820152610120808401359082015261014080840135908201526101608084013590820152610180928301359281019290925250919050565b60006101408284031215614ade57600080fd5b612c2d83836147f4565b600060a08284031215614afa57600080fd5b8260a0830111156147d957600080fd5b634e487b7160e01b600052603260045260246000fd5b60a08101818360005b60058110156143ce5781516001600160a01b0316835260209283019290910190600101614b29565b634e487b7160e01b600052601160045260246000fd5b808201808211156147ee576147ee614b51565b600060018201614b8c57614b8c614b51565b5060010190565b6001600160a01b03929092168252602082015260400190565b600060208284031215614bbe57600080fd5b5051919050565b600060208284031215614bd757600080fd5b8151612c2d8161434b565b818103818111156147ee576147ee614b51565b634e487b7160e01b600052603160045260246000fd5b600081614c1a57614c1a614b51565b506000190190565b600060208284031215614c3457600080fd5b8135612c2d8161434b565b80820281158282048414176147ee576147ee614b51565b600082614c7357634e487b7160e01b600052601260045260246000fd5b500490565b60a0818101908383379291505056fe8cf3e35f6221b16e1670a3413180c9484bf5aa71787905909fa82a6a2662e9ab943e9d45a11aaae5d87503e3bc248665d9807856e5cf2bdb4a988bee44422781a2646970667358221220275cacfe788b9049d3608524b612ebe3ccb6978a831b77ee499c646b206b696a64736f6c63430008110033",
  "devdoc": {
    "kind": "dev",
    "methods": {},
    "version": 1
  },
  "userdoc": {
    "kind": "user",
    "methods": {},
    "version": 1
  },
  "storageLayout": {
    "storage": [
      {
        "astId": 1093,
        "contract": "contracts/Storage.sol:Storage",
        "label": "WETH",
        "offset": 0,
        "slot": "0",
        "type": "t_contract(TokenInterface)6782"
      },
      {
        "astId": 1102,
        "contract": "contracts/Storage.sol:Storage",
        "label": "priceAggregator",
        "offset": 0,
        "slot": "1",
        "type": "t_contract(AggregatorInterfaceV1)4958"
      },
      {
        "astId": 1105,
        "contract": "contracts/Storage.sol:Storage",
        "label": "pool",
        "offset": 0,
        "slot": "2",
        "type": "t_contract(PoolInterfaceV5)6181"
      },
      {
        "astId": 1108,
        "contract": "contracts/Storage.sol:Storage",
        "label": "trading",
        "offset": 0,
        "slot": "3",
        "type": "t_contract(PausableInterfaceV5)6173"
      },
      {
        "astId": 1111,
        "contract": "contracts/Storage.sol:Storage",
        "label": "callbacks",
        "offset": 0,
        "slot": "4",
        "type": "t_contract(PausableInterfaceV5)6173"
      },
      {
        "astId": 1117,
        "contract": "contracts/Storage.sol:Storage",
        "label": "token",
        "offset": 0,
        "slot": "5",
        "type": "t_contract(TokenInterface)6782"
      },
      {
        "astId": 1138,
        "contract": "contracts/Storage.sol:Storage",
        "label": "nfts",
        "offset": 0,
        "slot": "6",
        "type": "t_array(t_contract(NftInterfaceV5)5787)5_storage"
      },
      {
        "astId": 1140,
        "contract": "contracts/Storage.sol:Storage",
        "label": "vault",
        "offset": 0,
        "slot": "11",
        "type": "t_address"
      },
      {
        "astId": 1142,
        "contract": "contracts/Storage.sol:Storage",
        "label": "tokenWETHRouter",
        "offset": 0,
        "slot": "12",
        "type": "t_address"
      },
      {
        "astId": 1145,
        "contract": "contracts/Storage.sol:Storage",
        "label": "maxTradesPerPair",
        "offset": 0,
        "slot": "13",
        "type": "t_uint256"
      },
      {
        "astId": 1148,
        "contract": "contracts/Storage.sol:Storage",
        "label": "maxTradesPerBlock",
        "offset": 0,
        "slot": "14",
        "type": "t_uint256"
      },
      {
        "astId": 1151,
        "contract": "contracts/Storage.sol:Storage",
        "label": "maxPendingMarketOrders",
        "offset": 0,
        "slot": "15",
        "type": "t_uint256"
      },
      {
        "astId": 1154,
        "contract": "contracts/Storage.sol:Storage",
        "label": "maxGainP",
        "offset": 0,
        "slot": "16",
        "type": "t_uint256"
      },
      {
        "astId": 1157,
        "contract": "contracts/Storage.sol:Storage",
        "label": "maxSlP",
        "offset": 0,
        "slot": "17",
        "type": "t_uint256"
      },
      {
        "astId": 1160,
        "contract": "contracts/Storage.sol:Storage",
        "label": "defaultLeverageUnlocked",
        "offset": 0,
        "slot": "18",
        "type": "t_uint256"
      },
      {
        "astId": 1163,
        "contract": "contracts/Storage.sol:Storage",
        "label": "nftSuccessTimelock",
        "offset": 0,
        "slot": "19",
        "type": "t_uint256"
      },
      {
        "astId": 1173,
        "contract": "contracts/Storage.sol:Storage",
        "label": "spreadReductionsP",
        "offset": 0,
        "slot": "20",
        "type": "t_array(t_uint256)5_storage"
      },
      {
        "astId": 1175,
        "contract": "contracts/Storage.sol:Storage",
        "label": "gov",
        "offset": 0,
        "slot": "25",
        "type": "t_address"
      },
      {
        "astId": 1177,
        "contract": "contracts/Storage.sol:Storage",
        "label": "dev",
        "offset": 0,
        "slot": "26",
        "type": "t_address"
      },
      {
        "astId": 1179,
        "contract": "contracts/Storage.sol:Storage",
        "label": "devFeesToken",
        "offset": 0,
        "slot": "27",
        "type": "t_uint256"
      },
      {
        "astId": 1181,
        "contract": "contracts/Storage.sol:Storage",
        "label": "devFeesWETH",
        "offset": 0,
        "slot": "28",
        "type": "t_uint256"
      },
      {
        "astId": 1183,
        "contract": "contracts/Storage.sol:Storage",
        "label": "govFeesToken",
        "offset": 0,
        "slot": "29",
        "type": "t_uint256"
      },
      {
        "astId": 1185,
        "contract": "contracts/Storage.sol:Storage",
        "label": "govFeesWETH",
        "offset": 0,
        "slot": "30",
        "type": "t_uint256"
      },
      {
        "astId": 1187,
        "contract": "contracts/Storage.sol:Storage",
        "label": "tokensBurned",
        "offset": 0,
        "slot": "31",
        "type": "t_uint256"
      },
      {
        "astId": 1189,
        "contract": "contracts/Storage.sol:Storage",
        "label": "tokensMinted",
        "offset": 0,
        "slot": "32",
        "type": "t_uint256"
      },
      {
        "astId": 1191,
        "contract": "contracts/Storage.sol:Storage",
        "label": "nftRewards",
        "offset": 0,
        "slot": "33",
        "type": "t_uint256"
      },
      {
        "astId": 1295,
        "contract": "contracts/Storage.sol:Storage",
        "label": "supportedTokens",
        "offset": 0,
        "slot": "34",
        "type": "t_array(t_address)dyn_storage"
      },
      {
        "astId": 1300,
        "contract": "contracts/Storage.sol:Storage",
        "label": "traders",
        "offset": 0,
        "slot": "35",
        "type": "t_mapping(t_address,t_struct(Trader)1203_storage)"
      },
      {
        "astId": 1309,
        "contract": "contracts/Storage.sol:Storage",
        "label": "openTrades",
        "offset": 0,
        "slot": "36",
        "type": "t_mapping(t_address,t_mapping(t_uint256,t_mapping(t_uint256,t_struct(Trade)1224_storage)))"
      },
      {
        "astId": 1318,
        "contract": "contracts/Storage.sol:Storage",
        "label": "openTradesInfo",
        "offset": 0,
        "slot": "37",
        "type": "t_mapping(t_address,t_mapping(t_uint256,t_mapping(t_uint256,t_struct(TradeInfo)1237_storage)))"
      },
      {
        "astId": 1324,
        "contract": "contracts/Storage.sol:Storage",
        "label": "openTradesCount",
        "offset": 0,
        "slot": "38",
        "type": "t_mapping(t_address,t_mapping(t_uint256,t_uint256))"
      },
      {
        "astId": 1332,
        "contract": "contracts/Storage.sol:Storage",
        "label": "openLimitOrderIds",
        "offset": 0,
        "slot": "39",
        "type": "t_mapping(t_address,t_mapping(t_uint256,t_mapping(t_uint256,t_uint256)))"
      },
      {
        "astId": 1338,
        "contract": "contracts/Storage.sol:Storage",
        "label": "openLimitOrdersCount",
        "offset": 0,
        "slot": "40",
        "type": "t_mapping(t_address,t_mapping(t_uint256,t_uint256))"
      },
      {
        "astId": 1342,
        "contract": "contracts/Storage.sol:Storage",
        "label": "openLimitOrders",
        "offset": 0,
        "slot": "41",
        "type": "t_array(t_struct(OpenLimitOrder)1264_storage)dyn_storage"
      },
      {
        "astId": 1347,
        "contract": "contracts/Storage.sol:Storage",
        "label": "reqID_pendingMarketOrder",
        "offset": 0,
        "slot": "42",
        "type": "t_mapping(t_uint256,t_struct(PendingMarketOrder)1278_storage)"
      },
      {
        "astId": 1352,
        "contract": "contracts/Storage.sol:Storage",
        "label": "reqID_pendingNftOrder",
        "offset": 0,
        "slot": "43",
        "type": "t_mapping(t_uint256,t_struct(PendingNftOrder)1292_storage)"
      },
      {
        "astId": 1357,
        "contract": "contracts/Storage.sol:Storage",
        "label": "pendingOrderIds",
        "offset": 0,
        "slot": "44",
        "type": "t_mapping(t_address,t_array(t_uint256)dyn_storage)"
      },
      {
        "astId": 1363,
        "contract": "contracts/Storage.sol:Storage",
        "label": "pendingMarketOpenCount",
        "offset": 0,
        "slot": "45",
        "type": "t_mapping(t_address,t_mapping(t_uint256,t_uint256))"
      },
      {
        "astId": 1369,
        "contract": "contracts/Storage.sol:Storage",
        "label": "pendingMarketCloseCount",
        "offset": 0,
        "slot": "46",
        "type": "t_mapping(t_address,t_mapping(t_uint256,t_uint256))"
      },
      {
        "astId": 1374,
        "contract": "contracts/Storage.sol:Storage",
        "label": "pairTraders",
        "offset": 0,
        "slot": "47",
        "type": "t_mapping(t_uint256,t_array(t_address)dyn_storage)"
      },
      {
        "astId": 1380,
        "contract": "contracts/Storage.sol:Storage",
        "label": "pairTradersId",
        "offset": 0,
        "slot": "48",
        "type": "t_mapping(t_address,t_mapping(t_uint256,t_uint256))"
      },
      {
        "astId": 1386,
        "contract": "contracts/Storage.sol:Storage",
        "label": "openInterestWETH",
        "offset": 0,
        "slot": "49",
        "type": "t_mapping(t_uint256,t_array(t_uint256)3_storage)"
      },
      {
        "astId": 1390,
        "contract": "contracts/Storage.sol:Storage",
        "label": "tradesPerBlock",
        "offset": 0,
        "slot": "50",
        "type": "t_mapping(t_uint256,t_uint256)"
      },
      {
        "astId": 1394,
        "contract": "contracts/Storage.sol:Storage",
        "label": "nftLastSuccess",
        "offset": 0,
        "slot": "51",
        "type": "t_mapping(t_uint256,t_uint256)"
      },
      {
        "astId": 1398,
        "contract": "contracts/Storage.sol:Storage",
        "label": "isTradingContract",
        "offset": 0,
        "slot": "52",
        "type": "t_mapping(t_address,t_bool)"
      }
    ],
    "types": {
      "t_address": {
        "encoding": "inplace",
        "label": "address",
        "numberOfBytes": "20"
      },
      "t_array(t_address)dyn_storage": {
        "base": "t_address",
        "encoding": "dynamic_array",
        "label": "address[]",
        "numberOfBytes": "32"
      },
      "t_array(t_contract(NftInterfaceV5)5787)5_storage": {
        "base": "t_contract(NftInterfaceV5)5787",
        "encoding": "inplace",
        "label": "contract NftInterfaceV5[5]",
        "numberOfBytes": "160"
      },
      "t_array(t_struct(OpenLimitOrder)1264_storage)dyn_storage": {
        "base": "t_struct(OpenLimitOrder)1264_storage",
        "encoding": "dynamic_array",
        "label": "struct Storage.OpenLimitOrder[]",
        "numberOfBytes": "32"
      },
      "t_array(t_uint256)3_storage": {
        "base": "t_uint256",
        "encoding": "inplace",
        "label": "uint256[3]",
        "numberOfBytes": "96"
      },
      "t_array(t_uint256)5_storage": {
        "base": "t_uint256",
        "encoding": "inplace",
        "label": "uint256[5]",
        "numberOfBytes": "160"
      },
      "t_array(t_uint256)dyn_storage": {
        "base": "t_uint256",
        "encoding": "dynamic_array",
        "label": "uint256[]",
        "numberOfBytes": "32"
      },
      "t_bool": {
        "encoding": "inplace",
        "label": "bool",
        "numberOfBytes": "1"
      },
      "t_contract(AggregatorInterfaceV1)4958": {
        "encoding": "inplace",
        "label": "contract AggregatorInterfaceV1",
        "numberOfBytes": "20"
      },
      "t_contract(NftInterfaceV5)5787": {
        "encoding": "inplace",
        "label": "contract NftInterfaceV5",
        "numberOfBytes": "20"
      },
      "t_contract(PausableInterfaceV5)6173": {
        "encoding": "inplace",
        "label": "contract PausableInterfaceV5",
        "numberOfBytes": "20"
      },
      "t_contract(PoolInterfaceV5)6181": {
        "encoding": "inplace",
        "label": "contract PoolInterfaceV5",
        "numberOfBytes": "20"
      },
      "t_contract(TokenInterface)6782": {
        "encoding": "inplace",
        "label": "contract TokenInterface",
        "numberOfBytes": "20"
      },
      "t_enum(LimitOrder)1196": {
        "encoding": "inplace",
        "label": "enum Storage.LimitOrder",
        "numberOfBytes": "1"
      },
      "t_mapping(t_address,t_array(t_uint256)dyn_storage)": {
        "encoding": "mapping",
        "key": "t_address",
        "label": "mapping(address => uint256[])",
        "numberOfBytes": "32",
        "value": "t_array(t_uint256)dyn_storage"
      },
      "t_mapping(t_address,t_bool)": {
        "encoding": "mapping",
        "key": "t_address",
        "label": "mapping(address => bool)",
        "numberOfBytes": "32",
        "value": "t_bool"
      },
      "t_mapping(t_address,t_mapping(t_uint256,t_mapping(t_uint256,t_struct(Trade)1224_storage)))": {
        "encoding": "mapping",
        "key": "t_address",
        "label": "mapping(address => mapping(uint256 => mapping(uint256 => struct Storage.Trade)))",
        "numberOfBytes": "32",
        "value": "t_mapping(t_uint256,t_mapping(t_uint256,t_struct(Trade)1224_storage))"
      },
      "t_mapping(t_address,t_mapping(t_uint256,t_mapping(t_uint256,t_struct(TradeInfo)1237_storage)))": {
        "encoding": "mapping",
        "key": "t_address",
        "label": "mapping(address => mapping(uint256 => mapping(uint256 => struct Storage.TradeInfo)))",
        "numberOfBytes": "32",
        "value": "t_mapping(t_uint256,t_mapping(t_uint256,t_struct(TradeInfo)1237_storage))"
      },
      "t_mapping(t_address,t_mapping(t_uint256,t_mapping(t_uint256,t_uint256)))": {
        "encoding": "mapping",
        "key": "t_address",
        "label": "mapping(address => mapping(uint256 => mapping(uint256 => uint256)))",
        "numberOfBytes": "32",
        "value": "t_mapping(t_uint256,t_mapping(t_uint256,t_uint256))"
      },
      "t_mapping(t_address,t_mapping(t_uint256,t_uint256))": {
        "encoding": "mapping",
        "key": "t_address",
        "label": "mapping(address => mapping(uint256 => uint256))",
        "numberOfBytes": "32",
        "value": "t_mapping(t_uint256,t_uint256)"
      },
      "t_mapping(t_address,t_struct(Trader)1203_storage)": {
        "encoding": "mapping",
        "key": "t_address",
        "label": "mapping(address => struct Storage.Trader)",
        "numberOfBytes": "32",
        "value": "t_struct(Trader)1203_storage"
      },
      "t_mapping(t_uint256,t_array(t_address)dyn_storage)": {
        "encoding": "mapping",
        "key": "t_uint256",
        "label": "mapping(uint256 => address[])",
        "numberOfBytes": "32",
        "value": "t_array(t_address)dyn_storage"
      },
      "t_mapping(t_uint256,t_array(t_uint256)3_storage)": {
        "encoding": "mapping",
        "key": "t_uint256",
        "label": "mapping(uint256 => uint256[3])",
        "numberOfBytes": "32",
        "value": "t_array(t_uint256)3_storage"
      },
      "t_mapping(t_uint256,t_mapping(t_uint256,t_struct(Trade)1224_storage))": {
        "encoding": "mapping",
        "key": "t_uint256",
        "label": "mapping(uint256 => mapping(uint256 => struct Storage.Trade))",
        "numberOfBytes": "32",
        "value": "t_mapping(t_uint256,t_struct(Trade)1224_storage)"
      },
      "t_mapping(t_uint256,t_mapping(t_uint256,t_struct(TradeInfo)1237_storage))": {
        "encoding": "mapping",
        "key": "t_uint256",
        "label": "mapping(uint256 => mapping(uint256 => struct Storage.TradeInfo))",
        "numberOfBytes": "32",
        "value": "t_mapping(t_uint256,t_struct(TradeInfo)1237_storage)"
      },
      "t_mapping(t_uint256,t_mapping(t_uint256,t_uint256))": {
        "encoding": "mapping",
        "key": "t_uint256",
        "label": "mapping(uint256 => mapping(uint256 => uint256))",
        "numberOfBytes": "32",
        "value": "t_mapping(t_uint256,t_uint256)"
      },
      "t_mapping(t_uint256,t_struct(PendingMarketOrder)1278_storage)": {
        "encoding": "mapping",
        "key": "t_uint256",
        "label": "mapping(uint256 => struct Storage.PendingMarketOrder)",
        "numberOfBytes": "32",
        "value": "t_struct(PendingMarketOrder)1278_storage"
      },
      "t_mapping(t_uint256,t_struct(PendingNftOrder)1292_storage)": {
        "encoding": "mapping",
        "key": "t_uint256",
        "label": "mapping(uint256 => struct Storage.PendingNftOrder)",
        "numberOfBytes": "32",
        "value": "t_struct(PendingNftOrder)1292_storage"
      },
      "t_mapping(t_uint256,t_struct(Trade)1224_storage)": {
        "encoding": "mapping",
        "key": "t_uint256",
        "label": "mapping(uint256 => struct Storage.Trade)",
        "numberOfBytes": "32",
        "value": "t_struct(Trade)1224_storage"
      },
      "t_mapping(t_uint256,t_struct(TradeInfo)1237_storage)": {
        "encoding": "mapping",
        "key": "t_uint256",
        "label": "mapping(uint256 => struct Storage.TradeInfo)",
        "numberOfBytes": "32",
        "value": "t_struct(TradeInfo)1237_storage"
      },
      "t_mapping(t_uint256,t_uint256)": {
        "encoding": "mapping",
        "key": "t_uint256",
        "label": "mapping(uint256 => uint256)",
        "numberOfBytes": "32",
        "value": "t_uint256"
      },
      "t_struct(OpenLimitOrder)1264_storage": {
        "encoding": "inplace",
        "label": "struct Storage.OpenLimitOrder",
        "members": [
          {
            "astId": 1239,
            "contract": "contracts/Storage.sol:Storage",
            "label": "trader",
            "offset": 0,
            "slot": "0",
            "type": "t_address"
          },
          {
            "astId": 1241,
            "contract": "contracts/Storage.sol:Storage",
            "label": "pairIndex",
            "offset": 0,
            "slot": "1",
            "type": "t_uint256"
          },
          {
            "astId": 1243,
            "contract": "contracts/Storage.sol:Storage",
            "label": "index",
            "offset": 0,
            "slot": "2",
            "type": "t_uint256"
          },
          {
            "astId": 1245,
            "contract": "contracts/Storage.sol:Storage",
            "label": "positionSize",
            "offset": 0,
            "slot": "3",
            "type": "t_uint256"
          },
          {
            "astId": 1247,
            "contract": "contracts/Storage.sol:Storage",
            "label": "spreadReductionP",
            "offset": 0,
            "slot": "4",
            "type": "t_uint256"
          },
          {
            "astId": 1249,
            "contract": "contracts/Storage.sol:Storage",
            "label": "buy",
            "offset": 0,
            "slot": "5",
            "type": "t_bool"
          },
          {
            "astId": 1251,
            "contract": "contracts/Storage.sol:Storage",
            "label": "leverage",
            "offset": 0,
            "slot": "6",
            "type": "t_uint256"
          },
          {
            "astId": 1253,
            "contract": "contracts/Storage.sol:Storage",
            "label": "tp",
            "offset": 0,
            "slot": "7",
            "type": "t_uint256"
          },
          {
            "astId": 1255,
            "contract": "contracts/Storage.sol:Storage",
            "label": "sl",
            "offset": 0,
            "slot": "8",
            "type": "t_uint256"
          },
          {
            "astId": 1257,
            "contract": "contracts/Storage.sol:Storage",
            "label": "minPrice",
            "offset": 0,
            "slot": "9",
            "type": "t_uint256"
          },
          {
            "astId": 1259,
            "contract": "contracts/Storage.sol:Storage",
            "label": "maxPrice",
            "offset": 0,
            "slot": "10",
            "type": "t_uint256"
          },
          {
            "astId": 1261,
            "contract": "contracts/Storage.sol:Storage",
            "label": "block",
            "offset": 0,
            "slot": "11",
            "type": "t_uint256"
          },
          {
            "astId": 1263,
            "contract": "contracts/Storage.sol:Storage",
            "label": "tokenId",
            "offset": 0,
            "slot": "12",
            "type": "t_uint256"
          }
        ],
        "numberOfBytes": "416"
      },
      "t_struct(PendingMarketOrder)1278_storage": {
        "encoding": "inplace",
        "label": "struct Storage.PendingMarketOrder",
        "members": [
          {
            "astId": 1267,
            "contract": "contracts/Storage.sol:Storage",
            "label": "trade",
            "offset": 0,
            "slot": "0",
            "type": "t_struct(Trade)1224_storage"
          },
          {
            "astId": 1269,
            "contract": "contracts/Storage.sol:Storage",
            "label": "block",
            "offset": 0,
            "slot": "10",
            "type": "t_uint256"
          },
          {
            "astId": 1271,
            "contract": "contracts/Storage.sol:Storage",
            "label": "wantedPrice",
            "offset": 0,
            "slot": "11",
            "type": "t_uint256"
          },
          {
            "astId": 1273,
            "contract": "contracts/Storage.sol:Storage",
            "label": "slippageP",
            "offset": 0,
            "slot": "12",
            "type": "t_uint256"
          },
          {
            "astId": 1275,
            "contract": "contracts/Storage.sol:Storage",
            "label": "spreadReductionP",
            "offset": 0,
            "slot": "13",
            "type": "t_uint256"
          },
          {
            "astId": 1277,
            "contract": "contracts/Storage.sol:Storage",
            "label": "tokenId",
            "offset": 0,
            "slot": "14",
            "type": "t_uint256"
          }
        ],
        "numberOfBytes": "480"
      },
      "t_struct(PendingNftOrder)1292_storage": {
        "encoding": "inplace",
        "label": "struct Storage.PendingNftOrder",
        "members": [
          {
            "astId": 1280,
            "contract": "contracts/Storage.sol:Storage",
            "label": "nftHolder",
            "offset": 0,
            "slot": "0",
            "type": "t_address"
          },
          {
            "astId": 1282,
            "contract": "contracts/Storage.sol:Storage",
            "label": "nftId",
            "offset": 0,
            "slot": "1",
            "type": "t_uint256"
          },
          {
            "astId": 1284,
            "contract": "contracts/Storage.sol:Storage",
            "label": "trader",
            "offset": 0,
            "slot": "2",
            "type": "t_address"
          },
          {
            "astId": 1286,
            "contract": "contracts/Storage.sol:Storage",
            "label": "pairIndex",
            "offset": 0,
            "slot": "3",
            "type": "t_uint256"
          },
          {
            "astId": 1288,
            "contract": "contracts/Storage.sol:Storage",
            "label": "index",
            "offset": 0,
            "slot": "4",
            "type": "t_uint256"
          },
          {
            "astId": 1291,
            "contract": "contracts/Storage.sol:Storage",
            "label": "orderType",
            "offset": 0,
            "slot": "5",
            "type": "t_enum(LimitOrder)1196"
          }
        ],
        "numberOfBytes": "192"
      },
      "t_struct(Trade)1224_storage": {
        "encoding": "inplace",
        "label": "struct Storage.Trade",
        "members": [
          {
            "astId": 1205,
            "contract": "contracts/Storage.sol:Storage",
            "label": "trader",
            "offset": 0,
            "slot": "0",
            "type": "t_address"
          },
          {
            "astId": 1207,
            "contract": "contracts/Storage.sol:Storage",
            "label": "pairIndex",
            "offset": 0,
            "slot": "1",
            "type": "t_uint256"
          },
          {
            "astId": 1209,
            "contract": "contracts/Storage.sol:Storage",
            "label": "index",
            "offset": 0,
            "slot": "2",
            "type": "t_uint256"
          },
          {
            "astId": 1211,
            "contract": "contracts/Storage.sol:Storage",
            "label": "initialPosToken",
            "offset": 0,
            "slot": "3",
            "type": "t_uint256"
          },
          {
            "astId": 1213,
            "contract": "contracts/Storage.sol:Storage",
            "label": "positionSizeWETH",
            "offset": 0,
            "slot": "4",
            "type": "t_uint256"
          },
          {
            "astId": 1215,
            "contract": "contracts/Storage.sol:Storage",
            "label": "openPrice",
            "offset": 0,
            "slot": "5",
            "type": "t_uint256"
          },
          {
            "astId": 1217,
            "contract": "contracts/Storage.sol:Storage",
            "label": "buy",
            "offset": 0,
            "slot": "6",
            "type": "t_bool"
          },
          {
            "astId": 1219,
            "contract": "contracts/Storage.sol:Storage",
            "label": "leverage",
            "offset": 0,
            "slot": "7",
            "type": "t_uint256"
          },
          {
            "astId": 1221,
            "contract": "contracts/Storage.sol:Storage",
            "label": "tp",
            "offset": 0,
            "slot": "8",
            "type": "t_uint256"
          },
          {
            "astId": 1223,
            "contract": "contracts/Storage.sol:Storage",
            "label": "sl",
            "offset": 0,
            "slot": "9",
            "type": "t_uint256"
          }
        ],
        "numberOfBytes": "320"
      },
      "t_struct(TradeInfo)1237_storage": {
        "encoding": "inplace",
        "label": "struct Storage.TradeInfo",
        "members": [
          {
            "astId": 1226,
            "contract": "contracts/Storage.sol:Storage",
            "label": "tokenId",
            "offset": 0,
            "slot": "0",
            "type": "t_uint256"
          },
          {
            "astId": 1228,
            "contract": "contracts/Storage.sol:Storage",
            "label": "tokenPriceWETH",
            "offset": 0,
            "slot": "1",
            "type": "t_uint256"
          },
          {
            "astId": 1230,
            "contract": "contracts/Storage.sol:Storage",
            "label": "openInterestWETH",
            "offset": 0,
            "slot": "2",
            "type": "t_uint256"
          },
          {
            "astId": 1232,
            "contract": "contracts/Storage.sol:Storage",
            "label": "tpLastUpdated",
            "offset": 0,
            "slot": "3",
            "type": "t_uint256"
          },
          {
            "astId": 1234,
            "contract": "contracts/Storage.sol:Storage",
            "label": "slLastUpdated",
            "offset": 0,
            "slot": "4",
            "type": "t_uint256"
          },
          {
            "astId": 1236,
            "contract": "contracts/Storage.sol:Storage",
            "label": "beingMarketClosed",
            "offset": 0,
            "slot": "5",
            "type": "t_bool"
          }
        ],
        "numberOfBytes": "192"
      },
      "t_struct(Trader)1203_storage": {
        "encoding": "inplace",
        "label": "struct Storage.Trader",
        "members": [
          {
            "astId": 1198,
            "contract": "contracts/Storage.sol:Storage",
            "label": "leverageUnlocked",
            "offset": 0,
            "slot": "0",
            "type": "t_uint256"
          },
          {
            "astId": 1200,
            "contract": "contracts/Storage.sol:Storage",
            "label": "referral",
            "offset": 0,
            "slot": "1",
            "type": "t_address"
          },
          {
            "astId": 1202,
            "contract": "contracts/Storage.sol:Storage",
            "label": "referralRewardsTotal",
            "offset": 0,
            "slot": "2",
            "type": "t_uint256"
          }
        ],
        "numberOfBytes": "96"
      },
      "t_uint256": {
        "encoding": "inplace",
        "label": "uint256",
        "numberOfBytes": "32"
      }
    }
  }
}