{
  "address": "0x8b80672AD8A146BbaAd3dd1f7f17Ee730a994e71",
  "abi": [
    {
      "inputs": [
        {
          "internalType": "address",
          "name": "_WETH",
          "type": "address"
        },
        {
          "internalType": "address",
          "name": "_gov",
          "type": "address"
        },
        {
          "internalType": "address",
          "name": "_dev",
          "type": "address"
        }
      ],
      "stateMutability": "nonpayable",
      "type": "constructor"
    },
    {
      "anonymous": false,
      "inputs": [
        {
          "indexed": false,
          "internalType": "string",
          "name": "name",
          "type": "string"
        },
        {
          "indexed": false,
          "internalType": "address",
          "name": "a",
          "type": "address"
        }
      ],
      "name": "AddressUpdated",
      "type": "event"
    },
    {
      "anonymous": false,
      "inputs": [
        {
          "indexed": false,
          "internalType": "contract NftInterfaceV5[5]",
          "name": "nfts",
          "type": "address[5]"
        }
      ],
      "name": "NftsUpdated",
      "type": "event"
    },
    {
      "anonymous": false,
      "inputs": [
        {
          "indexed": false,
          "internalType": "string",
          "name": "name",
          "type": "string"
        },
        {
          "indexed": false,
          "internalType": "uint256",
          "name": "value",
          "type": "uint256"
        }
      ],
      "name": "NumberUpdated",
      "type": "event"
    },
    {
      "anonymous": false,
      "inputs": [
        {
          "indexed": false,
          "internalType": "string",
          "name": "name",
          "type": "string"
        },
        {
          "indexed": false,
          "internalType": "uint256",
          "name": "pairIndex",
          "type": "uint256"
        },
        {
          "indexed": false,
          "internalType": "uint256",
          "name": "value",
          "type": "uint256"
        }
      ],
      "name": "NumberUpdatedPair",
      "type": "event"
    },
    {
      "anonymous": false,
      "inputs": [
        {
          "indexed": false,
          "internalType": "uint256[5]",
          "name": "",
          "type": "uint256[5]"
        }
      ],
      "name": "SpreadReductionsUpdated",
      "type": "event"
    },
    {
      "anonymous": false,
      "inputs": [
        {
          "indexed": false,
          "internalType": "address",
          "name": "a",
          "type": "address"
        }
      ],
      "name": "SupportedTokenAdded",
      "type": "event"
    },
    {
      "anonymous": false,
      "inputs": [
        {
          "indexed": false,
          "internalType": "address",
          "name": "a",
          "type": "address"
        }
      ],
      "name": "TradingContractAdded",
      "type": "event"
    },
    {
      "anonymous": false,
      "inputs": [
        {
          "indexed": false,
          "internalType": "address",
          "name": "a",
          "type": "address"
        }
      ],
      "name": "TradingContractRemoved",
      "type": "event"
    },
    {
      "inputs": [],
      "name": "MINTER_ROLE",
      "outputs": [
        {
          "internalType": "bytes32",
          "name": "",
          "type": "bytes32"
        }
      ],
      "stateMutability": "view",
      "type": "function"
    },
    {
      "inputs": [],
      "name": "PRECISION",
      "outputs": [
        {
          "internalType": "uint256",
          "name": "",
          "type": "uint256"
        }
      ],
      "stateMutability": "view",
      "type": "function"
    },
    {
      "inputs": [],
      "name": "WETH",
      "outputs": [
        {
          "internalType": "contract TokenInterface",
          "name": "",
          "type": "address"
        }
      ],
      "stateMutability": "view",
      "type": "function"
    },
    {
      "inputs": [
        {
          "internalType": "address",
          "name": "_token",
          "type": "address"
        }
      ],
      "name": "addSupportedToken",
      "outputs": [],
      "stateMutability": "nonpayable",
      "type": "function"
    },
    {
      "inputs": [
        {
          "internalType": "address",
          "name": "_trading",
          "type": "address"
        }
      ],
      "name": "addTradingContract",
      "outputs": [],
      "stateMutability": "nonpayable",
      "type": "function"
    },
    {
      "inputs": [],
      "name": "callbacks",
      "outputs": [
        {
          "internalType": "contract PausableInterfaceV5",
          "name": "",
          "type": "address"
        }
      ],
      "stateMutability": "view",
      "type": "function"
    },
    {
      "inputs": [],
      "name": "claimFees",
      "outputs": [],
      "stateMutability": "nonpayable",
      "type": "function"
    },
    {
      "inputs": [],
      "name": "defaultLeverageUnlocked",
      "outputs": [
        {
          "internalType": "uint256",
          "name": "",
          "type": "uint256"
        }
      ],
      "stateMutability": "view",
      "type": "function"
    },
    {
      "inputs": [],
      "name": "dev",
      "outputs": [
        {
          "internalType": "address",
          "name": "",
          "type": "address"
        }
      ],
      "stateMutability": "view",
      "type": "function"
    },
    {
      "inputs": [],
      "name": "devFeesToken",
      "outputs": [
        {
          "internalType": "uint256",
          "name": "",
          "type": "uint256"
        }
      ],
      "stateMutability": "view",
      "type": "function"
    },
    {
      "inputs": [],
      "name": "devFeesWETH",
      "outputs": [
        {
          "internalType": "uint256",
          "name": "",
          "type": "uint256"
        }
      ],
      "stateMutability": "view",
      "type": "function"
    },
    {
      "inputs": [
        {
          "internalType": "uint256",
          "name": "_amount",
          "type": "uint256"
        }
      ],
      "name": "distributeLpRewards",
      "outputs": [],
      "stateMutability": "nonpayable",
      "type": "function"
    },
    {
      "inputs": [
        {
          "internalType": "address",
          "name": "trader",
          "type": "address"
        },
        {
          "internalType": "uint256",
          "name": "pairIndex",
          "type": "uint256"
        }
      ],
      "name": "firstEmptyOpenLimitIndex",
      "outputs": [
        {
          "internalType": "uint256",
          "name": "index",
          "type": "uint256"
        }
      ],
      "stateMutability": "view",
      "type": "function"
    },
    {
      "inputs": [
        {
          "internalType": "address",
          "name": "trader",
          "type": "address"
        },
        {
          "internalType": "uint256",
          "name": "pairIndex",
          "type": "uint256"
        }
      ],
      "name": "firstEmptyTradeIndex",
      "outputs": [
        {
          "internalType": "uint256",
          "name": "index",
          "type": "uint256"
        }
      ],
      "stateMutability": "view",
      "type": "function"
    },
    {
      "inputs": [],
      "name": "getGov",
      "outputs": [
        {
          "internalType": "address",
          "name": "_gov",
          "type": "address"
        }
      ],
      "stateMutability": "view",
      "type": "function"
    },
    {
      "inputs": [
        {
          "internalType": "address",
          "name": "_trader",
          "type": "address"
        }
      ],
      "name": "getLeverageUnlocked",
      "outputs": [
        {
          "internalType": "uint256",
          "name": "",
          "type": "uint256"
        }
      ],
      "stateMutability": "view",
      "type": "function"
    },
    {
      "inputs": [
        {
          "internalType": "address",
          "name": "_trader",
          "type": "address"
        },
        {
          "internalType": "uint256",
          "name": "_pairIndex",
          "type": "uint256"
        },
        {
          "internalType": "uint256",
          "name": "_index",
          "type": "uint256"
        }
      ],
      "name": "getOpenLimitOrder",
      "outputs": [
        {
          "components": [
            {
              "internalType": "address",
              "name": "trader",
              "type": "address"
            },
            {
              "internalType": "uint256",
              "name": "pairIndex",
              "type": "uint256"
            },
            {
              "internalType": "uint256",
              "name": "index",
              "type": "uint256"
            },
            {
              "internalType": "uint256",
              "name": "positionSize",
              "type": "uint256"
            },
            {
              "internalType": "uint256",
              "name": "spreadReductionP",
              "type": "uint256"
            },
            {
              "internalType": "bool",
              "name": "buy",
              "type": "bool"
            },
            {
              "internalType": "uint256",
              "name": "leverage",
              "type": "uint256"
            },
            {
              "internalType": "uint256",
              "name": "tp",
              "type": "uint256"
            },
            {
              "internalType": "uint256",
              "name": "sl",
              "type": "uint256"
            },
            {
              "internalType": "uint256",
              "name": "minPrice",
              "type": "uint256"
            },
            {
              "internalType": "uint256",
              "name": "maxPrice",
              "type": "uint256"
            },
            {
              "internalType": "uint256",
              "name": "block",
              "type": "uint256"
            },
            {
              "internalType": "uint256",
              "name": "tokenId",
              "type": "uint256"
            }
          ],
          "internalType": "struct Storage.OpenLimitOrder",
          "name": "",
          "type": "tuple"
        }
      ],
      "stateMutability": "view",
      "type": "function"
    },
    {
      "inputs": [],
      "name": "getOpenLimitOrders",
      "outputs": [
        {
          "components": [
            {
              "internalType": "address",
              "name": "trader",
              "type": "address"
            },
            {
              "internalType": "uint256",
              "name": "pairIndex",
              "type": "uint256"
            },
            {
              "internalType": "uint256",
              "name": "index",
              "type": "uint256"
            },
            {
              "internalType": "uint256",
              "name": "positionSize",
              "type": "uint256"
            },
            {
              "internalType": "uint256",
              "name": "spreadReductionP",
              "type": "uint256"
            },
            {
              "internalType": "bool",
              "name": "buy",
              "type": "bool"
            },
            {
              "internalType": "uint256",
              "name": "leverage",
              "type": "uint256"
            },
            {
              "internalType": "uint256",
              "name": "tp",
              "type": "uint256"
            },
            {
              "internalType": "uint256",
              "name": "sl",
              "type": "uint256"
            },
            {
              "internalType": "uint256",
              "name": "minPrice",
              "type": "uint256"
            },
            {
              "internalType": "uint256",
              "name": "maxPrice",
              "type": "uint256"
            },
            {
              "internalType": "uint256",
              "name": "block",
              "type": "uint256"
            },
            {
              "internalType": "uint256",
              "name": "tokenId",
              "type": "uint256"
            }
          ],
          "internalType": "struct Storage.OpenLimitOrder[]",
          "name": "",
          "type": "tuple[]"
        }
      ],
      "stateMutability": "view",
      "type": "function"
    },
    {
      "inputs": [
        {
          "internalType": "address",
          "name": "_trader",
          "type": "address"
        }
      ],
      "name": "getPendingOrderIds",
      "outputs": [
        {
          "internalType": "uint256[]",
          "name": "",
          "type": "uint256[]"
        }
      ],
      "stateMutability": "view",
      "type": "function"
    },
    {
      "inputs": [
        {
          "internalType": "address",
          "name": "_trader",
          "type": "address"
        }
      ],
      "name": "getReferral",
      "outputs": [
        {
          "internalType": "address",
          "name": "",
          "type": "address"
        }
      ],
      "stateMutability": "view",
      "type": "function"
    },
    {
      "inputs": [],
      "name": "getSpreadReductionsArray",
      "outputs": [
        {
          "internalType": "uint256[5]",
          "name": "",
          "type": "uint256[5]"
        }
      ],
      "stateMutability": "view",
      "type": "function"
    },
    {
      "inputs": [],
      "name": "getSupportedTokens",
      "outputs": [
        {
          "internalType": "address[]",
          "name": "",
          "type": "address[]"
        }
      ],
      "stateMutability": "view",
      "type": "function"
    },
    {
      "inputs": [],
      "name": "gov",
      "outputs": [
        {
          "internalType": "address",
          "name": "",
          "type": "address"
        }
      ],
      "stateMutability": "view",
      "type": "function"
    },
    {
      "inputs": [],
      "name": "govFeesToken",
      "outputs": [
        {
          "internalType": "uint256",
          "name": "",
          "type": "uint256"
        }
      ],
      "stateMutability": "view",
      "type": "function"
    },
    {
      "inputs": [],
      "name": "govFeesWETH",
      "outputs": [
        {
          "internalType": "uint256",
          "name": "",
          "type": "uint256"
        }
      ],
      "stateMutability": "view",
      "type": "function"
    },
    {
      "inputs": [
        {
          "internalType": "uint256",
          "name": "_pairIndex",
          "type": "uint256"
        },
        {
          "internalType": "uint256",
          "name": "_leveragedPositionSize",
          "type": "uint256"
        },
        {
          "internalType": "bool",
          "name": "_WETH",
          "type": "bool"
        },
        {
          "internalType": "bool",
          "name": "_fullFee",
          "type": "bool"
        }
      ],
      "name": "handleDevGovFees",
      "outputs": [
        {
          "internalType": "uint256",
          "name": "fee",
          "type": "uint256"
        }
      ],
      "stateMutability": "nonpayable",
      "type": "function"
    },
    {
      "inputs": [
        {
          "internalType": "address",
          "name": "_a",
          "type": "address"
        },
        {
          "internalType": "uint256",
          "name": "_amount",
          "type": "uint256"
        },
        {
          "internalType": "bool",
          "name": "_mint",
          "type": "bool"
        }
      ],
      "name": "handleTokens",
      "outputs": [],
      "stateMutability": "nonpayable",
      "type": "function"
    },
    {
      "inputs": [
        {
          "internalType": "address",
          "name": "trader",
          "type": "address"
        },
        {
          "internalType": "uint256",
          "name": "pairIndex",
          "type": "uint256"
        },
        {
          "internalType": "uint256",
          "name": "index",
          "type": "uint256"
        }
      ],
      "name": "hasOpenLimitOrder",
      "outputs": [
        {
          "internalType": "bool",
          "name": "",
          "type": "bool"
        }
      ],
      "stateMutability": "view",
      "type": "function"
    },
    {
      "inputs": [
        {
          "internalType": "uint256",
          "name": "_nftId",
          "type": "uint256"
        },
        {
          "internalType": "uint256",
          "name": "_amount",
          "type": "uint256"
        }
      ],
      "name": "increaseNftRewards",
      "outputs": [],
      "stateMutability": "nonpayable",
      "type": "function"
    },
    {
      "inputs": [
        {
          "internalType": "address",
          "name": "_referral",
          "type": "address"
        },
        {
          "internalType": "uint256",
          "name": "_amount",
          "type": "uint256"
        }
      ],
      "name": "increaseReferralRewards",
      "outputs": [],
      "stateMutability": "nonpayable",
      "type": "function"
    },
    {
      "inputs": [
        {
          "internalType": "address",
          "name": "",
          "type": "address"
        }
      ],
      "name": "isTradingContract",
      "outputs": [
        {
          "internalType": "bool",
          "name": "",
          "type": "bool"
        }
      ],
      "stateMutability": "view",
      "type": "function"
    },
    {
      "inputs": [],
      "name": "linkErc677",
      "outputs": [
        {
          "internalType": "contract TokenInterface",
          "name": "",
          "type": "address"
        }
      ],
      "stateMutability": "view",
      "type": "function"
    },
    {
      "inputs": [],
      "name": "maxGainP",
      "outputs": [
        {
          "internalType": "uint256",
          "name": "",
          "type": "uint256"
        }
      ],
      "stateMutability": "view",
      "type": "function"
    },
    {
      "inputs": [],
      "name": "maxPendingMarketOrders",
      "outputs": [
        {
          "internalType": "uint256",
          "name": "",
          "type": "uint256"
        }
      ],
      "stateMutability": "view",
      "type": "function"
    },
    {
      "inputs": [],
      "name": "maxSlP",
      "outputs": [
        {
          "internalType": "uint256",
          "name": "",
          "type": "uint256"
        }
      ],
      "stateMutability": "view",
      "type": "function"
    },
    {
      "inputs": [],
      "name": "maxTradesPerBlock",
      "outputs": [
        {
          "internalType": "uint256",
          "name": "",
          "type": "uint256"
        }
      ],
      "stateMutability": "view",
      "type": "function"
    },
    {
      "inputs": [],
      "name": "maxTradesPerPair",
      "outputs": [
        {
          "internalType": "uint256",
          "name": "",
          "type": "uint256"
        }
      ],
      "stateMutability": "view",
      "type": "function"
    },
    {
      "inputs": [
        {
          "internalType": "address",
          "name": "_to",
          "type": "address"
        },
        {
          "internalType": "uint256",
          "name": "_amount",
          "type": "uint256"
        }
      ],
      "name": "mintWETH",
      "outputs": [],
      "stateMutability": "nonpayable",
      "type": "function"
    },
    {
      "inputs": [
        {
          "internalType": "uint256",
          "name": "",
          "type": "uint256"
        }
      ],
      "name": "nftLastSuccess",
      "outputs": [
        {
          "internalType": "uint256",
          "name": "",
          "type": "uint256"
        }
      ],
      "stateMutability": "view",
      "type": "function"
    },
    {
      "inputs": [],
      "name": "nftRewards",
      "outputs": [
        {
          "internalType": "uint256",
          "name": "",
          "type": "uint256"
        }
      ],
      "stateMutability": "view",
      "type": "function"
    },
    {
      "inputs": [],
      "name": "nftSuccessTimelock",
      "outputs": [
        {
          "internalType": "uint256",
          "name": "",
          "type": "uint256"
        }
      ],
      "stateMutability": "view",
      "type": "function"
    },
    {
      "inputs": [
        {
          "internalType": "uint256",
          "name": "",
          "type": "uint256"
        }
      ],
      "name": "nfts",
      "outputs": [
        {
          "internalType": "contract NftInterfaceV5",
          "name": "",
          "type": "address"
        }
      ],
      "stateMutability": "view",
      "type": "function"
    },
    {
      "inputs": [
        {
          "internalType": "uint256",
          "name": "",
          "type": "uint256"
        },
        {
          "internalType": "uint256",
          "name": "",
          "type": "uint256"
        }
      ],
      "name": "openInterestWETH",
      "outputs": [
        {
          "internalType": "uint256",
          "name": "",
          "type": "uint256"
        }
      ],
      "stateMutability": "view",
      "type": "function"
    },
    {
      "inputs": [
        {
          "internalType": "address",
          "name": "",
          "type": "address"
        },
        {
          "internalType": "uint256",
          "name": "",
          "type": "uint256"
        },
        {
          "internalType": "uint256",
          "name": "",
          "type": "uint256"
        }
      ],
      "name": "openLimitOrderIds",
      "outputs": [
        {
          "internalType": "uint256",
          "name": "",
          "type": "uint256"
        }
      ],
      "stateMutability": "view",
      "type": "function"
    },
    {
      "inputs": [
        {
          "internalType": "uint256",
          "name": "",
          "type": "uint256"
        }
      ],
      "name": "openLimitOrders",
      "outputs": [
        {
          "internalType": "address",
          "name": "trader",
          "type": "address"
        },
        {
          "internalType": "uint256",
          "name": "pairIndex",
          "type": "uint256"
        },
        {
          "internalType": "uint256",
          "name": "index",
          "type": "uint256"
        },
        {
          "internalType": "uint256",
          "name": "positionSize",
          "type": "uint256"
        },
        {
          "internalType": "uint256",
          "name": "spreadReductionP",
          "type": "uint256"
        },
        {
          "internalType": "bool",
          "name": "buy",
          "type": "bool"
        },
        {
          "internalType": "uint256",
          "name": "leverage",
          "type": "uint256"
        },
        {
          "internalType": "uint256",
          "name": "tp",
          "type": "uint256"
        },
        {
          "internalType": "uint256",
          "name": "sl",
          "type": "uint256"
        },
        {
          "internalType": "uint256",
          "name": "minPrice",
          "type": "uint256"
        },
        {
          "internalType": "uint256",
          "name": "maxPrice",
          "type": "uint256"
        },
        {
          "internalType": "uint256",
          "name": "block",
          "type": "uint256"
        },
        {
          "internalType": "uint256",
          "name": "tokenId",
          "type": "uint256"
        }
      ],
      "stateMutability": "view",
      "type": "function"
    },
    {
      "inputs": [
        {
          "internalType": "address",
          "name": "",
          "type": "address"
        },
        {
          "internalType": "uint256",
          "name": "",
          "type": "uint256"
        }
      ],
      "name": "openLimitOrdersCount",
      "outputs": [
        {
          "internalType": "uint256",
          "name": "",
          "type": "uint256"
        }
      ],
      "stateMutability": "view",
      "type": "function"
    },
    {
      "inputs": [
        {
          "internalType": "address",
          "name": "",
          "type": "address"
        },
        {
          "internalType": "uint256",
          "name": "",
          "type": "uint256"
        },
        {
          "internalType": "uint256",
          "name": "",
          "type": "uint256"
        }
      ],
      "name": "openTrades",
      "outputs": [
        {
          "internalType": "address",
          "name": "trader",
          "type": "address"
        },
        {
          "internalType": "uint256",
          "name": "pairIndex",
          "type": "uint256"
        },
        {
          "internalType": "uint256",
          "name": "index",
          "type": "uint256"
        },
        {
          "internalType": "uint256",
          "name": "initialPosToken",
          "type": "uint256"
        },
        {
          "internalType": "uint256",
          "name": "positionSizeWETH",
          "type": "uint256"
        },
        {
          "internalType": "uint256",
          "name": "openPrice",
          "type": "uint256"
        },
        {
          "internalType": "bool",
          "name": "buy",
          "type": "bool"
        },
        {
          "internalType": "uint256",
          "name": "leverage",
          "type": "uint256"
        },
        {
          "internalType": "uint256",
          "name": "tp",
          "type": "uint256"
        },
        {
          "internalType": "uint256",
          "name": "sl",
          "type": "uint256"
        }
      ],
      "stateMutability": "view",
      "type": "function"
    },
    {
      "inputs": [
        {
          "internalType": "address",
          "name": "",
          "type": "address"
        },
        {
          "internalType": "uint256",
          "name": "",
          "type": "uint256"
        }
      ],
      "name": "openTradesCount",
      "outputs": [
        {
          "internalType": "uint256",
          "name": "",
          "type": "uint256"
        }
      ],
      "stateMutability": "view",
      "type": "function"
    },
    {
      "inputs": [
        {
          "internalType": "address",
          "name": "",
          "type": "address"
        },
        {
          "internalType": "uint256",
          "name": "",
          "type": "uint256"
        },
        {
          "internalType": "uint256",
          "name": "",
          "type": "uint256"
        }
      ],
      "name": "openTradesInfo",
      "outputs": [
        {
          "internalType": "uint256",
          "name": "tokenId",
          "type": "uint256"
        },
        {
          "internalType": "uint256",
          "name": "tokenPriceWETH",
          "type": "uint256"
        },
        {
          "internalType": "uint256",
          "name": "openInterestWETH",
          "type": "uint256"
        },
        {
          "internalType": "uint256",
          "name": "tpLastUpdated",
          "type": "uint256"
        },
        {
          "internalType": "uint256",
          "name": "slLastUpdated",
          "type": "uint256"
        },
        {
          "internalType": "bool",
          "name": "beingMarketClosed",
          "type": "bool"
        }
      ],
      "stateMutability": "view",
      "type": "function"
    },
    {
      "inputs": [
        {
          "internalType": "uint256",
          "name": "",
          "type": "uint256"
        },
        {
          "internalType": "uint256",
          "name": "",
          "type": "uint256"
        }
      ],
      "name": "pairTraders",
      "outputs": [
        {
          "internalType": "address",
          "name": "",
          "type": "address"
        }
      ],
      "stateMutability": "view",
      "type": "function"
    },
    {
      "inputs": [
        {
          "internalType": "uint256",
          "name": "_pairIndex",
          "type": "uint256"
        }
      ],
      "name": "pairTradersArray",
      "outputs": [
        {
          "internalType": "address[]",
          "name": "",
          "type": "address[]"
        }
      ],
      "stateMutability": "view",
      "type": "function"
    },
    {
      "inputs": [
        {
          "internalType": "address",
          "name": "",
          "type": "address"
        },
        {
          "internalType": "uint256",
          "name": "",
          "type": "uint256"
        }
      ],
      "name": "pairTradersId",
      "outputs": [
        {
          "internalType": "uint256",
          "name": "",
          "type": "uint256"
        }
      ],
      "stateMutability": "view",
      "type": "function"
    },
    {
      "inputs": [
        {
          "internalType": "address",
          "name": "",
          "type": "address"
        },
        {
          "internalType": "uint256",
          "name": "",
          "type": "uint256"
        }
      ],
      "name": "pendingMarketCloseCount",
      "outputs": [
        {
          "internalType": "uint256",
          "name": "",
          "type": "uint256"
        }
      ],
      "stateMutability": "view",
      "type": "function"
    },
    {
      "inputs": [
        {
          "internalType": "address",
          "name": "",
          "type": "address"
        },
        {
          "internalType": "uint256",
          "name": "",
          "type": "uint256"
        }
      ],
      "name": "pendingMarketOpenCount",
      "outputs": [
        {
          "internalType": "uint256",
          "name": "",
          "type": "uint256"
        }
      ],
      "stateMutability": "view",
      "type": "function"
    },
    {
      "inputs": [
        {
          "internalType": "address",
          "name": "",
          "type": "address"
        },
        {
          "internalType": "uint256",
          "name": "",
          "type": "uint256"
        }
      ],
      "name": "pendingOrderIds",
      "outputs": [
        {
          "internalType": "uint256",
          "name": "",
          "type": "uint256"
        }
      ],
      "stateMutability": "view",
      "type": "function"
    },
    {
      "inputs": [
        {
          "internalType": "address",
          "name": "_trader",
          "type": "address"
        }
      ],
      "name": "pendingOrderIdsCount",
      "outputs": [
        {
          "internalType": "uint256",
          "name": "",
          "type": "uint256"
        }
      ],
      "stateMutability": "view",
      "type": "function"
    },
    {
      "inputs": [],
      "name": "pool",
      "outputs": [
        {
          "internalType": "contract PoolInterfaceV5",
          "name": "",
          "type": "address"
        }
      ],
      "stateMutability": "view",
      "type": "function"
    },
    {
      "inputs": [],
      "name": "priceAggregator",
      "outputs": [
        {
          "internalType": "contract AggregatorInterfaceV1",
          "name": "",
          "type": "address"
        }
      ],
      "stateMutability": "view",
      "type": "function"
    },
    {
      "inputs": [
        {
          "internalType": "address",
          "name": "_trading",
          "type": "address"
        }
      ],
      "name": "removeTradingContract",
      "outputs": [],
      "stateMutability": "nonpayable",
      "type": "function"
    },
    {
      "inputs": [
        {
          "internalType": "uint256",
          "name": "",
          "type": "uint256"
        }
      ],
      "name": "reqID_pendingMarketOrder",
      "outputs": [
        {
          "components": [
            {
              "internalType": "address",
              "name": "trader",
              "type": "address"
            },
            {
              "internalType": "uint256",
              "name": "pairIndex",
              "type": "uint256"
            },
            {
              "internalType": "uint256",
              "name": "index",
              "type": "uint256"
            },
            {
              "internalType": "uint256",
              "name": "initialPosToken",
              "type": "uint256"
            },
            {
              "internalType": "uint256",
              "name": "positionSizeWETH",
              "type": "uint256"
            },
            {
              "internalType": "uint256",
              "name": "openPrice",
              "type": "uint256"
            },
            {
              "internalType": "bool",
              "name": "buy",
              "type": "bool"
            },
            {
              "internalType": "uint256",
              "name": "leverage",
              "type": "uint256"
            },
            {
              "internalType": "uint256",
              "name": "tp",
              "type": "uint256"
            },
            {
              "internalType": "uint256",
              "name": "sl",
              "type": "uint256"
            }
          ],
          "internalType": "struct Storage.Trade",
          "name": "trade",
          "type": "tuple"
        },
        {
          "internalType": "uint256",
          "name": "block",
          "type": "uint256"
        },
        {
          "internalType": "uint256",
          "name": "wantedPrice",
          "type": "uint256"
        },
        {
          "internalType": "uint256",
          "name": "slippageP",
          "type": "uint256"
        },
        {
          "internalType": "uint256",
          "name": "spreadReductionP",
          "type": "uint256"
        },
        {
          "internalType": "uint256",
          "name": "tokenId",
          "type": "uint256"
        }
      ],
      "stateMutability": "view",
      "type": "function"
    },
    {
      "inputs": [
        {
          "internalType": "uint256",
          "name": "",
          "type": "uint256"
        }
      ],
      "name": "reqID_pendingNftOrder",
      "outputs": [
        {
          "internalType": "address",
          "name": "nftHolder",
          "type": "address"
        },
        {
          "internalType": "uint256",
          "name": "nftId",
          "type": "uint256"
        },
        {
          "internalType": "address",
          "name": "trader",
          "type": "address"
        },
        {
          "internalType": "uint256",
          "name": "pairIndex",
          "type": "uint256"
        },
        {
          "internalType": "uint256",
          "name": "index",
          "type": "uint256"
        },
        {
          "internalType": "enum Storage.LimitOrder",
          "name": "orderType",
          "type": "uint8"
        }
      ],
      "stateMutability": "view",
      "type": "function"
    },
    {
      "inputs": [
        {
          "internalType": "address",
          "name": "_callbacks",
          "type": "address"
        }
      ],
      "name": "setCallbacks",
      "outputs": [],
      "stateMutability": "nonpayable",
      "type": "function"
    },
    {
      "inputs": [
        {
          "internalType": "uint256",
          "name": "_lev",
          "type": "uint256"
        }
      ],
      "name": "setDefaultLeverageUnlocked",
      "outputs": [],
      "stateMutability": "nonpayable",
      "type": "function"
    },
    {
      "inputs": [
        {
          "internalType": "address",
          "name": "_dev",
          "type": "address"
        }
      ],
      "name": "setDev",
      "outputs": [],
      "stateMutability": "nonpayable",
      "type": "function"
    },
    {
      "inputs": [
        {
          "internalType": "address",
          "name": "_gov",
          "type": "address"
        }
      ],
      "name": "setGov",
      "outputs": [],
      "stateMutability": "nonpayable",
      "type": "function"
    },
    {
      "inputs": [
        {
          "internalType": "address",
          "name": "_trader",
          "type": "address"
        },
        {
          "internalType": "uint256",
          "name": "_newLeverage",
          "type": "uint256"
        }
      ],
      "name": "setLeverageUnlocked",
      "outputs": [],
      "stateMutability": "nonpayable",
      "type": "function"
    },
    {
      "inputs": [
        {
          "internalType": "uint256",
          "name": "_max",
          "type": "uint256"
        }
      ],
      "name": "setMaxGainP",
      "outputs": [],
      "stateMutability": "nonpayable",
      "type": "function"
    },
    {
      "inputs": [
        {
          "internalType": "uint256",
          "name": "_pairIndex",
          "type": "uint256"
        },
        {
          "internalType": "uint256",
          "name": "_newMaxOpenInterest",
          "type": "uint256"
        }
      ],
      "name": "setMaxOpenInterestWETH",
      "outputs": [],
      "stateMutability": "nonpayable",
      "type": "function"
    },
    {
      "inputs": [
        {
          "internalType": "uint256",
          "name": "_maxPendingMarketOrders",
          "type": "uint256"
        }
      ],
      "name": "setMaxPendingMarketOrders",
      "outputs": [],
      "stateMutability": "nonpayable",
      "type": "function"
    },
    {
      "inputs": [
        {
          "internalType": "uint256",
          "name": "_max",
          "type": "uint256"
        }
      ],
      "name": "setMaxSlP",
      "outputs": [],
      "stateMutability": "nonpayable",
      "type": "function"
    },
    {
      "inputs": [
        {
          "internalType": "uint256",
          "name": "_maxTradesPerBlock",
          "type": "uint256"
        }
      ],
      "name": "setMaxTradesPerBlock",
      "outputs": [],
      "stateMutability": "nonpayable",
      "type": "function"
    },
    {
      "inputs": [
        {
          "internalType": "uint256",
          "name": "_maxTradesPerPair",
          "type": "uint256"
        }
      ],
      "name": "setMaxTradesPerPair",
      "outputs": [],
      "stateMutability": "nonpayable",
      "type": "function"
    },
    {
      "inputs": [
        {
          "internalType": "uint256",
          "name": "_blocks",
          "type": "uint256"
        }
      ],
      "name": "setNftSuccessTimelock",
      "outputs": [],
      "stateMutability": "nonpayable",
      "type": "function"
    },
    {
      "inputs": [
        {
          "internalType": "address",
          "name": "_pool",
          "type": "address"
        }
      ],
      "name": "setPool",
      "outputs": [],
      "stateMutability": "nonpayable",
      "type": "function"
    },
    {
      "inputs": [
        {
          "internalType": "address",
          "name": "_aggregator",
          "type": "address"
        }
      ],
      "name": "setPriceAggregator",
      "outputs": [],
      "stateMutability": "nonpayable",
      "type": "function"
    },
    {
      "inputs": [
        {
          "internalType": "uint256[5]",
          "name": "_r",
          "type": "uint256[5]"
        }
      ],
      "name": "setSpreadReductionsP",
      "outputs": [],
      "stateMutability": "nonpayable",
      "type": "function"
    },
    {
      "inputs": [
        {
          "internalType": "address",
          "name": "_tokenWETHRouter",
          "type": "address"
        }
      ],
      "name": "setTokenWETHRouter",
      "outputs": [],
      "stateMutability": "nonpayable",
      "type": "function"
    },
    {
      "inputs": [
        {
          "internalType": "address",
          "name": "_trading",
          "type": "address"
        }
      ],
      "name": "setTrading",
      "outputs": [],
      "stateMutability": "nonpayable",
      "type": "function"
    },
    {
      "inputs": [
        {
          "internalType": "address",
          "name": "_vault",
          "type": "address"
        }
      ],
      "name": "setVault",
      "outputs": [],
      "stateMutability": "nonpayable",
      "type": "function"
    },
    {
      "inputs": [
        {
          "internalType": "uint256",
          "name": "",
          "type": "uint256"
        }
      ],
      "name": "spreadReductionsP",
      "outputs": [
        {
          "internalType": "uint256",
          "name": "",
          "type": "uint256"
        }
      ],
      "stateMutability": "view",
      "type": "function"
    },
    {
      "inputs": [
        {
          "components": [
            {
              "internalType": "address",
              "name": "trader",
              "type": "address"
            },
            {
              "internalType": "uint256",
              "name": "pairIndex",
              "type": "uint256"
            },
            {
              "internalType": "uint256",
              "name": "index",
              "type": "uint256"
            },
            {
              "internalType": "uint256",
              "name": "positionSize",
              "type": "uint256"
            },
            {
              "internalType": "uint256",
              "name": "spreadReductionP",
              "type": "uint256"
            },
            {
              "internalType": "bool",
              "name": "buy",
              "type": "bool"
            },
            {
              "internalType": "uint256",
              "name": "leverage",
              "type": "uint256"
            },
            {
              "internalType": "uint256",
              "name": "tp",
              "type": "uint256"
            },
            {
              "internalType": "uint256",
              "name": "sl",
              "type": "uint256"
            },
            {
              "internalType": "uint256",
              "name": "minPrice",
              "type": "uint256"
            },
            {
              "internalType": "uint256",
              "name": "maxPrice",
              "type": "uint256"
            },
            {
              "internalType": "uint256",
              "name": "block",
              "type": "uint256"
            },
            {
              "internalType": "uint256",
              "name": "tokenId",
              "type": "uint256"
            }
          ],
          "internalType": "struct Storage.OpenLimitOrder",
          "name": "o",
          "type": "tuple"
        }
      ],
      "name": "storeOpenLimitOrder",
      "outputs": [],
      "stateMutability": "nonpayable",
      "type": "function"
    },
    {
      "inputs": [
        {
          "components": [
            {
              "components": [
                {
                  "internalType": "address",
                  "name": "trader",
                  "type": "address"
                },
                {
                  "internalType": "uint256",
                  "name": "pairIndex",
                  "type": "uint256"
                },
                {
                  "internalType": "uint256",
                  "name": "index",
                  "type": "uint256"
                },
                {
                  "internalType": "uint256",
                  "name": "initialPosToken",
                  "type": "uint256"
                },
                {
                  "internalType": "uint256",
                  "name": "positionSizeWETH",
                  "type": "uint256"
                },
                {
                  "internalType": "uint256",
                  "name": "openPrice",
                  "type": "uint256"
                },
                {
                  "internalType": "bool",
                  "name": "buy",
                  "type": "bool"
                },
                {
                  "internalType": "uint256",
                  "name": "leverage",
                  "type": "uint256"
                },
                {
                  "internalType": "uint256",
                  "name": "tp",
                  "type": "uint256"
                },
                {
                  "internalType": "uint256",
                  "name": "sl",
                  "type": "uint256"
                }
              ],
              "internalType": "struct Storage.Trade",
              "name": "trade",
              "type": "tuple"
            },
            {
              "internalType": "uint256",
              "name": "block",
              "type": "uint256"
            },
            {
              "internalType": "uint256",
              "name": "wantedPrice",
              "type": "uint256"
            },
            {
              "internalType": "uint256",
              "name": "slippageP",
              "type": "uint256"
            },
            {
              "internalType": "uint256",
              "name": "spreadReductionP",
              "type": "uint256"
            },
            {
              "internalType": "uint256",
              "name": "tokenId",
              "type": "uint256"
            }
          ],
          "internalType": "struct Storage.PendingMarketOrder",
          "name": "_order",
          "type": "tuple"
        },
        {
          "internalType": "uint256",
          "name": "_id",
          "type": "uint256"
        },
        {
          "internalType": "bool",
          "name": "_open",
          "type": "bool"
        }
      ],
      "name": "storePendingMarketOrder",
      "outputs": [],
      "stateMutability": "nonpayable",
      "type": "function"
    },
    {
      "inputs": [
        {
          "components": [
            {
              "internalType": "address",
              "name": "nftHolder",
              "type": "address"
            },
            {
              "internalType": "uint256",
              "name": "nftId",
              "type": "uint256"
            },
            {
              "internalType": "address",
              "name": "trader",
              "type": "address"
            },
            {
              "internalType": "uint256",
              "name": "pairIndex",
              "type": "uint256"
            },
            {
              "internalType": "uint256",
              "name": "index",
              "type": "uint256"
            },
            {
              "internalType": "enum Storage.LimitOrder",
              "name": "orderType",
              "type": "uint8"
            }
          ],
          "internalType": "struct Storage.PendingNftOrder",
          "name": "_nftOrder",
          "type": "tuple"
        },
        {
          "internalType": "uint256",
          "name": "_orderId",
          "type": "uint256"
        }
      ],
      "name": "storePendingNftOrder",
      "outputs": [],
      "stateMutability": "nonpayable",
      "type": "function"
    },
    {
      "inputs": [
        {
          "internalType": "address",
          "name": "_trader",
          "type": "address"
        },
        {
          "internalType": "address",
          "name": "_referral",
          "type": "address"
        }
      ],
      "name": "storeReferral",
      "outputs": [],
      "stateMutability": "nonpayable",
      "type": "function"
    },
    {
      "inputs": [
        {
          "components": [
            {
              "internalType": "address",
              "name": "trader",
              "type": "address"
            },
            {
              "internalType": "uint256",
              "name": "pairIndex",
              "type": "uint256"
            },
            {
              "internalType": "uint256",
              "name": "index",
              "type": "uint256"
            },
            {
              "internalType": "uint256",
              "name": "initialPosToken",
              "type": "uint256"
            },
            {
              "internalType": "uint256",
              "name": "positionSizeWETH",
              "type": "uint256"
            },
            {
              "internalType": "uint256",
              "name": "openPrice",
              "type": "uint256"
            },
            {
              "internalType": "bool",
              "name": "buy",
              "type": "bool"
            },
            {
              "internalType": "uint256",
              "name": "leverage",
              "type": "uint256"
            },
            {
              "internalType": "uint256",
              "name": "tp",
              "type": "uint256"
            },
            {
              "internalType": "uint256",
              "name": "sl",
              "type": "uint256"
            }
          ],
          "internalType": "struct Storage.Trade",
          "name": "_trade",
          "type": "tuple"
        },
        {
          "components": [
            {
              "internalType": "uint256",
              "name": "tokenId",
              "type": "uint256"
            },
            {
              "internalType": "uint256",
              "name": "tokenPriceWETH",
              "type": "uint256"
            },
            {
              "internalType": "uint256",
              "name": "openInterestWETH",
              "type": "uint256"
            },
            {
              "internalType": "uint256",
              "name": "tpLastUpdated",
              "type": "uint256"
            },
            {
              "internalType": "uint256",
              "name": "slLastUpdated",
              "type": "uint256"
            },
            {
              "internalType": "bool",
              "name": "beingMarketClosed",
              "type": "bool"
            }
          ],
          "internalType": "struct Storage.TradeInfo",
          "name": "_tradeInfo",
          "type": "tuple"
        }
      ],
      "name": "storeTrade",
      "outputs": [],
      "stateMutability": "nonpayable",
      "type": "function"
    },
    {
      "inputs": [
        {
          "internalType": "uint256",
          "name": "",
          "type": "uint256"
        }
      ],
      "name": "supportedTokens",
      "outputs": [
        {
          "internalType": "address",
          "name": "",
          "type": "address"
        }
      ],
      "stateMutability": "view",
      "type": "function"
    },
    {
      "inputs": [],
      "name": "token",
      "outputs": [
        {
          "internalType": "contract TokenInterface",
          "name": "",
          "type": "address"
        }
      ],
      "stateMutability": "view",
      "type": "function"
    },
    {
      "inputs": [],
      "name": "tokenWETHRouter",
      "outputs": [
        {
          "internalType": "address",
          "name": "",
          "type": "address"
        }
      ],
      "stateMutability": "view",
      "type": "function"
    },
    {
      "inputs": [],
      "name": "tokensBurned",
      "outputs": [
        {
          "internalType": "uint256",
          "name": "",
          "type": "uint256"
        }
      ],
      "stateMutability": "view",
      "type": "function"
    },
    {
      "inputs": [],
      "name": "tokensMinted",
      "outputs": [
        {
          "internalType": "uint256",
          "name": "",
          "type": "uint256"
        }
      ],
      "stateMutability": "view",
      "type": "function"
    },
    {
      "inputs": [
        {
          "internalType": "address",
          "name": "",
          "type": "address"
        }
      ],
      "name": "traders",
      "outputs": [
        {
          "internalType": "uint256",
          "name": "leverageUnlocked",
          "type": "uint256"
        },
        {
          "internalType": "address",
          "name": "referral",
          "type": "address"
        },
        {
          "internalType": "uint256",
          "name": "referralRewardsTotal",
          "type": "uint256"
        }
      ],
      "stateMutability": "view",
      "type": "function"
    },
    {
      "inputs": [
        {
          "internalType": "uint256",
          "name": "",
          "type": "uint256"
        }
      ],
      "name": "tradesPerBlock",
      "outputs": [
        {
          "internalType": "uint256",
          "name": "",
          "type": "uint256"
        }
      ],
      "stateMutability": "view",
      "type": "function"
    },
    {
      "inputs": [],
      "name": "trading",
      "outputs": [
        {
          "internalType": "contract PausableInterfaceV5",
          "name": "",
          "type": "address"
        }
      ],
      "stateMutability": "view",
      "type": "function"
    },
    {
      "inputs": [
        {
          "internalType": "address",
          "name": "_from",
          "type": "address"
        },
        {
          "internalType": "uint256",
          "name": "_pairIndex",
          "type": "uint256"
        },
        {
          "internalType": "uint256",
          "name": "_leveragedPosWETH",
          "type": "uint256"
        }
      ],
      "name": "transferLinkToAggregator",
      "outputs": [],
      "stateMutability": "nonpayable",
      "type": "function"
    },
    {
      "inputs": [
        {
          "internalType": "address",
          "name": "_from",
          "type": "address"
        },
        {
          "internalType": "address",
          "name": "_to",
          "type": "address"
        },
        {
          "internalType": "uint256",
          "name": "_amount",
          "type": "uint256"
        }
      ],
      "name": "transferWETH",
      "outputs": [],
      "stateMutability": "nonpayable",
      "type": "function"
    },
    {
      "inputs": [
        {
          "internalType": "address",
          "name": "_trader",
          "type": "address"
        },
        {
          "internalType": "uint256",
          "name": "_pairIndex",
          "type": "uint256"
        },
        {
          "internalType": "uint256",
          "name": "_index",
          "type": "uint256"
        }
      ],
      "name": "unregisterOpenLimitOrder",
      "outputs": [],
      "stateMutability": "nonpayable",
      "type": "function"
    },
    {
      "inputs": [
        {
          "internalType": "uint256",
          "name": "_id",
          "type": "uint256"
        },
        {
          "internalType": "bool",
          "name": "_open",
          "type": "bool"
        }
      ],
      "name": "unregisterPendingMarketOrder",
      "outputs": [],
      "stateMutability": "nonpayable",
      "type": "function"
    },
    {
      "inputs": [
        {
          "internalType": "uint256",
          "name": "_order",
          "type": "uint256"
        }
      ],
      "name": "unregisterPendingNftOrder",
      "outputs": [],
      "stateMutability": "nonpayable",
      "type": "function"
    },
    {
      "inputs": [
        {
          "internalType": "address",
          "name": "trader",
          "type": "address"
        },
        {
          "internalType": "uint256",
          "name": "pairIndex",
          "type": "uint256"
        },
        {
          "internalType": "uint256",
          "name": "index",
          "type": "uint256"
        }
      ],
      "name": "unregisterTrade",
      "outputs": [],
      "stateMutability": "nonpayable",
      "type": "function"
    },
    {
      "inputs": [
        {
          "internalType": "contract NftInterfaceV5[5]",
          "name": "_nfts",
          "type": "address[5]"
        }
      ],
      "name": "updateNfts",
      "outputs": [],
      "stateMutability": "nonpayable",
      "type": "function"
    },
    {
      "inputs": [
        {
          "components": [
            {
              "internalType": "address",
              "name": "trader",
              "type": "address"
            },
            {
              "internalType": "uint256",
              "name": "pairIndex",
              "type": "uint256"
            },
            {
              "internalType": "uint256",
              "name": "index",
              "type": "uint256"
            },
            {
              "internalType": "uint256",
              "name": "positionSize",
              "type": "uint256"
            },
            {
              "internalType": "uint256",
              "name": "spreadReductionP",
              "type": "uint256"
            },
            {
              "internalType": "bool",
              "name": "buy",
              "type": "bool"
            },
            {
              "internalType": "uint256",
              "name": "leverage",
              "type": "uint256"
            },
            {
              "internalType": "uint256",
              "name": "tp",
              "type": "uint256"
            },
            {
              "internalType": "uint256",
              "name": "sl",
              "type": "uint256"
            },
            {
              "internalType": "uint256",
              "name": "minPrice",
              "type": "uint256"
            },
            {
              "internalType": "uint256",
              "name": "maxPrice",
              "type": "uint256"
            },
            {
              "internalType": "uint256",
              "name": "block",
              "type": "uint256"
            },
            {
              "internalType": "uint256",
              "name": "tokenId",
              "type": "uint256"
            }
          ],
          "internalType": "struct Storage.OpenLimitOrder",
          "name": "_o",
          "type": "tuple"
        }
      ],
      "name": "updateOpenLimitOrder",
      "outputs": [],
      "stateMutability": "nonpayable",
      "type": "function"
    },
    {
      "inputs": [
        {
          "internalType": "address",
          "name": "_trader",
          "type": "address"
        },
        {
          "internalType": "uint256",
          "name": "_pairIndex",
          "type": "uint256"
        },
        {
          "internalType": "uint256",
          "name": "_index",
          "type": "uint256"
        },
        {
          "internalType": "uint256",
          "name": "_newSl",
          "type": "uint256"
        }
      ],
      "name": "updateSl",
      "outputs": [],
      "stateMutability": "nonpayable",
      "type": "function"
    },
    {
      "inputs": [
        {
          "internalType": "contract TokenInterface",
          "name": "_newToken",
          "type": "address"
        }
      ],
      "name": "updateToken",
      "outputs": [],
      "stateMutability": "nonpayable",
      "type": "function"
    },
    {
      "inputs": [
        {
          "internalType": "address",
          "name": "_trader",
          "type": "address"
        },
        {
          "internalType": "uint256",
          "name": "_pairIndex",
          "type": "uint256"
        },
        {
          "internalType": "uint256",
          "name": "_index",
          "type": "uint256"
        },
        {
          "internalType": "uint256",
          "name": "_newTp",
          "type": "uint256"
        }
      ],
      "name": "updateTp",
      "outputs": [],
      "stateMutability": "nonpayable",
      "type": "function"
    },
    {
      "inputs": [
        {
          "components": [
            {
              "internalType": "address",
              "name": "trader",
              "type": "address"
            },
            {
              "internalType": "uint256",
              "name": "pairIndex",
              "type": "uint256"
            },
            {
              "internalType": "uint256",
              "name": "index",
              "type": "uint256"
            },
            {
              "internalType": "uint256",
              "name": "initialPosToken",
              "type": "uint256"
            },
            {
              "internalType": "uint256",
              "name": "positionSizeWETH",
              "type": "uint256"
            },
            {
              "internalType": "uint256",
              "name": "openPrice",
              "type": "uint256"
            },
            {
              "internalType": "bool",
              "name": "buy",
              "type": "bool"
            },
            {
              "internalType": "uint256",
              "name": "leverage",
              "type": "uint256"
            },
            {
              "internalType": "uint256",
              "name": "tp",
              "type": "uint256"
            },
            {
              "internalType": "uint256",
              "name": "sl",
              "type": "uint256"
            }
          ],
          "internalType": "struct Storage.Trade",
          "name": "_t",
          "type": "tuple"
        }
      ],
      "name": "updateTrade",
      "outputs": [],
      "stateMutability": "nonpayable",
      "type": "function"
    },
    {
      "inputs": [],
      "name": "vault",
      "outputs": [
        {
          "internalType": "address",
          "name": "",
          "type": "address"
        }
      ],
      "stateMutability": "view",
      "type": "function"
    }
  ],
  "transactionHash": "0xad835f4e8e4c415d3854ae187cdf25da7c3dc77b164b6be0d97aa9503de8561e",
  "args": [
    "0x9D867d968F2261c60C969b58Caf8959B2c1347e0",
    "0xa667403454F483dE81A0363Af7FcEE563819D910",
    "0xa667403454F483dE81A0363Af7FcEE563819D910"
  ],
  "numDeployments": 1,
  "solcInputHash": "012b7d34751865cebe2589c70545c828",
  "bytecode": "0x600580546001600160a01b031916737075cab6bcca06613e2d071bd918d1a0241379e217815561012060405273f9a4c522e327935bd1f5a338c121e14e4cc1f89860809081527377cd42b925e1a82f41d852d6be727cfc88fddbbc60a052733378ad81d09de23725ee9b9270635c97ed60192160c0527302e2c5825c1a3b69c0417706dbe1327c2af3e6c260e052732d266a94469d05c9e06d52a4d0d9c23b157767c261010052620000b591600691906200018b565b506003600d556005600e819055600f8181556103846010556050601155603260128190556013556040805160a081018252918252601460208301819052601991830191909152601e6060830152602360808301526200011792909190620001e8565b503480156200012557600080fd5b506040516200504b3803806200504b833981016040819052620001489162000252565b600080546001600160a01b039485166001600160a01b0319918216179091556019805493851693821693909317909255601a80549190931691161790556200029c565b8260058101928215620001d6579160200282015b82811115620001d657825182546001600160a01b0319166001600160a01b039091161782556020909201916001909101906200019f565b50620001e49291506200021e565b5090565b8260058101928215620001d6579160200282015b82811115620001d6578251829060ff16905591602001919060010190620001fc565b5b80821115620001e457600081556001016200021f565b80516001600160a01b03811681146200024d57600080fd5b919050565b6000806000606084860312156200026857600080fd5b620002738462000235565b9250620002836020850162000235565b9150620002936040850162000235565b90509250925092565b614d9f80620002ac6000396000f3fe608060405234801561001057600080fd5b506004361061059d5760003560e01c806392a88fa2116102e6578063d294f09311610193578063ec44acf2116100ef578063f823e2ae1161009d578063f823e2ae146110e0578063f8d24b48146110f3578063fbfa77cf146110fc578063fc0c546a1461110f578063fdb5941314611122578063fe0fc8d61461112b578063fece4eac1461113e57600080fd5b8063ec44acf21461103b578063ecf56a1f1461104e578063eda00d5414611061578063ee92a4ff14611092578063f013d2781461109b578063f65d9dbe146110ae578063f7b3c6fd146110b757600080fd5b8063dc2123ff1161014c578063dc2123ff14610fc0578063dcdf339a14610fd3578063e212991a14610fe6578063e3cbe3a714610ff9578063e3f04eba1461100c578063e76554031461101f578063e7873b581461103257600080fd5b8063d294f09314610f50578063d3b5fe7014610f58578063d3c7c2c714610f6b578063d477f05f14610f73578063d4bda90814610f86578063d539139314610f9957600080fd5b8063b4b0f56711610242578063c122fea6116101fb578063c122fea614610ed5578063c311ab3114610ede578063c625562614610ef1578063c76faf7814610f04578063cab9458014610f17578063cfad57a214610f2a578063cfbacc1414610f3d57600080fd5b8063b4b0f56714610d7f578063b66e6b0514610d92578063b767608a14610e64578063b7682d5414610e77578063b8878a2c14610ea2578063bcc9f1d314610ec257600080fd5b8063a2ab2dee1161029f578063a2ab2dee14610c35578063a354418114610c46578063a3a80ffe14610c59578063a553906c14610d2d578063aa3b7d7714610d40578063aaf5eb6814610d60578063ad5c464814610d6c57600080fd5b806392a88fa214610b04578063959509e414610b5f57806397e7995a14610b6857806399794d3514610b935780639c8912f114610bf75780639d1a107314610c2257600080fd5b806356a6796f1161044f57806377a9fdcf116103ab5780638a0bd702116103595780638a0bd70214610a145780638a238ae514610a295780638bbb644c14610a3c5780638bf7f5f914610a455780638c8ff1d514610a5857806390d112b914610ade57806391cca3db14610af157600080fd5b806377a9fdcf146109a3578063796d82d9146109b65780637ad3def2146109bf5780637fdb96f3146109d25780638049fde7146109e5578063817fa1a4146109ee578063878679e614610a0157600080fd5b80636690a806116104085780636690a806146108f25780636817031b1461090557806368ca199d146109185780636d69fcaf146109415780636d81d981146109545780636de9f32b146109875780637395d79e1461099057600080fd5b806356a6796f146108785780635a9125511461088d5780635ad9f993146108965780635b621e321461089f5780635c76ac9e146108b25780635fbfe8cc146108d257600080fd5b8063292c1617116104fe57806343b8fab5116104b757806343b8fab5146107ce5780634415b369146107e15780634437152a1461080c57806344d44f5a1461081f5780635070e8371461083257806352e5398f146108455780635378143e1461086557600080fd5b8063292c1617146106de5780632d1f941a146106f15780633078fff5146106fa578063321495921461070d5780633b0f0f2f1461078c5780633dae10a0146107bb57600080fd5b8063145ed21c1161055b578063145ed21c1461063357806316f0115b146106465780631c8636b414610659578063201d8bdb1461069257806321f7a30b146106a5578063265aa621146106b857806328b1f887146106cb57600080fd5b8062b12783146105a257806306aef7de146105d2578063099fa934146105e75780630eee3e4a146105fa57806312d43a511461060d57806313b36ff614610620575b600080fd5b6004546105b5906001600160a01b031681565b6040516001600160a01b0390911681526020015b60405180910390f35b6105e56105e03660046142d2565b611159565b005b6105e56105f5366004614359565b6111cc565b6105e5610608366004614372565b611234565b6019546105b5906001600160a01b031681565b6105e561062e366004614359565b6112c8565b6105e56106413660046143a4565b611333565b6002546105b5906001600160a01b031681565b6106846106673660046143c1565b602660209081526000928352604080842090915290825290205481565b6040519081526020016105c9565b6105e56106a0366004614359565b6113c3565b6105e56106b33660046143c1565b61142b565b6105b56106c6366004614359565b61147b565b6105e56106d93660046143c1565b61149b565b6106846106ec3660046143c1565b6114d3565b610684601c5481565b6001546105b5906001600160a01b031681565b61072061071b366004614359565b611537565b604080516001600160a01b03909e168e5260208e019c909c529a8c019990995260608b019790975260808a019590955292151560a089015260c088019190915260e08701526101008601526101208501526101408401526101608301526101808201526101a0016105c9565b6105b561079a3660046143a4565b6001600160a01b039081166000908152602360205260409020600101541690565b6106846107c9366004614359565b6115be565b6105e56107dc366004614359565b6115d5565b6106846107ef3660046143c1565b603060209081526000928352604080842090915290825290205481565b6105e561081a3660046143a4565b61164d565b61068461082d3660046143c1565b6116d2565b6105e56108403660046143a4565b611709565b610684610853366004614359565b60326020526000908152604090205481565b6105e5610873366004614406565b611799565b6108806118bd565b6040516105c99190614448565b61068460115481565b61068460215481565b6105e56108ad3660046143a4565b6118f9565b6108c56108c03660046143a4565b611974565b6040516105c99190614479565b6108e56108e0366004614359565b6119e0565b6040516105c991906144bd565b6105e56109003660046144fe565b611a4b565b6105e56109133660046143a4565b611b78565b6106846109263660046143a4565b6001600160a01b031660009081526023602052604090205490565b6105e561094f3660046143a4565b611bfe565b6109776109623660046143a4565b60346020526000908152604090205460ff1681565b60405190151581526020016105c9565b61068460205481565b6105e561099e366004614372565b611ca6565b6106846109b1366004614372565b611ce5565b610684600e5481565b6105e56109cd3660046143a4565b611d0a565b6105e56109e0366004614533565b611eb0565b610684600f5481565b6105e56109fc36600461456e565b611f39565b600c546105b5906001600160a01b031681565b610a1c611ff1565b6040516105c99190614693565b6105e5610a373660046146d6565b6120e0565b61068460125481565b6105e5610a53366004614359565b61217f565b610aaf610a663660046144fe565b6025602090815260009384526040808520825292845282842090528252902080546001820154600283015460038401546004850154600590950154939492939192909160ff1686565b6040805196875260208701959095529385019290925260608401526080830152151560a082015260c0016105c9565b6105e5610aec3660046144fe565b6121f1565b601a546105b5906001600160a01b031681565b610b3c610b123660046143a4565b60236020526000908152604090208054600182015460029092015490916001600160a01b03169083565b604080519384526001600160a01b039092166020840152908201526060016105c9565b610684601e5481565b610684610b763660046143c1565b602860209081526000928352604080842090915290825290205481565b610be5610ba1366004614359565b602b602052600090815260409020805460018201546002830154600384015460048501546005909501546001600160a01b0394851695939490921692909160ff1686565b6040516105c99695949392919061472d565b610684610c053660046143c1565b602d60209081526000928352604080842090915290825290205481565b6105e5610c30366004614789565b6124f9565b6019546001600160a01b03166105b5565b6105e5610c54366004614533565b6125a8565b610cd7610c673660046144fe565b602460209081526000938452604080852082529284528284209052825290208054600182015460028301546003840154600485015460058601546006870154600788015460088901546009909901546001600160a01b03909816989697959694959394929360ff9092169290918a565b604080516001600160a01b03909b168b5260208b0199909952978901969096526060880194909452608087019290925260a0860152151560c085015260e0840152610100830152610120820152610140016105c9565b6105e5610d3b3660046143a4565b612631565b610684610d4e366004614359565b60336020526000908152604090205481565b6106846402540be40081565b6000546105b5906001600160a01b031681565b6105e5610d8d3660046144fe565b6126b9565b610e52610da0366004614359565b602a6020908152600091825260409182902082516101408101845281546001600160a01b031681526001820154928101929092526002810154928201929092526003820154606082015260048201546080820152600582015460a0820152600682015460ff16151560c0820152600782015460e082015260088201546101008201526009820154610120820152600a820154600b830154600c840154600d850154600e90950154939492939192909186565b6040516105c9969594939291906147c2565b6105e5610e72366004614868565b6129b2565b610684610e853660046143c1565b602e60209081526000928352604080842090915290825290205481565b610eb5610eb03660046144fe565b612ace565b6040516105c99190614881565b610684610ed03660046143c1565b612c52565b61068460105481565b6105e5610eec366004614929565b612c83565b6105b5610eff366004614359565b612ee1565b6105e5610f123660046149b9565b612f0b565b6105e5610f25366004614a4b565b6130db565b6105e5610f383660046143a4565b6133cb565b610684610f4b366004614a70565b61344f565b6105e5613596565b6105e5610f66366004614aba565b6137b2565b6108e5613ab5565b6105e5610f813660046143a4565b613b16565b6105e5610f94366004614b6d565b613b9a565b6106847f9f2df0fed2c77648de5860a4cc508cd0818c85b8b8a1ab4ceeef8d981c8956a681565b6105e5610fce366004614359565b613c24565b610977610fe13660046144fe565b613c95565b6105e5610ff4366004614359565b613d31565b6105b5611007366004614372565b613d97565b6105e561101a366004614359565b613dcf565b6105e561102d3660046143c1565b613e45565b610684601f5481565b6003546105b5906001600160a01b031681565b6105e561105c366004614359565b613ec9565b61068461106f3660046144fe565b602760209081526000938452604080852082529284528284209052825290205481565b610684601b5481565b6105e56110a9366004614b8a565b613f40565b610684600d5481565b6106846110c53660046143a4565b6001600160a01b03166000908152602c602052604090205490565b6105e56110ee3660046143a4565b613fea565b61068460135481565b600b546105b5906001600160a01b031681565b6005546105b5906001600160a01b031681565b610684601d5481565b6105e56111393660046143a4565b614068565b6105b573b0897686c545045afc77cf20ec7a532e3120e0f181565b6019546001600160a01b0316331461117057600080fd5b80516001600160a01b031661118457600080fd5b611191600682600561417d565b507f89a3bfeda71ede5f8735aa09127c97cd56aa3803356c52f7c30caf418238b464816040516111c19190614bc2565b60405180910390a150565b6019546001600160a01b031633146111e357600080fd5b60328110156111f157600080fd5b6011819055604080518181526006918101919091526506d6178536c560d41b606082015260208101829052600080516020614d2a833981519152906080016111c1565b6019546001600160a01b0316331461124b57600080fd5b6000828152603160205260409020819060020155604080516060808252601390820152720dac2f09ee0cadc92dce8cae4cae6e8ae8aa89606b1b6080820152602081018490529081018290527f957cd67ea49f3e1ee953cdd23a1ba1f11d973e842411220d5c24ef0e24e1c9569060a00160405180910390a15050565b6019546001600160a01b031633146112df57600080fd5b61012c8110156112ee57600080fd5b6010819055604080518181526008918101919091526706d61784761696e560c41b606082015260208101829052600080516020614d2a833981519152906080016111c1565b6019546001600160a01b0316331461134a57600080fd5b6001600160a01b03811661135d57600080fd5b600c80546001600160a01b0319166001600160a01b03831690811790915560408051818152600f918101919091526e3a37b5b2b72ba2aa242937baba32b960891b60608201526020810191909152600080516020614d4a833981519152906080016111c1565b3360009081526034602052604090205460ff166113df57600080fd5b6000908152602b6020526040812080546001600160a01b03199081168255600182018390556002820180549091169055600381018290556004810191909155600501805460ff19169055565b3360009081526034602052604090205460ff1661144757600080fd5b6001600160a01b03821660009081526023602052604081206002018054839290611472908490614c09565b90915550505050565b6006816005811061148b57600080fd5b01546001600160a01b0316905081565b3360009081526034602052604090205460ff166114b757600080fd5b6001600160a01b03909116600090815260236020526040902055565b6000805b600d54811015611530576001600160a01b03841660009081526024602090815260408083208684528252808320848452909152812060070154900361151e57809150611530565b8061152881614c1c565b9150506114d7565b5092915050565b6029818154811061154757600080fd5b60009182526020909120600d9091020180546001820154600283015460038401546004850154600586015460068701546007880154600889015460098a0154600a8b0154600b8c0154600c909c01546001600160a01b03909b169c50989a97999698959760ff90951696939592949193909291908d565b601481600581106115ce57600080fd5b0154905081565b6019546001600160a01b031633146115ec57600080fd5b600081116115f957600080fd5b60128190556040805181815260179181019190915276191959985d5b1d13195d995c9859d9555b9b1bd8dad959604a1b606082015260208101829052600080516020614d2a833981519152906080016111c1565b6019546001600160a01b0316331461166457600080fd5b6001600160a01b03811661167757600080fd5b600280546001600160a01b0319166001600160a01b03831690811790915560408051818152600491810191909152631c1bdbdb60e21b60608201526020810191909152600080516020614d4a833981519152906080016111c1565b6000805b600d54811015611530576116eb848483613c95565b6116f757809150611530565b8061170181614c1c565b9150506116d6565b6019546001600160a01b0316331461172057600080fd5b6001600160a01b03811661173357600080fd5b600180546001600160a01b0319166001600160a01b03831690811790915560408051818152600f918101919091526e383934b1b2a0b3b3b932b3b0ba37b960891b60608201526020810191909152600080516020614d4a833981519152906080016111c1565b3360009081526034602052604090205460ff166117b557600080fd5b801561183c576005546040516340c10f1960e01b81526001600160a01b03909116906340c10f19906117ed9086908690600401614c35565b600060405180830381600087803b15801561180757600080fd5b505af115801561181b573d6000803e3d6000fd5b5050505081602060008282546118319190614c09565b909155506118b89050565b600554604051632770a7eb60e21b81526001600160a01b0390911690639dc29fac9061186e9086908690600401614c35565b600060405180830381600087803b15801561188857600080fd5b505af115801561189c573d6000803e3d6000fd5b5050505081601f60008282546118b29190614c09565b90915550505b505050565b6118c56141d5565b6040805160a08101918290529060149060059082845b8154815260200190600101908083116118db575b5050505050905090565b6019546001600160a01b0316331461191057600080fd5b6001600160a01b03811661192357600080fd5b6001600160a01b038116600081815260346020908152604091829020805460ff1916905590519182527ff9cf924d7d98e6e0a27ec523cd7214b0bbdfaba197018b33b41a702f5238190e91016111c1565b6001600160a01b0381166000908152602c60209081526040918290208054835181840281018401909452808452606093928301828280156119d457602002820191906000526020600020905b8154815260200190600101908083116119c0575b50505050509050919050565b6000818152602f60209081526040918290208054835181840281018401909452808452606093928301828280156119d457602002820191906000526020600020905b81546001600160a01b03168152600190910190602001808311611a225750505050509050919050565b3360009081526034602052604090205460ff16611a6757600080fd5b60015460405163b9e0336f60e01b8152600481018490526024810183905273b0897686c545045afc77cf20ec7a532e3120e0f1916323b872dd9186916001600160a01b031690819063b9e0336f90604401602060405180830381865afa158015611ad5573d6000803e3d6000fd5b505050506040513d601f19601f82011682018060405250810190611af99190614c4e565b6040516001600160e01b031960e086901b1681526001600160a01b03938416600482015292909116602483015260448201526064015b6020604051808303816000875af1158015611b4e573d6000803e3d6000fd5b505050506040513d601f19601f82011682018060405250810190611b729190614c67565b50505050565b6019546001600160a01b03163314611b8f57600080fd5b6001600160a01b038116611ba257600080fd5b600b80546001600160a01b0319166001600160a01b03831690811790915560408051818152600591810191909152641d985d5b1d60da1b60608201526020810191909152600080516020614d4a833981519152906080016111c1565b6019546001600160a01b03163314611c1557600080fd5b6001600160a01b038116611c2857600080fd5b602280546001810182556000919091527f61035b26e3e9eee00e0d72fd1ee8ddca6894550dca6916ea2ac6baa90d11e5100180546001600160a01b0319166001600160a01b0383169081179091556040519081527fd1be2e90bd3d24839d9dd94ad871068e1f9688b02fa43f2a62c9975dfa9de2d7906020016111c1565b3360009081526034602052604090205460ff16611cc257600080fd5b600082815260336020526040812043905560218054839290611472908490614c09565b60316020528160005260406000208160038110611d0157600080fd5b01549150829050565b6019546001600160a01b03163314611d2157600080fd5b600360009054906101000a90046001600160a01b03166001600160a01b031663b187bd266040518163ffffffff1660e01b8152600401602060405180830381865afa158015611d74573d6000803e3d6000fd5b505050506040513d601f19601f82011682018060405250810190611d989190614c67565b8015611e0a575060048054604080516358c3de9360e11b815290516001600160a01b039092169263b187bd269282820192602092908290030181865afa158015611de6573d6000803e3d6000fd5b505050506040513d601f19601f82011682018060405250810190611e0a9190614c67565b611e475760405162461bcd60e51b815260206004820152600a6024820152691393d517d4105554d15160b21b604482015260640160405180910390fd5b6001600160a01b038116611e5a57600080fd5b600580546001600160a01b0319166001600160a01b03831690811782556040805181815290810192909252643a37b5b2b760d91b60608301526020820152600080516020614d4a833981519152906080016111c1565b3360009081526034602052604090205460ff16611ecc57600080fd5b6001600160a01b03841660008181526024602090815260408083208784528252808320868452825280832093835260258252808320878452825280832086845290915281206007830154909103611f24575050611b72565b60089091018290554360039091015550505050565b3360009081526034602052604090205460ff16611f5557600080fd5b6000818152602b6020908152604091829020845181546001600160a01b03199081166001600160a01b03928316178355928601516001808401919091559386015160028301805490941691161790915560608401516003808301919091556080850151600483015560a085015160058301805487959293919260ff19909116918490811115611fe657611fe6614717565b021790555050505050565b60606029805480602002602001604051908101604052809291908181526020016000905b828210156120d7576000848152602090819020604080516101a081018252600d860290920180546001600160a01b03168352600180820154848601526002820154928401929092526003810154606084015260048101546080840152600581015460ff16151560a0840152600681015460c0840152600781015460e084015260088101546101008401526009810154610120840152600a810154610140840152600b810154610160840152600c01546101808301529083529092019101612015565b50505050905090565b3360009081526034602052604090205460ff166120fc57600080fd5b306001600160a01b0384160361213e5760005460405163a9059cbb60e01b81526001600160a01b039091169063a9059cbb90611b2f9085908590600401614c35565b6000546040516323b872dd60e01b81526001600160a01b038581166004830152848116602483015260448201849052909116906323b872dd90606401611b2f565b6019546001600160a01b0316331461219657600080fd5b600081116121a357600080fd5b600e81905560408051818152601191810191909152706d6178547261646573506572426c6f636b60781b606082015260208101829052600080516020614d2a833981519152906080016111c1565b3360009081526034602052604090205460ff1661220d57600080fd5b6001600160a01b03831660008181526024602090815260408083208684528252808320858452825280832093835260258252808320868452825280832085845290915281206007830154909103612265575050505050565b6002810154600683015461228091869160009060ff166140f2565b6001600160a01b03851660009081526026602090815260408083208784529091529020546001036123ed576001600160a01b0385166000908152603060209081526040808320878452825280832054602f909252909120805481906122e790600190614c84565b815481106122f7576122f7614bac565b9060005260206000200160009054906101000a90046001600160a01b031681838154811061232757612327614bac565b9060005260206000200160006101000a8154816001600160a01b0302191690836001600160a01b03160217905550816030600083858154811061236c5761236c614bac565b60009182526020808320909101546001600160a01b03908116845283820194909452604092830182208b8352815282822094909455918a168252603083528082208983529092529081205580548190806123c8576123c8614c97565b600082815260209020810160001990810180546001600160a01b031916905501905550505b6001600160a01b03851660008181526024602090815260408083208884528252808320878452825280832080546001600160a01b03191681556001808201859055600280830186905560038084018790556004808501889055600580860189905560068601805460ff19908116909155600787018a9055600887018a90556009909601899055898952602588528689208e8a5288528689208d8a528852868920898155948501899055928401889055908301879055820186905501805490911690559282526026815282822087835290529081208054916124cd83614cad565b90915550504360009081526032602052604081208054916124ed83614c1c565b91905055505050505050565b3360009081526034602052604090205460ff1661251557600080fd5b6001600160a01b0380831660009081526023602052604090209082161580159061254a575060018101546001600160a01b0316155b80156125685750826001600160a01b0316826001600160a01b031614155b61257f5760018101546001600160a01b0316612581565b815b60019190910180546001600160a01b0319166001600160a01b039092169190911790555050565b3360009081526034602052604090205460ff166125c457600080fd5b6001600160a01b0384166000818152602460209081526040808320878452825280832086845282528083209383526025825280832087845282528083208684529091528120600783015490910361261c575050611b72565b60099091018290554360049091015550505050565b6019546001600160a01b0316331461264857600080fd5b6001600160a01b03811661265b57600080fd5b600380546001600160a01b0319166001600160a01b038316908117909155604080518181526007918101919091526674726164696e6760c81b60608201526020810191909152600080516020614d4a833981519152906080016111c1565b3360009081526034602052604090205460ff166126d557600080fd5b6126e0838383613c95565b156118b8576001600160a01b038316600090815260276020908152604080832085845282528083208484529091529020546029805461272190600190614c84565b8154811061273157612731614bac565b90600052602060002090600d02016029828154811061275257612752614bac565b6000918252602082208354600d9092020180546001600160a01b0319166001600160a01b0390921691909117815560018084015490820155600280840154908201556003808401549082015560048084015490820155600580840154908201805460ff909216151560ff1990921691909117905560068084015490820155600780840154908201556008808401549082015560098084015490820155600a8084015490820155600b8084015490820155600c9283015492019190915560298054839260279290918490811061282957612829614bac565b60009182526020808320600d909202909101546001600160a01b031683528201929092526040018120602980549192918590811061286957612869614bac565b90600052602060002090600d020160010154815260200190815260200160002060006029848154811061289e5761289e614bac565b600091825260208083206002600d90930201919091015483528281019390935260409182018120939093556001600160a01b038716835260278252808320868452825280832085845290915281205560298054806128fe576128fe614c97565b60008281526020808220600d6000199094019384020180546001600160a01b03191681556001810183905560028101839055600381018390556004810183905560058101805460ff1916905560068101839055600781018390556008810183905560098101839055600a8101839055600b8101839055600c01829055919092556001600160a01b038616825260288152604080832086845290915281208054916129a783614cad565b919050555050505050565b3360009081526034602052604090205460ff166129ce57600080fd5b6129ed6129de60208301836143a4565b82602001358360400135613c95565b15612acb5760006029602782612a0660208601866143a4565b6001600160a01b0316815260208082019290925260409081016000908120868401358252835281812086830135825290925290205481548110612a4b57612a4b614bac565b90600052602060002090600d02019050816060013581600301819055508160a0016020810190612a7b9190614cc4565b60058201805460ff191691151591909117905560c0820135600682015560e0820135600782015561010082013560088201556101208201356009820155610140820135600a82015543600b909101555b50565b612b44604051806101a0016040528060006001600160a01b0316815260200160008152602001600081526020016000815260200160008152602001600015158152602001600081526020016000815260200160008152602001600081526020016000815260200160008152602001600081525090565b612b4f848484613c95565b612b5857600080fd5b6001600160a01b03841660009081526027602090815260408083208684528252808320858452909152902054602980549091908110612b9957612b99614bac565b6000918252602091829020604080516101a081018252600d90930290910180546001600160a01b031683526001810154938301939093526002830154908201526003820154606082015260048201546080820152600582015460ff16151560a0820152600682015460c0820152600782015460e082015260088201546101008201526009820154610120820152600a820154610140820152600b820154610160820152600c9091015461018082015290505b9392505050565b602c6020528160005260406000208181548110612c6e57600080fd5b90600052602060002001600091509150505481565b3360009081526034602052604090205460ff16612c9f57600080fd5b612cb1826000015183602001516114d3565b604083810191825283516001600160a01b0390811660009081526024602090815283822081880180518452908252848320865184528252848320885181546001600160a01b031916951694851781558151600182015595516002870155606088015160038701556080880151600487015560a0880151600587015560c088015160068701805460ff191691151591909117905560e08801516007870155610100880151600887015561012088015160099096019590955591815260268252828120935181529290528120805491612d8783614c1c565b9091555050436000908152603260205260408120805491612da783614c1c565b909155505081516001600160a01b03166000908152602660209081526040808320828601518452909152902054600103612e4757602082810180516000908152602f80845260408083205487516001600160a01b039081168552603087528285208651865287528285209190915593518352908452812085518154600181018355918352939091200180546001600160a01b031916929091169190911790555b600060a0820181815283516001600160a01b031682526025602090815260408084208287018051865290835281852082880151865283529381902085518155918501516001808401919091559085015160028301819055606086015160038401556080860151600484015592516005909201805460ff191692151592909217909155915160c0850151612edd93919291906140f2565b5050565b60228181548110612ef157600080fd5b6000918252602090912001546001600160a01b0316905081565b3360009081526034602052604090205460ff16612f2757600080fd5b8251516001600160a01b039081166000908152602c6020908152604080832080546001808201835591855283852001879055868452602a8352928190208751805182546001600160a01b031916961695909517815591840151928201929092558282015160028201556060808401516003830155608080850151600484015560a080860151600585015560c086015160068501805460ff191691151591909117905560e08601516007850155610100860151600885015561012090950151600984015592870151600b830155860151600c82015590850151600d82015590840151600e82015543600a909101558015613059578251516001600160a01b03166000908152602d6020908152604080832086518301518452909152812080549161304f83614c1c565b9190505550505050565b8251516001600160a01b03166000908152602e6020908152604080832086518301518452909152812080549161308e83614c1c565b90915550508251516001600160a01b03166000908152602560209081526040808320865183015184528252808320865182015184529091529020600501805460ff19166001179055505050565b3360009081526034602052604090205460ff166130f757600080fd5b6000828152602a6020908152604080832081516102008101835281546001600160a01b031660c08201818152600184015460e08401526002840154610100840152600384015461012084015260048401546101408401526005840154610160840152600684015460ff16151561018084015260078401546101a084015260088401546101c084015260098401546101e08401528252600a83015482860152600b83015482850152600c8301546060830152600d8301546080830152600e9092015460a0820152908452602c909252822090915b81548110156133c457848282815481106131e6576131e6614bac565b9060005260206000200154036133b257831561323b578251516001600160a01b03166000908152602d6020908152604080832086518301518452909152812080549161323183614cad565b91905055506132b6565b8251516001600160a01b03166000908152602e6020908152604080832086518301518452909152812080549161327083614cad565b90915550508251516001600160a01b03166000908152602560209081526040808320865183015184528252808320865182015184529091529020600501805460ff191690555b815482906132c690600190614c84565b815481106132d6576132d6614bac565b90600052602060002001548282815481106132f3576132f3614bac565b90600052602060002001819055508180548061331157613311614c97565b600082815260208082208301600019908101839055909201909255868252602a90526040812080546001600160a01b0319168155600181018290556002810182905560038101829055600481018290556005810182905560068101805460ff19169055600781018290556008810182905560098101829055600a8101829055600b8101829055600c8101829055600d8101829055600e015550612edd915050565b806133bc81614c1c565b9150506131ca565b5050505050565b6019546001600160a01b031633146133e257600080fd5b6001600160a01b0381166133f557600080fd5b601980546001600160a01b0319166001600160a01b038316908117909155604080518181526003918101919091526233b7bb60e91b60608201526020810191909152600080516020614d4a833981519152906080016111c1565b3360009081526034602052604081205460ff1661346b57600080fd5b600154604051630710f2ff60e51b8152600481018790526064916402540be400916001600160a01b039091169063e21e5fe090602401602060405180830381865afa1580156134be573d6000803e3d6000fd5b505050506040513d601f19601f820116820180604052508101906134e29190614c4e565b6134ec9087614ce1565b6134f69190614cf8565b6135009190614cf8565b90508161351557613512600282614cf8565b90505b82156135515780601e600082825461352d9190614c09565b9250508190555080601c60008282546135469190614c09565b909155506135829050565b80601d60008282546135639190614c09565b9250508190555080601b600082825461357c9190614c09565b90915550505b61358d600282614ce1565b95945050505050565b6019546001600160a01b031633146135ad57600080fd5b600554601a54601b546040516340c10f1960e01b81526001600160a01b03938416936340c10f19936135e493911691600401614c35565b600060405180830381600087803b1580156135fe57600080fd5b505af1158015613612573d6000803e3d6000fd5b5050600554601954601d546040516340c10f1960e01b81526001600160a01b0393841695506340c10f19945061364e9390921691600401614c35565b600060405180830381600087803b15801561366857600080fd5b505af115801561367c573d6000803e3d6000fd5b50505050601d54601b546136909190614c09565b602060008282546136a19190614c09565b9091555050600054601954601e5460405163a9059cbb60e01b81526001600160a01b039384169363a9059cbb936136dd93911691600401614c35565b6020604051808303816000875af11580156136fc573d6000803e3d6000fd5b505050506040513d601f19601f820116820180604052508101906137209190614c67565b50600054601a54601c5460405163a9059cbb60e01b81526001600160a01b039384169363a9059cbb9361375893911691600401614c35565b6020604051808303816000875af1158015613777573d6000803e3d6000fd5b505050506040513d601f19601f8201168201806040525081019061379b9190614c67565b506000601b819055601d819055601c819055601e55565b3360009081526034602052604090205460ff166137ce57600080fd5b6137e0816000015182602001516116d2565b604082019081524361016083019081526029805460018082018355600083905285517fcb7c14ce178f56e2e8d86ab33ebc0ae081ba8556a00cd122038841867181caac600d90930292830180546001600160a01b0319166001600160a01b0390921691909117905560208601517fcb7c14ce178f56e2e8d86ab33ebc0ae081ba8556a00cd122038841867181caad83015593517fcb7c14ce178f56e2e8d86ab33ebc0ae081ba8556a00cd122038841867181caae82015560608501517fcb7c14ce178f56e2e8d86ab33ebc0ae081ba8556a00cd122038841867181caaf82015560808501517fcb7c14ce178f56e2e8d86ab33ebc0ae081ba8556a00cd122038841867181cab082015560a08501517fcb7c14ce178f56e2e8d86ab33ebc0ae081ba8556a00cd122038841867181cab18201805460ff191691151591909117905560c08501517fcb7c14ce178f56e2e8d86ab33ebc0ae081ba8556a00cd122038841867181cab282015560e08501517fcb7c14ce178f56e2e8d86ab33ebc0ae081ba8556a00cd122038841867181cab38201556101008501517fcb7c14ce178f56e2e8d86ab33ebc0ae081ba8556a00cd122038841867181cab48201556101208501517fcb7c14ce178f56e2e8d86ab33ebc0ae081ba8556a00cd122038841867181cab58201556101408501517fcb7c14ce178f56e2e8d86ab33ebc0ae081ba8556a00cd122038841867181cab682015591517fcb7c14ce178f56e2e8d86ab33ebc0ae081ba8556a00cd122038841867181cab78301556101808401517fcb7c14ce178f56e2e8d86ab33ebc0ae081ba8556a00cd122038841867181cab89092019190915554613a4f9190614c84565b81516001600160a01b03908116600090815260276020908152604080832082870180518552908352818420828801518552835281842095909555855190931682526028815282822093518252929092528120805491613aad83614c1c565b919050555050565b606060228054806020026020016040519081016040528092919081815260200182805480156118ef57602002820191906000526020600020905b81546001600160a01b03168152600190910190602001808311613aef575050505050905090565b6019546001600160a01b03163314613b2d57600080fd5b6001600160a01b038116613b4057600080fd5b601a80546001600160a01b0319166001600160a01b03831690811790915560408051818152600391810191909152623232bb60e91b60608201526020810191909152600080516020614d4a833981519152906080016111c1565b3360009081526034602052604090205460ff16613bb657600080fd5b80516001600160a01b03166000908152602460209081526040808320828501518452825280832081850151845290915281206007810154909103613bf8575050565b606082015160038201556080820151600482015560a0820151600582015560e082015160079091015550565b6019546001600160a01b03163314613c3b57600080fd5b60008111613c4857600080fd5b600d819055604080518181526010918101919091526f36b0bc2a3930b232b9a832b92830b4b960811b606082015260208101829052600080516020614d2a833981519152906080016111c1565b6029546000908103613ca957506000612c4b565b6001600160a01b03841660009081526027602090815260408083208684528252808320858452909152812054602980549091908110613cea57613cea614bac565b60009182526020909120600d9091020180549091506001600160a01b038681169116148015613d1c5750838160010154145b801561358d5750600201549091149392505050565b6019546001600160a01b03163314613d4857600080fd5b601381905560408051818152601291810191909152716e66745375636365737354696d656c6f636b60701b606082015260208101829052600080516020614d2a833981519152906080016111c1565b602f6020528160005260406000208181548110613db357600080fd5b6000918252602090912001546001600160a01b03169150829050565b3360009081526034602052604090205460ff16613deb57600080fd5b600254604051633104b73f60e21b8152600481018390526001600160a01b039091169063c412dcfc90602401600060405180830381600087803b158015613e3157600080fd5b505af11580156133c4573d6000803e3d6000fd5b3360009081526034602052604090205460ff16613e6157600080fd5b6000546040516340c10f1960e01b81526001600160a01b03909116906340c10f1990613e939085908590600401614c35565b600060405180830381600087803b158015613ead57600080fd5b505af1158015613ec1573d6000803e3d6000fd5b505050505050565b6019546001600160a01b03163314613ee057600080fd5b60008111613eed57600080fd5b600f81905560408051818152601691810191909152756d617850656e64696e674d61726b65744f726465727360501b606082015260208101829052600080516020614d2a833981519152906080016111c1565b6019546001600160a01b03163314613f5757600080fd5b803515801590613f6b575080356020820135115b8015613f7e575060208101356040820135115b8015613f91575060408101356060820135115b8015613fa4575060608101356080820135115b613fad57600080fd5b613fba60148260056141f3565b507fdaae5e047a75b6f38ad4e279cdefe910fc35d5a99a91b8303bd948c0a999372a816040516111c19190614d1a565b6019546001600160a01b0316331461400157600080fd5b6001600160a01b03811661401457600080fd5b6001600160a01b038116600081815260346020908152604091829020805460ff1916600117905590519182527fb692fa98cbec9bd705572b4c7e0927e3f7698e9fe526dcef6f40f3d4d4980ca391016111c1565b6019546001600160a01b0316331461407f57600080fd5b6001600160a01b03811661409257600080fd5b600480546001600160a01b0319166001600160a01b038316908117909155604080518181526009918101919091526863616c6c6261636b7360b81b60608201526020810191909152600080516020614d4a833981519152906080016111c1565b600081614100576001614103565b60005b600086815260316020526040902060ff91909116915083614142578481836003811061413157614131614bac565b015461413d9190614c84565b614161565b8481836003811061415557614155614bac565b01546141619190614c09565b81836003811061417357614173614bac565b0155505050505050565b82600581019282156141c5579160200282015b828111156141c557825182546001600160a01b0319166001600160a01b03909116178255602090920191600190910190614190565b506141d1929150614221565b5090565b6040518060a001604052806005906020820280368337509192915050565b82600581019282156141c5579160200282015b828111156141c5578235825591602001919060010190614206565b5b808211156141d15760008155600101614222565b634e487b7160e01b600052604160045260246000fd5b60405160c0810167ffffffffffffffff8111828210171561426f5761426f614236565b60405290565b604051610140810167ffffffffffffffff8111828210171561426f5761426f614236565b6040516101a0810167ffffffffffffffff8111828210171561426f5761426f614236565b6001600160a01b0381168114612acb57600080fd5b600060a082840312156142e457600080fd5b82601f8301126142f357600080fd5b60405160a0810181811067ffffffffffffffff8211171561431657614316614236565b6040528060a084018581111561432b57600080fd5b845b8181101561434e578035614340816142bd565b83526020928301920161432d565b509195945050505050565b60006020828403121561436b57600080fd5b5035919050565b6000806040838503121561438557600080fd5b50508035926020909101359150565b803561439f816142bd565b919050565b6000602082840312156143b657600080fd5b8135612c4b816142bd565b600080604083850312156143d457600080fd5b82356143df816142bd565b946020939093013593505050565b8015158114612acb57600080fd5b803561439f816143ed565b60008060006060848603121561441b57600080fd5b8335614426816142bd565b925060208401359150604084013561443d816143ed565b809150509250925092565b60a08101818360005b6005811015614470578151835260209283019290910190600101614451565b50505092915050565b6020808252825182820181905260009190848201906040850190845b818110156144b157835183529284019291840191600101614495565b50909695505050505050565b6020808252825182820181905260009190848201906040850190845b818110156144b15783516001600160a01b0316835292840192918401916001016144d9565b60008060006060848603121561451357600080fd5b833561451e816142bd565b95602085013595506040909401359392505050565b6000806000806080858703121561454957600080fd5b8435614554816142bd565b966020860135965060408601359560600135945092505050565b60008082840360e081121561458257600080fd5b60c081121561459057600080fd5b5061459961424c565b83356145a4816142bd565b81526020848101359082015260408401356145be816142bd565b80604083015250606084013560608201526080840135608082015260a0840135600481106145eb57600080fd5b60a08201529460c0939093013593505050565b80516001600160a01b031682526020810151602083015260408101516040830152606081015160608301526080810151608083015260a081015161464660a084018215159052565b5060c0818101519083015260e08082015190830152610100808201519083015261012080820151908301526101408082015190830152610160808201519083015261018090810151910152565b6020808252825182820181905260009190848201906040850190845b818110156144b1576146c28385516145fe565b928401926101a092909201916001016146af565b6000806000606084860312156146eb57600080fd5b83356146f6816142bd565b92506020840135614706816142bd565b929592945050506040919091013590565b634e487b7160e01b600052602160045260246000fd5b6001600160a01b0387811682526020820187905285166040820152606081018490526080810183905260c081016004831061477857634e487b7160e01b600052602160045260246000fd5b8260a0830152979650505050505050565b6000806040838503121561479c57600080fd5b82356147a7816142bd565b915060208301356147b7816142bd565b809150509250929050565b86516001600160a01b031681526101e081016020880151602083015260408801516040830152606088015160608301526080880151608083015260a088015160a083015260c088015161481960c084018215159052565b5060e08881015190830152610100808901519083015261012097880151978201979097526101408101959095526101608501939093526101808401919091526101a08301526101c09091015290565b60006101a0828403121561487b57600080fd5b50919050565b6101a0810161489082846145fe565b92915050565b600061014082840312156148a957600080fd5b6148b1614275565b90506148bc82614394565b81526020820135602082015260408201356040820152606082013560608201526080820135608082015260a082013560a08201526148fc60c083016143fb565b60c082015260e082013560e082015261010080830135818301525061012080830135818301525092915050565b60008082840361020081121561493e57600080fd5b6149488585614896565b925060c061013f198201121561495d57600080fd5b5061496661424c565b6101408401358152610160840135602082015261018084013560408201526101a084013560608201526101c084013560808201526101e08401356149a9816143ed565b60a0820152919491935090915050565b60008060008385036102208112156149d057600080fd5b6101e0808212156149e057600080fd5b6149e861424c565b91506149f48787614896565b82526101408601356020830152610160860135604083015261018086013560608301526101a086013560808301526101c086013560a08301529093508401359150614a4261020085016143fb565b90509250925092565b60008060408385031215614a5e57600080fd5b8235915060208301356147b7816143ed565b60008060008060808587031215614a8657600080fd5b84359350602085013592506040850135614a9f816143ed565b91506060850135614aaf816143ed565b939692955090935050565b60006101a08284031215614acd57600080fd5b614ad5614299565b614ade83614394565b815260208301356020820152604083013560408201526060830135606082015260808301356080820152614b1460a084016143fb565b60a082015260c0838101359082015260e080840135908201526101008084013590820152610120808401359082015261014080840135908201526101608084013590820152610180928301359281019290925250919050565b60006101408284031215614b8057600080fd5b612c4b8383614896565b600060a08284031215614b9c57600080fd5b8260a08301111561487b57600080fd5b634e487b7160e01b600052603260045260246000fd5b60a08101818360005b60058110156144705781516001600160a01b0316835260209283019290910190600101614bcb565b634e487b7160e01b600052601160045260246000fd5b8082018082111561489057614890614bf3565b600060018201614c2e57614c2e614bf3565b5060010190565b6001600160a01b03929092168252602082015260400190565b600060208284031215614c6057600080fd5b5051919050565b600060208284031215614c7957600080fd5b8151612c4b816143ed565b8181038181111561489057614890614bf3565b634e487b7160e01b600052603160045260246000fd5b600081614cbc57614cbc614bf3565b506000190190565b600060208284031215614cd657600080fd5b8135612c4b816143ed565b808202811582820484141761489057614890614bf3565b600082614d1557634e487b7160e01b600052601260045260246000fd5b500490565b60a0818101908383379291505056fe8cf3e35f6221b16e1670a3413180c9484bf5aa71787905909fa82a6a2662e9ab943e9d45a11aaae5d87503e3bc248665d9807856e5cf2bdb4a988bee44422781a2646970667358221220dffa6aba985a569bebae0fd0858e0ab7cbfd3d372a2177046570175a4e4dc04164736f6c63430008140033",
  "devdoc": {
    "kind": "dev",
    "methods": {},
    "version": 1
  },
  "userdoc": {
    "kind": "user",
    "methods": {},
    "version": 1
  },
  "storageLayout": {
    "storage": [
      {
        "astId": 18490,
        "contract": "contracts/Storage.sol:Storage",
        "label": "WETH",
        "offset": 0,
        "slot": "0",
        "type": "t_contract(TokenInterface)30776"
      },
      {
        "astId": 18499,
        "contract": "contracts/Storage.sol:Storage",
        "label": "priceAggregator",
        "offset": 0,
        "slot": "1",
        "type": "t_contract(AggregatorInterfaceV1)28729"
      },
      {
        "astId": 18502,
        "contract": "contracts/Storage.sol:Storage",
        "label": "pool",
        "offset": 0,
        "slot": "2",
        "type": "t_contract(PoolInterfaceV5)30160"
      },
      {
        "astId": 18505,
        "contract": "contracts/Storage.sol:Storage",
        "label": "trading",
        "offset": 0,
        "slot": "3",
        "type": "t_contract(PausableInterfaceV5)30152"
      },
      {
        "astId": 18508,
        "contract": "contracts/Storage.sol:Storage",
        "label": "callbacks",
        "offset": 0,
        "slot": "4",
        "type": "t_contract(PausableInterfaceV5)30152"
      },
      {
        "astId": 18514,
        "contract": "contracts/Storage.sol:Storage",
        "label": "token",
        "offset": 0,
        "slot": "5",
        "type": "t_contract(TokenInterface)30776"
      },
      {
        "astId": 18535,
        "contract": "contracts/Storage.sol:Storage",
        "label": "nfts",
        "offset": 0,
        "slot": "6",
        "type": "t_array(t_contract(NftInterfaceV5)29766)5_storage"
      },
      {
        "astId": 18537,
        "contract": "contracts/Storage.sol:Storage",
        "label": "vault",
        "offset": 0,
        "slot": "11",
        "type": "t_address"
      },
      {
        "astId": 18539,
        "contract": "contracts/Storage.sol:Storage",
        "label": "tokenWETHRouter",
        "offset": 0,
        "slot": "12",
        "type": "t_address"
      },
      {
        "astId": 18542,
        "contract": "contracts/Storage.sol:Storage",
        "label": "maxTradesPerPair",
        "offset": 0,
        "slot": "13",
        "type": "t_uint256"
      },
      {
        "astId": 18545,
        "contract": "contracts/Storage.sol:Storage",
        "label": "maxTradesPerBlock",
        "offset": 0,
        "slot": "14",
        "type": "t_uint256"
      },
      {
        "astId": 18548,
        "contract": "contracts/Storage.sol:Storage",
        "label": "maxPendingMarketOrders",
        "offset": 0,
        "slot": "15",
        "type": "t_uint256"
      },
      {
        "astId": 18551,
        "contract": "contracts/Storage.sol:Storage",
        "label": "maxGainP",
        "offset": 0,
        "slot": "16",
        "type": "t_uint256"
      },
      {
        "astId": 18554,
        "contract": "contracts/Storage.sol:Storage",
        "label": "maxSlP",
        "offset": 0,
        "slot": "17",
        "type": "t_uint256"
      },
      {
        "astId": 18557,
        "contract": "contracts/Storage.sol:Storage",
        "label": "defaultLeverageUnlocked",
        "offset": 0,
        "slot": "18",
        "type": "t_uint256"
      },
      {
        "astId": 18560,
        "contract": "contracts/Storage.sol:Storage",
        "label": "nftSuccessTimelock",
        "offset": 0,
        "slot": "19",
        "type": "t_uint256"
      },
      {
        "astId": 18570,
        "contract": "contracts/Storage.sol:Storage",
        "label": "spreadReductionsP",
        "offset": 0,
        "slot": "20",
        "type": "t_array(t_uint256)5_storage"
      },
      {
        "astId": 18572,
        "contract": "contracts/Storage.sol:Storage",
        "label": "gov",
        "offset": 0,
        "slot": "25",
        "type": "t_address"
      },
      {
        "astId": 18574,
        "contract": "contracts/Storage.sol:Storage",
        "label": "dev",
        "offset": 0,
        "slot": "26",
        "type": "t_address"
      },
      {
        "astId": 18576,
        "contract": "contracts/Storage.sol:Storage",
        "label": "devFeesToken",
        "offset": 0,
        "slot": "27",
        "type": "t_uint256"
      },
      {
        "astId": 18578,
        "contract": "contracts/Storage.sol:Storage",
        "label": "devFeesWETH",
        "offset": 0,
        "slot": "28",
        "type": "t_uint256"
      },
      {
        "astId": 18580,
        "contract": "contracts/Storage.sol:Storage",
        "label": "govFeesToken",
        "offset": 0,
        "slot": "29",
        "type": "t_uint256"
      },
      {
        "astId": 18582,
        "contract": "contracts/Storage.sol:Storage",
        "label": "govFeesWETH",
        "offset": 0,
        "slot": "30",
        "type": "t_uint256"
      },
      {
        "astId": 18584,
        "contract": "contracts/Storage.sol:Storage",
        "label": "tokensBurned",
        "offset": 0,
        "slot": "31",
        "type": "t_uint256"
      },
      {
        "astId": 18586,
        "contract": "contracts/Storage.sol:Storage",
        "label": "tokensMinted",
        "offset": 0,
        "slot": "32",
        "type": "t_uint256"
      },
      {
        "astId": 18588,
        "contract": "contracts/Storage.sol:Storage",
        "label": "nftRewards",
        "offset": 0,
        "slot": "33",
        "type": "t_uint256"
      },
      {
        "astId": 18692,
        "contract": "contracts/Storage.sol:Storage",
        "label": "supportedTokens",
        "offset": 0,
        "slot": "34",
        "type": "t_array(t_address)dyn_storage"
      },
      {
        "astId": 18697,
        "contract": "contracts/Storage.sol:Storage",
        "label": "traders",
        "offset": 0,
        "slot": "35",
        "type": "t_mapping(t_address,t_struct(Trader)18600_storage)"
      },
      {
        "astId": 18706,
        "contract": "contracts/Storage.sol:Storage",
        "label": "openTrades",
        "offset": 0,
        "slot": "36",
        "type": "t_mapping(t_address,t_mapping(t_uint256,t_mapping(t_uint256,t_struct(Trade)18621_storage)))"
      },
      {
        "astId": 18715,
        "contract": "contracts/Storage.sol:Storage",
        "label": "openTradesInfo",
        "offset": 0,
        "slot": "37",
        "type": "t_mapping(t_address,t_mapping(t_uint256,t_mapping(t_uint256,t_struct(TradeInfo)18634_storage)))"
      },
      {
        "astId": 18721,
        "contract": "contracts/Storage.sol:Storage",
        "label": "openTradesCount",
        "offset": 0,
        "slot": "38",
        "type": "t_mapping(t_address,t_mapping(t_uint256,t_uint256))"
      },
      {
        "astId": 18729,
        "contract": "contracts/Storage.sol:Storage",
        "label": "openLimitOrderIds",
        "offset": 0,
        "slot": "39",
        "type": "t_mapping(t_address,t_mapping(t_uint256,t_mapping(t_uint256,t_uint256)))"
      },
      {
        "astId": 18735,
        "contract": "contracts/Storage.sol:Storage",
        "label": "openLimitOrdersCount",
        "offset": 0,
        "slot": "40",
        "type": "t_mapping(t_address,t_mapping(t_uint256,t_uint256))"
      },
      {
        "astId": 18739,
        "contract": "contracts/Storage.sol:Storage",
        "label": "openLimitOrders",
        "offset": 0,
        "slot": "41",
        "type": "t_array(t_struct(OpenLimitOrder)18661_storage)dyn_storage"
      },
      {
        "astId": 18744,
        "contract": "contracts/Storage.sol:Storage",
        "label": "reqID_pendingMarketOrder",
        "offset": 0,
        "slot": "42",
        "type": "t_mapping(t_uint256,t_struct(PendingMarketOrder)18675_storage)"
      },
      {
        "astId": 18749,
        "contract": "contracts/Storage.sol:Storage",
        "label": "reqID_pendingNftOrder",
        "offset": 0,
        "slot": "43",
        "type": "t_mapping(t_uint256,t_struct(PendingNftOrder)18689_storage)"
      },
      {
        "astId": 18754,
        "contract": "contracts/Storage.sol:Storage",
        "label": "pendingOrderIds",
        "offset": 0,
        "slot": "44",
        "type": "t_mapping(t_address,t_array(t_uint256)dyn_storage)"
      },
      {
        "astId": 18760,
        "contract": "contracts/Storage.sol:Storage",
        "label": "pendingMarketOpenCount",
        "offset": 0,
        "slot": "45",
        "type": "t_mapping(t_address,t_mapping(t_uint256,t_uint256))"
      },
      {
        "astId": 18766,
        "contract": "contracts/Storage.sol:Storage",
        "label": "pendingMarketCloseCount",
        "offset": 0,
        "slot": "46",
        "type": "t_mapping(t_address,t_mapping(t_uint256,t_uint256))"
      },
      {
        "astId": 18771,
        "contract": "contracts/Storage.sol:Storage",
        "label": "pairTraders",
        "offset": 0,
        "slot": "47",
        "type": "t_mapping(t_uint256,t_array(t_address)dyn_storage)"
      },
      {
        "astId": 18777,
        "contract": "contracts/Storage.sol:Storage",
        "label": "pairTradersId",
        "offset": 0,
        "slot": "48",
        "type": "t_mapping(t_address,t_mapping(t_uint256,t_uint256))"
      },
      {
        "astId": 18783,
        "contract": "contracts/Storage.sol:Storage",
        "label": "openInterestWETH",
        "offset": 0,
        "slot": "49",
        "type": "t_mapping(t_uint256,t_array(t_uint256)3_storage)"
      },
      {
        "astId": 18787,
        "contract": "contracts/Storage.sol:Storage",
        "label": "tradesPerBlock",
        "offset": 0,
        "slot": "50",
        "type": "t_mapping(t_uint256,t_uint256)"
      },
      {
        "astId": 18791,
        "contract": "contracts/Storage.sol:Storage",
        "label": "nftLastSuccess",
        "offset": 0,
        "slot": "51",
        "type": "t_mapping(t_uint256,t_uint256)"
      },
      {
        "astId": 18795,
        "contract": "contracts/Storage.sol:Storage",
        "label": "isTradingContract",
        "offset": 0,
        "slot": "52",
        "type": "t_mapping(t_address,t_bool)"
      }
    ],
    "types": {
      "t_address": {
        "encoding": "inplace",
        "label": "address",
        "numberOfBytes": "20"
      },
      "t_array(t_address)dyn_storage": {
        "base": "t_address",
        "encoding": "dynamic_array",
        "label": "address[]",
        "numberOfBytes": "32"
      },
      "t_array(t_contract(NftInterfaceV5)29766)5_storage": {
        "base": "t_contract(NftInterfaceV5)29766",
        "encoding": "inplace",
        "label": "contract NftInterfaceV5[5]",
        "numberOfBytes": "160"
      },
      "t_array(t_struct(OpenLimitOrder)18661_storage)dyn_storage": {
        "base": "t_struct(OpenLimitOrder)18661_storage",
        "encoding": "dynamic_array",
        "label": "struct Storage.OpenLimitOrder[]",
        "numberOfBytes": "32"
      },
      "t_array(t_uint256)3_storage": {
        "base": "t_uint256",
        "encoding": "inplace",
        "label": "uint256[3]",
        "numberOfBytes": "96"
      },
      "t_array(t_uint256)5_storage": {
        "base": "t_uint256",
        "encoding": "inplace",
        "label": "uint256[5]",
        "numberOfBytes": "160"
      },
      "t_array(t_uint256)dyn_storage": {
        "base": "t_uint256",
        "encoding": "dynamic_array",
        "label": "uint256[]",
        "numberOfBytes": "32"
      },
      "t_bool": {
        "encoding": "inplace",
        "label": "bool",
        "numberOfBytes": "1"
      },
      "t_contract(AggregatorInterfaceV1)28729": {
        "encoding": "inplace",
        "label": "contract AggregatorInterfaceV1",
        "numberOfBytes": "20"
      },
      "t_contract(NftInterfaceV5)29766": {
        "encoding": "inplace",
        "label": "contract NftInterfaceV5",
        "numberOfBytes": "20"
      },
      "t_contract(PausableInterfaceV5)30152": {
        "encoding": "inplace",
        "label": "contract PausableInterfaceV5",
        "numberOfBytes": "20"
      },
      "t_contract(PoolInterfaceV5)30160": {
        "encoding": "inplace",
        "label": "contract PoolInterfaceV5",
        "numberOfBytes": "20"
      },
      "t_contract(TokenInterface)30776": {
        "encoding": "inplace",
        "label": "contract TokenInterface",
        "numberOfBytes": "20"
      },
      "t_enum(LimitOrder)18593": {
        "encoding": "inplace",
        "label": "enum Storage.LimitOrder",
        "numberOfBytes": "1"
      },
      "t_mapping(t_address,t_array(t_uint256)dyn_storage)": {
        "encoding": "mapping",
        "key": "t_address",
        "label": "mapping(address => uint256[])",
        "numberOfBytes": "32",
        "value": "t_array(t_uint256)dyn_storage"
      },
      "t_mapping(t_address,t_bool)": {
        "encoding": "mapping",
        "key": "t_address",
        "label": "mapping(address => bool)",
        "numberOfBytes": "32",
        "value": "t_bool"
      },
      "t_mapping(t_address,t_mapping(t_uint256,t_mapping(t_uint256,t_struct(Trade)18621_storage)))": {
        "encoding": "mapping",
        "key": "t_address",
        "label": "mapping(address => mapping(uint256 => mapping(uint256 => struct Storage.Trade)))",
        "numberOfBytes": "32",
        "value": "t_mapping(t_uint256,t_mapping(t_uint256,t_struct(Trade)18621_storage))"
      },
      "t_mapping(t_address,t_mapping(t_uint256,t_mapping(t_uint256,t_struct(TradeInfo)18634_storage)))": {
        "encoding": "mapping",
        "key": "t_address",
        "label": "mapping(address => mapping(uint256 => mapping(uint256 => struct Storage.TradeInfo)))",
        "numberOfBytes": "32",
        "value": "t_mapping(t_uint256,t_mapping(t_uint256,t_struct(TradeInfo)18634_storage))"
      },
      "t_mapping(t_address,t_mapping(t_uint256,t_mapping(t_uint256,t_uint256)))": {
        "encoding": "mapping",
        "key": "t_address",
        "label": "mapping(address => mapping(uint256 => mapping(uint256 => uint256)))",
        "numberOfBytes": "32",
        "value": "t_mapping(t_uint256,t_mapping(t_uint256,t_uint256))"
      },
      "t_mapping(t_address,t_mapping(t_uint256,t_uint256))": {
        "encoding": "mapping",
        "key": "t_address",
        "label": "mapping(address => mapping(uint256 => uint256))",
        "numberOfBytes": "32",
        "value": "t_mapping(t_uint256,t_uint256)"
      },
      "t_mapping(t_address,t_struct(Trader)18600_storage)": {
        "encoding": "mapping",
        "key": "t_address",
        "label": "mapping(address => struct Storage.Trader)",
        "numberOfBytes": "32",
        "value": "t_struct(Trader)18600_storage"
      },
      "t_mapping(t_uint256,t_array(t_address)dyn_storage)": {
        "encoding": "mapping",
        "key": "t_uint256",
        "label": "mapping(uint256 => address[])",
        "numberOfBytes": "32",
        "value": "t_array(t_address)dyn_storage"
      },
      "t_mapping(t_uint256,t_array(t_uint256)3_storage)": {
        "encoding": "mapping",
        "key": "t_uint256",
        "label": "mapping(uint256 => uint256[3])",
        "numberOfBytes": "32",
        "value": "t_array(t_uint256)3_storage"
      },
      "t_mapping(t_uint256,t_mapping(t_uint256,t_struct(Trade)18621_storage))": {
        "encoding": "mapping",
        "key": "t_uint256",
        "label": "mapping(uint256 => mapping(uint256 => struct Storage.Trade))",
        "numberOfBytes": "32",
        "value": "t_mapping(t_uint256,t_struct(Trade)18621_storage)"
      },
      "t_mapping(t_uint256,t_mapping(t_uint256,t_struct(TradeInfo)18634_storage))": {
        "encoding": "mapping",
        "key": "t_uint256",
        "label": "mapping(uint256 => mapping(uint256 => struct Storage.TradeInfo))",
        "numberOfBytes": "32",
        "value": "t_mapping(t_uint256,t_struct(TradeInfo)18634_storage)"
      },
      "t_mapping(t_uint256,t_mapping(t_uint256,t_uint256))": {
        "encoding": "mapping",
        "key": "t_uint256",
        "label": "mapping(uint256 => mapping(uint256 => uint256))",
        "numberOfBytes": "32",
        "value": "t_mapping(t_uint256,t_uint256)"
      },
      "t_mapping(t_uint256,t_struct(PendingMarketOrder)18675_storage)": {
        "encoding": "mapping",
        "key": "t_uint256",
        "label": "mapping(uint256 => struct Storage.PendingMarketOrder)",
        "numberOfBytes": "32",
        "value": "t_struct(PendingMarketOrder)18675_storage"
      },
      "t_mapping(t_uint256,t_struct(PendingNftOrder)18689_storage)": {
        "encoding": "mapping",
        "key": "t_uint256",
        "label": "mapping(uint256 => struct Storage.PendingNftOrder)",
        "numberOfBytes": "32",
        "value": "t_struct(PendingNftOrder)18689_storage"
      },
      "t_mapping(t_uint256,t_struct(Trade)18621_storage)": {
        "encoding": "mapping",
        "key": "t_uint256",
        "label": "mapping(uint256 => struct Storage.Trade)",
        "numberOfBytes": "32",
        "value": "t_struct(Trade)18621_storage"
      },
      "t_mapping(t_uint256,t_struct(TradeInfo)18634_storage)": {
        "encoding": "mapping",
        "key": "t_uint256",
        "label": "mapping(uint256 => struct Storage.TradeInfo)",
        "numberOfBytes": "32",
        "value": "t_struct(TradeInfo)18634_storage"
      },
      "t_mapping(t_uint256,t_uint256)": {
        "encoding": "mapping",
        "key": "t_uint256",
        "label": "mapping(uint256 => uint256)",
        "numberOfBytes": "32",
        "value": "t_uint256"
      },
      "t_struct(OpenLimitOrder)18661_storage": {
        "encoding": "inplace",
        "label": "struct Storage.OpenLimitOrder",
        "members": [
          {
            "astId": 18636,
            "contract": "contracts/Storage.sol:Storage",
            "label": "trader",
            "offset": 0,
            "slot": "0",
            "type": "t_address"
          },
          {
            "astId": 18638,
            "contract": "contracts/Storage.sol:Storage",
            "label": "pairIndex",
            "offset": 0,
            "slot": "1",
            "type": "t_uint256"
          },
          {
            "astId": 18640,
            "contract": "contracts/Storage.sol:Storage",
            "label": "index",
            "offset": 0,
            "slot": "2",
            "type": "t_uint256"
          },
          {
            "astId": 18642,
            "contract": "contracts/Storage.sol:Storage",
            "label": "positionSize",
            "offset": 0,
            "slot": "3",
            "type": "t_uint256"
          },
          {
            "astId": 18644,
            "contract": "contracts/Storage.sol:Storage",
            "label": "spreadReductionP",
            "offset": 0,
            "slot": "4",
            "type": "t_uint256"
          },
          {
            "astId": 18646,
            "contract": "contracts/Storage.sol:Storage",
            "label": "buy",
            "offset": 0,
            "slot": "5",
            "type": "t_bool"
          },
          {
            "astId": 18648,
            "contract": "contracts/Storage.sol:Storage",
            "label": "leverage",
            "offset": 0,
            "slot": "6",
            "type": "t_uint256"
          },
          {
            "astId": 18650,
            "contract": "contracts/Storage.sol:Storage",
            "label": "tp",
            "offset": 0,
            "slot": "7",
            "type": "t_uint256"
          },
          {
            "astId": 18652,
            "contract": "contracts/Storage.sol:Storage",
            "label": "sl",
            "offset": 0,
            "slot": "8",
            "type": "t_uint256"
          },
          {
            "astId": 18654,
            "contract": "contracts/Storage.sol:Storage",
            "label": "minPrice",
            "offset": 0,
            "slot": "9",
            "type": "t_uint256"
          },
          {
            "astId": 18656,
            "contract": "contracts/Storage.sol:Storage",
            "label": "maxPrice",
            "offset": 0,
            "slot": "10",
            "type": "t_uint256"
          },
          {
            "astId": 18658,
            "contract": "contracts/Storage.sol:Storage",
            "label": "block",
            "offset": 0,
            "slot": "11",
            "type": "t_uint256"
          },
          {
            "astId": 18660,
            "contract": "contracts/Storage.sol:Storage",
            "label": "tokenId",
            "offset": 0,
            "slot": "12",
            "type": "t_uint256"
          }
        ],
        "numberOfBytes": "416"
      },
      "t_struct(PendingMarketOrder)18675_storage": {
        "encoding": "inplace",
        "label": "struct Storage.PendingMarketOrder",
        "members": [
          {
            "astId": 18664,
            "contract": "contracts/Storage.sol:Storage",
            "label": "trade",
            "offset": 0,
            "slot": "0",
            "type": "t_struct(Trade)18621_storage"
          },
          {
            "astId": 18666,
            "contract": "contracts/Storage.sol:Storage",
            "label": "block",
            "offset": 0,
            "slot": "10",
            "type": "t_uint256"
          },
          {
            "astId": 18668,
            "contract": "contracts/Storage.sol:Storage",
            "label": "wantedPrice",
            "offset": 0,
            "slot": "11",
            "type": "t_uint256"
          },
          {
            "astId": 18670,
            "contract": "contracts/Storage.sol:Storage",
            "label": "slippageP",
            "offset": 0,
            "slot": "12",
            "type": "t_uint256"
          },
          {
            "astId": 18672,
            "contract": "contracts/Storage.sol:Storage",
            "label": "spreadReductionP",
            "offset": 0,
            "slot": "13",
            "type": "t_uint256"
          },
          {
            "astId": 18674,
            "contract": "contracts/Storage.sol:Storage",
            "label": "tokenId",
            "offset": 0,
            "slot": "14",
            "type": "t_uint256"
          }
        ],
        "numberOfBytes": "480"
      },
      "t_struct(PendingNftOrder)18689_storage": {
        "encoding": "inplace",
        "label": "struct Storage.PendingNftOrder",
        "members": [
          {
            "astId": 18677,
            "contract": "contracts/Storage.sol:Storage",
            "label": "nftHolder",
            "offset": 0,
            "slot": "0",
            "type": "t_address"
          },
          {
            "astId": 18679,
            "contract": "contracts/Storage.sol:Storage",
            "label": "nftId",
            "offset": 0,
            "slot": "1",
            "type": "t_uint256"
          },
          {
            "astId": 18681,
            "contract": "contracts/Storage.sol:Storage",
            "label": "trader",
            "offset": 0,
            "slot": "2",
            "type": "t_address"
          },
          {
            "astId": 18683,
            "contract": "contracts/Storage.sol:Storage",
            "label": "pairIndex",
            "offset": 0,
            "slot": "3",
            "type": "t_uint256"
          },
          {
            "astId": 18685,
            "contract": "contracts/Storage.sol:Storage",
            "label": "index",
            "offset": 0,
            "slot": "4",
            "type": "t_uint256"
          },
          {
            "astId": 18688,
            "contract": "contracts/Storage.sol:Storage",
            "label": "orderType",
            "offset": 0,
            "slot": "5",
            "type": "t_enum(LimitOrder)18593"
          }
        ],
        "numberOfBytes": "192"
      },
      "t_struct(Trade)18621_storage": {
        "encoding": "inplace",
        "label": "struct Storage.Trade",
        "members": [
          {
            "astId": 18602,
            "contract": "contracts/Storage.sol:Storage",
            "label": "trader",
            "offset": 0,
            "slot": "0",
            "type": "t_address"
          },
          {
            "astId": 18604,
            "contract": "contracts/Storage.sol:Storage",
            "label": "pairIndex",
            "offset": 0,
            "slot": "1",
            "type": "t_uint256"
          },
          {
            "astId": 18606,
            "contract": "contracts/Storage.sol:Storage",
            "label": "index",
            "offset": 0,
            "slot": "2",
            "type": "t_uint256"
          },
          {
            "astId": 18608,
            "contract": "contracts/Storage.sol:Storage",
            "label": "initialPosToken",
            "offset": 0,
            "slot": "3",
            "type": "t_uint256"
          },
          {
            "astId": 18610,
            "contract": "contracts/Storage.sol:Storage",
            "label": "positionSizeWETH",
            "offset": 0,
            "slot": "4",
            "type": "t_uint256"
          },
          {
            "astId": 18612,
            "contract": "contracts/Storage.sol:Storage",
            "label": "openPrice",
            "offset": 0,
            "slot": "5",
            "type": "t_uint256"
          },
          {
            "astId": 18614,
            "contract": "contracts/Storage.sol:Storage",
            "label": "buy",
            "offset": 0,
            "slot": "6",
            "type": "t_bool"
          },
          {
            "astId": 18616,
            "contract": "contracts/Storage.sol:Storage",
            "label": "leverage",
            "offset": 0,
            "slot": "7",
            "type": "t_uint256"
          },
          {
            "astId": 18618,
            "contract": "contracts/Storage.sol:Storage",
            "label": "tp",
            "offset": 0,
            "slot": "8",
            "type": "t_uint256"
          },
          {
            "astId": 18620,
            "contract": "contracts/Storage.sol:Storage",
            "label": "sl",
            "offset": 0,
            "slot": "9",
            "type": "t_uint256"
          }
        ],
        "numberOfBytes": "320"
      },
      "t_struct(TradeInfo)18634_storage": {
        "encoding": "inplace",
        "label": "struct Storage.TradeInfo",
        "members": [
          {
            "astId": 18623,
            "contract": "contracts/Storage.sol:Storage",
            "label": "tokenId",
            "offset": 0,
            "slot": "0",
            "type": "t_uint256"
          },
          {
            "astId": 18625,
            "contract": "contracts/Storage.sol:Storage",
            "label": "tokenPriceWETH",
            "offset": 0,
            "slot": "1",
            "type": "t_uint256"
          },
          {
            "astId": 18627,
            "contract": "contracts/Storage.sol:Storage",
            "label": "openInterestWETH",
            "offset": 0,
            "slot": "2",
            "type": "t_uint256"
          },
          {
            "astId": 18629,
            "contract": "contracts/Storage.sol:Storage",
            "label": "tpLastUpdated",
            "offset": 0,
            "slot": "3",
            "type": "t_uint256"
          },
          {
            "astId": 18631,
            "contract": "contracts/Storage.sol:Storage",
            "label": "slLastUpdated",
            "offset": 0,
            "slot": "4",
            "type": "t_uint256"
          },
          {
            "astId": 18633,
            "contract": "contracts/Storage.sol:Storage",
            "label": "beingMarketClosed",
            "offset": 0,
            "slot": "5",
            "type": "t_bool"
          }
        ],
        "numberOfBytes": "192"
      },
      "t_struct(Trader)18600_storage": {
        "encoding": "inplace",
        "label": "struct Storage.Trader",
        "members": [
          {
            "astId": 18595,
            "contract": "contracts/Storage.sol:Storage",
            "label": "leverageUnlocked",
            "offset": 0,
            "slot": "0",
            "type": "t_uint256"
          },
          {
            "astId": 18597,
            "contract": "contracts/Storage.sol:Storage",
            "label": "referral",
            "offset": 0,
            "slot": "1",
            "type": "t_address"
          },
          {
            "astId": 18599,
            "contract": "contracts/Storage.sol:Storage",
            "label": "referralRewardsTotal",
            "offset": 0,
            "slot": "2",
            "type": "t_uint256"
          }
        ],
        "numberOfBytes": "96"
      },
      "t_uint256": {
        "encoding": "inplace",
        "label": "uint256",
        "numberOfBytes": "32"
      }
    }
  }
}