{
  "address": "0x03AfFf28429ec8836112526b86282375C6e1A709",
  "abi": [
    {
      "anonymous": false,
      "inputs": [
        {
          "indexed": true,
          "internalType": "uint256",
          "name": "orderId",
          "type": "uint256"
        },
        {
          "components": [
            {
              "components": [
                {
                  "internalType": "address",
                  "name": "trader",
                  "type": "address"
                },
                {
                  "internalType": "uint256",
                  "name": "pairIndex",
                  "type": "uint256"
                },
                {
                  "internalType": "uint256",
                  "name": "index",
                  "type": "uint256"
                },
                {
                  "internalType": "uint256",
                  "name": "initialPosToken",
                  "type": "uint256"
                },
                {
                  "internalType": "uint256",
                  "name": "positionSizeWETH",
                  "type": "uint256"
                },
                {
                  "internalType": "uint256",
                  "name": "openPrice",
                  "type": "uint256"
                },
                {
                  "internalType": "bool",
                  "name": "buy",
                  "type": "bool"
                },
                {
                  "internalType": "uint256",
                  "name": "leverage",
                  "type": "uint256"
                },
                {
                  "internalType": "uint256",
                  "name": "tp",
                  "type": "uint256"
                },
                {
                  "internalType": "uint256",
                  "name": "sl",
                  "type": "uint256"
                }
              ],
              "internalType": "struct StorageInterface.Trade",
              "name": "trade",
              "type": "tuple"
            },
            {
              "internalType": "uint256",
              "name": "block",
              "type": "uint256"
            },
            {
              "internalType": "uint256",
              "name": "wantedPrice",
              "type": "uint256"
            },
            {
              "internalType": "uint256",
              "name": "slippageP",
              "type": "uint256"
            },
            {
              "internalType": "uint256",
              "name": "spreadReductionP",
              "type": "uint256"
            },
            {
              "internalType": "uint256",
              "name": "tokenId",
              "type": "uint256"
            }
          ],
          "indexed": false,
          "internalType": "struct StorageInterface.PendingMarketOrder",
          "name": "order",
          "type": "tuple"
        }
      ],
      "name": "ChainlinkCallbackTimeout",
      "type": "event"
    },
    {
      "anonymous": false,
      "inputs": [
        {
          "indexed": true,
          "internalType": "address",
          "name": "trader",
          "type": "address"
        },
        {
          "indexed": true,
          "internalType": "uint256",
          "name": "pairIndex",
          "type": "uint256"
        },
        {
          "indexed": false,
          "internalType": "uint256",
          "name": "index",
          "type": "uint256"
        }
      ],
      "name": "CouldNotCloseTrade",
      "type": "event"
    },
    {
      "anonymous": false,
      "inputs": [
        {
          "indexed": false,
          "internalType": "bool",
          "name": "done",
          "type": "bool"
        }
      ],
      "name": "Done",
      "type": "event"
    },
    {
      "anonymous": false,
      "inputs": [
        {
          "indexed": false,
          "internalType": "uint8",
          "name": "version",
          "type": "uint8"
        }
      ],
      "name": "Initialized",
      "type": "event"
    },
    {
      "anonymous": false,
      "inputs": [
        {
          "indexed": true,
          "internalType": "uint256",
          "name": "orderId",
          "type": "uint256"
        },
        {
          "indexed": true,
          "internalType": "address",
          "name": "trader",
          "type": "address"
        },
        {
          "indexed": true,
          "internalType": "uint256",
          "name": "pairIndex",
          "type": "uint256"
        },
        {
          "indexed": false,
          "internalType": "bool",
          "name": "open",
          "type": "bool"
        }
      ],
      "name": "MarketOrderInitiated",
      "type": "event"
    },
    {
      "anonymous": false,
      "inputs": [
        {
          "indexed": false,
          "internalType": "uint256",
          "name": "orderId",
          "type": "uint256"
        },
        {
          "indexed": true,
          "internalType": "address",
          "name": "nftHolder",
          "type": "address"
        },
        {
          "indexed": true,
          "internalType": "address",
          "name": "trader",
          "type": "address"
        },
        {
          "indexed": true,
          "internalType": "uint256",
          "name": "pairIndex",
          "type": "uint256"
        }
      ],
      "name": "NftOrderInitiated",
      "type": "event"
    },
    {
      "anonymous": false,
      "inputs": [
        {
          "indexed": true,
          "internalType": "address",
          "name": "nftHolder",
          "type": "address"
        },
        {
          "indexed": true,
          "internalType": "address",
          "name": "trader",
          "type": "address"
        },
        {
          "indexed": true,
          "internalType": "uint256",
          "name": "pairIndex",
          "type": "uint256"
        }
      ],
      "name": "NftOrderSameBlock",
      "type": "event"
    },
    {
      "anonymous": false,
      "inputs": [
        {
          "indexed": false,
          "internalType": "string",
          "name": "name",
          "type": "string"
        },
        {
          "indexed": false,
          "internalType": "uint256",
          "name": "value",
          "type": "uint256"
        }
      ],
      "name": "NumberUpdated",
      "type": "event"
    },
    {
      "anonymous": false,
      "inputs": [
        {
          "indexed": true,
          "internalType": "address",
          "name": "trader",
          "type": "address"
        },
        {
          "indexed": true,
          "internalType": "uint256",
          "name": "pairIndex",
          "type": "uint256"
        },
        {
          "indexed": false,
          "internalType": "uint256",
          "name": "index",
          "type": "uint256"
        }
      ],
      "name": "OpenLimitCanceled",
      "type": "event"
    },
    {
      "anonymous": false,
      "inputs": [
        {
          "indexed": true,
          "internalType": "address",
          "name": "trader",
          "type": "address"
        },
        {
          "indexed": true,
          "internalType": "uint256",
          "name": "pairIndex",
          "type": "uint256"
        },
        {
          "indexed": false,
          "internalType": "uint256",
          "name": "index",
          "type": "uint256"
        }
      ],
      "name": "OpenLimitPlaced",
      "type": "event"
    },
    {
      "anonymous": false,
      "inputs": [
        {
          "indexed": true,
          "internalType": "address",
          "name": "trader",
          "type": "address"
        },
        {
          "indexed": true,
          "internalType": "uint256",
          "name": "pairIndex",
          "type": "uint256"
        },
        {
          "indexed": false,
          "internalType": "uint256",
          "name": "index",
          "type": "uint256"
        },
        {
          "indexed": false,
          "internalType": "uint256",
          "name": "newPrice",
          "type": "uint256"
        },
        {
          "indexed": false,
          "internalType": "uint256",
          "name": "newTp",
          "type": "uint256"
        },
        {
          "indexed": false,
          "internalType": "uint256",
          "name": "newSl",
          "type": "uint256"
        },
        {
          "indexed": false,
          "internalType": "uint256",
          "name": "maxSlippageP",
          "type": "uint256"
        }
      ],
      "name": "OpenLimitUpdated",
      "type": "event"
    },
    {
      "anonymous": false,
      "inputs": [
        {
          "indexed": false,
          "internalType": "bool",
          "name": "paused",
          "type": "bool"
        }
      ],
      "name": "Paused",
      "type": "event"
    },
    {
      "anonymous": false,
      "inputs": [
        {
          "indexed": true,
          "internalType": "address",
          "name": "trader",
          "type": "address"
        },
        {
          "indexed": true,
          "internalType": "uint256",
          "name": "pairIndex",
          "type": "uint256"
        },
        {
          "indexed": false,
          "internalType": "uint256",
          "name": "index",
          "type": "uint256"
        },
        {
          "indexed": false,
          "internalType": "uint256",
          "name": "newSl",
          "type": "uint256"
        }
      ],
      "name": "SlUpdated",
      "type": "event"
    },
    {
      "anonymous": false,
      "inputs": [
        {
          "indexed": true,
          "internalType": "address",
          "name": "trader",
          "type": "address"
        },
        {
          "indexed": true,
          "internalType": "uint256",
          "name": "pairIndex",
          "type": "uint256"
        },
        {
          "indexed": false,
          "internalType": "uint256",
          "name": "index",
          "type": "uint256"
        },
        {
          "indexed": false,
          "internalType": "uint256",
          "name": "newTp",
          "type": "uint256"
        }
      ],
      "name": "TpUpdated",
      "type": "event"
    },
    {
      "inputs": [],
      "name": "_msgSender",
      "outputs": [
        {
          "internalType": "address",
          "name": "",
          "type": "address"
        }
      ],
      "stateMutability": "view",
      "type": "function"
    },
    {
      "inputs": [],
      "name": "borrowingFees",
      "outputs": [
        {
          "internalType": "contract BorrowingFeesInterface",
          "name": "",
          "type": "address"
        }
      ],
      "stateMutability": "view",
      "type": "function"
    },
    {
      "inputs": [],
      "name": "callbacks",
      "outputs": [
        {
          "internalType": "contract CallbacksInterface",
          "name": "",
          "type": "address"
        }
      ],
      "stateMutability": "view",
      "type": "function"
    },
    {
      "inputs": [
        {
          "internalType": "uint256",
          "name": "pairIndex",
          "type": "uint256"
        },
        {
          "internalType": "uint256",
          "name": "index",
          "type": "uint256"
        }
      ],
      "name": "closeTradeMarket",
      "outputs": [],
      "stateMutability": "nonpayable",
      "type": "function"
    },
    {
      "inputs": [
        {
          "internalType": "address",
          "name": "trader",
          "type": "address"
        },
        {
          "internalType": "bytes",
          "name": "call_data",
          "type": "bytes"
        }
      ],
      "name": "delegatedAction",
      "outputs": [
        {
          "internalType": "bytes",
          "name": "",
          "type": "bytes"
        }
      ],
      "stateMutability": "nonpayable",
      "type": "function"
    },
    {
      "inputs": [
        {
          "internalType": "address",
          "name": "",
          "type": "address"
        }
      ],
      "name": "delegations",
      "outputs": [
        {
          "internalType": "address",
          "name": "",
          "type": "address"
        }
      ],
      "stateMutability": "view",
      "type": "function"
    },
    {
      "inputs": [],
      "name": "done",
      "outputs": [],
      "stateMutability": "nonpayable",
      "type": "function"
    },
    {
      "inputs": [
        {
          "internalType": "uint256",
          "name": "_orderType",
          "type": "uint256"
        },
        {
          "internalType": "address",
          "name": "trader",
          "type": "address"
        },
        {
          "internalType": "uint256",
          "name": "pairIndex",
          "type": "uint256"
        },
        {
          "internalType": "uint256",
          "name": "index",
          "type": "uint256"
        },
        {
          "internalType": "uint256",
          "name": "nftId",
          "type": "uint256"
        },
        {
          "internalType": "uint256",
          "name": "nftType",
          "type": "uint256"
        }
      ],
      "name": "executeNftOrder",
      "outputs": [],
      "stateMutability": "nonpayable",
      "type": "function"
    },
    {
      "inputs": [
        {
          "internalType": "uint256[100]",
          "name": "_orderTypes",
          "type": "uint256[100]"
        },
        {
          "internalType": "address[100]",
          "name": "traders",
          "type": "address[100]"
        },
        {
          "internalType": "uint256[100]",
          "name": "pairIndexs",
          "type": "uint256[100]"
        },
        {
          "internalType": "uint256[100]",
          "name": "indexs",
          "type": "uint256[100]"
        },
        {
          "internalType": "uint256",
          "name": "index",
          "type": "uint256"
        }
      ],
      "name": "executeNftOrders",
      "outputs": [],
      "stateMutability": "nonpayable",
      "type": "function"
    },
    {
      "inputs": [
        {
          "internalType": "contract StorageInterface",
          "name": "_storageT",
          "type": "address"
        },
        {
          "internalType": "contract NftRewardsInterfaceV6_3_1",
          "name": "_nftRewards",
          "type": "address"
        },
        {
          "internalType": "contract PairInfosInterface",
          "name": "_pairInfos",
          "type": "address"
        },
        {
          "internalType": "contract ReferralsInterface",
          "name": "_referrals",
          "type": "address"
        },
        {
          "internalType": "contract BorrowingFeesInterface",
          "name": "_borrowingFees",
          "type": "address"
        },
        {
          "internalType": "contract CallbacksInterface",
          "name": "_callbacks",
          "type": "address"
        },
        {
          "internalType": "uint256",
          "name": "_maxPosWETH",
          "type": "uint256"
        },
        {
          "internalType": "uint256",
          "name": "_marketOrdersTimeout",
          "type": "uint256"
        }
      ],
      "name": "initialize",
      "outputs": [],
      "stateMutability": "nonpayable",
      "type": "function"
    },
    {
      "inputs": [],
      "name": "isDone",
      "outputs": [
        {
          "internalType": "bool",
          "name": "",
          "type": "bool"
        }
      ],
      "stateMutability": "view",
      "type": "function"
    },
    {
      "inputs": [],
      "name": "isPaused",
      "outputs": [
        {
          "internalType": "bool",
          "name": "",
          "type": "bool"
        }
      ],
      "stateMutability": "view",
      "type": "function"
    },
    {
      "inputs": [
        {
          "internalType": "address",
          "name": "trader",
          "type": "address"
        },
        {
          "internalType": "uint256",
          "name": "pairIndex",
          "type": "uint256"
        },
        {
          "internalType": "uint256",
          "name": "index",
          "type": "uint256"
        }
      ],
      "name": "isTradeLiquidatable",
      "outputs": [
        {
          "internalType": "bool",
          "name": "",
          "type": "bool"
        }
      ],
      "stateMutability": "view",
      "type": "function"
    },
    {
      "inputs": [
        {
          "components": [
            {
              "internalType": "address",
              "name": "trader",
              "type": "address"
            },
            {
              "internalType": "uint256",
              "name": "pairIndex",
              "type": "uint256"
            },
            {
              "internalType": "uint256",
              "name": "index",
              "type": "uint256"
            },
            {
              "internalType": "uint256",
              "name": "initialPosToken",
              "type": "uint256"
            },
            {
              "internalType": "uint256",
              "name": "positionSizeWETH",
              "type": "uint256"
            },
            {
              "internalType": "uint256",
              "name": "openPrice",
              "type": "uint256"
            },
            {
              "internalType": "bool",
              "name": "buy",
              "type": "bool"
            },
            {
              "internalType": "uint256",
              "name": "leverage",
              "type": "uint256"
            },
            {
              "internalType": "uint256",
              "name": "tp",
              "type": "uint256"
            },
            {
              "internalType": "uint256",
              "name": "sl",
              "type": "uint256"
            }
          ],
          "internalType": "struct StorageInterface.Trade",
          "name": "t",
          "type": "tuple"
        }
      ],
      "name": "isTradeLiquidatablePure",
      "outputs": [
        {
          "internalType": "bool",
          "name": "",
          "type": "bool"
        },
        {
          "internalType": "bool",
          "name": "",
          "type": "bool"
        }
      ],
      "stateMutability": "view",
      "type": "function"
    },
    {
      "inputs": [
        {
          "internalType": "address",
          "name": "trader",
          "type": "address"
        },
        {
          "internalType": "uint256",
          "name": "pairIndex",
          "type": "uint256"
        },
        {
          "internalType": "uint256",
          "name": "index",
          "type": "uint256"
        }
      ],
      "name": "isTradeParLiquidatable",
      "outputs": [
        {
          "internalType": "bool",
          "name": "",
          "type": "bool"
        }
      ],
      "stateMutability": "view",
      "type": "function"
    },
    {
      "inputs": [
        {
          "components": [
            {
              "internalType": "address",
              "name": "trader",
              "type": "address"
            },
            {
              "internalType": "uint256",
              "name": "pairIndex",
              "type": "uint256"
            },
            {
              "internalType": "uint256",
              "name": "index",
              "type": "uint256"
            },
            {
              "internalType": "uint256",
              "name": "initialPosToken",
              "type": "uint256"
            },
            {
              "internalType": "uint256",
              "name": "positionSizeWETH",
              "type": "uint256"
            },
            {
              "internalType": "uint256",
              "name": "openPrice",
              "type": "uint256"
            },
            {
              "internalType": "bool",
              "name": "buy",
              "type": "bool"
            },
            {
              "internalType": "uint256",
              "name": "leverage",
              "type": "uint256"
            },
            {
              "internalType": "uint256",
              "name": "tp",
              "type": "uint256"
            },
            {
              "internalType": "uint256",
              "name": "sl",
              "type": "uint256"
            }
          ],
          "internalType": "struct StorageInterface.Trade",
          "name": "t",
          "type": "tuple"
        }
      ],
      "name": "isTradeParLiquidatablePure",
      "outputs": [
        {
          "internalType": "bool",
          "name": "",
          "type": "bool"
        },
        {
          "internalType": "bool",
          "name": "",
          "type": "bool"
        }
      ],
      "stateMutability": "view",
      "type": "function"
    },
    {
      "inputs": [],
      "name": "marketOrdersTimeout",
      "outputs": [
        {
          "internalType": "uint256",
          "name": "",
          "type": "uint256"
        }
      ],
      "stateMutability": "view",
      "type": "function"
    },
    {
      "inputs": [],
      "name": "maxPosWETH",
      "outputs": [
        {
          "internalType": "uint256",
          "name": "",
          "type": "uint256"
        }
      ],
      "stateMutability": "view",
      "type": "function"
    },
    {
      "inputs": [],
      "name": "minLeveragedPosWETH",
      "outputs": [
        {
          "internalType": "int256",
          "name": "",
          "type": "int256"
        }
      ],
      "stateMutability": "view",
      "type": "function"
    },
    {
      "inputs": [],
      "name": "nftRewards",
      "outputs": [
        {
          "internalType": "contract NftRewardsInterfaceV6_3_1",
          "name": "",
          "type": "address"
        }
      ],
      "stateMutability": "view",
      "type": "function"
    },
    {
      "inputs": [
        {
          "components": [
            {
              "internalType": "address",
              "name": "trader",
              "type": "address"
            },
            {
              "internalType": "uint256",
              "name": "pairIndex",
              "type": "uint256"
            },
            {
              "internalType": "uint256",
              "name": "index",
              "type": "uint256"
            },
            {
              "internalType": "uint256",
              "name": "initialPosToken",
              "type": "uint256"
            },
            {
              "internalType": "uint256",
              "name": "positionSizeWETH",
              "type": "uint256"
            },
            {
              "internalType": "uint256",
              "name": "openPrice",
              "type": "uint256"
            },
            {
              "internalType": "bool",
              "name": "buy",
              "type": "bool"
            },
            {
              "internalType": "uint256",
              "name": "leverage",
              "type": "uint256"
            },
            {
              "internalType": "uint256",
              "name": "tp",
              "type": "uint256"
            },
            {
              "internalType": "uint256",
              "name": "sl",
              "type": "uint256"
            }
          ],
          "internalType": "struct StorageInterface.Trade",
          "name": "t",
          "type": "tuple"
        },
        {
          "internalType": "enum NftRewardsInterfaceV6_3_1.OpenLimitOrderType",
          "name": "orderType",
          "type": "uint8"
        },
        {
          "internalType": "uint256",
          "name": "spreadReductionId",
          "type": "uint256"
        },
        {
          "internalType": "uint256",
          "name": "slippageP",
          "type": "uint256"
        }
      ],
      "name": "openTrade",
      "outputs": [],
      "stateMutability": "nonpayable",
      "type": "function"
    },
    {
      "inputs": [],
      "name": "pairInfos",
      "outputs": [
        {
          "internalType": "contract PairInfosInterface",
          "name": "",
          "type": "address"
        }
      ],
      "stateMutability": "view",
      "type": "function"
    },
    {
      "inputs": [],
      "name": "pause",
      "outputs": [],
      "stateMutability": "nonpayable",
      "type": "function"
    },
    {
      "inputs": [],
      "name": "referrals",
      "outputs": [
        {
          "internalType": "contract ReferralsInterface",
          "name": "",
          "type": "address"
        }
      ],
      "stateMutability": "view",
      "type": "function"
    },
    {
      "inputs": [],
      "name": "removeDelegate",
      "outputs": [],
      "stateMutability": "nonpayable",
      "type": "function"
    },
    {
      "inputs": [
        {
          "internalType": "address",
          "name": "delegate",
          "type": "address"
        }
      ],
      "name": "setDelegate",
      "outputs": [],
      "stateMutability": "nonpayable",
      "type": "function"
    },
    {
      "inputs": [
        {
          "internalType": "uint256",
          "name": "value",
          "type": "uint256"
        }
      ],
      "name": "setMarketOrdersTimeout",
      "outputs": [],
      "stateMutability": "nonpayable",
      "type": "function"
    },
    {
      "inputs": [
        {
          "internalType": "uint256",
          "name": "value",
          "type": "uint256"
        }
      ],
      "name": "setMaxPosWETH",
      "outputs": [],
      "stateMutability": "nonpayable",
      "type": "function"
    },
    {
      "inputs": [],
      "name": "storageT",
      "outputs": [
        {
          "internalType": "contract StorageInterface",
          "name": "",
          "type": "address"
        }
      ],
      "stateMutability": "view",
      "type": "function"
    },
    {
      "inputs": [
        {
          "internalType": "uint256",
          "name": "pairIndex",
          "type": "uint256"
        },
        {
          "internalType": "uint256",
          "name": "index",
          "type": "uint256"
        },
        {
          "internalType": "uint256",
          "name": "newSl",
          "type": "uint256"
        }
      ],
      "name": "updateSl",
      "outputs": [],
      "stateMutability": "nonpayable",
      "type": "function"
    },
    {
      "inputs": [
        {
          "internalType": "uint256",
          "name": "pairIndex",
          "type": "uint256"
        },
        {
          "internalType": "uint256",
          "name": "index",
          "type": "uint256"
        },
        {
          "internalType": "uint256",
          "name": "newTp",
          "type": "uint256"
        }
      ],
      "name": "updateTp",
      "outputs": [],
      "stateMutability": "nonpayable",
      "type": "function"
    }
  ],
  "transactionHash": "0x824ca7e5aa8234101cd3a95d47442b4dd40bdeafa26727a5846cdc2cde51c8fb",
  "args": [],
  "numDeployments": 1,
  "solcInputHash": "77db9ff83738765fb3c209f02149997c",
  "bytecode": "0x6080604052678ac7230489e80000600a5534801561001c57600080fd5b506141228061002c6000396000f3fe608060405234801561001057600080fd5b50600436106101a45760003560e01c80638f062227116100ef578063be73fb9911610092578063be73fb9914610388578063bffe34861461039b578063c740671f146103c4578063ca5eb5e1146103d7578063d3dc7539146103ea578063d8defd15146103fd578063fa7fffba14610410578063ff22dcac1461042357600080fd5b80638f062227146103095780639a10cc321461031b5780639a54adba1461033b578063a2a3c0cb14610344578063ae8421e114610357578063b187bd261461035f578063b1dfd5301461036c578063b81bfa051461037557600080fd5b8063410c0b7c11610157578063410c0b7c14610268578063531cc9651461027f5780635ad9f9931461029257806368cd5088146102a55780636b5bd974146102b8578063760b17c1146102cb5780638456cb59146102de578063870f91d9146102e657600080fd5b8062b12783146101a9578063119df25f146101d95780631346b0ff146101e157806316fff074146101f45780632c1e4e551461020757806336fb8b151461021c57806340b615971461023e575b600080fd5b6007546101bc906001600160a01b031681565b6040516001600160a01b0390911681526020015b60405180910390f35b6101bc610436565b6004546101bc906001600160a01b031681565b6002546101bc906001600160a01b031681565b61021a610215366004613482565b61045e565b005b61021a33600090815260208190526040902080546001600160a01b0319169055565b61025161024c3660046135d3565b6104ef565b6040805192151583529015156020830152016101d0565b61027160095481565b6040519081526020016101d0565b6006546101bc906001600160a01b031681565b6003546101bc906001600160a01b031681565b61021a6102b33660046135f0565b610718565b6102516102c63660046135d3565b61133c565b61021a6102d936600461368e565b6113f2565b61021a61147c565b6102f96102f4366004613738565b6114d2565b60405190151581526020016101d0565b600b546102f990610100900460ff1681565b61032e61032936600461376d565b611675565b6040516101d09190613842565b610271600a5481565b61021a610352366004613855565b6117b0565b61021a611cfe565b600b546102f99060ff1681565b61027160085481565b61021a610383366004613482565b611d5e565b61021a610396366004613877565b611de8565b6101bc6103a93660046138a3565b6000602081905290815260409020546001600160a01b031681565b61021a6103d23660046138c0565b6120f9565b61021a6103e53660046138a3565b612350565b6005546101bc906001600160a01b031681565b61021a61040b366004613877565b6123bc565b61021a61041e366004613955565b612626565b6102f9610431366004613738565b612e78565b6001546000906001600160a01b031661044e57503390565b506001546001600160a01b031690565b610466612f2c565b6000811161048f5760405162461bcd60e51b8152600401610486906139a5565b60405180910390fd5b600881905560408051818152600a91810191909152690dac2f0a0dee6ae8aa8960b31b6060820152602081018290527f8cf3e35f6221b16e1670a3413180c9484bf5aa71787905909fa82a6a2662e9ab906080015b60405180910390a150565b6000808260e0015160000361050957506000928392509050565b6000600660009054906101000a90046001600160a01b03166001600160a01b03166364d372c66040518060e0016040528087600001516001600160a01b0316815260200187602001518152602001876040015181526020018760a0015181526020018760c0015115158152602001876080015181526020018760e001518152506040518263ffffffff1660e01b81526004016105a591906139c6565b602060405180830381865afa1580156105c2573d6000803e3d6000fd5b505050506040513d601f19601f820116820180604052508101906105e69190613a1a565b9050600080600260009054906101000a90046001600160a01b03166001600160a01b0316637dc0d1d06040518163ffffffff1660e01b8152600401602060405180830381865afa15801561063e573d6000803e3d6000fd5b505050506040513d601f19601f820116820180604052508101906106629190613a33565b6001600160a01b031663e757223087602001516040518263ffffffff1660e01b815260040161069391815260200190565b6040805180830381865afa1580156106af573d6000803e3d6000fd5b505050506040513d601f19601f820116820180604052508101906106d39190613a50565b9150915060008661012001516000148061070757508660c001516106fe578661012001518410610707565b86610120015184115b939092111596929550919350505050565b610720612ff0565b610728612ffc565b600b5460ff16156107645760405162461bcd60e51b815260206004820152600660248201526514105554d15160d21b6044820152606401610486565b600019818560a001516107779190613a8a565b106107af5760405162461bcd60e51b81526020600482015260086024820152674f564552464c4f5760c01b6044820152606401610486565b60008460a00151116107f05760405162461bcd60e51b815260206004820152600a60248201526950524943455f5a45524f60b01b6044820152606401610486565b60025460408051633078fff560e01b815290516000926001600160a01b031691633078fff59160048083019260209291908290030181865afa15801561083a573d6000803e3d6000fd5b505050506040513d601f19601f8201168201806040525081019061085e9190613a33565b90506000816001600160a01b03166335b03c176040518163ffffffff1660e01b8152600401602060405180830381865afa1580156108a0573d6000803e3d6000fd5b505050506040513d601f19601f820116820180604052508101906108c49190613a33565b905060006108d0610436565b9050600260009054906101000a90046001600160a01b03166001600160a01b031663f65d9dbe6040518163ffffffff1660e01b8152600401602060405180830381865afa158015610925573d6000803e3d6000fd5b505050506040513d601f19601f820116820180604052508101906109499190613a1a565b6002546020890151604051634bf3ccad60e11b81526001600160a01b03909216916397e7995a9161097f91869190600401613aa1565b602060405180830381865afa15801561099c573d6000803e3d6000fd5b505050506040513d601f19601f820116820180604052508101906109c09190613a1a565b60025460208a0151604051639c8912f160e01b81526001600160a01b0390921691639c8912f1916109f691879190600401613aa1565b602060405180830381865afa158015610a13573d6000803e3d6000fd5b505050506040513d601f19601f82011682018060405250810190610a379190613a1a565b60025460208b01516040516307218dad60e21b81526001600160a01b0390921691631c8636b491610a6d91889190600401613aa1565b602060405180830381865afa158015610a8a573d6000803e3d6000fd5b505050506040513d601f19601f82011682018060405250810190610aae9190613a1a565b610ab89190613aba565b610ac29190613aba565b10610b055760405162461bcd60e51b815260206004820152601360248201527226a0ac2faa2920a222a9afa822a92fa820a4a960691b6044820152606401610486565b600260009054906101000a90046001600160a01b03166001600160a01b0316638049fde76040518163ffffffff1660e01b8152600401602060405180830381865afa158015610b58573d6000803e3d6000fd5b505050506040513d601f19601f82011682018060405250810190610b7c9190613a1a565b60025460405163f7b3c6fd60e01b81526001600160a01b0384811660048301529091169063f7b3c6fd90602401602060405180830381865afa158015610bc6573d6000803e3d6000fd5b505050506040513d601f19601f82011682018060405250810190610bea9190613a1a565b10610c075760405162461bcd60e51b815260040161048690613acd565b60085487608001511115610c4d5760405162461bcd60e51b815260206004820152600d60248201526c41424f56455f4d41585f504f5360981b6044820152606401610486565b602087015160405163601e3b6b60e11b815260048101919091526001600160a01b0383169063c03c76d690602401602060405180830381865afa158015610c98573d6000803e3d6000fd5b505050506040513d601f19601f82011682018060405250810190610cbc9190613a1a565b8760e001518860800151610cd09190613a8a565b1015610d0e5760405162461bcd60e51b815260206004820152600d60248201526c42454c4f575f4d494e5f504f5360981b6044820152606401610486565b60008760e00151118015610d945750602087015160405163059a992d60e41b815260048101919091526001600160a01b038316906359a992d090602401602060405180830381865afa158015610d68573d6000803e3d6000fd5b505050506040513d601f19601f82011682018060405250810190610d8c9190613a1a565b8760e0015110155b8015610db15750610da982886020015161303d565b8760e0015111155b610df25760405162461bcd60e51b815260206004820152601260248201527113115591549051d157d25390d3d4949150d560721b6044820152606401610486565b6101008701511580610e2657508660c00151610e19578660a0015187610100015110610e26565b8660a00151876101000151115b610e5d5760405162461bcd60e51b8152602060048201526008602482015267057524f4e475f54560c41b6044820152606401610486565b6101208701511580610e9157508660c00151610e84578660a0015187610120015111610e91565b8660a00151876101200151105b610ec85760405162461bcd60e51b815260206004820152600860248201526715d493d391d7d4d360c21b6044820152606401610486565b600454602088015160c089015160e08a015160808b01516000946001600160a01b031693637ea95f3293869391929091610f0191613a8a565b6040516001600160e01b031960e087901b168152600481019490945260248401929092521515604483015260648201526084016040805180830381865afa158015610f50573d6000803e3d6000fd5b505050506040513d601f19601f82011682018060405250810190610f749190613a50565b509050600460009054906101000a90046001600160a01b03166001600160a01b03166380f6cfc26040518163ffffffff1660e01b8152600401602060405180830381865afa158015610fca573d6000803e3d6000fd5b505050506040513d601f19601f82011682018060405250810190610fee9190613a1a565b60e0890151610ffd9083613a8a565b11156110435760405162461bcd60e51b81526020600482015260156024820152740a0a492868abe929aa08286a8bea89e9ebe90928e9605b1b6044820152606401610486565b6002546080890151604051638a238ae560e01b81526001600160a01b03858116600483015290921660248301819052604483019190915290638a238ae590606401600060405180830381600087803b15801561109e57600080fd5b505af11580156110b2573d6000803e3d6000fd5b50600092506110bf915050565b8760028111156110d1576110d1613af9565b03611332576000846001600160a01b0316636938c05d8a6020015160008c60e001518d608001516111029190613a8a565b61110a6131a8565b6040518563ffffffff1660e01b81526004016111299493929190613b23565b6020604051808303816000875af1158015611148573d6000803e3d6000fd5b505050506040513d601f19601f8201168201806040525081019061116c9190613a1a565b9050600260009054906101000a90046001600160a01b03166001600160a01b0316633078fff56040518163ffffffff1660e01b8152600401602060405180830381865afa1580156111c1573d6000803e3d6000fd5b505050506040513d601f19601f820116820180604052508101906111e59190613a33565b6001600160a01b0316638f93b660826040518060c00160405280604051806101400160405280896001600160a01b031681526020018f60200151815260200160008152602001600081526020018f608001518152602001600081526020018f60c00151151581526020018f60e0015181526020018f610100015181526020018f61012001518152508152602001600081526020018d60a0015181526020018a81526020016000815260200160008152506040518363ffffffff1660e01b81526004016112b2929190613b49565b600060405180830381600087803b1580156112cc57600080fd5b505af11580156112e0573d6000803e3d6000fd5b505050508860200151836001600160a01b0316827f3e544118c04e3bb18b669475695cd270ba0e41fb13177483f01c14222de62a866001604051611328911515815260200190565b60405180910390a4505b5050505050505050565b6000808260e0015160000361135657506000928392509050565b6000600660009054906101000a90046001600160a01b03166001600160a01b031663706faf3a6040518060e0016040528087600001516001600160a01b0316815260200187602001518152602001876040015181526020018760a0015181526020018760c0015115158152602001876080015181526020018760e001518152506040518263ffffffff1660e01b81526004016105a591906139c6565b6113fa612ffc565b60005b818110156114745761146c86826064811061141a5761141a613c0c565b602002015186836064811061143157611431613c0c565b602002015186846064811061144857611448613c0c565b602002015186856064811061145f5761145f613c0c565b6020020151600180612626565b6001016113fd565b505050505050565b611484612f2c565b600b805460ff8082161560ff1990921682179092556040519116151581527f0e2fb031ee032dc02d8011dc50b816eb450cf856abd8261680dac74f72165bd2906020015b60405180910390a1565b6002546040516302a0a1cb60e41b815260009182916001600160a01b0390911690632a0a1cb09061150b90889088908890600401613c22565b61014060405180830381865afa158015611529573d6000803e3d6000fd5b505050506040513d601f19601f8201168201806040525081019061154d9190613c59565b9050600080600260009054906101000a90046001600160a01b03166001600160a01b0316637dc0d1d06040518163ffffffff1660e01b8152600401602060405180830381865afa1580156115a5573d6000803e3d6000fd5b505050506040513d601f19601f820116820180604052508101906115c99190613a33565b6001600160a01b031663e7572230876040518263ffffffff1660e01b81526004016115f691815260200190565b6040805180830381865afa158015611612573d6000803e3d6000fd5b505050506040513d601f19601f820116820180604052508101906116369190613a50565b91509150600080611646856104ef565b91509150806116675760405162461bcd60e51b815260040161048690613ceb565b5093505050505b9392505050565b6001600160a01b038381166000908152602081905260409020546060911633146116d95760405162461bcd60e51b81526020600482015260156024820152741111531151d0551157d393d517d054141493d59151605a1b6044820152606401610486565b600180546001600160a01b0319166001600160a01b0386161790556040516000908190309061170b9087908790613d0b565b600060405180830381855af49150503d8060008114611746576040519150601f19603f3d011682016040523d82523d6000602084013e61174b565b606091505b5091509150816117975760448151101561176457600080fd5b6004810190508080602001905181019061177e9190613d1b565b60405162461bcd60e51b81526004016104869190613842565b600180546001600160a01b031916905595945050505050565b6117b8612ff0565b6117c0612ffc565b60006117ca610436565b6002546040516302a0a1cb60e41b81529192506000916001600160a01b0390911690632a0a1cb09061180490859088908890600401613c22565b61014060405180830381865afa158015611822573d6000803e3d6000fd5b505050506040513d601f19601f820116820180604052508101906118469190613c59565b600254604051637728fb1b60e11b81529192506000916001600160a01b039091169063ee51f6369061188090869089908990600401613c22565b60c060405180830381865afa15801561189d573d6000803e3d6000fd5b505050506040513d601f19601f820116820180604052508101906118c19190613dc8565b9050600260009054906101000a90046001600160a01b03166001600160a01b0316638049fde76040518163ffffffff1660e01b8152600401602060405180830381865afa158015611916573d6000803e3d6000fd5b505050506040513d601f19601f8201168201806040525081019061193a9190613a1a565b60025460405163f7b3c6fd60e01b81526001600160a01b0386811660048301529091169063f7b3c6fd90602401602060405180830381865afa158015611984573d6000803e3d6000fd5b505050506040513d601f19601f820116820180604052508101906119a89190613a1a565b106119c55760405162461bcd60e51b815260040161048690613acd565b8060a0015115611a0e5760405162461bcd60e51b81526020600482015260146024820152731053149150511657d091525391d7d0d313d4d15160621b6044820152606401610486565b60008260e0015111611a325760405162461bcd60e51b815260040161048690613e48565b60025460408051633078fff560e01b815290516000926001600160a01b031691633078fff59160048083019260209291908290030181865afa158015611a7c573d6000803e3d6000fd5b505050506040513d601f19601f82011682018060405250810190611aa09190613a33565b6001600160a01b0316636938c05d8760016402540be4008760e0015187602001518960600151611ad09190613a8a565b611ada9190613a8a565b611ae49190613e6a565b611aec6131a8565b6040518563ffffffff1660e01b8152600401611b0b9493929190613b23565b6020604051808303816000875af1158015611b2a573d6000803e3d6000fd5b505050506040513d601f19601f82011682018060405250810190611b4e9190613a1a565b9050600260009054906101000a90046001600160a01b03166001600160a01b0316633078fff56040518163ffffffff1660e01b8152600401602060405180830381865afa158015611ba3573d6000803e3d6000fd5b505050506040513d601f19601f82011682018060405250810190611bc79190613a33565b6001600160a01b0316638f93b660826040518060c001604052806040518061014001604052808a6001600160a01b031681526020018c81526020018b81526020016000815260200160008152602001600081526020016000151581526020016000815260200160008152602001600081525081526020016000815260200160008152602001600081526020016000815260200160008152506040518363ffffffff1660e01b8152600401611c7c929190613b49565b600060405180830381600087803b158015611c9657600080fd5b505af1158015611caa573d6000803e3d6000fd5b5050505085846001600160a01b0316827f3e544118c04e3bb18b669475695cd270ba0e41fb13177483f01c14222de62a866000604051611cee911515815260200190565b60405180910390a4505050505050565b611d06612f2c565b600b805460ff610100808304821615810261ff001990931692909217928390556040517fc3a6f986261de9467c2838c6df8ef74f9107855159205600c0bc7a14cdfd3888936114c89390049091161515815260200190565b611d66612f2c565b60008111611d865760405162461bcd60e51b8152600401610486906139a5565b600981905560408051818152601391810191909152721b585c9ad95d13dc99195c9cd51a5b595bdd5d606a1b6060820152602081018290527f8cf3e35f6221b16e1670a3413180c9484bf5aa71787905909fa82a6a2662e9ab906080016104e4565b611df0612ff0565b611df8612ffc565b6000611e02610436565b6002546040516302a0a1cb60e41b81529192506000916001600160a01b0390911690632a0a1cb090611e3c90859089908990600401613c22565b61014060405180830381865afa158015611e5a573d6000803e3d6000fd5b505050506040513d601f19601f82011682018060405250810190611e7e9190613c59565b905060008160e0015111611ea45760405162461bcd60e51b815260040161048690613e48565b60008160e001516064604b8460a00151611ebe9190613a8a565b611ec89190613e6a565b611ed29190613e6a565b9050831580611f1157508160c00151611efd57808260a00151611ef59190613aba565b841115611f11565b808260a00151611f0d9190613e8c565b8410155b611f4a5760405162461bcd60e51b815260206004820152600a602482015269534c5f544f4f5f42494760b01b6044820152606401610486565b60025460405163a354418160e01b81526001600160a01b039091169063a354418190611f809086908a908a908a90600401613e9f565b600060405180830381600087803b158015611f9a57600080fd5b505af1158015611fae573d6000803e3d6000fd5b50505050600260009054906101000a90046001600160a01b03166001600160a01b031662b127836040518163ffffffff1660e01b8152600401602060405180830381865afa158015612004573d6000803e3d6000fd5b505050506040513d601f19601f820116820180604052508101906120289190613a33565b6001600160a01b031673e24Bf7C7CED282D601299760383f7684C7214Ff9633c63a7d09091858989600061205a6131a8565b6040518763ffffffff1660e01b815260040161207b96959493929190613ed5565b60006040518083038186803b15801561209357600080fd5b505af41580156120a7573d6000803e3d6000fd5b505060408051888152602081018890528993506001600160a01b03871692507f1fc4a6c7ffe506697979b8ed54dc4135cd1ecd26a2745f70b760a2492222b316910160405180910390a3505050505050565b600154600160a81b900460ff161580801561211f575060018054600160a01b900460ff16105b8061213f5750303b15801561213f575060018054600160a01b900460ff16145b6121a25760405162461bcd60e51b815260206004820152602e60248201527f496e697469616c697a61626c653a20636f6e747261637420697320616c72656160448201526d191e481a5b9a5d1a585b1a5e995960921b6064820152608401610486565b6001805460ff60a01b1916600160a01b17905580156121cf576001805460ff60a81b1916600160a81b1790555b6001600160a01b038916158015906121ef57506001600160a01b03881615155b801561220357506001600160a01b03871615155b801561221757506001600160a01b03861615155b801561222b57506001600160a01b03851615155b801561223f57506001600160a01b03841615155b801561224b5750600083115b80156122575750600082115b6122925760405162461bcd60e51b815260206004820152600c60248201526b57524f4e475f504152414d5360a01b6044820152606401610486565b600280546001600160a01b03199081166001600160a01b038c8116919091179092556003805482168b84161790556004805482168a841617905560058054821689841617905560068054821688841617905560088590556009849055600780549091169186169190911790558015612345576001805460ff60a81b191681556040519081527f7f26b83ff96e1f2b6a682f133852f6798a09c465da95921460cefb38474024989060200160405180910390a15b505050505050505050565b32331461238d5760405162461bcd60e51b815260206004820152600b60248201526a1393d7d0d3d395149050d560aa1b6044820152606401610486565b33600090815260208190526040902080546001600160a01b0319166001600160a01b0392909216919091179055565b6123c4612ff0565b6123cc612ffc565b60006123d6610436565b6002546040516302a0a1cb60e41b81529192506000916001600160a01b0390911690632a0a1cb09061241090859089908990600401613c22565b61014060405180830381865afa15801561242e573d6000803e3d6000fd5b505050506040513d601f19601f820116820180604052508101906124529190613c59565b905060008160e00151116124785760405162461bcd60e51b815260040161048690613e48565b600254604051637fdb96f360e01b81526001600160a01b0390911690637fdb96f3906124ae908590899089908990600401613e9f565b600060405180830381600087803b1580156124c857600080fd5b505af11580156124dc573d6000803e3d6000fd5b50505050600260009054906101000a90046001600160a01b03166001600160a01b031662b127836040518163ffffffff1660e01b8152600401602060405180830381865afa158015612532573d6000803e3d6000fd5b505050506040513d601f19601f820116820180604052508101906125569190613a33565b6001600160a01b031673e24Bf7C7CED282D601299760383f7684C7214Ff9638fff7d82909184888860006125886131a8565b6040518763ffffffff1660e01b81526004016125a996959493929190613ed5565b60006040518083038186803b1580156125c157600080fd5b505af41580156125d5573d6000803e3d6000fd5b505060408051878152602081018790528893506001600160a01b03861692507f7e06a81c7a47891ccc7455b5ccb2ed850e32bb655ccda67eb3ebaaeed83242a4910160405180910390a35050505050565b61262e612ffc565b600086600481111561264257612642613af9565b9050600061264e610436565b90506000600383600481111561266657612666613af9565b14905060008161267757600061267a565b60015b90506126dd60405180610140016040528060006001600160a01b0316815260200160008152602001600081526020016000815260200160008152602001600081526020016000151581526020016000815260200160008152602001600081525090565b82156127375760405162461bcd60e51b815260206004820152602360248201527f4f70656e204c696d6974206f7264657273206e6f7420737570706f72746564206044820152621e595d60ea1b6064820152608401610486565b6002546040516302a0a1cb60e41b81526001600160a01b0390911690632a0a1cb09061276b908d908d908d90600401613c22565b61014060405180830381865afa158015612789573d6000803e3d6000fd5b505050506040513d601f19601f820116820180604052508101906127ad9190613c59565b905060008160e00151116127d35760405162461bcd60e51b815260040161048690613e48565b60028560048111156127e7576127e7613af9565b0361291b576000600660009054906101000a90046001600160a01b03166001600160a01b031663706faf3a6040518060e0016040528085600001516001600160a01b0316815260200185602001518152602001856040015181526020018560a0015181526020018560c0015115158152602001856080015181526020018560e001518152506040518263ffffffff1660e01b815260040161288891906139c6565b602060405180830381865afa1580156128a5573d6000803e3d6000fd5b505050506040513d601f19601f820116820180604052508101906128c99190613a1a565b9050816101200151600014806128f957508160c001516128f05781610120015181106128f9565b81610120015181115b6129155760405162461bcd60e51b815260040161048690613ceb565b50612c23565b600485600481111561292f5761292f613af9565b03612b6f576000600660009054906101000a90046001600160a01b03166001600160a01b03166364d372c66040518060e0016040528085600001516001600160a01b0316815260200185602001518152602001856040015181526020018560a0015181526020018560c0015115158152602001856080015181526020018560e001518152506040518263ffffffff1660e01b81526004016129d091906139c6565b602060405180830381865afa1580156129ed573d6000803e3d6000fd5b505050506040513d601f19601f82011682018060405250810190612a119190613a1a565b905081610120015160001480612a4157508160c00151612a38578161012001518110612a41565b81610120015181115b612a5d5760405162461bcd60e51b815260040161048690613ceb565b6007548251602084015160408086015190516304ec194160e21b81526000946001600160a01b0316936313b0650493612a9d939192909190600401613c22565b602060405180830381865afa158015612aba573d6000803e3d6000fd5b505050506040513d601f19601f82011682018060405250810190612ade9190613a1a565b90506000818460800151612af29190613f19565b9050600a548460e0015182612b079190613f41565b1215612b675760405162461bcd60e51b815260206004820152602960248201527f706f736974696f6e20746f20736d616c6c20666f72207061727469616c206c6960448201526838bab4b230ba34b7b760b91b6064820152608401610486565b505050612c23565b6001856004811115612b8357612b83613af9565b141580612b9557506000816101200151115b612bc95760405162461bcd60e51b81526020600482015260056024820152641393d7d4d360da1b6044820152606401610486565b6000856004811115612bdd57612bdd613af9565b141580612bef57506000816101000151115b612c235760405162461bcd60e51b815260206004820152600560248201526404e4f5f54560dc1b6044820152606401610486565b600083612c41578160e001518260800151612c3e9190613a8a565b90505b6000612c52858d8d8d888c8861322e565b509050612c8b6040805160c08101825260008082526020820181905291810182905260608101829052608081018290529060a082015290565b6001600160a01b038088168252602082018b90528d166040820152606081018c9052608081018b905260a08101886004811115612cca57612cca613af9565b90816004811115612cdd57612cdd613af9565b90525060025460405163205fe86960e21b81526001600160a01b039091169063817fa1a490612d129084908690600401613fc9565b600060405180830381600087803b158015612d2c57600080fd5b505af1158015612d40573d6000803e3d6000fd5b50505050600260009054906101000a90046001600160a01b03166001600160a01b0316633078fff56040518163ffffffff1660e01b8152600401602060405180830381865afa158015612d97573d6000803e3d6000fd5b505050506040513d601f19601f82011682018060405250810190612dbb9190613a33565b6001600160a01b03166339fe9fd283836040518363ffffffff1660e01b8152600401612de8929190613fe4565b600060405180830381600087803b158015612e0257600080fd5b505af1158015612e16573d6000803e3d6000fd5b505050508b8d6001600160a01b0316886001600160a01b03167f6d87222414c5850caf1d385b1e080a771b505825b082a2162d0f4af5ffc86c0085604051612e6091815260200190565b60405180910390a45050505050505050505050505050565b6002546040516302a0a1cb60e41b815260009182916001600160a01b0390911690632a0a1cb090612eb190889088908890600401613c22565b61014060405180830381865afa158015612ecf573d6000803e3d6000fd5b505050506040513d601f19601f82011682018060405250810190612ef39190613c59565b9050600080612f018361133c565b9150915080612f225760405162461bcd60e51b815260040161048690613ceb565b5095945050505050565b600260009054906101000a90046001600160a01b03166001600160a01b03166312d43a516040518163ffffffff1660e01b8152600401602060405180830381865afa158015612f7f573d6000803e3d6000fd5b505050506040513d601f19601f82011682018060405250810190612fa39190613a33565b6001600160a01b0316336001600160a01b031614612fee5760405162461bcd60e51b8152602060048201526008602482015267474f565f4f4e4c5960c01b6044820152606401610486565b565b323314612fee57600080fd5b600b54610100900460ff1615612fee5760405162461bcd60e51b815260040161048690602080825260049082015263444f4e4560e01b604082015260600190565b600080600260009054906101000a90046001600160a01b03166001600160a01b031662b127836040518163ffffffff1660e01b8152600401602060405180830381865afa158015613092573d6000803e3d6000fd5b505050506040513d601f19601f820116820180604052508101906130b69190613a33565b6001600160a01b031663281b693c846040518263ffffffff1660e01b81526004016130e391815260200190565b602060405180830381865afa158015613100573d6000803e3d6000fd5b505050506040513d601f19601f820116820180604052508101906131249190613a1a565b90506000811161319c57604051630a06da4f60e21b8152600481018490526001600160a01b0385169063281b693c90602401602060405180830381865afa158015613173573d6000803e3d6000fd5b505050506040513d601f19601f820116820180604052508101906131979190613a1a565b61319e565b805b9150505b92915050565b600061a4b14614806131bc575062066eed46145b156132295760646001600160a01b031663a3b1b31d6040518163ffffffff1660e01b8152600401602060405180830381865afa158015613200573d6000803e3d6000fd5b505050506040513d601f19601f820116820180604052508101906132249190613a1a565b905090565b504390565b6000806000600260009054906101000a90046001600160a01b03166001600160a01b031662b127836040518163ffffffff1660e01b8152600401602060405180830381865afa158015613285573d6000803e3d6000fd5b505050506040513d601f19601f820116820180604052508101906132a99190613a33565b6001600160a01b0316639bd24d838a8a8a8a6040518563ffffffff1660e01b81526004016132da9493929190613ff8565b608060405180830381865afa1580156132f7573d6000803e3d6000fd5b505050506040513d601f19601f8201168201806040525081019061331b9190614040565b90506000600260009054906101000a90046001600160a01b03166001600160a01b0316633078fff56040518163ffffffff1660e01b8152600401602060405180830381865afa158015613372573d6000803e3d6000fd5b505050506040513d601f19601f820116820180604052508101906133969190613a33565b9050806001600160a01b0316636938c05d8a8d6133b45760036133b7565b60025b888f61340a5760018b60048111156133d1576133d1613af9565b146134005760008b60048111156133ea576133ea613af9565b146133f9578660600151613410565b8651613410565b8660200151613410565b86604001515b6040518563ffffffff1660e01b815260040161342f94939291906140bd565b6020604051808303816000875af115801561344e573d6000803e3d6000fd5b505050506040513d601f19601f820116820180604052508101906134729190613a1a565b9350505097509795505050505050565b60006020828403121561349457600080fd5b5035919050565b634e487b7160e01b600052604160045260246000fd5b604051610140810167ffffffffffffffff811182821017156134d5576134d561349b565b60405290565b604051610c80810167ffffffffffffffff811182821017156134d5576134d561349b565b6001600160a01b038116811461351457600080fd5b50565b8035613522816134ff565b919050565b801515811461351457600080fd5b803561352281613527565b6000610140828403121561355357600080fd5b61355b6134b1565b905061356682613517565b81526020820135602082015260408201356040820152606082013560608201526080820135608082015260a082013560a08201526135a660c08301613535565b60c082015260e082013560e082015261010080830135818301525061012080830135818301525092915050565b600061014082840312156135e657600080fd5b61166e8383613540565b6000806000806101a0858703121561360757600080fd5b6136118686613540565b93506101408501356003811061362657600080fd5b939693955050505061016082013591610180013590565b600082601f83011261364e57600080fd5b6136566134db565b80610c8084018581111561366957600080fd5b845b8181101561368357803584526020938401930161366b565b509095945050505050565b600080600080600061322086880312156136a757600080fd5b6136b1878761363d565b945086610c9f8701126136c357600080fd5b6136cb6134db565b806119008801898111156136de57600080fd5b610c8089015b818110156137055780356136f7816134ff565b8452602093840193016136e4565b508196506137138a8261363d565b955050505061372687612580880161363d565b94979396509194613200013592915050565b60008060006060848603121561374d57600080fd5b8335613758816134ff565b95602085013595506040909401359392505050565b60008060006040848603121561378257600080fd5b833561378d816134ff565b9250602084013567ffffffffffffffff808211156137aa57600080fd5b818601915086601f8301126137be57600080fd5b8135818111156137cd57600080fd5b8760208285010111156137df57600080fd5b6020830194508093505050509250925092565b60005b8381101561380d5781810151838201526020016137f5565b50506000910152565b6000815180845261382e8160208601602086016137f2565b601f01601f19169290920160200192915050565b60208152600061166e6020830184613816565b6000806040838503121561386857600080fd5b50508035926020909101359150565b60008060006060848603121561388c57600080fd5b505081359360208301359350604090920135919050565b6000602082840312156138b557600080fd5b813561319c816134ff565b600080600080600080600080610100898b0312156138dd57600080fd5b88356138e8816134ff565b975060208901356138f8816134ff565b96506040890135613908816134ff565b95506060890135613918816134ff565b94506080890135613928816134ff565b935060a0890135613938816134ff565b979a969950949793969295929450505060c08201359160e0013590565b60008060008060008060c0878903121561396e57600080fd5b863595506020870135613980816134ff565b95989597505050506040840135936060810135936080820135935060a0909101359150565b602080825260079082015266056414c55455f360cc1b604082015260600190565b81516001600160a01b0316815260208083015190820152604080830151908201526060808301519082015260808083015115159082015260a0828101519082015260c0918201519181019190915260e00190565b600060208284031215613a2c57600080fd5b5051919050565b600060208284031215613a4557600080fd5b815161319c816134ff565b60008060408385031215613a6357600080fd5b505080516020909101519092909150565b634e487b7160e01b600052601160045260246000fd5b80820281158282048414176131a2576131a2613a74565b6001600160a01b03929092168252602082015260400190565b808201808211156131a2576131a2613a74565b6020808252601290820152714d41585f50454e44494e475f4f524445525360701b604082015260600190565b634e487b7160e01b600052602160045260246000fd5b60048110613b1f57613b1f613af9565b9052565b84815260808101613b376020830186613b0f565b60408201939093526060015292915050565b828152815180516001600160a01b03166020830152610200820190602081015160408401526040810151606084015260608101516080840152608081015160a084015260a081015160c084015260c0810151613ba960e085018215159052565b5060e0810151610100848101919091528101516101208085019190915201516101408301526020830151610160830152604083015161018083015260608301516101a083015260808301516101c083015260a0909201516101e090910152919050565b634e487b7160e01b600052603260045260246000fd5b6001600160a01b039390931683526020830191909152604082015260600190565b8051613522816134ff565b805161352281613527565b60006101408284031215613c6c57600080fd5b613c746134b1565b613c7d83613c43565b81526020830151602082015260408301516040820152606083015160608201526080830151608082015260a083015160a0820152613cbd60c08401613c4e565b60c082015260e083810151908201526101008084015190820152610120928301519281019290925250919050565b602080825260069082015265121054d7d4d360d21b604082015260600190565b8183823760009101908152919050565b600060208284031215613d2d57600080fd5b815167ffffffffffffffff80821115613d4557600080fd5b818401915084601f830112613d5957600080fd5b815181811115613d6b57613d6b61349b565b604051601f8201601f19908116603f01168101908382118183101715613d9357613d9361349b565b81604052828152876020848701011115613dac57600080fd5b613dbd8360208301602088016137f2565b979650505050505050565b600060c08284031215613dda57600080fd5b60405160c0810181811067ffffffffffffffff82111715613dfd57613dfd61349b565b8060405250825181526020830151602082015260408301516040820152606083015160608201526080830151608082015260a0830151613e3c81613527565b60a08201529392505050565b6020808252600890820152674e4f5f545241444560c01b604082015260600190565b600082613e8757634e487b7160e01b600052601260045260246000fd5b500490565b818103818111156131a2576131a2613a74565b6001600160a01b0394909416845260208401929092526040830152606082015260800190565b60028110613b1f57613b1f613af9565b6001600160a01b03878116825286166020820152604081018590526060810184905260c08101613f086080830185613ec5565b8260a0830152979650505050505050565b8082018281126000831280158216821582161715613f3957613f39613a74565b505092915050565b80820260008212600160ff1b84141615613f5d57613f5d613a74565b81810583148215176131a2576131a2613a74565b60018060a01b038082511683526020820151602084015280604083015116604084015250606081015160608301526080810151608083015260a081015160058110613fbe57613fbe613af9565b8060a0840152505050565b60e08101613fd78285613f71565b8260c08301529392505050565b82815260e0810161166e6020830184613f71565b6001600160a01b03851681526020810184905260408101839052608081016140236060830184613ec5565b95945050505050565b805163ffffffff8116811461352257600080fd5b60006080828403121561405257600080fd5b6040516080810181811067ffffffffffffffff821117156140755761407561349b565b6040526140818361402c565b815261408f6020840161402c565b60208201526140a06040840161402c565b60408201526140b16060840161402c565b60608201529392505050565b848152608081016140d16020830186613b0f565b83604083015263ffffffff831660608301529594505050505056fea2646970667358221220b7dbb0584fd28e147ef88137b26d9400831fde33e1f6e3fcfb15b51ad10bb73b64736f6c63430008170033",
  "deployedBytecode": "0x608060405234801561001057600080fd5b50600436106101a45760003560e01c80638f062227116100ef578063be73fb9911610092578063be73fb9914610388578063bffe34861461039b578063c740671f146103c4578063ca5eb5e1146103d7578063d3dc7539146103ea578063d8defd15146103fd578063fa7fffba14610410578063ff22dcac1461042357600080fd5b80638f062227146103095780639a10cc321461031b5780639a54adba1461033b578063a2a3c0cb14610344578063ae8421e114610357578063b187bd261461035f578063b1dfd5301461036c578063b81bfa051461037557600080fd5b8063410c0b7c11610157578063410c0b7c14610268578063531cc9651461027f5780635ad9f9931461029257806368cd5088146102a55780636b5bd974146102b8578063760b17c1146102cb5780638456cb59146102de578063870f91d9146102e657600080fd5b8062b12783146101a9578063119df25f146101d95780631346b0ff146101e157806316fff074146101f45780632c1e4e551461020757806336fb8b151461021c57806340b615971461023e575b600080fd5b6007546101bc906001600160a01b031681565b6040516001600160a01b0390911681526020015b60405180910390f35b6101bc610436565b6004546101bc906001600160a01b031681565b6002546101bc906001600160a01b031681565b61021a610215366004613482565b61045e565b005b61021a33600090815260208190526040902080546001600160a01b0319169055565b61025161024c3660046135d3565b6104ef565b6040805192151583529015156020830152016101d0565b61027160095481565b6040519081526020016101d0565b6006546101bc906001600160a01b031681565b6003546101bc906001600160a01b031681565b61021a6102b33660046135f0565b610718565b6102516102c63660046135d3565b61133c565b61021a6102d936600461368e565b6113f2565b61021a61147c565b6102f96102f4366004613738565b6114d2565b60405190151581526020016101d0565b600b546102f990610100900460ff1681565b61032e61032936600461376d565b611675565b6040516101d09190613842565b610271600a5481565b61021a610352366004613855565b6117b0565b61021a611cfe565b600b546102f99060ff1681565b61027160085481565b61021a610383366004613482565b611d5e565b61021a610396366004613877565b611de8565b6101bc6103a93660046138a3565b6000602081905290815260409020546001600160a01b031681565b61021a6103d23660046138c0565b6120f9565b61021a6103e53660046138a3565b612350565b6005546101bc906001600160a01b031681565b61021a61040b366004613877565b6123bc565b61021a61041e366004613955565b612626565b6102f9610431366004613738565b612e78565b6001546000906001600160a01b031661044e57503390565b506001546001600160a01b031690565b610466612f2c565b6000811161048f5760405162461bcd60e51b8152600401610486906139a5565b60405180910390fd5b600881905560408051818152600a91810191909152690dac2f0a0dee6ae8aa8960b31b6060820152602081018290527f8cf3e35f6221b16e1670a3413180c9484bf5aa71787905909fa82a6a2662e9ab906080015b60405180910390a150565b6000808260e0015160000361050957506000928392509050565b6000600660009054906101000a90046001600160a01b03166001600160a01b03166364d372c66040518060e0016040528087600001516001600160a01b0316815260200187602001518152602001876040015181526020018760a0015181526020018760c0015115158152602001876080015181526020018760e001518152506040518263ffffffff1660e01b81526004016105a591906139c6565b602060405180830381865afa1580156105c2573d6000803e3d6000fd5b505050506040513d601f19601f820116820180604052508101906105e69190613a1a565b9050600080600260009054906101000a90046001600160a01b03166001600160a01b0316637dc0d1d06040518163ffffffff1660e01b8152600401602060405180830381865afa15801561063e573d6000803e3d6000fd5b505050506040513d601f19601f820116820180604052508101906106629190613a33565b6001600160a01b031663e757223087602001516040518263ffffffff1660e01b815260040161069391815260200190565b6040805180830381865afa1580156106af573d6000803e3d6000fd5b505050506040513d601f19601f820116820180604052508101906106d39190613a50565b9150915060008661012001516000148061070757508660c001516106fe578661012001518410610707565b86610120015184115b939092111596929550919350505050565b610720612ff0565b610728612ffc565b600b5460ff16156107645760405162461bcd60e51b815260206004820152600660248201526514105554d15160d21b6044820152606401610486565b600019818560a001516107779190613a8a565b106107af5760405162461bcd60e51b81526020600482015260086024820152674f564552464c4f5760c01b6044820152606401610486565b60008460a00151116107f05760405162461bcd60e51b815260206004820152600a60248201526950524943455f5a45524f60b01b6044820152606401610486565b60025460408051633078fff560e01b815290516000926001600160a01b031691633078fff59160048083019260209291908290030181865afa15801561083a573d6000803e3d6000fd5b505050506040513d601f19601f8201168201806040525081019061085e9190613a33565b90506000816001600160a01b03166335b03c176040518163ffffffff1660e01b8152600401602060405180830381865afa1580156108a0573d6000803e3d6000fd5b505050506040513d601f19601f820116820180604052508101906108c49190613a33565b905060006108d0610436565b9050600260009054906101000a90046001600160a01b03166001600160a01b031663f65d9dbe6040518163ffffffff1660e01b8152600401602060405180830381865afa158015610925573d6000803e3d6000fd5b505050506040513d601f19601f820116820180604052508101906109499190613a1a565b6002546020890151604051634bf3ccad60e11b81526001600160a01b03909216916397e7995a9161097f91869190600401613aa1565b602060405180830381865afa15801561099c573d6000803e3d6000fd5b505050506040513d601f19601f820116820180604052508101906109c09190613a1a565b60025460208a0151604051639c8912f160e01b81526001600160a01b0390921691639c8912f1916109f691879190600401613aa1565b602060405180830381865afa158015610a13573d6000803e3d6000fd5b505050506040513d601f19601f82011682018060405250810190610a379190613a1a565b60025460208b01516040516307218dad60e21b81526001600160a01b0390921691631c8636b491610a6d91889190600401613aa1565b602060405180830381865afa158015610a8a573d6000803e3d6000fd5b505050506040513d601f19601f82011682018060405250810190610aae9190613a1a565b610ab89190613aba565b610ac29190613aba565b10610b055760405162461bcd60e51b815260206004820152601360248201527226a0ac2faa2920a222a9afa822a92fa820a4a960691b6044820152606401610486565b600260009054906101000a90046001600160a01b03166001600160a01b0316638049fde76040518163ffffffff1660e01b8152600401602060405180830381865afa158015610b58573d6000803e3d6000fd5b505050506040513d601f19601f82011682018060405250810190610b7c9190613a1a565b60025460405163f7b3c6fd60e01b81526001600160a01b0384811660048301529091169063f7b3c6fd90602401602060405180830381865afa158015610bc6573d6000803e3d6000fd5b505050506040513d601f19601f82011682018060405250810190610bea9190613a1a565b10610c075760405162461bcd60e51b815260040161048690613acd565b60085487608001511115610c4d5760405162461bcd60e51b815260206004820152600d60248201526c41424f56455f4d41585f504f5360981b6044820152606401610486565b602087015160405163601e3b6b60e11b815260048101919091526001600160a01b0383169063c03c76d690602401602060405180830381865afa158015610c98573d6000803e3d6000fd5b505050506040513d601f19601f82011682018060405250810190610cbc9190613a1a565b8760e001518860800151610cd09190613a8a565b1015610d0e5760405162461bcd60e51b815260206004820152600d60248201526c42454c4f575f4d494e5f504f5360981b6044820152606401610486565b60008760e00151118015610d945750602087015160405163059a992d60e41b815260048101919091526001600160a01b038316906359a992d090602401602060405180830381865afa158015610d68573d6000803e3d6000fd5b505050506040513d601f19601f82011682018060405250810190610d8c9190613a1a565b8760e0015110155b8015610db15750610da982886020015161303d565b8760e0015111155b610df25760405162461bcd60e51b815260206004820152601260248201527113115591549051d157d25390d3d4949150d560721b6044820152606401610486565b6101008701511580610e2657508660c00151610e19578660a0015187610100015110610e26565b8660a00151876101000151115b610e5d5760405162461bcd60e51b8152602060048201526008602482015267057524f4e475f54560c41b6044820152606401610486565b6101208701511580610e9157508660c00151610e84578660a0015187610120015111610e91565b8660a00151876101200151105b610ec85760405162461bcd60e51b815260206004820152600860248201526715d493d391d7d4d360c21b6044820152606401610486565b600454602088015160c089015160e08a015160808b01516000946001600160a01b031693637ea95f3293869391929091610f0191613a8a565b6040516001600160e01b031960e087901b168152600481019490945260248401929092521515604483015260648201526084016040805180830381865afa158015610f50573d6000803e3d6000fd5b505050506040513d601f19601f82011682018060405250810190610f749190613a50565b509050600460009054906101000a90046001600160a01b03166001600160a01b03166380f6cfc26040518163ffffffff1660e01b8152600401602060405180830381865afa158015610fca573d6000803e3d6000fd5b505050506040513d601f19601f82011682018060405250810190610fee9190613a1a565b60e0890151610ffd9083613a8a565b11156110435760405162461bcd60e51b81526020600482015260156024820152740a0a492868abe929aa08286a8bea89e9ebe90928e9605b1b6044820152606401610486565b6002546080890151604051638a238ae560e01b81526001600160a01b03858116600483015290921660248301819052604483019190915290638a238ae590606401600060405180830381600087803b15801561109e57600080fd5b505af11580156110b2573d6000803e3d6000fd5b50600092506110bf915050565b8760028111156110d1576110d1613af9565b03611332576000846001600160a01b0316636938c05d8a6020015160008c60e001518d608001516111029190613a8a565b61110a6131a8565b6040518563ffffffff1660e01b81526004016111299493929190613b23565b6020604051808303816000875af1158015611148573d6000803e3d6000fd5b505050506040513d601f19601f8201168201806040525081019061116c9190613a1a565b9050600260009054906101000a90046001600160a01b03166001600160a01b0316633078fff56040518163ffffffff1660e01b8152600401602060405180830381865afa1580156111c1573d6000803e3d6000fd5b505050506040513d601f19601f820116820180604052508101906111e59190613a33565b6001600160a01b0316638f93b660826040518060c00160405280604051806101400160405280896001600160a01b031681526020018f60200151815260200160008152602001600081526020018f608001518152602001600081526020018f60c00151151581526020018f60e0015181526020018f610100015181526020018f61012001518152508152602001600081526020018d60a0015181526020018a81526020016000815260200160008152506040518363ffffffff1660e01b81526004016112b2929190613b49565b600060405180830381600087803b1580156112cc57600080fd5b505af11580156112e0573d6000803e3d6000fd5b505050508860200151836001600160a01b0316827f3e544118c04e3bb18b669475695cd270ba0e41fb13177483f01c14222de62a866001604051611328911515815260200190565b60405180910390a4505b5050505050505050565b6000808260e0015160000361135657506000928392509050565b6000600660009054906101000a90046001600160a01b03166001600160a01b031663706faf3a6040518060e0016040528087600001516001600160a01b0316815260200187602001518152602001876040015181526020018760a0015181526020018760c0015115158152602001876080015181526020018760e001518152506040518263ffffffff1660e01b81526004016105a591906139c6565b6113fa612ffc565b60005b818110156114745761146c86826064811061141a5761141a613c0c565b602002015186836064811061143157611431613c0c565b602002015186846064811061144857611448613c0c565b602002015186856064811061145f5761145f613c0c565b6020020151600180612626565b6001016113fd565b505050505050565b611484612f2c565b600b805460ff8082161560ff1990921682179092556040519116151581527f0e2fb031ee032dc02d8011dc50b816eb450cf856abd8261680dac74f72165bd2906020015b60405180910390a1565b6002546040516302a0a1cb60e41b815260009182916001600160a01b0390911690632a0a1cb09061150b90889088908890600401613c22565b61014060405180830381865afa158015611529573d6000803e3d6000fd5b505050506040513d601f19601f8201168201806040525081019061154d9190613c59565b9050600080600260009054906101000a90046001600160a01b03166001600160a01b0316637dc0d1d06040518163ffffffff1660e01b8152600401602060405180830381865afa1580156115a5573d6000803e3d6000fd5b505050506040513d601f19601f820116820180604052508101906115c99190613a33565b6001600160a01b031663e7572230876040518263ffffffff1660e01b81526004016115f691815260200190565b6040805180830381865afa158015611612573d6000803e3d6000fd5b505050506040513d601f19601f820116820180604052508101906116369190613a50565b91509150600080611646856104ef565b91509150806116675760405162461bcd60e51b815260040161048690613ceb565b5093505050505b9392505050565b6001600160a01b038381166000908152602081905260409020546060911633146116d95760405162461bcd60e51b81526020600482015260156024820152741111531151d0551157d393d517d054141493d59151605a1b6044820152606401610486565b600180546001600160a01b0319166001600160a01b0386161790556040516000908190309061170b9087908790613d0b565b600060405180830381855af49150503d8060008114611746576040519150601f19603f3d011682016040523d82523d6000602084013e61174b565b606091505b5091509150816117975760448151101561176457600080fd5b6004810190508080602001905181019061177e9190613d1b565b60405162461bcd60e51b81526004016104869190613842565b600180546001600160a01b031916905595945050505050565b6117b8612ff0565b6117c0612ffc565b60006117ca610436565b6002546040516302a0a1cb60e41b81529192506000916001600160a01b0390911690632a0a1cb09061180490859088908890600401613c22565b61014060405180830381865afa158015611822573d6000803e3d6000fd5b505050506040513d601f19601f820116820180604052508101906118469190613c59565b600254604051637728fb1b60e11b81529192506000916001600160a01b039091169063ee51f6369061188090869089908990600401613c22565b60c060405180830381865afa15801561189d573d6000803e3d6000fd5b505050506040513d601f19601f820116820180604052508101906118c19190613dc8565b9050600260009054906101000a90046001600160a01b03166001600160a01b0316638049fde76040518163ffffffff1660e01b8152600401602060405180830381865afa158015611916573d6000803e3d6000fd5b505050506040513d601f19601f8201168201806040525081019061193a9190613a1a565b60025460405163f7b3c6fd60e01b81526001600160a01b0386811660048301529091169063f7b3c6fd90602401602060405180830381865afa158015611984573d6000803e3d6000fd5b505050506040513d601f19601f820116820180604052508101906119a89190613a1a565b106119c55760405162461bcd60e51b815260040161048690613acd565b8060a0015115611a0e5760405162461bcd60e51b81526020600482015260146024820152731053149150511657d091525391d7d0d313d4d15160621b6044820152606401610486565b60008260e0015111611a325760405162461bcd60e51b815260040161048690613e48565b60025460408051633078fff560e01b815290516000926001600160a01b031691633078fff59160048083019260209291908290030181865afa158015611a7c573d6000803e3d6000fd5b505050506040513d601f19601f82011682018060405250810190611aa09190613a33565b6001600160a01b0316636938c05d8760016402540be4008760e0015187602001518960600151611ad09190613a8a565b611ada9190613a8a565b611ae49190613e6a565b611aec6131a8565b6040518563ffffffff1660e01b8152600401611b0b9493929190613b23565b6020604051808303816000875af1158015611b2a573d6000803e3d6000fd5b505050506040513d601f19601f82011682018060405250810190611b4e9190613a1a565b9050600260009054906101000a90046001600160a01b03166001600160a01b0316633078fff56040518163ffffffff1660e01b8152600401602060405180830381865afa158015611ba3573d6000803e3d6000fd5b505050506040513d601f19601f82011682018060405250810190611bc79190613a33565b6001600160a01b0316638f93b660826040518060c001604052806040518061014001604052808a6001600160a01b031681526020018c81526020018b81526020016000815260200160008152602001600081526020016000151581526020016000815260200160008152602001600081525081526020016000815260200160008152602001600081526020016000815260200160008152506040518363ffffffff1660e01b8152600401611c7c929190613b49565b600060405180830381600087803b158015611c9657600080fd5b505af1158015611caa573d6000803e3d6000fd5b5050505085846001600160a01b0316827f3e544118c04e3bb18b669475695cd270ba0e41fb13177483f01c14222de62a866000604051611cee911515815260200190565b60405180910390a4505050505050565b611d06612f2c565b600b805460ff610100808304821615810261ff001990931692909217928390556040517fc3a6f986261de9467c2838c6df8ef74f9107855159205600c0bc7a14cdfd3888936114c89390049091161515815260200190565b611d66612f2c565b60008111611d865760405162461bcd60e51b8152600401610486906139a5565b600981905560408051818152601391810191909152721b585c9ad95d13dc99195c9cd51a5b595bdd5d606a1b6060820152602081018290527f8cf3e35f6221b16e1670a3413180c9484bf5aa71787905909fa82a6a2662e9ab906080016104e4565b611df0612ff0565b611df8612ffc565b6000611e02610436565b6002546040516302a0a1cb60e41b81529192506000916001600160a01b0390911690632a0a1cb090611e3c90859089908990600401613c22565b61014060405180830381865afa158015611e5a573d6000803e3d6000fd5b505050506040513d601f19601f82011682018060405250810190611e7e9190613c59565b905060008160e0015111611ea45760405162461bcd60e51b815260040161048690613e48565b60008160e001516064604b8460a00151611ebe9190613a8a565b611ec89190613e6a565b611ed29190613e6a565b9050831580611f1157508160c00151611efd57808260a00151611ef59190613aba565b841115611f11565b808260a00151611f0d9190613e8c565b8410155b611f4a5760405162461bcd60e51b815260206004820152600a602482015269534c5f544f4f5f42494760b01b6044820152606401610486565b60025460405163a354418160e01b81526001600160a01b039091169063a354418190611f809086908a908a908a90600401613e9f565b600060405180830381600087803b158015611f9a57600080fd5b505af1158015611fae573d6000803e3d6000fd5b50505050600260009054906101000a90046001600160a01b03166001600160a01b031662b127836040518163ffffffff1660e01b8152600401602060405180830381865afa158015612004573d6000803e3d6000fd5b505050506040513d601f19601f820116820180604052508101906120289190613a33565b6001600160a01b031673__$f600c6c046224cd62da9c8e7a0d00fc8b2$__633c63a7d09091858989600061205a6131a8565b6040518763ffffffff1660e01b815260040161207b96959493929190613ed5565b60006040518083038186803b15801561209357600080fd5b505af41580156120a7573d6000803e3d6000fd5b505060408051888152602081018890528993506001600160a01b03871692507f1fc4a6c7ffe506697979b8ed54dc4135cd1ecd26a2745f70b760a2492222b316910160405180910390a3505050505050565b600154600160a81b900460ff161580801561211f575060018054600160a01b900460ff16105b8061213f5750303b15801561213f575060018054600160a01b900460ff16145b6121a25760405162461bcd60e51b815260206004820152602e60248201527f496e697469616c697a61626c653a20636f6e747261637420697320616c72656160448201526d191e481a5b9a5d1a585b1a5e995960921b6064820152608401610486565b6001805460ff60a01b1916600160a01b17905580156121cf576001805460ff60a81b1916600160a81b1790555b6001600160a01b038916158015906121ef57506001600160a01b03881615155b801561220357506001600160a01b03871615155b801561221757506001600160a01b03861615155b801561222b57506001600160a01b03851615155b801561223f57506001600160a01b03841615155b801561224b5750600083115b80156122575750600082115b6122925760405162461bcd60e51b815260206004820152600c60248201526b57524f4e475f504152414d5360a01b6044820152606401610486565b600280546001600160a01b03199081166001600160a01b038c8116919091179092556003805482168b84161790556004805482168a841617905560058054821689841617905560068054821688841617905560088590556009849055600780549091169186169190911790558015612345576001805460ff60a81b191681556040519081527f7f26b83ff96e1f2b6a682f133852f6798a09c465da95921460cefb38474024989060200160405180910390a15b505050505050505050565b32331461238d5760405162461bcd60e51b815260206004820152600b60248201526a1393d7d0d3d395149050d560aa1b6044820152606401610486565b33600090815260208190526040902080546001600160a01b0319166001600160a01b0392909216919091179055565b6123c4612ff0565b6123cc612ffc565b60006123d6610436565b6002546040516302a0a1cb60e41b81529192506000916001600160a01b0390911690632a0a1cb09061241090859089908990600401613c22565b61014060405180830381865afa15801561242e573d6000803e3d6000fd5b505050506040513d601f19601f820116820180604052508101906124529190613c59565b905060008160e00151116124785760405162461bcd60e51b815260040161048690613e48565b600254604051637fdb96f360e01b81526001600160a01b0390911690637fdb96f3906124ae908590899089908990600401613e9f565b600060405180830381600087803b1580156124c857600080fd5b505af11580156124dc573d6000803e3d6000fd5b50505050600260009054906101000a90046001600160a01b03166001600160a01b031662b127836040518163ffffffff1660e01b8152600401602060405180830381865afa158015612532573d6000803e3d6000fd5b505050506040513d601f19601f820116820180604052508101906125569190613a33565b6001600160a01b031673__$f600c6c046224cd62da9c8e7a0d00fc8b2$__638fff7d82909184888860006125886131a8565b6040518763ffffffff1660e01b81526004016125a996959493929190613ed5565b60006040518083038186803b1580156125c157600080fd5b505af41580156125d5573d6000803e3d6000fd5b505060408051878152602081018790528893506001600160a01b03861692507f7e06a81c7a47891ccc7455b5ccb2ed850e32bb655ccda67eb3ebaaeed83242a4910160405180910390a35050505050565b61262e612ffc565b600086600481111561264257612642613af9565b9050600061264e610436565b90506000600383600481111561266657612666613af9565b14905060008161267757600061267a565b60015b90506126dd60405180610140016040528060006001600160a01b0316815260200160008152602001600081526020016000815260200160008152602001600081526020016000151581526020016000815260200160008152602001600081525090565b82156127375760405162461bcd60e51b815260206004820152602360248201527f4f70656e204c696d6974206f7264657273206e6f7420737570706f72746564206044820152621e595d60ea1b6064820152608401610486565b6002546040516302a0a1cb60e41b81526001600160a01b0390911690632a0a1cb09061276b908d908d908d90600401613c22565b61014060405180830381865afa158015612789573d6000803e3d6000fd5b505050506040513d601f19601f820116820180604052508101906127ad9190613c59565b905060008160e00151116127d35760405162461bcd60e51b815260040161048690613e48565b60028560048111156127e7576127e7613af9565b0361291b576000600660009054906101000a90046001600160a01b03166001600160a01b031663706faf3a6040518060e0016040528085600001516001600160a01b0316815260200185602001518152602001856040015181526020018560a0015181526020018560c0015115158152602001856080015181526020018560e001518152506040518263ffffffff1660e01b815260040161288891906139c6565b602060405180830381865afa1580156128a5573d6000803e3d6000fd5b505050506040513d601f19601f820116820180604052508101906128c99190613a1a565b9050816101200151600014806128f957508160c001516128f05781610120015181106128f9565b81610120015181115b6129155760405162461bcd60e51b815260040161048690613ceb565b50612c23565b600485600481111561292f5761292f613af9565b03612b6f576000600660009054906101000a90046001600160a01b03166001600160a01b03166364d372c66040518060e0016040528085600001516001600160a01b0316815260200185602001518152602001856040015181526020018560a0015181526020018560c0015115158152602001856080015181526020018560e001518152506040518263ffffffff1660e01b81526004016129d091906139c6565b602060405180830381865afa1580156129ed573d6000803e3d6000fd5b505050506040513d601f19601f82011682018060405250810190612a119190613a1a565b905081610120015160001480612a4157508160c00151612a38578161012001518110612a41565b81610120015181115b612a5d5760405162461bcd60e51b815260040161048690613ceb565b6007548251602084015160408086015190516304ec194160e21b81526000946001600160a01b0316936313b0650493612a9d939192909190600401613c22565b602060405180830381865afa158015612aba573d6000803e3d6000fd5b505050506040513d601f19601f82011682018060405250810190612ade9190613a1a565b90506000818460800151612af29190613f19565b9050600a548460e0015182612b079190613f41565b1215612b675760405162461bcd60e51b815260206004820152602960248201527f706f736974696f6e20746f20736d616c6c20666f72207061727469616c206c6960448201526838bab4b230ba34b7b760b91b6064820152608401610486565b505050612c23565b6001856004811115612b8357612b83613af9565b141580612b9557506000816101200151115b612bc95760405162461bcd60e51b81526020600482015260056024820152641393d7d4d360da1b6044820152606401610486565b6000856004811115612bdd57612bdd613af9565b141580612bef57506000816101000151115b612c235760405162461bcd60e51b815260206004820152600560248201526404e4f5f54560dc1b6044820152606401610486565b600083612c41578160e001518260800151612c3e9190613a8a565b90505b6000612c52858d8d8d888c8861322e565b509050612c8b6040805160c08101825260008082526020820181905291810182905260608101829052608081018290529060a082015290565b6001600160a01b038088168252602082018b90528d166040820152606081018c9052608081018b905260a08101886004811115612cca57612cca613af9565b90816004811115612cdd57612cdd613af9565b90525060025460405163205fe86960e21b81526001600160a01b039091169063817fa1a490612d129084908690600401613fc9565b600060405180830381600087803b158015612d2c57600080fd5b505af1158015612d40573d6000803e3d6000fd5b50505050600260009054906101000a90046001600160a01b03166001600160a01b0316633078fff56040518163ffffffff1660e01b8152600401602060405180830381865afa158015612d97573d6000803e3d6000fd5b505050506040513d601f19601f82011682018060405250810190612dbb9190613a33565b6001600160a01b03166339fe9fd283836040518363ffffffff1660e01b8152600401612de8929190613fe4565b600060405180830381600087803b158015612e0257600080fd5b505af1158015612e16573d6000803e3d6000fd5b505050508b8d6001600160a01b0316886001600160a01b03167f6d87222414c5850caf1d385b1e080a771b505825b082a2162d0f4af5ffc86c0085604051612e6091815260200190565b60405180910390a45050505050505050505050505050565b6002546040516302a0a1cb60e41b815260009182916001600160a01b0390911690632a0a1cb090612eb190889088908890600401613c22565b61014060405180830381865afa158015612ecf573d6000803e3d6000fd5b505050506040513d601f19601f82011682018060405250810190612ef39190613c59565b9050600080612f018361133c565b9150915080612f225760405162461bcd60e51b815260040161048690613ceb565b5095945050505050565b600260009054906101000a90046001600160a01b03166001600160a01b03166312d43a516040518163ffffffff1660e01b8152600401602060405180830381865afa158015612f7f573d6000803e3d6000fd5b505050506040513d601f19601f82011682018060405250810190612fa39190613a33565b6001600160a01b0316336001600160a01b031614612fee5760405162461bcd60e51b8152602060048201526008602482015267474f565f4f4e4c5960c01b6044820152606401610486565b565b323314612fee57600080fd5b600b54610100900460ff1615612fee5760405162461bcd60e51b815260040161048690602080825260049082015263444f4e4560e01b604082015260600190565b600080600260009054906101000a90046001600160a01b03166001600160a01b031662b127836040518163ffffffff1660e01b8152600401602060405180830381865afa158015613092573d6000803e3d6000fd5b505050506040513d601f19601f820116820180604052508101906130b69190613a33565b6001600160a01b031663281b693c846040518263ffffffff1660e01b81526004016130e391815260200190565b602060405180830381865afa158015613100573d6000803e3d6000fd5b505050506040513d601f19601f820116820180604052508101906131249190613a1a565b90506000811161319c57604051630a06da4f60e21b8152600481018490526001600160a01b0385169063281b693c90602401602060405180830381865afa158015613173573d6000803e3d6000fd5b505050506040513d601f19601f820116820180604052508101906131979190613a1a565b61319e565b805b9150505b92915050565b600061a4b14614806131bc575062066eed46145b156132295760646001600160a01b031663a3b1b31d6040518163ffffffff1660e01b8152600401602060405180830381865afa158015613200573d6000803e3d6000fd5b505050506040513d601f19601f820116820180604052508101906132249190613a1a565b905090565b504390565b6000806000600260009054906101000a90046001600160a01b03166001600160a01b031662b127836040518163ffffffff1660e01b8152600401602060405180830381865afa158015613285573d6000803e3d6000fd5b505050506040513d601f19601f820116820180604052508101906132a99190613a33565b6001600160a01b0316639bd24d838a8a8a8a6040518563ffffffff1660e01b81526004016132da9493929190613ff8565b608060405180830381865afa1580156132f7573d6000803e3d6000fd5b505050506040513d601f19601f8201168201806040525081019061331b9190614040565b90506000600260009054906101000a90046001600160a01b03166001600160a01b0316633078fff56040518163ffffffff1660e01b8152600401602060405180830381865afa158015613372573d6000803e3d6000fd5b505050506040513d601f19601f820116820180604052508101906133969190613a33565b9050806001600160a01b0316636938c05d8a8d6133b45760036133b7565b60025b888f61340a5760018b60048111156133d1576133d1613af9565b146134005760008b60048111156133ea576133ea613af9565b146133f9578660600151613410565b8651613410565b8660200151613410565b86604001515b6040518563ffffffff1660e01b815260040161342f94939291906140bd565b6020604051808303816000875af115801561344e573d6000803e3d6000fd5b505050506040513d601f19601f820116820180604052508101906134729190613a1a565b9350505097509795505050505050565b60006020828403121561349457600080fd5b5035919050565b634e487b7160e01b600052604160045260246000fd5b604051610140810167ffffffffffffffff811182821017156134d5576134d561349b565b60405290565b604051610c80810167ffffffffffffffff811182821017156134d5576134d561349b565b6001600160a01b038116811461351457600080fd5b50565b8035613522816134ff565b919050565b801515811461351457600080fd5b803561352281613527565b6000610140828403121561355357600080fd5b61355b6134b1565b905061356682613517565b81526020820135602082015260408201356040820152606082013560608201526080820135608082015260a082013560a08201526135a660c08301613535565b60c082015260e082013560e082015261010080830135818301525061012080830135818301525092915050565b600061014082840312156135e657600080fd5b61166e8383613540565b6000806000806101a0858703121561360757600080fd5b6136118686613540565b93506101408501356003811061362657600080fd5b939693955050505061016082013591610180013590565b600082601f83011261364e57600080fd5b6136566134db565b80610c8084018581111561366957600080fd5b845b8181101561368357803584526020938401930161366b565b509095945050505050565b600080600080600061322086880312156136a757600080fd5b6136b1878761363d565b945086610c9f8701126136c357600080fd5b6136cb6134db565b806119008801898111156136de57600080fd5b610c8089015b818110156137055780356136f7816134ff565b8452602093840193016136e4565b508196506137138a8261363d565b955050505061372687612580880161363d565b94979396509194613200013592915050565b60008060006060848603121561374d57600080fd5b8335613758816134ff565b95602085013595506040909401359392505050565b60008060006040848603121561378257600080fd5b833561378d816134ff565b9250602084013567ffffffffffffffff808211156137aa57600080fd5b818601915086601f8301126137be57600080fd5b8135818111156137cd57600080fd5b8760208285010111156137df57600080fd5b6020830194508093505050509250925092565b60005b8381101561380d5781810151838201526020016137f5565b50506000910152565b6000815180845261382e8160208601602086016137f2565b601f01601f19169290920160200192915050565b60208152600061166e6020830184613816565b6000806040838503121561386857600080fd5b50508035926020909101359150565b60008060006060848603121561388c57600080fd5b505081359360208301359350604090920135919050565b6000602082840312156138b557600080fd5b813561319c816134ff565b600080600080600080600080610100898b0312156138dd57600080fd5b88356138e8816134ff565b975060208901356138f8816134ff565b96506040890135613908816134ff565b95506060890135613918816134ff565b94506080890135613928816134ff565b935060a0890135613938816134ff565b979a969950949793969295929450505060c08201359160e0013590565b60008060008060008060c0878903121561396e57600080fd5b863595506020870135613980816134ff565b95989597505050506040840135936060810135936080820135935060a0909101359150565b602080825260079082015266056414c55455f360cc1b604082015260600190565b81516001600160a01b0316815260208083015190820152604080830151908201526060808301519082015260808083015115159082015260a0828101519082015260c0918201519181019190915260e00190565b600060208284031215613a2c57600080fd5b5051919050565b600060208284031215613a4557600080fd5b815161319c816134ff565b60008060408385031215613a6357600080fd5b505080516020909101519092909150565b634e487b7160e01b600052601160045260246000fd5b80820281158282048414176131a2576131a2613a74565b6001600160a01b03929092168252602082015260400190565b808201808211156131a2576131a2613a74565b6020808252601290820152714d41585f50454e44494e475f4f524445525360701b604082015260600190565b634e487b7160e01b600052602160045260246000fd5b60048110613b1f57613b1f613af9565b9052565b84815260808101613b376020830186613b0f565b60408201939093526060015292915050565b828152815180516001600160a01b03166020830152610200820190602081015160408401526040810151606084015260608101516080840152608081015160a084015260a081015160c084015260c0810151613ba960e085018215159052565b5060e0810151610100848101919091528101516101208085019190915201516101408301526020830151610160830152604083015161018083015260608301516101a083015260808301516101c083015260a0909201516101e090910152919050565b634e487b7160e01b600052603260045260246000fd5b6001600160a01b039390931683526020830191909152604082015260600190565b8051613522816134ff565b805161352281613527565b60006101408284031215613c6c57600080fd5b613c746134b1565b613c7d83613c43565b81526020830151602082015260408301516040820152606083015160608201526080830151608082015260a083015160a0820152613cbd60c08401613c4e565b60c082015260e083810151908201526101008084015190820152610120928301519281019290925250919050565b602080825260069082015265121054d7d4d360d21b604082015260600190565b8183823760009101908152919050565b600060208284031215613d2d57600080fd5b815167ffffffffffffffff80821115613d4557600080fd5b818401915084601f830112613d5957600080fd5b815181811115613d6b57613d6b61349b565b604051601f8201601f19908116603f01168101908382118183101715613d9357613d9361349b565b81604052828152876020848701011115613dac57600080fd5b613dbd8360208301602088016137f2565b979650505050505050565b600060c08284031215613dda57600080fd5b60405160c0810181811067ffffffffffffffff82111715613dfd57613dfd61349b565b8060405250825181526020830151602082015260408301516040820152606083015160608201526080830151608082015260a0830151613e3c81613527565b60a08201529392505050565b6020808252600890820152674e4f5f545241444560c01b604082015260600190565b600082613e8757634e487b7160e01b600052601260045260246000fd5b500490565b818103818111156131a2576131a2613a74565b6001600160a01b0394909416845260208401929092526040830152606082015260800190565b60028110613b1f57613b1f613af9565b6001600160a01b03878116825286166020820152604081018590526060810184905260c08101613f086080830185613ec5565b8260a0830152979650505050505050565b8082018281126000831280158216821582161715613f3957613f39613a74565b505092915050565b80820260008212600160ff1b84141615613f5d57613f5d613a74565b81810583148215176131a2576131a2613a74565b60018060a01b038082511683526020820151602084015280604083015116604084015250606081015160608301526080810151608083015260a081015160058110613fbe57613fbe613af9565b8060a0840152505050565b60e08101613fd78285613f71565b8260c08301529392505050565b82815260e0810161166e6020830184613f71565b6001600160a01b03851681526020810184905260408101839052608081016140236060830184613ec5565b95945050505050565b805163ffffffff8116811461352257600080fd5b60006080828403121561405257600080fd5b6040516080810181811067ffffffffffffffff821117156140755761407561349b565b6040526140818361402c565b815261408f6020840161402c565b60208201526140a06040840161402c565b60408201526140b16060840161402c565b60608201529392505050565b848152608081016140d16020830186613b0f565b83604083015263ffffffff831660608301529594505050505056fea2646970667358221220b7dbb0584fd28e147ef88137b26d9400831fde33e1f6e3fcfb15b51ad10bb73b64736f6c63430008170033",
  "libraries": {
    "TradeUtils": "0xe24Bf7C7CED282D601299760383f7684C7214Ff9",
    "PackingUtils": "0xB55BeA758fe99e2550Ec37340BD2c511188992Dc"
  },
  "devdoc": {
    "events": {
      "Initialized(uint8)": {
        "details": "Triggered when the contract has been initialized or reinitialized."
      }
    },
    "kind": "dev",
    "methods": {},
    "version": 1
  },
  "userdoc": {
    "kind": "user",
    "methods": {},
    "version": 1
  },
  "storageLayout": {
    "storage": [
      {
        "astId": 10420,
        "contract": "contracts/Trading.sol:Trading",
        "label": "delegations",
        "offset": 0,
        "slot": "0",
        "type": "t_mapping(t_address,t_address)"
      },
      {
        "astId": 10422,
        "contract": "contracts/Trading.sol:Trading",
        "label": "senderOverride",
        "offset": 0,
        "slot": "1",
        "type": "t_address"
      },
      {
        "astId": 2892,
        "contract": "contracts/Trading.sol:Trading",
        "label": "_initialized",
        "offset": 20,
        "slot": "1",
        "type": "t_uint8"
      },
      {
        "astId": 2895,
        "contract": "contracts/Trading.sol:Trading",
        "label": "_initializing",
        "offset": 21,
        "slot": "1",
        "type": "t_bool"
      },
      {
        "astId": 22406,
        "contract": "contracts/Trading.sol:Trading",
        "label": "storageT",
        "offset": 0,
        "slot": "2",
        "type": "t_contract(StorageInterface)33073"
      },
      {
        "astId": 22409,
        "contract": "contracts/Trading.sol:Trading",
        "label": "nftRewards",
        "offset": 0,
        "slot": "3",
        "type": "t_contract(NftRewardsInterfaceV6_3_1)31975"
      },
      {
        "astId": 22412,
        "contract": "contracts/Trading.sol:Trading",
        "label": "pairInfos",
        "offset": 0,
        "slot": "4",
        "type": "t_contract(PairInfosInterface)32275"
      },
      {
        "astId": 22415,
        "contract": "contracts/Trading.sol:Trading",
        "label": "referrals",
        "offset": 0,
        "slot": "5",
        "type": "t_contract(ReferralsInterface)32516"
      },
      {
        "astId": 22418,
        "contract": "contracts/Trading.sol:Trading",
        "label": "borrowingFees",
        "offset": 0,
        "slot": "6",
        "type": "t_contract(BorrowingFeesInterface)31450"
      },
      {
        "astId": 22421,
        "contract": "contracts/Trading.sol:Trading",
        "label": "callbacks",
        "offset": 0,
        "slot": "7",
        "type": "t_contract(CallbacksInterface)31514"
      },
      {
        "astId": 22429,
        "contract": "contracts/Trading.sol:Trading",
        "label": "maxPosWETH",
        "offset": 0,
        "slot": "8",
        "type": "t_uint256"
      },
      {
        "astId": 22431,
        "contract": "contracts/Trading.sol:Trading",
        "label": "marketOrdersTimeout",
        "offset": 0,
        "slot": "9",
        "type": "t_uint256"
      },
      {
        "astId": 22434,
        "contract": "contracts/Trading.sol:Trading",
        "label": "minLeveragedPosWETH",
        "offset": 0,
        "slot": "10",
        "type": "t_int256"
      },
      {
        "astId": 22436,
        "contract": "contracts/Trading.sol:Trading",
        "label": "isPaused",
        "offset": 0,
        "slot": "11",
        "type": "t_bool"
      },
      {
        "astId": 22438,
        "contract": "contracts/Trading.sol:Trading",
        "label": "isDone",
        "offset": 1,
        "slot": "11",
        "type": "t_bool"
      }
    ],
    "types": {
      "t_address": {
        "encoding": "inplace",
        "label": "address",
        "numberOfBytes": "20"
      },
      "t_bool": {
        "encoding": "inplace",
        "label": "bool",
        "numberOfBytes": "1"
      },
      "t_contract(BorrowingFeesInterface)31450": {
        "encoding": "inplace",
        "label": "contract BorrowingFeesInterface",
        "numberOfBytes": "20"
      },
      "t_contract(CallbacksInterface)31514": {
        "encoding": "inplace",
        "label": "contract CallbacksInterface",
        "numberOfBytes": "20"
      },
      "t_contract(NftRewardsInterfaceV6_3_1)31975": {
        "encoding": "inplace",
        "label": "contract NftRewardsInterfaceV6_3_1",
        "numberOfBytes": "20"
      },
      "t_contract(PairInfosInterface)32275": {
        "encoding": "inplace",
        "label": "contract PairInfosInterface",
        "numberOfBytes": "20"
      },
      "t_contract(ReferralsInterface)32516": {
        "encoding": "inplace",
        "label": "contract ReferralsInterface",
        "numberOfBytes": "20"
      },
      "t_contract(StorageInterface)33073": {
        "encoding": "inplace",
        "label": "contract StorageInterface",
        "numberOfBytes": "20"
      },
      "t_int256": {
        "encoding": "inplace",
        "label": "int256",
        "numberOfBytes": "32"
      },
      "t_mapping(t_address,t_address)": {
        "encoding": "mapping",
        "key": "t_address",
        "label": "mapping(address => address)",
        "numberOfBytes": "32",
        "value": "t_address"
      },
      "t_uint256": {
        "encoding": "inplace",
        "label": "uint256",
        "numberOfBytes": "32"
      },
      "t_uint8": {
        "encoding": "inplace",
        "label": "uint8",
        "numberOfBytes": "1"
      }
    }
  }
}