{
  "address": "0x9f965A742572d44d876D43CB32bC78B8E8030b48",
  "abi": [
    {
      "inputs": [
        {
          "internalType": "contract StorageInterfaceV5",
          "name": "_storageT",
          "type": "address"
        },
        {
          "internalType": "contract NftRewardsInterfaceV6_3_1",
          "name": "_nftRewards",
          "type": "address"
        },
        {
          "internalType": "contract GNSPairInfosInterfaceV6",
          "name": "_pairInfos",
          "type": "address"
        },
        {
          "internalType": "contract GNSReferralsInterfaceV6_2",
          "name": "_referrals",
          "type": "address"
        },
        {
          "internalType": "contract GNSBorrowingFeesInterfaceV6_4",
          "name": "_borrowingFees",
          "type": "address"
        },
        {
          "internalType": "uint256",
          "name": "_maxPosWETH",
          "type": "uint256"
        },
        {
          "internalType": "uint256",
          "name": "_marketOrdersTimeout",
          "type": "uint256"
        }
      ],
      "stateMutability": "nonpayable",
      "type": "constructor"
    },
    {
      "anonymous": false,
      "inputs": [
        {
          "indexed": true,
          "internalType": "uint256",
          "name": "orderId",
          "type": "uint256"
        },
        {
          "components": [
            {
              "components": [
                {
                  "internalType": "address",
                  "name": "trader",
                  "type": "address"
                },
                {
                  "internalType": "uint256",
                  "name": "pairIndex",
                  "type": "uint256"
                },
                {
                  "internalType": "uint256",
                  "name": "index",
                  "type": "uint256"
                },
                {
                  "internalType": "uint256",
                  "name": "initialPosToken",
                  "type": "uint256"
                },
                {
                  "internalType": "uint256",
                  "name": "positionSizeWETH",
                  "type": "uint256"
                },
                {
                  "internalType": "uint256",
                  "name": "openPrice",
                  "type": "uint256"
                },
                {
                  "internalType": "bool",
                  "name": "buy",
                  "type": "bool"
                },
                {
                  "internalType": "uint256",
                  "name": "leverage",
                  "type": "uint256"
                },
                {
                  "internalType": "uint256",
                  "name": "tp",
                  "type": "uint256"
                },
                {
                  "internalType": "uint256",
                  "name": "sl",
                  "type": "uint256"
                }
              ],
              "internalType": "struct StorageInterfaceV5.Trade",
              "name": "trade",
              "type": "tuple"
            },
            {
              "internalType": "uint256",
              "name": "block",
              "type": "uint256"
            },
            {
              "internalType": "uint256",
              "name": "wantedPrice",
              "type": "uint256"
            },
            {
              "internalType": "uint256",
              "name": "slippageP",
              "type": "uint256"
            },
            {
              "internalType": "uint256",
              "name": "spreadReductionP",
              "type": "uint256"
            },
            {
              "internalType": "uint256",
              "name": "tokenId",
              "type": "uint256"
            }
          ],
          "indexed": false,
          "internalType": "struct StorageInterfaceV5.PendingMarketOrder",
          "name": "order",
          "type": "tuple"
        }
      ],
      "name": "ChainlinkCallbackTimeout",
      "type": "event"
    },
    {
      "anonymous": false,
      "inputs": [
        {
          "indexed": true,
          "internalType": "address",
          "name": "trader",
          "type": "address"
        },
        {
          "indexed": true,
          "internalType": "uint256",
          "name": "pairIndex",
          "type": "uint256"
        },
        {
          "indexed": false,
          "internalType": "uint256",
          "name": "index",
          "type": "uint256"
        }
      ],
      "name": "CouldNotCloseTrade",
      "type": "event"
    },
    {
      "anonymous": false,
      "inputs": [
        {
          "indexed": false,
          "internalType": "bool",
          "name": "done",
          "type": "bool"
        }
      ],
      "name": "Done",
      "type": "event"
    },
    {
      "anonymous": false,
      "inputs": [
        {
          "indexed": true,
          "internalType": "uint256",
          "name": "orderId",
          "type": "uint256"
        },
        {
          "indexed": true,
          "internalType": "address",
          "name": "trader",
          "type": "address"
        },
        {
          "indexed": true,
          "internalType": "uint256",
          "name": "pairIndex",
          "type": "uint256"
        },
        {
          "indexed": false,
          "internalType": "bool",
          "name": "open",
          "type": "bool"
        }
      ],
      "name": "MarketOrderInitiated",
      "type": "event"
    },
    {
      "anonymous": false,
      "inputs": [
        {
          "indexed": false,
          "internalType": "uint256",
          "name": "orderId",
          "type": "uint256"
        },
        {
          "indexed": true,
          "internalType": "address",
          "name": "nftHolder",
          "type": "address"
        },
        {
          "indexed": true,
          "internalType": "address",
          "name": "trader",
          "type": "address"
        },
        {
          "indexed": true,
          "internalType": "uint256",
          "name": "pairIndex",
          "type": "uint256"
        }
      ],
      "name": "NftOrderInitiated",
      "type": "event"
    },
    {
      "anonymous": false,
      "inputs": [
        {
          "indexed": true,
          "internalType": "address",
          "name": "nftHolder",
          "type": "address"
        },
        {
          "indexed": true,
          "internalType": "address",
          "name": "trader",
          "type": "address"
        },
        {
          "indexed": true,
          "internalType": "uint256",
          "name": "pairIndex",
          "type": "uint256"
        }
      ],
      "name": "NftOrderSameBlock",
      "type": "event"
    },
    {
      "anonymous": false,
      "inputs": [
        {
          "indexed": false,
          "internalType": "string",
          "name": "name",
          "type": "string"
        },
        {
          "indexed": false,
          "internalType": "uint256",
          "name": "value",
          "type": "uint256"
        }
      ],
      "name": "NumberUpdated",
      "type": "event"
    },
    {
      "anonymous": false,
      "inputs": [
        {
          "indexed": true,
          "internalType": "address",
          "name": "trader",
          "type": "address"
        },
        {
          "indexed": true,
          "internalType": "uint256",
          "name": "pairIndex",
          "type": "uint256"
        },
        {
          "indexed": false,
          "internalType": "uint256",
          "name": "index",
          "type": "uint256"
        }
      ],
      "name": "OpenLimitCanceled",
      "type": "event"
    },
    {
      "anonymous": false,
      "inputs": [
        {
          "indexed": true,
          "internalType": "address",
          "name": "trader",
          "type": "address"
        },
        {
          "indexed": true,
          "internalType": "uint256",
          "name": "pairIndex",
          "type": "uint256"
        },
        {
          "indexed": false,
          "internalType": "uint256",
          "name": "index",
          "type": "uint256"
        }
      ],
      "name": "OpenLimitPlaced",
      "type": "event"
    },
    {
      "anonymous": false,
      "inputs": [
        {
          "indexed": true,
          "internalType": "address",
          "name": "trader",
          "type": "address"
        },
        {
          "indexed": true,
          "internalType": "uint256",
          "name": "pairIndex",
          "type": "uint256"
        },
        {
          "indexed": false,
          "internalType": "uint256",
          "name": "index",
          "type": "uint256"
        },
        {
          "indexed": false,
          "internalType": "uint256",
          "name": "newPrice",
          "type": "uint256"
        },
        {
          "indexed": false,
          "internalType": "uint256",
          "name": "newTp",
          "type": "uint256"
        },
        {
          "indexed": false,
          "internalType": "uint256",
          "name": "newSl",
          "type": "uint256"
        },
        {
          "indexed": false,
          "internalType": "uint256",
          "name": "maxSlippageP",
          "type": "uint256"
        }
      ],
      "name": "OpenLimitUpdated",
      "type": "event"
    },
    {
      "anonymous": false,
      "inputs": [
        {
          "indexed": false,
          "internalType": "bool",
          "name": "paused",
          "type": "bool"
        }
      ],
      "name": "Paused",
      "type": "event"
    },
    {
      "anonymous": false,
      "inputs": [
        {
          "indexed": true,
          "internalType": "address",
          "name": "trader",
          "type": "address"
        },
        {
          "indexed": true,
          "internalType": "uint256",
          "name": "pairIndex",
          "type": "uint256"
        },
        {
          "indexed": false,
          "internalType": "uint256",
          "name": "index",
          "type": "uint256"
        },
        {
          "indexed": false,
          "internalType": "uint256",
          "name": "newSl",
          "type": "uint256"
        }
      ],
      "name": "SlUpdated",
      "type": "event"
    },
    {
      "anonymous": false,
      "inputs": [
        {
          "indexed": true,
          "internalType": "address",
          "name": "trader",
          "type": "address"
        },
        {
          "indexed": true,
          "internalType": "uint256",
          "name": "pairIndex",
          "type": "uint256"
        },
        {
          "indexed": false,
          "internalType": "uint256",
          "name": "index",
          "type": "uint256"
        },
        {
          "indexed": false,
          "internalType": "uint256",
          "name": "newTp",
          "type": "uint256"
        }
      ],
      "name": "TpUpdated",
      "type": "event"
    },
    {
      "inputs": [],
      "name": "_msgSender",
      "outputs": [
        {
          "internalType": "address",
          "name": "",
          "type": "address"
        }
      ],
      "stateMutability": "view",
      "type": "function"
    },
    {
      "inputs": [],
      "name": "borrowingFees",
      "outputs": [
        {
          "internalType": "contract GNSBorrowingFeesInterfaceV6_4",
          "name": "",
          "type": "address"
        }
      ],
      "stateMutability": "view",
      "type": "function"
    },
    {
      "inputs": [
        {
          "internalType": "uint256",
          "name": "pairIndex",
          "type": "uint256"
        },
        {
          "internalType": "uint256",
          "name": "index",
          "type": "uint256"
        }
      ],
      "name": "cancelOpenLimitOrder",
      "outputs": [],
      "stateMutability": "nonpayable",
      "type": "function"
    },
    {
      "inputs": [
        {
          "internalType": "uint256",
          "name": "pairIndex",
          "type": "uint256"
        },
        {
          "internalType": "uint256",
          "name": "index",
          "type": "uint256"
        }
      ],
      "name": "closeTradeMarket",
      "outputs": [],
      "stateMutability": "nonpayable",
      "type": "function"
    },
    {
      "inputs": [
        {
          "internalType": "uint256",
          "name": "_order",
          "type": "uint256"
        }
      ],
      "name": "closeTradeMarketTimeout",
      "outputs": [],
      "stateMutability": "nonpayable",
      "type": "function"
    },
    {
      "inputs": [
        {
          "internalType": "address",
          "name": "trader",
          "type": "address"
        },
        {
          "internalType": "bytes",
          "name": "call_data",
          "type": "bytes"
        }
      ],
      "name": "delegatedAction",
      "outputs": [
        {
          "internalType": "bytes",
          "name": "",
          "type": "bytes"
        }
      ],
      "stateMutability": "nonpayable",
      "type": "function"
    },
    {
      "inputs": [
        {
          "internalType": "address",
          "name": "",
          "type": "address"
        }
      ],
      "name": "delegations",
      "outputs": [
        {
          "internalType": "address",
          "name": "",
          "type": "address"
        }
      ],
      "stateMutability": "view",
      "type": "function"
    },
    {
      "inputs": [],
      "name": "done",
      "outputs": [],
      "stateMutability": "nonpayable",
      "type": "function"
    },
    {
      "inputs": [
        {
          "internalType": "uint256",
          "name": "packed",
          "type": "uint256"
        }
      ],
      "name": "executeNftOrder",
      "outputs": [],
      "stateMutability": "nonpayable",
      "type": "function"
    },
    {
      "inputs": [],
      "name": "isDone",
      "outputs": [
        {
          "internalType": "bool",
          "name": "",
          "type": "bool"
        }
      ],
      "stateMutability": "view",
      "type": "function"
    },
    {
      "inputs": [],
      "name": "isPaused",
      "outputs": [
        {
          "internalType": "bool",
          "name": "",
          "type": "bool"
        }
      ],
      "stateMutability": "view",
      "type": "function"
    },
    {
      "inputs": [],
      "name": "marketOrdersTimeout",
      "outputs": [
        {
          "internalType": "uint256",
          "name": "",
          "type": "uint256"
        }
      ],
      "stateMutability": "view",
      "type": "function"
    },
    {
      "inputs": [],
      "name": "maxPosWETH",
      "outputs": [
        {
          "internalType": "uint256",
          "name": "",
          "type": "uint256"
        }
      ],
      "stateMutability": "view",
      "type": "function"
    },
    {
      "inputs": [],
      "name": "nftRewards",
      "outputs": [
        {
          "internalType": "contract NftRewardsInterfaceV6_3_1",
          "name": "",
          "type": "address"
        }
      ],
      "stateMutability": "view",
      "type": "function"
    },
    {
      "inputs": [
        {
          "components": [
            {
              "internalType": "address",
              "name": "trader",
              "type": "address"
            },
            {
              "internalType": "uint256",
              "name": "pairIndex",
              "type": "uint256"
            },
            {
              "internalType": "uint256",
              "name": "index",
              "type": "uint256"
            },
            {
              "internalType": "uint256",
              "name": "initialPosToken",
              "type": "uint256"
            },
            {
              "internalType": "uint256",
              "name": "positionSizeWETH",
              "type": "uint256"
            },
            {
              "internalType": "uint256",
              "name": "openPrice",
              "type": "uint256"
            },
            {
              "internalType": "bool",
              "name": "buy",
              "type": "bool"
            },
            {
              "internalType": "uint256",
              "name": "leverage",
              "type": "uint256"
            },
            {
              "internalType": "uint256",
              "name": "tp",
              "type": "uint256"
            },
            {
              "internalType": "uint256",
              "name": "sl",
              "type": "uint256"
            }
          ],
          "internalType": "struct StorageInterfaceV5.Trade",
          "name": "t",
          "type": "tuple"
        },
        {
          "internalType": "enum NftRewardsInterfaceV6_3_1.OpenLimitOrderType",
          "name": "orderType",
          "type": "uint8"
        },
        {
          "internalType": "uint256",
          "name": "spreadReductionId",
          "type": "uint256"
        },
        {
          "internalType": "uint256",
          "name": "slippageP",
          "type": "uint256"
        },
        {
          "internalType": "address",
          "name": "referrer",
          "type": "address"
        }
      ],
      "name": "openTrade",
      "outputs": [],
      "stateMutability": "nonpayable",
      "type": "function"
    },
    {
      "inputs": [
        {
          "internalType": "uint256",
          "name": "_order",
          "type": "uint256"
        }
      ],
      "name": "openTradeMarketTimeout",
      "outputs": [],
      "stateMutability": "nonpayable",
      "type": "function"
    },
    {
      "inputs": [],
      "name": "pairInfos",
      "outputs": [
        {
          "internalType": "contract GNSPairInfosInterfaceV6",
          "name": "",
          "type": "address"
        }
      ],
      "stateMutability": "view",
      "type": "function"
    },
    {
      "inputs": [],
      "name": "pause",
      "outputs": [],
      "stateMutability": "nonpayable",
      "type": "function"
    },
    {
      "inputs": [],
      "name": "referrals",
      "outputs": [
        {
          "internalType": "contract GNSReferralsInterfaceV6_2",
          "name": "",
          "type": "address"
        }
      ],
      "stateMutability": "view",
      "type": "function"
    },
    {
      "inputs": [],
      "name": "removeDelegate",
      "outputs": [],
      "stateMutability": "nonpayable",
      "type": "function"
    },
    {
      "inputs": [
        {
          "internalType": "address",
          "name": "delegate",
          "type": "address"
        }
      ],
      "name": "setDelegate",
      "outputs": [],
      "stateMutability": "nonpayable",
      "type": "function"
    },
    {
      "inputs": [
        {
          "internalType": "uint256",
          "name": "value",
          "type": "uint256"
        }
      ],
      "name": "setMarketOrdersTimeout",
      "outputs": [],
      "stateMutability": "nonpayable",
      "type": "function"
    },
    {
      "inputs": [
        {
          "internalType": "uint256",
          "name": "value",
          "type": "uint256"
        }
      ],
      "name": "setMaxPosWETH",
      "outputs": [],
      "stateMutability": "nonpayable",
      "type": "function"
    },
    {
      "inputs": [],
      "name": "storageT",
      "outputs": [
        {
          "internalType": "contract StorageInterfaceV5",
          "name": "",
          "type": "address"
        }
      ],
      "stateMutability": "view",
      "type": "function"
    },
    {
      "inputs": [
        {
          "internalType": "uint256",
          "name": "pairIndex",
          "type": "uint256"
        },
        {
          "internalType": "uint256",
          "name": "index",
          "type": "uint256"
        },
        {
          "internalType": "uint256",
          "name": "price",
          "type": "uint256"
        },
        {
          "internalType": "uint256",
          "name": "tp",
          "type": "uint256"
        },
        {
          "internalType": "uint256",
          "name": "sl",
          "type": "uint256"
        },
        {
          "internalType": "uint256",
          "name": "maxSlippageP",
          "type": "uint256"
        }
      ],
      "name": "updateOpenLimitOrder",
      "outputs": [],
      "stateMutability": "nonpayable",
      "type": "function"
    },
    {
      "inputs": [
        {
          "internalType": "uint256",
          "name": "pairIndex",
          "type": "uint256"
        },
        {
          "internalType": "uint256",
          "name": "index",
          "type": "uint256"
        },
        {
          "internalType": "uint256",
          "name": "newSl",
          "type": "uint256"
        }
      ],
      "name": "updateSl",
      "outputs": [],
      "stateMutability": "nonpayable",
      "type": "function"
    },
    {
      "inputs": [
        {
          "internalType": "uint256",
          "name": "pairIndex",
          "type": "uint256"
        },
        {
          "internalType": "uint256",
          "name": "index",
          "type": "uint256"
        },
        {
          "internalType": "uint256",
          "name": "newTp",
          "type": "uint256"
        }
      ],
      "name": "updateTp",
      "outputs": [],
      "stateMutability": "nonpayable",
      "type": "function"
    }
  ],
  "transactionHash": "0xf131846f55f8f1c5ad532be215b03771532ffd94b0d4a36ceefcff9bc0fd5783",
  "args": [
    "0xB9c1C0B7981029CFc289D3eA0d5a9a5919d60764",
    "0x9916051d60f572fC17339Fd5747e6C4D0c51C0E4",
    "0x970b089E4721DD3A4124b3240064b5daE0680393",
    "0x7985A05FF9916fbac219c651f5Da52E78c7eDAe7",
    "0x2016c28a38A8130cDB76d91DB89d972C24135EB6",
    2,
    2
  ],
  "numDeployments": 1,
  "solcInputHash": "ec3cbe74776f6123e7e1f431318f92a1",
  "bytecode": "0x6101206040523480156200001257600080fd5b506040516200634d3803806200634d83398101604081905262000035916200013e565b6001600160a01b038716158015906200005657506001600160a01b03861615155b80156200006b57506001600160a01b03851615155b80156200008057506001600160a01b03841615155b80156200009557506001600160a01b03831615155b8015620000a25750600082115b8015620000af5750600081115b620000ef5760405162461bcd60e51b815260206004820152600c60248201526b57524f4e475f504152414d5360a01b604482015260640160405180910390fd5b6001600160a01b0396871660805294861660a05292851660c05290841660e05290921661010052600291909155600355620001d1565b6001600160a01b03811681146200013b57600080fd5b50565b600080600080600080600060e0888a0312156200015a57600080fd5b8751620001678162000125565b60208901519097506200017a8162000125565b60408901519096506200018d8162000125565b6060890151909550620001a08162000125565b6080890151909450620001b38162000125565b8093505060a0880151915060c0880151905092959891949750929550565b60805160a05160c05160e05161010051615f4662000407600039600081816102440152610b250152600081816103e10152612faf0152600081816101a801528181611089015281816110f80152818161261b01526126e001526000818161026b01528181610e8301528181610f170152818161142a0152818161150501528181612a89015281816147fd015281816148890152818161495301528181614eed0152614f810152600081816101cf015281816105ef0152818161072d015281816107c3015281816109b501528181610a6701528181610ba201528181610f9e015281816111b901528181611289015281816113ac015281816116530152818161177b015281816117f3015281816118e001528181611a0601528181611d7501528181611e6b01528181611f0701528181611f990152818161202b015281816120fa0152818161219901528181612420015281816127a101528181612852015281816128cd0152818161294801528181612b0001528181612d7301528181612e4e01528181613027015281816130bd01528181613150015281816131ef015281816132e80152818161341a0152818161369101528181613741015281816137e2015281816138610152818161395f01528181613abd01528181613b2c01528181613cd001528181613d8001528181613edc01528181613f47015281816141db015281816142930152818161430201528181614453015281816145a0015281816149c701528181614abe0152614ca20152615f466000f3fe608060405234801561001057600080fd5b50600436106101795760003560e01c80639a10cc32116100d9578063b9b6573a11610087578063b9b6573a14610367578063be73fb991461037a578063bffe34861461038d578063c641558e146103b6578063ca5eb5e1146103c9578063d3dc7539146103dc578063d8defd151461040357600080fd5b80639a10cc32146102f05780639aa7c0e514610310578063a2a3c0cb14610323578063ae8421e114610336578063b187bd261461033e578063b1dfd5301461034b578063b81bfa051461035457600080fd5b8063531cc96511610136578063531cc9651461023f5780635ad9f993146102665780636c53cc1c1461028d5780638456cb59146102a0578063876d3abd146102a85780638f062227146102bb578063990382cf146102dd57600080fd5b8063119df25f1461017e5780631346b0ff146101a357806316fff074146101ca5780632c1e4e55146101f157806336fb8b1514610206578063410c0b7c14610228575b600080fd5b610186610416565b6040516001600160a01b0390911681526020015b60405180910390f35b6101867f000000000000000000000000000000000000000000000000000000000000000081565b6101867f000000000000000000000000000000000000000000000000000000000000000081565b6102046101ff36600461503c565b61043e565b005b61020433600090815260208190526040902080546001600160a01b0319169055565b61023160035481565b60405190815260200161019a565b6101867f000000000000000000000000000000000000000000000000000000000000000081565b6101867f000000000000000000000000000000000000000000000000000000000000000081565b61020461029b36600461503c565b6104cf565b6102046115bf565b6102046102b636600461503c565b611615565b6004546102cd90610100900460ff1681565b604051901515815260200161019a565b6102046102eb36600461503c565b6118a2565b6103036102fe36600461507d565b611b96565b60405161019a9190615152565b61020461031e3660046151f8565b611cd1565b6102046103313660046152d7565b613007565b610204613573565b6004546102cd9060ff1681565b61023160025481565b61020461036236600461503c565b6135d3565b6102046103753660046152d7565b61365d565b6102046103883660046152f9565b61391c565b61018661039b366004615325565b6000602081905290815260409020546001600160a01b031681565b6102046103c4366004615342565b613c7c565b6102046103d7366004615325565b61412c565b6101867f000000000000000000000000000000000000000000000000000000000000000081565b6102046104113660046152f9565b614198565b6001546000906001600160a01b031661042e57503390565b506001546001600160a01b031690565b610446614451565b6000811161046f5760405162461bcd60e51b815260040161046690615385565b60405180910390fd5b600281905560408051818152600a91810191909152690dac2f0a0dee6ae8aa8960b31b6060820152602081018290527f8cf3e35f6221b16e1670a3413180c9484bf5aa71787905909fa82a6a2662e9ab906080015b60405180910390a150565b6104d7614520565b6104df61452c565b600080600080600080867364327f4740265D7813fB30dFA902F54567e98Ef663cefbb3bd90916040518263ffffffff1660e01b815260040161052391815260200190565b60c060405180830381865af4158015610540573d6000803e3d6000fd5b505050506040513d601f19601f8201168201806040525081019061056491906153b1565b955095509550955095509550600086600381111561058457610584615405565b90506000610590610416565b9050600183101580156105a4575060058311155b6105e15760405162461bcd60e51b815260206004820152600e60248201526d57524f4e475f4e46545f5459504560901b6044820152606401610466565b6001600160a01b03808216907f00000000000000000000000000000000000000000000000000000000000000001663265aa62161061f600187615431565b6040518263ffffffff1660e01b815260040161063d91815260200190565b602060405180830381865afa15801561065a573d6000803e3d6000fd5b505050506040513d601f19601f8201168201806040525081019061067e9190615444565b6001600160a01b0316636352211e866040518263ffffffff1660e01b81526004016106ab91815260200190565b602060405180830381865afa1580156106c8573d6000803e3d6000fd5b505050506040513d601f19601f820116820180604052508101906106ec9190615444565b6001600160a01b03161461072b5760405162461bcd60e51b81526020600482015260066024820152651393d7d3919560d21b6044820152606401610466565b7f00000000000000000000000000000000000000000000000000000000000000006001600160a01b031663f8d24b486040518163ffffffff1660e01b8152600401602060405180830381865afa158015610789573d6000803e3d6000fd5b505050506040513d601f19601f820116820180604052508101906107ad9190615461565b60405163aa3b7d7760e01b8152600481018690527f00000000000000000000000000000000000000000000000000000000000000006001600160a01b03169063aa3b7d7790602401602060405180830381865afa158015610812573d6000803e3d6000fd5b505050506040513d601f19601f820116820180604052508101906108369190615461565b610840919061547a565b4310156108825760405162461bcd60e51b815260206004820152601060248201526f535543434553535f54494d454c4f434b60801b6044820152606401610466565b6000600383600381111561089857610898615405565b1490506000816108a95760006108ac565b60015b90506108f18460405180608001604052808c6001600160a01b031681526020018b81526020018a81526020018460018111156108ea576108ea615405565b905261456d565b61092a5760405162461bcd60e51b815260206004820152600a602482015269125397d512535153d55560b21b6044820152606401610466565b61093783878b8b8b6147b7565b61099860405180610140016040528060006001600160a01b0316815260200160008152602001600081526020016000815260200160008152602001600081526020016000151581526020016000815260200160008152602001600081525090565b8215610a5057604051636e6f99cd60e11b81526001600160a01b037f0000000000000000000000000000000000000000000000000000000000000000169063dcdf339a906109ee908d908d908d9060040161548d565b602060405180830381865afa158015610a0b573d6000803e3d6000fd5b505050506040513d601f19601f82011682018060405250810190610a2f91906154b9565b610a4b5760405162461bcd60e51b8152600401610466906154d6565b610e2d565b6040516351d407ff60e11b81526001600160a01b037f0000000000000000000000000000000000000000000000000000000000000000169063a3a80ffe90610aa0908d908d908d9060040161548d565b61014060405180830381865afa158015610abe573d6000803e3d6000fd5b505050506040513d601f19601f82011682018060405250810190610ae2919061558b565b905060008160e0015111610b085760405162461bcd60e51b8152600401610466906155a8565b6002856003811115610b1c57610b1c615405565b03610d795760007f00000000000000000000000000000000000000000000000000000000000000006001600160a01b031663706faf3a6040518060e0016040528085600001516001600160a01b0316815260200185602001518152602001856040015181526020018560a0015181526020018560c00151151581526020016402540be4007f00000000000000000000000000000000000000000000000000000000000000006001600160a01b0316638c8ff1d5886000015189602001518a604001516040518463ffffffff1660e01b8152600401610bfc9392919061548d565b60c060405180830381865afa158015610c19573d6000803e3d6000fd5b505050506040513d601f19601f82011682018060405250810190610c3d91906155ca565b602001518760600151610c50919061564a565b610c5a9190615661565b815260e086810151602092830152604080519185901b6001600160e01b031916825283516001600160a01b031660048301529183015160248201529082015160448201526060820151606482015260808201511515608482015260a082015160a482015260c0919091015160c482015260e401602060405180830381865afa158015610cea573d6000803e3d6000fd5b505050506040513d601f19601f82011682018060405250810190610d0e9190615461565b905081610120015160001480610d3e57508160c00151610d35578161012001518110610d3e565b81610120015181115b610d735760405162461bcd60e51b8152602060048201526006602482015265121054d7d4d360d21b6044820152606401610466565b50610e2d565b6001856003811115610d8d57610d8d615405565b141580610d9f57506000816101200151115b610dd35760405162461bcd60e51b81526020600482015260056024820152641393d7d4d360da1b6044820152606401610466565b6000856003811115610de757610de7615405565b141580610df957506000816101000151115b610e2d5760405162461bcd60e51b815260206004820152600560248201526404e4f5f54560dc1b6044820152606401610466565b600060405180608001604052808c6001600160a01b031681526020018b81526020018a8152602001876003811115610e6757610e67615405565b905260405163108c3d4960e11b81529091506001600160a01b037f000000000000000000000000000000000000000000000000000000000000000016906321187a9290610eb89084906004016156cd565b602060405180830381865afa158015610ed5573d6000803e3d6000fd5b505050506040513d601f19601f82011682018060405250810190610ef991906154b9565b1580610f8d5750604051633f1b72bf60e21b81526001600160a01b037f0000000000000000000000000000000000000000000000000000000000000000169063fc6dcafc90610f4c9084906004016156cd565b602060405180830381865afa158015610f69573d6000803e3d6000fd5b505050506040513d601f19601f82011682018060405250810190610f8d91906154b9565b156114ee57600084156111ac5760007f00000000000000000000000000000000000000000000000000000000000000006001600160a01b031663b8878a2c8e8e8e6040518463ffffffff1660e01b8152600401610fec9392919061548d565b6101a060405180830381865afa15801561100a573d6000803e3d6000fd5b505050506040513d601f19601f8201168201806040525081019061102e91906156db565b90508060c001518160600151611044919061564a565b602082015160a0830151604051633f54af9960e11b81526000600482018190526024820193909352901515604482015260648101839052919350906001600160a01b037f00000000000000000000000000000000000000000000000000000000000000001690637ea95f32906084016040805180830381865afa1580156110cf573d6000803e3d6000fd5b505050506040513d601f19601f820116820180604052508101906110f3919061578e565b5090507f00000000000000000000000000000000000000000000000000000000000000006001600160a01b03166380f6cfc26040518163ffffffff1660e01b8152600401602060405180830381865afa158015611154573d6000803e3d6000fd5b505050506040513d601f19601f820116820180604052508101906111789190615461565b60c0830151611187908361564a565b11156111a55760405162461bcd60e51b8152600401610466906157b2565b5050611272565b6402540be4008360e001517f00000000000000000000000000000000000000000000000000000000000000006001600160a01b0316638c8ff1d58f8f8f6040518463ffffffff1660e01b81526004016112079392919061548d565b60c060405180830381865afa158015611224573d6000803e3d6000fd5b505050506040513d601f19601f8201168201806040525081019061124891906155ca565b60200151856060015161125b919061564a565b611265919061564a565b61126f9190615661565b90505b604051633348540360e11b81526001600160a01b037f00000000000000000000000000000000000000000000000000000000000000001690636690a806906112c29089908f90869060040161548d565b600060405180830381600087803b1580156112dc57600080fd5b505af11580156112f0573d6000803e3d6000fd5b50505050600080611306878f8f8f8a8e896149c0565b915091506113406040805160c08101825260008082526020820181905291810182905260608101829052608081018290529060a082015290565b6001600160a01b03808a168252602082018d90528f166040820152606081018e9052608081018d905260a081018a600381111561137f5761137f615405565b9081600381111561139257611392615405565b90525060405163205fe86960e21b81526001600160a01b037f0000000000000000000000000000000000000000000000000000000000000000169063817fa1a4906113e390849087906004016157e1565b600060405180830381600087803b1580156113fd57600080fd5b505af1158015611411573d6000803e3d6000fd5b50506040516355447e9760e11b81526001600160a01b037f000000000000000000000000000000000000000000000000000000000000000016925063aa88fd2e91506114659088908d908790600401615841565b600060405180830381600087803b15801561147f57600080fd5b505af1158015611493573d6000803e3d6000fd5b505050508d8f6001600160a01b03168a6001600160a01b03167f6d87222414c5850caf1d385b1e080a771b505825b082a2162d0f4af5ffc86c00866040516114dd91815260200190565b60405180910390a4505050506115b0565b6040516346ea285b60e01b81526001600160a01b037f000000000000000000000000000000000000000000000000000000000000000016906346ea285b9061153c9084908990600401615869565b600060405180830381600087803b15801561155657600080fd5b505af115801561156a573d6000803e3d6000fd5b50505050898b6001600160a01b0316866001600160a01b03167fde7da272dc52e28c3b33c5c74b461da89b05bd790d845e82db2f69bbf08108e760405160405180910390a45b50505050505050505050505050565b6115c7614451565b6004805460ff8082161560ff1990921682179092556040519116151581527f0e2fb031ee032dc02d8011dc50b816eb450cf856abd8261680dac74f72165bd2906020015b60405180910390a1565b61161d614520565b61162561452c565b600061162f610416565b60405163b66e6b0560e01b8152600481018490529091506000906001600160a01b037f0000000000000000000000000000000000000000000000000000000000000000169063b66e6b05906024016101e060405180830381865afa15801561169b573d6000803e3d6000fd5b505050506040513d601f19601f820116820180604052508101906116bf919061588f565b8051602082015191925090158015906116e9575060035482602001516116e5919061547a565b4310155b6117055760405162461bcd60e51b815260040161046690615912565b826001600160a01b031681600001516001600160a01b03161461173a5760405162461bcd60e51b815260040161046690615938565b60008160e001511161175e5760405162461bcd60e51b815260040161046690615960565b604051630195728b60e71b815260048101859052600160248201527f00000000000000000000000000000000000000000000000000000000000000006001600160a01b03169063cab9458090604401600060405180830381600087803b1580156117c757600080fd5b505af11580156117db573d6000803e3d6000fd5b505050506080810151604051638a238ae560e01b81527f00000000000000000000000000000000000000000000000000000000000000006001600160a01b03811692638a238ae59261183292918891600401615991565b600060405180830381600087803b15801561184c57600080fd5b505af1158015611860573d6000803e3d6000fd5b50505050837f3adaa586cdbe84dd24e45bd7dada6da933d7c2d1c7b4e4cd02fce033356decb1836040516118949190615a63565b60405180910390a250505050565b6118aa614520565b6118b261452c565b60006118bc610416565b60405163b66e6b0560e01b8152600481018490529091506000906001600160a01b037f0000000000000000000000000000000000000000000000000000000000000000169063b66e6b05906024016101e060405180830381865afa158015611928573d6000803e3d6000fd5b505050506040513d601f19601f8201168201806040525081019061194c919061588f565b80516020820151919250901580159061197657506003548260200151611972919061547a565b4310155b6119925760405162461bcd60e51b815260040161046690615912565b826001600160a01b031681600001516001600160a01b0316146119c75760405162461bcd60e51b815260040161046690615938565b60e0810151156119e95760405162461bcd60e51b815260040161046690615960565b604051630195728b60e71b815260048101859052600060248201527f00000000000000000000000000000000000000000000000000000000000000006001600160a01b03169063cab9458090604401600060405180830381600087803b158015611a5257600080fd5b505af1158015611a66573d6000803e3d6000fd5b505050602082015160408084015190516024810192909252604482015260009150309060640160408051601f198184030181529181526020820180516001600160e01b031663a2a3c0cb60e01b17905251611ac19190615a72565b600060405180830381855af49150503d8060008114611afc576040519150601f19603f3d011682016040523d82523d6000602084013e611b01565b606091505b5050905080611b57578160200151846001600160a01b03167f60e497734ddabcd7293fd91739aaf65cf525eb539c97be528125a235a89288d88460400151604051611b4e91815260200190565b60405180910390a35b847f3adaa586cdbe84dd24e45bd7dada6da933d7c2d1c7b4e4cd02fce033356decb184604051611b879190615a63565b60405180910390a25050505050565b6001600160a01b03838116600090815260208190526040902054606091163314611bfa5760405162461bcd60e51b81526020600482015260156024820152741111531151d0551157d393d517d054141493d59151605a1b6044820152606401610466565b600180546001600160a01b0319166001600160a01b03861617905560405160009081903090611c2c9087908790615a8e565b600060405180830381855af49150503d8060008114611c67576040519150601f19603f3d011682016040523d82523d6000602084013e611c6c565b606091505b509150915081611cb857604481511015611c8557600080fd5b60048101905080806020019051810190611c9f9190615a9e565b60405162461bcd60e51b81526004016104669190615152565b600180546001600160a01b031916905595945050505050565b611cd9614520565b611ce161452c565b60045460ff1615611d1d5760405162461bcd60e51b815260206004820152600660248201526514105554d15160d21b6044820152606401610466565b600019828660a00151611d30919061564a565b10611d4d5760405162461bcd60e51b815260040161046690615b4b565b60008560a0015111611d715760405162461bcd60e51b815260040161046690615b6d565b60007f00000000000000000000000000000000000000000000000000000000000000006001600160a01b0316633078fff56040518163ffffffff1660e01b8152600401602060405180830381865afa158015611dd1573d6000803e3d6000fd5b505050506040513d601f19601f82011682018060405250810190611df59190615444565b90506000816001600160a01b03166335b03c176040518163ffffffff1660e01b8152600401602060405180830381865afa158015611e37573d6000803e3d6000fd5b505050506040513d601f19601f82011682018060405250810190611e5b9190615444565b90506000611e67610416565b90507f00000000000000000000000000000000000000000000000000000000000000006001600160a01b031663f65d9dbe6040518163ffffffff1660e01b8152600401602060405180830381865afa158015611ec7573d6000803e3d6000fd5b505050506040513d601f19601f82011682018060405250810190611eeb9190615461565b6020890151604051634bf3ccad60e11b81526001600160a01b037f000000000000000000000000000000000000000000000000000000000000000016916397e7995a91611f3c918691600401615b91565b602060405180830381865afa158015611f59573d6000803e3d6000fd5b505050506040513d601f19601f82011682018060405250810190611f7d9190615461565b60208a0151604051639c8912f160e01b81526001600160a01b037f00000000000000000000000000000000000000000000000000000000000000001691639c8912f191611fce918791600401615b91565b602060405180830381865afa158015611feb573d6000803e3d6000fd5b505050506040513d601f19601f8201168201806040525081019061200f9190615461565b60208b01516040516307218dad60e21b81526001600160a01b037f00000000000000000000000000000000000000000000000000000000000000001691631c8636b491612060918891600401615b91565b602060405180830381865afa15801561207d573d6000803e3d6000fd5b505050506040513d601f19601f820116820180604052508101906120a19190615461565b6120ab919061547a565b6120b5919061547a565b106120f85760405162461bcd60e51b815260206004820152601360248201527226a0ac2faa2920a222a9afa822a92fa820a4a960691b6044820152606401610466565b7f00000000000000000000000000000000000000000000000000000000000000006001600160a01b0316638049fde76040518163ffffffff1660e01b8152600401602060405180830381865afa158015612156573d6000803e3d6000fd5b505050506040513d601f19601f8201168201806040525081019061217a9190615461565b60405163f7b3c6fd60e01b81526001600160a01b0383811660048301527f0000000000000000000000000000000000000000000000000000000000000000169063f7b3c6fd90602401602060405180830381865afa1580156121e0573d6000803e3d6000fd5b505050506040513d601f19601f820116820180604052508101906122049190615461565b106122215760405162461bcd60e51b815260040161046690615baa565b600254886080015111156122675760405162461bcd60e51b815260206004820152600d60248201526c41424f56455f4d41585f504f5360981b6044820152606401610466565b602088015160405163601e3b6b60e11b815260048101919091526001600160a01b0383169063c03c76d690602401602060405180830381865afa1580156122b2573d6000803e3d6000fd5b505050506040513d601f19601f820116820180604052508101906122d69190615461565b8860e0015189608001516122ea919061564a565b10156123285760405162461bcd60e51b815260206004820152600d60248201526c42454c4f575f4d494e5f504f5360981b6044820152606401610466565b60008860e001511180156123ae5750602088015160405163059a992d60e41b815260048101919091526001600160a01b038316906359a992d090602401602060405180830381865afa158015612382573d6000803e3d6000fd5b505050506040513d601f19601f820116820180604052508101906123a69190615461565b8860e0015110155b80156123cb57506123c3828960200151614c9d565b8860e0015111155b61240c5760405162461bcd60e51b815260206004820152601260248201527113115591549051d157d25390d3d4949150d560721b6044820152606401610466565b85158061251d575060006001600160a01b037f00000000000000000000000000000000000000000000000000000000000000001663265aa62161245060018a615431565b6040518263ffffffff1660e01b815260040161246e91815260200190565b602060405180830381865afa15801561248b573d6000803e3d6000fd5b505050506040513d601f19601f820116820180604052508101906124af9190615444565b6040516370a0823160e01b81526001600160a01b03848116600483015291909116906370a0823190602401602060405180830381865afa1580156124f7573d6000803e3d6000fd5b505050506040513d601f19601f8201168201806040525081019061251b9190615461565b115b6125775760405162461bcd60e51b815260206004820152602560248201527f4e4f5f434f52524553504f4e44494e475f4e46545f5350524541445f5245445560448201526421aa24a7a760d91b6064820152608401610466565b61010088015115806125ab57508760c0015161259e578760a00151886101000151106125ab565b8760a00151886101000151115b6125c75760405162461bcd60e51b815260040161046690615bd6565b61012088015115806125fb57508760c001516125ee578760a00151886101200151116125fb565b8760a00151886101200151105b6126175760405162461bcd60e51b815260040161046690615bf8565b60007f00000000000000000000000000000000000000000000000000000000000000006001600160a01b0316637ea95f3260008b602001518c60c001518d60e001518e60800151612668919061564a565b6040516001600160e01b031960e087901b168152600481019490945260248401929092521515604483015260648201526084016040805180830381865afa1580156126b7573d6000803e3d6000fd5b505050506040513d601f19601f820116820180604052508101906126db919061578e565b5090507f00000000000000000000000000000000000000000000000000000000000000006001600160a01b03166380f6cfc26040518163ffffffff1660e01b8152600401602060405180830381865afa15801561273c573d6000803e3d6000fd5b505050506040513d601f19601f820116820180604052508101906127609190615461565b60e08a015161276f908361564a565b111561278d5760405162461bcd60e51b8152600401610466906157b2565b6080890151604051638a238ae560e01b81527f00000000000000000000000000000000000000000000000000000000000000006001600160a01b03811692638a238ae5926127e19287929091600401615991565b600060405180830381600087803b1580156127fb57600080fd5b505af115801561280f573d6000803e3d6000fd5b506000925061281c915050565b88600281111561282e5761282e615405565b14612cd957602089015160405163226a27ad60e11b81526000916001600160a01b037f000000000000000000000000000000000000000000000000000000000000000016916344d44f5a9161288891879190600401615b91565b602060405180830381865afa1580156128a5573d6000803e3d6000fd5b505050506040513d601f19601f820116820180604052508101906128c99190615461565b90507f00000000000000000000000000000000000000000000000000000000000000006001600160a01b031663d3b5fe70604051806101a00160405280866001600160a01b031681526020018d6020015181526020018481526020018d60800151815260200160008c1161293e5760006129d7565b6001600160a01b037f000000000000000000000000000000000000000000000000000000000000000016633dae10a061297860018f615431565b6040518263ffffffff1660e01b815260040161299691815260200190565b602060405180830381865afa1580156129b3573d6000803e3d6000fd5b505050506040513d601f19601f820116820180604052508101906129d79190615461565b81526020018d60c00151151581526020018d60e0015181526020018d610100015181526020018d610120015181526020018d60a0015181526020018d60a00151815260200143815260200160008152506040518263ffffffff1660e01b8152600401612a439190615c1a565b600060405180830381600087803b158015612a5d57600080fd5b505af1158015612a71573d6000803e3d6000fd5b5050505060208a0151604051630ec5706160e41b81527f00000000000000000000000000000000000000000000000000000000000000006001600160a01b03169163ec57061091612aca91879186908f90600401615cba565b600060405180830381600087803b158015612ae457600080fd5b505af1158015612af8573d6000803e3d6000fd5b5050505060007f00000000000000000000000000000000000000000000000000000000000000006001600160a01b031662b127836040518163ffffffff1660e01b8152600401602060405180830381865afa158015612b5b573d6000803e3d6000fd5b505050506040513d601f19601f82011682018060405250810190612b7f9190615444565b9050806001600160a01b031673956b22f49E41119228A7BE9E047fc2568473EC796395ecbbea9091868e60200151866001612bb8614e11565b6040518763ffffffff1660e01b8152600401612bd996959493929190615d0b565b60006040518083038186803b158015612bf157600080fd5b505af4158015612c05573d6000803e3d6000fd5b50505050806001600160a01b031673956b22f49E41119228A7BE9E047fc2568473EC796325f40ef99091868e602001518660018e6040518763ffffffff1660e01b8152600401612c5a96959493929190615d0b565b60006040518083038186803b158015612c7257600080fd5b505af4158015612c86573d6000803e3d6000fd5b505050508a60200151846001600160a01b03167fdfabd6f206f17b7f2e1f9e0d33c40d30d1e8d7b6a4f520a03fdc1c181105934384604051612cca91815260200190565b60405180910390a35050612f88565b6000846001600160a01b0316636938c05d8b6020015160008d60e001518e60800151612d05919061564a565b612d0d614e11565b6040518563ffffffff1660e01b8152600401612d2c9493929190615d4f565b6020604051808303816000875af1158015612d4b573d6000803e3d6000fd5b505050506040513d601f19601f82011682018060405250810190612d6f9190615461565b90507f00000000000000000000000000000000000000000000000000000000000000006001600160a01b031663c76faf786040518060c00160405280604051806101400160405280886001600160a01b031681526020018f60200151815260200160008152602001600081526020018f608001518152602001600081526020018f60c00151151581526020018f60e0015181526020018f610100015181526020018f61012001518152508152602001600081526020018d60a0015181526020018a815260200160008c11612e44576000612edd565b6001600160a01b037f000000000000000000000000000000000000000000000000000000000000000016633dae10a0612e7e60018f615431565b6040518263ffffffff1660e01b8152600401612e9c91815260200190565b602060405180830381865afa158015612eb9573d6000803e3d6000fd5b505050506040513d601f19601f82011682018060405250810190612edd9190615461565b815260200160008152508360016040518463ffffffff1660e01b8152600401612f0893929190615d7a565b600060405180830381600087803b158015612f2257600080fd5b505af1158015612f36573d6000803e3d6000fd5b505050508960200151836001600160a01b0316827f3e544118c04e3bb18b669475695cd270ba0e41fb13177483f01c14222de62a866001604051612f7e911515815260200190565b60405180910390a4505b6040516326e2ada160e21b81526001600160a01b03838116600483015286811660248301527f00000000000000000000000000000000000000000000000000000000000000001690639b8ab68490604401600060405180830381600087803b158015612ff357600080fd5b505af11580156115b0573d6000803e3d6000fd5b61300f614520565b61301761452c565b6000613021610416565b905060007f00000000000000000000000000000000000000000000000000000000000000006001600160a01b031663a3a80ffe8386866040518463ffffffff1660e01b81526004016130759392919061548d565b61014060405180830381865afa158015613093573d6000803e3d6000fd5b505050506040513d601f19601f820116820180604052508101906130b7919061558b565b905060007f00000000000000000000000000000000000000000000000000000000000000006001600160a01b0316638c8ff1d58487876040518463ffffffff1660e01b815260040161310b9392919061548d565b60c060405180830381865afa158015613128573d6000803e3d6000fd5b505050506040513d601f19601f8201168201806040525081019061314c91906155ca565b90507f00000000000000000000000000000000000000000000000000000000000000006001600160a01b0316638049fde76040518163ffffffff1660e01b8152600401602060405180830381865afa1580156131ac573d6000803e3d6000fd5b505050506040513d601f19601f820116820180604052508101906131d09190615461565b60405163f7b3c6fd60e01b81526001600160a01b0385811660048301527f0000000000000000000000000000000000000000000000000000000000000000169063f7b3c6fd90602401602060405180830381865afa158015613236573d6000803e3d6000fd5b505050506040513d601f19601f8201168201806040525081019061325a9190615461565b106132775760405162461bcd60e51b815260040161046690615baa565b8060a00151156132c05760405162461bcd60e51b81526020600482015260146024820152731053149150511657d091525391d7d0d313d4d15160621b6044820152606401610466565b60008260e00151116132e45760405162461bcd60e51b8152600401610466906155a8565b60007f00000000000000000000000000000000000000000000000000000000000000006001600160a01b0316633078fff56040518163ffffffff1660e01b8152600401602060405180830381865afa158015613344573d6000803e3d6000fd5b505050506040513d601f19601f820116820180604052508101906133689190615444565b6001600160a01b0316636938c05d8760016402540be4008760e0015187602001518960600151613398919061564a565b6133a2919061564a565b6133ac9190615661565b6133b4614e11565b6040518563ffffffff1660e01b81526004016133d39493929190615d4f565b6020604051808303816000875af11580156133f2573d6000803e3d6000fd5b505050506040513d601f19601f820116820180604052508101906134169190615461565b90507f00000000000000000000000000000000000000000000000000000000000000006001600160a01b031663c76faf786040518060c00160405280604051806101400160405280896001600160a01b031681526020018b81526020018a81526020016000815260200160008152602001600081526020016000151581526020016000815260200160008152602001600081525081526020016000815260200160008152602001600081526020016000815260200160008152508360006040518463ffffffff1660e01b81526004016134f193929190615d7a565b600060405180830381600087803b15801561350b57600080fd5b505af115801561351f573d6000803e3d6000fd5b5050505085846001600160a01b0316827f3e544118c04e3bb18b669475695cd270ba0e41fb13177483f01c14222de62a866000604051613563911515815260200190565b60405180910390a4505050505050565b61357b614451565b6004805460ff610100808304821615810261ff001990931692909217928390556040517fc3a6f986261de9467c2838c6df8ef74f9107855159205600c0bc7a14cdfd38889361160b9390049091161515815260200190565b6135db614451565b600081116135fb5760405162461bcd60e51b815260040161046690615385565b600381905560408051818152601391810191909152721b585c9ad95d13dc99195c9cd51a5b595bdd5d606a1b6060820152602081018290527f8cf3e35f6221b16e1670a3413180c9484bf5aa71787905909fa82a6a2662e9ab906080016104c4565b613665614520565b61366d61452c565b6000613677610416565b604051636e6f99cd60e11b81529091506001600160a01b037f0000000000000000000000000000000000000000000000000000000000000000169063dcdf339a906136ca9084908790879060040161548d565b602060405180830381865afa1580156136e7573d6000803e3d6000fd5b505050506040513d601f19601f8201168201806040525081019061370b91906154b9565b6137275760405162461bcd60e51b8152600401610466906154d6565b604051632e21e28b60e21b81526000906001600160a01b037f0000000000000000000000000000000000000000000000000000000000000000169063b8878a2c9061377a9085908890889060040161548d565b6101a060405180830381865afa158015613798573d6000803e3d6000fd5b505050506040513d601f19601f820116820180604052508101906137bc91906156db565b90506137cb8285856003614e97565b60405163b4b0f56760e01b81526001600160a01b037f0000000000000000000000000000000000000000000000000000000000000000169063b4b0f5679061381b9085908890889060040161548d565b600060405180830381600087803b15801561383557600080fd5b505af1158015613849573d6000803e3d6000fd5b505050506060810151604051638a238ae560e01b81527f00000000000000000000000000000000000000000000000000000000000000006001600160a01b03811692638a238ae5926138a092918791600401615991565b600060405180830381600087803b1580156138ba57600080fd5b505af11580156138ce573d6000803e3d6000fd5b5050505083826001600160a01b03167ff1b38881d7f4b2b12141c5f39c5124545d6112532eb6afbe9630cdbde3ee53e98560405161390e91815260200190565b60405180910390a350505050565b613924614520565b61392c61452c565b6000613936610416565b90506139458185856001614e97565b6040516351d407ff60e11b81526000906001600160a01b037f0000000000000000000000000000000000000000000000000000000000000000169063a3a80ffe906139989085908990899060040161548d565b61014060405180830381865afa1580156139b6573d6000803e3d6000fd5b505050506040513d601f19601f820116820180604052508101906139da919061558b565b905060008160e0015111613a005760405162461bcd60e51b8152600401610466906155a8565b60008160e001516064604b8460a00151613a1a919061564a565b613a249190615661565b613a2e9190615661565b9050831580613a6d57508160c00151613a5957808260a00151613a51919061547a565b841115613a6d565b808260a00151613a699190615431565b8410155b613aa65760405162461bcd60e51b815260206004820152600a602482015269534c5f544f4f5f42494760b01b6044820152606401610466565b60405163a354418160e01b81526001600160a01b037f0000000000000000000000000000000000000000000000000000000000000000169063a354418190613af89086908a908a908a90600401615da1565b600060405180830381600087803b158015613b1257600080fd5b505af1158015613b26573d6000803e3d6000fd5b505050507f00000000000000000000000000000000000000000000000000000000000000006001600160a01b031662b127836040518163ffffffff1660e01b8152600401602060405180830381865afa158015613b87573d6000803e3d6000fd5b505050506040513d601f19601f82011682018060405250810190613bab9190615444565b6001600160a01b031673956b22f49E41119228A7BE9E047fc2568473EC7963a6b8633d90918589896000613bdd614e11565b6040518763ffffffff1660e01b8152600401613bfe96959493929190615d0b565b60006040518083038186803b158015613c1657600080fd5b505af4158015613c2a573d6000803e3d6000fd5b505060408051888152602081018890528993506001600160a01b03871692507f1fc4a6c7ffe506697979b8ed54dc4135cd1ecd26a2745f70b760a2492222b316910160405180910390a3505050505050565b613c84614520565b613c8c61452c565b60008411613cac5760405162461bcd60e51b815260040161046690615b6d565b6000613cb6610416565b604051636e6f99cd60e11b81529091506001600160a01b037f0000000000000000000000000000000000000000000000000000000000000000169063dcdf339a90613d099084908b908b9060040161548d565b602060405180830381865afa158015613d26573d6000803e3d6000fd5b505050506040513d601f19601f82011682018060405250810190613d4a91906154b9565b613d665760405162461bcd60e51b8152600401610466906154d6565b604051632e21e28b60e21b81526000906001600160a01b037f0000000000000000000000000000000000000000000000000000000000000000169063b8878a2c90613db99085908c908c9060040161548d565b6101a060405180830381865afa158015613dd7573d6000803e3d6000fd5b505050506040513d601f19601f82011682018060405250810190613dfb91906156db565b9050841580613e1a57508060a00151613e1657858510613e1a565b8585115b613e365760405162461bcd60e51b815260040161046690615bd6565b831580613e5357508060a00151613e4f57858411613e53565b8584105b613e6f5760405162461bcd60e51b815260040161046690615bf8565b600019613e7c848861564a565b10613e995760405162461bcd60e51b815260040161046690615b4b565b613ea68289896003614e97565b6101208101869052610140810186905260e081018590526101008101849052604051635bb3b04560e11b81526001600160a01b037f0000000000000000000000000000000000000000000000000000000000000000169063b767608a90613f11908490600401615c1a565b600060405180830381600087803b158015613f2b57600080fd5b505af1158015613f3f573d6000803e3d6000fd5b5050505060007f00000000000000000000000000000000000000000000000000000000000000006001600160a01b031662b127836040518163ffffffff1660e01b8152600401602060405180830381865afa158015613fa2573d6000803e3d6000fd5b505050506040513d601f19601f82011682018060405250810190613fc69190615444565b905073956b22f49E41119228A7BE9E047fc2568473EC796395ecbbea6001600160a01b038316858c8c6001613ff9614e11565b6040518763ffffffff1660e01b815260040161401a96959493929190615d0b565b60006040518083038186803b15801561403257600080fd5b505af4158015614046573d6000803e3d6000fd5b50506040516325f40ef960e01b815273956b22f49E41119228A7BE9E047fc2568473EC7992506325f40ef99150614095906001600160a01b0385169087908e908e906001908c90600401615d0b565b60006040518083038186803b1580156140ad57600080fd5b505af41580156140c1573d6000803e3d6000fd5b5050604080518b8152602081018b905290810189905260608101889052608081018790528b92506001600160a01b03861691507f710a8db87f04e82a9de40076812593a965f4aa48693196d2144c07ff9710e8909060a00160405180910390a3505050505050505050565b3233146141695760405162461bcd60e51b815260206004820152600b60248201526a1393d7d0d3d395149050d560aa1b6044820152606401610466565b33600090815260208190526040902080546001600160a01b0319166001600160a01b0392909216919091179055565b6141a0614520565b6141a861452c565b60006141b2610416565b90506141c18185856000614e97565b6040516351d407ff60e11b81526000906001600160a01b037f0000000000000000000000000000000000000000000000000000000000000000169063a3a80ffe906142149085908990899060040161548d565b61014060405180830381865afa158015614232573d6000803e3d6000fd5b505050506040513d601f19601f82011682018060405250810190614256919061558b565b905060008160e001511161427c5760405162461bcd60e51b8152600401610466906155a8565b604051637fdb96f360e01b81526001600160a01b037f00000000000000000000000000000000000000000000000000000000000000001690637fdb96f3906142ce908590899089908990600401615da1565b600060405180830381600087803b1580156142e857600080fd5b505af11580156142fc573d6000803e3d6000fd5b505050507f00000000000000000000000000000000000000000000000000000000000000006001600160a01b031662b127836040518163ffffffff1660e01b8152600401602060405180830381865afa15801561435d573d6000803e3d6000fd5b505050506040513d601f19601f820116820180604052508101906143819190615444565b6001600160a01b031673956b22f49E41119228A7BE9E047fc2568473EC796339e765e4909184888860006143b3614e11565b6040518763ffffffff1660e01b81526004016143d496959493929190615d0b565b60006040518083038186803b1580156143ec57600080fd5b505af4158015614400573d6000803e3d6000fd5b505060408051878152602081018790528893506001600160a01b03861692507f7e06a81c7a47891ccc7455b5ccb2ed850e32bb655ccda67eb3ebaaeed83242a4910160405180910390a35050505050565b7f00000000000000000000000000000000000000000000000000000000000000006001600160a01b03166312d43a516040518163ffffffff1660e01b8152600401602060405180830381865afa1580156144af573d6000803e3d6000fd5b505050506040513d601f19601f820116820180604052508101906144d39190615444565b6001600160a01b0316336001600160a01b03161461451e5760405162461bcd60e51b8152602060048201526008602482015267474f565f4f4e4c5960c01b6044820152606401610466565b565b32331461451e57600080fd5b600454610100900460ff161561451e5760405162461bcd60e51b815260040161046690602080825260049082015263444f4e4560e01b604082015260600190565b6000600283600381111561458357614583615405565b03614590575060016147b1565b600061459a614e11565b905060007f00000000000000000000000000000000000000000000000000000000000000006001600160a01b031662b127836040518163ffffffff1660e01b8152600401602060405180830381865afa1580156145fb573d6000803e3d6000fd5b505050506040513d601f19601f8201168201806040525081019061461f9190615444565b9050600085600381111561463557614635615405565b036146c957604051637d36408960e01b815273956b22f49E41119228A7BE9E047fc2568473EC7990637d3640899061467e906001600160a01b0385169088908790600401615dc7565b602060405180830381865af415801561469b573d6000803e3d6000fd5b505050506040513d601f19601f820116820180604052508101906146bf91906154b9565b15925050506147b1565b60018560038111156146dd576146dd615405565b036147265760405163934648bb60e01b815273956b22f49E41119228A7BE9E047fc2568473EC799063934648bb9061467e906001600160a01b0385169088908790600401615dc7565b6040516308af796360e01b815273956b22f49E41119228A7BE9E047fc2568473EC79906308af79639061476a906001600160a01b0385169088908790600401615dc7565b602060405180830381865af4158015614787573d6000803e3d6000fd5b505050506040513d601f19601f820116820180604052508101906147ab91906154b9565b15925050505b92915050565b60405162c1932360e11b81524360048201526001600160a01b0386811660248301526044820186905284811660648301526084820184905260a4820183905260009182917f0000000000000000000000000000000000000000000000000000000000000000169063018326469060c4016040805180830381865afa158015614843573d6000803e3d6000fd5b505050506040513d601f19601f82011682018060405250810190614867919061578e565b60405163255b694560e21b8152600481018390526024810182905291935091507f00000000000000000000000000000000000000000000000000000000000000006001600160a01b03169063956da51490604401602060405180830381865afa1580156148d8573d6000803e3d6000fd5b505050506040513d601f19601f820116820180604052508101906148fc91906154b9565b156149365760405162461bcd60e51b815260206004820152600a602482015269424f545f494e5f55534560b01b6044820152606401610466565b604051630580c65760e41b815260048101839052602481018290527f00000000000000000000000000000000000000000000000000000000000000006001600160a01b03169063580c657090604401600060405180830381600087803b15801561499f57600080fd5b505af11580156149b3573d6000803e3d6000fd5b5050505050505050505050565b60008060007f00000000000000000000000000000000000000000000000000000000000000006001600160a01b031662b127836040518163ffffffff1660e01b8152600401602060405180830381865afa158015614a22573d6000803e3d6000fd5b505050506040513d601f19601f82011682018060405250810190614a469190615444565b6001600160a01b0316639bd24d838a8a8a8a6040518563ffffffff1660e01b8152600401614a779493929190615e1a565b608060405180830381865afa158015614a94573d6000803e3d6000fd5b505050506040513d601f19601f82011682018060405250810190614ab89190615e62565b905060007f00000000000000000000000000000000000000000000000000000000000000006001600160a01b0316633078fff56040518163ffffffff1660e01b8152600401602060405180830381865afa158015614b1a573d6000803e3d6000fd5b505050506040513d601f19601f82011682018060405250810190614b3e9190615444565b9050806001600160a01b0316636938c05d8a8d614b5c576003614b5f565b60025b888f614bb25760018b6003811115614b7957614b79615405565b14614ba85760008b6003811115614b9257614b92615405565b14614ba1578660600151614bb8565b8651614bb8565b8660200151614bb8565b86604001515b6040518563ffffffff1660e01b8152600401614bd79493929190615edf565b6020604051808303816000875af1158015614bf6573d6000803e3d6000fd5b505050506040513d601f19601f82011682018060405250810190614c1a9190615461565b60405163b9e0336f60e01b8152600481018b9052602481018790529094506001600160a01b0382169063b9e0336f90604401602060405180830381865afa158015614c69573d6000803e3d6000fd5b505050506040513d601f19601f82011682018060405250810190614c8d9190615461565b9250505097509795505050505050565b6000807f00000000000000000000000000000000000000000000000000000000000000006001600160a01b031662b127836040518163ffffffff1660e01b8152600401602060405180830381865afa158015614cfd573d6000803e3d6000fd5b505050506040513d601f19601f82011682018060405250810190614d219190615444565b6001600160a01b031663281b693c846040518263ffffffff1660e01b8152600401614d4e91815260200190565b602060405180830381865afa158015614d6b573d6000803e3d6000fd5b505050506040513d601f19601f82011682018060405250810190614d8f9190615461565b905060008111614e0757604051630a06da4f60e21b8152600481018490526001600160a01b0385169063281b693c90602401602060405180830381865afa158015614dde573d6000803e3d6000fd5b505050506040513d601f19601f82011682018060405250810190614e029190615461565b614e09565b805b949350505050565b600061a4b1461480614e25575062066eed46145b15614e925760646001600160a01b031663a3b1b31d6040518163ffffffff1660e01b8152600401602060405180830381865afa158015614e69573d6000803e3d6000fd5b505050506040513d601f19601f82011682018060405250810190614e8d9190615461565b905090565b504390565b60006040518060800160405280866001600160a01b03168152602001858152602001848152602001836003811115614ed157614ed1615405565b905260405163108c3d4960e11b81529091506001600160a01b037f000000000000000000000000000000000000000000000000000000000000000016906321187a9290614f229084906004016156cd565b602060405180830381865afa158015614f3f573d6000803e3d6000fd5b505050506040513d601f19601f82011682018060405250810190614f6391906154b9565b1580614ff75750604051633f1b72bf60e21b81526001600160a01b037f0000000000000000000000000000000000000000000000000000000000000000169063fc6dcafc90614fb69084906004016156cd565b602060405180830381865afa158015614fd3573d6000803e3d6000fd5b505050506040513d601f19601f82011682018060405250810190614ff791906154b9565b6150355760405162461bcd60e51b815260206004820152600f60248201526e2822a72224a723afaa2924a3a3a2a960891b6044820152606401610466565b5050505050565b60006020828403121561504e57600080fd5b5035919050565b6001600160a01b038116811461506a57600080fd5b50565b803561507881615055565b919050565b60008060006040848603121561509257600080fd5b833561509d81615055565b9250602084013567ffffffffffffffff808211156150ba57600080fd5b818601915086601f8301126150ce57600080fd5b8135818111156150dd57600080fd5b8760208285010111156150ef57600080fd5b6020830194508093505050509250925092565b60005b8381101561511d578181015183820152602001615105565b50506000910152565b6000815180845261513e816020860160208601615102565b601f01601f19169290920160200192915050565b6020815260006151656020830184615126565b9392505050565b634e487b7160e01b600052604160045260246000fd5b604051610140810167ffffffffffffffff811182821017156151a6576151a661516c565b60405290565b6040516101a0810167ffffffffffffffff811182821017156151a6576151a661516c565b801515811461506a57600080fd5b8035615078816151d0565b80356003811061507857600080fd5b60008060008060008587036101c081121561521257600080fd5b6101408082121561522257600080fd5b61522a615182565b91506152358861506d565b82526020880135602083015260408801356040830152606088013560608301526080880135608083015260a088013560a083015261527560c089016151de565b60c083015260e088013560e08301526101008089013581840152506101208089013581840152508196506152aa8189016151e9565b95505050610160860135925061018086013591506152cb6101a0870161506d565b90509295509295909350565b600080604083850312156152ea57600080fd5b50508035926020909101359150565b60008060006060848603121561530e57600080fd5b505081359360208301359350604090920135919050565b60006020828403121561533757600080fd5b8135614e0781615055565b60008060008060008060c0878903121561535b57600080fd5b505084359660208601359650604086013595606081013595506080810135945060a0013592509050565b602080825260079082015266056414c55455f360cc1b604082015260600190565b805161507881615055565b60008060008060008060c087890312156153ca57600080fd5b8651955060208701516153dc81615055565b6040880151606089015160808a015160a0909a0151989b929a5090989097909650945092505050565b634e487b7160e01b600052602160045260246000fd5b634e487b7160e01b600052601160045260246000fd5b818103818111156147b1576147b161541b565b60006020828403121561545657600080fd5b8151614e0781615055565b60006020828403121561547357600080fd5b5051919050565b808201808211156147b1576147b161541b565b6001600160a01b039390931683526020830191909152604082015260600190565b8051615078816151d0565b6000602082840312156154cb57600080fd5b8151614e07816151d0565b6020808252600890820152671393d7d31253525560c21b604082015260600190565b6000610140828403121561550b57600080fd5b615513615182565b905061551e826153a6565b81526020820151602082015260408201516040820152606082015160608201526080820151608082015260a082015160a082015261555e60c083016154ae565b60c082015260e082015160e082015261010080830151818301525061012080830151818301525092915050565b6000610140828403121561559e57600080fd5b61516583836154f8565b6020808252600890820152674e4f5f545241444560c01b604082015260600190565b600060c082840312156155dc57600080fd5b60405160c0810181811067ffffffffffffffff821117156155ff576155ff61516c565b8060405250825181526020830151602082015260408301516040820152606083015160608201526080830151608082015260a083015161563e816151d0565b60a08201529392505050565b80820281158282048414176147b1576147b161541b565b60008261567e57634e487b7160e01b600052601260045260246000fd5b500490565b6004811061506a5761506a615405565b80516001600160a01b03168252602080820151908301526040808201519083015260608101516156c281615683565b806060840152505050565b608081016147b18284615693565b60006101a082840312156156ee57600080fd5b6156f66151ac565b6156ff836153a6565b81526020830151602082015260408301516040820152606083015160608201526080830151608082015261573560a084016154ae565b60a082015260c0838101519082015260e080840151908201526101008084015190820152610120808401519082015261014080840151908201526101608084015190820152610180928301519281019290925250919050565b600080604083850312156157a157600080fd5b505080516020909101519092909150565b6020808252601590820152740a0a492868abe929aa08286a8bea89e9ebe90928e9605b1b604082015260600190565b82516001600160a01b0390811682526020808501519083015260408085015190911690820152606080840151908201526080808401519082015260a083015160e082019061582e81615683565b60a083015260c090910191909152919050565b60c0810161584f8286615693565b6001600160a01b0393909316608082015260a00152919050565b60a081016158778285615693565b6001600160a01b039290921660809190910152919050565b60006101e082840312156158a257600080fd5b60405160c0810181811067ffffffffffffffff821117156158c5576158c561516c565b6040526158d284846154f8565b81526101408301516020820152610160830151604082015261018083015160608201526101a083015160808201526101c09092015160a083015250919050565b6020808252600c908201526b15d0525517d512535153d55560a21b604082015260600190565b6020808252600e908201526d2727aa2faca7aaa92fa7a92222a960911b604082015260600190565b60208082526017908201527657524f4e475f4d41524b45545f4f524445525f5459504560481b604082015260600190565b6001600160a01b039384168152919092166020820152604081019190915260600190565b805180516001600160a01b031683526020810151602084015260408101516040840152606081015160608401526080810151608084015260a081015160a084015260c0810151615a0960c085018215159052565b5060e081810151908401526101008082015190840152610120908101519083015260208101516101408301526040810151610160830152606081015161018083015260808101516101a083015260a001516101c090910152565b6101e081016147b182846159b5565b60008251615a84818460208701615102565b9190910192915050565b8183823760009101908152919050565b600060208284031215615ab057600080fd5b815167ffffffffffffffff80821115615ac857600080fd5b818401915084601f830112615adc57600080fd5b815181811115615aee57615aee61516c565b604051601f8201601f19908116603f01168101908382118183101715615b1657615b1661516c565b81604052828152876020848701011115615b2f57600080fd5b615b40836020830160208801615102565b979650505050505050565b6020808252600890820152674f564552464c4f5760c01b604082015260600190565b6020808252600a908201526950524943455f5a45524f60b01b604082015260600190565b6001600160a01b03929092168252602082015260400190565b6020808252601290820152714d41585f50454e44494e475f4f524445525360701b604082015260600190565b602080825260089082015267057524f4e475f54560c41b604082015260600190565b60208082526008908201526715d493d391d7d4d360c21b604082015260600190565b81516001600160a01b031681526101a081016020830151602083015260408301516040830152606083015160608301526080830151608083015260a0830151615c6760a084018215159052565b5060c0838101519083015260e08084015190830152610100808401519083015261012080840151908301526101408084015190830152610160808401519083015261018092830151929091019190915290565b6001600160a01b038516815260208101849052604081018390526080810160038310615ce857615ce8615405565b82606083015295945050505050565b60028110615d0757615d07615405565b9052565b6001600160a01b03878116825286166020820152604081018590526060810184905260c08101615d3e6080830185615cf7565b8260a0830152979650505050505050565b84815260808101615d5f85615683565b84602083015283604083015282606083015295945050505050565b6102208101615d8982866159b5565b836101e0830152821515610200830152949350505050565b6001600160a01b0394909416845260208401929092526040830152606082015260800190565b600060c08201905060018060a01b0380861683528085511660208401525060208401516040830152604084015160608301526060840151615e0b6080840182615cf7565b508260a0830152949350505050565b6001600160a01b0385168152602081018490526040810183905260808101615e456060830184615cf7565b95945050505050565b805163ffffffff8116811461507857600080fd5b600060808284031215615e7457600080fd5b6040516080810181811067ffffffffffffffff82111715615e9757615e9761516c565b604052615ea383615e4e565b8152615eb160208401615e4e565b6020820152615ec260408401615e4e565b6040820152615ed360608401615e4e565b60608201529392505050565b84815260808101615eef85615683565b84602083015283604083015263ffffffff831660608301529594505050505056fea2646970667358221220cac1d2efd26dd084f2d4f5400910d0a9edfd805fdf6da8bc52e250805ec4f57664736f6c63430008110033",
  "deployedBytecode": "0x608060405234801561001057600080fd5b50600436106101795760003560e01c80639a10cc32116100d9578063b9b6573a11610087578063b9b6573a14610367578063be73fb991461037a578063bffe34861461038d578063c641558e146103b6578063ca5eb5e1146103c9578063d3dc7539146103dc578063d8defd151461040357600080fd5b80639a10cc32146102f05780639aa7c0e514610310578063a2a3c0cb14610323578063ae8421e114610336578063b187bd261461033e578063b1dfd5301461034b578063b81bfa051461035457600080fd5b8063531cc96511610136578063531cc9651461023f5780635ad9f993146102665780636c53cc1c1461028d5780638456cb59146102a0578063876d3abd146102a85780638f062227146102bb578063990382cf146102dd57600080fd5b8063119df25f1461017e5780631346b0ff146101a357806316fff074146101ca5780632c1e4e55146101f157806336fb8b1514610206578063410c0b7c14610228575b600080fd5b610186610416565b6040516001600160a01b0390911681526020015b60405180910390f35b6101867f000000000000000000000000000000000000000000000000000000000000000081565b6101867f000000000000000000000000000000000000000000000000000000000000000081565b6102046101ff36600461503c565b61043e565b005b61020433600090815260208190526040902080546001600160a01b0319169055565b61023160035481565b60405190815260200161019a565b6101867f000000000000000000000000000000000000000000000000000000000000000081565b6101867f000000000000000000000000000000000000000000000000000000000000000081565b61020461029b36600461503c565b6104cf565b6102046115bf565b6102046102b636600461503c565b611615565b6004546102cd90610100900460ff1681565b604051901515815260200161019a565b6102046102eb36600461503c565b6118a2565b6103036102fe36600461507d565b611b96565b60405161019a9190615152565b61020461031e3660046151f8565b611cd1565b6102046103313660046152d7565b613007565b610204613573565b6004546102cd9060ff1681565b61023160025481565b61020461036236600461503c565b6135d3565b6102046103753660046152d7565b61365d565b6102046103883660046152f9565b61391c565b61018661039b366004615325565b6000602081905290815260409020546001600160a01b031681565b6102046103c4366004615342565b613c7c565b6102046103d7366004615325565b61412c565b6101867f000000000000000000000000000000000000000000000000000000000000000081565b6102046104113660046152f9565b614198565b6001546000906001600160a01b031661042e57503390565b506001546001600160a01b031690565b610446614451565b6000811161046f5760405162461bcd60e51b815260040161046690615385565b60405180910390fd5b600281905560408051818152600a91810191909152690dac2f0a0dee6ae8aa8960b31b6060820152602081018290527f8cf3e35f6221b16e1670a3413180c9484bf5aa71787905909fa82a6a2662e9ab906080015b60405180910390a150565b6104d7614520565b6104df61452c565b6000806000806000808673__$0a787ca790b72760fa5f2fae68e461a66f$__63cefbb3bd90916040518263ffffffff1660e01b815260040161052391815260200190565b60c060405180830381865af4158015610540573d6000803e3d6000fd5b505050506040513d601f19601f8201168201806040525081019061056491906153b1565b955095509550955095509550600086600381111561058457610584615405565b90506000610590610416565b9050600183101580156105a4575060058311155b6105e15760405162461bcd60e51b815260206004820152600e60248201526d57524f4e475f4e46545f5459504560901b6044820152606401610466565b6001600160a01b03808216907f00000000000000000000000000000000000000000000000000000000000000001663265aa62161061f600187615431565b6040518263ffffffff1660e01b815260040161063d91815260200190565b602060405180830381865afa15801561065a573d6000803e3d6000fd5b505050506040513d601f19601f8201168201806040525081019061067e9190615444565b6001600160a01b0316636352211e866040518263ffffffff1660e01b81526004016106ab91815260200190565b602060405180830381865afa1580156106c8573d6000803e3d6000fd5b505050506040513d601f19601f820116820180604052508101906106ec9190615444565b6001600160a01b03161461072b5760405162461bcd60e51b81526020600482015260066024820152651393d7d3919560d21b6044820152606401610466565b7f00000000000000000000000000000000000000000000000000000000000000006001600160a01b031663f8d24b486040518163ffffffff1660e01b8152600401602060405180830381865afa158015610789573d6000803e3d6000fd5b505050506040513d601f19601f820116820180604052508101906107ad9190615461565b60405163aa3b7d7760e01b8152600481018690527f00000000000000000000000000000000000000000000000000000000000000006001600160a01b03169063aa3b7d7790602401602060405180830381865afa158015610812573d6000803e3d6000fd5b505050506040513d601f19601f820116820180604052508101906108369190615461565b610840919061547a565b4310156108825760405162461bcd60e51b815260206004820152601060248201526f535543434553535f54494d454c4f434b60801b6044820152606401610466565b6000600383600381111561089857610898615405565b1490506000816108a95760006108ac565b60015b90506108f18460405180608001604052808c6001600160a01b031681526020018b81526020018a81526020018460018111156108ea576108ea615405565b905261456d565b61092a5760405162461bcd60e51b815260206004820152600a602482015269125397d512535153d55560b21b6044820152606401610466565b61093783878b8b8b6147b7565b61099860405180610140016040528060006001600160a01b0316815260200160008152602001600081526020016000815260200160008152602001600081526020016000151581526020016000815260200160008152602001600081525090565b8215610a5057604051636e6f99cd60e11b81526001600160a01b037f0000000000000000000000000000000000000000000000000000000000000000169063dcdf339a906109ee908d908d908d9060040161548d565b602060405180830381865afa158015610a0b573d6000803e3d6000fd5b505050506040513d601f19601f82011682018060405250810190610a2f91906154b9565b610a4b5760405162461bcd60e51b8152600401610466906154d6565b610e2d565b6040516351d407ff60e11b81526001600160a01b037f0000000000000000000000000000000000000000000000000000000000000000169063a3a80ffe90610aa0908d908d908d9060040161548d565b61014060405180830381865afa158015610abe573d6000803e3d6000fd5b505050506040513d601f19601f82011682018060405250810190610ae2919061558b565b905060008160e0015111610b085760405162461bcd60e51b8152600401610466906155a8565b6002856003811115610b1c57610b1c615405565b03610d795760007f00000000000000000000000000000000000000000000000000000000000000006001600160a01b031663706faf3a6040518060e0016040528085600001516001600160a01b0316815260200185602001518152602001856040015181526020018560a0015181526020018560c00151151581526020016402540be4007f00000000000000000000000000000000000000000000000000000000000000006001600160a01b0316638c8ff1d5886000015189602001518a604001516040518463ffffffff1660e01b8152600401610bfc9392919061548d565b60c060405180830381865afa158015610c19573d6000803e3d6000fd5b505050506040513d601f19601f82011682018060405250810190610c3d91906155ca565b602001518760600151610c50919061564a565b610c5a9190615661565b815260e086810151602092830152604080519185901b6001600160e01b031916825283516001600160a01b031660048301529183015160248201529082015160448201526060820151606482015260808201511515608482015260a082015160a482015260c0919091015160c482015260e401602060405180830381865afa158015610cea573d6000803e3d6000fd5b505050506040513d601f19601f82011682018060405250810190610d0e9190615461565b905081610120015160001480610d3e57508160c00151610d35578161012001518110610d3e565b81610120015181115b610d735760405162461bcd60e51b8152602060048201526006602482015265121054d7d4d360d21b6044820152606401610466565b50610e2d565b6001856003811115610d8d57610d8d615405565b141580610d9f57506000816101200151115b610dd35760405162461bcd60e51b81526020600482015260056024820152641393d7d4d360da1b6044820152606401610466565b6000856003811115610de757610de7615405565b141580610df957506000816101000151115b610e2d5760405162461bcd60e51b815260206004820152600560248201526404e4f5f54560dc1b6044820152606401610466565b600060405180608001604052808c6001600160a01b031681526020018b81526020018a8152602001876003811115610e6757610e67615405565b905260405163108c3d4960e11b81529091506001600160a01b037f000000000000000000000000000000000000000000000000000000000000000016906321187a9290610eb89084906004016156cd565b602060405180830381865afa158015610ed5573d6000803e3d6000fd5b505050506040513d601f19601f82011682018060405250810190610ef991906154b9565b1580610f8d5750604051633f1b72bf60e21b81526001600160a01b037f0000000000000000000000000000000000000000000000000000000000000000169063fc6dcafc90610f4c9084906004016156cd565b602060405180830381865afa158015610f69573d6000803e3d6000fd5b505050506040513d601f19601f82011682018060405250810190610f8d91906154b9565b156114ee57600084156111ac5760007f00000000000000000000000000000000000000000000000000000000000000006001600160a01b031663b8878a2c8e8e8e6040518463ffffffff1660e01b8152600401610fec9392919061548d565b6101a060405180830381865afa15801561100a573d6000803e3d6000fd5b505050506040513d601f19601f8201168201806040525081019061102e91906156db565b90508060c001518160600151611044919061564a565b602082015160a0830151604051633f54af9960e11b81526000600482018190526024820193909352901515604482015260648101839052919350906001600160a01b037f00000000000000000000000000000000000000000000000000000000000000001690637ea95f32906084016040805180830381865afa1580156110cf573d6000803e3d6000fd5b505050506040513d601f19601f820116820180604052508101906110f3919061578e565b5090507f00000000000000000000000000000000000000000000000000000000000000006001600160a01b03166380f6cfc26040518163ffffffff1660e01b8152600401602060405180830381865afa158015611154573d6000803e3d6000fd5b505050506040513d601f19601f820116820180604052508101906111789190615461565b60c0830151611187908361564a565b11156111a55760405162461bcd60e51b8152600401610466906157b2565b5050611272565b6402540be4008360e001517f00000000000000000000000000000000000000000000000000000000000000006001600160a01b0316638c8ff1d58f8f8f6040518463ffffffff1660e01b81526004016112079392919061548d565b60c060405180830381865afa158015611224573d6000803e3d6000fd5b505050506040513d601f19601f8201168201806040525081019061124891906155ca565b60200151856060015161125b919061564a565b611265919061564a565b61126f9190615661565b90505b604051633348540360e11b81526001600160a01b037f00000000000000000000000000000000000000000000000000000000000000001690636690a806906112c29089908f90869060040161548d565b600060405180830381600087803b1580156112dc57600080fd5b505af11580156112f0573d6000803e3d6000fd5b50505050600080611306878f8f8f8a8e896149c0565b915091506113406040805160c08101825260008082526020820181905291810182905260608101829052608081018290529060a082015290565b6001600160a01b03808a168252602082018d90528f166040820152606081018e9052608081018d905260a081018a600381111561137f5761137f615405565b9081600381111561139257611392615405565b90525060405163205fe86960e21b81526001600160a01b037f0000000000000000000000000000000000000000000000000000000000000000169063817fa1a4906113e390849087906004016157e1565b600060405180830381600087803b1580156113fd57600080fd5b505af1158015611411573d6000803e3d6000fd5b50506040516355447e9760e11b81526001600160a01b037f000000000000000000000000000000000000000000000000000000000000000016925063aa88fd2e91506114659088908d908790600401615841565b600060405180830381600087803b15801561147f57600080fd5b505af1158015611493573d6000803e3d6000fd5b505050508d8f6001600160a01b03168a6001600160a01b03167f6d87222414c5850caf1d385b1e080a771b505825b082a2162d0f4af5ffc86c00866040516114dd91815260200190565b60405180910390a4505050506115b0565b6040516346ea285b60e01b81526001600160a01b037f000000000000000000000000000000000000000000000000000000000000000016906346ea285b9061153c9084908990600401615869565b600060405180830381600087803b15801561155657600080fd5b505af115801561156a573d6000803e3d6000fd5b50505050898b6001600160a01b0316866001600160a01b03167fde7da272dc52e28c3b33c5c74b461da89b05bd790d845e82db2f69bbf08108e760405160405180910390a45b50505050505050505050505050565b6115c7614451565b6004805460ff8082161560ff1990921682179092556040519116151581527f0e2fb031ee032dc02d8011dc50b816eb450cf856abd8261680dac74f72165bd2906020015b60405180910390a1565b61161d614520565b61162561452c565b600061162f610416565b60405163b66e6b0560e01b8152600481018490529091506000906001600160a01b037f0000000000000000000000000000000000000000000000000000000000000000169063b66e6b05906024016101e060405180830381865afa15801561169b573d6000803e3d6000fd5b505050506040513d601f19601f820116820180604052508101906116bf919061588f565b8051602082015191925090158015906116e9575060035482602001516116e5919061547a565b4310155b6117055760405162461bcd60e51b815260040161046690615912565b826001600160a01b031681600001516001600160a01b03161461173a5760405162461bcd60e51b815260040161046690615938565b60008160e001511161175e5760405162461bcd60e51b815260040161046690615960565b604051630195728b60e71b815260048101859052600160248201527f00000000000000000000000000000000000000000000000000000000000000006001600160a01b03169063cab9458090604401600060405180830381600087803b1580156117c757600080fd5b505af11580156117db573d6000803e3d6000fd5b505050506080810151604051638a238ae560e01b81527f00000000000000000000000000000000000000000000000000000000000000006001600160a01b03811692638a238ae59261183292918891600401615991565b600060405180830381600087803b15801561184c57600080fd5b505af1158015611860573d6000803e3d6000fd5b50505050837f3adaa586cdbe84dd24e45bd7dada6da933d7c2d1c7b4e4cd02fce033356decb1836040516118949190615a63565b60405180910390a250505050565b6118aa614520565b6118b261452c565b60006118bc610416565b60405163b66e6b0560e01b8152600481018490529091506000906001600160a01b037f0000000000000000000000000000000000000000000000000000000000000000169063b66e6b05906024016101e060405180830381865afa158015611928573d6000803e3d6000fd5b505050506040513d601f19601f8201168201806040525081019061194c919061588f565b80516020820151919250901580159061197657506003548260200151611972919061547a565b4310155b6119925760405162461bcd60e51b815260040161046690615912565b826001600160a01b031681600001516001600160a01b0316146119c75760405162461bcd60e51b815260040161046690615938565b60e0810151156119e95760405162461bcd60e51b815260040161046690615960565b604051630195728b60e71b815260048101859052600060248201527f00000000000000000000000000000000000000000000000000000000000000006001600160a01b03169063cab9458090604401600060405180830381600087803b158015611a5257600080fd5b505af1158015611a66573d6000803e3d6000fd5b505050602082015160408084015190516024810192909252604482015260009150309060640160408051601f198184030181529181526020820180516001600160e01b031663a2a3c0cb60e01b17905251611ac19190615a72565b600060405180830381855af49150503d8060008114611afc576040519150601f19603f3d011682016040523d82523d6000602084013e611b01565b606091505b5050905080611b57578160200151846001600160a01b03167f60e497734ddabcd7293fd91739aaf65cf525eb539c97be528125a235a89288d88460400151604051611b4e91815260200190565b60405180910390a35b847f3adaa586cdbe84dd24e45bd7dada6da933d7c2d1c7b4e4cd02fce033356decb184604051611b879190615a63565b60405180910390a25050505050565b6001600160a01b03838116600090815260208190526040902054606091163314611bfa5760405162461bcd60e51b81526020600482015260156024820152741111531151d0551157d393d517d054141493d59151605a1b6044820152606401610466565b600180546001600160a01b0319166001600160a01b03861617905560405160009081903090611c2c9087908790615a8e565b600060405180830381855af49150503d8060008114611c67576040519150601f19603f3d011682016040523d82523d6000602084013e611c6c565b606091505b509150915081611cb857604481511015611c8557600080fd5b60048101905080806020019051810190611c9f9190615a9e565b60405162461bcd60e51b81526004016104669190615152565b600180546001600160a01b031916905595945050505050565b611cd9614520565b611ce161452c565b60045460ff1615611d1d5760405162461bcd60e51b815260206004820152600660248201526514105554d15160d21b6044820152606401610466565b600019828660a00151611d30919061564a565b10611d4d5760405162461bcd60e51b815260040161046690615b4b565b60008560a0015111611d715760405162461bcd60e51b815260040161046690615b6d565b60007f00000000000000000000000000000000000000000000000000000000000000006001600160a01b0316633078fff56040518163ffffffff1660e01b8152600401602060405180830381865afa158015611dd1573d6000803e3d6000fd5b505050506040513d601f19601f82011682018060405250810190611df59190615444565b90506000816001600160a01b03166335b03c176040518163ffffffff1660e01b8152600401602060405180830381865afa158015611e37573d6000803e3d6000fd5b505050506040513d601f19601f82011682018060405250810190611e5b9190615444565b90506000611e67610416565b90507f00000000000000000000000000000000000000000000000000000000000000006001600160a01b031663f65d9dbe6040518163ffffffff1660e01b8152600401602060405180830381865afa158015611ec7573d6000803e3d6000fd5b505050506040513d601f19601f82011682018060405250810190611eeb9190615461565b6020890151604051634bf3ccad60e11b81526001600160a01b037f000000000000000000000000000000000000000000000000000000000000000016916397e7995a91611f3c918691600401615b91565b602060405180830381865afa158015611f59573d6000803e3d6000fd5b505050506040513d601f19601f82011682018060405250810190611f7d9190615461565b60208a0151604051639c8912f160e01b81526001600160a01b037f00000000000000000000000000000000000000000000000000000000000000001691639c8912f191611fce918791600401615b91565b602060405180830381865afa158015611feb573d6000803e3d6000fd5b505050506040513d601f19601f8201168201806040525081019061200f9190615461565b60208b01516040516307218dad60e21b81526001600160a01b037f00000000000000000000000000000000000000000000000000000000000000001691631c8636b491612060918891600401615b91565b602060405180830381865afa15801561207d573d6000803e3d6000fd5b505050506040513d601f19601f820116820180604052508101906120a19190615461565b6120ab919061547a565b6120b5919061547a565b106120f85760405162461bcd60e51b815260206004820152601360248201527226a0ac2faa2920a222a9afa822a92fa820a4a960691b6044820152606401610466565b7f00000000000000000000000000000000000000000000000000000000000000006001600160a01b0316638049fde76040518163ffffffff1660e01b8152600401602060405180830381865afa158015612156573d6000803e3d6000fd5b505050506040513d601f19601f8201168201806040525081019061217a9190615461565b60405163f7b3c6fd60e01b81526001600160a01b0383811660048301527f0000000000000000000000000000000000000000000000000000000000000000169063f7b3c6fd90602401602060405180830381865afa1580156121e0573d6000803e3d6000fd5b505050506040513d601f19601f820116820180604052508101906122049190615461565b106122215760405162461bcd60e51b815260040161046690615baa565b600254886080015111156122675760405162461bcd60e51b815260206004820152600d60248201526c41424f56455f4d41585f504f5360981b6044820152606401610466565b602088015160405163601e3b6b60e11b815260048101919091526001600160a01b0383169063c03c76d690602401602060405180830381865afa1580156122b2573d6000803e3d6000fd5b505050506040513d601f19601f820116820180604052508101906122d69190615461565b8860e0015189608001516122ea919061564a565b10156123285760405162461bcd60e51b815260206004820152600d60248201526c42454c4f575f4d494e5f504f5360981b6044820152606401610466565b60008860e001511180156123ae5750602088015160405163059a992d60e41b815260048101919091526001600160a01b038316906359a992d090602401602060405180830381865afa158015612382573d6000803e3d6000fd5b505050506040513d601f19601f820116820180604052508101906123a69190615461565b8860e0015110155b80156123cb57506123c3828960200151614c9d565b8860e0015111155b61240c5760405162461bcd60e51b815260206004820152601260248201527113115591549051d157d25390d3d4949150d560721b6044820152606401610466565b85158061251d575060006001600160a01b037f00000000000000000000000000000000000000000000000000000000000000001663265aa62161245060018a615431565b6040518263ffffffff1660e01b815260040161246e91815260200190565b602060405180830381865afa15801561248b573d6000803e3d6000fd5b505050506040513d601f19601f820116820180604052508101906124af9190615444565b6040516370a0823160e01b81526001600160a01b03848116600483015291909116906370a0823190602401602060405180830381865afa1580156124f7573d6000803e3d6000fd5b505050506040513d601f19601f8201168201806040525081019061251b9190615461565b115b6125775760405162461bcd60e51b815260206004820152602560248201527f4e4f5f434f52524553504f4e44494e475f4e46545f5350524541445f5245445560448201526421aa24a7a760d91b6064820152608401610466565b61010088015115806125ab57508760c0015161259e578760a00151886101000151106125ab565b8760a00151886101000151115b6125c75760405162461bcd60e51b815260040161046690615bd6565b61012088015115806125fb57508760c001516125ee578760a00151886101200151116125fb565b8760a00151886101200151105b6126175760405162461bcd60e51b815260040161046690615bf8565b60007f00000000000000000000000000000000000000000000000000000000000000006001600160a01b0316637ea95f3260008b602001518c60c001518d60e001518e60800151612668919061564a565b6040516001600160e01b031960e087901b168152600481019490945260248401929092521515604483015260648201526084016040805180830381865afa1580156126b7573d6000803e3d6000fd5b505050506040513d601f19601f820116820180604052508101906126db919061578e565b5090507f00000000000000000000000000000000000000000000000000000000000000006001600160a01b03166380f6cfc26040518163ffffffff1660e01b8152600401602060405180830381865afa15801561273c573d6000803e3d6000fd5b505050506040513d601f19601f820116820180604052508101906127609190615461565b60e08a015161276f908361564a565b111561278d5760405162461bcd60e51b8152600401610466906157b2565b6080890151604051638a238ae560e01b81527f00000000000000000000000000000000000000000000000000000000000000006001600160a01b03811692638a238ae5926127e19287929091600401615991565b600060405180830381600087803b1580156127fb57600080fd5b505af115801561280f573d6000803e3d6000fd5b506000925061281c915050565b88600281111561282e5761282e615405565b14612cd957602089015160405163226a27ad60e11b81526000916001600160a01b037f000000000000000000000000000000000000000000000000000000000000000016916344d44f5a9161288891879190600401615b91565b602060405180830381865afa1580156128a5573d6000803e3d6000fd5b505050506040513d601f19601f820116820180604052508101906128c99190615461565b90507f00000000000000000000000000000000000000000000000000000000000000006001600160a01b031663d3b5fe70604051806101a00160405280866001600160a01b031681526020018d6020015181526020018481526020018d60800151815260200160008c1161293e5760006129d7565b6001600160a01b037f000000000000000000000000000000000000000000000000000000000000000016633dae10a061297860018f615431565b6040518263ffffffff1660e01b815260040161299691815260200190565b602060405180830381865afa1580156129b3573d6000803e3d6000fd5b505050506040513d601f19601f820116820180604052508101906129d79190615461565b81526020018d60c00151151581526020018d60e0015181526020018d610100015181526020018d610120015181526020018d60a0015181526020018d60a00151815260200143815260200160008152506040518263ffffffff1660e01b8152600401612a439190615c1a565b600060405180830381600087803b158015612a5d57600080fd5b505af1158015612a71573d6000803e3d6000fd5b5050505060208a0151604051630ec5706160e41b81527f00000000000000000000000000000000000000000000000000000000000000006001600160a01b03169163ec57061091612aca91879186908f90600401615cba565b600060405180830381600087803b158015612ae457600080fd5b505af1158015612af8573d6000803e3d6000fd5b5050505060007f00000000000000000000000000000000000000000000000000000000000000006001600160a01b031662b127836040518163ffffffff1660e01b8152600401602060405180830381865afa158015612b5b573d6000803e3d6000fd5b505050506040513d601f19601f82011682018060405250810190612b7f9190615444565b9050806001600160a01b031673__$f600c6c046224cd62da9c8e7a0d00fc8b2$__6395ecbbea9091868e60200151866001612bb8614e11565b6040518763ffffffff1660e01b8152600401612bd996959493929190615d0b565b60006040518083038186803b158015612bf157600080fd5b505af4158015612c05573d6000803e3d6000fd5b50505050806001600160a01b031673__$f600c6c046224cd62da9c8e7a0d00fc8b2$__6325f40ef99091868e602001518660018e6040518763ffffffff1660e01b8152600401612c5a96959493929190615d0b565b60006040518083038186803b158015612c7257600080fd5b505af4158015612c86573d6000803e3d6000fd5b505050508a60200151846001600160a01b03167fdfabd6f206f17b7f2e1f9e0d33c40d30d1e8d7b6a4f520a03fdc1c181105934384604051612cca91815260200190565b60405180910390a35050612f88565b6000846001600160a01b0316636938c05d8b6020015160008d60e001518e60800151612d05919061564a565b612d0d614e11565b6040518563ffffffff1660e01b8152600401612d2c9493929190615d4f565b6020604051808303816000875af1158015612d4b573d6000803e3d6000fd5b505050506040513d601f19601f82011682018060405250810190612d6f9190615461565b90507f00000000000000000000000000000000000000000000000000000000000000006001600160a01b031663c76faf786040518060c00160405280604051806101400160405280886001600160a01b031681526020018f60200151815260200160008152602001600081526020018f608001518152602001600081526020018f60c00151151581526020018f60e0015181526020018f610100015181526020018f61012001518152508152602001600081526020018d60a0015181526020018a815260200160008c11612e44576000612edd565b6001600160a01b037f000000000000000000000000000000000000000000000000000000000000000016633dae10a0612e7e60018f615431565b6040518263ffffffff1660e01b8152600401612e9c91815260200190565b602060405180830381865afa158015612eb9573d6000803e3d6000fd5b505050506040513d601f19601f82011682018060405250810190612edd9190615461565b815260200160008152508360016040518463ffffffff1660e01b8152600401612f0893929190615d7a565b600060405180830381600087803b158015612f2257600080fd5b505af1158015612f36573d6000803e3d6000fd5b505050508960200151836001600160a01b0316827f3e544118c04e3bb18b669475695cd270ba0e41fb13177483f01c14222de62a866001604051612f7e911515815260200190565b60405180910390a4505b6040516326e2ada160e21b81526001600160a01b03838116600483015286811660248301527f00000000000000000000000000000000000000000000000000000000000000001690639b8ab68490604401600060405180830381600087803b158015612ff357600080fd5b505af11580156115b0573d6000803e3d6000fd5b61300f614520565b61301761452c565b6000613021610416565b905060007f00000000000000000000000000000000000000000000000000000000000000006001600160a01b031663a3a80ffe8386866040518463ffffffff1660e01b81526004016130759392919061548d565b61014060405180830381865afa158015613093573d6000803e3d6000fd5b505050506040513d601f19601f820116820180604052508101906130b7919061558b565b905060007f00000000000000000000000000000000000000000000000000000000000000006001600160a01b0316638c8ff1d58487876040518463ffffffff1660e01b815260040161310b9392919061548d565b60c060405180830381865afa158015613128573d6000803e3d6000fd5b505050506040513d601f19601f8201168201806040525081019061314c91906155ca565b90507f00000000000000000000000000000000000000000000000000000000000000006001600160a01b0316638049fde76040518163ffffffff1660e01b8152600401602060405180830381865afa1580156131ac573d6000803e3d6000fd5b505050506040513d601f19601f820116820180604052508101906131d09190615461565b60405163f7b3c6fd60e01b81526001600160a01b0385811660048301527f0000000000000000000000000000000000000000000000000000000000000000169063f7b3c6fd90602401602060405180830381865afa158015613236573d6000803e3d6000fd5b505050506040513d601f19601f8201168201806040525081019061325a9190615461565b106132775760405162461bcd60e51b815260040161046690615baa565b8060a00151156132c05760405162461bcd60e51b81526020600482015260146024820152731053149150511657d091525391d7d0d313d4d15160621b6044820152606401610466565b60008260e00151116132e45760405162461bcd60e51b8152600401610466906155a8565b60007f00000000000000000000000000000000000000000000000000000000000000006001600160a01b0316633078fff56040518163ffffffff1660e01b8152600401602060405180830381865afa158015613344573d6000803e3d6000fd5b505050506040513d601f19601f820116820180604052508101906133689190615444565b6001600160a01b0316636938c05d8760016402540be4008760e0015187602001518960600151613398919061564a565b6133a2919061564a565b6133ac9190615661565b6133b4614e11565b6040518563ffffffff1660e01b81526004016133d39493929190615d4f565b6020604051808303816000875af11580156133f2573d6000803e3d6000fd5b505050506040513d601f19601f820116820180604052508101906134169190615461565b90507f00000000000000000000000000000000000000000000000000000000000000006001600160a01b031663c76faf786040518060c00160405280604051806101400160405280896001600160a01b031681526020018b81526020018a81526020016000815260200160008152602001600081526020016000151581526020016000815260200160008152602001600081525081526020016000815260200160008152602001600081526020016000815260200160008152508360006040518463ffffffff1660e01b81526004016134f193929190615d7a565b600060405180830381600087803b15801561350b57600080fd5b505af115801561351f573d6000803e3d6000fd5b5050505085846001600160a01b0316827f3e544118c04e3bb18b669475695cd270ba0e41fb13177483f01c14222de62a866000604051613563911515815260200190565b60405180910390a4505050505050565b61357b614451565b6004805460ff610100808304821615810261ff001990931692909217928390556040517fc3a6f986261de9467c2838c6df8ef74f9107855159205600c0bc7a14cdfd38889361160b9390049091161515815260200190565b6135db614451565b600081116135fb5760405162461bcd60e51b815260040161046690615385565b600381905560408051818152601391810191909152721b585c9ad95d13dc99195c9cd51a5b595bdd5d606a1b6060820152602081018290527f8cf3e35f6221b16e1670a3413180c9484bf5aa71787905909fa82a6a2662e9ab906080016104c4565b613665614520565b61366d61452c565b6000613677610416565b604051636e6f99cd60e11b81529091506001600160a01b037f0000000000000000000000000000000000000000000000000000000000000000169063dcdf339a906136ca9084908790879060040161548d565b602060405180830381865afa1580156136e7573d6000803e3d6000fd5b505050506040513d601f19601f8201168201806040525081019061370b91906154b9565b6137275760405162461bcd60e51b8152600401610466906154d6565b604051632e21e28b60e21b81526000906001600160a01b037f0000000000000000000000000000000000000000000000000000000000000000169063b8878a2c9061377a9085908890889060040161548d565b6101a060405180830381865afa158015613798573d6000803e3d6000fd5b505050506040513d601f19601f820116820180604052508101906137bc91906156db565b90506137cb8285856003614e97565b60405163b4b0f56760e01b81526001600160a01b037f0000000000000000000000000000000000000000000000000000000000000000169063b4b0f5679061381b9085908890889060040161548d565b600060405180830381600087803b15801561383557600080fd5b505af1158015613849573d6000803e3d6000fd5b505050506060810151604051638a238ae560e01b81527f00000000000000000000000000000000000000000000000000000000000000006001600160a01b03811692638a238ae5926138a092918791600401615991565b600060405180830381600087803b1580156138ba57600080fd5b505af11580156138ce573d6000803e3d6000fd5b5050505083826001600160a01b03167ff1b38881d7f4b2b12141c5f39c5124545d6112532eb6afbe9630cdbde3ee53e98560405161390e91815260200190565b60405180910390a350505050565b613924614520565b61392c61452c565b6000613936610416565b90506139458185856001614e97565b6040516351d407ff60e11b81526000906001600160a01b037f0000000000000000000000000000000000000000000000000000000000000000169063a3a80ffe906139989085908990899060040161548d565b61014060405180830381865afa1580156139b6573d6000803e3d6000fd5b505050506040513d601f19601f820116820180604052508101906139da919061558b565b905060008160e0015111613a005760405162461bcd60e51b8152600401610466906155a8565b60008160e001516064604b8460a00151613a1a919061564a565b613a249190615661565b613a2e9190615661565b9050831580613a6d57508160c00151613a5957808260a00151613a51919061547a565b841115613a6d565b808260a00151613a699190615431565b8410155b613aa65760405162461bcd60e51b815260206004820152600a602482015269534c5f544f4f5f42494760b01b6044820152606401610466565b60405163a354418160e01b81526001600160a01b037f0000000000000000000000000000000000000000000000000000000000000000169063a354418190613af89086908a908a908a90600401615da1565b600060405180830381600087803b158015613b1257600080fd5b505af1158015613b26573d6000803e3d6000fd5b505050507f00000000000000000000000000000000000000000000000000000000000000006001600160a01b031662b127836040518163ffffffff1660e01b8152600401602060405180830381865afa158015613b87573d6000803e3d6000fd5b505050506040513d601f19601f82011682018060405250810190613bab9190615444565b6001600160a01b031673__$f600c6c046224cd62da9c8e7a0d00fc8b2$__63a6b8633d90918589896000613bdd614e11565b6040518763ffffffff1660e01b8152600401613bfe96959493929190615d0b565b60006040518083038186803b158015613c1657600080fd5b505af4158015613c2a573d6000803e3d6000fd5b505060408051888152602081018890528993506001600160a01b03871692507f1fc4a6c7ffe506697979b8ed54dc4135cd1ecd26a2745f70b760a2492222b316910160405180910390a3505050505050565b613c84614520565b613c8c61452c565b60008411613cac5760405162461bcd60e51b815260040161046690615b6d565b6000613cb6610416565b604051636e6f99cd60e11b81529091506001600160a01b037f0000000000000000000000000000000000000000000000000000000000000000169063dcdf339a90613d099084908b908b9060040161548d565b602060405180830381865afa158015613d26573d6000803e3d6000fd5b505050506040513d601f19601f82011682018060405250810190613d4a91906154b9565b613d665760405162461bcd60e51b8152600401610466906154d6565b604051632e21e28b60e21b81526000906001600160a01b037f0000000000000000000000000000000000000000000000000000000000000000169063b8878a2c90613db99085908c908c9060040161548d565b6101a060405180830381865afa158015613dd7573d6000803e3d6000fd5b505050506040513d601f19601f82011682018060405250810190613dfb91906156db565b9050841580613e1a57508060a00151613e1657858510613e1a565b8585115b613e365760405162461bcd60e51b815260040161046690615bd6565b831580613e5357508060a00151613e4f57858411613e53565b8584105b613e6f5760405162461bcd60e51b815260040161046690615bf8565b600019613e7c848861564a565b10613e995760405162461bcd60e51b815260040161046690615b4b565b613ea68289896003614e97565b6101208101869052610140810186905260e081018590526101008101849052604051635bb3b04560e11b81526001600160a01b037f0000000000000000000000000000000000000000000000000000000000000000169063b767608a90613f11908490600401615c1a565b600060405180830381600087803b158015613f2b57600080fd5b505af1158015613f3f573d6000803e3d6000fd5b5050505060007f00000000000000000000000000000000000000000000000000000000000000006001600160a01b031662b127836040518163ffffffff1660e01b8152600401602060405180830381865afa158015613fa2573d6000803e3d6000fd5b505050506040513d601f19601f82011682018060405250810190613fc69190615444565b905073__$f600c6c046224cd62da9c8e7a0d00fc8b2$__6395ecbbea6001600160a01b038316858c8c6001613ff9614e11565b6040518763ffffffff1660e01b815260040161401a96959493929190615d0b565b60006040518083038186803b15801561403257600080fd5b505af4158015614046573d6000803e3d6000fd5b50506040516325f40ef960e01b815273__$f600c6c046224cd62da9c8e7a0d00fc8b2$__92506325f40ef99150614095906001600160a01b0385169087908e908e906001908c90600401615d0b565b60006040518083038186803b1580156140ad57600080fd5b505af41580156140c1573d6000803e3d6000fd5b5050604080518b8152602081018b905290810189905260608101889052608081018790528b92506001600160a01b03861691507f710a8db87f04e82a9de40076812593a965f4aa48693196d2144c07ff9710e8909060a00160405180910390a3505050505050505050565b3233146141695760405162461bcd60e51b815260206004820152600b60248201526a1393d7d0d3d395149050d560aa1b6044820152606401610466565b33600090815260208190526040902080546001600160a01b0319166001600160a01b0392909216919091179055565b6141a0614520565b6141a861452c565b60006141b2610416565b90506141c18185856000614e97565b6040516351d407ff60e11b81526000906001600160a01b037f0000000000000000000000000000000000000000000000000000000000000000169063a3a80ffe906142149085908990899060040161548d565b61014060405180830381865afa158015614232573d6000803e3d6000fd5b505050506040513d601f19601f82011682018060405250810190614256919061558b565b905060008160e001511161427c5760405162461bcd60e51b8152600401610466906155a8565b604051637fdb96f360e01b81526001600160a01b037f00000000000000000000000000000000000000000000000000000000000000001690637fdb96f3906142ce908590899089908990600401615da1565b600060405180830381600087803b1580156142e857600080fd5b505af11580156142fc573d6000803e3d6000fd5b505050507f00000000000000000000000000000000000000000000000000000000000000006001600160a01b031662b127836040518163ffffffff1660e01b8152600401602060405180830381865afa15801561435d573d6000803e3d6000fd5b505050506040513d601f19601f820116820180604052508101906143819190615444565b6001600160a01b031673__$f600c6c046224cd62da9c8e7a0d00fc8b2$__6339e765e4909184888860006143b3614e11565b6040518763ffffffff1660e01b81526004016143d496959493929190615d0b565b60006040518083038186803b1580156143ec57600080fd5b505af4158015614400573d6000803e3d6000fd5b505060408051878152602081018790528893506001600160a01b03861692507f7e06a81c7a47891ccc7455b5ccb2ed850e32bb655ccda67eb3ebaaeed83242a4910160405180910390a35050505050565b7f00000000000000000000000000000000000000000000000000000000000000006001600160a01b03166312d43a516040518163ffffffff1660e01b8152600401602060405180830381865afa1580156144af573d6000803e3d6000fd5b505050506040513d601f19601f820116820180604052508101906144d39190615444565b6001600160a01b0316336001600160a01b03161461451e5760405162461bcd60e51b8152602060048201526008602482015267474f565f4f4e4c5960c01b6044820152606401610466565b565b32331461451e57600080fd5b600454610100900460ff161561451e5760405162461bcd60e51b815260040161046690602080825260049082015263444f4e4560e01b604082015260600190565b6000600283600381111561458357614583615405565b03614590575060016147b1565b600061459a614e11565b905060007f00000000000000000000000000000000000000000000000000000000000000006001600160a01b031662b127836040518163ffffffff1660e01b8152600401602060405180830381865afa1580156145fb573d6000803e3d6000fd5b505050506040513d601f19601f8201168201806040525081019061461f9190615444565b9050600085600381111561463557614635615405565b036146c957604051637d36408960e01b815273__$f600c6c046224cd62da9c8e7a0d00fc8b2$__90637d3640899061467e906001600160a01b0385169088908790600401615dc7565b602060405180830381865af415801561469b573d6000803e3d6000fd5b505050506040513d601f19601f820116820180604052508101906146bf91906154b9565b15925050506147b1565b60018560038111156146dd576146dd615405565b036147265760405163934648bb60e01b815273__$f600c6c046224cd62da9c8e7a0d00fc8b2$__9063934648bb9061467e906001600160a01b0385169088908790600401615dc7565b6040516308af796360e01b815273__$f600c6c046224cd62da9c8e7a0d00fc8b2$__906308af79639061476a906001600160a01b0385169088908790600401615dc7565b602060405180830381865af4158015614787573d6000803e3d6000fd5b505050506040513d601f19601f820116820180604052508101906147ab91906154b9565b15925050505b92915050565b60405162c1932360e11b81524360048201526001600160a01b0386811660248301526044820186905284811660648301526084820184905260a4820183905260009182917f0000000000000000000000000000000000000000000000000000000000000000169063018326469060c4016040805180830381865afa158015614843573d6000803e3d6000fd5b505050506040513d601f19601f82011682018060405250810190614867919061578e565b60405163255b694560e21b8152600481018390526024810182905291935091507f00000000000000000000000000000000000000000000000000000000000000006001600160a01b03169063956da51490604401602060405180830381865afa1580156148d8573d6000803e3d6000fd5b505050506040513d601f19601f820116820180604052508101906148fc91906154b9565b156149365760405162461bcd60e51b815260206004820152600a602482015269424f545f494e5f55534560b01b6044820152606401610466565b604051630580c65760e41b815260048101839052602481018290527f00000000000000000000000000000000000000000000000000000000000000006001600160a01b03169063580c657090604401600060405180830381600087803b15801561499f57600080fd5b505af11580156149b3573d6000803e3d6000fd5b5050505050505050505050565b60008060007f00000000000000000000000000000000000000000000000000000000000000006001600160a01b031662b127836040518163ffffffff1660e01b8152600401602060405180830381865afa158015614a22573d6000803e3d6000fd5b505050506040513d601f19601f82011682018060405250810190614a469190615444565b6001600160a01b0316639bd24d838a8a8a8a6040518563ffffffff1660e01b8152600401614a779493929190615e1a565b608060405180830381865afa158015614a94573d6000803e3d6000fd5b505050506040513d601f19601f82011682018060405250810190614ab89190615e62565b905060007f00000000000000000000000000000000000000000000000000000000000000006001600160a01b0316633078fff56040518163ffffffff1660e01b8152600401602060405180830381865afa158015614b1a573d6000803e3d6000fd5b505050506040513d601f19601f82011682018060405250810190614b3e9190615444565b9050806001600160a01b0316636938c05d8a8d614b5c576003614b5f565b60025b888f614bb25760018b6003811115614b7957614b79615405565b14614ba85760008b6003811115614b9257614b92615405565b14614ba1578660600151614bb8565b8651614bb8565b8660200151614bb8565b86604001515b6040518563ffffffff1660e01b8152600401614bd79493929190615edf565b6020604051808303816000875af1158015614bf6573d6000803e3d6000fd5b505050506040513d601f19601f82011682018060405250810190614c1a9190615461565b60405163b9e0336f60e01b8152600481018b9052602481018790529094506001600160a01b0382169063b9e0336f90604401602060405180830381865afa158015614c69573d6000803e3d6000fd5b505050506040513d601f19601f82011682018060405250810190614c8d9190615461565b9250505097509795505050505050565b6000807f00000000000000000000000000000000000000000000000000000000000000006001600160a01b031662b127836040518163ffffffff1660e01b8152600401602060405180830381865afa158015614cfd573d6000803e3d6000fd5b505050506040513d601f19601f82011682018060405250810190614d219190615444565b6001600160a01b031663281b693c846040518263ffffffff1660e01b8152600401614d4e91815260200190565b602060405180830381865afa158015614d6b573d6000803e3d6000fd5b505050506040513d601f19601f82011682018060405250810190614d8f9190615461565b905060008111614e0757604051630a06da4f60e21b8152600481018490526001600160a01b0385169063281b693c90602401602060405180830381865afa158015614dde573d6000803e3d6000fd5b505050506040513d601f19601f82011682018060405250810190614e029190615461565b614e09565b805b949350505050565b600061a4b1461480614e25575062066eed46145b15614e925760646001600160a01b031663a3b1b31d6040518163ffffffff1660e01b8152600401602060405180830381865afa158015614e69573d6000803e3d6000fd5b505050506040513d601f19601f82011682018060405250810190614e8d9190615461565b905090565b504390565b60006040518060800160405280866001600160a01b03168152602001858152602001848152602001836003811115614ed157614ed1615405565b905260405163108c3d4960e11b81529091506001600160a01b037f000000000000000000000000000000000000000000000000000000000000000016906321187a9290614f229084906004016156cd565b602060405180830381865afa158015614f3f573d6000803e3d6000fd5b505050506040513d601f19601f82011682018060405250810190614f6391906154b9565b1580614ff75750604051633f1b72bf60e21b81526001600160a01b037f0000000000000000000000000000000000000000000000000000000000000000169063fc6dcafc90614fb69084906004016156cd565b602060405180830381865afa158015614fd3573d6000803e3d6000fd5b505050506040513d601f19601f82011682018060405250810190614ff791906154b9565b6150355760405162461bcd60e51b815260206004820152600f60248201526e2822a72224a723afaa2924a3a3a2a960891b6044820152606401610466565b5050505050565b60006020828403121561504e57600080fd5b5035919050565b6001600160a01b038116811461506a57600080fd5b50565b803561507881615055565b919050565b60008060006040848603121561509257600080fd5b833561509d81615055565b9250602084013567ffffffffffffffff808211156150ba57600080fd5b818601915086601f8301126150ce57600080fd5b8135818111156150dd57600080fd5b8760208285010111156150ef57600080fd5b6020830194508093505050509250925092565b60005b8381101561511d578181015183820152602001615105565b50506000910152565b6000815180845261513e816020860160208601615102565b601f01601f19169290920160200192915050565b6020815260006151656020830184615126565b9392505050565b634e487b7160e01b600052604160045260246000fd5b604051610140810167ffffffffffffffff811182821017156151a6576151a661516c565b60405290565b6040516101a0810167ffffffffffffffff811182821017156151a6576151a661516c565b801515811461506a57600080fd5b8035615078816151d0565b80356003811061507857600080fd5b60008060008060008587036101c081121561521257600080fd5b6101408082121561522257600080fd5b61522a615182565b91506152358861506d565b82526020880135602083015260408801356040830152606088013560608301526080880135608083015260a088013560a083015261527560c089016151de565b60c083015260e088013560e08301526101008089013581840152506101208089013581840152508196506152aa8189016151e9565b95505050610160860135925061018086013591506152cb6101a0870161506d565b90509295509295909350565b600080604083850312156152ea57600080fd5b50508035926020909101359150565b60008060006060848603121561530e57600080fd5b505081359360208301359350604090920135919050565b60006020828403121561533757600080fd5b8135614e0781615055565b60008060008060008060c0878903121561535b57600080fd5b505084359660208601359650604086013595606081013595506080810135945060a0013592509050565b602080825260079082015266056414c55455f360cc1b604082015260600190565b805161507881615055565b60008060008060008060c087890312156153ca57600080fd5b8651955060208701516153dc81615055565b6040880151606089015160808a015160a0909a0151989b929a5090989097909650945092505050565b634e487b7160e01b600052602160045260246000fd5b634e487b7160e01b600052601160045260246000fd5b818103818111156147b1576147b161541b565b60006020828403121561545657600080fd5b8151614e0781615055565b60006020828403121561547357600080fd5b5051919050565b808201808211156147b1576147b161541b565b6001600160a01b039390931683526020830191909152604082015260600190565b8051615078816151d0565b6000602082840312156154cb57600080fd5b8151614e07816151d0565b6020808252600890820152671393d7d31253525560c21b604082015260600190565b6000610140828403121561550b57600080fd5b615513615182565b905061551e826153a6565b81526020820151602082015260408201516040820152606082015160608201526080820151608082015260a082015160a082015261555e60c083016154ae565b60c082015260e082015160e082015261010080830151818301525061012080830151818301525092915050565b6000610140828403121561559e57600080fd5b61516583836154f8565b6020808252600890820152674e4f5f545241444560c01b604082015260600190565b600060c082840312156155dc57600080fd5b60405160c0810181811067ffffffffffffffff821117156155ff576155ff61516c565b8060405250825181526020830151602082015260408301516040820152606083015160608201526080830151608082015260a083015161563e816151d0565b60a08201529392505050565b80820281158282048414176147b1576147b161541b565b60008261567e57634e487b7160e01b600052601260045260246000fd5b500490565b6004811061506a5761506a615405565b80516001600160a01b03168252602080820151908301526040808201519083015260608101516156c281615683565b806060840152505050565b608081016147b18284615693565b60006101a082840312156156ee57600080fd5b6156f66151ac565b6156ff836153a6565b81526020830151602082015260408301516040820152606083015160608201526080830151608082015261573560a084016154ae565b60a082015260c0838101519082015260e080840151908201526101008084015190820152610120808401519082015261014080840151908201526101608084015190820152610180928301519281019290925250919050565b600080604083850312156157a157600080fd5b505080516020909101519092909150565b6020808252601590820152740a0a492868abe929aa08286a8bea89e9ebe90928e9605b1b604082015260600190565b82516001600160a01b0390811682526020808501519083015260408085015190911690820152606080840151908201526080808401519082015260a083015160e082019061582e81615683565b60a083015260c090910191909152919050565b60c0810161584f8286615693565b6001600160a01b0393909316608082015260a00152919050565b60a081016158778285615693565b6001600160a01b039290921660809190910152919050565b60006101e082840312156158a257600080fd5b60405160c0810181811067ffffffffffffffff821117156158c5576158c561516c565b6040526158d284846154f8565b81526101408301516020820152610160830151604082015261018083015160608201526101a083015160808201526101c09092015160a083015250919050565b6020808252600c908201526b15d0525517d512535153d55560a21b604082015260600190565b6020808252600e908201526d2727aa2faca7aaa92fa7a92222a960911b604082015260600190565b60208082526017908201527657524f4e475f4d41524b45545f4f524445525f5459504560481b604082015260600190565b6001600160a01b039384168152919092166020820152604081019190915260600190565b805180516001600160a01b031683526020810151602084015260408101516040840152606081015160608401526080810151608084015260a081015160a084015260c0810151615a0960c085018215159052565b5060e081810151908401526101008082015190840152610120908101519083015260208101516101408301526040810151610160830152606081015161018083015260808101516101a083015260a001516101c090910152565b6101e081016147b182846159b5565b60008251615a84818460208701615102565b9190910192915050565b8183823760009101908152919050565b600060208284031215615ab057600080fd5b815167ffffffffffffffff80821115615ac857600080fd5b818401915084601f830112615adc57600080fd5b815181811115615aee57615aee61516c565b604051601f8201601f19908116603f01168101908382118183101715615b1657615b1661516c565b81604052828152876020848701011115615b2f57600080fd5b615b40836020830160208801615102565b979650505050505050565b6020808252600890820152674f564552464c4f5760c01b604082015260600190565b6020808252600a908201526950524943455f5a45524f60b01b604082015260600190565b6001600160a01b03929092168252602082015260400190565b6020808252601290820152714d41585f50454e44494e475f4f524445525360701b604082015260600190565b602080825260089082015267057524f4e475f54560c41b604082015260600190565b60208082526008908201526715d493d391d7d4d360c21b604082015260600190565b81516001600160a01b031681526101a081016020830151602083015260408301516040830152606083015160608301526080830151608083015260a0830151615c6760a084018215159052565b5060c0838101519083015260e08084015190830152610100808401519083015261012080840151908301526101408084015190830152610160808401519083015261018092830151929091019190915290565b6001600160a01b038516815260208101849052604081018390526080810160038310615ce857615ce8615405565b82606083015295945050505050565b60028110615d0757615d07615405565b9052565b6001600160a01b03878116825286166020820152604081018590526060810184905260c08101615d3e6080830185615cf7565b8260a0830152979650505050505050565b84815260808101615d5f85615683565b84602083015283604083015282606083015295945050505050565b6102208101615d8982866159b5565b836101e0830152821515610200830152949350505050565b6001600160a01b0394909416845260208401929092526040830152606082015260800190565b600060c08201905060018060a01b0380861683528085511660208401525060208401516040830152604084015160608301526060840151615e0b6080840182615cf7565b508260a0830152949350505050565b6001600160a01b0385168152602081018490526040810183905260808101615e456060830184615cf7565b95945050505050565b805163ffffffff8116811461507857600080fd5b600060808284031215615e7457600080fd5b6040516080810181811067ffffffffffffffff82111715615e9757615e9761516c565b604052615ea383615e4e565b8152615eb160208401615e4e565b6020820152615ec260408401615e4e565b6040820152615ed360608401615e4e565b60608201529392505050565b84815260808101615eef85615683565b84602083015283604083015263ffffffff831660608301529594505050505056fea2646970667358221220cac1d2efd26dd084f2d4f5400910d0a9edfd805fdf6da8bc52e250805ec4f57664736f6c63430008110033",
  "libraries": {
    "TradeUtils": "0x956b22f49E41119228A7BE9E047fc2568473EC79",
    "PackingUtils": "0x64327f4740265D7813fB30dFA902F54567e98Ef6"
  },
  "devdoc": {
    "kind": "dev",
    "methods": {},
    "version": 1
  },
  "userdoc": {
    "kind": "user",
    "methods": {},
    "version": 1
  },
  "storageLayout": {
    "storage": [
      {
        "astId": 5181,
        "contract": "contracts/contracts6_4/GNSTradingV6_4.sol:GNSTradingV6_4",
        "label": "delegations",
        "offset": 0,
        "slot": "0",
        "type": "t_mapping(t_address,t_address)"
      },
      {
        "astId": 5183,
        "contract": "contracts/contracts6_4/GNSTradingV6_4.sol:GNSTradingV6_4",
        "label": "senderOverride",
        "offset": 0,
        "slot": "1",
        "type": "t_address"
      },
      {
        "astId": 14227,
        "contract": "contracts/contracts6_4/GNSTradingV6_4.sol:GNSTradingV6_4",
        "label": "maxPosWETH",
        "offset": 0,
        "slot": "2",
        "type": "t_uint256"
      },
      {
        "astId": 14229,
        "contract": "contracts/contracts6_4/GNSTradingV6_4.sol:GNSTradingV6_4",
        "label": "marketOrdersTimeout",
        "offset": 0,
        "slot": "3",
        "type": "t_uint256"
      },
      {
        "astId": 14231,
        "contract": "contracts/contracts6_4/GNSTradingV6_4.sol:GNSTradingV6_4",
        "label": "isPaused",
        "offset": 0,
        "slot": "4",
        "type": "t_bool"
      },
      {
        "astId": 14233,
        "contract": "contracts/contracts6_4/GNSTradingV6_4.sol:GNSTradingV6_4",
        "label": "isDone",
        "offset": 1,
        "slot": "4",
        "type": "t_bool"
      }
    ],
    "types": {
      "t_address": {
        "encoding": "inplace",
        "label": "address",
        "numberOfBytes": "20"
      },
      "t_bool": {
        "encoding": "inplace",
        "label": "bool",
        "numberOfBytes": "1"
      },
      "t_mapping(t_address,t_address)": {
        "encoding": "mapping",
        "key": "t_address",
        "label": "mapping(address => address)",
        "numberOfBytes": "32",
        "value": "t_address"
      },
      "t_uint256": {
        "encoding": "inplace",
        "label": "uint256",
        "numberOfBytes": "32"
      }
    }
  }
}