{
  "address": "0xcc0570C2DcDD5Bc0399b44A489ca2C63E4142BF8",
  "abi": [
    {
      "inputs": [
        {
          "internalType": "contract StorageInterface",
          "name": "_storageT",
          "type": "address"
        },
        {
          "internalType": "contract NftRewardsInterfaceV6_3_1",
          "name": "_nftRewards",
          "type": "address"
        },
        {
          "internalType": "contract PairInfosInterface",
          "name": "_pairInfos",
          "type": "address"
        },
        {
          "internalType": "contract ReferralsInterface",
          "name": "_referrals",
          "type": "address"
        },
        {
          "internalType": "contract BorrowingFeesInterface",
          "name": "_borrowingFees",
          "type": "address"
        },
        {
          "internalType": "contract CallbacksInterface",
          "name": "_callbacks",
          "type": "address"
        },
        {
          "internalType": "uint256",
          "name": "_maxPosWETH",
          "type": "uint256"
        },
        {
          "internalType": "uint256",
          "name": "_marketOrdersTimeout",
          "type": "uint256"
        }
      ],
      "stateMutability": "nonpayable",
      "type": "constructor"
    },
    {
      "anonymous": false,
      "inputs": [
        {
          "indexed": true,
          "internalType": "uint256",
          "name": "orderId",
          "type": "uint256"
        },
        {
          "components": [
            {
              "components": [
                {
                  "internalType": "address",
                  "name": "trader",
                  "type": "address"
                },
                {
                  "internalType": "uint256",
                  "name": "pairIndex",
                  "type": "uint256"
                },
                {
                  "internalType": "uint256",
                  "name": "index",
                  "type": "uint256"
                },
                {
                  "internalType": "uint256",
                  "name": "initialPosToken",
                  "type": "uint256"
                },
                {
                  "internalType": "uint256",
                  "name": "positionSizeWETH",
                  "type": "uint256"
                },
                {
                  "internalType": "uint256",
                  "name": "openPrice",
                  "type": "uint256"
                },
                {
                  "internalType": "bool",
                  "name": "buy",
                  "type": "bool"
                },
                {
                  "internalType": "uint256",
                  "name": "leverage",
                  "type": "uint256"
                },
                {
                  "internalType": "uint256",
                  "name": "tp",
                  "type": "uint256"
                },
                {
                  "internalType": "uint256",
                  "name": "sl",
                  "type": "uint256"
                }
              ],
              "internalType": "struct StorageInterface.Trade",
              "name": "trade",
              "type": "tuple"
            },
            {
              "internalType": "uint256",
              "name": "block",
              "type": "uint256"
            },
            {
              "internalType": "uint256",
              "name": "wantedPrice",
              "type": "uint256"
            },
            {
              "internalType": "uint256",
              "name": "slippageP",
              "type": "uint256"
            },
            {
              "internalType": "uint256",
              "name": "spreadReductionP",
              "type": "uint256"
            },
            {
              "internalType": "uint256",
              "name": "tokenId",
              "type": "uint256"
            }
          ],
          "indexed": false,
          "internalType": "struct StorageInterface.PendingMarketOrder",
          "name": "order",
          "type": "tuple"
        }
      ],
      "name": "ChainlinkCallbackTimeout",
      "type": "event"
    },
    {
      "anonymous": false,
      "inputs": [
        {
          "indexed": true,
          "internalType": "address",
          "name": "trader",
          "type": "address"
        },
        {
          "indexed": true,
          "internalType": "uint256",
          "name": "pairIndex",
          "type": "uint256"
        },
        {
          "indexed": false,
          "internalType": "uint256",
          "name": "index",
          "type": "uint256"
        }
      ],
      "name": "CouldNotCloseTrade",
      "type": "event"
    },
    {
      "anonymous": false,
      "inputs": [
        {
          "indexed": false,
          "internalType": "bool",
          "name": "done",
          "type": "bool"
        }
      ],
      "name": "Done",
      "type": "event"
    },
    {
      "anonymous": false,
      "inputs": [
        {
          "indexed": true,
          "internalType": "uint256",
          "name": "orderId",
          "type": "uint256"
        },
        {
          "indexed": true,
          "internalType": "address",
          "name": "trader",
          "type": "address"
        },
        {
          "indexed": true,
          "internalType": "uint256",
          "name": "pairIndex",
          "type": "uint256"
        },
        {
          "indexed": false,
          "internalType": "bool",
          "name": "open",
          "type": "bool"
        }
      ],
      "name": "MarketOrderInitiated",
      "type": "event"
    },
    {
      "anonymous": false,
      "inputs": [
        {
          "indexed": false,
          "internalType": "uint256",
          "name": "orderId",
          "type": "uint256"
        },
        {
          "indexed": true,
          "internalType": "address",
          "name": "nftHolder",
          "type": "address"
        },
        {
          "indexed": true,
          "internalType": "address",
          "name": "trader",
          "type": "address"
        },
        {
          "indexed": true,
          "internalType": "uint256",
          "name": "pairIndex",
          "type": "uint256"
        }
      ],
      "name": "NftOrderInitiated",
      "type": "event"
    },
    {
      "anonymous": false,
      "inputs": [
        {
          "indexed": true,
          "internalType": "address",
          "name": "nftHolder",
          "type": "address"
        },
        {
          "indexed": true,
          "internalType": "address",
          "name": "trader",
          "type": "address"
        },
        {
          "indexed": true,
          "internalType": "uint256",
          "name": "pairIndex",
          "type": "uint256"
        }
      ],
      "name": "NftOrderSameBlock",
      "type": "event"
    },
    {
      "anonymous": false,
      "inputs": [
        {
          "indexed": false,
          "internalType": "string",
          "name": "name",
          "type": "string"
        },
        {
          "indexed": false,
          "internalType": "uint256",
          "name": "value",
          "type": "uint256"
        }
      ],
      "name": "NumberUpdated",
      "type": "event"
    },
    {
      "anonymous": false,
      "inputs": [
        {
          "indexed": true,
          "internalType": "address",
          "name": "trader",
          "type": "address"
        },
        {
          "indexed": true,
          "internalType": "uint256",
          "name": "pairIndex",
          "type": "uint256"
        },
        {
          "indexed": false,
          "internalType": "uint256",
          "name": "index",
          "type": "uint256"
        }
      ],
      "name": "OpenLimitCanceled",
      "type": "event"
    },
    {
      "anonymous": false,
      "inputs": [
        {
          "indexed": true,
          "internalType": "address",
          "name": "trader",
          "type": "address"
        },
        {
          "indexed": true,
          "internalType": "uint256",
          "name": "pairIndex",
          "type": "uint256"
        },
        {
          "indexed": false,
          "internalType": "uint256",
          "name": "index",
          "type": "uint256"
        }
      ],
      "name": "OpenLimitPlaced",
      "type": "event"
    },
    {
      "anonymous": false,
      "inputs": [
        {
          "indexed": true,
          "internalType": "address",
          "name": "trader",
          "type": "address"
        },
        {
          "indexed": true,
          "internalType": "uint256",
          "name": "pairIndex",
          "type": "uint256"
        },
        {
          "indexed": false,
          "internalType": "uint256",
          "name": "index",
          "type": "uint256"
        },
        {
          "indexed": false,
          "internalType": "uint256",
          "name": "newPrice",
          "type": "uint256"
        },
        {
          "indexed": false,
          "internalType": "uint256",
          "name": "newTp",
          "type": "uint256"
        },
        {
          "indexed": false,
          "internalType": "uint256",
          "name": "newSl",
          "type": "uint256"
        },
        {
          "indexed": false,
          "internalType": "uint256",
          "name": "maxSlippageP",
          "type": "uint256"
        }
      ],
      "name": "OpenLimitUpdated",
      "type": "event"
    },
    {
      "anonymous": false,
      "inputs": [
        {
          "indexed": false,
          "internalType": "bool",
          "name": "paused",
          "type": "bool"
        }
      ],
      "name": "Paused",
      "type": "event"
    },
    {
      "anonymous": false,
      "inputs": [
        {
          "indexed": true,
          "internalType": "address",
          "name": "trader",
          "type": "address"
        },
        {
          "indexed": true,
          "internalType": "uint256",
          "name": "pairIndex",
          "type": "uint256"
        },
        {
          "indexed": false,
          "internalType": "uint256",
          "name": "index",
          "type": "uint256"
        },
        {
          "indexed": false,
          "internalType": "uint256",
          "name": "newSl",
          "type": "uint256"
        }
      ],
      "name": "SlUpdated",
      "type": "event"
    },
    {
      "anonymous": false,
      "inputs": [
        {
          "indexed": true,
          "internalType": "address",
          "name": "trader",
          "type": "address"
        },
        {
          "indexed": true,
          "internalType": "uint256",
          "name": "pairIndex",
          "type": "uint256"
        },
        {
          "indexed": false,
          "internalType": "uint256",
          "name": "index",
          "type": "uint256"
        },
        {
          "indexed": false,
          "internalType": "uint256",
          "name": "newTp",
          "type": "uint256"
        }
      ],
      "name": "TpUpdated",
      "type": "event"
    },
    {
      "inputs": [],
      "name": "_msgSender",
      "outputs": [
        {
          "internalType": "address",
          "name": "",
          "type": "address"
        }
      ],
      "stateMutability": "view",
      "type": "function"
    },
    {
      "inputs": [],
      "name": "borrowingFees",
      "outputs": [
        {
          "internalType": "contract BorrowingFeesInterface",
          "name": "",
          "type": "address"
        }
      ],
      "stateMutability": "view",
      "type": "function"
    },
    {
      "inputs": [],
      "name": "callbacks",
      "outputs": [
        {
          "internalType": "contract CallbacksInterface",
          "name": "",
          "type": "address"
        }
      ],
      "stateMutability": "view",
      "type": "function"
    },
    {
      "inputs": [
        {
          "internalType": "uint256",
          "name": "pairIndex",
          "type": "uint256"
        },
        {
          "internalType": "uint256",
          "name": "index",
          "type": "uint256"
        }
      ],
      "name": "closeTradeMarket",
      "outputs": [],
      "stateMutability": "nonpayable",
      "type": "function"
    },
    {
      "inputs": [
        {
          "internalType": "address",
          "name": "trader",
          "type": "address"
        },
        {
          "internalType": "bytes",
          "name": "call_data",
          "type": "bytes"
        }
      ],
      "name": "delegatedAction",
      "outputs": [
        {
          "internalType": "bytes",
          "name": "",
          "type": "bytes"
        }
      ],
      "stateMutability": "nonpayable",
      "type": "function"
    },
    {
      "inputs": [
        {
          "internalType": "address",
          "name": "",
          "type": "address"
        }
      ],
      "name": "delegations",
      "outputs": [
        {
          "internalType": "address",
          "name": "",
          "type": "address"
        }
      ],
      "stateMutability": "view",
      "type": "function"
    },
    {
      "inputs": [],
      "name": "done",
      "outputs": [],
      "stateMutability": "nonpayable",
      "type": "function"
    },
    {
      "inputs": [
        {
          "internalType": "uint256",
          "name": "_orderType",
          "type": "uint256"
        },
        {
          "internalType": "address",
          "name": "trader",
          "type": "address"
        },
        {
          "internalType": "uint256",
          "name": "pairIndex",
          "type": "uint256"
        },
        {
          "internalType": "uint256",
          "name": "index",
          "type": "uint256"
        },
        {
          "internalType": "uint256",
          "name": "nftId",
          "type": "uint256"
        },
        {
          "internalType": "uint256",
          "name": "nftType",
          "type": "uint256"
        }
      ],
      "name": "executeNftOrder",
      "outputs": [],
      "stateMutability": "nonpayable",
      "type": "function"
    },
    {
      "inputs": [],
      "name": "isDone",
      "outputs": [
        {
          "internalType": "bool",
          "name": "",
          "type": "bool"
        }
      ],
      "stateMutability": "view",
      "type": "function"
    },
    {
      "inputs": [],
      "name": "isPaused",
      "outputs": [
        {
          "internalType": "bool",
          "name": "",
          "type": "bool"
        }
      ],
      "stateMutability": "view",
      "type": "function"
    },
    {
      "inputs": [
        {
          "internalType": "address",
          "name": "trader",
          "type": "address"
        },
        {
          "internalType": "uint256",
          "name": "pairIndex",
          "type": "uint256"
        },
        {
          "internalType": "uint256",
          "name": "index",
          "type": "uint256"
        }
      ],
      "name": "isTradeLiquidatable",
      "outputs": [
        {
          "internalType": "bool",
          "name": "",
          "type": "bool"
        }
      ],
      "stateMutability": "view",
      "type": "function"
    },
    {
      "inputs": [
        {
          "internalType": "address",
          "name": "trader",
          "type": "address"
        },
        {
          "internalType": "uint256",
          "name": "pairIndex",
          "type": "uint256"
        },
        {
          "internalType": "uint256",
          "name": "index",
          "type": "uint256"
        }
      ],
      "name": "isTradeParLiquidatable",
      "outputs": [
        {
          "internalType": "bool",
          "name": "",
          "type": "bool"
        }
      ],
      "stateMutability": "view",
      "type": "function"
    },
    {
      "inputs": [],
      "name": "marketOrdersTimeout",
      "outputs": [
        {
          "internalType": "uint256",
          "name": "",
          "type": "uint256"
        }
      ],
      "stateMutability": "view",
      "type": "function"
    },
    {
      "inputs": [],
      "name": "maxPosWETH",
      "outputs": [
        {
          "internalType": "uint256",
          "name": "",
          "type": "uint256"
        }
      ],
      "stateMutability": "view",
      "type": "function"
    },
    {
      "inputs": [],
      "name": "minLeveragedPosWETH",
      "outputs": [
        {
          "internalType": "int256",
          "name": "",
          "type": "int256"
        }
      ],
      "stateMutability": "view",
      "type": "function"
    },
    {
      "inputs": [],
      "name": "nftRewards",
      "outputs": [
        {
          "internalType": "contract NftRewardsInterfaceV6_3_1",
          "name": "",
          "type": "address"
        }
      ],
      "stateMutability": "view",
      "type": "function"
    },
    {
      "inputs": [
        {
          "components": [
            {
              "internalType": "address",
              "name": "trader",
              "type": "address"
            },
            {
              "internalType": "uint256",
              "name": "pairIndex",
              "type": "uint256"
            },
            {
              "internalType": "uint256",
              "name": "index",
              "type": "uint256"
            },
            {
              "internalType": "uint256",
              "name": "initialPosToken",
              "type": "uint256"
            },
            {
              "internalType": "uint256",
              "name": "positionSizeWETH",
              "type": "uint256"
            },
            {
              "internalType": "uint256",
              "name": "openPrice",
              "type": "uint256"
            },
            {
              "internalType": "bool",
              "name": "buy",
              "type": "bool"
            },
            {
              "internalType": "uint256",
              "name": "leverage",
              "type": "uint256"
            },
            {
              "internalType": "uint256",
              "name": "tp",
              "type": "uint256"
            },
            {
              "internalType": "uint256",
              "name": "sl",
              "type": "uint256"
            }
          ],
          "internalType": "struct StorageInterface.Trade",
          "name": "t",
          "type": "tuple"
        },
        {
          "internalType": "enum NftRewardsInterfaceV6_3_1.OpenLimitOrderType",
          "name": "orderType",
          "type": "uint8"
        },
        {
          "internalType": "uint256",
          "name": "spreadReductionId",
          "type": "uint256"
        },
        {
          "internalType": "uint256",
          "name": "slippageP",
          "type": "uint256"
        }
      ],
      "name": "openTrade",
      "outputs": [],
      "stateMutability": "nonpayable",
      "type": "function"
    },
    {
      "inputs": [],
      "name": "pairInfos",
      "outputs": [
        {
          "internalType": "contract PairInfosInterface",
          "name": "",
          "type": "address"
        }
      ],
      "stateMutability": "view",
      "type": "function"
    },
    {
      "inputs": [],
      "name": "pause",
      "outputs": [],
      "stateMutability": "nonpayable",
      "type": "function"
    },
    {
      "inputs": [],
      "name": "referrals",
      "outputs": [
        {
          "internalType": "contract ReferralsInterface",
          "name": "",
          "type": "address"
        }
      ],
      "stateMutability": "view",
      "type": "function"
    },
    {
      "inputs": [],
      "name": "removeDelegate",
      "outputs": [],
      "stateMutability": "nonpayable",
      "type": "function"
    },
    {
      "inputs": [
        {
          "internalType": "address",
          "name": "delegate",
          "type": "address"
        }
      ],
      "name": "setDelegate",
      "outputs": [],
      "stateMutability": "nonpayable",
      "type": "function"
    },
    {
      "inputs": [
        {
          "internalType": "uint256",
          "name": "value",
          "type": "uint256"
        }
      ],
      "name": "setMarketOrdersTimeout",
      "outputs": [],
      "stateMutability": "nonpayable",
      "type": "function"
    },
    {
      "inputs": [
        {
          "internalType": "uint256",
          "name": "value",
          "type": "uint256"
        }
      ],
      "name": "setMaxPosWETH",
      "outputs": [],
      "stateMutability": "nonpayable",
      "type": "function"
    },
    {
      "inputs": [],
      "name": "storageT",
      "outputs": [
        {
          "internalType": "contract StorageInterface",
          "name": "",
          "type": "address"
        }
      ],
      "stateMutability": "view",
      "type": "function"
    },
    {
      "inputs": [
        {
          "internalType": "uint256",
          "name": "pairIndex",
          "type": "uint256"
        },
        {
          "internalType": "uint256",
          "name": "index",
          "type": "uint256"
        },
        {
          "internalType": "uint256",
          "name": "newSl",
          "type": "uint256"
        }
      ],
      "name": "updateSl",
      "outputs": [],
      "stateMutability": "nonpayable",
      "type": "function"
    },
    {
      "inputs": [
        {
          "internalType": "uint256",
          "name": "pairIndex",
          "type": "uint256"
        },
        {
          "internalType": "uint256",
          "name": "index",
          "type": "uint256"
        },
        {
          "internalType": "uint256",
          "name": "newTp",
          "type": "uint256"
        }
      ],
      "name": "updateTp",
      "outputs": [],
      "stateMutability": "nonpayable",
      "type": "function"
    }
  ],
  "transactionHash": "0xb4fa5679fda8e3f448f2348f0a86a68e6bf3d80d3f671af075155e559150dbd9",
  "args": [
    "0xbdf8f302BD6F26ca167B57c48B7E8cf6A7651b8f",
    "0x4D574995e60e022324b2cacda632557804A0790f",
    "0xD4517c20d60d1FC0192FCe9A21853B93ef19FdE5",
    "0x722355744b6a6049A2C1295F58Bb9EE347e4d746",
    "0xdAb4456F8eF0Acbac9F2FDB396EC517088407542",
    "0xc62654665998B79D3CAC99d84542c2110991Ead2",
    "1500000000000000000000",
    2
  ],
  "numDeployments": 1,
  "solcInputHash": "0f660eaf02b319e800391db4de42c79c",
  "bytecode": "0x610140604052678ac7230489e800006004553480156200001e57600080fd5b506040516200423438038062004234833981016040819052620000419162000166565b6001600160a01b038816158015906200006257506001600160a01b03871615155b80156200007757506001600160a01b03861615155b80156200008c57506001600160a01b03851615155b8015620000a157506001600160a01b03841615155b8015620000b657506001600160a01b03831615155b8015620000c35750600082115b8015620000d05750600081115b620001105760405162461bcd60e51b815260206004820152600c60248201526b57524f4e475f504152414d5360a01b604482015260640160405180910390fd5b6001600160a01b0397881660805295871660a05293861660c05291851660e05284166101005260029190915560039190915516610120526200020c565b6001600160a01b03811681146200016357600080fd5b50565b600080600080600080600080610100898b0312156200018457600080fd5b885162000191816200014d565b60208a0151909850620001a4816200014d565b60408a0151909750620001b7816200014d565b60608a0151909650620001ca816200014d565b60808a0151909550620001dd816200014d565b60a08a0151909450620001f0816200014d565b60c08a015160e0909a0151989b979a5095989497939692505050565b60805160a05160c05160e0516101005161012051613ec76200036d6000396000818161018201526127a901526000818161026a015281816112cf01528181612500015281816126530152612c79015260006103c40152600081816101ce01528181610d250152610dea015260006102910152600081816101f5015281816105b4015281816106aa01528181610746015281816107d80152818161086a01528181610939015281816109d801528181610ee30152818161100701528181611239015281816113ba01528181611615015281816116ab0152818161173e015281816117dd015281816118d601528181611a0801528181611cc901528181611e3c01528181611eab0152818161208701528181612154015281816121c30152818161244201528181612a3601528181612aa101528181612be301528181612dae01528181612e0c01528181612f2b01528181613127015261321e0152613ec76000f3fe608060405234801561001057600080fd5b50600436106101785760003560e01c80639a10cc32116100d9578063be73fb9911610087578063be73fb9914610370578063bffe348614610383578063ca5eb5e1146103ac578063d3dc7539146103bf578063d8defd15146103e6578063fa7fffba146103f9578063ff22dcac1461040c57600080fd5b80639a10cc32146103035780639a54adba14610323578063a2a3c0cb1461032c578063ae8421e11461033f578063b187bd2614610347578063b1dfd53014610354578063b81bfa051461035d57600080fd5b8063410c0b7c11610136578063410c0b7c1461024e578063531cc965146102655780635ad9f9931461028c57806368cd5088146102b35780638456cb59146102c6578063870f91d9146102ce5780638f062227146102f157600080fd5b8062b127831461017d578063119df25f146101c15780631346b0ff146101c957806316fff074146101f05780632c1e4e551461021757806336fb8b151461022c575b600080fd5b6101a47f000000000000000000000000000000000000000000000000000000000000000081565b6040516001600160a01b0390911681526020015b60405180910390f35b6101a461041f565b6101a47f000000000000000000000000000000000000000000000000000000000000000081565b6101a47f000000000000000000000000000000000000000000000000000000000000000081565b61022a61022536600461338a565b610447565b005b61022a33600090815260208190526040902080546001600160a01b0319169055565b61025760035481565b6040519081526020016101b8565b6101a47f000000000000000000000000000000000000000000000000000000000000000081565b6101a47f000000000000000000000000000000000000000000000000000000000000000081565b61022a6102c1366004613433565b6104d8565b61022a6111de565b6102e16102dc3660046134fd565b611234565b60405190151581526020016101b8565b6005546102e190610100900460ff1681565b610316610311366004613532565b6114ba565b6040516101b89190613613565b61025760045481565b61022a61033a366004613626565b6115f5565b61022a611bbf565b6005546102e19060ff1681565b61025760025481565b61022a61036b36600461338a565b611c1f565b61022a61037e366004613648565b611ca9565b6101a4610391366004613674565b6000602081905290815260409020546001600160a01b031681565b61022a6103ba366004613674565b611ffb565b6101a47f000000000000000000000000000000000000000000000000000000000000000081565b61022a6103f4366004613648565b612067565b61022a610407366004613691565b612312565b6102e161041a3660046134fd565b612bde565b6001546000906001600160a01b031661043757503390565b506001546001600160a01b031690565b61044f612e0a565b600081116104785760405162461bcd60e51b815260040161046f906136e1565b60405180910390fd5b600281905560408051818152600a91810191909152690dac2f0a0dee6ae8aa8960b31b6060820152602081018290527f8cf3e35f6221b16e1670a3413180c9484bf5aa71787905909fa82a6a2662e9ab906080015b60405180910390a150565b6104e0612ed9565b6104e8612ee5565b60055460ff16156105245760405162461bcd60e51b815260206004820152600660248201526514105554d15160d21b604482015260640161046f565b600019818560a001516105379190613718565b1061056f5760405162461bcd60e51b81526020600482015260086024820152674f564552464c4f5760c01b604482015260640161046f565b60008460a00151116105b05760405162461bcd60e51b815260206004820152600a60248201526950524943455f5a45524f60b01b604482015260640161046f565b60007f00000000000000000000000000000000000000000000000000000000000000006001600160a01b0316633078fff56040518163ffffffff1660e01b8152600401602060405180830381865afa158015610610573d6000803e3d6000fd5b505050506040513d601f19601f820116820180604052508101906106349190613737565b90506000816001600160a01b03166335b03c176040518163ffffffff1660e01b8152600401602060405180830381865afa158015610676573d6000803e3d6000fd5b505050506040513d601f19601f8201168201806040525081019061069a9190613737565b905060006106a661041f565b90507f00000000000000000000000000000000000000000000000000000000000000006001600160a01b031663f65d9dbe6040518163ffffffff1660e01b8152600401602060405180830381865afa158015610706573d6000803e3d6000fd5b505050506040513d601f19601f8201168201806040525081019061072a9190613754565b6020880151604051634bf3ccad60e11b81526001600160a01b037f000000000000000000000000000000000000000000000000000000000000000016916397e7995a9161077b91869160040161376d565b602060405180830381865afa158015610798573d6000803e3d6000fd5b505050506040513d601f19601f820116820180604052508101906107bc9190613754565b6020890151604051639c8912f160e01b81526001600160a01b037f00000000000000000000000000000000000000000000000000000000000000001691639c8912f19161080d91879160040161376d565b602060405180830381865afa15801561082a573d6000803e3d6000fd5b505050506040513d601f19601f8201168201806040525081019061084e9190613754565b60208a01516040516307218dad60e21b81526001600160a01b037f00000000000000000000000000000000000000000000000000000000000000001691631c8636b49161089f91889160040161376d565b602060405180830381865afa1580156108bc573d6000803e3d6000fd5b505050506040513d601f19601f820116820180604052508101906108e09190613754565b6108ea9190613786565b6108f49190613786565b106109375760405162461bcd60e51b815260206004820152601360248201527226a0ac2faa2920a222a9afa822a92fa820a4a960691b604482015260640161046f565b7f00000000000000000000000000000000000000000000000000000000000000006001600160a01b0316638049fde76040518163ffffffff1660e01b8152600401602060405180830381865afa158015610995573d6000803e3d6000fd5b505050506040513d601f19601f820116820180604052508101906109b99190613754565b60405163f7b3c6fd60e01b81526001600160a01b0383811660048301527f0000000000000000000000000000000000000000000000000000000000000000169063f7b3c6fd90602401602060405180830381865afa158015610a1f573d6000803e3d6000fd5b505050506040513d601f19601f82011682018060405250810190610a439190613754565b10610a605760405162461bcd60e51b815260040161046f9061379e565b60025487608001511115610aa65760405162461bcd60e51b815260206004820152600d60248201526c41424f56455f4d41585f504f5360981b604482015260640161046f565b602087015160405163601e3b6b60e11b815260048101919091526001600160a01b0383169063c03c76d690602401602060405180830381865afa158015610af1573d6000803e3d6000fd5b505050506040513d601f19601f82011682018060405250810190610b159190613754565b8760e001518860800151610b299190613718565b1015610b675760405162461bcd60e51b815260206004820152600d60248201526c42454c4f575f4d494e5f504f5360981b604482015260640161046f565b60008760e00151118015610bed5750602087015160405163059a992d60e41b815260048101919091526001600160a01b038316906359a992d090602401602060405180830381865afa158015610bc1573d6000803e3d6000fd5b505050506040513d601f19601f82011682018060405250810190610be59190613754565b8760e0015110155b8015610c0a5750610c02828860200151612f26565b8760e0015111155b610c4b5760405162461bcd60e51b815260206004820152601260248201527113115591549051d157d25390d3d4949150d560721b604482015260640161046f565b6101008701511580610c7f57508660c00151610c72578660a0015187610100015110610c7f565b8660a00151876101000151115b610cb65760405162461bcd60e51b8152602060048201526008602482015267057524f4e475f54560c41b604482015260640161046f565b6101208701511580610cea57508660c00151610cdd578660a0015187610120015111610cea565b8660a00151876101200151105b610d215760405162461bcd60e51b815260206004820152600860248201526715d493d391d7d4d360c21b604482015260640161046f565b60007f00000000000000000000000000000000000000000000000000000000000000006001600160a01b0316637ea95f3260008a602001518b60c001518c60e001518d60800151610d729190613718565b6040516001600160e01b031960e087901b168152600481019490945260248401929092521515604483015260648201526084016040805180830381865afa158015610dc1573d6000803e3d6000fd5b505050506040513d601f19601f82011682018060405250810190610de591906137ca565b5090507f00000000000000000000000000000000000000000000000000000000000000006001600160a01b03166380f6cfc26040518163ffffffff1660e01b8152600401602060405180830381865afa158015610e46573d6000803e3d6000fd5b505050506040513d601f19601f82011682018060405250810190610e6a9190613754565b60e0890151610e799083613718565b1115610ebf5760405162461bcd60e51b81526020600482015260156024820152740a0a492868abe929aa08286a8bea89e9ebe90928e9605b1b604482015260640161046f565b6080880151604051638a238ae560e01b81526001600160a01b0384811660048301527f000000000000000000000000000000000000000000000000000000000000000016602482018190526044820192909252638a238ae590606401600060405180830381600087803b158015610f3557600080fd5b505af1158015610f49573d6000803e3d6000fd5b5060009250610f56915050565b876002811115610f6857610f686137ee565b036111d4576000846001600160a01b0316636938c05d8a6020015160008c60e001518d60800151610f999190613718565b610fa161309a565b6040518563ffffffff1660e01b8152600401610fc09493929190613818565b6020604051808303816000875af1158015610fdf573d6000803e3d6000fd5b505050506040513d601f19601f820116820180604052508101906110039190613754565b90507f00000000000000000000000000000000000000000000000000000000000000006001600160a01b0316633078fff56040518163ffffffff1660e01b8152600401602060405180830381865afa158015611063573d6000803e3d6000fd5b505050506040513d601f19601f820116820180604052508101906110879190613737565b6001600160a01b0316638f93b660826040518060c00160405280604051806101400160405280896001600160a01b031681526020018f60200151815260200160008152602001600081526020018f608001518152602001600081526020018f60c00151151581526020018f60e0015181526020018f610100015181526020018f61012001518152508152602001600081526020018d60a0015181526020018a81526020016000815260200160008152506040518363ffffffff1660e01b815260040161115492919061383e565b600060405180830381600087803b15801561116e57600080fd5b505af1158015611182573d6000803e3d6000fd5b505050508860200151836001600160a01b0316827f3e544118c04e3bb18b669475695cd270ba0e41fb13177483f01c14222de62a8660016040516111ca911515815260200190565b60405180910390a4505b5050505050505050565b6111e6612e0a565b6005805460ff8082161560ff1990921682179092556040519116151581527f0e2fb031ee032dc02d8011dc50b816eb450cf856abd8261680dac74f72165bd2906020015b60405180910390a1565b6000807f00000000000000000000000000000000000000000000000000000000000000006001600160a01b0316632a0a1cb08686866040518463ffffffff1660e01b815260040161128793929190613901565b61014060405180830381865afa1580156112a5573d6000803e3d6000fd5b505050506040513d601f19601f820116820180604052508101906112c99190613938565b905060007f00000000000000000000000000000000000000000000000000000000000000006001600160a01b03166364d372c66040518060e0016040528085600001516001600160a01b0316815260200185602001518152602001856040015181526020018560a0015181526020018560c0015115158152602001856080015181526020018560e001518152506040518263ffffffff1660e01b815260040161137291906139ca565b602060405180830381865afa15801561138f573d6000803e3d6000fd5b505050506040513d601f19601f820116820180604052508101906113b39190613754565b90506000807f00000000000000000000000000000000000000000000000000000000000000006001600160a01b0316637dc0d1d06040518163ffffffff1660e01b8152600401602060405180830381865afa158015611416573d6000803e3d6000fd5b505050506040513d601f19601f8201168201806040525081019061143a9190613737565b6001600160a01b031663e7572230886040518263ffffffff1660e01b815260040161146791815260200190565b6040805180830381865afa158015611483573d6000803e3d6000fd5b505050506040513d601f19601f820116820180604052508101906114a791906137ca565b50929092111593505050505b9392505050565b6001600160a01b0383811660009081526020819052604090205460609116331461151e5760405162461bcd60e51b81526020600482015260156024820152741111531151d0551157d393d517d054141493d59151605a1b604482015260640161046f565b600180546001600160a01b0319166001600160a01b038616179055604051600090819030906115509087908790613a1e565b600060405180830381855af49150503d806000811461158b576040519150601f19603f3d011682016040523d82523d6000602084013e611590565b606091505b5091509150816115dc576044815110156115a957600080fd5b600481019050808060200190518101906115c39190613a2e565b60405162461bcd60e51b815260040161046f9190613613565b600180546001600160a01b031916905595945050505050565b6115fd612ed9565b611605612ee5565b600061160f61041f565b905060007f00000000000000000000000000000000000000000000000000000000000000006001600160a01b0316632a0a1cb08386866040518463ffffffff1660e01b815260040161166393929190613901565b61014060405180830381865afa158015611681573d6000803e3d6000fd5b505050506040513d601f19601f820116820180604052508101906116a59190613938565b905060007f00000000000000000000000000000000000000000000000000000000000000006001600160a01b031663ee51f6368487876040518463ffffffff1660e01b81526004016116f993929190613901565b60c060405180830381865afa158015611716573d6000803e3d6000fd5b505050506040513d601f19601f8201168201806040525081019061173a9190613adb565b90507f00000000000000000000000000000000000000000000000000000000000000006001600160a01b0316638049fde76040518163ffffffff1660e01b8152600401602060405180830381865afa15801561179a573d6000803e3d6000fd5b505050506040513d601f19601f820116820180604052508101906117be9190613754565b60405163f7b3c6fd60e01b81526001600160a01b0385811660048301527f0000000000000000000000000000000000000000000000000000000000000000169063f7b3c6fd90602401602060405180830381865afa158015611824573d6000803e3d6000fd5b505050506040513d601f19601f820116820180604052508101906118489190613754565b106118655760405162461bcd60e51b815260040161046f9061379e565b8060a00151156118ae5760405162461bcd60e51b81526020600482015260146024820152731053149150511657d091525391d7d0d313d4d15160621b604482015260640161046f565b60008260e00151116118d25760405162461bcd60e51b815260040161046f90613b5b565b60007f00000000000000000000000000000000000000000000000000000000000000006001600160a01b0316633078fff56040518163ffffffff1660e01b8152600401602060405180830381865afa158015611932573d6000803e3d6000fd5b505050506040513d601f19601f820116820180604052508101906119569190613737565b6001600160a01b0316636938c05d8760016402540be4008760e00151876020015189606001516119869190613718565b6119909190613718565b61199a9190613b7d565b6119a261309a565b6040518563ffffffff1660e01b81526004016119c19493929190613818565b6020604051808303816000875af11580156119e0573d6000803e3d6000fd5b505050506040513d601f19601f82011682018060405250810190611a049190613754565b90507f00000000000000000000000000000000000000000000000000000000000000006001600160a01b0316633078fff56040518163ffffffff1660e01b8152600401602060405180830381865afa158015611a64573d6000803e3d6000fd5b505050506040513d601f19601f82011682018060405250810190611a889190613737565b6001600160a01b0316638f93b660826040518060c001604052806040518061014001604052808a6001600160a01b031681526020018c81526020018b81526020016000815260200160008152602001600081526020016000151581526020016000815260200160008152602001600081525081526020016000815260200160008152602001600081526020016000815260200160008152506040518363ffffffff1660e01b8152600401611b3d92919061383e565b600060405180830381600087803b158015611b5757600080fd5b505af1158015611b6b573d6000803e3d6000fd5b5050505085846001600160a01b0316827f3e544118c04e3bb18b669475695cd270ba0e41fb13177483f01c14222de62a866000604051611baf911515815260200190565b60405180910390a4505050505050565b611bc7612e0a565b6005805460ff610100808304821615810261ff001990931692909217928390556040517fc3a6f986261de9467c2838c6df8ef74f9107855159205600c0bc7a14cdfd38889361122a9390049091161515815260200190565b611c27612e0a565b60008111611c475760405162461bcd60e51b815260040161046f906136e1565b600381905560408051818152601391810191909152721b585c9ad95d13dc99195c9cd51a5b595bdd5d606a1b6060820152602081018290527f8cf3e35f6221b16e1670a3413180c9484bf5aa71787905909fa82a6a2662e9ab906080016104cd565b611cb1612ed9565b611cb9612ee5565b6000611cc361041f565b905060007f00000000000000000000000000000000000000000000000000000000000000006001600160a01b0316632a0a1cb08387876040518463ffffffff1660e01b8152600401611d1793929190613901565b61014060405180830381865afa158015611d35573d6000803e3d6000fd5b505050506040513d601f19601f82011682018060405250810190611d599190613938565b905060008160e0015111611d7f5760405162461bcd60e51b815260040161046f90613b5b565b60008160e001516064604b8460a00151611d999190613718565b611da39190613b7d565b611dad9190613b7d565b9050831580611dec57508160c00151611dd857808260a00151611dd09190613786565b841115611dec565b808260a00151611de89190613b9f565b8410155b611e255760405162461bcd60e51b815260206004820152600a602482015269534c5f544f4f5f42494760b01b604482015260640161046f565b60405163a354418160e01b81526001600160a01b037f0000000000000000000000000000000000000000000000000000000000000000169063a354418190611e779086908a908a908a90600401613bb6565b600060405180830381600087803b158015611e9157600080fd5b505af1158015611ea5573d6000803e3d6000fd5b505050507f00000000000000000000000000000000000000000000000000000000000000006001600160a01b031662b127836040518163ffffffff1660e01b8152600401602060405180830381865afa158015611f06573d6000803e3d6000fd5b505050506040513d601f19601f82011682018060405250810190611f2a9190613737565b6001600160a01b031673E8aFfEF722aA547d9a0056fBb884dCBEe7C40dE5633c63a7d090918589896000611f5c61309a565b6040518763ffffffff1660e01b8152600401611f7d96959493929190613bec565b60006040518083038186803b158015611f9557600080fd5b505af4158015611fa9573d6000803e3d6000fd5b505060408051888152602081018890528993506001600160a01b03871692507f1fc4a6c7ffe506697979b8ed54dc4135cd1ecd26a2745f70b760a2492222b316910160405180910390a3505050505050565b3233146120385760405162461bcd60e51b815260206004820152600b60248201526a1393d7d0d3d395149050d560aa1b604482015260640161046f565b33600090815260208190526040902080546001600160a01b0319166001600160a01b0392909216919091179055565b61206f612ed9565b612077612ee5565b600061208161041f565b905060007f00000000000000000000000000000000000000000000000000000000000000006001600160a01b0316632a0a1cb08387876040518463ffffffff1660e01b81526004016120d593929190613901565b61014060405180830381865afa1580156120f3573d6000803e3d6000fd5b505050506040513d601f19601f820116820180604052508101906121179190613938565b905060008160e001511161213d5760405162461bcd60e51b815260040161046f90613b5b565b604051637fdb96f360e01b81526001600160a01b037f00000000000000000000000000000000000000000000000000000000000000001690637fdb96f39061218f908590899089908990600401613bb6565b600060405180830381600087803b1580156121a957600080fd5b505af11580156121bd573d6000803e3d6000fd5b505050507f00000000000000000000000000000000000000000000000000000000000000006001600160a01b031662b127836040518163ffffffff1660e01b8152600401602060405180830381865afa15801561221e573d6000803e3d6000fd5b505050506040513d601f19601f820116820180604052508101906122429190613737565b6001600160a01b031673E8aFfEF722aA547d9a0056fBb884dCBEe7C40dE5638fff7d829091848888600061227461309a565b6040518763ffffffff1660e01b815260040161229596959493929190613bec565b60006040518083038186803b1580156122ad57600080fd5b505af41580156122c1573d6000803e3d6000fd5b505060408051878152602081018790528893506001600160a01b03861692507f7e06a81c7a47891ccc7455b5ccb2ed850e32bb655ccda67eb3ebaaeed83242a4910160405180910390a35050505050565b61231a612ed9565b612322612ee5565b6000866004811115612336576123366137ee565b9050600061234261041f565b90506000600383600481111561235a5761235a6137ee565b14905060008161236b57600061236e565b60015b90506123d160405180610140016040528060006001600160a01b0316815260200160008152602001600081526020016000815260200160008152602001600081526020016000151581526020016000815260200160008152602001600081525090565b821561242b5760405162461bcd60e51b815260206004820152602360248201527f4f70656e204c696d6974206f7264657273206e6f7420737570706f72746564206044820152621e595d60ea1b606482015260840161046f565b6040516302a0a1cb60e41b81526001600160a01b037f00000000000000000000000000000000000000000000000000000000000000001690632a0a1cb09061247b908d908d908d90600401613901565b61014060405180830381865afa158015612499573d6000803e3d6000fd5b505050506040513d601f19601f820116820180604052508101906124bd9190613938565b905060008160e00151116124e35760405162461bcd60e51b815260040161046f90613b5b565b60028560048111156124f7576124f76137ee565b036126365760007f00000000000000000000000000000000000000000000000000000000000000006001600160a01b031663706faf3a6040518060e0016040528085600001516001600160a01b0316815260200185602001518152602001856040015181526020018560a0015181526020018560c0015115158152602001856080015181526020018560e001518152506040518263ffffffff1660e01b81526004016125a391906139ca565b602060405180830381865afa1580156125c0573d6000803e3d6000fd5b505050506040513d601f19601f820116820180604052508101906125e49190613754565b90508161012001516000148061261457508160c0015161260b578161012001518110612614565b81610120015181115b6126305760405162461bcd60e51b815260040161046f90613c30565b50612962565b600485600481111561264a5761264a6137ee565b036128ae5760007f00000000000000000000000000000000000000000000000000000000000000006001600160a01b03166364d372c66040518060e0016040528085600001516001600160a01b0316815260200185602001518152602001856040015181526020018560a0015181526020018560c0015115158152602001856080015181526020018560e001518152506040518263ffffffff1660e01b81526004016126f691906139ca565b602060405180830381865afa158015612713573d6000803e3d6000fd5b505050506040513d601f19601f820116820180604052508101906127379190613754565b90508161012001516000148061276757508160c0015161275e578161012001518110612767565b81610120015181115b6127835760405162461bcd60e51b815260040161046f90613c30565b8151602083015160408085015190516304ec194160e21b81526000936001600160a01b037f000000000000000000000000000000000000000000000000000000000000000016936313b06504936127dc93600401613901565b602060405180830381865afa1580156127f9573d6000803e3d6000fd5b505050506040513d601f19601f8201168201806040525081019061281d9190613754565b905060008184608001516128319190613c50565b90506004548460e00151826128469190613c91565b12156128a65760405162461bcd60e51b815260206004820152602960248201527f706f736974696f6e20746f20736d616c6c20666f72207061727469616c206c6960448201526838bab4b230ba34b7b760b91b606482015260840161046f565b505050612962565b60018560048111156128c2576128c26137ee565b1415806128d457506000816101200151115b6129085760405162461bcd60e51b81526020600482015260056024820152641393d7d4d360da1b604482015260640161046f565b600085600481111561291c5761291c6137ee565b14158061292e57506000816101000151115b6129625760405162461bcd60e51b815260206004820152600560248201526404e4f5f54560dc1b604482015260640161046f565b600083612980578160e00151826080015161297d9190613718565b90505b6000612991858d8d8d888c88613120565b5090506129ca6040805160c08101825260008082526020820181905291810182905260608101829052608081018290529060a082015290565b6001600160a01b038088168252602082018b90528d166040820152606081018c9052608081018b905260a08101886004811115612a0957612a096137ee565b90816004811115612a1c57612a1c6137ee565b90525060405163205fe86960e21b81526001600160a01b037f0000000000000000000000000000000000000000000000000000000000000000169063817fa1a490612a6d9084908690600401613d6e565b600060405180830381600087803b158015612a8757600080fd5b505af1158015612a9b573d6000803e3d6000fd5b505050507f00000000000000000000000000000000000000000000000000000000000000006001600160a01b0316633078fff56040518163ffffffff1660e01b8152600401602060405180830381865afa158015612afd573d6000803e3d6000fd5b505050506040513d601f19601f82011682018060405250810190612b219190613737565b6001600160a01b03166339fe9fd283836040518363ffffffff1660e01b8152600401612b4e929190613d89565b600060405180830381600087803b158015612b6857600080fd5b505af1158015612b7c573d6000803e3d6000fd5b505050508b8d6001600160a01b0316886001600160a01b03167f6d87222414c5850caf1d385b1e080a771b505825b082a2162d0f4af5ffc86c0085604051612bc691815260200190565b60405180910390a45050505050505050505050505050565b6000807f00000000000000000000000000000000000000000000000000000000000000006001600160a01b0316632a0a1cb08686866040518463ffffffff1660e01b8152600401612c3193929190613901565b61014060405180830381865afa158015612c4f573d6000803e3d6000fd5b505050506040513d601f19601f82011682018060405250810190612c739190613938565b905060007f00000000000000000000000000000000000000000000000000000000000000006001600160a01b031663706faf3a6040518060e0016040528085600001516001600160a01b0316815260200185602001518152602001856040015181526020018560a0015181526020018560c0015115158152602001856080015181526020018560e001518152506040518263ffffffff1660e01b8152600401612d1c91906139ca565b602060405180830381865afa158015612d39573d6000803e3d6000fd5b505050506040513d601f19601f82011682018060405250810190612d5d9190613754565b905081610120015160001480612d8d57508160c00151612d84578161012001518110612d8d565b81610120015181115b612da95760405162461bcd60e51b815260040161046f90613c30565b6000807f00000000000000000000000000000000000000000000000000000000000000006001600160a01b0316637dc0d1d06040518163ffffffff1660e01b8152600401602060405180830381865afa158015611416573d6000803e3d6000fd5b7f00000000000000000000000000000000000000000000000000000000000000006001600160a01b03166312d43a516040518163ffffffff1660e01b8152600401602060405180830381865afa158015612e68573d6000803e3d6000fd5b505050506040513d601f19601f82011682018060405250810190612e8c9190613737565b6001600160a01b0316336001600160a01b031614612ed75760405162461bcd60e51b8152602060048201526008602482015267474f565f4f4e4c5960c01b604482015260640161046f565b565b323314612ed757600080fd5b600554610100900460ff1615612ed75760405162461bcd60e51b815260040161046f90602080825260049082015263444f4e4560e01b604082015260600190565b6000807f00000000000000000000000000000000000000000000000000000000000000006001600160a01b031662b127836040518163ffffffff1660e01b8152600401602060405180830381865afa158015612f86573d6000803e3d6000fd5b505050506040513d601f19601f82011682018060405250810190612faa9190613737565b6001600160a01b031663281b693c846040518263ffffffff1660e01b8152600401612fd791815260200190565b602060405180830381865afa158015612ff4573d6000803e3d6000fd5b505050506040513d601f19601f820116820180604052508101906130189190613754565b90506000811161309057604051630a06da4f60e21b8152600481018490526001600160a01b0385169063281b693c90602401602060405180830381865afa158015613067573d6000803e3d6000fd5b505050506040513d601f19601f8201168201806040525081019061308b9190613754565b613092565b805b949350505050565b600061a4b14614806130ae575062066eed46145b1561311b5760646001600160a01b031663a3b1b31d6040518163ffffffff1660e01b8152600401602060405180830381865afa1580156130f2573d6000803e3d6000fd5b505050506040513d601f19601f820116820180604052508101906131169190613754565b905090565b504390565b60008060007f00000000000000000000000000000000000000000000000000000000000000006001600160a01b031662b127836040518163ffffffff1660e01b8152600401602060405180830381865afa158015613182573d6000803e3d6000fd5b505050506040513d601f19601f820116820180604052508101906131a69190613737565b6001600160a01b0316639bd24d838a8a8a8a6040518563ffffffff1660e01b81526004016131d79493929190613d9d565b608060405180830381865afa1580156131f4573d6000803e3d6000fd5b505050506040513d601f19601f820116820180604052508101906132189190613de5565b905060007f00000000000000000000000000000000000000000000000000000000000000006001600160a01b0316633078fff56040518163ffffffff1660e01b8152600401602060405180830381865afa15801561327a573d6000803e3d6000fd5b505050506040513d601f19601f8201168201806040525081019061329e9190613737565b9050806001600160a01b0316636938c05d8a8d6132bc5760036132bf565b60025b888f6133125760018b60048111156132d9576132d96137ee565b146133085760008b60048111156132f2576132f26137ee565b14613301578660600151613318565b8651613318565b8660200151613318565b86604001515b6040518563ffffffff1660e01b81526004016133379493929190613e62565b6020604051808303816000875af1158015613356573d6000803e3d6000fd5b505050506040513d601f19601f8201168201806040525081019061337a9190613754565b9350505097509795505050505050565b60006020828403121561339c57600080fd5b5035919050565b634e487b7160e01b600052604160045260246000fd5b604051610140810167ffffffffffffffff811182821017156133dd576133dd6133a3565b60405290565b6001600160a01b03811681146133f857600080fd5b50565b8035613406816133e3565b919050565b80151581146133f857600080fd5b80356134068161340b565b80356003811061340657600080fd5b6000806000808486036101a081121561344b57600080fd5b6101408082121561345b57600080fd5b6134636133b9565b915061346e876133fb565b82526020870135602083015260408701356040830152606087013560608301526080870135608083015260a087013560a08301526134ae60c08801613419565b60c083015260e087013560e08301526101008088013581840152506101208088013581840152508195506134e3818801613424565b959895975050505061016084013593610180013592915050565b60008060006060848603121561351257600080fd5b833561351d816133e3565b95602085013595506040909401359392505050565b60008060006040848603121561354757600080fd5b8335613552816133e3565b9250602084013567ffffffffffffffff8082111561356f57600080fd5b818601915086601f83011261358357600080fd5b81358181111561359257600080fd5b8760208285010111156135a457600080fd5b6020830194508093505050509250925092565b60005b838110156135d25781810151838201526020016135ba565b838111156135e1576000848401525b50505050565b600081518084526135ff8160208601602086016135b7565b601f01601f19169290920160200192915050565b6020815260006114b360208301846135e7565b6000806040838503121561363957600080fd5b50508035926020909101359150565b60008060006060848603121561365d57600080fd5b505081359360208301359350604090920135919050565b60006020828403121561368657600080fd5b8135613090816133e3565b60008060008060008060c087890312156136aa57600080fd5b8635955060208701356136bc816133e3565b95989597505050506040840135936060810135936080820135935060a0909101359150565b602080825260079082015266056414c55455f360cc1b604082015260600190565b634e487b7160e01b600052601160045260246000fd5b600081600019048311821515161561373257613732613702565b500290565b60006020828403121561374957600080fd5b8151613090816133e3565b60006020828403121561376657600080fd5b5051919050565b6001600160a01b03929092168252602082015260400190565b6000821982111561379957613799613702565b500190565b6020808252601290820152714d41585f50454e44494e475f4f524445525360701b604082015260600190565b600080604083850312156137dd57600080fd5b505080516020909101519092909150565b634e487b7160e01b600052602160045260246000fd5b60048110613814576138146137ee565b9052565b8481526080810161382c6020830186613804565b60408201939093526060015292915050565b828152815180516001600160a01b03166020830152610200820190602081015160408401526040810151606084015260608101516080840152608081015160a084015260a081015160c084015260c081015161389e60e085018215159052565b5060e0810151610100848101919091528101516101208085019190915201516101408301526020830151610160830152604083015161018083015260608301516101a083015260808301516101c083015260a0909201516101e090910152919050565b6001600160a01b039390931683526020830191909152604082015260600190565b8051613406816133e3565b80516134068161340b565b6000610140828403121561394b57600080fd5b6139536133b9565b61395c83613922565b81526020830151602082015260408301516040820152606083015160608201526080830151608082015260a083015160a082015261399c60c0840161392d565b60c082015260e083810151908201526101008084015190820152610120928301519281019290925250919050565b81516001600160a01b0316815260208083015190820152604080830151908201526060808301519082015260808083015115159082015260a0828101519082015260c0918201519181019190915260e00190565b8183823760009101908152919050565b600060208284031215613a4057600080fd5b815167ffffffffffffffff80821115613a5857600080fd5b818401915084601f830112613a6c57600080fd5b815181811115613a7e57613a7e6133a3565b604051601f8201601f19908116603f01168101908382118183101715613aa657613aa66133a3565b81604052828152876020848701011115613abf57600080fd5b613ad08360208301602088016135b7565b979650505050505050565b600060c08284031215613aed57600080fd5b60405160c0810181811067ffffffffffffffff82111715613b1057613b106133a3565b8060405250825181526020830151602082015260408301516040820152606083015160608201526080830151608082015260a0830151613b4f8161340b565b60a08201529392505050565b6020808252600890820152674e4f5f545241444560c01b604082015260600190565b600082613b9a57634e487b7160e01b600052601260045260246000fd5b500490565b600082821015613bb157613bb1613702565b500390565b6001600160a01b0394909416845260208401929092526040830152606082015260800190565b60028110613814576138146137ee565b6001600160a01b03878116825286166020820152604081018590526060810184905260c08101613c1f6080830185613bdc565b8260a0830152979650505050505050565b602080825260069082015265121054d7d4d360d21b604082015260600190565b600080821280156001600160ff1b0384900385131615613c7257613c72613702565b600160ff1b8390038412811615613c8b57613c8b613702565b50500190565b60006001600160ff1b0381841382841380821686840486111615613cb757613cb7613702565b600160ff1b6000871282811687830589121615613cd657613cd6613702565b60008712925087820587128484161615613cf257613cf2613702565b87850587128184161615613d0857613d08613702565b505050929093029392505050565b60018060a01b038082511683526020820151602084015280604083015116604084015250606081015160608301526080810151608083015260a081015160058110613d6357613d636137ee565b8060a0840152505050565b60e08101613d7c8285613d16565b8260c08301529392505050565b82815260e081016114b36020830184613d16565b6001600160a01b0385168152602081018490526040810183905260808101613dc86060830184613bdc565b95945050505050565b805163ffffffff8116811461340657600080fd5b600060808284031215613df757600080fd5b6040516080810181811067ffffffffffffffff82111715613e1a57613e1a6133a3565b604052613e2683613dd1565b8152613e3460208401613dd1565b6020820152613e4560408401613dd1565b6040820152613e5660608401613dd1565b60608201529392505050565b84815260808101613e766020830186613804565b83604083015263ffffffff831660608301529594505050505056fea26469706673582212206f406877082ff04ad2e9f4d1c1b5bf30644d36aceb67d0f13080465cef3e67a764736f6c634300080f0033",
  "deployedBytecode": "0x608060405234801561001057600080fd5b50600436106101785760003560e01c80639a10cc32116100d9578063be73fb9911610087578063be73fb9914610370578063bffe348614610383578063ca5eb5e1146103ac578063d3dc7539146103bf578063d8defd15146103e6578063fa7fffba146103f9578063ff22dcac1461040c57600080fd5b80639a10cc32146103035780639a54adba14610323578063a2a3c0cb1461032c578063ae8421e11461033f578063b187bd2614610347578063b1dfd53014610354578063b81bfa051461035d57600080fd5b8063410c0b7c11610136578063410c0b7c1461024e578063531cc965146102655780635ad9f9931461028c57806368cd5088146102b35780638456cb59146102c6578063870f91d9146102ce5780638f062227146102f157600080fd5b8062b127831461017d578063119df25f146101c15780631346b0ff146101c957806316fff074146101f05780632c1e4e551461021757806336fb8b151461022c575b600080fd5b6101a47f000000000000000000000000000000000000000000000000000000000000000081565b6040516001600160a01b0390911681526020015b60405180910390f35b6101a461041f565b6101a47f000000000000000000000000000000000000000000000000000000000000000081565b6101a47f000000000000000000000000000000000000000000000000000000000000000081565b61022a61022536600461338a565b610447565b005b61022a33600090815260208190526040902080546001600160a01b0319169055565b61025760035481565b6040519081526020016101b8565b6101a47f000000000000000000000000000000000000000000000000000000000000000081565b6101a47f000000000000000000000000000000000000000000000000000000000000000081565b61022a6102c1366004613433565b6104d8565b61022a6111de565b6102e16102dc3660046134fd565b611234565b60405190151581526020016101b8565b6005546102e190610100900460ff1681565b610316610311366004613532565b6114ba565b6040516101b89190613613565b61025760045481565b61022a61033a366004613626565b6115f5565b61022a611bbf565b6005546102e19060ff1681565b61025760025481565b61022a61036b36600461338a565b611c1f565b61022a61037e366004613648565b611ca9565b6101a4610391366004613674565b6000602081905290815260409020546001600160a01b031681565b61022a6103ba366004613674565b611ffb565b6101a47f000000000000000000000000000000000000000000000000000000000000000081565b61022a6103f4366004613648565b612067565b61022a610407366004613691565b612312565b6102e161041a3660046134fd565b612bde565b6001546000906001600160a01b031661043757503390565b506001546001600160a01b031690565b61044f612e0a565b600081116104785760405162461bcd60e51b815260040161046f906136e1565b60405180910390fd5b600281905560408051818152600a91810191909152690dac2f0a0dee6ae8aa8960b31b6060820152602081018290527f8cf3e35f6221b16e1670a3413180c9484bf5aa71787905909fa82a6a2662e9ab906080015b60405180910390a150565b6104e0612ed9565b6104e8612ee5565b60055460ff16156105245760405162461bcd60e51b815260206004820152600660248201526514105554d15160d21b604482015260640161046f565b600019818560a001516105379190613718565b1061056f5760405162461bcd60e51b81526020600482015260086024820152674f564552464c4f5760c01b604482015260640161046f565b60008460a00151116105b05760405162461bcd60e51b815260206004820152600a60248201526950524943455f5a45524f60b01b604482015260640161046f565b60007f00000000000000000000000000000000000000000000000000000000000000006001600160a01b0316633078fff56040518163ffffffff1660e01b8152600401602060405180830381865afa158015610610573d6000803e3d6000fd5b505050506040513d601f19601f820116820180604052508101906106349190613737565b90506000816001600160a01b03166335b03c176040518163ffffffff1660e01b8152600401602060405180830381865afa158015610676573d6000803e3d6000fd5b505050506040513d601f19601f8201168201806040525081019061069a9190613737565b905060006106a661041f565b90507f00000000000000000000000000000000000000000000000000000000000000006001600160a01b031663f65d9dbe6040518163ffffffff1660e01b8152600401602060405180830381865afa158015610706573d6000803e3d6000fd5b505050506040513d601f19601f8201168201806040525081019061072a9190613754565b6020880151604051634bf3ccad60e11b81526001600160a01b037f000000000000000000000000000000000000000000000000000000000000000016916397e7995a9161077b91869160040161376d565b602060405180830381865afa158015610798573d6000803e3d6000fd5b505050506040513d601f19601f820116820180604052508101906107bc9190613754565b6020890151604051639c8912f160e01b81526001600160a01b037f00000000000000000000000000000000000000000000000000000000000000001691639c8912f19161080d91879160040161376d565b602060405180830381865afa15801561082a573d6000803e3d6000fd5b505050506040513d601f19601f8201168201806040525081019061084e9190613754565b60208a01516040516307218dad60e21b81526001600160a01b037f00000000000000000000000000000000000000000000000000000000000000001691631c8636b49161089f91889160040161376d565b602060405180830381865afa1580156108bc573d6000803e3d6000fd5b505050506040513d601f19601f820116820180604052508101906108e09190613754565b6108ea9190613786565b6108f49190613786565b106109375760405162461bcd60e51b815260206004820152601360248201527226a0ac2faa2920a222a9afa822a92fa820a4a960691b604482015260640161046f565b7f00000000000000000000000000000000000000000000000000000000000000006001600160a01b0316638049fde76040518163ffffffff1660e01b8152600401602060405180830381865afa158015610995573d6000803e3d6000fd5b505050506040513d601f19601f820116820180604052508101906109b99190613754565b60405163f7b3c6fd60e01b81526001600160a01b0383811660048301527f0000000000000000000000000000000000000000000000000000000000000000169063f7b3c6fd90602401602060405180830381865afa158015610a1f573d6000803e3d6000fd5b505050506040513d601f19601f82011682018060405250810190610a439190613754565b10610a605760405162461bcd60e51b815260040161046f9061379e565b60025487608001511115610aa65760405162461bcd60e51b815260206004820152600d60248201526c41424f56455f4d41585f504f5360981b604482015260640161046f565b602087015160405163601e3b6b60e11b815260048101919091526001600160a01b0383169063c03c76d690602401602060405180830381865afa158015610af1573d6000803e3d6000fd5b505050506040513d601f19601f82011682018060405250810190610b159190613754565b8760e001518860800151610b299190613718565b1015610b675760405162461bcd60e51b815260206004820152600d60248201526c42454c4f575f4d494e5f504f5360981b604482015260640161046f565b60008760e00151118015610bed5750602087015160405163059a992d60e41b815260048101919091526001600160a01b038316906359a992d090602401602060405180830381865afa158015610bc1573d6000803e3d6000fd5b505050506040513d601f19601f82011682018060405250810190610be59190613754565b8760e0015110155b8015610c0a5750610c02828860200151612f26565b8760e0015111155b610c4b5760405162461bcd60e51b815260206004820152601260248201527113115591549051d157d25390d3d4949150d560721b604482015260640161046f565b6101008701511580610c7f57508660c00151610c72578660a0015187610100015110610c7f565b8660a00151876101000151115b610cb65760405162461bcd60e51b8152602060048201526008602482015267057524f4e475f54560c41b604482015260640161046f565b6101208701511580610cea57508660c00151610cdd578660a0015187610120015111610cea565b8660a00151876101200151105b610d215760405162461bcd60e51b815260206004820152600860248201526715d493d391d7d4d360c21b604482015260640161046f565b60007f00000000000000000000000000000000000000000000000000000000000000006001600160a01b0316637ea95f3260008a602001518b60c001518c60e001518d60800151610d729190613718565b6040516001600160e01b031960e087901b168152600481019490945260248401929092521515604483015260648201526084016040805180830381865afa158015610dc1573d6000803e3d6000fd5b505050506040513d601f19601f82011682018060405250810190610de591906137ca565b5090507f00000000000000000000000000000000000000000000000000000000000000006001600160a01b03166380f6cfc26040518163ffffffff1660e01b8152600401602060405180830381865afa158015610e46573d6000803e3d6000fd5b505050506040513d601f19601f82011682018060405250810190610e6a9190613754565b60e0890151610e799083613718565b1115610ebf5760405162461bcd60e51b81526020600482015260156024820152740a0a492868abe929aa08286a8bea89e9ebe90928e9605b1b604482015260640161046f565b6080880151604051638a238ae560e01b81526001600160a01b0384811660048301527f000000000000000000000000000000000000000000000000000000000000000016602482018190526044820192909252638a238ae590606401600060405180830381600087803b158015610f3557600080fd5b505af1158015610f49573d6000803e3d6000fd5b5060009250610f56915050565b876002811115610f6857610f686137ee565b036111d4576000846001600160a01b0316636938c05d8a6020015160008c60e001518d60800151610f999190613718565b610fa161309a565b6040518563ffffffff1660e01b8152600401610fc09493929190613818565b6020604051808303816000875af1158015610fdf573d6000803e3d6000fd5b505050506040513d601f19601f820116820180604052508101906110039190613754565b90507f00000000000000000000000000000000000000000000000000000000000000006001600160a01b0316633078fff56040518163ffffffff1660e01b8152600401602060405180830381865afa158015611063573d6000803e3d6000fd5b505050506040513d601f19601f820116820180604052508101906110879190613737565b6001600160a01b0316638f93b660826040518060c00160405280604051806101400160405280896001600160a01b031681526020018f60200151815260200160008152602001600081526020018f608001518152602001600081526020018f60c00151151581526020018f60e0015181526020018f610100015181526020018f61012001518152508152602001600081526020018d60a0015181526020018a81526020016000815260200160008152506040518363ffffffff1660e01b815260040161115492919061383e565b600060405180830381600087803b15801561116e57600080fd5b505af1158015611182573d6000803e3d6000fd5b505050508860200151836001600160a01b0316827f3e544118c04e3bb18b669475695cd270ba0e41fb13177483f01c14222de62a8660016040516111ca911515815260200190565b60405180910390a4505b5050505050505050565b6111e6612e0a565b6005805460ff8082161560ff1990921682179092556040519116151581527f0e2fb031ee032dc02d8011dc50b816eb450cf856abd8261680dac74f72165bd2906020015b60405180910390a1565b6000807f00000000000000000000000000000000000000000000000000000000000000006001600160a01b0316632a0a1cb08686866040518463ffffffff1660e01b815260040161128793929190613901565b61014060405180830381865afa1580156112a5573d6000803e3d6000fd5b505050506040513d601f19601f820116820180604052508101906112c99190613938565b905060007f00000000000000000000000000000000000000000000000000000000000000006001600160a01b03166364d372c66040518060e0016040528085600001516001600160a01b0316815260200185602001518152602001856040015181526020018560a0015181526020018560c0015115158152602001856080015181526020018560e001518152506040518263ffffffff1660e01b815260040161137291906139ca565b602060405180830381865afa15801561138f573d6000803e3d6000fd5b505050506040513d601f19601f820116820180604052508101906113b39190613754565b90506000807f00000000000000000000000000000000000000000000000000000000000000006001600160a01b0316637dc0d1d06040518163ffffffff1660e01b8152600401602060405180830381865afa158015611416573d6000803e3d6000fd5b505050506040513d601f19601f8201168201806040525081019061143a9190613737565b6001600160a01b031663e7572230886040518263ffffffff1660e01b815260040161146791815260200190565b6040805180830381865afa158015611483573d6000803e3d6000fd5b505050506040513d601f19601f820116820180604052508101906114a791906137ca565b50929092111593505050505b9392505050565b6001600160a01b0383811660009081526020819052604090205460609116331461151e5760405162461bcd60e51b81526020600482015260156024820152741111531151d0551157d393d517d054141493d59151605a1b604482015260640161046f565b600180546001600160a01b0319166001600160a01b038616179055604051600090819030906115509087908790613a1e565b600060405180830381855af49150503d806000811461158b576040519150601f19603f3d011682016040523d82523d6000602084013e611590565b606091505b5091509150816115dc576044815110156115a957600080fd5b600481019050808060200190518101906115c39190613a2e565b60405162461bcd60e51b815260040161046f9190613613565b600180546001600160a01b031916905595945050505050565b6115fd612ed9565b611605612ee5565b600061160f61041f565b905060007f00000000000000000000000000000000000000000000000000000000000000006001600160a01b0316632a0a1cb08386866040518463ffffffff1660e01b815260040161166393929190613901565b61014060405180830381865afa158015611681573d6000803e3d6000fd5b505050506040513d601f19601f820116820180604052508101906116a59190613938565b905060007f00000000000000000000000000000000000000000000000000000000000000006001600160a01b031663ee51f6368487876040518463ffffffff1660e01b81526004016116f993929190613901565b60c060405180830381865afa158015611716573d6000803e3d6000fd5b505050506040513d601f19601f8201168201806040525081019061173a9190613adb565b90507f00000000000000000000000000000000000000000000000000000000000000006001600160a01b0316638049fde76040518163ffffffff1660e01b8152600401602060405180830381865afa15801561179a573d6000803e3d6000fd5b505050506040513d601f19601f820116820180604052508101906117be9190613754565b60405163f7b3c6fd60e01b81526001600160a01b0385811660048301527f0000000000000000000000000000000000000000000000000000000000000000169063f7b3c6fd90602401602060405180830381865afa158015611824573d6000803e3d6000fd5b505050506040513d601f19601f820116820180604052508101906118489190613754565b106118655760405162461bcd60e51b815260040161046f9061379e565b8060a00151156118ae5760405162461bcd60e51b81526020600482015260146024820152731053149150511657d091525391d7d0d313d4d15160621b604482015260640161046f565b60008260e00151116118d25760405162461bcd60e51b815260040161046f90613b5b565b60007f00000000000000000000000000000000000000000000000000000000000000006001600160a01b0316633078fff56040518163ffffffff1660e01b8152600401602060405180830381865afa158015611932573d6000803e3d6000fd5b505050506040513d601f19601f820116820180604052508101906119569190613737565b6001600160a01b0316636938c05d8760016402540be4008760e00151876020015189606001516119869190613718565b6119909190613718565b61199a9190613b7d565b6119a261309a565b6040518563ffffffff1660e01b81526004016119c19493929190613818565b6020604051808303816000875af11580156119e0573d6000803e3d6000fd5b505050506040513d601f19601f82011682018060405250810190611a049190613754565b90507f00000000000000000000000000000000000000000000000000000000000000006001600160a01b0316633078fff56040518163ffffffff1660e01b8152600401602060405180830381865afa158015611a64573d6000803e3d6000fd5b505050506040513d601f19601f82011682018060405250810190611a889190613737565b6001600160a01b0316638f93b660826040518060c001604052806040518061014001604052808a6001600160a01b031681526020018c81526020018b81526020016000815260200160008152602001600081526020016000151581526020016000815260200160008152602001600081525081526020016000815260200160008152602001600081526020016000815260200160008152506040518363ffffffff1660e01b8152600401611b3d92919061383e565b600060405180830381600087803b158015611b5757600080fd5b505af1158015611b6b573d6000803e3d6000fd5b5050505085846001600160a01b0316827f3e544118c04e3bb18b669475695cd270ba0e41fb13177483f01c14222de62a866000604051611baf911515815260200190565b60405180910390a4505050505050565b611bc7612e0a565b6005805460ff610100808304821615810261ff001990931692909217928390556040517fc3a6f986261de9467c2838c6df8ef74f9107855159205600c0bc7a14cdfd38889361122a9390049091161515815260200190565b611c27612e0a565b60008111611c475760405162461bcd60e51b815260040161046f906136e1565b600381905560408051818152601391810191909152721b585c9ad95d13dc99195c9cd51a5b595bdd5d606a1b6060820152602081018290527f8cf3e35f6221b16e1670a3413180c9484bf5aa71787905909fa82a6a2662e9ab906080016104cd565b611cb1612ed9565b611cb9612ee5565b6000611cc361041f565b905060007f00000000000000000000000000000000000000000000000000000000000000006001600160a01b0316632a0a1cb08387876040518463ffffffff1660e01b8152600401611d1793929190613901565b61014060405180830381865afa158015611d35573d6000803e3d6000fd5b505050506040513d601f19601f82011682018060405250810190611d599190613938565b905060008160e0015111611d7f5760405162461bcd60e51b815260040161046f90613b5b565b60008160e001516064604b8460a00151611d999190613718565b611da39190613b7d565b611dad9190613b7d565b9050831580611dec57508160c00151611dd857808260a00151611dd09190613786565b841115611dec565b808260a00151611de89190613b9f565b8410155b611e255760405162461bcd60e51b815260206004820152600a602482015269534c5f544f4f5f42494760b01b604482015260640161046f565b60405163a354418160e01b81526001600160a01b037f0000000000000000000000000000000000000000000000000000000000000000169063a354418190611e779086908a908a908a90600401613bb6565b600060405180830381600087803b158015611e9157600080fd5b505af1158015611ea5573d6000803e3d6000fd5b505050507f00000000000000000000000000000000000000000000000000000000000000006001600160a01b031662b127836040518163ffffffff1660e01b8152600401602060405180830381865afa158015611f06573d6000803e3d6000fd5b505050506040513d601f19601f82011682018060405250810190611f2a9190613737565b6001600160a01b031673__$f600c6c046224cd62da9c8e7a0d00fc8b2$__633c63a7d090918589896000611f5c61309a565b6040518763ffffffff1660e01b8152600401611f7d96959493929190613bec565b60006040518083038186803b158015611f9557600080fd5b505af4158015611fa9573d6000803e3d6000fd5b505060408051888152602081018890528993506001600160a01b03871692507f1fc4a6c7ffe506697979b8ed54dc4135cd1ecd26a2745f70b760a2492222b316910160405180910390a3505050505050565b3233146120385760405162461bcd60e51b815260206004820152600b60248201526a1393d7d0d3d395149050d560aa1b604482015260640161046f565b33600090815260208190526040902080546001600160a01b0319166001600160a01b0392909216919091179055565b61206f612ed9565b612077612ee5565b600061208161041f565b905060007f00000000000000000000000000000000000000000000000000000000000000006001600160a01b0316632a0a1cb08387876040518463ffffffff1660e01b81526004016120d593929190613901565b61014060405180830381865afa1580156120f3573d6000803e3d6000fd5b505050506040513d601f19601f820116820180604052508101906121179190613938565b905060008160e001511161213d5760405162461bcd60e51b815260040161046f90613b5b565b604051637fdb96f360e01b81526001600160a01b037f00000000000000000000000000000000000000000000000000000000000000001690637fdb96f39061218f908590899089908990600401613bb6565b600060405180830381600087803b1580156121a957600080fd5b505af11580156121bd573d6000803e3d6000fd5b505050507f00000000000000000000000000000000000000000000000000000000000000006001600160a01b031662b127836040518163ffffffff1660e01b8152600401602060405180830381865afa15801561221e573d6000803e3d6000fd5b505050506040513d601f19601f820116820180604052508101906122429190613737565b6001600160a01b031673__$f600c6c046224cd62da9c8e7a0d00fc8b2$__638fff7d829091848888600061227461309a565b6040518763ffffffff1660e01b815260040161229596959493929190613bec565b60006040518083038186803b1580156122ad57600080fd5b505af41580156122c1573d6000803e3d6000fd5b505060408051878152602081018790528893506001600160a01b03861692507f7e06a81c7a47891ccc7455b5ccb2ed850e32bb655ccda67eb3ebaaeed83242a4910160405180910390a35050505050565b61231a612ed9565b612322612ee5565b6000866004811115612336576123366137ee565b9050600061234261041f565b90506000600383600481111561235a5761235a6137ee565b14905060008161236b57600061236e565b60015b90506123d160405180610140016040528060006001600160a01b0316815260200160008152602001600081526020016000815260200160008152602001600081526020016000151581526020016000815260200160008152602001600081525090565b821561242b5760405162461bcd60e51b815260206004820152602360248201527f4f70656e204c696d6974206f7264657273206e6f7420737570706f72746564206044820152621e595d60ea1b606482015260840161046f565b6040516302a0a1cb60e41b81526001600160a01b037f00000000000000000000000000000000000000000000000000000000000000001690632a0a1cb09061247b908d908d908d90600401613901565b61014060405180830381865afa158015612499573d6000803e3d6000fd5b505050506040513d601f19601f820116820180604052508101906124bd9190613938565b905060008160e00151116124e35760405162461bcd60e51b815260040161046f90613b5b565b60028560048111156124f7576124f76137ee565b036126365760007f00000000000000000000000000000000000000000000000000000000000000006001600160a01b031663706faf3a6040518060e0016040528085600001516001600160a01b0316815260200185602001518152602001856040015181526020018560a0015181526020018560c0015115158152602001856080015181526020018560e001518152506040518263ffffffff1660e01b81526004016125a391906139ca565b602060405180830381865afa1580156125c0573d6000803e3d6000fd5b505050506040513d601f19601f820116820180604052508101906125e49190613754565b90508161012001516000148061261457508160c0015161260b578161012001518110612614565b81610120015181115b6126305760405162461bcd60e51b815260040161046f90613c30565b50612962565b600485600481111561264a5761264a6137ee565b036128ae5760007f00000000000000000000000000000000000000000000000000000000000000006001600160a01b03166364d372c66040518060e0016040528085600001516001600160a01b0316815260200185602001518152602001856040015181526020018560a0015181526020018560c0015115158152602001856080015181526020018560e001518152506040518263ffffffff1660e01b81526004016126f691906139ca565b602060405180830381865afa158015612713573d6000803e3d6000fd5b505050506040513d601f19601f820116820180604052508101906127379190613754565b90508161012001516000148061276757508160c0015161275e578161012001518110612767565b81610120015181115b6127835760405162461bcd60e51b815260040161046f90613c30565b8151602083015160408085015190516304ec194160e21b81526000936001600160a01b037f000000000000000000000000000000000000000000000000000000000000000016936313b06504936127dc93600401613901565b602060405180830381865afa1580156127f9573d6000803e3d6000fd5b505050506040513d601f19601f8201168201806040525081019061281d9190613754565b905060008184608001516128319190613c50565b90506004548460e00151826128469190613c91565b12156128a65760405162461bcd60e51b815260206004820152602960248201527f706f736974696f6e20746f20736d616c6c20666f72207061727469616c206c6960448201526838bab4b230ba34b7b760b91b606482015260840161046f565b505050612962565b60018560048111156128c2576128c26137ee565b1415806128d457506000816101200151115b6129085760405162461bcd60e51b81526020600482015260056024820152641393d7d4d360da1b604482015260640161046f565b600085600481111561291c5761291c6137ee565b14158061292e57506000816101000151115b6129625760405162461bcd60e51b815260206004820152600560248201526404e4f5f54560dc1b604482015260640161046f565b600083612980578160e00151826080015161297d9190613718565b90505b6000612991858d8d8d888c88613120565b5090506129ca6040805160c08101825260008082526020820181905291810182905260608101829052608081018290529060a082015290565b6001600160a01b038088168252602082018b90528d166040820152606081018c9052608081018b905260a08101886004811115612a0957612a096137ee565b90816004811115612a1c57612a1c6137ee565b90525060405163205fe86960e21b81526001600160a01b037f0000000000000000000000000000000000000000000000000000000000000000169063817fa1a490612a6d9084908690600401613d6e565b600060405180830381600087803b158015612a8757600080fd5b505af1158015612a9b573d6000803e3d6000fd5b505050507f00000000000000000000000000000000000000000000000000000000000000006001600160a01b0316633078fff56040518163ffffffff1660e01b8152600401602060405180830381865afa158015612afd573d6000803e3d6000fd5b505050506040513d601f19601f82011682018060405250810190612b219190613737565b6001600160a01b03166339fe9fd283836040518363ffffffff1660e01b8152600401612b4e929190613d89565b600060405180830381600087803b158015612b6857600080fd5b505af1158015612b7c573d6000803e3d6000fd5b505050508b8d6001600160a01b0316886001600160a01b03167f6d87222414c5850caf1d385b1e080a771b505825b082a2162d0f4af5ffc86c0085604051612bc691815260200190565b60405180910390a45050505050505050505050505050565b6000807f00000000000000000000000000000000000000000000000000000000000000006001600160a01b0316632a0a1cb08686866040518463ffffffff1660e01b8152600401612c3193929190613901565b61014060405180830381865afa158015612c4f573d6000803e3d6000fd5b505050506040513d601f19601f82011682018060405250810190612c739190613938565b905060007f00000000000000000000000000000000000000000000000000000000000000006001600160a01b031663706faf3a6040518060e0016040528085600001516001600160a01b0316815260200185602001518152602001856040015181526020018560a0015181526020018560c0015115158152602001856080015181526020018560e001518152506040518263ffffffff1660e01b8152600401612d1c91906139ca565b602060405180830381865afa158015612d39573d6000803e3d6000fd5b505050506040513d601f19601f82011682018060405250810190612d5d9190613754565b905081610120015160001480612d8d57508160c00151612d84578161012001518110612d8d565b81610120015181115b612da95760405162461bcd60e51b815260040161046f90613c30565b6000807f00000000000000000000000000000000000000000000000000000000000000006001600160a01b0316637dc0d1d06040518163ffffffff1660e01b8152600401602060405180830381865afa158015611416573d6000803e3d6000fd5b7f00000000000000000000000000000000000000000000000000000000000000006001600160a01b03166312d43a516040518163ffffffff1660e01b8152600401602060405180830381865afa158015612e68573d6000803e3d6000fd5b505050506040513d601f19601f82011682018060405250810190612e8c9190613737565b6001600160a01b0316336001600160a01b031614612ed75760405162461bcd60e51b8152602060048201526008602482015267474f565f4f4e4c5960c01b604482015260640161046f565b565b323314612ed757600080fd5b600554610100900460ff1615612ed75760405162461bcd60e51b815260040161046f90602080825260049082015263444f4e4560e01b604082015260600190565b6000807f00000000000000000000000000000000000000000000000000000000000000006001600160a01b031662b127836040518163ffffffff1660e01b8152600401602060405180830381865afa158015612f86573d6000803e3d6000fd5b505050506040513d601f19601f82011682018060405250810190612faa9190613737565b6001600160a01b031663281b693c846040518263ffffffff1660e01b8152600401612fd791815260200190565b602060405180830381865afa158015612ff4573d6000803e3d6000fd5b505050506040513d601f19601f820116820180604052508101906130189190613754565b90506000811161309057604051630a06da4f60e21b8152600481018490526001600160a01b0385169063281b693c90602401602060405180830381865afa158015613067573d6000803e3d6000fd5b505050506040513d601f19601f8201168201806040525081019061308b9190613754565b613092565b805b949350505050565b600061a4b14614806130ae575062066eed46145b1561311b5760646001600160a01b031663a3b1b31d6040518163ffffffff1660e01b8152600401602060405180830381865afa1580156130f2573d6000803e3d6000fd5b505050506040513d601f19601f820116820180604052508101906131169190613754565b905090565b504390565b60008060007f00000000000000000000000000000000000000000000000000000000000000006001600160a01b031662b127836040518163ffffffff1660e01b8152600401602060405180830381865afa158015613182573d6000803e3d6000fd5b505050506040513d601f19601f820116820180604052508101906131a69190613737565b6001600160a01b0316639bd24d838a8a8a8a6040518563ffffffff1660e01b81526004016131d79493929190613d9d565b608060405180830381865afa1580156131f4573d6000803e3d6000fd5b505050506040513d601f19601f820116820180604052508101906132189190613de5565b905060007f00000000000000000000000000000000000000000000000000000000000000006001600160a01b0316633078fff56040518163ffffffff1660e01b8152600401602060405180830381865afa15801561327a573d6000803e3d6000fd5b505050506040513d601f19601f8201168201806040525081019061329e9190613737565b9050806001600160a01b0316636938c05d8a8d6132bc5760036132bf565b60025b888f6133125760018b60048111156132d9576132d96137ee565b146133085760008b60048111156132f2576132f26137ee565b14613301578660600151613318565b8651613318565b8660200151613318565b86604001515b6040518563ffffffff1660e01b81526004016133379493929190613e62565b6020604051808303816000875af1158015613356573d6000803e3d6000fd5b505050506040513d601f19601f8201168201806040525081019061337a9190613754565b9350505097509795505050505050565b60006020828403121561339c57600080fd5b5035919050565b634e487b7160e01b600052604160045260246000fd5b604051610140810167ffffffffffffffff811182821017156133dd576133dd6133a3565b60405290565b6001600160a01b03811681146133f857600080fd5b50565b8035613406816133e3565b919050565b80151581146133f857600080fd5b80356134068161340b565b80356003811061340657600080fd5b6000806000808486036101a081121561344b57600080fd5b6101408082121561345b57600080fd5b6134636133b9565b915061346e876133fb565b82526020870135602083015260408701356040830152606087013560608301526080870135608083015260a087013560a08301526134ae60c08801613419565b60c083015260e087013560e08301526101008088013581840152506101208088013581840152508195506134e3818801613424565b959895975050505061016084013593610180013592915050565b60008060006060848603121561351257600080fd5b833561351d816133e3565b95602085013595506040909401359392505050565b60008060006040848603121561354757600080fd5b8335613552816133e3565b9250602084013567ffffffffffffffff8082111561356f57600080fd5b818601915086601f83011261358357600080fd5b81358181111561359257600080fd5b8760208285010111156135a457600080fd5b6020830194508093505050509250925092565b60005b838110156135d25781810151838201526020016135ba565b838111156135e1576000848401525b50505050565b600081518084526135ff8160208601602086016135b7565b601f01601f19169290920160200192915050565b6020815260006114b360208301846135e7565b6000806040838503121561363957600080fd5b50508035926020909101359150565b60008060006060848603121561365d57600080fd5b505081359360208301359350604090920135919050565b60006020828403121561368657600080fd5b8135613090816133e3565b60008060008060008060c087890312156136aa57600080fd5b8635955060208701356136bc816133e3565b95989597505050506040840135936060810135936080820135935060a0909101359150565b602080825260079082015266056414c55455f360cc1b604082015260600190565b634e487b7160e01b600052601160045260246000fd5b600081600019048311821515161561373257613732613702565b500290565b60006020828403121561374957600080fd5b8151613090816133e3565b60006020828403121561376657600080fd5b5051919050565b6001600160a01b03929092168252602082015260400190565b6000821982111561379957613799613702565b500190565b6020808252601290820152714d41585f50454e44494e475f4f524445525360701b604082015260600190565b600080604083850312156137dd57600080fd5b505080516020909101519092909150565b634e487b7160e01b600052602160045260246000fd5b60048110613814576138146137ee565b9052565b8481526080810161382c6020830186613804565b60408201939093526060015292915050565b828152815180516001600160a01b03166020830152610200820190602081015160408401526040810151606084015260608101516080840152608081015160a084015260a081015160c084015260c081015161389e60e085018215159052565b5060e0810151610100848101919091528101516101208085019190915201516101408301526020830151610160830152604083015161018083015260608301516101a083015260808301516101c083015260a0909201516101e090910152919050565b6001600160a01b039390931683526020830191909152604082015260600190565b8051613406816133e3565b80516134068161340b565b6000610140828403121561394b57600080fd5b6139536133b9565b61395c83613922565b81526020830151602082015260408301516040820152606083015160608201526080830151608082015260a083015160a082015261399c60c0840161392d565b60c082015260e083810151908201526101008084015190820152610120928301519281019290925250919050565b81516001600160a01b0316815260208083015190820152604080830151908201526060808301519082015260808083015115159082015260a0828101519082015260c0918201519181019190915260e00190565b8183823760009101908152919050565b600060208284031215613a4057600080fd5b815167ffffffffffffffff80821115613a5857600080fd5b818401915084601f830112613a6c57600080fd5b815181811115613a7e57613a7e6133a3565b604051601f8201601f19908116603f01168101908382118183101715613aa657613aa66133a3565b81604052828152876020848701011115613abf57600080fd5b613ad08360208301602088016135b7565b979650505050505050565b600060c08284031215613aed57600080fd5b60405160c0810181811067ffffffffffffffff82111715613b1057613b106133a3565b8060405250825181526020830151602082015260408301516040820152606083015160608201526080830151608082015260a0830151613b4f8161340b565b60a08201529392505050565b6020808252600890820152674e4f5f545241444560c01b604082015260600190565b600082613b9a57634e487b7160e01b600052601260045260246000fd5b500490565b600082821015613bb157613bb1613702565b500390565b6001600160a01b0394909416845260208401929092526040830152606082015260800190565b60028110613814576138146137ee565b6001600160a01b03878116825286166020820152604081018590526060810184905260c08101613c1f6080830185613bdc565b8260a0830152979650505050505050565b602080825260069082015265121054d7d4d360d21b604082015260600190565b600080821280156001600160ff1b0384900385131615613c7257613c72613702565b600160ff1b8390038412811615613c8b57613c8b613702565b50500190565b60006001600160ff1b0381841382841380821686840486111615613cb757613cb7613702565b600160ff1b6000871282811687830589121615613cd657613cd6613702565b60008712925087820587128484161615613cf257613cf2613702565b87850587128184161615613d0857613d08613702565b505050929093029392505050565b60018060a01b038082511683526020820151602084015280604083015116604084015250606081015160608301526080810151608083015260a081015160058110613d6357613d636137ee565b8060a0840152505050565b60e08101613d7c8285613d16565b8260c08301529392505050565b82815260e081016114b36020830184613d16565b6001600160a01b0385168152602081018490526040810183905260808101613dc86060830184613bdc565b95945050505050565b805163ffffffff8116811461340657600080fd5b600060808284031215613df757600080fd5b6040516080810181811067ffffffffffffffff82111715613e1a57613e1a6133a3565b604052613e2683613dd1565b8152613e3460208401613dd1565b6020820152613e4560408401613dd1565b6040820152613e5660608401613dd1565b60608201529392505050565b84815260808101613e766020830186613804565b83604083015263ffffffff831660608301529594505050505056fea26469706673582212206f406877082ff04ad2e9f4d1c1b5bf30644d36aceb67d0f13080465cef3e67a764736f6c634300080f0033",
  "libraries": {
    "TradeUtils": "0xE8aFfEF722aA547d9a0056fBb884dCBEe7C40dE5",
    "PackingUtils": "0x0f4f61b20AC434531875383117776144E0E934EB"
  },
  "devdoc": {
    "kind": "dev",
    "methods": {},
    "version": 1
  },
  "userdoc": {
    "kind": "user",
    "methods": {},
    "version": 1
  },
  "storageLayout": {
    "storage": [
      {
        "astId": 5826,
        "contract": "contracts/Trading.sol:Trading",
        "label": "delegations",
        "offset": 0,
        "slot": "0",
        "type": "t_mapping(t_address,t_address)"
      },
      {
        "astId": 5828,
        "contract": "contracts/Trading.sol:Trading",
        "label": "senderOverride",
        "offset": 0,
        "slot": "1",
        "type": "t_address"
      },
      {
        "astId": 15383,
        "contract": "contracts/Trading.sol:Trading",
        "label": "maxPosWETH",
        "offset": 0,
        "slot": "2",
        "type": "t_uint256"
      },
      {
        "astId": 15385,
        "contract": "contracts/Trading.sol:Trading",
        "label": "marketOrdersTimeout",
        "offset": 0,
        "slot": "3",
        "type": "t_uint256"
      },
      {
        "astId": 15388,
        "contract": "contracts/Trading.sol:Trading",
        "label": "minLeveragedPosWETH",
        "offset": 0,
        "slot": "4",
        "type": "t_int256"
      },
      {
        "astId": 15390,
        "contract": "contracts/Trading.sol:Trading",
        "label": "isPaused",
        "offset": 0,
        "slot": "5",
        "type": "t_bool"
      },
      {
        "astId": 15392,
        "contract": "contracts/Trading.sol:Trading",
        "label": "isDone",
        "offset": 1,
        "slot": "5",
        "type": "t_bool"
      }
    ],
    "types": {
      "t_address": {
        "encoding": "inplace",
        "label": "address",
        "numberOfBytes": "20"
      },
      "t_bool": {
        "encoding": "inplace",
        "label": "bool",
        "numberOfBytes": "1"
      },
      "t_int256": {
        "encoding": "inplace",
        "label": "int256",
        "numberOfBytes": "32"
      },
      "t_mapping(t_address,t_address)": {
        "encoding": "mapping",
        "key": "t_address",
        "label": "mapping(address => address)",
        "numberOfBytes": "32",
        "value": "t_address"
      },
      "t_uint256": {
        "encoding": "inplace",
        "label": "uint256",
        "numberOfBytes": "32"
      }
    }
  }
}