{
  "address": "0x52cD28844E5878c131754713610724910e6e3058",
  "abi": [
    {
      "inputs": [
        {
          "internalType": "contract StorageInterface",
          "name": "_storageT",
          "type": "address"
        },
        {
          "internalType": "contract NftRewardsInterfaceV6_3_1",
          "name": "_nftRewards",
          "type": "address"
        },
        {
          "internalType": "contract PairInfosInterface",
          "name": "_pairInfos",
          "type": "address"
        },
        {
          "internalType": "contract ReferralsInterface",
          "name": "_referrals",
          "type": "address"
        },
        {
          "internalType": "contract BorrowingFeesInterface",
          "name": "_borrowingFees",
          "type": "address"
        },
        {
          "internalType": "uint256",
          "name": "_maxPosWETH",
          "type": "uint256"
        },
        {
          "internalType": "uint256",
          "name": "_marketOrdersTimeout",
          "type": "uint256"
        }
      ],
      "stateMutability": "nonpayable",
      "type": "constructor"
    },
    {
      "anonymous": false,
      "inputs": [
        {
          "indexed": true,
          "internalType": "uint256",
          "name": "orderId",
          "type": "uint256"
        },
        {
          "components": [
            {
              "components": [
                {
                  "internalType": "address",
                  "name": "trader",
                  "type": "address"
                },
                {
                  "internalType": "uint256",
                  "name": "pairIndex",
                  "type": "uint256"
                },
                {
                  "internalType": "uint256",
                  "name": "index",
                  "type": "uint256"
                },
                {
                  "internalType": "uint256",
                  "name": "initialPosToken",
                  "type": "uint256"
                },
                {
                  "internalType": "uint256",
                  "name": "positionSizeWETH",
                  "type": "uint256"
                },
                {
                  "internalType": "uint256",
                  "name": "openPrice",
                  "type": "uint256"
                },
                {
                  "internalType": "bool",
                  "name": "buy",
                  "type": "bool"
                },
                {
                  "internalType": "uint256",
                  "name": "leverage",
                  "type": "uint256"
                },
                {
                  "internalType": "uint256",
                  "name": "tp",
                  "type": "uint256"
                },
                {
                  "internalType": "uint256",
                  "name": "sl",
                  "type": "uint256"
                }
              ],
              "internalType": "struct StorageInterface.Trade",
              "name": "trade",
              "type": "tuple"
            },
            {
              "internalType": "uint256",
              "name": "block",
              "type": "uint256"
            },
            {
              "internalType": "uint256",
              "name": "wantedPrice",
              "type": "uint256"
            },
            {
              "internalType": "uint256",
              "name": "slippageP",
              "type": "uint256"
            },
            {
              "internalType": "uint256",
              "name": "spreadReductionP",
              "type": "uint256"
            },
            {
              "internalType": "uint256",
              "name": "tokenId",
              "type": "uint256"
            }
          ],
          "indexed": false,
          "internalType": "struct StorageInterface.PendingMarketOrder",
          "name": "order",
          "type": "tuple"
        }
      ],
      "name": "ChainlinkCallbackTimeout",
      "type": "event"
    },
    {
      "anonymous": false,
      "inputs": [
        {
          "indexed": true,
          "internalType": "address",
          "name": "trader",
          "type": "address"
        },
        {
          "indexed": true,
          "internalType": "uint256",
          "name": "pairIndex",
          "type": "uint256"
        },
        {
          "indexed": false,
          "internalType": "uint256",
          "name": "index",
          "type": "uint256"
        }
      ],
      "name": "CouldNotCloseTrade",
      "type": "event"
    },
    {
      "anonymous": false,
      "inputs": [
        {
          "indexed": false,
          "internalType": "bool",
          "name": "done",
          "type": "bool"
        }
      ],
      "name": "Done",
      "type": "event"
    },
    {
      "anonymous": false,
      "inputs": [
        {
          "indexed": true,
          "internalType": "uint256",
          "name": "orderId",
          "type": "uint256"
        },
        {
          "indexed": true,
          "internalType": "address",
          "name": "trader",
          "type": "address"
        },
        {
          "indexed": true,
          "internalType": "uint256",
          "name": "pairIndex",
          "type": "uint256"
        },
        {
          "indexed": false,
          "internalType": "bool",
          "name": "open",
          "type": "bool"
        }
      ],
      "name": "MarketOrderInitiated",
      "type": "event"
    },
    {
      "anonymous": false,
      "inputs": [
        {
          "indexed": false,
          "internalType": "uint256",
          "name": "orderId",
          "type": "uint256"
        },
        {
          "indexed": true,
          "internalType": "address",
          "name": "nftHolder",
          "type": "address"
        },
        {
          "indexed": true,
          "internalType": "address",
          "name": "trader",
          "type": "address"
        },
        {
          "indexed": true,
          "internalType": "uint256",
          "name": "pairIndex",
          "type": "uint256"
        }
      ],
      "name": "NftOrderInitiated",
      "type": "event"
    },
    {
      "anonymous": false,
      "inputs": [
        {
          "indexed": true,
          "internalType": "address",
          "name": "nftHolder",
          "type": "address"
        },
        {
          "indexed": true,
          "internalType": "address",
          "name": "trader",
          "type": "address"
        },
        {
          "indexed": true,
          "internalType": "uint256",
          "name": "pairIndex",
          "type": "uint256"
        }
      ],
      "name": "NftOrderSameBlock",
      "type": "event"
    },
    {
      "anonymous": false,
      "inputs": [
        {
          "indexed": false,
          "internalType": "string",
          "name": "name",
          "type": "string"
        },
        {
          "indexed": false,
          "internalType": "uint256",
          "name": "value",
          "type": "uint256"
        }
      ],
      "name": "NumberUpdated",
      "type": "event"
    },
    {
      "anonymous": false,
      "inputs": [
        {
          "indexed": true,
          "internalType": "address",
          "name": "trader",
          "type": "address"
        },
        {
          "indexed": true,
          "internalType": "uint256",
          "name": "pairIndex",
          "type": "uint256"
        },
        {
          "indexed": false,
          "internalType": "uint256",
          "name": "index",
          "type": "uint256"
        }
      ],
      "name": "OpenLimitCanceled",
      "type": "event"
    },
    {
      "anonymous": false,
      "inputs": [
        {
          "indexed": true,
          "internalType": "address",
          "name": "trader",
          "type": "address"
        },
        {
          "indexed": true,
          "internalType": "uint256",
          "name": "pairIndex",
          "type": "uint256"
        },
        {
          "indexed": false,
          "internalType": "uint256",
          "name": "index",
          "type": "uint256"
        }
      ],
      "name": "OpenLimitPlaced",
      "type": "event"
    },
    {
      "anonymous": false,
      "inputs": [
        {
          "indexed": true,
          "internalType": "address",
          "name": "trader",
          "type": "address"
        },
        {
          "indexed": true,
          "internalType": "uint256",
          "name": "pairIndex",
          "type": "uint256"
        },
        {
          "indexed": false,
          "internalType": "uint256",
          "name": "index",
          "type": "uint256"
        },
        {
          "indexed": false,
          "internalType": "uint256",
          "name": "newPrice",
          "type": "uint256"
        },
        {
          "indexed": false,
          "internalType": "uint256",
          "name": "newTp",
          "type": "uint256"
        },
        {
          "indexed": false,
          "internalType": "uint256",
          "name": "newSl",
          "type": "uint256"
        },
        {
          "indexed": false,
          "internalType": "uint256",
          "name": "maxSlippageP",
          "type": "uint256"
        }
      ],
      "name": "OpenLimitUpdated",
      "type": "event"
    },
    {
      "anonymous": false,
      "inputs": [
        {
          "indexed": false,
          "internalType": "bool",
          "name": "paused",
          "type": "bool"
        }
      ],
      "name": "Paused",
      "type": "event"
    },
    {
      "anonymous": false,
      "inputs": [
        {
          "indexed": true,
          "internalType": "address",
          "name": "trader",
          "type": "address"
        },
        {
          "indexed": true,
          "internalType": "uint256",
          "name": "pairIndex",
          "type": "uint256"
        },
        {
          "indexed": false,
          "internalType": "uint256",
          "name": "index",
          "type": "uint256"
        },
        {
          "indexed": false,
          "internalType": "uint256",
          "name": "newSl",
          "type": "uint256"
        }
      ],
      "name": "SlUpdated",
      "type": "event"
    },
    {
      "anonymous": false,
      "inputs": [
        {
          "indexed": true,
          "internalType": "address",
          "name": "trader",
          "type": "address"
        },
        {
          "indexed": true,
          "internalType": "uint256",
          "name": "pairIndex",
          "type": "uint256"
        },
        {
          "indexed": false,
          "internalType": "uint256",
          "name": "index",
          "type": "uint256"
        },
        {
          "indexed": false,
          "internalType": "uint256",
          "name": "newTp",
          "type": "uint256"
        }
      ],
      "name": "TpUpdated",
      "type": "event"
    },
    {
      "inputs": [],
      "name": "_msgSender",
      "outputs": [
        {
          "internalType": "address",
          "name": "",
          "type": "address"
        }
      ],
      "stateMutability": "view",
      "type": "function"
    },
    {
      "inputs": [],
      "name": "borrowingFees",
      "outputs": [
        {
          "internalType": "contract BorrowingFeesInterface",
          "name": "",
          "type": "address"
        }
      ],
      "stateMutability": "view",
      "type": "function"
    },
    {
      "inputs": [
        {
          "internalType": "uint256",
          "name": "pairIndex",
          "type": "uint256"
        },
        {
          "internalType": "uint256",
          "name": "index",
          "type": "uint256"
        }
      ],
      "name": "closeTradeMarket",
      "outputs": [],
      "stateMutability": "nonpayable",
      "type": "function"
    },
    {
      "inputs": [
        {
          "internalType": "uint256",
          "name": "_order",
          "type": "uint256"
        }
      ],
      "name": "closeTradeMarketTimeout",
      "outputs": [],
      "stateMutability": "nonpayable",
      "type": "function"
    },
    {
      "inputs": [
        {
          "internalType": "address",
          "name": "trader",
          "type": "address"
        },
        {
          "internalType": "bytes",
          "name": "call_data",
          "type": "bytes"
        }
      ],
      "name": "delegatedAction",
      "outputs": [
        {
          "internalType": "bytes",
          "name": "",
          "type": "bytes"
        }
      ],
      "stateMutability": "nonpayable",
      "type": "function"
    },
    {
      "inputs": [
        {
          "internalType": "address",
          "name": "",
          "type": "address"
        }
      ],
      "name": "delegations",
      "outputs": [
        {
          "internalType": "address",
          "name": "",
          "type": "address"
        }
      ],
      "stateMutability": "view",
      "type": "function"
    },
    {
      "inputs": [],
      "name": "done",
      "outputs": [],
      "stateMutability": "nonpayable",
      "type": "function"
    },
    {
      "inputs": [],
      "name": "isDone",
      "outputs": [
        {
          "internalType": "bool",
          "name": "",
          "type": "bool"
        }
      ],
      "stateMutability": "view",
      "type": "function"
    },
    {
      "inputs": [],
      "name": "isPaused",
      "outputs": [
        {
          "internalType": "bool",
          "name": "",
          "type": "bool"
        }
      ],
      "stateMutability": "view",
      "type": "function"
    },
    {
      "inputs": [],
      "name": "marketOrdersTimeout",
      "outputs": [
        {
          "internalType": "uint256",
          "name": "",
          "type": "uint256"
        }
      ],
      "stateMutability": "view",
      "type": "function"
    },
    {
      "inputs": [],
      "name": "maxPosWETH",
      "outputs": [
        {
          "internalType": "uint256",
          "name": "",
          "type": "uint256"
        }
      ],
      "stateMutability": "view",
      "type": "function"
    },
    {
      "inputs": [],
      "name": "nftRewards",
      "outputs": [
        {
          "internalType": "contract NftRewardsInterfaceV6_3_1",
          "name": "",
          "type": "address"
        }
      ],
      "stateMutability": "view",
      "type": "function"
    },
    {
      "inputs": [
        {
          "components": [
            {
              "internalType": "address",
              "name": "trader",
              "type": "address"
            },
            {
              "internalType": "uint256",
              "name": "pairIndex",
              "type": "uint256"
            },
            {
              "internalType": "uint256",
              "name": "index",
              "type": "uint256"
            },
            {
              "internalType": "uint256",
              "name": "initialPosToken",
              "type": "uint256"
            },
            {
              "internalType": "uint256",
              "name": "positionSizeWETH",
              "type": "uint256"
            },
            {
              "internalType": "uint256",
              "name": "openPrice",
              "type": "uint256"
            },
            {
              "internalType": "bool",
              "name": "buy",
              "type": "bool"
            },
            {
              "internalType": "uint256",
              "name": "leverage",
              "type": "uint256"
            },
            {
              "internalType": "uint256",
              "name": "tp",
              "type": "uint256"
            },
            {
              "internalType": "uint256",
              "name": "sl",
              "type": "uint256"
            }
          ],
          "internalType": "struct StorageInterface.Trade",
          "name": "t",
          "type": "tuple"
        },
        {
          "internalType": "enum NftRewardsInterfaceV6_3_1.OpenLimitOrderType",
          "name": "orderType",
          "type": "uint8"
        },
        {
          "internalType": "uint256",
          "name": "spreadReductionId",
          "type": "uint256"
        },
        {
          "internalType": "uint256",
          "name": "slippageP",
          "type": "uint256"
        }
      ],
      "name": "openTrade",
      "outputs": [],
      "stateMutability": "nonpayable",
      "type": "function"
    },
    {
      "inputs": [
        {
          "internalType": "uint256",
          "name": "_order",
          "type": "uint256"
        }
      ],
      "name": "openTradeMarketTimeout",
      "outputs": [],
      "stateMutability": "nonpayable",
      "type": "function"
    },
    {
      "inputs": [],
      "name": "pairInfos",
      "outputs": [
        {
          "internalType": "contract PairInfosInterface",
          "name": "",
          "type": "address"
        }
      ],
      "stateMutability": "view",
      "type": "function"
    },
    {
      "inputs": [],
      "name": "pause",
      "outputs": [],
      "stateMutability": "nonpayable",
      "type": "function"
    },
    {
      "inputs": [],
      "name": "referrals",
      "outputs": [
        {
          "internalType": "contract ReferralsInterface",
          "name": "",
          "type": "address"
        }
      ],
      "stateMutability": "view",
      "type": "function"
    },
    {
      "inputs": [],
      "name": "removeDelegate",
      "outputs": [],
      "stateMutability": "nonpayable",
      "type": "function"
    },
    {
      "inputs": [
        {
          "internalType": "address",
          "name": "delegate",
          "type": "address"
        }
      ],
      "name": "setDelegate",
      "outputs": [],
      "stateMutability": "nonpayable",
      "type": "function"
    },
    {
      "inputs": [
        {
          "internalType": "uint256",
          "name": "value",
          "type": "uint256"
        }
      ],
      "name": "setMarketOrdersTimeout",
      "outputs": [],
      "stateMutability": "nonpayable",
      "type": "function"
    },
    {
      "inputs": [
        {
          "internalType": "uint256",
          "name": "value",
          "type": "uint256"
        }
      ],
      "name": "setMaxPosWETH",
      "outputs": [],
      "stateMutability": "nonpayable",
      "type": "function"
    },
    {
      "inputs": [],
      "name": "storageT",
      "outputs": [
        {
          "internalType": "contract StorageInterface",
          "name": "",
          "type": "address"
        }
      ],
      "stateMutability": "view",
      "type": "function"
    },
    {
      "inputs": [
        {
          "internalType": "uint256",
          "name": "pairIndex",
          "type": "uint256"
        },
        {
          "internalType": "uint256",
          "name": "index",
          "type": "uint256"
        },
        {
          "internalType": "uint256",
          "name": "newSl",
          "type": "uint256"
        }
      ],
      "name": "updateSl",
      "outputs": [],
      "stateMutability": "nonpayable",
      "type": "function"
    },
    {
      "inputs": [
        {
          "internalType": "uint256",
          "name": "pairIndex",
          "type": "uint256"
        },
        {
          "internalType": "uint256",
          "name": "index",
          "type": "uint256"
        },
        {
          "internalType": "uint256",
          "name": "newTp",
          "type": "uint256"
        }
      ],
      "name": "updateTp",
      "outputs": [],
      "stateMutability": "nonpayable",
      "type": "function"
    }
  ],
  "transactionHash": "0xf89ad66ba9ea0f39604fadb733a6465627bc1d7161c86476b2f617c7b072cd86",
  "args": [
    "0xAeA4a53767A6B802EABCD21031Ad0e3C3f3Fe2a0",
    "0xB6B84Cd3aC6ab73Bf5D9093Ebc819Dc954b3B42b",
    "0x5ca03CC0785eec79589BFBB0d992Cde6F96A0BDD",
    "0x41aBB7Eb9b2b47616C01cab3B3acE156B0569B23",
    "0x434fEb74a0bdcb68FfF84819DF52C81a7C74194e",
    "1500000000000000000000",
    2
  ],
  "numDeployments": 1,
  "solcInputHash": "3cd688277441e319231de487c3cf539d",
  "bytecode": "0x6101206040523480156200001257600080fd5b50604051620034153803806200341583398101604081905262000035916200013e565b6001600160a01b038716158015906200005657506001600160a01b03861615155b80156200006b57506001600160a01b03851615155b80156200008057506001600160a01b03841615155b80156200009557506001600160a01b03831615155b8015620000a25750600082115b8015620000af5750600081115b620000ef5760405162461bcd60e51b815260206004820152600c60248201526b57524f4e475f504152414d5360a01b604482015260640160405180910390fd5b6001600160a01b0396871660805294861660a05292851660c05290841660e05290921661010052600291909155600355620001d1565b6001600160a01b03811681146200013b57600080fd5b50565b600080600080600080600060e0888a0312156200015a57600080fd5b8751620001678162000125565b60208901519097506200017a8162000125565b60408901519096506200018d8162000125565b6060890151909550620001a08162000125565b6080890151909450620001b38162000125565b8093505060a0880151915060c0880151905092959891949750929550565b60805160a05160c05160e0516101005161312d620002e860003960006102230152600061038701526000818161018701528181610cc20152610d870152600061024a0152600081816101ae0152818161055101528181610647015281816106e30152818161077501528181610807015281816108d60152818161097501528181610e8001528181610fa4015281816111b1015281816112d901528181611359015281816114480152818161156e01528181611859015281816118ef0152818161198201528181611a2101528181611b1a01528181611c4c01528181611eaf01528181612022015281816120910152818161226d0152818161233a015281816123a9015281816124fa0152612619015261312d6000f3fe608060405234801561001057600080fd5b50600436106101585760003560e01c8063990382cf116100c3578063b81bfa051161007c578063b81bfa0514610320578063be73fb9914610333578063bffe348614610346578063ca5eb5e11461036f578063d3dc753914610382578063d8defd15146103a957600080fd5b8063990382cf146102bc5780639a10cc32146102cf578063a2a3c0cb146102ef578063ae8421e114610302578063b187bd261461030a578063b1dfd5301461031757600080fd5b8063531cc96511610115578063531cc9651461021e5780635ad9f9931461024557806368cd50881461026c5780638456cb591461027f578063876d3abd146102875780638f0622271461029a57600080fd5b8063119df25f1461015d5780631346b0ff1461018257806316fff074146101a95780632c1e4e55146101d057806336fb8b15146101e5578063410c0b7c14610207575b600080fd5b6101656103bc565b6040516001600160a01b0390911681526020015b60405180910390f35b6101657f000000000000000000000000000000000000000000000000000000000000000081565b6101657f000000000000000000000000000000000000000000000000000000000000000081565b6101e36101de366004612810565b6103e4565b005b6101e333600090815260208190526040902080546001600160a01b0319169055565b61021060035481565b604051908152602001610179565b6101657f000000000000000000000000000000000000000000000000000000000000000081565b6101657f000000000000000000000000000000000000000000000000000000000000000081565b6101e361027a3660046128dc565b610475565b6101e361111d565b6101e3610295366004612810565b611173565b6004546102ac90610100900460ff1681565b6040519015158152602001610179565b6101e36102ca366004612810565b61140a565b6102e26102dd3660046129a6565b6116fe565b6040516101799190612a7b565b6101e36102fd366004612a95565b611839565b6101e3611da5565b6004546102ac9060ff1681565b61021060025481565b6101e361032e366004612810565b611e05565b6101e3610341366004612ab7565b611e8f565b610165610354366004612ae3565b6000602081905290815260409020546001600160a01b031681565b6101e361037d366004612ae3565b6121e1565b6101657f000000000000000000000000000000000000000000000000000000000000000081565b6101e36103b7366004612ab7565b61224d565b6001546000906001600160a01b03166103d457503390565b506001546001600160a01b031690565b6103ec6124f8565b600081116104155760405162461bcd60e51b815260040161040c90612b00565b60405180910390fd5b600281905560408051818152600a91810191909152690dac2f0a0dee6ae8aa8960b31b6060820152602081018290527f8cf3e35f6221b16e1670a3413180c9484bf5aa71787905909fa82a6a2662e9ab906080015b60405180910390a150565b61047d6125c7565b6104856125d3565b60045460ff16156104c15760405162461bcd60e51b815260206004820152600660248201526514105554d15160d21b604482015260640161040c565b600019818560a001516104d49190612b37565b1061050c5760405162461bcd60e51b81526020600482015260086024820152674f564552464c4f5760c01b604482015260640161040c565b60008460a001511161054d5760405162461bcd60e51b815260206004820152600a60248201526950524943455f5a45524f60b01b604482015260640161040c565b60007f00000000000000000000000000000000000000000000000000000000000000006001600160a01b0316633078fff56040518163ffffffff1660e01b8152600401602060405180830381865afa1580156105ad573d6000803e3d6000fd5b505050506040513d601f19601f820116820180604052508101906105d19190612b4e565b90506000816001600160a01b03166335b03c176040518163ffffffff1660e01b8152600401602060405180830381865afa158015610613573d6000803e3d6000fd5b505050506040513d601f19601f820116820180604052508101906106379190612b4e565b905060006106436103bc565b90507f00000000000000000000000000000000000000000000000000000000000000006001600160a01b031663f65d9dbe6040518163ffffffff1660e01b8152600401602060405180830381865afa1580156106a3573d6000803e3d6000fd5b505050506040513d601f19601f820116820180604052508101906106c79190612b6b565b6020880151604051634bf3ccad60e11b81526001600160a01b037f000000000000000000000000000000000000000000000000000000000000000016916397e7995a91610718918691600401612b84565b602060405180830381865afa158015610735573d6000803e3d6000fd5b505050506040513d601f19601f820116820180604052508101906107599190612b6b565b6020890151604051639c8912f160e01b81526001600160a01b037f00000000000000000000000000000000000000000000000000000000000000001691639c8912f1916107aa918791600401612b84565b602060405180830381865afa1580156107c7573d6000803e3d6000fd5b505050506040513d601f19601f820116820180604052508101906107eb9190612b6b565b60208a01516040516307218dad60e21b81526001600160a01b037f00000000000000000000000000000000000000000000000000000000000000001691631c8636b49161083c918891600401612b84565b602060405180830381865afa158015610859573d6000803e3d6000fd5b505050506040513d601f19601f8201168201806040525081019061087d9190612b6b565b6108879190612b9d565b6108919190612b9d565b106108d45760405162461bcd60e51b815260206004820152601360248201527226a0ac2faa2920a222a9afa822a92fa820a4a960691b604482015260640161040c565b7f00000000000000000000000000000000000000000000000000000000000000006001600160a01b0316638049fde76040518163ffffffff1660e01b8152600401602060405180830381865afa158015610932573d6000803e3d6000fd5b505050506040513d601f19601f820116820180604052508101906109569190612b6b565b60405163f7b3c6fd60e01b81526001600160a01b0383811660048301527f0000000000000000000000000000000000000000000000000000000000000000169063f7b3c6fd90602401602060405180830381865afa1580156109bc573d6000803e3d6000fd5b505050506040513d601f19601f820116820180604052508101906109e09190612b6b565b106109fd5760405162461bcd60e51b815260040161040c90612bb0565b60025487608001511115610a435760405162461bcd60e51b815260206004820152600d60248201526c41424f56455f4d41585f504f5360981b604482015260640161040c565b602087015160405163601e3b6b60e11b815260048101919091526001600160a01b0383169063c03c76d690602401602060405180830381865afa158015610a8e573d6000803e3d6000fd5b505050506040513d601f19601f82011682018060405250810190610ab29190612b6b565b8760e001518860800151610ac69190612b37565b1015610b045760405162461bcd60e51b815260206004820152600d60248201526c42454c4f575f4d494e5f504f5360981b604482015260640161040c565b60008760e00151118015610b8a5750602087015160405163059a992d60e41b815260048101919091526001600160a01b038316906359a992d090602401602060405180830381865afa158015610b5e573d6000803e3d6000fd5b505050506040513d601f19601f82011682018060405250810190610b829190612b6b565b8760e0015110155b8015610ba75750610b9f828860200151612614565b8760e0015111155b610be85760405162461bcd60e51b815260206004820152601260248201527113115591549051d157d25390d3d4949150d560721b604482015260640161040c565b6101008701511580610c1c57508660c00151610c0f578660a0015187610100015110610c1c565b8660a00151876101000151115b610c535760405162461bcd60e51b8152602060048201526008602482015267057524f4e475f54560c41b604482015260640161040c565b6101208701511580610c8757508660c00151610c7a578660a0015187610120015111610c87565b8660a00151876101200151105b610cbe5760405162461bcd60e51b815260206004820152600860248201526715d493d391d7d4d360c21b604482015260640161040c565b60007f00000000000000000000000000000000000000000000000000000000000000006001600160a01b0316637ea95f3260008a602001518b60c001518c60e001518d60800151610d0f9190612b37565b6040516001600160e01b031960e087901b168152600481019490945260248401929092521515604483015260648201526084016040805180830381865afa158015610d5e573d6000803e3d6000fd5b505050506040513d601f19601f82011682018060405250810190610d829190612bdc565b5090507f00000000000000000000000000000000000000000000000000000000000000006001600160a01b03166380f6cfc26040518163ffffffff1660e01b8152600401602060405180830381865afa158015610de3573d6000803e3d6000fd5b505050506040513d601f19601f82011682018060405250810190610e079190612b6b565b60e0890151610e169083612b37565b1115610e5c5760405162461bcd60e51b81526020600482015260156024820152740a0a492868abe929aa08286a8bea89e9ebe90928e9605b1b604482015260640161040c565b6080880151604051638a238ae560e01b81526001600160a01b0384811660048301527f000000000000000000000000000000000000000000000000000000000000000016602482018190526044820192909252638a238ae590606401600060405180830381600087803b158015610ed257600080fd5b505af1158015610ee6573d6000803e3d6000fd5b5060009250610ef3915050565b876002811115610f0557610f05612c00565b03611113576000846001600160a01b0316636938c05d8a6020015160008c60e001518d60800151610f369190612b37565b610f3e61278a565b6040518563ffffffff1660e01b8152600401610f5d9493929190612c16565b6020604051808303816000875af1158015610f7c573d6000803e3d6000fd5b505050506040513d601f19601f82011682018060405250810190610fa09190612b6b565b90507f00000000000000000000000000000000000000000000000000000000000000006001600160a01b031663c76faf786040518060c00160405280604051806101400160405280886001600160a01b031681526020018e60200151815260200160008152602001600081526020018e608001518152602001600081526020018e60c00151151581526020018e60e0015181526020018e610100015181526020018e61012001518152508152602001600081526020018c60a0015181526020018981526020016000815260200160008152508360016040518463ffffffff1660e01b815260040161109393929190612cf6565b600060405180830381600087803b1580156110ad57600080fd5b505af11580156110c1573d6000803e3d6000fd5b505050508860200151836001600160a01b0316827f3e544118c04e3bb18b669475695cd270ba0e41fb13177483f01c14222de62a866001604051611109911515815260200190565b60405180910390a4505b5050505050505050565b6111256124f8565b6004805460ff8082161560ff1990921682179092556040519116151581527f0e2fb031ee032dc02d8011dc50b816eb450cf856abd8261680dac74f72165bd2906020015b60405180910390a1565b61117b6125c7565b6111836125d3565b600061118d6103bc565b60405163b66e6b0560e01b8152600481018490529091506000906001600160a01b037f0000000000000000000000000000000000000000000000000000000000000000169063b66e6b05906024016101e060405180830381865afa1580156111f9573d6000803e3d6000fd5b505050506040513d601f19601f8201168201806040525081019061121d9190612dc6565b805160208201519192509015801590611247575060035482602001516112439190612b9d565b4310155b6112635760405162461bcd60e51b815260040161040c90612e2b565b826001600160a01b031681600001516001600160a01b0316146112985760405162461bcd60e51b815260040161040c90612e51565b60008160e00151116112bc5760405162461bcd60e51b815260040161040c90612e79565b604051630195728b60e71b815260048101859052600160248201527f00000000000000000000000000000000000000000000000000000000000000006001600160a01b03169063cab9458090604401600060405180830381600087803b15801561132557600080fd5b505af1158015611339573d6000803e3d6000fd5b505050506080810151604051638a238ae560e01b81526001600160a01b037f000000000000000000000000000000000000000000000000000000000000000081166004830181905290861660248301526044820192909252638a238ae590606401600060405180830381600087803b1580156113b457600080fd5b505af11580156113c8573d6000803e3d6000fd5b50505050837f3adaa586cdbe84dd24e45bd7dada6da933d7c2d1c7b4e4cd02fce033356decb1836040516113fc9190612eaa565b60405180910390a250505050565b6114126125c7565b61141a6125d3565b60006114246103bc565b60405163b66e6b0560e01b8152600481018490529091506000906001600160a01b037f0000000000000000000000000000000000000000000000000000000000000000169063b66e6b05906024016101e060405180830381865afa158015611490573d6000803e3d6000fd5b505050506040513d601f19601f820116820180604052508101906114b49190612dc6565b8051602082015191925090158015906114de575060035482602001516114da9190612b9d565b4310155b6114fa5760405162461bcd60e51b815260040161040c90612e2b565b826001600160a01b031681600001516001600160a01b03161461152f5760405162461bcd60e51b815260040161040c90612e51565b60e0810151156115515760405162461bcd60e51b815260040161040c90612e79565b604051630195728b60e71b815260048101859052600060248201527f00000000000000000000000000000000000000000000000000000000000000006001600160a01b03169063cab9458090604401600060405180830381600087803b1580156115ba57600080fd5b505af11580156115ce573d6000803e3d6000fd5b505050602082015160408084015190516024810192909252604482015260009150309060640160408051601f198184030181529181526020820180516001600160e01b031663a2a3c0cb60e01b179052516116299190612eb9565b600060405180830381855af49150503d8060008114611664576040519150601f19603f3d011682016040523d82523d6000602084013e611669565b606091505b50509050806116bf578160200151846001600160a01b03167f60e497734ddabcd7293fd91739aaf65cf525eb539c97be528125a235a89288d884604001516040516116b691815260200190565b60405180910390a35b847f3adaa586cdbe84dd24e45bd7dada6da933d7c2d1c7b4e4cd02fce033356decb1846040516116ef9190612eaa565b60405180910390a25050505050565b6001600160a01b038381166000908152602081905260409020546060911633146117625760405162461bcd60e51b81526020600482015260156024820152741111531151d0551157d393d517d054141493d59151605a1b604482015260640161040c565b600180546001600160a01b0319166001600160a01b038616179055604051600090819030906117949087908790612ed5565b600060405180830381855af49150503d80600081146117cf576040519150601f19603f3d011682016040523d82523d6000602084013e6117d4565b606091505b509150915081611820576044815110156117ed57600080fd5b600481019050808060200190518101906118079190612ee5565b60405162461bcd60e51b815260040161040c9190612a7b565b600180546001600160a01b031916905595945050505050565b6118416125c7565b6118496125d3565b60006118536103bc565b905060007f00000000000000000000000000000000000000000000000000000000000000006001600160a01b031663a3a80ffe8386866040518463ffffffff1660e01b81526004016118a793929190612f92565b61014060405180830381865afa1580156118c5573d6000803e3d6000fd5b505050506040513d601f19601f820116820180604052508101906118e99190612fb3565b905060007f00000000000000000000000000000000000000000000000000000000000000006001600160a01b0316638c8ff1d58487876040518463ffffffff1660e01b815260040161193d93929190612f92565b60c060405180830381865afa15801561195a573d6000803e3d6000fd5b505050506040513d601f19601f8201168201806040525081019061197e9190612fd0565b90507f00000000000000000000000000000000000000000000000000000000000000006001600160a01b0316638049fde76040518163ffffffff1660e01b8152600401602060405180830381865afa1580156119de573d6000803e3d6000fd5b505050506040513d601f19601f82011682018060405250810190611a029190612b6b565b60405163f7b3c6fd60e01b81526001600160a01b0385811660048301527f0000000000000000000000000000000000000000000000000000000000000000169063f7b3c6fd90602401602060405180830381865afa158015611a68573d6000803e3d6000fd5b505050506040513d601f19601f82011682018060405250810190611a8c9190612b6b565b10611aa95760405162461bcd60e51b815260040161040c90612bb0565b8060a0015115611af25760405162461bcd60e51b81526020600482015260146024820152731053149150511657d091525391d7d0d313d4d15160621b604482015260640161040c565b60008260e0015111611b165760405162461bcd60e51b815260040161040c90613030565b60007f00000000000000000000000000000000000000000000000000000000000000006001600160a01b0316633078fff56040518163ffffffff1660e01b8152600401602060405180830381865afa158015611b76573d6000803e3d6000fd5b505050506040513d601f19601f82011682018060405250810190611b9a9190612b4e565b6001600160a01b0316636938c05d8760016402540be4008760e0015187602001518960600151611bca9190612b37565b611bd49190612b37565b611bde9190613052565b611be661278a565b6040518563ffffffff1660e01b8152600401611c059493929190612c16565b6020604051808303816000875af1158015611c24573d6000803e3d6000fd5b505050506040513d601f19601f82011682018060405250810190611c489190612b6b565b90507f00000000000000000000000000000000000000000000000000000000000000006001600160a01b031663c76faf786040518060c00160405280604051806101400160405280896001600160a01b031681526020018b81526020018a81526020016000815260200160008152602001600081526020016000151581526020016000815260200160008152602001600081525081526020016000815260200160008152602001600081526020016000815260200160008152508360006040518463ffffffff1660e01b8152600401611d2393929190612cf6565b600060405180830381600087803b158015611d3d57600080fd5b505af1158015611d51573d6000803e3d6000fd5b5050505085846001600160a01b0316827f3e544118c04e3bb18b669475695cd270ba0e41fb13177483f01c14222de62a866000604051611d95911515815260200190565b60405180910390a4505050505050565b611dad6124f8565b6004805460ff610100808304821615810261ff001990931692909217928390556040517fc3a6f986261de9467c2838c6df8ef74f9107855159205600c0bc7a14cdfd3888936111699390049091161515815260200190565b611e0d6124f8565b60008111611e2d5760405162461bcd60e51b815260040161040c90612b00565b600381905560408051818152601391810191909152721b585c9ad95d13dc99195c9cd51a5b595bdd5d606a1b6060820152602081018290527f8cf3e35f6221b16e1670a3413180c9484bf5aa71787905909fa82a6a2662e9ab9060800161046a565b611e976125c7565b611e9f6125d3565b6000611ea96103bc565b905060007f00000000000000000000000000000000000000000000000000000000000000006001600160a01b031663a3a80ffe8387876040518463ffffffff1660e01b8152600401611efd93929190612f92565b61014060405180830381865afa158015611f1b573d6000803e3d6000fd5b505050506040513d601f19601f82011682018060405250810190611f3f9190612fb3565b905060008160e0015111611f655760405162461bcd60e51b815260040161040c90613030565b60008160e001516064604b8460a00151611f7f9190612b37565b611f899190613052565b611f939190613052565b9050831580611fd257508160c00151611fbe57808260a00151611fb69190612b9d565b841115611fd2565b808260a00151611fce9190613074565b8410155b61200b5760405162461bcd60e51b815260206004820152600a602482015269534c5f544f4f5f42494760b01b604482015260640161040c565b60405163a354418160e01b81526001600160a01b037f0000000000000000000000000000000000000000000000000000000000000000169063a35441819061205d9086908a908a908a90600401613087565b600060405180830381600087803b15801561207757600080fd5b505af115801561208b573d6000803e3d6000fd5b505050507f00000000000000000000000000000000000000000000000000000000000000006001600160a01b031662b127836040518163ffffffff1660e01b8152600401602060405180830381865afa1580156120ec573d6000803e3d6000fd5b505050506040513d601f19601f820116820180604052508101906121109190612b4e565b6001600160a01b031673Ba9b2F1D565A4BF8cF945a404898E548e2921442633c63a7d09091858989600061214261278a565b6040518763ffffffff1660e01b8152600401612163969594939291906130ad565b60006040518083038186803b15801561217b57600080fd5b505af415801561218f573d6000803e3d6000fd5b505060408051888152602081018890528993506001600160a01b03871692507f1fc4a6c7ffe506697979b8ed54dc4135cd1ecd26a2745f70b760a2492222b316910160405180910390a3505050505050565b32331461221e5760405162461bcd60e51b815260206004820152600b60248201526a1393d7d0d3d395149050d560aa1b604482015260640161040c565b33600090815260208190526040902080546001600160a01b0319166001600160a01b0392909216919091179055565b6122556125c7565b61225d6125d3565b60006122676103bc565b905060007f00000000000000000000000000000000000000000000000000000000000000006001600160a01b031663a3a80ffe8387876040518463ffffffff1660e01b81526004016122bb93929190612f92565b61014060405180830381865afa1580156122d9573d6000803e3d6000fd5b505050506040513d601f19601f820116820180604052508101906122fd9190612fb3565b905060008160e00151116123235760405162461bcd60e51b815260040161040c90613030565b604051637fdb96f360e01b81526001600160a01b037f00000000000000000000000000000000000000000000000000000000000000001690637fdb96f390612375908590899089908990600401613087565b600060405180830381600087803b15801561238f57600080fd5b505af11580156123a3573d6000803e3d6000fd5b505050507f00000000000000000000000000000000000000000000000000000000000000006001600160a01b031662b127836040518163ffffffff1660e01b8152600401602060405180830381865afa158015612404573d6000803e3d6000fd5b505050506040513d601f19601f820116820180604052508101906124289190612b4e565b6001600160a01b031673Ba9b2F1D565A4BF8cF945a404898E548e2921442638fff7d829091848888600061245a61278a565b6040518763ffffffff1660e01b815260040161247b969594939291906130ad565b60006040518083038186803b15801561249357600080fd5b505af41580156124a7573d6000803e3d6000fd5b505060408051878152602081018790528893506001600160a01b03861692507f7e06a81c7a47891ccc7455b5ccb2ed850e32bb655ccda67eb3ebaaeed83242a4910160405180910390a35050505050565b7f00000000000000000000000000000000000000000000000000000000000000006001600160a01b03166312d43a516040518163ffffffff1660e01b8152600401602060405180830381865afa158015612556573d6000803e3d6000fd5b505050506040513d601f19601f8201168201806040525081019061257a9190612b4e565b6001600160a01b0316336001600160a01b0316146125c55760405162461bcd60e51b8152602060048201526008602482015267474f565f4f4e4c5960c01b604482015260640161040c565b565b3233146125c557600080fd5b600454610100900460ff16156125c55760405162461bcd60e51b815260040161040c90602080825260049082015263444f4e4560e01b604082015260600190565b6000807f00000000000000000000000000000000000000000000000000000000000000006001600160a01b031662b127836040518163ffffffff1660e01b8152600401602060405180830381865afa158015612674573d6000803e3d6000fd5b505050506040513d601f19601f820116820180604052508101906126989190612b4e565b6001600160a01b031663281b693c846040518263ffffffff1660e01b81526004016126c591815260200190565b602060405180830381865afa1580156126e2573d6000803e3d6000fd5b505050506040513d601f19601f820116820180604052508101906127069190612b6b565b90506000811161277e57604051630a06da4f60e21b8152600481018490526001600160a01b0385169063281b693c90602401602060405180830381865afa158015612755573d6000803e3d6000fd5b505050506040513d601f19601f820116820180604052508101906127799190612b6b565b612780565b805b9150505b92915050565b600061a4b146148061279e575062066eed46145b1561280b5760646001600160a01b031663a3b1b31d6040518163ffffffff1660e01b8152600401602060405180830381865afa1580156127e2573d6000803e3d6000fd5b505050506040513d601f19601f820116820180604052508101906128069190612b6b565b905090565b504390565b60006020828403121561282257600080fd5b5035919050565b634e487b7160e01b600052604160045260246000fd5b604051610140810167ffffffffffffffff8111828210171561286357612863612829565b60405290565b60405160c0810167ffffffffffffffff8111828210171561286357612863612829565b6001600160a01b03811681146128a157600080fd5b50565b80356128af8161288c565b919050565b80151581146128a157600080fd5b80356128af816128b4565b8035600381106128af57600080fd5b6000806000808486036101a08112156128f457600080fd5b6101408082121561290457600080fd5b61290c61283f565b9150612917876128a4565b82526020870135602083015260408701356040830152606087013560608301526080870135608083015260a087013560a083015261295760c088016128c2565b60c083015260e087013560e083015261010080880135818401525061012080880135818401525081955061298c8188016128cd565b959895975050505061016084013593610180013592915050565b6000806000604084860312156129bb57600080fd5b83356129c68161288c565b9250602084013567ffffffffffffffff808211156129e357600080fd5b818601915086601f8301126129f757600080fd5b813581811115612a0657600080fd5b876020828501011115612a1857600080fd5b6020830194508093505050509250925092565b60005b83811015612a46578181015183820152602001612a2e565b50506000910152565b60008151808452612a67816020860160208601612a2b565b601f01601f19169290920160200192915050565b602081526000612a8e6020830184612a4f565b9392505050565b60008060408385031215612aa857600080fd5b50508035926020909101359150565b600080600060608486031215612acc57600080fd5b505081359360208301359350604090920135919050565b600060208284031215612af557600080fd5b813561277e8161288c565b602080825260079082015266056414c55455f360cc1b604082015260600190565b634e487b7160e01b600052601160045260246000fd5b808202811582820484141761278457612784612b21565b600060208284031215612b6057600080fd5b815161277e8161288c565b600060208284031215612b7d57600080fd5b5051919050565b6001600160a01b03929092168252602082015260400190565b8082018082111561278457612784612b21565b6020808252601290820152714d41585f50454e44494e475f4f524445525360701b604082015260600190565b60008060408385031215612bef57600080fd5b505080516020909101519092909150565b634e487b7160e01b600052602160045260246000fd5b8481526080810160048510612c2d57612c2d612c00565b84602083015283604083015282606083015295945050505050565b805180516001600160a01b031683526020810151602084015260408101516040840152606081015160608401526080810151608084015260a081015160a084015260c0810151612c9c60c085018215159052565b5060e081810151908401526101008082015190840152610120908101519083015260208101516101408301526040810151610160830152606081015161018083015260808101516101a083015260a001516101c090910152565b6102208101612d058286612c48565b836101e0830152821515610200830152949350505050565b80516128af8161288c565b80516128af816128b4565b60006101408284031215612d4657600080fd5b612d4e61283f565b9050612d5982612d1d565b81526020820151602082015260408201516040820152606082015160608201526080820151608082015260a082015160a0820152612d9960c08301612d28565b60c082015260e082015160e082015261010080830151818301525061012080830151818301525092915050565b60006101e08284031215612dd957600080fd5b612de1612869565b612deb8484612d33565b81526101408301516020820152610160830151604082015261018083015160608201526101a083015160808201526101c09092015160a083015250919050565b6020808252600c908201526b15d0525517d512535153d55560a21b604082015260600190565b6020808252600e908201526d2727aa2faca7aaa92fa7a92222a960911b604082015260600190565b60208082526017908201527657524f4e475f4d41524b45545f4f524445525f5459504560481b604082015260600190565b6101e081016127848284612c48565b60008251612ecb818460208701612a2b565b9190910192915050565b8183823760009101908152919050565b600060208284031215612ef757600080fd5b815167ffffffffffffffff80821115612f0f57600080fd5b818401915084601f830112612f2357600080fd5b815181811115612f3557612f35612829565b604051601f8201601f19908116603f01168101908382118183101715612f5d57612f5d612829565b81604052828152876020848701011115612f7657600080fd5b612f87836020830160208801612a2b565b979650505050505050565b6001600160a01b039390931683526020830191909152604082015260600190565b60006101408284031215612fc657600080fd5b612a8e8383612d33565b600060c08284031215612fe257600080fd5b612fea612869565b825181526020830151602082015260408301516040820152606083015160608201526080830151608082015260a0830151613024816128b4565b60a08201529392505050565b6020808252600890820152674e4f5f545241444560c01b604082015260600190565b60008261306f57634e487b7160e01b600052601260045260246000fd5b500490565b8181038181111561278457612784612b21565b6001600160a01b0394909416845260208401929092526040830152606082015260800190565b6001600160a01b03878116825286166020820152604081018590526060810184905260c08101600284106130e3576130e3612c00565b608082019390935260a0015294935050505056fea2646970667358221220f4d7c30b02e9bb34208426a643e6dd2591474770aa4223936a895120e82184c264736f6c63430008140033",
  "deployedBytecode": "0x608060405234801561001057600080fd5b50600436106101585760003560e01c8063990382cf116100c3578063b81bfa051161007c578063b81bfa0514610320578063be73fb9914610333578063bffe348614610346578063ca5eb5e11461036f578063d3dc753914610382578063d8defd15146103a957600080fd5b8063990382cf146102bc5780639a10cc32146102cf578063a2a3c0cb146102ef578063ae8421e114610302578063b187bd261461030a578063b1dfd5301461031757600080fd5b8063531cc96511610115578063531cc9651461021e5780635ad9f9931461024557806368cd50881461026c5780638456cb591461027f578063876d3abd146102875780638f0622271461029a57600080fd5b8063119df25f1461015d5780631346b0ff1461018257806316fff074146101a95780632c1e4e55146101d057806336fb8b15146101e5578063410c0b7c14610207575b600080fd5b6101656103bc565b6040516001600160a01b0390911681526020015b60405180910390f35b6101657f000000000000000000000000000000000000000000000000000000000000000081565b6101657f000000000000000000000000000000000000000000000000000000000000000081565b6101e36101de366004612810565b6103e4565b005b6101e333600090815260208190526040902080546001600160a01b0319169055565b61021060035481565b604051908152602001610179565b6101657f000000000000000000000000000000000000000000000000000000000000000081565b6101657f000000000000000000000000000000000000000000000000000000000000000081565b6101e361027a3660046128dc565b610475565b6101e361111d565b6101e3610295366004612810565b611173565b6004546102ac90610100900460ff1681565b6040519015158152602001610179565b6101e36102ca366004612810565b61140a565b6102e26102dd3660046129a6565b6116fe565b6040516101799190612a7b565b6101e36102fd366004612a95565b611839565b6101e3611da5565b6004546102ac9060ff1681565b61021060025481565b6101e361032e366004612810565b611e05565b6101e3610341366004612ab7565b611e8f565b610165610354366004612ae3565b6000602081905290815260409020546001600160a01b031681565b6101e361037d366004612ae3565b6121e1565b6101657f000000000000000000000000000000000000000000000000000000000000000081565b6101e36103b7366004612ab7565b61224d565b6001546000906001600160a01b03166103d457503390565b506001546001600160a01b031690565b6103ec6124f8565b600081116104155760405162461bcd60e51b815260040161040c90612b00565b60405180910390fd5b600281905560408051818152600a91810191909152690dac2f0a0dee6ae8aa8960b31b6060820152602081018290527f8cf3e35f6221b16e1670a3413180c9484bf5aa71787905909fa82a6a2662e9ab906080015b60405180910390a150565b61047d6125c7565b6104856125d3565b60045460ff16156104c15760405162461bcd60e51b815260206004820152600660248201526514105554d15160d21b604482015260640161040c565b600019818560a001516104d49190612b37565b1061050c5760405162461bcd60e51b81526020600482015260086024820152674f564552464c4f5760c01b604482015260640161040c565b60008460a001511161054d5760405162461bcd60e51b815260206004820152600a60248201526950524943455f5a45524f60b01b604482015260640161040c565b60007f00000000000000000000000000000000000000000000000000000000000000006001600160a01b0316633078fff56040518163ffffffff1660e01b8152600401602060405180830381865afa1580156105ad573d6000803e3d6000fd5b505050506040513d601f19601f820116820180604052508101906105d19190612b4e565b90506000816001600160a01b03166335b03c176040518163ffffffff1660e01b8152600401602060405180830381865afa158015610613573d6000803e3d6000fd5b505050506040513d601f19601f820116820180604052508101906106379190612b4e565b905060006106436103bc565b90507f00000000000000000000000000000000000000000000000000000000000000006001600160a01b031663f65d9dbe6040518163ffffffff1660e01b8152600401602060405180830381865afa1580156106a3573d6000803e3d6000fd5b505050506040513d601f19601f820116820180604052508101906106c79190612b6b565b6020880151604051634bf3ccad60e11b81526001600160a01b037f000000000000000000000000000000000000000000000000000000000000000016916397e7995a91610718918691600401612b84565b602060405180830381865afa158015610735573d6000803e3d6000fd5b505050506040513d601f19601f820116820180604052508101906107599190612b6b565b6020890151604051639c8912f160e01b81526001600160a01b037f00000000000000000000000000000000000000000000000000000000000000001691639c8912f1916107aa918791600401612b84565b602060405180830381865afa1580156107c7573d6000803e3d6000fd5b505050506040513d601f19601f820116820180604052508101906107eb9190612b6b565b60208a01516040516307218dad60e21b81526001600160a01b037f00000000000000000000000000000000000000000000000000000000000000001691631c8636b49161083c918891600401612b84565b602060405180830381865afa158015610859573d6000803e3d6000fd5b505050506040513d601f19601f8201168201806040525081019061087d9190612b6b565b6108879190612b9d565b6108919190612b9d565b106108d45760405162461bcd60e51b815260206004820152601360248201527226a0ac2faa2920a222a9afa822a92fa820a4a960691b604482015260640161040c565b7f00000000000000000000000000000000000000000000000000000000000000006001600160a01b0316638049fde76040518163ffffffff1660e01b8152600401602060405180830381865afa158015610932573d6000803e3d6000fd5b505050506040513d601f19601f820116820180604052508101906109569190612b6b565b60405163f7b3c6fd60e01b81526001600160a01b0383811660048301527f0000000000000000000000000000000000000000000000000000000000000000169063f7b3c6fd90602401602060405180830381865afa1580156109bc573d6000803e3d6000fd5b505050506040513d601f19601f820116820180604052508101906109e09190612b6b565b106109fd5760405162461bcd60e51b815260040161040c90612bb0565b60025487608001511115610a435760405162461bcd60e51b815260206004820152600d60248201526c41424f56455f4d41585f504f5360981b604482015260640161040c565b602087015160405163601e3b6b60e11b815260048101919091526001600160a01b0383169063c03c76d690602401602060405180830381865afa158015610a8e573d6000803e3d6000fd5b505050506040513d601f19601f82011682018060405250810190610ab29190612b6b565b8760e001518860800151610ac69190612b37565b1015610b045760405162461bcd60e51b815260206004820152600d60248201526c42454c4f575f4d494e5f504f5360981b604482015260640161040c565b60008760e00151118015610b8a5750602087015160405163059a992d60e41b815260048101919091526001600160a01b038316906359a992d090602401602060405180830381865afa158015610b5e573d6000803e3d6000fd5b505050506040513d601f19601f82011682018060405250810190610b829190612b6b565b8760e0015110155b8015610ba75750610b9f828860200151612614565b8760e0015111155b610be85760405162461bcd60e51b815260206004820152601260248201527113115591549051d157d25390d3d4949150d560721b604482015260640161040c565b6101008701511580610c1c57508660c00151610c0f578660a0015187610100015110610c1c565b8660a00151876101000151115b610c535760405162461bcd60e51b8152602060048201526008602482015267057524f4e475f54560c41b604482015260640161040c565b6101208701511580610c8757508660c00151610c7a578660a0015187610120015111610c87565b8660a00151876101200151105b610cbe5760405162461bcd60e51b815260206004820152600860248201526715d493d391d7d4d360c21b604482015260640161040c565b60007f00000000000000000000000000000000000000000000000000000000000000006001600160a01b0316637ea95f3260008a602001518b60c001518c60e001518d60800151610d0f9190612b37565b6040516001600160e01b031960e087901b168152600481019490945260248401929092521515604483015260648201526084016040805180830381865afa158015610d5e573d6000803e3d6000fd5b505050506040513d601f19601f82011682018060405250810190610d829190612bdc565b5090507f00000000000000000000000000000000000000000000000000000000000000006001600160a01b03166380f6cfc26040518163ffffffff1660e01b8152600401602060405180830381865afa158015610de3573d6000803e3d6000fd5b505050506040513d601f19601f82011682018060405250810190610e079190612b6b565b60e0890151610e169083612b37565b1115610e5c5760405162461bcd60e51b81526020600482015260156024820152740a0a492868abe929aa08286a8bea89e9ebe90928e9605b1b604482015260640161040c565b6080880151604051638a238ae560e01b81526001600160a01b0384811660048301527f000000000000000000000000000000000000000000000000000000000000000016602482018190526044820192909252638a238ae590606401600060405180830381600087803b158015610ed257600080fd5b505af1158015610ee6573d6000803e3d6000fd5b5060009250610ef3915050565b876002811115610f0557610f05612c00565b03611113576000846001600160a01b0316636938c05d8a6020015160008c60e001518d60800151610f369190612b37565b610f3e61278a565b6040518563ffffffff1660e01b8152600401610f5d9493929190612c16565b6020604051808303816000875af1158015610f7c573d6000803e3d6000fd5b505050506040513d601f19601f82011682018060405250810190610fa09190612b6b565b90507f00000000000000000000000000000000000000000000000000000000000000006001600160a01b031663c76faf786040518060c00160405280604051806101400160405280886001600160a01b031681526020018e60200151815260200160008152602001600081526020018e608001518152602001600081526020018e60c00151151581526020018e60e0015181526020018e610100015181526020018e61012001518152508152602001600081526020018c60a0015181526020018981526020016000815260200160008152508360016040518463ffffffff1660e01b815260040161109393929190612cf6565b600060405180830381600087803b1580156110ad57600080fd5b505af11580156110c1573d6000803e3d6000fd5b505050508860200151836001600160a01b0316827f3e544118c04e3bb18b669475695cd270ba0e41fb13177483f01c14222de62a866001604051611109911515815260200190565b60405180910390a4505b5050505050505050565b6111256124f8565b6004805460ff8082161560ff1990921682179092556040519116151581527f0e2fb031ee032dc02d8011dc50b816eb450cf856abd8261680dac74f72165bd2906020015b60405180910390a1565b61117b6125c7565b6111836125d3565b600061118d6103bc565b60405163b66e6b0560e01b8152600481018490529091506000906001600160a01b037f0000000000000000000000000000000000000000000000000000000000000000169063b66e6b05906024016101e060405180830381865afa1580156111f9573d6000803e3d6000fd5b505050506040513d601f19601f8201168201806040525081019061121d9190612dc6565b805160208201519192509015801590611247575060035482602001516112439190612b9d565b4310155b6112635760405162461bcd60e51b815260040161040c90612e2b565b826001600160a01b031681600001516001600160a01b0316146112985760405162461bcd60e51b815260040161040c90612e51565b60008160e00151116112bc5760405162461bcd60e51b815260040161040c90612e79565b604051630195728b60e71b815260048101859052600160248201527f00000000000000000000000000000000000000000000000000000000000000006001600160a01b03169063cab9458090604401600060405180830381600087803b15801561132557600080fd5b505af1158015611339573d6000803e3d6000fd5b505050506080810151604051638a238ae560e01b81526001600160a01b037f000000000000000000000000000000000000000000000000000000000000000081166004830181905290861660248301526044820192909252638a238ae590606401600060405180830381600087803b1580156113b457600080fd5b505af11580156113c8573d6000803e3d6000fd5b50505050837f3adaa586cdbe84dd24e45bd7dada6da933d7c2d1c7b4e4cd02fce033356decb1836040516113fc9190612eaa565b60405180910390a250505050565b6114126125c7565b61141a6125d3565b60006114246103bc565b60405163b66e6b0560e01b8152600481018490529091506000906001600160a01b037f0000000000000000000000000000000000000000000000000000000000000000169063b66e6b05906024016101e060405180830381865afa158015611490573d6000803e3d6000fd5b505050506040513d601f19601f820116820180604052508101906114b49190612dc6565b8051602082015191925090158015906114de575060035482602001516114da9190612b9d565b4310155b6114fa5760405162461bcd60e51b815260040161040c90612e2b565b826001600160a01b031681600001516001600160a01b03161461152f5760405162461bcd60e51b815260040161040c90612e51565b60e0810151156115515760405162461bcd60e51b815260040161040c90612e79565b604051630195728b60e71b815260048101859052600060248201527f00000000000000000000000000000000000000000000000000000000000000006001600160a01b03169063cab9458090604401600060405180830381600087803b1580156115ba57600080fd5b505af11580156115ce573d6000803e3d6000fd5b505050602082015160408084015190516024810192909252604482015260009150309060640160408051601f198184030181529181526020820180516001600160e01b031663a2a3c0cb60e01b179052516116299190612eb9565b600060405180830381855af49150503d8060008114611664576040519150601f19603f3d011682016040523d82523d6000602084013e611669565b606091505b50509050806116bf578160200151846001600160a01b03167f60e497734ddabcd7293fd91739aaf65cf525eb539c97be528125a235a89288d884604001516040516116b691815260200190565b60405180910390a35b847f3adaa586cdbe84dd24e45bd7dada6da933d7c2d1c7b4e4cd02fce033356decb1846040516116ef9190612eaa565b60405180910390a25050505050565b6001600160a01b038381166000908152602081905260409020546060911633146117625760405162461bcd60e51b81526020600482015260156024820152741111531151d0551157d393d517d054141493d59151605a1b604482015260640161040c565b600180546001600160a01b0319166001600160a01b038616179055604051600090819030906117949087908790612ed5565b600060405180830381855af49150503d80600081146117cf576040519150601f19603f3d011682016040523d82523d6000602084013e6117d4565b606091505b509150915081611820576044815110156117ed57600080fd5b600481019050808060200190518101906118079190612ee5565b60405162461bcd60e51b815260040161040c9190612a7b565b600180546001600160a01b031916905595945050505050565b6118416125c7565b6118496125d3565b60006118536103bc565b905060007f00000000000000000000000000000000000000000000000000000000000000006001600160a01b031663a3a80ffe8386866040518463ffffffff1660e01b81526004016118a793929190612f92565b61014060405180830381865afa1580156118c5573d6000803e3d6000fd5b505050506040513d601f19601f820116820180604052508101906118e99190612fb3565b905060007f00000000000000000000000000000000000000000000000000000000000000006001600160a01b0316638c8ff1d58487876040518463ffffffff1660e01b815260040161193d93929190612f92565b60c060405180830381865afa15801561195a573d6000803e3d6000fd5b505050506040513d601f19601f8201168201806040525081019061197e9190612fd0565b90507f00000000000000000000000000000000000000000000000000000000000000006001600160a01b0316638049fde76040518163ffffffff1660e01b8152600401602060405180830381865afa1580156119de573d6000803e3d6000fd5b505050506040513d601f19601f82011682018060405250810190611a029190612b6b565b60405163f7b3c6fd60e01b81526001600160a01b0385811660048301527f0000000000000000000000000000000000000000000000000000000000000000169063f7b3c6fd90602401602060405180830381865afa158015611a68573d6000803e3d6000fd5b505050506040513d601f19601f82011682018060405250810190611a8c9190612b6b565b10611aa95760405162461bcd60e51b815260040161040c90612bb0565b8060a0015115611af25760405162461bcd60e51b81526020600482015260146024820152731053149150511657d091525391d7d0d313d4d15160621b604482015260640161040c565b60008260e0015111611b165760405162461bcd60e51b815260040161040c90613030565b60007f00000000000000000000000000000000000000000000000000000000000000006001600160a01b0316633078fff56040518163ffffffff1660e01b8152600401602060405180830381865afa158015611b76573d6000803e3d6000fd5b505050506040513d601f19601f82011682018060405250810190611b9a9190612b4e565b6001600160a01b0316636938c05d8760016402540be4008760e0015187602001518960600151611bca9190612b37565b611bd49190612b37565b611bde9190613052565b611be661278a565b6040518563ffffffff1660e01b8152600401611c059493929190612c16565b6020604051808303816000875af1158015611c24573d6000803e3d6000fd5b505050506040513d601f19601f82011682018060405250810190611c489190612b6b565b90507f00000000000000000000000000000000000000000000000000000000000000006001600160a01b031663c76faf786040518060c00160405280604051806101400160405280896001600160a01b031681526020018b81526020018a81526020016000815260200160008152602001600081526020016000151581526020016000815260200160008152602001600081525081526020016000815260200160008152602001600081526020016000815260200160008152508360006040518463ffffffff1660e01b8152600401611d2393929190612cf6565b600060405180830381600087803b158015611d3d57600080fd5b505af1158015611d51573d6000803e3d6000fd5b5050505085846001600160a01b0316827f3e544118c04e3bb18b669475695cd270ba0e41fb13177483f01c14222de62a866000604051611d95911515815260200190565b60405180910390a4505050505050565b611dad6124f8565b6004805460ff610100808304821615810261ff001990931692909217928390556040517fc3a6f986261de9467c2838c6df8ef74f9107855159205600c0bc7a14cdfd3888936111699390049091161515815260200190565b611e0d6124f8565b60008111611e2d5760405162461bcd60e51b815260040161040c90612b00565b600381905560408051818152601391810191909152721b585c9ad95d13dc99195c9cd51a5b595bdd5d606a1b6060820152602081018290527f8cf3e35f6221b16e1670a3413180c9484bf5aa71787905909fa82a6a2662e9ab9060800161046a565b611e976125c7565b611e9f6125d3565b6000611ea96103bc565b905060007f00000000000000000000000000000000000000000000000000000000000000006001600160a01b031663a3a80ffe8387876040518463ffffffff1660e01b8152600401611efd93929190612f92565b61014060405180830381865afa158015611f1b573d6000803e3d6000fd5b505050506040513d601f19601f82011682018060405250810190611f3f9190612fb3565b905060008160e0015111611f655760405162461bcd60e51b815260040161040c90613030565b60008160e001516064604b8460a00151611f7f9190612b37565b611f899190613052565b611f939190613052565b9050831580611fd257508160c00151611fbe57808260a00151611fb69190612b9d565b841115611fd2565b808260a00151611fce9190613074565b8410155b61200b5760405162461bcd60e51b815260206004820152600a602482015269534c5f544f4f5f42494760b01b604482015260640161040c565b60405163a354418160e01b81526001600160a01b037f0000000000000000000000000000000000000000000000000000000000000000169063a35441819061205d9086908a908a908a90600401613087565b600060405180830381600087803b15801561207757600080fd5b505af115801561208b573d6000803e3d6000fd5b505050507f00000000000000000000000000000000000000000000000000000000000000006001600160a01b031662b127836040518163ffffffff1660e01b8152600401602060405180830381865afa1580156120ec573d6000803e3d6000fd5b505050506040513d601f19601f820116820180604052508101906121109190612b4e565b6001600160a01b031673__$f600c6c046224cd62da9c8e7a0d00fc8b2$__633c63a7d09091858989600061214261278a565b6040518763ffffffff1660e01b8152600401612163969594939291906130ad565b60006040518083038186803b15801561217b57600080fd5b505af415801561218f573d6000803e3d6000fd5b505060408051888152602081018890528993506001600160a01b03871692507f1fc4a6c7ffe506697979b8ed54dc4135cd1ecd26a2745f70b760a2492222b316910160405180910390a3505050505050565b32331461221e5760405162461bcd60e51b815260206004820152600b60248201526a1393d7d0d3d395149050d560aa1b604482015260640161040c565b33600090815260208190526040902080546001600160a01b0319166001600160a01b0392909216919091179055565b6122556125c7565b61225d6125d3565b60006122676103bc565b905060007f00000000000000000000000000000000000000000000000000000000000000006001600160a01b031663a3a80ffe8387876040518463ffffffff1660e01b81526004016122bb93929190612f92565b61014060405180830381865afa1580156122d9573d6000803e3d6000fd5b505050506040513d601f19601f820116820180604052508101906122fd9190612fb3565b905060008160e00151116123235760405162461bcd60e51b815260040161040c90613030565b604051637fdb96f360e01b81526001600160a01b037f00000000000000000000000000000000000000000000000000000000000000001690637fdb96f390612375908590899089908990600401613087565b600060405180830381600087803b15801561238f57600080fd5b505af11580156123a3573d6000803e3d6000fd5b505050507f00000000000000000000000000000000000000000000000000000000000000006001600160a01b031662b127836040518163ffffffff1660e01b8152600401602060405180830381865afa158015612404573d6000803e3d6000fd5b505050506040513d601f19601f820116820180604052508101906124289190612b4e565b6001600160a01b031673__$f600c6c046224cd62da9c8e7a0d00fc8b2$__638fff7d829091848888600061245a61278a565b6040518763ffffffff1660e01b815260040161247b969594939291906130ad565b60006040518083038186803b15801561249357600080fd5b505af41580156124a7573d6000803e3d6000fd5b505060408051878152602081018790528893506001600160a01b03861692507f7e06a81c7a47891ccc7455b5ccb2ed850e32bb655ccda67eb3ebaaeed83242a4910160405180910390a35050505050565b7f00000000000000000000000000000000000000000000000000000000000000006001600160a01b03166312d43a516040518163ffffffff1660e01b8152600401602060405180830381865afa158015612556573d6000803e3d6000fd5b505050506040513d601f19601f8201168201806040525081019061257a9190612b4e565b6001600160a01b0316336001600160a01b0316146125c55760405162461bcd60e51b8152602060048201526008602482015267474f565f4f4e4c5960c01b604482015260640161040c565b565b3233146125c557600080fd5b600454610100900460ff16156125c55760405162461bcd60e51b815260040161040c90602080825260049082015263444f4e4560e01b604082015260600190565b6000807f00000000000000000000000000000000000000000000000000000000000000006001600160a01b031662b127836040518163ffffffff1660e01b8152600401602060405180830381865afa158015612674573d6000803e3d6000fd5b505050506040513d601f19601f820116820180604052508101906126989190612b4e565b6001600160a01b031663281b693c846040518263ffffffff1660e01b81526004016126c591815260200190565b602060405180830381865afa1580156126e2573d6000803e3d6000fd5b505050506040513d601f19601f820116820180604052508101906127069190612b6b565b90506000811161277e57604051630a06da4f60e21b8152600481018490526001600160a01b0385169063281b693c90602401602060405180830381865afa158015612755573d6000803e3d6000fd5b505050506040513d601f19601f820116820180604052508101906127799190612b6b565b612780565b805b9150505b92915050565b600061a4b146148061279e575062066eed46145b1561280b5760646001600160a01b031663a3b1b31d6040518163ffffffff1660e01b8152600401602060405180830381865afa1580156127e2573d6000803e3d6000fd5b505050506040513d601f19601f820116820180604052508101906128069190612b6b565b905090565b504390565b60006020828403121561282257600080fd5b5035919050565b634e487b7160e01b600052604160045260246000fd5b604051610140810167ffffffffffffffff8111828210171561286357612863612829565b60405290565b60405160c0810167ffffffffffffffff8111828210171561286357612863612829565b6001600160a01b03811681146128a157600080fd5b50565b80356128af8161288c565b919050565b80151581146128a157600080fd5b80356128af816128b4565b8035600381106128af57600080fd5b6000806000808486036101a08112156128f457600080fd5b6101408082121561290457600080fd5b61290c61283f565b9150612917876128a4565b82526020870135602083015260408701356040830152606087013560608301526080870135608083015260a087013560a083015261295760c088016128c2565b60c083015260e087013560e083015261010080880135818401525061012080880135818401525081955061298c8188016128cd565b959895975050505061016084013593610180013592915050565b6000806000604084860312156129bb57600080fd5b83356129c68161288c565b9250602084013567ffffffffffffffff808211156129e357600080fd5b818601915086601f8301126129f757600080fd5b813581811115612a0657600080fd5b876020828501011115612a1857600080fd5b6020830194508093505050509250925092565b60005b83811015612a46578181015183820152602001612a2e565b50506000910152565b60008151808452612a67816020860160208601612a2b565b601f01601f19169290920160200192915050565b602081526000612a8e6020830184612a4f565b9392505050565b60008060408385031215612aa857600080fd5b50508035926020909101359150565b600080600060608486031215612acc57600080fd5b505081359360208301359350604090920135919050565b600060208284031215612af557600080fd5b813561277e8161288c565b602080825260079082015266056414c55455f360cc1b604082015260600190565b634e487b7160e01b600052601160045260246000fd5b808202811582820484141761278457612784612b21565b600060208284031215612b6057600080fd5b815161277e8161288c565b600060208284031215612b7d57600080fd5b5051919050565b6001600160a01b03929092168252602082015260400190565b8082018082111561278457612784612b21565b6020808252601290820152714d41585f50454e44494e475f4f524445525360701b604082015260600190565b60008060408385031215612bef57600080fd5b505080516020909101519092909150565b634e487b7160e01b600052602160045260246000fd5b8481526080810160048510612c2d57612c2d612c00565b84602083015283604083015282606083015295945050505050565b805180516001600160a01b031683526020810151602084015260408101516040840152606081015160608401526080810151608084015260a081015160a084015260c0810151612c9c60c085018215159052565b5060e081810151908401526101008082015190840152610120908101519083015260208101516101408301526040810151610160830152606081015161018083015260808101516101a083015260a001516101c090910152565b6102208101612d058286612c48565b836101e0830152821515610200830152949350505050565b80516128af8161288c565b80516128af816128b4565b60006101408284031215612d4657600080fd5b612d4e61283f565b9050612d5982612d1d565b81526020820151602082015260408201516040820152606082015160608201526080820151608082015260a082015160a0820152612d9960c08301612d28565b60c082015260e082015160e082015261010080830151818301525061012080830151818301525092915050565b60006101e08284031215612dd957600080fd5b612de1612869565b612deb8484612d33565b81526101408301516020820152610160830151604082015261018083015160608201526101a083015160808201526101c09092015160a083015250919050565b6020808252600c908201526b15d0525517d512535153d55560a21b604082015260600190565b6020808252600e908201526d2727aa2faca7aaa92fa7a92222a960911b604082015260600190565b60208082526017908201527657524f4e475f4d41524b45545f4f524445525f5459504560481b604082015260600190565b6101e081016127848284612c48565b60008251612ecb818460208701612a2b565b9190910192915050565b8183823760009101908152919050565b600060208284031215612ef757600080fd5b815167ffffffffffffffff80821115612f0f57600080fd5b818401915084601f830112612f2357600080fd5b815181811115612f3557612f35612829565b604051601f8201601f19908116603f01168101908382118183101715612f5d57612f5d612829565b81604052828152876020848701011115612f7657600080fd5b612f87836020830160208801612a2b565b979650505050505050565b6001600160a01b039390931683526020830191909152604082015260600190565b60006101408284031215612fc657600080fd5b612a8e8383612d33565b600060c08284031215612fe257600080fd5b612fea612869565b825181526020830151602082015260408301516040820152606083015160608201526080830151608082015260a0830151613024816128b4565b60a08201529392505050565b6020808252600890820152674e4f5f545241444560c01b604082015260600190565b60008261306f57634e487b7160e01b600052601260045260246000fd5b500490565b8181038181111561278457612784612b21565b6001600160a01b0394909416845260208401929092526040830152606082015260800190565b6001600160a01b03878116825286166020820152604081018590526060810184905260c08101600284106130e3576130e3612c00565b608082019390935260a0015294935050505056fea2646970667358221220f4d7c30b02e9bb34208426a643e6dd2591474770aa4223936a895120e82184c264736f6c63430008140033",
  "libraries": {
    "TradeUtils": "0xBa9b2F1D565A4BF8cF945a404898E548e2921442",
    "PackingUtils": "0xC777410D8F128DBA26AC46DB33Ecb9ce6E69F4C6"
  },
  "devdoc": {
    "kind": "dev",
    "methods": {},
    "version": 1
  },
  "userdoc": {
    "kind": "user",
    "methods": {},
    "version": 1
  },
  "storageLayout": {
    "storage": [
      {
        "astId": 5751,
        "contract": "contracts/Trading.sol:Trading",
        "label": "delegations",
        "offset": 0,
        "slot": "0",
        "type": "t_mapping(t_address,t_address)"
      },
      {
        "astId": 5753,
        "contract": "contracts/Trading.sol:Trading",
        "label": "senderOverride",
        "offset": 0,
        "slot": "1",
        "type": "t_address"
      },
      {
        "astId": 15608,
        "contract": "contracts/Trading.sol:Trading",
        "label": "maxPosWETH",
        "offset": 0,
        "slot": "2",
        "type": "t_uint256"
      },
      {
        "astId": 15610,
        "contract": "contracts/Trading.sol:Trading",
        "label": "marketOrdersTimeout",
        "offset": 0,
        "slot": "3",
        "type": "t_uint256"
      },
      {
        "astId": 15612,
        "contract": "contracts/Trading.sol:Trading",
        "label": "isPaused",
        "offset": 0,
        "slot": "4",
        "type": "t_bool"
      },
      {
        "astId": 15614,
        "contract": "contracts/Trading.sol:Trading",
        "label": "isDone",
        "offset": 1,
        "slot": "4",
        "type": "t_bool"
      }
    ],
    "types": {
      "t_address": {
        "encoding": "inplace",
        "label": "address",
        "numberOfBytes": "20"
      },
      "t_bool": {
        "encoding": "inplace",
        "label": "bool",
        "numberOfBytes": "1"
      },
      "t_mapping(t_address,t_address)": {
        "encoding": "mapping",
        "key": "t_address",
        "label": "mapping(address => address)",
        "numberOfBytes": "32",
        "value": "t_address"
      },
      "t_uint256": {
        "encoding": "inplace",
        "label": "uint256",
        "numberOfBytes": "32"
      }
    }
  }
}