{
  "address": "0x097eC4127E810cC033129b16d3aB3CfaE6F9ea53",
  "abi": [
    {
      "inputs": [
        {
          "internalType": "contract StorageInterface",
          "name": "_storageT",
          "type": "address"
        },
        {
          "internalType": "contract NftRewardsInterfaceV6_3_1",
          "name": "_nftRewards",
          "type": "address"
        },
        {
          "internalType": "contract PairInfosInterface",
          "name": "_pairInfos",
          "type": "address"
        },
        {
          "internalType": "contract ReferralsInterface",
          "name": "_referrals",
          "type": "address"
        },
        {
          "internalType": "contract BorrowingFeesInterface",
          "name": "_borrowingFees",
          "type": "address"
        },
        {
          "internalType": "contract CallbacksInterface",
          "name": "_callbacks",
          "type": "address"
        },
        {
          "internalType": "uint256",
          "name": "_maxPosWETH",
          "type": "uint256"
        },
        {
          "internalType": "uint256",
          "name": "_marketOrdersTimeout",
          "type": "uint256"
        }
      ],
      "stateMutability": "nonpayable",
      "type": "constructor"
    },
    {
      "anonymous": false,
      "inputs": [
        {
          "indexed": true,
          "internalType": "uint256",
          "name": "orderId",
          "type": "uint256"
        },
        {
          "components": [
            {
              "components": [
                {
                  "internalType": "address",
                  "name": "trader",
                  "type": "address"
                },
                {
                  "internalType": "uint256",
                  "name": "pairIndex",
                  "type": "uint256"
                },
                {
                  "internalType": "uint256",
                  "name": "index",
                  "type": "uint256"
                },
                {
                  "internalType": "uint256",
                  "name": "initialPosToken",
                  "type": "uint256"
                },
                {
                  "internalType": "uint256",
                  "name": "positionSizeWETH",
                  "type": "uint256"
                },
                {
                  "internalType": "uint256",
                  "name": "openPrice",
                  "type": "uint256"
                },
                {
                  "internalType": "bool",
                  "name": "buy",
                  "type": "bool"
                },
                {
                  "internalType": "uint256",
                  "name": "leverage",
                  "type": "uint256"
                },
                {
                  "internalType": "uint256",
                  "name": "tp",
                  "type": "uint256"
                },
                {
                  "internalType": "uint256",
                  "name": "sl",
                  "type": "uint256"
                }
              ],
              "internalType": "struct StorageInterface.Trade",
              "name": "trade",
              "type": "tuple"
            },
            {
              "internalType": "uint256",
              "name": "block",
              "type": "uint256"
            },
            {
              "internalType": "uint256",
              "name": "wantedPrice",
              "type": "uint256"
            },
            {
              "internalType": "uint256",
              "name": "slippageP",
              "type": "uint256"
            },
            {
              "internalType": "uint256",
              "name": "spreadReductionP",
              "type": "uint256"
            },
            {
              "internalType": "uint256",
              "name": "tokenId",
              "type": "uint256"
            }
          ],
          "indexed": false,
          "internalType": "struct StorageInterface.PendingMarketOrder",
          "name": "order",
          "type": "tuple"
        }
      ],
      "name": "ChainlinkCallbackTimeout",
      "type": "event"
    },
    {
      "anonymous": false,
      "inputs": [
        {
          "indexed": true,
          "internalType": "address",
          "name": "trader",
          "type": "address"
        },
        {
          "indexed": true,
          "internalType": "uint256",
          "name": "pairIndex",
          "type": "uint256"
        },
        {
          "indexed": false,
          "internalType": "uint256",
          "name": "index",
          "type": "uint256"
        }
      ],
      "name": "CouldNotCloseTrade",
      "type": "event"
    },
    {
      "anonymous": false,
      "inputs": [
        {
          "indexed": false,
          "internalType": "bool",
          "name": "done",
          "type": "bool"
        }
      ],
      "name": "Done",
      "type": "event"
    },
    {
      "anonymous": false,
      "inputs": [
        {
          "indexed": true,
          "internalType": "uint256",
          "name": "orderId",
          "type": "uint256"
        },
        {
          "indexed": true,
          "internalType": "address",
          "name": "trader",
          "type": "address"
        },
        {
          "indexed": true,
          "internalType": "uint256",
          "name": "pairIndex",
          "type": "uint256"
        },
        {
          "indexed": false,
          "internalType": "bool",
          "name": "open",
          "type": "bool"
        }
      ],
      "name": "MarketOrderInitiated",
      "type": "event"
    },
    {
      "anonymous": false,
      "inputs": [
        {
          "indexed": false,
          "internalType": "uint256",
          "name": "orderId",
          "type": "uint256"
        },
        {
          "indexed": true,
          "internalType": "address",
          "name": "nftHolder",
          "type": "address"
        },
        {
          "indexed": true,
          "internalType": "address",
          "name": "trader",
          "type": "address"
        },
        {
          "indexed": true,
          "internalType": "uint256",
          "name": "pairIndex",
          "type": "uint256"
        }
      ],
      "name": "NftOrderInitiated",
      "type": "event"
    },
    {
      "anonymous": false,
      "inputs": [
        {
          "indexed": true,
          "internalType": "address",
          "name": "nftHolder",
          "type": "address"
        },
        {
          "indexed": true,
          "internalType": "address",
          "name": "trader",
          "type": "address"
        },
        {
          "indexed": true,
          "internalType": "uint256",
          "name": "pairIndex",
          "type": "uint256"
        }
      ],
      "name": "NftOrderSameBlock",
      "type": "event"
    },
    {
      "anonymous": false,
      "inputs": [
        {
          "indexed": false,
          "internalType": "string",
          "name": "name",
          "type": "string"
        },
        {
          "indexed": false,
          "internalType": "uint256",
          "name": "value",
          "type": "uint256"
        }
      ],
      "name": "NumberUpdated",
      "type": "event"
    },
    {
      "anonymous": false,
      "inputs": [
        {
          "indexed": true,
          "internalType": "address",
          "name": "trader",
          "type": "address"
        },
        {
          "indexed": true,
          "internalType": "uint256",
          "name": "pairIndex",
          "type": "uint256"
        },
        {
          "indexed": false,
          "internalType": "uint256",
          "name": "index",
          "type": "uint256"
        }
      ],
      "name": "OpenLimitCanceled",
      "type": "event"
    },
    {
      "anonymous": false,
      "inputs": [
        {
          "indexed": true,
          "internalType": "address",
          "name": "trader",
          "type": "address"
        },
        {
          "indexed": true,
          "internalType": "uint256",
          "name": "pairIndex",
          "type": "uint256"
        },
        {
          "indexed": false,
          "internalType": "uint256",
          "name": "index",
          "type": "uint256"
        }
      ],
      "name": "OpenLimitPlaced",
      "type": "event"
    },
    {
      "anonymous": false,
      "inputs": [
        {
          "indexed": true,
          "internalType": "address",
          "name": "trader",
          "type": "address"
        },
        {
          "indexed": true,
          "internalType": "uint256",
          "name": "pairIndex",
          "type": "uint256"
        },
        {
          "indexed": false,
          "internalType": "uint256",
          "name": "index",
          "type": "uint256"
        },
        {
          "indexed": false,
          "internalType": "uint256",
          "name": "newPrice",
          "type": "uint256"
        },
        {
          "indexed": false,
          "internalType": "uint256",
          "name": "newTp",
          "type": "uint256"
        },
        {
          "indexed": false,
          "internalType": "uint256",
          "name": "newSl",
          "type": "uint256"
        },
        {
          "indexed": false,
          "internalType": "uint256",
          "name": "maxSlippageP",
          "type": "uint256"
        }
      ],
      "name": "OpenLimitUpdated",
      "type": "event"
    },
    {
      "anonymous": false,
      "inputs": [
        {
          "indexed": false,
          "internalType": "bool",
          "name": "paused",
          "type": "bool"
        }
      ],
      "name": "Paused",
      "type": "event"
    },
    {
      "anonymous": false,
      "inputs": [
        {
          "indexed": true,
          "internalType": "address",
          "name": "trader",
          "type": "address"
        },
        {
          "indexed": true,
          "internalType": "uint256",
          "name": "pairIndex",
          "type": "uint256"
        },
        {
          "indexed": false,
          "internalType": "uint256",
          "name": "index",
          "type": "uint256"
        },
        {
          "indexed": false,
          "internalType": "uint256",
          "name": "newSl",
          "type": "uint256"
        }
      ],
      "name": "SlUpdated",
      "type": "event"
    },
    {
      "anonymous": false,
      "inputs": [
        {
          "indexed": true,
          "internalType": "address",
          "name": "trader",
          "type": "address"
        },
        {
          "indexed": true,
          "internalType": "uint256",
          "name": "pairIndex",
          "type": "uint256"
        },
        {
          "indexed": false,
          "internalType": "uint256",
          "name": "index",
          "type": "uint256"
        },
        {
          "indexed": false,
          "internalType": "uint256",
          "name": "newTp",
          "type": "uint256"
        }
      ],
      "name": "TpUpdated",
      "type": "event"
    },
    {
      "inputs": [],
      "name": "_msgSender",
      "outputs": [
        {
          "internalType": "address",
          "name": "",
          "type": "address"
        }
      ],
      "stateMutability": "view",
      "type": "function"
    },
    {
      "inputs": [],
      "name": "borrowingFees",
      "outputs": [
        {
          "internalType": "contract BorrowingFeesInterface",
          "name": "",
          "type": "address"
        }
      ],
      "stateMutability": "view",
      "type": "function"
    },
    {
      "inputs": [],
      "name": "callbacks",
      "outputs": [
        {
          "internalType": "contract CallbacksInterface",
          "name": "",
          "type": "address"
        }
      ],
      "stateMutability": "view",
      "type": "function"
    },
    {
      "inputs": [
        {
          "internalType": "uint256",
          "name": "pairIndex",
          "type": "uint256"
        },
        {
          "internalType": "uint256",
          "name": "index",
          "type": "uint256"
        }
      ],
      "name": "closeTradeMarket",
      "outputs": [],
      "stateMutability": "nonpayable",
      "type": "function"
    },
    {
      "inputs": [
        {
          "internalType": "address",
          "name": "trader",
          "type": "address"
        },
        {
          "internalType": "bytes",
          "name": "call_data",
          "type": "bytes"
        }
      ],
      "name": "delegatedAction",
      "outputs": [
        {
          "internalType": "bytes",
          "name": "",
          "type": "bytes"
        }
      ],
      "stateMutability": "nonpayable",
      "type": "function"
    },
    {
      "inputs": [
        {
          "internalType": "address",
          "name": "",
          "type": "address"
        }
      ],
      "name": "delegations",
      "outputs": [
        {
          "internalType": "address",
          "name": "",
          "type": "address"
        }
      ],
      "stateMutability": "view",
      "type": "function"
    },
    {
      "inputs": [],
      "name": "done",
      "outputs": [],
      "stateMutability": "nonpayable",
      "type": "function"
    },
    {
      "inputs": [
        {
          "internalType": "uint256",
          "name": "_orderType",
          "type": "uint256"
        },
        {
          "internalType": "address",
          "name": "trader",
          "type": "address"
        },
        {
          "internalType": "uint256",
          "name": "pairIndex",
          "type": "uint256"
        },
        {
          "internalType": "uint256",
          "name": "index",
          "type": "uint256"
        },
        {
          "internalType": "uint256",
          "name": "nftId",
          "type": "uint256"
        },
        {
          "internalType": "uint256",
          "name": "nftType",
          "type": "uint256"
        }
      ],
      "name": "executeNftOrder",
      "outputs": [],
      "stateMutability": "nonpayable",
      "type": "function"
    },
    {
      "inputs": [
        {
          "internalType": "uint256[100]",
          "name": "_orderTypes",
          "type": "uint256[100]"
        },
        {
          "internalType": "address[100]",
          "name": "traders",
          "type": "address[100]"
        },
        {
          "internalType": "uint256[100]",
          "name": "pairIndexs",
          "type": "uint256[100]"
        },
        {
          "internalType": "uint256[100]",
          "name": "indexs",
          "type": "uint256[100]"
        }
      ],
      "name": "executeNftOrders",
      "outputs": [],
      "stateMutability": "nonpayable",
      "type": "function"
    },
    {
      "inputs": [],
      "name": "isDone",
      "outputs": [
        {
          "internalType": "bool",
          "name": "",
          "type": "bool"
        }
      ],
      "stateMutability": "view",
      "type": "function"
    },
    {
      "inputs": [],
      "name": "isPaused",
      "outputs": [
        {
          "internalType": "bool",
          "name": "",
          "type": "bool"
        }
      ],
      "stateMutability": "view",
      "type": "function"
    },
    {
      "inputs": [
        {
          "internalType": "address",
          "name": "trader",
          "type": "address"
        },
        {
          "internalType": "uint256",
          "name": "pairIndex",
          "type": "uint256"
        },
        {
          "internalType": "uint256",
          "name": "index",
          "type": "uint256"
        }
      ],
      "name": "isTradeLiquidatable",
      "outputs": [
        {
          "internalType": "bool",
          "name": "",
          "type": "bool"
        }
      ],
      "stateMutability": "view",
      "type": "function"
    },
    {
      "inputs": [
        {
          "components": [
            {
              "internalType": "address",
              "name": "trader",
              "type": "address"
            },
            {
              "internalType": "uint256",
              "name": "pairIndex",
              "type": "uint256"
            },
            {
              "internalType": "uint256",
              "name": "index",
              "type": "uint256"
            },
            {
              "internalType": "uint256",
              "name": "initialPosToken",
              "type": "uint256"
            },
            {
              "internalType": "uint256",
              "name": "positionSizeWETH",
              "type": "uint256"
            },
            {
              "internalType": "uint256",
              "name": "openPrice",
              "type": "uint256"
            },
            {
              "internalType": "bool",
              "name": "buy",
              "type": "bool"
            },
            {
              "internalType": "uint256",
              "name": "leverage",
              "type": "uint256"
            },
            {
              "internalType": "uint256",
              "name": "tp",
              "type": "uint256"
            },
            {
              "internalType": "uint256",
              "name": "sl",
              "type": "uint256"
            }
          ],
          "internalType": "struct StorageInterface.Trade",
          "name": "t",
          "type": "tuple"
        }
      ],
      "name": "isTradeLiquidatablePure",
      "outputs": [
        {
          "internalType": "bool",
          "name": "",
          "type": "bool"
        },
        {
          "internalType": "bool",
          "name": "",
          "type": "bool"
        }
      ],
      "stateMutability": "view",
      "type": "function"
    },
    {
      "inputs": [
        {
          "internalType": "address",
          "name": "trader",
          "type": "address"
        },
        {
          "internalType": "uint256",
          "name": "pairIndex",
          "type": "uint256"
        },
        {
          "internalType": "uint256",
          "name": "index",
          "type": "uint256"
        }
      ],
      "name": "isTradeParLiquidatable",
      "outputs": [
        {
          "internalType": "bool",
          "name": "",
          "type": "bool"
        }
      ],
      "stateMutability": "view",
      "type": "function"
    },
    {
      "inputs": [
        {
          "components": [
            {
              "internalType": "address",
              "name": "trader",
              "type": "address"
            },
            {
              "internalType": "uint256",
              "name": "pairIndex",
              "type": "uint256"
            },
            {
              "internalType": "uint256",
              "name": "index",
              "type": "uint256"
            },
            {
              "internalType": "uint256",
              "name": "initialPosToken",
              "type": "uint256"
            },
            {
              "internalType": "uint256",
              "name": "positionSizeWETH",
              "type": "uint256"
            },
            {
              "internalType": "uint256",
              "name": "openPrice",
              "type": "uint256"
            },
            {
              "internalType": "bool",
              "name": "buy",
              "type": "bool"
            },
            {
              "internalType": "uint256",
              "name": "leverage",
              "type": "uint256"
            },
            {
              "internalType": "uint256",
              "name": "tp",
              "type": "uint256"
            },
            {
              "internalType": "uint256",
              "name": "sl",
              "type": "uint256"
            }
          ],
          "internalType": "struct StorageInterface.Trade",
          "name": "t",
          "type": "tuple"
        }
      ],
      "name": "isTradeParLiquidatablePure",
      "outputs": [
        {
          "internalType": "bool",
          "name": "",
          "type": "bool"
        },
        {
          "internalType": "bool",
          "name": "",
          "type": "bool"
        }
      ],
      "stateMutability": "view",
      "type": "function"
    },
    {
      "inputs": [],
      "name": "marketOrdersTimeout",
      "outputs": [
        {
          "internalType": "uint256",
          "name": "",
          "type": "uint256"
        }
      ],
      "stateMutability": "view",
      "type": "function"
    },
    {
      "inputs": [],
      "name": "maxPosWETH",
      "outputs": [
        {
          "internalType": "uint256",
          "name": "",
          "type": "uint256"
        }
      ],
      "stateMutability": "view",
      "type": "function"
    },
    {
      "inputs": [],
      "name": "minLeveragedPosWETH",
      "outputs": [
        {
          "internalType": "int256",
          "name": "",
          "type": "int256"
        }
      ],
      "stateMutability": "view",
      "type": "function"
    },
    {
      "inputs": [],
      "name": "nftRewards",
      "outputs": [
        {
          "internalType": "contract NftRewardsInterfaceV6_3_1",
          "name": "",
          "type": "address"
        }
      ],
      "stateMutability": "view",
      "type": "function"
    },
    {
      "inputs": [
        {
          "components": [
            {
              "internalType": "address",
              "name": "trader",
              "type": "address"
            },
            {
              "internalType": "uint256",
              "name": "pairIndex",
              "type": "uint256"
            },
            {
              "internalType": "uint256",
              "name": "index",
              "type": "uint256"
            },
            {
              "internalType": "uint256",
              "name": "initialPosToken",
              "type": "uint256"
            },
            {
              "internalType": "uint256",
              "name": "positionSizeWETH",
              "type": "uint256"
            },
            {
              "internalType": "uint256",
              "name": "openPrice",
              "type": "uint256"
            },
            {
              "internalType": "bool",
              "name": "buy",
              "type": "bool"
            },
            {
              "internalType": "uint256",
              "name": "leverage",
              "type": "uint256"
            },
            {
              "internalType": "uint256",
              "name": "tp",
              "type": "uint256"
            },
            {
              "internalType": "uint256",
              "name": "sl",
              "type": "uint256"
            }
          ],
          "internalType": "struct StorageInterface.Trade",
          "name": "t",
          "type": "tuple"
        },
        {
          "internalType": "enum NftRewardsInterfaceV6_3_1.OpenLimitOrderType",
          "name": "orderType",
          "type": "uint8"
        },
        {
          "internalType": "uint256",
          "name": "spreadReductionId",
          "type": "uint256"
        },
        {
          "internalType": "uint256",
          "name": "slippageP",
          "type": "uint256"
        }
      ],
      "name": "openTrade",
      "outputs": [],
      "stateMutability": "nonpayable",
      "type": "function"
    },
    {
      "inputs": [],
      "name": "pairInfos",
      "outputs": [
        {
          "internalType": "contract PairInfosInterface",
          "name": "",
          "type": "address"
        }
      ],
      "stateMutability": "view",
      "type": "function"
    },
    {
      "inputs": [],
      "name": "pause",
      "outputs": [],
      "stateMutability": "nonpayable",
      "type": "function"
    },
    {
      "inputs": [],
      "name": "referrals",
      "outputs": [
        {
          "internalType": "contract ReferralsInterface",
          "name": "",
          "type": "address"
        }
      ],
      "stateMutability": "view",
      "type": "function"
    },
    {
      "inputs": [],
      "name": "removeDelegate",
      "outputs": [],
      "stateMutability": "nonpayable",
      "type": "function"
    },
    {
      "inputs": [
        {
          "internalType": "address",
          "name": "delegate",
          "type": "address"
        }
      ],
      "name": "setDelegate",
      "outputs": [],
      "stateMutability": "nonpayable",
      "type": "function"
    },
    {
      "inputs": [
        {
          "internalType": "uint256",
          "name": "value",
          "type": "uint256"
        }
      ],
      "name": "setMarketOrdersTimeout",
      "outputs": [],
      "stateMutability": "nonpayable",
      "type": "function"
    },
    {
      "inputs": [
        {
          "internalType": "uint256",
          "name": "value",
          "type": "uint256"
        }
      ],
      "name": "setMaxPosWETH",
      "outputs": [],
      "stateMutability": "nonpayable",
      "type": "function"
    },
    {
      "inputs": [],
      "name": "storageT",
      "outputs": [
        {
          "internalType": "contract StorageInterface",
          "name": "",
          "type": "address"
        }
      ],
      "stateMutability": "view",
      "type": "function"
    },
    {
      "inputs": [
        {
          "internalType": "uint256",
          "name": "pairIndex",
          "type": "uint256"
        },
        {
          "internalType": "uint256",
          "name": "index",
          "type": "uint256"
        },
        {
          "internalType": "uint256",
          "name": "newSl",
          "type": "uint256"
        }
      ],
      "name": "updateSl",
      "outputs": [],
      "stateMutability": "nonpayable",
      "type": "function"
    },
    {
      "inputs": [
        {
          "internalType": "uint256",
          "name": "pairIndex",
          "type": "uint256"
        },
        {
          "internalType": "uint256",
          "name": "index",
          "type": "uint256"
        },
        {
          "internalType": "uint256",
          "name": "newTp",
          "type": "uint256"
        }
      ],
      "name": "updateTp",
      "outputs": [],
      "stateMutability": "nonpayable",
      "type": "function"
    }
  ],
  "transactionHash": "0xfda670c848e4784f8bbb281711ff0307a9bd95e15284e894a28febbe643aa3e1",
  "args": [
    "0x602562Aae7024D93B0c722BfED19aE64A5080757",
    "0x32C49beF6325A99edc528012aDE8307d04965d6B",
    "0xaDA6EBcaA17e56314cE40DD72E6380e15465F85d",
    "0x23be7Df9bd61360971b590105f54D07d4F32d98E",
    "0x796440509E6D9265890Ab6b5ab280982eFFcbeee",
    "0x985917bE916cE5E0D133893bEC7088059bbb8508",
    "1500000000000000000000",
    2
  ],
  "numDeployments": 1,
  "solcInputHash": "691d59c5126383cad64cc136e899e1f2",
  "bytecode": "0x610140604052678ac7230489e800006004553480156200001e57600080fd5b50604051620045a5380380620045a5833981016040819052620000419162000166565b6001600160a01b038816158015906200006257506001600160a01b03871615155b80156200007757506001600160a01b03861615155b80156200008c57506001600160a01b03851615155b8015620000a157506001600160a01b03841615155b8015620000b657506001600160a01b03831615155b8015620000c35750600082115b8015620000d05750600081115b620001105760405162461bcd60e51b815260206004820152600c60248201526b57524f4e475f504152414d5360a01b604482015260640160405180910390fd5b6001600160a01b0397881660805295871660a05293861660c05291851660e05284166101005260029190915560039190915516610120526200020c565b6001600160a01b03811681146200016357600080fd5b50565b600080600080600080600080610100898b0312156200018457600080fd5b885162000191816200014d565b60208a0151909850620001a4816200014d565b60408a0151909750620001b7816200014d565b60608a0151909650620001ca816200014d565b60808a0151909550620001dd816200014d565b60a08a0151909450620001f0816200014d565b60c08a015160e0909a0151989b979a5095989497939692505050565b60805160a05160c05160e05161010051610120516142386200036d600039600081816101a30152612b0f0152600081816102b501528181610567015281816114ac0152818161286601526129b9015260006104350152600081816101ef01528181610fd5015261109a015260006102dc01526000818161021601528181610652015281816108640152818161095a015281816109f601528181610a8801528181610b1a01528181610be901528181610c8801528181611193015281816112b7015281816115aa015281816116410152818161198301528181611a1901528181611aac01528181611b4b01528181611c4401528181611d7601528181612037015281816121aa01528181612219015281816123f5015281816124c201528181612531015281816127a801528181612d9c01528181612e0701528181612f4901528181613014015281816131330152818161332f015261342601526142386000f3fe608060405234801561001057600080fd5b50600436106101995760003560e01c80639a10cc32116100e4578063b81bfa0511610092578063b81bfa05146103ce578063be73fb99146103e1578063bffe3486146103f4578063ca5eb5e11461041d578063d3dc753914610430578063d8defd1514610457578063fa7fffba1461046a578063ff22dcac1461047d57600080fd5b80639a10cc32146103615780639a54adba146103815780639dadcdee1461038a578063a2a3c0cb1461039d578063ae8421e1146103b0578063b187bd26146103b8578063b1dfd530146103c557600080fd5b8063410c0b7c1161014c578063410c0b7c14610299578063531cc965146102b05780635ad9f993146102d757806368cd5088146102fe5780636b5bd974146103115780638456cb5914610324578063870f91d91461032c5780638f0622271461034f57600080fd5b8062b127831461019e578063119df25f146101e25780631346b0ff146101ea57806316fff074146102115780632c1e4e551461023857806336fb8b151461024d57806340b615971461026f575b600080fd5b6101c57f000000000000000000000000000000000000000000000000000000000000000081565b6040516001600160a01b0390911681526020015b60405180910390f35b6101c5610490565b6101c57f000000000000000000000000000000000000000000000000000000000000000081565b6101c57f000000000000000000000000000000000000000000000000000000000000000081565b61024b610246366004613592565b6104b8565b005b61024b33600090815260208190526040902080546001600160a01b0319169055565b61028261027d3660046136e3565b610549565b6040805192151583529015156020830152016101d9565b6102a260035481565b6040519081526020016101d9565b6101c57f000000000000000000000000000000000000000000000000000000000000000081565b6101c57f000000000000000000000000000000000000000000000000000000000000000081565b61024b61030c366004613700565b610788565b61028261031f3660046136e3565b61148e565b61024b61154f565b61033f61033a36600461374d565b6115a5565b60405190151581526020016101d9565b60055461033f90610100900460ff1681565b61037461036f366004613782565b61176d565b6040516101d99190613863565b6102a260045481565b61024b6103983660046138c7565b6118a8565b61024b6103ab366004613968565b611963565b61024b611f2d565b60055461033f9060ff1681565b6102a260025481565b61024b6103dc366004613592565b611f8d565b61024b6103ef36600461398a565b612017565b6101c56104023660046139b6565b6000602081905290815260409020546001600160a01b031681565b61024b61042b3660046139b6565b612369565b6101c57f000000000000000000000000000000000000000000000000000000000000000081565b61024b61046536600461398a565b6123d5565b61024b6104783660046139d3565b612680565b61033f61048b36600461374d565b612f44565b6001546000906001600160a01b03166104a857503390565b506001546001600160a01b031690565b6104c0613012565b600081116104e95760405162461bcd60e51b81526004016104e090613a23565b60405180910390fd5b600281905560408051818152600a91810191909152690dac2f0a0dee6ae8aa8960b31b6060820152602081018290527f8cf3e35f6221b16e1670a3413180c9484bf5aa71787905909fa82a6a2662e9ab906080015b60405180910390a150565b6000808260e0015160000361056357506000928392509050565b60007f00000000000000000000000000000000000000000000000000000000000000006001600160a01b03166364d372c66040518060e0016040528087600001516001600160a01b0316815260200187602001518152602001876040015181526020018760a0015181526020018760c0015115158152602001876080015181526020018760e001518152506040518263ffffffff1660e01b815260040161060a9190613a44565b602060405180830381865afa158015610627573d6000803e3d6000fd5b505050506040513d601f19601f8201168201806040525081019061064b9190613a98565b90506000807f00000000000000000000000000000000000000000000000000000000000000006001600160a01b0316637dc0d1d06040518163ffffffff1660e01b8152600401602060405180830381865afa1580156106ae573d6000803e3d6000fd5b505050506040513d601f19601f820116820180604052508101906106d29190613ab1565b6001600160a01b031663e757223087602001516040518263ffffffff1660e01b815260040161070391815260200190565b6040805180830381865afa15801561071f573d6000803e3d6000fd5b505050506040513d601f19601f820116820180604052508101906107439190613ace565b9150915060008661012001516000148061077757508660c0015161076e578661012001518410610777565b86610120015184115b939092111596929550919350505050565b6107906130e1565b6107986130ed565b60055460ff16156107d45760405162461bcd60e51b815260206004820152600660248201526514105554d15160d21b60448201526064016104e0565b600019818560a001516107e79190613b08565b1061081f5760405162461bcd60e51b81526020600482015260086024820152674f564552464c4f5760c01b60448201526064016104e0565b60008460a00151116108605760405162461bcd60e51b815260206004820152600a60248201526950524943455f5a45524f60b01b60448201526064016104e0565b60007f00000000000000000000000000000000000000000000000000000000000000006001600160a01b0316633078fff56040518163ffffffff1660e01b8152600401602060405180830381865afa1580156108c0573d6000803e3d6000fd5b505050506040513d601f19601f820116820180604052508101906108e49190613ab1565b90506000816001600160a01b03166335b03c176040518163ffffffff1660e01b8152600401602060405180830381865afa158015610926573d6000803e3d6000fd5b505050506040513d601f19601f8201168201806040525081019061094a9190613ab1565b90506000610956610490565b90507f00000000000000000000000000000000000000000000000000000000000000006001600160a01b031663f65d9dbe6040518163ffffffff1660e01b8152600401602060405180830381865afa1580156109b6573d6000803e3d6000fd5b505050506040513d601f19601f820116820180604052508101906109da9190613a98565b6020880151604051634bf3ccad60e11b81526001600160a01b037f000000000000000000000000000000000000000000000000000000000000000016916397e7995a91610a2b918691600401613b27565b602060405180830381865afa158015610a48573d6000803e3d6000fd5b505050506040513d601f19601f82011682018060405250810190610a6c9190613a98565b6020890151604051639c8912f160e01b81526001600160a01b037f00000000000000000000000000000000000000000000000000000000000000001691639c8912f191610abd918791600401613b27565b602060405180830381865afa158015610ada573d6000803e3d6000fd5b505050506040513d601f19601f82011682018060405250810190610afe9190613a98565b60208a01516040516307218dad60e21b81526001600160a01b037f00000000000000000000000000000000000000000000000000000000000000001691631c8636b491610b4f918891600401613b27565b602060405180830381865afa158015610b6c573d6000803e3d6000fd5b505050506040513d601f19601f82011682018060405250810190610b909190613a98565b610b9a9190613b40565b610ba49190613b40565b10610be75760405162461bcd60e51b815260206004820152601360248201527226a0ac2faa2920a222a9afa822a92fa820a4a960691b60448201526064016104e0565b7f00000000000000000000000000000000000000000000000000000000000000006001600160a01b0316638049fde76040518163ffffffff1660e01b8152600401602060405180830381865afa158015610c45573d6000803e3d6000fd5b505050506040513d601f19601f82011682018060405250810190610c699190613a98565b60405163f7b3c6fd60e01b81526001600160a01b0383811660048301527f0000000000000000000000000000000000000000000000000000000000000000169063f7b3c6fd90602401602060405180830381865afa158015610ccf573d6000803e3d6000fd5b505050506040513d601f19601f82011682018060405250810190610cf39190613a98565b10610d105760405162461bcd60e51b81526004016104e090613b58565b60025487608001511115610d565760405162461bcd60e51b815260206004820152600d60248201526c41424f56455f4d41585f504f5360981b60448201526064016104e0565b602087015160405163601e3b6b60e11b815260048101919091526001600160a01b0383169063c03c76d690602401602060405180830381865afa158015610da1573d6000803e3d6000fd5b505050506040513d601f19601f82011682018060405250810190610dc59190613a98565b8760e001518860800151610dd99190613b08565b1015610e175760405162461bcd60e51b815260206004820152600d60248201526c42454c4f575f4d494e5f504f5360981b60448201526064016104e0565b60008760e00151118015610e9d5750602087015160405163059a992d60e41b815260048101919091526001600160a01b038316906359a992d090602401602060405180830381865afa158015610e71573d6000803e3d6000fd5b505050506040513d601f19601f82011682018060405250810190610e959190613a98565b8760e0015110155b8015610eba5750610eb282886020015161312e565b8760e0015111155b610efb5760405162461bcd60e51b815260206004820152601260248201527113115591549051d157d25390d3d4949150d560721b60448201526064016104e0565b6101008701511580610f2f57508660c00151610f22578660a0015187610100015110610f2f565b8660a00151876101000151115b610f665760405162461bcd60e51b8152602060048201526008602482015267057524f4e475f54560c41b60448201526064016104e0565b6101208701511580610f9a57508660c00151610f8d578660a0015187610120015111610f9a565b8660a00151876101200151105b610fd15760405162461bcd60e51b815260206004820152600860248201526715d493d391d7d4d360c21b60448201526064016104e0565b60007f00000000000000000000000000000000000000000000000000000000000000006001600160a01b0316637ea95f3260008a602001518b60c001518c60e001518d608001516110229190613b08565b6040516001600160e01b031960e087901b168152600481019490945260248401929092521515604483015260648201526084016040805180830381865afa158015611071573d6000803e3d6000fd5b505050506040513d601f19601f820116820180604052508101906110959190613ace565b5090507f00000000000000000000000000000000000000000000000000000000000000006001600160a01b03166380f6cfc26040518163ffffffff1660e01b8152600401602060405180830381865afa1580156110f6573d6000803e3d6000fd5b505050506040513d601f19601f8201168201806040525081019061111a9190613a98565b60e08901516111299083613b08565b111561116f5760405162461bcd60e51b81526020600482015260156024820152740a0a492868abe929aa08286a8bea89e9ebe90928e9605b1b60448201526064016104e0565b6080880151604051638a238ae560e01b81526001600160a01b0384811660048301527f000000000000000000000000000000000000000000000000000000000000000016602482018190526044820192909252638a238ae590606401600060405180830381600087803b1580156111e557600080fd5b505af11580156111f9573d6000803e3d6000fd5b5060009250611206915050565b87600281111561121857611218613b84565b03611484576000846001600160a01b0316636938c05d8a6020015160008c60e001518d608001516112499190613b08565b6112516132a2565b6040518563ffffffff1660e01b81526004016112709493929190613bae565b6020604051808303816000875af115801561128f573d6000803e3d6000fd5b505050506040513d601f19601f820116820180604052508101906112b39190613a98565b90507f00000000000000000000000000000000000000000000000000000000000000006001600160a01b0316633078fff56040518163ffffffff1660e01b8152600401602060405180830381865afa158015611313573d6000803e3d6000fd5b505050506040513d601f19601f820116820180604052508101906113379190613ab1565b6001600160a01b0316638f93b660826040518060c00160405280604051806101400160405280896001600160a01b031681526020018f60200151815260200160008152602001600081526020018f608001518152602001600081526020018f60c00151151581526020018f60e0015181526020018f610100015181526020018f61012001518152508152602001600081526020018d60a0015181526020018a81526020016000815260200160008152506040518363ffffffff1660e01b8152600401611404929190613bd4565b600060405180830381600087803b15801561141e57600080fd5b505af1158015611432573d6000803e3d6000fd5b505050508860200151836001600160a01b0316827f3e544118c04e3bb18b669475695cd270ba0e41fb13177483f01c14222de62a86600160405161147a911515815260200190565b60405180910390a4505b5050505050505050565b6000808260e001516000036114a857506000928392509050565b60007f00000000000000000000000000000000000000000000000000000000000000006001600160a01b031663706faf3a6040518060e0016040528087600001516001600160a01b0316815260200187602001518152602001876040015181526020018760a0015181526020018760c0015115158152602001876080015181526020018760e001518152506040518263ffffffff1660e01b815260040161060a9190613a44565b611557613012565b6005805460ff8082161560ff1990921682179092556040519116151581527f0e2fb031ee032dc02d8011dc50b816eb450cf856abd8261680dac74f72165bd2906020015b60405180910390a1565b6000807f00000000000000000000000000000000000000000000000000000000000000006001600160a01b0316632a0a1cb08686866040518463ffffffff1660e01b81526004016115f893929190613c97565b61014060405180830381865afa158015611616573d6000803e3d6000fd5b505050506040513d601f19601f8201168201806040525081019061163a9190613cce565b90506000807f00000000000000000000000000000000000000000000000000000000000000006001600160a01b0316637dc0d1d06040518163ffffffff1660e01b8152600401602060405180830381865afa15801561169d573d6000803e3d6000fd5b505050506040513d601f19601f820116820180604052508101906116c19190613ab1565b6001600160a01b031663e7572230876040518263ffffffff1660e01b81526004016116ee91815260200190565b6040805180830381865afa15801561170a573d6000803e3d6000fd5b505050506040513d601f19601f8201168201806040525081019061172e9190613ace565b9150915060008061173e85610549565b915091508061175f5760405162461bcd60e51b81526004016104e090613d60565b5093505050505b9392505050565b6001600160a01b038381166000908152602081905260409020546060911633146117d15760405162461bcd60e51b81526020600482015260156024820152741111531151d0551157d393d517d054141493d59151605a1b60448201526064016104e0565b600180546001600160a01b0319166001600160a01b038616179055604051600090819030906118039087908790613d80565b600060405180830381855af49150503d806000811461183e576040519150601f19603f3d011682016040523d82523d6000602084013e611843565b606091505b50915091508161188f5760448151101561185c57600080fd5b600481019050808060200190518101906118769190613d90565b60405162461bcd60e51b81526004016104e09190613863565b600180546001600160a01b031916905595945050505050565b6118b06130ed565b60005b606481101561195c5760008482606481106118d0576118d0613e3d565b60200201516001600160a01b03161461194a5761194a8582606481106118f8576118f8613e3d565b602002015185836064811061190f5761190f613e3d565b602002015185846064811061192657611926613e3d565b602002015185856064811061193d5761193d613e3d565b6020020151600180612680565b8061195481613e53565b9150506118b3565b5050505050565b61196b6130e1565b6119736130ed565b600061197d610490565b905060007f00000000000000000000000000000000000000000000000000000000000000006001600160a01b0316632a0a1cb08386866040518463ffffffff1660e01b81526004016119d193929190613c97565b61014060405180830381865afa1580156119ef573d6000803e3d6000fd5b505050506040513d601f19601f82011682018060405250810190611a139190613cce565b905060007f00000000000000000000000000000000000000000000000000000000000000006001600160a01b031663ee51f6368487876040518463ffffffff1660e01b8152600401611a6793929190613c97565b60c060405180830381865afa158015611a84573d6000803e3d6000fd5b505050506040513d601f19601f82011682018060405250810190611aa89190613e6c565b90507f00000000000000000000000000000000000000000000000000000000000000006001600160a01b0316638049fde76040518163ffffffff1660e01b8152600401602060405180830381865afa158015611b08573d6000803e3d6000fd5b505050506040513d601f19601f82011682018060405250810190611b2c9190613a98565b60405163f7b3c6fd60e01b81526001600160a01b0385811660048301527f0000000000000000000000000000000000000000000000000000000000000000169063f7b3c6fd90602401602060405180830381865afa158015611b92573d6000803e3d6000fd5b505050506040513d601f19601f82011682018060405250810190611bb69190613a98565b10611bd35760405162461bcd60e51b81526004016104e090613b58565b8060a0015115611c1c5760405162461bcd60e51b81526020600482015260146024820152731053149150511657d091525391d7d0d313d4d15160621b60448201526064016104e0565b60008260e0015111611c405760405162461bcd60e51b81526004016104e090613eec565b60007f00000000000000000000000000000000000000000000000000000000000000006001600160a01b0316633078fff56040518163ffffffff1660e01b8152600401602060405180830381865afa158015611ca0573d6000803e3d6000fd5b505050506040513d601f19601f82011682018060405250810190611cc49190613ab1565b6001600160a01b0316636938c05d8760016402540be4008760e0015187602001518960600151611cf49190613b08565b611cfe9190613b08565b611d089190613f0e565b611d106132a2565b6040518563ffffffff1660e01b8152600401611d2f9493929190613bae565b6020604051808303816000875af1158015611d4e573d6000803e3d6000fd5b505050506040513d601f19601f82011682018060405250810190611d729190613a98565b90507f00000000000000000000000000000000000000000000000000000000000000006001600160a01b0316633078fff56040518163ffffffff1660e01b8152600401602060405180830381865afa158015611dd2573d6000803e3d6000fd5b505050506040513d601f19601f82011682018060405250810190611df69190613ab1565b6001600160a01b0316638f93b660826040518060c001604052806040518061014001604052808a6001600160a01b031681526020018c81526020018b81526020016000815260200160008152602001600081526020016000151581526020016000815260200160008152602001600081525081526020016000815260200160008152602001600081526020016000815260200160008152506040518363ffffffff1660e01b8152600401611eab929190613bd4565b600060405180830381600087803b158015611ec557600080fd5b505af1158015611ed9573d6000803e3d6000fd5b5050505085846001600160a01b0316827f3e544118c04e3bb18b669475695cd270ba0e41fb13177483f01c14222de62a866000604051611f1d911515815260200190565b60405180910390a4505050505050565b611f35613012565b6005805460ff610100808304821615810261ff001990931692909217928390556040517fc3a6f986261de9467c2838c6df8ef74f9107855159205600c0bc7a14cdfd38889361159b9390049091161515815260200190565b611f95613012565b60008111611fb55760405162461bcd60e51b81526004016104e090613a23565b600381905560408051818152601391810191909152721b585c9ad95d13dc99195c9cd51a5b595bdd5d606a1b6060820152602081018290527f8cf3e35f6221b16e1670a3413180c9484bf5aa71787905909fa82a6a2662e9ab9060800161053e565b61201f6130e1565b6120276130ed565b6000612031610490565b905060007f00000000000000000000000000000000000000000000000000000000000000006001600160a01b0316632a0a1cb08387876040518463ffffffff1660e01b815260040161208593929190613c97565b61014060405180830381865afa1580156120a3573d6000803e3d6000fd5b505050506040513d601f19601f820116820180604052508101906120c79190613cce565b905060008160e00151116120ed5760405162461bcd60e51b81526004016104e090613eec565b60008160e001516064604b8460a001516121079190613b08565b6121119190613f0e565b61211b9190613f0e565b905083158061215a57508160c0015161214657808260a0015161213e9190613b40565b84111561215a565b808260a001516121569190613f30565b8410155b6121935760405162461bcd60e51b815260206004820152600a602482015269534c5f544f4f5f42494760b01b60448201526064016104e0565b60405163a354418160e01b81526001600160a01b037f0000000000000000000000000000000000000000000000000000000000000000169063a3544181906121e59086908a908a908a90600401613f47565b600060405180830381600087803b1580156121ff57600080fd5b505af1158015612213573d6000803e3d6000fd5b505050507f00000000000000000000000000000000000000000000000000000000000000006001600160a01b031662b127836040518163ffffffff1660e01b8152600401602060405180830381865afa158015612274573d6000803e3d6000fd5b505050506040513d601f19601f820116820180604052508101906122989190613ab1565b6001600160a01b0316735b57a26FdF0387F70cD19E98703253002aEfE190633c63a7d0909185898960006122ca6132a2565b6040518763ffffffff1660e01b81526004016122eb96959493929190613f7d565b60006040518083038186803b15801561230357600080fd5b505af4158015612317573d6000803e3d6000fd5b505060408051888152602081018890528993506001600160a01b03871692507f1fc4a6c7ffe506697979b8ed54dc4135cd1ecd26a2745f70b760a2492222b316910160405180910390a3505050505050565b3233146123a65760405162461bcd60e51b815260206004820152600b60248201526a1393d7d0d3d395149050d560aa1b60448201526064016104e0565b33600090815260208190526040902080546001600160a01b0319166001600160a01b0392909216919091179055565b6123dd6130e1565b6123e56130ed565b60006123ef610490565b905060007f00000000000000000000000000000000000000000000000000000000000000006001600160a01b0316632a0a1cb08387876040518463ffffffff1660e01b815260040161244393929190613c97565b61014060405180830381865afa158015612461573d6000803e3d6000fd5b505050506040513d601f19601f820116820180604052508101906124859190613cce565b905060008160e00151116124ab5760405162461bcd60e51b81526004016104e090613eec565b604051637fdb96f360e01b81526001600160a01b037f00000000000000000000000000000000000000000000000000000000000000001690637fdb96f3906124fd908590899089908990600401613f47565b600060405180830381600087803b15801561251757600080fd5b505af115801561252b573d6000803e3d6000fd5b505050507f00000000000000000000000000000000000000000000000000000000000000006001600160a01b031662b127836040518163ffffffff1660e01b8152600401602060405180830381865afa15801561258c573d6000803e3d6000fd5b505050506040513d601f19601f820116820180604052508101906125b09190613ab1565b6001600160a01b0316735b57a26FdF0387F70cD19E98703253002aEfE190638fff7d82909184888860006125e26132a2565b6040518763ffffffff1660e01b815260040161260396959493929190613f7d565b60006040518083038186803b15801561261b57600080fd5b505af415801561262f573d6000803e3d6000fd5b505060408051878152602081018790528893506001600160a01b03861692507f7e06a81c7a47891ccc7455b5ccb2ed850e32bb655ccda67eb3ebaaeed83242a4910160405180910390a35050505050565b6126886130ed565b600086600481111561269c5761269c613b84565b905060006126a8610490565b9050600060038360048111156126c0576126c0613b84565b1490506000816126d15760006126d4565b60015b905061273760405180610140016040528060006001600160a01b0316815260200160008152602001600081526020016000815260200160008152602001600081526020016000151581526020016000815260200160008152602001600081525090565b82156127915760405162461bcd60e51b815260206004820152602360248201527f4f70656e204c696d6974206f7264657273206e6f7420737570706f72746564206044820152621e595d60ea1b60648201526084016104e0565b6040516302a0a1cb60e41b81526001600160a01b037f00000000000000000000000000000000000000000000000000000000000000001690632a0a1cb0906127e1908d908d908d90600401613c97565b61014060405180830381865afa1580156127ff573d6000803e3d6000fd5b505050506040513d601f19601f820116820180604052508101906128239190613cce565b905060008160e00151116128495760405162461bcd60e51b81526004016104e090613eec565b600285600481111561285d5761285d613b84565b0361299c5760007f00000000000000000000000000000000000000000000000000000000000000006001600160a01b031663706faf3a6040518060e0016040528085600001516001600160a01b0316815260200185602001518152602001856040015181526020018560a0015181526020018560c0015115158152602001856080015181526020018560e001518152506040518263ffffffff1660e01b81526004016129099190613a44565b602060405180830381865afa158015612926573d6000803e3d6000fd5b505050506040513d601f19601f8201168201806040525081019061294a9190613a98565b90508161012001516000148061297a57508160c0015161297157816101200151811061297a565b81610120015181115b6129965760405162461bcd60e51b81526004016104e090613d60565b50612cc8565b60048560048111156129b0576129b0613b84565b03612c145760007f00000000000000000000000000000000000000000000000000000000000000006001600160a01b03166364d372c66040518060e0016040528085600001516001600160a01b0316815260200185602001518152602001856040015181526020018560a0015181526020018560c0015115158152602001856080015181526020018560e001518152506040518263ffffffff1660e01b8152600401612a5c9190613a44565b602060405180830381865afa158015612a79573d6000803e3d6000fd5b505050506040513d601f19601f82011682018060405250810190612a9d9190613a98565b905081610120015160001480612acd57508160c00151612ac4578161012001518110612acd565b81610120015181115b612ae95760405162461bcd60e51b81526004016104e090613d60565b8151602083015160408085015190516304ec194160e21b81526000936001600160a01b037f000000000000000000000000000000000000000000000000000000000000000016936313b0650493612b4293600401613c97565b602060405180830381865afa158015612b5f573d6000803e3d6000fd5b505050506040513d601f19601f82011682018060405250810190612b839190613a98565b90506000818460800151612b979190613fc1565b90506004548460e0015182612bac9190614002565b1215612c0c5760405162461bcd60e51b815260206004820152602960248201527f706f736974696f6e20746f20736d616c6c20666f72207061727469616c206c6960448201526838bab4b230ba34b7b760b91b60648201526084016104e0565b505050612cc8565b6001856004811115612c2857612c28613b84565b141580612c3a57506000816101200151115b612c6e5760405162461bcd60e51b81526020600482015260056024820152641393d7d4d360da1b60448201526064016104e0565b6000856004811115612c8257612c82613b84565b141580612c9457506000816101000151115b612cc85760405162461bcd60e51b815260206004820152600560248201526404e4f5f54560dc1b60448201526064016104e0565b600083612ce6578160e001518260800151612ce39190613b08565b90505b6000612cf7858d8d8d888c88613328565b509050612d306040805160c08101825260008082526020820181905291810182905260608101829052608081018290529060a082015290565b6001600160a01b038088168252602082018b90528d166040820152606081018c9052608081018b905260a08101886004811115612d6f57612d6f613b84565b90816004811115612d8257612d82613b84565b90525060405163205fe86960e21b81526001600160a01b037f0000000000000000000000000000000000000000000000000000000000000000169063817fa1a490612dd390849086906004016140df565b600060405180830381600087803b158015612ded57600080fd5b505af1158015612e01573d6000803e3d6000fd5b505050507f00000000000000000000000000000000000000000000000000000000000000006001600160a01b0316633078fff56040518163ffffffff1660e01b8152600401602060405180830381865afa158015612e63573d6000803e3d6000fd5b505050506040513d601f19601f82011682018060405250810190612e879190613ab1565b6001600160a01b03166339fe9fd283836040518363ffffffff1660e01b8152600401612eb49291906140fa565b600060405180830381600087803b158015612ece57600080fd5b505af1158015612ee2573d6000803e3d6000fd5b505050508b8d6001600160a01b0316886001600160a01b03167f6d87222414c5850caf1d385b1e080a771b505825b082a2162d0f4af5ffc86c0085604051612f2c91815260200190565b60405180910390a45050505050505050505050505050565b6000807f00000000000000000000000000000000000000000000000000000000000000006001600160a01b0316632a0a1cb08686866040518463ffffffff1660e01b8152600401612f9793929190613c97565b61014060405180830381865afa158015612fb5573d6000803e3d6000fd5b505050506040513d601f19601f82011682018060405250810190612fd99190613cce565b9050600080612fe78361148e565b91509150806130085760405162461bcd60e51b81526004016104e090613d60565b5095945050505050565b7f00000000000000000000000000000000000000000000000000000000000000006001600160a01b03166312d43a516040518163ffffffff1660e01b8152600401602060405180830381865afa158015613070573d6000803e3d6000fd5b505050506040513d601f19601f820116820180604052508101906130949190613ab1565b6001600160a01b0316336001600160a01b0316146130df5760405162461bcd60e51b8152602060048201526008602482015267474f565f4f4e4c5960c01b60448201526064016104e0565b565b3233146130df57600080fd5b600554610100900460ff16156130df5760405162461bcd60e51b81526004016104e090602080825260049082015263444f4e4560e01b604082015260600190565b6000807f00000000000000000000000000000000000000000000000000000000000000006001600160a01b031662b127836040518163ffffffff1660e01b8152600401602060405180830381865afa15801561318e573d6000803e3d6000fd5b505050506040513d601f19601f820116820180604052508101906131b29190613ab1565b6001600160a01b031663281b693c846040518263ffffffff1660e01b81526004016131df91815260200190565b602060405180830381865afa1580156131fc573d6000803e3d6000fd5b505050506040513d601f19601f820116820180604052508101906132209190613a98565b90506000811161329857604051630a06da4f60e21b8152600481018490526001600160a01b0385169063281b693c90602401602060405180830381865afa15801561326f573d6000803e3d6000fd5b505050506040513d601f19601f820116820180604052508101906132939190613a98565b61329a565b805b949350505050565b600061a4b14614806132b6575062066eed46145b156133235760646001600160a01b031663a3b1b31d6040518163ffffffff1660e01b8152600401602060405180830381865afa1580156132fa573d6000803e3d6000fd5b505050506040513d601f19601f8201168201806040525081019061331e9190613a98565b905090565b504390565b60008060007f00000000000000000000000000000000000000000000000000000000000000006001600160a01b031662b127836040518163ffffffff1660e01b8152600401602060405180830381865afa15801561338a573d6000803e3d6000fd5b505050506040513d601f19601f820116820180604052508101906133ae9190613ab1565b6001600160a01b0316639bd24d838a8a8a8a6040518563ffffffff1660e01b81526004016133df949392919061410e565b608060405180830381865afa1580156133fc573d6000803e3d6000fd5b505050506040513d601f19601f820116820180604052508101906134209190614156565b905060007f00000000000000000000000000000000000000000000000000000000000000006001600160a01b0316633078fff56040518163ffffffff1660e01b8152600401602060405180830381865afa158015613482573d6000803e3d6000fd5b505050506040513d601f19601f820116820180604052508101906134a69190613ab1565b9050806001600160a01b0316636938c05d8a8d6134c45760036134c7565b60025b888f61351a5760018b60048111156134e1576134e1613b84565b146135105760008b60048111156134fa576134fa613b84565b14613509578660600151613520565b8651613520565b8660200151613520565b86604001515b6040518563ffffffff1660e01b815260040161353f94939291906141d3565b6020604051808303816000875af115801561355e573d6000803e3d6000fd5b505050506040513d601f19601f820116820180604052508101906135829190613a98565b9350505097509795505050505050565b6000602082840312156135a457600080fd5b5035919050565b634e487b7160e01b600052604160045260246000fd5b604051610140810167ffffffffffffffff811182821017156135e5576135e56135ab565b60405290565b604051610c80810167ffffffffffffffff811182821017156135e5576135e56135ab565b6001600160a01b038116811461362457600080fd5b50565b80356136328161360f565b919050565b801515811461362457600080fd5b803561363281613637565b6000610140828403121561366357600080fd5b61366b6135c1565b905061367682613627565b81526020820135602082015260408201356040820152606082013560608201526080820135608082015260a082013560a08201526136b660c08301613645565b60c082015260e082013560e082015261010080830135818301525061012080830135818301525092915050565b600061014082840312156136f657600080fd5b6117668383613650565b6000806000806101a0858703121561371757600080fd5b6137218686613650565b93506101408501356003811061373657600080fd5b939693955050505061016082013591610180013590565b60008060006060848603121561376257600080fd5b833561376d8161360f565b95602085013595506040909401359392505050565b60008060006040848603121561379757600080fd5b83356137a28161360f565b9250602084013567ffffffffffffffff808211156137bf57600080fd5b818601915086601f8301126137d357600080fd5b8135818111156137e257600080fd5b8760208285010111156137f457600080fd5b6020830194508093505050509250925092565b60005b8381101561382257818101518382015260200161380a565b83811115613831576000848401525b50505050565b6000815180845261384f816020860160208601613807565b601f01601f19169290920160200192915050565b6020815260006117666020830184613837565b600082601f83011261388757600080fd5b61388f6135eb565b80610c808401858111156138a257600080fd5b845b818110156138bc5780358452602093840193016138a4565b509095945050505050565b60008060008061320085870312156138de57600080fd5b6138e88686613876565b935085610c9f8601126138fa57600080fd5b6139026135eb565b8061190087018881111561391557600080fd5b610c8088015b8181101561393c57803561392e8161360f565b84526020938401930161391b565b5081955061394a8982613876565b945050505061395d866125808701613876565b905092959194509250565b6000806040838503121561397b57600080fd5b50508035926020909101359150565b60008060006060848603121561399f57600080fd5b505081359360208301359350604090920135919050565b6000602082840312156139c857600080fd5b81356132988161360f565b60008060008060008060c087890312156139ec57600080fd5b8635955060208701356139fe8161360f565b95989597505050506040840135936060810135936080820135935060a0909101359150565b602080825260079082015266056414c55455f360cc1b604082015260600190565b81516001600160a01b0316815260208083015190820152604080830151908201526060808301519082015260808083015115159082015260a0828101519082015260c0918201519181019190915260e00190565b600060208284031215613aaa57600080fd5b5051919050565b600060208284031215613ac357600080fd5b81516132988161360f565b60008060408385031215613ae157600080fd5b505080516020909101519092909150565b634e487b7160e01b600052601160045260246000fd5b6000816000190483118215151615613b2257613b22613af2565b500290565b6001600160a01b03929092168252602082015260400190565b60008219821115613b5357613b53613af2565b500190565b6020808252601290820152714d41585f50454e44494e475f4f524445525360701b604082015260600190565b634e487b7160e01b600052602160045260246000fd5b60048110613baa57613baa613b84565b9052565b84815260808101613bc26020830186613b9a565b60408201939093526060015292915050565b828152815180516001600160a01b03166020830152610200820190602081015160408401526040810151606084015260608101516080840152608081015160a084015260a081015160c084015260c0810151613c3460e085018215159052565b5060e0810151610100848101919091528101516101208085019190915201516101408301526020830151610160830152604083015161018083015260608301516101a083015260808301516101c083015260a0909201516101e090910152919050565b6001600160a01b039390931683526020830191909152604082015260600190565b80516136328161360f565b805161363281613637565b60006101408284031215613ce157600080fd5b613ce96135c1565b613cf283613cb8565b81526020830151602082015260408301516040820152606083015160608201526080830151608082015260a083015160a0820152613d3260c08401613cc3565b60c082015260e083810151908201526101008084015190820152610120928301519281019290925250919050565b602080825260069082015265121054d7d4d360d21b604082015260600190565b8183823760009101908152919050565b600060208284031215613da257600080fd5b815167ffffffffffffffff80821115613dba57600080fd5b818401915084601f830112613dce57600080fd5b815181811115613de057613de06135ab565b604051601f8201601f19908116603f01168101908382118183101715613e0857613e086135ab565b81604052828152876020848701011115613e2157600080fd5b613e32836020830160208801613807565b979650505050505050565b634e487b7160e01b600052603260045260246000fd5b600060018201613e6557613e65613af2565b5060010190565b600060c08284031215613e7e57600080fd5b60405160c0810181811067ffffffffffffffff82111715613ea157613ea16135ab565b8060405250825181526020830151602082015260408301516040820152606083015160608201526080830151608082015260a0830151613ee081613637565b60a08201529392505050565b6020808252600890820152674e4f5f545241444560c01b604082015260600190565b600082613f2b57634e487b7160e01b600052601260045260246000fd5b500490565b600082821015613f4257613f42613af2565b500390565b6001600160a01b0394909416845260208401929092526040830152606082015260800190565b60028110613baa57613baa613b84565b6001600160a01b03878116825286166020820152604081018590526060810184905260c08101613fb06080830185613f6d565b8260a0830152979650505050505050565b600080821280156001600160ff1b0384900385131615613fe357613fe3613af2565b600160ff1b8390038412811615613ffc57613ffc613af2565b50500190565b60006001600160ff1b038184138284138082168684048611161561402857614028613af2565b600160ff1b600087128281168783058912161561404757614047613af2565b6000871292508782058712848416161561406357614063613af2565b8785058712818416161561407957614079613af2565b505050929093029392505050565b60018060a01b038082511683526020820151602084015280604083015116604084015250606081015160608301526080810151608083015260a0810151600581106140d4576140d4613b84565b8060a0840152505050565b60e081016140ed8285614087565b8260c08301529392505050565b82815260e081016117666020830184614087565b6001600160a01b03851681526020810184905260408101839052608081016141396060830184613f6d565b95945050505050565b805163ffffffff8116811461363257600080fd5b60006080828403121561416857600080fd5b6040516080810181811067ffffffffffffffff8211171561418b5761418b6135ab565b60405261419783614142565b81526141a560208401614142565b60208201526141b660408401614142565b60408201526141c760608401614142565b60608201529392505050565b848152608081016141e76020830186613b9a565b83604083015263ffffffff831660608301529594505050505056fea26469706673582212204b303568b400519ebea68ce5f58b44684d11aa898264cd3ad830085f070c226c64736f6c634300080f0033",
  "deployedBytecode": "0x608060405234801561001057600080fd5b50600436106101995760003560e01c80639a10cc32116100e4578063b81bfa0511610092578063b81bfa05146103ce578063be73fb99146103e1578063bffe3486146103f4578063ca5eb5e11461041d578063d3dc753914610430578063d8defd1514610457578063fa7fffba1461046a578063ff22dcac1461047d57600080fd5b80639a10cc32146103615780639a54adba146103815780639dadcdee1461038a578063a2a3c0cb1461039d578063ae8421e1146103b0578063b187bd26146103b8578063b1dfd530146103c557600080fd5b8063410c0b7c1161014c578063410c0b7c14610299578063531cc965146102b05780635ad9f993146102d757806368cd5088146102fe5780636b5bd974146103115780638456cb5914610324578063870f91d91461032c5780638f0622271461034f57600080fd5b8062b127831461019e578063119df25f146101e25780631346b0ff146101ea57806316fff074146102115780632c1e4e551461023857806336fb8b151461024d57806340b615971461026f575b600080fd5b6101c57f000000000000000000000000000000000000000000000000000000000000000081565b6040516001600160a01b0390911681526020015b60405180910390f35b6101c5610490565b6101c57f000000000000000000000000000000000000000000000000000000000000000081565b6101c57f000000000000000000000000000000000000000000000000000000000000000081565b61024b610246366004613592565b6104b8565b005b61024b33600090815260208190526040902080546001600160a01b0319169055565b61028261027d3660046136e3565b610549565b6040805192151583529015156020830152016101d9565b6102a260035481565b6040519081526020016101d9565b6101c57f000000000000000000000000000000000000000000000000000000000000000081565b6101c57f000000000000000000000000000000000000000000000000000000000000000081565b61024b61030c366004613700565b610788565b61028261031f3660046136e3565b61148e565b61024b61154f565b61033f61033a36600461374d565b6115a5565b60405190151581526020016101d9565b60055461033f90610100900460ff1681565b61037461036f366004613782565b61176d565b6040516101d99190613863565b6102a260045481565b61024b6103983660046138c7565b6118a8565b61024b6103ab366004613968565b611963565b61024b611f2d565b60055461033f9060ff1681565b6102a260025481565b61024b6103dc366004613592565b611f8d565b61024b6103ef36600461398a565b612017565b6101c56104023660046139b6565b6000602081905290815260409020546001600160a01b031681565b61024b61042b3660046139b6565b612369565b6101c57f000000000000000000000000000000000000000000000000000000000000000081565b61024b61046536600461398a565b6123d5565b61024b6104783660046139d3565b612680565b61033f61048b36600461374d565b612f44565b6001546000906001600160a01b03166104a857503390565b506001546001600160a01b031690565b6104c0613012565b600081116104e95760405162461bcd60e51b81526004016104e090613a23565b60405180910390fd5b600281905560408051818152600a91810191909152690dac2f0a0dee6ae8aa8960b31b6060820152602081018290527f8cf3e35f6221b16e1670a3413180c9484bf5aa71787905909fa82a6a2662e9ab906080015b60405180910390a150565b6000808260e0015160000361056357506000928392509050565b60007f00000000000000000000000000000000000000000000000000000000000000006001600160a01b03166364d372c66040518060e0016040528087600001516001600160a01b0316815260200187602001518152602001876040015181526020018760a0015181526020018760c0015115158152602001876080015181526020018760e001518152506040518263ffffffff1660e01b815260040161060a9190613a44565b602060405180830381865afa158015610627573d6000803e3d6000fd5b505050506040513d601f19601f8201168201806040525081019061064b9190613a98565b90506000807f00000000000000000000000000000000000000000000000000000000000000006001600160a01b0316637dc0d1d06040518163ffffffff1660e01b8152600401602060405180830381865afa1580156106ae573d6000803e3d6000fd5b505050506040513d601f19601f820116820180604052508101906106d29190613ab1565b6001600160a01b031663e757223087602001516040518263ffffffff1660e01b815260040161070391815260200190565b6040805180830381865afa15801561071f573d6000803e3d6000fd5b505050506040513d601f19601f820116820180604052508101906107439190613ace565b9150915060008661012001516000148061077757508660c0015161076e578661012001518410610777565b86610120015184115b939092111596929550919350505050565b6107906130e1565b6107986130ed565b60055460ff16156107d45760405162461bcd60e51b815260206004820152600660248201526514105554d15160d21b60448201526064016104e0565b600019818560a001516107e79190613b08565b1061081f5760405162461bcd60e51b81526020600482015260086024820152674f564552464c4f5760c01b60448201526064016104e0565b60008460a00151116108605760405162461bcd60e51b815260206004820152600a60248201526950524943455f5a45524f60b01b60448201526064016104e0565b60007f00000000000000000000000000000000000000000000000000000000000000006001600160a01b0316633078fff56040518163ffffffff1660e01b8152600401602060405180830381865afa1580156108c0573d6000803e3d6000fd5b505050506040513d601f19601f820116820180604052508101906108e49190613ab1565b90506000816001600160a01b03166335b03c176040518163ffffffff1660e01b8152600401602060405180830381865afa158015610926573d6000803e3d6000fd5b505050506040513d601f19601f8201168201806040525081019061094a9190613ab1565b90506000610956610490565b90507f00000000000000000000000000000000000000000000000000000000000000006001600160a01b031663f65d9dbe6040518163ffffffff1660e01b8152600401602060405180830381865afa1580156109b6573d6000803e3d6000fd5b505050506040513d601f19601f820116820180604052508101906109da9190613a98565b6020880151604051634bf3ccad60e11b81526001600160a01b037f000000000000000000000000000000000000000000000000000000000000000016916397e7995a91610a2b918691600401613b27565b602060405180830381865afa158015610a48573d6000803e3d6000fd5b505050506040513d601f19601f82011682018060405250810190610a6c9190613a98565b6020890151604051639c8912f160e01b81526001600160a01b037f00000000000000000000000000000000000000000000000000000000000000001691639c8912f191610abd918791600401613b27565b602060405180830381865afa158015610ada573d6000803e3d6000fd5b505050506040513d601f19601f82011682018060405250810190610afe9190613a98565b60208a01516040516307218dad60e21b81526001600160a01b037f00000000000000000000000000000000000000000000000000000000000000001691631c8636b491610b4f918891600401613b27565b602060405180830381865afa158015610b6c573d6000803e3d6000fd5b505050506040513d601f19601f82011682018060405250810190610b909190613a98565b610b9a9190613b40565b610ba49190613b40565b10610be75760405162461bcd60e51b815260206004820152601360248201527226a0ac2faa2920a222a9afa822a92fa820a4a960691b60448201526064016104e0565b7f00000000000000000000000000000000000000000000000000000000000000006001600160a01b0316638049fde76040518163ffffffff1660e01b8152600401602060405180830381865afa158015610c45573d6000803e3d6000fd5b505050506040513d601f19601f82011682018060405250810190610c699190613a98565b60405163f7b3c6fd60e01b81526001600160a01b0383811660048301527f0000000000000000000000000000000000000000000000000000000000000000169063f7b3c6fd90602401602060405180830381865afa158015610ccf573d6000803e3d6000fd5b505050506040513d601f19601f82011682018060405250810190610cf39190613a98565b10610d105760405162461bcd60e51b81526004016104e090613b58565b60025487608001511115610d565760405162461bcd60e51b815260206004820152600d60248201526c41424f56455f4d41585f504f5360981b60448201526064016104e0565b602087015160405163601e3b6b60e11b815260048101919091526001600160a01b0383169063c03c76d690602401602060405180830381865afa158015610da1573d6000803e3d6000fd5b505050506040513d601f19601f82011682018060405250810190610dc59190613a98565b8760e001518860800151610dd99190613b08565b1015610e175760405162461bcd60e51b815260206004820152600d60248201526c42454c4f575f4d494e5f504f5360981b60448201526064016104e0565b60008760e00151118015610e9d5750602087015160405163059a992d60e41b815260048101919091526001600160a01b038316906359a992d090602401602060405180830381865afa158015610e71573d6000803e3d6000fd5b505050506040513d601f19601f82011682018060405250810190610e959190613a98565b8760e0015110155b8015610eba5750610eb282886020015161312e565b8760e0015111155b610efb5760405162461bcd60e51b815260206004820152601260248201527113115591549051d157d25390d3d4949150d560721b60448201526064016104e0565b6101008701511580610f2f57508660c00151610f22578660a0015187610100015110610f2f565b8660a00151876101000151115b610f665760405162461bcd60e51b8152602060048201526008602482015267057524f4e475f54560c41b60448201526064016104e0565b6101208701511580610f9a57508660c00151610f8d578660a0015187610120015111610f9a565b8660a00151876101200151105b610fd15760405162461bcd60e51b815260206004820152600860248201526715d493d391d7d4d360c21b60448201526064016104e0565b60007f00000000000000000000000000000000000000000000000000000000000000006001600160a01b0316637ea95f3260008a602001518b60c001518c60e001518d608001516110229190613b08565b6040516001600160e01b031960e087901b168152600481019490945260248401929092521515604483015260648201526084016040805180830381865afa158015611071573d6000803e3d6000fd5b505050506040513d601f19601f820116820180604052508101906110959190613ace565b5090507f00000000000000000000000000000000000000000000000000000000000000006001600160a01b03166380f6cfc26040518163ffffffff1660e01b8152600401602060405180830381865afa1580156110f6573d6000803e3d6000fd5b505050506040513d601f19601f8201168201806040525081019061111a9190613a98565b60e08901516111299083613b08565b111561116f5760405162461bcd60e51b81526020600482015260156024820152740a0a492868abe929aa08286a8bea89e9ebe90928e9605b1b60448201526064016104e0565b6080880151604051638a238ae560e01b81526001600160a01b0384811660048301527f000000000000000000000000000000000000000000000000000000000000000016602482018190526044820192909252638a238ae590606401600060405180830381600087803b1580156111e557600080fd5b505af11580156111f9573d6000803e3d6000fd5b5060009250611206915050565b87600281111561121857611218613b84565b03611484576000846001600160a01b0316636938c05d8a6020015160008c60e001518d608001516112499190613b08565b6112516132a2565b6040518563ffffffff1660e01b81526004016112709493929190613bae565b6020604051808303816000875af115801561128f573d6000803e3d6000fd5b505050506040513d601f19601f820116820180604052508101906112b39190613a98565b90507f00000000000000000000000000000000000000000000000000000000000000006001600160a01b0316633078fff56040518163ffffffff1660e01b8152600401602060405180830381865afa158015611313573d6000803e3d6000fd5b505050506040513d601f19601f820116820180604052508101906113379190613ab1565b6001600160a01b0316638f93b660826040518060c00160405280604051806101400160405280896001600160a01b031681526020018f60200151815260200160008152602001600081526020018f608001518152602001600081526020018f60c00151151581526020018f60e0015181526020018f610100015181526020018f61012001518152508152602001600081526020018d60a0015181526020018a81526020016000815260200160008152506040518363ffffffff1660e01b8152600401611404929190613bd4565b600060405180830381600087803b15801561141e57600080fd5b505af1158015611432573d6000803e3d6000fd5b505050508860200151836001600160a01b0316827f3e544118c04e3bb18b669475695cd270ba0e41fb13177483f01c14222de62a86600160405161147a911515815260200190565b60405180910390a4505b5050505050505050565b6000808260e001516000036114a857506000928392509050565b60007f00000000000000000000000000000000000000000000000000000000000000006001600160a01b031663706faf3a6040518060e0016040528087600001516001600160a01b0316815260200187602001518152602001876040015181526020018760a0015181526020018760c0015115158152602001876080015181526020018760e001518152506040518263ffffffff1660e01b815260040161060a9190613a44565b611557613012565b6005805460ff8082161560ff1990921682179092556040519116151581527f0e2fb031ee032dc02d8011dc50b816eb450cf856abd8261680dac74f72165bd2906020015b60405180910390a1565b6000807f00000000000000000000000000000000000000000000000000000000000000006001600160a01b0316632a0a1cb08686866040518463ffffffff1660e01b81526004016115f893929190613c97565b61014060405180830381865afa158015611616573d6000803e3d6000fd5b505050506040513d601f19601f8201168201806040525081019061163a9190613cce565b90506000807f00000000000000000000000000000000000000000000000000000000000000006001600160a01b0316637dc0d1d06040518163ffffffff1660e01b8152600401602060405180830381865afa15801561169d573d6000803e3d6000fd5b505050506040513d601f19601f820116820180604052508101906116c19190613ab1565b6001600160a01b031663e7572230876040518263ffffffff1660e01b81526004016116ee91815260200190565b6040805180830381865afa15801561170a573d6000803e3d6000fd5b505050506040513d601f19601f8201168201806040525081019061172e9190613ace565b9150915060008061173e85610549565b915091508061175f5760405162461bcd60e51b81526004016104e090613d60565b5093505050505b9392505050565b6001600160a01b038381166000908152602081905260409020546060911633146117d15760405162461bcd60e51b81526020600482015260156024820152741111531151d0551157d393d517d054141493d59151605a1b60448201526064016104e0565b600180546001600160a01b0319166001600160a01b038616179055604051600090819030906118039087908790613d80565b600060405180830381855af49150503d806000811461183e576040519150601f19603f3d011682016040523d82523d6000602084013e611843565b606091505b50915091508161188f5760448151101561185c57600080fd5b600481019050808060200190518101906118769190613d90565b60405162461bcd60e51b81526004016104e09190613863565b600180546001600160a01b031916905595945050505050565b6118b06130ed565b60005b606481101561195c5760008482606481106118d0576118d0613e3d565b60200201516001600160a01b03161461194a5761194a8582606481106118f8576118f8613e3d565b602002015185836064811061190f5761190f613e3d565b602002015185846064811061192657611926613e3d565b602002015185856064811061193d5761193d613e3d565b6020020151600180612680565b8061195481613e53565b9150506118b3565b5050505050565b61196b6130e1565b6119736130ed565b600061197d610490565b905060007f00000000000000000000000000000000000000000000000000000000000000006001600160a01b0316632a0a1cb08386866040518463ffffffff1660e01b81526004016119d193929190613c97565b61014060405180830381865afa1580156119ef573d6000803e3d6000fd5b505050506040513d601f19601f82011682018060405250810190611a139190613cce565b905060007f00000000000000000000000000000000000000000000000000000000000000006001600160a01b031663ee51f6368487876040518463ffffffff1660e01b8152600401611a6793929190613c97565b60c060405180830381865afa158015611a84573d6000803e3d6000fd5b505050506040513d601f19601f82011682018060405250810190611aa89190613e6c565b90507f00000000000000000000000000000000000000000000000000000000000000006001600160a01b0316638049fde76040518163ffffffff1660e01b8152600401602060405180830381865afa158015611b08573d6000803e3d6000fd5b505050506040513d601f19601f82011682018060405250810190611b2c9190613a98565b60405163f7b3c6fd60e01b81526001600160a01b0385811660048301527f0000000000000000000000000000000000000000000000000000000000000000169063f7b3c6fd90602401602060405180830381865afa158015611b92573d6000803e3d6000fd5b505050506040513d601f19601f82011682018060405250810190611bb69190613a98565b10611bd35760405162461bcd60e51b81526004016104e090613b58565b8060a0015115611c1c5760405162461bcd60e51b81526020600482015260146024820152731053149150511657d091525391d7d0d313d4d15160621b60448201526064016104e0565b60008260e0015111611c405760405162461bcd60e51b81526004016104e090613eec565b60007f00000000000000000000000000000000000000000000000000000000000000006001600160a01b0316633078fff56040518163ffffffff1660e01b8152600401602060405180830381865afa158015611ca0573d6000803e3d6000fd5b505050506040513d601f19601f82011682018060405250810190611cc49190613ab1565b6001600160a01b0316636938c05d8760016402540be4008760e0015187602001518960600151611cf49190613b08565b611cfe9190613b08565b611d089190613f0e565b611d106132a2565b6040518563ffffffff1660e01b8152600401611d2f9493929190613bae565b6020604051808303816000875af1158015611d4e573d6000803e3d6000fd5b505050506040513d601f19601f82011682018060405250810190611d729190613a98565b90507f00000000000000000000000000000000000000000000000000000000000000006001600160a01b0316633078fff56040518163ffffffff1660e01b8152600401602060405180830381865afa158015611dd2573d6000803e3d6000fd5b505050506040513d601f19601f82011682018060405250810190611df69190613ab1565b6001600160a01b0316638f93b660826040518060c001604052806040518061014001604052808a6001600160a01b031681526020018c81526020018b81526020016000815260200160008152602001600081526020016000151581526020016000815260200160008152602001600081525081526020016000815260200160008152602001600081526020016000815260200160008152506040518363ffffffff1660e01b8152600401611eab929190613bd4565b600060405180830381600087803b158015611ec557600080fd5b505af1158015611ed9573d6000803e3d6000fd5b5050505085846001600160a01b0316827f3e544118c04e3bb18b669475695cd270ba0e41fb13177483f01c14222de62a866000604051611f1d911515815260200190565b60405180910390a4505050505050565b611f35613012565b6005805460ff610100808304821615810261ff001990931692909217928390556040517fc3a6f986261de9467c2838c6df8ef74f9107855159205600c0bc7a14cdfd38889361159b9390049091161515815260200190565b611f95613012565b60008111611fb55760405162461bcd60e51b81526004016104e090613a23565b600381905560408051818152601391810191909152721b585c9ad95d13dc99195c9cd51a5b595bdd5d606a1b6060820152602081018290527f8cf3e35f6221b16e1670a3413180c9484bf5aa71787905909fa82a6a2662e9ab9060800161053e565b61201f6130e1565b6120276130ed565b6000612031610490565b905060007f00000000000000000000000000000000000000000000000000000000000000006001600160a01b0316632a0a1cb08387876040518463ffffffff1660e01b815260040161208593929190613c97565b61014060405180830381865afa1580156120a3573d6000803e3d6000fd5b505050506040513d601f19601f820116820180604052508101906120c79190613cce565b905060008160e00151116120ed5760405162461bcd60e51b81526004016104e090613eec565b60008160e001516064604b8460a001516121079190613b08565b6121119190613f0e565b61211b9190613f0e565b905083158061215a57508160c0015161214657808260a0015161213e9190613b40565b84111561215a565b808260a001516121569190613f30565b8410155b6121935760405162461bcd60e51b815260206004820152600a602482015269534c5f544f4f5f42494760b01b60448201526064016104e0565b60405163a354418160e01b81526001600160a01b037f0000000000000000000000000000000000000000000000000000000000000000169063a3544181906121e59086908a908a908a90600401613f47565b600060405180830381600087803b1580156121ff57600080fd5b505af1158015612213573d6000803e3d6000fd5b505050507f00000000000000000000000000000000000000000000000000000000000000006001600160a01b031662b127836040518163ffffffff1660e01b8152600401602060405180830381865afa158015612274573d6000803e3d6000fd5b505050506040513d601f19601f820116820180604052508101906122989190613ab1565b6001600160a01b031673__$f600c6c046224cd62da9c8e7a0d00fc8b2$__633c63a7d0909185898960006122ca6132a2565b6040518763ffffffff1660e01b81526004016122eb96959493929190613f7d565b60006040518083038186803b15801561230357600080fd5b505af4158015612317573d6000803e3d6000fd5b505060408051888152602081018890528993506001600160a01b03871692507f1fc4a6c7ffe506697979b8ed54dc4135cd1ecd26a2745f70b760a2492222b316910160405180910390a3505050505050565b3233146123a65760405162461bcd60e51b815260206004820152600b60248201526a1393d7d0d3d395149050d560aa1b60448201526064016104e0565b33600090815260208190526040902080546001600160a01b0319166001600160a01b0392909216919091179055565b6123dd6130e1565b6123e56130ed565b60006123ef610490565b905060007f00000000000000000000000000000000000000000000000000000000000000006001600160a01b0316632a0a1cb08387876040518463ffffffff1660e01b815260040161244393929190613c97565b61014060405180830381865afa158015612461573d6000803e3d6000fd5b505050506040513d601f19601f820116820180604052508101906124859190613cce565b905060008160e00151116124ab5760405162461bcd60e51b81526004016104e090613eec565b604051637fdb96f360e01b81526001600160a01b037f00000000000000000000000000000000000000000000000000000000000000001690637fdb96f3906124fd908590899089908990600401613f47565b600060405180830381600087803b15801561251757600080fd5b505af115801561252b573d6000803e3d6000fd5b505050507f00000000000000000000000000000000000000000000000000000000000000006001600160a01b031662b127836040518163ffffffff1660e01b8152600401602060405180830381865afa15801561258c573d6000803e3d6000fd5b505050506040513d601f19601f820116820180604052508101906125b09190613ab1565b6001600160a01b031673__$f600c6c046224cd62da9c8e7a0d00fc8b2$__638fff7d82909184888860006125e26132a2565b6040518763ffffffff1660e01b815260040161260396959493929190613f7d565b60006040518083038186803b15801561261b57600080fd5b505af415801561262f573d6000803e3d6000fd5b505060408051878152602081018790528893506001600160a01b03861692507f7e06a81c7a47891ccc7455b5ccb2ed850e32bb655ccda67eb3ebaaeed83242a4910160405180910390a35050505050565b6126886130ed565b600086600481111561269c5761269c613b84565b905060006126a8610490565b9050600060038360048111156126c0576126c0613b84565b1490506000816126d15760006126d4565b60015b905061273760405180610140016040528060006001600160a01b0316815260200160008152602001600081526020016000815260200160008152602001600081526020016000151581526020016000815260200160008152602001600081525090565b82156127915760405162461bcd60e51b815260206004820152602360248201527f4f70656e204c696d6974206f7264657273206e6f7420737570706f72746564206044820152621e595d60ea1b60648201526084016104e0565b6040516302a0a1cb60e41b81526001600160a01b037f00000000000000000000000000000000000000000000000000000000000000001690632a0a1cb0906127e1908d908d908d90600401613c97565b61014060405180830381865afa1580156127ff573d6000803e3d6000fd5b505050506040513d601f19601f820116820180604052508101906128239190613cce565b905060008160e00151116128495760405162461bcd60e51b81526004016104e090613eec565b600285600481111561285d5761285d613b84565b0361299c5760007f00000000000000000000000000000000000000000000000000000000000000006001600160a01b031663706faf3a6040518060e0016040528085600001516001600160a01b0316815260200185602001518152602001856040015181526020018560a0015181526020018560c0015115158152602001856080015181526020018560e001518152506040518263ffffffff1660e01b81526004016129099190613a44565b602060405180830381865afa158015612926573d6000803e3d6000fd5b505050506040513d601f19601f8201168201806040525081019061294a9190613a98565b90508161012001516000148061297a57508160c0015161297157816101200151811061297a565b81610120015181115b6129965760405162461bcd60e51b81526004016104e090613d60565b50612cc8565b60048560048111156129b0576129b0613b84565b03612c145760007f00000000000000000000000000000000000000000000000000000000000000006001600160a01b03166364d372c66040518060e0016040528085600001516001600160a01b0316815260200185602001518152602001856040015181526020018560a0015181526020018560c0015115158152602001856080015181526020018560e001518152506040518263ffffffff1660e01b8152600401612a5c9190613a44565b602060405180830381865afa158015612a79573d6000803e3d6000fd5b505050506040513d601f19601f82011682018060405250810190612a9d9190613a98565b905081610120015160001480612acd57508160c00151612ac4578161012001518110612acd565b81610120015181115b612ae95760405162461bcd60e51b81526004016104e090613d60565b8151602083015160408085015190516304ec194160e21b81526000936001600160a01b037f000000000000000000000000000000000000000000000000000000000000000016936313b0650493612b4293600401613c97565b602060405180830381865afa158015612b5f573d6000803e3d6000fd5b505050506040513d601f19601f82011682018060405250810190612b839190613a98565b90506000818460800151612b979190613fc1565b90506004548460e0015182612bac9190614002565b1215612c0c5760405162461bcd60e51b815260206004820152602960248201527f706f736974696f6e20746f20736d616c6c20666f72207061727469616c206c6960448201526838bab4b230ba34b7b760b91b60648201526084016104e0565b505050612cc8565b6001856004811115612c2857612c28613b84565b141580612c3a57506000816101200151115b612c6e5760405162461bcd60e51b81526020600482015260056024820152641393d7d4d360da1b60448201526064016104e0565b6000856004811115612c8257612c82613b84565b141580612c9457506000816101000151115b612cc85760405162461bcd60e51b815260206004820152600560248201526404e4f5f54560dc1b60448201526064016104e0565b600083612ce6578160e001518260800151612ce39190613b08565b90505b6000612cf7858d8d8d888c88613328565b509050612d306040805160c08101825260008082526020820181905291810182905260608101829052608081018290529060a082015290565b6001600160a01b038088168252602082018b90528d166040820152606081018c9052608081018b905260a08101886004811115612d6f57612d6f613b84565b90816004811115612d8257612d82613b84565b90525060405163205fe86960e21b81526001600160a01b037f0000000000000000000000000000000000000000000000000000000000000000169063817fa1a490612dd390849086906004016140df565b600060405180830381600087803b158015612ded57600080fd5b505af1158015612e01573d6000803e3d6000fd5b505050507f00000000000000000000000000000000000000000000000000000000000000006001600160a01b0316633078fff56040518163ffffffff1660e01b8152600401602060405180830381865afa158015612e63573d6000803e3d6000fd5b505050506040513d601f19601f82011682018060405250810190612e879190613ab1565b6001600160a01b03166339fe9fd283836040518363ffffffff1660e01b8152600401612eb49291906140fa565b600060405180830381600087803b158015612ece57600080fd5b505af1158015612ee2573d6000803e3d6000fd5b505050508b8d6001600160a01b0316886001600160a01b03167f6d87222414c5850caf1d385b1e080a771b505825b082a2162d0f4af5ffc86c0085604051612f2c91815260200190565b60405180910390a45050505050505050505050505050565b6000807f00000000000000000000000000000000000000000000000000000000000000006001600160a01b0316632a0a1cb08686866040518463ffffffff1660e01b8152600401612f9793929190613c97565b61014060405180830381865afa158015612fb5573d6000803e3d6000fd5b505050506040513d601f19601f82011682018060405250810190612fd99190613cce565b9050600080612fe78361148e565b91509150806130085760405162461bcd60e51b81526004016104e090613d60565b5095945050505050565b7f00000000000000000000000000000000000000000000000000000000000000006001600160a01b03166312d43a516040518163ffffffff1660e01b8152600401602060405180830381865afa158015613070573d6000803e3d6000fd5b505050506040513d601f19601f820116820180604052508101906130949190613ab1565b6001600160a01b0316336001600160a01b0316146130df5760405162461bcd60e51b8152602060048201526008602482015267474f565f4f4e4c5960c01b60448201526064016104e0565b565b3233146130df57600080fd5b600554610100900460ff16156130df5760405162461bcd60e51b81526004016104e090602080825260049082015263444f4e4560e01b604082015260600190565b6000807f00000000000000000000000000000000000000000000000000000000000000006001600160a01b031662b127836040518163ffffffff1660e01b8152600401602060405180830381865afa15801561318e573d6000803e3d6000fd5b505050506040513d601f19601f820116820180604052508101906131b29190613ab1565b6001600160a01b031663281b693c846040518263ffffffff1660e01b81526004016131df91815260200190565b602060405180830381865afa1580156131fc573d6000803e3d6000fd5b505050506040513d601f19601f820116820180604052508101906132209190613a98565b90506000811161329857604051630a06da4f60e21b8152600481018490526001600160a01b0385169063281b693c90602401602060405180830381865afa15801561326f573d6000803e3d6000fd5b505050506040513d601f19601f820116820180604052508101906132939190613a98565b61329a565b805b949350505050565b600061a4b14614806132b6575062066eed46145b156133235760646001600160a01b031663a3b1b31d6040518163ffffffff1660e01b8152600401602060405180830381865afa1580156132fa573d6000803e3d6000fd5b505050506040513d601f19601f8201168201806040525081019061331e9190613a98565b905090565b504390565b60008060007f00000000000000000000000000000000000000000000000000000000000000006001600160a01b031662b127836040518163ffffffff1660e01b8152600401602060405180830381865afa15801561338a573d6000803e3d6000fd5b505050506040513d601f19601f820116820180604052508101906133ae9190613ab1565b6001600160a01b0316639bd24d838a8a8a8a6040518563ffffffff1660e01b81526004016133df949392919061410e565b608060405180830381865afa1580156133fc573d6000803e3d6000fd5b505050506040513d601f19601f820116820180604052508101906134209190614156565b905060007f00000000000000000000000000000000000000000000000000000000000000006001600160a01b0316633078fff56040518163ffffffff1660e01b8152600401602060405180830381865afa158015613482573d6000803e3d6000fd5b505050506040513d601f19601f820116820180604052508101906134a69190613ab1565b9050806001600160a01b0316636938c05d8a8d6134c45760036134c7565b60025b888f61351a5760018b60048111156134e1576134e1613b84565b146135105760008b60048111156134fa576134fa613b84565b14613509578660600151613520565b8651613520565b8660200151613520565b86604001515b6040518563ffffffff1660e01b815260040161353f94939291906141d3565b6020604051808303816000875af115801561355e573d6000803e3d6000fd5b505050506040513d601f19601f820116820180604052508101906135829190613a98565b9350505097509795505050505050565b6000602082840312156135a457600080fd5b5035919050565b634e487b7160e01b600052604160045260246000fd5b604051610140810167ffffffffffffffff811182821017156135e5576135e56135ab565b60405290565b604051610c80810167ffffffffffffffff811182821017156135e5576135e56135ab565b6001600160a01b038116811461362457600080fd5b50565b80356136328161360f565b919050565b801515811461362457600080fd5b803561363281613637565b6000610140828403121561366357600080fd5b61366b6135c1565b905061367682613627565b81526020820135602082015260408201356040820152606082013560608201526080820135608082015260a082013560a08201526136b660c08301613645565b60c082015260e082013560e082015261010080830135818301525061012080830135818301525092915050565b600061014082840312156136f657600080fd5b6117668383613650565b6000806000806101a0858703121561371757600080fd5b6137218686613650565b93506101408501356003811061373657600080fd5b939693955050505061016082013591610180013590565b60008060006060848603121561376257600080fd5b833561376d8161360f565b95602085013595506040909401359392505050565b60008060006040848603121561379757600080fd5b83356137a28161360f565b9250602084013567ffffffffffffffff808211156137bf57600080fd5b818601915086601f8301126137d357600080fd5b8135818111156137e257600080fd5b8760208285010111156137f457600080fd5b6020830194508093505050509250925092565b60005b8381101561382257818101518382015260200161380a565b83811115613831576000848401525b50505050565b6000815180845261384f816020860160208601613807565b601f01601f19169290920160200192915050565b6020815260006117666020830184613837565b600082601f83011261388757600080fd5b61388f6135eb565b80610c808401858111156138a257600080fd5b845b818110156138bc5780358452602093840193016138a4565b509095945050505050565b60008060008061320085870312156138de57600080fd5b6138e88686613876565b935085610c9f8601126138fa57600080fd5b6139026135eb565b8061190087018881111561391557600080fd5b610c8088015b8181101561393c57803561392e8161360f565b84526020938401930161391b565b5081955061394a8982613876565b945050505061395d866125808701613876565b905092959194509250565b6000806040838503121561397b57600080fd5b50508035926020909101359150565b60008060006060848603121561399f57600080fd5b505081359360208301359350604090920135919050565b6000602082840312156139c857600080fd5b81356132988161360f565b60008060008060008060c087890312156139ec57600080fd5b8635955060208701356139fe8161360f565b95989597505050506040840135936060810135936080820135935060a0909101359150565b602080825260079082015266056414c55455f360cc1b604082015260600190565b81516001600160a01b0316815260208083015190820152604080830151908201526060808301519082015260808083015115159082015260a0828101519082015260c0918201519181019190915260e00190565b600060208284031215613aaa57600080fd5b5051919050565b600060208284031215613ac357600080fd5b81516132988161360f565b60008060408385031215613ae157600080fd5b505080516020909101519092909150565b634e487b7160e01b600052601160045260246000fd5b6000816000190483118215151615613b2257613b22613af2565b500290565b6001600160a01b03929092168252602082015260400190565b60008219821115613b5357613b53613af2565b500190565b6020808252601290820152714d41585f50454e44494e475f4f524445525360701b604082015260600190565b634e487b7160e01b600052602160045260246000fd5b60048110613baa57613baa613b84565b9052565b84815260808101613bc26020830186613b9a565b60408201939093526060015292915050565b828152815180516001600160a01b03166020830152610200820190602081015160408401526040810151606084015260608101516080840152608081015160a084015260a081015160c084015260c0810151613c3460e085018215159052565b5060e0810151610100848101919091528101516101208085019190915201516101408301526020830151610160830152604083015161018083015260608301516101a083015260808301516101c083015260a0909201516101e090910152919050565b6001600160a01b039390931683526020830191909152604082015260600190565b80516136328161360f565b805161363281613637565b60006101408284031215613ce157600080fd5b613ce96135c1565b613cf283613cb8565b81526020830151602082015260408301516040820152606083015160608201526080830151608082015260a083015160a0820152613d3260c08401613cc3565b60c082015260e083810151908201526101008084015190820152610120928301519281019290925250919050565b602080825260069082015265121054d7d4d360d21b604082015260600190565b8183823760009101908152919050565b600060208284031215613da257600080fd5b815167ffffffffffffffff80821115613dba57600080fd5b818401915084601f830112613dce57600080fd5b815181811115613de057613de06135ab565b604051601f8201601f19908116603f01168101908382118183101715613e0857613e086135ab565b81604052828152876020848701011115613e2157600080fd5b613e32836020830160208801613807565b979650505050505050565b634e487b7160e01b600052603260045260246000fd5b600060018201613e6557613e65613af2565b5060010190565b600060c08284031215613e7e57600080fd5b60405160c0810181811067ffffffffffffffff82111715613ea157613ea16135ab565b8060405250825181526020830151602082015260408301516040820152606083015160608201526080830151608082015260a0830151613ee081613637565b60a08201529392505050565b6020808252600890820152674e4f5f545241444560c01b604082015260600190565b600082613f2b57634e487b7160e01b600052601260045260246000fd5b500490565b600082821015613f4257613f42613af2565b500390565b6001600160a01b0394909416845260208401929092526040830152606082015260800190565b60028110613baa57613baa613b84565b6001600160a01b03878116825286166020820152604081018590526060810184905260c08101613fb06080830185613f6d565b8260a0830152979650505050505050565b600080821280156001600160ff1b0384900385131615613fe357613fe3613af2565b600160ff1b8390038412811615613ffc57613ffc613af2565b50500190565b60006001600160ff1b038184138284138082168684048611161561402857614028613af2565b600160ff1b600087128281168783058912161561404757614047613af2565b6000871292508782058712848416161561406357614063613af2565b8785058712818416161561407957614079613af2565b505050929093029392505050565b60018060a01b038082511683526020820151602084015280604083015116604084015250606081015160608301526080810151608083015260a0810151600581106140d4576140d4613b84565b8060a0840152505050565b60e081016140ed8285614087565b8260c08301529392505050565b82815260e081016117666020830184614087565b6001600160a01b03851681526020810184905260408101839052608081016141396060830184613f6d565b95945050505050565b805163ffffffff8116811461363257600080fd5b60006080828403121561416857600080fd5b6040516080810181811067ffffffffffffffff8211171561418b5761418b6135ab565b60405261419783614142565b81526141a560208401614142565b60208201526141b660408401614142565b60408201526141c760608401614142565b60608201529392505050565b848152608081016141e76020830186613b9a565b83604083015263ffffffff831660608301529594505050505056fea26469706673582212204b303568b400519ebea68ce5f58b44684d11aa898264cd3ad830085f070c226c64736f6c634300080f0033",
  "libraries": {
    "TradeUtils": "0x5b57a26FdF0387F70cD19E98703253002aEfE190",
    "PackingUtils": "0x2C0757eB17CAA0d921056FA4D948714Ed8e6996c"
  },
  "devdoc": {
    "kind": "dev",
    "methods": {},
    "version": 1
  },
  "userdoc": {
    "kind": "user",
    "methods": {},
    "version": 1
  },
  "storageLayout": {
    "storage": [
      {
        "astId": 5,
        "contract": "contracts/Trading.sol:Trading",
        "label": "delegations",
        "offset": 0,
        "slot": "0",
        "type": "t_mapping(t_address,t_address)"
      },
      {
        "astId": 7,
        "contract": "contracts/Trading.sol:Trading",
        "label": "senderOverride",
        "offset": 0,
        "slot": "1",
        "type": "t_address"
      },
      {
        "astId": 181,
        "contract": "contracts/Trading.sol:Trading",
        "label": "maxPosWETH",
        "offset": 0,
        "slot": "2",
        "type": "t_uint256"
      },
      {
        "astId": 183,
        "contract": "contracts/Trading.sol:Trading",
        "label": "marketOrdersTimeout",
        "offset": 0,
        "slot": "3",
        "type": "t_uint256"
      },
      {
        "astId": 186,
        "contract": "contracts/Trading.sol:Trading",
        "label": "minLeveragedPosWETH",
        "offset": 0,
        "slot": "4",
        "type": "t_int256"
      },
      {
        "astId": 188,
        "contract": "contracts/Trading.sol:Trading",
        "label": "isPaused",
        "offset": 0,
        "slot": "5",
        "type": "t_bool"
      },
      {
        "astId": 190,
        "contract": "contracts/Trading.sol:Trading",
        "label": "isDone",
        "offset": 1,
        "slot": "5",
        "type": "t_bool"
      }
    ],
    "types": {
      "t_address": {
        "encoding": "inplace",
        "label": "address",
        "numberOfBytes": "20"
      },
      "t_bool": {
        "encoding": "inplace",
        "label": "bool",
        "numberOfBytes": "1"
      },
      "t_int256": {
        "encoding": "inplace",
        "label": "int256",
        "numberOfBytes": "32"
      },
      "t_mapping(t_address,t_address)": {
        "encoding": "mapping",
        "key": "t_address",
        "label": "mapping(address => address)",
        "numberOfBytes": "32",
        "value": "t_address"
      },
      "t_uint256": {
        "encoding": "inplace",
        "label": "uint256",
        "numberOfBytes": "32"
      }
    }
  }
}