{
  "address": "0xE41163757ddBB3fe47a6bEA1465eF2F54f42345b",
  "abi": [
    {
      "anonymous": false,
      "inputs": [
        {
          "indexed": false,
          "internalType": "uint8",
          "name": "version",
          "type": "uint8"
        }
      ],
      "name": "Initialized",
      "type": "event"
    },
    {
      "anonymous": false,
      "inputs": [
        {
          "indexed": true,
          "internalType": "address",
          "name": "previousOwner",
          "type": "address"
        },
        {
          "indexed": true,
          "internalType": "address",
          "name": "newOwner",
          "type": "address"
        }
      ],
      "name": "OwnershipTransferred",
      "type": "event"
    },
    {
      "anonymous": false,
      "inputs": [
        {
          "indexed": false,
          "internalType": "uint256",
          "name": "_limit",
          "type": "uint256"
        }
      ],
      "name": "TransferLimitUpdated",
      "type": "event"
    },
    {
      "anonymous": false,
      "inputs": [
        {
          "indexed": false,
          "internalType": "uint256",
          "name": "_limit",
          "type": "uint256"
        }
      ],
      "name": "TransferTimeLimitUpdated",
      "type": "event"
    },
    {
      "anonymous": false,
      "inputs": [
        {
          "indexed": false,
          "internalType": "uint256",
          "name": "amount",
          "type": "uint256"
        },
        {
          "indexed": false,
          "internalType": "address",
          "name": "receiver",
          "type": "address"
        }
      ],
      "name": "sent",
      "type": "event"
    },
    {
      "inputs": [
        {
          "internalType": "address",
          "name": "owner",
          "type": "address"
        },
        {
          "internalType": "uint256",
          "name": "_transferLimit",
          "type": "uint256"
        },
        {
          "internalType": "uint256",
          "name": "_time",
          "type": "uint256"
        }
      ],
      "name": "Faucet_init",
      "outputs": [],
      "stateMutability": "nonpayable",
      "type": "function"
    },
    {
      "inputs": [],
      "name": "TransferLimit",
      "outputs": [
        {
          "internalType": "uint256",
          "name": "",
          "type": "uint256"
        }
      ],
      "stateMutability": "view",
      "type": "function"
    },
    {
      "inputs": [],
      "name": "TransferTimeLimit",
      "outputs": [
        {
          "internalType": "uint256",
          "name": "",
          "type": "uint256"
        }
      ],
      "stateMutability": "view",
      "type": "function"
    },
    {
      "inputs": [],
      "name": "owner",
      "outputs": [
        {
          "internalType": "address",
          "name": "",
          "type": "address"
        }
      ],
      "stateMutability": "view",
      "type": "function"
    },
    {
      "inputs": [],
      "name": "renounceOwnership",
      "outputs": [],
      "stateMutability": "nonpayable",
      "type": "function"
    },
    {
      "inputs": [
        {
          "internalType": "address payable",
          "name": "receiver",
          "type": "address"
        }
      ],
      "name": "send",
      "outputs": [],
      "stateMutability": "nonpayable",
      "type": "function"
    },
    {
      "inputs": [
        {
          "internalType": "address",
          "name": "newOwner",
          "type": "address"
        }
      ],
      "name": "transferOwnership",
      "outputs": [],
      "stateMutability": "nonpayable",
      "type": "function"
    },
    {
      "inputs": [
        {
          "internalType": "uint256",
          "name": "_limit",
          "type": "uint256"
        }
      ],
      "name": "updateTransferLimit",
      "outputs": [],
      "stateMutability": "nonpayable",
      "type": "function"
    },
    {
      "inputs": [
        {
          "internalType": "uint256",
          "name": "_limit",
          "type": "uint256"
        }
      ],
      "name": "updateTransferTimeLimit",
      "outputs": [],
      "stateMutability": "nonpayable",
      "type": "function"
    },
    {
      "inputs": [
        {
          "internalType": "address payable",
          "name": "receiver",
          "type": "address"
        }
      ],
      "name": "withdraw",
      "outputs": [],
      "stateMutability": "nonpayable",
      "type": "function"
    }
  ],
  "transactionHash": "0x68d86bd5d412eaf88247cf6f2735150defbc4fe4cf69e0335d459d0042e917c3",
  "args": [],
  "numDeployments": 1,
  "solcInputHash": "5af97cf568aedef2eac0d2ad801f242e",
  "bytecode": "0x608060405234801561001057600080fd5b506106bd806100206000396000f3fe608060405234801561001057600080fd5b506004361061009e5760003560e01c8063a9ff704a11610066578063a9ff704a1461010a578063d762a37b1461011d578063f2fde38b14610130578063f949037d14610143578063fa7e885d1461015657600080fd5b80633e58c58c146100a357806351cff8d9146100b8578063638c2b0f146100cb578063715018a6146100e75780638da5cb5b146100ef575b600080fd5b6100b66100b13660046105ee565b61015f565b005b6100b66100c63660046105ee565b6102bf565b6100d460655481565b6040519081526020015b60405180910390f35b6100b6610300565b6033546040516001600160a01b0390911681526020016100de565b6100b6610118366004610612565b610314565b6100b661012b366004610612565b610358565b6100b661013e3660046105ee565b610395565b6100b661015136600461062b565b61040e565b6100d460665481565b6066546001600160a01b0382166000908152606760205260408120549091906101889042610660565b10156101db5760405162461bcd60e51b815260206004820152601c60248201527f4661756365743a206561726c7920746f2067657420666175636574730000000060448201526064015b60405180910390fd5b6001600160a01b038216600090815260676020526040902042905560655447111561024057506065546040516001600160a01b0383169082156108fc029083906000818181858888f1935050505015801561023a573d6000803e3d6000fd5b5061027a565b5060405147906001600160a01b038316904780156108fc02916000818181858888f19350505050158015610278573d6000803e3d6000fd5b505b604080518281526001600160a01b03841660208201527f27739afea5f507907f5c505a6dfca04983f42c6befaf5b6358b35135a1528c9c910160405180910390a15050565b6102c761052d565b6040516001600160a01b038216904780156108fc02916000818181858888f193505050501580156102fc573d6000803e3d6000fd5b5050565b61030861052d565b6103126000610587565b565b61031c61052d565b60668190556040518181527f776d2e8f3818ffefd355c857b4d225071c353c27df0d35a6db4ccc11c9abeca7906020015b60405180910390a150565b61036061052d565b60658190556040518181527fb65c2c26ccd2282229ce3c62c889b48f803237947f171256af079b0f2a3305d99060200161034d565b61039d61052d565b6001600160a01b0381166104025760405162461bcd60e51b815260206004820152602660248201527f4f776e61626c653a206e6577206f776e657220697320746865207a65726f206160448201526564647265737360d01b60648201526084016101d2565b61040b81610587565b50565b600054610100900460ff161580801561042e5750600054600160ff909116105b806104485750303b158015610448575060005460ff166001145b6104ab5760405162461bcd60e51b815260206004820152602e60248201527f496e697469616c697a61626c653a20636f6e747261637420697320616c72656160448201526d191e481a5b9a5d1a585b1a5e995960921b60648201526084016101d2565b6000805460ff1916600117905580156104ce576000805461ff0019166101001790555b6104d784610587565b606583905560668290558015610527576000805461ff0019169055604051600181527f7f26b83ff96e1f2b6a682f133852f6798a09c465da95921460cefb38474024989060200160405180910390a15b50505050565b6033546001600160a01b031633146103125760405162461bcd60e51b815260206004820181905260248201527f4f776e61626c653a2063616c6c6572206973206e6f7420746865206f776e657260448201526064016101d2565b603380546001600160a01b038381166001600160a01b0319831681179093556040519116919082907f8be0079c531659141344cd1fd0a4f28419497f9722a3daafe3b4186f6b6457e090600090a35050565b6001600160a01b038116811461040b57600080fd5b60006020828403121561060057600080fd5b813561060b816105d9565b9392505050565b60006020828403121561062457600080fd5b5035919050565b60008060006060848603121561064057600080fd5b833561064b816105d9565b95602085013595506040909401359392505050565b8181038181111561068157634e487b7160e01b600052601160045260246000fd5b9291505056fea2646970667358221220817c492a55203435b3b7291d62dcce89bd1885c2cc9e5be4554cbf9a1d43e98f64736f6c63430008170033",
  "devdoc": {
    "events": {
      "Initialized(uint8)": {
        "details": "Triggered when the contract has been initialized or reinitialized."
      }
    },
    "kind": "dev",
    "methods": {
      "owner()": {
        "details": "Returns the address of the current owner."
      },
      "renounceOwnership()": {
        "details": "Leaves the contract without owner. It will not be possible to call `onlyOwner` functions. Can only be called by the current owner. NOTE: Renouncing ownership will leave the contract without an owner, thereby disabling any functionality that is only available to the owner."
      },
      "transferOwnership(address)": {
        "details": "Transfers ownership of the contract to a new account (`newOwner`). Can only be called by the current owner."
      }
    },
    "version": 1
  },
  "userdoc": {
    "kind": "user",
    "methods": {},
    "version": 1
  },
  "storageLayout": {
    "storage": [
      {
        "astId": 2892,
        "contract": "contracts/ETHFaucet.sol:ETHFaucet",
        "label": "_initialized",
        "offset": 0,
        "slot": "0",
        "type": "t_uint8"
      },
      {
        "astId": 2895,
        "contract": "contracts/ETHFaucet.sol:ETHFaucet",
        "label": "_initializing",
        "offset": 1,
        "slot": "0",
        "type": "t_bool"
      },
      {
        "astId": 5212,
        "contract": "contracts/ETHFaucet.sol:ETHFaucet",
        "label": "__gap",
        "offset": 0,
        "slot": "1",
        "type": "t_array(t_uint256)50_storage"
      },
      {
        "astId": 2596,
        "contract": "contracts/ETHFaucet.sol:ETHFaucet",
        "label": "_owner",
        "offset": 0,
        "slot": "51",
        "type": "t_address"
      },
      {
        "astId": 2716,
        "contract": "contracts/ETHFaucet.sol:ETHFaucet",
        "label": "__gap",
        "offset": 0,
        "slot": "52",
        "type": "t_array(t_uint256)49_storage"
      },
      {
        "astId": 10568,
        "contract": "contracts/ETHFaucet.sol:ETHFaucet",
        "label": "TransferLimit",
        "offset": 0,
        "slot": "101",
        "type": "t_uint256"
      },
      {
        "astId": 10570,
        "contract": "contracts/ETHFaucet.sol:ETHFaucet",
        "label": "TransferTimeLimit",
        "offset": 0,
        "slot": "102",
        "type": "t_uint256"
      },
      {
        "astId": 10574,
        "contract": "contracts/ETHFaucet.sol:ETHFaucet",
        "label": "lastRequestTime",
        "offset": 0,
        "slot": "103",
        "type": "t_mapping(t_address,t_uint256)"
      }
    ],
    "types": {
      "t_address": {
        "encoding": "inplace",
        "label": "address",
        "numberOfBytes": "20"
      },
      "t_array(t_uint256)49_storage": {
        "base": "t_uint256",
        "encoding": "inplace",
        "label": "uint256[49]",
        "numberOfBytes": "1568"
      },
      "t_array(t_uint256)50_storage": {
        "base": "t_uint256",
        "encoding": "inplace",
        "label": "uint256[50]",
        "numberOfBytes": "1600"
      },
      "t_bool": {
        "encoding": "inplace",
        "label": "bool",
        "numberOfBytes": "1"
      },
      "t_mapping(t_address,t_uint256)": {
        "encoding": "mapping",
        "key": "t_address",
        "label": "mapping(address => uint256)",
        "numberOfBytes": "32",
        "value": "t_uint256"
      },
      "t_uint256": {
        "encoding": "inplace",
        "label": "uint256",
        "numberOfBytes": "32"
      },
      "t_uint8": {
        "encoding": "inplace",
        "label": "uint8",
        "numberOfBytes": "1"
      }
    }
  }
}