{
  "address": "0x3673cAf6d1501EaE3E50ece4c919Ac445E5dF375",
  "abi": [
    {
      "anonymous": false,
      "inputs": [
        {
          "indexed": false,
          "internalType": "string",
          "name": "name",
          "type": "string"
        },
        {
          "indexed": false,
          "internalType": "address",
          "name": "a",
          "type": "address"
        }
      ],
      "name": "AddressUpdated",
      "type": "event"
    },
    {
      "anonymous": false,
      "inputs": [
        {
          "indexed": false,
          "internalType": "uint8",
          "name": "version",
          "type": "uint8"
        }
      ],
      "name": "Initialized",
      "type": "event"
    },
    {
      "anonymous": false,
      "inputs": [
        {
          "indexed": false,
          "internalType": "contract NftInterfaceV5[5]",
          "name": "nfts",
          "type": "address[5]"
        }
      ],
      "name": "NftsUpdated",
      "type": "event"
    },
    {
      "anonymous": false,
      "inputs": [
        {
          "indexed": false,
          "internalType": "string",
          "name": "name",
          "type": "string"
        },
        {
          "indexed": false,
          "internalType": "uint256",
          "name": "value",
          "type": "uint256"
        }
      ],
      "name": "NumberUpdated",
      "type": "event"
    },
    {
      "anonymous": false,
      "inputs": [
        {
          "indexed": false,
          "internalType": "string",
          "name": "name",
          "type": "string"
        },
        {
          "indexed": false,
          "internalType": "uint256",
          "name": "pairIndex",
          "type": "uint256"
        },
        {
          "indexed": false,
          "internalType": "uint256",
          "name": "value",
          "type": "uint256"
        }
      ],
      "name": "NumberUpdatedPair",
      "type": "event"
    },
    {
      "anonymous": false,
      "inputs": [
        {
          "indexed": true,
          "internalType": "uint256",
          "name": "pairIndex",
          "type": "uint256"
        },
        {
          "indexed": true,
          "internalType": "uint256",
          "name": "openingInterestShort",
          "type": "uint256"
        },
        {
          "indexed": true,
          "internalType": "uint256",
          "name": "openingInterestLong",
          "type": "uint256"
        }
      ],
      "name": "OpenningInterestUpated",
      "type": "event"
    },
    {
      "anonymous": false,
      "inputs": [
        {
          "indexed": false,
          "internalType": "uint256[5]",
          "name": "",
          "type": "uint256[5]"
        }
      ],
      "name": "SpreadReductionsUpdated",
      "type": "event"
    },
    {
      "anonymous": false,
      "inputs": [
        {
          "indexed": false,
          "internalType": "address",
          "name": "a",
          "type": "address"
        }
      ],
      "name": "SupportedTokenAdded",
      "type": "event"
    },
    {
      "anonymous": false,
      "inputs": [
        {
          "components": [
            {
              "internalType": "address",
              "name": "trader",
              "type": "address"
            },
            {
              "internalType": "uint256",
              "name": "pairIndex",
              "type": "uint256"
            },
            {
              "internalType": "uint256",
              "name": "index",
              "type": "uint256"
            },
            {
              "internalType": "uint256",
              "name": "initialPosToken",
              "type": "uint256"
            },
            {
              "internalType": "uint256",
              "name": "positionSizeWETH",
              "type": "uint256"
            },
            {
              "internalType": "uint256",
              "name": "openPrice",
              "type": "uint256"
            },
            {
              "internalType": "bool",
              "name": "buy",
              "type": "bool"
            },
            {
              "internalType": "uint256",
              "name": "leverage",
              "type": "uint256"
            },
            {
              "internalType": "uint256",
              "name": "tp",
              "type": "uint256"
            },
            {
              "internalType": "uint256",
              "name": "sl",
              "type": "uint256"
            }
          ],
          "indexed": false,
          "internalType": "struct StorageInterface.Trade",
          "name": "t",
          "type": "tuple"
        }
      ],
      "name": "TradeClose",
      "type": "event"
    },
    {
      "anonymous": false,
      "inputs": [
        {
          "components": [
            {
              "internalType": "address",
              "name": "trader",
              "type": "address"
            },
            {
              "internalType": "uint256",
              "name": "pairIndex",
              "type": "uint256"
            },
            {
              "internalType": "uint256",
              "name": "index",
              "type": "uint256"
            },
            {
              "internalType": "uint256",
              "name": "initialPosToken",
              "type": "uint256"
            },
            {
              "internalType": "uint256",
              "name": "positionSizeWETH",
              "type": "uint256"
            },
            {
              "internalType": "uint256",
              "name": "openPrice",
              "type": "uint256"
            },
            {
              "internalType": "bool",
              "name": "buy",
              "type": "bool"
            },
            {
              "internalType": "uint256",
              "name": "leverage",
              "type": "uint256"
            },
            {
              "internalType": "uint256",
              "name": "tp",
              "type": "uint256"
            },
            {
              "internalType": "uint256",
              "name": "sl",
              "type": "uint256"
            }
          ],
          "indexed": false,
          "internalType": "struct StorageInterface.Trade",
          "name": "t",
          "type": "tuple"
        }
      ],
      "name": "TradeOpen",
      "type": "event"
    },
    {
      "anonymous": false,
      "inputs": [
        {
          "indexed": false,
          "internalType": "address",
          "name": "a",
          "type": "address"
        }
      ],
      "name": "TradingContractAdded",
      "type": "event"
    },
    {
      "anonymous": false,
      "inputs": [
        {
          "indexed": false,
          "internalType": "address",
          "name": "a",
          "type": "address"
        }
      ],
      "name": "TradingContractRemoved",
      "type": "event"
    },
    {
      "inputs": [],
      "name": "MINTER_ROLE",
      "outputs": [
        {
          "internalType": "bytes32",
          "name": "",
          "type": "bytes32"
        }
      ],
      "stateMutability": "view",
      "type": "function"
    },
    {
      "inputs": [],
      "name": "PRECISION",
      "outputs": [
        {
          "internalType": "uint256",
          "name": "",
          "type": "uint256"
        }
      ],
      "stateMutability": "view",
      "type": "function"
    },
    {
      "inputs": [],
      "name": "WETH",
      "outputs": [
        {
          "internalType": "contract TokenInterface",
          "name": "",
          "type": "address"
        }
      ],
      "stateMutability": "view",
      "type": "function"
    },
    {
      "inputs": [
        {
          "internalType": "address",
          "name": "_token",
          "type": "address"
        }
      ],
      "name": "addSupportedToken",
      "outputs": [],
      "stateMutability": "nonpayable",
      "type": "function"
    },
    {
      "inputs": [
        {
          "internalType": "address",
          "name": "_trading",
          "type": "address"
        }
      ],
      "name": "addTradingContract",
      "outputs": [],
      "stateMutability": "nonpayable",
      "type": "function"
    },
    {
      "inputs": [],
      "name": "callbacks",
      "outputs": [
        {
          "internalType": "contract PausableInterfaceV5",
          "name": "",
          "type": "address"
        }
      ],
      "stateMutability": "view",
      "type": "function"
    },
    {
      "inputs": [],
      "name": "claimFees",
      "outputs": [],
      "stateMutability": "nonpayable",
      "type": "function"
    },
    {
      "inputs": [],
      "name": "defaultLeverageUnlocked",
      "outputs": [
        {
          "internalType": "uint256",
          "name": "",
          "type": "uint256"
        }
      ],
      "stateMutability": "view",
      "type": "function"
    },
    {
      "inputs": [],
      "name": "dev",
      "outputs": [
        {
          "internalType": "address",
          "name": "",
          "type": "address"
        }
      ],
      "stateMutability": "view",
      "type": "function"
    },
    {
      "inputs": [],
      "name": "devFeesToken",
      "outputs": [
        {
          "internalType": "uint256",
          "name": "",
          "type": "uint256"
        }
      ],
      "stateMutability": "view",
      "type": "function"
    },
    {
      "inputs": [],
      "name": "devFeesWETH",
      "outputs": [
        {
          "internalType": "uint256",
          "name": "",
          "type": "uint256"
        }
      ],
      "stateMutability": "view",
      "type": "function"
    },
    {
      "inputs": [
        {
          "internalType": "uint256",
          "name": "_amount",
          "type": "uint256"
        }
      ],
      "name": "distributeLpRewards",
      "outputs": [],
      "stateMutability": "nonpayable",
      "type": "function"
    },
    {
      "inputs": [
        {
          "internalType": "address",
          "name": "trader",
          "type": "address"
        },
        {
          "internalType": "uint256",
          "name": "pairIndex",
          "type": "uint256"
        }
      ],
      "name": "firstEmptyOpenLimitIndex",
      "outputs": [
        {
          "internalType": "uint256",
          "name": "index",
          "type": "uint256"
        }
      ],
      "stateMutability": "view",
      "type": "function"
    },
    {
      "inputs": [
        {
          "internalType": "address",
          "name": "trader",
          "type": "address"
        },
        {
          "internalType": "uint256",
          "name": "pairIndex",
          "type": "uint256"
        }
      ],
      "name": "firstEmptyTradeIndex",
      "outputs": [
        {
          "internalType": "uint256",
          "name": "index",
          "type": "uint256"
        }
      ],
      "stateMutability": "view",
      "type": "function"
    },
    {
      "inputs": [],
      "name": "getGov",
      "outputs": [
        {
          "internalType": "address",
          "name": "_gov",
          "type": "address"
        }
      ],
      "stateMutability": "view",
      "type": "function"
    },
    {
      "inputs": [
        {
          "internalType": "address",
          "name": "_trader",
          "type": "address"
        }
      ],
      "name": "getLeverageUnlocked",
      "outputs": [
        {
          "internalType": "uint256",
          "name": "",
          "type": "uint256"
        }
      ],
      "stateMutability": "view",
      "type": "function"
    },
    {
      "inputs": [],
      "name": "getLiquidatableTrades",
      "outputs": [
        {
          "internalType": "uint256[100]",
          "name": "_orderTypes",
          "type": "uint256[100]"
        },
        {
          "internalType": "address[100]",
          "name": "traderaddreses",
          "type": "address[100]"
        },
        {
          "internalType": "uint256[100]",
          "name": "pairIndexs",
          "type": "uint256[100]"
        },
        {
          "internalType": "uint256[100]",
          "name": "indexs",
          "type": "uint256[100]"
        },
        {
          "internalType": "uint256",
          "name": "index",
          "type": "uint256"
        }
      ],
      "stateMutability": "view",
      "type": "function"
    },
    {
      "inputs": [
        {
          "internalType": "address",
          "name": "_trader",
          "type": "address"
        },
        {
          "internalType": "uint256",
          "name": "_pairIndex",
          "type": "uint256"
        },
        {
          "internalType": "uint256",
          "name": "_index",
          "type": "uint256"
        }
      ],
      "name": "getOpenLimitOrder",
      "outputs": [
        {
          "components": [
            {
              "internalType": "address",
              "name": "trader",
              "type": "address"
            },
            {
              "internalType": "uint256",
              "name": "pairIndex",
              "type": "uint256"
            },
            {
              "internalType": "uint256",
              "name": "index",
              "type": "uint256"
            },
            {
              "internalType": "uint256",
              "name": "positionSize",
              "type": "uint256"
            },
            {
              "internalType": "uint256",
              "name": "spreadReductionP",
              "type": "uint256"
            },
            {
              "internalType": "bool",
              "name": "buy",
              "type": "bool"
            },
            {
              "internalType": "uint256",
              "name": "leverage",
              "type": "uint256"
            },
            {
              "internalType": "uint256",
              "name": "tp",
              "type": "uint256"
            },
            {
              "internalType": "uint256",
              "name": "sl",
              "type": "uint256"
            },
            {
              "internalType": "uint256",
              "name": "minPrice",
              "type": "uint256"
            },
            {
              "internalType": "uint256",
              "name": "maxPrice",
              "type": "uint256"
            },
            {
              "internalType": "uint256",
              "name": "block",
              "type": "uint256"
            },
            {
              "internalType": "uint256",
              "name": "tokenId",
              "type": "uint256"
            }
          ],
          "internalType": "struct StorageInterface.OpenLimitOrder",
          "name": "",
          "type": "tuple"
        }
      ],
      "stateMutability": "view",
      "type": "function"
    },
    {
      "inputs": [],
      "name": "getOpenLimitOrders",
      "outputs": [
        {
          "components": [
            {
              "internalType": "address",
              "name": "trader",
              "type": "address"
            },
            {
              "internalType": "uint256",
              "name": "pairIndex",
              "type": "uint256"
            },
            {
              "internalType": "uint256",
              "name": "index",
              "type": "uint256"
            },
            {
              "internalType": "uint256",
              "name": "positionSize",
              "type": "uint256"
            },
            {
              "internalType": "uint256",
              "name": "spreadReductionP",
              "type": "uint256"
            },
            {
              "internalType": "bool",
              "name": "buy",
              "type": "bool"
            },
            {
              "internalType": "uint256",
              "name": "leverage",
              "type": "uint256"
            },
            {
              "internalType": "uint256",
              "name": "tp",
              "type": "uint256"
            },
            {
              "internalType": "uint256",
              "name": "sl",
              "type": "uint256"
            },
            {
              "internalType": "uint256",
              "name": "minPrice",
              "type": "uint256"
            },
            {
              "internalType": "uint256",
              "name": "maxPrice",
              "type": "uint256"
            },
            {
              "internalType": "uint256",
              "name": "block",
              "type": "uint256"
            },
            {
              "internalType": "uint256",
              "name": "tokenId",
              "type": "uint256"
            }
          ],
          "internalType": "struct StorageInterface.OpenLimitOrder[]",
          "name": "",
          "type": "tuple[]"
        }
      ],
      "stateMutability": "view",
      "type": "function"
    },
    {
      "inputs": [
        {
          "internalType": "address",
          "name": "trader",
          "type": "address"
        },
        {
          "internalType": "uint256",
          "name": "pairIndex",
          "type": "uint256"
        },
        {
          "internalType": "uint256",
          "name": "index",
          "type": "uint256"
        }
      ],
      "name": "getOpenTrades",
      "outputs": [
        {
          "components": [
            {
              "internalType": "address",
              "name": "trader",
              "type": "address"
            },
            {
              "internalType": "uint256",
              "name": "pairIndex",
              "type": "uint256"
            },
            {
              "internalType": "uint256",
              "name": "index",
              "type": "uint256"
            },
            {
              "internalType": "uint256",
              "name": "initialPosToken",
              "type": "uint256"
            },
            {
              "internalType": "uint256",
              "name": "positionSizeWETH",
              "type": "uint256"
            },
            {
              "internalType": "uint256",
              "name": "openPrice",
              "type": "uint256"
            },
            {
              "internalType": "bool",
              "name": "buy",
              "type": "bool"
            },
            {
              "internalType": "uint256",
              "name": "leverage",
              "type": "uint256"
            },
            {
              "internalType": "uint256",
              "name": "tp",
              "type": "uint256"
            },
            {
              "internalType": "uint256",
              "name": "sl",
              "type": "uint256"
            }
          ],
          "internalType": "struct StorageInterface.Trade",
          "name": "",
          "type": "tuple"
        }
      ],
      "stateMutability": "view",
      "type": "function"
    },
    {
      "inputs": [
        {
          "internalType": "address",
          "name": "trader",
          "type": "address"
        },
        {
          "internalType": "uint256",
          "name": "pairIndex",
          "type": "uint256"
        },
        {
          "internalType": "uint256",
          "name": "index",
          "type": "uint256"
        }
      ],
      "name": "getOpenTradesInfo",
      "outputs": [
        {
          "components": [
            {
              "internalType": "uint256",
              "name": "tokenId",
              "type": "uint256"
            },
            {
              "internalType": "uint256",
              "name": "tokenPriceWETH",
              "type": "uint256"
            },
            {
              "internalType": "uint256",
              "name": "openInterestWETH",
              "type": "uint256"
            },
            {
              "internalType": "uint256",
              "name": "tpLastUpdated",
              "type": "uint256"
            },
            {
              "internalType": "uint256",
              "name": "slLastUpdated",
              "type": "uint256"
            },
            {
              "internalType": "bool",
              "name": "beingMarketClosed",
              "type": "bool"
            }
          ],
          "internalType": "struct StorageInterface.TradeInfo",
          "name": "",
          "type": "tuple"
        }
      ],
      "stateMutability": "view",
      "type": "function"
    },
    {
      "inputs": [
        {
          "internalType": "uint256",
          "name": "orderId",
          "type": "uint256"
        }
      ],
      "name": "getPendingMarketOrder",
      "outputs": [
        {
          "components": [
            {
              "components": [
                {
                  "internalType": "address",
                  "name": "trader",
                  "type": "address"
                },
                {
                  "internalType": "uint256",
                  "name": "pairIndex",
                  "type": "uint256"
                },
                {
                  "internalType": "uint256",
                  "name": "index",
                  "type": "uint256"
                },
                {
                  "internalType": "uint256",
                  "name": "initialPosToken",
                  "type": "uint256"
                },
                {
                  "internalType": "uint256",
                  "name": "positionSizeWETH",
                  "type": "uint256"
                },
                {
                  "internalType": "uint256",
                  "name": "openPrice",
                  "type": "uint256"
                },
                {
                  "internalType": "bool",
                  "name": "buy",
                  "type": "bool"
                },
                {
                  "internalType": "uint256",
                  "name": "leverage",
                  "type": "uint256"
                },
                {
                  "internalType": "uint256",
                  "name": "tp",
                  "type": "uint256"
                },
                {
                  "internalType": "uint256",
                  "name": "sl",
                  "type": "uint256"
                }
              ],
              "internalType": "struct StorageInterface.Trade",
              "name": "trade",
              "type": "tuple"
            },
            {
              "internalType": "uint256",
              "name": "block",
              "type": "uint256"
            },
            {
              "internalType": "uint256",
              "name": "wantedPrice",
              "type": "uint256"
            },
            {
              "internalType": "uint256",
              "name": "slippageP",
              "type": "uint256"
            },
            {
              "internalType": "uint256",
              "name": "spreadReductionP",
              "type": "uint256"
            },
            {
              "internalType": "uint256",
              "name": "tokenId",
              "type": "uint256"
            }
          ],
          "internalType": "struct StorageInterface.PendingMarketOrder",
          "name": "",
          "type": "tuple"
        }
      ],
      "stateMutability": "view",
      "type": "function"
    },
    {
      "inputs": [
        {
          "internalType": "uint256",
          "name": "orderId",
          "type": "uint256"
        }
      ],
      "name": "getPendingNftOrder",
      "outputs": [
        {
          "components": [
            {
              "internalType": "address",
              "name": "nftHolder",
              "type": "address"
            },
            {
              "internalType": "uint256",
              "name": "nftId",
              "type": "uint256"
            },
            {
              "internalType": "address",
              "name": "trader",
              "type": "address"
            },
            {
              "internalType": "uint256",
              "name": "pairIndex",
              "type": "uint256"
            },
            {
              "internalType": "uint256",
              "name": "index",
              "type": "uint256"
            },
            {
              "internalType": "enum StorageInterface.LimitOrder",
              "name": "orderType",
              "type": "uint8"
            }
          ],
          "internalType": "struct StorageInterface.PendingNftOrder",
          "name": "",
          "type": "tuple"
        }
      ],
      "stateMutability": "view",
      "type": "function"
    },
    {
      "inputs": [
        {
          "internalType": "address",
          "name": "_trader",
          "type": "address"
        }
      ],
      "name": "getPendingOrderIds",
      "outputs": [
        {
          "internalType": "uint256[]",
          "name": "",
          "type": "uint256[]"
        }
      ],
      "stateMutability": "view",
      "type": "function"
    },
    {
      "inputs": [
        {
          "internalType": "address",
          "name": "_trader",
          "type": "address"
        }
      ],
      "name": "getReferral",
      "outputs": [
        {
          "internalType": "address",
          "name": "",
          "type": "address"
        }
      ],
      "stateMutability": "view",
      "type": "function"
    },
    {
      "inputs": [],
      "name": "getSpreadReductionsArray",
      "outputs": [
        {
          "internalType": "uint256[5]",
          "name": "",
          "type": "uint256[5]"
        }
      ],
      "stateMutability": "view",
      "type": "function"
    },
    {
      "inputs": [],
      "name": "getSupportedTokens",
      "outputs": [
        {
          "internalType": "address[]",
          "name": "",
          "type": "address[]"
        }
      ],
      "stateMutability": "view",
      "type": "function"
    },
    {
      "inputs": [],
      "name": "gov",
      "outputs": [
        {
          "internalType": "address",
          "name": "",
          "type": "address"
        }
      ],
      "stateMutability": "view",
      "type": "function"
    },
    {
      "inputs": [],
      "name": "govFeesToken",
      "outputs": [
        {
          "internalType": "uint256",
          "name": "",
          "type": "uint256"
        }
      ],
      "stateMutability": "view",
      "type": "function"
    },
    {
      "inputs": [],
      "name": "govFeesWETH",
      "outputs": [
        {
          "internalType": "uint256",
          "name": "",
          "type": "uint256"
        }
      ],
      "stateMutability": "view",
      "type": "function"
    },
    {
      "inputs": [
        {
          "internalType": "uint256",
          "name": "_pairIndex",
          "type": "uint256"
        },
        {
          "internalType": "uint256",
          "name": "_leveragedPositionSize",
          "type": "uint256"
        },
        {
          "internalType": "bool",
          "name": "_WETH",
          "type": "bool"
        },
        {
          "internalType": "bool",
          "name": "_fullFee",
          "type": "bool"
        }
      ],
      "name": "handleDevGovFees",
      "outputs": [
        {
          "internalType": "uint256",
          "name": "fee",
          "type": "uint256"
        }
      ],
      "stateMutability": "nonpayable",
      "type": "function"
    },
    {
      "inputs": [
        {
          "internalType": "address",
          "name": "_a",
          "type": "address"
        },
        {
          "internalType": "uint256",
          "name": "_amount",
          "type": "uint256"
        },
        {
          "internalType": "bool",
          "name": "_mint",
          "type": "bool"
        }
      ],
      "name": "handleTokens",
      "outputs": [],
      "stateMutability": "nonpayable",
      "type": "function"
    },
    {
      "inputs": [
        {
          "internalType": "address",
          "name": "trader",
          "type": "address"
        },
        {
          "internalType": "uint256",
          "name": "pairIndex",
          "type": "uint256"
        },
        {
          "internalType": "uint256",
          "name": "index",
          "type": "uint256"
        }
      ],
      "name": "hasOpenLimitOrder",
      "outputs": [
        {
          "internalType": "bool",
          "name": "",
          "type": "bool"
        }
      ],
      "stateMutability": "view",
      "type": "function"
    },
    {
      "inputs": [
        {
          "internalType": "uint256",
          "name": "_nftId",
          "type": "uint256"
        },
        {
          "internalType": "uint256",
          "name": "_amount",
          "type": "uint256"
        }
      ],
      "name": "increaseNftRewards",
      "outputs": [],
      "stateMutability": "nonpayable",
      "type": "function"
    },
    {
      "inputs": [
        {
          "internalType": "address",
          "name": "_referral",
          "type": "address"
        },
        {
          "internalType": "uint256",
          "name": "_amount",
          "type": "uint256"
        }
      ],
      "name": "increaseReferralRewards",
      "outputs": [],
      "stateMutability": "nonpayable",
      "type": "function"
    },
    {
      "inputs": [
        {
          "internalType": "address",
          "name": "_WETH",
          "type": "address"
        },
        {
          "internalType": "address",
          "name": "_gov",
          "type": "address"
        },
        {
          "internalType": "address",
          "name": "_dev",
          "type": "address"
        }
      ],
      "name": "initialize",
      "outputs": [],
      "stateMutability": "nonpayable",
      "type": "function"
    },
    {
      "inputs": [
        {
          "internalType": "address",
          "name": "",
          "type": "address"
        }
      ],
      "name": "isTradingContract",
      "outputs": [
        {
          "internalType": "bool",
          "name": "",
          "type": "bool"
        }
      ],
      "stateMutability": "view",
      "type": "function"
    },
    {
      "inputs": [],
      "name": "linkErc677",
      "outputs": [
        {
          "internalType": "contract TokenInterface",
          "name": "",
          "type": "address"
        }
      ],
      "stateMutability": "view",
      "type": "function"
    },
    {
      "inputs": [],
      "name": "maxGainP",
      "outputs": [
        {
          "internalType": "uint256",
          "name": "",
          "type": "uint256"
        }
      ],
      "stateMutability": "view",
      "type": "function"
    },
    {
      "inputs": [],
      "name": "maxPendingMarketOrders",
      "outputs": [
        {
          "internalType": "uint256",
          "name": "",
          "type": "uint256"
        }
      ],
      "stateMutability": "view",
      "type": "function"
    },
    {
      "inputs": [],
      "name": "maxSlP",
      "outputs": [
        {
          "internalType": "uint256",
          "name": "",
          "type": "uint256"
        }
      ],
      "stateMutability": "view",
      "type": "function"
    },
    {
      "inputs": [],
      "name": "maxTradesPerBlock",
      "outputs": [
        {
          "internalType": "uint256",
          "name": "",
          "type": "uint256"
        }
      ],
      "stateMutability": "view",
      "type": "function"
    },
    {
      "inputs": [],
      "name": "maxTradesPerPair",
      "outputs": [
        {
          "internalType": "uint256",
          "name": "",
          "type": "uint256"
        }
      ],
      "stateMutability": "view",
      "type": "function"
    },
    {
      "inputs": [
        {
          "internalType": "address",
          "name": "_to",
          "type": "address"
        },
        {
          "internalType": "uint256",
          "name": "_amount",
          "type": "uint256"
        }
      ],
      "name": "mintWETH",
      "outputs": [],
      "stateMutability": "nonpayable",
      "type": "function"
    },
    {
      "inputs": [
        {
          "internalType": "uint256",
          "name": "",
          "type": "uint256"
        }
      ],
      "name": "nftLastSuccess",
      "outputs": [
        {
          "internalType": "uint256",
          "name": "",
          "type": "uint256"
        }
      ],
      "stateMutability": "view",
      "type": "function"
    },
    {
      "inputs": [],
      "name": "nftRewards",
      "outputs": [
        {
          "internalType": "uint256",
          "name": "",
          "type": "uint256"
        }
      ],
      "stateMutability": "view",
      "type": "function"
    },
    {
      "inputs": [],
      "name": "nftSuccessTimelock",
      "outputs": [
        {
          "internalType": "uint256",
          "name": "",
          "type": "uint256"
        }
      ],
      "stateMutability": "view",
      "type": "function"
    },
    {
      "inputs": [
        {
          "internalType": "uint256",
          "name": "",
          "type": "uint256"
        }
      ],
      "name": "nfts",
      "outputs": [
        {
          "internalType": "contract NftInterfaceV5",
          "name": "",
          "type": "address"
        }
      ],
      "stateMutability": "view",
      "type": "function"
    },
    {
      "inputs": [
        {
          "internalType": "uint256",
          "name": "",
          "type": "uint256"
        },
        {
          "internalType": "uint256",
          "name": "",
          "type": "uint256"
        }
      ],
      "name": "openInterestWETH",
      "outputs": [
        {
          "internalType": "uint256",
          "name": "",
          "type": "uint256"
        }
      ],
      "stateMutability": "view",
      "type": "function"
    },
    {
      "inputs": [
        {
          "internalType": "address",
          "name": "",
          "type": "address"
        },
        {
          "internalType": "uint256",
          "name": "",
          "type": "uint256"
        },
        {
          "internalType": "uint256",
          "name": "",
          "type": "uint256"
        }
      ],
      "name": "openLimitOrderIds",
      "outputs": [
        {
          "internalType": "uint256",
          "name": "",
          "type": "uint256"
        }
      ],
      "stateMutability": "view",
      "type": "function"
    },
    {
      "inputs": [
        {
          "internalType": "uint256",
          "name": "",
          "type": "uint256"
        }
      ],
      "name": "openLimitOrders",
      "outputs": [
        {
          "internalType": "address",
          "name": "trader",
          "type": "address"
        },
        {
          "internalType": "uint256",
          "name": "pairIndex",
          "type": "uint256"
        },
        {
          "internalType": "uint256",
          "name": "index",
          "type": "uint256"
        },
        {
          "internalType": "uint256",
          "name": "positionSize",
          "type": "uint256"
        },
        {
          "internalType": "uint256",
          "name": "spreadReductionP",
          "type": "uint256"
        },
        {
          "internalType": "bool",
          "name": "buy",
          "type": "bool"
        },
        {
          "internalType": "uint256",
          "name": "leverage",
          "type": "uint256"
        },
        {
          "internalType": "uint256",
          "name": "tp",
          "type": "uint256"
        },
        {
          "internalType": "uint256",
          "name": "sl",
          "type": "uint256"
        },
        {
          "internalType": "uint256",
          "name": "minPrice",
          "type": "uint256"
        },
        {
          "internalType": "uint256",
          "name": "maxPrice",
          "type": "uint256"
        },
        {
          "internalType": "uint256",
          "name": "block",
          "type": "uint256"
        },
        {
          "internalType": "uint256",
          "name": "tokenId",
          "type": "uint256"
        }
      ],
      "stateMutability": "view",
      "type": "function"
    },
    {
      "inputs": [
        {
          "internalType": "address",
          "name": "",
          "type": "address"
        },
        {
          "internalType": "uint256",
          "name": "",
          "type": "uint256"
        }
      ],
      "name": "openLimitOrdersCount",
      "outputs": [
        {
          "internalType": "uint256",
          "name": "",
          "type": "uint256"
        }
      ],
      "stateMutability": "view",
      "type": "function"
    },
    {
      "inputs": [
        {
          "internalType": "address",
          "name": "",
          "type": "address"
        },
        {
          "internalType": "uint256",
          "name": "",
          "type": "uint256"
        },
        {
          "internalType": "uint256",
          "name": "",
          "type": "uint256"
        }
      ],
      "name": "openTrades",
      "outputs": [
        {
          "internalType": "address",
          "name": "trader",
          "type": "address"
        },
        {
          "internalType": "uint256",
          "name": "pairIndex",
          "type": "uint256"
        },
        {
          "internalType": "uint256",
          "name": "index",
          "type": "uint256"
        },
        {
          "internalType": "uint256",
          "name": "initialPosToken",
          "type": "uint256"
        },
        {
          "internalType": "uint256",
          "name": "positionSizeWETH",
          "type": "uint256"
        },
        {
          "internalType": "uint256",
          "name": "openPrice",
          "type": "uint256"
        },
        {
          "internalType": "bool",
          "name": "buy",
          "type": "bool"
        },
        {
          "internalType": "uint256",
          "name": "leverage",
          "type": "uint256"
        },
        {
          "internalType": "uint256",
          "name": "tp",
          "type": "uint256"
        },
        {
          "internalType": "uint256",
          "name": "sl",
          "type": "uint256"
        }
      ],
      "stateMutability": "view",
      "type": "function"
    },
    {
      "inputs": [
        {
          "internalType": "address",
          "name": "",
          "type": "address"
        },
        {
          "internalType": "uint256",
          "name": "",
          "type": "uint256"
        }
      ],
      "name": "openTradesCount",
      "outputs": [
        {
          "internalType": "uint256",
          "name": "",
          "type": "uint256"
        }
      ],
      "stateMutability": "view",
      "type": "function"
    },
    {
      "inputs": [
        {
          "internalType": "address",
          "name": "",
          "type": "address"
        },
        {
          "internalType": "uint256",
          "name": "",
          "type": "uint256"
        },
        {
          "internalType": "uint256",
          "name": "",
          "type": "uint256"
        }
      ],
      "name": "openTradesInfo",
      "outputs": [
        {
          "internalType": "uint256",
          "name": "tokenId",
          "type": "uint256"
        },
        {
          "internalType": "uint256",
          "name": "tokenPriceWETH",
          "type": "uint256"
        },
        {
          "internalType": "uint256",
          "name": "openInterestWETH",
          "type": "uint256"
        },
        {
          "internalType": "uint256",
          "name": "tpLastUpdated",
          "type": "uint256"
        },
        {
          "internalType": "uint256",
          "name": "slLastUpdated",
          "type": "uint256"
        },
        {
          "internalType": "bool",
          "name": "beingMarketClosed",
          "type": "bool"
        }
      ],
      "stateMutability": "view",
      "type": "function"
    },
    {
      "inputs": [],
      "name": "oracle",
      "outputs": [
        {
          "internalType": "contract IOracle",
          "name": "",
          "type": "address"
        }
      ],
      "stateMutability": "view",
      "type": "function"
    },
    {
      "inputs": [
        {
          "internalType": "uint256",
          "name": "",
          "type": "uint256"
        },
        {
          "internalType": "uint256",
          "name": "",
          "type": "uint256"
        }
      ],
      "name": "pairTraders",
      "outputs": [
        {
          "internalType": "address",
          "name": "",
          "type": "address"
        }
      ],
      "stateMutability": "view",
      "type": "function"
    },
    {
      "inputs": [
        {
          "internalType": "uint256",
          "name": "_pairIndex",
          "type": "uint256"
        }
      ],
      "name": "pairTradersArray",
      "outputs": [
        {
          "internalType": "address[]",
          "name": "",
          "type": "address[]"
        }
      ],
      "stateMutability": "view",
      "type": "function"
    },
    {
      "inputs": [
        {
          "internalType": "address",
          "name": "",
          "type": "address"
        },
        {
          "internalType": "uint256",
          "name": "",
          "type": "uint256"
        }
      ],
      "name": "pairTradersId",
      "outputs": [
        {
          "internalType": "uint256",
          "name": "",
          "type": "uint256"
        }
      ],
      "stateMutability": "view",
      "type": "function"
    },
    {
      "inputs": [],
      "name": "pairs",
      "outputs": [
        {
          "internalType": "uint256",
          "name": "",
          "type": "uint256"
        }
      ],
      "stateMutability": "view",
      "type": "function"
    },
    {
      "inputs": [
        {
          "internalType": "address",
          "name": "",
          "type": "address"
        },
        {
          "internalType": "uint256",
          "name": "",
          "type": "uint256"
        }
      ],
      "name": "pendingMarketCloseCount",
      "outputs": [
        {
          "internalType": "uint256",
          "name": "",
          "type": "uint256"
        }
      ],
      "stateMutability": "view",
      "type": "function"
    },
    {
      "inputs": [
        {
          "internalType": "address",
          "name": "",
          "type": "address"
        },
        {
          "internalType": "uint256",
          "name": "",
          "type": "uint256"
        }
      ],
      "name": "pendingMarketOpenCount",
      "outputs": [
        {
          "internalType": "uint256",
          "name": "",
          "type": "uint256"
        }
      ],
      "stateMutability": "view",
      "type": "function"
    },
    {
      "inputs": [
        {
          "internalType": "address",
          "name": "",
          "type": "address"
        },
        {
          "internalType": "uint256",
          "name": "",
          "type": "uint256"
        }
      ],
      "name": "pendingOrderIds",
      "outputs": [
        {
          "internalType": "uint256",
          "name": "",
          "type": "uint256"
        }
      ],
      "stateMutability": "view",
      "type": "function"
    },
    {
      "inputs": [
        {
          "internalType": "address",
          "name": "_trader",
          "type": "address"
        }
      ],
      "name": "pendingOrderIdsCount",
      "outputs": [
        {
          "internalType": "uint256",
          "name": "",
          "type": "uint256"
        }
      ],
      "stateMutability": "view",
      "type": "function"
    },
    {
      "inputs": [],
      "name": "pool",
      "outputs": [
        {
          "internalType": "contract PoolInterfaceV5",
          "name": "",
          "type": "address"
        }
      ],
      "stateMutability": "view",
      "type": "function"
    },
    {
      "inputs": [],
      "name": "priceAggregator",
      "outputs": [
        {
          "internalType": "contract AggregatorInterfaceV1",
          "name": "",
          "type": "address"
        }
      ],
      "stateMutability": "view",
      "type": "function"
    },
    {
      "inputs": [
        {
          "internalType": "address",
          "name": "_trading",
          "type": "address"
        }
      ],
      "name": "removeTradingContract",
      "outputs": [],
      "stateMutability": "nonpayable",
      "type": "function"
    },
    {
      "inputs": [
        {
          "internalType": "uint256",
          "name": "",
          "type": "uint256"
        }
      ],
      "name": "reqID_pendingMarketOrder",
      "outputs": [
        {
          "components": [
            {
              "internalType": "address",
              "name": "trader",
              "type": "address"
            },
            {
              "internalType": "uint256",
              "name": "pairIndex",
              "type": "uint256"
            },
            {
              "internalType": "uint256",
              "name": "index",
              "type": "uint256"
            },
            {
              "internalType": "uint256",
              "name": "initialPosToken",
              "type": "uint256"
            },
            {
              "internalType": "uint256",
              "name": "positionSizeWETH",
              "type": "uint256"
            },
            {
              "internalType": "uint256",
              "name": "openPrice",
              "type": "uint256"
            },
            {
              "internalType": "bool",
              "name": "buy",
              "type": "bool"
            },
            {
              "internalType": "uint256",
              "name": "leverage",
              "type": "uint256"
            },
            {
              "internalType": "uint256",
              "name": "tp",
              "type": "uint256"
            },
            {
              "internalType": "uint256",
              "name": "sl",
              "type": "uint256"
            }
          ],
          "internalType": "struct StorageInterface.Trade",
          "name": "trade",
          "type": "tuple"
        },
        {
          "internalType": "uint256",
          "name": "block",
          "type": "uint256"
        },
        {
          "internalType": "uint256",
          "name": "wantedPrice",
          "type": "uint256"
        },
        {
          "internalType": "uint256",
          "name": "slippageP",
          "type": "uint256"
        },
        {
          "internalType": "uint256",
          "name": "spreadReductionP",
          "type": "uint256"
        },
        {
          "internalType": "uint256",
          "name": "tokenId",
          "type": "uint256"
        }
      ],
      "stateMutability": "view",
      "type": "function"
    },
    {
      "inputs": [
        {
          "internalType": "uint256",
          "name": "",
          "type": "uint256"
        }
      ],
      "name": "reqID_pendingNftOrder",
      "outputs": [
        {
          "internalType": "address",
          "name": "nftHolder",
          "type": "address"
        },
        {
          "internalType": "uint256",
          "name": "nftId",
          "type": "uint256"
        },
        {
          "internalType": "address",
          "name": "trader",
          "type": "address"
        },
        {
          "internalType": "uint256",
          "name": "pairIndex",
          "type": "uint256"
        },
        {
          "internalType": "uint256",
          "name": "index",
          "type": "uint256"
        },
        {
          "internalType": "enum StorageInterface.LimitOrder",
          "name": "orderType",
          "type": "uint8"
        }
      ],
      "stateMutability": "view",
      "type": "function"
    },
    {
      "inputs": [
        {
          "internalType": "address",
          "name": "_callbacks",
          "type": "address"
        }
      ],
      "name": "setCallbacks",
      "outputs": [],
      "stateMutability": "nonpayable",
      "type": "function"
    },
    {
      "inputs": [
        {
          "internalType": "uint256",
          "name": "_lev",
          "type": "uint256"
        }
      ],
      "name": "setDefaultLeverageUnlocked",
      "outputs": [],
      "stateMutability": "nonpayable",
      "type": "function"
    },
    {
      "inputs": [
        {
          "internalType": "address",
          "name": "_dev",
          "type": "address"
        }
      ],
      "name": "setDev",
      "outputs": [],
      "stateMutability": "nonpayable",
      "type": "function"
    },
    {
      "inputs": [
        {
          "internalType": "address",
          "name": "_gov",
          "type": "address"
        }
      ],
      "name": "setGov",
      "outputs": [],
      "stateMutability": "nonpayable",
      "type": "function"
    },
    {
      "inputs": [
        {
          "internalType": "address",
          "name": "_trader",
          "type": "address"
        },
        {
          "internalType": "uint256",
          "name": "_newLeverage",
          "type": "uint256"
        }
      ],
      "name": "setLeverageUnlocked",
      "outputs": [],
      "stateMutability": "nonpayable",
      "type": "function"
    },
    {
      "inputs": [
        {
          "internalType": "uint256",
          "name": "_max",
          "type": "uint256"
        }
      ],
      "name": "setMaxGainP",
      "outputs": [],
      "stateMutability": "nonpayable",
      "type": "function"
    },
    {
      "inputs": [
        {
          "internalType": "uint256",
          "name": "_pairIndex",
          "type": "uint256"
        },
        {
          "internalType": "uint256",
          "name": "_newMaxOpenInterest",
          "type": "uint256"
        }
      ],
      "name": "setMaxOpenInterestWETH",
      "outputs": [],
      "stateMutability": "nonpayable",
      "type": "function"
    },
    {
      "inputs": [
        {
          "internalType": "uint256",
          "name": "_maxPendingMarketOrders",
          "type": "uint256"
        }
      ],
      "name": "setMaxPendingMarketOrders",
      "outputs": [],
      "stateMutability": "nonpayable",
      "type": "function"
    },
    {
      "inputs": [
        {
          "internalType": "uint256",
          "name": "_max",
          "type": "uint256"
        }
      ],
      "name": "setMaxSlP",
      "outputs": [],
      "stateMutability": "nonpayable",
      "type": "function"
    },
    {
      "inputs": [
        {
          "internalType": "uint256",
          "name": "_maxTradesPerBlock",
          "type": "uint256"
        }
      ],
      "name": "setMaxTradesPerBlock",
      "outputs": [],
      "stateMutability": "nonpayable",
      "type": "function"
    },
    {
      "inputs": [
        {
          "internalType": "uint256",
          "name": "_maxTradesPerPair",
          "type": "uint256"
        }
      ],
      "name": "setMaxTradesPerPair",
      "outputs": [],
      "stateMutability": "nonpayable",
      "type": "function"
    },
    {
      "inputs": [
        {
          "internalType": "uint256",
          "name": "_blocks",
          "type": "uint256"
        }
      ],
      "name": "setNftSuccessTimelock",
      "outputs": [],
      "stateMutability": "nonpayable",
      "type": "function"
    },
    {
      "inputs": [
        {
          "internalType": "address",
          "name": "_oracle",
          "type": "address"
        }
      ],
      "name": "setOracle",
      "outputs": [],
      "stateMutability": "nonpayable",
      "type": "function"
    },
    {
      "inputs": [
        {
          "internalType": "uint256",
          "name": "_pairs",
          "type": "uint256"
        }
      ],
      "name": "setPairs",
      "outputs": [],
      "stateMutability": "nonpayable",
      "type": "function"
    },
    {
      "inputs": [
        {
          "internalType": "address",
          "name": "_pool",
          "type": "address"
        }
      ],
      "name": "setPool",
      "outputs": [],
      "stateMutability": "nonpayable",
      "type": "function"
    },
    {
      "inputs": [
        {
          "internalType": "address",
          "name": "_aggregator",
          "type": "address"
        }
      ],
      "name": "setPriceAggregator",
      "outputs": [],
      "stateMutability": "nonpayable",
      "type": "function"
    },
    {
      "inputs": [
        {
          "internalType": "uint256[5]",
          "name": "_r",
          "type": "uint256[5]"
        }
      ],
      "name": "setSpreadReductionsP",
      "outputs": [],
      "stateMutability": "nonpayable",
      "type": "function"
    },
    {
      "inputs": [
        {
          "internalType": "address",
          "name": "_tokenWETHRouter",
          "type": "address"
        }
      ],
      "name": "setTokenWETHRouter",
      "outputs": [],
      "stateMutability": "nonpayable",
      "type": "function"
    },
    {
      "inputs": [
        {
          "internalType": "address",
          "name": "_trading",
          "type": "address"
        }
      ],
      "name": "setTrading",
      "outputs": [],
      "stateMutability": "nonpayable",
      "type": "function"
    },
    {
      "inputs": [
        {
          "internalType": "address",
          "name": "_vault",
          "type": "address"
        }
      ],
      "name": "setVault",
      "outputs": [],
      "stateMutability": "nonpayable",
      "type": "function"
    },
    {
      "inputs": [
        {
          "internalType": "uint256",
          "name": "",
          "type": "uint256"
        }
      ],
      "name": "spreadReductionsP",
      "outputs": [
        {
          "internalType": "uint256",
          "name": "",
          "type": "uint256"
        }
      ],
      "stateMutability": "view",
      "type": "function"
    },
    {
      "inputs": [
        {
          "components": [
            {
              "internalType": "address",
              "name": "trader",
              "type": "address"
            },
            {
              "internalType": "uint256",
              "name": "pairIndex",
              "type": "uint256"
            },
            {
              "internalType": "uint256",
              "name": "index",
              "type": "uint256"
            },
            {
              "internalType": "uint256",
              "name": "positionSize",
              "type": "uint256"
            },
            {
              "internalType": "uint256",
              "name": "spreadReductionP",
              "type": "uint256"
            },
            {
              "internalType": "bool",
              "name": "buy",
              "type": "bool"
            },
            {
              "internalType": "uint256",
              "name": "leverage",
              "type": "uint256"
            },
            {
              "internalType": "uint256",
              "name": "tp",
              "type": "uint256"
            },
            {
              "internalType": "uint256",
              "name": "sl",
              "type": "uint256"
            },
            {
              "internalType": "uint256",
              "name": "minPrice",
              "type": "uint256"
            },
            {
              "internalType": "uint256",
              "name": "maxPrice",
              "type": "uint256"
            },
            {
              "internalType": "uint256",
              "name": "block",
              "type": "uint256"
            },
            {
              "internalType": "uint256",
              "name": "tokenId",
              "type": "uint256"
            }
          ],
          "internalType": "struct StorageInterface.OpenLimitOrder",
          "name": "o",
          "type": "tuple"
        }
      ],
      "name": "storeOpenLimitOrder",
      "outputs": [],
      "stateMutability": "nonpayable",
      "type": "function"
    },
    {
      "inputs": [
        {
          "components": [
            {
              "components": [
                {
                  "internalType": "address",
                  "name": "trader",
                  "type": "address"
                },
                {
                  "internalType": "uint256",
                  "name": "pairIndex",
                  "type": "uint256"
                },
                {
                  "internalType": "uint256",
                  "name": "index",
                  "type": "uint256"
                },
                {
                  "internalType": "uint256",
                  "name": "initialPosToken",
                  "type": "uint256"
                },
                {
                  "internalType": "uint256",
                  "name": "positionSizeWETH",
                  "type": "uint256"
                },
                {
                  "internalType": "uint256",
                  "name": "openPrice",
                  "type": "uint256"
                },
                {
                  "internalType": "bool",
                  "name": "buy",
                  "type": "bool"
                },
                {
                  "internalType": "uint256",
                  "name": "leverage",
                  "type": "uint256"
                },
                {
                  "internalType": "uint256",
                  "name": "tp",
                  "type": "uint256"
                },
                {
                  "internalType": "uint256",
                  "name": "sl",
                  "type": "uint256"
                }
              ],
              "internalType": "struct StorageInterface.Trade",
              "name": "trade",
              "type": "tuple"
            },
            {
              "internalType": "uint256",
              "name": "block",
              "type": "uint256"
            },
            {
              "internalType": "uint256",
              "name": "wantedPrice",
              "type": "uint256"
            },
            {
              "internalType": "uint256",
              "name": "slippageP",
              "type": "uint256"
            },
            {
              "internalType": "uint256",
              "name": "spreadReductionP",
              "type": "uint256"
            },
            {
              "internalType": "uint256",
              "name": "tokenId",
              "type": "uint256"
            }
          ],
          "internalType": "struct StorageInterface.PendingMarketOrder",
          "name": "_order",
          "type": "tuple"
        },
        {
          "internalType": "uint256",
          "name": "_id",
          "type": "uint256"
        },
        {
          "internalType": "bool",
          "name": "_open",
          "type": "bool"
        }
      ],
      "name": "storePendingMarketOrder",
      "outputs": [],
      "stateMutability": "nonpayable",
      "type": "function"
    },
    {
      "inputs": [
        {
          "components": [
            {
              "internalType": "address",
              "name": "nftHolder",
              "type": "address"
            },
            {
              "internalType": "uint256",
              "name": "nftId",
              "type": "uint256"
            },
            {
              "internalType": "address",
              "name": "trader",
              "type": "address"
            },
            {
              "internalType": "uint256",
              "name": "pairIndex",
              "type": "uint256"
            },
            {
              "internalType": "uint256",
              "name": "index",
              "type": "uint256"
            },
            {
              "internalType": "enum StorageInterface.LimitOrder",
              "name": "orderType",
              "type": "uint8"
            }
          ],
          "internalType": "struct StorageInterface.PendingNftOrder",
          "name": "_nftOrder",
          "type": "tuple"
        },
        {
          "internalType": "uint256",
          "name": "_orderId",
          "type": "uint256"
        }
      ],
      "name": "storePendingNftOrder",
      "outputs": [],
      "stateMutability": "nonpayable",
      "type": "function"
    },
    {
      "inputs": [
        {
          "internalType": "address",
          "name": "_trader",
          "type": "address"
        },
        {
          "internalType": "address",
          "name": "_referral",
          "type": "address"
        }
      ],
      "name": "storeReferral",
      "outputs": [],
      "stateMutability": "nonpayable",
      "type": "function"
    },
    {
      "inputs": [
        {
          "components": [
            {
              "internalType": "address",
              "name": "trader",
              "type": "address"
            },
            {
              "internalType": "uint256",
              "name": "pairIndex",
              "type": "uint256"
            },
            {
              "internalType": "uint256",
              "name": "index",
              "type": "uint256"
            },
            {
              "internalType": "uint256",
              "name": "initialPosToken",
              "type": "uint256"
            },
            {
              "internalType": "uint256",
              "name": "positionSizeWETH",
              "type": "uint256"
            },
            {
              "internalType": "uint256",
              "name": "openPrice",
              "type": "uint256"
            },
            {
              "internalType": "bool",
              "name": "buy",
              "type": "bool"
            },
            {
              "internalType": "uint256",
              "name": "leverage",
              "type": "uint256"
            },
            {
              "internalType": "uint256",
              "name": "tp",
              "type": "uint256"
            },
            {
              "internalType": "uint256",
              "name": "sl",
              "type": "uint256"
            }
          ],
          "internalType": "struct StorageInterface.Trade",
          "name": "_trade",
          "type": "tuple"
        },
        {
          "components": [
            {
              "internalType": "uint256",
              "name": "tokenId",
              "type": "uint256"
            },
            {
              "internalType": "uint256",
              "name": "tokenPriceWETH",
              "type": "uint256"
            },
            {
              "internalType": "uint256",
              "name": "openInterestWETH",
              "type": "uint256"
            },
            {
              "internalType": "uint256",
              "name": "tpLastUpdated",
              "type": "uint256"
            },
            {
              "internalType": "uint256",
              "name": "slLastUpdated",
              "type": "uint256"
            },
            {
              "internalType": "bool",
              "name": "beingMarketClosed",
              "type": "bool"
            }
          ],
          "internalType": "struct StorageInterface.TradeInfo",
          "name": "_tradeInfo",
          "type": "tuple"
        }
      ],
      "name": "storeTrade",
      "outputs": [],
      "stateMutability": "nonpayable",
      "type": "function"
    },
    {
      "inputs": [
        {
          "internalType": "uint256",
          "name": "",
          "type": "uint256"
        }
      ],
      "name": "supportedTokens",
      "outputs": [
        {
          "internalType": "address",
          "name": "",
          "type": "address"
        }
      ],
      "stateMutability": "view",
      "type": "function"
    },
    {
      "inputs": [],
      "name": "token",
      "outputs": [
        {
          "internalType": "contract TokenInterface",
          "name": "",
          "type": "address"
        }
      ],
      "stateMutability": "view",
      "type": "function"
    },
    {
      "inputs": [],
      "name": "tokenWETHRouter",
      "outputs": [
        {
          "internalType": "address",
          "name": "",
          "type": "address"
        }
      ],
      "stateMutability": "view",
      "type": "function"
    },
    {
      "inputs": [],
      "name": "tokensBurned",
      "outputs": [
        {
          "internalType": "uint256",
          "name": "",
          "type": "uint256"
        }
      ],
      "stateMutability": "view",
      "type": "function"
    },
    {
      "inputs": [],
      "name": "tokensMinted",
      "outputs": [
        {
          "internalType": "uint256",
          "name": "",
          "type": "uint256"
        }
      ],
      "stateMutability": "view",
      "type": "function"
    },
    {
      "inputs": [
        {
          "internalType": "address",
          "name": "",
          "type": "address"
        }
      ],
      "name": "traders",
      "outputs": [
        {
          "internalType": "uint256",
          "name": "leverageUnlocked",
          "type": "uint256"
        },
        {
          "internalType": "address",
          "name": "referral",
          "type": "address"
        },
        {
          "internalType": "uint256",
          "name": "referralRewardsTotal",
          "type": "uint256"
        }
      ],
      "stateMutability": "view",
      "type": "function"
    },
    {
      "inputs": [
        {
          "internalType": "uint256",
          "name": "",
          "type": "uint256"
        }
      ],
      "name": "tradesPerBlock",
      "outputs": [
        {
          "internalType": "uint256",
          "name": "",
          "type": "uint256"
        }
      ],
      "stateMutability": "view",
      "type": "function"
    },
    {
      "inputs": [],
      "name": "trading",
      "outputs": [
        {
          "internalType": "contract PausableInterfaceV5",
          "name": "",
          "type": "address"
        }
      ],
      "stateMutability": "view",
      "type": "function"
    },
    {
      "inputs": [
        {
          "internalType": "address",
          "name": "_from",
          "type": "address"
        },
        {
          "internalType": "uint256",
          "name": "_pairIndex",
          "type": "uint256"
        },
        {
          "internalType": "uint256",
          "name": "_leveragedPosWETH",
          "type": "uint256"
        }
      ],
      "name": "transferLinkToAggregator",
      "outputs": [],
      "stateMutability": "nonpayable",
      "type": "function"
    },
    {
      "inputs": [
        {
          "internalType": "address",
          "name": "_from",
          "type": "address"
        },
        {
          "internalType": "address",
          "name": "_to",
          "type": "address"
        },
        {
          "internalType": "uint256",
          "name": "_amount",
          "type": "uint256"
        }
      ],
      "name": "transferWETH",
      "outputs": [],
      "stateMutability": "nonpayable",
      "type": "function"
    },
    {
      "inputs": [
        {
          "internalType": "address",
          "name": "_trader",
          "type": "address"
        },
        {
          "internalType": "uint256",
          "name": "_pairIndex",
          "type": "uint256"
        },
        {
          "internalType": "uint256",
          "name": "_index",
          "type": "uint256"
        }
      ],
      "name": "unregisterOpenLimitOrder",
      "outputs": [],
      "stateMutability": "nonpayable",
      "type": "function"
    },
    {
      "inputs": [
        {
          "internalType": "uint256",
          "name": "_id",
          "type": "uint256"
        },
        {
          "internalType": "bool",
          "name": "_open",
          "type": "bool"
        }
      ],
      "name": "unregisterPendingMarketOrder",
      "outputs": [],
      "stateMutability": "nonpayable",
      "type": "function"
    },
    {
      "inputs": [
        {
          "internalType": "uint256",
          "name": "_order",
          "type": "uint256"
        }
      ],
      "name": "unregisterPendingNftOrder",
      "outputs": [],
      "stateMutability": "nonpayable",
      "type": "function"
    },
    {
      "inputs": [
        {
          "internalType": "address",
          "name": "trader",
          "type": "address"
        },
        {
          "internalType": "uint256",
          "name": "pairIndex",
          "type": "uint256"
        },
        {
          "internalType": "uint256",
          "name": "index",
          "type": "uint256"
        }
      ],
      "name": "unregisterTrade",
      "outputs": [],
      "stateMutability": "nonpayable",
      "type": "function"
    },
    {
      "inputs": [
        {
          "internalType": "contract NftInterfaceV5[5]",
          "name": "_nfts",
          "type": "address[5]"
        }
      ],
      "name": "updateNfts",
      "outputs": [],
      "stateMutability": "nonpayable",
      "type": "function"
    },
    {
      "inputs": [
        {
          "components": [
            {
              "internalType": "address",
              "name": "trader",
              "type": "address"
            },
            {
              "internalType": "uint256",
              "name": "pairIndex",
              "type": "uint256"
            },
            {
              "internalType": "uint256",
              "name": "index",
              "type": "uint256"
            },
            {
              "internalType": "uint256",
              "name": "positionSize",
              "type": "uint256"
            },
            {
              "internalType": "uint256",
              "name": "spreadReductionP",
              "type": "uint256"
            },
            {
              "internalType": "bool",
              "name": "buy",
              "type": "bool"
            },
            {
              "internalType": "uint256",
              "name": "leverage",
              "type": "uint256"
            },
            {
              "internalType": "uint256",
              "name": "tp",
              "type": "uint256"
            },
            {
              "internalType": "uint256",
              "name": "sl",
              "type": "uint256"
            },
            {
              "internalType": "uint256",
              "name": "minPrice",
              "type": "uint256"
            },
            {
              "internalType": "uint256",
              "name": "maxPrice",
              "type": "uint256"
            },
            {
              "internalType": "uint256",
              "name": "block",
              "type": "uint256"
            },
            {
              "internalType": "uint256",
              "name": "tokenId",
              "type": "uint256"
            }
          ],
          "internalType": "struct StorageInterface.OpenLimitOrder",
          "name": "_o",
          "type": "tuple"
        }
      ],
      "name": "updateOpenLimitOrder",
      "outputs": [],
      "stateMutability": "nonpayable",
      "type": "function"
    },
    {
      "inputs": [
        {
          "internalType": "address",
          "name": "_trader",
          "type": "address"
        },
        {
          "internalType": "uint256",
          "name": "_pairIndex",
          "type": "uint256"
        },
        {
          "internalType": "uint256",
          "name": "_index",
          "type": "uint256"
        },
        {
          "internalType": "uint256",
          "name": "_newSl",
          "type": "uint256"
        }
      ],
      "name": "updateSl",
      "outputs": [],
      "stateMutability": "nonpayable",
      "type": "function"
    },
    {
      "inputs": [
        {
          "internalType": "contract TokenInterface",
          "name": "_newToken",
          "type": "address"
        }
      ],
      "name": "updateToken",
      "outputs": [],
      "stateMutability": "nonpayable",
      "type": "function"
    },
    {
      "inputs": [
        {
          "internalType": "address",
          "name": "_trader",
          "type": "address"
        },
        {
          "internalType": "uint256",
          "name": "_pairIndex",
          "type": "uint256"
        },
        {
          "internalType": "uint256",
          "name": "_index",
          "type": "uint256"
        },
        {
          "internalType": "uint256",
          "name": "_newTp",
          "type": "uint256"
        }
      ],
      "name": "updateTp",
      "outputs": [],
      "stateMutability": "nonpayable",
      "type": "function"
    },
    {
      "inputs": [
        {
          "components": [
            {
              "internalType": "address",
              "name": "trader",
              "type": "address"
            },
            {
              "internalType": "uint256",
              "name": "pairIndex",
              "type": "uint256"
            },
            {
              "internalType": "uint256",
              "name": "index",
              "type": "uint256"
            },
            {
              "internalType": "uint256",
              "name": "initialPosToken",
              "type": "uint256"
            },
            {
              "internalType": "uint256",
              "name": "positionSizeWETH",
              "type": "uint256"
            },
            {
              "internalType": "uint256",
              "name": "openPrice",
              "type": "uint256"
            },
            {
              "internalType": "bool",
              "name": "buy",
              "type": "bool"
            },
            {
              "internalType": "uint256",
              "name": "leverage",
              "type": "uint256"
            },
            {
              "internalType": "uint256",
              "name": "tp",
              "type": "uint256"
            },
            {
              "internalType": "uint256",
              "name": "sl",
              "type": "uint256"
            }
          ],
          "internalType": "struct StorageInterface.Trade",
          "name": "_t",
          "type": "tuple"
        }
      ],
      "name": "updateTrade",
      "outputs": [],
      "stateMutability": "nonpayable",
      "type": "function"
    },
    {
      "inputs": [],
      "name": "vault",
      "outputs": [
        {
          "internalType": "address",
          "name": "",
          "type": "address"
        }
      ],
      "stateMutability": "view",
      "type": "function"
    }
  ],
  "transactionHash": "0x11bc845f62129c288c4c7686ba561f1438770251a801637e271d5e42b5eb12bc",
  "args": [],
  "numDeployments": 2,
  "solcInputHash": "c35d07a5c059c36e536c241f5664137d",
  "bytecode": "0x600680546001600160a01b031916737075cab6bcca06613e2d071bd918d1a0241379e217905561012060405273f9a4c522e327935bd1f5a338c121e14e4cc1f89860809081527377cd42b925e1a82f41d852d6be727cfc88fddbbc60a052733378ad81d09de23725ee9b9270635c97ed60192160c0527302e2c5825c1a3b69c0417706dbe1327c2af3e6c260e052732d266a94469d05c9e06d52a4d0d9c23b157767c261010052620000b690600790600562000131565b506003600e556005600f818155601082905561038460115560506012556032601381905560149081556040805160a0810182529283526020830191909152601990820152601e6060820152602360808201526200011791601591906200018e565b5060026023553480156200012a57600080fd5b50620001db565b82600581019282156200017c579160200282015b828111156200017c57825182546001600160a01b0319166001600160a01b0390911617825560209092019160019091019062000145565b506200018a929150620001c4565b5090565b82600581019282156200017c579160200282015b828111156200017c578251829060ff16905591602001919060010190620001a2565b5b808211156200018a5760008155600101620001c5565b615e9280620001eb6000396000f3fe608060405234801561001057600080fd5b506004361061060b5760003560e01c806390d112b91161031d578063d294f093116101a9578063ecf56a1f116100fa578063f823e2ae116100a8578063f823e2ae14611297578063f8d24b48146112aa578063fbfa77cf146112b3578063fc0c546a146112c6578063fdb59413146112d9578063fe0fc8d6146112e2578063fece4eac146112f5578063ffb0a4a01461131057600080fd5b8063ecf56a1f146111a4578063eda00d54146111b7578063ee51f636146111e8578063ee92a4ff14611249578063f013d27814611252578063f65d9dbe14611265578063f7b3c6fd1461126e57600080fd5b8063dcdf339a11610157578063dcdf339a14611129578063e212991a1461113c578063e3cbe3a71461114f578063e3f04eba14611162578063e765540314611175578063e7873b5814611188578063ec44acf21461119157600080fd5b8063d294f093146110a6578063d3b5fe70146110ae578063d3c7c2c7146110c1578063d477f05f146110c9578063d4bda908146110dc578063d5391393146110ef578063dc2123ff1461111657600080fd5b8063ad5c46481161026e578063c0c53b8b1161021c578063c0c53b8b14611018578063c122fea61461102b578063c311ab3114611034578063c625562614611047578063c76faf781461105a578063cab945801461106d578063cfad57a214611080578063cfbacc141461109357600080fd5b8063ad5c464814610ea9578063b4b0f56714610ec2578063b66e6b0514610ed5578063b767608a14610fa7578063b7682d5414610fba578063b8878a2c14610fe5578063bcc9f1d31461100557600080fd5b80639d1a1073116102cb5780639d1a107314610d5f578063a2ab2dee14610d72578063a354418114610d83578063a3a80ffe14610d96578063a553906c14610e6a578063aa3b7d7714610e7d578063aaf5eb6814610e9d57600080fd5b806390d112b914610c1b57806391cca3db14610c2e57806392a88fa214610c41578063959509e414610c9c57806397e7995a14610ca557806399794d3514610cd05780639c8912f114610d3457600080fd5b80635378143e1161049c57806377a9fdcf116103ed5780638049fde71161039b5780638049fde714610b22578063817fa1a414610b2b578063878679e614610b3e5780638a0bd70214610b515780638a238ae514610b665780638bbb644c14610b795780638bf7f5f914610b825780638c8ff1d514610b9557600080fd5b806377a9fdcf14610a7d578063796d82d914610a905780637ad3def214610a995780637adbf97314610aac5780637dc0d1d014610adc5780637f0584ed14610aef5780637fdb96f314610b0f57600080fd5b80636690a8061161044a5780636690a806146109cc5780636817031b146109df57806368ca199d146109f25780636d69fcaf14610a1b5780636d81d98114610a2e5780636de9f32b14610a615780637395d79e14610a6a57600080fd5b80635378143e1461093f57806356a6796f146109525780635a912551146109675780635ad9f993146109705780635b621e32146109795780635c76ac9e1461098c5780635fbfe8cc146109ac57600080fd5b8063265aa621116105615780633b0f0f2f1161050f5780633b0f0f2f146108665780633dae10a01461089557806343b8fab5146108a85780634415b369146108bb5780634437152a146108e657806344d44f5a146108f95780635070e8371461090c57806352e5398f1461091f57600080fd5b8063265aa6211461077257806328b1f88714610785578063292c1617146107985780632a0a1cb0146107ab5780632d1f941a146107cb5780633078fff5146107d457806332149592146107e757600080fd5b8063145ed21c116105be578063145ed21c146106ba57806316f0115b146106cd5780631c8636b4146106e0578063201d8bdb1461071957806321f7a30b1461072c578063255566e41461073f57806325615d271461075f57600080fd5b8062b127831461061057806306aef7de14610640578063099fa934146106555780630a769d71146106685780630eee3e4a1461068157806312d43a511461069457806313b36ff6146106a7575b600080fd5b600554610623906001600160a01b031681565b6040516001600160a01b0390911681526020015b60405180910390f35b61065361064e3660046151da565b611319565b005b610653610663366004615261565b61138c565b6106706113f4565b60405161063795949392919061529d565b61065361068f36600461530d565b611729565b601a54610623906001600160a01b031681565b6106536106b5366004615261565b6117be565b6106536106c836600461533f565b611829565b600354610623906001600160a01b031681565b61070b6106ee36600461535c565b602860209081526000928352604080842090915290825290205481565b604051908152602001610637565b610653610727366004615261565b6118b9565b61065361073a36600461535c565b61193d565b61075261074d366004615261565b6119a0565b60405161063791906153c0565b61065361076d366004615261565b602355565b610623610780366004615261565b611a6b565b61065361079336600461535c565b611a8b565b61070b6107a636600461535c565b611ad6565b6107be6107b9366004615412565b611b30565b60405161063791906154bb565b61070b601d5481565b600254610623906001600160a01b031681565b6107fa6107f5366004615261565b611be2565b604080516001600160a01b03909e168e5260208e019c909c529a8c019990995260608b019790975260808a019590955292151560a089015260c088019190915260e08701526101008601526101208501526101408401526101608301526101808201526101a001610637565b61062361087436600461533f565b6001600160a01b039081166000908152602560205260409020600101541690565b61070b6108a3366004615261565b611c69565b6106536108b6366004615261565b611c80565b61070b6108c936600461535c565b603260209081526000928352604080842090915290825290205481565b6106536108f436600461533f565b611cf8565b61070b61090736600461535c565b611d7d565b61065361091a36600461533f565b611daa565b61070b61092d366004615261565b60346020526000908152604090205481565b61065361094d3660046154e9565b611e3a565b61095a611f71565b604051610637919061552b565b61070b60125481565b61070b60225481565b61065361098736600461533f565b611fad565b61099f61099a36600461533f565b612028565b604051610637919061555c565b6109bf6109ba366004615261565b612094565b60405161063791906155a0565b6106536109da366004615412565b6120ff565b6106536109ed36600461533f565b61223f565b61070b610a0036600461533f565b6001600160a01b031660009081526025602052604090205490565b610653610a2936600461533f565b6122c5565b610a51610a3c36600461533f565b60366020526000908152604090205460ff1681565b6040519015158152602001610637565b61070b60215481565b610653610a7836600461530d565b61236d565b61070b610a8b36600461530d565b6123c8565b61070b600f5481565b610653610aa736600461533f565b6123ed565b610653610aba36600461533f565b600180546001600160a01b0319166001600160a01b0392909216919091179055565b600154610623906001600160a01b031681565b610b02610afd366004615261565b612595565b60405161063791906155e1565b610653610b1d366004615631565b61266e565b61070b60105481565b610653610b3936600461566c565b612711565b600d54610623906001600160a01b031681565b610b596127dc565b6040516106379190615791565b610653610b743660046157d4565b6128cb565b61070b60135481565b610653610b90366004615261565b612989565b610bec610ba3366004615412565b6027602090815260009384526040808520825292845282842090528252902080546001820154600283015460038401546004850154600590950154939492939192909160ff1686565b6040805196875260208701959095529385019290925260608401526080830152151560a082015260c001610637565b610653610c29366004615412565b6129fb565b601b54610623906001600160a01b031681565b610c79610c4f36600461533f565b60256020526000908152604090208054600182015460029092015490916001600160a01b03169083565b604080519384526001600160a01b03909216602084015290820152606001610637565b61070b601f5481565b61070b610cb336600461535c565b602a60209081526000928352604080842090915290825290205481565b610d22610cde366004615261565b602d602052600090815260409020805460018201546002830154600384015460048501546005909501546001600160a01b0394851695939490921692909160ff1686565b60405161063796959493929190615815565b61070b610d4236600461535c565b602f60209081526000928352604080842090915290825290205481565b610653610d6d36600461585a565b612dce565b601a546001600160a01b0316610623565b610653610d91366004615631565b612e90565b610e14610da4366004615412565b602660209081526000938452604080852082529284528284209052825290208054600182015460028301546003840154600485015460058601546006870154600788015460088901546009909901546001600160a01b03909816989697959694959394929360ff9092169290918a565b604080516001600160a01b03909b168b5260208b0199909952978901969096526060880194909452608087019290925260a0860152151560c085015260e084015261010083015261012082015261014001610637565b610653610e7836600461533f565b612f33565b61070b610e8b366004615261565b60356020526000908152604090205481565b61070b6402540be40081565b600054610623906201000090046001600160a01b031681565b610653610ed0366004615412565b612fbb565b610f95610ee3366004615261565b602c6020908152600091825260409182902082516101408101845281546001600160a01b031681526001820154928101929092526002810154928201929092526003820154606082015260048201546080820152600582015460a0820152600682015460ff16151560c0820152600782015460e082015260088201546101008201526009820154610120820152600a820154600b830154600c840154600d850154600e90950154939492939192909186565b60405161063796959493929190615893565b610653610fb53660046158cf565b6132c7565b61070b610fc836600461535c565b603060209081526000928352604080842090915290825290205481565b610ff8610ff3366004615412565b6133fd565b60405161063791906158e8565b61070b61101336600461535c565b613580565b6106536110263660046158f7565b6135b1565b61070b60115481565b6106536110423660046159ca565b61382a565b610623611055366004615261565b613ad6565b610653611068366004615a5a565b613b00565b61065361107b366004615aec565b613cff565b61065361108e36600461533f565b613ff9565b61070b6110a1366004615b11565b61407d565b6106536141d7565b6106536110bc366004615b5b565b6143ff565b6109bf61471a565b6106536110d736600461533f565b61477b565b6106536110ea366004615c0e565b6147ff565b61070b7f9f2df0fed2c77648de5860a4cc508cd0818c85b8b8a1ab4ceeef8d981c8956a681565b610653611124366004615261565b61489c565b610a51611137366004615412565b61490d565b61065361114a366004615261565b6149a9565b61062361115d36600461530d565b614a0f565b610653611170366004615261565b614a47565b61065361118336600461535c565b614ad0565b61070b60205481565b600454610623906001600160a01b031681565b6106536111b2366004615261565b614b6c565b61070b6111c5366004615412565b602960209081526000938452604080852082529284528284209052825290205481565b6111fb6111f6366004615412565b614be3565b6040516106379190600060c082019050825182526020830151602083015260408301516040830152606083015160608301526080830151608083015260a0830151151560a083015292915050565b61070b601c5481565b610653611260366004615c2b565b614c97565b61070b600e5481565b61070b61127c36600461533f565b6001600160a01b03166000908152602e602052604090205490565b6106536112a536600461533f565b614d41565b61070b60145481565b600c54610623906001600160a01b031681565b600654610623906001600160a01b031681565b61070b601e5481565b6106536112f036600461533f565b614dbf565b61062373b0897686c545045afc77cf20ec7a532e3120e0f181565b61070b60235481565b601a546001600160a01b0316331461133057600080fd5b80516001600160a01b031661134457600080fd5b6113516007826005614f99565b507f89a3bfeda71ede5f8735aa09127c97cd56aa3803356c52f7c30caf418238b464816040516113819190615c63565b60405180910390a150565b601a546001600160a01b031633146113a357600080fd5b60328110156113b157600080fd5b6012819055604080518181526006918101919091526506d6178536c560d41b606082015260208101829052600080516020615e1d83398151915290608001611381565b6113fc614ff1565b611404614ff1565b61140c614ff1565b611414614ff1565b6000805b6023548110156117215760008181526031602090815260408083208054825181850281018501909352808352919290919083018282801561148257602002820191906000526020600020905b81546001600160a01b03168152600190910190602001808311611464575b5050505050905060005b8151811015611709576000602860008484815181106114ad576114ad615c4d565b60200260200101516001600160a01b03166001600160a01b03168152602001908152602001600020600085815260200190815260200160002054905060005b81156116f05760006026600086868151811061150a5761150a615c4d565b6020908102919091018101516001600160a01b03908116835282820193909352604091820160009081208a825282528281208682528252828120835161014081018552815486168152600182015493810193909352600281015483850152600381015460608401526004808201546080850152600582015460a0850152600682015460ff16151560c0850152600782015460e0850152600882015461010085015260099091015461012084015280549351631ad6f65d60e21b8152929550909384931691636b5bd974916115e0918791016154bb565b6040805180830381865afa1580156115fc573d6000803e3d6000fd5b505050506040513d601f19601f820116820180604052508101906116209190615c94565b9150915081801561162e5750805b156116bd5782518c8a6064811061164757611647615c4d565b6001600160a01b03909216602092909202015260028d8a6064811061166e5761166e615c4d565b60200201818152505082602001518b8a6064811061168e5761168e615c4d565b602002015260408301518a8a606481106116aa576116aa615c4d565b6020020152886116b981615cd9565b9950505b886063036116cd575050506116f0565b846116d781615cf2565b95505083806116e590615cd9565b9450505050506114ec565b856063036116ff575050611709565b505060010161148c565b50826063036117185750611721565b50600101611418565b509091929394565b601a546001600160a01b0316331461174057600080fd5b6000828152603360205260409020819060020155604080516060808252601390820152720dac2f09ee0cadc92dce8cae4cae6e8ae8aa89606b1b6080820152602081018490529081018290527f957cd67ea49f3e1ee953cdd23a1ba1f11d973e842411220d5c24ef0e24e1c9569060a0015b60405180910390a15050565b601a546001600160a01b031633146117d557600080fd5b61012c8110156117e457600080fd5b6011819055604080518181526008918101919091526706d61784761696e560c41b606082015260208101829052600080516020615e1d83398151915290608001611381565b601a546001600160a01b0316331461184057600080fd5b6001600160a01b03811661185357600080fd5b600d80546001600160a01b0319166001600160a01b03831690811790915560408051818152600f918101919091526e3a37b5b2b72ba2aa242937baba32b960891b60608201526020810191909152600080516020615e3d83398151915290608001611381565b3360009081526036602052604090205460ff166118f15760405162461bcd60e51b81526004016118e890615d09565b60405180910390fd5b6000908152602d6020526040812080546001600160a01b03199081168255600182018390556002820180549091169055600381018290556004810191909155600501805460ff19169055565b3360009081526036602052604090205460ff1661196c5760405162461bcd60e51b81526004016118e890615d09565b6001600160a01b03821660009081526025602052604081206002018054839290611997908490615d2c565b90915550505050565b6119d66040805160c08101825260008082526020820181905291810182905260608101829052608081018290529060a082015290565b6000828152602d6020908152604091829020825160c08101845281546001600160a01b039081168252600183015493820193909352600282015490921692820192909252600382015460608201526004808301546080830152600583015491929160a084019160ff90911690811115611a5157611a51615388565b6004811115611a6257611a62615388565b90525092915050565b60078160058110611a7b57600080fd5b01546001600160a01b0316905081565b3360009081526036602052604090205460ff16611aba5760405162461bcd60e51b81526004016118e890615d09565b6001600160a01b03909116600090815260256020526040902055565b6000805b600e54811015611b29576001600160a01b038416600090815260266020908152604080832086845282528083208484529091528120600701549003611b2157809150611b29565b600101611ada565b5092915050565b611b38615010565b506001600160a01b0380841660009081526026602090815260408083208684528252808320858452825291829020825161014081018452815490941684526001810154918401919091526002810154918301919091526003810154606083015260048101546080830152600581015460a0830152600681015460ff16151560c0830152600781015460e08301526008810154610100830152600901546101208201525b9392505050565b602b8181548110611bf257600080fd5b60009182526020909120600d9091020180546001820154600283015460038401546004850154600586015460068701546007880154600889015460098a0154600a8b0154600b8c0154600c909c01546001600160a01b03909b169c50989a97999698959760ff90951696939592949193909291908d565b60158160058110611c7957600080fd5b0154905081565b601a546001600160a01b03163314611c9757600080fd5b60008111611ca457600080fd5b60138190556040805181815260179181019190915276191959985d5b1d13195d995c9859d9555b9b1bd8dad959604a1b606082015260208101829052600080516020615e1d83398151915290608001611381565b601a546001600160a01b03163314611d0f57600080fd5b6001600160a01b038116611d2257600080fd5b600380546001600160a01b0319166001600160a01b03831690811790915560408051818152600491810191909152631c1bdbdb60e21b60608201526020810191909152600080516020615e3d83398151915290608001611381565b6000805b600e54811015611b2957611d9684848361490d565b611da257809150611b29565b600101611d81565b601a546001600160a01b03163314611dc157600080fd5b6001600160a01b038116611dd457600080fd5b600280546001600160a01b0319166001600160a01b03831690811790915560408051818152600f918101919091526e383934b1b2a0b3b3b932b3b0ba37b960891b60608201526020810191909152600080516020615e3d83398151915290608001611381565b3360009081526036602052604090205460ff16611e695760405162461bcd60e51b81526004016118e890615d09565b8015611ef0576006546040516340c10f1960e01b81526001600160a01b03909116906340c10f1990611ea19086908690600401615d3f565b600060405180830381600087803b158015611ebb57600080fd5b505af1158015611ecf573d6000803e3d6000fd5b505050508160216000828254611ee59190615d2c565b90915550611f6c9050565b600654604051632770a7eb60e21b81526001600160a01b0390911690639dc29fac90611f229086908690600401615d3f565b600060405180830381600087803b158015611f3c57600080fd5b505af1158015611f50573d6000803e3d6000fd5b505050508160206000828254611f669190615d2c565b90915550505b505050565b611f7961506e565b6040805160a08101918290529060159060059082845b815481526020019060010190808311611f8f575b5050505050905090565b601a546001600160a01b03163314611fc457600080fd5b6001600160a01b038116611fd757600080fd5b6001600160a01b038116600081815260366020908152604091829020805460ff1916905590519182527ff9cf924d7d98e6e0a27ec523cd7214b0bbdfaba197018b33b41a702f5238190e9101611381565b6001600160a01b0381166000908152602e602090815260409182902080548351818402810184019094528084526060939283018282801561208857602002820191906000526020600020905b815481526020019060010190808311612074575b50505050509050919050565b60008181526031602090815260409182902080548351818402810184019094528084526060939283018282801561208857602002820191906000526020600020905b81546001600160a01b031681526001909101906020018083116120d65750505050509050919050565b3360009081526036602052604090205460ff1661212e5760405162461bcd60e51b81526004016118e890615d09565b60025460405163b9e0336f60e01b8152600481018490526024810183905273b0897686c545045afc77cf20ec7a532e3120e0f1916323b872dd9186916001600160a01b031690819063b9e0336f90604401602060405180830381865afa15801561219c573d6000803e3d6000fd5b505050506040513d601f19601f820116820180604052508101906121c09190615d58565b6040516001600160e01b031960e086901b1681526001600160a01b03938416600482015292909116602483015260448201526064015b6020604051808303816000875af1158015612215573d6000803e3d6000fd5b505050506040513d601f19601f820116820180604052508101906122399190615d71565b50505050565b601a546001600160a01b0316331461225657600080fd5b6001600160a01b03811661226957600080fd5b600c80546001600160a01b0319166001600160a01b03831690811790915560408051818152600591810191909152641d985d5b1d60da1b60608201526020810191909152600080516020615e3d83398151915290608001611381565b601a546001600160a01b031633146122dc57600080fd5b6001600160a01b0381166122ef57600080fd5b602480546001810182556000919091527f7cd332d19b93bcabe3cce7ca0c18a052f57e5fd03b4758a09f30f5ddc4b22ec40180546001600160a01b0319166001600160a01b0383169081179091556040519081527fd1be2e90bd3d24839d9dd94ad871068e1f9688b02fa43f2a62c9975dfa9de2d790602001611381565b3360009081526036602052604090205460ff1661239c5760405162461bcd60e51b81526004016118e890615d09565b6123a4614e49565b60008381526035602052604081209190915560228054839290611997908490615d2c565b603360205281600052604060002081600381106123e457600080fd5b01549150829050565b601a546001600160a01b0316331461240457600080fd5b60048054604080516358c3de9360e11b815290516001600160a01b039092169263b187bd269282820192602092908290030181865afa15801561244b573d6000803e3d6000fd5b505050506040513d601f19601f8201168201806040525081019061246f9190615d71565b80156124ed5750600560009054906101000a90046001600160a01b03166001600160a01b031663b187bd266040518163ffffffff1660e01b8152600401602060405180830381865afa1580156124c9573d6000803e3d6000fd5b505050506040513d601f19601f820116820180604052508101906124ed9190615d71565b6125265760405162461bcd60e51b815260206004820152600a6024820152691393d517d4105554d15160b21b60448201526064016118e8565b6001600160a01b03811661253957600080fd5b600680546001600160a01b0319166001600160a01b03831690811790915560408051818152600591810191909152643a37b5b2b760d91b60608201526020810191909152600080516020615e3d83398151915290608001611381565b61259d61508c565b506000908152602c602090815260409182902082516102008101845281546001600160a01b031660c08201908152600183015460e08301526002830154610100830152600383015461012083015260048301546101408301526005830154610160830152600683015460ff16151561018083015260078301546101a083015260088301546101c083015260098301546101e08301528152600a82015492810192909252600b81015492820192909252600c8201546060820152600d8201546080820152600e9091015460a082015290565b3360009081526036602052604090205460ff1661269d5760405162461bcd60e51b81526004016118e890615d09565b6001600160a01b038416600081815260266020908152604080832087845282528083208684528252808320938352602782528083208784528252808320868452909152812060078301549091036126f5575050612239565b60088201839055612704614e49565b6003909101555050505050565b3360009081526036602052604090205460ff166127405760405162461bcd60e51b81526004016118e890615d09565b6000818152602d6020908152604091829020845181546001600160a01b03199081166001600160a01b03928316178355928601516001808401919091559386015160028301805490941691161790915560608401516003820155608084015160048083019190915560a085015160058301805487959293919260ff199091169184908111156127d1576127d1615388565b021790555050505050565b6060602b805480602002602001604051908101604052809291908181526020016000905b828210156128c2576000848152602090819020604080516101a081018252600d860290920180546001600160a01b03168352600180820154848601526002820154928401929092526003810154606084015260048101546080840152600581015460ff16151560a0840152600681015460c0840152600781015460e084015260088101546101008401526009810154610120840152600a810154610140840152600b810154610160840152600c01546101808301529083529092019101612800565b50505050905090565b3360009081526036602052604090205460ff166128fa5760405162461bcd60e51b81526004016118e890615d09565b306001600160a01b038416036129415760005460405163a9059cbb60e01b8152620100009091046001600160a01b03169063a9059cbb906121f69085908590600401615d3f565b6000546040516323b872dd60e01b81526001600160a01b03858116600483015284811660248301526044820184905262010000909204909116906323b872dd906064016121f6565b601a546001600160a01b031633146129a057600080fd5b600081116129ad57600080fd5b600f81905560408051818152601191810191909152706d6178547261646573506572426c6f636b60781b606082015260208101829052600080516020615e1d83398151915290608001611381565b3360009081526036602052604090205460ff16612a2a5760405162461bcd60e51b81526004016118e890615d09565b6001600160a01b03831660008181526026602090815260408083208684528252808320858452825280832093835260278252808320868452825280832085845290915281206007830154909103612a82575050505050565b60028101546006830154612a9d91869160009060ff16614edc565b6001600160a01b0385166000908152602860209081526040808320878452909152902054600103612c0a576001600160a01b0385166000908152603260209081526040808320878452825280832054603190925290912080548190612b0490600190615d8e565b81548110612b1457612b14615c4d565b9060005260206000200160009054906101000a90046001600160a01b0316818381548110612b4457612b44615c4d565b9060005260206000200160006101000a8154816001600160a01b0302191690836001600160a01b031602179055508160326000838581548110612b8957612b89615c4d565b60009182526020808320909101546001600160a01b03908116845283820194909452604092830182208b8352815282822094909455918a16825260328352808220898352909252908120558054819080612be557612be5615da1565b600082815260209020810160001990810180546001600160a01b031916905501905550505b6001600160a01b03851660008181526026602090815260408083208884528252808320878452825280832080546001600160a01b03191681556001808201859055600280830186905560038084018790556004808501889055600580860189905560068601805460ff19908116909155600787018a9055600887018a90556009909601899055898952602788528689208e8a5288528689208d8a52885286892089815594850189905592840188905590830187905582018690550180549091169055928252602881528282208783529052908120805491612cea83615cf2565b919050555060346000612cfb614e49565b81526020019081526020016000206000815480929190612d1a90615cd9565b91905055507f27da8e9ce15b7acef76d7ad1c9eeaa7a11d169ef774cc7a05d2aa1778c286e6e82604051612dbf919081546001600160a01b0316815260018201546020820152600282015460408201526003820154606082015260048201546080820152600582015460a0820152600682015460ff16151560c0820152600782015460e082015260088201546101008201526009909101546101208201526101400190565b60405180910390a15050505050565b3360009081526036602052604090205460ff16612dfd5760405162461bcd60e51b81526004016118e890615d09565b6001600160a01b03808316600090815260256020526040902090821615801590612e32575060018101546001600160a01b0316155b8015612e505750826001600160a01b0316826001600160a01b031614155b612e675760018101546001600160a01b0316612e69565b815b60019190910180546001600160a01b0319166001600160a01b039092169190911790555050565b3360009081526036602052604090205460ff16612ebf5760405162461bcd60e51b81526004016118e890615d09565b6001600160a01b03841660008181526026602090815260408083208784528252808320868452825280832093835260278252808320878452825280832086845290915281206007830154909103612f17575050612239565b60098201839055612f26614e49565b6004909101555050505050565b601a546001600160a01b03163314612f4a57600080fd5b6001600160a01b038116612f5d57600080fd5b600480546001600160a01b0319166001600160a01b038316908117909155604080518181526007918101919091526674726164696e6760c81b60608201526020810191909152600080516020615e3d83398151915290608001611381565b3360009081526036602052604090205460ff16612fea5760405162461bcd60e51b81526004016118e890615d09565b612ff583838361490d565b15611f6c576001600160a01b03831660009081526029602090815260408083208584528252808320848452909152902054602b805461303690600190615d8e565b8154811061304657613046615c4d565b90600052602060002090600d0201602b828154811061306757613067615c4d565b6000918252602082208354600d9092020180546001600160a01b0319166001600160a01b0390921691909117815560018084015490820155600280840154908201556003808401549082015560048084015490820155600580840154908201805460ff909216151560ff1990921691909117905560068084015490820155600780840154908201556008808401549082015560098084015490820155600a8084015490820155600b8084015490820155600c92830154920191909155602b8054839260299290918490811061313e5761313e615c4d565b60009182526020808320600d909202909101546001600160a01b031683528201929092526040018120602b80549192918590811061317e5761317e615c4d565b90600052602060002090600d02016001015481526020019081526020016000206000602b84815481106131b3576131b3615c4d565b600091825260208083206002600d90930201919091015483528281019390935260409182018120939093556001600160a01b0387168352602982528083208684528252808320858452909152812055602b80548061321357613213615da1565b60008281526020808220600d6000199094019384020180546001600160a01b03191681556001810183905560028101839055600381018390556004810183905560058101805460ff1916905560068101839055600781018390556008810183905560098101839055600a8101839055600b8101839055600c01829055919092556001600160a01b0386168252602a8152604080832086845290915281208054916132bc83615cf2565b919050555050505050565b3360009081526036602052604090205460ff166132f65760405162461bcd60e51b81526004016118e890615d09565b613315613306602083018361533f565b8260200135836040013561490d565b156133fa576000602b60298261332e602086018661533f565b6001600160a01b031681526020808201929092526040908101600090812086840135825283528181208683013582529092529020548154811061337357613373615c4d565b90600052602060002090600d02019050816060013581600301819055508160a00160208101906133a39190615db7565b60058201805460ff191691151591909117905560c0820135600682015560e0820135600782015561010082013560088201556101208201356009820155610140820135600a8201556133f3614e49565b600b909101555b50565b613473604051806101a0016040528060006001600160a01b0316815260200160008152602001600081526020016000815260200160008152602001600015158152602001600081526020016000815260200160008152602001600081526020016000815260200160008152602001600081525090565b61347e84848461490d565b61348757600080fd5b6001600160a01b03841660009081526029602090815260408083208684528252808320858452909152902054602b805490919081106134c8576134c8615c4d565b6000918252602091829020604080516101a081018252600d90930290910180546001600160a01b031683526001810154938301939093526002830154908201526003820154606082015260048201546080820152600582015460ff16151560a0820152600682015460c0820152600782015460e082015260088201546101008201526009820154610120820152600a820154610140820152600b820154610160820152600c9091015461018082015290509392505050565b602e602052816000526040600020818154811061359c57600080fd5b90600052602060002001600091509150505481565b600054610100900460ff16158080156135d15750600054600160ff909116105b806135eb5750303b1580156135eb575060005460ff166001145b61364e5760405162461bcd60e51b815260206004820152602e60248201527f496e697469616c697a61626c653a20636f6e747261637420697320616c72656160448201526d191e481a5b9a5d1a585b1a5e995960921b60648201526084016118e8565b6000805460ff191660011790558015613671576000805461ff0019166101001790555b600080546001600160a01b03808716620100000262010000600160b01b031990921691909117909155601a80548583166001600160a01b031991821617909155601b80549285169282169290921790915560068054909116737075cab6bcca06613e2d071bd918d1a0241379e21790556040805160a08101825273f9a4c522e327935bd1f5a338c121e14e4cc1f89881527377cd42b925e1a82f41d852d6be727cfc88fddbbc6020820152733378ad81d09de23725ee9b9270635c97ed601921918101919091527302e2c5825c1a3b69c0417706dbe1327c2af3e6c26060820152732d266a94469d05c9e06d52a4d0d9c23b157767c2608082015261377a906007906005614f99565b506003600e556005600f818155601082905561038460115560506012556032601381905560149081556040805160a0810182529283526020830191909152601990820152601e6060820152602360808201526137d991601591906150c8565b50600b6023558015612239576000805461ff0019169055604051600181527f7f26b83ff96e1f2b6a682f133852f6798a09c465da95921460cefb38474024989060200160405180910390a150505050565b3360009081526036602052604090205460ff166138595760405162461bcd60e51b81526004016118e890615d09565b61386b82600001518360200151611ad6565b604083810191825283516001600160a01b0390811660009081526026602090815283822081880180518452908252848320865184528252848320885181546001600160a01b031916951694851781558151600182015595516002870155606088015160038701556080880151600487015560a0880151600587015560c088015160068701805460ff191691151591909117905560e0880151600787015561010088015160088701556101208801516009909601959095559181526028825282812093518152929052812080549161394183615cd9565b919050555060346000613952614e49565b8152602001908152602001600020600081548092919061397190615cd9565b909155505081516001600160a01b03166000908152602860209081526040808320828601518452909152902054600103613a1157602082810180516000908152603180845260408083205487516001600160a01b039081168552603287528285208651865287528285209190915593518352908452812085518154600181018355918352939091200180546001600160a01b031916929091169190911790555b600060a0820181815283516001600160a01b031682526027602090815260408084208287018051865290835281852082880151865283529381902085518155918501516001808401919091559085015160028301819055606086015160038401556080860151600484015592516005909201805460ff191692151592909217909155915160c0850151613aa79391929190614edc565b7f58afb50c04302a400c4c6a6987d5992be730e9ea9e499ce4f610996a40f9fe19826040516117b291906154bb565b60248181548110613ae657600080fd5b6000918252602090912001546001600160a01b0316905081565b3360009081526036602052604090205460ff16613b2f5760405162461bcd60e51b81526004016118e890615d09565b8251516001600160a01b039081166000908152602e6020908152604080832080546001808201835591855283852001879055868452602c8352928190208751805182546001600160a01b031916961695909517815584830151938101939093558381015160028401556060808501516003850155608080860151600486015560a080870151600587015560c087015160068701805460ff191691151591909117905560e08701516007870155610100870151600887015561012090960151600986015592880151600a85015590870151600b840155860151600c830155850151600d82015590840151600e90910155613c26614e49565b6000838152602c60205260409020600a01558015613c7d578251516001600160a01b03166000908152602f60209081526040808320865183015184529091528120805491613c7383615cd9565b9190505550505050565b8251516001600160a01b03166000908152603060209081526040808320865183015184529091528120805491613cb283615cd9565b90915550508251516001600160a01b03166000908152602760209081526040808320865183015184528252808320865182015184529091529020600501805460ff19166001179055505050565b3360009081526036602052604090205460ff16613d2e5760405162461bcd60e51b81526004016118e890615d09565b6000828152602c6020908152604080832081516102008101835281546001600160a01b031660c08201818152600184015460e08401526002840154610100840152600384015461012084015260048401546101408401526005840154610160840152600684015460ff16151561018084015260078401546101a084015260088401546101c084015260098401546101e08401528252600a83015482860152600b83015482850152600c8301546060830152600d8301546080830152600e9092015460a0820152908452602e909252822090915b8154811015613ff15784828281548110613e1d57613e1d615c4d565b906000526020600020015403613fe9578315613e72578251516001600160a01b03166000908152602f60209081526040808320865183015184529091528120805491613e6883615cf2565b9190505550613eed565b8251516001600160a01b03166000908152603060209081526040808320865183015184529091528120805491613ea783615cf2565b90915550508251516001600160a01b03166000908152602760209081526040808320865183015184528252808320865182015184529091529020600501805460ff191690555b81548290613efd90600190615d8e565b81548110613f0d57613f0d615c4d565b9060005260206000200154828281548110613f2a57613f2a615c4d565b906000526020600020018190555081805480613f4857613f48615da1565b600082815260208082208301600019908101839055909201909255868252602c90526040812080546001600160a01b0319168155600181018290556002810182905560038101829055600481018290556005810182905560068101805460ff19169055600781018290556008810182905560098101829055600a8101829055600b8101829055600c8101829055600d8101829055600e015550613ff5915050565b600101613e01565b5050505b5050565b601a546001600160a01b0316331461401057600080fd5b6001600160a01b03811661402357600080fd5b601a80546001600160a01b0319166001600160a01b038316908117909155604080518181526003918101919091526233b7bb60e91b60608201526020810191909152600080516020615e3d83398151915290608001611381565b3360009081526036602052604081205460ff166140ac5760405162461bcd60e51b81526004016118e890615d09565b600254604051630710f2ff60e51b8152600481018790526064916402540be400916001600160a01b039091169063e21e5fe090602401602060405180830381865afa1580156140ff573d6000803e3d6000fd5b505050506040513d601f19601f820116820180604052508101906141239190615d58565b61412d9087615dd4565b6141379190615deb565b6141419190615deb565b90508161415657614153600282615deb565b90505b82156141925780601f600082825461416e9190615d2c565b9250508190555080601d60008282546141879190615d2c565b909155506141c39050565b80601e60008282546141a49190615d2c565b9250508190555080601c60008282546141bd9190615d2c565b90915550505b6141ce600282615dd4565b95945050505050565b601a546001600160a01b031633146141ee57600080fd5b600654601b54601c546040516340c10f1960e01b81526001600160a01b03938416936340c10f199361422593911691600401615d3f565b600060405180830381600087803b15801561423f57600080fd5b505af1158015614253573d6000803e3d6000fd5b5050600654601a54601e546040516340c10f1960e01b81526001600160a01b0393841695506340c10f19945061428f9390921691600401615d3f565b600060405180830381600087803b1580156142a957600080fd5b505af11580156142bd573d6000803e3d6000fd5b50505050601e54601c546142d19190615d2c565b602160008282546142e29190615d2c565b9091555050600054601a54601f5460405163a9059cbb60e01b81526001600160a01b036201000090940484169363a9059cbb9361432493911691600401615d3f565b6020604051808303816000875af1158015614343573d6000803e3d6000fd5b505050506040513d601f19601f820116820180604052508101906143679190615d71565b50600054601b54601d5460405163a9059cbb60e01b81526001600160a01b036201000090940484169363a9059cbb936143a593911691600401615d3f565b6020604051808303816000875af11580156143c4573d6000803e3d6000fd5b505050506040513d601f19601f820116820180604052508101906143e89190615d71565b506000601c819055601e819055601d819055601f55565b3360009081526036602052604090205460ff1661442e5760405162461bcd60e51b81526004016118e890615d09565b61444081600001518260200151611d7d565b604082015261444d614e49565b6101608201908152602b805460018082018355600083905284517f11c44e4875b74d31ff9fd779bf2566af7bd15b87fc985d01f5094b89e3669e4f600d90930292830180546001600160a01b0319166001600160a01b0390921691909117905560208501517f11c44e4875b74d31ff9fd779bf2566af7bd15b87fc985d01f5094b89e3669e5083015560408501517f11c44e4875b74d31ff9fd779bf2566af7bd15b87fc985d01f5094b89e3669e5183015560608501517f11c44e4875b74d31ff9fd779bf2566af7bd15b87fc985d01f5094b89e3669e5283015560808501517f11c44e4875b74d31ff9fd779bf2566af7bd15b87fc985d01f5094b89e3669e5383015560a08501517f11c44e4875b74d31ff9fd779bf2566af7bd15b87fc985d01f5094b89e3669e548301805460ff191691151591909117905560c08501517f11c44e4875b74d31ff9fd779bf2566af7bd15b87fc985d01f5094b89e3669e5583015560e08501517f11c44e4875b74d31ff9fd779bf2566af7bd15b87fc985d01f5094b89e3669e568301556101008501517f11c44e4875b74d31ff9fd779bf2566af7bd15b87fc985d01f5094b89e3669e578301556101208501517f11c44e4875b74d31ff9fd779bf2566af7bd15b87fc985d01f5094b89e3669e588301556101408501517f11c44e4875b74d31ff9fd779bf2566af7bd15b87fc985d01f5094b89e3669e5983015592517f11c44e4875b74d31ff9fd779bf2566af7bd15b87fc985d01f5094b89e3669e5a8201556101808401517f11c44e4875b74d31ff9fd779bf2566af7bd15b87fc985d01f5094b89e3669e5b90910155546146b49190615d8e565b81516001600160a01b0390811660009081526029602090815260408083208287018051855290835281842082880151855283528184209590955585519093168252602a81528282209351825292909252812080549161471283615cd9565b919050555050565b60606024805480602002602001604051908101604052809291908181526020018280548015611fa357602002820191906000526020600020905b81546001600160a01b03168152600190910190602001808311614754575050505050905090565b601a546001600160a01b0316331461479257600080fd5b6001600160a01b0381166147a557600080fd5b601b80546001600160a01b0319166001600160a01b03831690811790915560408051818152600391810191909152623232bb60e91b60608201526020810191909152600080516020615e3d83398151915290608001611381565b3360009081526036602052604090205460ff1661482e5760405162461bcd60e51b81526004016118e890615d09565b80516001600160a01b03166000908152602660209081526040808320828501518452825280832081850151845290915281206007810154909103614870575050565b606082015160038201556080820151600482015560a0820151600582015560e082015160079091015550565b601a546001600160a01b031633146148b357600080fd5b600081116148c057600080fd5b600e819055604080518181526010918101919091526f36b0bc2a3930b232b9a832b92830b4b960811b606082015260208101829052600080516020615e1d83398151915290608001611381565b602b54600090810361492157506000611bdb565b6001600160a01b03841660009081526029602090815260408083208684528252808320858452909152812054602b8054909190811061496257614962615c4d565b60009182526020909120600d9091020180549091506001600160a01b0386811691161480156149945750838160010154145b80156141ce5750600201549091149392505050565b601a546001600160a01b031633146149c057600080fd5b601481905560408051818152601291810191909152716e66745375636365737354696d656c6f636b60701b606082015260208101829052600080516020615e1d83398151915290608001611381565b60316020528160005260406000208181548110614a2b57600080fd5b6000918252602090912001546001600160a01b03169150829050565b3360009081526036602052604090205460ff16614a765760405162461bcd60e51b81526004016118e890615d09565b600354604051633104b73f60e21b8152600481018390526001600160a01b039091169063c412dcfc90602401600060405180830381600087803b158015614abc57600080fd5b505af1158015613ff1573d6000803e3d6000fd5b3360009081526036602052604090205460ff16614aff5760405162461bcd60e51b81526004016118e890615d09565b6000546040516340c10f1960e01b8152620100009091046001600160a01b0316906340c10f1990614b369085908590600401615d3f565b600060405180830381600087803b158015614b5057600080fd5b505af1158015614b64573d6000803e3d6000fd5b505050505050565b601a546001600160a01b03163314614b8357600080fd5b60008111614b9057600080fd5b601081905560408051818152601691810191909152756d617850656e64696e674d61726b65744f726465727360501b606082015260208101829052600080516020615e1d83398151915290608001611381565b614c1e6040518060c0016040528060008152602001600081526020016000815260200160008152602001600081526020016000151581525090565b506001600160a01b03929092166000908152602760209081526040808320938352928152828220938252928352819020815160c0810183528154815260018201549381019390935260028101549183019190915260038101546060830152600481015460808301526005015460ff16151560a082015290565b601a546001600160a01b03163314614cae57600080fd5b803515801590614cc2575080356020820135115b8015614cd5575060208101356040820135115b8015614ce8575060408101356060820135115b8015614cfb575060608101356080820135115b614d0457600080fd5b614d1160158260056150fb565b507fdaae5e047a75b6f38ad4e279cdefe910fc35d5a99a91b8303bd948c0a999372a816040516113819190615e0d565b601a546001600160a01b03163314614d5857600080fd5b6001600160a01b038116614d6b57600080fd5b6001600160a01b038116600081815260366020908152604091829020805460ff1916600117905590519182527fb692fa98cbec9bd705572b4c7e0927e3f7698e9fe526dcef6f40f3d4d4980ca39101611381565b601a546001600160a01b03163314614dd657600080fd5b6001600160a01b038116614de957600080fd5b600580546001600160a01b0319166001600160a01b038316908117909155604080518181526009918101919091526863616c6c6261636b7360b81b60608201526020810191909152600080516020615e3d83398151915290608001611381565b600061a4b1461480614e5d575062066eed46145b80614e6a575062066eee46145b15614ed75760646001600160a01b031663a3b1b31d6040518163ffffffff1660e01b8152600401602060405180830381865afa158015614eae573d6000803e3d6000fd5b505050506040513d601f19601f82011682018060405250810190614ed29190615d58565b905090565b504390565b600081614eea576001614eed565b60005b600086815260336020526040902060ff91909116915083614f2c5784818360038110614f1b57614f1b615c4d565b0154614f279190615d8e565b614f4b565b84818360038110614f3f57614f3f615c4d565b0154614f4b9190615d2c565b818360038110614f5d57614f5d615c4d565b01558054600182015460405188907f6da9a00899a8a4900c75b0c762b64375242e6c0fa1e5bd9e5c5b663bdbdfe13c90600090a4505050505050565b8260058101928215614fe1579160200282015b82811115614fe157825182546001600160a01b0319166001600160a01b03909116178255602090920191600190910190614fac565b50614fed929150615129565b5090565b60405180610c8001604052806064906020820280368337509192915050565b60405180610140016040528060006001600160a01b0316815260200160008152602001600081526020016000815260200160008152602001600081526020016000151581526020016000815260200160008152602001600081525090565b6040518060a001604052806005906020820280368337509192915050565b6040518060c0016040528061509f615010565b815260200160008152602001600081526020016000815260200160008152602001600081525090565b8260058101928215614fe1579160200282015b82811115614fe1578251829060ff169055916020019190600101906150db565b8260058101928215614fe1579160200282015b82811115614fe157823582559160200191906001019061510e565b5b80821115614fed576000815560010161512a565b634e487b7160e01b600052604160045260246000fd5b60405160c0810167ffffffffffffffff811182821017156151775761517761513e565b60405290565b604051610140810167ffffffffffffffff811182821017156151775761517761513e565b6040516101a0810167ffffffffffffffff811182821017156151775761517761513e565b6001600160a01b03811681146133fa57600080fd5b600060a082840312156151ec57600080fd5b82601f8301126151fb57600080fd5b60405160a0810181811067ffffffffffffffff8211171561521e5761521e61513e565b6040528060a084018581111561523357600080fd5b845b81811015615256578035615248816151c5565b835260209283019201615235565b509195945050505050565b60006020828403121561527357600080fd5b5035919050565b8060005b606481101561223957815184526020938401939091019060010161527e565b61322081016152ac828861527a565b610c8082018660005b60648110156152dd5781516001600160a01b03168352602092830192909101906001016152b5565b5050506152ee61190083018661527a565b6152fc61258083018561527a565b826132008301529695505050505050565b6000806040838503121561532057600080fd5b50508035926020909101359150565b803561533a816151c5565b919050565b60006020828403121561535157600080fd5b8135611bdb816151c5565b6000806040838503121561536f57600080fd5b823561537a816151c5565b946020939093013593505050565b634e487b7160e01b600052602160045260246000fd5b600581106153bc57634e487b7160e01b600052602160045260246000fd5b9052565b600060c08201905060018060a01b038084511683526020840151602084015280604085015116604084015250606083015160608301526080830151608083015260a0830151611b2960a084018261539e565b60008060006060848603121561542757600080fd5b8335615432816151c5565b95602085013595506040909401359392505050565b80516001600160a01b031682526020810151602083015260408101516040830152606081015160608301526080810151608083015260a081015160a083015260c081015161549960c084018215159052565b5060e08181015190830152610100808201519083015261012090810151910152565b61014081016154ca8284615447565b92915050565b80151581146133fa57600080fd5b803561533a816154d0565b6000806000606084860312156154fe57600080fd5b8335615509816151c5565b9250602084013591506040840135615520816154d0565b809150509250925092565b60a08101818360005b6005811015615553578151835260209283019290910190600101615534565b50505092915050565b6020808252825182820181905260009190848201906040850190845b8181101561559457835183529284019291840191600101615578565b50909695505050505050565b6020808252825182820181905260009190848201906040850190845b818110156155945783516001600160a01b0316835292840192918401916001016155bc565b60006101e0820190506155f5828451615447565b60208301516101408301526040830151610160830152606083015161018083015260808301516101a083015260a0909201516101c09091015290565b6000806000806080858703121561564757600080fd5b8435615652816151c5565b966020860135965060408601359560600135945092505050565b60008082840360e081121561568057600080fd5b60c081121561568e57600080fd5b50615697615154565b83356156a2816151c5565b81526020848101359082015260408401356156bc816151c5565b80604083015250606084013560608201526080840135608082015260a0840135600581106156e957600080fd5b60a08201529460c0939093013593505050565b80516001600160a01b031682526020810151602083015260408101516040830152606081015160608301526080810151608083015260a081015161574460a084018215159052565b5060c0818101519083015260e08082015190830152610100808201519083015261012080820151908301526101408082015190830152610160808201519083015261018090810151910152565b6020808252825182820181905260009190848201906040850190845b81811015615594576157c08385516156fc565b928401926101a092909201916001016157ad565b6000806000606084860312156157e957600080fd5b83356157f4816151c5565b92506020840135615804816151c5565b929592945050506040919091013590565b6001600160a01b0387811682526020820187905285166040820152606081018490526080810183905260c0810161584f60a083018461539e565b979650505050505050565b6000806040838503121561586d57600080fd5b8235615878816151c5565b91506020830135615888816151c5565b809150509250929050565b6101e081016158a28289615447565b6101408201969096526101608101949094526101808401929092526101a08301526101c090910152919050565b60006101a082840312156158e257600080fd5b50919050565b6101a081016154ca82846156fc565b60008060006060848603121561590c57600080fd5b8335615917816151c5565b92506020840135615927816151c5565b91506040840135615520816151c5565b6000610140828403121561594a57600080fd5b61595261517d565b905061595d8261532f565b81526020820135602082015260408201356040820152606082013560608201526080820135608082015260a082013560a082015261599d60c083016154de565b60c082015260e082013560e082015261010080830135818301525061012080830135818301525092915050565b6000808284036102008112156159df57600080fd5b6159e98585615937565b925060c061013f19820112156159fe57600080fd5b50615a07615154565b6101408401358152610160840135602082015261018084013560408201526101a084013560608201526101c084013560808201526101e0840135615a4a816154d0565b60a0820152919491935090915050565b6000806000838503610220811215615a7157600080fd5b6101e080821215615a8157600080fd5b615a89615154565b9150615a958787615937565b82526101408601356020830152610160860135604083015261018086013560608301526101a086013560808301526101c086013560a08301529093508401359150615ae361020085016154de565b90509250925092565b60008060408385031215615aff57600080fd5b823591506020830135615888816154d0565b60008060008060808587031215615b2757600080fd5b84359350602085013592506040850135615b40816154d0565b91506060850135615b50816154d0565b939692955090935050565b60006101a08284031215615b6e57600080fd5b615b766151a1565b615b7f8361532f565b815260208301356020820152604083013560408201526060830135606082015260808301356080820152615bb560a084016154de565b60a082015260c0838101359082015260e080840135908201526101008084013590820152610120808401359082015261014080840135908201526101608084013590820152610180928301359281019290925250919050565b60006101408284031215615c2157600080fd5b611bdb8383615937565b600060a08284031215615c3d57600080fd5b8260a0830111156158e257600080fd5b634e487b7160e01b600052603260045260246000fd5b60a08101818360005b60058110156155535781516001600160a01b0316835260209283019290910190600101615c6c565b60008060408385031215615ca757600080fd5b8251615cb2816154d0565b6020840151909250615888816154d0565b634e487b7160e01b600052601160045260246000fd5b600060018201615ceb57615ceb615cc3565b5060010190565b600081615d0157615d01615cc3565b506000190190565b60208082526009908201526868657265206865726560b81b604082015260600190565b808201808211156154ca576154ca615cc3565b6001600160a01b03929092168252602082015260400190565b600060208284031215615d6a57600080fd5b5051919050565b600060208284031215615d8357600080fd5b8151611bdb816154d0565b818103818111156154ca576154ca615cc3565b634e487b7160e01b600052603160045260246000fd5b600060208284031215615dc957600080fd5b8135611bdb816154d0565b80820281158282048414176154ca576154ca615cc3565b600082615e0857634e487b7160e01b600052601260045260246000fd5b500490565b60a0818101908383379291505056fe8cf3e35f6221b16e1670a3413180c9484bf5aa71787905909fa82a6a2662e9ab943e9d45a11aaae5d87503e3bc248665d9807856e5cf2bdb4a988bee44422781a26469706673582212202a0d0b6f3306685d8470f51edbb92c99b4f869ccba7a10b3fcd3391adebdf61e64736f6c63430008170033",
  "devdoc": {
    "events": {
      "Initialized(uint8)": {
        "details": "Triggered when the contract has been initialized or reinitialized."
      }
    },
    "kind": "dev",
    "methods": {},
    "version": 1
  },
  "userdoc": {
    "kind": "user",
    "methods": {},
    "version": 1
  },
  "storageLayout": {
    "storage": [
      {
        "astId": 6,
        "contract": "contracts/Storage.sol:Storage",
        "label": "_initialized",
        "offset": 0,
        "slot": "0",
        "type": "t_uint8"
      },
      {
        "astId": 9,
        "contract": "contracts/Storage.sol:Storage",
        "label": "_initializing",
        "offset": 1,
        "slot": "0",
        "type": "t_bool"
      },
      {
        "astId": 2295,
        "contract": "contracts/Storage.sol:Storage",
        "label": "WETH",
        "offset": 2,
        "slot": "0",
        "type": "t_contract(TokenInterface)11166"
      },
      {
        "astId": 2298,
        "contract": "contracts/Storage.sol:Storage",
        "label": "oracle",
        "offset": 0,
        "slot": "1",
        "type": "t_contract(IOracle)9755"
      },
      {
        "astId": 2307,
        "contract": "contracts/Storage.sol:Storage",
        "label": "priceAggregator",
        "offset": 0,
        "slot": "2",
        "type": "t_contract(AggregatorInterfaceV1)9159"
      },
      {
        "astId": 2310,
        "contract": "contracts/Storage.sol:Storage",
        "label": "pool",
        "offset": 0,
        "slot": "3",
        "type": "t_contract(PoolInterfaceV5)10501"
      },
      {
        "astId": 2313,
        "contract": "contracts/Storage.sol:Storage",
        "label": "trading",
        "offset": 0,
        "slot": "4",
        "type": "t_contract(PausableInterfaceV5)10493"
      },
      {
        "astId": 2316,
        "contract": "contracts/Storage.sol:Storage",
        "label": "callbacks",
        "offset": 0,
        "slot": "5",
        "type": "t_contract(PausableInterfaceV5)10493"
      },
      {
        "astId": 2322,
        "contract": "contracts/Storage.sol:Storage",
        "label": "token",
        "offset": 0,
        "slot": "6",
        "type": "t_contract(TokenInterface)11166"
      },
      {
        "astId": 2343,
        "contract": "contracts/Storage.sol:Storage",
        "label": "nfts",
        "offset": 0,
        "slot": "7",
        "type": "t_array(t_contract(NftInterfaceV5)10032)5_storage"
      },
      {
        "astId": 2345,
        "contract": "contracts/Storage.sol:Storage",
        "label": "vault",
        "offset": 0,
        "slot": "12",
        "type": "t_address"
      },
      {
        "astId": 2347,
        "contract": "contracts/Storage.sol:Storage",
        "label": "tokenWETHRouter",
        "offset": 0,
        "slot": "13",
        "type": "t_address"
      },
      {
        "astId": 2350,
        "contract": "contracts/Storage.sol:Storage",
        "label": "maxTradesPerPair",
        "offset": 0,
        "slot": "14",
        "type": "t_uint256"
      },
      {
        "astId": 2353,
        "contract": "contracts/Storage.sol:Storage",
        "label": "maxTradesPerBlock",
        "offset": 0,
        "slot": "15",
        "type": "t_uint256"
      },
      {
        "astId": 2356,
        "contract": "contracts/Storage.sol:Storage",
        "label": "maxPendingMarketOrders",
        "offset": 0,
        "slot": "16",
        "type": "t_uint256"
      },
      {
        "astId": 2359,
        "contract": "contracts/Storage.sol:Storage",
        "label": "maxGainP",
        "offset": 0,
        "slot": "17",
        "type": "t_uint256"
      },
      {
        "astId": 2362,
        "contract": "contracts/Storage.sol:Storage",
        "label": "maxSlP",
        "offset": 0,
        "slot": "18",
        "type": "t_uint256"
      },
      {
        "astId": 2365,
        "contract": "contracts/Storage.sol:Storage",
        "label": "defaultLeverageUnlocked",
        "offset": 0,
        "slot": "19",
        "type": "t_uint256"
      },
      {
        "astId": 2368,
        "contract": "contracts/Storage.sol:Storage",
        "label": "nftSuccessTimelock",
        "offset": 0,
        "slot": "20",
        "type": "t_uint256"
      },
      {
        "astId": 2378,
        "contract": "contracts/Storage.sol:Storage",
        "label": "spreadReductionsP",
        "offset": 0,
        "slot": "21",
        "type": "t_array(t_uint256)5_storage"
      },
      {
        "astId": 2380,
        "contract": "contracts/Storage.sol:Storage",
        "label": "gov",
        "offset": 0,
        "slot": "26",
        "type": "t_address"
      },
      {
        "astId": 2382,
        "contract": "contracts/Storage.sol:Storage",
        "label": "dev",
        "offset": 0,
        "slot": "27",
        "type": "t_address"
      },
      {
        "astId": 2384,
        "contract": "contracts/Storage.sol:Storage",
        "label": "devFeesToken",
        "offset": 0,
        "slot": "28",
        "type": "t_uint256"
      },
      {
        "astId": 2386,
        "contract": "contracts/Storage.sol:Storage",
        "label": "devFeesWETH",
        "offset": 0,
        "slot": "29",
        "type": "t_uint256"
      },
      {
        "astId": 2388,
        "contract": "contracts/Storage.sol:Storage",
        "label": "govFeesToken",
        "offset": 0,
        "slot": "30",
        "type": "t_uint256"
      },
      {
        "astId": 2390,
        "contract": "contracts/Storage.sol:Storage",
        "label": "govFeesWETH",
        "offset": 0,
        "slot": "31",
        "type": "t_uint256"
      },
      {
        "astId": 2392,
        "contract": "contracts/Storage.sol:Storage",
        "label": "tokensBurned",
        "offset": 0,
        "slot": "32",
        "type": "t_uint256"
      },
      {
        "astId": 2394,
        "contract": "contracts/Storage.sol:Storage",
        "label": "tokensMinted",
        "offset": 0,
        "slot": "33",
        "type": "t_uint256"
      },
      {
        "astId": 2396,
        "contract": "contracts/Storage.sol:Storage",
        "label": "nftRewards",
        "offset": 0,
        "slot": "34",
        "type": "t_uint256"
      },
      {
        "astId": 2399,
        "contract": "contracts/Storage.sol:Storage",
        "label": "pairs",
        "offset": 0,
        "slot": "35",
        "type": "t_uint256"
      },
      {
        "astId": 2409,
        "contract": "contracts/Storage.sol:Storage",
        "label": "supportedTokens",
        "offset": 0,
        "slot": "36",
        "type": "t_array(t_address)dyn_storage"
      },
      {
        "astId": 2414,
        "contract": "contracts/Storage.sol:Storage",
        "label": "traders",
        "offset": 0,
        "slot": "37",
        "type": "t_mapping(t_address,t_struct(Trader)2406_storage)"
      },
      {
        "astId": 2423,
        "contract": "contracts/Storage.sol:Storage",
        "label": "openTrades",
        "offset": 0,
        "slot": "38",
        "type": "t_mapping(t_address,t_mapping(t_uint256,t_mapping(t_uint256,t_struct(Trade)10581_storage)))"
      },
      {
        "astId": 2432,
        "contract": "contracts/Storage.sol:Storage",
        "label": "openTradesInfo",
        "offset": 0,
        "slot": "39",
        "type": "t_mapping(t_address,t_mapping(t_uint256,t_mapping(t_uint256,t_struct(TradeInfo)10594_storage)))"
      },
      {
        "astId": 2438,
        "contract": "contracts/Storage.sol:Storage",
        "label": "openTradesCount",
        "offset": 0,
        "slot": "40",
        "type": "t_mapping(t_address,t_mapping(t_uint256,t_uint256))"
      },
      {
        "astId": 2446,
        "contract": "contracts/Storage.sol:Storage",
        "label": "openLimitOrderIds",
        "offset": 0,
        "slot": "41",
        "type": "t_mapping(t_address,t_mapping(t_uint256,t_mapping(t_uint256,t_uint256)))"
      },
      {
        "astId": 2452,
        "contract": "contracts/Storage.sol:Storage",
        "label": "openLimitOrdersCount",
        "offset": 0,
        "slot": "42",
        "type": "t_mapping(t_address,t_mapping(t_uint256,t_uint256))"
      },
      {
        "astId": 2456,
        "contract": "contracts/Storage.sol:Storage",
        "label": "openLimitOrders",
        "offset": 0,
        "slot": "43",
        "type": "t_array(t_struct(OpenLimitOrder)10621_storage)dyn_storage"
      },
      {
        "astId": 2461,
        "contract": "contracts/Storage.sol:Storage",
        "label": "reqID_pendingMarketOrder",
        "offset": 0,
        "slot": "44",
        "type": "t_mapping(t_uint256,t_struct(PendingMarketOrder)10635_storage)"
      },
      {
        "astId": 2466,
        "contract": "contracts/Storage.sol:Storage",
        "label": "reqID_pendingNftOrder",
        "offset": 0,
        "slot": "45",
        "type": "t_mapping(t_uint256,t_struct(PendingNftOrder)10649_storage)"
      },
      {
        "astId": 2471,
        "contract": "contracts/Storage.sol:Storage",
        "label": "pendingOrderIds",
        "offset": 0,
        "slot": "46",
        "type": "t_mapping(t_address,t_array(t_uint256)dyn_storage)"
      },
      {
        "astId": 2477,
        "contract": "contracts/Storage.sol:Storage",
        "label": "pendingMarketOpenCount",
        "offset": 0,
        "slot": "47",
        "type": "t_mapping(t_address,t_mapping(t_uint256,t_uint256))"
      },
      {
        "astId": 2483,
        "contract": "contracts/Storage.sol:Storage",
        "label": "pendingMarketCloseCount",
        "offset": 0,
        "slot": "48",
        "type": "t_mapping(t_address,t_mapping(t_uint256,t_uint256))"
      },
      {
        "astId": 2488,
        "contract": "contracts/Storage.sol:Storage",
        "label": "pairTraders",
        "offset": 0,
        "slot": "49",
        "type": "t_mapping(t_uint256,t_array(t_address)dyn_storage)"
      },
      {
        "astId": 2494,
        "contract": "contracts/Storage.sol:Storage",
        "label": "pairTradersId",
        "offset": 0,
        "slot": "50",
        "type": "t_mapping(t_address,t_mapping(t_uint256,t_uint256))"
      },
      {
        "astId": 2500,
        "contract": "contracts/Storage.sol:Storage",
        "label": "openInterestWETH",
        "offset": 0,
        "slot": "51",
        "type": "t_mapping(t_uint256,t_array(t_uint256)3_storage)"
      },
      {
        "astId": 2504,
        "contract": "contracts/Storage.sol:Storage",
        "label": "tradesPerBlock",
        "offset": 0,
        "slot": "52",
        "type": "t_mapping(t_uint256,t_uint256)"
      },
      {
        "astId": 2508,
        "contract": "contracts/Storage.sol:Storage",
        "label": "nftLastSuccess",
        "offset": 0,
        "slot": "53",
        "type": "t_mapping(t_uint256,t_uint256)"
      },
      {
        "astId": 2512,
        "contract": "contracts/Storage.sol:Storage",
        "label": "isTradingContract",
        "offset": 0,
        "slot": "54",
        "type": "t_mapping(t_address,t_bool)"
      }
    ],
    "types": {
      "t_address": {
        "encoding": "inplace",
        "label": "address",
        "numberOfBytes": "20"
      },
      "t_array(t_address)dyn_storage": {
        "base": "t_address",
        "encoding": "dynamic_array",
        "label": "address[]",
        "numberOfBytes": "32"
      },
      "t_array(t_contract(NftInterfaceV5)10032)5_storage": {
        "base": "t_contract(NftInterfaceV5)10032",
        "encoding": "inplace",
        "label": "contract NftInterfaceV5[5]",
        "numberOfBytes": "160"
      },
      "t_array(t_struct(OpenLimitOrder)10621_storage)dyn_storage": {
        "base": "t_struct(OpenLimitOrder)10621_storage",
        "encoding": "dynamic_array",
        "label": "struct StorageInterface.OpenLimitOrder[]",
        "numberOfBytes": "32"
      },
      "t_array(t_uint256)3_storage": {
        "base": "t_uint256",
        "encoding": "inplace",
        "label": "uint256[3]",
        "numberOfBytes": "96"
      },
      "t_array(t_uint256)5_storage": {
        "base": "t_uint256",
        "encoding": "inplace",
        "label": "uint256[5]",
        "numberOfBytes": "160"
      },
      "t_array(t_uint256)dyn_storage": {
        "base": "t_uint256",
        "encoding": "dynamic_array",
        "label": "uint256[]",
        "numberOfBytes": "32"
      },
      "t_bool": {
        "encoding": "inplace",
        "label": "bool",
        "numberOfBytes": "1"
      },
      "t_contract(AggregatorInterfaceV1)9159": {
        "encoding": "inplace",
        "label": "contract AggregatorInterfaceV1",
        "numberOfBytes": "20"
      },
      "t_contract(IOracle)9755": {
        "encoding": "inplace",
        "label": "contract IOracle",
        "numberOfBytes": "20"
      },
      "t_contract(NftInterfaceV5)10032": {
        "encoding": "inplace",
        "label": "contract NftInterfaceV5",
        "numberOfBytes": "20"
      },
      "t_contract(PausableInterfaceV5)10493": {
        "encoding": "inplace",
        "label": "contract PausableInterfaceV5",
        "numberOfBytes": "20"
      },
      "t_contract(PoolInterfaceV5)10501": {
        "encoding": "inplace",
        "label": "contract PoolInterfaceV5",
        "numberOfBytes": "20"
      },
      "t_contract(TokenInterface)11166": {
        "encoding": "inplace",
        "label": "contract TokenInterface",
        "numberOfBytes": "20"
      },
      "t_enum(LimitOrder)10560": {
        "encoding": "inplace",
        "label": "enum StorageInterface.LimitOrder",
        "numberOfBytes": "1"
      },
      "t_mapping(t_address,t_array(t_uint256)dyn_storage)": {
        "encoding": "mapping",
        "key": "t_address",
        "label": "mapping(address => uint256[])",
        "numberOfBytes": "32",
        "value": "t_array(t_uint256)dyn_storage"
      },
      "t_mapping(t_address,t_bool)": {
        "encoding": "mapping",
        "key": "t_address",
        "label": "mapping(address => bool)",
        "numberOfBytes": "32",
        "value": "t_bool"
      },
      "t_mapping(t_address,t_mapping(t_uint256,t_mapping(t_uint256,t_struct(Trade)10581_storage)))": {
        "encoding": "mapping",
        "key": "t_address",
        "label": "mapping(address => mapping(uint256 => mapping(uint256 => struct StorageInterface.Trade)))",
        "numberOfBytes": "32",
        "value": "t_mapping(t_uint256,t_mapping(t_uint256,t_struct(Trade)10581_storage))"
      },
      "t_mapping(t_address,t_mapping(t_uint256,t_mapping(t_uint256,t_struct(TradeInfo)10594_storage)))": {
        "encoding": "mapping",
        "key": "t_address",
        "label": "mapping(address => mapping(uint256 => mapping(uint256 => struct StorageInterface.TradeInfo)))",
        "numberOfBytes": "32",
        "value": "t_mapping(t_uint256,t_mapping(t_uint256,t_struct(TradeInfo)10594_storage))"
      },
      "t_mapping(t_address,t_mapping(t_uint256,t_mapping(t_uint256,t_uint256)))": {
        "encoding": "mapping",
        "key": "t_address",
        "label": "mapping(address => mapping(uint256 => mapping(uint256 => uint256)))",
        "numberOfBytes": "32",
        "value": "t_mapping(t_uint256,t_mapping(t_uint256,t_uint256))"
      },
      "t_mapping(t_address,t_mapping(t_uint256,t_uint256))": {
        "encoding": "mapping",
        "key": "t_address",
        "label": "mapping(address => mapping(uint256 => uint256))",
        "numberOfBytes": "32",
        "value": "t_mapping(t_uint256,t_uint256)"
      },
      "t_mapping(t_address,t_struct(Trader)2406_storage)": {
        "encoding": "mapping",
        "key": "t_address",
        "label": "mapping(address => struct Storage.Trader)",
        "numberOfBytes": "32",
        "value": "t_struct(Trader)2406_storage"
      },
      "t_mapping(t_uint256,t_array(t_address)dyn_storage)": {
        "encoding": "mapping",
        "key": "t_uint256",
        "label": "mapping(uint256 => address[])",
        "numberOfBytes": "32",
        "value": "t_array(t_address)dyn_storage"
      },
      "t_mapping(t_uint256,t_array(t_uint256)3_storage)": {
        "encoding": "mapping",
        "key": "t_uint256",
        "label": "mapping(uint256 => uint256[3])",
        "numberOfBytes": "32",
        "value": "t_array(t_uint256)3_storage"
      },
      "t_mapping(t_uint256,t_mapping(t_uint256,t_struct(Trade)10581_storage))": {
        "encoding": "mapping",
        "key": "t_uint256",
        "label": "mapping(uint256 => mapping(uint256 => struct StorageInterface.Trade))",
        "numberOfBytes": "32",
        "value": "t_mapping(t_uint256,t_struct(Trade)10581_storage)"
      },
      "t_mapping(t_uint256,t_mapping(t_uint256,t_struct(TradeInfo)10594_storage))": {
        "encoding": "mapping",
        "key": "t_uint256",
        "label": "mapping(uint256 => mapping(uint256 => struct StorageInterface.TradeInfo))",
        "numberOfBytes": "32",
        "value": "t_mapping(t_uint256,t_struct(TradeInfo)10594_storage)"
      },
      "t_mapping(t_uint256,t_mapping(t_uint256,t_uint256))": {
        "encoding": "mapping",
        "key": "t_uint256",
        "label": "mapping(uint256 => mapping(uint256 => uint256))",
        "numberOfBytes": "32",
        "value": "t_mapping(t_uint256,t_uint256)"
      },
      "t_mapping(t_uint256,t_struct(PendingMarketOrder)10635_storage)": {
        "encoding": "mapping",
        "key": "t_uint256",
        "label": "mapping(uint256 => struct StorageInterface.PendingMarketOrder)",
        "numberOfBytes": "32",
        "value": "t_struct(PendingMarketOrder)10635_storage"
      },
      "t_mapping(t_uint256,t_struct(PendingNftOrder)10649_storage)": {
        "encoding": "mapping",
        "key": "t_uint256",
        "label": "mapping(uint256 => struct StorageInterface.PendingNftOrder)",
        "numberOfBytes": "32",
        "value": "t_struct(PendingNftOrder)10649_storage"
      },
      "t_mapping(t_uint256,t_struct(Trade)10581_storage)": {
        "encoding": "mapping",
        "key": "t_uint256",
        "label": "mapping(uint256 => struct StorageInterface.Trade)",
        "numberOfBytes": "32",
        "value": "t_struct(Trade)10581_storage"
      },
      "t_mapping(t_uint256,t_struct(TradeInfo)10594_storage)": {
        "encoding": "mapping",
        "key": "t_uint256",
        "label": "mapping(uint256 => struct StorageInterface.TradeInfo)",
        "numberOfBytes": "32",
        "value": "t_struct(TradeInfo)10594_storage"
      },
      "t_mapping(t_uint256,t_uint256)": {
        "encoding": "mapping",
        "key": "t_uint256",
        "label": "mapping(uint256 => uint256)",
        "numberOfBytes": "32",
        "value": "t_uint256"
      },
      "t_struct(OpenLimitOrder)10621_storage": {
        "encoding": "inplace",
        "label": "struct StorageInterface.OpenLimitOrder",
        "members": [
          {
            "astId": 10596,
            "contract": "contracts/Storage.sol:Storage",
            "label": "trader",
            "offset": 0,
            "slot": "0",
            "type": "t_address"
          },
          {
            "astId": 10598,
            "contract": "contracts/Storage.sol:Storage",
            "label": "pairIndex",
            "offset": 0,
            "slot": "1",
            "type": "t_uint256"
          },
          {
            "astId": 10600,
            "contract": "contracts/Storage.sol:Storage",
            "label": "index",
            "offset": 0,
            "slot": "2",
            "type": "t_uint256"
          },
          {
            "astId": 10602,
            "contract": "contracts/Storage.sol:Storage",
            "label": "positionSize",
            "offset": 0,
            "slot": "3",
            "type": "t_uint256"
          },
          {
            "astId": 10604,
            "contract": "contracts/Storage.sol:Storage",
            "label": "spreadReductionP",
            "offset": 0,
            "slot": "4",
            "type": "t_uint256"
          },
          {
            "astId": 10606,
            "contract": "contracts/Storage.sol:Storage",
            "label": "buy",
            "offset": 0,
            "slot": "5",
            "type": "t_bool"
          },
          {
            "astId": 10608,
            "contract": "contracts/Storage.sol:Storage",
            "label": "leverage",
            "offset": 0,
            "slot": "6",
            "type": "t_uint256"
          },
          {
            "astId": 10610,
            "contract": "contracts/Storage.sol:Storage",
            "label": "tp",
            "offset": 0,
            "slot": "7",
            "type": "t_uint256"
          },
          {
            "astId": 10612,
            "contract": "contracts/Storage.sol:Storage",
            "label": "sl",
            "offset": 0,
            "slot": "8",
            "type": "t_uint256"
          },
          {
            "astId": 10614,
            "contract": "contracts/Storage.sol:Storage",
            "label": "minPrice",
            "offset": 0,
            "slot": "9",
            "type": "t_uint256"
          },
          {
            "astId": 10616,
            "contract": "contracts/Storage.sol:Storage",
            "label": "maxPrice",
            "offset": 0,
            "slot": "10",
            "type": "t_uint256"
          },
          {
            "astId": 10618,
            "contract": "contracts/Storage.sol:Storage",
            "label": "block",
            "offset": 0,
            "slot": "11",
            "type": "t_uint256"
          },
          {
            "astId": 10620,
            "contract": "contracts/Storage.sol:Storage",
            "label": "tokenId",
            "offset": 0,
            "slot": "12",
            "type": "t_uint256"
          }
        ],
        "numberOfBytes": "416"
      },
      "t_struct(PendingMarketOrder)10635_storage": {
        "encoding": "inplace",
        "label": "struct StorageInterface.PendingMarketOrder",
        "members": [
          {
            "astId": 10624,
            "contract": "contracts/Storage.sol:Storage",
            "label": "trade",
            "offset": 0,
            "slot": "0",
            "type": "t_struct(Trade)10581_storage"
          },
          {
            "astId": 10626,
            "contract": "contracts/Storage.sol:Storage",
            "label": "block",
            "offset": 0,
            "slot": "10",
            "type": "t_uint256"
          },
          {
            "astId": 10628,
            "contract": "contracts/Storage.sol:Storage",
            "label": "wantedPrice",
            "offset": 0,
            "slot": "11",
            "type": "t_uint256"
          },
          {
            "astId": 10630,
            "contract": "contracts/Storage.sol:Storage",
            "label": "slippageP",
            "offset": 0,
            "slot": "12",
            "type": "t_uint256"
          },
          {
            "astId": 10632,
            "contract": "contracts/Storage.sol:Storage",
            "label": "spreadReductionP",
            "offset": 0,
            "slot": "13",
            "type": "t_uint256"
          },
          {
            "astId": 10634,
            "contract": "contracts/Storage.sol:Storage",
            "label": "tokenId",
            "offset": 0,
            "slot": "14",
            "type": "t_uint256"
          }
        ],
        "numberOfBytes": "480"
      },
      "t_struct(PendingNftOrder)10649_storage": {
        "encoding": "inplace",
        "label": "struct StorageInterface.PendingNftOrder",
        "members": [
          {
            "astId": 10637,
            "contract": "contracts/Storage.sol:Storage",
            "label": "nftHolder",
            "offset": 0,
            "slot": "0",
            "type": "t_address"
          },
          {
            "astId": 10639,
            "contract": "contracts/Storage.sol:Storage",
            "label": "nftId",
            "offset": 0,
            "slot": "1",
            "type": "t_uint256"
          },
          {
            "astId": 10641,
            "contract": "contracts/Storage.sol:Storage",
            "label": "trader",
            "offset": 0,
            "slot": "2",
            "type": "t_address"
          },
          {
            "astId": 10643,
            "contract": "contracts/Storage.sol:Storage",
            "label": "pairIndex",
            "offset": 0,
            "slot": "3",
            "type": "t_uint256"
          },
          {
            "astId": 10645,
            "contract": "contracts/Storage.sol:Storage",
            "label": "index",
            "offset": 0,
            "slot": "4",
            "type": "t_uint256"
          },
          {
            "astId": 10648,
            "contract": "contracts/Storage.sol:Storage",
            "label": "orderType",
            "offset": 0,
            "slot": "5",
            "type": "t_enum(LimitOrder)10560"
          }
        ],
        "numberOfBytes": "192"
      },
      "t_struct(Trade)10581_storage": {
        "encoding": "inplace",
        "label": "struct StorageInterface.Trade",
        "members": [
          {
            "astId": 10562,
            "contract": "contracts/Storage.sol:Storage",
            "label": "trader",
            "offset": 0,
            "slot": "0",
            "type": "t_address"
          },
          {
            "astId": 10564,
            "contract": "contracts/Storage.sol:Storage",
            "label": "pairIndex",
            "offset": 0,
            "slot": "1",
            "type": "t_uint256"
          },
          {
            "astId": 10566,
            "contract": "contracts/Storage.sol:Storage",
            "label": "index",
            "offset": 0,
            "slot": "2",
            "type": "t_uint256"
          },
          {
            "astId": 10568,
            "contract": "contracts/Storage.sol:Storage",
            "label": "initialPosToken",
            "offset": 0,
            "slot": "3",
            "type": "t_uint256"
          },
          {
            "astId": 10570,
            "contract": "contracts/Storage.sol:Storage",
            "label": "positionSizeWETH",
            "offset": 0,
            "slot": "4",
            "type": "t_uint256"
          },
          {
            "astId": 10572,
            "contract": "contracts/Storage.sol:Storage",
            "label": "openPrice",
            "offset": 0,
            "slot": "5",
            "type": "t_uint256"
          },
          {
            "astId": 10574,
            "contract": "contracts/Storage.sol:Storage",
            "label": "buy",
            "offset": 0,
            "slot": "6",
            "type": "t_bool"
          },
          {
            "astId": 10576,
            "contract": "contracts/Storage.sol:Storage",
            "label": "leverage",
            "offset": 0,
            "slot": "7",
            "type": "t_uint256"
          },
          {
            "astId": 10578,
            "contract": "contracts/Storage.sol:Storage",
            "label": "tp",
            "offset": 0,
            "slot": "8",
            "type": "t_uint256"
          },
          {
            "astId": 10580,
            "contract": "contracts/Storage.sol:Storage",
            "label": "sl",
            "offset": 0,
            "slot": "9",
            "type": "t_uint256"
          }
        ],
        "numberOfBytes": "320"
      },
      "t_struct(TradeInfo)10594_storage": {
        "encoding": "inplace",
        "label": "struct StorageInterface.TradeInfo",
        "members": [
          {
            "astId": 10583,
            "contract": "contracts/Storage.sol:Storage",
            "label": "tokenId",
            "offset": 0,
            "slot": "0",
            "type": "t_uint256"
          },
          {
            "astId": 10585,
            "contract": "contracts/Storage.sol:Storage",
            "label": "tokenPriceWETH",
            "offset": 0,
            "slot": "1",
            "type": "t_uint256"
          },
          {
            "astId": 10587,
            "contract": "contracts/Storage.sol:Storage",
            "label": "openInterestWETH",
            "offset": 0,
            "slot": "2",
            "type": "t_uint256"
          },
          {
            "astId": 10589,
            "contract": "contracts/Storage.sol:Storage",
            "label": "tpLastUpdated",
            "offset": 0,
            "slot": "3",
            "type": "t_uint256"
          },
          {
            "astId": 10591,
            "contract": "contracts/Storage.sol:Storage",
            "label": "slLastUpdated",
            "offset": 0,
            "slot": "4",
            "type": "t_uint256"
          },
          {
            "astId": 10593,
            "contract": "contracts/Storage.sol:Storage",
            "label": "beingMarketClosed",
            "offset": 0,
            "slot": "5",
            "type": "t_bool"
          }
        ],
        "numberOfBytes": "192"
      },
      "t_struct(Trader)2406_storage": {
        "encoding": "inplace",
        "label": "struct Storage.Trader",
        "members": [
          {
            "astId": 2401,
            "contract": "contracts/Storage.sol:Storage",
            "label": "leverageUnlocked",
            "offset": 0,
            "slot": "0",
            "type": "t_uint256"
          },
          {
            "astId": 2403,
            "contract": "contracts/Storage.sol:Storage",
            "label": "referral",
            "offset": 0,
            "slot": "1",
            "type": "t_address"
          },
          {
            "astId": 2405,
            "contract": "contracts/Storage.sol:Storage",
            "label": "referralRewardsTotal",
            "offset": 0,
            "slot": "2",
            "type": "t_uint256"
          }
        ],
        "numberOfBytes": "96"
      },
      "t_uint256": {
        "encoding": "inplace",
        "label": "uint256",
        "numberOfBytes": "32"
      },
      "t_uint8": {
        "encoding": "inplace",
        "label": "uint8",
        "numberOfBytes": "1"
      }
    }
  }
}