{
  "address": "0xD0b677c673Dc6648651119D5e66828FA026741b0",
  "abi": [
    {
      "anonymous": false,
      "inputs": [
        {
          "indexed": true,
          "internalType": "uint256",
          "name": "orderId",
          "type": "uint256"
        },
        {
          "components": [
            {
              "components": [
                {
                  "internalType": "address",
                  "name": "trader",
                  "type": "address"
                },
                {
                  "internalType": "uint256",
                  "name": "pairIndex",
                  "type": "uint256"
                },
                {
                  "internalType": "uint256",
                  "name": "index",
                  "type": "uint256"
                },
                {
                  "internalType": "uint256",
                  "name": "initialPosToken",
                  "type": "uint256"
                },
                {
                  "internalType": "uint256",
                  "name": "positionSizeWETH",
                  "type": "uint256"
                },
                {
                  "internalType": "uint256",
                  "name": "openPrice",
                  "type": "uint256"
                },
                {
                  "internalType": "bool",
                  "name": "buy",
                  "type": "bool"
                },
                {
                  "internalType": "uint256",
                  "name": "leverage",
                  "type": "uint256"
                },
                {
                  "internalType": "uint256",
                  "name": "tp",
                  "type": "uint256"
                },
                {
                  "internalType": "uint256",
                  "name": "sl",
                  "type": "uint256"
                }
              ],
              "internalType": "struct StorageInterface.Trade",
              "name": "trade",
              "type": "tuple"
            },
            {
              "internalType": "uint256",
              "name": "block",
              "type": "uint256"
            },
            {
              "internalType": "uint256",
              "name": "wantedPrice",
              "type": "uint256"
            },
            {
              "internalType": "uint256",
              "name": "slippageP",
              "type": "uint256"
            },
            {
              "internalType": "uint256",
              "name": "spreadReductionP",
              "type": "uint256"
            },
            {
              "internalType": "uint256",
              "name": "tokenId",
              "type": "uint256"
            }
          ],
          "indexed": false,
          "internalType": "struct StorageInterface.PendingMarketOrder",
          "name": "order",
          "type": "tuple"
        }
      ],
      "name": "ChainlinkCallbackTimeout",
      "type": "event"
    },
    {
      "anonymous": false,
      "inputs": [
        {
          "indexed": true,
          "internalType": "address",
          "name": "trader",
          "type": "address"
        },
        {
          "indexed": true,
          "internalType": "uint256",
          "name": "pairIndex",
          "type": "uint256"
        },
        {
          "indexed": false,
          "internalType": "uint256",
          "name": "index",
          "type": "uint256"
        }
      ],
      "name": "CouldNotCloseTrade",
      "type": "event"
    },
    {
      "anonymous": false,
      "inputs": [
        {
          "indexed": false,
          "internalType": "bool",
          "name": "done",
          "type": "bool"
        }
      ],
      "name": "Done",
      "type": "event"
    },
    {
      "anonymous": false,
      "inputs": [
        {
          "indexed": false,
          "internalType": "uint8",
          "name": "version",
          "type": "uint8"
        }
      ],
      "name": "Initialized",
      "type": "event"
    },
    {
      "anonymous": false,
      "inputs": [
        {
          "indexed": true,
          "internalType": "uint256",
          "name": "orderId",
          "type": "uint256"
        },
        {
          "indexed": true,
          "internalType": "address",
          "name": "trader",
          "type": "address"
        },
        {
          "indexed": true,
          "internalType": "uint256",
          "name": "pairIndex",
          "type": "uint256"
        },
        {
          "indexed": false,
          "internalType": "bool",
          "name": "open",
          "type": "bool"
        }
      ],
      "name": "MarketOrderInitiated",
      "type": "event"
    },
    {
      "anonymous": false,
      "inputs": [
        {
          "indexed": false,
          "internalType": "int256",
          "name": "value",
          "type": "int256"
        }
      ],
      "name": "MinLeveragedPosWETHSet",
      "type": "event"
    },
    {
      "anonymous": false,
      "inputs": [
        {
          "indexed": false,
          "internalType": "uint256",
          "name": "orderId",
          "type": "uint256"
        },
        {
          "indexed": true,
          "internalType": "address",
          "name": "nftHolder",
          "type": "address"
        },
        {
          "indexed": true,
          "internalType": "address",
          "name": "trader",
          "type": "address"
        },
        {
          "indexed": true,
          "internalType": "uint256",
          "name": "pairIndex",
          "type": "uint256"
        }
      ],
      "name": "NftOrderInitiated",
      "type": "event"
    },
    {
      "anonymous": false,
      "inputs": [
        {
          "indexed": true,
          "internalType": "address",
          "name": "nftHolder",
          "type": "address"
        },
        {
          "indexed": true,
          "internalType": "address",
          "name": "trader",
          "type": "address"
        },
        {
          "indexed": true,
          "internalType": "uint256",
          "name": "pairIndex",
          "type": "uint256"
        }
      ],
      "name": "NftOrderSameBlock",
      "type": "event"
    },
    {
      "anonymous": false,
      "inputs": [
        {
          "indexed": false,
          "internalType": "string",
          "name": "name",
          "type": "string"
        },
        {
          "indexed": false,
          "internalType": "uint256",
          "name": "value",
          "type": "uint256"
        }
      ],
      "name": "NumberUpdated",
      "type": "event"
    },
    {
      "anonymous": false,
      "inputs": [
        {
          "indexed": true,
          "internalType": "address",
          "name": "trader",
          "type": "address"
        },
        {
          "indexed": true,
          "internalType": "uint256",
          "name": "pairIndex",
          "type": "uint256"
        },
        {
          "indexed": false,
          "internalType": "uint256",
          "name": "index",
          "type": "uint256"
        }
      ],
      "name": "OpenLimitCanceled",
      "type": "event"
    },
    {
      "anonymous": false,
      "inputs": [
        {
          "indexed": true,
          "internalType": "address",
          "name": "trader",
          "type": "address"
        },
        {
          "indexed": true,
          "internalType": "uint256",
          "name": "pairIndex",
          "type": "uint256"
        },
        {
          "indexed": false,
          "internalType": "uint256",
          "name": "index",
          "type": "uint256"
        }
      ],
      "name": "OpenLimitPlaced",
      "type": "event"
    },
    {
      "anonymous": false,
      "inputs": [
        {
          "indexed": true,
          "internalType": "address",
          "name": "trader",
          "type": "address"
        },
        {
          "indexed": true,
          "internalType": "uint256",
          "name": "pairIndex",
          "type": "uint256"
        },
        {
          "indexed": false,
          "internalType": "uint256",
          "name": "index",
          "type": "uint256"
        },
        {
          "indexed": false,
          "internalType": "uint256",
          "name": "newPrice",
          "type": "uint256"
        },
        {
          "indexed": false,
          "internalType": "uint256",
          "name": "newTp",
          "type": "uint256"
        },
        {
          "indexed": false,
          "internalType": "uint256",
          "name": "newSl",
          "type": "uint256"
        },
        {
          "indexed": false,
          "internalType": "uint256",
          "name": "maxSlippageP",
          "type": "uint256"
        }
      ],
      "name": "OpenLimitUpdated",
      "type": "event"
    },
    {
      "anonymous": false,
      "inputs": [
        {
          "indexed": false,
          "internalType": "bool",
          "name": "paused",
          "type": "bool"
        }
      ],
      "name": "Paused",
      "type": "event"
    },
    {
      "anonymous": false,
      "inputs": [
        {
          "indexed": true,
          "internalType": "address",
          "name": "trader",
          "type": "address"
        },
        {
          "indexed": true,
          "internalType": "uint256",
          "name": "pairIndex",
          "type": "uint256"
        },
        {
          "indexed": false,
          "internalType": "uint256",
          "name": "index",
          "type": "uint256"
        },
        {
          "indexed": false,
          "internalType": "uint256",
          "name": "newSl",
          "type": "uint256"
        }
      ],
      "name": "SlUpdated",
      "type": "event"
    },
    {
      "anonymous": false,
      "inputs": [
        {
          "indexed": true,
          "internalType": "address",
          "name": "trader",
          "type": "address"
        },
        {
          "indexed": true,
          "internalType": "uint256",
          "name": "pairIndex",
          "type": "uint256"
        },
        {
          "indexed": false,
          "internalType": "uint256",
          "name": "index",
          "type": "uint256"
        },
        {
          "indexed": false,
          "internalType": "uint256",
          "name": "newTp",
          "type": "uint256"
        }
      ],
      "name": "TpUpdated",
      "type": "event"
    },
    {
      "inputs": [],
      "name": "_msgSender",
      "outputs": [
        {
          "internalType": "address",
          "name": "",
          "type": "address"
        }
      ],
      "stateMutability": "view",
      "type": "function"
    },
    {
      "inputs": [],
      "name": "borrowingFees",
      "outputs": [
        {
          "internalType": "contract BorrowingFeesInterface",
          "name": "",
          "type": "address"
        }
      ],
      "stateMutability": "view",
      "type": "function"
    },
    {
      "inputs": [],
      "name": "callbacks",
      "outputs": [
        {
          "internalType": "contract CallbacksInterface",
          "name": "",
          "type": "address"
        }
      ],
      "stateMutability": "view",
      "type": "function"
    },
    {
      "inputs": [
        {
          "internalType": "uint256",
          "name": "pairIndex",
          "type": "uint256"
        },
        {
          "internalType": "uint256",
          "name": "index",
          "type": "uint256"
        }
      ],
      "name": "closeTradeMarket",
      "outputs": [],
      "stateMutability": "nonpayable",
      "type": "function"
    },
    {
      "inputs": [
        {
          "internalType": "address",
          "name": "trader",
          "type": "address"
        },
        {
          "internalType": "bytes",
          "name": "call_data",
          "type": "bytes"
        }
      ],
      "name": "delegatedAction",
      "outputs": [
        {
          "internalType": "bytes",
          "name": "",
          "type": "bytes"
        }
      ],
      "stateMutability": "nonpayable",
      "type": "function"
    },
    {
      "inputs": [
        {
          "internalType": "address",
          "name": "",
          "type": "address"
        }
      ],
      "name": "delegations",
      "outputs": [
        {
          "internalType": "address",
          "name": "",
          "type": "address"
        }
      ],
      "stateMutability": "view",
      "type": "function"
    },
    {
      "inputs": [],
      "name": "done",
      "outputs": [],
      "stateMutability": "nonpayable",
      "type": "function"
    },
    {
      "inputs": [
        {
          "internalType": "uint256",
          "name": "_orderType",
          "type": "uint256"
        },
        {
          "internalType": "address",
          "name": "trader",
          "type": "address"
        },
        {
          "internalType": "uint256",
          "name": "pairIndex",
          "type": "uint256"
        },
        {
          "internalType": "uint256",
          "name": "index",
          "type": "uint256"
        },
        {
          "internalType": "uint256",
          "name": "nftId",
          "type": "uint256"
        },
        {
          "internalType": "uint256",
          "name": "nftType",
          "type": "uint256"
        }
      ],
      "name": "executeLiquidation",
      "outputs": [],
      "stateMutability": "nonpayable",
      "type": "function"
    },
    {
      "inputs": [
        {
          "internalType": "uint256[100]",
          "name": "_orderTypes",
          "type": "uint256[100]"
        },
        {
          "internalType": "address[100]",
          "name": "traders",
          "type": "address[100]"
        },
        {
          "internalType": "uint256[100]",
          "name": "pairIndexs",
          "type": "uint256[100]"
        },
        {
          "internalType": "uint256[100]",
          "name": "indexs",
          "type": "uint256[100]"
        },
        {
          "internalType": "uint256",
          "name": "index",
          "type": "uint256"
        }
      ],
      "name": "executeLiquidations",
      "outputs": [],
      "stateMutability": "nonpayable",
      "type": "function"
    },
    {
      "inputs": [
        {
          "internalType": "contract StorageInterface",
          "name": "_storageT",
          "type": "address"
        },
        {
          "internalType": "contract NftRewardsInterfaceV6_3_1",
          "name": "_nftRewards",
          "type": "address"
        },
        {
          "internalType": "contract PairInfosInterface",
          "name": "_pairInfos",
          "type": "address"
        },
        {
          "internalType": "contract ReferralsInterface",
          "name": "_referrals",
          "type": "address"
        },
        {
          "internalType": "contract BorrowingFeesInterface",
          "name": "_borrowingFees",
          "type": "address"
        },
        {
          "internalType": "contract CallbacksInterface",
          "name": "_callbacks",
          "type": "address"
        },
        {
          "internalType": "uint256",
          "name": "_maxPosWETH",
          "type": "uint256"
        },
        {
          "internalType": "uint256",
          "name": "_marketOrdersTimeout",
          "type": "uint256"
        },
        {
          "internalType": "int256",
          "name": "_minLeveragedPosWETH",
          "type": "int256"
        }
      ],
      "name": "initialize",
      "outputs": [],
      "stateMutability": "nonpayable",
      "type": "function"
    },
    {
      "inputs": [],
      "name": "isDone",
      "outputs": [
        {
          "internalType": "bool",
          "name": "",
          "type": "bool"
        }
      ],
      "stateMutability": "view",
      "type": "function"
    },
    {
      "inputs": [],
      "name": "isPaused",
      "outputs": [
        {
          "internalType": "bool",
          "name": "",
          "type": "bool"
        }
      ],
      "stateMutability": "view",
      "type": "function"
    },
    {
      "inputs": [
        {
          "internalType": "address",
          "name": "trader",
          "type": "address"
        },
        {
          "internalType": "uint256",
          "name": "pairIndex",
          "type": "uint256"
        },
        {
          "internalType": "uint256",
          "name": "index",
          "type": "uint256"
        }
      ],
      "name": "isTradeLiquidatable",
      "outputs": [
        {
          "internalType": "bool",
          "name": "",
          "type": "bool"
        }
      ],
      "stateMutability": "view",
      "type": "function"
    },
    {
      "inputs": [
        {
          "components": [
            {
              "internalType": "address",
              "name": "trader",
              "type": "address"
            },
            {
              "internalType": "uint256",
              "name": "pairIndex",
              "type": "uint256"
            },
            {
              "internalType": "uint256",
              "name": "index",
              "type": "uint256"
            },
            {
              "internalType": "uint256",
              "name": "initialPosToken",
              "type": "uint256"
            },
            {
              "internalType": "uint256",
              "name": "positionSizeWETH",
              "type": "uint256"
            },
            {
              "internalType": "uint256",
              "name": "openPrice",
              "type": "uint256"
            },
            {
              "internalType": "bool",
              "name": "buy",
              "type": "bool"
            },
            {
              "internalType": "uint256",
              "name": "leverage",
              "type": "uint256"
            },
            {
              "internalType": "uint256",
              "name": "tp",
              "type": "uint256"
            },
            {
              "internalType": "uint256",
              "name": "sl",
              "type": "uint256"
            }
          ],
          "internalType": "struct StorageInterface.Trade",
          "name": "t",
          "type": "tuple"
        }
      ],
      "name": "isTradeLiquidatablePure",
      "outputs": [
        {
          "internalType": "bool",
          "name": "",
          "type": "bool"
        },
        {
          "internalType": "bool",
          "name": "",
          "type": "bool"
        }
      ],
      "stateMutability": "view",
      "type": "function"
    },
    {
      "inputs": [
        {
          "internalType": "address",
          "name": "trader",
          "type": "address"
        },
        {
          "internalType": "uint256",
          "name": "pairIndex",
          "type": "uint256"
        },
        {
          "internalType": "uint256",
          "name": "index",
          "type": "uint256"
        }
      ],
      "name": "isTradeParLiquidatable",
      "outputs": [
        {
          "internalType": "bool",
          "name": "",
          "type": "bool"
        }
      ],
      "stateMutability": "view",
      "type": "function"
    },
    {
      "inputs": [
        {
          "components": [
            {
              "internalType": "address",
              "name": "trader",
              "type": "address"
            },
            {
              "internalType": "uint256",
              "name": "pairIndex",
              "type": "uint256"
            },
            {
              "internalType": "uint256",
              "name": "index",
              "type": "uint256"
            },
            {
              "internalType": "uint256",
              "name": "initialPosToken",
              "type": "uint256"
            },
            {
              "internalType": "uint256",
              "name": "positionSizeWETH",
              "type": "uint256"
            },
            {
              "internalType": "uint256",
              "name": "openPrice",
              "type": "uint256"
            },
            {
              "internalType": "bool",
              "name": "buy",
              "type": "bool"
            },
            {
              "internalType": "uint256",
              "name": "leverage",
              "type": "uint256"
            },
            {
              "internalType": "uint256",
              "name": "tp",
              "type": "uint256"
            },
            {
              "internalType": "uint256",
              "name": "sl",
              "type": "uint256"
            }
          ],
          "internalType": "struct StorageInterface.Trade",
          "name": "t",
          "type": "tuple"
        }
      ],
      "name": "isTradeParLiquidatablePure",
      "outputs": [
        {
          "internalType": "bool",
          "name": "",
          "type": "bool"
        },
        {
          "internalType": "bool",
          "name": "",
          "type": "bool"
        }
      ],
      "stateMutability": "view",
      "type": "function"
    },
    {
      "inputs": [],
      "name": "marketOrdersTimeout",
      "outputs": [
        {
          "internalType": "uint256",
          "name": "",
          "type": "uint256"
        }
      ],
      "stateMutability": "view",
      "type": "function"
    },
    {
      "inputs": [],
      "name": "maxPosWETH",
      "outputs": [
        {
          "internalType": "uint256",
          "name": "",
          "type": "uint256"
        }
      ],
      "stateMutability": "view",
      "type": "function"
    },
    {
      "inputs": [],
      "name": "minLeveragedPosWETH",
      "outputs": [
        {
          "internalType": "int256",
          "name": "",
          "type": "int256"
        }
      ],
      "stateMutability": "view",
      "type": "function"
    },
    {
      "inputs": [],
      "name": "nftRewards",
      "outputs": [
        {
          "internalType": "contract NftRewardsInterfaceV6_3_1",
          "name": "",
          "type": "address"
        }
      ],
      "stateMutability": "view",
      "type": "function"
    },
    {
      "inputs": [
        {
          "components": [
            {
              "internalType": "address",
              "name": "trader",
              "type": "address"
            },
            {
              "internalType": "uint256",
              "name": "pairIndex",
              "type": "uint256"
            },
            {
              "internalType": "uint256",
              "name": "index",
              "type": "uint256"
            },
            {
              "internalType": "uint256",
              "name": "initialPosToken",
              "type": "uint256"
            },
            {
              "internalType": "uint256",
              "name": "positionSizeWETH",
              "type": "uint256"
            },
            {
              "internalType": "uint256",
              "name": "openPrice",
              "type": "uint256"
            },
            {
              "internalType": "bool",
              "name": "buy",
              "type": "bool"
            },
            {
              "internalType": "uint256",
              "name": "leverage",
              "type": "uint256"
            },
            {
              "internalType": "uint256",
              "name": "tp",
              "type": "uint256"
            },
            {
              "internalType": "uint256",
              "name": "sl",
              "type": "uint256"
            }
          ],
          "internalType": "struct StorageInterface.Trade",
          "name": "t",
          "type": "tuple"
        },
        {
          "internalType": "enum NftRewardsInterfaceV6_3_1.OpenLimitOrderType",
          "name": "orderType",
          "type": "uint8"
        },
        {
          "internalType": "uint256",
          "name": "spreadReductionId",
          "type": "uint256"
        },
        {
          "internalType": "uint256",
          "name": "slippageP",
          "type": "uint256"
        }
      ],
      "name": "openTrade",
      "outputs": [],
      "stateMutability": "nonpayable",
      "type": "function"
    },
    {
      "inputs": [],
      "name": "pairInfos",
      "outputs": [
        {
          "internalType": "contract PairInfosInterface",
          "name": "",
          "type": "address"
        }
      ],
      "stateMutability": "view",
      "type": "function"
    },
    {
      "inputs": [],
      "name": "pause",
      "outputs": [],
      "stateMutability": "nonpayable",
      "type": "function"
    },
    {
      "inputs": [],
      "name": "referrals",
      "outputs": [
        {
          "internalType": "contract ReferralsInterface",
          "name": "",
          "type": "address"
        }
      ],
      "stateMutability": "view",
      "type": "function"
    },
    {
      "inputs": [],
      "name": "removeDelegate",
      "outputs": [],
      "stateMutability": "nonpayable",
      "type": "function"
    },
    {
      "inputs": [
        {
          "internalType": "address",
          "name": "delegate",
          "type": "address"
        }
      ],
      "name": "setDelegate",
      "outputs": [],
      "stateMutability": "nonpayable",
      "type": "function"
    },
    {
      "inputs": [
        {
          "internalType": "uint256",
          "name": "value",
          "type": "uint256"
        }
      ],
      "name": "setMarketOrdersTimeout",
      "outputs": [],
      "stateMutability": "nonpayable",
      "type": "function"
    },
    {
      "inputs": [
        {
          "internalType": "uint256",
          "name": "value",
          "type": "uint256"
        }
      ],
      "name": "setMaxPosWETH",
      "outputs": [],
      "stateMutability": "nonpayable",
      "type": "function"
    },
    {
      "inputs": [
        {
          "internalType": "int256",
          "name": "value",
          "type": "int256"
        }
      ],
      "name": "setMinLeveragedPosWETH",
      "outputs": [],
      "stateMutability": "nonpayable",
      "type": "function"
    },
    {
      "inputs": [],
      "name": "storageT",
      "outputs": [
        {
          "internalType": "contract StorageInterface",
          "name": "",
          "type": "address"
        }
      ],
      "stateMutability": "view",
      "type": "function"
    },
    {
      "inputs": [
        {
          "internalType": "uint256",
          "name": "pairIndex",
          "type": "uint256"
        },
        {
          "internalType": "uint256",
          "name": "index",
          "type": "uint256"
        },
        {
          "internalType": "uint256",
          "name": "newSl",
          "type": "uint256"
        }
      ],
      "name": "updateSl",
      "outputs": [],
      "stateMutability": "nonpayable",
      "type": "function"
    },
    {
      "inputs": [
        {
          "internalType": "uint256",
          "name": "pairIndex",
          "type": "uint256"
        },
        {
          "internalType": "uint256",
          "name": "index",
          "type": "uint256"
        },
        {
          "internalType": "uint256",
          "name": "newTp",
          "type": "uint256"
        }
      ],
      "name": "updateTp",
      "outputs": [],
      "stateMutability": "nonpayable",
      "type": "function"
    }
  ],
  "transactionHash": "0xb66655f258a1e22ffc39f704a26c371f4fab3e4478fddebd91feee5f3d46c81f",
  "args": [],
  "numDeployments": 1,
  "solcInputHash": "5af97cf568aedef2eac0d2ad801f242e",
  "bytecode": "0x608060405234801561001057600080fd5b5061441e806100206000396000f3fe608060405234801561001057600080fd5b50600436106101af5760003560e01c8063870f91d9116100ef578063b354169911610092578063b3541699146103a6578063b81bfa05146103b9578063be73fb99146103cc578063bffe3486146103df578063ca5eb5e114610408578063d3dc75391461041b578063d8defd151461042e578063ff22dcac1461044157600080fd5b8063870f91d9146103175780638f0622271461033a5780639a10cc321461034c5780639a54adba1461036c578063a2a3c0cb14610375578063ae8421e114610388578063b187bd2614610390578063b1dfd5301461039d57600080fd5b806336fb8b151161015757806336fb8b151461026057806340b6159714610282578063410c0b7c146102ac578063531cc965146102c35780635ad9f993146102d657806368cd5088146102e95780636b5bd974146102fc5780638456cb591461030f57600080fd5b8062b12783146101b4578063090efc3b146101e4578063119df25f146101f95780631346b0ff1461020157806316fff0741461021457806318967f2214610227578063192a48f51461023a5780632c1e4e551461024d575b600080fd5b6007546101c7906001600160a01b031681565b6040516001600160a01b0390911681526020015b60405180910390f35b6101f76101f236600461378a565b610454565b005b6101c76106b6565b6004546101c7906001600160a01b031681565b6002546101c7906001600160a01b031681565b6101f761023536600461382b565b6106de565b6101f7610248366004613854565b610742565b6101f761025b36600461382b565b610f95565b6101f733600090815260208190526040902080546001600160a01b0319169055565b6102956102903660046139b4565b611016565b6040805192151583529015156020830152016101db565b6102b560095481565b6040519081526020016101db565b6006546101c7906001600160a01b031681565b6003546101c7906001600160a01b031681565b6101f76102f73660046139d1565b611319565b61029561030a3660046139b4565b611f3d565b6101f761217e565b61032a610325366004613a1e565b6121d4565b60405190151581526020016101db565b600b5461032a90610100900460ff1681565b61035f61035a366004613a53565b612377565b6040516101db9190613b28565b6102b5600a5481565b6101f7610383366004613b3b565b6124b2565b6101f7612a00565b600b5461032a9060ff1681565b6102b560085481565b6101f76103b4366004613bae565b612a60565b6101f76103c736600461382b565b612aea565b6101f76103da366004613c58565b612b74565b6101c76103ed366004613c84565b6000602081905290815260409020546001600160a01b031681565b6101f7610416366004613c84565b612e85565b6005546101c7906001600160a01b031681565b6101f761043c366004613c58565b612ef1565b61032a61044f366004613a1e565b61315b565b600154600160a81b900460ff161580801561047a575060018054600160a01b900460ff16105b8061049a5750303b15801561049a575060018054600160a01b900460ff16145b6105025760405162461bcd60e51b815260206004820152602e60248201527f496e697469616c697a61626c653a20636f6e747261637420697320616c72656160448201526d191e481a5b9a5d1a585b1a5e995960921b60648201526084015b60405180910390fd5b6001805460ff60a01b1916600160a01b179055801561052f576001805460ff60a81b1916600160a81b1790555b6001600160a01b038a161580159061054f57506001600160a01b03891615155b801561056357506001600160a01b03881615155b801561057757506001600160a01b03871615155b801561058b57506001600160a01b03861615155b801561059f57506001600160a01b03851615155b80156105ab5750600084115b80156105b75750600083115b6105f25760405162461bcd60e51b815260206004820152600c60248201526b57524f4e475f504152414d5360a01b60448201526064016104f9565b600280546001600160a01b03199081166001600160a01b038d8116919091179092556003805482168c84161790556004805482168b84161790556005805482168a84161790556006805482168984161790556008869055600985905560078054909116918716919091179055600a82905580156106aa576001805460ff60a81b191681556040519081527f7f26b83ff96e1f2b6a682f133852f6798a09c465da95921460cefb38474024989060200160405180910390a15b50505050505050505050565b6001546000906001600160a01b03166106ce57503390565b506001546001600160a01b031690565b6106e661320f565b600081136107065760405162461bcd60e51b81526004016104f990613ca1565b600a8190556040518181527f54f5f1c2e7079ad1a56091e2a362b06bb1e1964a79d18c91673ca14864f62b85906020015b60405180910390a150565b61074a6132d3565b600086600481111561075e5761075e613cc2565b9050600061076a6106b6565b90506000600383600481111561078257610782613cc2565b149050600081610793576000610796565b60015b90506107f960405180610140016040528060006001600160a01b0316815260200160008152602001600081526020016000815260200160008152602001600081526020016000151581526020016000815260200160008152602001600081525090565b82156108535760405162461bcd60e51b815260206004820152602360248201527f4f70656e204c696d6974206f7264657273206e6f7420737570706f72746564206044820152621e595d60ea1b60648201526084016104f9565b6002546040516302a0a1cb60e41b81526001600160a01b0390911690632a0a1cb090610887908d908d908d90600401613cd8565b61014060405180830381865afa1580156108a5573d6000803e3d6000fd5b505050506040513d601f19601f820116820180604052508101906108c99190613d0f565b905060008160e00151116108ef5760405162461bcd60e51b81526004016104f990613da1565b600285600481111561090357610903613cc2565b03610a37576000600660009054906101000a90046001600160a01b03166001600160a01b031663706faf3a6040518060e0016040528085600001516001600160a01b0316815260200185602001518152602001856040015181526020018560a0015181526020018560c0015115158152602001856080015181526020018560e001518152506040518263ffffffff1660e01b81526004016109a49190613dc3565b602060405180830381865afa1580156109c1573d6000803e3d6000fd5b505050506040513d601f19601f820116820180604052508101906109e59190613e17565b905081610120015160001480610a1557508160c00151610a0c578161012001518110610a15565b81610120015181115b610a315760405162461bcd60e51b81526004016104f990613e30565b50610d40565b6004856004811115610a4b57610a4b613cc2565b03610c8c576000600660009054906101000a90046001600160a01b03166001600160a01b03166364d372c66040518060e0016040528085600001516001600160a01b0316815260200185602001518152602001856040015181526020018560a0015181526020018560c0015115158152602001856080015181526020018560e001518152506040518263ffffffff1660e01b8152600401610aec9190613dc3565b602060405180830381865afa158015610b09573d6000803e3d6000fd5b505050506040513d601f19601f82011682018060405250810190610b2d9190613e17565b905081610120015160001480610b5d57508160c00151610b54578161012001518110610b5d565b81610120015181115b610b795760405162461bcd60e51b81526004016104f990613e30565b6007548251602084015160408086015190516304ec194160e21b81526000946001600160a01b0316936313b0650493610bb9939192909190600401613cd8565b602060405180830381865afa158015610bd6573d6000803e3d6000fd5b505050506040513d601f19601f82011682018060405250810190610bfa9190613e17565b90506000818460800151610c0e9190613e66565b9050600a548460e0015182610c239190613e8e565b1215610c845760405162461bcd60e51b815260206004820152602a60248201527f706f736974696f6e20746f6f20736d616c6c20666f72207061727469616c206c60448201526934b8bab4b230ba34b7b760b11b60648201526084016104f9565b505050610d40565b6001856004811115610ca057610ca0613cc2565b141580610cb257506000816101200151115b610ce65760405162461bcd60e51b81526020600482015260056024820152641393d7d4d360da1b60448201526064016104f9565b6000856004811115610cfa57610cfa613cc2565b141580610d0c57506000816101000151115b610d405760405162461bcd60e51b815260206004820152600560248201526404e4f5f54560dc1b60448201526064016104f9565b600083610d5e578160e001518260800151610d5b9190613ebe565b90505b6000610d6f858d8d8d888c88613314565b509050610da86040805160c08101825260008082526020820181905291810182905260608101829052608081018290529060a082015290565b6001600160a01b038088168252602082018b90528d166040820152606081018c9052608081018b905260a08101886004811115610de757610de7613cc2565b90816004811115610dfa57610dfa613cc2565b90525060025460405163205fe86960e21b81526001600160a01b039091169063817fa1a490610e2f9084908690600401613f2d565b600060405180830381600087803b158015610e4957600080fd5b505af1158015610e5d573d6000803e3d6000fd5b50505050600260009054906101000a90046001600160a01b03166001600160a01b0316633078fff56040518163ffffffff1660e01b8152600401602060405180830381865afa158015610eb4573d6000803e3d6000fd5b505050506040513d601f19601f82011682018060405250810190610ed89190613f48565b6001600160a01b03166339fe9fd283836040518363ffffffff1660e01b8152600401610f05929190613f65565b600060405180830381600087803b158015610f1f57600080fd5b505af1158015610f33573d6000803e3d6000fd5b505050508b8d6001600160a01b0316886001600160a01b03167f6d87222414c5850caf1d385b1e080a771b505825b082a2162d0f4af5ffc86c0085604051610f7d91815260200190565b60405180910390a45050505050505050505050505050565b610f9d61320f565b60008111610fbd5760405162461bcd60e51b81526004016104f990613ca1565b600881905560408051818152600a91810191909152690dac2f0a0dee6ae8aa8960b31b6060820152602081018290527f8cf3e35f6221b16e1670a3413180c9484bf5aa71787905909fa82a6a2662e9ab90608001610737565b6000808260e0015160000361103057506000928392509050565b6000600660009054906101000a90046001600160a01b03166001600160a01b03166364d372c66040518060e0016040528087600001516001600160a01b0316815260200187602001518152602001876040015181526020018760a0015181526020018760c0015115158152602001876080015181526020018760e001518152506040518263ffffffff1660e01b81526004016110cc9190613dc3565b602060405180830381865afa1580156110e9573d6000803e3d6000fd5b505050506040513d601f19601f8201168201806040525081019061110d9190613e17565b6007548551602087015160408089015190516304ec194160e21b81529495506000946001600160a01b03909416936313b06504936111519390929091600401613cd8565b602060405180830381865afa15801561116e573d6000803e3d6000fd5b505050506040513d601f19601f820116820180604052508101906111929190613e17565b905060008186608001516111a69190613e66565b90506000866101200151600014806111d857508660c001516111cf5786610120015184106111d8565b86610120015184115b9050600a548760e00151836111ed9190613e8e565b121561120157600097909650945050505050565b600080600260009054906101000a90046001600160a01b03166001600160a01b0316637dc0d1d06040518163ffffffff1660e01b8152600401602060405180830381865afa158015611257573d6000803e3d6000fd5b505050506040513d601f19601f8201168201806040525081019061127b9190613f48565b6001600160a01b031663e75722308a602001516040518263ffffffff1660e01b81526004016112ac91815260200190565b6040805180830381865afa1580156112c8573d6000803e3d6000fd5b505050506040513d601f19601f820116820180604052508101906112ec9190613f79565b9150915060008960c001516113045786831015611309565b868311155b9a93995092975050505050505050565b611321613568565b6113296132d3565b600b5460ff16156113655760405162461bcd60e51b815260206004820152600660248201526514105554d15160d21b60448201526064016104f9565b600019818560a001516113789190613ebe565b106113b05760405162461bcd60e51b81526020600482015260086024820152674f564552464c4f5760c01b60448201526064016104f9565b60008460a00151116113f15760405162461bcd60e51b815260206004820152600a60248201526950524943455f5a45524f60b01b60448201526064016104f9565b60025460408051633078fff560e01b815290516000926001600160a01b031691633078fff59160048083019260209291908290030181865afa15801561143b573d6000803e3d6000fd5b505050506040513d601f19601f8201168201806040525081019061145f9190613f48565b90506000816001600160a01b03166335b03c176040518163ffffffff1660e01b8152600401602060405180830381865afa1580156114a1573d6000803e3d6000fd5b505050506040513d601f19601f820116820180604052508101906114c59190613f48565b905060006114d16106b6565b9050600260009054906101000a90046001600160a01b03166001600160a01b031663f65d9dbe6040518163ffffffff1660e01b8152600401602060405180830381865afa158015611526573d6000803e3d6000fd5b505050506040513d601f19601f8201168201806040525081019061154a9190613e17565b6002546020890151604051634bf3ccad60e11b81526001600160a01b03909216916397e7995a9161158091869190600401613f9d565b602060405180830381865afa15801561159d573d6000803e3d6000fd5b505050506040513d601f19601f820116820180604052508101906115c19190613e17565b60025460208a0151604051639c8912f160e01b81526001600160a01b0390921691639c8912f1916115f791879190600401613f9d565b602060405180830381865afa158015611614573d6000803e3d6000fd5b505050506040513d601f19601f820116820180604052508101906116389190613e17565b60025460208b01516040516307218dad60e21b81526001600160a01b0390921691631c8636b49161166e91889190600401613f9d565b602060405180830381865afa15801561168b573d6000803e3d6000fd5b505050506040513d601f19601f820116820180604052508101906116af9190613e17565b6116b99190613fb6565b6116c39190613fb6565b106117065760405162461bcd60e51b815260206004820152601360248201527226a0ac2faa2920a222a9afa822a92fa820a4a960691b60448201526064016104f9565b600260009054906101000a90046001600160a01b03166001600160a01b0316638049fde76040518163ffffffff1660e01b8152600401602060405180830381865afa158015611759573d6000803e3d6000fd5b505050506040513d601f19601f8201168201806040525081019061177d9190613e17565b60025460405163f7b3c6fd60e01b81526001600160a01b0384811660048301529091169063f7b3c6fd90602401602060405180830381865afa1580156117c7573d6000803e3d6000fd5b505050506040513d601f19601f820116820180604052508101906117eb9190613e17565b106118085760405162461bcd60e51b81526004016104f990613fc9565b6008548760800151111561184e5760405162461bcd60e51b815260206004820152600d60248201526c41424f56455f4d41585f504f5360981b60448201526064016104f9565b602087015160405163601e3b6b60e11b815260048101919091526001600160a01b0383169063c03c76d690602401602060405180830381865afa158015611899573d6000803e3d6000fd5b505050506040513d601f19601f820116820180604052508101906118bd9190613e17565b8760e0015188608001516118d19190613ebe565b101561190f5760405162461bcd60e51b815260206004820152600d60248201526c42454c4f575f4d494e5f504f5360981b60448201526064016104f9565b60008760e001511180156119955750602087015160405163059a992d60e41b815260048101919091526001600160a01b038316906359a992d090602401602060405180830381865afa158015611969573d6000803e3d6000fd5b505050506040513d601f19601f8201168201806040525081019061198d9190613e17565b8760e0015110155b80156119b257506119aa828860200151613574565b8760e0015111155b6119f35760405162461bcd60e51b815260206004820152601260248201527113115591549051d157d25390d3d4949150d560721b60448201526064016104f9565b6101008701511580611a2757508660c00151611a1a578660a0015187610100015110611a27565b8660a00151876101000151115b611a5e5760405162461bcd60e51b8152602060048201526008602482015267057524f4e475f54560c41b60448201526064016104f9565b6101208701511580611a9257508660c00151611a85578660a0015187610120015111611a92565b8660a00151876101200151105b611ac95760405162461bcd60e51b815260206004820152600860248201526715d493d391d7d4d360c21b60448201526064016104f9565b600454602088015160c089015160e08a015160808b01516000946001600160a01b031693637ea95f3293869391929091611b0291613ebe565b6040516001600160e01b031960e087901b168152600481019490945260248401929092521515604483015260648201526084016040805180830381865afa158015611b51573d6000803e3d6000fd5b505050506040513d601f19601f82011682018060405250810190611b759190613f79565b509050600460009054906101000a90046001600160a01b03166001600160a01b03166380f6cfc26040518163ffffffff1660e01b8152600401602060405180830381865afa158015611bcb573d6000803e3d6000fd5b505050506040513d601f19601f82011682018060405250810190611bef9190613e17565b60e0890151611bfe9083613ebe565b1115611c445760405162461bcd60e51b81526020600482015260156024820152740a0a492868abe929aa08286a8bea89e9ebe90928e9605b1b60448201526064016104f9565b6002546080890151604051638a238ae560e01b81526001600160a01b03858116600483015290921660248301819052604483019190915290638a238ae590606401600060405180830381600087803b158015611c9f57600080fd5b505af1158015611cb3573d6000803e3d6000fd5b5060009250611cc0915050565b876002811115611cd257611cd2613cc2565b03611f33576000846001600160a01b0316636938c05d8a6020015160008c60e001518d60800151611d039190613ebe565b611d0b6136df565b6040518563ffffffff1660e01b8152600401611d2a9493929190614009565b6020604051808303816000875af1158015611d49573d6000803e3d6000fd5b505050506040513d601f19601f82011682018060405250810190611d6d9190613e17565b9050600260009054906101000a90046001600160a01b03166001600160a01b0316633078fff56040518163ffffffff1660e01b8152600401602060405180830381865afa158015611dc2573d6000803e3d6000fd5b505050506040513d601f19601f82011682018060405250810190611de69190613f48565b6001600160a01b0316638f93b660826040518060c00160405280604051806101400160405280896001600160a01b031681526020018f60200151815260200160008152602001600081526020018f608001518152602001600081526020018f60c00151151581526020018f60e0015181526020018f610100015181526020018f61012001518152508152602001600081526020018d60a0015181526020018a81526020016000815260200160008152506040518363ffffffff1660e01b8152600401611eb392919061402f565b600060405180830381600087803b158015611ecd57600080fd5b505af1158015611ee1573d6000803e3d6000fd5b505050508860200151836001600160a01b0316827f3e544118c04e3bb18b669475695cd270ba0e41fb13177483f01c14222de62a866001604051611f29911515815260200190565b60405180910390a4505b5050505050505050565b6000808260e00151600003611f5757506000928392509050565b6000600660009054906101000a90046001600160a01b03166001600160a01b031663706faf3a6040518060e0016040528087600001516001600160a01b0316815260200187602001518152602001876040015181526020018760a0015181526020018760c0015115158152602001876080015181526020018760e001518152506040518263ffffffff1660e01b8152600401611ff39190613dc3565b602060405180830381865afa158015612010573d6000803e3d6000fd5b505050506040513d601f19601f820116820180604052508101906120349190613e17565b9050600080600260009054906101000a90046001600160a01b03166001600160a01b0316637dc0d1d06040518163ffffffff1660e01b8152600401602060405180830381865afa15801561208c573d6000803e3d6000fd5b505050506040513d601f19601f820116820180604052508101906120b09190613f48565b6001600160a01b031663e757223087602001516040518263ffffffff1660e01b81526004016120e191815260200190565b6040805180830381865afa1580156120fd573d6000803e3d6000fd5b505050506040513d601f19601f820116820180604052508101906121219190613f79565b9150915060008661012001516000148061215557508660c0015161214c578661012001518410612155565b86610120015184115b905060008760c0015161216b5784841015612170565b848411155b989197509095505050505050565b61218661320f565b600b805460ff8082161560ff1990921682179092556040519116151581527f0e2fb031ee032dc02d8011dc50b816eb450cf856abd8261680dac74f72165bd2906020015b60405180910390a1565b6002546040516302a0a1cb60e41b815260009182916001600160a01b0390911690632a0a1cb09061220d90889088908890600401613cd8565b61014060405180830381865afa15801561222b573d6000803e3d6000fd5b505050506040513d601f19601f8201168201806040525081019061224f9190613d0f565b9050600080600260009054906101000a90046001600160a01b03166001600160a01b0316637dc0d1d06040518163ffffffff1660e01b8152600401602060405180830381865afa1580156122a7573d6000803e3d6000fd5b505050506040513d601f19601f820116820180604052508101906122cb9190613f48565b6001600160a01b031663e7572230876040518263ffffffff1660e01b81526004016122f891815260200190565b6040805180830381865afa158015612314573d6000803e3d6000fd5b505050506040513d601f19601f820116820180604052508101906123389190613f79565b9150915060008061234885611016565b91509150806123695760405162461bcd60e51b81526004016104f990613e30565b5093505050505b9392505050565b6001600160a01b038381166000908152602081905260409020546060911633146123db5760405162461bcd60e51b81526020600482015260156024820152741111531151d0551157d393d517d054141493d59151605a1b60448201526064016104f9565b600180546001600160a01b0319166001600160a01b0386161790556040516000908190309061240d90879087906140f2565b600060405180830381855af49150503d8060008114612448576040519150601f19603f3d011682016040523d82523d6000602084013e61244d565b606091505b5091509150816124995760448151101561246657600080fd5b600481019050808060200190518101906124809190614102565b60405162461bcd60e51b81526004016104f99190613b28565b600180546001600160a01b031916905595945050505050565b6124ba613568565b6124c26132d3565b60006124cc6106b6565b6002546040516302a0a1cb60e41b81529192506000916001600160a01b0390911690632a0a1cb09061250690859088908890600401613cd8565b61014060405180830381865afa158015612524573d6000803e3d6000fd5b505050506040513d601f19601f820116820180604052508101906125489190613d0f565b600254604051637728fb1b60e11b81529192506000916001600160a01b039091169063ee51f6369061258290869089908990600401613cd8565b60c060405180830381865afa15801561259f573d6000803e3d6000fd5b505050506040513d601f19601f820116820180604052508101906125c391906141af565b9050600260009054906101000a90046001600160a01b03166001600160a01b0316638049fde76040518163ffffffff1660e01b8152600401602060405180830381865afa158015612618573d6000803e3d6000fd5b505050506040513d601f19601f8201168201806040525081019061263c9190613e17565b60025460405163f7b3c6fd60e01b81526001600160a01b0386811660048301529091169063f7b3c6fd90602401602060405180830381865afa158015612686573d6000803e3d6000fd5b505050506040513d601f19601f820116820180604052508101906126aa9190613e17565b106126c75760405162461bcd60e51b81526004016104f990613fc9565b8060a00151156127105760405162461bcd60e51b81526020600482015260146024820152731053149150511657d091525391d7d0d313d4d15160621b60448201526064016104f9565b60008260e00151116127345760405162461bcd60e51b81526004016104f990613da1565b60025460408051633078fff560e01b815290516000926001600160a01b031691633078fff59160048083019260209291908290030181865afa15801561277e573d6000803e3d6000fd5b505050506040513d601f19601f820116820180604052508101906127a29190613f48565b6001600160a01b0316636938c05d8760016402540be4008760e00151876020015189606001516127d29190613ebe565b6127dc9190613ebe565b6127e6919061422f565b6127ee6136df565b6040518563ffffffff1660e01b815260040161280d9493929190614009565b6020604051808303816000875af115801561282c573d6000803e3d6000fd5b505050506040513d601f19601f820116820180604052508101906128509190613e17565b9050600260009054906101000a90046001600160a01b03166001600160a01b0316633078fff56040518163ffffffff1660e01b8152600401602060405180830381865afa1580156128a5573d6000803e3d6000fd5b505050506040513d601f19601f820116820180604052508101906128c99190613f48565b6001600160a01b0316638f93b660826040518060c001604052806040518061014001604052808a6001600160a01b031681526020018c81526020018b81526020016000815260200160008152602001600081526020016000151581526020016000815260200160008152602001600081525081526020016000815260200160008152602001600081526020016000815260200160008152506040518363ffffffff1660e01b815260040161297e92919061402f565b600060405180830381600087803b15801561299857600080fd5b505af11580156129ac573d6000803e3d6000fd5b5050505085846001600160a01b0316827f3e544118c04e3bb18b669475695cd270ba0e41fb13177483f01c14222de62a8660006040516129f0911515815260200190565b60405180910390a4505050505050565b612a0861320f565b600b805460ff610100808304821615810261ff001990931692909217928390556040517fc3a6f986261de9467c2838c6df8ef74f9107855159205600c0bc7a14cdfd3888936121ca9390049091161515815260200190565b612a686132d3565b60005b81811015612ae257612ada868260648110612a8857612a88614251565b6020020151868360648110612a9f57612a9f614251565b6020020151868460648110612ab657612ab6614251565b6020020151868560648110612acd57612acd614251565b6020020151600180610742565b600101612a6b565b505050505050565b612af261320f565b60008111612b125760405162461bcd60e51b81526004016104f990613ca1565b600981905560408051818152601391810191909152721b585c9ad95d13dc99195c9cd51a5b595bdd5d606a1b6060820152602081018290527f8cf3e35f6221b16e1670a3413180c9484bf5aa71787905909fa82a6a2662e9ab90608001610737565b612b7c613568565b612b846132d3565b6000612b8e6106b6565b6002546040516302a0a1cb60e41b81529192506000916001600160a01b0390911690632a0a1cb090612bc890859089908990600401613cd8565b61014060405180830381865afa158015612be6573d6000803e3d6000fd5b505050506040513d601f19601f82011682018060405250810190612c0a9190613d0f565b905060008160e0015111612c305760405162461bcd60e51b81526004016104f990613da1565b60008160e001516064604b8460a00151612c4a9190613ebe565b612c54919061422f565b612c5e919061422f565b9050831580612c9d57508160c00151612c8957808260a00151612c819190613fb6565b841115612c9d565b808260a00151612c999190614267565b8410155b612cd65760405162461bcd60e51b815260206004820152600a602482015269534c5f544f4f5f42494760b01b60448201526064016104f9565b60025460405163a354418160e01b81526001600160a01b039091169063a354418190612d0c9086908a908a908a9060040161427a565b600060405180830381600087803b158015612d2657600080fd5b505af1158015612d3a573d6000803e3d6000fd5b50505050600260009054906101000a90046001600160a01b03166001600160a01b031662b127836040518163ffffffff1660e01b8152600401602060405180830381865afa158015612d90573d6000803e3d6000fd5b505050506040513d601f19601f82011682018060405250810190612db49190613f48565b6001600160a01b031673Bea73565C05De9DA5149De29a04D381B0332F608633c63a7d090918589896000612de66136df565b6040518763ffffffff1660e01b8152600401612e07969594939291906142b0565b60006040518083038186803b158015612e1f57600080fd5b505af4158015612e33573d6000803e3d6000fd5b505060408051888152602081018890528993506001600160a01b03871692507f1fc4a6c7ffe506697979b8ed54dc4135cd1ecd26a2745f70b760a2492222b316910160405180910390a3505050505050565b323314612ec25760405162461bcd60e51b815260206004820152600b60248201526a1393d7d0d3d395149050d560aa1b60448201526064016104f9565b33600090815260208190526040902080546001600160a01b0319166001600160a01b0392909216919091179055565b612ef9613568565b612f016132d3565b6000612f0b6106b6565b6002546040516302a0a1cb60e41b81529192506000916001600160a01b0390911690632a0a1cb090612f4590859089908990600401613cd8565b61014060405180830381865afa158015612f63573d6000803e3d6000fd5b505050506040513d601f19601f82011682018060405250810190612f879190613d0f565b905060008160e0015111612fad5760405162461bcd60e51b81526004016104f990613da1565b600254604051637fdb96f360e01b81526001600160a01b0390911690637fdb96f390612fe390859089908990899060040161427a565b600060405180830381600087803b158015612ffd57600080fd5b505af1158015613011573d6000803e3d6000fd5b50505050600260009054906101000a90046001600160a01b03166001600160a01b031662b127836040518163ffffffff1660e01b8152600401602060405180830381865afa158015613067573d6000803e3d6000fd5b505050506040513d601f19601f8201168201806040525081019061308b9190613f48565b6001600160a01b031673Bea73565C05De9DA5149De29a04D381B0332F608638fff7d82909184888860006130bd6136df565b6040518763ffffffff1660e01b81526004016130de969594939291906142b0565b60006040518083038186803b1580156130f657600080fd5b505af415801561310a573d6000803e3d6000fd5b505060408051878152602081018790528893506001600160a01b03861692507f7e06a81c7a47891ccc7455b5ccb2ed850e32bb655ccda67eb3ebaaeed83242a4910160405180910390a35050505050565b6002546040516302a0a1cb60e41b815260009182916001600160a01b0390911690632a0a1cb09061319490889088908890600401613cd8565b61014060405180830381865afa1580156131b2573d6000803e3d6000fd5b505050506040513d601f19601f820116820180604052508101906131d69190613d0f565b90506000806131e483611f3d565b91509150806132055760405162461bcd60e51b81526004016104f990613e30565b5095945050505050565b600260009054906101000a90046001600160a01b03166001600160a01b03166312d43a516040518163ffffffff1660e01b8152600401602060405180830381865afa158015613262573d6000803e3d6000fd5b505050506040513d601f19601f820116820180604052508101906132869190613f48565b6001600160a01b0316336001600160a01b0316146132d15760405162461bcd60e51b8152602060048201526008602482015267474f565f4f4e4c5960c01b60448201526064016104f9565b565b600b54610100900460ff16156132d15760405162461bcd60e51b81526004016104f990602080825260049082015263444f4e4560e01b604082015260600190565b6000806000600260009054906101000a90046001600160a01b03166001600160a01b031662b127836040518163ffffffff1660e01b8152600401602060405180830381865afa15801561336b573d6000803e3d6000fd5b505050506040513d601f19601f8201168201806040525081019061338f9190613f48565b6001600160a01b0316639bd24d838a8a8a8a6040518563ffffffff1660e01b81526004016133c094939291906142f4565b608060405180830381865afa1580156133dd573d6000803e3d6000fd5b505050506040513d601f19601f82011682018060405250810190613401919061433c565b90506000600260009054906101000a90046001600160a01b03166001600160a01b0316633078fff56040518163ffffffff1660e01b8152600401602060405180830381865afa158015613458573d6000803e3d6000fd5b505050506040513d601f19601f8201168201806040525081019061347c9190613f48565b9050806001600160a01b0316636938c05d8a8d61349a57600361349d565b60025b888f6134f05760018b60048111156134b7576134b7613cc2565b146134e65760008b60048111156134d0576134d0613cc2565b146134df5786606001516134f6565b86516134f6565b86602001516134f6565b86604001515b6040518563ffffffff1660e01b815260040161351594939291906143b9565b6020604051808303816000875af1158015613534573d6000803e3d6000fd5b505050506040513d601f19601f820116820180604052508101906135589190613e17565b9350505097509795505050505050565b3233146132d157600080fd5b600080600260009054906101000a90046001600160a01b03166001600160a01b031662b127836040518163ffffffff1660e01b8152600401602060405180830381865afa1580156135c9573d6000803e3d6000fd5b505050506040513d601f19601f820116820180604052508101906135ed9190613f48565b6001600160a01b031663281b693c846040518263ffffffff1660e01b815260040161361a91815260200190565b602060405180830381865afa158015613637573d6000803e3d6000fd5b505050506040513d601f19601f8201168201806040525081019061365b9190613e17565b9050600081116136d357604051630a06da4f60e21b8152600481018490526001600160a01b0385169063281b693c90602401602060405180830381865afa1580156136aa573d6000803e3d6000fd5b505050506040513d601f19601f820116820180604052508101906136ce9190613e17565b6136d5565b805b9150505b92915050565b600061a4b14614806136f3575062066eed46145b80613700575062066eee46145b1561376d5760646001600160a01b031663a3b1b31d6040518163ffffffff1660e01b8152600401602060405180830381865afa158015613744573d6000803e3d6000fd5b505050506040513d601f19601f820116820180604052508101906137689190613e17565b905090565b504390565b6001600160a01b038116811461378757600080fd5b50565b60008060008060008060008060006101208a8c0312156137a957600080fd5b89356137b481613772565b985060208a01356137c481613772565b975060408a01356137d481613772565b965060608a01356137e481613772565b955060808a01356137f481613772565b945060a08a013561380481613772565b8094505060c08a0135925060e08a013591506101008a013590509295985092959850929598565b60006020828403121561383d57600080fd5b5035919050565b803561384f81613772565b919050565b60008060008060008060c0878903121561386d57600080fd5b86359550602087013561387f81613772565b95989597505050506040840135936060810135936080820135935060a0909101359150565b634e487b7160e01b600052604160045260246000fd5b604051610140810167ffffffffffffffff811182821017156138de576138de6138a4565b60405290565b604051610c80810167ffffffffffffffff811182821017156138de576138de6138a4565b801515811461378757600080fd5b803561384f81613908565b6000610140828403121561393457600080fd5b61393c6138ba565b905061394782613844565b81526020820135602082015260408201356040820152606082013560608201526080820135608082015260a082013560a082015261398760c08301613916565b60c082015260e082013560e082015261010080830135818301525061012080830135818301525092915050565b600061014082840312156139c757600080fd5b6123708383613921565b6000806000806101a085870312156139e857600080fd5b6139f28686613921565b935061014085013560038110613a0757600080fd5b939693955050505061016082013591610180013590565b600080600060608486031215613a3357600080fd5b8335613a3e81613772565b95602085013595506040909401359392505050565b600080600060408486031215613a6857600080fd5b8335613a7381613772565b9250602084013567ffffffffffffffff80821115613a9057600080fd5b818601915086601f830112613aa457600080fd5b813581811115613ab357600080fd5b876020828501011115613ac557600080fd5b6020830194508093505050509250925092565b60005b83811015613af3578181015183820152602001613adb565b50506000910152565b60008151808452613b14816020860160208601613ad8565b601f01601f19169290920160200192915050565b6020815260006123706020830184613afc565b60008060408385031215613b4e57600080fd5b50508035926020909101359150565b600082601f830112613b6e57600080fd5b613b766138e4565b80610c80840185811115613b8957600080fd5b845b81811015613ba3578035845260209384019301613b8b565b509095945050505050565b60008060008060006132208688031215613bc757600080fd5b613bd18787613b5d565b945086610c9f870112613be357600080fd5b613beb6138e4565b80611900880189811115613bfe57600080fd5b610c8089015b81811015613c25578035613c1781613772565b845260209384019301613c04565b50819650613c338a82613b5d565b9550505050613c46876125808801613b5d565b94979396509194613200013592915050565b600080600060608486031215613c6d57600080fd5b505081359360208301359350604090920135919050565b600060208284031215613c9657600080fd5b81356136d381613772565b602080825260079082015266056414c55455f360cc1b604082015260600190565b634e487b7160e01b600052602160045260246000fd5b6001600160a01b039390931683526020830191909152604082015260600190565b805161384f81613772565b805161384f81613908565b60006101408284031215613d2257600080fd5b613d2a6138ba565b613d3383613cf9565b81526020830151602082015260408301516040820152606083015160608201526080830151608082015260a083015160a0820152613d7360c08401613d04565b60c082015260e083810151908201526101008084015190820152610120928301519281019290925250919050565b6020808252600890820152674e4f5f545241444560c01b604082015260600190565b81516001600160a01b0316815260208083015190820152604080830151908201526060808301519082015260808083015115159082015260a0828101519082015260c0918201519181019190915260e00190565b600060208284031215613e2957600080fd5b5051919050565b602080825260069082015265121054d7d4d360d21b604082015260600190565b634e487b7160e01b600052601160045260246000fd5b8082018281126000831280158216821582161715613e8657613e86613e50565b505092915050565b80820260008212600160ff1b84141615613eaa57613eaa613e50565b81810583148215176136d9576136d9613e50565b80820281158282048414176136d9576136d9613e50565b60018060a01b038082511683526020820151602084015280604083015116604084015250606081015160608301526080810151608083015260a081015160058110613f2257613f22613cc2565b8060a0840152505050565b60e08101613f3b8285613ed5565b8260c08301529392505050565b600060208284031215613f5a57600080fd5b81516136d381613772565b82815260e081016123706020830184613ed5565b60008060408385031215613f8c57600080fd5b505080516020909101519092909150565b6001600160a01b03929092168252602082015260400190565b808201808211156136d9576136d9613e50565b6020808252601290820152714d41585f50454e44494e475f4f524445525360701b604082015260600190565b6004811061400557614005613cc2565b9052565b8481526080810161401d6020830186613ff5565b60408201939093526060015292915050565b828152815180516001600160a01b03166020830152610200820190602081015160408401526040810151606084015260608101516080840152608081015160a084015260a081015160c084015260c081015161408f60e085018215159052565b5060e0810151610100848101919091528101516101208085019190915201516101408301526020830151610160830152604083015161018083015260608301516101a083015260808301516101c083015260a0909201516101e090910152919050565b8183823760009101908152919050565b60006020828403121561411457600080fd5b815167ffffffffffffffff8082111561412c57600080fd5b818401915084601f83011261414057600080fd5b815181811115614152576141526138a4565b604051601f8201601f19908116603f0116810190838211818310171561417a5761417a6138a4565b8160405282815287602084870101111561419357600080fd5b6141a4836020830160208801613ad8565b979650505050505050565b600060c082840312156141c157600080fd5b60405160c0810181811067ffffffffffffffff821117156141e4576141e46138a4565b8060405250825181526020830151602082015260408301516040820152606083015160608201526080830151608082015260a083015161422381613908565b60a08201529392505050565b60008261424c57634e487b7160e01b600052601260045260246000fd5b500490565b634e487b7160e01b600052603260045260246000fd5b818103818111156136d9576136d9613e50565b6001600160a01b0394909416845260208401929092526040830152606082015260800190565b6002811061400557614005613cc2565b6001600160a01b03878116825286166020820152604081018590526060810184905260c081016142e360808301856142a0565b8260a0830152979650505050505050565b6001600160a01b038516815260208101849052604081018390526080810161431f60608301846142a0565b95945050505050565b805163ffffffff8116811461384f57600080fd5b60006080828403121561434e57600080fd5b6040516080810181811067ffffffffffffffff82111715614371576143716138a4565b60405261437d83614328565b815261438b60208401614328565b602082015261439c60408401614328565b60408201526143ad60608401614328565b60608201529392505050565b848152608081016143cd6020830186613ff5565b83604083015263ffffffff831660608301529594505050505056fea2646970667358221220ebd0f2bd662f0966e36c91e553816167c4ac0788d42fc7e4250b796f1cd17d1964736f6c63430008170033",
  "deployedBytecode": "0x608060405234801561001057600080fd5b50600436106101af5760003560e01c8063870f91d9116100ef578063b354169911610092578063b3541699146103a6578063b81bfa05146103b9578063be73fb99146103cc578063bffe3486146103df578063ca5eb5e114610408578063d3dc75391461041b578063d8defd151461042e578063ff22dcac1461044157600080fd5b8063870f91d9146103175780638f0622271461033a5780639a10cc321461034c5780639a54adba1461036c578063a2a3c0cb14610375578063ae8421e114610388578063b187bd2614610390578063b1dfd5301461039d57600080fd5b806336fb8b151161015757806336fb8b151461026057806340b6159714610282578063410c0b7c146102ac578063531cc965146102c35780635ad9f993146102d657806368cd5088146102e95780636b5bd974146102fc5780638456cb591461030f57600080fd5b8062b12783146101b4578063090efc3b146101e4578063119df25f146101f95780631346b0ff1461020157806316fff0741461021457806318967f2214610227578063192a48f51461023a5780632c1e4e551461024d575b600080fd5b6007546101c7906001600160a01b031681565b6040516001600160a01b0390911681526020015b60405180910390f35b6101f76101f236600461378a565b610454565b005b6101c76106b6565b6004546101c7906001600160a01b031681565b6002546101c7906001600160a01b031681565b6101f761023536600461382b565b6106de565b6101f7610248366004613854565b610742565b6101f761025b36600461382b565b610f95565b6101f733600090815260208190526040902080546001600160a01b0319169055565b6102956102903660046139b4565b611016565b6040805192151583529015156020830152016101db565b6102b560095481565b6040519081526020016101db565b6006546101c7906001600160a01b031681565b6003546101c7906001600160a01b031681565b6101f76102f73660046139d1565b611319565b61029561030a3660046139b4565b611f3d565b6101f761217e565b61032a610325366004613a1e565b6121d4565b60405190151581526020016101db565b600b5461032a90610100900460ff1681565b61035f61035a366004613a53565b612377565b6040516101db9190613b28565b6102b5600a5481565b6101f7610383366004613b3b565b6124b2565b6101f7612a00565b600b5461032a9060ff1681565b6102b560085481565b6101f76103b4366004613bae565b612a60565b6101f76103c736600461382b565b612aea565b6101f76103da366004613c58565b612b74565b6101c76103ed366004613c84565b6000602081905290815260409020546001600160a01b031681565b6101f7610416366004613c84565b612e85565b6005546101c7906001600160a01b031681565b6101f761043c366004613c58565b612ef1565b61032a61044f366004613a1e565b61315b565b600154600160a81b900460ff161580801561047a575060018054600160a01b900460ff16105b8061049a5750303b15801561049a575060018054600160a01b900460ff16145b6105025760405162461bcd60e51b815260206004820152602e60248201527f496e697469616c697a61626c653a20636f6e747261637420697320616c72656160448201526d191e481a5b9a5d1a585b1a5e995960921b60648201526084015b60405180910390fd5b6001805460ff60a01b1916600160a01b179055801561052f576001805460ff60a81b1916600160a81b1790555b6001600160a01b038a161580159061054f57506001600160a01b03891615155b801561056357506001600160a01b03881615155b801561057757506001600160a01b03871615155b801561058b57506001600160a01b03861615155b801561059f57506001600160a01b03851615155b80156105ab5750600084115b80156105b75750600083115b6105f25760405162461bcd60e51b815260206004820152600c60248201526b57524f4e475f504152414d5360a01b60448201526064016104f9565b600280546001600160a01b03199081166001600160a01b038d8116919091179092556003805482168c84161790556004805482168b84161790556005805482168a84161790556006805482168984161790556008869055600985905560078054909116918716919091179055600a82905580156106aa576001805460ff60a81b191681556040519081527f7f26b83ff96e1f2b6a682f133852f6798a09c465da95921460cefb38474024989060200160405180910390a15b50505050505050505050565b6001546000906001600160a01b03166106ce57503390565b506001546001600160a01b031690565b6106e661320f565b600081136107065760405162461bcd60e51b81526004016104f990613ca1565b600a8190556040518181527f54f5f1c2e7079ad1a56091e2a362b06bb1e1964a79d18c91673ca14864f62b85906020015b60405180910390a150565b61074a6132d3565b600086600481111561075e5761075e613cc2565b9050600061076a6106b6565b90506000600383600481111561078257610782613cc2565b149050600081610793576000610796565b60015b90506107f960405180610140016040528060006001600160a01b0316815260200160008152602001600081526020016000815260200160008152602001600081526020016000151581526020016000815260200160008152602001600081525090565b82156108535760405162461bcd60e51b815260206004820152602360248201527f4f70656e204c696d6974206f7264657273206e6f7420737570706f72746564206044820152621e595d60ea1b60648201526084016104f9565b6002546040516302a0a1cb60e41b81526001600160a01b0390911690632a0a1cb090610887908d908d908d90600401613cd8565b61014060405180830381865afa1580156108a5573d6000803e3d6000fd5b505050506040513d601f19601f820116820180604052508101906108c99190613d0f565b905060008160e00151116108ef5760405162461bcd60e51b81526004016104f990613da1565b600285600481111561090357610903613cc2565b03610a37576000600660009054906101000a90046001600160a01b03166001600160a01b031663706faf3a6040518060e0016040528085600001516001600160a01b0316815260200185602001518152602001856040015181526020018560a0015181526020018560c0015115158152602001856080015181526020018560e001518152506040518263ffffffff1660e01b81526004016109a49190613dc3565b602060405180830381865afa1580156109c1573d6000803e3d6000fd5b505050506040513d601f19601f820116820180604052508101906109e59190613e17565b905081610120015160001480610a1557508160c00151610a0c578161012001518110610a15565b81610120015181115b610a315760405162461bcd60e51b81526004016104f990613e30565b50610d40565b6004856004811115610a4b57610a4b613cc2565b03610c8c576000600660009054906101000a90046001600160a01b03166001600160a01b03166364d372c66040518060e0016040528085600001516001600160a01b0316815260200185602001518152602001856040015181526020018560a0015181526020018560c0015115158152602001856080015181526020018560e001518152506040518263ffffffff1660e01b8152600401610aec9190613dc3565b602060405180830381865afa158015610b09573d6000803e3d6000fd5b505050506040513d601f19601f82011682018060405250810190610b2d9190613e17565b905081610120015160001480610b5d57508160c00151610b54578161012001518110610b5d565b81610120015181115b610b795760405162461bcd60e51b81526004016104f990613e30565b6007548251602084015160408086015190516304ec194160e21b81526000946001600160a01b0316936313b0650493610bb9939192909190600401613cd8565b602060405180830381865afa158015610bd6573d6000803e3d6000fd5b505050506040513d601f19601f82011682018060405250810190610bfa9190613e17565b90506000818460800151610c0e9190613e66565b9050600a548460e0015182610c239190613e8e565b1215610c845760405162461bcd60e51b815260206004820152602a60248201527f706f736974696f6e20746f6f20736d616c6c20666f72207061727469616c206c60448201526934b8bab4b230ba34b7b760b11b60648201526084016104f9565b505050610d40565b6001856004811115610ca057610ca0613cc2565b141580610cb257506000816101200151115b610ce65760405162461bcd60e51b81526020600482015260056024820152641393d7d4d360da1b60448201526064016104f9565b6000856004811115610cfa57610cfa613cc2565b141580610d0c57506000816101000151115b610d405760405162461bcd60e51b815260206004820152600560248201526404e4f5f54560dc1b60448201526064016104f9565b600083610d5e578160e001518260800151610d5b9190613ebe565b90505b6000610d6f858d8d8d888c88613314565b509050610da86040805160c08101825260008082526020820181905291810182905260608101829052608081018290529060a082015290565b6001600160a01b038088168252602082018b90528d166040820152606081018c9052608081018b905260a08101886004811115610de757610de7613cc2565b90816004811115610dfa57610dfa613cc2565b90525060025460405163205fe86960e21b81526001600160a01b039091169063817fa1a490610e2f9084908690600401613f2d565b600060405180830381600087803b158015610e4957600080fd5b505af1158015610e5d573d6000803e3d6000fd5b50505050600260009054906101000a90046001600160a01b03166001600160a01b0316633078fff56040518163ffffffff1660e01b8152600401602060405180830381865afa158015610eb4573d6000803e3d6000fd5b505050506040513d601f19601f82011682018060405250810190610ed89190613f48565b6001600160a01b03166339fe9fd283836040518363ffffffff1660e01b8152600401610f05929190613f65565b600060405180830381600087803b158015610f1f57600080fd5b505af1158015610f33573d6000803e3d6000fd5b505050508b8d6001600160a01b0316886001600160a01b03167f6d87222414c5850caf1d385b1e080a771b505825b082a2162d0f4af5ffc86c0085604051610f7d91815260200190565b60405180910390a45050505050505050505050505050565b610f9d61320f565b60008111610fbd5760405162461bcd60e51b81526004016104f990613ca1565b600881905560408051818152600a91810191909152690dac2f0a0dee6ae8aa8960b31b6060820152602081018290527f8cf3e35f6221b16e1670a3413180c9484bf5aa71787905909fa82a6a2662e9ab90608001610737565b6000808260e0015160000361103057506000928392509050565b6000600660009054906101000a90046001600160a01b03166001600160a01b03166364d372c66040518060e0016040528087600001516001600160a01b0316815260200187602001518152602001876040015181526020018760a0015181526020018760c0015115158152602001876080015181526020018760e001518152506040518263ffffffff1660e01b81526004016110cc9190613dc3565b602060405180830381865afa1580156110e9573d6000803e3d6000fd5b505050506040513d601f19601f8201168201806040525081019061110d9190613e17565b6007548551602087015160408089015190516304ec194160e21b81529495506000946001600160a01b03909416936313b06504936111519390929091600401613cd8565b602060405180830381865afa15801561116e573d6000803e3d6000fd5b505050506040513d601f19601f820116820180604052508101906111929190613e17565b905060008186608001516111a69190613e66565b90506000866101200151600014806111d857508660c001516111cf5786610120015184106111d8565b86610120015184115b9050600a548760e00151836111ed9190613e8e565b121561120157600097909650945050505050565b600080600260009054906101000a90046001600160a01b03166001600160a01b0316637dc0d1d06040518163ffffffff1660e01b8152600401602060405180830381865afa158015611257573d6000803e3d6000fd5b505050506040513d601f19601f8201168201806040525081019061127b9190613f48565b6001600160a01b031663e75722308a602001516040518263ffffffff1660e01b81526004016112ac91815260200190565b6040805180830381865afa1580156112c8573d6000803e3d6000fd5b505050506040513d601f19601f820116820180604052508101906112ec9190613f79565b9150915060008960c001516113045786831015611309565b868311155b9a93995092975050505050505050565b611321613568565b6113296132d3565b600b5460ff16156113655760405162461bcd60e51b815260206004820152600660248201526514105554d15160d21b60448201526064016104f9565b600019818560a001516113789190613ebe565b106113b05760405162461bcd60e51b81526020600482015260086024820152674f564552464c4f5760c01b60448201526064016104f9565b60008460a00151116113f15760405162461bcd60e51b815260206004820152600a60248201526950524943455f5a45524f60b01b60448201526064016104f9565b60025460408051633078fff560e01b815290516000926001600160a01b031691633078fff59160048083019260209291908290030181865afa15801561143b573d6000803e3d6000fd5b505050506040513d601f19601f8201168201806040525081019061145f9190613f48565b90506000816001600160a01b03166335b03c176040518163ffffffff1660e01b8152600401602060405180830381865afa1580156114a1573d6000803e3d6000fd5b505050506040513d601f19601f820116820180604052508101906114c59190613f48565b905060006114d16106b6565b9050600260009054906101000a90046001600160a01b03166001600160a01b031663f65d9dbe6040518163ffffffff1660e01b8152600401602060405180830381865afa158015611526573d6000803e3d6000fd5b505050506040513d601f19601f8201168201806040525081019061154a9190613e17565b6002546020890151604051634bf3ccad60e11b81526001600160a01b03909216916397e7995a9161158091869190600401613f9d565b602060405180830381865afa15801561159d573d6000803e3d6000fd5b505050506040513d601f19601f820116820180604052508101906115c19190613e17565b60025460208a0151604051639c8912f160e01b81526001600160a01b0390921691639c8912f1916115f791879190600401613f9d565b602060405180830381865afa158015611614573d6000803e3d6000fd5b505050506040513d601f19601f820116820180604052508101906116389190613e17565b60025460208b01516040516307218dad60e21b81526001600160a01b0390921691631c8636b49161166e91889190600401613f9d565b602060405180830381865afa15801561168b573d6000803e3d6000fd5b505050506040513d601f19601f820116820180604052508101906116af9190613e17565b6116b99190613fb6565b6116c39190613fb6565b106117065760405162461bcd60e51b815260206004820152601360248201527226a0ac2faa2920a222a9afa822a92fa820a4a960691b60448201526064016104f9565b600260009054906101000a90046001600160a01b03166001600160a01b0316638049fde76040518163ffffffff1660e01b8152600401602060405180830381865afa158015611759573d6000803e3d6000fd5b505050506040513d601f19601f8201168201806040525081019061177d9190613e17565b60025460405163f7b3c6fd60e01b81526001600160a01b0384811660048301529091169063f7b3c6fd90602401602060405180830381865afa1580156117c7573d6000803e3d6000fd5b505050506040513d601f19601f820116820180604052508101906117eb9190613e17565b106118085760405162461bcd60e51b81526004016104f990613fc9565b6008548760800151111561184e5760405162461bcd60e51b815260206004820152600d60248201526c41424f56455f4d41585f504f5360981b60448201526064016104f9565b602087015160405163601e3b6b60e11b815260048101919091526001600160a01b0383169063c03c76d690602401602060405180830381865afa158015611899573d6000803e3d6000fd5b505050506040513d601f19601f820116820180604052508101906118bd9190613e17565b8760e0015188608001516118d19190613ebe565b101561190f5760405162461bcd60e51b815260206004820152600d60248201526c42454c4f575f4d494e5f504f5360981b60448201526064016104f9565b60008760e001511180156119955750602087015160405163059a992d60e41b815260048101919091526001600160a01b038316906359a992d090602401602060405180830381865afa158015611969573d6000803e3d6000fd5b505050506040513d601f19601f8201168201806040525081019061198d9190613e17565b8760e0015110155b80156119b257506119aa828860200151613574565b8760e0015111155b6119f35760405162461bcd60e51b815260206004820152601260248201527113115591549051d157d25390d3d4949150d560721b60448201526064016104f9565b6101008701511580611a2757508660c00151611a1a578660a0015187610100015110611a27565b8660a00151876101000151115b611a5e5760405162461bcd60e51b8152602060048201526008602482015267057524f4e475f54560c41b60448201526064016104f9565b6101208701511580611a9257508660c00151611a85578660a0015187610120015111611a92565b8660a00151876101200151105b611ac95760405162461bcd60e51b815260206004820152600860248201526715d493d391d7d4d360c21b60448201526064016104f9565b600454602088015160c089015160e08a015160808b01516000946001600160a01b031693637ea95f3293869391929091611b0291613ebe565b6040516001600160e01b031960e087901b168152600481019490945260248401929092521515604483015260648201526084016040805180830381865afa158015611b51573d6000803e3d6000fd5b505050506040513d601f19601f82011682018060405250810190611b759190613f79565b509050600460009054906101000a90046001600160a01b03166001600160a01b03166380f6cfc26040518163ffffffff1660e01b8152600401602060405180830381865afa158015611bcb573d6000803e3d6000fd5b505050506040513d601f19601f82011682018060405250810190611bef9190613e17565b60e0890151611bfe9083613ebe565b1115611c445760405162461bcd60e51b81526020600482015260156024820152740a0a492868abe929aa08286a8bea89e9ebe90928e9605b1b60448201526064016104f9565b6002546080890151604051638a238ae560e01b81526001600160a01b03858116600483015290921660248301819052604483019190915290638a238ae590606401600060405180830381600087803b158015611c9f57600080fd5b505af1158015611cb3573d6000803e3d6000fd5b5060009250611cc0915050565b876002811115611cd257611cd2613cc2565b03611f33576000846001600160a01b0316636938c05d8a6020015160008c60e001518d60800151611d039190613ebe565b611d0b6136df565b6040518563ffffffff1660e01b8152600401611d2a9493929190614009565b6020604051808303816000875af1158015611d49573d6000803e3d6000fd5b505050506040513d601f19601f82011682018060405250810190611d6d9190613e17565b9050600260009054906101000a90046001600160a01b03166001600160a01b0316633078fff56040518163ffffffff1660e01b8152600401602060405180830381865afa158015611dc2573d6000803e3d6000fd5b505050506040513d601f19601f82011682018060405250810190611de69190613f48565b6001600160a01b0316638f93b660826040518060c00160405280604051806101400160405280896001600160a01b031681526020018f60200151815260200160008152602001600081526020018f608001518152602001600081526020018f60c00151151581526020018f60e0015181526020018f610100015181526020018f61012001518152508152602001600081526020018d60a0015181526020018a81526020016000815260200160008152506040518363ffffffff1660e01b8152600401611eb392919061402f565b600060405180830381600087803b158015611ecd57600080fd5b505af1158015611ee1573d6000803e3d6000fd5b505050508860200151836001600160a01b0316827f3e544118c04e3bb18b669475695cd270ba0e41fb13177483f01c14222de62a866001604051611f29911515815260200190565b60405180910390a4505b5050505050505050565b6000808260e00151600003611f5757506000928392509050565b6000600660009054906101000a90046001600160a01b03166001600160a01b031663706faf3a6040518060e0016040528087600001516001600160a01b0316815260200187602001518152602001876040015181526020018760a0015181526020018760c0015115158152602001876080015181526020018760e001518152506040518263ffffffff1660e01b8152600401611ff39190613dc3565b602060405180830381865afa158015612010573d6000803e3d6000fd5b505050506040513d601f19601f820116820180604052508101906120349190613e17565b9050600080600260009054906101000a90046001600160a01b03166001600160a01b0316637dc0d1d06040518163ffffffff1660e01b8152600401602060405180830381865afa15801561208c573d6000803e3d6000fd5b505050506040513d601f19601f820116820180604052508101906120b09190613f48565b6001600160a01b031663e757223087602001516040518263ffffffff1660e01b81526004016120e191815260200190565b6040805180830381865afa1580156120fd573d6000803e3d6000fd5b505050506040513d601f19601f820116820180604052508101906121219190613f79565b9150915060008661012001516000148061215557508660c0015161214c578661012001518410612155565b86610120015184115b905060008760c0015161216b5784841015612170565b848411155b989197509095505050505050565b61218661320f565b600b805460ff8082161560ff1990921682179092556040519116151581527f0e2fb031ee032dc02d8011dc50b816eb450cf856abd8261680dac74f72165bd2906020015b60405180910390a1565b6002546040516302a0a1cb60e41b815260009182916001600160a01b0390911690632a0a1cb09061220d90889088908890600401613cd8565b61014060405180830381865afa15801561222b573d6000803e3d6000fd5b505050506040513d601f19601f8201168201806040525081019061224f9190613d0f565b9050600080600260009054906101000a90046001600160a01b03166001600160a01b0316637dc0d1d06040518163ffffffff1660e01b8152600401602060405180830381865afa1580156122a7573d6000803e3d6000fd5b505050506040513d601f19601f820116820180604052508101906122cb9190613f48565b6001600160a01b031663e7572230876040518263ffffffff1660e01b81526004016122f891815260200190565b6040805180830381865afa158015612314573d6000803e3d6000fd5b505050506040513d601f19601f820116820180604052508101906123389190613f79565b9150915060008061234885611016565b91509150806123695760405162461bcd60e51b81526004016104f990613e30565b5093505050505b9392505050565b6001600160a01b038381166000908152602081905260409020546060911633146123db5760405162461bcd60e51b81526020600482015260156024820152741111531151d0551157d393d517d054141493d59151605a1b60448201526064016104f9565b600180546001600160a01b0319166001600160a01b0386161790556040516000908190309061240d90879087906140f2565b600060405180830381855af49150503d8060008114612448576040519150601f19603f3d011682016040523d82523d6000602084013e61244d565b606091505b5091509150816124995760448151101561246657600080fd5b600481019050808060200190518101906124809190614102565b60405162461bcd60e51b81526004016104f99190613b28565b600180546001600160a01b031916905595945050505050565b6124ba613568565b6124c26132d3565b60006124cc6106b6565b6002546040516302a0a1cb60e41b81529192506000916001600160a01b0390911690632a0a1cb09061250690859088908890600401613cd8565b61014060405180830381865afa158015612524573d6000803e3d6000fd5b505050506040513d601f19601f820116820180604052508101906125489190613d0f565b600254604051637728fb1b60e11b81529192506000916001600160a01b039091169063ee51f6369061258290869089908990600401613cd8565b60c060405180830381865afa15801561259f573d6000803e3d6000fd5b505050506040513d601f19601f820116820180604052508101906125c391906141af565b9050600260009054906101000a90046001600160a01b03166001600160a01b0316638049fde76040518163ffffffff1660e01b8152600401602060405180830381865afa158015612618573d6000803e3d6000fd5b505050506040513d601f19601f8201168201806040525081019061263c9190613e17565b60025460405163f7b3c6fd60e01b81526001600160a01b0386811660048301529091169063f7b3c6fd90602401602060405180830381865afa158015612686573d6000803e3d6000fd5b505050506040513d601f19601f820116820180604052508101906126aa9190613e17565b106126c75760405162461bcd60e51b81526004016104f990613fc9565b8060a00151156127105760405162461bcd60e51b81526020600482015260146024820152731053149150511657d091525391d7d0d313d4d15160621b60448201526064016104f9565b60008260e00151116127345760405162461bcd60e51b81526004016104f990613da1565b60025460408051633078fff560e01b815290516000926001600160a01b031691633078fff59160048083019260209291908290030181865afa15801561277e573d6000803e3d6000fd5b505050506040513d601f19601f820116820180604052508101906127a29190613f48565b6001600160a01b0316636938c05d8760016402540be4008760e00151876020015189606001516127d29190613ebe565b6127dc9190613ebe565b6127e6919061422f565b6127ee6136df565b6040518563ffffffff1660e01b815260040161280d9493929190614009565b6020604051808303816000875af115801561282c573d6000803e3d6000fd5b505050506040513d601f19601f820116820180604052508101906128509190613e17565b9050600260009054906101000a90046001600160a01b03166001600160a01b0316633078fff56040518163ffffffff1660e01b8152600401602060405180830381865afa1580156128a5573d6000803e3d6000fd5b505050506040513d601f19601f820116820180604052508101906128c99190613f48565b6001600160a01b0316638f93b660826040518060c001604052806040518061014001604052808a6001600160a01b031681526020018c81526020018b81526020016000815260200160008152602001600081526020016000151581526020016000815260200160008152602001600081525081526020016000815260200160008152602001600081526020016000815260200160008152506040518363ffffffff1660e01b815260040161297e92919061402f565b600060405180830381600087803b15801561299857600080fd5b505af11580156129ac573d6000803e3d6000fd5b5050505085846001600160a01b0316827f3e544118c04e3bb18b669475695cd270ba0e41fb13177483f01c14222de62a8660006040516129f0911515815260200190565b60405180910390a4505050505050565b612a0861320f565b600b805460ff610100808304821615810261ff001990931692909217928390556040517fc3a6f986261de9467c2838c6df8ef74f9107855159205600c0bc7a14cdfd3888936121ca9390049091161515815260200190565b612a686132d3565b60005b81811015612ae257612ada868260648110612a8857612a88614251565b6020020151868360648110612a9f57612a9f614251565b6020020151868460648110612ab657612ab6614251565b6020020151868560648110612acd57612acd614251565b6020020151600180610742565b600101612a6b565b505050505050565b612af261320f565b60008111612b125760405162461bcd60e51b81526004016104f990613ca1565b600981905560408051818152601391810191909152721b585c9ad95d13dc99195c9cd51a5b595bdd5d606a1b6060820152602081018290527f8cf3e35f6221b16e1670a3413180c9484bf5aa71787905909fa82a6a2662e9ab90608001610737565b612b7c613568565b612b846132d3565b6000612b8e6106b6565b6002546040516302a0a1cb60e41b81529192506000916001600160a01b0390911690632a0a1cb090612bc890859089908990600401613cd8565b61014060405180830381865afa158015612be6573d6000803e3d6000fd5b505050506040513d601f19601f82011682018060405250810190612c0a9190613d0f565b905060008160e0015111612c305760405162461bcd60e51b81526004016104f990613da1565b60008160e001516064604b8460a00151612c4a9190613ebe565b612c54919061422f565b612c5e919061422f565b9050831580612c9d57508160c00151612c8957808260a00151612c819190613fb6565b841115612c9d565b808260a00151612c999190614267565b8410155b612cd65760405162461bcd60e51b815260206004820152600a602482015269534c5f544f4f5f42494760b01b60448201526064016104f9565b60025460405163a354418160e01b81526001600160a01b039091169063a354418190612d0c9086908a908a908a9060040161427a565b600060405180830381600087803b158015612d2657600080fd5b505af1158015612d3a573d6000803e3d6000fd5b50505050600260009054906101000a90046001600160a01b03166001600160a01b031662b127836040518163ffffffff1660e01b8152600401602060405180830381865afa158015612d90573d6000803e3d6000fd5b505050506040513d601f19601f82011682018060405250810190612db49190613f48565b6001600160a01b031673__$f600c6c046224cd62da9c8e7a0d00fc8b2$__633c63a7d090918589896000612de66136df565b6040518763ffffffff1660e01b8152600401612e07969594939291906142b0565b60006040518083038186803b158015612e1f57600080fd5b505af4158015612e33573d6000803e3d6000fd5b505060408051888152602081018890528993506001600160a01b03871692507f1fc4a6c7ffe506697979b8ed54dc4135cd1ecd26a2745f70b760a2492222b316910160405180910390a3505050505050565b323314612ec25760405162461bcd60e51b815260206004820152600b60248201526a1393d7d0d3d395149050d560aa1b60448201526064016104f9565b33600090815260208190526040902080546001600160a01b0319166001600160a01b0392909216919091179055565b612ef9613568565b612f016132d3565b6000612f0b6106b6565b6002546040516302a0a1cb60e41b81529192506000916001600160a01b0390911690632a0a1cb090612f4590859089908990600401613cd8565b61014060405180830381865afa158015612f63573d6000803e3d6000fd5b505050506040513d601f19601f82011682018060405250810190612f879190613d0f565b905060008160e0015111612fad5760405162461bcd60e51b81526004016104f990613da1565b600254604051637fdb96f360e01b81526001600160a01b0390911690637fdb96f390612fe390859089908990899060040161427a565b600060405180830381600087803b158015612ffd57600080fd5b505af1158015613011573d6000803e3d6000fd5b50505050600260009054906101000a90046001600160a01b03166001600160a01b031662b127836040518163ffffffff1660e01b8152600401602060405180830381865afa158015613067573d6000803e3d6000fd5b505050506040513d601f19601f8201168201806040525081019061308b9190613f48565b6001600160a01b031673__$f600c6c046224cd62da9c8e7a0d00fc8b2$__638fff7d82909184888860006130bd6136df565b6040518763ffffffff1660e01b81526004016130de969594939291906142b0565b60006040518083038186803b1580156130f657600080fd5b505af415801561310a573d6000803e3d6000fd5b505060408051878152602081018790528893506001600160a01b03861692507f7e06a81c7a47891ccc7455b5ccb2ed850e32bb655ccda67eb3ebaaeed83242a4910160405180910390a35050505050565b6002546040516302a0a1cb60e41b815260009182916001600160a01b0390911690632a0a1cb09061319490889088908890600401613cd8565b61014060405180830381865afa1580156131b2573d6000803e3d6000fd5b505050506040513d601f19601f820116820180604052508101906131d69190613d0f565b90506000806131e483611f3d565b91509150806132055760405162461bcd60e51b81526004016104f990613e30565b5095945050505050565b600260009054906101000a90046001600160a01b03166001600160a01b03166312d43a516040518163ffffffff1660e01b8152600401602060405180830381865afa158015613262573d6000803e3d6000fd5b505050506040513d601f19601f820116820180604052508101906132869190613f48565b6001600160a01b0316336001600160a01b0316146132d15760405162461bcd60e51b8152602060048201526008602482015267474f565f4f4e4c5960c01b60448201526064016104f9565b565b600b54610100900460ff16156132d15760405162461bcd60e51b81526004016104f990602080825260049082015263444f4e4560e01b604082015260600190565b6000806000600260009054906101000a90046001600160a01b03166001600160a01b031662b127836040518163ffffffff1660e01b8152600401602060405180830381865afa15801561336b573d6000803e3d6000fd5b505050506040513d601f19601f8201168201806040525081019061338f9190613f48565b6001600160a01b0316639bd24d838a8a8a8a6040518563ffffffff1660e01b81526004016133c094939291906142f4565b608060405180830381865afa1580156133dd573d6000803e3d6000fd5b505050506040513d601f19601f82011682018060405250810190613401919061433c565b90506000600260009054906101000a90046001600160a01b03166001600160a01b0316633078fff56040518163ffffffff1660e01b8152600401602060405180830381865afa158015613458573d6000803e3d6000fd5b505050506040513d601f19601f8201168201806040525081019061347c9190613f48565b9050806001600160a01b0316636938c05d8a8d61349a57600361349d565b60025b888f6134f05760018b60048111156134b7576134b7613cc2565b146134e65760008b60048111156134d0576134d0613cc2565b146134df5786606001516134f6565b86516134f6565b86602001516134f6565b86604001515b6040518563ffffffff1660e01b815260040161351594939291906143b9565b6020604051808303816000875af1158015613534573d6000803e3d6000fd5b505050506040513d601f19601f820116820180604052508101906135589190613e17565b9350505097509795505050505050565b3233146132d157600080fd5b600080600260009054906101000a90046001600160a01b03166001600160a01b031662b127836040518163ffffffff1660e01b8152600401602060405180830381865afa1580156135c9573d6000803e3d6000fd5b505050506040513d601f19601f820116820180604052508101906135ed9190613f48565b6001600160a01b031663281b693c846040518263ffffffff1660e01b815260040161361a91815260200190565b602060405180830381865afa158015613637573d6000803e3d6000fd5b505050506040513d601f19601f8201168201806040525081019061365b9190613e17565b9050600081116136d357604051630a06da4f60e21b8152600481018490526001600160a01b0385169063281b693c90602401602060405180830381865afa1580156136aa573d6000803e3d6000fd5b505050506040513d601f19601f820116820180604052508101906136ce9190613e17565b6136d5565b805b9150505b92915050565b600061a4b14614806136f3575062066eed46145b80613700575062066eee46145b1561376d5760646001600160a01b031663a3b1b31d6040518163ffffffff1660e01b8152600401602060405180830381865afa158015613744573d6000803e3d6000fd5b505050506040513d601f19601f820116820180604052508101906137689190613e17565b905090565b504390565b6001600160a01b038116811461378757600080fd5b50565b60008060008060008060008060006101208a8c0312156137a957600080fd5b89356137b481613772565b985060208a01356137c481613772565b975060408a01356137d481613772565b965060608a01356137e481613772565b955060808a01356137f481613772565b945060a08a013561380481613772565b8094505060c08a0135925060e08a013591506101008a013590509295985092959850929598565b60006020828403121561383d57600080fd5b5035919050565b803561384f81613772565b919050565b60008060008060008060c0878903121561386d57600080fd5b86359550602087013561387f81613772565b95989597505050506040840135936060810135936080820135935060a0909101359150565b634e487b7160e01b600052604160045260246000fd5b604051610140810167ffffffffffffffff811182821017156138de576138de6138a4565b60405290565b604051610c80810167ffffffffffffffff811182821017156138de576138de6138a4565b801515811461378757600080fd5b803561384f81613908565b6000610140828403121561393457600080fd5b61393c6138ba565b905061394782613844565b81526020820135602082015260408201356040820152606082013560608201526080820135608082015260a082013560a082015261398760c08301613916565b60c082015260e082013560e082015261010080830135818301525061012080830135818301525092915050565b600061014082840312156139c757600080fd5b6123708383613921565b6000806000806101a085870312156139e857600080fd5b6139f28686613921565b935061014085013560038110613a0757600080fd5b939693955050505061016082013591610180013590565b600080600060608486031215613a3357600080fd5b8335613a3e81613772565b95602085013595506040909401359392505050565b600080600060408486031215613a6857600080fd5b8335613a7381613772565b9250602084013567ffffffffffffffff80821115613a9057600080fd5b818601915086601f830112613aa457600080fd5b813581811115613ab357600080fd5b876020828501011115613ac557600080fd5b6020830194508093505050509250925092565b60005b83811015613af3578181015183820152602001613adb565b50506000910152565b60008151808452613b14816020860160208601613ad8565b601f01601f19169290920160200192915050565b6020815260006123706020830184613afc565b60008060408385031215613b4e57600080fd5b50508035926020909101359150565b600082601f830112613b6e57600080fd5b613b766138e4565b80610c80840185811115613b8957600080fd5b845b81811015613ba3578035845260209384019301613b8b565b509095945050505050565b60008060008060006132208688031215613bc757600080fd5b613bd18787613b5d565b945086610c9f870112613be357600080fd5b613beb6138e4565b80611900880189811115613bfe57600080fd5b610c8089015b81811015613c25578035613c1781613772565b845260209384019301613c04565b50819650613c338a82613b5d565b9550505050613c46876125808801613b5d565b94979396509194613200013592915050565b600080600060608486031215613c6d57600080fd5b505081359360208301359350604090920135919050565b600060208284031215613c9657600080fd5b81356136d381613772565b602080825260079082015266056414c55455f360cc1b604082015260600190565b634e487b7160e01b600052602160045260246000fd5b6001600160a01b039390931683526020830191909152604082015260600190565b805161384f81613772565b805161384f81613908565b60006101408284031215613d2257600080fd5b613d2a6138ba565b613d3383613cf9565b81526020830151602082015260408301516040820152606083015160608201526080830151608082015260a083015160a0820152613d7360c08401613d04565b60c082015260e083810151908201526101008084015190820152610120928301519281019290925250919050565b6020808252600890820152674e4f5f545241444560c01b604082015260600190565b81516001600160a01b0316815260208083015190820152604080830151908201526060808301519082015260808083015115159082015260a0828101519082015260c0918201519181019190915260e00190565b600060208284031215613e2957600080fd5b5051919050565b602080825260069082015265121054d7d4d360d21b604082015260600190565b634e487b7160e01b600052601160045260246000fd5b8082018281126000831280158216821582161715613e8657613e86613e50565b505092915050565b80820260008212600160ff1b84141615613eaa57613eaa613e50565b81810583148215176136d9576136d9613e50565b80820281158282048414176136d9576136d9613e50565b60018060a01b038082511683526020820151602084015280604083015116604084015250606081015160608301526080810151608083015260a081015160058110613f2257613f22613cc2565b8060a0840152505050565b60e08101613f3b8285613ed5565b8260c08301529392505050565b600060208284031215613f5a57600080fd5b81516136d381613772565b82815260e081016123706020830184613ed5565b60008060408385031215613f8c57600080fd5b505080516020909101519092909150565b6001600160a01b03929092168252602082015260400190565b808201808211156136d9576136d9613e50565b6020808252601290820152714d41585f50454e44494e475f4f524445525360701b604082015260600190565b6004811061400557614005613cc2565b9052565b8481526080810161401d6020830186613ff5565b60408201939093526060015292915050565b828152815180516001600160a01b03166020830152610200820190602081015160408401526040810151606084015260608101516080840152608081015160a084015260a081015160c084015260c081015161408f60e085018215159052565b5060e0810151610100848101919091528101516101208085019190915201516101408301526020830151610160830152604083015161018083015260608301516101a083015260808301516101c083015260a0909201516101e090910152919050565b8183823760009101908152919050565b60006020828403121561411457600080fd5b815167ffffffffffffffff8082111561412c57600080fd5b818401915084601f83011261414057600080fd5b815181811115614152576141526138a4565b604051601f8201601f19908116603f0116810190838211818310171561417a5761417a6138a4565b8160405282815287602084870101111561419357600080fd5b6141a4836020830160208801613ad8565b979650505050505050565b600060c082840312156141c157600080fd5b60405160c0810181811067ffffffffffffffff821117156141e4576141e46138a4565b8060405250825181526020830151602082015260408301516040820152606083015160608201526080830151608082015260a083015161422381613908565b60a08201529392505050565b60008261424c57634e487b7160e01b600052601260045260246000fd5b500490565b634e487b7160e01b600052603260045260246000fd5b818103818111156136d9576136d9613e50565b6001600160a01b0394909416845260208401929092526040830152606082015260800190565b6002811061400557614005613cc2565b6001600160a01b03878116825286166020820152604081018590526060810184905260c081016142e360808301856142a0565b8260a0830152979650505050505050565b6001600160a01b038516815260208101849052604081018390526080810161431f60608301846142a0565b95945050505050565b805163ffffffff8116811461384f57600080fd5b60006080828403121561434e57600080fd5b6040516080810181811067ffffffffffffffff82111715614371576143716138a4565b60405261437d83614328565b815261438b60208401614328565b602082015261439c60408401614328565b60408201526143ad60608401614328565b60608201529392505050565b848152608081016143cd6020830186613ff5565b83604083015263ffffffff831660608301529594505050505056fea2646970667358221220ebd0f2bd662f0966e36c91e553816167c4ac0788d42fc7e4250b796f1cd17d1964736f6c63430008170033",
  "libraries": {
    "TradeUtils": "0xBea73565C05De9DA5149De29a04D381B0332F608",
    "PackingUtils": "0xe3c1e12de3Ea98b5b8650cD7B90eDa84AB6b1103"
  },
  "devdoc": {
    "events": {
      "Initialized(uint8)": {
        "details": "Triggered when the contract has been initialized or reinitialized."
      }
    },
    "kind": "dev",
    "methods": {},
    "version": 1
  },
  "userdoc": {
    "kind": "user",
    "methods": {},
    "version": 1
  },
  "storageLayout": {
    "storage": [
      {
        "astId": 10420,
        "contract": "contracts/Trading.sol:Trading",
        "label": "delegations",
        "offset": 0,
        "slot": "0",
        "type": "t_mapping(t_address,t_address)"
      },
      {
        "astId": 10422,
        "contract": "contracts/Trading.sol:Trading",
        "label": "senderOverride",
        "offset": 0,
        "slot": "1",
        "type": "t_address"
      },
      {
        "astId": 2892,
        "contract": "contracts/Trading.sol:Trading",
        "label": "_initialized",
        "offset": 20,
        "slot": "1",
        "type": "t_uint8"
      },
      {
        "astId": 2895,
        "contract": "contracts/Trading.sol:Trading",
        "label": "_initializing",
        "offset": 21,
        "slot": "1",
        "type": "t_bool"
      },
      {
        "astId": 22663,
        "contract": "contracts/Trading.sol:Trading",
        "label": "storageT",
        "offset": 0,
        "slot": "2",
        "type": "t_contract(StorageInterface)33860"
      },
      {
        "astId": 22666,
        "contract": "contracts/Trading.sol:Trading",
        "label": "nftRewards",
        "offset": 0,
        "slot": "3",
        "type": "t_contract(NftRewardsInterfaceV6_3_1)32762"
      },
      {
        "astId": 22669,
        "contract": "contracts/Trading.sol:Trading",
        "label": "pairInfos",
        "offset": 0,
        "slot": "4",
        "type": "t_contract(PairInfosInterface)33062"
      },
      {
        "astId": 22672,
        "contract": "contracts/Trading.sol:Trading",
        "label": "referrals",
        "offset": 0,
        "slot": "5",
        "type": "t_contract(ReferralsInterface)33303"
      },
      {
        "astId": 22675,
        "contract": "contracts/Trading.sol:Trading",
        "label": "borrowingFees",
        "offset": 0,
        "slot": "6",
        "type": "t_contract(BorrowingFeesInterface)32236"
      },
      {
        "astId": 22678,
        "contract": "contracts/Trading.sol:Trading",
        "label": "callbacks",
        "offset": 0,
        "slot": "7",
        "type": "t_contract(CallbacksInterface)32300"
      },
      {
        "astId": 22686,
        "contract": "contracts/Trading.sol:Trading",
        "label": "maxPosWETH",
        "offset": 0,
        "slot": "8",
        "type": "t_uint256"
      },
      {
        "astId": 22688,
        "contract": "contracts/Trading.sol:Trading",
        "label": "marketOrdersTimeout",
        "offset": 0,
        "slot": "9",
        "type": "t_uint256"
      },
      {
        "astId": 22690,
        "contract": "contracts/Trading.sol:Trading",
        "label": "minLeveragedPosWETH",
        "offset": 0,
        "slot": "10",
        "type": "t_int256"
      },
      {
        "astId": 22692,
        "contract": "contracts/Trading.sol:Trading",
        "label": "isPaused",
        "offset": 0,
        "slot": "11",
        "type": "t_bool"
      },
      {
        "astId": 22694,
        "contract": "contracts/Trading.sol:Trading",
        "label": "isDone",
        "offset": 1,
        "slot": "11",
        "type": "t_bool"
      }
    ],
    "types": {
      "t_address": {
        "encoding": "inplace",
        "label": "address",
        "numberOfBytes": "20"
      },
      "t_bool": {
        "encoding": "inplace",
        "label": "bool",
        "numberOfBytes": "1"
      },
      "t_contract(BorrowingFeesInterface)32236": {
        "encoding": "inplace",
        "label": "contract BorrowingFeesInterface",
        "numberOfBytes": "20"
      },
      "t_contract(CallbacksInterface)32300": {
        "encoding": "inplace",
        "label": "contract CallbacksInterface",
        "numberOfBytes": "20"
      },
      "t_contract(NftRewardsInterfaceV6_3_1)32762": {
        "encoding": "inplace",
        "label": "contract NftRewardsInterfaceV6_3_1",
        "numberOfBytes": "20"
      },
      "t_contract(PairInfosInterface)33062": {
        "encoding": "inplace",
        "label": "contract PairInfosInterface",
        "numberOfBytes": "20"
      },
      "t_contract(ReferralsInterface)33303": {
        "encoding": "inplace",
        "label": "contract ReferralsInterface",
        "numberOfBytes": "20"
      },
      "t_contract(StorageInterface)33860": {
        "encoding": "inplace",
        "label": "contract StorageInterface",
        "numberOfBytes": "20"
      },
      "t_int256": {
        "encoding": "inplace",
        "label": "int256",
        "numberOfBytes": "32"
      },
      "t_mapping(t_address,t_address)": {
        "encoding": "mapping",
        "key": "t_address",
        "label": "mapping(address => address)",
        "numberOfBytes": "32",
        "value": "t_address"
      },
      "t_uint256": {
        "encoding": "inplace",
        "label": "uint256",
        "numberOfBytes": "32"
      },
      "t_uint8": {
        "encoding": "inplace",
        "label": "uint8",
        "numberOfBytes": "1"
      }
    }
  }
}