{
  "address": "0xbeBD569dCEd3FbC21393aCAbf425929DBbF2Ae5A",
  "abi": [
    {
      "anonymous": false,
      "inputs": [
        {
          "indexed": true,
          "internalType": "bytes32",
          "name": "id",
          "type": "bytes32"
        }
      ],
      "name": "ChainlinkCancelled",
      "type": "event"
    },
    {
      "anonymous": false,
      "inputs": [
        {
          "indexed": true,
          "internalType": "bytes32",
          "name": "id",
          "type": "bytes32"
        }
      ],
      "name": "ChainlinkFulfilled",
      "type": "event"
    },
    {
      "anonymous": false,
      "inputs": [
        {
          "indexed": true,
          "internalType": "bytes32",
          "name": "id",
          "type": "bytes32"
        }
      ],
      "name": "ChainlinkRequested",
      "type": "event"
    },
    {
      "anonymous": false,
      "inputs": [
        {
          "indexed": false,
          "internalType": "address",
          "name": "_feeder",
          "type": "address"
        }
      ],
      "name": "FeederUpdated",
      "type": "event"
    },
    {
      "anonymous": false,
      "inputs": [
        {
          "indexed": false,
          "internalType": "uint8",
          "name": "version",
          "type": "uint8"
        }
      ],
      "name": "Initialized",
      "type": "event"
    },
    {
      "anonymous": false,
      "inputs": [
        {
          "indexed": false,
          "internalType": "bytes32",
          "name": "newValue",
          "type": "bytes32"
        }
      ],
      "name": "JobUpdated",
      "type": "event"
    },
    {
      "anonymous": false,
      "inputs": [
        {
          "indexed": true,
          "internalType": "uint256",
          "name": "newEpoch",
          "type": "uint256"
        },
        {
          "indexed": true,
          "internalType": "uint256",
          "name": "requestId",
          "type": "uint256"
        },
        {
          "indexed": false,
          "internalType": "int256[]",
          "name": "epochMedianValues",
          "type": "int256[]"
        },
        {
          "indexed": false,
          "internalType": "int256",
          "name": "epochAverageValue",
          "type": "int256"
        },
        {
          "indexed": false,
          "internalType": "uint256",
          "name": "newEpochPositiveOpenPnl",
          "type": "uint256"
        }
      ],
      "name": "NewEpoch",
      "type": "event"
    },
    {
      "anonymous": false,
      "inputs": [
        {
          "indexed": true,
          "internalType": "uint256",
          "name": "newEpoch",
          "type": "uint256"
        }
      ],
      "name": "NewEpochForced",
      "type": "event"
    },
    {
      "anonymous": false,
      "inputs": [
        {
          "indexed": true,
          "internalType": "uint256",
          "name": "currEpoch",
          "type": "uint256"
        },
        {
          "indexed": true,
          "internalType": "uint256",
          "name": "requestId",
          "type": "uint256"
        },
        {
          "indexed": false,
          "internalType": "bytes32",
          "name": "job",
          "type": "bytes32"
        },
        {
          "indexed": false,
          "internalType": "uint256",
          "name": "oraclesCount",
          "type": "uint256"
        },
        {
          "indexed": false,
          "internalType": "uint256",
          "name": "linkFeePerNode",
          "type": "uint256"
        }
      ],
      "name": "NextEpochValueRequested",
      "type": "event"
    },
    {
      "anonymous": false,
      "inputs": [
        {
          "indexed": true,
          "internalType": "uint256",
          "name": "currEpoch",
          "type": "uint256"
        },
        {
          "indexed": false,
          "internalType": "uint256",
          "name": "requestsResetCount",
          "type": "uint256"
        }
      ],
      "name": "NextEpochValuesReset",
      "type": "event"
    },
    {
      "anonymous": false,
      "inputs": [
        {
          "indexed": false,
          "internalType": "string",
          "name": "name",
          "type": "string"
        },
        {
          "indexed": false,
          "internalType": "uint256",
          "name": "newValue",
          "type": "uint256"
        }
      ],
      "name": "NumberParamUpdated",
      "type": "event"
    },
    {
      "anonymous": false,
      "inputs": [
        {
          "indexed": false,
          "internalType": "uint256",
          "name": "index",
          "type": "uint256"
        },
        {
          "indexed": false,
          "internalType": "address",
          "name": "newValue",
          "type": "address"
        }
      ],
      "name": "OracleUpdated",
      "type": "event"
    },
    {
      "anonymous": false,
      "inputs": [
        {
          "indexed": false,
          "internalType": "address[]",
          "name": "newValues",
          "type": "address[]"
        }
      ],
      "name": "OraclesUpdated",
      "type": "event"
    },
    {
      "anonymous": false,
      "inputs": [
        {
          "indexed": true,
          "internalType": "uint256",
          "name": "currEpoch",
          "type": "uint256"
        },
        {
          "indexed": true,
          "internalType": "uint256",
          "name": "requestId",
          "type": "uint256"
        },
        {
          "indexed": false,
          "internalType": "int256[]",
          "name": "requestValues",
          "type": "int256[]"
        },
        {
          "indexed": false,
          "internalType": "int256",
          "name": "medianValue",
          "type": "int256"
        }
      ],
      "name": "RequestMedianValueSet",
      "type": "event"
    },
    {
      "anonymous": false,
      "inputs": [
        {
          "indexed": false,
          "internalType": "bool",
          "name": "isLate",
          "type": "bool"
        },
        {
          "indexed": true,
          "internalType": "uint256",
          "name": "currEpoch",
          "type": "uint256"
        },
        {
          "indexed": true,
          "internalType": "uint256",
          "name": "requestId",
          "type": "uint256"
        },
        {
          "indexed": false,
          "internalType": "uint256",
          "name": "oracleRequestId",
          "type": "uint256"
        },
        {
          "indexed": true,
          "internalType": "address",
          "name": "oracle",
          "type": "address"
        },
        {
          "indexed": false,
          "internalType": "int256",
          "name": "requestValue",
          "type": "int256"
        },
        {
          "indexed": false,
          "internalType": "uint256",
          "name": "linkFee",
          "type": "uint256"
        }
      ],
      "name": "RequestValueReceived",
      "type": "event"
    },
    {
      "inputs": [],
      "name": "LINK_FEE_BALANCE_DIVIDER",
      "outputs": [
        {
          "internalType": "uint256",
          "name": "",
          "type": "uint256"
        }
      ],
      "stateMutability": "view",
      "type": "function"
    },
    {
      "inputs": [],
      "name": "forceNewEpoch",
      "outputs": [],
      "stateMutability": "nonpayable",
      "type": "function"
    },
    {
      "inputs": [
        {
          "internalType": "uint256",
          "name": "requestId",
          "type": "uint256"
        },
        {
          "internalType": "int256",
          "name": "value",
          "type": "int256"
        }
      ],
      "name": "fulfill",
      "outputs": [],
      "stateMutability": "nonpayable",
      "type": "function"
    },
    {
      "inputs": [
        {
          "internalType": "uint256",
          "name": "_LINK_FEE_BALANCE_DIVIDER",
          "type": "uint256"
        },
        {
          "internalType": "address",
          "name": "_linkToken",
          "type": "address"
        },
        {
          "internalType": "contract IToken",
          "name": "_vault",
          "type": "address"
        },
        {
          "internalType": "address[]",
          "name": "_oracles",
          "type": "address[]"
        },
        {
          "internalType": "bytes32",
          "name": "_job",
          "type": "bytes32"
        },
        {
          "internalType": "uint256",
          "name": "_minAnswers",
          "type": "uint256"
        },
        {
          "internalType": "address",
          "name": "_feeder",
          "type": "address"
        }
      ],
      "name": "initialize",
      "outputs": [],
      "stateMutability": "nonpayable",
      "type": "function"
    },
    {
      "inputs": [],
      "name": "job",
      "outputs": [
        {
          "internalType": "bytes32",
          "name": "",
          "type": "bytes32"
        }
      ],
      "stateMutability": "view",
      "type": "function"
    },
    {
      "inputs": [],
      "name": "lastRequestId",
      "outputs": [
        {
          "internalType": "uint256",
          "name": "",
          "type": "uint256"
        }
      ],
      "stateMutability": "view",
      "type": "function"
    },
    {
      "inputs": [],
      "name": "minAnswers",
      "outputs": [
        {
          "internalType": "uint256",
          "name": "",
          "type": "uint256"
        }
      ],
      "stateMutability": "view",
      "type": "function"
    },
    {
      "inputs": [],
      "name": "newOpenPnlRequestOrEpoch",
      "outputs": [],
      "stateMutability": "nonpayable",
      "type": "function"
    },
    {
      "inputs": [
        {
          "internalType": "uint256",
          "name": "",
          "type": "uint256"
        }
      ],
      "name": "nextEpochValues",
      "outputs": [
        {
          "internalType": "int256",
          "name": "",
          "type": "int256"
        }
      ],
      "stateMutability": "view",
      "type": "function"
    },
    {
      "inputs": [],
      "name": "nextEpochValuesLastRequest",
      "outputs": [
        {
          "internalType": "uint256",
          "name": "",
          "type": "uint256"
        }
      ],
      "stateMutability": "view",
      "type": "function"
    },
    {
      "inputs": [],
      "name": "nextEpochValuesRequestCount",
      "outputs": [
        {
          "internalType": "uint256",
          "name": "",
          "type": "uint256"
        }
      ],
      "stateMutability": "view",
      "type": "function"
    },
    {
      "inputs": [
        {
          "internalType": "uint256",
          "name": "",
          "type": "uint256"
        }
      ],
      "name": "oracles",
      "outputs": [
        {
          "internalType": "address",
          "name": "",
          "type": "address"
        }
      ],
      "stateMutability": "view",
      "type": "function"
    },
    {
      "inputs": [
        {
          "internalType": "uint256",
          "name": "",
          "type": "uint256"
        },
        {
          "internalType": "uint256",
          "name": "",
          "type": "uint256"
        }
      ],
      "name": "requestAnswers",
      "outputs": [
        {
          "internalType": "int256",
          "name": "",
          "type": "int256"
        }
      ],
      "stateMutability": "view",
      "type": "function"
    },
    {
      "inputs": [],
      "name": "requestId",
      "outputs": [
        {
          "internalType": "uint256",
          "name": "",
          "type": "uint256"
        }
      ],
      "stateMutability": "view",
      "type": "function"
    },
    {
      "inputs": [
        {
          "internalType": "uint256",
          "name": "",
          "type": "uint256"
        }
      ],
      "name": "requestIds",
      "outputs": [
        {
          "internalType": "uint256",
          "name": "",
          "type": "uint256"
        }
      ],
      "stateMutability": "view",
      "type": "function"
    },
    {
      "inputs": [
        {
          "internalType": "uint256",
          "name": "",
          "type": "uint256"
        }
      ],
      "name": "requests",
      "outputs": [
        {
          "internalType": "bool",
          "name": "initiated",
          "type": "bool"
        },
        {
          "internalType": "bool",
          "name": "active",
          "type": "bool"
        },
        {
          "internalType": "uint256",
          "name": "linkFeePerNode",
          "type": "uint256"
        }
      ],
      "stateMutability": "view",
      "type": "function"
    },
    {
      "inputs": [],
      "name": "requestsCount",
      "outputs": [
        {
          "internalType": "uint256",
          "name": "",
          "type": "uint256"
        }
      ],
      "stateMutability": "view",
      "type": "function"
    },
    {
      "inputs": [],
      "name": "requestsEvery",
      "outputs": [
        {
          "internalType": "uint256",
          "name": "",
          "type": "uint256"
        }
      ],
      "stateMutability": "view",
      "type": "function"
    },
    {
      "inputs": [],
      "name": "requestsStart",
      "outputs": [
        {
          "internalType": "uint256",
          "name": "",
          "type": "uint256"
        }
      ],
      "stateMutability": "view",
      "type": "function"
    },
    {
      "inputs": [],
      "name": "resetNextEpochValueRequests",
      "outputs": [],
      "stateMutability": "nonpayable",
      "type": "function"
    },
    {
      "inputs": [
        {
          "internalType": "address",
          "name": "_feeder",
          "type": "address"
        }
      ],
      "name": "updateFeeder",
      "outputs": [],
      "stateMutability": "nonpayable",
      "type": "function"
    },
    {
      "inputs": [
        {
          "internalType": "bytes32",
          "name": "newValue",
          "type": "bytes32"
        }
      ],
      "name": "updateJob",
      "outputs": [],
      "stateMutability": "nonpayable",
      "type": "function"
    },
    {
      "inputs": [
        {
          "internalType": "uint256",
          "name": "newValue",
          "type": "uint256"
        }
      ],
      "name": "updateMinAnswers",
      "outputs": [],
      "stateMutability": "nonpayable",
      "type": "function"
    },
    {
      "inputs": [
        {
          "internalType": "uint256",
          "name": "_index",
          "type": "uint256"
        },
        {
          "internalType": "address",
          "name": "newValue",
          "type": "address"
        }
      ],
      "name": "updateOracle",
      "outputs": [],
      "stateMutability": "nonpayable",
      "type": "function"
    },
    {
      "inputs": [
        {
          "internalType": "address[]",
          "name": "newValues",
          "type": "address[]"
        }
      ],
      "name": "updateOracles",
      "outputs": [],
      "stateMutability": "nonpayable",
      "type": "function"
    },
    {
      "inputs": [
        {
          "internalType": "uint256",
          "name": "newValue",
          "type": "uint256"
        }
      ],
      "name": "updateRequestsCount",
      "outputs": [],
      "stateMutability": "nonpayable",
      "type": "function"
    },
    {
      "inputs": [
        {
          "internalType": "uint256",
          "name": "newValue",
          "type": "uint256"
        }
      ],
      "name": "updateRequestsEvery",
      "outputs": [],
      "stateMutability": "nonpayable",
      "type": "function"
    },
    {
      "inputs": [
        {
          "internalType": "uint256",
          "name": "newRequestsStart",
          "type": "uint256"
        },
        {
          "internalType": "uint256",
          "name": "newRequestsEvery",
          "type": "uint256"
        },
        {
          "internalType": "uint256",
          "name": "newRequestsCount",
          "type": "uint256"
        }
      ],
      "name": "updateRequestsInfoBatch",
      "outputs": [],
      "stateMutability": "nonpayable",
      "type": "function"
    },
    {
      "inputs": [
        {
          "internalType": "uint256",
          "name": "newValue",
          "type": "uint256"
        }
      ],
      "name": "updateRequestsStart",
      "outputs": [],
      "stateMutability": "nonpayable",
      "type": "function"
    },
    {
      "inputs": [],
      "name": "vault",
      "outputs": [
        {
          "internalType": "contract IToken",
          "name": "",
          "type": "address"
        }
      ],
      "stateMutability": "view",
      "type": "function"
    }
  ],
  "transactionHash": "0x6a75f43e4884dbfbdfeadc67de99c4100003bb243dfc20d6d85014a484a8bac3",
  "args": [],
  "numDeployments": 1,
  "solcInputHash": "5af97cf568aedef2eac0d2ad801f242e",
  "bytecode": "0x60806040526001600455611c20600955610708600a556004600b5534801561002657600080fd5b5061243b806100366000396000f3fe608060405234801561001057600080fd5b50600436106101995760003560e01c8063a90d67a1116100e4578063cb9945a111610092578063cb9945a11461035c578063ce4396321461036f578063d5a28da314610382578063e704fc511461038b578063f5ed447c14610393578063fbfa4b7f146103a6578063fbfa77cf146103af578063fc2a88c3146103c257600080fd5b8063a90d67a114610300578063b006812c14610309578063b8feee641461031c578063bea1675814610325578063bef35b791461032e578063c2ff884014610336578063c591ff4c1461034957600080fd5b806358e7ec3c1161014c57806358e7ec3c1461021a5780635b69a7d81461022357806381d12c581461024e5780638796ba8c1461029f57806392c3c58b146102bf5780639496f9e3146102c75780639dbc2686146102da578063a5c2aafd146102ed57600080fd5b80626d6cae1461019e57806309d19de1146101ba5780632eb64ec4146101cf578063302be0cb146101d857806334fa54a1146101eb578063473d2f21146101fe5780635614a21114610207575b600080fd5b6101a760125481565b6040519081526020015b60405180910390f35b6101cd6101c8366004611e88565b6103cb565b005b6101a760095481565b6101cd6101e6366004611f8a565b610670565b6101cd6101f936600461201e565b6108c0565b6101a760115481565b6101cd61021536600461201e565b6109fd565b6101a7600d5481565b61023661023136600461201e565b610b30565b6040516001600160a01b0390911681526020016101b1565b61028261025c36600461201e565b6015602052600090815260409020805460019091015460ff808316926101009004169083565b6040805193151584529115156020840152908201526060016101b1565b6101a76102ad36600461201e565b60146020526000908152604090205481565b6101cd610b5a565b6101cd6102d536600461201e565b610d75565b6101cd6102e8366004612037565b610e6e565b6101cd6102fb36600461201e565b610fa8565b6101a7600a5481565b6101a761031736600461201e565b6110de565b6101a760105481565b6101a7600e5481565b6101cd6110ff565b6101cd610344366004612074565b6111ea565b6101cd610357366004612091565b6112df565b6101a761036a366004611e88565b6113a6565b6101cd61037d3660046120bd565b6113d7565b6101a760075481565b6101cd61155f565b6101cd6103a136600461201e565b611672565b6101a7600b5481565b600854610236906001600160a01b031681565b6101a760135481565b6017546001600160a01b031633146104185760405162461bcd60e51b815260206004820152600b60248201526a27a7262cafa322a2a222a960a91b60448201526064015b60405180910390fd5b6000828152601460209081526040808320805490849055808452601583528184208251606081018452815460ff808216151583526101009091041615158186015260019190910154818401526008548351630ecce30160e31b815293519295919491936001600160a01b03909116926376671808926004808401939192918290030181865afa1580156104af573d6000803e3d6000fd5b505050506040513d601f19601f820116820180604052508101906104d391906120ed565b602080840151604080860151815192158352928201899052810187905260608101919091529091503390849083907f6fca1cd883a83c15d85feb83c610bf23e9509a7d70f817816c26ab9c379b1b729060800160405180910390a4816020015161053e575050505050565b6000838152601660209081526040822080546001810182558184529190922001859055600e548154036106675760006105c5828054806020026020016040519081016040528092919081815260200182805480156105bb57602002820191906000526020600020905b8154815260200190600101908083116105a7575b50505050506117f2565b600f80546001810182556000919091527f8d1108e10bcb7c27dddfc02ed9d693a074039d026cf4ea4240b40f7d581ac80201819055604051909150859084907f2cc31a5acf549ee44228d82c08e88b92b9d332ad5193a2290a79345e113c0b4c906106339086908690612106565b60405180910390a36000858152601560209081526040808320805461ff00191690556016909152812061066591611df0565b505b505050505b5050565b600654610100900460ff16158080156106905750600654600160ff909116105b806106aa5750303b1580156106aa575060065460ff166001145b61070d5760405162461bcd60e51b815260206004820152602e60248201527f496e697469616c697a61626c653a20636f6e747261637420697320616c72656160448201526d191e481a5b9a5d1a585b1a5e995960921b606482015260840161040f565b6006805460ff191660011790558015610730576006805461ff0019166101001790555b60008811801561074857506001600160a01b03871615155b801561075c57506001600160a01b03861615155b8015610769575060008551115b801561077457508315155b8015610781575060038310155b80156107975750610793600284612172565b6001145b80156107b05750600285516107ac919061219c565b8311155b6107eb5760405162461bcd60e51b815260206004820152600c60248201526b57524f4e475f504152414d5360a01b604482015260640161040f565b6007889055600280546001600160a01b0319166001600160a01b038916179055600880546001600160a01b0319166001600160a01b038816179055845161083990600c906020880190611e0e565b50600d849055600e839055611c20600955610708600a556004600b55601780546001600160a01b0319166001600160a01b03841617905580156108b6576006805461ff0019169055604051600181527f7f26b83ff96e1f2b6a682f133852f6798a09c465da95921460cefb38474024989060200160405180910390a15b5050505050505050565b600860009054906101000a90046001600160a01b03166001600160a01b0316638da5cb5b6040518163ffffffff1660e01b8152600401602060405180830381865afa158015610913573d6000803e3d6000fd5b505050506040513d601f19601f8201168201806040525081019061093791906121b0565b6001600160a01b0316336001600160a01b0316146109675760405162461bcd60e51b815260040161040f906121cd565b610e108110156109895760405162461bcd60e51b815260040161040f906121f1565b620151808111156109ac5760405162461bcd60e51b815260040161040f90612214565b600a81905560408051818152600d918101919091526c7265717565737473457665727960981b6060820152602081018290526000805160206123e6833981519152906080015b60405180910390a150565b600860009054906101000a90046001600160a01b03166001600160a01b0316638da5cb5b6040518163ffffffff1660e01b8152600401602060405180830381865afa158015610a50573d6000803e3d6000fd5b505050506040513d601f19601f82011682018060405250810190610a7491906121b0565b6001600160a01b0316336001600160a01b031614610aa45760405162461bcd60e51b815260040161040f906121cd565b6003811015610ac55760405162461bcd60e51b815260040161040f906121f1565b600a811115610ae65760405162461bcd60e51b815260040161040f90612214565b600b81905560408051818152600d918101919091526c1c995c5d595cdd1cd0dbdd5b9d609a1b6060820152602081018290526000805160206123e6833981519152906080016109f2565b600c8181548110610b4057600080fd5b6000918252602090912001546001600160a01b0316905081565b600860009054906101000a90046001600160a01b03166001600160a01b031663f851a4406040518163ffffffff1660e01b8152600401602060405180830381865afa158015610bad573d6000803e3d6000fd5b505050506040513d601f19601f82011682018060405250810190610bd191906121b0565b6001600160a01b0316336001600160a01b031614610c1e5760405162461bcd60e51b815260206004820152600a60248201526927a7262cafa0a226a4a760b11b604482015260640161040f565b60105480610c645760405162461bcd60e51b81526020600482015260136024820152721393d7d49154555154d517d513d7d49154d155606a1b604482015260640161040f565b610c70600f6000611df0565b6000601081905560118190555b81811015610cc75760006015600083601354610c999190612237565b8152602081019190915260400160002080549115156101000261ff0019909216919091179055600101610c7d565b50600860009054906101000a90046001600160a01b03166001600160a01b031663766718086040518163ffffffff1660e01b8152600401602060405180830381865afa158015610d1b573d6000803e3d6000fd5b505050506040513d601f19601f82011682018060405250810190610d3f91906120ed565b6040518281527f605f3f824643ee56deaf2717c1581f7ad3df423365aede8e2d771b6b3a30fd2b9060200160405180910390a250565b600860009054906101000a90046001600160a01b03166001600160a01b031663481c6a756040518163ffffffff1660e01b8152600401602060405180830381865afa158015610dc8573d6000803e3d6000fd5b505050506040513d601f19601f82011682018060405250810190610dec91906121b0565b6001600160a01b0316336001600160a01b031614610e1c5760405162461bcd60e51b815260040161040f9061224a565b80610e395760405162461bcd60e51b815260040161040f90612270565b600d8190556040518181527f9f3fa8c139076940687248e93aed7dda099cf9a90cc38c428cf3d5b6b642fdd4906020016109f2565b600860009054906101000a90046001600160a01b03166001600160a01b0316638da5cb5b6040518163ffffffff1660e01b8152600401602060405180830381865afa158015610ec1573d6000803e3d6000fd5b505050506040513d601f19601f82011682018060405250810190610ee591906121b0565b6001600160a01b0316336001600160a01b031614610f155760405162461bcd60e51b815260040161040f906121cd565b600e54610f23906002612291565b81511015610f655760405162461bcd60e51b815260206004820152600f60248201526e105494905657d513d3d7d4d3505313608a1b604482015260640161040f565b8051610f7890600c906020840190611e0e565b507f4b806663ee384a0ada322e70cdf3fd2046424181359f2470a97a6f0cec328e9c816040516109f291906122a8565b600860009054906101000a90046001600160a01b03166001600160a01b0316638da5cb5b6040518163ffffffff1660e01b8152600401602060405180830381865afa158015610ffb573d6000803e3d6000fd5b505050506040513d601f19601f8201168201806040525081019061101f91906121b0565b6001600160a01b0316336001600160a01b03161461104f5760405162461bcd60e51b815260040161040f906121cd565b610e108110156110715760405162461bcd60e51b815260040161040f906121f1565b62093a808111156110945760405162461bcd60e51b815260040161040f90612214565b600981905560408051818152600d918101919091526c1c995c5d595cdd1cd4dd185c9d609a1b6060820152602081018290526000805160206123e6833981519152906080016109f2565b600f81815481106110ee57600080fd5b600091825260209091200154905081565b601154158080156111925750600954600860009054906101000a90046001600160a01b03166001600160a01b03166361a8c8c46040518163ffffffff1660e01b8152600401602060405180830381865afa158015611161573d6000803e3d6000fd5b505050506040513d601f19601f8201168201806040525081019061118591906120ed565b61118f9042612237565b10155b156111a25761119f6118b6565b50565b801580156111be5750600a546011546111bb9042612237565b10155b1561119f57600b5460105410156111d75761119f6118b6565b600b54600f541061119f5761066c611a2a565b600860009054906101000a90046001600160a01b03166001600160a01b0316638da5cb5b6040518163ffffffff1660e01b8152600401602060405180830381865afa15801561123d573d6000803e3d6000fd5b505050506040513d601f19601f8201168201806040525081019061126191906121b0565b6001600160a01b0316336001600160a01b0316146112915760405162461bcd60e51b815260040161040f906121cd565b601780546001600160a01b0319166001600160a01b0383169081179091556040519081527f9ea11583f3cf2411735cff64bd02dc061be29ae7cbc7087eab1c4c3797bd7124906020016109f2565b600860009054906101000a90046001600160a01b03166001600160a01b0316638da5cb5b6040518163ffffffff1660e01b8152600401602060405180830381865afa158015611332573d6000803e3d6000fd5b505050506040513d601f19601f8201168201806040525081019061135691906121b0565b6001600160a01b0316336001600160a01b0316146113865760405162461bcd60e51b815260040161040f906121cd565b61138f83610fa8565b611398826108c0565b6113a1816109fd565b505050565b601660205281600052604060002081815481106113c257600080fd5b90600052602060002001600091509150505481565b600860009054906101000a90046001600160a01b03166001600160a01b0316638da5cb5b6040518163ffffffff1660e01b8152600401602060405180830381865afa15801561142a573d6000803e3d6000fd5b505050506040513d601f19601f8201168201806040525081019061144e91906121b0565b6001600160a01b0316336001600160a01b03161461147e5760405162461bcd60e51b815260040161040f906121cd565b600c5482106114bf5760405162461bcd60e51b815260206004820152600d60248201526c494e4445585f544f4f5f42494760981b604482015260640161040f565b6001600160a01b0381166114e55760405162461bcd60e51b815260040161040f90612270565b80600c83815481106114f9576114f96122f5565b60009182526020918290200180546001600160a01b0319166001600160a01b0393841617905560408051858152928416918301919091527f8323208263554cf72b3658bcdbd0f96f4ccf2c9c919fa30246aaee34537b5509910160405180910390a15050565b600b54600a5461156f9190612291565b60095461157c919061230b565b600860009054906101000a90046001600160a01b03166001600160a01b03166361a8c8c46040518163ffffffff1660e01b8152600401602060405180830381865afa1580156115cf573d6000803e3d6000fd5b505050506040513d601f19601f820116820180604052508101906115f391906120ed565b6115fd9042612237565b10156116375760405162461bcd60e51b8152602060048201526009602482015268544f4f5f4541524c5960b81b604482015260640161040f565b6000611641611a2a565b60405190915081907f446b8726654d216fe9781583f0f34cc8ac84d240bb3ad5293c10e2ff831f1eb290600090a250565b600860009054906101000a90046001600160a01b03166001600160a01b031663481c6a756040518163ffffffff1660e01b8152600401602060405180830381865afa1580156116c5573d6000803e3d6000fd5b505050506040513d601f19601f820116820180604052508101906116e991906121b0565b6001600160a01b0316336001600160a01b0316146117195760405162461bcd60e51b815260040161040f9061224a565b600381101561173a5760405162461bcd60e51b815260040161040f906121f1565b611745600282612172565b60011461177d5760405162461bcd60e51b815260040161040f9060208082526004908201526322ab22a760e11b604082015260600190565b600c5461178c9060029061219c565b8111156117ab5760405162461bcd60e51b815260040161040f90612214565b600e81905560408051818152600a91810191909152696d696e416e737765727360b01b6060820152602081018290526000805160206123e6833981519152906080016109f2565b60006118018260008451611c70565b6002825161180f9190612172565b15611840578160028351611823919061219c565b81518110611833576118336122f5565b60200260200101516118b0565b60028260028451611851919061219c565b81518110611861576118616122f5565b60200260200101518360016002865161187a919061219c565b6118849190612237565b81518110611894576118946122f5565b60200260200101516118a6919061231e565b6118b09190612346565b92915050565b6013600081546118c590612374565b90915550604080516060810182526001808252602080830182815260008486018181526013548252601590935294852093518454915161ffff1990921690151561ff001916176101009115159190910217835551910155601080549161192a83612374565b90915550504260115560125460005b600c548110156119735760126000815461195290612374565b90915550601354601254600090815260146020526040902055600101611939565b5060085460408051630ecce30160e31b8152905183926001600160a01b03169163766718089160048083019260209291908290030181865afa1580156119bd573d6000803e3d6000fd5b505050506040513d601f19601f820116820180604052508101906119e191906120ed565b600d54600c54604080519283526020830191909152600082820152517fb5f2943c67db1794f39a3b46b95086765f48c7e05d12851dc6607bcdb0bcc7a39181900360600190a350565b6000601081905560118190556008546040805163faf33f2960e01b8152905183926001600160a01b03169163faf33f299160048083019260209291908290030181865afa158015611a7f573d6000803e3d6000fd5b505050506040513d601f19601f82011682018060405250810190611aa391906120ed565b600b54600f549192506000911015611abb5781611b14565b611b14600f805480602002602001604051908101604052809291908181526020018280548015611b0a57602002820191906000526020600020905b815481526020019060010190808311611af6575b5050505050611d2b565b6008549091506000906001600160a01b0316637361a54484838513611b3a576000611b3c565b845b6040516001600160e01b031960e085901b168152600481019290925260248201526044016020604051808303816000875af1158015611b7f573d6000803e3d6000fd5b505050506040513d601f19601f82011682018060405250810190611ba391906120ed565b9050600860009054906101000a90046001600160a01b03166001600160a01b031663766718086040518163ffffffff1660e01b8152600401602060405180830381865afa158015611bf8573d6000803e3d6000fd5b505050506040513d601f19601f82011682018060405250810190611c1c91906120ed565b9350601354847f263c5efc95bb2e2134e3fc52ae914fbd38e2381f37d95ae011a56f996578bf17600f8585604051611c569392919061238d565b60405180910390a3611c6a600f6000611df0565b50505090565b808210611c7c57505050565b60008290506000848281518110611c9557611c956122f5565b602002602001015190506000846001611cae919061230b565b90505b83811015611cf85781868281518110611ccc57611ccc6122f5565b60200260200101511215611cf057611cf08682611ce886612374565b955085611d7d565b600101611cb1565b50611d04858584611d7d565b611d0f858584611c70565b611d2485611d1e84600161230b565b85611c70565b5050505050565b60008060005b8351811015611d6957838181518110611d4c57611d4c6122f5565b602002602001015182611d5f919061231e565b9150600101611d31565b508251611d769082612346565b9392505050565b828181518110611d8f57611d8f6122f5565b6020026020010151838381518110611da957611da96122f5565b6020026020010151848481518110611dc357611dc36122f5565b60200260200101858481518110611ddc57611ddc6122f5565b602090810291909101019190915252505050565b508054600082559060005260206000209081019061119f9190611e73565b828054828255906000526020600020908101928215611e63579160200282015b82811115611e6357825182546001600160a01b0319166001600160a01b03909116178255602090920191600190910190611e2e565b50611e6f929150611e73565b5090565b5b80821115611e6f5760008155600101611e74565b60008060408385031215611e9b57600080fd5b50508035926020909101359150565b6001600160a01b038116811461119f57600080fd5b8035611eca81611eaa565b919050565b634e487b7160e01b600052604160045260246000fd5b600082601f830112611ef657600080fd5b8135602067ffffffffffffffff80831115611f1357611f13611ecf565b8260051b604051601f19603f83011681018181108482111715611f3857611f38611ecf565b6040529384526020818701810194908101925087851115611f5857600080fd5b6020870191505b84821015611f7f57611f7082611ebf565b83529183019190830190611f5f565b979650505050505050565b600080600080600080600060e0888a031215611fa557600080fd5b873596506020880135611fb781611eaa565b95506040880135611fc781611eaa565b9450606088013567ffffffffffffffff811115611fe357600080fd5b611fef8a828b01611ee5565b9450506080880135925060a0880135915060c088013561200e81611eaa565b8091505092959891949750929550565b60006020828403121561203057600080fd5b5035919050565b60006020828403121561204957600080fd5b813567ffffffffffffffff81111561206057600080fd5b61206c84828501611ee5565b949350505050565b60006020828403121561208657600080fd5b8135611d7681611eaa565b6000806000606084860312156120a657600080fd5b505081359360208301359350604090920135919050565b600080604083850312156120d057600080fd5b8235915060208301356120e281611eaa565b809150509250929050565b6000602082840312156120ff57600080fd5b5051919050565b600060408201604083528085548083526060850191508660005260209250602060002060005b828110156121485781548452928401926001918201910161212c565b505050602093909301939093525092915050565b634e487b7160e01b600052601260045260246000fd5b6000826121815761218161215c565b500690565b634e487b7160e01b600052601160045260246000fd5b6000826121ab576121ab61215c565b500490565b6000602082840312156121c257600080fd5b8151611d7681611eaa565b6020808252600a908201526927a7262cafa7aba722a960b11b604082015260600190565b6020808252600990820152682122a627abafa6a4a760b91b604082015260600190565b602080825260099082015268082849eac8abe9a82b60bb1b604082015260600190565b818103818111156118b0576118b0612186565b6020808252600c908201526b27a7262cafa6a0a720a3a2a960a11b604082015260600190565b602080825260079082015266056414c55455f360cc1b604082015260600190565b80820281158282048414176118b0576118b0612186565b6020808252825182820181905260009190848201906040850190845b818110156122e95783516001600160a01b0316835292840192918401916001016122c4565b50909695505050505050565b634e487b7160e01b600052603260045260246000fd5b808201808211156118b0576118b0612186565b808201828112600083128015821682158216171561233e5761233e612186565b505092915050565b6000826123555761235561215c565b600160ff1b82146000198414161561236f5761236f612186565b500590565b60006001820161238657612386612186565b5060010190565b600060608201606083528086548083526080850191508760005260209250602060002060005b828110156123cf578154845292840192600191820191016123b3565b505050602084019590955250506040015291905056fe127735ae9d047cae55da37db2c8ee184c735aacd68cef068d4e70be6a41661d9a26469706673582212201ae558449b7ffab26ea168b058090713298250bd00418b92daf9375637a678bb64736f6c63430008170033",
  "devdoc": {
    "events": {
      "Initialized(uint8)": {
        "details": "Triggered when the contract has been initialized or reinitialized."
      }
    },
    "kind": "dev",
    "methods": {},
    "version": 1
  },
  "userdoc": {
    "kind": "user",
    "methods": {},
    "version": 1
  },
  "storageLayout": {
    "storage": [
      {
        "astId": 319,
        "contract": "contracts/OpenPnlFeed.sol:OpenPnlFeed",
        "label": "s_ens",
        "offset": 0,
        "slot": "0",
        "type": "t_contract(ENSInterface)974"
      },
      {
        "astId": 321,
        "contract": "contracts/OpenPnlFeed.sol:OpenPnlFeed",
        "label": "s_ensNode",
        "offset": 0,
        "slot": "1",
        "type": "t_bytes32"
      },
      {
        "astId": 324,
        "contract": "contracts/OpenPnlFeed.sol:OpenPnlFeed",
        "label": "s_link",
        "offset": 0,
        "slot": "2",
        "type": "t_contract(LinkTokenInterface)1069"
      },
      {
        "astId": 327,
        "contract": "contracts/OpenPnlFeed.sol:OpenPnlFeed",
        "label": "s_oracle",
        "offset": 0,
        "slot": "3",
        "type": "t_contract(OperatorInterface)1149"
      },
      {
        "astId": 330,
        "contract": "contracts/OpenPnlFeed.sol:OpenPnlFeed",
        "label": "s_requestCount",
        "offset": 0,
        "slot": "4",
        "type": "t_uint256"
      },
      {
        "astId": 334,
        "contract": "contracts/OpenPnlFeed.sol:OpenPnlFeed",
        "label": "s_pendingRequests",
        "offset": 0,
        "slot": "5",
        "type": "t_mapping(t_bytes32,t_address)"
      },
      {
        "astId": 2892,
        "contract": "contracts/OpenPnlFeed.sol:OpenPnlFeed",
        "label": "_initialized",
        "offset": 0,
        "slot": "6",
        "type": "t_uint8"
      },
      {
        "astId": 2895,
        "contract": "contracts/OpenPnlFeed.sol:OpenPnlFeed",
        "label": "_initializing",
        "offset": 1,
        "slot": "6",
        "type": "t_bool"
      },
      {
        "astId": 10741,
        "contract": "contracts/OpenPnlFeed.sol:OpenPnlFeed",
        "label": "LINK_FEE_BALANCE_DIVIDER",
        "offset": 0,
        "slot": "7",
        "type": "t_uint256"
      },
      {
        "astId": 10765,
        "contract": "contracts/OpenPnlFeed.sol:OpenPnlFeed",
        "label": "vault",
        "offset": 0,
        "slot": "8",
        "type": "t_contract(IToken)32619"
      },
      {
        "astId": 10768,
        "contract": "contracts/OpenPnlFeed.sol:OpenPnlFeed",
        "label": "requestsStart",
        "offset": 0,
        "slot": "9",
        "type": "t_uint256"
      },
      {
        "astId": 10771,
        "contract": "contracts/OpenPnlFeed.sol:OpenPnlFeed",
        "label": "requestsEvery",
        "offset": 0,
        "slot": "10",
        "type": "t_uint256"
      },
      {
        "astId": 10774,
        "contract": "contracts/OpenPnlFeed.sol:OpenPnlFeed",
        "label": "requestsCount",
        "offset": 0,
        "slot": "11",
        "type": "t_uint256"
      },
      {
        "astId": 10777,
        "contract": "contracts/OpenPnlFeed.sol:OpenPnlFeed",
        "label": "oracles",
        "offset": 0,
        "slot": "12",
        "type": "t_array(t_address)dyn_storage"
      },
      {
        "astId": 10779,
        "contract": "contracts/OpenPnlFeed.sol:OpenPnlFeed",
        "label": "job",
        "offset": 0,
        "slot": "13",
        "type": "t_bytes32"
      },
      {
        "astId": 10781,
        "contract": "contracts/OpenPnlFeed.sol:OpenPnlFeed",
        "label": "minAnswers",
        "offset": 0,
        "slot": "14",
        "type": "t_uint256"
      },
      {
        "astId": 10784,
        "contract": "contracts/OpenPnlFeed.sol:OpenPnlFeed",
        "label": "nextEpochValues",
        "offset": 0,
        "slot": "15",
        "type": "t_array(t_int256)dyn_storage"
      },
      {
        "astId": 10786,
        "contract": "contracts/OpenPnlFeed.sol:OpenPnlFeed",
        "label": "nextEpochValuesRequestCount",
        "offset": 0,
        "slot": "16",
        "type": "t_uint256"
      },
      {
        "astId": 10788,
        "contract": "contracts/OpenPnlFeed.sol:OpenPnlFeed",
        "label": "nextEpochValuesLastRequest",
        "offset": 0,
        "slot": "17",
        "type": "t_uint256"
      },
      {
        "astId": 10790,
        "contract": "contracts/OpenPnlFeed.sol:OpenPnlFeed",
        "label": "requestId",
        "offset": 0,
        "slot": "18",
        "type": "t_uint256"
      },
      {
        "astId": 10792,
        "contract": "contracts/OpenPnlFeed.sol:OpenPnlFeed",
        "label": "lastRequestId",
        "offset": 0,
        "slot": "19",
        "type": "t_uint256"
      },
      {
        "astId": 10796,
        "contract": "contracts/OpenPnlFeed.sol:OpenPnlFeed",
        "label": "requestIds",
        "offset": 0,
        "slot": "20",
        "type": "t_mapping(t_uint256,t_uint256)"
      },
      {
        "astId": 10801,
        "contract": "contracts/OpenPnlFeed.sol:OpenPnlFeed",
        "label": "requests",
        "offset": 0,
        "slot": "21",
        "type": "t_mapping(t_uint256,t_struct(Request)10815_storage)"
      },
      {
        "astId": 10806,
        "contract": "contracts/OpenPnlFeed.sol:OpenPnlFeed",
        "label": "requestAnswers",
        "offset": 0,
        "slot": "22",
        "type": "t_mapping(t_uint256,t_array(t_int256)dyn_storage)"
      },
      {
        "astId": 10808,
        "contract": "contracts/OpenPnlFeed.sol:OpenPnlFeed",
        "label": "feeder",
        "offset": 0,
        "slot": "23",
        "type": "t_address"
      }
    ],
    "types": {
      "t_address": {
        "encoding": "inplace",
        "label": "address",
        "numberOfBytes": "20"
      },
      "t_array(t_address)dyn_storage": {
        "base": "t_address",
        "encoding": "dynamic_array",
        "label": "address[]",
        "numberOfBytes": "32"
      },
      "t_array(t_int256)dyn_storage": {
        "base": "t_int256",
        "encoding": "dynamic_array",
        "label": "int256[]",
        "numberOfBytes": "32"
      },
      "t_bool": {
        "encoding": "inplace",
        "label": "bool",
        "numberOfBytes": "1"
      },
      "t_bytes32": {
        "encoding": "inplace",
        "label": "bytes32",
        "numberOfBytes": "32"
      },
      "t_contract(ENSInterface)974": {
        "encoding": "inplace",
        "label": "contract ENSInterface",
        "numberOfBytes": "20"
      },
      "t_contract(IToken)32619": {
        "encoding": "inplace",
        "label": "contract IToken",
        "numberOfBytes": "20"
      },
      "t_contract(LinkTokenInterface)1069": {
        "encoding": "inplace",
        "label": "contract LinkTokenInterface",
        "numberOfBytes": "20"
      },
      "t_contract(OperatorInterface)1149": {
        "encoding": "inplace",
        "label": "contract OperatorInterface",
        "numberOfBytes": "20"
      },
      "t_int256": {
        "encoding": "inplace",
        "label": "int256",
        "numberOfBytes": "32"
      },
      "t_mapping(t_bytes32,t_address)": {
        "encoding": "mapping",
        "key": "t_bytes32",
        "label": "mapping(bytes32 => address)",
        "numberOfBytes": "32",
        "value": "t_address"
      },
      "t_mapping(t_uint256,t_array(t_int256)dyn_storage)": {
        "encoding": "mapping",
        "key": "t_uint256",
        "label": "mapping(uint256 => int256[])",
        "numberOfBytes": "32",
        "value": "t_array(t_int256)dyn_storage"
      },
      "t_mapping(t_uint256,t_struct(Request)10815_storage)": {
        "encoding": "mapping",
        "key": "t_uint256",
        "label": "mapping(uint256 => struct OpenPnlFeed.Request)",
        "numberOfBytes": "32",
        "value": "t_struct(Request)10815_storage"
      },
      "t_mapping(t_uint256,t_uint256)": {
        "encoding": "mapping",
        "key": "t_uint256",
        "label": "mapping(uint256 => uint256)",
        "numberOfBytes": "32",
        "value": "t_uint256"
      },
      "t_struct(Request)10815_storage": {
        "encoding": "inplace",
        "label": "struct OpenPnlFeed.Request",
        "members": [
          {
            "astId": 10810,
            "contract": "contracts/OpenPnlFeed.sol:OpenPnlFeed",
            "label": "initiated",
            "offset": 0,
            "slot": "0",
            "type": "t_bool"
          },
          {
            "astId": 10812,
            "contract": "contracts/OpenPnlFeed.sol:OpenPnlFeed",
            "label": "active",
            "offset": 1,
            "slot": "0",
            "type": "t_bool"
          },
          {
            "astId": 10814,
            "contract": "contracts/OpenPnlFeed.sol:OpenPnlFeed",
            "label": "linkFeePerNode",
            "offset": 0,
            "slot": "1",
            "type": "t_uint256"
          }
        ],
        "numberOfBytes": "64"
      },
      "t_uint256": {
        "encoding": "inplace",
        "label": "uint256",
        "numberOfBytes": "32"
      },
      "t_uint8": {
        "encoding": "inplace",
        "label": "uint8",
        "numberOfBytes": "1"
      }
    }
  }
}