{
  "address": "0x581b255D96B15605E6728c9aE63FdA11BEb5d08a",
  "abi": [
    {
      "anonymous": false,
      "inputs": [
        {
          "indexed": false,
          "internalType": "uint256",
          "name": "index",
          "type": "uint256"
        },
        {
          "indexed": false,
          "internalType": "string",
          "name": "name",
          "type": "string"
        }
      ],
      "name": "FeeAdded",
      "type": "event"
    },
    {
      "anonymous": false,
      "inputs": [
        {
          "indexed": false,
          "internalType": "uint256",
          "name": "index",
          "type": "uint256"
        }
      ],
      "name": "FeeUpdated",
      "type": "event"
    },
    {
      "anonymous": false,
      "inputs": [
        {
          "indexed": false,
          "internalType": "uint256",
          "name": "index",
          "type": "uint256"
        },
        {
          "indexed": false,
          "internalType": "string",
          "name": "name",
          "type": "string"
        }
      ],
      "name": "GroupAdded",
      "type": "event"
    },
    {
      "anonymous": false,
      "inputs": [
        {
          "indexed": false,
          "internalType": "uint256",
          "name": "index",
          "type": "uint256"
        }
      ],
      "name": "GroupUpdated",
      "type": "event"
    },
    {
      "anonymous": false,
      "inputs": [
        {
          "indexed": false,
          "internalType": "uint8",
          "name": "version",
          "type": "uint8"
        }
      ],
      "name": "Initialized",
      "type": "event"
    },
    {
      "anonymous": false,
      "inputs": [
        {
          "indexed": false,
          "internalType": "uint256",
          "name": "index",
          "type": "uint256"
        },
        {
          "indexed": false,
          "internalType": "string",
          "name": "from",
          "type": "string"
        },
        {
          "indexed": false,
          "internalType": "string",
          "name": "to",
          "type": "string"
        }
      ],
      "name": "PairAdded",
      "type": "event"
    },
    {
      "anonymous": false,
      "inputs": [
        {
          "indexed": false,
          "internalType": "uint256",
          "name": "index",
          "type": "uint256"
        }
      ],
      "name": "PairUpdated",
      "type": "event"
    },
    {
      "inputs": [
        {
          "components": [
            {
              "internalType": "string",
              "name": "name",
              "type": "string"
            },
            {
              "internalType": "uint256",
              "name": "openFeeP",
              "type": "uint256"
            },
            {
              "internalType": "uint256",
              "name": "closeFeeP",
              "type": "uint256"
            },
            {
              "internalType": "uint256",
              "name": "oracleFeeP",
              "type": "uint256"
            },
            {
              "internalType": "uint256",
              "name": "nftLimitOrderFeeP",
              "type": "uint256"
            },
            {
              "internalType": "uint256",
              "name": "referralFeeP",
              "type": "uint256"
            },
            {
              "internalType": "uint256",
              "name": "minLevPosWETH",
              "type": "uint256"
            }
          ],
          "internalType": "struct PairsStorage.Fee",
          "name": "_fee",
          "type": "tuple"
        }
      ],
      "name": "addFee",
      "outputs": [],
      "stateMutability": "nonpayable",
      "type": "function"
    },
    {
      "inputs": [
        {
          "components": [
            {
              "internalType": "string",
              "name": "name",
              "type": "string"
            },
            {
              "internalType": "bytes32",
              "name": "job",
              "type": "bytes32"
            },
            {
              "internalType": "uint256",
              "name": "minLeverage",
              "type": "uint256"
            },
            {
              "internalType": "uint256",
              "name": "maxLeverage",
              "type": "uint256"
            },
            {
              "internalType": "uint256",
              "name": "maxCollateralP",
              "type": "uint256"
            }
          ],
          "internalType": "struct PairsStorage.Group",
          "name": "_group",
          "type": "tuple"
        }
      ],
      "name": "addGroup",
      "outputs": [],
      "stateMutability": "nonpayable",
      "type": "function"
    },
    {
      "inputs": [
        {
          "components": [
            {
              "internalType": "string",
              "name": "from",
              "type": "string"
            },
            {
              "internalType": "string",
              "name": "to",
              "type": "string"
            },
            {
              "components": [
                {
                  "internalType": "address",
                  "name": "feed1",
                  "type": "address"
                },
                {
                  "internalType": "address",
                  "name": "feed2",
                  "type": "address"
                },
                {
                  "internalType": "enum PairsStorage.FeedCalculation",
                  "name": "feedCalculation",
                  "type": "uint8"
                },
                {
                  "internalType": "uint256",
                  "name": "maxDeviationP",
                  "type": "uint256"
                }
              ],
              "internalType": "struct PairsStorage.Feed",
              "name": "feed",
              "type": "tuple"
            },
            {
              "internalType": "uint256",
              "name": "spreadP",
              "type": "uint256"
            },
            {
              "internalType": "uint256",
              "name": "groupIndex",
              "type": "uint256"
            },
            {
              "internalType": "uint256",
              "name": "feeIndex",
              "type": "uint256"
            }
          ],
          "internalType": "struct PairsStorage.Pair",
          "name": "_pair",
          "type": "tuple"
        }
      ],
      "name": "addPair",
      "outputs": [],
      "stateMutability": "nonpayable",
      "type": "function"
    },
    {
      "inputs": [
        {
          "components": [
            {
              "internalType": "string",
              "name": "from",
              "type": "string"
            },
            {
              "internalType": "string",
              "name": "to",
              "type": "string"
            },
            {
              "components": [
                {
                  "internalType": "address",
                  "name": "feed1",
                  "type": "address"
                },
                {
                  "internalType": "address",
                  "name": "feed2",
                  "type": "address"
                },
                {
                  "internalType": "enum PairsStorage.FeedCalculation",
                  "name": "feedCalculation",
                  "type": "uint8"
                },
                {
                  "internalType": "uint256",
                  "name": "maxDeviationP",
                  "type": "uint256"
                }
              ],
              "internalType": "struct PairsStorage.Feed",
              "name": "feed",
              "type": "tuple"
            },
            {
              "internalType": "uint256",
              "name": "spreadP",
              "type": "uint256"
            },
            {
              "internalType": "uint256",
              "name": "groupIndex",
              "type": "uint256"
            },
            {
              "internalType": "uint256",
              "name": "feeIndex",
              "type": "uint256"
            }
          ],
          "internalType": "struct PairsStorage.Pair[]",
          "name": "_pairs",
          "type": "tuple[]"
        }
      ],
      "name": "addPairs",
      "outputs": [],
      "stateMutability": "nonpayable",
      "type": "function"
    },
    {
      "inputs": [],
      "name": "currentOrderId",
      "outputs": [
        {
          "internalType": "uint256",
          "name": "",
          "type": "uint256"
        }
      ],
      "stateMutability": "view",
      "type": "function"
    },
    {
      "inputs": [
        {
          "internalType": "uint256",
          "name": "",
          "type": "uint256"
        }
      ],
      "name": "fees",
      "outputs": [
        {
          "internalType": "string",
          "name": "name",
          "type": "string"
        },
        {
          "internalType": "uint256",
          "name": "openFeeP",
          "type": "uint256"
        },
        {
          "internalType": "uint256",
          "name": "closeFeeP",
          "type": "uint256"
        },
        {
          "internalType": "uint256",
          "name": "oracleFeeP",
          "type": "uint256"
        },
        {
          "internalType": "uint256",
          "name": "nftLimitOrderFeeP",
          "type": "uint256"
        },
        {
          "internalType": "uint256",
          "name": "referralFeeP",
          "type": "uint256"
        },
        {
          "internalType": "uint256",
          "name": "minLevPosWETH",
          "type": "uint256"
        }
      ],
      "stateMutability": "view",
      "type": "function"
    },
    {
      "inputs": [],
      "name": "feesCount",
      "outputs": [
        {
          "internalType": "uint256",
          "name": "",
          "type": "uint256"
        }
      ],
      "stateMutability": "view",
      "type": "function"
    },
    {
      "inputs": [
        {
          "internalType": "uint256",
          "name": "_pairIndex",
          "type": "uint256"
        },
        {
          "internalType": "bool",
          "name": "_long",
          "type": "bool"
        }
      ],
      "name": "groupCollateral",
      "outputs": [
        {
          "internalType": "uint256",
          "name": "",
          "type": "uint256"
        }
      ],
      "stateMutability": "view",
      "type": "function"
    },
    {
      "inputs": [
        {
          "internalType": "uint256",
          "name": "_pairIndex",
          "type": "uint256"
        }
      ],
      "name": "groupMaxCollateral",
      "outputs": [
        {
          "internalType": "uint256",
          "name": "",
          "type": "uint256"
        }
      ],
      "stateMutability": "view",
      "type": "function"
    },
    {
      "inputs": [
        {
          "internalType": "uint256",
          "name": "",
          "type": "uint256"
        }
      ],
      "name": "groups",
      "outputs": [
        {
          "internalType": "string",
          "name": "name",
          "type": "string"
        },
        {
          "internalType": "bytes32",
          "name": "job",
          "type": "bytes32"
        },
        {
          "internalType": "uint256",
          "name": "minLeverage",
          "type": "uint256"
        },
        {
          "internalType": "uint256",
          "name": "maxLeverage",
          "type": "uint256"
        },
        {
          "internalType": "uint256",
          "name": "maxCollateralP",
          "type": "uint256"
        }
      ],
      "stateMutability": "view",
      "type": "function"
    },
    {
      "inputs": [
        {
          "internalType": "uint256",
          "name": "",
          "type": "uint256"
        },
        {
          "internalType": "uint256",
          "name": "",
          "type": "uint256"
        }
      ],
      "name": "groupsCollaterals",
      "outputs": [
        {
          "internalType": "uint256",
          "name": "",
          "type": "uint256"
        }
      ],
      "stateMutability": "view",
      "type": "function"
    },
    {
      "inputs": [],
      "name": "groupsCount",
      "outputs": [
        {
          "internalType": "uint256",
          "name": "",
          "type": "uint256"
        }
      ],
      "stateMutability": "view",
      "type": "function"
    },
    {
      "inputs": [
        {
          "internalType": "uint256",
          "name": "_pairIndex",
          "type": "uint256"
        }
      ],
      "name": "guaranteedSlEnabled",
      "outputs": [
        {
          "internalType": "bool",
          "name": "",
          "type": "bool"
        }
      ],
      "stateMutability": "view",
      "type": "function"
    },
    {
      "inputs": [
        {
          "internalType": "uint256",
          "name": "_currentOrderId",
          "type": "uint256"
        },
        {
          "internalType": "address",
          "name": "_storage",
          "type": "address"
        }
      ],
      "name": "initialize",
      "outputs": [],
      "stateMutability": "nonpayable",
      "type": "function"
    },
    {
      "inputs": [
        {
          "internalType": "string",
          "name": "",
          "type": "string"
        },
        {
          "internalType": "string",
          "name": "",
          "type": "string"
        }
      ],
      "name": "isPairListed",
      "outputs": [
        {
          "internalType": "bool",
          "name": "",
          "type": "bool"
        }
      ],
      "stateMutability": "view",
      "type": "function"
    },
    {
      "inputs": [
        {
          "internalType": "uint256",
          "name": "_pairIndex",
          "type": "uint256"
        }
      ],
      "name": "pairCloseFeeP",
      "outputs": [
        {
          "internalType": "uint256",
          "name": "",
          "type": "uint256"
        }
      ],
      "stateMutability": "view",
      "type": "function"
    },
    {
      "inputs": [
        {
          "internalType": "uint256",
          "name": "_pairIndex",
          "type": "uint256"
        }
      ],
      "name": "pairFeed",
      "outputs": [
        {
          "components": [
            {
              "internalType": "address",
              "name": "feed1",
              "type": "address"
            },
            {
              "internalType": "address",
              "name": "feed2",
              "type": "address"
            },
            {
              "internalType": "enum PairsStorage.FeedCalculation",
              "name": "feedCalculation",
              "type": "uint8"
            },
            {
              "internalType": "uint256",
              "name": "maxDeviationP",
              "type": "uint256"
            }
          ],
          "internalType": "struct PairsStorage.Feed",
          "name": "",
          "type": "tuple"
        }
      ],
      "stateMutability": "view",
      "type": "function"
    },
    {
      "inputs": [
        {
          "internalType": "uint256",
          "name": "_pairIndex",
          "type": "uint256"
        }
      ],
      "name": "pairJob",
      "outputs": [
        {
          "internalType": "string",
          "name": "",
          "type": "string"
        },
        {
          "internalType": "string",
          "name": "",
          "type": "string"
        },
        {
          "internalType": "bytes32",
          "name": "",
          "type": "bytes32"
        },
        {
          "internalType": "uint256",
          "name": "",
          "type": "uint256"
        }
      ],
      "stateMutability": "nonpayable",
      "type": "function"
    },
    {
      "inputs": [
        {
          "internalType": "uint256",
          "name": "_pairIndex",
          "type": "uint256"
        }
      ],
      "name": "pairMaxLeverage",
      "outputs": [
        {
          "internalType": "uint256",
          "name": "",
          "type": "uint256"
        }
      ],
      "stateMutability": "view",
      "type": "function"
    },
    {
      "inputs": [
        {
          "internalType": "uint256",
          "name": "_pairIndex",
          "type": "uint256"
        }
      ],
      "name": "pairMinLevPosWETH",
      "outputs": [
        {
          "internalType": "uint256",
          "name": "",
          "type": "uint256"
        }
      ],
      "stateMutability": "view",
      "type": "function"
    },
    {
      "inputs": [
        {
          "internalType": "uint256",
          "name": "_pairIndex",
          "type": "uint256"
        }
      ],
      "name": "pairMinLeverage",
      "outputs": [
        {
          "internalType": "uint256",
          "name": "",
          "type": "uint256"
        }
      ],
      "stateMutability": "view",
      "type": "function"
    },
    {
      "inputs": [
        {
          "internalType": "uint256",
          "name": "_pairIndex",
          "type": "uint256"
        }
      ],
      "name": "pairNftLimitOrderFeeP",
      "outputs": [
        {
          "internalType": "uint256",
          "name": "",
          "type": "uint256"
        }
      ],
      "stateMutability": "view",
      "type": "function"
    },
    {
      "inputs": [
        {
          "internalType": "uint256",
          "name": "_pairIndex",
          "type": "uint256"
        }
      ],
      "name": "pairOpenFeeP",
      "outputs": [
        {
          "internalType": "uint256",
          "name": "",
          "type": "uint256"
        }
      ],
      "stateMutability": "view",
      "type": "function"
    },
    {
      "inputs": [
        {
          "internalType": "uint256",
          "name": "_pairIndex",
          "type": "uint256"
        }
      ],
      "name": "pairOracleFeeP",
      "outputs": [
        {
          "internalType": "uint256",
          "name": "",
          "type": "uint256"
        }
      ],
      "stateMutability": "view",
      "type": "function"
    },
    {
      "inputs": [
        {
          "internalType": "uint256",
          "name": "_pairIndex",
          "type": "uint256"
        }
      ],
      "name": "pairReferralFeeP",
      "outputs": [
        {
          "internalType": "uint256",
          "name": "",
          "type": "uint256"
        }
      ],
      "stateMutability": "view",
      "type": "function"
    },
    {
      "inputs": [
        {
          "internalType": "uint256",
          "name": "_pairIndex",
          "type": "uint256"
        }
      ],
      "name": "pairSpreadP",
      "outputs": [
        {
          "internalType": "uint256",
          "name": "",
          "type": "uint256"
        }
      ],
      "stateMutability": "view",
      "type": "function"
    },
    {
      "inputs": [
        {
          "internalType": "uint256",
          "name": "",
          "type": "uint256"
        }
      ],
      "name": "pairs",
      "outputs": [
        {
          "internalType": "string",
          "name": "from",
          "type": "string"
        },
        {
          "internalType": "string",
          "name": "to",
          "type": "string"
        },
        {
          "components": [
            {
              "internalType": "address",
              "name": "feed1",
              "type": "address"
            },
            {
              "internalType": "address",
              "name": "feed2",
              "type": "address"
            },
            {
              "internalType": "enum PairsStorage.FeedCalculation",
              "name": "feedCalculation",
              "type": "uint8"
            },
            {
              "internalType": "uint256",
              "name": "maxDeviationP",
              "type": "uint256"
            }
          ],
          "internalType": "struct PairsStorage.Feed",
          "name": "feed",
          "type": "tuple"
        },
        {
          "internalType": "uint256",
          "name": "spreadP",
          "type": "uint256"
        },
        {
          "internalType": "uint256",
          "name": "groupIndex",
          "type": "uint256"
        },
        {
          "internalType": "uint256",
          "name": "feeIndex",
          "type": "uint256"
        }
      ],
      "stateMutability": "view",
      "type": "function"
    },
    {
      "inputs": [
        {
          "internalType": "uint256",
          "name": "_index",
          "type": "uint256"
        }
      ],
      "name": "pairsBackend",
      "outputs": [
        {
          "components": [
            {
              "internalType": "string",
              "name": "from",
              "type": "string"
            },
            {
              "internalType": "string",
              "name": "to",
              "type": "string"
            },
            {
              "components": [
                {
                  "internalType": "address",
                  "name": "feed1",
                  "type": "address"
                },
                {
                  "internalType": "address",
                  "name": "feed2",
                  "type": "address"
                },
                {
                  "internalType": "enum PairsStorage.FeedCalculation",
                  "name": "feedCalculation",
                  "type": "uint8"
                },
                {
                  "internalType": "uint256",
                  "name": "maxDeviationP",
                  "type": "uint256"
                }
              ],
              "internalType": "struct PairsStorage.Feed",
              "name": "feed",
              "type": "tuple"
            },
            {
              "internalType": "uint256",
              "name": "spreadP",
              "type": "uint256"
            },
            {
              "internalType": "uint256",
              "name": "groupIndex",
              "type": "uint256"
            },
            {
              "internalType": "uint256",
              "name": "feeIndex",
              "type": "uint256"
            }
          ],
          "internalType": "struct PairsStorage.Pair",
          "name": "",
          "type": "tuple"
        },
        {
          "components": [
            {
              "internalType": "string",
              "name": "name",
              "type": "string"
            },
            {
              "internalType": "bytes32",
              "name": "job",
              "type": "bytes32"
            },
            {
              "internalType": "uint256",
              "name": "minLeverage",
              "type": "uint256"
            },
            {
              "internalType": "uint256",
              "name": "maxLeverage",
              "type": "uint256"
            },
            {
              "internalType": "uint256",
              "name": "maxCollateralP",
              "type": "uint256"
            }
          ],
          "internalType": "struct PairsStorage.Group",
          "name": "",
          "type": "tuple"
        },
        {
          "components": [
            {
              "internalType": "string",
              "name": "name",
              "type": "string"
            },
            {
              "internalType": "uint256",
              "name": "openFeeP",
              "type": "uint256"
            },
            {
              "internalType": "uint256",
              "name": "closeFeeP",
              "type": "uint256"
            },
            {
              "internalType": "uint256",
              "name": "oracleFeeP",
              "type": "uint256"
            },
            {
              "internalType": "uint256",
              "name": "nftLimitOrderFeeP",
              "type": "uint256"
            },
            {
              "internalType": "uint256",
              "name": "referralFeeP",
              "type": "uint256"
            },
            {
              "internalType": "uint256",
              "name": "minLevPosWETH",
              "type": "uint256"
            }
          ],
          "internalType": "struct PairsStorage.Fee",
          "name": "",
          "type": "tuple"
        }
      ],
      "stateMutability": "view",
      "type": "function"
    },
    {
      "inputs": [],
      "name": "pairsCount",
      "outputs": [
        {
          "internalType": "uint256",
          "name": "",
          "type": "uint256"
        }
      ],
      "stateMutability": "view",
      "type": "function"
    },
    {
      "inputs": [],
      "name": "storageT",
      "outputs": [
        {
          "internalType": "contract StorageInterface",
          "name": "",
          "type": "address"
        }
      ],
      "stateMutability": "view",
      "type": "function"
    },
    {
      "inputs": [
        {
          "internalType": "uint256",
          "name": "_id",
          "type": "uint256"
        },
        {
          "components": [
            {
              "internalType": "string",
              "name": "name",
              "type": "string"
            },
            {
              "internalType": "uint256",
              "name": "openFeeP",
              "type": "uint256"
            },
            {
              "internalType": "uint256",
              "name": "closeFeeP",
              "type": "uint256"
            },
            {
              "internalType": "uint256",
              "name": "oracleFeeP",
              "type": "uint256"
            },
            {
              "internalType": "uint256",
              "name": "nftLimitOrderFeeP",
              "type": "uint256"
            },
            {
              "internalType": "uint256",
              "name": "referralFeeP",
              "type": "uint256"
            },
            {
              "internalType": "uint256",
              "name": "minLevPosWETH",
              "type": "uint256"
            }
          ],
          "internalType": "struct PairsStorage.Fee",
          "name": "_fee",
          "type": "tuple"
        }
      ],
      "name": "updateFee",
      "outputs": [],
      "stateMutability": "nonpayable",
      "type": "function"
    },
    {
      "inputs": [
        {
          "internalType": "uint256",
          "name": "_id",
          "type": "uint256"
        },
        {
          "components": [
            {
              "internalType": "string",
              "name": "name",
              "type": "string"
            },
            {
              "internalType": "bytes32",
              "name": "job",
              "type": "bytes32"
            },
            {
              "internalType": "uint256",
              "name": "minLeverage",
              "type": "uint256"
            },
            {
              "internalType": "uint256",
              "name": "maxLeverage",
              "type": "uint256"
            },
            {
              "internalType": "uint256",
              "name": "maxCollateralP",
              "type": "uint256"
            }
          ],
          "internalType": "struct PairsStorage.Group",
          "name": "_group",
          "type": "tuple"
        }
      ],
      "name": "updateGroup",
      "outputs": [],
      "stateMutability": "nonpayable",
      "type": "function"
    },
    {
      "inputs": [
        {
          "internalType": "uint256",
          "name": "_pairIndex",
          "type": "uint256"
        },
        {
          "internalType": "uint256",
          "name": "_amount",
          "type": "uint256"
        },
        {
          "internalType": "bool",
          "name": "_long",
          "type": "bool"
        },
        {
          "internalType": "bool",
          "name": "_increase",
          "type": "bool"
        }
      ],
      "name": "updateGroupCollateral",
      "outputs": [],
      "stateMutability": "nonpayable",
      "type": "function"
    },
    {
      "inputs": [
        {
          "internalType": "uint256",
          "name": "_pairIndex",
          "type": "uint256"
        },
        {
          "components": [
            {
              "internalType": "string",
              "name": "from",
              "type": "string"
            },
            {
              "internalType": "string",
              "name": "to",
              "type": "string"
            },
            {
              "components": [
                {
                  "internalType": "address",
                  "name": "feed1",
                  "type": "address"
                },
                {
                  "internalType": "address",
                  "name": "feed2",
                  "type": "address"
                },
                {
                  "internalType": "enum PairsStorage.FeedCalculation",
                  "name": "feedCalculation",
                  "type": "uint8"
                },
                {
                  "internalType": "uint256",
                  "name": "maxDeviationP",
                  "type": "uint256"
                }
              ],
              "internalType": "struct PairsStorage.Feed",
              "name": "feed",
              "type": "tuple"
            },
            {
              "internalType": "uint256",
              "name": "spreadP",
              "type": "uint256"
            },
            {
              "internalType": "uint256",
              "name": "groupIndex",
              "type": "uint256"
            },
            {
              "internalType": "uint256",
              "name": "feeIndex",
              "type": "uint256"
            }
          ],
          "internalType": "struct PairsStorage.Pair",
          "name": "_pair",
          "type": "tuple"
        }
      ],
      "name": "updatePair",
      "outputs": [],
      "stateMutability": "nonpayable",
      "type": "function"
    }
  ],
  "transactionHash": "0x23a3d3aabb3cfa802f15432484c0e0b6ca605754662e56923354704efbbe5eb9",
  "args": [],
  "numDeployments": 1,
  "solcInputHash": "5af97cf568aedef2eac0d2ad801f242e",
  "bytecode": "0x608060405234801561001057600080fd5b506131a1806100206000396000f3fe608060405234801561001057600080fd5b50600436106101e65760003560e01c8063836a341a1161010a5780639c8dd2fa116100ad578063b91ac7881161007c578063b91ac78814610596578063c03c76d6146105bb578063da35a26f146105ee578063db7c3f9d14610601578063f7acbabd1461061457600080fd5b80639c8dd2fa14610523578063a1d54e9b14610556578063b71ade2f1461057a578063b81b2b711461058d57600080fd5b8063836a341a14610440578063885e2750146104735780638c23f81c1461047c578063925931fc1461048f5780639521753e146104985780639567dccf146104ab57806396324bd4146104cd5780639848a68d146104f157600080fd5b8063472ff8bb1161018d57806359a992d01161015c57806359a992d0146103ab57806362614661146103de578063658de48a146103f15780637981aa83146103fa5780638251135b1461040d57600080fd5b8063472ff8bb1461034c57806349dde63f1461035f5780634acc79ed14610372578063527b47c01461039857600080fd5b806315406fe5146101eb5780631628bfeb1461021157806316fff0741461026c5780631eaa005c1461029d57806320f0fc5e146102bd57806324abd3fb146102d2578063281b693c146102f6578063302f81fc14610329575b600080fd5b6101fe6101f93660046121c4565b610647565b6040519081526020015b60405180910390f35b61025c61021f366004612288565b8151602081840181018051600882529282019482019490942091909352815180830184018051928152908401929093019190912091525460ff1681565b6040519015158152602001610208565b600054610285906201000090046001600160a01b031681565b6040516001600160a01b039091168152602001610208565b6102b06102ab3660046122eb565b61066c565b6040516102089190612369565b6102d06102cb36600461238c565b610713565b005b61025c6102e03660046122eb565b6000908152600560205260409020600601541590565b6101fe6103043660046122eb565b6000908152600560209081526040808320600690810154845290915290206003015490565b61033c6103373660046122eb565b6108a3565b6040516102089493929190612422565b6102d061035a366004612473565b610bee565b6102d061036d3660046124c1565b610d7a565b6103856103803660046122eb565b610f1c565b60405161020897969594939291906124fd565b6102d06103a6366004612554565b610fde565b6101fe6103b93660046122eb565b6000908152600560209081526040808320600690810154845290915290206002015490565b6101fe6103ec3660046122eb565b611277565b6101fe60045481565b6102d0610408366004612590565b61138f565b6101fe61041b3660046122eb565b6000908152600560209081526040808320600790810154845290915290206001015490565b6101fe61044e3660046122eb565b6000908152600560209081526040808320600790810154845290915290206002015490565b6101fe60035481565b6102d061048a3660046125cc565b611541565b6101fe60015481565b6101fe6104a6366004612600565b6116ad565b6104be6104b93660046122eb565b6116f6565b604051610208939291906126d2565b6104e06104db3660046122eb565b611b27565b604051610208959493929190612773565b6101fe6104ff3660046122eb565b60009081526005602081815260408084206007908101548552909152909120015490565b6101fe6105313660046122eb565b6000908152600560209081526040808320600790810154845290915290206004015490565b6101fe6105643660046122eb565b6000908152600560208190526040909120015490565b6102d06105883660046127aa565b611bdd565b6101fe60025481565b6105a96105a43660046122eb565b611e10565b604051610208969594939291906127de565b6101fe6105c93660046122eb565b6000908152600560209081526040808320600790810154845290915290206006015490565b6102d06105fc36600461284c565b611fbc565b6102d061060f36600461287c565b61212b565b6101fe6106223660046122eb565b6000908152600560209081526040808320600790810154845290915290206003015490565b6009602052816000526040600020816002811061066357600080fd5b01549150829050565b6040805160808101825260008082526020820181905291810182905260608101919091526000828152600560209081526040918290208251608081018452600280830180546001600160a01b039081168452600390940154938416948301949094529093840191600160a01b900460ff16908111156106ed576106ed612304565b60028111156106fe576106fe612304565b81526020016002820154815250509050919050565b600060029054906101000a90046001600160a01b03166001600160a01b031662b127836040518163ffffffff1660e01b8152600401602060405180830381865afa158015610765573d6000803e3d6000fd5b505050506040513d601f19601f8201168201806040525081019061078991906128f0565b6001600160a01b0316336001600160a01b0316146107df5760405162461bcd60e51b815260206004820152600e60248201526d43414c4c4241434b535f4f4e4c5960901b60448201526064015b60405180910390fd5b600084815260056020908152604080832060060154835260099091528120908361080a57600161080d565b60005b60ff1690508215610846578482826002811061082b5761082b612914565b01600082825461083b9190612940565b9091555061089b9050565b8482826002811061085957610859612914565b015411610867576000610886565b8482826002811061087a5761087a612914565b01546108869190612953565b82826002811061089857610898612914565b01555b505050505050565b606080600080600060029054906101000a90046001600160a01b03166001600160a01b0316633078fff56040518163ffffffff1660e01b8152600401602060405180830381865afa1580156108fc573d6000803e3d6000fd5b505050506040513d601f19601f8201168201806040525081019061092091906128f0565b6001600160a01b0316336001600160a01b0316146109725760405162461bcd60e51b815260206004820152600f60248201526e41474752454741544f525f4f4e4c5960881b60448201526064016107d6565b600085815260056020526040808220815160c0810190925280548290829061099990612966565b80601f01602080910402602001604051908101604052809291908181526020018280546109c590612966565b8015610a125780601f106109e757610100808354040283529160200191610a12565b820191906000526020600020905b8154815290600101906020018083116109f557829003601f168201915b50505050508152602001600182018054610a2b90612966565b80601f0160208091040260200160405190810160405280929190818152602001828054610a5790612966565b8015610aa45780601f10610a7957610100808354040283529160200191610aa4565b820191906000526020600020905b815481529060010190602001808311610a8757829003601f168201915b505050918352505060408051608081018252600284810180546001600160a01b0390811684526003870154908116602080860191909152909501949293909290840191600160a01b90910460ff1690811115610b0257610b02612304565b6002811115610b1357610b13612304565b815260200160028201548152505081526020016005820154815260200160068201548152602001600782015481525050905060088160000151604051610b59919061299a565b90815260200160405180910390208160200151604051610b79919061299a565b9081526040519081900360200190205460ff16610ba85760405162461bcd60e51b81526004016107d6906129b6565b8051602080830151608084015160009081526006909252604082206001908101548154929390929190610bda836129df565b919050559450945094509450509193509193565b600060029054906101000a90046001600160a01b03166001600160a01b03166312d43a516040518163ffffffff1660e01b8152600401602060405180830381865afa158015610c41573d6000803e3d6000fd5b505050506040513d601f19601f82011682018060405250810190610c6591906128f0565b6001600160a01b0316336001600160a01b031614610c955760405162461bcd60e51b81526004016107d6906129f8565b806020810135610cb75760405162461bcd60e51b81526004016107d690612a1a565b6002816040013510158015610cd257506103e8816060013511155b8015610ce5575080606001358160400135105b610d015760405162461bcd60e51b81526004016107d690612a3d565b60035460009081526006602052604090208290610d1e8282612bca565b5050600380547faf17de8e82beccc440012117a600dc37e26925225d0f1ee192fc107eb3dcbca4916000610d51836129df565b90915550610d5f8480612a66565b604051610d6e93929190612ce0565b60405180910390a15050565b600060029054906101000a90046001600160a01b03166001600160a01b03166312d43a516040518163ffffffff1660e01b8152600401602060405180830381865afa158015610dcd573d6000803e3d6000fd5b505050506040513d601f19601f82011682018060405250810190610df191906128f0565b6001600160a01b0316336001600160a01b031614610e215760405162461bcd60e51b81526004016107d6906129f8565b6000828152600760205260409020600101548290610e515760405162461bcd60e51b81526004016107d690612d03565b8160008160200135118015610e6a575060008160400135115b8015610e7a575060008160600135115b8015610e8a575060008160800135115b8015610e9a575060008160a00135115b8015610eaa575060008160c00135115b610ec65760405162461bcd60e51b81526004016107d690612d2b565b60008481526007602052604090208390610ee08282612d4f565b50506040518481527f8c4d35e54a3f2ef1134138fd8ea3daee6a3c89e10d2665996babdf70261e2c76906020015b60405180910390a150505050565b600760205260009081526040902080548190610f3790612966565b80601f0160208091040260200160405190810160405280929190818152602001828054610f6390612966565b8015610fb05780601f10610f8557610100808354040283529160200191610fb0565b820191906000526020600020905b815481529060010190602001808311610f9357829003601f168201915b5050505050908060010154908060020154908060030154908060040154908060050154908060060154905087565b600060029054906101000a90046001600160a01b03166001600160a01b03166312d43a516040518163ffffffff1660e01b8152600401602060405180830381865afa158015611031573d6000803e3d6000fd5b505050506040513d601f19601f8201168201806040525081019061105591906128f0565b6001600160a01b0316336001600160a01b0316146110855760405162461bcd60e51b81526004016107d6906129f8565b80604001600081606001351180156110b3575060006110a76020830183612e4a565b6001600160a01b031614155b6110ec5760405162461bcd60e51b815260206004820152600a60248201526915d493d391d7d191515160b21b60448201526064016107d6565b60026110fe6060830160408401612e74565b600281111561110f5761110f612304565b141580611135575060006111296040830160208401612e4a565b6001600160a01b031614155b6111725760405162461bcd60e51b815260206004820152600e60248201526d464545445f325f4d495353494e4760901b60448201526064016107d6565b6101008201356000818152600760205260409020600101546111a65760405162461bcd60e51b81526004016107d690612d03565b6000848152600560205260409081902090516008906111c6908390612e91565b9081526020016040518091039020816001016040516111e59190612e91565b9081526040519081900360200190205460ff166112145760405162461bcd60e51b81526004016107d6906129b6565b60408401600282016112268282612f27565b505060c0840135600582015561010084013560078201556040518581527f123a1b961ae93e7acda9790b318237b175b45ac09277cd3614305d8baa3f19539060200160405180910390a15050505050565b60006064600060029054906101000a90046001600160a01b03166001600160a01b031663fbfa77cf6040518163ffffffff1660e01b8152600401602060405180830381865afa1580156112ce573d6000803e3d6000fd5b505050506040513d601f19601f820116820180604052508101906112f291906128f0565b6001600160a01b031663f457fa9a6040518163ffffffff1660e01b8152600401602060405180830381865afa15801561132f573d6000803e3d6000fd5b505050506040513d601f19601f820116820180604052508101906113539190612fae565b6000848152600560209081526040808320600690810154845290915290206004015461137f9190612fc7565b6113899190612fde565b92915050565b600060029054906101000a90046001600160a01b03166001600160a01b03166312d43a516040518163ffffffff1660e01b8152600401602060405180830381865afa1580156113e2573d6000803e3d6000fd5b505050506040513d601f19601f8201168201806040525081019061140691906128f0565b6001600160a01b0316336001600160a01b0316146114365760405162461bcd60e51b81526004016107d6906129f8565b60008281526006602052604090206002015482906114895760405162461bcd60e51b815260206004820152601060248201526f11d493d55417d393d517d31254d5115160821b60448201526064016107d6565b8160208101356114ab5760405162461bcd60e51b81526004016107d690612a1a565b60028160400135101580156114c657506103e8816060013511155b80156114d9575080606001358160400135105b6114f55760405162461bcd60e51b81526004016107d690612a3d565b6000848152600660205260409020839061150f8282612bca565b50506040518481527fcfde8f228364c70f12cbbac5a88fc91ceca76dd750ac93364991a333b34afb8e90602001610f0e565b600060029054906101000a90046001600160a01b03166001600160a01b03166312d43a516040518163ffffffff1660e01b8152600401602060405180830381865afa158015611594573d6000803e3d6000fd5b505050506040513d601f19601f820116820180604052508101906115b891906128f0565b6001600160a01b0316336001600160a01b0316146115e85760405162461bcd60e51b81526004016107d6906129f8565b8060008160200135118015611601575060008160400135115b8015611611575060008160600135115b8015611621575060008160800135115b8015611631575060008160a00135115b8015611641575060008160c00135115b61165d5760405162461bcd60e51b81526004016107d690612d2b565b6004546000908152600760205260409020829061167a8282612d4f565b5050600480547f482049823c85e038e099fe4f2b901487c4800def71c9a3f5bae2de8381ec54f6916000610d51836129df565b600082815260056020908152604080832060060154835260099091528120826116d75760016116da565b60005b60ff16600281106116ed576116ed612914565b01549392505050565b6116fe612165565b6117336040518060a0016040528060608152602001600080191681526020016000815260200160008152602001600081525090565b6117736040518060e00160405280606081526020016000815260200160008152602001600081526020016000815260200160008152602001600081525090565b600084815260056020526040808220815160c0810190925280548290829061179a90612966565b80601f01602080910402602001604051908101604052809291908181526020018280546117c690612966565b80156118135780601f106117e857610100808354040283529160200191611813565b820191906000526020600020905b8154815290600101906020018083116117f657829003601f168201915b5050505050815260200160018201805461182c90612966565b80601f016020809104026020016040519081016040528092919081815260200182805461185890612966565b80156118a55780601f1061187a576101008083540402835291602001916118a5565b820191906000526020600020905b81548152906001019060200180831161188857829003601f168201915b505050918352505060408051608081018252600284810180546001600160a01b0390811684526003870154908116602080860191909152909501949293909290840191600160a01b90910460ff169081111561190357611903612304565b600281111561191457611914612304565b8152602001600282015481525050815260200160058201548152602001600682015481526020016007820154815250509050806006600083608001518152602001908152602001600020600760008460a001518152602001908152602001600020816040518060a001604052908160008201805461199190612966565b80601f01602080910402602001604051908101604052809291908181526020018280546119bd90612966565b8015611a0a5780601f106119df57610100808354040283529160200191611a0a565b820191906000526020600020905b8154815290600101906020018083116119ed57829003601f168201915b505050505081526020016001820154815260200160028201548152602001600382015481526020016004820154815250509150806040518060e0016040529081600082018054611a5990612966565b80601f0160208091040260200160405190810160405280929190818152602001828054611a8590612966565b8015611ad25780601f10611aa757610100808354040283529160200191611ad2565b820191906000526020600020905b815481529060010190602001808311611ab557829003601f168201915b5050505050815260200160018201548152602001600282015481526020016003820154815260200160048201548152602001600582015481526020016006820154815250509050935093509350509193909250565b600660205260009081526040902080548190611b4290612966565b80601f0160208091040260200160405190810160405280929190818152602001828054611b6e90612966565b8015611bbb5780601f10611b9057610100808354040283529160200191611bbb565b820191906000526020600020905b815481529060010190602001808311611b9e57829003601f168201915b5050505050908060010154908060020154908060030154908060040154905085565b600060029054906101000a90046001600160a01b03166001600160a01b03166312d43a516040518163ffffffff1660e01b8152600401602060405180830381865afa158015611c30573d6000803e3d6000fd5b505050506040513d601f19601f82011682018060405250810190611c5491906128f0565b6001600160a01b0316336001600160a01b031614611c845760405162461bcd60e51b81526004016107d6906129f8565b6008611c908280612a66565b604051611c9e929190613000565b9081526020016040518091039020818060200190611cbc9190612a66565b604051611cca929190613000565b9081526040519081900360200190205460ff1615611d205760405162461bcd60e51b81526020600482015260136024820152721410525497d053149150511657d31254d51151606a1b60448201526064016107d6565b60025460009081526005602052604090208190611d3d8282613010565b50600190506008611d4e8380612a66565b604051611d5c929190613000565b9081526020016040518091039020828060200190611d7a9190612a66565b604051611d88929190613000565b908152604051908190036020019020805491151560ff19909216919091179055600280547f3adfd40f2b74073df2a84238acdb7f460565a557b3cc13bddc8833289bf38e09916000611dd9836129df565b90915550611de78380612a66565b611df46020860186612a66565b604051611e0595949392919061311b565b60405180910390a150565b600560205260009081526040902080548190611e2b90612966565b80601f0160208091040260200160405190810160405280929190818152602001828054611e5790612966565b8015611ea45780601f10611e7957610100808354040283529160200191611ea4565b820191906000526020600020905b815481529060010190602001808311611e8757829003601f168201915b505050505090806001018054611eb990612966565b80601f0160208091040260200160405190810160405280929190818152602001828054611ee590612966565b8015611f325780601f10611f0757610100808354040283529160200191611f32565b820191906000526020600020905b815481529060010190602001808311611f1557829003601f168201915b505060408051608081018252600287810180546001600160a01b03908116845260038a0154908116602085015297989792965094509185019250600160a01b900460ff1690811115611f8657611f86612304565b6002811115611f9757611f97612304565b8152602001600282015481525050908060050154908060060154908060070154905086565b600054610100900460ff1615808015611fdc5750600054600160ff909116105b80611ff65750303b158015611ff6575060005460ff166001145b6120595760405162461bcd60e51b815260206004820152602e60248201527f496e697469616c697a61626c653a20636f6e747261637420697320616c72656160448201526d191e481a5b9a5d1a585b1a5e995960921b60648201526084016107d6565b6000805460ff19166001179055801561207c576000805461ff0019166101001790555b600083116120b95760405162461bcd60e51b815260206004820152600a60248201526904f524445525f49445f360b41b60448201526064016107d6565b60018390556000805462010000600160b01b031916620100006001600160a01b038516021790558015612126576000805461ff0019169055604051600181527f7f26b83ff96e1f2b6a682f133852f6798a09c465da95921460cefb38474024989060200160405180910390a15b505050565b60005b818110156121265761215d83838381811061214b5761214b612914565b90506020028101906105889190613154565b60010161212e565b6040518060c0016040528060608152602001606081526020016121a96040805160808101825260008082526020820181905290918201908152602001600081525090565b81526020016000815260200160008152602001600081525090565b600080604083850312156121d757600080fd5b50508035926020909101359150565b634e487b7160e01b600052604160045260246000fd5b600082601f83011261220d57600080fd5b81356001600160401b0380821115612227576122276121e6565b604051601f8301601f19908116603f0116810190828211818310171561224f5761224f6121e6565b8160405283815286602085880101111561226857600080fd5b836020870160208301376000602085830101528094505050505092915050565b6000806040838503121561229b57600080fd5b82356001600160401b03808211156122b257600080fd5b6122be868387016121fc565b935060208501359150808211156122d457600080fd5b506122e1858286016121fc565b9150509250929050565b6000602082840312156122fd57600080fd5b5035919050565b634e487b7160e01b600052602160045260246000fd5b80516001600160a01b0390811683526020808301519091169083015260408101516003811061235957634e487b7160e01b600052602160045260246000fd5b6040830152606090810151910152565b60808101611389828461231a565b8035801515811461238757600080fd5b919050565b600080600080608085870312156123a257600080fd5b84359350602085013592506123b960408601612377565b91506123c760608601612377565b905092959194509250565b60005b838110156123ed5781810151838201526020016123d5565b50506000910152565b6000815180845261240e8160208601602086016123d2565b601f01601f19169290920160200192915050565b60808152600061243560808301876123f6565b828103602084015261244781876123f6565b604084019590955250506060015292915050565b600060a0828403121561246d57600080fd5b50919050565b60006020828403121561248557600080fd5b81356001600160401b0381111561249b57600080fd5b6124a78482850161245b565b949350505050565b600060e0828403121561246d57600080fd5b600080604083850312156124d457600080fd5b8235915060208301356001600160401b038111156124f157600080fd5b6122e1858286016124af565b60e08152600061251060e083018a6123f6565b60208301989098525060408101959095526060850193909352608084019190915260a083015260c090910152919050565b6000610120828403121561246d57600080fd5b6000806040838503121561256757600080fd5b8235915060208301356001600160401b0381111561258457600080fd5b6122e185828601612541565b600080604083850312156125a357600080fd5b8235915060208301356001600160401b038111156125c057600080fd5b6122e18582860161245b565b6000602082840312156125de57600080fd5b81356001600160401b038111156125f457600080fd5b6124a7848285016124af565b6000806040838503121561261357600080fd5b8235915061262360208401612377565b90509250929050565b6000815160a0845261264160a08501826123f6565b9050602083015160208501526040830151604085015260608301516060850152608083015160808501528091505092915050565b6000815160e0845261268a60e08501826123f6565b90506020830151602085015260408301516040850152606083015160608501526080830151608085015260a083015160a085015260c083015160c08501528091505092915050565b60608152600084516101208060608501526126f16101808501836123f6565b91506020870151605f1985840301608086015261270e83826123f6565b925050604087015161272360a086018261231a565b50606087015190840152608086015161014084015260a08601516101608401528281036020840152612755818661262c565b905082810360408401526127698185612675565b9695505050505050565b60a08152600061278660a08301886123f6565b90508560208301528460408301528360608301528260808301529695505050505050565b6000602082840312156127bc57600080fd5b81356001600160401b038111156127d257600080fd5b6124a784828501612541565b60006101208083526127f28184018a6123f6565b9050828103602084015261280681896123f6565b915050612816604083018761231a565b8460c08301528360e083015282610100830152979650505050505050565b6001600160a01b038116811461284957600080fd5b50565b6000806040838503121561285f57600080fd5b82359150602083013561287181612834565b809150509250929050565b6000806020838503121561288f57600080fd5b82356001600160401b03808211156128a657600080fd5b818501915085601f8301126128ba57600080fd5b8135818111156128c957600080fd5b8660208260051b85010111156128de57600080fd5b60209290920196919550909350505050565b60006020828403121561290257600080fd5b815161290d81612834565b9392505050565b634e487b7160e01b600052603260045260246000fd5b634e487b7160e01b600052601160045260246000fd5b808201808211156113895761138961292a565b818103818111156113895761138961292a565b600181811c9082168061297a57607f821691505b60208210810361246d57634e487b7160e01b600052602260045260246000fd5b600082516129ac8184602087016123d2565b9190910192915050565b6020808252600f908201526e1410525497d393d517d31254d51151608a1b604082015260600190565b6000600182016129f1576129f161292a565b5060010190565b602080825260089082015267474f565f4f4e4c5960c01b604082015260600190565b6020808252600990820152684a4f425f454d50545960b81b604082015260600190565b6020808252600f908201526e57524f4e475f4c455645524147455360881b604082015260600190565b6000808335601e19843603018112612a7d57600080fd5b8301803591506001600160401b03821115612a9757600080fd5b602001915036819003821315612aac57600080fd5b9250929050565b601f821115612126576000816000526020600020601f850160051c81016020861015612adc5750805b601f850160051c820191505b8181101561089b57828155600101612ae8565b600019600383901b1c191660019190911b1790565b6001600160401b03831115612b2757612b276121e6565b612b3b83612b358354612966565b83612ab3565b6000601f841160018114612b695760008515612b575750838201355b612b618682612afb565b845550612bc3565b600083815260209020601f19861690835b82811015612b9a5786850135825560209485019460019092019101612b7a565b5086821015612bb75760001960f88860031b161c19848701351681555b505060018560011b0183555b5050505050565b612bd48283612a66565b6001600160401b03811115612beb57612beb6121e6565b612bff81612bf98554612966565b85612ab3565b6000601f821160018114612c2d5760008315612c1b5750838201355b612c258482612afb565b865550612c87565b600085815260209020601f19841690835b82811015612c5e5786850135825560209485019460019092019101612c3e565b5084821015612c7b5760001960f88660031b161c19848701351681555b505060018360011b0185555b50505050602082013560018201556040820135600282015560608201356003820155608082013560048201555050565b81835281816020850137506000828201602090810191909152601f909101601f19169091010190565b838152604060208201526000612cfa604083018486612cb7565b95945050505050565b6020808252600e908201526d11915157d393d517d31254d5115160921b604082015260600190565b6020808252600a908201526957524f4e475f4645455360b01b604082015260600190565b612d598283612a66565b6001600160401b03811115612d7057612d706121e6565b612d7e81612bf98554612966565b6000601f821160018114612dac5760008315612d9a5750838201355b612da48482612afb565b865550612e06565b600085815260209020601f19841690835b82811015612ddd5786850135825560209485019460019092019101612dbd565b5084821015612dfa5760001960f88660031b161c19848701351681555b505060018360011b0185555b505050506020820135600182015560408201356002820155606082013560038201556080820135600482015560a0820135600582015560c082013560068201555050565b600060208284031215612e5c57600080fd5b813561290d81612834565b6003811061284957600080fd5b600060208284031215612e8657600080fd5b813561290d81612e67565b6000808354612e9f81612966565b60018281168015612eb75760018114612ecc57612efb565b60ff1984168752821515830287019450612efb565b8760005260208060002060005b85811015612ef25781548a820152908401908201612ed9565b50505082870194505b50929695505050505050565b80546001600160a01b0319166001600160a01b0392909216919091179055565b8135612f3281612834565b612f3c8183612f07565b50600181016020830135612f4f81612834565b612f598183612f07565b506040830135612f6881612e67565b60038110612f8657634e487b7160e01b600052602160045260246000fd5b815460ff60a01b191660a09190911b60ff60a01b161790556060919091013560029190910155565b600060208284031215612fc057600080fd5b5051919050565b80820281158282048414176113895761138961292a565b600082612ffb57634e487b7160e01b600052601260045260246000fd5b500490565b8183823760009101908152919050565b61301a8283612a66565b6001600160401b03811115613031576130316121e6565b61303f81612bf98554612966565b6000601f82116001811461306d576000831561305b5750838201355b6130658482612afb565b8655506130c7565b600085815260209020601f19841690835b8281101561309e578685013582556020948501946001909201910161307e565b50848210156130bb5760001960f88660031b161c19848701351681555b505060018360011b0185555b505050506130d86020830183612a66565b6130e6818360018601612b10565b50506130f86040830160028301612f27565b60c0820135600582015560e0820135600682015561010082013560078201555050565b858152606060208201526000613135606083018688612cb7565b8281036040840152613148818587612cb7565b98975050505050505050565b6000823561011e198336030181126129ac57600080fdfea2646970667358221220dacc45f319857b86df08c48c1dedf76c7169c117fd977a1fdd7fac602a2974a664736f6c63430008170033",
  "devdoc": {
    "events": {
      "Initialized(uint8)": {
        "details": "Triggered when the contract has been initialized or reinitialized."
      }
    },
    "kind": "dev",
    "methods": {},
    "version": 1
  },
  "userdoc": {
    "kind": "user",
    "methods": {},
    "version": 1
  },
  "storageLayout": {
    "storage": [
      {
        "astId": 2892,
        "contract": "contracts/PairsStorage.sol:PairsStorage",
        "label": "_initialized",
        "offset": 0,
        "slot": "0",
        "type": "t_uint8"
      },
      {
        "astId": 2895,
        "contract": "contracts/PairsStorage.sol:PairsStorage",
        "label": "_initializing",
        "offset": 1,
        "slot": "0",
        "type": "t_bool"
      },
      {
        "astId": 13876,
        "contract": "contracts/PairsStorage.sol:PairsStorage",
        "label": "storageT",
        "offset": 2,
        "slot": "0",
        "type": "t_contract(StorageInterface)33860"
      },
      {
        "astId": 13938,
        "contract": "contracts/PairsStorage.sol:PairsStorage",
        "label": "currentOrderId",
        "offset": 0,
        "slot": "1",
        "type": "t_uint256"
      },
      {
        "astId": 13940,
        "contract": "contracts/PairsStorage.sol:PairsStorage",
        "label": "pairsCount",
        "offset": 0,
        "slot": "2",
        "type": "t_uint256"
      },
      {
        "astId": 13942,
        "contract": "contracts/PairsStorage.sol:PairsStorage",
        "label": "groupsCount",
        "offset": 0,
        "slot": "3",
        "type": "t_uint256"
      },
      {
        "astId": 13944,
        "contract": "contracts/PairsStorage.sol:PairsStorage",
        "label": "feesCount",
        "offset": 0,
        "slot": "4",
        "type": "t_uint256"
      },
      {
        "astId": 13949,
        "contract": "contracts/PairsStorage.sol:PairsStorage",
        "label": "pairs",
        "offset": 0,
        "slot": "5",
        "type": "t_mapping(t_uint256,t_struct(Pair)13910_storage)"
      },
      {
        "astId": 13954,
        "contract": "contracts/PairsStorage.sol:PairsStorage",
        "label": "groups",
        "offset": 0,
        "slot": "6",
        "type": "t_mapping(t_uint256,t_struct(Group)13921_storage)"
      },
      {
        "astId": 13959,
        "contract": "contracts/PairsStorage.sol:PairsStorage",
        "label": "fees",
        "offset": 0,
        "slot": "7",
        "type": "t_mapping(t_uint256,t_struct(Fee)13936_storage)"
      },
      {
        "astId": 13965,
        "contract": "contracts/PairsStorage.sol:PairsStorage",
        "label": "isPairListed",
        "offset": 0,
        "slot": "8",
        "type": "t_mapping(t_string_memory_ptr,t_mapping(t_string_memory_ptr,t_bool))"
      },
      {
        "astId": 13971,
        "contract": "contracts/PairsStorage.sol:PairsStorage",
        "label": "groupsCollaterals",
        "offset": 0,
        "slot": "9",
        "type": "t_mapping(t_uint256,t_array(t_uint256)2_storage)"
      }
    ],
    "types": {
      "t_address": {
        "encoding": "inplace",
        "label": "address",
        "numberOfBytes": "20"
      },
      "t_array(t_uint256)2_storage": {
        "base": "t_uint256",
        "encoding": "inplace",
        "label": "uint256[2]",
        "numberOfBytes": "64"
      },
      "t_bool": {
        "encoding": "inplace",
        "label": "bool",
        "numberOfBytes": "1"
      },
      "t_bytes32": {
        "encoding": "inplace",
        "label": "bytes32",
        "numberOfBytes": "32"
      },
      "t_contract(StorageInterface)33860": {
        "encoding": "inplace",
        "label": "contract StorageInterface",
        "numberOfBytes": "20"
      },
      "t_enum(FeedCalculation)13886": {
        "encoding": "inplace",
        "label": "enum PairsStorage.FeedCalculation",
        "numberOfBytes": "1"
      },
      "t_mapping(t_string_memory_ptr,t_bool)": {
        "encoding": "mapping",
        "key": "t_string_memory_ptr",
        "label": "mapping(string => bool)",
        "numberOfBytes": "32",
        "value": "t_bool"
      },
      "t_mapping(t_string_memory_ptr,t_mapping(t_string_memory_ptr,t_bool))": {
        "encoding": "mapping",
        "key": "t_string_memory_ptr",
        "label": "mapping(string => mapping(string => bool))",
        "numberOfBytes": "32",
        "value": "t_mapping(t_string_memory_ptr,t_bool)"
      },
      "t_mapping(t_uint256,t_array(t_uint256)2_storage)": {
        "encoding": "mapping",
        "key": "t_uint256",
        "label": "mapping(uint256 => uint256[2])",
        "numberOfBytes": "32",
        "value": "t_array(t_uint256)2_storage"
      },
      "t_mapping(t_uint256,t_struct(Fee)13936_storage)": {
        "encoding": "mapping",
        "key": "t_uint256",
        "label": "mapping(uint256 => struct PairsStorage.Fee)",
        "numberOfBytes": "32",
        "value": "t_struct(Fee)13936_storage"
      },
      "t_mapping(t_uint256,t_struct(Group)13921_storage)": {
        "encoding": "mapping",
        "key": "t_uint256",
        "label": "mapping(uint256 => struct PairsStorage.Group)",
        "numberOfBytes": "32",
        "value": "t_struct(Group)13921_storage"
      },
      "t_mapping(t_uint256,t_struct(Pair)13910_storage)": {
        "encoding": "mapping",
        "key": "t_uint256",
        "label": "mapping(uint256 => struct PairsStorage.Pair)",
        "numberOfBytes": "32",
        "value": "t_struct(Pair)13910_storage"
      },
      "t_string_memory_ptr": {
        "encoding": "bytes",
        "label": "string",
        "numberOfBytes": "32"
      },
      "t_string_storage": {
        "encoding": "bytes",
        "label": "string",
        "numberOfBytes": "32"
      },
      "t_struct(Fee)13936_storage": {
        "encoding": "inplace",
        "label": "struct PairsStorage.Fee",
        "members": [
          {
            "astId": 13923,
            "contract": "contracts/PairsStorage.sol:PairsStorage",
            "label": "name",
            "offset": 0,
            "slot": "0",
            "type": "t_string_storage"
          },
          {
            "astId": 13925,
            "contract": "contracts/PairsStorage.sol:PairsStorage",
            "label": "openFeeP",
            "offset": 0,
            "slot": "1",
            "type": "t_uint256"
          },
          {
            "astId": 13927,
            "contract": "contracts/PairsStorage.sol:PairsStorage",
            "label": "closeFeeP",
            "offset": 0,
            "slot": "2",
            "type": "t_uint256"
          },
          {
            "astId": 13929,
            "contract": "contracts/PairsStorage.sol:PairsStorage",
            "label": "oracleFeeP",
            "offset": 0,
            "slot": "3",
            "type": "t_uint256"
          },
          {
            "astId": 13931,
            "contract": "contracts/PairsStorage.sol:PairsStorage",
            "label": "nftLimitOrderFeeP",
            "offset": 0,
            "slot": "4",
            "type": "t_uint256"
          },
          {
            "astId": 13933,
            "contract": "contracts/PairsStorage.sol:PairsStorage",
            "label": "referralFeeP",
            "offset": 0,
            "slot": "5",
            "type": "t_uint256"
          },
          {
            "astId": 13935,
            "contract": "contracts/PairsStorage.sol:PairsStorage",
            "label": "minLevPosWETH",
            "offset": 0,
            "slot": "6",
            "type": "t_uint256"
          }
        ],
        "numberOfBytes": "224"
      },
      "t_struct(Feed)13896_storage": {
        "encoding": "inplace",
        "label": "struct PairsStorage.Feed",
        "members": [
          {
            "astId": 13888,
            "contract": "contracts/PairsStorage.sol:PairsStorage",
            "label": "feed1",
            "offset": 0,
            "slot": "0",
            "type": "t_address"
          },
          {
            "astId": 13890,
            "contract": "contracts/PairsStorage.sol:PairsStorage",
            "label": "feed2",
            "offset": 0,
            "slot": "1",
            "type": "t_address"
          },
          {
            "astId": 13893,
            "contract": "contracts/PairsStorage.sol:PairsStorage",
            "label": "feedCalculation",
            "offset": 20,
            "slot": "1",
            "type": "t_enum(FeedCalculation)13886"
          },
          {
            "astId": 13895,
            "contract": "contracts/PairsStorage.sol:PairsStorage",
            "label": "maxDeviationP",
            "offset": 0,
            "slot": "2",
            "type": "t_uint256"
          }
        ],
        "numberOfBytes": "96"
      },
      "t_struct(Group)13921_storage": {
        "encoding": "inplace",
        "label": "struct PairsStorage.Group",
        "members": [
          {
            "astId": 13912,
            "contract": "contracts/PairsStorage.sol:PairsStorage",
            "label": "name",
            "offset": 0,
            "slot": "0",
            "type": "t_string_storage"
          },
          {
            "astId": 13914,
            "contract": "contracts/PairsStorage.sol:PairsStorage",
            "label": "job",
            "offset": 0,
            "slot": "1",
            "type": "t_bytes32"
          },
          {
            "astId": 13916,
            "contract": "contracts/PairsStorage.sol:PairsStorage",
            "label": "minLeverage",
            "offset": 0,
            "slot": "2",
            "type": "t_uint256"
          },
          {
            "astId": 13918,
            "contract": "contracts/PairsStorage.sol:PairsStorage",
            "label": "maxLeverage",
            "offset": 0,
            "slot": "3",
            "type": "t_uint256"
          },
          {
            "astId": 13920,
            "contract": "contracts/PairsStorage.sol:PairsStorage",
            "label": "maxCollateralP",
            "offset": 0,
            "slot": "4",
            "type": "t_uint256"
          }
        ],
        "numberOfBytes": "160"
      },
      "t_struct(Pair)13910_storage": {
        "encoding": "inplace",
        "label": "struct PairsStorage.Pair",
        "members": [
          {
            "astId": 13898,
            "contract": "contracts/PairsStorage.sol:PairsStorage",
            "label": "from",
            "offset": 0,
            "slot": "0",
            "type": "t_string_storage"
          },
          {
            "astId": 13900,
            "contract": "contracts/PairsStorage.sol:PairsStorage",
            "label": "to",
            "offset": 0,
            "slot": "1",
            "type": "t_string_storage"
          },
          {
            "astId": 13903,
            "contract": "contracts/PairsStorage.sol:PairsStorage",
            "label": "feed",
            "offset": 0,
            "slot": "2",
            "type": "t_struct(Feed)13896_storage"
          },
          {
            "astId": 13905,
            "contract": "contracts/PairsStorage.sol:PairsStorage",
            "label": "spreadP",
            "offset": 0,
            "slot": "5",
            "type": "t_uint256"
          },
          {
            "astId": 13907,
            "contract": "contracts/PairsStorage.sol:PairsStorage",
            "label": "groupIndex",
            "offset": 0,
            "slot": "6",
            "type": "t_uint256"
          },
          {
            "astId": 13909,
            "contract": "contracts/PairsStorage.sol:PairsStorage",
            "label": "feeIndex",
            "offset": 0,
            "slot": "7",
            "type": "t_uint256"
          }
        ],
        "numberOfBytes": "256"
      },
      "t_uint256": {
        "encoding": "inplace",
        "label": "uint256",
        "numberOfBytes": "32"
      },
      "t_uint8": {
        "encoding": "inplace",
        "label": "uint8",
        "numberOfBytes": "1"
      }
    }
  }
}