{
  "address": "0xba63702A252cCeCECA803DCD1bB499298D9B6134",
  "abi": [
    {
      "anonymous": false,
      "inputs": [
        {
          "indexed": false,
          "internalType": "uint256",
          "name": "pairIndex",
          "type": "uint256"
        },
        {
          "indexed": false,
          "internalType": "int256",
          "name": "valueLong",
          "type": "int256"
        },
        {
          "indexed": false,
          "internalType": "int256",
          "name": "valueShort",
          "type": "int256"
        }
      ],
      "name": "AccFundingFeesStored",
      "type": "event"
    },
    {
      "anonymous": false,
      "inputs": [
        {
          "indexed": false,
          "internalType": "uint256",
          "name": "pairIndex",
          "type": "uint256"
        },
        {
          "indexed": false,
          "internalType": "uint256",
          "name": "value",
          "type": "uint256"
        }
      ],
      "name": "AccRolloverFeesStored",
      "type": "event"
    },
    {
      "anonymous": false,
      "inputs": [
        {
          "indexed": false,
          "internalType": "uint256",
          "name": "pairIndex",
          "type": "uint256"
        },
        {
          "indexed": false,
          "internalType": "bool",
          "name": "long",
          "type": "bool"
        },
        {
          "indexed": false,
          "internalType": "uint256",
          "name": "collateral",
          "type": "uint256"
        },
        {
          "indexed": false,
          "internalType": "uint256",
          "name": "leverage",
          "type": "uint256"
        },
        {
          "indexed": false,
          "internalType": "int256",
          "name": "percentProfit",
          "type": "int256"
        },
        {
          "indexed": false,
          "internalType": "uint256",
          "name": "rolloverFees",
          "type": "uint256"
        },
        {
          "indexed": false,
          "internalType": "int256",
          "name": "fundingFees",
          "type": "int256"
        }
      ],
      "name": "FeesCharged",
      "type": "event"
    },
    {
      "anonymous": false,
      "inputs": [
        {
          "indexed": false,
          "internalType": "uint256",
          "name": "pairIndex",
          "type": "uint256"
        },
        {
          "indexed": false,
          "internalType": "uint256",
          "name": "value",
          "type": "uint256"
        }
      ],
      "name": "FundingFeePerBlockPUpdated",
      "type": "event"
    },
    {
      "anonymous": false,
      "inputs": [
        {
          "indexed": false,
          "internalType": "uint8",
          "name": "version",
          "type": "uint8"
        }
      ],
      "name": "Initialized",
      "type": "event"
    },
    {
      "anonymous": false,
      "inputs": [
        {
          "indexed": false,
          "internalType": "address",
          "name": "value",
          "type": "address"
        }
      ],
      "name": "ManagerUpdated",
      "type": "event"
    },
    {
      "anonymous": false,
      "inputs": [
        {
          "indexed": false,
          "internalType": "uint256",
          "name": "value",
          "type": "uint256"
        }
      ],
      "name": "MaxNegativePnlOnOpenPUpdated",
      "type": "event"
    },
    {
      "anonymous": false,
      "inputs": [
        {
          "indexed": false,
          "internalType": "uint256",
          "name": "pairIndex",
          "type": "uint256"
        },
        {
          "indexed": false,
          "internalType": "uint256",
          "name": "valueAbove",
          "type": "uint256"
        },
        {
          "indexed": false,
          "internalType": "uint256",
          "name": "valueBelow",
          "type": "uint256"
        }
      ],
      "name": "OnePercentDepthUpdated",
      "type": "event"
    },
    {
      "anonymous": false,
      "inputs": [
        {
          "indexed": false,
          "internalType": "uint256",
          "name": "pairIndex",
          "type": "uint256"
        },
        {
          "components": [
            {
              "internalType": "uint256",
              "name": "onePercentDepthAbove",
              "type": "uint256"
            },
            {
              "internalType": "uint256",
              "name": "onePercentDepthBelow",
              "type": "uint256"
            },
            {
              "internalType": "uint256",
              "name": "rolloverFeePerBlockP",
              "type": "uint256"
            },
            {
              "internalType": "uint256",
              "name": "fundingFeePerBlockP",
              "type": "uint256"
            }
          ],
          "indexed": false,
          "internalType": "struct PairInfos.PairParams",
          "name": "value",
          "type": "tuple"
        }
      ],
      "name": "PairParamsUpdated",
      "type": "event"
    },
    {
      "anonymous": false,
      "inputs": [
        {
          "indexed": false,
          "internalType": "uint256",
          "name": "pairIndex",
          "type": "uint256"
        },
        {
          "indexed": false,
          "internalType": "uint256",
          "name": "value",
          "type": "uint256"
        }
      ],
      "name": "RolloverFeePerBlockPUpdated",
      "type": "event"
    },
    {
      "anonymous": false,
      "inputs": [
        {
          "indexed": false,
          "internalType": "address",
          "name": "trader",
          "type": "address"
        },
        {
          "indexed": false,
          "internalType": "uint256",
          "name": "pairIndex",
          "type": "uint256"
        },
        {
          "indexed": false,
          "internalType": "uint256",
          "name": "index",
          "type": "uint256"
        },
        {
          "indexed": false,
          "internalType": "uint256",
          "name": "rollover",
          "type": "uint256"
        },
        {
          "indexed": false,
          "internalType": "int256",
          "name": "funding",
          "type": "int256"
        }
      ],
      "name": "TradeInitialAccFeesStored",
      "type": "event"
    },
    {
      "inputs": [
        {
          "internalType": "uint256",
          "name": "pairIndex",
          "type": "uint256"
        }
      ],
      "name": "getAccFundingFeesLong",
      "outputs": [
        {
          "internalType": "int256",
          "name": "",
          "type": "int256"
        }
      ],
      "stateMutability": "view",
      "type": "function"
    },
    {
      "inputs": [
        {
          "internalType": "uint256",
          "name": "pairIndex",
          "type": "uint256"
        }
      ],
      "name": "getAccFundingFeesShort",
      "outputs": [
        {
          "internalType": "int256",
          "name": "",
          "type": "int256"
        }
      ],
      "stateMutability": "view",
      "type": "function"
    },
    {
      "inputs": [
        {
          "internalType": "uint256",
          "name": "pairIndex",
          "type": "uint256"
        }
      ],
      "name": "getAccFundingFeesUpdateBlock",
      "outputs": [
        {
          "internalType": "uint256",
          "name": "",
          "type": "uint256"
        }
      ],
      "stateMutability": "view",
      "type": "function"
    },
    {
      "inputs": [
        {
          "internalType": "uint256",
          "name": "pairIndex",
          "type": "uint256"
        }
      ],
      "name": "getAccRolloverFees",
      "outputs": [
        {
          "internalType": "uint256",
          "name": "",
          "type": "uint256"
        }
      ],
      "stateMutability": "view",
      "type": "function"
    },
    {
      "inputs": [
        {
          "internalType": "uint256",
          "name": "pairIndex",
          "type": "uint256"
        }
      ],
      "name": "getAccRolloverFeesUpdateBlock",
      "outputs": [
        {
          "internalType": "uint256",
          "name": "",
          "type": "uint256"
        }
      ],
      "stateMutability": "view",
      "type": "function"
    },
    {
      "inputs": [
        {
          "internalType": "uint256",
          "name": "pairIndex",
          "type": "uint256"
        }
      ],
      "name": "getFundingFeePerBlockP",
      "outputs": [
        {
          "internalType": "uint256",
          "name": "",
          "type": "uint256"
        }
      ],
      "stateMutability": "view",
      "type": "function"
    },
    {
      "inputs": [
        {
          "internalType": "uint256",
          "name": "pairIndex",
          "type": "uint256"
        }
      ],
      "name": "getOnePercentDepthAbove",
      "outputs": [
        {
          "internalType": "uint256",
          "name": "",
          "type": "uint256"
        }
      ],
      "stateMutability": "view",
      "type": "function"
    },
    {
      "inputs": [
        {
          "internalType": "uint256",
          "name": "pairIndex",
          "type": "uint256"
        }
      ],
      "name": "getOnePercentDepthBelow",
      "outputs": [
        {
          "internalType": "uint256",
          "name": "",
          "type": "uint256"
        }
      ],
      "stateMutability": "view",
      "type": "function"
    },
    {
      "inputs": [
        {
          "internalType": "uint256[]",
          "name": "indices",
          "type": "uint256[]"
        }
      ],
      "name": "getPairInfos",
      "outputs": [
        {
          "components": [
            {
              "internalType": "uint256",
              "name": "onePercentDepthAbove",
              "type": "uint256"
            },
            {
              "internalType": "uint256",
              "name": "onePercentDepthBelow",
              "type": "uint256"
            },
            {
              "internalType": "uint256",
              "name": "rolloverFeePerBlockP",
              "type": "uint256"
            },
            {
              "internalType": "uint256",
              "name": "fundingFeePerBlockP",
              "type": "uint256"
            }
          ],
          "internalType": "struct PairInfos.PairParams[]",
          "name": "",
          "type": "tuple[]"
        },
        {
          "components": [
            {
              "internalType": "uint256",
              "name": "accPerCollateral",
              "type": "uint256"
            },
            {
              "internalType": "uint256",
              "name": "lastUpdateBlock",
              "type": "uint256"
            }
          ],
          "internalType": "struct PairInfos.PairRolloverFees[]",
          "name": "",
          "type": "tuple[]"
        },
        {
          "components": [
            {
              "internalType": "int256",
              "name": "accPerOiLong",
              "type": "int256"
            },
            {
              "internalType": "int256",
              "name": "accPerOiShort",
              "type": "int256"
            },
            {
              "internalType": "uint256",
              "name": "lastUpdateBlock",
              "type": "uint256"
            }
          ],
          "internalType": "struct PairInfos.PairFundingFees[]",
          "name": "",
          "type": "tuple[]"
        }
      ],
      "stateMutability": "view",
      "type": "function"
    },
    {
      "inputs": [
        {
          "internalType": "uint256",
          "name": "pairIndex",
          "type": "uint256"
        }
      ],
      "name": "getPendingAccFundingFees",
      "outputs": [
        {
          "internalType": "int256",
          "name": "valueLong",
          "type": "int256"
        },
        {
          "internalType": "int256",
          "name": "valueShort",
          "type": "int256"
        }
      ],
      "stateMutability": "view",
      "type": "function"
    },
    {
      "inputs": [
        {
          "internalType": "uint256",
          "name": "pairIndex",
          "type": "uint256"
        }
      ],
      "name": "getPendingAccRolloverFees",
      "outputs": [
        {
          "internalType": "uint256",
          "name": "",
          "type": "uint256"
        }
      ],
      "stateMutability": "view",
      "type": "function"
    },
    {
      "inputs": [
        {
          "internalType": "uint256",
          "name": "pairIndex",
          "type": "uint256"
        }
      ],
      "name": "getRolloverFeePerBlockP",
      "outputs": [
        {
          "internalType": "uint256",
          "name": "",
          "type": "uint256"
        }
      ],
      "stateMutability": "view",
      "type": "function"
    },
    {
      "inputs": [
        {
          "internalType": "address",
          "name": "trader",
          "type": "address"
        },
        {
          "internalType": "uint256",
          "name": "pairIndex",
          "type": "uint256"
        },
        {
          "internalType": "uint256",
          "name": "index",
          "type": "uint256"
        },
        {
          "internalType": "bool",
          "name": "long",
          "type": "bool"
        },
        {
          "internalType": "uint256",
          "name": "collateral",
          "type": "uint256"
        },
        {
          "internalType": "uint256",
          "name": "leverage",
          "type": "uint256"
        }
      ],
      "name": "getTradeFundingFee",
      "outputs": [
        {
          "internalType": "int256",
          "name": "",
          "type": "int256"
        }
      ],
      "stateMutability": "view",
      "type": "function"
    },
    {
      "inputs": [
        {
          "internalType": "int256",
          "name": "accFundingFeesPerOi",
          "type": "int256"
        },
        {
          "internalType": "int256",
          "name": "endAccFundingFeesPerOi",
          "type": "int256"
        },
        {
          "internalType": "uint256",
          "name": "collateral",
          "type": "uint256"
        },
        {
          "internalType": "uint256",
          "name": "leverage",
          "type": "uint256"
        }
      ],
      "name": "getTradeFundingFeePure",
      "outputs": [
        {
          "internalType": "int256",
          "name": "",
          "type": "int256"
        }
      ],
      "stateMutability": "pure",
      "type": "function"
    },
    {
      "inputs": [
        {
          "internalType": "address",
          "name": "trader",
          "type": "address"
        },
        {
          "internalType": "uint256",
          "name": "pairIndex",
          "type": "uint256"
        },
        {
          "internalType": "uint256",
          "name": "index",
          "type": "uint256"
        }
      ],
      "name": "getTradeInitialAccFundingFeesPerOi",
      "outputs": [
        {
          "internalType": "int256",
          "name": "",
          "type": "int256"
        }
      ],
      "stateMutability": "view",
      "type": "function"
    },
    {
      "inputs": [
        {
          "internalType": "address",
          "name": "trader",
          "type": "address"
        },
        {
          "internalType": "uint256",
          "name": "pairIndex",
          "type": "uint256"
        },
        {
          "internalType": "uint256",
          "name": "index",
          "type": "uint256"
        }
      ],
      "name": "getTradeInitialAccRolloverFeesPerCollateral",
      "outputs": [
        {
          "internalType": "uint256",
          "name": "",
          "type": "uint256"
        }
      ],
      "stateMutability": "view",
      "type": "function"
    },
    {
      "inputs": [
        {
          "internalType": "address",
          "name": "trader",
          "type": "address"
        },
        {
          "internalType": "uint256",
          "name": "pairIndex",
          "type": "uint256"
        },
        {
          "internalType": "uint256",
          "name": "index",
          "type": "uint256"
        },
        {
          "internalType": "uint256",
          "name": "openPrice",
          "type": "uint256"
        },
        {
          "internalType": "bool",
          "name": "long",
          "type": "bool"
        },
        {
          "internalType": "uint256",
          "name": "collateral",
          "type": "uint256"
        },
        {
          "internalType": "uint256",
          "name": "leverage",
          "type": "uint256"
        }
      ],
      "name": "getTradeLiquidationPrice",
      "outputs": [
        {
          "internalType": "uint256",
          "name": "",
          "type": "uint256"
        }
      ],
      "stateMutability": "view",
      "type": "function"
    },
    {
      "inputs": [
        {
          "internalType": "uint256",
          "name": "openPrice",
          "type": "uint256"
        },
        {
          "internalType": "bool",
          "name": "long",
          "type": "bool"
        },
        {
          "internalType": "uint256",
          "name": "collateral",
          "type": "uint256"
        },
        {
          "internalType": "uint256",
          "name": "leverage",
          "type": "uint256"
        },
        {
          "internalType": "uint256",
          "name": "rolloverFee",
          "type": "uint256"
        },
        {
          "internalType": "int256",
          "name": "fundingFee",
          "type": "int256"
        }
      ],
      "name": "getTradeLiquidationPricePure",
      "outputs": [
        {
          "internalType": "uint256",
          "name": "",
          "type": "uint256"
        }
      ],
      "stateMutability": "pure",
      "type": "function"
    },
    {
      "inputs": [
        {
          "internalType": "address",
          "name": "trader",
          "type": "address"
        },
        {
          "internalType": "uint256",
          "name": "pairIndex",
          "type": "uint256"
        },
        {
          "internalType": "uint256",
          "name": "index",
          "type": "uint256"
        }
      ],
      "name": "getTradeOpenedAfterUpdate",
      "outputs": [
        {
          "internalType": "bool",
          "name": "",
          "type": "bool"
        }
      ],
      "stateMutability": "view",
      "type": "function"
    },
    {
      "inputs": [
        {
          "internalType": "uint256",
          "name": "openPrice",
          "type": "uint256"
        },
        {
          "internalType": "bool",
          "name": "long",
          "type": "bool"
        },
        {
          "internalType": "uint256",
          "name": "collateral",
          "type": "uint256"
        },
        {
          "internalType": "uint256",
          "name": "leverage",
          "type": "uint256"
        },
        {
          "internalType": "uint256",
          "name": "rolloverFee",
          "type": "uint256"
        },
        {
          "internalType": "int256",
          "name": "fundingFee",
          "type": "int256"
        }
      ],
      "name": "getTradePartialLiquidationPrice",
      "outputs": [
        {
          "internalType": "uint256",
          "name": "",
          "type": "uint256"
        }
      ],
      "stateMutability": "pure",
      "type": "function"
    },
    {
      "inputs": [
        {
          "internalType": "uint256",
          "name": "openPrice",
          "type": "uint256"
        },
        {
          "internalType": "uint256",
          "name": "pairIndex",
          "type": "uint256"
        },
        {
          "internalType": "bool",
          "name": "long",
          "type": "bool"
        },
        {
          "internalType": "uint256",
          "name": "tradeOpenInterest",
          "type": "uint256"
        }
      ],
      "name": "getTradePriceImpact",
      "outputs": [
        {
          "internalType": "uint256",
          "name": "priceImpactP",
          "type": "uint256"
        },
        {
          "internalType": "uint256",
          "name": "priceAfterImpact",
          "type": "uint256"
        }
      ],
      "stateMutability": "view",
      "type": "function"
    },
    {
      "inputs": [
        {
          "internalType": "uint256",
          "name": "openPrice",
          "type": "uint256"
        },
        {
          "internalType": "bool",
          "name": "long",
          "type": "bool"
        },
        {
          "internalType": "uint256",
          "name": "startOpenInterest",
          "type": "uint256"
        },
        {
          "internalType": "uint256",
          "name": "tradeOpenInterest",
          "type": "uint256"
        },
        {
          "internalType": "uint256",
          "name": "onePercentDepth",
          "type": "uint256"
        }
      ],
      "name": "getTradePriceImpactPure",
      "outputs": [
        {
          "internalType": "uint256",
          "name": "priceImpactP",
          "type": "uint256"
        },
        {
          "internalType": "uint256",
          "name": "priceAfterImpact",
          "type": "uint256"
        }
      ],
      "stateMutability": "pure",
      "type": "function"
    },
    {
      "inputs": [
        {
          "internalType": "address",
          "name": "trader",
          "type": "address"
        },
        {
          "internalType": "uint256",
          "name": "pairIndex",
          "type": "uint256"
        },
        {
          "internalType": "uint256",
          "name": "index",
          "type": "uint256"
        },
        {
          "internalType": "uint256",
          "name": "collateral",
          "type": "uint256"
        }
      ],
      "name": "getTradeRolloverFee",
      "outputs": [
        {
          "internalType": "uint256",
          "name": "",
          "type": "uint256"
        }
      ],
      "stateMutability": "view",
      "type": "function"
    },
    {
      "inputs": [
        {
          "internalType": "uint256",
          "name": "accRolloverFeesPerCollateral",
          "type": "uint256"
        },
        {
          "internalType": "uint256",
          "name": "endAccRolloverFeesPerCollateral",
          "type": "uint256"
        },
        {
          "internalType": "uint256",
          "name": "collateral",
          "type": "uint256"
        }
      ],
      "name": "getTradeRolloverFeePure",
      "outputs": [
        {
          "internalType": "uint256",
          "name": "",
          "type": "uint256"
        }
      ],
      "stateMutability": "pure",
      "type": "function"
    },
    {
      "inputs": [
        {
          "internalType": "address",
          "name": "trader",
          "type": "address"
        },
        {
          "internalType": "uint256",
          "name": "pairIndex",
          "type": "uint256"
        },
        {
          "internalType": "uint256",
          "name": "index",
          "type": "uint256"
        },
        {
          "internalType": "bool",
          "name": "long",
          "type": "bool"
        },
        {
          "internalType": "uint256",
          "name": "collateral",
          "type": "uint256"
        },
        {
          "internalType": "uint256",
          "name": "leverage",
          "type": "uint256"
        },
        {
          "internalType": "int256",
          "name": "percentProfit",
          "type": "int256"
        },
        {
          "internalType": "uint256",
          "name": "closingFee",
          "type": "uint256"
        }
      ],
      "name": "getTradeValue",
      "outputs": [
        {
          "internalType": "uint256",
          "name": "amount",
          "type": "uint256"
        }
      ],
      "stateMutability": "nonpayable",
      "type": "function"
    },
    {
      "inputs": [
        {
          "internalType": "uint256",
          "name": "collateral",
          "type": "uint256"
        },
        {
          "internalType": "int256",
          "name": "percentProfit",
          "type": "int256"
        },
        {
          "internalType": "uint256",
          "name": "rolloverFee",
          "type": "uint256"
        },
        {
          "internalType": "int256",
          "name": "fundingFee",
          "type": "int256"
        },
        {
          "internalType": "uint256",
          "name": "closingFee",
          "type": "uint256"
        }
      ],
      "name": "getTradeValuePure",
      "outputs": [
        {
          "internalType": "uint256",
          "name": "",
          "type": "uint256"
        }
      ],
      "stateMutability": "view",
      "type": "function"
    },
    {
      "inputs": [
        {
          "internalType": "contract StorageInterface",
          "name": "_storageT",
          "type": "address"
        }
      ],
      "name": "initialize",
      "outputs": [],
      "stateMutability": "nonpayable",
      "type": "function"
    },
    {
      "inputs": [],
      "name": "manager",
      "outputs": [
        {
          "internalType": "address",
          "name": "",
          "type": "address"
        }
      ],
      "stateMutability": "view",
      "type": "function"
    },
    {
      "inputs": [],
      "name": "maxNegativePnlOnOpenP",
      "outputs": [
        {
          "internalType": "uint256",
          "name": "",
          "type": "uint256"
        }
      ],
      "stateMutability": "view",
      "type": "function"
    },
    {
      "inputs": [
        {
          "internalType": "uint256",
          "name": "",
          "type": "uint256"
        }
      ],
      "name": "pairFundingFees",
      "outputs": [
        {
          "internalType": "int256",
          "name": "accPerOiLong",
          "type": "int256"
        },
        {
          "internalType": "int256",
          "name": "accPerOiShort",
          "type": "int256"
        },
        {
          "internalType": "uint256",
          "name": "lastUpdateBlock",
          "type": "uint256"
        }
      ],
      "stateMutability": "view",
      "type": "function"
    },
    {
      "inputs": [
        {
          "internalType": "uint256",
          "name": "",
          "type": "uint256"
        }
      ],
      "name": "pairParams",
      "outputs": [
        {
          "internalType": "uint256",
          "name": "onePercentDepthAbove",
          "type": "uint256"
        },
        {
          "internalType": "uint256",
          "name": "onePercentDepthBelow",
          "type": "uint256"
        },
        {
          "internalType": "uint256",
          "name": "rolloverFeePerBlockP",
          "type": "uint256"
        },
        {
          "internalType": "uint256",
          "name": "fundingFeePerBlockP",
          "type": "uint256"
        }
      ],
      "stateMutability": "view",
      "type": "function"
    },
    {
      "inputs": [
        {
          "internalType": "uint256",
          "name": "",
          "type": "uint256"
        }
      ],
      "name": "pairRolloverFees",
      "outputs": [
        {
          "internalType": "uint256",
          "name": "accPerCollateral",
          "type": "uint256"
        },
        {
          "internalType": "uint256",
          "name": "lastUpdateBlock",
          "type": "uint256"
        }
      ],
      "stateMutability": "view",
      "type": "function"
    },
    {
      "inputs": [
        {
          "internalType": "uint256",
          "name": "pairIndex",
          "type": "uint256"
        }
      ],
      "name": "setFundingFeePerBlockP",
      "outputs": [],
      "stateMutability": "nonpayable",
      "type": "function"
    },
    {
      "inputs": [
        {
          "internalType": "uint256[]",
          "name": "indices",
          "type": "uint256[]"
        }
      ],
      "name": "setFundingFeePerBlockPArray",
      "outputs": [],
      "stateMutability": "nonpayable",
      "type": "function"
    },
    {
      "inputs": [
        {
          "internalType": "address",
          "name": "_manager",
          "type": "address"
        }
      ],
      "name": "setManager",
      "outputs": [],
      "stateMutability": "nonpayable",
      "type": "function"
    },
    {
      "inputs": [
        {
          "internalType": "uint256",
          "name": "value",
          "type": "uint256"
        }
      ],
      "name": "setMaxNegativePnlOnOpenP",
      "outputs": [],
      "stateMutability": "nonpayable",
      "type": "function"
    },
    {
      "inputs": [
        {
          "internalType": "uint256",
          "name": "pairIndex",
          "type": "uint256"
        },
        {
          "internalType": "uint256",
          "name": "valueAbove",
          "type": "uint256"
        },
        {
          "internalType": "uint256",
          "name": "valueBelow",
          "type": "uint256"
        }
      ],
      "name": "setOnePercentDepth",
      "outputs": [],
      "stateMutability": "nonpayable",
      "type": "function"
    },
    {
      "inputs": [
        {
          "internalType": "uint256[]",
          "name": "indices",
          "type": "uint256[]"
        },
        {
          "internalType": "uint256[]",
          "name": "valuesAbove",
          "type": "uint256[]"
        },
        {
          "internalType": "uint256[]",
          "name": "valuesBelow",
          "type": "uint256[]"
        }
      ],
      "name": "setOnePercentDepthArray",
      "outputs": [],
      "stateMutability": "nonpayable",
      "type": "function"
    },
    {
      "inputs": [
        {
          "internalType": "uint256",
          "name": "pairIndex",
          "type": "uint256"
        },
        {
          "components": [
            {
              "internalType": "uint256",
              "name": "onePercentDepthAbove",
              "type": "uint256"
            },
            {
              "internalType": "uint256",
              "name": "onePercentDepthBelow",
              "type": "uint256"
            },
            {
              "internalType": "uint256",
              "name": "rolloverFeePerBlockP",
              "type": "uint256"
            },
            {
              "internalType": "uint256",
              "name": "fundingFeePerBlockP",
              "type": "uint256"
            }
          ],
          "internalType": "struct PairInfos.PairParams",
          "name": "value",
          "type": "tuple"
        }
      ],
      "name": "setPairParams",
      "outputs": [],
      "stateMutability": "nonpayable",
      "type": "function"
    },
    {
      "inputs": [
        {
          "internalType": "uint256[]",
          "name": "indices",
          "type": "uint256[]"
        },
        {
          "components": [
            {
              "internalType": "uint256",
              "name": "onePercentDepthAbove",
              "type": "uint256"
            },
            {
              "internalType": "uint256",
              "name": "onePercentDepthBelow",
              "type": "uint256"
            },
            {
              "internalType": "uint256",
              "name": "rolloverFeePerBlockP",
              "type": "uint256"
            },
            {
              "internalType": "uint256",
              "name": "fundingFeePerBlockP",
              "type": "uint256"
            }
          ],
          "internalType": "struct PairInfos.PairParams[]",
          "name": "values",
          "type": "tuple[]"
        }
      ],
      "name": "setPairParamsArray",
      "outputs": [],
      "stateMutability": "nonpayable",
      "type": "function"
    },
    {
      "inputs": [
        {
          "internalType": "uint256",
          "name": "pairIndex",
          "type": "uint256"
        },
        {
          "internalType": "uint256",
          "name": "value",
          "type": "uint256"
        }
      ],
      "name": "setRolloverFeePerBlockP",
      "outputs": [],
      "stateMutability": "nonpayable",
      "type": "function"
    },
    {
      "inputs": [
        {
          "internalType": "uint256[]",
          "name": "indices",
          "type": "uint256[]"
        },
        {
          "internalType": "uint256[]",
          "name": "values",
          "type": "uint256[]"
        }
      ],
      "name": "setRolloverFeePerBlockPArray",
      "outputs": [],
      "stateMutability": "nonpayable",
      "type": "function"
    },
    {
      "inputs": [],
      "name": "storageT",
      "outputs": [
        {
          "internalType": "contract StorageInterface",
          "name": "",
          "type": "address"
        }
      ],
      "stateMutability": "view",
      "type": "function"
    },
    {
      "inputs": [
        {
          "internalType": "address",
          "name": "trader",
          "type": "address"
        },
        {
          "internalType": "uint256",
          "name": "pairIndex",
          "type": "uint256"
        },
        {
          "internalType": "uint256",
          "name": "index",
          "type": "uint256"
        },
        {
          "internalType": "bool",
          "name": "long",
          "type": "bool"
        }
      ],
      "name": "storeTradeInitialAccFees",
      "outputs": [],
      "stateMutability": "nonpayable",
      "type": "function"
    },
    {
      "inputs": [
        {
          "internalType": "address",
          "name": "",
          "type": "address"
        },
        {
          "internalType": "uint256",
          "name": "",
          "type": "uint256"
        },
        {
          "internalType": "uint256",
          "name": "",
          "type": "uint256"
        }
      ],
      "name": "tradeInitialAccFees",
      "outputs": [
        {
          "internalType": "uint256",
          "name": "rollover",
          "type": "uint256"
        },
        {
          "internalType": "int256",
          "name": "funding",
          "type": "int256"
        },
        {
          "internalType": "bool",
          "name": "openedAfterUpdate",
          "type": "bool"
        }
      ],
      "stateMutability": "view",
      "type": "function"
    }
  ],
  "transactionHash": "0x2c90b6a449a465e4e27a110880dc63a0181003c37152bd99623f616769df14a0",
  "args": [],
  "numDeployments": 1,
  "solcInputHash": "5af97cf568aedef2eac0d2ad801f242e",
  "bytecode": "0x60806040526100146402540be4006028610029565b60025534801561002357600080fd5b50610054565b808202811582820484141761004e57634e487b7160e01b600052601160045260246000fd5b92915050565b61292480620000646000396000f3fe608060405234801561001057600080fd5b506004361061027f5760003560e01c80636bcbe8601161015c578063b74243ba116100ce578063ee52e5fe11610087578063ee52e5fe1461073d578063f0270f331461075d578063f696065414610781578063f6c50efe14610794578063fcc37c87146107a7578063fe3cfd8c146107ba57600080fd5b8063b74243ba146106aa578063bf1db1f6146106bd578063c22ff7bf146106e4578063c4d66de8146106f7578063cfc23e9e1461070a578063d0ebdbe71461072a57600080fd5b806380f6cfc21161012057806380f6cfc21461060b5780639c625e1e146106145780639cf9c93914610627578063a77e8e2a14610671578063ab21a05c14610684578063ab7baf041461069757600080fd5b80636bcbe860146105ac5780636ceaca67146105bf5780636f6af697146105d25780637884274f146105e55780637ea95f32146105f857600080fd5b806331556d2f116101f557806342dee1ad116101b957806342dee1ad1461047857806346dbab36146104cf578063481c6a751461051357806358f796bc146105265780635ed5804e146105395780636bc84d591461059957600080fd5b806331556d2f14610409578063338139ad1461041c578063351533e71461043f5780633598b0cc146104525780633df7fd721461046557600080fd5b806312fdefd91161024757806312fdefd91461033457806316fff0741461035c57806321adc48f1461038d5780632b180a7d146103b05780632d0a5fd4146103d35780632d15e4e0146103e657600080fd5b80630dd34f57146102845780630e0052fc146102ac5780630e6bc39a146102dd5780630ea77770146102f257806312b6566e14610314575b600080fd5b610297610292366004611e8d565b6107fb565b60405190151581526020015b60405180910390f35b6102cf6102ba366004611ec2565b60009081526005602052604090206001015490565b6040519081526020016102a3565b6102f06102eb366004611ef0565b610835565b005b610305610300366004612010565b6109c9565b6040516102a393929190612096565b6102cf610322366004611ec2565b60009081526005602052604090205490565b610347610342366004612151565b610c6a565b604080519283526020830191909152016102a3565b600054610375906201000090046001600160a01b031681565b6040516001600160a01b0390911681526020016102a3565b6102cf61039b366004611ec2565b60009081526004602052604090206001015490565b6102cf6103be366004611ec2565b60009081526003602052604090206001015490565b6102f06103e1366004612010565b610d1b565b6102cf6103f4366004611ec2565b60009081526004602052604090206002015490565b6102f06104173660046121fc565b610d7f565b6102cf61042a366004611ec2565b60009081526003602052604090206002015490565b6102f061044d3660046122c7565b610e1f565b6102f0610460366004611ec2565b610ee7565b6102f061047336600461234e565b610ef3565b6104af610486366004611ec2565b600360208190526000918252604090912080546001820154600283015492909301549092919084565b6040805194855260208501939093529183015260608201526080016102a3565b6102cf6104dd366004611e8d565b6001600160a01b038316600090815260066020908152604080832085845282528083208484529091529020600101549392505050565b600154610375906001600160a01b031681565b6102cf61053436600461237b565b610f9b565b61057c610547366004611e8d565b600660209081526000938452604080852082529284528284209052825290208054600182015460029092015490919060ff1683565b6040805193845260208401929092521515908201526060016102a3565b6102cf6105a73660046123b6565b61101c565b6102cf6105ba36600461241b565b61104b565b6102cf6105cd366004612469565b6110df565b6102f06105e03660046124d5565b61122d565b6102f06105f3366004611ec2565b6112c8565b610347610606366004612538565b61132e565b6102cf60025481565b6102cf610622366004612575565b611406565b610656610635366004611ec2565b60046020526000908152604090208054600182015460029092015490919083565b604080519384526020840192909252908201526060016102a3565b6102cf61067f3660046125a1565b611430565b6102cf610692366004611ec2565b61146e565b6102cf6106a536600461241b565b6114e7565b6102f06106b83660046125d3565b6114fb565b6103476106cb366004611ec2565b6005602052600090815260409020805460019091015482565b6102cf6106f23660046125f5565b61159d565b6102f0610705366004612630565b611641565b6102cf610718366004611ec2565b60009081526003602052604090205490565b6102f0610738366004612630565b611765565b6102cf61074b366004611ec2565b60009081526004602052604090205490565b6102cf61076b366004611ec2565b6000908152600360208190526040909120015490565b6102f061078f366004612575565b611875565b6102cf6107a236600461264d565b6118ff565b6103476107b5366004611ec2565b611999565b6102cf6107c8366004611e8d565b6001600160a01b038316600090815260066020908152604080832085845282528083208484529091529020549392505050565b6001600160a01b0383166000908152600660209081526040808320858452825280832084845290915290206002015460ff165b9392505050565b600060029054906101000a90046001600160a01b03166001600160a01b031662b127836040518163ffffffff1660e01b8152600401602060405180830381865afa158015610887573d6000803e3d6000fd5b505050506040513d601f19601f820116820180604052508101906108ab91906126a7565b6001600160a01b0316336001600160a01b0316146108e45760405162461bcd60e51b81526004016108db906126c4565b60405180910390fd5b6108ed83611b97565b6001600160a01b0384166000908152600660209081526040808320868452825280832085845290915290206109218461146e565b81558161093f5760008481526004602052604090206001015461094f565b6000848152600460205260409020545b600182810182905560028301805460ff191690911790558154604080516001600160a01b038916815260208101889052908101869052606081019190915260808101919091527f4e58eed9e01cebfd4256725d6d1ce9fa694faa7ac5312e75af02360f453d048e9060a00160405180910390a15050505050565b6060806060600084516001600160401b038111156109e9576109e9611f38565b604051908082528060200260200182016040528015610a4557816020015b610a326040518060800160405280600081526020016000815260200160008152602001600081525090565b815260200190600190039081610a075790505b509050600085516001600160401b03811115610a6357610a63611f38565b604051908082528060200260200182016040528015610aa857816020015b6040805180820190915260008082526020820152815260200190600190039081610a815790505b509050600086516001600160401b03811115610ac657610ac6611f38565b604051908082528060200260200182016040528015610b1b57816020015b610b0860405180606001604052806000815260200160008152602001600081525090565b815260200190600190039081610ae45790505b50905060005b8751811015610c5c576000888281518110610b3e57610b3e6126ec565b6020026020010151905060036000828152602001908152602001600020604051806080016040529081600082015481526020016001820154815260200160028201548152602001600382015481525050858381518110610ba057610ba06126ec565b60200260200101819052506005600082815260200190815260200160002060405180604001604052908160008201548152602001600182015481525050848381518110610bef57610bef6126ec565b6020026020010181905250600460008281526020019081526020016000206040518060600160405290816000820154815260200160018201548152602001600282015481525050838381518110610c4857610c486126ec565b602090810291909101015250600101610b21565b509196909550909350915050565b60008082600003610c8057506000905085610d11565b82670de0b6b3a76400006402540be400610c9b60028861272e565b610ca59089612742565b610caf919061275b565b610cb9919061272e565b610cc3919061272e565b9150600060646402540be400610cd98a8661275b565b610ce3919061272e565b610ced919061272e565b905086610d0357610cfe8189612772565b610d0d565b610d0d8189612742565b9150505b9550959350505050565b6001546001600160a01b03163314610d455760405162461bcd60e51b81526004016108db90612785565b60005b8151811015610d7b57610d73828281518110610d6657610d666126ec565b6020026020010151611b97565b600101610d48565b5050565b6001546001600160a01b03163314610da95760405162461bcd60e51b81526004016108db90612785565b8051825114610dca5760405162461bcd60e51b81526004016108db906127ab565b60005b8251811015610e1a57610e12838281518110610deb57610deb6126ec565b6020026020010151838381518110610e0557610e056126ec565b6020026020010151610ef3565b600101610dcd565b505050565b6001546001600160a01b03163314610e495760405162461bcd60e51b81526004016108db90612785565b81518351148015610e5b575080518351145b610e775760405162461bcd60e51b81526004016108db906127ab565b60005b8351811015610ee157610ed9848281518110610e9857610e986126ec565b6020026020010151848381518110610eb257610eb26126ec565b6020026020010151848481518110610ecc57610ecc6126ec565b6020026020010151611875565b600101610e7a565b50505050565b610ef081611b97565b50565b6001546001600160a01b03163314610f1d5760405162461bcd60e51b81526004016108db90612785565b610f2682611d18565b610f2f82611d77565b600082815260036020818152604092839020845181559084015160018201558284015160028201556060840151910155517f901e66575b0aecca6e394d488bfe990ff28995f6da67ef2fe1d6c900b6573a0390610f8f90849084906127d1565b60405180910390a15050565b6001600160a01b0384166000908152600660209081526040808320868452825280832085845282528083208151606081018352815481526001820154938101939093526002015460ff161515908201819052610ffb576000915050611014565b80516110109061100a8761146e565b85611406565b9150505b949350505050565b600061103f858585856110318d8d8d8b610f9b565b6105ba8e8e8e8d8d8d6118ff565b98975050505050505050565b60008084868486606461105f605a8561275b565b611069919061272e565b6110739190612806565b61107d9190612806565b611087908b61282d565b611091919061285d565b61109b919061285d565b90506000876110b3576110ae828a61288b565b6110bd565b6110bd828a612806565b9050600081136110ce5760006110d0565b805b925050505b9695505050505050565b60008060029054906101000a90046001600160a01b03166001600160a01b031662b127836040518163ffffffff1660e01b8152600401602060405180830381865afa158015611132573d6000803e3d6000fd5b505050506040513d601f19601f8201168201806040525081019061115691906126a7565b6001600160a01b0316336001600160a01b0316146111865760405162461bcd60e51b81526004016108db906126c4565b61118f88611b97565b600061119d8a8a8a89610f9b565b905060006111af8b8b8b8b8b8b6118ff565b90506111be878684848861159d565b604080518c81528a15156020820152908101899052606081018890526080810187905260a0810184905260c081018390529093507f3a484d35e7358ad950e494938ebbac2c1319c2b76d162112f51d66752244dde39060e00160405180910390a1505098975050505050505050565b6001546001600160a01b031633146112575760405162461bcd60e51b81526004016108db90612785565b80518251146112785760405162461bcd60e51b81526004016108db906127ab565b60005b8251811015610e1a576112c0838281518110611299576112996126ec565b60200260200101518383815181106112b3576112b36126ec565b60200260200101516114fb565b60010161127b565b6001546001600160a01b031633146112f25760405162461bcd60e51b81526004016108db90612785565b60028190556040518181527f5ba729b89796f40d260b117b8654dc301b1d9f7ec17a1e378ae31e4c70b6d2c0906020015b60405180910390a150565b6000805481906113f990879086906201000090046001600160a01b03166377a9fdcf898361135d576001611360565b60005b6040516001600160e01b031960e085901b168152600481019290925260ff166024820152604401602060405180830381865afa1580156113a4573d6000803e3d6000fd5b505050506040513d601f19601f820116820180604052508101906113c891906128b3565b86886113e55760008a815260036020526040902060010154610c6a565b60008a815260036020526040902054610c6a565b9097909650945050505050565b6000670de0b6b3a76400008261141c8686612772565b611426919061275b565b611014919061272e565b6000670de0b6b3a764000082846114478888612806565b611451919061282d565b61145b919061282d565b611465919061285d565b95945050505050565b6000818152600560209081526040808320600390925282206002015460018201546064916402540be400916114a1611de5565b6114ab9190612772565b6114b5919061275b565b6114c790670de0b6b3a764000061275b565b6114d1919061272e565b6114db919061272e565b815461082e9190612742565b60008084868486606461105f60508561275b565b6001546001600160a01b031633146115255760405162461bcd60e51b81526004016108db90612785565b63017d78408111156115495760405162461bcd60e51b81526004016108db906128cc565b61155282611d18565b60008281526003602090815260409182902060020183905581518481529081018390527f048ce436ab4f2632f2aac62af26be3383ebdf5efc9a63f0bbeb6d6c9762d70899101610f8f565b600080838560646402540be4006115b48a8c61282d565b6115be919061285d565b6115c8919061285d565b6115d2908a61288b565b6115dc9190612806565b6115e69190612806565b905060646115f5605a82612772565b6115ff908961282d565b611609919061285d565b8113611619576000915050611465565b6116238382612806565b905060008113611634576000611636565b805b979650505050505050565b600054610100900460ff16158080156116615750600054600160ff909116105b8061167b5750303b15801561167b575060005460ff166001145b6116de5760405162461bcd60e51b815260206004820152602e60248201527f496e697469616c697a61626c653a20636f6e747261637420697320616c72656160448201526d191e481a5b9a5d1a585b1a5e995960921b60648201526084016108db565b6000805460ff191660011790558015611701576000805461ff0019166101001790555b6000805462010000600160b01b031916620100006001600160a01b038516021790558015610d7b576000805461ff0019169055604051600181527f7f26b83ff96e1f2b6a682f133852f6798a09c465da95921460cefb384740249890602001610f8f565b600060029054906101000a90046001600160a01b03166001600160a01b03166312d43a516040518163ffffffff1660e01b8152600401602060405180830381865afa1580156117b8573d6000803e3d6000fd5b505050506040513d601f19601f820116820180604052508101906117dc91906126a7565b6001600160a01b0316336001600160a01b0316146118275760405162461bcd60e51b8152602060048201526008602482015267474f565f4f4e4c5960c01b60448201526064016108db565b600180546001600160a01b0319166001600160a01b0383169081179091556040519081527f2c1c11af44aa5608f1dca38c00275c30ea091e02417d36e70e9a1538689c433d90602001611323565b6001546001600160a01b0316331461189f5760405162461bcd60e51b81526004016108db90612785565b6000838152600360209081526040918290208481556001810184905582518681529182018590529181018390527f1daeaff85d4d7cfda495ef83720a04b81df77e38711ca570061e16efa6ffa2759060600160405180910390a150505050565b6001600160a01b0386166000908152600660209081526040808320888452825280832087845282528083208151606081018352815481526001820154938101939093526002015460ff16151590820181905261195f5760009150506110d5565b60008061196b89611999565b9150915061198b8360200151886119825782611984565b835b8888611430565b9a9950505050505050505050565b600081815260046020819052604080832080546001820154855493516377a9fdcf60e01b8152948501879052602485018690529094909391929091620100009091046001600160a01b0316906377a9fdcf90604401602060405180830381865afa158015611a0b573d6000803e3d6000fd5b505050506040513d601f19601f82011682018060405250810190611a2f91906128b3565b600080546040516377a9fdcf60e01b815260048101899052600160248201529293509091620100009091046001600160a01b0316906377a9fdcf90604401602060405180830381865afa158015611a8a573d6000803e3d6000fd5b505050506040513d601f19601f82011682018060405250810190611aae91906128b3565b9050600060646402540be400600360008a8152602001908152602001600020600301548660020154611ade611de5565b611ae89190612772565b611af28688612806565b611afc919061282d565b611b06919061282d565b611b10919061285d565b611b1a919061285d565b90506000831315611b4f5782611b3882670de0b6b3a764000061282d565b611b42919061285d565b611b4c908761288b565b95505b6000821315611b8e5781611b6b82670de0b6b3a764000061282d565b611b779060001961282d565b611b81919061285d565b611b8b908661288b565b94505b50505050915091565b60008060029054906101000a90046001600160a01b03166001600160a01b0316637dc0d1d06040518163ffffffff1660e01b8152600401602060405180830381865afa158015611beb573d6000803e3d6000fd5b505050506040513d601f19601f82011682018060405250810190611c0f91906126a7565b6001600160a01b03166380463406836040518263ffffffff1660e01b8152600401611c3c91815260200190565b602060405180830381865afa158015611c59573d6000803e3d6000fd5b505050506040513d601f19601f82011682018060405250810190611c7d91906128b3565b905062989680811115611ca25760405162461bcd60e51b81526004016108db906128cc565b611cab82611d77565b60008281526003602081905260409091200154818114610e1a5760008381526003602081815260409283902090910184905581518581529081018490527fbe762e88e6ff669d272010f163dfb3c6d389b16831c73e10f95860b2e4f15298910160405180910390a1505050565b6000818152600560205260409020611d2f8261146e565b8155611d39611de5565b600182015580546040805184815260208101929092527f66ae41afb9d1762b0b5f1a431a9e5c767128a1bec9ecb20e1ef9dba7dc3663d69101610f8f565b6000818152600460205260409020611d8e82611999565b60018301558155611d9d611de5565b6002820155805460018201546040805185815260208101939093528201527fc08ace100a8e3b7186ad5fcb68a0b9e7e0bd60aa466cdba34932fa0513353c6490606001610f8f565b600061a4b1461480611df9575062066eed46145b80611e06575062066eee46145b15611e735760646001600160a01b031663a3b1b31d6040518163ffffffff1660e01b8152600401602060405180830381865afa158015611e4a573d6000803e3d6000fd5b505050506040513d601f19601f82011682018060405250810190611e6e91906128b3565b905090565b504390565b6001600160a01b0381168114610ef057600080fd5b600080600060608486031215611ea257600080fd5b8335611ead81611e78565b95602085013595506040909401359392505050565b600060208284031215611ed457600080fd5b5035919050565b80358015158114611eeb57600080fd5b919050565b60008060008060808587031215611f0657600080fd5b8435611f1181611e78565b93506020850135925060408501359150611f2d60608601611edb565b905092959194509250565b634e487b7160e01b600052604160045260246000fd5b604051601f8201601f191681016001600160401b0381118282101715611f7657611f76611f38565b604052919050565b60006001600160401b03821115611f9757611f97611f38565b5060051b60200190565b600082601f830112611fb257600080fd5b81356020611fc7611fc283611f7e565b611f4e565b8083825260208201915060208460051b870101935086841115611fe957600080fd5b602086015b848110156120055780358352918301918301611fee565b509695505050505050565b60006020828403121561202257600080fd5b81356001600160401b0381111561203857600080fd5b61101484828501611fa1565b60008151808452602080850194506020840160005b8381101561208b5781518051885283810151848901526040908101519088015260609096019590820190600101612059565b509495945050505050565b60608082528451908201819052600090608090818401906020808901855b838110156120f8576120e8858351805182526020810151602083015260408101516040830152606081015160608301525050565b93850193908201906001016120b4565b5050858303818701528751808452928101935087810192915060005b8281101561213b578351805186528201518286015260409094019392810192600101612114565b5050505082810360408401526110108185612044565b600080600080600060a0868803121561216957600080fd5b8535945061217960208701611edb565b94979496505050506040830135926060810135926080909101359150565b6000608082840312156121a957600080fd5b604051608081018181106001600160401b03821117156121cb576121cb611f38565b8060405250809150823581526020830135602082015260408301356040820152606083013560608201525092915050565b6000806040838503121561220f57600080fd5b82356001600160401b038082111561222657600080fd5b61223286838701611fa1565b93506020915060208501358181111561224a57600080fd5b85019050601f8101861361225d57600080fd5b803561226b611fc282611f7e565b8082825260208201915060208360071b85010192508883111561228d57600080fd5b6020840193505b828410156122b8576122a68985612197565b82528482019150608084019350612294565b80955050505050509250929050565b6000806000606084860312156122dc57600080fd5b83356001600160401b03808211156122f357600080fd5b6122ff87838801611fa1565b9450602086013591508082111561231557600080fd5b61232187838801611fa1565b9350604086013591508082111561233757600080fd5b5061234486828701611fa1565b9150509250925092565b60008060a0838503121561236157600080fd5b823591506123728460208501612197565b90509250929050565b6000806000806080858703121561239157600080fd5b843561239c81611e78565b966020860135965060408601359560600135945092505050565b600080600080600080600060e0888a0312156123d157600080fd5b87356123dc81611e78565b96506020880135955060408801359450606088013593506123ff60808901611edb565b925060a0880135915060c0880135905092959891949750929550565b60008060008060008060c0878903121561243457600080fd5b8635955061244460208801611edb565b95989597505050506040840135936060810135936080820135935060a0909101359150565b600080600080600080600080610100898b03121561248657600080fd5b883561249181611e78565b975060208901359650604089013595506124ad60608a01611edb565b979a969950949760808101359660a0820135965060c0820135955060e0909101359350915050565b600080604083850312156124e857600080fd5b82356001600160401b03808211156124ff57600080fd5b61250b86838701611fa1565b9350602085013591508082111561252157600080fd5b5061252e85828601611fa1565b9150509250929050565b6000806000806080858703121561254e57600080fd5b843593506020850135925061256560408601611edb565b9396929550929360600135925050565b60008060006060848603121561258a57600080fd5b505081359360208301359350604090920135919050565b600080600080608085870312156125b757600080fd5b5050823594602084013594506040840135936060013592509050565b600080604083850312156125e657600080fd5b50508035926020909101359150565b600080600080600060a0868803121561260d57600080fd5b505083359560208501359550604085013594606081013594506080013592509050565b60006020828403121561264257600080fd5b813561082e81611e78565b60008060008060008060c0878903121561266657600080fd5b863561267181611e78565b9550602087013594506040870135935061268d60608801611edb565b92506080870135915060a087013590509295509295509295565b6000602082840312156126b957600080fd5b815161082e81611e78565b6020808252600e908201526d43414c4c4241434b535f4f4e4c5960901b604082015260600190565b634e487b7160e01b600052603260045260246000fd5b634e487b7160e01b600052601260045260246000fd5b634e487b7160e01b600052601160045260246000fd5b60008261273d5761273d612702565b500490565b8082018082111561275557612755612718565b92915050565b808202811582820484141761275557612755612718565b8181038181111561275557612755612718565b6020808252600c908201526b4d414e414745525f4f4e4c5960a01b604082015260600190565b6020808252600c908201526b0aea49e9c8ebe988a9c8ea8960a31b604082015260600190565b82815260a0810161082e6020830184805182526020810151602083015260408101516040830152606081015160608301525050565b818103600083128015838313168383128216171561282657612826612718565b5092915050565b80820260008212600160ff1b8414161561284957612849612718565b818105831482151761275557612755612718565b60008261286c5761286c612702565b600160ff1b82146000198414161561288657612886612718565b500590565b80820182811260008312801582168215821617156128ab576128ab612718565b505092915050565b6000602082840312156128c557600080fd5b5051919050565b6020808252600890820152670a89e9ebe90928e960c31b60408201526060019056fea264697066735822122086056e998e28a6283ae032cc304d48ec06e2de483cae91af062548850416a7f264736f6c63430008170033",
  "devdoc": {
    "events": {
      "Initialized(uint8)": {
        "details": "Triggered when the contract has been initialized or reinitialized."
      }
    },
    "kind": "dev",
    "methods": {},
    "version": 1
  },
  "userdoc": {
    "kind": "user",
    "methods": {},
    "version": 1
  },
  "storageLayout": {
    "storage": [
      {
        "astId": 2892,
        "contract": "contracts/PairInfos.sol:PairInfos",
        "label": "_initialized",
        "offset": 0,
        "slot": "0",
        "type": "t_uint8"
      },
      {
        "astId": 2895,
        "contract": "contracts/PairInfos.sol:PairInfos",
        "label": "_initializing",
        "offset": 1,
        "slot": "0",
        "type": "t_bool"
      },
      {
        "astId": 12101,
        "contract": "contracts/PairInfos.sol:PairInfos",
        "label": "storageT",
        "offset": 2,
        "slot": "0",
        "type": "t_contract(StorageInterface)33860"
      },
      {
        "astId": 12103,
        "contract": "contracts/PairInfos.sol:PairInfos",
        "label": "manager",
        "offset": 0,
        "slot": "1",
        "type": "t_address"
      },
      {
        "astId": 12117,
        "contract": "contracts/PairInfos.sol:PairInfos",
        "label": "maxNegativePnlOnOpenP",
        "offset": 0,
        "slot": "2",
        "type": "t_uint256"
      },
      {
        "astId": 12131,
        "contract": "contracts/PairInfos.sol:PairInfos",
        "label": "pairParams",
        "offset": 0,
        "slot": "3",
        "type": "t_mapping(t_uint256,t_struct(PairParams)12126_storage)"
      },
      {
        "astId": 12143,
        "contract": "contracts/PairInfos.sol:PairInfos",
        "label": "pairFundingFees",
        "offset": 0,
        "slot": "4",
        "type": "t_mapping(t_uint256,t_struct(PairFundingFees)12138_storage)"
      },
      {
        "astId": 12153,
        "contract": "contracts/PairInfos.sol:PairInfos",
        "label": "pairRolloverFees",
        "offset": 0,
        "slot": "5",
        "type": "t_mapping(t_uint256,t_struct(PairRolloverFees)12148_storage)"
      },
      {
        "astId": 12169,
        "contract": "contracts/PairInfos.sol:PairInfos",
        "label": "tradeInitialAccFees",
        "offset": 0,
        "slot": "6",
        "type": "t_mapping(t_address,t_mapping(t_uint256,t_mapping(t_uint256,t_struct(TradeInitialAccFees)12160_storage)))"
      }
    ],
    "types": {
      "t_address": {
        "encoding": "inplace",
        "label": "address",
        "numberOfBytes": "20"
      },
      "t_bool": {
        "encoding": "inplace",
        "label": "bool",
        "numberOfBytes": "1"
      },
      "t_contract(StorageInterface)33860": {
        "encoding": "inplace",
        "label": "contract StorageInterface",
        "numberOfBytes": "20"
      },
      "t_int256": {
        "encoding": "inplace",
        "label": "int256",
        "numberOfBytes": "32"
      },
      "t_mapping(t_address,t_mapping(t_uint256,t_mapping(t_uint256,t_struct(TradeInitialAccFees)12160_storage)))": {
        "encoding": "mapping",
        "key": "t_address",
        "label": "mapping(address => mapping(uint256 => mapping(uint256 => struct PairInfos.TradeInitialAccFees)))",
        "numberOfBytes": "32",
        "value": "t_mapping(t_uint256,t_mapping(t_uint256,t_struct(TradeInitialAccFees)12160_storage))"
      },
      "t_mapping(t_uint256,t_mapping(t_uint256,t_struct(TradeInitialAccFees)12160_storage))": {
        "encoding": "mapping",
        "key": "t_uint256",
        "label": "mapping(uint256 => mapping(uint256 => struct PairInfos.TradeInitialAccFees))",
        "numberOfBytes": "32",
        "value": "t_mapping(t_uint256,t_struct(TradeInitialAccFees)12160_storage)"
      },
      "t_mapping(t_uint256,t_struct(PairFundingFees)12138_storage)": {
        "encoding": "mapping",
        "key": "t_uint256",
        "label": "mapping(uint256 => struct PairInfos.PairFundingFees)",
        "numberOfBytes": "32",
        "value": "t_struct(PairFundingFees)12138_storage"
      },
      "t_mapping(t_uint256,t_struct(PairParams)12126_storage)": {
        "encoding": "mapping",
        "key": "t_uint256",
        "label": "mapping(uint256 => struct PairInfos.PairParams)",
        "numberOfBytes": "32",
        "value": "t_struct(PairParams)12126_storage"
      },
      "t_mapping(t_uint256,t_struct(PairRolloverFees)12148_storage)": {
        "encoding": "mapping",
        "key": "t_uint256",
        "label": "mapping(uint256 => struct PairInfos.PairRolloverFees)",
        "numberOfBytes": "32",
        "value": "t_struct(PairRolloverFees)12148_storage"
      },
      "t_mapping(t_uint256,t_struct(TradeInitialAccFees)12160_storage)": {
        "encoding": "mapping",
        "key": "t_uint256",
        "label": "mapping(uint256 => struct PairInfos.TradeInitialAccFees)",
        "numberOfBytes": "32",
        "value": "t_struct(TradeInitialAccFees)12160_storage"
      },
      "t_struct(PairFundingFees)12138_storage": {
        "encoding": "inplace",
        "label": "struct PairInfos.PairFundingFees",
        "members": [
          {
            "astId": 12133,
            "contract": "contracts/PairInfos.sol:PairInfos",
            "label": "accPerOiLong",
            "offset": 0,
            "slot": "0",
            "type": "t_int256"
          },
          {
            "astId": 12135,
            "contract": "contracts/PairInfos.sol:PairInfos",
            "label": "accPerOiShort",
            "offset": 0,
            "slot": "1",
            "type": "t_int256"
          },
          {
            "astId": 12137,
            "contract": "contracts/PairInfos.sol:PairInfos",
            "label": "lastUpdateBlock",
            "offset": 0,
            "slot": "2",
            "type": "t_uint256"
          }
        ],
        "numberOfBytes": "96"
      },
      "t_struct(PairParams)12126_storage": {
        "encoding": "inplace",
        "label": "struct PairInfos.PairParams",
        "members": [
          {
            "astId": 12119,
            "contract": "contracts/PairInfos.sol:PairInfos",
            "label": "onePercentDepthAbove",
            "offset": 0,
            "slot": "0",
            "type": "t_uint256"
          },
          {
            "astId": 12121,
            "contract": "contracts/PairInfos.sol:PairInfos",
            "label": "onePercentDepthBelow",
            "offset": 0,
            "slot": "1",
            "type": "t_uint256"
          },
          {
            "astId": 12123,
            "contract": "contracts/PairInfos.sol:PairInfos",
            "label": "rolloverFeePerBlockP",
            "offset": 0,
            "slot": "2",
            "type": "t_uint256"
          },
          {
            "astId": 12125,
            "contract": "contracts/PairInfos.sol:PairInfos",
            "label": "fundingFeePerBlockP",
            "offset": 0,
            "slot": "3",
            "type": "t_uint256"
          }
        ],
        "numberOfBytes": "128"
      },
      "t_struct(PairRolloverFees)12148_storage": {
        "encoding": "inplace",
        "label": "struct PairInfos.PairRolloverFees",
        "members": [
          {
            "astId": 12145,
            "contract": "contracts/PairInfos.sol:PairInfos",
            "label": "accPerCollateral",
            "offset": 0,
            "slot": "0",
            "type": "t_uint256"
          },
          {
            "astId": 12147,
            "contract": "contracts/PairInfos.sol:PairInfos",
            "label": "lastUpdateBlock",
            "offset": 0,
            "slot": "1",
            "type": "t_uint256"
          }
        ],
        "numberOfBytes": "64"
      },
      "t_struct(TradeInitialAccFees)12160_storage": {
        "encoding": "inplace",
        "label": "struct PairInfos.TradeInitialAccFees",
        "members": [
          {
            "astId": 12155,
            "contract": "contracts/PairInfos.sol:PairInfos",
            "label": "rollover",
            "offset": 0,
            "slot": "0",
            "type": "t_uint256"
          },
          {
            "astId": 12157,
            "contract": "contracts/PairInfos.sol:PairInfos",
            "label": "funding",
            "offset": 0,
            "slot": "1",
            "type": "t_int256"
          },
          {
            "astId": 12159,
            "contract": "contracts/PairInfos.sol:PairInfos",
            "label": "openedAfterUpdate",
            "offset": 0,
            "slot": "2",
            "type": "t_bool"
          }
        ],
        "numberOfBytes": "96"
      },
      "t_uint256": {
        "encoding": "inplace",
        "label": "uint256",
        "numberOfBytes": "32"
      },
      "t_uint8": {
        "encoding": "inplace",
        "label": "uint8",
        "numberOfBytes": "1"
      }
    }
  }
}