{
  "address": "0x92a27382B77c0Cc88dFAE29bF33a215BAcbb187A",
  "abi": [
    {
      "inputs": [],
      "name": "T",
      "type": "error"
    },
    {
      "anonymous": false,
      "inputs": [
        {
          "components": [
            {
              "internalType": "uint256",
              "name": "orderId",
              "type": "uint256"
            },
            {
              "internalType": "uint256",
              "name": "price",
              "type": "uint256"
            },
            {
              "internalType": "uint256",
              "name": "spreadP",
              "type": "uint256"
            },
            {
              "internalType": "uint256",
              "name": "open",
              "type": "uint256"
            },
            {
              "internalType": "uint256",
              "name": "high",
              "type": "uint256"
            },
            {
              "internalType": "uint256",
              "name": "low",
              "type": "uint256"
            }
          ],
          "indexed": false,
          "internalType": "struct CallbacksInterface.AggregatorAnswer",
          "name": "a",
          "type": "tuple"
        },
        {
          "indexed": false,
          "internalType": "enum PriceAggregator.OrderType",
          "name": "orderType",
          "type": "uint8"
        }
      ],
      "name": "CallbackExecuted",
      "type": "event"
    },
    {
      "anonymous": false,
      "inputs": [
        {
          "indexed": true,
          "internalType": "bytes32",
          "name": "id",
          "type": "bytes32"
        }
      ],
      "name": "ChainlinkCancelled",
      "type": "event"
    },
    {
      "anonymous": false,
      "inputs": [
        {
          "indexed": true,
          "internalType": "bytes32",
          "name": "id",
          "type": "bytes32"
        }
      ],
      "name": "ChainlinkFulfilled",
      "type": "event"
    },
    {
      "anonymous": false,
      "inputs": [
        {
          "indexed": true,
          "internalType": "bytes32",
          "name": "id",
          "type": "bytes32"
        }
      ],
      "name": "ChainlinkRequested",
      "type": "event"
    },
    {
      "anonymous": false,
      "inputs": [
        {
          "indexed": false,
          "internalType": "uint8",
          "name": "version",
          "type": "uint8"
        }
      ],
      "name": "Initialized",
      "type": "event"
    },
    {
      "anonymous": false,
      "inputs": [
        {
          "indexed": false,
          "internalType": "uint256",
          "name": "index",
          "type": "uint256"
        },
        {
          "indexed": false,
          "internalType": "bytes32",
          "name": "jobId",
          "type": "bytes32"
        }
      ],
      "name": "JobIdUpdated",
      "type": "event"
    },
    {
      "anonymous": false,
      "inputs": [
        {
          "indexed": false,
          "internalType": "address",
          "name": "value",
          "type": "address"
        }
      ],
      "name": "LinkPriceFeedUpdated",
      "type": "event"
    },
    {
      "anonymous": false,
      "inputs": [
        {
          "indexed": false,
          "internalType": "uint256",
          "name": "value",
          "type": "uint256"
        }
      ],
      "name": "MinAnswersUpdated",
      "type": "event"
    },
    {
      "anonymous": false,
      "inputs": [
        {
          "indexed": false,
          "internalType": "uint256",
          "name": "index",
          "type": "uint256"
        },
        {
          "indexed": false,
          "internalType": "address",
          "name": "value",
          "type": "address"
        }
      ],
      "name": "NodeAdded",
      "type": "event"
    },
    {
      "anonymous": false,
      "inputs": [
        {
          "indexed": false,
          "internalType": "uint256",
          "name": "index",
          "type": "uint256"
        },
        {
          "indexed": false,
          "internalType": "address",
          "name": "oldNode",
          "type": "address"
        }
      ],
      "name": "NodeRemoved",
      "type": "event"
    },
    {
      "anonymous": false,
      "inputs": [
        {
          "indexed": false,
          "internalType": "uint256",
          "name": "index",
          "type": "uint256"
        },
        {
          "indexed": false,
          "internalType": "address",
          "name": "oldNode",
          "type": "address"
        },
        {
          "indexed": false,
          "internalType": "address",
          "name": "newNode",
          "type": "address"
        }
      ],
      "name": "NodeReplaced",
      "type": "event"
    },
    {
      "anonymous": false,
      "inputs": [
        {
          "indexed": false,
          "internalType": "address",
          "name": "value",
          "type": "address"
        }
      ],
      "name": "PairsStorageUpdated",
      "type": "event"
    },
    {
      "anonymous": false,
      "inputs": [
        {
          "indexed": false,
          "internalType": "bytes32",
          "name": "request",
          "type": "bytes32"
        },
        {
          "indexed": true,
          "internalType": "uint256",
          "name": "orderId",
          "type": "uint256"
        },
        {
          "indexed": true,
          "internalType": "address",
          "name": "node",
          "type": "address"
        },
        {
          "indexed": true,
          "internalType": "uint16",
          "name": "pairIndex",
          "type": "uint16"
        },
        {
          "indexed": false,
          "internalType": "uint256",
          "name": "price",
          "type": "uint256"
        },
        {
          "indexed": false,
          "internalType": "uint256",
          "name": "referencePrice",
          "type": "uint256"
        },
        {
          "indexed": false,
          "internalType": "uint112",
          "name": "linkFee",
          "type": "uint112"
        },
        {
          "indexed": false,
          "internalType": "bool",
          "name": "isLookback",
          "type": "bool"
        },
        {
          "indexed": false,
          "internalType": "bool",
          "name": "usedInMedian",
          "type": "bool"
        }
      ],
      "name": "PriceReceived",
      "type": "event"
    },
    {
      "anonymous": false,
      "inputs": [
        {
          "indexed": true,
          "internalType": "uint256",
          "name": "orderId",
          "type": "uint256"
        },
        {
          "indexed": true,
          "internalType": "bytes32",
          "name": "job",
          "type": "bytes32"
        },
        {
          "indexed": true,
          "internalType": "uint256",
          "name": "pairIndex",
          "type": "uint256"
        },
        {
          "indexed": false,
          "internalType": "enum PriceAggregator.OrderType",
          "name": "orderType",
          "type": "uint8"
        },
        {
          "indexed": false,
          "internalType": "uint256",
          "name": "nodesCount",
          "type": "uint256"
        },
        {
          "indexed": false,
          "internalType": "uint256",
          "name": "linkFeePerNode",
          "type": "uint256"
        },
        {
          "indexed": false,
          "internalType": "uint256",
          "name": "fromBlock",
          "type": "uint256"
        },
        {
          "indexed": false,
          "internalType": "bool",
          "name": "isLookback",
          "type": "bool"
        }
      ],
      "name": "PriceRequested",
      "type": "event"
    },
    {
      "anonymous": false,
      "inputs": [
        {
          "indexed": false,
          "internalType": "uint32",
          "name": "newValue",
          "type": "uint32"
        }
      ],
      "name": "TwapIntervalUpdated",
      "type": "event"
    },
    {
      "anonymous": false,
      "inputs": [
        {
          "indexed": false,
          "internalType": "contract IUniswapV3Pool",
          "name": "newValue",
          "type": "address"
        }
      ],
      "name": "UniV3PoolUpdated",
      "type": "event"
    },
    {
      "inputs": [
        {
          "internalType": "address",
          "name": "a",
          "type": "address"
        }
      ],
      "name": "addNode",
      "outputs": [],
      "stateMutability": "nonpayable",
      "type": "function"
    },
    {
      "inputs": [],
      "name": "claimBackLink",
      "outputs": [],
      "stateMutability": "nonpayable",
      "type": "function"
    },
    {
      "inputs": [
        {
          "internalType": "uint256",
          "name": "pairIndex",
          "type": "uint256"
        },
        {
          "internalType": "enum PriceAggregator.OrderType",
          "name": "orderType",
          "type": "uint8"
        },
        {
          "internalType": "uint256",
          "name": "leveragedPosWETH",
          "type": "uint256"
        },
        {
          "internalType": "uint256",
          "name": "fromBlock",
          "type": "uint256"
        }
      ],
      "name": "getPrice",
      "outputs": [
        {
          "internalType": "uint256",
          "name": "",
          "type": "uint256"
        }
      ],
      "stateMutability": "nonpayable",
      "type": "function"
    },
    {
      "inputs": [
        {
          "internalType": "address",
          "name": "_linkToken",
          "type": "address"
        },
        {
          "internalType": "contract IUniswapV3Pool",
          "name": "_tokenWETHLp",
          "type": "address"
        },
        {
          "internalType": "uint32",
          "name": "_twapInterval",
          "type": "uint32"
        },
        {
          "internalType": "contract StorageInterface",
          "name": "_storageT",
          "type": "address"
        },
        {
          "internalType": "contract PairsStorageInterfaceV6",
          "name": "_pairsStorage",
          "type": "address"
        },
        {
          "internalType": "contract ChainlinkFeedInterface",
          "name": "_linkPriceFeed",
          "type": "address"
        },
        {
          "internalType": "uint256",
          "name": "_minAnswers",
          "type": "uint256"
        },
        {
          "internalType": "address[]",
          "name": "_nodes",
          "type": "address[]"
        },
        {
          "internalType": "bytes32[2]",
          "name": "_jobIds",
          "type": "bytes32[2]"
        }
      ],
      "name": "initialize",
      "outputs": [],
      "stateMutability": "nonpayable",
      "type": "function"
    },
    {
      "inputs": [],
      "name": "isGnsToken0InLp",
      "outputs": [
        {
          "internalType": "bool",
          "name": "",
          "type": "bool"
        }
      ],
      "stateMutability": "view",
      "type": "function"
    },
    {
      "inputs": [
        {
          "internalType": "uint256",
          "name": "",
          "type": "uint256"
        }
      ],
      "name": "jobIds",
      "outputs": [
        {
          "internalType": "bytes32",
          "name": "",
          "type": "bytes32"
        }
      ],
      "stateMutability": "view",
      "type": "function"
    },
    {
      "inputs": [
        {
          "internalType": "uint256",
          "name": "pairIndex",
          "type": "uint256"
        },
        {
          "internalType": "uint256",
          "name": "leveragedPosWETH",
          "type": "uint256"
        }
      ],
      "name": "linkFee",
      "outputs": [
        {
          "internalType": "uint256",
          "name": "",
          "type": "uint256"
        }
      ],
      "stateMutability": "view",
      "type": "function"
    },
    {
      "inputs": [],
      "name": "linkPriceFeed",
      "outputs": [
        {
          "internalType": "contract ChainlinkFeedInterface",
          "name": "",
          "type": "address"
        }
      ],
      "stateMutability": "view",
      "type": "function"
    },
    {
      "inputs": [
        {
          "internalType": "uint256",
          "name": "",
          "type": "uint256"
        },
        {
          "internalType": "uint256",
          "name": "",
          "type": "uint256"
        }
      ],
      "name": "lookbackOrderAnswers",
      "outputs": [
        {
          "internalType": "uint64",
          "name": "open",
          "type": "uint64"
        },
        {
          "internalType": "uint64",
          "name": "high",
          "type": "uint64"
        },
        {
          "internalType": "uint64",
          "name": "low",
          "type": "uint64"
        },
        {
          "internalType": "uint64",
          "name": "ts",
          "type": "uint64"
        }
      ],
      "stateMutability": "view",
      "type": "function"
    },
    {
      "inputs": [
        {
          "internalType": "uint256",
          "name": "orderId",
          "type": "uint256"
        },
        {
          "components": [
            {
              "components": [
                {
                  "internalType": "address",
                  "name": "trader",
                  "type": "address"
                },
                {
                  "internalType": "uint256",
                  "name": "pairIndex",
                  "type": "uint256"
                },
                {
                  "internalType": "uint256",
                  "name": "index",
                  "type": "uint256"
                },
                {
                  "internalType": "uint256",
                  "name": "initialPosToken",
                  "type": "uint256"
                },
                {
                  "internalType": "uint256",
                  "name": "positionSizeWETH",
                  "type": "uint256"
                },
                {
                  "internalType": "uint256",
                  "name": "openPrice",
                  "type": "uint256"
                },
                {
                  "internalType": "bool",
                  "name": "buy",
                  "type": "bool"
                },
                {
                  "internalType": "uint256",
                  "name": "leverage",
                  "type": "uint256"
                },
                {
                  "internalType": "uint256",
                  "name": "tp",
                  "type": "uint256"
                },
                {
                  "internalType": "uint256",
                  "name": "sl",
                  "type": "uint256"
                }
              ],
              "internalType": "struct StorageInterface.Trade",
              "name": "trade",
              "type": "tuple"
            },
            {
              "internalType": "uint256",
              "name": "block",
              "type": "uint256"
            },
            {
              "internalType": "uint256",
              "name": "wantedPrice",
              "type": "uint256"
            },
            {
              "internalType": "uint256",
              "name": "slippageP",
              "type": "uint256"
            },
            {
              "internalType": "uint256",
              "name": "spreadReductionP",
              "type": "uint256"
            },
            {
              "internalType": "uint256",
              "name": "tokenId",
              "type": "uint256"
            }
          ],
          "internalType": "struct StorageInterface.PendingMarketOrder",
          "name": "o",
          "type": "tuple"
        }
      ],
      "name": "marketOrderfulfill",
      "outputs": [],
      "stateMutability": "nonpayable",
      "type": "function"
    },
    {
      "inputs": [],
      "name": "minAnswers",
      "outputs": [
        {
          "internalType": "uint256",
          "name": "",
          "type": "uint256"
        }
      ],
      "stateMutability": "view",
      "type": "function"
    },
    {
      "inputs": [
        {
          "internalType": "uint256",
          "name": "orderId",
          "type": "uint256"
        },
        {
          "components": [
            {
              "internalType": "address",
              "name": "nftHolder",
              "type": "address"
            },
            {
              "internalType": "uint256",
              "name": "nftId",
              "type": "uint256"
            },
            {
              "internalType": "address",
              "name": "trader",
              "type": "address"
            },
            {
              "internalType": "uint256",
              "name": "pairIndex",
              "type": "uint256"
            },
            {
              "internalType": "uint256",
              "name": "index",
              "type": "uint256"
            },
            {
              "internalType": "enum StorageInterface.LimitOrder",
              "name": "orderType",
              "type": "uint8"
            }
          ],
          "internalType": "struct StorageInterface.PendingNftOrder",
          "name": "o",
          "type": "tuple"
        }
      ],
      "name": "nftOrderfulfill",
      "outputs": [],
      "stateMutability": "nonpayable",
      "type": "function"
    },
    {
      "inputs": [
        {
          "internalType": "uint256",
          "name": "",
          "type": "uint256"
        }
      ],
      "name": "nodes",
      "outputs": [
        {
          "internalType": "address",
          "name": "",
          "type": "address"
        }
      ],
      "stateMutability": "view",
      "type": "function"
    },
    {
      "inputs": [
        {
          "internalType": "uint256",
          "name": "pairIndex",
          "type": "uint256"
        }
      ],
      "name": "openFeeP",
      "outputs": [
        {
          "internalType": "uint256",
          "name": "",
          "type": "uint256"
        }
      ],
      "stateMutability": "view",
      "type": "function"
    },
    {
      "inputs": [
        {
          "internalType": "bytes32",
          "name": "",
          "type": "bytes32"
        }
      ],
      "name": "orderIdByRequest",
      "outputs": [
        {
          "internalType": "uint256",
          "name": "",
          "type": "uint256"
        }
      ],
      "stateMutability": "view",
      "type": "function"
    },
    {
      "inputs": [
        {
          "internalType": "uint256",
          "name": "",
          "type": "uint256"
        }
      ],
      "name": "orders",
      "outputs": [
        {
          "internalType": "uint16",
          "name": "pairIndex",
          "type": "uint16"
        },
        {
          "internalType": "uint112",
          "name": "linkFeePerNode",
          "type": "uint112"
        },
        {
          "internalType": "enum PriceAggregator.OrderType",
          "name": "orderType",
          "type": "uint8"
        },
        {
          "internalType": "bool",
          "name": "active",
          "type": "bool"
        },
        {
          "internalType": "bool",
          "name": "isLookback",
          "type": "bool"
        }
      ],
      "stateMutability": "view",
      "type": "function"
    },
    {
      "inputs": [
        {
          "internalType": "uint256",
          "name": "",
          "type": "uint256"
        },
        {
          "internalType": "uint256",
          "name": "",
          "type": "uint256"
        }
      ],
      "name": "ordersAnswers",
      "outputs": [
        {
          "internalType": "uint256",
          "name": "",
          "type": "uint256"
        }
      ],
      "stateMutability": "view",
      "type": "function"
    },
    {
      "inputs": [],
      "name": "pairsStorage",
      "outputs": [
        {
          "internalType": "contract PairsStorageInterfaceV6",
          "name": "",
          "type": "address"
        }
      ],
      "stateMutability": "view",
      "type": "function"
    },
    {
      "inputs": [],
      "name": "precision",
      "outputs": [
        {
          "internalType": "uint256",
          "name": "",
          "type": "uint256"
        }
      ],
      "stateMutability": "view",
      "type": "function"
    },
    {
      "inputs": [
        {
          "internalType": "uint256",
          "name": "index",
          "type": "uint256"
        }
      ],
      "name": "removeNode",
      "outputs": [],
      "stateMutability": "nonpayable",
      "type": "function"
    },
    {
      "inputs": [
        {
          "internalType": "uint256",
          "name": "index",
          "type": "uint256"
        },
        {
          "internalType": "address",
          "name": "a",
          "type": "address"
        }
      ],
      "name": "replaceNode",
      "outputs": [],
      "stateMutability": "nonpayable",
      "type": "function"
    },
    {
      "inputs": [
        {
          "internalType": "bytes32",
          "name": "jobId",
          "type": "bytes32"
        }
      ],
      "name": "setLimitJobId",
      "outputs": [],
      "stateMutability": "nonpayable",
      "type": "function"
    },
    {
      "inputs": [
        {
          "internalType": "bytes32",
          "name": "jobId",
          "type": "bytes32"
        }
      ],
      "name": "setMarketJobId",
      "outputs": [],
      "stateMutability": "nonpayable",
      "type": "function"
    },
    {
      "inputs": [],
      "name": "storageT",
      "outputs": [
        {
          "internalType": "contract StorageInterface",
          "name": "",
          "type": "address"
        }
      ],
      "stateMutability": "view",
      "type": "function"
    },
    {
      "inputs": [],
      "name": "token",
      "outputs": [
        {
          "internalType": "address",
          "name": "",
          "type": "address"
        }
      ],
      "stateMutability": "view",
      "type": "function"
    },
    {
      "inputs": [],
      "name": "tokenPriceWETH",
      "outputs": [
        {
          "internalType": "uint256",
          "name": "price",
          "type": "uint256"
        }
      ],
      "stateMutability": "view",
      "type": "function"
    },
    {
      "inputs": [],
      "name": "twapInterval",
      "outputs": [
        {
          "internalType": "uint32",
          "name": "",
          "type": "uint32"
        }
      ],
      "stateMutability": "view",
      "type": "function"
    },
    {
      "inputs": [],
      "name": "uniV3Pool",
      "outputs": [
        {
          "internalType": "contract IUniswapV3Pool",
          "name": "",
          "type": "address"
        }
      ],
      "stateMutability": "view",
      "type": "function"
    },
    {
      "inputs": [
        {
          "internalType": "contract ChainlinkFeedInterface",
          "name": "value",
          "type": "address"
        }
      ],
      "name": "updateLinkPriceFeed",
      "outputs": [],
      "stateMutability": "nonpayable",
      "type": "function"
    },
    {
      "inputs": [
        {
          "internalType": "uint256",
          "name": "value",
          "type": "uint256"
        }
      ],
      "name": "updateMinAnswers",
      "outputs": [],
      "stateMutability": "nonpayable",
      "type": "function"
    },
    {
      "inputs": [
        {
          "internalType": "contract PairsStorageInterfaceV6",
          "name": "value",
          "type": "address"
        }
      ],
      "name": "updatePairsStorage",
      "outputs": [],
      "stateMutability": "nonpayable",
      "type": "function"
    },
    {
      "inputs": [
        {
          "internalType": "uint32",
          "name": "_twapInterval",
          "type": "uint32"
        }
      ],
      "name": "updateTwapInterval",
      "outputs": [],
      "stateMutability": "nonpayable",
      "type": "function"
    },
    {
      "inputs": [
        {
          "internalType": "contract IUniswapV3Pool",
          "name": "_uniV3Pool",
          "type": "address"
        }
      ],
      "name": "updateUniV3Pool",
      "outputs": [],
      "stateMutability": "nonpayable",
      "type": "function"
    }
  ],
  "transactionHash": "0x33c1d2551069da39d4fcb047920b24a360d4e7fdb4cca4eed7edb3435309f500",
  "args": [],
  "numDeployments": 1,
  "solcInputHash": "5af97cf568aedef2eac0d2ad801f242e",
  "bytecode": "0x6080604052600160045534801561001557600080fd5b50613ac1806100256000396000f3fe608060405234801561001057600080fd5b50600436106101ca5760003560e01c80638f93b6601161010a578063d3b5dc3b116100ad578063e21e5fe01161007c578063e21e5fe01461049c578063f5ed447c146104af578063fc0c546a146104c2578063fd288280146104d5578063ffd740df146104e857600080fd5b8063d3b5dc3b1461044d578063da4ae8ef14610456578063dcdfb43114610469578063e0bb91c21461048957600080fd5b80638f93b6601461036c57806393d7fe2c1461037f5780639d95f1cc14610392578063a500775e146103a5578063a85c38ef146103b8578063b9e0336f1461041e578063bea1675814610431578063d31273ca1461043a57600080fd5b80633c1d5df0116101725780633c1d5df01461029357806340e9eda2146102bf5780634162cc88146102d25780634c37a9d6146102e55780636938c05d1461032b5780636c83b3d71461033e5780636f37d2631461035157806385f276b81461035957600080fd5b8062912b37146101cf57806303f39a16146101f85780630d2ced531461021c57806316fff074146102315780631c53c28014610244578063290702e51461025757806335b03c171461026d57806339fe9fd214610280575b600080fd5b600c546101e2906001600160a01b031681565b6040516101ef9190612ddb565b60405180910390f35b60095461020c90600160c01b900460ff1681565b60405190151581526020016101ef565b61022f61022a366004612f4b565b6104fb565b005b600a546101e2906001600160a01b031681565b6101e2610252366004613075565b6107b6565b61025f6107e0565b6040519081526020016101ef565b600b546101e2906001600160a01b031681565b61022f61028e36600461308e565b610a03565b6009546102aa90600160a01b900463ffffffff1681565b60405163ffffffff90911681526020016101ef565b61022f6102cd366004613124565b610ebd565b61025f6102e0366004613075565b610fe0565b6102f86102f3366004613141565b610ff7565b604080516001600160401b03958616815293851660208501529184169183019190915290911660608201526080016101ef565b61025f610339366004613163565b61104c565b6009546101e2906001600160a01b031681565b61022f6111f2565b61022f610367366004613075565b61146f565b61022f61037a3660046131bd565b61156f565b61025f61038d366004613141565b61196f565b61022f6103a0366004613124565b6119a0565b61022f6103b33660046132be565b611bce565b61040d6103c6366004613075565b60126020526000908152604090205461ffff8116906001600160701b03620100008204169060ff600160801b8204811691600160881b8104821691600160901b9091041685565b6040516101ef959493929190613303565b61025f61042c366004613141565b611c81565b61025f600e5481565b61022f610448366004613124565b611dbb565b61025f60075481565b61022f610464366004613124565b611ed3565b61025f610477366004613075565b60136020526000908152604090205481565b61022f610497366004613075565b611f83565b61025f6104aa366004613075565b612083565b61022f6104bd366004613075565b6120f1565b6008546101e2906001600160a01b031681565b61022f6104e3366004613342565b61224f565b61022f6104f6366004613075565b6123ef565b600654610100900460ff161580801561051b5750600654600160ff909116105b806105355750303b158015610535575060065460ff166001145b61059d5760405162461bcd60e51b815260206004820152602e60248201527f496e697469616c697a61626c653a20636f6e747261637420697320616c72656160448201526d191e481a5b9a5d1a585b1a5e995960921b60648201526084015b60405180910390fd5b6006805460ff1916600117905580156105c0576006805461ff0019166101001790555b6001600160a01b038716158015906105e057506001600160a01b03861615155b80156105f457506001600160a01b03851615155b8015610601575060038410155b80156106175750610613600285613388565b6001145b8015610624575060008351115b801561063857506001600160a01b038a1615155b6106735760405162461bcd60e51b815260206004820152600c60248201526b57524f4e475f504152414d5360a01b6044820152606401610594565b600a80546001600160a01b03808a166001600160a01b031992831617909255600b8054898416908316179055600c805492881692909116919091179055600e84905582516106c890600f906020860190612cfd565b506106d66010836002612d62565b50600280546001600160a01b0319166001600160a01b038c1617905561076489886001600160a01b031663fc0c546a6040518163ffffffff1660e01b8152600401602060405180830381865afa158015610734573d6000803e3d6000fd5b505050506040513d601f19601f82011682018060405250810190610758919061339c565b8a6402540be4006125d9565b80156107aa576006805461ff0019169055604051600181527f7f26b83ff96e1f2b6a682f133852f6798a09c465da95921460cefb38474024989060200160405180910390a15b50505050505050505050565b600f81815481106107c657600080fd5b6000918252602090912001546001600160a01b0316905081565b60408051600280825260608201835260009283929190602083019080368337019050509050600960149054906101000a900463ffffffff168160008151811061082b5761082b6133b9565b602002602001019063ffffffff16908163ffffffff168152505060008160018151811061085a5761085a6133b9565b63ffffffff9092166020928302919091019091015260095460405163883bdbfd60e01b81526000916001600160a01b03169063883bdbfd906108a09085906004016133cf565b600060405180830381865afa1580156108bd573d6000803e3d6000fd5b505050506040513d6000823e601f3d908101601f191682016040526108e5919081019061348c565b5090506000816000815181106108fd576108fd6133b9565b602002602001015182600181518110610918576109186133b9565b602002602001015161092a919061356d565b600954909150600160a01b900463ffffffff1660030b600061094c828461359a565b905060008360060b12801561096c575061096682846135d8565b60060b15155b1561097f578061097b816135fa565b9150505b600061098a826127a4565b9050600160601b6007546109b5836001600160a01b0316846001600160a01b0316600160601b612abd565b6109bf919061361d565b6109c99190613634565b600954909750600160c01b900460ff166109fa578660026007546109ed919061372c565b6109f79190613634565b96505b50505050505090565b600a60009054906101000a90046001600160a01b03166001600160a01b031663ec44acf26040518163ffffffff1660e01b8152600401602060405180830381865afa158015610a56573d6000803e3d6000fd5b505050506040513d601f19601f82011682018060405250810190610a7a919061339c565b6001600160a01b0316336001600160a01b031614610aaa5760405162461bcd60e51b81526004016105949061373b565b6000828152601260209081526040808320815160a081018352815461ffff811682526201000081046001600160701b031694820194909452929091830190600160801b900460ff166003811115610b0357610b036132d9565b6003811115610b1457610b146132d9565b8152905460ff600160881b820481161515602080850191909152600160901b909204161515604092830152600a5482516307dc0d1d60e41b81529251939450600093849384936001600160a01b0390931692637dc0d1d0926004808401938290030181865afa158015610b8b573d6000803e3d6000fd5b505050506040513d601f19601f82011682018060405250810190610baf919061339c565b8451604051630e75722360e41b815261ffff90911660048201526001600160a01b03919091169063e7572230906024016040805180830381865afa158015610bfb573d6000803e3d6000fd5b505050506040513d601f19601f82011682018060405250810190610c1f9190613761565b9150915060019250610c2f612d90565b86815260208101839052600b54855160405163a1d54e9b60e01b815261ffff90911660048201526001600160a01b039091169063a1d54e9b90602401602060405180830381865afa158015610c88573d6000803e3d6000fd5b505050506040513d601f19601f82011682018060405250810190610cac9190613785565b604080830191909152600a54815162b1278360e01b815291516000926001600160a01b039092169162b127839160048083019260209291908290030181865afa158015610cfd573d6000803e3d6000fd5b505050506040513d601f19601f82011682018060405250810190610d21919061339c565b9050600386604001516003811115610d3b57610d3b6132d9565b03610da5576040516376d0fac160e11b81526001600160a01b0382169063eda1f58290610d6e9085908b906004016137d8565b600060405180830381600087803b158015610d8857600080fd5b505af1158015610d9c573d6000803e3d6000fd5b50505050610df9565b60405162461bcd60e51b815260206004820152602360248201527f4f70656e204c696d6974206f7264657273206e6f7420737570706f72746564206044820152621e595d60ea1b6064820152608401610594565b7fce3ae2fe07e497ba552d6485a40eed46cfb3320f001027891efeb1128dba0350828760400151604051610e2e929190613849565b60405180910390a185516020808801516080808a01516040805161060f60f31b81526000958101869052808201959095526001600160701b03909316606085015215159083015287151560a08301525161ffff9092169133918b917fdc6ff5906123aad281d8e734bb64101cea661d614a568b9bca20e7ac2ae7f3549181900360c00190a45050505050505050565b600a60009054906101000a90046001600160a01b03166001600160a01b03166312d43a516040518163ffffffff1660e01b8152600401602060405180830381865afa158015610f10573d6000803e3d6000fd5b505050506040513d601f19601f82011682018060405250810190610f34919061339c565b6001600160a01b0316336001600160a01b031614610f645760405162461bcd60e51b815260040161059490613864565b6001600160a01b038116610f8a5760405162461bcd60e51b815260040161059490613886565b600b80546001600160a01b0319166001600160a01b0383161790556040517f477e87af277e7755f85267ef7c6b77cd28610c2c8c2923acdf55fa5b63f18b7790610fd5908390612ddb565b60405180910390a150565b60108160028110610ff057600080fd5b0154905081565b6015602052816000526040600020818154811061101357600080fd5b6000918252602090912001546001600160401b038082169350600160401b820481169250600160801b8204811691600160c01b90041684565b600a5460408051637622567960e11b815290516000926001600160a01b03169163ec44acf29160048083019260209291908290030181865afa158015611096573d6000803e3d6000fd5b505050506040513d601f19601f820116820180604052508101906110ba919061339c565b6001600160a01b0316336001600160a01b0316146110ea5760405162461bcd60e51b81526004016105949061373b565b600d80549060006110fa836138a7565b90915550506040805160a08101825261ffff871681526000602082015290810185600381111561112c5761112c6132d9565b8152600160208083019190915260006040928301819052600d5481526012825282902083518154928501516001600160701b031662010000026001600160801b031990931661ffff9091161791909117808255918301519091829060ff60801b1916600160801b8360038111156111a5576111a56132d9565b0217905550606082015181546080909301511515600160901b0260ff60901b19911515600160881b029190911661ffff60881b199093169290921791909117905550600d54949350505050565b600a60009054906101000a90046001600160a01b03166001600160a01b03166312d43a516040518163ffffffff1660e01b8152600401602060405180830381865afa158015611245573d6000803e3d6000fd5b505050506040513d601f19601f82011682018060405250810190611269919061339c565b6001600160a01b0316336001600160a01b0316146112995760405162461bcd60e51b815260040161059490613864565b600a5460408051633fb393ab60e21b815290516000926001600160a01b03169163fece4eac9160048083019260209291908290030181865afa1580156112e3573d6000803e3d6000fd5b505050506040513d601f19601f82011682018060405250810190611307919061339c565b9050806001600160a01b031663a9059cbb600a60009054906101000a90046001600160a01b03166001600160a01b03166312d43a516040518163ffffffff1660e01b8152600401602060405180830381865afa15801561136b573d6000803e3d6000fd5b505050506040513d601f19601f8201168201806040525081019061138f919061339c565b6040516370a0823160e01b81526001600160a01b038516906370a08231906113bb903090600401612ddb565b602060405180830381865afa1580156113d8573d6000803e3d6000fd5b505050506040513d601f19601f820116820180604052508101906113fc9190613785565b6040516001600160e01b031960e085901b1681526001600160a01b03909216600483015260248201526044016020604051808303816000875af1158015611447573d6000803e3d6000fd5b505050506040513d601f19601f8201168201806040525081019061146b91906138c0565b5050565b600a60009054906101000a90046001600160a01b03166001600160a01b03166312d43a516040518163ffffffff1660e01b8152600401602060405180830381865afa1580156114c2573d6000803e3d6000fd5b505050506040513d601f19601f820116820180604052508101906114e6919061339c565b6001600160a01b0316336001600160a01b0316146115165760405162461bcd60e51b815260040161059490613864565b806115335760405162461bcd60e51b815260040161059490613886565b60108190556040805160008152602081018390527f764c19c693af0da42ec6c6bed68a2dd1a2fa93d24785fcfce58ffa29ae3136069101610fd5565b600a60009054906101000a90046001600160a01b03166001600160a01b031663ec44acf26040518163ffffffff1660e01b8152600401602060405180830381865afa1580156115c2573d6000803e3d6000fd5b505050506040513d601f19601f820116820180604052508101906115e6919061339c565b6001600160a01b0316336001600160a01b0316146116165760405162461bcd60e51b81526004016105949061373b565b6000828152601260209081526040808320815160a081018352815461ffff811682526201000081046001600160701b031694820194909452929091830190600160801b900460ff16600381111561166f5761166f6132d9565b6003811115611680576116806132d9565b8152905460ff600160881b820481161515602080850191909152600160901b909204161515604092830152600a5482516307dc0d1d60e41b81529251939450600093849384936001600160a01b0390931692637dc0d1d0926004808401938290030181865afa1580156116f7573d6000803e3d6000fd5b505050506040513d601f19601f8201168201806040525081019061171b919061339c565b8451604051630e75722360e41b815261ffff90911660048201526001600160a01b03919091169063e7572230906024016040805180830381865afa158015611767573d6000803e3d6000fd5b505050506040513d601f19601f8201168201806040525081019061178b9190613761565b915091506001925061179b612d90565b86815260208101839052600b54855160405163a1d54e9b60e01b815261ffff90911660048201526001600160a01b039091169063a1d54e9b90602401602060405180830381865afa1580156117f4573d6000803e3d6000fd5b505050506040513d601f19601f820116820180604052508101906118189190613785565b604080830191909152600a54815162b1278360e01b815291516000926001600160a01b039092169162b127839160048083019260209291908290030181865afa158015611869573d6000803e3d6000fd5b505050506040513d601f19601f8201168201806040525081019061188d919061339c565b90506000866040015160038111156118a7576118a76132d9565b036118da57604051633115815560e01b81526001600160a01b03821690633115815590610d6e9085908b906004016138dd565b60405163485c89f960e11b81526001600160a01b038216906390b913f2906119089085908b906004016138dd565b600060405180830381600087803b15801561192257600080fd5b505af1158015611936573d6000803e3d6000fd5b505050507fce3ae2fe07e497ba552d6485a40eed46cfb3320f001027891efeb1128dba0350828760400151604051610e2e929190613849565b6014602052816000526040600020818154811061198b57600080fd5b90600052602060002001600091509150505481565b600a60009054906101000a90046001600160a01b03166001600160a01b03166312d43a516040518163ffffffff1660e01b8152600401602060405180830381865afa1580156119f3573d6000803e3d6000fd5b505050506040513d601f19601f82011682018060405250810190611a17919061339c565b6001600160a01b0316336001600160a01b031614611a475760405162461bcd60e51b815260040161059490613864565b6001600160a01b038116611a6d5760405162461bcd60e51b815260040161059490613886565b600f54601411611ab25760405162461bcd60e51b815260206004820152601060248201526f4d41585f4f5241434c455f4e4f44455360801b6044820152606401610594565b60005b600f54811015611b3757816001600160a01b0316600f8281548110611adc57611adc6133b9565b6000918252602090912001546001600160a01b031603611b2f5760405162461bcd60e51b815260206004820152600e60248201526d1053149150511657d31254d5115160921b6044820152606401610594565b600101611ab5565b50600f80546001808201835560008390527f8d1108e10bcb7c27dddfc02ed9d693a074039d026cf4ea4240b40f7d581ac80290910180546001600160a01b0319166001600160a01b03851617905590547fadfedad3d82b3775bf2dbea70a01327d1f26c0b868eb8ce0963a6e9af1003e8591611bb2916139ae565b604080519182526001600160a01b038416602083015201610fd5565b600a60009054906101000a90046001600160a01b03166001600160a01b03166312d43a516040518163ffffffff1660e01b8152600401602060405180830381865afa158015611c21573d6000803e3d6000fd5b505050506040513d601f19601f82011682018060405250810190611c45919061339c565b6001600160a01b0316336001600160a01b031614611c755760405162461bcd60e51b815260040161059490613864565b611c7e81612b70565b50565b600080600c60009054906101000a90046001600160a01b03166001600160a01b031663feaf968c6040518163ffffffff1660e01b815260040160a060405180830381865afa158015611cd7573d6000803e3d6000fd5b505050506040513d601f19601f82011682018060405250810190611cfb91906139db565b5050600b5460405163f7acbabd60e01b815260048101899052929450606493506402540be4009285925087916001600160a01b03169063f7acbabd90602401602060405180830381865afa158015611d57573d6000803e3d6000fd5b505050506040513d601f19601f82011682018060405250810190611d7b9190613785565b611d85919061361d565b611d93906305f5e10061361d565b611d9d9190613634565b611da79190613634565b611db19190613634565b9150505b92915050565b600a60009054906101000a90046001600160a01b03166001600160a01b03166312d43a516040518163ffffffff1660e01b8152600401602060405180830381865afa158015611e0e573d6000803e3d6000fd5b505050506040513d601f19601f82011682018060405250810190611e32919061339c565b6001600160a01b0316336001600160a01b031614611e625760405162461bcd60e51b815260040161059490613864565b6001600160a01b038116611e885760405162461bcd60e51b815260040161059490613886565b600c80546001600160a01b0319166001600160a01b0383161790556040517f2504020720d4f3f4c5a7010cde1f1e76e9a22857f308ef695d666ed1237bf8a490610fd5908390612ddb565b600a60009054906101000a90046001600160a01b03166001600160a01b03166312d43a516040518163ffffffff1660e01b8152600401602060405180830381865afa158015611f26573d6000803e3d6000fd5b505050506040513d601f19601f82011682018060405250810190611f4a919061339c565b6001600160a01b0316336001600160a01b031614611f7a5760405162461bcd60e51b815260040161059490613864565b611c7e81612c00565b600a60009054906101000a90046001600160a01b03166001600160a01b03166312d43a516040518163ffffffff1660e01b8152600401602060405180830381865afa158015611fd6573d6000803e3d6000fd5b505050506040513d601f19601f82011682018060405250810190611ffa919061339c565b6001600160a01b0316336001600160a01b03161461202a5760405162461bcd60e51b815260040161059490613864565b806120475760405162461bcd60e51b815260040161059490613886565b60118190556040805160018152602081018390527f764c19c693af0da42ec6c6bed68a2dd1a2fa93d24785fcfce58ffa29ae3136069101610fd5565b600b54604051638251135b60e01b8152600481018390526000916001600160a01b031690638251135b90602401602060405180830381865afa1580156120cd573d6000803e3d6000fd5b505050506040513d601f19601f82011682018060405250810190611db59190613785565b600a60009054906101000a90046001600160a01b03166001600160a01b03166312d43a516040518163ffffffff1660e01b8152600401602060405180830381865afa158015612144573d6000803e3d6000fd5b505050506040513d601f19601f82011682018060405250810190612168919061339c565b6001600160a01b0316336001600160a01b0316146121985760405162461bcd60e51b815260040161059490613864565b60038110156121d75760405162461bcd60e51b815260206004820152600b60248201526a4d494e5f414e535745525360a81b6044820152606401610594565b6121e2600282613388565b60011461221a5760405162461bcd60e51b81526004016105949060208082526004908201526322ab22a760e11b604082015260600190565b600e8190556040518181527f230365d79885046a48c9158f0e4840ab95929bbebf5de4be23f7ce5f91a97c6590602001610fd5565b600a60009054906101000a90046001600160a01b03166001600160a01b03166312d43a516040518163ffffffff1660e01b8152600401602060405180830381865afa1580156122a2573d6000803e3d6000fd5b505050506040513d601f19601f820116820180604052508101906122c6919061339c565b6001600160a01b0316336001600160a01b0316146122f65760405162461bcd60e51b815260040161059490613864565b600f5482106123175760405162461bcd60e51b815260040161059490613a2b565b6001600160a01b03811661233d5760405162461bcd60e51b815260040161059490613886565b7f945eb5535c35fb8b656c5c6b7d8bb9d9deba3a44d202bd2b53d58aac4f43db0482600f8481548110612372576123726133b9565b60009182526020918290200154604080519384526001600160a01b039182169284019290925284169082015260600160405180910390a180600f83815481106123bd576123bd6133b9565b9060005260206000200160006101000a8154816001600160a01b0302191690836001600160a01b031602179055505050565b600a60009054906101000a90046001600160a01b03166001600160a01b03166312d43a516040518163ffffffff1660e01b8152600401602060405180830381865afa158015612442573d6000803e3d6000fd5b505050506040513d601f19601f82011682018060405250810190612466919061339c565b6001600160a01b0316336001600160a01b0316146124965760405162461bcd60e51b815260040161059490613864565b600f5481106124b75760405162461bcd60e51b815260040161059490613a2b565b7f03082ced7b8d3c831a021af877c172ae1e0257c3522a135e4d7161343846115681600f83815481106124ec576124ec6133b9565b60009182526020909120015460405161252192916001600160a01b0316909182526001600160a01b0316602082015260400190565b60405180910390a1600f8054612539906001906139ae565b81548110612549576125496133b9565b600091825260209091200154600f80546001600160a01b039092169183908110612575576125756133b9565b9060005260206000200160006101000a8154816001600160a01b0302191690836001600160a01b03160217905550600f8054806125b4576125b4613a50565b600082815260209020810160001990810180546001600160a01b031916905501905550565b600654610100900460ff166126445760405162461bcd60e51b815260206004820152602b60248201527f496e697469616c697a61626c653a20636f6e7472616374206973206e6f74206960448201526a6e697469616c697a696e6760a81b6064820152608401610594565b6001600160a01b03841615801590612664575061070863ffffffff831610155b8015612678575061384063ffffffff831611155b80156126845750600081115b6126c95760405162461bcd60e51b81526020600482015260166024820152752ba927a723afaa2ba0a82fa1a7a729aa292aa1aa27a960511b6044820152606401610594565b60098054600880546001600160a01b0319166001600160a01b038781169182179092558782166001600160c01b031990931692909217600160a01b63ffffffff8716021792839055600784905560408051630dfe168160e01b81529051929390911691630dfe1681916004808201926020929091908290030181865afa158015612757573d6000803e3d6000fd5b505050506040513d601f19601f8201168201806040525081019061277b919061339c565b6001600160a01b031614600960186101000a81548160ff02191690831515021790555050505050565b60008060008360020b126127bb578260020b6127c3565b8260020b6000035b9050620d89e88111156127e9576040516315e4079d60e11b815260040160405180910390fd5b60008160011660000361280057600160801b612812565b6ffffcb933bd6fad37aa2d162d1a5940015b6001600160881b03169050600282161561283c576ffff97272373d413259a46990580e213a0260801c5b600482161561285b576ffff2e50f5f656932ef12357cf3c7fdcc0260801c5b600882161561287a576fffe5caca7e10e4e61c3624eaa0941cd00260801c5b6010821615612899576fffcb9843d60f6159c9db58835c9266440260801c5b60208216156128b8576fff973b41fa98c081472e6896dfb254c00260801c5b60408216156128d7576fff2ea16466c96a3843ec78b326b528610260801c5b60808216156128f6576ffe5dee046a99a2a811c461f1969c30530260801c5b610100821615612916576ffcbe86c7900a88aedcffc83b479aa3a40260801c5b610200821615612936576ff987a7253ac413176f2b074cf7815e540260801c5b610400821615612956576ff3392b0822b70005940c7a398e4b70f30260801c5b610800821615612976576fe7159475a2c29b7443b29c7fa6e889d90260801c5b611000821615612996576fd097f3bdfd2022b8845ad8f792aa58250260801c5b6120008216156129b6576fa9f746462d870fdf8a65dc1f90e061e50260801c5b6140008216156129d6576f70d869a156d2a1b890bb3df62baf32f70260801c5b6180008216156129f6576f31be135f97d08fd981231505542fcfa60260801c5b62010000821615612a17576f09aa508b5b7a84e1c677de54f3e99bc90260801c5b62020000821615612a37576e5d6af8dedb81196699c329225ee6040260801c5b62040000821615612a56576d2216e584f5fa1ea926041bedfe980260801c5b62080000821615612a73576b048a170391f7dc42444e8fa20260801c5b60008460020b1315612a94578060001981612a9057612a90613372565b0490505b640100000000810615612aa8576001612aab565b60005b60ff16602082901c0192505050919050565b6000808060001985870985870292508281108382030391505080600003612af65760008411612aeb57600080fd5b508290049050612b69565b808411612b0257600080fd5b6000848688096000868103871696879004966002600389028118808a02820302808a02820302808a02820302808a02820302808a02820302808a02909103029181900381900460010186841190950394909402919094039290920491909117919091029150505b9392505050565b61070863ffffffff821610801590612b90575061384063ffffffff821611155b612bac5760405162461bcd60e51b815260040161059490613a66565b6009805463ffffffff60a01b1916600160a01b63ffffffff8416908102919091179091556040519081527fc99f383ecd620c333255bd2aef929eedd6808999bac9bfc5f53e10d876abf1ce90602001610fd5565b6001600160a01b038116612c265760405162461bcd60e51b815260040161059490613a66565b600980546001600160a01b0319166001600160a01b0383811691821790925560085460408051630dfe168160e01b815290519190931692630dfe16819160048083019260209291908290030181865afa158015612c87573d6000803e3d6000fd5b505050506040513d601f19601f82011682018060405250810190612cab919061339c565b6001600160a01b031614600960186101000a81548160ff0219169083151502179055507fb9c36e5afdbe55e259bdc128e25c13a15f33271cc71599ce0df510b21c3e8da981604051610fd59190612ddb565b828054828255906000526020600020908101928215612d52579160200282015b82811115612d5257825182546001600160a01b0319166001600160a01b03909116178255602090920191600190910190612d1d565b50612d5e929150612dc6565b5090565b8260028101928215612d52579160200282015b82811115612d52578251825591602001919060010190612d75565b6040518060c001604052806000815260200160008152602001600081526020016000815260200160008152602001600081525090565b5b80821115612d5e5760008155600101612dc7565b6001600160a01b0391909116815260200190565b6001600160a01b0381168114611c7e57600080fd5b8035612e0f81612def565b919050565b803563ffffffff81168114612e0f57600080fd5b634e487b7160e01b600052604160045260246000fd5b60405160c081016001600160401b0381118282101715612e6057612e60612e28565b60405290565b60405161014081016001600160401b0381118282101715612e6057612e60612e28565b604051601f8201601f191681016001600160401b0381118282101715612eb157612eb1612e28565b604052919050565b60006001600160401b03821115612ed257612ed2612e28565b5060051b60200190565b600082601f830112612eed57600080fd5b604051604081018181106001600160401b0382111715612f0f57612f0f612e28565b8060405250806040840185811115612f2657600080fd5b845b81811015612f40578035835260209283019201612f28565b509195945050505050565b60008060008060008060008060006101408a8c031215612f6a57600080fd5b8935612f7581612def565b985060208a810135612f8681612def565b9850612f9460408c01612e14565b975060608b0135612fa481612def565b965060808b0135612fb481612def565b955060a08b0135612fc481612def565b945060c08b0135935060e08b01356001600160401b03811115612fe657600080fd5b8b01601f81018d13612ff757600080fd5b803561300a61300582612eb9565b612e89565b81815260059190911b8201830190838101908f83111561302957600080fd5b928401925b8284101561305057833561304181612def565b8252928401929084019061302e565b80965050505050506130668b6101008c01612edc565b90509295985092959850929598565b60006020828403121561308757600080fd5b5035919050565b60008082840360e08112156130a257600080fd5b8335925060c0601f19820112156130b857600080fd5b506130c1612e3e565b60208401356130cf81612def565b81526040840135602082015260608401356130e981612def565b6040820152608084810135606083015260a08501359082015260c08401356005811061311457600080fd5b60a0820152919491935090915050565b60006020828403121561313657600080fd5b8135612b6981612def565b6000806040838503121561315457600080fd5b50508035926020909101359150565b6000806000806080858703121561317957600080fd5b8435935060208501356004811061318f57600080fd5b93969395505050506040820135916060013590565b8015158114611c7e57600080fd5b8035612e0f816131a4565b6000808284036102008112156131d257600080fd5b83359250601f19016101e0808212156131ea57600080fd5b6131f2612e3e565b6101408084121561320257600080fd5b61320a612e66565b935061321860208801612e04565b845260408701356020850152606087013560408501526080870135606085015260a0870135608085015260c087013560a085015261325860e088016131b2565b60c08501526101008781013560e086015261012080890135918601919091529087013590840152918252610160850135602083015261018085013560408301526101a085013560608301526101c085013560808301529093013560a08401525092909150565b6000602082840312156132d057600080fd5b612b6982612e14565b634e487b7160e01b600052602160045260246000fd5b600481106132ff576132ff6132d9565b9052565b61ffff861681526001600160701b038516602082015260a0810161332a60408301866132ef565b92151560608201529015156080909101529392505050565b6000806040838503121561335557600080fd5b82359150602083013561336781612def565b809150509250929050565b634e487b7160e01b600052601260045260246000fd5b60008261339757613397613372565b500690565b6000602082840312156133ae57600080fd5b8151612b6981612def565b634e487b7160e01b600052603260045260246000fd5b6020808252825182820181905260009190848201906040850190845b8181101561340d57835163ffffffff16835292840192918401916001016133eb565b50909695505050505050565b600082601f83011261342a57600080fd5b8151602061343a61300583612eb9565b8083825260208201915060208460051b87010193508684111561345c57600080fd5b602086015b8481101561348157805161347481612def565b8352918301918301613461565b509695505050505050565b6000806040838503121561349f57600080fd5b82516001600160401b03808211156134b657600080fd5b818501915085601f8301126134ca57600080fd5b815160206134da61300583612eb9565b82815260059290921b840181019181810190898411156134f957600080fd5b948201945b838610156135275785518060060b81146135185760008081fd5b825294820194908201906134fe565b9188015191965090935050508082111561354057600080fd5b5061354d85828601613419565b9150509250929050565b634e487b7160e01b600052601160045260246000fd5b600682810b9082900b03667fffffffffffff198112667fffffffffffff82131715611db557611db5613557565b60008160060b8360060b806135b1576135b1613372565b667fffffffffffff198214600019821416156135cf576135cf613557565b90059392505050565b60008260060b806135eb576135eb613372565b808360060b0791505092915050565b60008160020b627fffff19810361361357613613613557565b6000190192915050565b8082028115828204841417611db557611db5613557565b60008261364357613643613372565b500490565b600181815b8085111561368357816000190482111561366957613669613557565b8085161561367657918102915b93841c939080029061364d565b509250929050565b60008261369a57506001611db5565b816136a757506000611db5565b81600181146136bd57600281146136c7576136e3565b6001915050611db5565b60ff8411156136d8576136d8613557565b50506001821b611db5565b5060208310610133831016604e8410600b8410161715613706575081810a611db5565b6137108383613648565b806000190482111561372457613724613557565b029392505050565b6000612b6960ff84168361368b565b6020808252600c908201526b54524144494e475f4f4e4c5960a01b604082015260600190565b6000806040838503121561377457600080fd5b505080516020909101519092909150565b60006020828403121561379757600080fd5b5051919050565b805182526020810151602083015260408101516040830152606081015160608301526080810151608083015260a081015160a08301525050565b61018081016137e7828561379e565b82516001600160a01b0390811660c0840152602084015160e08401526040840151166101008301526060830151610120830152608083015161014083015260a08301516005811061383a5761383a6132d9565b80610160840152509392505050565b60e08101613857828561379e565b612b6960c08301846132ef565b602080825260089082015267474f565f4f4e4c5960c01b604082015260600190565b602080825260079082015266056414c55455f360cc1b604082015260600190565b6000600182016138b9576138b9613557565b5060010190565b6000602082840312156138d257600080fd5b8151612b69816131a4565b6102a081016138ec828561379e565b825180516001600160a01b031660c0840152602081015160e084015260408101516101008181860152606083015191506101208281870152608084015161014087015260a084015161016087015260c0840151925061395061018087018415159052565b60e08401516101a0870152908301516101c0860152909101516101e084015250602083015161020083015260408301516102208301526060830151610240830152608083015161026083015260a09092015161028090910152919050565b81810381811115611db557611db5613557565b805169ffffffffffffffffffff81168114612e0f57600080fd5b600080600080600060a086880312156139f357600080fd5b6139fc866139c1565b9450602086015193506040860151925060608601519150613a1f608087016139c1565b90509295509295909350565b6020808252600b908201526a0aea49e9c8ebe929c888ab60ab1b604082015260600190565b634e487b7160e01b600052603160045260246000fd5b6020808252600b908201526a57524f4e475f56414c554560a81b60408201526060019056fea2646970667358221220b8eed566513fcf438bf08486196cdc6250e583408da8b77aedcf0c8fbfe7d96f64736f6c63430008170033",
  "devdoc": {
    "events": {
      "Initialized(uint8)": {
        "details": "Triggered when the contract has been initialized or reinitialized."
      }
    },
    "kind": "dev",
    "methods": {},
    "version": 1
  },
  "userdoc": {
    "kind": "user",
    "methods": {},
    "version": 1
  },
  "storageLayout": {
    "storage": [
      {
        "astId": 319,
        "contract": "contracts/PriceAggregator.sol:PriceAggregator",
        "label": "s_ens",
        "offset": 0,
        "slot": "0",
        "type": "t_contract(ENSInterface)974"
      },
      {
        "astId": 321,
        "contract": "contracts/PriceAggregator.sol:PriceAggregator",
        "label": "s_ensNode",
        "offset": 0,
        "slot": "1",
        "type": "t_bytes32"
      },
      {
        "astId": 324,
        "contract": "contracts/PriceAggregator.sol:PriceAggregator",
        "label": "s_link",
        "offset": 0,
        "slot": "2",
        "type": "t_contract(LinkTokenInterface)1069"
      },
      {
        "astId": 327,
        "contract": "contracts/PriceAggregator.sol:PriceAggregator",
        "label": "s_oracle",
        "offset": 0,
        "slot": "3",
        "type": "t_contract(OperatorInterface)1149"
      },
      {
        "astId": 330,
        "contract": "contracts/PriceAggregator.sol:PriceAggregator",
        "label": "s_requestCount",
        "offset": 0,
        "slot": "4",
        "type": "t_uint256"
      },
      {
        "astId": 334,
        "contract": "contracts/PriceAggregator.sol:PriceAggregator",
        "label": "s_pendingRequests",
        "offset": 0,
        "slot": "5",
        "type": "t_mapping(t_bytes32,t_address)"
      },
      {
        "astId": 2892,
        "contract": "contracts/PriceAggregator.sol:PriceAggregator",
        "label": "_initialized",
        "offset": 0,
        "slot": "6",
        "type": "t_uint8"
      },
      {
        "astId": 2895,
        "contract": "contracts/PriceAggregator.sol:PriceAggregator",
        "label": "_initializing",
        "offset": 1,
        "slot": "6",
        "type": "t_bool"
      },
      {
        "astId": 22373,
        "contract": "contracts/PriceAggregator.sol:PriceAggregator",
        "label": "precision",
        "offset": 0,
        "slot": "7",
        "type": "t_uint256"
      },
      {
        "astId": 22375,
        "contract": "contracts/PriceAggregator.sol:PriceAggregator",
        "label": "token",
        "offset": 0,
        "slot": "8",
        "type": "t_address"
      },
      {
        "astId": 22378,
        "contract": "contracts/PriceAggregator.sol:PriceAggregator",
        "label": "uniV3Pool",
        "offset": 0,
        "slot": "9",
        "type": "t_contract(IUniswapV3Pool)7300"
      },
      {
        "astId": 22380,
        "contract": "contracts/PriceAggregator.sol:PriceAggregator",
        "label": "twapInterval",
        "offset": 20,
        "slot": "9",
        "type": "t_uint32"
      },
      {
        "astId": 22382,
        "contract": "contracts/PriceAggregator.sol:PriceAggregator",
        "label": "isGnsToken0InLp",
        "offset": 24,
        "slot": "9",
        "type": "t_bool"
      },
      {
        "astId": 14838,
        "contract": "contracts/PriceAggregator.sol:PriceAggregator",
        "label": "storageT",
        "offset": 0,
        "slot": "10",
        "type": "t_contract(StorageInterface)33860"
      },
      {
        "astId": 14841,
        "contract": "contracts/PriceAggregator.sol:PriceAggregator",
        "label": "pairsStorage",
        "offset": 0,
        "slot": "11",
        "type": "t_contract(PairsStorageInterfaceV6)33207"
      },
      {
        "astId": 14844,
        "contract": "contracts/PriceAggregator.sol:PriceAggregator",
        "label": "linkPriceFeed",
        "offset": 0,
        "slot": "12",
        "type": "t_contract(ChainlinkFeedInterface)32316"
      },
      {
        "astId": 14855,
        "contract": "contracts/PriceAggregator.sol:PriceAggregator",
        "label": "orderIds",
        "offset": 0,
        "slot": "13",
        "type": "t_uint256"
      },
      {
        "astId": 14857,
        "contract": "contracts/PriceAggregator.sol:PriceAggregator",
        "label": "minAnswers",
        "offset": 0,
        "slot": "14",
        "type": "t_uint256"
      },
      {
        "astId": 14886,
        "contract": "contracts/PriceAggregator.sol:PriceAggregator",
        "label": "nodes",
        "offset": 0,
        "slot": "15",
        "type": "t_array(t_address)dyn_storage"
      },
      {
        "astId": 14890,
        "contract": "contracts/PriceAggregator.sol:PriceAggregator",
        "label": "jobIds",
        "offset": 0,
        "slot": "16",
        "type": "t_array(t_bytes32)2_storage"
      },
      {
        "astId": 14895,
        "contract": "contracts/PriceAggregator.sol:PriceAggregator",
        "label": "orders",
        "offset": 0,
        "slot": "18",
        "type": "t_mapping(t_uint256,t_struct(Order)14874_storage)"
      },
      {
        "astId": 14899,
        "contract": "contracts/PriceAggregator.sol:PriceAggregator",
        "label": "orderIdByRequest",
        "offset": 0,
        "slot": "19",
        "type": "t_mapping(t_bytes32,t_uint256)"
      },
      {
        "astId": 14904,
        "contract": "contracts/PriceAggregator.sol:PriceAggregator",
        "label": "ordersAnswers",
        "offset": 0,
        "slot": "20",
        "type": "t_mapping(t_uint256,t_array(t_uint256)dyn_storage)"
      },
      {
        "astId": 14910,
        "contract": "contracts/PriceAggregator.sol:PriceAggregator",
        "label": "lookbackOrderAnswers",
        "offset": 0,
        "slot": "21",
        "type": "t_mapping(t_uint256,t_array(t_struct(LookbackOrderAnswer)14883_storage)dyn_storage)"
      }
    ],
    "types": {
      "t_address": {
        "encoding": "inplace",
        "label": "address",
        "numberOfBytes": "20"
      },
      "t_array(t_address)dyn_storage": {
        "base": "t_address",
        "encoding": "dynamic_array",
        "label": "address[]",
        "numberOfBytes": "32"
      },
      "t_array(t_bytes32)2_storage": {
        "base": "t_bytes32",
        "encoding": "inplace",
        "label": "bytes32[2]",
        "numberOfBytes": "64"
      },
      "t_array(t_struct(LookbackOrderAnswer)14883_storage)dyn_storage": {
        "base": "t_struct(LookbackOrderAnswer)14883_storage",
        "encoding": "dynamic_array",
        "label": "struct PriceAggregator.LookbackOrderAnswer[]",
        "numberOfBytes": "32"
      },
      "t_array(t_uint256)dyn_storage": {
        "base": "t_uint256",
        "encoding": "dynamic_array",
        "label": "uint256[]",
        "numberOfBytes": "32"
      },
      "t_bool": {
        "encoding": "inplace",
        "label": "bool",
        "numberOfBytes": "1"
      },
      "t_bytes32": {
        "encoding": "inplace",
        "label": "bytes32",
        "numberOfBytes": "32"
      },
      "t_contract(ChainlinkFeedInterface)32316": {
        "encoding": "inplace",
        "label": "contract ChainlinkFeedInterface",
        "numberOfBytes": "20"
      },
      "t_contract(ENSInterface)974": {
        "encoding": "inplace",
        "label": "contract ENSInterface",
        "numberOfBytes": "20"
      },
      "t_contract(IUniswapV3Pool)7300": {
        "encoding": "inplace",
        "label": "contract IUniswapV3Pool",
        "numberOfBytes": "20"
      },
      "t_contract(LinkTokenInterface)1069": {
        "encoding": "inplace",
        "label": "contract LinkTokenInterface",
        "numberOfBytes": "20"
      },
      "t_contract(OperatorInterface)1149": {
        "encoding": "inplace",
        "label": "contract OperatorInterface",
        "numberOfBytes": "20"
      },
      "t_contract(PairsStorageInterfaceV6)33207": {
        "encoding": "inplace",
        "label": "contract PairsStorageInterfaceV6",
        "numberOfBytes": "20"
      },
      "t_contract(StorageInterface)33860": {
        "encoding": "inplace",
        "label": "contract StorageInterface",
        "numberOfBytes": "20"
      },
      "t_enum(OrderType)14862": {
        "encoding": "inplace",
        "label": "enum PriceAggregator.OrderType",
        "numberOfBytes": "1"
      },
      "t_mapping(t_bytes32,t_address)": {
        "encoding": "mapping",
        "key": "t_bytes32",
        "label": "mapping(bytes32 => address)",
        "numberOfBytes": "32",
        "value": "t_address"
      },
      "t_mapping(t_bytes32,t_uint256)": {
        "encoding": "mapping",
        "key": "t_bytes32",
        "label": "mapping(bytes32 => uint256)",
        "numberOfBytes": "32",
        "value": "t_uint256"
      },
      "t_mapping(t_uint256,t_array(t_struct(LookbackOrderAnswer)14883_storage)dyn_storage)": {
        "encoding": "mapping",
        "key": "t_uint256",
        "label": "mapping(uint256 => struct PriceAggregator.LookbackOrderAnswer[])",
        "numberOfBytes": "32",
        "value": "t_array(t_struct(LookbackOrderAnswer)14883_storage)dyn_storage"
      },
      "t_mapping(t_uint256,t_array(t_uint256)dyn_storage)": {
        "encoding": "mapping",
        "key": "t_uint256",
        "label": "mapping(uint256 => uint256[])",
        "numberOfBytes": "32",
        "value": "t_array(t_uint256)dyn_storage"
      },
      "t_mapping(t_uint256,t_struct(Order)14874_storage)": {
        "encoding": "mapping",
        "key": "t_uint256",
        "label": "mapping(uint256 => struct PriceAggregator.Order)",
        "numberOfBytes": "32",
        "value": "t_struct(Order)14874_storage"
      },
      "t_struct(LookbackOrderAnswer)14883_storage": {
        "encoding": "inplace",
        "label": "struct PriceAggregator.LookbackOrderAnswer",
        "members": [
          {
            "astId": 14876,
            "contract": "contracts/PriceAggregator.sol:PriceAggregator",
            "label": "open",
            "offset": 0,
            "slot": "0",
            "type": "t_uint64"
          },
          {
            "astId": 14878,
            "contract": "contracts/PriceAggregator.sol:PriceAggregator",
            "label": "high",
            "offset": 8,
            "slot": "0",
            "type": "t_uint64"
          },
          {
            "astId": 14880,
            "contract": "contracts/PriceAggregator.sol:PriceAggregator",
            "label": "low",
            "offset": 16,
            "slot": "0",
            "type": "t_uint64"
          },
          {
            "astId": 14882,
            "contract": "contracts/PriceAggregator.sol:PriceAggregator",
            "label": "ts",
            "offset": 24,
            "slot": "0",
            "type": "t_uint64"
          }
        ],
        "numberOfBytes": "32"
      },
      "t_struct(Order)14874_storage": {
        "encoding": "inplace",
        "label": "struct PriceAggregator.Order",
        "members": [
          {
            "astId": 14864,
            "contract": "contracts/PriceAggregator.sol:PriceAggregator",
            "label": "pairIndex",
            "offset": 0,
            "slot": "0",
            "type": "t_uint16"
          },
          {
            "astId": 14866,
            "contract": "contracts/PriceAggregator.sol:PriceAggregator",
            "label": "linkFeePerNode",
            "offset": 2,
            "slot": "0",
            "type": "t_uint112"
          },
          {
            "astId": 14869,
            "contract": "contracts/PriceAggregator.sol:PriceAggregator",
            "label": "orderType",
            "offset": 16,
            "slot": "0",
            "type": "t_enum(OrderType)14862"
          },
          {
            "astId": 14871,
            "contract": "contracts/PriceAggregator.sol:PriceAggregator",
            "label": "active",
            "offset": 17,
            "slot": "0",
            "type": "t_bool"
          },
          {
            "astId": 14873,
            "contract": "contracts/PriceAggregator.sol:PriceAggregator",
            "label": "isLookback",
            "offset": 18,
            "slot": "0",
            "type": "t_bool"
          }
        ],
        "numberOfBytes": "32"
      },
      "t_uint112": {
        "encoding": "inplace",
        "label": "uint112",
        "numberOfBytes": "14"
      },
      "t_uint16": {
        "encoding": "inplace",
        "label": "uint16",
        "numberOfBytes": "2"
      },
      "t_uint256": {
        "encoding": "inplace",
        "label": "uint256",
        "numberOfBytes": "32"
      },
      "t_uint32": {
        "encoding": "inplace",
        "label": "uint32",
        "numberOfBytes": "4"
      },
      "t_uint64": {
        "encoding": "inplace",
        "label": "uint64",
        "numberOfBytes": "8"
      },
      "t_uint8": {
        "encoding": "inplace",
        "label": "uint8",
        "numberOfBytes": "1"
      }
    }
  }
}