{
  "address": "0x64b68f0AE5D1D846b549888fd45716edEF20B15B",
  "abi": [
    {
      "inputs": [
        {
          "internalType": "contract StorageInterface",
          "name": "_storageT",
          "type": "address"
        }
      ],
      "stateMutability": "nonpayable",
      "type": "constructor"
    },
    {
      "inputs": [],
      "name": "checker",
      "outputs": [
        {
          "internalType": "bool",
          "name": "canExec",
          "type": "bool"
        },
        {
          "internalType": "bytes",
          "name": "execPayload",
          "type": "bytes"
        }
      ],
      "stateMutability": "view",
      "type": "function"
    },
    {
      "inputs": [],
      "name": "storageT",
      "outputs": [
        {
          "internalType": "contract StorageInterface",
          "name": "",
          "type": "address"
        }
      ],
      "stateMutability": "view",
      "type": "function"
    }
  ],
  "transactionHash": "0xb4f7737c4ce3b325ff15ae6017be2f147a3cae0d4de8a3715d5a926e28ae0c7a",
  "args": [
    "0x258B0e4ee0009F73e2D215905f3da93D2cFCc537"
  ],
  "numDeployments": 1,
  "solcInputHash": "5af97cf568aedef2eac0d2ad801f242e",
  "bytecode": "0x60a060405234801561001057600080fd5b5060405161048038038061048083398101604081905261002f91610040565b6001600160a01b0316608052610070565b60006020828403121561005257600080fd5b81516001600160a01b038116811461006957600080fd5b9392505050565b6080516103f0610090600039600081816040015260a301526103f06000f3fe608060405234801561001057600080fd5b50600436106100365760003560e01c806316fff0741461003b578063cf5303cf1461007f575b600080fd5b6100627f000000000000000000000000000000000000000000000000000000000000000081565b6040516001600160a01b0390911681526020015b60405180910390f35b610087610095565b604051610076929190610186565b6000606060008060008060007f00000000000000000000000000000000000000000000000000000000000000006001600160a01b0316630a769d716040518163ffffffff1660e01b815260040161322060405180830381865afa158015610100573d6000803e3d6000fd5b505050506040513d601f19601f820116820180604052508101906101249190610268565b84516040519015159c5094995092975090955093509150610151908690869086908690869060240161034a565b60408051601f198184030181529190526020810180516001600160e01b031663b354169960e01b179052969795505050505050565b82151581526000602060406020840152835180604085015260005b818110156101bd578581018301518582016060015282016101a1565b506000606082860101526060601f19601f830116850101925050509392505050565b604051610c80810167ffffffffffffffff8111828210171561021157634e487b7160e01b600052604160045260246000fd5b60405290565b600082601f83011261022857600080fd5b6102306101df565b80610c8084018581111561024357600080fd5b845b8181101561025d578051845260209384019301610245565b509095945050505050565b6000806000806000613220868803121561028157600080fd5b61028b8787610217565b945086610c9f87011261029d57600080fd5b6102a56101df565b806119008801898111156102b857600080fd5b610c8089015b818110156102ec5780516001600160a01b03811681146102de5760008081fd5b8452602093840193016102be565b508196506102fa8a82610217565b955050505061030d876125808801610217565b915061320086015190509295509295909350565b8060005b6064811015610344578151845260209384019390910190600101610325565b50505050565b61322081016103598288610321565b610c8082018660005b606481101561038a5781516001600160a01b0316835260209283019290910190600101610362565b50505061039b611900830186610321565b6103a9612580830185610321565b82613200830152969550505050505056fea2646970667358221220edfd342c19e530fb2ffae4a7344d0b3a758632359ec3ef4bb3faed860f61be0c64736f6c63430008170033",
  "devdoc": {
    "kind": "dev",
    "methods": {},
    "version": 1
  },
  "userdoc": {
    "kind": "user",
    "methods": {},
    "version": 1
  },
  "storageLayout": {
    "storage": [],
    "types": null
  }
}