{
  "address": "0xAeA4a53767A6B802EABCD21031Ad0e3C3f3Fe2a0",
  "abi": [
    {
      "anonymous": false,
      "inputs": [
        {
          "indexed": false,
          "internalType": "uint8",
          "name": "version",
          "type": "uint8"
        }
      ],
      "name": "Initialized",
      "type": "event"
    },
    {
      "anonymous": false,
      "inputs": [
        {
          "indexed": true,
          "internalType": "address",
          "name": "previousOwner",
          "type": "address"
        },
        {
          "indexed": true,
          "internalType": "address",
          "name": "newOwner",
          "type": "address"
        }
      ],
      "name": "OwnershipTransferred",
      "type": "event"
    },
    {
      "anonymous": false,
      "inputs": [
        {
          "indexed": false,
          "internalType": "uint256",
          "name": "amount",
          "type": "uint256"
        },
        {
          "indexed": false,
          "internalType": "address",
          "name": "receiver",
          "type": "address"
        }
      ],
      "name": "sent",
      "type": "event"
    },
    {
      "inputs": [
        {
          "internalType": "address",
          "name": "owner",
          "type": "address"
        }
      ],
      "name": "Faucet_init",
      "outputs": [],
      "stateMutability": "nonpayable",
      "type": "function"
    },
    {
      "inputs": [],
      "name": "owner",
      "outputs": [
        {
          "internalType": "address",
          "name": "",
          "type": "address"
        }
      ],
      "stateMutability": "view",
      "type": "function"
    },
    {
      "inputs": [],
      "name": "renounceOwnership",
      "outputs": [],
      "stateMutability": "nonpayable",
      "type": "function"
    },
    {
      "inputs": [
        {
          "internalType": "address payable",
          "name": "receiver",
          "type": "address"
        }
      ],
      "name": "send",
      "outputs": [],
      "stateMutability": "payable",
      "type": "function"
    },
    {
      "inputs": [
        {
          "internalType": "address",
          "name": "newOwner",
          "type": "address"
        }
      ],
      "name": "transferOwnership",
      "outputs": [],
      "stateMutability": "nonpayable",
      "type": "function"
    },
    {
      "inputs": [
        {
          "internalType": "address payable",
          "name": "receiver",
          "type": "address"
        }
      ],
      "name": "withdraw",
      "outputs": [],
      "stateMutability": "nonpayable",
      "type": "function"
    }
  ],
  "transactionHash": "0x816ab0195de08c85cc0beebfb04e7dd5488659737764da1f44a1592f9095ed53",
  "args": [],
  "numDeployments": 1,
  "solcInputHash": "988ef56db206df3adb44e87e8540bd4d",
  "bytecode": "0x608060405234801561001057600080fd5b50610593806100206000396000f3fe6080604052600436106100555760003560e01c80633e58c58c1461005a57806351cff8d91461006f578063715018a61461008f5780638da5cb5b146100a4578063eb3995ef146100d0578063f2fde38b146100f0575b600080fd5b61006d610068366004610512565b610110565b005b34801561007b57600080fd5b5061006d61008a366004610512565b610278565b34801561009b57600080fd5b5061006d6102b9565b3480156100b057600080fd5b50603354604080516001600160a01b039092168252519081900360200190f35b3480156100dc57600080fd5b5061006d6100eb366004610512565b6102cd565b3480156100fc57600080fd5b5061006d61010b366004610512565b6103d8565b6001600160a01b03811660009081526065602052604081205462015180906101389042610536565b101561018b5760405162461bcd60e51b815260206004820152601c60248201527f4661756365743a206561726c7920746f2067657420666175636574730000000060448201526064015b60405180910390fd5b6001600160a01b03821660009081526065602052604090204290556706f05b59d3b200004711156101f857506040516706f05b59d3b20000906001600160a01b03831690600090839082818181858883f193505050501580156101f2573d6000803e3d6000fd5b50610232565b5060405147906001600160a01b038316904780156108fc02916000818181858888f19350505050158015610230573d6000803e3d6000fd5b505b604080518281526001600160a01b03841660208201527f27739afea5f507907f5c505a6dfca04983f42c6befaf5b6358b35135a1528c9c91015b60405180910390a15050565b610280610451565b6040516001600160a01b038216904780156108fc02916000818181858888f193505050501580156102b5573d6000803e3d6000fd5b5050565b6102c1610451565b6102cb60006104ab565b565b600054610100900460ff16158080156102ed5750600054600160ff909116105b806103075750303b158015610307575060005460ff166001145b61036a5760405162461bcd60e51b815260206004820152602e60248201527f496e697469616c697a61626c653a20636f6e747261637420697320616c72656160448201526d191e481a5b9a5d1a585b1a5e995960921b6064820152608401610182565b6000805460ff19166001179055801561038d576000805461ff0019166101001790555b610396826104ab565b80156102b5576000805461ff0019169055604051600181527f7f26b83ff96e1f2b6a682f133852f6798a09c465da95921460cefb38474024989060200161026c565b6103e0610451565b6001600160a01b0381166104455760405162461bcd60e51b815260206004820152602660248201527f4f776e61626c653a206e6577206f776e657220697320746865207a65726f206160448201526564647265737360d01b6064820152608401610182565b61044e816104ab565b50565b6033546001600160a01b031633146102cb5760405162461bcd60e51b815260206004820181905260248201527f4f776e61626c653a2063616c6c6572206973206e6f7420746865206f776e65726044820152606401610182565b603380546001600160a01b038381166001600160a01b0319831681179093556040519116919082907f8be0079c531659141344cd1fd0a4f28419497f9722a3daafe3b4186f6b6457e090600090a35050565b6001600160a01b038116811461044e57600080fd5b60006020828403121561052457600080fd5b813561052f816104fd565b9392505050565b8181038181111561055757634e487b7160e01b600052601160045260246000fd5b9291505056fea26469706673582212206a779741b085b3406e1f3af8622397a49701e8b24c9bba8f1077a1b2d6e43d7464736f6c63430008170033",
  "devdoc": {
    "events": {
      "Initialized(uint8)": {
        "details": "Triggered when the contract has been initialized or reinitialized."
      }
    },
    "kind": "dev",
    "methods": {
      "owner()": {
        "details": "Returns the address of the current owner."
      },
      "renounceOwnership()": {
        "details": "Leaves the contract without owner. It will not be possible to call `onlyOwner` functions. Can only be called by the current owner. NOTE: Renouncing ownership will leave the contract without an owner, thereby disabling any functionality that is only available to the owner."
      },
      "transferOwnership(address)": {
        "details": "Transfers ownership of the contract to a new account (`newOwner`). Can only be called by the current owner."
      }
    },
    "version": 1
  },
  "userdoc": {
    "kind": "user",
    "methods": {},
    "version": 1
  },
  "storageLayout": {
    "storage": [
      {
        "astId": 2892,
        "contract": "contracts/ETHFaucet.sol:ETHFaucet",
        "label": "_initialized",
        "offset": 0,
        "slot": "0",
        "type": "t_uint8"
      },
      {
        "astId": 2895,
        "contract": "contracts/ETHFaucet.sol:ETHFaucet",
        "label": "_initializing",
        "offset": 1,
        "slot": "0",
        "type": "t_bool"
      },
      {
        "astId": 5212,
        "contract": "contracts/ETHFaucet.sol:ETHFaucet",
        "label": "__gap",
        "offset": 0,
        "slot": "1",
        "type": "t_array(t_uint256)50_storage"
      },
      {
        "astId": 2596,
        "contract": "contracts/ETHFaucet.sol:ETHFaucet",
        "label": "_owner",
        "offset": 0,
        "slot": "51",
        "type": "t_address"
      },
      {
        "astId": 2716,
        "contract": "contracts/ETHFaucet.sol:ETHFaucet",
        "label": "__gap",
        "offset": 0,
        "slot": "52",
        "type": "t_array(t_uint256)49_storage"
      },
      {
        "astId": 10568,
        "contract": "contracts/ETHFaucet.sol:ETHFaucet",
        "label": "lastRequestTime",
        "offset": 0,
        "slot": "101",
        "type": "t_mapping(t_address,t_uint256)"
      }
    ],
    "types": {
      "t_address": {
        "encoding": "inplace",
        "label": "address",
        "numberOfBytes": "20"
      },
      "t_array(t_uint256)49_storage": {
        "base": "t_uint256",
        "encoding": "inplace",
        "label": "uint256[49]",
        "numberOfBytes": "1568"
      },
      "t_array(t_uint256)50_storage": {
        "base": "t_uint256",
        "encoding": "inplace",
        "label": "uint256[50]",
        "numberOfBytes": "1600"
      },
      "t_bool": {
        "encoding": "inplace",
        "label": "bool",
        "numberOfBytes": "1"
      },
      "t_mapping(t_address,t_uint256)": {
        "encoding": "mapping",
        "key": "t_address",
        "label": "mapping(address => uint256)",
        "numberOfBytes": "32",
        "value": "t_uint256"
      },
      "t_uint256": {
        "encoding": "inplace",
        "label": "uint256",
        "numberOfBytes": "32"
      },
      "t_uint8": {
        "encoding": "inplace",
        "label": "uint8",
        "numberOfBytes": "1"
      }
    }
  }
}