{
  "address": "0x0f815DC3788116c2aDa06851bE18d40B49CD4D7A",
  "abi": [
    {
      "anonymous": false,
      "inputs": [
        {
          "indexed": false,
          "internalType": "uint256",
          "name": "pairIndex",
          "type": "uint256"
        },
        {
          "indexed": false,
          "internalType": "int256",
          "name": "valueLong",
          "type": "int256"
        },
        {
          "indexed": false,
          "internalType": "int256",
          "name": "valueShort",
          "type": "int256"
        }
      ],
      "name": "AccFundingFeesStored",
      "type": "event"
    },
    {
      "anonymous": false,
      "inputs": [
        {
          "indexed": false,
          "internalType": "uint256",
          "name": "pairIndex",
          "type": "uint256"
        },
        {
          "indexed": false,
          "internalType": "uint256",
          "name": "value",
          "type": "uint256"
        }
      ],
      "name": "AccRolloverFeesStored",
      "type": "event"
    },
    {
      "anonymous": false,
      "inputs": [
        {
          "indexed": false,
          "internalType": "uint256",
          "name": "pairIndex",
          "type": "uint256"
        },
        {
          "indexed": false,
          "internalType": "bool",
          "name": "long",
          "type": "bool"
        },
        {
          "indexed": false,
          "internalType": "uint256",
          "name": "collateral",
          "type": "uint256"
        },
        {
          "indexed": false,
          "internalType": "uint256",
          "name": "leverage",
          "type": "uint256"
        },
        {
          "indexed": false,
          "internalType": "int256",
          "name": "percentProfit",
          "type": "int256"
        },
        {
          "indexed": false,
          "internalType": "uint256",
          "name": "rolloverFees",
          "type": "uint256"
        },
        {
          "indexed": false,
          "internalType": "int256",
          "name": "fundingFees",
          "type": "int256"
        }
      ],
      "name": "FeesCharged",
      "type": "event"
    },
    {
      "anonymous": false,
      "inputs": [
        {
          "indexed": false,
          "internalType": "uint256",
          "name": "pairIndex",
          "type": "uint256"
        },
        {
          "indexed": false,
          "internalType": "uint256",
          "name": "value",
          "type": "uint256"
        }
      ],
      "name": "FundingFeePerBlockPUpdated",
      "type": "event"
    },
    {
      "anonymous": false,
      "inputs": [
        {
          "indexed": false,
          "internalType": "uint8",
          "name": "version",
          "type": "uint8"
        }
      ],
      "name": "Initialized",
      "type": "event"
    },
    {
      "anonymous": false,
      "inputs": [
        {
          "indexed": false,
          "internalType": "address",
          "name": "value",
          "type": "address"
        }
      ],
      "name": "ManagerUpdated",
      "type": "event"
    },
    {
      "anonymous": false,
      "inputs": [
        {
          "indexed": false,
          "internalType": "uint256",
          "name": "value",
          "type": "uint256"
        }
      ],
      "name": "MaxNegativePnlOnOpenPUpdated",
      "type": "event"
    },
    {
      "anonymous": false,
      "inputs": [
        {
          "indexed": false,
          "internalType": "uint256",
          "name": "pairIndex",
          "type": "uint256"
        },
        {
          "indexed": false,
          "internalType": "uint256",
          "name": "valueAbove",
          "type": "uint256"
        },
        {
          "indexed": false,
          "internalType": "uint256",
          "name": "valueBelow",
          "type": "uint256"
        }
      ],
      "name": "OnePercentDepthUpdated",
      "type": "event"
    },
    {
      "anonymous": false,
      "inputs": [
        {
          "indexed": false,
          "internalType": "uint256",
          "name": "pairIndex",
          "type": "uint256"
        },
        {
          "components": [
            {
              "internalType": "uint256",
              "name": "onePercentDepthAbove",
              "type": "uint256"
            },
            {
              "internalType": "uint256",
              "name": "onePercentDepthBelow",
              "type": "uint256"
            },
            {
              "internalType": "uint256",
              "name": "rolloverFeePerBlockP",
              "type": "uint256"
            },
            {
              "internalType": "uint256",
              "name": "fundingFeePerBlockP",
              "type": "uint256"
            }
          ],
          "indexed": false,
          "internalType": "struct PairInfos.PairParams",
          "name": "value",
          "type": "tuple"
        }
      ],
      "name": "PairParamsUpdated",
      "type": "event"
    },
    {
      "anonymous": false,
      "inputs": [
        {
          "indexed": false,
          "internalType": "uint256",
          "name": "pairIndex",
          "type": "uint256"
        },
        {
          "indexed": false,
          "internalType": "uint256",
          "name": "value",
          "type": "uint256"
        }
      ],
      "name": "RolloverFeePerBlockPUpdated",
      "type": "event"
    },
    {
      "anonymous": false,
      "inputs": [
        {
          "indexed": false,
          "internalType": "address",
          "name": "trader",
          "type": "address"
        },
        {
          "indexed": false,
          "internalType": "uint256",
          "name": "pairIndex",
          "type": "uint256"
        },
        {
          "indexed": false,
          "internalType": "uint256",
          "name": "index",
          "type": "uint256"
        },
        {
          "indexed": false,
          "internalType": "uint256",
          "name": "rollover",
          "type": "uint256"
        },
        {
          "indexed": false,
          "internalType": "int256",
          "name": "funding",
          "type": "int256"
        }
      ],
      "name": "TradeInitialAccFeesStored",
      "type": "event"
    },
    {
      "inputs": [
        {
          "internalType": "uint256",
          "name": "pairIndex",
          "type": "uint256"
        }
      ],
      "name": "getAccFundingFeesLong",
      "outputs": [
        {
          "internalType": "int256",
          "name": "",
          "type": "int256"
        }
      ],
      "stateMutability": "view",
      "type": "function"
    },
    {
      "inputs": [
        {
          "internalType": "uint256",
          "name": "pairIndex",
          "type": "uint256"
        }
      ],
      "name": "getAccFundingFeesShort",
      "outputs": [
        {
          "internalType": "int256",
          "name": "",
          "type": "int256"
        }
      ],
      "stateMutability": "view",
      "type": "function"
    },
    {
      "inputs": [
        {
          "internalType": "uint256",
          "name": "pairIndex",
          "type": "uint256"
        }
      ],
      "name": "getAccFundingFeesUpdateBlock",
      "outputs": [
        {
          "internalType": "uint256",
          "name": "",
          "type": "uint256"
        }
      ],
      "stateMutability": "view",
      "type": "function"
    },
    {
      "inputs": [
        {
          "internalType": "uint256",
          "name": "pairIndex",
          "type": "uint256"
        }
      ],
      "name": "getAccRolloverFees",
      "outputs": [
        {
          "internalType": "uint256",
          "name": "",
          "type": "uint256"
        }
      ],
      "stateMutability": "view",
      "type": "function"
    },
    {
      "inputs": [
        {
          "internalType": "uint256",
          "name": "pairIndex",
          "type": "uint256"
        }
      ],
      "name": "getAccRolloverFeesUpdateBlock",
      "outputs": [
        {
          "internalType": "uint256",
          "name": "",
          "type": "uint256"
        }
      ],
      "stateMutability": "view",
      "type": "function"
    },
    {
      "inputs": [
        {
          "internalType": "uint256",
          "name": "pairIndex",
          "type": "uint256"
        }
      ],
      "name": "getFundingFeePerBlockP",
      "outputs": [
        {
          "internalType": "uint256",
          "name": "",
          "type": "uint256"
        }
      ],
      "stateMutability": "view",
      "type": "function"
    },
    {
      "inputs": [
        {
          "internalType": "uint256",
          "name": "pairIndex",
          "type": "uint256"
        }
      ],
      "name": "getOnePercentDepthAbove",
      "outputs": [
        {
          "internalType": "uint256",
          "name": "",
          "type": "uint256"
        }
      ],
      "stateMutability": "view",
      "type": "function"
    },
    {
      "inputs": [
        {
          "internalType": "uint256",
          "name": "pairIndex",
          "type": "uint256"
        }
      ],
      "name": "getOnePercentDepthBelow",
      "outputs": [
        {
          "internalType": "uint256",
          "name": "",
          "type": "uint256"
        }
      ],
      "stateMutability": "view",
      "type": "function"
    },
    {
      "inputs": [
        {
          "internalType": "uint256[]",
          "name": "indices",
          "type": "uint256[]"
        }
      ],
      "name": "getPairInfos",
      "outputs": [
        {
          "components": [
            {
              "internalType": "uint256",
              "name": "onePercentDepthAbove",
              "type": "uint256"
            },
            {
              "internalType": "uint256",
              "name": "onePercentDepthBelow",
              "type": "uint256"
            },
            {
              "internalType": "uint256",
              "name": "rolloverFeePerBlockP",
              "type": "uint256"
            },
            {
              "internalType": "uint256",
              "name": "fundingFeePerBlockP",
              "type": "uint256"
            }
          ],
          "internalType": "struct PairInfos.PairParams[]",
          "name": "",
          "type": "tuple[]"
        },
        {
          "components": [
            {
              "internalType": "uint256",
              "name": "accPerCollateral",
              "type": "uint256"
            },
            {
              "internalType": "uint256",
              "name": "lastUpdateBlock",
              "type": "uint256"
            }
          ],
          "internalType": "struct PairInfos.PairRolloverFees[]",
          "name": "",
          "type": "tuple[]"
        },
        {
          "components": [
            {
              "internalType": "int256",
              "name": "accPerOiLong",
              "type": "int256"
            },
            {
              "internalType": "int256",
              "name": "accPerOiShort",
              "type": "int256"
            },
            {
              "internalType": "uint256",
              "name": "lastUpdateBlock",
              "type": "uint256"
            }
          ],
          "internalType": "struct PairInfos.PairFundingFees[]",
          "name": "",
          "type": "tuple[]"
        }
      ],
      "stateMutability": "view",
      "type": "function"
    },
    {
      "inputs": [
        {
          "internalType": "uint256",
          "name": "pairIndex",
          "type": "uint256"
        }
      ],
      "name": "getPendingAccFundingFees",
      "outputs": [
        {
          "internalType": "int256",
          "name": "valueLong",
          "type": "int256"
        },
        {
          "internalType": "int256",
          "name": "valueShort",
          "type": "int256"
        }
      ],
      "stateMutability": "view",
      "type": "function"
    },
    {
      "inputs": [
        {
          "internalType": "uint256",
          "name": "pairIndex",
          "type": "uint256"
        }
      ],
      "name": "getPendingAccRolloverFees",
      "outputs": [
        {
          "internalType": "uint256",
          "name": "",
          "type": "uint256"
        }
      ],
      "stateMutability": "view",
      "type": "function"
    },
    {
      "inputs": [
        {
          "internalType": "uint256",
          "name": "pairIndex",
          "type": "uint256"
        }
      ],
      "name": "getRolloverFeePerBlockP",
      "outputs": [
        {
          "internalType": "uint256",
          "name": "",
          "type": "uint256"
        }
      ],
      "stateMutability": "view",
      "type": "function"
    },
    {
      "inputs": [
        {
          "internalType": "address",
          "name": "trader",
          "type": "address"
        },
        {
          "internalType": "uint256",
          "name": "pairIndex",
          "type": "uint256"
        },
        {
          "internalType": "uint256",
          "name": "index",
          "type": "uint256"
        },
        {
          "internalType": "bool",
          "name": "long",
          "type": "bool"
        },
        {
          "internalType": "uint256",
          "name": "collateral",
          "type": "uint256"
        },
        {
          "internalType": "uint256",
          "name": "leverage",
          "type": "uint256"
        }
      ],
      "name": "getTradeFundingFee",
      "outputs": [
        {
          "internalType": "int256",
          "name": "",
          "type": "int256"
        }
      ],
      "stateMutability": "view",
      "type": "function"
    },
    {
      "inputs": [
        {
          "internalType": "int256",
          "name": "accFundingFeesPerOi",
          "type": "int256"
        },
        {
          "internalType": "int256",
          "name": "endAccFundingFeesPerOi",
          "type": "int256"
        },
        {
          "internalType": "uint256",
          "name": "collateral",
          "type": "uint256"
        },
        {
          "internalType": "uint256",
          "name": "leverage",
          "type": "uint256"
        }
      ],
      "name": "getTradeFundingFeePure",
      "outputs": [
        {
          "internalType": "int256",
          "name": "",
          "type": "int256"
        }
      ],
      "stateMutability": "pure",
      "type": "function"
    },
    {
      "inputs": [
        {
          "internalType": "address",
          "name": "trader",
          "type": "address"
        },
        {
          "internalType": "uint256",
          "name": "pairIndex",
          "type": "uint256"
        },
        {
          "internalType": "uint256",
          "name": "index",
          "type": "uint256"
        }
      ],
      "name": "getTradeInitialAccFundingFeesPerOi",
      "outputs": [
        {
          "internalType": "int256",
          "name": "",
          "type": "int256"
        }
      ],
      "stateMutability": "view",
      "type": "function"
    },
    {
      "inputs": [
        {
          "internalType": "address",
          "name": "trader",
          "type": "address"
        },
        {
          "internalType": "uint256",
          "name": "pairIndex",
          "type": "uint256"
        },
        {
          "internalType": "uint256",
          "name": "index",
          "type": "uint256"
        }
      ],
      "name": "getTradeInitialAccRolloverFeesPerCollateral",
      "outputs": [
        {
          "internalType": "uint256",
          "name": "",
          "type": "uint256"
        }
      ],
      "stateMutability": "view",
      "type": "function"
    },
    {
      "inputs": [
        {
          "internalType": "address",
          "name": "trader",
          "type": "address"
        },
        {
          "internalType": "uint256",
          "name": "pairIndex",
          "type": "uint256"
        },
        {
          "internalType": "uint256",
          "name": "index",
          "type": "uint256"
        },
        {
          "internalType": "uint256",
          "name": "openPrice",
          "type": "uint256"
        },
        {
          "internalType": "bool",
          "name": "long",
          "type": "bool"
        },
        {
          "internalType": "uint256",
          "name": "collateral",
          "type": "uint256"
        },
        {
          "internalType": "uint256",
          "name": "leverage",
          "type": "uint256"
        }
      ],
      "name": "getTradeLiquidationPrice",
      "outputs": [
        {
          "internalType": "uint256",
          "name": "",
          "type": "uint256"
        }
      ],
      "stateMutability": "view",
      "type": "function"
    },
    {
      "inputs": [
        {
          "internalType": "uint256",
          "name": "openPrice",
          "type": "uint256"
        },
        {
          "internalType": "bool",
          "name": "long",
          "type": "bool"
        },
        {
          "internalType": "uint256",
          "name": "collateral",
          "type": "uint256"
        },
        {
          "internalType": "uint256",
          "name": "leverage",
          "type": "uint256"
        },
        {
          "internalType": "uint256",
          "name": "rolloverFee",
          "type": "uint256"
        },
        {
          "internalType": "int256",
          "name": "fundingFee",
          "type": "int256"
        }
      ],
      "name": "getTradeLiquidationPricePure",
      "outputs": [
        {
          "internalType": "uint256",
          "name": "",
          "type": "uint256"
        }
      ],
      "stateMutability": "pure",
      "type": "function"
    },
    {
      "inputs": [
        {
          "internalType": "address",
          "name": "trader",
          "type": "address"
        },
        {
          "internalType": "uint256",
          "name": "pairIndex",
          "type": "uint256"
        },
        {
          "internalType": "uint256",
          "name": "index",
          "type": "uint256"
        }
      ],
      "name": "getTradeOpenedAfterUpdate",
      "outputs": [
        {
          "internalType": "bool",
          "name": "",
          "type": "bool"
        }
      ],
      "stateMutability": "view",
      "type": "function"
    },
    {
      "inputs": [
        {
          "internalType": "uint256",
          "name": "openPrice",
          "type": "uint256"
        },
        {
          "internalType": "bool",
          "name": "long",
          "type": "bool"
        },
        {
          "internalType": "uint256",
          "name": "collateral",
          "type": "uint256"
        },
        {
          "internalType": "uint256",
          "name": "leverage",
          "type": "uint256"
        },
        {
          "internalType": "uint256",
          "name": "rolloverFee",
          "type": "uint256"
        },
        {
          "internalType": "int256",
          "name": "fundingFee",
          "type": "int256"
        }
      ],
      "name": "getTradePartialLiquidationPrice",
      "outputs": [
        {
          "internalType": "uint256",
          "name": "",
          "type": "uint256"
        }
      ],
      "stateMutability": "pure",
      "type": "function"
    },
    {
      "inputs": [
        {
          "internalType": "uint256",
          "name": "openPrice",
          "type": "uint256"
        },
        {
          "internalType": "uint256",
          "name": "pairIndex",
          "type": "uint256"
        },
        {
          "internalType": "bool",
          "name": "long",
          "type": "bool"
        },
        {
          "internalType": "uint256",
          "name": "tradeOpenInterest",
          "type": "uint256"
        }
      ],
      "name": "getTradePriceImpact",
      "outputs": [
        {
          "internalType": "uint256",
          "name": "priceImpactP",
          "type": "uint256"
        },
        {
          "internalType": "uint256",
          "name": "priceAfterImpact",
          "type": "uint256"
        }
      ],
      "stateMutability": "view",
      "type": "function"
    },
    {
      "inputs": [
        {
          "internalType": "uint256",
          "name": "openPrice",
          "type": "uint256"
        },
        {
          "internalType": "bool",
          "name": "long",
          "type": "bool"
        },
        {
          "internalType": "uint256",
          "name": "startOpenInterest",
          "type": "uint256"
        },
        {
          "internalType": "uint256",
          "name": "tradeOpenInterest",
          "type": "uint256"
        },
        {
          "internalType": "uint256",
          "name": "onePercentDepth",
          "type": "uint256"
        }
      ],
      "name": "getTradePriceImpactPure",
      "outputs": [
        {
          "internalType": "uint256",
          "name": "priceImpactP",
          "type": "uint256"
        },
        {
          "internalType": "uint256",
          "name": "priceAfterImpact",
          "type": "uint256"
        }
      ],
      "stateMutability": "pure",
      "type": "function"
    },
    {
      "inputs": [
        {
          "internalType": "address",
          "name": "trader",
          "type": "address"
        },
        {
          "internalType": "uint256",
          "name": "pairIndex",
          "type": "uint256"
        },
        {
          "internalType": "uint256",
          "name": "index",
          "type": "uint256"
        },
        {
          "internalType": "uint256",
          "name": "collateral",
          "type": "uint256"
        }
      ],
      "name": "getTradeRolloverFee",
      "outputs": [
        {
          "internalType": "uint256",
          "name": "",
          "type": "uint256"
        }
      ],
      "stateMutability": "view",
      "type": "function"
    },
    {
      "inputs": [
        {
          "internalType": "uint256",
          "name": "accRolloverFeesPerCollateral",
          "type": "uint256"
        },
        {
          "internalType": "uint256",
          "name": "endAccRolloverFeesPerCollateral",
          "type": "uint256"
        },
        {
          "internalType": "uint256",
          "name": "collateral",
          "type": "uint256"
        }
      ],
      "name": "getTradeRolloverFeePure",
      "outputs": [
        {
          "internalType": "uint256",
          "name": "",
          "type": "uint256"
        }
      ],
      "stateMutability": "pure",
      "type": "function"
    },
    {
      "inputs": [
        {
          "internalType": "address",
          "name": "trader",
          "type": "address"
        },
        {
          "internalType": "uint256",
          "name": "pairIndex",
          "type": "uint256"
        },
        {
          "internalType": "uint256",
          "name": "index",
          "type": "uint256"
        },
        {
          "internalType": "bool",
          "name": "long",
          "type": "bool"
        },
        {
          "internalType": "uint256",
          "name": "collateral",
          "type": "uint256"
        },
        {
          "internalType": "uint256",
          "name": "leverage",
          "type": "uint256"
        },
        {
          "internalType": "int256",
          "name": "percentProfit",
          "type": "int256"
        },
        {
          "internalType": "uint256",
          "name": "closingFee",
          "type": "uint256"
        }
      ],
      "name": "getTradeValue",
      "outputs": [
        {
          "internalType": "uint256",
          "name": "amount",
          "type": "uint256"
        }
      ],
      "stateMutability": "nonpayable",
      "type": "function"
    },
    {
      "inputs": [
        {
          "internalType": "uint256",
          "name": "collateral",
          "type": "uint256"
        },
        {
          "internalType": "int256",
          "name": "percentProfit",
          "type": "int256"
        },
        {
          "internalType": "uint256",
          "name": "rolloverFee",
          "type": "uint256"
        },
        {
          "internalType": "int256",
          "name": "fundingFee",
          "type": "int256"
        },
        {
          "internalType": "uint256",
          "name": "closingFee",
          "type": "uint256"
        }
      ],
      "name": "getTradeValuePure",
      "outputs": [
        {
          "internalType": "uint256",
          "name": "",
          "type": "uint256"
        }
      ],
      "stateMutability": "view",
      "type": "function"
    },
    {
      "inputs": [
        {
          "internalType": "contract StorageInterface",
          "name": "_storageT",
          "type": "address"
        }
      ],
      "name": "initialize",
      "outputs": [],
      "stateMutability": "nonpayable",
      "type": "function"
    },
    {
      "inputs": [],
      "name": "manager",
      "outputs": [
        {
          "internalType": "address",
          "name": "",
          "type": "address"
        }
      ],
      "stateMutability": "view",
      "type": "function"
    },
    {
      "inputs": [],
      "name": "maxNegativePnlOnOpenP",
      "outputs": [
        {
          "internalType": "uint256",
          "name": "",
          "type": "uint256"
        }
      ],
      "stateMutability": "view",
      "type": "function"
    },
    {
      "inputs": [
        {
          "internalType": "uint256",
          "name": "",
          "type": "uint256"
        }
      ],
      "name": "pairFundingFees",
      "outputs": [
        {
          "internalType": "int256",
          "name": "accPerOiLong",
          "type": "int256"
        },
        {
          "internalType": "int256",
          "name": "accPerOiShort",
          "type": "int256"
        },
        {
          "internalType": "uint256",
          "name": "lastUpdateBlock",
          "type": "uint256"
        }
      ],
      "stateMutability": "view",
      "type": "function"
    },
    {
      "inputs": [
        {
          "internalType": "uint256",
          "name": "",
          "type": "uint256"
        }
      ],
      "name": "pairParams",
      "outputs": [
        {
          "internalType": "uint256",
          "name": "onePercentDepthAbove",
          "type": "uint256"
        },
        {
          "internalType": "uint256",
          "name": "onePercentDepthBelow",
          "type": "uint256"
        },
        {
          "internalType": "uint256",
          "name": "rolloverFeePerBlockP",
          "type": "uint256"
        },
        {
          "internalType": "uint256",
          "name": "fundingFeePerBlockP",
          "type": "uint256"
        }
      ],
      "stateMutability": "view",
      "type": "function"
    },
    {
      "inputs": [
        {
          "internalType": "uint256",
          "name": "",
          "type": "uint256"
        }
      ],
      "name": "pairRolloverFees",
      "outputs": [
        {
          "internalType": "uint256",
          "name": "accPerCollateral",
          "type": "uint256"
        },
        {
          "internalType": "uint256",
          "name": "lastUpdateBlock",
          "type": "uint256"
        }
      ],
      "stateMutability": "view",
      "type": "function"
    },
    {
      "inputs": [
        {
          "internalType": "uint256",
          "name": "pairIndex",
          "type": "uint256"
        }
      ],
      "name": "setFundingFeePerBlockP",
      "outputs": [],
      "stateMutability": "nonpayable",
      "type": "function"
    },
    {
      "inputs": [
        {
          "internalType": "uint256[]",
          "name": "indices",
          "type": "uint256[]"
        }
      ],
      "name": "setFundingFeePerBlockPArray",
      "outputs": [],
      "stateMutability": "nonpayable",
      "type": "function"
    },
    {
      "inputs": [
        {
          "internalType": "address",
          "name": "_manager",
          "type": "address"
        }
      ],
      "name": "setManager",
      "outputs": [],
      "stateMutability": "nonpayable",
      "type": "function"
    },
    {
      "inputs": [
        {
          "internalType": "uint256",
          "name": "value",
          "type": "uint256"
        }
      ],
      "name": "setMaxNegativePnlOnOpenP",
      "outputs": [],
      "stateMutability": "nonpayable",
      "type": "function"
    },
    {
      "inputs": [
        {
          "internalType": "uint256",
          "name": "pairIndex",
          "type": "uint256"
        },
        {
          "internalType": "uint256",
          "name": "valueAbove",
          "type": "uint256"
        },
        {
          "internalType": "uint256",
          "name": "valueBelow",
          "type": "uint256"
        }
      ],
      "name": "setOnePercentDepth",
      "outputs": [],
      "stateMutability": "nonpayable",
      "type": "function"
    },
    {
      "inputs": [
        {
          "internalType": "uint256[]",
          "name": "indices",
          "type": "uint256[]"
        },
        {
          "internalType": "uint256[]",
          "name": "valuesAbove",
          "type": "uint256[]"
        },
        {
          "internalType": "uint256[]",
          "name": "valuesBelow",
          "type": "uint256[]"
        }
      ],
      "name": "setOnePercentDepthArray",
      "outputs": [],
      "stateMutability": "nonpayable",
      "type": "function"
    },
    {
      "inputs": [
        {
          "internalType": "uint256",
          "name": "pairIndex",
          "type": "uint256"
        },
        {
          "components": [
            {
              "internalType": "uint256",
              "name": "onePercentDepthAbove",
              "type": "uint256"
            },
            {
              "internalType": "uint256",
              "name": "onePercentDepthBelow",
              "type": "uint256"
            },
            {
              "internalType": "uint256",
              "name": "rolloverFeePerBlockP",
              "type": "uint256"
            },
            {
              "internalType": "uint256",
              "name": "fundingFeePerBlockP",
              "type": "uint256"
            }
          ],
          "internalType": "struct PairInfos.PairParams",
          "name": "value",
          "type": "tuple"
        }
      ],
      "name": "setPairParams",
      "outputs": [],
      "stateMutability": "nonpayable",
      "type": "function"
    },
    {
      "inputs": [
        {
          "internalType": "uint256[]",
          "name": "indices",
          "type": "uint256[]"
        },
        {
          "components": [
            {
              "internalType": "uint256",
              "name": "onePercentDepthAbove",
              "type": "uint256"
            },
            {
              "internalType": "uint256",
              "name": "onePercentDepthBelow",
              "type": "uint256"
            },
            {
              "internalType": "uint256",
              "name": "rolloverFeePerBlockP",
              "type": "uint256"
            },
            {
              "internalType": "uint256",
              "name": "fundingFeePerBlockP",
              "type": "uint256"
            }
          ],
          "internalType": "struct PairInfos.PairParams[]",
          "name": "values",
          "type": "tuple[]"
        }
      ],
      "name": "setPairParamsArray",
      "outputs": [],
      "stateMutability": "nonpayable",
      "type": "function"
    },
    {
      "inputs": [
        {
          "internalType": "uint256",
          "name": "pairIndex",
          "type": "uint256"
        },
        {
          "internalType": "uint256",
          "name": "value",
          "type": "uint256"
        }
      ],
      "name": "setRolloverFeePerBlockP",
      "outputs": [],
      "stateMutability": "nonpayable",
      "type": "function"
    },
    {
      "inputs": [
        {
          "internalType": "uint256[]",
          "name": "indices",
          "type": "uint256[]"
        },
        {
          "internalType": "uint256[]",
          "name": "values",
          "type": "uint256[]"
        }
      ],
      "name": "setRolloverFeePerBlockPArray",
      "outputs": [],
      "stateMutability": "nonpayable",
      "type": "function"
    },
    {
      "inputs": [],
      "name": "storageT",
      "outputs": [
        {
          "internalType": "contract StorageInterface",
          "name": "",
          "type": "address"
        }
      ],
      "stateMutability": "view",
      "type": "function"
    },
    {
      "inputs": [
        {
          "internalType": "address",
          "name": "trader",
          "type": "address"
        },
        {
          "internalType": "uint256",
          "name": "pairIndex",
          "type": "uint256"
        },
        {
          "internalType": "uint256",
          "name": "index",
          "type": "uint256"
        },
        {
          "internalType": "bool",
          "name": "long",
          "type": "bool"
        }
      ],
      "name": "storeTradeInitialAccFees",
      "outputs": [],
      "stateMutability": "nonpayable",
      "type": "function"
    },
    {
      "inputs": [
        {
          "internalType": "address",
          "name": "",
          "type": "address"
        },
        {
          "internalType": "uint256",
          "name": "",
          "type": "uint256"
        },
        {
          "internalType": "uint256",
          "name": "",
          "type": "uint256"
        }
      ],
      "name": "tradeInitialAccFees",
      "outputs": [
        {
          "internalType": "uint256",
          "name": "rollover",
          "type": "uint256"
        },
        {
          "internalType": "int256",
          "name": "funding",
          "type": "int256"
        },
        {
          "internalType": "bool",
          "name": "openedAfterUpdate",
          "type": "bool"
        }
      ],
      "stateMutability": "view",
      "type": "function"
    }
  ],
  "transactionHash": "0x38277ead088285cd511bfc85665839dd3165cce3980b714262178359b87e0271",
  "args": [],
  "numDeployments": 1,
  "solcInputHash": "988ef56db206df3adb44e87e8540bd4d",
  "bytecode": "0x60806040526100146402540be4006028610029565b60025534801561002357600080fd5b50610054565b808202811582820484141761004e57634e487b7160e01b600052601160045260246000fd5b92915050565b61286f80620000646000396000f3fe608060405234801561001057600080fd5b506004361061027f5760003560e01c80636bcbe8601161015c578063b74243ba116100ce578063ee52e5fe11610087578063ee52e5fe1461073d578063f0270f331461075d578063f696065414610781578063f6c50efe14610794578063fcc37c87146107a7578063fe3cfd8c146107ba57600080fd5b8063b74243ba146106aa578063bf1db1f6146106bd578063c22ff7bf146106e4578063c4d66de8146106f7578063cfc23e9e1461070a578063d0ebdbe71461072a57600080fd5b806380f6cfc21161012057806380f6cfc21461060b5780639c625e1e146106145780639cf9c93914610627578063a77e8e2a14610671578063ab21a05c14610684578063ab7baf041461069757600080fd5b80636bcbe860146105ac5780636ceaca67146105bf5780636f6af697146105d25780637884274f146105e55780637ea95f32146105f857600080fd5b806331556d2f116101f557806342dee1ad116101b957806342dee1ad1461047857806346dbab36146104cf578063481c6a751461051357806358f796bc146105265780635ed5804e146105395780636bc84d591461059957600080fd5b806331556d2f14610409578063338139ad1461041c578063351533e71461043f5780633598b0cc146104525780633df7fd721461046557600080fd5b806312fdefd91161024757806312fdefd91461033457806316fff0741461035c57806321adc48f1461038d5780632b180a7d146103b05780632d0a5fd4146103d35780632d15e4e0146103e657600080fd5b80630dd34f57146102845780630e0052fc146102ac5780630e6bc39a146102dd5780630ea77770146102f257806312b6566e14610314575b600080fd5b610297610292366004611dd8565b6107fb565b60405190151581526020015b60405180910390f35b6102cf6102ba366004611e0d565b60009081526005602052604090206001015490565b6040519081526020016102a3565b6102f06102eb366004611e3b565b610835565b005b610305610300366004611f5b565b6109c9565b6040516102a393929190611fe1565b6102cf610322366004611e0d565b60009081526005602052604090205490565b61034761034236600461209c565b610c6a565b604080519283526020830191909152016102a3565b600054610375906201000090046001600160a01b031681565b6040516001600160a01b0390911681526020016102a3565b6102cf61039b366004611e0d565b60009081526004602052604090206001015490565b6102cf6103be366004611e0d565b60009081526003602052604090206001015490565b6102f06103e1366004611f5b565b610d1b565b6102cf6103f4366004611e0d565b60009081526004602052604090206002015490565b6102f0610417366004612147565b610d7f565b6102cf61042a366004611e0d565b60009081526003602052604090206002015490565b6102f061044d366004612212565b610e1f565b6102f0610460366004611e0d565b610ee7565b6102f0610473366004612299565b610ef3565b6104af610486366004611e0d565b600360208190526000918252604090912080546001820154600283015492909301549092919084565b6040805194855260208501939093529183015260608201526080016102a3565b6102cf6104dd366004611dd8565b6001600160a01b038316600090815260066020908152604080832085845282528083208484529091529020600101549392505050565b600154610375906001600160a01b031681565b6102cf6105343660046122c6565b610f9b565b61057c610547366004611dd8565b600660209081526000938452604080852082529284528284209052825290208054600182015460029092015490919060ff1683565b6040805193845260208401929092521515908201526060016102a3565b6102cf6105a7366004612301565b61101c565b6102cf6105ba366004612366565b61104b565b6102cf6105cd3660046123b4565b6110df565b6102f06105e0366004612420565b61122d565b6102f06105f3366004611e0d565b6112c8565b610347610606366004612483565b61132e565b6102cf60025481565b6102cf6106223660046124c0565b611406565b610656610635366004611e0d565b60046020526000908152604090208054600182015460029092015490919083565b604080519384526020840192909252908201526060016102a3565b6102cf61067f3660046124ec565b611430565b6102cf610692366004611e0d565b61146e565b6102cf6106a5366004612366565b6114df565b6102f06106b836600461251e565b6114f3565b6103476106cb366004611e0d565b6005602052600090815260409020805460019091015482565b6102cf6106f2366004612540565b611595565b6102f061070536600461257b565b611639565b6102cf610718366004611e0d565b60009081526003602052604090205490565b6102f061073836600461257b565b61175d565b6102cf61074b366004611e0d565b60009081526004602052604090205490565b6102cf61076b366004611e0d565b6000908152600360208190526040909120015490565b6102f061078f3660046124c0565b61186d565b6102cf6107a2366004612598565b6118f7565b6103476107b5366004611e0d565b611991565b6102cf6107c8366004611dd8565b6001600160a01b038316600090815260066020908152604080832085845282528083208484529091529020549392505050565b6001600160a01b0383166000908152600660209081526040808320858452825280832084845290915290206002015460ff165b9392505050565b600060029054906101000a90046001600160a01b03166001600160a01b031662b127836040518163ffffffff1660e01b8152600401602060405180830381865afa158015610887573d6000803e3d6000fd5b505050506040513d601f19601f820116820180604052508101906108ab91906125f2565b6001600160a01b0316336001600160a01b0316146108e45760405162461bcd60e51b81526004016108db9061260f565b60405180910390fd5b6108ed83611b88565b6001600160a01b0384166000908152600660209081526040808320868452825280832085845290915290206109218461146e565b81558161093f5760008481526004602052604090206001015461094f565b6000848152600460205260409020545b600182810182905560028301805460ff191690911790558154604080516001600160a01b038916815260208101889052908101869052606081019190915260808101919091527f4e58eed9e01cebfd4256725d6d1ce9fa694faa7ac5312e75af02360f453d048e9060a00160405180910390a15050505050565b6060806060600084516001600160401b038111156109e9576109e9611e83565b604051908082528060200260200182016040528015610a4557816020015b610a326040518060800160405280600081526020016000815260200160008152602001600081525090565b815260200190600190039081610a075790505b509050600085516001600160401b03811115610a6357610a63611e83565b604051908082528060200260200182016040528015610aa857816020015b6040805180820190915260008082526020820152815260200190600190039081610a815790505b509050600086516001600160401b03811115610ac657610ac6611e83565b604051908082528060200260200182016040528015610b1b57816020015b610b0860405180606001604052806000815260200160008152602001600081525090565b815260200190600190039081610ae45790505b50905060005b8751811015610c5c576000888281518110610b3e57610b3e612637565b6020026020010151905060036000828152602001908152602001600020604051806080016040529081600082015481526020016001820154815260200160028201548152602001600382015481525050858381518110610ba057610ba0612637565b60200260200101819052506005600082815260200190815260200160002060405180604001604052908160008201548152602001600182015481525050848381518110610bef57610bef612637565b6020026020010181905250600460008281526020019081526020016000206040518060600160405290816000820154815260200160018201548152602001600282015481525050838381518110610c4857610c48612637565b602090810291909101015250600101610b21565b509196909550909350915050565b60008082600003610c8057506000905085610d11565b82670de0b6b3a76400006402540be400610c9b600288612679565b610ca5908961268d565b610caf91906126a6565b610cb99190612679565b610cc39190612679565b9150600060646402540be400610cd98a866126a6565b610ce39190612679565b610ced9190612679565b905086610d0357610cfe81896126bd565b610d0d565b610d0d818961268d565b9150505b9550959350505050565b6001546001600160a01b03163314610d455760405162461bcd60e51b81526004016108db906126d0565b60005b8151811015610d7b57610d73828281518110610d6657610d66612637565b6020026020010151611b88565b600101610d48565b5050565b6001546001600160a01b03163314610da95760405162461bcd60e51b81526004016108db906126d0565b8051825114610dca5760405162461bcd60e51b81526004016108db906126f6565b60005b8251811015610e1a57610e12838281518110610deb57610deb612637565b6020026020010151838381518110610e0557610e05612637565b6020026020010151610ef3565b600101610dcd565b505050565b6001546001600160a01b03163314610e495760405162461bcd60e51b81526004016108db906126d0565b81518351148015610e5b575080518351145b610e775760405162461bcd60e51b81526004016108db906126f6565b60005b8351811015610ee157610ed9848281518110610e9857610e98612637565b6020026020010151848381518110610eb257610eb2612637565b6020026020010151848481518110610ecc57610ecc612637565b602002602001015161186d565b600101610e7a565b50505050565b610ef081611b88565b50565b6001546001600160a01b03163314610f1d5760405162461bcd60e51b81526004016108db906126d0565b610f2682611d09565b610f2f82611d60565b600082815260036020818152604092839020845181559084015160018201558284015160028201556060840151910155517f901e66575b0aecca6e394d488bfe990ff28995f6da67ef2fe1d6c900b6573a0390610f8f908490849061271c565b60405180910390a15050565b6001600160a01b0384166000908152600660209081526040808320868452825280832085845282528083208151606081018352815481526001820154938101939093526002015460ff161515908201819052610ffb576000915050611014565b80516110109061100a8761146e565b85611406565b9150505b949350505050565b600061103f858585856110318d8d8d8b610f9b565b6105ba8e8e8e8d8d8d6118f7565b98975050505050505050565b60008084868486606461105f605a856126a6565b6110699190612679565b6110739190612751565b61107d9190612751565b611087908b612778565b61109191906127a8565b61109b91906127a8565b90506000876110b3576110ae828a6127d6565b6110bd565b6110bd828a612751565b9050600081136110ce5760006110d0565b805b925050505b9695505050505050565b60008060029054906101000a90046001600160a01b03166001600160a01b031662b127836040518163ffffffff1660e01b8152600401602060405180830381865afa158015611132573d6000803e3d6000fd5b505050506040513d601f19601f8201168201806040525081019061115691906125f2565b6001600160a01b0316336001600160a01b0316146111865760405162461bcd60e51b81526004016108db9061260f565b61118f88611b88565b600061119d8a8a8a89610f9b565b905060006111af8b8b8b8b8b8b6118f7565b90506111be8786848488611595565b604080518c81528a15156020820152908101899052606081018890526080810187905260a0810184905260c081018390529093507f3a484d35e7358ad950e494938ebbac2c1319c2b76d162112f51d66752244dde39060e00160405180910390a1505098975050505050505050565b6001546001600160a01b031633146112575760405162461bcd60e51b81526004016108db906126d0565b80518251146112785760405162461bcd60e51b81526004016108db906126f6565b60005b8251811015610e1a576112c083828151811061129957611299612637565b60200260200101518383815181106112b3576112b3612637565b60200260200101516114f3565b60010161127b565b6001546001600160a01b031633146112f25760405162461bcd60e51b81526004016108db906126d0565b60028190556040518181527f5ba729b89796f40d260b117b8654dc301b1d9f7ec17a1e378ae31e4c70b6d2c0906020015b60405180910390a150565b6000805481906113f990879086906201000090046001600160a01b03166377a9fdcf898361135d576001611360565b60005b6040516001600160e01b031960e085901b168152600481019290925260ff166024820152604401602060405180830381865afa1580156113a4573d6000803e3d6000fd5b505050506040513d601f19601f820116820180604052508101906113c891906127fe565b86886113e55760008a815260036020526040902060010154610c6a565b60008a815260036020526040902054610c6a565b9097909650945050505050565b6000670de0b6b3a76400008261141c86866126bd565b61142691906126a6565b6110149190612679565b6000670de0b6b3a764000082846114478888612751565b6114519190612778565b61145b9190612778565b61146591906127a8565b95945050505050565b6000818152600560209081526040808320600390925282206002015460018201546064916402540be400916114a390436126bd565b6114ad91906126a6565b6114bf90670de0b6b3a76400006126a6565b6114c99190612679565b6114d39190612679565b815461082e919061268d565b60008084868486606461105f6050856126a6565b6001546001600160a01b0316331461151d5760405162461bcd60e51b81526004016108db906126d0565b63017d78408111156115415760405162461bcd60e51b81526004016108db90612817565b61154a82611d09565b60008281526003602090815260409182902060020183905581518481529081018390527f048ce436ab4f2632f2aac62af26be3383ebdf5efc9a63f0bbeb6d6c9762d70899101610f8f565b600080838560646402540be4006115ac8a8c612778565b6115b691906127a8565b6115c091906127a8565b6115ca908a6127d6565b6115d49190612751565b6115de9190612751565b905060646115ed605a826126bd565b6115f79089612778565b61160191906127a8565b8113611611576000915050611465565b61161b8382612751565b90506000811361162c57600061162e565b805b979650505050505050565b600054610100900460ff16158080156116595750600054600160ff909116105b806116735750303b158015611673575060005460ff166001145b6116d65760405162461bcd60e51b815260206004820152602e60248201527f496e697469616c697a61626c653a20636f6e747261637420697320616c72656160448201526d191e481a5b9a5d1a585b1a5e995960921b60648201526084016108db565b6000805460ff1916600117905580156116f9576000805461ff0019166101001790555b6000805462010000600160b01b031916620100006001600160a01b038516021790558015610d7b576000805461ff0019169055604051600181527f7f26b83ff96e1f2b6a682f133852f6798a09c465da95921460cefb384740249890602001610f8f565b600060029054906101000a90046001600160a01b03166001600160a01b03166312d43a516040518163ffffffff1660e01b8152600401602060405180830381865afa1580156117b0573d6000803e3d6000fd5b505050506040513d601f19601f820116820180604052508101906117d491906125f2565b6001600160a01b0316336001600160a01b03161461181f5760405162461bcd60e51b8152602060048201526008602482015267474f565f4f4e4c5960c01b60448201526064016108db565b600180546001600160a01b0319166001600160a01b0383169081179091556040519081527f2c1c11af44aa5608f1dca38c00275c30ea091e02417d36e70e9a1538689c433d90602001611323565b6001546001600160a01b031633146118975760405162461bcd60e51b81526004016108db906126d0565b6000838152600360209081526040918290208481556001810184905582518681529182018590529181018390527f1daeaff85d4d7cfda495ef83720a04b81df77e38711ca570061e16efa6ffa2759060600160405180910390a150505050565b6001600160a01b0386166000908152600660209081526040808320888452825280832087845282528083208151606081018352815481526001820154938101939093526002015460ff1615159082018190526119575760009150506110d5565b60008061196389611991565b9150915061198383602001518861197a578261197c565b835b8888611430565b9a9950505050505050505050565b600081815260046020819052604080832080546001820154855493516377a9fdcf60e01b8152948501879052602485018690529094909391929091620100009091046001600160a01b0316906377a9fdcf90604401602060405180830381865afa158015611a03573d6000803e3d6000fd5b505050506040513d601f19601f82011682018060405250810190611a2791906127fe565b600080546040516377a9fdcf60e01b815260048101899052600160248201529293509091620100009091046001600160a01b0316906377a9fdcf90604401602060405180830381865afa158015611a82573d6000803e3d6000fd5b505050506040513d601f19601f82011682018060405250810190611aa691906127fe565b9050600060646402540be400600360008a815260200190815260200160002060030154866002015443611ad991906126bd565b611ae38688612751565b611aed9190612778565b611af79190612778565b611b0191906127a8565b611b0b91906127a8565b90506000831315611b405782611b2982670de0b6b3a7640000612778565b611b3391906127a8565b611b3d90876127d6565b95505b6000821315611b7f5781611b5c82670de0b6b3a7640000612778565b611b6890600019612778565b611b7291906127a8565b611b7c90866127d6565b94505b50505050915091565b60008060029054906101000a90046001600160a01b03166001600160a01b0316637dc0d1d06040518163ffffffff1660e01b8152600401602060405180830381865afa158015611bdc573d6000803e3d6000fd5b505050506040513d601f19601f82011682018060405250810190611c0091906125f2565b6001600160a01b03166380463406836040518263ffffffff1660e01b8152600401611c2d91815260200190565b602060405180830381865afa158015611c4a573d6000803e3d6000fd5b505050506040513d601f19601f82011682018060405250810190611c6e91906127fe565b905062989680811115611c935760405162461bcd60e51b81526004016108db90612817565b611c9c82611d60565b60008281526003602081905260409091200154818114610e1a5760008381526003602081815260409283902090910184905581518581529081018490527fbe762e88e6ff669d272010f163dfb3c6d389b16831c73e10f95860b2e4f15298910160405180910390a1505050565b6000818152600560205260409020611d208261146e565b8082554360018301556040805184815260208101929092527f66ae41afb9d1762b0b5f1a431a9e5c767128a1bec9ecb20e1ef9dba7dc3663d69101610f8f565b6000818152600460205260409020611d7782611991565b600183018190558183554360028401556040805185815260208101939093528201527fc08ace100a8e3b7186ad5fcb68a0b9e7e0bd60aa466cdba34932fa0513353c6490606001610f8f565b6001600160a01b0381168114610ef057600080fd5b600080600060608486031215611ded57600080fd5b8335611df881611dc3565b95602085013595506040909401359392505050565b600060208284031215611e1f57600080fd5b5035919050565b80358015158114611e3657600080fd5b919050565b60008060008060808587031215611e5157600080fd5b8435611e5c81611dc3565b93506020850135925060408501359150611e7860608601611e26565b905092959194509250565b634e487b7160e01b600052604160045260246000fd5b604051601f8201601f191681016001600160401b0381118282101715611ec157611ec1611e83565b604052919050565b60006001600160401b03821115611ee257611ee2611e83565b5060051b60200190565b600082601f830112611efd57600080fd5b81356020611f12611f0d83611ec9565b611e99565b8083825260208201915060208460051b870101935086841115611f3457600080fd5b602086015b84811015611f505780358352918301918301611f39565b509695505050505050565b600060208284031215611f6d57600080fd5b81356001600160401b03811115611f8357600080fd5b61101484828501611eec565b60008151808452602080850194506020840160005b83811015611fd65781518051885283810151848901526040908101519088015260609096019590820190600101611fa4565b509495945050505050565b60608082528451908201819052600090608090818401906020808901855b8381101561204357612033858351805182526020810151602083015260408101516040830152606081015160608301525050565b9385019390820190600101611fff565b5050858303818701528751808452928101935087810192915060005b8281101561208657835180518652820151828601526040909401939281019260010161205f565b5050505082810360408401526110108185611f8f565b600080600080600060a086880312156120b457600080fd5b853594506120c460208701611e26565b94979496505050506040830135926060810135926080909101359150565b6000608082840312156120f457600080fd5b604051608081018181106001600160401b038211171561211657612116611e83565b8060405250809150823581526020830135602082015260408301356040820152606083013560608201525092915050565b6000806040838503121561215a57600080fd5b82356001600160401b038082111561217157600080fd5b61217d86838701611eec565b93506020915060208501358181111561219557600080fd5b85019050601f810186136121a857600080fd5b80356121b6611f0d82611ec9565b8082825260208201915060208360071b8501019250888311156121d857600080fd5b6020840193505b82841015612203576121f189856120e2565b825284820191506080840193506121df565b80955050505050509250929050565b60008060006060848603121561222757600080fd5b83356001600160401b038082111561223e57600080fd5b61224a87838801611eec565b9450602086013591508082111561226057600080fd5b61226c87838801611eec565b9350604086013591508082111561228257600080fd5b5061228f86828701611eec565b9150509250925092565b60008060a083850312156122ac57600080fd5b823591506122bd84602085016120e2565b90509250929050565b600080600080608085870312156122dc57600080fd5b84356122e781611dc3565b966020860135965060408601359560600135945092505050565b600080600080600080600060e0888a03121561231c57600080fd5b873561232781611dc3565b965060208801359550604088013594506060880135935061234a60808901611e26565b925060a0880135915060c0880135905092959891949750929550565b60008060008060008060c0878903121561237f57600080fd5b8635955061238f60208801611e26565b95989597505050506040840135936060810135936080820135935060a0909101359150565b600080600080600080600080610100898b0312156123d157600080fd5b88356123dc81611dc3565b975060208901359650604089013595506123f860608a01611e26565b979a969950949760808101359660a0820135965060c0820135955060e0909101359350915050565b6000806040838503121561243357600080fd5b82356001600160401b038082111561244a57600080fd5b61245686838701611eec565b9350602085013591508082111561246c57600080fd5b5061247985828601611eec565b9150509250929050565b6000806000806080858703121561249957600080fd5b84359350602085013592506124b060408601611e26565b9396929550929360600135925050565b6000806000606084860312156124d557600080fd5b505081359360208301359350604090920135919050565b6000806000806080858703121561250257600080fd5b5050823594602084013594506040840135936060013592509050565b6000806040838503121561253157600080fd5b50508035926020909101359150565b600080600080600060a0868803121561255857600080fd5b505083359560208501359550604085013594606081013594506080013592509050565b60006020828403121561258d57600080fd5b813561082e81611dc3565b60008060008060008060c087890312156125b157600080fd5b86356125bc81611dc3565b955060208701359450604087013593506125d860608801611e26565b92506080870135915060a087013590509295509295509295565b60006020828403121561260457600080fd5b815161082e81611dc3565b6020808252600e908201526d43414c4c4241434b535f4f4e4c5960901b604082015260600190565b634e487b7160e01b600052603260045260246000fd5b634e487b7160e01b600052601260045260246000fd5b634e487b7160e01b600052601160045260246000fd5b6000826126885761268861264d565b500490565b808201808211156126a0576126a0612663565b92915050565b80820281158282048414176126a0576126a0612663565b818103818111156126a0576126a0612663565b6020808252600c908201526b4d414e414745525f4f4e4c5960a01b604082015260600190565b6020808252600c908201526b0aea49e9c8ebe988a9c8ea8960a31b604082015260600190565b82815260a0810161082e6020830184805182526020810151602083015260408101516040830152606081015160608301525050565b818103600083128015838313168383128216171561277157612771612663565b5092915050565b80820260008212600160ff1b8414161561279457612794612663565b81810583148215176126a0576126a0612663565b6000826127b7576127b761264d565b600160ff1b8214600019841416156127d1576127d1612663565b500590565b80820182811260008312801582168215821617156127f6576127f6612663565b505092915050565b60006020828403121561281057600080fd5b5051919050565b6020808252600890820152670a89e9ebe90928e960c31b60408201526060019056fea2646970667358221220b44c557eebea3edc5bb266771bd0ce643489a79f295d90e02480feebdce343ba64736f6c63430008170033",
  "devdoc": {
    "events": {
      "Initialized(uint8)": {
        "details": "Triggered when the contract has been initialized or reinitialized."
      }
    },
    "kind": "dev",
    "methods": {},
    "version": 1
  },
  "userdoc": {
    "kind": "user",
    "methods": {},
    "version": 1
  },
  "storageLayout": {
    "storage": [
      {
        "astId": 2892,
        "contract": "contracts/PairInfos.sol:PairInfos",
        "label": "_initialized",
        "offset": 0,
        "slot": "0",
        "type": "t_uint8"
      },
      {
        "astId": 2895,
        "contract": "contracts/PairInfos.sol:PairInfos",
        "label": "_initializing",
        "offset": 1,
        "slot": "0",
        "type": "t_bool"
      },
      {
        "astId": 11763,
        "contract": "contracts/PairInfos.sol:PairInfos",
        "label": "storageT",
        "offset": 2,
        "slot": "0",
        "type": "t_contract(StorageInterface)33235"
      },
      {
        "astId": 11765,
        "contract": "contracts/PairInfos.sol:PairInfos",
        "label": "manager",
        "offset": 0,
        "slot": "1",
        "type": "t_address"
      },
      {
        "astId": 11779,
        "contract": "contracts/PairInfos.sol:PairInfos",
        "label": "maxNegativePnlOnOpenP",
        "offset": 0,
        "slot": "2",
        "type": "t_uint256"
      },
      {
        "astId": 11793,
        "contract": "contracts/PairInfos.sol:PairInfos",
        "label": "pairParams",
        "offset": 0,
        "slot": "3",
        "type": "t_mapping(t_uint256,t_struct(PairParams)11788_storage)"
      },
      {
        "astId": 11805,
        "contract": "contracts/PairInfos.sol:PairInfos",
        "label": "pairFundingFees",
        "offset": 0,
        "slot": "4",
        "type": "t_mapping(t_uint256,t_struct(PairFundingFees)11800_storage)"
      },
      {
        "astId": 11815,
        "contract": "contracts/PairInfos.sol:PairInfos",
        "label": "pairRolloverFees",
        "offset": 0,
        "slot": "5",
        "type": "t_mapping(t_uint256,t_struct(PairRolloverFees)11810_storage)"
      },
      {
        "astId": 11831,
        "contract": "contracts/PairInfos.sol:PairInfos",
        "label": "tradeInitialAccFees",
        "offset": 0,
        "slot": "6",
        "type": "t_mapping(t_address,t_mapping(t_uint256,t_mapping(t_uint256,t_struct(TradeInitialAccFees)11822_storage)))"
      }
    ],
    "types": {
      "t_address": {
        "encoding": "inplace",
        "label": "address",
        "numberOfBytes": "20"
      },
      "t_bool": {
        "encoding": "inplace",
        "label": "bool",
        "numberOfBytes": "1"
      },
      "t_contract(StorageInterface)33235": {
        "encoding": "inplace",
        "label": "contract StorageInterface",
        "numberOfBytes": "20"
      },
      "t_int256": {
        "encoding": "inplace",
        "label": "int256",
        "numberOfBytes": "32"
      },
      "t_mapping(t_address,t_mapping(t_uint256,t_mapping(t_uint256,t_struct(TradeInitialAccFees)11822_storage)))": {
        "encoding": "mapping",
        "key": "t_address",
        "label": "mapping(address => mapping(uint256 => mapping(uint256 => struct PairInfos.TradeInitialAccFees)))",
        "numberOfBytes": "32",
        "value": "t_mapping(t_uint256,t_mapping(t_uint256,t_struct(TradeInitialAccFees)11822_storage))"
      },
      "t_mapping(t_uint256,t_mapping(t_uint256,t_struct(TradeInitialAccFees)11822_storage))": {
        "encoding": "mapping",
        "key": "t_uint256",
        "label": "mapping(uint256 => mapping(uint256 => struct PairInfos.TradeInitialAccFees))",
        "numberOfBytes": "32",
        "value": "t_mapping(t_uint256,t_struct(TradeInitialAccFees)11822_storage)"
      },
      "t_mapping(t_uint256,t_struct(PairFundingFees)11800_storage)": {
        "encoding": "mapping",
        "key": "t_uint256",
        "label": "mapping(uint256 => struct PairInfos.PairFundingFees)",
        "numberOfBytes": "32",
        "value": "t_struct(PairFundingFees)11800_storage"
      },
      "t_mapping(t_uint256,t_struct(PairParams)11788_storage)": {
        "encoding": "mapping",
        "key": "t_uint256",
        "label": "mapping(uint256 => struct PairInfos.PairParams)",
        "numberOfBytes": "32",
        "value": "t_struct(PairParams)11788_storage"
      },
      "t_mapping(t_uint256,t_struct(PairRolloverFees)11810_storage)": {
        "encoding": "mapping",
        "key": "t_uint256",
        "label": "mapping(uint256 => struct PairInfos.PairRolloverFees)",
        "numberOfBytes": "32",
        "value": "t_struct(PairRolloverFees)11810_storage"
      },
      "t_mapping(t_uint256,t_struct(TradeInitialAccFees)11822_storage)": {
        "encoding": "mapping",
        "key": "t_uint256",
        "label": "mapping(uint256 => struct PairInfos.TradeInitialAccFees)",
        "numberOfBytes": "32",
        "value": "t_struct(TradeInitialAccFees)11822_storage"
      },
      "t_struct(PairFundingFees)11800_storage": {
        "encoding": "inplace",
        "label": "struct PairInfos.PairFundingFees",
        "members": [
          {
            "astId": 11795,
            "contract": "contracts/PairInfos.sol:PairInfos",
            "label": "accPerOiLong",
            "offset": 0,
            "slot": "0",
            "type": "t_int256"
          },
          {
            "astId": 11797,
            "contract": "contracts/PairInfos.sol:PairInfos",
            "label": "accPerOiShort",
            "offset": 0,
            "slot": "1",
            "type": "t_int256"
          },
          {
            "astId": 11799,
            "contract": "contracts/PairInfos.sol:PairInfos",
            "label": "lastUpdateBlock",
            "offset": 0,
            "slot": "2",
            "type": "t_uint256"
          }
        ],
        "numberOfBytes": "96"
      },
      "t_struct(PairParams)11788_storage": {
        "encoding": "inplace",
        "label": "struct PairInfos.PairParams",
        "members": [
          {
            "astId": 11781,
            "contract": "contracts/PairInfos.sol:PairInfos",
            "label": "onePercentDepthAbove",
            "offset": 0,
            "slot": "0",
            "type": "t_uint256"
          },
          {
            "astId": 11783,
            "contract": "contracts/PairInfos.sol:PairInfos",
            "label": "onePercentDepthBelow",
            "offset": 0,
            "slot": "1",
            "type": "t_uint256"
          },
          {
            "astId": 11785,
            "contract": "contracts/PairInfos.sol:PairInfos",
            "label": "rolloverFeePerBlockP",
            "offset": 0,
            "slot": "2",
            "type": "t_uint256"
          },
          {
            "astId": 11787,
            "contract": "contracts/PairInfos.sol:PairInfos",
            "label": "fundingFeePerBlockP",
            "offset": 0,
            "slot": "3",
            "type": "t_uint256"
          }
        ],
        "numberOfBytes": "128"
      },
      "t_struct(PairRolloverFees)11810_storage": {
        "encoding": "inplace",
        "label": "struct PairInfos.PairRolloverFees",
        "members": [
          {
            "astId": 11807,
            "contract": "contracts/PairInfos.sol:PairInfos",
            "label": "accPerCollateral",
            "offset": 0,
            "slot": "0",
            "type": "t_uint256"
          },
          {
            "astId": 11809,
            "contract": "contracts/PairInfos.sol:PairInfos",
            "label": "lastUpdateBlock",
            "offset": 0,
            "slot": "1",
            "type": "t_uint256"
          }
        ],
        "numberOfBytes": "64"
      },
      "t_struct(TradeInitialAccFees)11822_storage": {
        "encoding": "inplace",
        "label": "struct PairInfos.TradeInitialAccFees",
        "members": [
          {
            "astId": 11817,
            "contract": "contracts/PairInfos.sol:PairInfos",
            "label": "rollover",
            "offset": 0,
            "slot": "0",
            "type": "t_uint256"
          },
          {
            "astId": 11819,
            "contract": "contracts/PairInfos.sol:PairInfos",
            "label": "funding",
            "offset": 0,
            "slot": "1",
            "type": "t_int256"
          },
          {
            "astId": 11821,
            "contract": "contracts/PairInfos.sol:PairInfos",
            "label": "openedAfterUpdate",
            "offset": 0,
            "slot": "2",
            "type": "t_bool"
          }
        ],
        "numberOfBytes": "96"
      },
      "t_uint256": {
        "encoding": "inplace",
        "label": "uint256",
        "numberOfBytes": "32"
      },
      "t_uint8": {
        "encoding": "inplace",
        "label": "uint8",
        "numberOfBytes": "1"
      }
    }
  }
}