{
  "address": "0x41aBB7Eb9b2b47616C01cab3B3acE156B0569B23",
  "abi": [
    {
      "anonymous": false,
      "inputs": [
        {
          "indexed": false,
          "internalType": "uint8",
          "name": "version",
          "type": "uint8"
        }
      ],
      "name": "Initialized",
      "type": "event"
    },
    {
      "anonymous": false,
      "inputs": [
        {
          "indexed": true,
          "internalType": "address",
          "name": "previousOwner",
          "type": "address"
        },
        {
          "indexed": true,
          "internalType": "address",
          "name": "newOwner",
          "type": "address"
        }
      ],
      "name": "OwnershipTransferred",
      "type": "event"
    },
    {
      "anonymous": false,
      "inputs": [
        {
          "indexed": false,
          "internalType": "uint256",
          "name": "amount",
          "type": "uint256"
        },
        {
          "indexed": false,
          "internalType": "address",
          "name": "receiver",
          "type": "address"
        }
      ],
      "name": "sent",
      "type": "event"
    },
    {
      "inputs": [
        {
          "internalType": "address",
          "name": "owner",
          "type": "address"
        },
        {
          "internalType": "address",
          "name": "_WETH",
          "type": "address"
        }
      ],
      "name": "Faucet_init",
      "outputs": [],
      "stateMutability": "nonpayable",
      "type": "function"
    },
    {
      "inputs": [],
      "name": "owner",
      "outputs": [
        {
          "internalType": "address",
          "name": "",
          "type": "address"
        }
      ],
      "stateMutability": "view",
      "type": "function"
    },
    {
      "inputs": [],
      "name": "renounceOwnership",
      "outputs": [],
      "stateMutability": "nonpayable",
      "type": "function"
    },
    {
      "inputs": [
        {
          "internalType": "address payable",
          "name": "receiver",
          "type": "address"
        }
      ],
      "name": "send",
      "outputs": [],
      "stateMutability": "payable",
      "type": "function"
    },
    {
      "inputs": [
        {
          "internalType": "address",
          "name": "newOwner",
          "type": "address"
        }
      ],
      "name": "transferOwnership",
      "outputs": [],
      "stateMutability": "nonpayable",
      "type": "function"
    }
  ],
  "transactionHash": "0x697a322f338f786955a89999a84bcde18c0fcf4b4536a1854370cd6f30cf336d",
  "args": [],
  "numDeployments": 1,
  "solcInputHash": "988ef56db206df3adb44e87e8540bd4d",
  "bytecode": "0x608060405234801561001057600080fd5b5061055f806100206000396000f3fe60806040526004361061004a5760003560e01c8063118619a11461004f5780633e58c58c14610071578063715018a6146100845780638da5cb5b14610099578063f2fde38b146100c5575b600080fd5b34801561005b57600080fd5b5061006f61006a3660046104a5565b6100e5565b005b61006f61007f3660046104de565b610219565b34801561009057600080fd5b5061006f610357565b3480156100a557600080fd5b50603354604080516001600160a01b039092168252519081900360200190f35b3480156100d157600080fd5b5061006f6100e03660046104de565b61036b565b600054610100900460ff16158080156101055750600054600160ff909116105b8061011f5750303b15801561011f575060005460ff166001145b6101875760405162461bcd60e51b815260206004820152602e60248201527f496e697469616c697a61626c653a20636f6e747261637420697320616c72656160448201526d191e481a5b9a5d1a585b1a5e995960921b60648201526084015b60405180910390fd5b6000805460ff1916600117905580156101aa576000805461ff0019166101001790555b6101b3836103e4565b606580546001600160a01b0319166001600160a01b0384161790558015610214576000805461ff0019169055604051600181527f7f26b83ff96e1f2b6a682f133852f6798a09c465da95921460cefb38474024989060200160405180910390a15b505050565b6001600160a01b03811660009081526066602052604081205462015180906102419042610502565b101561028f5760405162461bcd60e51b815260206004820152601c60248201527f4661756365743a206561726c7920746f20676574206661756365747300000000604482015260640161017e565b6001600160a01b038281166000818152606660205260409081902042905560655490516340c10f1960e01b815260048101929092526706f05b59d3b200006024830152909116906340c10f1990604401600060405180830381600087803b1580156102f957600080fd5b505af115801561030d573d6000803e3d6000fd5b5050604080518481526001600160a01b03861660208201527f27739afea5f507907f5c505a6dfca04983f42c6befaf5b6358b35135a1528c9c935001905060405180910390a15050565b61035f610436565b61036960006103e4565b565b610373610436565b6001600160a01b0381166103d85760405162461bcd60e51b815260206004820152602660248201527f4f776e61626c653a206e6577206f776e657220697320746865207a65726f206160448201526564647265737360d01b606482015260840161017e565b6103e1816103e4565b50565b603380546001600160a01b038381166001600160a01b0319831681179093556040519116919082907f8be0079c531659141344cd1fd0a4f28419497f9722a3daafe3b4186f6b6457e090600090a35050565b6033546001600160a01b031633146103695760405162461bcd60e51b815260206004820181905260248201527f4f776e61626c653a2063616c6c6572206973206e6f7420746865206f776e6572604482015260640161017e565b6001600160a01b03811681146103e157600080fd5b600080604083850312156104b857600080fd5b82356104c381610490565b915060208301356104d381610490565b809150509250929050565b6000602082840312156104f057600080fd5b81356104fb81610490565b9392505050565b8181038181111561052357634e487b7160e01b600052601160045260246000fd5b9291505056fea26469706673582212206088561d911fd814d35a47cfc5c1e7e6dd9443556b8b86bfd52208a89aa5203464736f6c63430008170033",
  "devdoc": {
    "events": {
      "Initialized(uint8)": {
        "details": "Triggered when the contract has been initialized or reinitialized."
      }
    },
    "kind": "dev",
    "methods": {
      "owner()": {
        "details": "Returns the address of the current owner."
      },
      "renounceOwnership()": {
        "details": "Leaves the contract without owner. It will not be possible to call `onlyOwner` functions. Can only be called by the current owner. NOTE: Renouncing ownership will leave the contract without an owner, thereby disabling any functionality that is only available to the owner."
      },
      "transferOwnership(address)": {
        "details": "Transfers ownership of the contract to a new account (`newOwner`). Can only be called by the current owner."
      }
    },
    "version": 1
  },
  "userdoc": {
    "kind": "user",
    "methods": {},
    "version": 1
  },
  "storageLayout": {
    "storage": [
      {
        "astId": 2892,
        "contract": "contracts/WETHFaucet.sol:WETHFaucet",
        "label": "_initialized",
        "offset": 0,
        "slot": "0",
        "type": "t_uint8"
      },
      {
        "astId": 2895,
        "contract": "contracts/WETHFaucet.sol:WETHFaucet",
        "label": "_initializing",
        "offset": 1,
        "slot": "0",
        "type": "t_bool"
      },
      {
        "astId": 5212,
        "contract": "contracts/WETHFaucet.sol:WETHFaucet",
        "label": "__gap",
        "offset": 0,
        "slot": "1",
        "type": "t_array(t_uint256)50_storage"
      },
      {
        "astId": 2596,
        "contract": "contracts/WETHFaucet.sol:WETHFaucet",
        "label": "_owner",
        "offset": 0,
        "slot": "51",
        "type": "t_address"
      },
      {
        "astId": 2716,
        "contract": "contracts/WETHFaucet.sol:WETHFaucet",
        "label": "__gap",
        "offset": 0,
        "slot": "52",
        "type": "t_array(t_uint256)49_storage"
      },
      {
        "astId": 30891,
        "contract": "contracts/WETHFaucet.sol:WETHFaucet",
        "label": "WETH",
        "offset": 0,
        "slot": "101",
        "type": "t_contract(TokenInterface)33306"
      },
      {
        "astId": 30895,
        "contract": "contracts/WETHFaucet.sol:WETHFaucet",
        "label": "lastRequestTime",
        "offset": 0,
        "slot": "102",
        "type": "t_mapping(t_address,t_uint256)"
      }
    ],
    "types": {
      "t_address": {
        "encoding": "inplace",
        "label": "address",
        "numberOfBytes": "20"
      },
      "t_array(t_uint256)49_storage": {
        "base": "t_uint256",
        "encoding": "inplace",
        "label": "uint256[49]",
        "numberOfBytes": "1568"
      },
      "t_array(t_uint256)50_storage": {
        "base": "t_uint256",
        "encoding": "inplace",
        "label": "uint256[50]",
        "numberOfBytes": "1600"
      },
      "t_bool": {
        "encoding": "inplace",
        "label": "bool",
        "numberOfBytes": "1"
      },
      "t_contract(TokenInterface)33306": {
        "encoding": "inplace",
        "label": "contract TokenInterface",
        "numberOfBytes": "20"
      },
      "t_mapping(t_address,t_uint256)": {
        "encoding": "mapping",
        "key": "t_address",
        "label": "mapping(address => uint256)",
        "numberOfBytes": "32",
        "value": "t_uint256"
      },
      "t_uint256": {
        "encoding": "inplace",
        "label": "uint256",
        "numberOfBytes": "32"
      },
      "t_uint8": {
        "encoding": "inplace",
        "label": "uint8",
        "numberOfBytes": "1"
      }
    }
  }
}